{
  "_format": "hh-sol-artifact-1",
  "contractName": "ReferralV1Upgradeable1",
  "sourceName": "contracts/RegisterV1UpgradeableToken.sol",
  "abi": [
    {
      "anonymous": false,
      "inputs": [
        {
          "indexed": false,
          "internalType": "address",
          "name": "previousAdmin",
          "type": "address"
        },
        {
          "indexed": false,
          "internalType": "address",
          "name": "newAdmin",
          "type": "address"
        }
      ],
      "name": "AdminChanged",
      "type": "event"
    },
    {
      "anonymous": false,
      "inputs": [
        {
          "indexed": true,
          "internalType": "address",
          "name": "beacon",
          "type": "address"
        }
      ],
      "name": "BeaconUpgraded",
      "type": "event"
    },
    {
      "anonymous": false,
      "inputs": [
        {
          "indexed": false,
          "internalType": "address",
          "name": "globalAddress",
          "type": "address"
        },
        {
          "indexed": false,
          "internalType": "address",
          "name": "userAddress",
          "type": "address"
        },
        {
          "indexed": false,
          "internalType": "uint256",
          "name": "registrationValue",
          "type": "uint256"
        },
        {
          "indexed": false,
          "internalType": "uint256",
          "name": "rewardValue",
          "type": "uint256"
        },
        {
          "indexed": false,
          "internalType": "uint16",
          "name": "rewardRate",
          "type": "uint16"
        },
        {
          "indexed": false,
          "internalType": "uint16",
          "name": "rewardRateDecimals",
          "type": "uint16"
        },
        {
          "indexed": false,
          "internalType": "string",
          "name": "reason",
          "type": "string"
        }
      ],
      "name": "GlobalRewardsNotPaid",
      "type": "event"
    },
    {
      "anonymous": false,
      "inputs": [
        {
          "indexed": false,
          "internalType": "address",
          "name": "globalAddress",
          "type": "address"
        },
        {
          "indexed": false,
          "internalType": "address",
          "name": "userAddress",
          "type": "address"
        },
        {
          "indexed": false,
          "internalType": "uint256",
          "name": "registrationValue",
          "type": "uint256"
        },
        {
          "indexed": false,
          "internalType": "uint256",
          "name": "rewardValue",
          "type": "uint256"
        },
        {
          "indexed": false,
          "internalType": "uint16",
          "name": "rewardRate",
          "type": "uint16"
        },
        {
          "indexed": false,
          "internalType": "uint16",
          "name": "rewardRateDecimals",
          "type": "uint16"
        }
      ],
      "name": "GlobalRewardsPaid",
      "type": "event"
    },
    {
      "anonymous": false,
      "inputs": [
        {
          "indexed": false,
          "internalType": "address",
          "name": "ibpAddress",
          "type": "address"
        },
        {
          "indexed": false,
          "internalType": "address",
          "name": "userAddress",
          "type": "address"
        }
      ],
      "name": "IBPAdded",
      "type": "event"
    },
    {
      "anonymous": false,
      "inputs": [
        {
          "indexed": false,
          "internalType": "address",
          "name": "ibpAddress",
          "type": "address"
        },
        {
          "indexed": false,
          "internalType": "address",
          "name": "userAddress",
          "type": "address"
        },
        {
          "indexed": false,
          "internalType": "string",
          "name": "reason",
          "type": "string"
        }
      ],
      "name": "IBPNotAdded",
      "type": "event"
    },
    {
      "anonymous": false,
      "inputs": [
        {
          "indexed": false,
          "internalType": "address",
          "name": "ibpAddress",
          "type": "address"
        },
        {
          "indexed": false,
          "internalType": "string",
          "name": "reason",
          "type": "string"
        }
      ],
      "name": "IBPRewardsNotPaid",
      "type": "event"
    },
    {
      "anonymous": false,
      "inputs": [
        {
          "indexed": false,
          "internalType": "address",
          "name": "ibpAddress",
          "type": "address"
        },
        {
          "indexed": false,
          "internalType": "address",
          "name": "userAddress",
          "type": "address"
        },
        {
          "indexed": false,
          "internalType": "uint256",
          "name": "businessValue",
          "type": "uint256"
        },
        {
          "indexed": false,
          "internalType": "uint256",
          "name": "rewardValue",
          "type": "uint256"
        },
        {
          "indexed": false,
          "internalType": "uint16",
          "name": "rewardRate",
          "type": "uint16"
        },
        {
          "indexed": false,
          "internalType": "uint16",
          "name": "rewardRateDecimals",
          "type": "uint16"
        }
      ],
      "name": "IBPRewardsPaid",
      "type": "event"
    },
    {
      "anonymous": false,
      "inputs": [
        {
          "indexed": false,
          "internalType": "uint8",
          "name": "version",
          "type": "uint8"
        }
      ],
      "name": "Initialized",
      "type": "event"
    },
    {
      "anonymous": false,
      "inputs": [
        {
          "indexed": false,
          "internalType": "address",
          "name": "userAddress",
          "type": "address"
        },
        {
          "indexed": false,
          "internalType": "string",
          "name": "reason",
          "type": "string"
        }
      ],
      "name": "NoRewardsPaid",
      "type": "event"
    },
    {
      "anonymous": false,
      "inputs": [
        {
          "indexed": true,
          "internalType": "address",
          "name": "previousOwner",
          "type": "address"
        },
        {
          "indexed": true,
          "internalType": "address",
          "name": "newOwner",
          "type": "address"
        }
      ],
      "name": "OwnershipTransferred",
      "type": "event"
    },
    {
      "anonymous": false,
      "inputs": [
        {
          "indexed": false,
          "internalType": "address",
          "name": "account",
          "type": "address"
        }
      ],
      "name": "Paused",
      "type": "event"
    },
    {
      "anonymous": false,
      "inputs": [
        {
          "indexed": false,
          "internalType": "address",
          "name": "referrerAddress",
          "type": "address"
        },
        {
          "indexed": false,
          "internalType": "address",
          "name": "userAddress",
          "type": "address"
        },
        {
          "indexed": false,
          "internalType": "uint256",
          "name": "value",
          "type": "uint256"
        },
        {
          "indexed": false,
          "internalType": "uint256",
          "name": "rewardValue",
          "type": "uint256"
        },
        {
          "indexed": false,
          "internalType": "uint256",
          "name": "rewardRate",
          "type": "uint256"
        },
        {
          "indexed": false,
          "internalType": "uint256",
          "name": "rewardRateDecimals",
          "type": "uint256"
        },
        {
          "indexed": false,
          "internalType": "uint32",
          "name": "level",
          "type": "uint32"
        }
      ],
      "name": "ReferralRewardsPaid",
      "type": "event"
    },
    {
      "anonymous": false,
      "inputs": [
        {
          "indexed": false,
          "internalType": "address",
          "name": "referrerAddress",
          "type": "address"
        },
        {
          "indexed": false,
          "internalType": "address",
          "name": "refereeAddress",
          "type": "address"
        }
      ],
      "name": "ReferrerAdded",
      "type": "event"
    },
    {
      "anonymous": false,
      "inputs": [
        {
          "indexed": false,
          "internalType": "address",
          "name": "referrerAddress",
          "type": "address"
        },
        {
          "indexed": false,
          "internalType": "address",
          "name": "refereeAddress",
          "type": "address"
        },
        {
          "indexed": false,
          "internalType": "string",
          "name": "reason",
          "type": "string"
        }
      ],
      "name": "ReferrerNotAdded",
      "type": "event"
    },
    {
      "anonymous": false,
      "inputs": [
        {
          "indexed": false,
          "internalType": "address",
          "name": "userAddress",
          "type": "address"
        },
        {
          "indexed": false,
          "internalType": "uint32",
          "name": "userId",
          "type": "uint32"
        },
        {
          "indexed": false,
          "internalType": "uint8",
          "name": "planId",
          "type": "uint8"
        },
        {
          "indexed": false,
          "internalType": "address",
          "name": "referrerAddress",
          "type": "address"
        }
      ],
      "name": "Registration",
      "type": "event"
    },
    {
      "anonymous": false,
      "inputs": [
        {
          "indexed": false,
          "internalType": "address",
          "name": "parentAddress",
          "type": "address"
        },
        {
          "indexed": false,
          "internalType": "address",
          "name": "referrerAddress",
          "type": "address"
        },
        {
          "indexed": false,
          "internalType": "address",
          "name": "refereeAddress",
          "type": "address"
        },
        {
          "indexed": false,
          "internalType": "uint32",
          "name": "level",
          "type": "uint32"
        }
      ],
      "name": "TeamAddressAdded",
      "type": "event"
    },
    {
      "anonymous": false,
      "inputs": [
        {
          "indexed": false,
          "internalType": "address",
          "name": "account",
          "type": "address"
        }
      ],
      "name": "Unpaused",
      "type": "event"
    },
    {
      "anonymous": false,
      "inputs": [
        {
          "indexed": true,
          "internalType": "address",
          "name": "implementation",
          "type": "address"
        }
      ],
      "name": "Upgraded",
      "type": "event"
    },
    {
      "anonymous": false,
      "inputs": [
        {
          "indexed": false,
          "internalType": "address",
          "name": "globalAddress",
          "type": "address"
        },
        {
          "indexed": false,
          "internalType": "uint256",
          "name": "rewardValue",
          "type": "uint256"
        }
      ],
      "name": "WeeklyRewardsPaid",
      "type": "event"
    },
    {
      "inputs": [
        {
          "internalType": "address",
          "name": "_userAddress",
          "type": "address"
        },
        {
          "internalType": "address",
          "name": "_ibpAddress",
          "type": "address"
        },
        {
          "internalType": "uint256",
          "name": "_maxLimitInDecimals",
          "type": "uint256"
        }
      ],
      "name": "addIbpToAddressAdmin",
      "outputs": [],
      "stateMutability": "nonpayable",
      "type": "function"
    },
    {
      "inputs": [
        {
          "internalType": "address",
          "name": "_referrer",
          "type": "address"
        },
        {
          "internalType": "address",
          "name": "_user",
          "type": "address"
        }
      ],
      "name": "changeReferrer",
      "outputs": [],
      "stateMutability": "nonpayable",
      "type": "function"
    },
    {
      "inputs": [
        {
          "internalType": "address",
          "name": "_tokenAddress",
          "type": "address"
        }
      ],
      "name": "distributeWeeklyReward",
      "outputs": [
        {
          "internalType": "address",
          "name": "",
          "type": "address"
        }
      ],
      "stateMutability": "nonpayable",
      "type": "function"
    },
    {
      "inputs": [],
      "name": "getRegistrationsStats",
      "outputs": [
        {
          "internalType": "uint32",
          "name": "totalUser",
          "type": "uint32"
        },
        {
          "internalType": "uint256",
          "name": "totalRegistrationValue",
          "type": "uint256"
        },
        {
          "internalType": "uint256",
          "name": "totalReferralPaid",
          "type": "uint256"
        },
        {
          "internalType": "uint256",
          "name": "totalGlobalRewardsPaid",
          "type": "uint256"
        },
        {
          "internalType": "uint256",
          "name": "totalWeeklyRewardsPaid",
          "type": "uint256"
        },
        {
          "internalType": "uint256",
          "name": "totalCoreMembershipRewardPaid",
          "type": "uint256"
        },
        {
          "internalType": "uint256",
          "name": "totalIbpRewardsPaid",
          "type": "uint256"
        }
      ],
      "stateMutability": "view",
      "type": "function"
    },
    {
      "inputs": [
        {
          "internalType": "address",
          "name": "_userAddress",
          "type": "address"
        }
      ],
      "name": "getUserAccount",
      "outputs": [
        {
          "components": [
            {
              "internalType": "uint32",
              "name": "userId",
              "type": "uint32"
            },
            {
              "internalType": "address",
              "name": "selfAddress",
              "type": "address"
            },
            {
              "internalType": "address",
              "name": "ibpAddress",
              "type": "address"
            },
            {
              "internalType": "address",
              "name": "referrerAddress",
              "type": "address"
            },
            {
              "internalType": "address[]",
              "name": "refereeAddresses",
              "type": "address[]"
            },
            {
              "internalType": "address[]",
              "name": "teamAddress",
              "type": "address[]"
            },
            {
              "internalType": "uint32[]",
              "name": "teamLevels",
              "type": "uint32[]"
            },
            {
              "internalType": "uint256",
              "name": "selfBusiness",
              "type": "uint256"
            },
            {
              "internalType": "uint256",
              "name": "directBusiness",
              "type": "uint256"
            },
            {
              "internalType": "uint256",
              "name": "teamBusiness",
              "type": "uint256"
            },
            {
              "internalType": "uint256",
              "name": "maxLimit",
              "type": "uint256"
            },
            {
              "internalType": "uint256",
              "name": "currentLimit",
              "type": "uint256"
            },
            {
              "internalType": "uint256",
              "name": "referralRewards",
              "type": "uint256"
            },
            {
              "internalType": "uint256",
              "name": "globalRewards",
              "type": "uint256"
            },
            {
              "internalType": "uint256",
              "name": "weeklyRewards",
              "type": "uint256"
            },
            {
              "internalType": "uint256",
              "name": "ibpRewards",
              "type": "uint256"
            },
            {
              "internalType": "bool",
              "name": "isGlobal",
              "type": "bool"
            },
            {
              "internalType": "uint32[]",
              "name": "globalIndexes",
              "type": "uint32[]"
            }
          ],
          "internalType": "struct AccountStruct",
          "name": "",
          "type": "tuple"
        }
      ],
      "stateMutability": "view",
      "type": "function"
    },
    {
      "inputs": [
        {
          "internalType": "address",
          "name": "_userAddress",
          "type": "address"
        }
      ],
      "name": "getUserBusiness",
      "outputs": [
        {
          "internalType": "uint256",
          "name": "selfBusiness",
          "type": "uint256"
        },
        {
          "internalType": "uint256",
          "name": "directBusiness",
          "type": "uint256"
        },
        {
          "internalType": "uint256",
          "name": "teamBusiness",
          "type": "uint256"
        },
        {
          "internalType": "uint256",
          "name": "totalBusiness",
          "type": "uint256"
        }
      ],
      "stateMutability": "view",
      "type": "function"
    },
    {
      "inputs": [
        {
          "internalType": "address",
          "name": "_userAddress",
          "type": "address"
        }
      ],
      "name": "getUserIbpAddress",
      "outputs": [
        {
          "internalType": "address",
          "name": "",
          "type": "address"
        }
      ],
      "stateMutability": "view",
      "type": "function"
    },
    {
      "inputs": [
        {
          "internalType": "address",
          "name": "_userAddress",
          "type": "address"
        }
      ],
      "name": "getUserLimit",
      "outputs": [
        {
          "internalType": "uint256",
          "name": "maxLimit",
          "type": "uint256"
        },
        {
          "internalType": "uint256",
          "name": "currentLimit",
          "type": "uint256"
        },
        {
          "internalType": "uint256",
          "name": "limitRemaingvalue",
          "type": "uint256"
        }
      ],
      "stateMutability": "view",
      "type": "function"
    },
    {
      "inputs": [
        {
          "internalType": "address",
          "name": "_userAddress",
          "type": "address"
        }
      ],
      "name": "getUserRewards",
      "outputs": [
        {
          "internalType": "uint256",
          "name": "referralReward",
          "type": "uint256"
        },
        {
          "internalType": "uint256",
          "name": "globalReward",
          "type": "uint256"
        },
        {
          "internalType": "uint256",
          "name": "weeklyReward",
          "type": "uint256"
        },
        {
          "internalType": "uint256",
          "name": "ibpReward",
          "type": "uint256"
        },
        {
          "internalType": "uint256",
          "name": "totalIncome",
          "type": "uint256"
        }
      ],
      "stateMutability": "view",
      "type": "function"
    },
    {
      "inputs": [
        {
          "internalType": "address",
          "name": "_userAddress",
          "type": "address"
        }
      ],
      "name": "getUserTeam",
      "outputs": [
        {
          "internalType": "address",
          "name": "referrer",
          "type": "address"
        },
        {
          "internalType": "address[]",
          "name": "referees",
          "type": "address[]"
        },
        {
          "internalType": "uint256",
          "name": "refereeCount",
          "type": "uint256"
        },
        {
          "internalType": "address[]",
          "name": "team",
          "type": "address[]"
        },
        {
          "internalType": "uint32[]",
          "name": "teamLevels",
          "type": "uint32[]"
        },
        {
          "internalType": "uint256",
          "name": "teamCount",
          "type": "uint256"
        }
      ],
      "stateMutability": "view",
      "type": "function"
    },
    {
      "inputs": [],
      "name": "getVariablesContract",
      "outputs": [
        {
          "internalType": "address",
          "name": "",
          "type": "address"
        }
      ],
      "stateMutability": "view",
      "type": "function"
    },
    {
      "inputs": [],
      "name": "getWeeklyRewardToBeDistributed",
      "outputs": [
        {
          "internalType": "uint256",
          "name": "",
          "type": "uint256"
        }
      ],
      "stateMutability": "view",
      "type": "function"
    },
    {
      "inputs": [],
      "name": "getWeeklyRewardsRemainTime",
      "outputs": [
        {
          "internalType": "uint256",
          "name": "",
          "type": "uint256"
        }
      ],
      "stateMutability": "view",
      "type": "function"
    },
    {
      "inputs": [],
      "name": "initialize",
      "outputs": [],
      "stateMutability": "nonpayable",
      "type": "function"
    },
    {
      "inputs": [
        {
          "internalType": "address",
          "name": "_userAddress",
          "type": "address"
        }
      ],
      "name": "isUserInGlobalList",
      "outputs": [
        {
          "internalType": "bool",
          "name": "isInList",
          "type": "bool"
        },
        {
          "internalType": "uint32[]",
          "name": "indexes",
          "type": "uint32[]"
        },
        {
          "internalType": "uint256",
          "name": "totalGlobalIds",
          "type": "uint256"
        }
      ],
      "stateMutability": "view",
      "type": "function"
    },
    {
      "inputs": [],
      "name": "owner",
      "outputs": [
        {
          "internalType": "address",
          "name": "",
          "type": "address"
        }
      ],
      "stateMutability": "view",
      "type": "function"
    },
    {
      "inputs": [],
      "name": "pause",
      "outputs": [],
      "stateMutability": "nonpayable",
      "type": "function"
    },
    {
      "inputs": [],
      "name": "paused",
      "outputs": [
        {
          "internalType": "bool",
          "name": "",
          "type": "bool"
        }
      ],
      "stateMutability": "view",
      "type": "function"
    },
    {
      "inputs": [],
      "name": "proxiableUUID",
      "outputs": [
        {
          "internalType": "bytes32",
          "name": "",
          "type": "bytes32"
        }
      ],
      "stateMutability": "view",
      "type": "function"
    },
    {
      "inputs": [
        {
          "internalType": "address",
          "name": "_userAddress",
          "type": "address"
        }
      ],
      "name": "pushAddressToGlobal",
      "outputs": [],
      "stateMutability": "nonpayable",
      "type": "function"
    },
    {
      "inputs": [
        {
          "internalType": "address",
          "name": "_referrer",
          "type": "address"
        },
        {
          "internalType": "uint8",
          "name": "_planId",
          "type": "uint8"
        },
        {
          "internalType": "address",
          "name": "_tokenAddress",
          "type": "address"
        }
      ],
      "name": "registrationWithToken",
      "outputs": [],
      "stateMutability": "nonpayable",
      "type": "function"
    },
    {
      "inputs": [
        {
          "internalType": "address",
          "name": "_referrer",
          "type": "address"
        },
        {
          "internalType": "address",
          "name": "_userAddress",
          "type": "address"
        },
        {
          "internalType": "uint8",
          "name": "_planId",
          "type": "uint8"
        },
        {
          "internalType": "address",
          "name": "_tokenAddress",
          "type": "address"
        }
      ],
      "name": "registrationWithTokenAdmin",
      "outputs": [],
      "stateMutability": "nonpayable",
      "type": "function"
    },
    {
      "inputs": [
        {
          "internalType": "address",
          "name": "_userAddress",
          "type": "address"
        }
      ],
      "name": "removeIbpFromAddressAdmin",
      "outputs": [],
      "stateMutability": "nonpayable",
      "type": "function"
    },
    {
      "inputs": [],
      "name": "renounceOwnership",
      "outputs": [],
      "stateMutability": "nonpayable",
      "type": "function"
    },
    {
      "inputs": [
        {
          "internalType": "address",
          "name": "_contractAddress",
          "type": "address"
        }
      ],
      "name": "setVariablesContract",
      "outputs": [],
      "stateMutability": "nonpayable",
      "type": "function"
    },
    {
      "inputs": [
        {
          "internalType": "address",
          "name": "newOwner",
          "type": "address"
        }
      ],
      "name": "transferOwnership",
      "outputs": [],
      "stateMutability": "nonpayable",
      "type": "function"
    },
    {
      "inputs": [],
      "name": "unpause",
      "outputs": [],
      "stateMutability": "nonpayable",
      "type": "function"
    },
    {
      "inputs": [
        {
          "internalType": "address",
          "name": "newImplementation",
          "type": "address"
        }
      ],
      "name": "upgradeTo",
      "outputs": [],
      "stateMutability": "nonpayable",
      "type": "function"
    },
    {
      "inputs": [
        {
          "internalType": "address",
          "name": "newImplementation",
          "type": "address"
        },
        {
          "internalType": "bytes",
          "name": "data",
          "type": "bytes"
        }
      ],
      "name": "upgradeToAndCall",
      "outputs": [],
      "stateMutability": "payable",
      "type": "function"
    },
    {
      "stateMutability": "payable",
      "type": "receive"
    }
  ],
  "bytecode": "0x60a06040523060805234801561001457600080fd5b506080516159c66200004d60003960008181610a0901528181610a5201528181610e4f01528181610e8f0152610f2201526159c66000f3fe6080604052600436106101c65760003560e01c8063846688f7116100f7578063df10817611610095578063f2fde38b11610064578063f2fde38b14610572578063f87127b414610592578063faeda7e5146105d2578063fb47e0161461060457600080fd5b8063df108176146104d9578063e6f6769e146104f9578063e9587e8614610519578063f13a143f1461055457600080fd5b8063986992fa116100d1578063986992fa14610464578063aa8d713a14610479578063b1e0c09014610499578063d277b8a9146104b957600080fd5b8063846688f7146103e05780638da5cb5b146103f5578063967012eb1461042757600080fd5b80633f4ba83a116101645780635c975abb1161013e5780635c975abb1461037e578063715018a6146103a15780638129fc1c146103b65780638456cb59146103cb57600080fd5b80633f4ba83a146103335780634f1ef2861461034857806352d1902d1461035b57600080fd5b806313bc9a59116101a057806313bc9a59146102a45780633659cfe6146102c45780633b38bf72146102e45780633ef575e91461030457600080fd5b80630690c6a8146101d2578063078b0fb71461023a5780630ba0dba31461028257600080fd5b366101cd57005b600080fd5b3480156101de57600080fd5b5060fd5460fe5461010154610102546101035461010454610105546040805163ffffffff90981688526020880196909652948601939093526060850191909152608084015260a083015260c082015260e0015b60405180910390f35b34801561024657600080fd5b5061025a610255366004614dcb565b610631565b604080519586526020860194909452928401919091526060830152608082015260a001610231565b34801561028e57600080fd5b506102a261029d366004614dcb565b610902565b005b3480156102b057600080fd5b506102a26102bf366004614dcb565b61092c565b3480156102d057600080fd5b506102a26102df366004614dcb565b6109ff565b3480156102f057600080fd5b506102a26102ff366004614de8565b610ae7565b34801561031057600080fd5b5061032461031f366004614dcb565b610b68565b60405161023193929190614e62565b34801561033f57600080fd5b506102a2610e33565b6102a2610356366004614f25565b610e45565b34801561036757600080fd5b50610370610f15565b604051908152602001610231565b34801561038a57600080fd5b5060335460ff166040519015158152602001610231565b3480156103ad57600080fd5b506102a2610fc8565b3480156103c257600080fd5b506102a2610fda565b3480156103d757600080fd5b506102a2611126565b3480156103ec57600080fd5b5060ff54610370565b34801561040157600080fd5b506065546001600160a01b03165b6040516001600160a01b039091168152602001610231565b34801561043357600080fd5b5061040f610442366004614dcb565b6001600160a01b03908116600090815261010660205260409020600101541690565b34801561047057600080fd5b50610370611136565b34801561048557600080fd5b506102a2610494366004614dcb565b61116f565b3480156104a557600080fd5b506102a26104b4366004614fc7565b6112b5565b3480156104c557600080fd5b5061040f6104d4366004614dcb565b6113b2565b3480156104e557600080fd5b506102a26104f4366004615023565b6115d4565b34801561050557600080fd5b506102a2610514366004615064565b611687565b34801561052557600080fd5b50610539610534366004614dcb565b611694565b60408051938452602084019290925290820152606001610231565b34801561056057600080fd5b5060fb546001600160a01b031661040f565b34801561057e57600080fd5b506102a261058d366004614dcb565b61195a565b34801561059e57600080fd5b506105b26105ad366004614dcb565b6119d0565b604080519485526020850193909352918301526060820152608001610231565b3480156105de57600080fd5b506105f26105ed366004614dcb565b611ca1565b604051610231969594939291906150e8565b34801561061057600080fd5b5061062461061f366004614dcb565b611f7a565b604051610231919061514c565b6001600160a01b03808216600090815261010660209081526040808320815161024081018352815463ffffffff81168252600160201b9004861681850152600182015486168184015260028201549095166060860152600381018054835181860281018601909452808452949586958695869586958695909360808601938301828280156106e857602002820191906000526020600020905b81546001600160a01b031681526001909101906020018083116106ca575b505050505081526020016004820180548060200260200160405190810160405280929190818152602001828054801561074a57602002820191906000526020600020905b81546001600160a01b0316815260019091019060200180831161072c575b50505050508152602001600582018054806020026020016040519081016040528092919081815260200182805480156107ce57602002820191906000526020600020906000905b82829054906101000a900463ffffffff1663ffffffff16815260200190600401906020826003010492830192600103820291508084116107915790505b5050505050815260200160068201548152602001600782015481526020016008820154815260200160098201548152602001600a8201548152602001600b8201548152602001600c8201548152602001600d8201548152602001600e8201548152602001600f820160009054906101000a900460ff16151515158152602001601082018054806020026020016040519081016040528092919081815260200182805480156108c757602002820191906000526020600020906000905b82829054906101000a900463ffffffff1663ffffffff168152602001906004019060208260030104928301926001038202915080841161088a5790505b505050919092525050506101808101516101a08201516101c08301516101e084015161016090940151929b919a509850919650945092505050565b61090a6122c9565b60fb80546001600160a01b0319166001600160a01b0392909216919091179055565b6109346122c9565b6001600160a01b038116600090815261010660205260409020600f8101805460ff1916600190811790915560fc5460109092019161097291906152c9565b8154600180820184556000938452602084206008830401805460079093166004026101000a63ffffffff81810219909416949093169290920292909217905560fc805491820181559091527f371f36870d18f32a11fea0f144b021c8b407bb50f8e0267c711123f454b963c00180546001600160a01b0319166001600160a01b0392909216919091179055565b6001600160a01b037f0000000000000000000000000000000000000000000000000000000000000000163003610a505760405162461bcd60e51b8152600401610a47906152dc565b60405180910390fd5b7f00000000000000000000000000000000000000000000000000000000000000006001600160a01b0316610a9960008051602061592a833981519152546001600160a01b031690565b6001600160a01b031614610abf5760405162461bcd60e51b8152600401610a4790615328565b610ac881612323565b60408051600080825260208201909252610ae49183919061232b565b50565b610aef6122c9565b6001600160a01b039081166000818152610106602090815260408083206002018054959096166001600160a01b0319958616811790965594825293812060038101805460018181018355918452868420018054861685179055600490910180549182018155825293902090920180549091169091179055565b6001600160a01b03808216600090815261010660209081526040808320815161024081018352815463ffffffff81168252600160201b9004861681850152600182015486168184015260028201549095166060868101919091526003820180548451818702810187019095528085529596919587958695939493608086019390929091830182828015610c2457602002820191906000526020600020905b81546001600160a01b03168152600190910190602001808311610c06575b5050505050815260200160048201805480602002602001604051908101604052809291908181526020018280548015610c8657602002820191906000526020600020905b81546001600160a01b03168152600190910190602001808311610c68575b5050505050815260200160058201805480602002602001604051908101604052809291908181526020018280548015610d0a57602002820191906000526020600020906000905b82829054906101000a900463ffffffff1663ffffffff1681526020019060040190602082600301049283019260010382029150808411610ccd5790505b5050505050815260200160068201548152602001600782015481526020016008820154815260200160098201548152602001600a8201548152602001600b8201548152602001600c8201548152602001600d8201548152602001600e8201548152602001600f820160009054906101000a900460ff1615151515815260200160108201805480602002602001604051908101604052809291908181526020018280548015610e0357602002820191906000526020600020906000905b82829054906101000a900463ffffffff1663ffffffff1681526020019060040190602082600301049283019260010382029150808411610dc65790505b50505050508152505090506000816102200151511115610e2257600193505b610220015180519395909450915050565b610e3b6122c9565b610e4361249b565b565b6001600160a01b037f0000000000000000000000000000000000000000000000000000000000000000163003610e8d5760405162461bcd60e51b8152600401610a47906152dc565b7f00000000000000000000000000000000000000000000000000000000000000006001600160a01b0316610ed660008051602061592a833981519152546001600160a01b031690565b6001600160a01b031614610efc5760405162461bcd60e51b8152600401610a4790615328565b610f0582612323565b610f118282600161232b565b5050565b6000306001600160a01b037f00000000000000000000000000000000000000000000000000000000000000001614610fb55760405162461bcd60e51b815260206004820152603860248201527f555550535570677261646561626c653a206d757374206e6f742062652063616c60448201527f6c6564207468726f7567682064656c656761746563616c6c00000000000000006064820152608401610a47565b5060008051602061592a83398151915290565b610fd06122c9565b610e4360006124ed565b600054610100900460ff1615808015610ffa5750600054600160ff909116105b806110145750303b158015611014575060005460ff166001145b6110775760405162461bcd60e51b815260206004820152602e60248201527f496e697469616c697a61626c653a20636f6e747261637420697320616c72656160448201526d191e481a5b9a5d1a585b1a5e995960921b6064820152608401610a47565b6000805460ff19166001179055801561109a576000805461ff0019166101001790555b60fb80546001600160a01b03191673494549e00fe6598e3dc93254c5377c406dda857917905542610100556110cd61253f565b6110d561256e565b6110dd61259d565b8015610ae4576000805461ff0019169055604051600181527f7f26b83ff96e1f2b6a682f133852f6798a09c465da95921460cefb3847402498906020015b60405180910390a150565b61112e6122c9565b610e436125c4565b6000806101005462093a8061114b9190615374565b90504281811061115e5760009250505090565b61116881836152c9565b9250505090565b6111776122c9565b60fb60009054906101000a90046001600160a01b03166001600160a01b031663b2e6b9126040518163ffffffff1660e01b8152600401602060405180830381865afa1580156111ca573d6000803e3d6000fd5b505050506040513d601f19601f820116820180604052508101906111ee9190615392565b6001600160a01b038281166000908152610106602090815260409182902060010180546001600160a01b0319169484169490941790935560fb5481516359735c8960e11b8152915160008051602061597183398151915294919093169263b2e6b9129260048082019392918290030181865afa158015611272573d6000803e3d6000fd5b505050506040513d601f19601f820116820180604052508101906112969190615392565b604080516001600160a01b03928316815291841660208301520161111b565b60fb60009054906101000a90046001600160a01b03166001600160a01b031663f1012b456040518163ffffffff1660e01b8152600401602060405180830381865afa158015611308573d6000803e3d6000fd5b505050506040513d601f19601f8201168201806040525081019061132c9190615392565b6001600160a01b0316336001600160a01b0316146113a05760405162461bcd60e51b815260206004820152602b60248201527f4f6e6c792050726573616c6520636f6e74726163742063616e2075736520746860448201526a34b990333ab731ba34b7b760a91b6064820152608401610a47565b6113ac84848484612601565b50505050565b6000806101005462093a806113c79190615374565b9050428181101561141a5760405162461bcd60e51b815260206004820152601c60248201527f5765656b6c792074696d65206973206e6f74206f766572207965742e000000006044820152606401610a47565b60006114246140ca565b6040516370a0823160e01b81523060048201529091506000906001600160a01b038716906370a0823190602401602060405180830381865afa15801561146e573d6000803e3d6000fd5b505050506040513d601f19601f8201168201806040525081019061149291906153af565b60ff549091508082101561150e5760405162461bcd60e51b815260206004820152603760248201527f436f6e74726163742068617320696e73756666696369656e742062616c616e6360448201527f6520746f2064697374726962757465207265776172642e0000000000000000006064820152608401610a47565b60405163a9059cbb60e01b81526001600160a01b0384811660048301526024820183905288169063a9059cbb906044016020604051808303816000875af115801561155d573d6000803e3d6000fd5b505050506040513d601f19601f8201168201806040525081019061158191906153d8565b50600060ff55604080516001600160a01b0385168152602081018390527ffff6edc60fd30afefcc47525cdf85502200830b22550391f79f9e383df03afad910160405180910390a1509095945050505050565b6115dc6122c9565b6001600160a01b0383811660009081526101066020526040902060010180546001600160a01b03191691841691909117905561162081670de0b6b3a76400006153f3565b6001600160a01b038416600090815261010660205260408120600901805490919061164c908490615374565b9091555050604080516001600160a01b03808516825285166020820152600080516020615971833981519152910160405180910390a1505050565b336113ac84828585612601565b6001600160a01b03808216600090815261010660209081526040808320815161024081018352815463ffffffff81168252600160201b90048616818501526001820154861681840152600282015490951660608601526003810180548351818602810186019094528084529495869586958695929493608086019392909183018282801561174b57602002820191906000526020600020905b81546001600160a01b0316815260019091019060200180831161172d575b50505050508152602001600482018054806020026020016040519081016040528092919081815260200182805480156117ad57602002820191906000526020600020905b81546001600160a01b0316815260019091019060200180831161178f575b505050505081526020016005820180548060200260200160405190810160405280929190818152602001828054801561183157602002820191906000526020600020906000905b82829054906101000a900463ffffffff1663ffffffff16815260200190600401906020826003010492830192600103820291508084116117f45790505b5050505050815260200160068201548152602001600782015481526020016008820154815260200160098201548152602001600a8201548152602001600b8201548152602001600c8201548152602001600d8201548152602001600e8201548152602001600f820160009054906101000a900460ff161515151581526020016010820180548060200260200160405190810160405280929190818152602001828054801561192a57602002820191906000526020600020906000905b82829054906101000a900463ffffffff1663ffffffff16815260200190600401906020826003010492830192600103820291508084116118ed5790505b505050919092525050506101408101516101608201519095509350905061195183856152c9565b93959294505050565b6119626122c9565b6001600160a01b0381166119c75760405162461bcd60e51b815260206004820152602660248201527f4f776e61626c653a206e6577206f776e657220697320746865207a65726f206160448201526564647265737360d01b6064820152608401610a47565b610ae4816124ed565b6001600160a01b03808216600090815261010660209081526040808320815161024081018352815463ffffffff81168252600160201b900486168185015260018201548616818401526002820154909516606086015260038101805483518186028101860190945280845294958695869586958695939460808601939192909190830182828015611a8a57602002820191906000526020600020905b81546001600160a01b03168152600190910190602001808311611a6c575b5050505050815260200160048201805480602002602001604051908101604052809291908181526020018280548015611aec57602002820191906000526020600020905b81546001600160a01b03168152600190910190602001808311611ace575b5050505050815260200160058201805480602002602001604051908101604052809291908181526020018280548015611b7057602002820191906000526020600020906000905b82829054906101000a900463ffffffff1663ffffffff1681526020019060040190602082600301049283019260010382029150808411611b335790505b5050505050815260200160068201548152602001600782015481526020016008820154815260200160098201548152602001600a8201548152602001600b8201548152602001600c8201548152602001600d8201548152602001600e8201548152602001600f820160009054906101000a900460ff1615151515815260200160108201805480602002602001604051908101604052809291908181526020018280548015611c6957602002820191906000526020600020906000905b82829054906101000a900463ffffffff1663ffffffff1681526020019060040190602082600301049283019260010382029150808411611c2c5790505b5050509190925250505060e0810151610100820151610120830151919750955093509050611c978584615374565b9150509193509193565b6001600160a01b03808216600090815261010660209081526040808320815161024081018352815463ffffffff81168252600160201b90048616818501526001820154861681840152600282015490951660608681019190915260038201805484518187028101870190955280855295969195879587958695889586959094919360808601939290830182828015611d6257602002820191906000526020600020905b81546001600160a01b03168152600190910190602001808311611d44575b5050505050815260200160048201805480602002602001604051908101604052809291908181526020018280548015611dc457602002820191906000526020600020905b81546001600160a01b03168152600190910190602001808311611da6575b5050505050815260200160058201805480602002602001604051908101604052809291908181526020018280548015611e4857602002820191906000526020600020906000905b82829054906101000a900463ffffffff1663ffffffff1681526020019060040190602082600301049283019260010382029150808411611e0b5790505b5050505050815260200160068201548152602001600782015481526020016008820154815260200160098201548152602001600a8201548152602001600b8201548152602001600c8201548152602001600d8201548152602001600e8201548152602001600f820160009054906101000a900460ff1615151515815260200160108201805480602002602001604051908101604052809291908181526020018280548015611f4157602002820191906000526020600020906000905b82829054906101000a900463ffffffff1663ffffffff1681526020019060040190602082600301049283019260010382029150808411611f045790505b5050509190925250505060608101516080820151805160a084015160c0909401518451939d929c50909a50929850919650945092505050565b61202b604051806102400160405280600063ffffffff16815260200160006001600160a01b0316815260200160006001600160a01b0316815260200160006001600160a01b03168152602001606081526020016060815260200160608152602001600081526020016000815260200160008152602001600081526020016000815260200160008152602001600081526020016000815260200160008152602001600015158152602001606081525090565b6001600160a01b0380831660009081526101066020908152604091829020825161024081018452815463ffffffff81168252600160201b9004851681840152600182015485168185015260028201549094166060850152600381018054845181850281018501909552808552919360808601939092908301828280156120da57602002820191906000526020600020905b81546001600160a01b031681526001909101906020018083116120bc575b505050505081526020016004820180548060200260200160405190810160405280929190818152602001828054801561213c57602002820191906000526020600020905b81546001600160a01b0316815260019091019060200180831161211e575b50505050508152602001600582018054806020026020016040519081016040528092919081815260200182805480156121c057602002820191906000526020600020906000905b82829054906101000a900463ffffffff1663ffffffff16815260200190600401906020826003010492830192600103820291508084116121835790505b5050505050815260200160068201548152602001600782015481526020016008820154815260200160098201548152602001600a8201548152602001600b8201548152602001600c8201548152602001600d8201548152602001600e8201548152602001600f820160009054906101000a900460ff16151515158152602001601082018054806020026020016040519081016040528092919081815260200182805480156122b957602002820191906000526020600020906000905b82829054906101000a900463ffffffff1663ffffffff168152602001906004019060208260030104928301926001038202915080841161227c5790505b5050505050815250509050919050565b6065546001600160a01b03163314610e435760405162461bcd60e51b815260206004820181905260248201527f4f776e61626c653a2063616c6c6572206973206e6f7420746865206f776e65726044820152606401610a47565b610ae46122c9565b7f4910fdfa16fed3260ed0e7147f7cc6da11a60208b5b9406d12a635614ffd91435460ff16156123635761235e83614151565b505050565b826001600160a01b03166352d1902d6040518163ffffffff1660e01b8152600401602060405180830381865afa9250505080156123bd575060408051601f3d908101601f191682019092526123ba918101906153af565b60015b6124205760405162461bcd60e51b815260206004820152602e60248201527f45524331393637557067726164653a206e657720696d706c656d656e7461746960448201526d6f6e206973206e6f74205555505360901b6064820152608401610a47565b60008051602061592a833981519152811461248f5760405162461bcd60e51b815260206004820152602960248201527f45524331393637557067726164653a20756e737570706f727465642070726f786044820152681a58589b195555525160ba1b6064820152608401610a47565b5061235e8383836141ed565b6124a3614212565b6033805460ff191690557f5db9ee0a495bf2e6ff9c91a7834c1ba4fdd244a5e8aa4e537bd38aeae4b073aa335b6040516001600160a01b03909116815260200160405180910390a1565b606580546001600160a01b038381166001600160a01b0319831681179093556040519116919082907f8be0079c531659141344cd1fd0a4f28419497f9722a3daafe3b4186f6b6457e090600090a35050565b600054610100900460ff166125665760405162461bcd60e51b8152600401610a479061540a565b610e4361425b565b600054610100900460ff166125955760405162461bcd60e51b8152600401610a479061540a565b610e4361428e565b600054610100900460ff16610e435760405162461bcd60e51b8152600401610a479061540a565b6125cc6142be565b6033805460ff191660011790557f62e78cea01bee320cd4e420270b5ea74000d11b0c9f74754ebdbfc544b05a2586124d03390565b60fb54604051630efc12b160e01b815260ff841660048201526001600160a01b03909116906000908290630efc12b190602401600060405180830381865afa158015612651573d6000803e3d6000fd5b505050506040513d6000823e601f3d908101601f1916820160405261267991908101906154d1565b905060008160400151116126e25760405162461bcd60e51b815260206004820152602a60248201527f56616c7565206973207a65726f2e20506c656173652073656c65637420636f726044820152693932b1ba10383630b71760b11b6064820152608401610a47565b6040516373a5799760e11b81526001600160a01b0384811660048301526000919084169063e74af32e90602401600060405180830381865afa15801561272c573d6000803e3d6000fd5b505050506040513d6000823e601f3d908101601f19168201604052612754919081019061557e565b6060810151815160c083015192935090916127bc5760405162461bcd60e51b815260206004820152602260248201527f546f6b656e206973206e6f7420737570706f72746564206f722064697361626c604482015261195960f21b6064820152608401610a47565b6000856001600160a01b031663918a54db6040518163ffffffff1660e01b8152600401600060405180830381865afa1580156127fc573d6000803e3d6000fd5b505050506040513d6000823e601f3d908101601f191682016040526128249190810190615664565b9050866001600160a01b03166323b872dd8a3060128760ff161061284c57886040015161285f565b61285f896040015160128960ff16614304565b6040516001600160e01b031960e086901b1681526001600160a01b03938416600482015292909116602483015260448201526064016020604051808303816000875af11580156128b3573d6000803e3d6000fd5b505050506040513d601f19601f820116820180604052508101906128d791906153d8565b506001600160a01b0389166000908152610106602052604081208054909163ffffffff90911690036129745760fd805463ffffffff169060006129198361571e565b82546101009290920a63ffffffff81810219909316918316021790915560fd548354911663ffffffff199091168117835560009081526101076020526040902080546001600160a01b0319166001600160a01b038d16179055505b8054640100000000600160c01b031916600160201b6001600160a01b038c160217815560408601516006820180546000906129b0908490615374565b9091555050606086015160408701516129c991906153f3565b8160090160008282546129dc9190615374565b90915550506040516204942560ec1b6020820152602301604051602081830303815290604052805190602001208660200151604051602001612a1e9190615741565b60405160208183030381529060405280519060200120148015612a5a5750805460018201546001600160a01b03908116600160201b9092041614155b15612a8b578054600182018054600160201b9092046001600160a01b03166001600160a01b03199092169190911790555b6040805161024081018252825463ffffffff811682526001600160a01b03600160201b9091048116602080840191909152600185015482168385015260028501549091166060830152600384018054845181840281018401909552808552612d1d9486936080860193919290830182828015612b3057602002820191906000526020600020905b81546001600160a01b03168152600190910190602001808311612b12575b5050505050815260200160048201805480602002602001604051908101604052809291908181526020018280548015612b9257602002820191906000526020600020905b81546001600160a01b03168152600190910190602001808311612b74575b5050505050815260200160058201805480602002602001604051908101604052809291908181526020018280548015612c1657602002820191906000526020600020906000905b82829054906101000a900463ffffffff1663ffffffff1681526020019060040190602082600301049283019260010382029150808411612bd95790505b5050505050815260200160068201548152602001600782015481526020016008820154815260200160098201548152602001600a8201548152602001600b8201548152602001600c8201548152602001600d8201548152602001600e8201548152602001600f820160009054906101000a900460ff1615151515815260200160108201805480602002602001604051908101604052809291908181526020018280548015612d0f57602002820191906000526020600020906000905b82829054906101000a900463ffffffff1663ffffffff1681526020019060040190602082600301049283019260010382029150808411612cd25790505b50505050508152505061433a565b612d2e57612d2e8b8b84518a614359565b8054600282015460408051600160201b84046001600160a01b03908116825263ffffffff909416602082015260ff8d1681830152929091166060830152517fccdfed8601106cae21493f7848436196048b60f2dc70db89d92e3acdabb0ee299181900360800190a160fc5415612f64576000612da86140ca565b90506001600160a01b03811615612f62576001600160a01b0381166000908152610106602052604080822090890151909190606490612de890600a6153f3565b612df29190615773565b90508082600c016000828254612e089190615374565b925050819055508082600a016000828254612e239190615374565b90915550506001600160a01b03861663a9059cbb84601260ff8b1610612e495783612e58565b612e588460128c60ff16614304565b6040516001600160e01b031960e085901b1681526001600160a01b03909216600483015260248201526044016020604051808303816000875af1158015612ea3573d6000803e3d6000fd5b505050506040513d601f19601f82011682018060405250810190612ec791906153d8565b507f693fc02576006378cd4577590d99ad6b18ad4c566c433b85643d7b07a4815665838e8b6040015184600a6064604051612f3f969594939291906001600160a01b0396871681529490951660208501526040840192909252606083015261ffff90811660808301529190911660a082015260c00190565b60405180910390a1806101026000828254612f5a9190615374565b909155505050505b505b60018101546001600160a01b031615613516576001808201546001600160a01b0390811660009081526101066020908152604091829020825161024081018452815463ffffffff81168252600160201b9004851681840152948101548416858401526002810154909316606085015260038301805483518184028101840190945280845293946132209490938693608086019391929083018282801561303357602002820191906000526020600020905b81546001600160a01b03168152600190910190602001808311613015575b505050505081526020016004820180548060200260200160405190810160405280929190818152602001828054801561309557602002820191906000526020600020905b81546001600160a01b03168152600190910190602001808311613077575b505050505081526020016005820180548060200260200160405190810160405280929190818152602001828054801561311957602002820191906000526020600020906000905b82829054906101000a900463ffffffff1663ffffffff16815260200190600401906020826003010492830192600103820291508084116130dc5790505b5050505050815260200160068201548152602001600782015481526020016008820154815260200160098201548152602001600a8201548152602001600b8201548152602001600c8201548152602001600d8201548152602001600e8201548152602001600f820160009054906101000a900460ff161515151581526020016010820180548060200260200160405190810160405280929190818152602001828054801561321257602002820191906000526020600020906000905b82829054906101000a900463ffffffff1663ffffffff16815260200190600401906020826003010492830192600103820291508084116131d55790505b505050505081525050614bc7565b6134905760006064896001600160a01b031663e70167176040518163ffffffff1660e01b8152600401602060405180830381865afa158015613266573d6000803e3d6000fd5b505050506040513d601f19601f8201168201806040525081019061328a9190615787565b60ff16896040015161329c91906153f3565b6132a69190615773565b905060006132b48383614be2565b90508083600e0160008282546132ca9190615374565b909155505060018401546001600160a01b038088169163a9059cbb9116601260ff8b16106132f85783613307565b6133078460128c60ff16614304565b6040516001600160e01b031960e085901b1681526001600160a01b03909216600483015260248201526044016020604051808303816000875af1158015613352573d6000803e3d6000fd5b505050506040513d601f19601f8201168201806040525081019061337691906153d8565b507f3c8fdb10971c51ff48e3a4db4d7f14e64690a286be5bb9f410d9fd0fb74dbf488460010160009054906101000a90046001600160a01b03168560000160049054906101000a90046001600160a01b03168b60400151848e6001600160a01b031663e70167176040518163ffffffff1660e01b8152600401602060405180830381865afa15801561340c573d6000803e3d6000fd5b505050506040513d601f19601f820116820180604052508101906134309190615787565b604080516001600160a01b03968716815295909416602086015292840191909152606083015260ff166080820152606460a082015260c00160405180910390a18161010560008282546134839190615374565b9091555061351492505050565b6001820154604080516001600160a01b039092168252602082018190526026828201527f49425020526577617264206e6f7420706169642e204d6178204c696d69742052606083015265195858da195960d21b6080830152517fd9365ce421ec9d37d946db34572a16a808a9a2c0df5f97dcafa2775d700428f89181900360a00190a15b505b6000805b83518160ff161015613d38576040805161024081018252845463ffffffff811682526001600160a01b03600160201b90910481166020808401919091526001870154821683850152600287015490911660608301526003860180548451818402810184019095528085526137669488936080860193919290830182828015612b30576020028201919060005260206000209081546001600160a01b03168152600190910190602001808311612b12575050505050815260200160048201805480602002602001604051908101604052809291908181526020018280548015612b92576020028201919060005260206000209081546001600160a01b03168152600190910190602001808311612b74575050505050815260200160058201805480602002602001604051908101604052809291908181526020018280548015612c16576000918252602091829020805463ffffffff168452908202830192909160049101808411612bd95790505050505050815260200160068201548152602001600782015481526020016008820154815260200160098201548152602001600a8201548152602001600b8201548152602001600c8201548152602001600d8201548152602001600e8201548152602001600f820160009054906101000a900460ff1615151515815260200160108201805480602002602001604051908101604052809291908181526020018280548015612d0f576000918252602091829020805463ffffffff168452908202830192909160049101808411612cd257905050505050508152505061433a565b15613d38576002808401546001600160a01b0390811660009081526101066020908152604091829020825161024081018452815463ffffffff81168252600160201b9004851681840152600182015485168185015294810154909316606085015260038301805483518184028101840190945280845293946139c294909386936080860193919290830182828015613033576020028201919060005260206000209081546001600160a01b03168152600190910190602001808311613015575050505050815260200160048201805480602002602001604051908101604052809291908181526020018280548015613095576020028201919060005260206000209081546001600160a01b03168152600190910190602001808311613077575050505050815260200160058201805480602002602001604051908101604052809291908181526020018280548015613119576000918252602091829020805463ffffffff1684529082028301929091600491018084116130dc5790505050505050815260200160068201548152602001600782015481526020016008820154815260200160098201548152602001600a8201548152602001600b8201548152602001600c8201548152602001600d8201548152602001600e8201548152602001600f820160009054906101000a900460ff1615151515815260200160108201805480602002602001604051908101604052809291908181526020018280548015613212576000918252602091829020805463ffffffff1684529082028301929091600491018084116131d5579050505050505081525050614bc7565b15613a36576002840154604080516001600160a01b039092168252602082018190526011828201527013585e08131a5b5a5d0814995858da1959607a1b6060830152517f9cf6f1ac252ffae20583b13cb366045bedd20a57355f5f69adf17da561de00039181900360800190a19250613d26565b8160ff16600003613b23578860400151816007016000828254613a599190615374565b9091555050600f81015460ff1615613b0e57600284015460fc80546001818101835560008390527f371f36870d18f32a11fea0f144b021c8b407bb50f8e0267c711123f454b963c090910180546001600160a01b0319166001600160a01b0390941693909317909255546010830191613ad1916152c9565b8154600181018355600092835260209092206008830401805460079093166004026101000a63ffffffff8181021990941692909316929092021790555b600f8101805460ff19811660ff909116151790555b8860400151816008016000828254613b3b9190615374565b925050819055506000612710868460ff1681518110613b5c57613b5c6157a4565b602002602001015161ffff168b60400151613b7791906153f3565b613b819190615773565b90506000613b8f8383614be2565b90508083600b016000828254613ba59190615374565b909155505060028601546001600160a01b03808a169163a9059cbb9116601260ff8d1610613bd35783613be2565b613be28460128e60ff16614304565b6040516001600160e01b031960e085901b1681526001600160a01b03909216600483015260248201526044016020604051808303816000875af1158015613c2d573d6000803e3d6000fd5b505050506040513d601f19601f82011682018060405250810190613c5191906153d8565b50613c5c8186615374565b6002870154875460408e01518a519398507f3fae587c6f1778678d1e63bd99d63afe07677c2a2eb43a4b228b80e8a38c1b06936001600160a01b0393841693600160201b9093049092169185908c9060ff8b16908110613cbe57613cbe6157a4565b60200260200101516127108a6001613cd691906157ba565b604080516001600160a01b03988916815297909616602088015294860193909352606085019190915261ffff16608084015260a083015260ff1660c082015260e00160405180910390a150909350505b80613d30816157d3565b91505061351a565b50806101016000828254613d4c9190615374565b9091555050604087015160fe8054600090613d68908490615374565b90915550506040870151606490613d8090600a6153f3565b613d8a9190615773565b60ff6000828254613d9b9190615374565b925050819055506000886001600160a01b03166365eb204d6040518163ffffffff1660e01b8152600401602060405180830381865afa158015613de2573d6000803e3d6000fd5b505050506040513d601f19601f82011682018060405250810190613e069190615392565b6040516370a0823160e01b81523060048201526001600160a01b0391909116906370a0823190602401602060405180830381865afa158015613e4c573d6000803e3d6000fd5b505050506040513d601f19601f82011682018060405250810190613e7091906153af565b905080156140bb57600060648a6001600160a01b031663e091099c6040518163ffffffff1660e01b8152600401602060405180830381865afa158015613eba573d6000803e3d6000fd5b505050506040513d601f19601f82011682018060405250810190613ede9190615787565b60ff168a60400151613ef091906153f3565b613efa9190615773565b9050808210613fe057896001600160a01b03166365eb204d6040518163ffffffff1660e01b8152600401602060405180830381865afa158015613f41573d6000803e3d6000fd5b505050506040513d601f19601f82011682018060405250810190613f659190615392565b60405163a9059cbb60e01b81526001600160a01b038f8116600483015260248201849052919091169063a9059cbb906044016020604051808303816000875af1158015613fb6573d6000803e3d6000fd5b505050506040513d601f19601f82011682018060405250810190613fda91906153d8565b506140b9565b896001600160a01b03166365eb204d6040518163ffffffff1660e01b8152600401602060405180830381865afa15801561401e573d6000803e3d6000fd5b505050506040513d601f19601f820116820180604052508101906140429190615392565b60405163a9059cbb60e01b81526001600160a01b038f8116600483015260248201859052919091169063a9059cbb906044016020604051808303816000875af1158015614093573d6000803e3d6000fd5b505050506040513d601f19601f820116820180604052508101906140b791906153d8565b505b505b50505050505050505050505050565b60008042446140da6001436152c9565b60408051602081019490945283019190915240606082015260800160408051601f19818403018152919052805160209091012060fc5490915060009061412090836157f2565b905060fc8181548110614135576141356157a4565b6000918252602090912001546001600160a01b03169392505050565b6001600160a01b0381163b6141be5760405162461bcd60e51b815260206004820152602d60248201527f455243313936373a206e657720696d706c656d656e746174696f6e206973206e60448201526c1bdd08184818dbdb9d1c9858dd609a1b6064820152608401610a47565b60008051602061592a83398151915280546001600160a01b0319166001600160a01b0392909216919091179055565b6141f683614c44565b6000825111806142035750805b1561235e576113ac8383614c84565b60335460ff16610e435760405162461bcd60e51b815260206004820152601460248201527314185d5cd8589b194e881b9bdd081c185d5cd95960621b6044820152606401610a47565b600054610100900460ff166142825760405162461bcd60e51b8152600401610a479061540a565b6033805460ff19169055565b600054610100900460ff166142b55760405162461bcd60e51b8152600401610a479061540a565b610e43336124ed565b60335460ff1615610e435760405162461bcd60e51b815260206004820152601060248201526f14185d5cd8589b194e881c185d5cd95960821b6044820152606401610a47565b600061431183600a6158ea565b61431c83600a6158ea565b61432690866153f3565b6143309190615773565b90505b9392505050565b60608101516000906001600160a01b031615614354575060015b919050565b6001600160a01b0380841660009081526101066020908152604091829020825161024081018452815463ffffffff81168252600160201b900485168184015260018201548516818501526002820154909416606085015260038101805484518185028101850190955280855291946145a99490938693608086019391830182828015612b30576020028201919060005260206000209081546001600160a01b03168152600190910190602001808311612b12575050505050815260200160048201805480602002602001604051908101604052809291908181526020018280548015612b92576020028201919060005260206000209081546001600160a01b03168152600190910190602001808311612b74575050505050815260200160058201805480602002602001604051908101604052809291908181526020018280548015612c16576000918252602091829020805463ffffffff168452908202830192909160049101808411612bd95790505050505050815260200160068201548152602001600782015481526020016008820154815260200160098201548152602001600a8201548152602001600b8201548152602001600c8201548152602001600d8201548152602001600e8201548152602001600f820160009054906101000a900460ff1615151515815260200160108201805480602002602001604051908101604052809291908181526020018280548015612d0f576000918252602091829020805463ffffffff168452908202830192909160049101808411612cd257905050505050508152505061433a565b1580156146295750816001600160a01b031663b2e6b9126040518163ffffffff1660e01b8152600401602060405180830381865afa1580156145ef573d6000803e3d6000fd5b505050506040513d601f19601f820116820180604052508101906146139190615392565b6001600160a01b0316846001600160a01b031614155b15614bc0576001600160a01b03851615806146555750846001600160a01b0316846001600160a01b0316145b156147c057604080516001600160a01b038781168252861660208201526060818301819052603a908201527f5a65726f20616464726573732063616e6e6f742062652072656665727265722e60808201527f2053657474696e672064656661756c742072656665727265722e00000000000060a082015290517f32df26c7e54a821624fc8d22e1171e5793b90d1fccc483d3ff277b9c42bb22399181900360c00190a16000826001600160a01b031663b2e6b9126040518163ffffffff1660e01b8152600401602060405180830381865afa158015614738573d6000803e3d6000fd5b505050506040513d601f19601f8201168201806040525081019061475c9190615392565b6002830180546001600160a01b0319166001600160a01b038381169182179092556040805191825291881660208201529192507fec49a3c8c4ae06c18160fe86119c381c9d213ac3e052ff35b594da8687b193c7910160405180910390a15061481c565b6002810180546001600160a01b0319166001600160a01b038781169182179092556040805191825291861660208201527fec49a3c8c4ae06c18160fe86119c381c9d213ac3e052ff35b594da8687b193c7910160405180910390a15b60005b8360ff168160ff161015614bbe5760028201546001600160a01b031615614bbe5760028201546001600160a01b03166000908152610106602052604081209060ff83169003614b2e5760038101805460018082018355600092835260209092200180546001600160a01b0319166001600160a01b038981169190911790915590840154161561492a576001830154604080516001600160a01b03928316815291881660208301526060828201819052601d908301527f5265666572656520616c7265616479206861766520696270207365742e0000006080830152517fffca51efd3fa9dd00c7ad8de67cce6deeb82e78db2d05fe4b84079eca71665109181900360a00190a1614b2e565b60018101546001600160a01b0316614ade576001810154604080516001600160a01b039283168152918816602083015260608282018190526032908301527f5a65726f20616464726573732063616e6e6f74206265206962702e20536574746080830152710696e672075702064656661756c74206962760741b60a0830152517fffca51efd3fa9dd00c7ad8de67cce6deeb82e78db2d05fe4b84079eca71665109181900360c00190a16000846001600160a01b031663b2e6b9126040518163ffffffff1660e01b8152600401602060405180830381865afa158015614a14573d6000803e3d6000fd5b505050506040513d601f19601f82011682018060405250810190614a389190615392565b600185810180546001600160a01b038481166001600160a01b03199283168117909355928601805490911682179055845460408051928352600160201b9091049092166020820152919250600080516020615971833981519152910160405180910390a18354604080516001600160a01b038085168252600160201b9093049092166020830152600080516020615971833981519152910160405180910390a150614b2e565b6001818101805491850180546001600160a01b0319166001600160a01b03938416179055546040805191831682529188166020820152600080516020615971833981519152910160405180910390a15b60048101805460018082018355600092835260209092200180546001600160a01b0319166001600160a01b0389161790556005820190614b6f9084906157ba565b8154600181018355600092835260209092206008830401805463ffffffff60079094166004026101000a938402191660ff92909216909202179055915080614bb6816157d3565b91505061481f565b505b5050505050565b60008161014001518261016001511061435457506001919050565b600082600901548284600a0154614bf99190615374565b11614c20578190508183600a016000828254614c159190615374565b90915550614c3e9050565b82600a01548360090154614c3491906152c9565b600a840181905590505b92915050565b614c4d81614151565b6040516001600160a01b038216907fbc7cd75a20ee27fd9adebab32041f755214dbc6bffa90cc0225b39da2e5c2d3b90600090a250565b60606001600160a01b0383163b614cec5760405162461bcd60e51b815260206004820152602660248201527f416464726573733a2064656c65676174652063616c6c20746f206e6f6e2d636f6044820152651b9d1c9858dd60d21b6064820152608401610a47565b600080846001600160a01b031684604051614d079190615741565b600060405180830381855af49150503d8060008114614d42576040519150601f19603f3d011682016040523d82523d6000602084013e614d47565b606091505b5091509150614d6f828260405180606001604052806027815260200161594a60279139614d78565b95945050505050565b60608315614d87575081614333565b6143338383815115614d9c5781518083602001fd5b8060405162461bcd60e51b8152600401610a4791906158f6565b6001600160a01b0381168114610ae457600080fd5b600060208284031215614ddd57600080fd5b813561433381614db6565b60008060408385031215614dfb57600080fd5b8235614e0681614db6565b91506020830135614e1681614db6565b809150509250929050565b600081518084526020808501945080840160005b83811015614e5757815163ffffffff1687529582019590820190600101614e35565b509495945050505050565b8315158152606060208201526000614e7d6060830185614e21565b9050826040830152949350505050565b634e487b7160e01b600052604160045260246000fd5b60405160e0810167ffffffffffffffff81118282101715614ec657614ec6614e8d565b60405290565b604051601f8201601f1916810167ffffffffffffffff81118282101715614ef557614ef5614e8d565b604052919050565b600067ffffffffffffffff821115614f1757614f17614e8d565b50601f01601f191660200190565b60008060408385031215614f3857600080fd5b8235614f4381614db6565b9150602083013567ffffffffffffffff811115614f5f57600080fd5b8301601f81018513614f7057600080fd5b8035614f83614f7e82614efd565b614ecc565b818152866020838501011115614f9857600080fd5b816020840160208301376000602083830101528093505050509250929050565b60ff81168114610ae457600080fd5b60008060008060808587031215614fdd57600080fd5b8435614fe881614db6565b93506020850135614ff881614db6565b9250604085013561500881614fb8565b9150606085013561501881614db6565b939692955090935050565b60008060006060848603121561503857600080fd5b833561504381614db6565b9250602084013561505381614db6565b929592945050506040919091013590565b60008060006060848603121561507957600080fd5b833561508481614db6565b9250602084013561509481614fb8565b915060408401356150a481614db6565b809150509250925092565b600081518084526020808501945080840160005b83811015614e575781516001600160a01b0316875295820195908201906001016150c3565b6001600160a01b038716815260c06020820181905260009061510c908301886150af565b866040840152828103606084015261512481876150af565b905082810360808401526151388186614e21565b9150508260a0830152979650505050505050565b6020815261516360208201835163ffffffff169052565b6000602083015161517f60408401826001600160a01b03169052565b5060408301516001600160a01b03811660608401525060608301516001600160a01b03811660808401525060808301516102408060a08501526151c66102608501836150af565b915060a0850151601f19808685030160c08701526151e484836150af565b935060c08701519150808685030160e08701526152018483614e21565b60e088015161010088810191909152880151610120808901919091528801516101408089019190915288015161016080890191909152880151610180808901919091528801516101a0808901919091528801516101c0808901919091528801516101e0808901919091528801516102008089019190915288015190945091506102206152908188018415159052565b8701518685039091018387015290506152a98382614e21565b9695505050505050565b634e487b7160e01b600052601160045260246000fd5b81810381811115614c3e57614c3e6152b3565b6020808252602c908201527f46756e6374696f6e206d7573742062652063616c6c6564207468726f7567682060408201526b19195b1959d85d1958d85b1b60a21b606082015260800190565b6020808252602c908201527f46756e6374696f6e206d7573742062652063616c6c6564207468726f7567682060408201526b6163746976652070726f787960a01b606082015260800190565b80820180821115614c3e57614c3e6152b3565b805161435481614db6565b6000602082840312156153a457600080fd5b815161433381614db6565b6000602082840312156153c157600080fd5b5051919050565b8051801515811461435457600080fd5b6000602082840312156153ea57600080fd5b614333826153c8565b8082028115828204841417614c3e57614c3e6152b3565b6020808252602b908201527f496e697469616c697a61626c653a20636f6e7472616374206973206e6f74206960408201526a6e697469616c697a696e6760a81b606082015260800190565b805161435481614fb8565b60005b8381101561547b578181015183820152602001615463565b50506000910152565b600082601f83011261549557600080fd5b81516154a3614f7e82614efd565b8181528460208386010111156154b857600080fd5b6154c9826020830160208701615460565b949350505050565b6000602082840312156154e357600080fd5b815167ffffffffffffffff808211156154fb57600080fd5b908301906080828603121561550f57600080fd5b60405160808101818110838211171561552a5761552a614e8d565b604052825161553881614fb8565b815260208301518281111561554c57600080fd5b61555887828601615484565b602083015250604083015160408201526060830151606082015280935050505092915050565b60006020828403121561559057600080fd5b815167ffffffffffffffff808211156155a857600080fd5b9083019060e082860312156155bc57600080fd5b6155c4614ea3565b6155cd83615387565b81526020830151828111156155e157600080fd5b6155ed87828601615484565b60208301525060408301518281111561560557600080fd5b61561187828601615484565b60408301525061562360608401615455565b6060820152615634608084016153c8565b608082015261564560a08401615387565b60a082015261565660c084016153c8565b60c082015295945050505050565b6000602080838503121561567757600080fd5b825167ffffffffffffffff8082111561568f57600080fd5b818501915085601f8301126156a357600080fd5b8151818111156156b5576156b5614e8d565b8060051b91506156c6848301614ecc565b81815291830184019184810190888411156156e057600080fd5b938501935b83851015615712578451925061ffff831683146157025760008081fd5b82825293850193908501906156e5565b98975050505050505050565b600063ffffffff808316818103615737576157376152b3565b6001019392505050565b60008251615753818460208701615460565b9190910192915050565b634e487b7160e01b600052601260045260246000fd5b6000826157825761578261575d565b500490565b60006020828403121561579957600080fd5b815161433381614fb8565b634e487b7160e01b600052603260045260246000fd5b60ff8181168382160190811115614c3e57614c3e6152b3565b600060ff821660ff81036157e9576157e96152b3565b60010192915050565b6000826158015761580161575d565b500690565b600181815b80851115615841578160001904821115615827576158276152b3565b8085161561583457918102915b93841c939080029061580b565b509250929050565b60008261585857506001614c3e565b8161586557506000614c3e565b816001811461587b5760028114615885576158a1565b6001915050614c3e565b60ff841115615896576158966152b3565b50506001821b614c3e565b5060208310610133831016604e8410600b84101617156158c4575081810a614c3e565b6158ce8383615806565b80600019048211156158e2576158e26152b3565b029392505050565b60006143338383615849565b6020815260008251806020840152615915816040850160208701615460565b601f01601f1916919091016040019291505056fe360894a13ba1a3210667c828492db98dca3e2076cc3735a920a3ca505d382bbc416464726573733a206c6f772d6c6576656c2064656c65676174652063616c6c206661696c656400f37bd73ff29ab549d774afc91445bf33292ed9a4b4b4177fb1e61ff3c58469a264697066735822122038e8fb482fe0964eb62b7f865a71a4074327e43bcb615cc251676b406d8be3cf64736f6c63430008120033",
  "linkReferences": {},
  "deployedLinkReferences": {}
}