{
  "_format": "hh-sol-artifact-1",
  "contractName": "MarsNextProtocol",
  "sourceName": "contracts/MarsNextProtocol.sol",
  "abi": [
    {
      "inputs": [],
      "stateMutability": "nonpayable",
      "type": "constructor"
    },
    {
      "anonymous": false,
      "inputs": [
        {
          "indexed": true,
          "internalType": "address",
          "name": "owner",
          "type": "address"
        },
        {
          "indexed": true,
          "internalType": "address",
          "name": "spender",
          "type": "address"
        },
        {
          "indexed": false,
          "internalType": "uint256",
          "name": "value",
          "type": "uint256"
        }
      ],
      "name": "Approval",
      "type": "event"
    },
    {
      "anonymous": false,
      "inputs": [
        {
          "indexed": true,
          "internalType": "address",
          "name": "previousOwner",
          "type": "address"
        },
        {
          "indexed": true,
          "internalType": "address",
          "name": "newOwner",
          "type": "address"
        }
      ],
      "name": "OwnershipTransferred",
      "type": "event"
    },
    {
      "anonymous": false,
      "inputs": [
        {
          "indexed": false,
          "internalType": "uint256",
          "name": "id",
          "type": "uint256"
        }
      ],
      "name": "Snapshot",
      "type": "event"
    },
    {
      "anonymous": false,
      "inputs": [
        {
          "indexed": true,
          "internalType": "address",
          "name": "from",
          "type": "address"
        },
        {
          "indexed": true,
          "internalType": "address",
          "name": "to",
          "type": "address"
        },
        {
          "indexed": false,
          "internalType": "uint256",
          "name": "value",
          "type": "uint256"
        }
      ],
      "name": "Transfer",
      "type": "event"
    },
    {
      "inputs": [],
      "name": "DOMAIN_SEPARATOR",
      "outputs": [
        {
          "internalType": "bytes32",
          "name": "",
          "type": "bytes32"
        }
      ],
      "stateMutability": "view",
      "type": "function"
    },
    {
      "inputs": [
        {
          "internalType": "address",
          "name": "owner",
          "type": "address"
        },
        {
          "internalType": "address",
          "name": "spender",
          "type": "address"
        }
      ],
      "name": "allowance",
      "outputs": [
        {
          "internalType": "uint256",
          "name": "",
          "type": "uint256"
        }
      ],
      "stateMutability": "view",
      "type": "function"
    },
    {
      "inputs": [
        {
          "internalType": "address",
          "name": "spender",
          "type": "address"
        },
        {
          "internalType": "uint256",
          "name": "amount",
          "type": "uint256"
        }
      ],
      "name": "approve",
      "outputs": [
        {
          "internalType": "bool",
          "name": "",
          "type": "bool"
        }
      ],
      "stateMutability": "nonpayable",
      "type": "function"
    },
    {
      "inputs": [
        {
          "internalType": "address",
          "name": "account",
          "type": "address"
        }
      ],
      "name": "balanceOf",
      "outputs": [
        {
          "internalType": "uint256",
          "name": "",
          "type": "uint256"
        }
      ],
      "stateMutability": "view",
      "type": "function"
    },
    {
      "inputs": [
        {
          "internalType": "address",
          "name": "account",
          "type": "address"
        },
        {
          "internalType": "uint256",
          "name": "snapshotId",
          "type": "uint256"
        }
      ],
      "name": "balanceOfAt",
      "outputs": [
        {
          "internalType": "uint256",
          "name": "",
          "type": "uint256"
        }
      ],
      "stateMutability": "view",
      "type": "function"
    },
    {
      "inputs": [
        {
          "internalType": "uint256",
          "name": "amount",
          "type": "uint256"
        }
      ],
      "name": "burn",
      "outputs": [],
      "stateMutability": "nonpayable",
      "type": "function"
    },
    {
      "inputs": [
        {
          "internalType": "address",
          "name": "account",
          "type": "address"
        },
        {
          "internalType": "uint256",
          "name": "amount",
          "type": "uint256"
        }
      ],
      "name": "burnFrom",
      "outputs": [],
      "stateMutability": "nonpayable",
      "type": "function"
    },
    {
      "inputs": [],
      "name": "decimals",
      "outputs": [
        {
          "internalType": "uint8",
          "name": "",
          "type": "uint8"
        }
      ],
      "stateMutability": "view",
      "type": "function"
    },
    {
      "inputs": [
        {
          "internalType": "address",
          "name": "spender",
          "type": "address"
        },
        {
          "internalType": "uint256",
          "name": "subtractedValue",
          "type": "uint256"
        }
      ],
      "name": "decreaseAllowance",
      "outputs": [
        {
          "internalType": "bool",
          "name": "",
          "type": "bool"
        }
      ],
      "stateMutability": "nonpayable",
      "type": "function"
    },
    {
      "inputs": [
        {
          "internalType": "address",
          "name": "token",
          "type": "address"
        },
        {
          "internalType": "uint256",
          "name": "amount",
          "type": "uint256"
        }
      ],
      "name": "flashFee",
      "outputs": [
        {
          "internalType": "uint256",
          "name": "",
          "type": "uint256"
        }
      ],
      "stateMutability": "view",
      "type": "function"
    },
    {
      "inputs": [
        {
          "internalType": "contract IERC3156FlashBorrower",
          "name": "receiver",
          "type": "address"
        },
        {
          "internalType": "address",
          "name": "token",
          "type": "address"
        },
        {
          "internalType": "uint256",
          "name": "amount",
          "type": "uint256"
        },
        {
          "internalType": "bytes",
          "name": "data",
          "type": "bytes"
        }
      ],
      "name": "flashLoan",
      "outputs": [
        {
          "internalType": "bool",
          "name": "",
          "type": "bool"
        }
      ],
      "stateMutability": "nonpayable",
      "type": "function"
    },
    {
      "inputs": [
        {
          "internalType": "address",
          "name": "spender",
          "type": "address"
        },
        {
          "internalType": "uint256",
          "name": "addedValue",
          "type": "uint256"
        }
      ],
      "name": "increaseAllowance",
      "outputs": [
        {
          "internalType": "bool",
          "name": "",
          "type": "bool"
        }
      ],
      "stateMutability": "nonpayable",
      "type": "function"
    },
    {
      "inputs": [
        {
          "internalType": "address",
          "name": "token",
          "type": "address"
        }
      ],
      "name": "maxFlashLoan",
      "outputs": [
        {
          "internalType": "uint256",
          "name": "",
          "type": "uint256"
        }
      ],
      "stateMutability": "view",
      "type": "function"
    },
    {
      "inputs": [],
      "name": "name",
      "outputs": [
        {
          "internalType": "string",
          "name": "",
          "type": "string"
        }
      ],
      "stateMutability": "view",
      "type": "function"
    },
    {
      "inputs": [
        {
          "internalType": "address",
          "name": "owner",
          "type": "address"
        }
      ],
      "name": "nonces",
      "outputs": [
        {
          "internalType": "uint256",
          "name": "",
          "type": "uint256"
        }
      ],
      "stateMutability": "view",
      "type": "function"
    },
    {
      "inputs": [],
      "name": "owner",
      "outputs": [
        {
          "internalType": "address",
          "name": "",
          "type": "address"
        }
      ],
      "stateMutability": "view",
      "type": "function"
    },
    {
      "inputs": [
        {
          "internalType": "address",
          "name": "owner",
          "type": "address"
        },
        {
          "internalType": "address",
          "name": "spender",
          "type": "address"
        },
        {
          "internalType": "uint256",
          "name": "value",
          "type": "uint256"
        },
        {
          "internalType": "uint256",
          "name": "deadline",
          "type": "uint256"
        },
        {
          "internalType": "uint8",
          "name": "v",
          "type": "uint8"
        },
        {
          "internalType": "bytes32",
          "name": "r",
          "type": "bytes32"
        },
        {
          "internalType": "bytes32",
          "name": "s",
          "type": "bytes32"
        }
      ],
      "name": "permit",
      "outputs": [],
      "stateMutability": "nonpayable",
      "type": "function"
    },
    {
      "inputs": [],
      "name": "renounceOwnership",
      "outputs": [],
      "stateMutability": "nonpayable",
      "type": "function"
    },
    {
      "inputs": [],
      "name": "snapshot",
      "outputs": [],
      "stateMutability": "nonpayable",
      "type": "function"
    },
    {
      "inputs": [],
      "name": "symbol",
      "outputs": [
        {
          "internalType": "string",
          "name": "",
          "type": "string"
        }
      ],
      "stateMutability": "view",
      "type": "function"
    },
    {
      "inputs": [],
      "name": "totalSupply",
      "outputs": [
        {
          "internalType": "uint256",
          "name": "",
          "type": "uint256"
        }
      ],
      "stateMutability": "view",
      "type": "function"
    },
    {
      "inputs": [
        {
          "internalType": "uint256",
          "name": "snapshotId",
          "type": "uint256"
        }
      ],
      "name": "totalSupplyAt",
      "outputs": [
        {
          "internalType": "uint256",
          "name": "",
          "type": "uint256"
        }
      ],
      "stateMutability": "view",
      "type": "function"
    },
    {
      "inputs": [
        {
          "internalType": "address",
          "name": "to",
          "type": "address"
        },
        {
          "internalType": "uint256",
          "name": "amount",
          "type": "uint256"
        }
      ],
      "name": "transfer",
      "outputs": [
        {
          "internalType": "bool",
          "name": "",
          "type": "bool"
        }
      ],
      "stateMutability": "nonpayable",
      "type": "function"
    },
    {
      "inputs": [
        {
          "internalType": "address",
          "name": "from",
          "type": "address"
        },
        {
          "internalType": "address",
          "name": "to",
          "type": "address"
        },
        {
          "internalType": "uint256",
          "name": "amount",
          "type": "uint256"
        }
      ],
      "name": "transferFrom",
      "outputs": [
        {
          "internalType": "bool",
          "name": "",
          "type": "bool"
        }
      ],
      "stateMutability": "nonpayable",
      "type": "function"
    },
    {
      "inputs": [
        {
          "internalType": "address",
          "name": "newOwner",
          "type": "address"
        }
      ],
      "name": "transferOwnership",
      "outputs": [],
      "stateMutability": "nonpayable",
      "type": "function"
    }
  ],
  "bytecode": "0x6101406040523480156200001257600080fd5b506040518060400160405280600881526020016713585c9cd3995e1d60c21b81525080604051806040016040528060018152602001603160f81b8152506040518060400160405280600881526020016713585c9cd3995e1d60c21b81525060405180604001604052806006815260200165135494d3961560d21b8152508160039081620000a09190620004e3565b506004620000af8282620004e3565b505050620000cc620000c66200018b60201b60201c565b6200018f565b815160209283012081519183019190912060e08290526101008190524660a0818152604080517f8b73c3c69bb8fe3d512ecc4cf759cc79239f7b179b0ffacaa9a75d522b39400f818801819052818301969096526060810194909452608080850193909352308483018190528151808603909301835260c094850190915281519190950120905291909152610120525062000185336200016f6012600a620006c4565b6200017f90633b9aca00620006dc565b620001e1565b62000738565b3390565b600980546001600160a01b038381166001600160a01b0319831681179093556040519116919082907f8be0079c531659141344cd1fd0a4f28419497f9722a3daafe3b4186f6b6457e090600090a35050565b6001600160a01b0382166200023c5760405162461bcd60e51b815260206004820152601f60248201527f45524332303a206d696e7420746f20746865207a65726f206164647265737300604482015260640160405180910390fd5b6200024a60008383620002b5565b80600260008282546200025e9190620006f6565b90915550506001600160a01b038216600081815260208181526040808320805486019055518481527fddf252ad1be2c89b69c2b068fc378daa952ba7f163c4a11628f55a4df523b3ef910160405180910390a35050565b620002cd838383620002d260201b62000b261760201c565b505050565b620002ea838383620002cd60201b62000b451760201c565b6001600160a01b0383166200030e57620003048262000339565b620002cd62000371565b6001600160a01b0382166200032857620003048362000339565b620003338362000339565b620002cd825b6001600160a01b038116600090815260056020908152604080832091839052909120546200036e919062000383565b62000383565b50565b6200038160066200036860025490565b565b60006200038f620003d2565b9050806200039d84620003f0565b1015620002cd578254600180820185556000858152602080822090930193909355938401805494850181558252902090910155565b6000620003eb60086200043b60201b62000b731760201c565b905090565b805460009081036200040457506000919050565b8154829062000416906001906200070c565b8154811062000429576200042962000722565b90600052602060002001549050919050565b5490565b634e487b7160e01b600052604160045260246000fd5b600181811c908216806200046a57607f821691505b6020821081036200048b57634e487b7160e01b600052602260045260246000fd5b50919050565b601f821115620002cd57600081815260208120601f850160051c81016020861015620004ba5750805b601f850160051c820191505b81811015620004db57828155600101620004c6565b505050505050565b81516001600160401b03811115620004ff57620004ff6200043f565b620005178162000510845462000455565b8462000491565b602080601f8311600181146200054f5760008415620005365750858301515b600019600386901b1c1916600185901b178555620004db565b600085815260208120601f198616915b8281101562000580578886015182559484019460019091019084016200055f565b50858210156200059f5787850151600019600388901b60f8161c191681555b5050505050600190811b01905550565b634e487b7160e01b600052601160045260246000fd5b600181815b8085111562000606578160001904821115620005ea57620005ea620005af565b80851615620005f857918102915b93841c9390800290620005ca565b509250929050565b6000826200061f57506001620006be565b816200062e57506000620006be565b8160018114620006475760028114620006525762000672565b6001915050620006be565b60ff841115620006665762000666620005af565b50506001821b620006be565b5060208310610133831016604e8410600b841016171562000697575081810a620006be565b620006a38383620005c5565b8060001904821115620006ba57620006ba620005af565b0290505b92915050565b6000620006d560ff8416836200060e565b9392505050565b8082028115828204841417620006be57620006be620005af565b80820180821115620006be57620006be620005af565b81810381811115620006be57620006be620005af565b634e487b7160e01b600052603260045260246000fd5b60805160a05160c05160e0516101005161012051611d27620007886000396000610fe3015260006110320152600061100d01526000610f6601526000610f9001526000610fba0152611d276000f3fe608060405234801561001057600080fd5b50600436106101a35760003560e01c8063715018a6116100ee578063981b24d011610097578063d505accf11610071578063d505accf14610341578063d9d98ce414610354578063dd62ed3e14610367578063f2fde38b146103a057600080fd5b8063981b24d014610308578063a457c2d71461031b578063a9059cbb1461032e57600080fd5b80638da5cb5b116100c85780638da5cb5b146102dd57806395d89b41146102f85780639711715a1461030057600080fd5b8063715018a6146102af57806379cc6790146102b75780637ecebe00146102ca57600080fd5b806339509351116101505780635cffe9de1161012a5780635cffe9de14610260578063613255ab1461027357806370a082311461028657600080fd5b8063395093511461022557806342966c68146102385780634ee2cd7e1461024d57600080fd5b806323b872dd1161018157806323b872dd146101fb578063313ce5671461020e5780633644e5151461021d57600080fd5b806306fdde03146101a8578063095ea7b3146101c657806318160ddd146101e9575b600080fd5b6101b06103b3565b6040516101bd919061196a565b60405180910390f35b6101d96101d43660046119cd565b610445565b60405190151581526020016101bd565b6002545b6040519081526020016101bd565b6101d96102093660046119f9565b61045f565b604051601281526020016101bd565b6101ed610483565b6101d96102333660046119cd565b610492565b61024b610246366004611a3a565b6104d1565b005b6101ed61025b3660046119cd565b6104de565b6101d961026e366004611a53565b610537565b6101ed610281366004611af2565b610764565b6101ed610294366004611af2565b6001600160a01b031660009081526020819052604090205490565b61024b61078c565b61024b6102c53660046119cd565b6107a0565b6101ed6102d8366004611af2565b6107b9565b6009546040516001600160a01b0390911681526020016101bd565b6101b06107d7565b61024b6107e6565b6101ed610316366004611a3a565b6107ee565b6101d96103293660046119cd565b610819565b6101d961033c3660046119cd565b6108c3565b61024b61034f366004611b0f565b6108d1565b6101ed6103623660046119cd565b610a35565b6101ed610375366004611b86565b6001600160a01b03918216600090815260016020908152604080832093909416825291909152205490565b61024b6103ae366004611af2565b610a99565b6060600380546103c290611bbf565b80601f01602080910402602001604051908101604052809291908181526020018280546103ee90611bbf565b801561043b5780601f106104105761010080835404028352916020019161043b565b820191906000526020600020905b81548152906001019060200180831161041e57829003601f168201915b5050505050905090565b600033610453818585610b77565b60019150505b92915050565b60003361046d858285610ccf565b610478858585610d61565b506001949350505050565b600061048d610f59565b905090565b3360008181526001602090815260408083206001600160a01b038716845290915281205490919061045390829086906104cc908790611c09565b610b77565b6104db3382611080565b50565b6001600160a01b0382166000908152600560205260408120819081906105059085906111f5565b915091508161052c576001600160a01b03851660009081526020819052604090205461052e565b805b95945050505050565b600061054285610764565b8411156105bc5760405162461bcd60e51b815260206004820152602b60248201527f4552433230466c6173684d696e743a20616d6f756e742065786365656473206d60448201527f6178466c6173684c6f616e00000000000000000000000000000000000000000060648201526084015b60405180910390fd5b60006105c88686610a35565b90506105d487866112f2565b6040517f23e30c8b0000000000000000000000000000000000000000000000000000000081527f439148f0bbc682ca079e46d6e2c2f0c1e3b820f1a291b069d8882abf8cf18dd9906001600160a01b038916906323e30c8b906106459033908b908b9088908c908c90600401611c1c565b6020604051808303816000875af1158015610664573d6000803e3d6000fd5b505050506040513d601f19601f820116820180604052508101906106889190611c77565b146106fa5760405162461bcd60e51b8152602060048201526024808201527f4552433230466c6173684d696e743a20696e76616c69642072657475726e207660448201527f616c75650000000000000000000000000000000000000000000000000000000060648201526084016105b3565b6000610710883061070b858a611c09565b610ccf565b81158061072457506001600160a01b038116155b156107415761073c886107378489611c09565b611080565b610756565b61074b8887611080565b610756888284610d61565b506001979650505050505050565b60006001600160a01b038216301461077d576000610459565b60025461045990600019611c90565b6107946113bd565b61079e6000611417565b565b6107ab823383610ccf565b6107b58282611080565b5050565b6001600160a01b0381166000908152600a6020526040812054610459565b6060600480546103c290611bbf565b6104db611481565b60008060006107fe8460066111f5565b915091508161080f57600254610811565b805b949350505050565b3360008181526001602090815260408083206001600160a01b0387168452909152812054909190838110156108b65760405162461bcd60e51b815260206004820152602560248201527f45524332303a2064656372656173656420616c6c6f77616e63652062656c6f7760448201527f207a65726f00000000000000000000000000000000000000000000000000000060648201526084016105b3565b6104788286868403610b77565b600033610453818585610d61565b834211156109215760405162461bcd60e51b815260206004820152601d60248201527f45524332305065726d69743a206578706972656420646561646c696e6500000060448201526064016105b3565b60007f6e71edae12b1b97f4d1f60370fef10105fa2faae0126114a169c64845d6126c98888886109508c6114db565b6040805160208101969096526001600160a01b0394851690860152929091166060840152608083015260a082015260c0810186905260e00160405160208183030381529060405280519060200120905060006109ab82611503565b905060006109bb8287878761156c565b9050896001600160a01b0316816001600160a01b031614610a1e5760405162461bcd60e51b815260206004820152601e60248201527f45524332305065726d69743a20696e76616c6964207369676e6174757265000060448201526064016105b3565b610a298a8a8a610b77565b50505050505050505050565b60006001600160a01b0383163014610a8f5760405162461bcd60e51b815260206004820152601b60248201527f4552433230466c6173684d696e743a2077726f6e6720746f6b656e000000000060448201526064016105b3565b60005b9392505050565b610aa16113bd565b6001600160a01b038116610b1d5760405162461bcd60e51b815260206004820152602660248201527f4f776e61626c653a206e6577206f776e657220697320746865207a65726f206160448201527f646472657373000000000000000000000000000000000000000000000000000060648201526084016105b3565b6104db81611417565b6001600160a01b038316610b4a57610b3d82611594565b610b456115c6565b505050565b6001600160a01b038216610b6157610b3d83611594565b610b6a83611594565b610b4582611594565b5490565b6001600160a01b038316610bf25760405162461bcd60e51b8152602060048201526024808201527f45524332303a20617070726f76652066726f6d20746865207a65726f2061646460448201527f726573730000000000000000000000000000000000000000000000000000000060648201526084016105b3565b6001600160a01b038216610c6e5760405162461bcd60e51b815260206004820152602260248201527f45524332303a20617070726f766520746f20746865207a65726f20616464726560448201527f737300000000000000000000000000000000000000000000000000000000000060648201526084016105b3565b6001600160a01b0383811660008181526001602090815260408083209487168084529482529182902085905590518481527f8c5be1e5ebec7d5bd14f71427d1e84f3dd0314c0f7b2291e5b200ac8c7c3b925910160405180910390a3505050565b6001600160a01b038381166000908152600160209081526040808320938616835292905220546000198114610d5b5781811015610d4e5760405162461bcd60e51b815260206004820152601d60248201527f45524332303a20696e73756666696369656e7420616c6c6f77616e636500000060448201526064016105b3565b610d5b8484848403610b77565b50505050565b6001600160a01b038316610ddd5760405162461bcd60e51b815260206004820152602560248201527f45524332303a207472616e736665722066726f6d20746865207a65726f20616460448201527f647265737300000000000000000000000000000000000000000000000000000060648201526084016105b3565b6001600160a01b038216610e595760405162461bcd60e51b815260206004820152602360248201527f45524332303a207472616e7366657220746f20746865207a65726f206164647260448201527f657373000000000000000000000000000000000000000000000000000000000060648201526084016105b3565b610e648383836115d4565b6001600160a01b03831660009081526020819052604090205481811015610ef35760405162461bcd60e51b815260206004820152602660248201527f45524332303a207472616e7366657220616d6f756e742065786365656473206260448201527f616c616e6365000000000000000000000000000000000000000000000000000060648201526084016105b3565b6001600160a01b03848116600081815260208181526040808320878703905593871680835291849020805487019055925185815290927fddf252ad1be2c89b69c2b068fc378daa952ba7f163c4a11628f55a4df523b3ef910160405180910390a3610d5b565b6000306001600160a01b037f000000000000000000000000000000000000000000000000000000000000000016148015610fb257507f000000000000000000000000000000000000000000000000000000000000000046145b15610fdc57507f000000000000000000000000000000000000000000000000000000000000000090565b50604080517f00000000000000000000000000000000000000000000000000000000000000006020808301919091527f0000000000000000000000000000000000000000000000000000000000000000828401527f000000000000000000000000000000000000000000000000000000000000000060608301524660808301523060a0808401919091528351808403909101815260c0909201909252805191012090565b6001600160a01b0382166110fc5760405162461bcd60e51b815260206004820152602160248201527f45524332303a206275726e2066726f6d20746865207a65726f2061646472657360448201527f730000000000000000000000000000000000000000000000000000000000000060648201526084016105b3565b611108826000836115d4565b6001600160a01b038216600090815260208190526040902054818110156111975760405162461bcd60e51b815260206004820152602260248201527f45524332303a206275726e20616d6f756e7420657863656564732062616c616e60448201527f636500000000000000000000000000000000000000000000000000000000000060648201526084016105b3565b6001600160a01b0383166000818152602081815260408083208686039055600280548790039055518581529192917fddf252ad1be2c89b69c2b068fc378daa952ba7f163c4a11628f55a4df523b3ef910160405180910390a3505050565b600080600084116112485760405162461bcd60e51b815260206004820152601660248201527f4552433230536e617073686f743a20696420697320300000000000000000000060448201526064016105b3565b6112506115df565b84111561129f5760405162461bcd60e51b815260206004820152601d60248201527f4552433230536e617073686f743a206e6f6e6578697374656e7420696400000060448201526064016105b3565b60006112ab84866115ea565b845490915081036112c35760008092509250506112eb565b60018460010182815481106112da576112da611ca3565b906000526020600020015492509250505b9250929050565b6001600160a01b0382166113485760405162461bcd60e51b815260206004820152601f60248201527f45524332303a206d696e7420746f20746865207a65726f20616464726573730060448201526064016105b3565b611354600083836115d4565b80600260008282546113669190611c09565b90915550506001600160a01b038216600081815260208181526040808320805486019055518481527fddf252ad1be2c89b69c2b068fc378daa952ba7f163c4a11628f55a4df523b3ef910160405180910390a35050565b6009546001600160a01b0316331461079e5760405162461bcd60e51b815260206004820181905260248201527f4f776e61626c653a2063616c6c6572206973206e6f7420746865206f776e657260448201526064016105b3565b600980546001600160a01b038381167fffffffffffffffffffffffff0000000000000000000000000000000000000000831681179093556040519116919082907f8be0079c531659141344cd1fd0a4f28419497f9722a3daafe3b4186f6b6457e090600090a35050565b6000611491600880546001019055565b600061149b6115df565b90507f8030e83b04d87bef53480e26263266d6ca66863aa8506aca6f2559d18aa1cb67816040516114ce91815260200190565b60405180910390a1919050565b6001600160a01b0381166000908152600a602052604090208054600181018255905b50919050565b6000610459611510610f59565b836040517f19010000000000000000000000000000000000000000000000000000000000006020820152602281018390526042810182905260009060620160405160208183030381529060405280519060200120905092915050565b600080600061157d87878787611697565b9150915061158a8161175b565b5095945050505050565b6001600160a01b038116600090815260056020908152604080832091839052909120546104db91906118c0565b6118c0565b61079e60066115c160025490565b610b45838383610b26565b600061048d60085490565b815460009081036115fd57506000610459565b82546000905b8082101561164a576000611617838361190a565b6000878152602090209091508590820154111561163657809150611644565b611641816001611c09565b92505b50611603565b60008211801561167657508361167386611665600186611c90565b600091825260209091200190565b54145b1561168f57611686600183611c90565b92505050610459565b509050610459565b6000807f7fffffffffffffffffffffffffffffff5d576e7357a4501ddfe92f46681b20a08311156116ce5750600090506003611752565b6040805160008082526020820180845289905260ff881692820192909252606081018690526080810185905260019060a0016020604051602081039080840390855afa158015611722573d6000803e3d6000fd5b5050604051601f1901519150506001600160a01b03811661174b57600060019250925050611752565b9150600090505b94509492505050565b600081600481111561176f5761176f611cb9565b036117775750565b600181600481111561178b5761178b611cb9565b036117d85760405162461bcd60e51b815260206004820152601860248201527f45434453413a20696e76616c6964207369676e6174757265000000000000000060448201526064016105b3565b60028160048111156117ec576117ec611cb9565b036118395760405162461bcd60e51b815260206004820152601f60248201527f45434453413a20696e76616c6964207369676e6174757265206c656e6774680060448201526064016105b3565b600381600481111561184d5761184d611cb9565b036104db5760405162461bcd60e51b815260206004820152602260248201527f45434453413a20696e76616c6964207369676e6174757265202773272076616c60448201527f756500000000000000000000000000000000000000000000000000000000000060648201526084016105b3565b60006118ca6115df565b9050806118d684611925565b1015610b45578254600180820185556000858152602080822090930193909355938401805494850181558252902090910155565b60006119196002848418611ccf565b610a9290848416611c09565b8054600090810361193857506000919050565b8154829061194890600190611c90565b8154811061195857611958611ca3565b90600052602060002001549050919050565b600060208083528351808285015260005b818110156119975785810183015185820160400152820161197b565b506000604082860101526040601f19601f8301168501019250505092915050565b6001600160a01b03811681146104db57600080fd5b600080604083850312156119e057600080fd5b82356119eb816119b8565b946020939093013593505050565b600080600060608486031215611a0e57600080fd5b8335611a19816119b8565b92506020840135611a29816119b8565b929592945050506040919091013590565b600060208284031215611a4c57600080fd5b5035919050565b600080600080600060808688031215611a6b57600080fd5b8535611a76816119b8565b94506020860135611a86816119b8565b935060408601359250606086013567ffffffffffffffff80821115611aaa57600080fd5b818801915088601f830112611abe57600080fd5b813581811115611acd57600080fd5b896020828501011115611adf57600080fd5b9699959850939650602001949392505050565b600060208284031215611b0457600080fd5b8135610a92816119b8565b600080600080600080600060e0888a031215611b2a57600080fd5b8735611b35816119b8565b96506020880135611b45816119b8565b95506040880135945060608801359350608088013560ff81168114611b6957600080fd5b9699959850939692959460a0840135945060c09093013592915050565b60008060408385031215611b9957600080fd5b8235611ba4816119b8565b91506020830135611bb4816119b8565b809150509250929050565b600181811c90821680611bd357607f821691505b6020821081036114fd57634e487b7160e01b600052602260045260246000fd5b634e487b7160e01b600052601160045260246000fd5b8082018082111561045957610459611bf3565b60006001600160a01b03808916835280881660208401525085604083015284606083015260a060808301528260a0830152828460c0840137600060c0848401015260c0601f19601f8501168301019050979650505050505050565b600060208284031215611c8957600080fd5b5051919050565b8181038181111561045957610459611bf3565b634e487b7160e01b600052603260045260246000fd5b634e487b7160e01b600052602160045260246000fd5b600082611cec57634e487b7160e01b600052601260045260246000fd5b50049056fea2646970667358221220dc2d94a8fab9e15c56da05e84c9098ce4906001f9fa3656a1b0eb48c0dc57bcf64736f6c63430008120033",
  "linkReferences": {},
  "deployedLinkReferences": {}
}