{"contracts/VariablesV1Upgradeable.sol":{"VariablesV1Upgradeable":{"abi":[{"anonymous":false,"inputs":[{"indexed":false,"internalType":"address","name":"previousAdmin","type":"address"},{"indexed":false,"internalType":"address","name":"newAdmin","type":"address"}],"name":"AdminChanged","type":"event"},{"anonymous":false,"inputs":[{"indexed":true,"internalType":"address","name":"beacon","type":"address"}],"name":"BeaconUpgraded","type":"event"},{"anonymous":false,"inputs":[{"indexed":false,"internalType":"address","name":"ibpAddress","type":"address"}],"name":"IBPPromotedByAdmin","type":"event"},{"anonymous":false,"inputs":[{"indexed":false,"internalType":"address","name":"ibpAddress","type":"address"}],"name":"IBPRemovedByAdmin","type":"event"},{"anonymous":false,"inputs":[{"indexed":false,"internalType":"uint8","name":"version","type":"uint8"}],"name":"Initialized","type":"event"},{"anonymous":false,"inputs":[{"indexed":true,"internalType":"address","name":"previousOwner","type":"address"},{"indexed":true,"internalType":"address","name":"newOwner","type":"address"}],"name":"OwnershipTransferred","type":"event"},{"anonymous":false,"inputs":[{"indexed":false,"internalType":"address","name":"account","type":"address"}],"name":"Paused","type":"event"},{"anonymous":false,"inputs":[{"indexed":false,"internalType":"address","name":"account","type":"address"}],"name":"Unpaused","type":"event"},{"anonymous":false,"inputs":[{"indexed":true,"internalType":"address","name":"implementation","type":"address"}],"name":"Upgraded","type":"event"},{"inputs":[{"internalType":"address","name":"_ibpAddress","type":"address"}],"name":"addIBPAddressAdmin","outputs":[],"stateMutability":"nonpayable","type":"function"},{"inputs":[{"internalType":"address[]","name":"_tokenContractAddress","type":"address[]"}],"name":"disableSupportedToken","outputs":[],"stateMutability":"nonpayable","type":"function"},{"inputs":[],"name":"getAdminAddress","outputs":[{"internalType":"address","name":"","type":"address"}],"stateMutability":"view","type":"function"},{"inputs":[],"name":"getAdminFees","outputs":[{"internalType":"uint8","name":"","type":"uint8"}],"stateMutability":"view","type":"function"},{"inputs":[],"name":"getBaseCurrencyDecimals","outputs":[{"internalType":"uint8","name":"","type":"uint8"}],"stateMutability":"view","type":"function"},{"inputs":[],"name":"getCoreMemberRewardRate","outputs":[{"internalType":"uint8","name":"","type":"uint8"}],"stateMutability":"view","type":"function"},{"inputs":[],"name":"getCoreMembersContractAddress","outputs":[{"internalType":"address","name":"","type":"address"}],"stateMutability":"view","type":"function"},{"inputs":[],"name":"getGlobalRewardRate","outputs":[{"internalType":"uint8","name":"","type":"uint8"}],"stateMutability":"view","type":"function"},{"inputs":[],"name":"getIBPList","outputs":[{"internalType":"address[]","name":"","type":"address[]"}],"stateMutability":"view","type":"function"},{"inputs":[],"name":"getIbpRewardRate","outputs":[{"internalType":"uint8","name":"","type":"uint8"}],"stateMutability":"view","type":"function"},{"inputs":[],"name":"getIsPayCoreMembersRewards","outputs":[{"internalType":"bool","name":"","type":"bool"}],"stateMutability":"view","type":"function"},{"inputs":[],"name":"getIsPayGlobalRewards","outputs":[{"internalType":"bool","name":"","type":"bool"}],"stateMutability":"view","type":"function"},{"inputs":[],"name":"getIsPayIbpRewards","outputs":[{"internalType":"bool","name":"","type":"bool"}],"stateMutability":"view","type":"function"},{"inputs":[],"name":"getIsPayReferralRewards","outputs":[{"internalType":"bool","name":"","type":"bool"}],"stateMutability":"view","type":"function"},{"inputs":[],"name":"getIsPayRewardToken","outputs":[{"internalType":"bool","name":"","type":"bool"}],"stateMutability":"view","type":"function"},{"inputs":[],"name":"getIsPayWeeklyRewards","outputs":[{"internalType":"bool","name":"","type":"bool"}],"stateMutability":"view","type":"function"},{"inputs":[],"name":"getLevelDecimals","outputs":[{"internalType":"uint16","name":"","type":"uint16"}],"stateMutability":"view","type":"function"},{"inputs":[],"name":"getLevelRates","outputs":[{"internalType":"uint16[]","name":"","type":"uint16[]"}],"stateMutability":"view","type":"function"},{"inputs":[{"internalType":"uint8","name":"_planId","type":"uint8"}],"name":"getPlanById","outputs":[{"components":[{"internalType":"uint8","name":"planId","type":"uint8"},{"internalType":"string","name":"name","type":"string"},{"internalType":"uint256","name":"value","type":"uint256"},{"internalType":"uint256","name":"maxLimitMultiplier","type":"uint256"}],"internalType":"struct VariablesV1Upgradeable.PlanStruct","name":"","type":"tuple"}],"stateMutability":"view","type":"function"},{"inputs":[],"name":"getPlansCount","outputs":[{"internalType":"uint8","name":"planCount","type":"uint8"}],"stateMutability":"view","type":"function"},{"inputs":[],"name":"getRewardTokenContract","outputs":[{"internalType":"address","name":"","type":"address"}],"stateMutability":"view","type":"function"},{"inputs":[],"name":"getRewardTokenRate","outputs":[{"internalType":"uint8","name":"","type":"uint8"}],"stateMutability":"view","type":"function"},{"inputs":[{"internalType":"address","name":"_tokenContractAddress","type":"address"}],"name":"getSupportedTokenInfo","outputs":[{"components":[{"internalType":"address","name":"contractAddress","type":"address"},{"internalType":"string","name":"name","type":"string"},{"internalType":"string","name":"symbol","type":"string"},{"internalType":"uint8","name":"decimals","type":"uint8"},{"internalType":"bool","name":"isStable","type":"bool"},{"internalType":"address","name":"aggregatorAddress","type":"address"},{"internalType":"bool","name":"isEnaled","type":"bool"}],"internalType":"struct VariablesV1Upgradeable.SupportedTokensStruct","name":"","type":"tuple"}],"stateMutability":"view","type":"function"},{"inputs":[],"name":"getValueBufferRate","outputs":[{"internalType":"uint8","name":"","type":"uint8"}],"stateMutability":"view","type":"function"},{"inputs":[],"name":"getWeeklyRewardRate","outputs":[{"internalType":"uint8","name":"","type":"uint8"}],"stateMutability":"view","type":"function"},{"inputs":[],"name":"initialize","outputs":[],"stateMutability":"nonpayable","type":"function"},{"inputs":[{"internalType":"address","name":"_ibpAddress","type":"address"}],"name":"isIBP","outputs":[{"internalType":"bool","name":"","type":"bool"}],"stateMutability":"view","type":"function"},{"inputs":[{"internalType":"address","name":"_tokenContractAddress","type":"address"}],"name":"isTokenSupported","outputs":[{"internalType":"bool","name":"","type":"bool"}],"stateMutability":"view","type":"function"},{"inputs":[],"name":"owner","outputs":[{"internalType":"address","name":"","type":"address"}],"stateMutability":"view","type":"function"},{"inputs":[],"name":"pause","outputs":[],"stateMutability":"nonpayable","type":"function"},{"inputs":[],"name":"paused","outputs":[{"internalType":"bool","name":"","type":"bool"}],"stateMutability":"view","type":"function"},{"inputs":[],"name":"proxiableUUID","outputs":[{"internalType":"bytes32","name":"","type":"bytes32"}],"stateMutability":"view","type":"function"},{"inputs":[{"internalType":"address","name":"_tokenContractAddress","type":"address"},{"internalType":"bool","name":"_isStable","type":"bool"},{"internalType":"address","name":"_aggregatorContractAddress","type":"address"}],"name":"pushSupportedTokenToList","outputs":[],"stateMutability":"nonpayable","type":"function"},{"inputs":[{"internalType":"address","name":"_ibpAddress","type":"address"}],"name":"removeIBPAddressAdmin","outputs":[],"stateMutability":"nonpayable","type":"function"},{"inputs":[],"name":"renounceOwnership","outputs":[],"stateMutability":"nonpayable","type":"function"},{"inputs":[{"internalType":"address","name":"adminAddress","type":"address"}],"name":"setAdminAddress","outputs":[],"stateMutability":"nonpayable","type":"function"},{"inputs":[{"internalType":"uint8","name":"fees","type":"uint8"}],"name":"setAdminFees","outputs":[],"stateMutability":"nonpayable","type":"function"},{"inputs":[{"internalType":"uint8","name":"decimals","type":"uint8"}],"name":"setBaseCurrencyDecimals","outputs":[],"stateMutability":"nonpayable","type":"function"},{"inputs":[{"internalType":"uint8","name":"rate","type":"uint8"}],"name":"setCoreMemberRewardRate","outputs":[],"stateMutability":"nonpayable","type":"function"},{"inputs":[{"internalType":"address","name":"_address","type":"address"}],"name":"setCoreMembersContractAddress","outputs":[],"stateMutability":"nonpayable","type":"function"},{"inputs":[{"internalType":"uint8","name":"rate","type":"uint8"}],"name":"setGlobalRewardRate","outputs":[],"stateMutability":"nonpayable","type":"function"},{"inputs":[{"internalType":"uint8","name":"rate","type":"uint8"}],"name":"setIbpRewardRate","outputs":[],"stateMutability":"nonpayable","type":"function"},{"inputs":[{"internalType":"bool","name":"value","type":"bool"}],"name":"setIsPayCoreMembersRewards","outputs":[],"stateMutability":"nonpayable","type":"function"},{"inputs":[{"internalType":"bool","name":"value","type":"bool"}],"name":"setIsPayGlobalRewards","outputs":[],"stateMutability":"nonpayable","type":"function"},{"inputs":[{"internalType":"bool","name":"value","type":"bool"}],"name":"setIsPayIbpRewards","outputs":[],"stateMutability":"nonpayable","type":"function"},{"inputs":[{"internalType":"bool","name":"value","type":"bool"}],"name":"setIsPayReferralRewards","outputs":[],"stateMutability":"nonpayable","type":"function"},{"inputs":[{"internalType":"bool","name":"isPay","type":"bool"}],"name":"setIsPayRewardToken","outputs":[],"stateMutability":"nonpayable","type":"function"},{"inputs":[{"internalType":"bool","name":"value","type":"bool"}],"name":"setIsPayWeeklyRewards","outputs":[],"stateMutability":"nonpayable","type":"function"},{"inputs":[{"internalType":"uint16","name":"decimals","type":"uint16"}],"name":"setLevelDecimals","outputs":[],"stateMutability":"nonpayable","type":"function"},{"inputs":[{"internalType":"uint16[]","name":"rates","type":"uint16[]"}],"name":"setLevelRates","outputs":[],"stateMutability":"nonpayable","type":"function"},{"inputs":[{"internalType":"uint8[]","name":"planId","type":"uint8[]"},{"internalType":"string[]","name":"name","type":"string[]"},{"internalType":"uint256[]","name":"valueInDecimals","type":"uint256[]"},{"internalType":"uint256[]","name":"maxLimitMultiplier","type":"uint256[]"}],"name":"setPlans","outputs":[],"stateMutability":"nonpayable","type":"function"},{"inputs":[{"internalType":"address","name":"tokenContract","type":"address"}],"name":"setRewardTokenContract","outputs":[],"stateMutability":"nonpayable","type":"function"},{"inputs":[{"internalType":"uint8","name":"_rewardRatePer","type":"uint8"}],"name":"setRewardTokenRate","outputs":[],"stateMutability":"nonpayable","type":"function"},{"inputs":[{"internalType":"uint8","name":"rate","type":"uint8"}],"name":"setValueBufferRate","outputs":[],"stateMutability":"nonpayable","type":"function"},{"inputs":[{"internalType":"uint8","name":"rate","type":"uint8"}],"name":"setWeeklyRewardRate","outputs":[],"stateMutability":"nonpayable","type":"function"},{"inputs":[{"internalType":"uint256","name":"","type":"uint256"}],"name":"supportedTokensList","outputs":[{"internalType":"address","name":"","type":"address"}],"stateMutability":"view","type":"function"},{"inputs":[{"internalType":"address","name":"newOwner","type":"address"}],"name":"transferOwnership","outputs":[],"stateMutability":"nonpayable","type":"function"},{"inputs":[],"name":"unpause","outputs":[],"stateMutability":"nonpayable","type":"function"},{"inputs":[{"internalType":"address","name":"newImplementation","type":"address"}],"name":"upgradeTo","outputs":[],"stateMutability":"nonpayable","type":"function"},{"inputs":[{"internalType":"address","name":"newImplementation","type":"address"},{"internalType":"bytes","name":"data","type":"bytes"}],"name":"upgradeToAndCall","outputs":[],"stateMutability":"payable","type":"function"}],"evm":{"bytecode":{"linkReferences":{},"object":"60a06040523060805234801561001457600080fd5b5060805161316861004c60003960008181611137015281816111800152818161127d015281816112bd015261134c01526131686000f3fe6080604052600436106103965760003560e01c80638da5cb5b116101dc578063b7a2662011610102578063e371c5c5116100a0578063eb758bc71161006f578063eb758bc714610ade578063f2a9012114610afe578063f2fde38b14610b1e578063ffc43f8f14610b3e57600080fd5b8063e371c5c514610a4c578063e701671714610a6c578063e74af32e14610a8e578063e7cca9c714610abb57600080fd5b8063c391d636116100dc578063c391d636146109d0578063d54fcd93146109ee578063e091099c14610a0e578063e179719a14610a2d57600080fd5b8063b7a266201461096f578063b9cd1a501461098f578063bcb03b57146109b057600080fd5b8063a46868f01161017a578063acc9186511610149578063acc91865146108fb578063af2d4d0914610910578063b2e6b91214610930578063b64435621461094f57600080fd5b8063a46868f01461087b578063a61a4ff31461089b578063a646e845146108bb578063ac40e309146108db57600080fd5b806393cee9c9116101b657806393cee9c9146107fc57806394debf481461081c5780639f6d88701461083c578063a43ae4081461085b57600080fd5b80638da5cb5b1461079d578063916452ab146107bb578063918a54db146107da57600080fd5b80634f1ef286116102c157806363c918771161025f57806375151b631161022e57806375151b631461070f5780638129fc1c146107535780638456cb5914610768578063880c0ec31461077d57600080fd5b806363c918771461068357806365eb204d146106bb5780636cf3c676146106da578063715018a6146106fa57600080fd5b806357b888051161029b57806357b888051461060c5780635c975abb1461062c5780635d9bed63146106445780635f3ad6e21461066457600080fd5b80634f1ef286146105b757806352d1902d146105ca5780635397b86d146105ed57600080fd5b80632c1e816d1161033957806339e0dcfa1161030857806339e0dcfa146105435780633f4ba83a146105635780633fae6a11146105785780634ccebd501461059757600080fd5b80632c1e816d1461049c5780632f8c7e72146104bc5780633238c16f146104f65780633659cfe61461052357600080fd5b80630efc12b1116103755780630efc12b1146103fd57806316dd07e0146104335780631f1eeec81461045e5780632b70c02c1461047d57600080fd5b8062b292901461039b578063051ff2b9146103bd57806308fcfbbe146103dd575b600080fd5b3480156103a757600080fd5b506103bb6103b63660046126e8565b610b60565b005b3480156103c957600080fd5b506103bb6103d8366004612713565b610d3d565b3480156103e957600080fd5b506103bb6103f83660046126e8565b610fce565b34801561040957600080fd5b5061041d610418366004612765565b610ff9565b60405161042a91906127d2565b60405180910390f35b34801561043f57600080fd5b5060fc54600160681b900460ff165b604051901515815260200161042a565b34801561046a57600080fd5b5060fc54600160601b900460ff1661044e565b34801561048957600080fd5b5060fc54600160501b900460ff1661044e565b3480156104a857600080fd5b506103bb6104b73660046126e8565b611102565b3480156104c857600080fd5b5061044e6104d73660046126e8565b6001600160a01b03166000908152610108602052604090205460ff1690565b34801561050257600080fd5b5060fc54600160401b900460ff165b60405160ff909116815260200161042a565b34801561052f57600080fd5b506103bb61053e3660046126e8565b61112d565b34801561054f57600080fd5b506103bb61055e36600461281b565b611215565b34801561056f57600080fd5b506103bb61123b565b34801561058457600080fd5b5060fc54600160581b900460ff1661044e565b3480156105a357600080fd5b506103bb6105b236600461281b565b61124d565b6103bb6105c53660046128e3565b611273565b3480156105d657600080fd5b506105df61133f565b60405190815260200161042a565b3480156105f957600080fd5b5060fc54600160381b900460ff16610511565b34801561061857600080fd5b506103bb610627366004612991565b6113f2565b34801561063857600080fd5b5060335460ff1661044e565b34801561065057600080fd5b506103bb61065f36600461281b565b6114e4565b34801561067057600080fd5b5060fc546301000000900460ff16610511565b34801561068f57600080fd5b506106a361069e3660046129d3565b61150a565b6040516001600160a01b03909116815260200161042a565b3480156106c757600080fd5b50610103546001600160a01b03166106a3565b3480156106e657600080fd5b506103bb6106f5366004612765565b611534565b34801561070657600080fd5b506103bb611561565b34801561071b57600080fd5b5061044e61072a3660046126e8565b6001600160a01b031660009081526101076020526040902060030154600160b01b900460ff1690565b34801561075f57600080fd5b506103bb611573565b34801561077457600080fd5b506103bb61177e565b34801561078957600080fd5b506103bb610798366004612765565b61178e565b3480156107a957600080fd5b506065546001600160a01b03166106a3565b3480156107c757600080fd5b50610104546001600160a01b03166106a3565b3480156107e657600080fd5b506107ef6117bc565b60405161042a91906129ec565b34801561080857600080fd5b506103bb61081736600461281b565b61183c565b34801561082857600080fd5b506103bb610837366004612765565b611862565b34801561084857600080fd5b5060fc54600160701b900460ff1661044e565b34801561086757600080fd5b506103bb610876366004612a46565b61188a565b34801561088757600080fd5b5060fc54640100000000900460ff16610511565b3480156108a757600080fd5b506103bb6108b6366004612765565b6118aa565b3480156108c757600080fd5b506103bb6108d6366004612765565b6118d0565b3480156108e757600080fd5b506103bb6108f6366004612765565b6118fc565b34801561090757600080fd5b50610511611928565b34801561091c57600080fd5b506103bb61092b366004612765565b611978565b34801561093c57600080fd5b50610105546001600160a01b03166106a3565b34801561095b57600080fd5b506103bb61096a36600461281b565b6119a2565b34801561097b57600080fd5b506103bb61098a366004612765565b6119c8565b34801561099b57600080fd5b5060fc5465010000000000900460ff16610511565b3480156109bc57600080fd5b506103bb6109cb366004612a85565b6119f6565b3480156109dc57600080fd5b5060fc5462010000900460ff16610511565b3480156109fa57600080fd5b506103bb610a09366004612bcf565b611bd2565b348015610a1a57600080fd5b5060fc54600160481b900460ff16610511565b348015610a3957600080fd5b5060fc54600160781b900460ff1661044e565b348015610a5857600080fd5b506103bb610a673660046126e8565b611bed565b348015610a7857600080fd5b5060fc546601000000000000900460ff16610511565b348015610a9a57600080fd5b50610aae610aa93660046126e8565b611cb5565b60405161042a9190612c67565b348015610ac757600080fd5b5060fc5460405161ffff909116815260200161042a565b348015610aea57600080fd5b506103bb610af936600461281b565b611e89565b348015610b0a57600080fd5b506103bb610b193660046126e8565b611eaf565b348015610b2a57600080fd5b506103bb610b393660046126e8565b611eda565b348015610b4a57600080fd5b50610b53611f50565b60405161042a9190612cff565b610b68611fb1565b6001600160a01b0381166000908152610108602052604090205460ff168015610d39576001600160a01b038216600090815261010860209081526040808320805460ff1916905560fe80548251818502810185019093528083529192909190830182828015610c0057602002820191906000526020600020905b81546001600160a01b03168152600190910190602001808311610be2575b5050505050905060005b8151811015610d3657836001600160a01b0316828281518110610c2f57610c2f612d40565b60200260200101516001600160a01b031603610d24578160018351610c549190612d6c565b81518110610c6457610c64612d40565b602002602001015160fe8281548110610c7f57610c7f612d40565b9060005260206000200160006101000a8154816001600160a01b0302191690836001600160a01b0316021790555060fe805480610cbe57610cbe612d7f565b6000828152602090819020600019908301810180546001600160a01b03191690559091019091556040516001600160a01b03861681527f337eeb0192a31dfc3c61aff0be47a571a126a9e3f1caaee4af8c29babbb477e9910160405180910390a1610d36565b80610d2e81612d95565b915050610c0a565b50505b5050565b610d45611fb1565b6040518060e00160405280846001600160a01b03168152602001846001600160a01b03166306fdde036040518163ffffffff1660e01b8152600401600060405180830381865afa158015610d9d573d6000803e3d6000fd5b505050506040513d6000823e601f3d908101601f19168201604052610dc59190810190612dae565b8152602001846001600160a01b03166395d89b416040518163ffffffff1660e01b8152600401600060405180830381865afa158015610e08573d6000803e3d6000fd5b505050506040513d6000823e601f3d908101601f19168201604052610e309190810190612dae565b8152602001846001600160a01b031663313ce5676040518163ffffffff1660e01b8152600401602060405180830381865afa158015610e73573d6000803e3d6000fd5b505050506040513d601f19601f82011682018060405250810190610e979190612e25565b60ff1681528315156020808301919091526001600160a01b03848116604080850191909152600160609094018490528782166000908152610107845220845181546001600160a01b0319169216919091178155908301519091820190610efd9082612eca565b5060408201516002820190610f129082612eca565b50606082015160039091018054608084015160a085015160c0909501511515600160b01b0260ff60b01b196001600160a01b0396871662010000021662010000600160b81b03199215156101000261ffff1990941660ff9096169590951792909217169290921791909117905560fd80546001810182556000919091527f9346ac6dd7de6b96975fec380d4d994c4c12e6a8897544f22915316cc6cca280018054949091166001600160a01b0319909416939093179092555050565b610fd6611fb1565b61010380546001600160a01b0319166001600160a01b0392909216919091179055565b6110276040518060800160405280600060ff1681526020016060815260200160008152602001600081525090565b60ff80831660009081526101066020908152604091829020825160808101909352805490931682526001830180549293929184019161106590612e42565b80601f016020809104026020016040519081016040528092919081815260200182805461109190612e42565b80156110de5780601f106110b3576101008083540402835291602001916110de565b820191906000526020600020905b8154815290600101906020018083116110c157829003601f168201915b50505050508152602001600282015481526020016003820154815250509050919050565b61110a611fb1565b61010580546001600160a01b0319166001600160a01b0392909216919091179055565b6001600160a01b037f000000000000000000000000000000000000000000000000000000000000000016300361117e5760405162461bcd60e51b815260040161117590612f8a565b60405180910390fd5b7f00000000000000000000000000000000000000000000000000000000000000006001600160a01b03166111c76000805160206130ec833981519152546001600160a01b031690565b6001600160a01b0316146111ed5760405162461bcd60e51b815260040161117590612fd6565b6111f68161200b565b6040805160008082526020820190925261121291839190612013565b50565b61121d611fb1565b60fc8054911515600160681b0260ff60681b19909216919091179055565b611243611fb1565b61124b61217e565b565b611255611fb1565b60fc8054911515600160781b0260ff60781b19909216919091179055565b6001600160a01b037f00000000000000000000000000000000000000000000000000000000000000001630036112bb5760405162461bcd60e51b815260040161117590612f8a565b7f00000000000000000000000000000000000000000000000000000000000000006001600160a01b03166113046000805160206130ec833981519152546001600160a01b031690565b6001600160a01b03161461132a5760405162461bcd60e51b815260040161117590612fd6565b6113338261200b565b610d3982826001612013565b6000306001600160a01b037f000000000000000000000000000000000000000000000000000000000000000016146113df5760405162461bcd60e51b815260206004820152603860248201527f555550535570677261646561626c653a206d757374206e6f742062652063616c60448201527f6c6564207468726f7567682064656c656761746563616c6c00000000000000006064820152608401611175565b506000805160206130ec83398151915290565b6113fa611fb1565b60005b60ff81168211156114df576000610107600085858560ff1681811061142457611424612d40565b905060200201602081019061143991906126e8565b6001600160a01b0316815260208101919091526040016000206003018054911515600160b01b0260ff60b01b1990921691909117905560fd838360ff841681811061148657611486612d40565b905060200201602081019061149b91906126e8565b81546001810183556000928352602090922090910180546001600160a01b0319166001600160a01b03909216919091179055806114d781613022565b9150506113fd565b505050565b6114ec611fb1565b60fc8054911515600160701b0260ff60701b19909216919091179055565b60fd818154811061151a57600080fd5b6000918252602090912001546001600160a01b0316905081565b61153c611fb1565b60fc805460ff909216600160401b0268ff000000000000000019909216919091179055565b611569611fb1565b61124b60006121d0565b600054610100900460ff16158080156115935750600054600160ff909116105b806115ad5750303b1580156115ad575060005460ff166001145b6116105760405162461bcd60e51b815260206004820152602e60248201527f496e697469616c697a61626c653a20636f6e747261637420697320616c72656160448201526d191e481a5b9a5d1a585b1a5e995960921b6064820152608401611175565b6000805460ff191660011790558015611633576000805461ff0019166101001790555b604080516101408101825261138881526101f460208201526101909181019190915261012c606082015260c86080820152606460a0820181905260c0820152607d60e0820181905261010082015260966101208201526116979060fb90600a612617565b5060fc805461010380546001600160a01b0319908116737f9fd63932babc508fad2f324eb534d09cfe86f0179091556f010101010101030302050a0a0a0027106fffffffffffffffffffffffffff00ffff19909216919091179091556101048054821673efb61c43c70b60563c1a2a835663c63ecc93f6ba179055610105805490911633179055611726612222565b61172e612251565b611736612280565b8015611212576000805461ff0019169055604051600181527f7f26b83ff96e1f2b6a682f133852f6798a09c465da95921460cefb38474024989060200160405180910390a150565b611786611fb1565b61124b6122a7565b611796611fb1565b60fc805460ff90921666010000000000000266ff00000000000019909216919091179055565b606060fb80548060200260200160405190810160405280929190818152602001828054801561183257602002820191906000526020600020906000905b82829054906101000a900461ffff1661ffff16815260200190600201906020826001010492830192600103820291508084116117f95790505b5050505050905090565b611844611fb1565b60fc8054911515600160601b0260ff60601b19909216919091179055565b61186a611fb1565b60fc805460ff90921663010000000263ff00000019909216919091179055565b611892611fb1565b60fc805461ffff191661ffff92909216919091179055565b6118b2611fb1565b60fc805460ff909216620100000262ff000019909216919091179055565b6118d8611fb1565b60fc805460ff909216600160381b0267ff0000000000000019909216919091179055565b611904611fb1565b60fc805460ff909216650100000000000265ff000000000019909216919091179055565b6000805b60148160ff1610156119745760ff81166000908152610106602052604090206002015415611962578161195e81613022565b9250505b8061196c81613022565b91505061192c565b5090565b611980611fb1565b60fc805460ff9092166401000000000264ff0000000019909216919091179055565b6119aa611fb1565b60fc8054911515600160581b0260ff60581b19909216919091179055565b6119d0611fb1565b60fc805460ff909216600160481b0269ff00000000000000000019909216919091179055565b6119fe611fb1565b60005b86811015611bc857878782818110611a1b57611a1b612d40565b9050602002016020810190611a309190612765565b61010660008a8a85818110611a4757611a47612d40565b9050602002016020810190611a5c9190612765565b60ff90811682526020820192909252604001600020805460ff1916929091169190911790558551869082908110611a9557611a95612d40565b602002602001015161010660008a8a85818110611ab457611ab4612d40565b9050602002016020810190611ac99190612765565b60ff168152602081019190915260400160002060010190611aea9082612eca565b50848482818110611afd57611afd612d40565b90506020020135670de0b6b3a7640000611b179190613041565b61010660008a8a85818110611b2e57611b2e612d40565b9050602002016020810190611b439190612765565b60ff168152602081019190915260400160002060020155828282818110611b6c57611b6c612d40565b9050602002013561010660008a8a85818110611b8a57611b8a612d40565b9050602002016020810190611b9f9190612765565b60ff16815260208101919091526040016000206003015580611bc081612d95565b915050611a01565b5050505050505050565b611bda611fb1565b8051610d399060fb906020840190612617565b611bf5611fb1565b6001600160a01b0381166000908152610108602052604090205460ff1680610d39576001600160a01b038216600081815261010860209081526040808320805460ff1916600190811790915560fe805491820181559093527f54075df80ec1ae6ac9100e1fd0ebf3246c17f5c933137af392011f4c5f61513a90920180546001600160a01b0319168417905590519182527fe30f8cb0d8cbc7c0e95d5aaa3107ce401738ce4bc98a05dd081bb2a77a9ca749910160405180910390a15050565b6040805160e080820183526000808352606060208085018290528486018290529084018290526080840182905260a0840182905260c084018290526001600160a01b0386811683526101078252918590208551938401909552845490911682526001840180549394929391840191611d2c90612e42565b80601f0160208091040260200160405190810160405280929190818152602001828054611d5890612e42565b8015611da55780601f10611d7a57610100808354040283529160200191611da5565b820191906000526020600020905b815481529060010190602001808311611d8857829003601f168201915b50505050508152602001600282018054611dbe90612e42565b80601f0160208091040260200160405190810160405280929190818152602001828054611dea90612e42565b8015611e375780601f10611e0c57610100808354040283529160200191611e37565b820191906000526020600020905b815481529060010190602001808311611e1a57829003601f168201915b50505091835250506003919091015460ff808216602084015261010082048116151560408401526001600160a01b03620100008304166060840152600160b01b90910416151560809091015292915050565b611e91611fb1565b60fc8054911515600160501b0260ff60501b19909216919091179055565b611eb7611fb1565b61010480546001600160a01b0319166001600160a01b0392909216919091179055565b611ee2611fb1565b6001600160a01b038116611f475760405162461bcd60e51b815260206004820152602660248201527f4f776e61626c653a206e6577206f776e657220697320746865207a65726f206160448201526564647265737360d01b6064820152608401611175565b611212816121d0565b606060fe80548060200260200160405190810160405280929190818152602001828054801561183257602002820191906000526020600020905b81546001600160a01b03168152600190910190602001808311611f8a575050505050905090565b6065546001600160a01b0316331461124b5760405162461bcd60e51b815260206004820181905260248201527f4f776e61626c653a2063616c6c6572206973206e6f7420746865206f776e65726044820152606401611175565b611212611fb1565b7f4910fdfa16fed3260ed0e7147f7cc6da11a60208b5b9406d12a635614ffd91435460ff1615612046576114df836122e4565b826001600160a01b03166352d1902d6040518163ffffffff1660e01b8152600401602060405180830381865afa9250505080156120a0575060408051601f3d908101601f1916820190925261209d91810190613058565b60015b6121035760405162461bcd60e51b815260206004820152602e60248201527f45524331393637557067726164653a206e657720696d706c656d656e7461746960448201526d6f6e206973206e6f74205555505360901b6064820152608401611175565b6000805160206130ec83398151915281146121725760405162461bcd60e51b815260206004820152602960248201527f45524331393637557067726164653a20756e737570706f727465642070726f786044820152681a58589b195555525160ba1b6064820152608401611175565b506114df838383612380565b6121866123a5565b6033805460ff191690557f5db9ee0a495bf2e6ff9c91a7834c1ba4fdd244a5e8aa4e537bd38aeae4b073aa335b6040516001600160a01b03909116815260200160405180910390a1565b606580546001600160a01b038381166001600160a01b0319831681179093556040519116919082907f8be0079c531659141344cd1fd0a4f28419497f9722a3daafe3b4186f6b6457e090600090a35050565b600054610100900460ff166122495760405162461bcd60e51b815260040161117590613071565b61124b6123ee565b600054610100900460ff166122785760405162461bcd60e51b815260040161117590613071565b61124b612421565b600054610100900460ff1661124b5760405162461bcd60e51b815260040161117590613071565b6122af612451565b6033805460ff191660011790557f62e78cea01bee320cd4e420270b5ea74000d11b0c9f74754ebdbfc544b05a2586121b33390565b6001600160a01b0381163b6123515760405162461bcd60e51b815260206004820152602d60248201527f455243313936373a206e657720696d706c656d656e746174696f6e206973206e60448201526c1bdd08184818dbdb9d1c9858dd609a1b6064820152608401611175565b6000805160206130ec83398151915280546001600160a01b0319166001600160a01b0392909216919091179055565b61238983612497565b6000825111806123965750805b156114df57610d3683836124d7565b60335460ff1661124b5760405162461bcd60e51b815260206004820152601460248201527314185d5cd8589b194e881b9bdd081c185d5cd95960621b6044820152606401611175565b600054610100900460ff166124155760405162461bcd60e51b815260040161117590613071565b6033805460ff19169055565b600054610100900460ff166124485760405162461bcd60e51b815260040161117590613071565b61124b336121d0565b60335460ff161561124b5760405162461bcd60e51b815260206004820152601060248201526f14185d5cd8589b194e881c185d5cd95960821b6044820152606401611175565b6124a0816122e4565b6040516001600160a01b038216907fbc7cd75a20ee27fd9adebab32041f755214dbc6bffa90cc0225b39da2e5c2d3b90600090a250565b60606001600160a01b0383163b61253f5760405162461bcd60e51b815260206004820152602660248201527f416464726573733a2064656c65676174652063616c6c20746f206e6f6e2d636f6044820152651b9d1c9858dd60d21b6064820152608401611175565b600080846001600160a01b03168460405161255a91906130bc565b600060405180830381855af49150503d8060008114612595576040519150601f19603f3d011682016040523d82523d6000602084013e61259a565b606091505b50915091506125c2828260405180606001604052806027815260200161310c602791396125cd565b925050505b92915050565b606083156125dc5750816125e6565b6125e683836125ed565b9392505050565b8151156125fd5781518083602001fd5b8060405162461bcd60e51b815260040161117591906130d8565b82805482825590600052602060002090600f016010900481019282156126b05791602002820160005b8382111561268057835183826101000a81548161ffff021916908361ffff1602179055509260200192600201602081600101049283019260010302612640565b80156126ae5782816101000a81549061ffff0219169055600201602081600101049283019260010302612680565b505b506119749291505b8082111561197457600081556001016126b8565b80356001600160a01b03811681146126e357600080fd5b919050565b6000602082840312156126fa57600080fd5b6125e6826126cc565b803580151581146126e357600080fd5b60008060006060848603121561272857600080fd5b612731846126cc565b925061273f60208501612703565b915061274d604085016126cc565b90509250925092565b60ff8116811461121257600080fd5b60006020828403121561277757600080fd5b81356125e681612756565b60005b8381101561279d578181015183820152602001612785565b50506000910152565b600081518084526127be816020860160208601612782565b601f01601f19169290920160200192915050565b6020815260ff825116602082015260006020830151608060408401526127fb60a08401826127a6565b905060408401516060840152606084015160808401528091505092915050565b60006020828403121561282d57600080fd5b6125e682612703565b634e487b7160e01b600052604160045260246000fd5b604051601f8201601f1916810167ffffffffffffffff8111828210171561287557612875612836565b604052919050565b600067ffffffffffffffff82111561289757612897612836565b50601f01601f191660200190565b60006128b86128b38461287d565b61284c565b90508281528383830111156128cc57600080fd5b828260208301376000602084830101529392505050565b600080604083850312156128f657600080fd5b6128ff836126cc565b9150602083013567ffffffffffffffff81111561291b57600080fd5b8301601f8101851361292c57600080fd5b61293b858235602084016128a5565b9150509250929050565b60008083601f84011261295757600080fd5b50813567ffffffffffffffff81111561296f57600080fd5b6020830191508360208260051b850101111561298a57600080fd5b9250929050565b600080602083850312156129a457600080fd5b823567ffffffffffffffff8111156129bb57600080fd5b6129c785828601612945565b90969095509350505050565b6000602082840312156129e557600080fd5b5035919050565b6020808252825182820181905260009190848201906040850190845b81811015612a2857835161ffff1683529284019291840191600101612a08565b50909695505050505050565b803561ffff811681146126e357600080fd5b600060208284031215612a5857600080fd5b6125e682612a34565b600067ffffffffffffffff821115612a7b57612a7b612836565b5060051b60200190565b60008060008060008060006080888a031215612aa057600080fd5b67ffffffffffffffff8089351115612ab757600080fd5b612ac48a8a358b01612945565b90985096506020890135811015612ada57600080fd5b602089013589018a601f820112612af057600080fd5b612afd6128b38235612a61565b81358082526020808301929160051b8401018d811115612b1c57600080fd5b602084015b81811015612b6d578581351115612b3757600080fd5b8e603f823587010112612b4957600080fd5b612b5f8f823587016020810135906040016128a5565b845260209384019301612b21565b50508098505050508060408a01351115612b8657600080fd5b612b968a60408b01358b01612945565b90955093506060890135811015612bac57600080fd5b50612bbd8960608a01358a01612945565b979a9699509497509295919491925050565b60006020808385031215612be257600080fd5b823567ffffffffffffffff811115612bf957600080fd5b8301601f81018513612c0a57600080fd5b8035612c186128b382612a61565b81815260059190911b82018301908381019087831115612c3757600080fd5b928401925b82841015612c5c57612c4d84612a34565b82529284019290840190612c3c565b979650505050505050565b602080825282516001600160a01b03168282015282015160e06040830152600090612c966101008401826127a6565b90506040840151601f19848303016060850152612cb382826127a6565b91505060ff60608501511660808401526080840151151560a084015260a0840151612ce960c08501826001600160a01b03169052565b5060c084015180151560e0850152509392505050565b6020808252825182820181905260009190848201906040850190845b81811015612a285783516001600160a01b031683529284019291840191600101612d1b565b634e487b7160e01b600052603260045260246000fd5b634e487b7160e01b600052601160045260246000fd5b818103818111156125c7576125c7612d56565b634e487b7160e01b600052603160045260246000fd5b600060018201612da757612da7612d56565b5060010190565b600060208284031215612dc057600080fd5b815167ffffffffffffffff811115612dd757600080fd5b8201601f81018413612de857600080fd5b8051612df66128b38261287d565b818152856020838501011115612e0b57600080fd5b612e1c826020830160208601612782565b95945050505050565b600060208284031215612e3757600080fd5b81516125e681612756565b600181811c90821680612e5657607f821691505b602082108103612e7657634e487b7160e01b600052602260045260246000fd5b50919050565b601f8211156114df57600081815260208120601f850160051c81016020861015612ea35750805b601f850160051c820191505b81811015612ec257828155600101612eaf565b505050505050565b815167ffffffffffffffff811115612ee457612ee4612836565b612ef881612ef28454612e42565b84612e7c565b602080601f831160018114612f2d5760008415612f155750858301515b600019600386901b1c1916600185901b178555612ec2565b600085815260208120601f198616915b82811015612f5c57888601518255948401946001909101908401612f3d565b5085821015612f7a5787850151600019600388901b60f8161c191681555b5050505050600190811b01905550565b6020808252602c908201527f46756e6374696f6e206d7573742062652063616c6c6564207468726f7567682060408201526b19195b1959d85d1958d85b1b60a21b606082015260800190565b6020808252602c908201527f46756e6374696f6e206d7573742062652063616c6c6564207468726f7567682060408201526b6163746976652070726f787960a01b606082015260800190565b600060ff821660ff810361303857613038612d56565b60010192915050565b80820281158282048414176125c7576125c7612d56565b60006020828403121561306a57600080fd5b5051919050565b6020808252602b908201527f496e697469616c697a61626c653a20636f6e7472616374206973206e6f74206960408201526a6e697469616c697a696e6760a81b606082015260800190565b600082516130ce818460208701612782565b9190910192915050565b6020815260006125e660208301846127a656fe360894a13ba1a3210667c828492db98dca3e2076cc3735a920a3ca505d382bbc416464726573733a206c6f772d6c6576656c2064656c65676174652063616c6c206661696c6564a2646970667358221220f4ce508c291af1f76576ba265ccf2409c37a03eda6fb5727ff1764978f5cf65064736f6c63430008120033","opcodes":"PUSH1 0xA0 PUSH1 0x40 MSTORE ADDRESS PUSH1 0x80 MSTORE CALLVALUE DUP1 ISZERO PUSH2 0x14 JUMPI PUSH1 0x0 DUP1 REVERT JUMPDEST POP PUSH1 0x80 MLOAD PUSH2 0x3168 PUSH2 0x4C PUSH1 0x0 CODECOPY PUSH1 0x0 DUP2 DUP2 PUSH2 0x1137 ADD MSTORE DUP2 DUP2 PUSH2 0x1180 ADD MSTORE DUP2 DUP2 PUSH2 0x127D ADD MSTORE DUP2 DUP2 PUSH2 0x12BD ADD MSTORE PUSH2 0x134C ADD MSTORE PUSH2 0x3168 PUSH1 0x0 RETURN INVALID PUSH1 0x80 PUSH1 0x40 MSTORE PUSH1 0x4 CALLDATASIZE LT PUSH2 0x396 JUMPI PUSH1 0x0 CALLDATALOAD PUSH1 0xE0 SHR DUP1 PUSH4 0x8DA5CB5B GT PUSH2 0x1DC JUMPI DUP1 PUSH4 0xB7A26620 GT PUSH2 0x102 JUMPI DUP1 PUSH4 0xE371C5C5 GT PUSH2 0xA0 JUMPI DUP1 PUSH4 0xEB758BC7 GT PUSH2 0x6F JUMPI DUP1 PUSH4 0xEB758BC7 EQ PUSH2 0xADE JUMPI DUP1 PUSH4 0xF2A90121 EQ PUSH2 0xAFE JUMPI DUP1 PUSH4 0xF2FDE38B EQ PUSH2 0xB1E JUMPI DUP1 PUSH4 0xFFC43F8F EQ PUSH2 0xB3E JUMPI PUSH1 0x0 DUP1 REVERT JUMPDEST DUP1 PUSH4 0xE371C5C5 EQ PUSH2 0xA4C JUMPI DUP1 PUSH4 0xE7016717 EQ PUSH2 0xA6C JUMPI DUP1 PUSH4 0xE74AF32E EQ PUSH2 0xA8E JUMPI DUP1 PUSH4 0xE7CCA9C7 EQ PUSH2 0xABB JUMPI PUSH1 0x0 DUP1 REVERT JUMPDEST DUP1 PUSH4 0xC391D636 GT PUSH2 0xDC JUMPI DUP1 PUSH4 0xC391D636 EQ PUSH2 0x9D0 JUMPI DUP1 PUSH4 0xD54FCD93 EQ PUSH2 0x9EE JUMPI DUP1 PUSH4 0xE091099C EQ PUSH2 0xA0E JUMPI DUP1 PUSH4 0xE179719A EQ PUSH2 0xA2D JUMPI PUSH1 0x0 DUP1 REVERT JUMPDEST DUP1 PUSH4 0xB7A26620 EQ PUSH2 0x96F JUMPI DUP1 PUSH4 0xB9CD1A50 EQ PUSH2 0x98F JUMPI DUP1 PUSH4 0xBCB03B57 EQ PUSH2 0x9B0 JUMPI PUSH1 0x0 DUP1 REVERT JUMPDEST DUP1 PUSH4 0xA46868F0 GT PUSH2 0x17A JUMPI DUP1 PUSH4 0xACC91865 GT PUSH2 0x149 JUMPI DUP1 PUSH4 0xACC91865 EQ PUSH2 0x8FB JUMPI DUP1 PUSH4 0xAF2D4D09 EQ PUSH2 0x910 JUMPI DUP1 PUSH4 0xB2E6B912 EQ PUSH2 0x930 JUMPI DUP1 PUSH4 0xB6443562 EQ PUSH2 0x94F JUMPI PUSH1 0x0 DUP1 REVERT JUMPDEST DUP1 PUSH4 0xA46868F0 EQ PUSH2 0x87B JUMPI DUP1 PUSH4 0xA61A4FF3 EQ PUSH2 0x89B JUMPI DUP1 PUSH4 0xA646E845 EQ PUSH2 0x8BB JUMPI DUP1 PUSH4 0xAC40E309 EQ PUSH2 0x8DB JUMPI PUSH1 0x0 DUP1 REVERT JUMPDEST DUP1 PUSH4 0x93CEE9C9 GT PUSH2 0x1B6 JUMPI DUP1 PUSH4 0x93CEE9C9 EQ PUSH2 0x7FC JUMPI DUP1 PUSH4 0x94DEBF48 EQ PUSH2 0x81C JUMPI DUP1 PUSH4 0x9F6D8870 EQ PUSH2 0x83C JUMPI DUP1 PUSH4 0xA43AE408 EQ PUSH2 0x85B JUMPI PUSH1 0x0 DUP1 REVERT JUMPDEST DUP1 PUSH4 0x8DA5CB5B EQ PUSH2 0x79D JUMPI DUP1 PUSH4 0x916452AB EQ PUSH2 0x7BB JUMPI DUP1 PUSH4 0x918A54DB EQ PUSH2 0x7DA JUMPI PUSH1 0x0 DUP1 REVERT JUMPDEST DUP1 PUSH4 0x4F1EF286 GT PUSH2 0x2C1 JUMPI DUP1 PUSH4 0x63C91877 GT PUSH2 0x25F JUMPI DUP1 PUSH4 0x75151B63 GT PUSH2 0x22E JUMPI DUP1 PUSH4 0x75151B63 EQ PUSH2 0x70F JUMPI DUP1 PUSH4 0x8129FC1C EQ PUSH2 0x753 JUMPI DUP1 PUSH4 0x8456CB59 EQ PUSH2 0x768 JUMPI DUP1 PUSH4 0x880C0EC3 EQ PUSH2 0x77D JUMPI PUSH1 0x0 DUP1 REVERT JUMPDEST DUP1 PUSH4 0x63C91877 EQ PUSH2 0x683 JUMPI DUP1 PUSH4 0x65EB204D EQ PUSH2 0x6BB JUMPI DUP1 PUSH4 0x6CF3C676 EQ PUSH2 0x6DA JUMPI DUP1 PUSH4 0x715018A6 EQ PUSH2 0x6FA JUMPI PUSH1 0x0 DUP1 REVERT JUMPDEST DUP1 PUSH4 0x57B88805 GT PUSH2 0x29B JUMPI DUP1 PUSH4 0x57B88805 EQ PUSH2 0x60C JUMPI DUP1 PUSH4 0x5C975ABB EQ PUSH2 0x62C JUMPI DUP1 PUSH4 0x5D9BED63 EQ PUSH2 0x644 JUMPI DUP1 PUSH4 0x5F3AD6E2 EQ PUSH2 0x664 JUMPI PUSH1 0x0 DUP1 REVERT JUMPDEST DUP1 PUSH4 0x4F1EF286 EQ PUSH2 0x5B7 JUMPI DUP1 PUSH4 0x52D1902D EQ PUSH2 0x5CA JUMPI DUP1 PUSH4 0x5397B86D EQ PUSH2 0x5ED JUMPI PUSH1 0x0 DUP1 REVERT JUMPDEST DUP1 PUSH4 0x2C1E816D GT PUSH2 0x339 JUMPI DUP1 PUSH4 0x39E0DCFA GT PUSH2 0x308 JUMPI DUP1 PUSH4 0x39E0DCFA EQ PUSH2 0x543 JUMPI DUP1 PUSH4 0x3F4BA83A EQ PUSH2 0x563 JUMPI DUP1 PUSH4 0x3FAE6A11 EQ PUSH2 0x578 JUMPI DUP1 PUSH4 0x4CCEBD50 EQ PUSH2 0x597 JUMPI PUSH1 0x0 DUP1 REVERT JUMPDEST DUP1 PUSH4 0x2C1E816D EQ PUSH2 0x49C JUMPI DUP1 PUSH4 0x2F8C7E72 EQ PUSH2 0x4BC JUMPI DUP1 PUSH4 0x3238C16F EQ PUSH2 0x4F6 JUMPI DUP1 PUSH4 0x3659CFE6 EQ PUSH2 0x523 JUMPI PUSH1 0x0 DUP1 REVERT JUMPDEST DUP1 PUSH4 0xEFC12B1 GT PUSH2 0x375 JUMPI DUP1 PUSH4 0xEFC12B1 EQ PUSH2 0x3FD JUMPI DUP1 PUSH4 0x16DD07E0 EQ PUSH2 0x433 JUMPI DUP1 PUSH4 0x1F1EEEC8 EQ PUSH2 0x45E JUMPI DUP1 PUSH4 0x2B70C02C EQ PUSH2 0x47D JUMPI PUSH1 0x0 DUP1 REVERT JUMPDEST DUP1 PUSH3 0xB29290 EQ PUSH2 0x39B JUMPI DUP1 PUSH4 0x51FF2B9 EQ PUSH2 0x3BD JUMPI DUP1 PUSH4 0x8FCFBBE EQ PUSH2 0x3DD JUMPI JUMPDEST PUSH1 0x0 DUP1 REVERT JUMPDEST CALLVALUE DUP1 ISZERO PUSH2 0x3A7 JUMPI PUSH1 0x0 DUP1 REVERT JUMPDEST POP PUSH2 0x3BB PUSH2 0x3B6 CALLDATASIZE PUSH1 0x4 PUSH2 0x26E8 JUMP JUMPDEST PUSH2 0xB60 JUMP JUMPDEST STOP JUMPDEST CALLVALUE DUP1 ISZERO PUSH2 0x3C9 JUMPI PUSH1 0x0 DUP1 REVERT JUMPDEST POP PUSH2 0x3BB PUSH2 0x3D8 CALLDATASIZE PUSH1 0x4 PUSH2 0x2713 JUMP JUMPDEST PUSH2 0xD3D JUMP JUMPDEST CALLVALUE DUP1 ISZERO PUSH2 0x3E9 JUMPI PUSH1 0x0 DUP1 REVERT JUMPDEST POP PUSH2 0x3BB PUSH2 0x3F8 CALLDATASIZE PUSH1 0x4 PUSH2 0x26E8 JUMP JUMPDEST PUSH2 0xFCE JUMP JUMPDEST CALLVALUE DUP1 ISZERO PUSH2 0x409 JUMPI PUSH1 0x0 DUP1 REVERT JUMPDEST POP PUSH2 0x41D PUSH2 0x418 CALLDATASIZE PUSH1 0x4 PUSH2 0x2765 JUMP JUMPDEST PUSH2 0xFF9 JUMP JUMPDEST PUSH1 0x40 MLOAD PUSH2 0x42A SWAP2 SWAP1 PUSH2 0x27D2 JUMP JUMPDEST PUSH1 0x40 MLOAD DUP1 SWAP2 SUB SWAP1 RETURN JUMPDEST CALLVALUE DUP1 ISZERO PUSH2 0x43F JUMPI PUSH1 0x0 DUP1 REVERT JUMPDEST POP PUSH1 0xFC SLOAD PUSH1 0x1 PUSH1 0x68 SHL SWAP1 DIV PUSH1 0xFF AND JUMPDEST PUSH1 0x40 MLOAD SWAP1 ISZERO ISZERO DUP2 MSTORE PUSH1 0x20 ADD PUSH2 0x42A JUMP JUMPDEST CALLVALUE DUP1 ISZERO PUSH2 0x46A JUMPI PUSH1 0x0 DUP1 REVERT JUMPDEST POP PUSH1 0xFC SLOAD PUSH1 0x1 PUSH1 0x60 SHL SWAP1 DIV PUSH1 0xFF AND PUSH2 0x44E JUMP JUMPDEST CALLVALUE DUP1 ISZERO PUSH2 0x489 JUMPI PUSH1 0x0 DUP1 REVERT JUMPDEST POP PUSH1 0xFC SLOAD PUSH1 0x1 PUSH1 0x50 SHL SWAP1 DIV PUSH1 0xFF AND PUSH2 0x44E JUMP JUMPDEST CALLVALUE DUP1 ISZERO PUSH2 0x4A8 JUMPI PUSH1 0x0 DUP1 REVERT JUMPDEST POP PUSH2 0x3BB PUSH2 0x4B7 CALLDATASIZE PUSH1 0x4 PUSH2 0x26E8 JUMP JUMPDEST PUSH2 0x1102 JUMP JUMPDEST CALLVALUE DUP1 ISZERO PUSH2 0x4C8 JUMPI PUSH1 0x0 DUP1 REVERT JUMPDEST POP PUSH2 0x44E PUSH2 0x4D7 CALLDATASIZE PUSH1 0x4 PUSH2 0x26E8 JUMP JUMPDEST PUSH1 0x1 PUSH1 0x1 PUSH1 0xA0 SHL SUB AND PUSH1 0x0 SWAP1 DUP2 MSTORE PUSH2 0x108 PUSH1 0x20 MSTORE PUSH1 0x40 SWAP1 KECCAK256 SLOAD PUSH1 0xFF AND SWAP1 JUMP JUMPDEST CALLVALUE DUP1 ISZERO PUSH2 0x502 JUMPI PUSH1 0x0 DUP1 REVERT JUMPDEST POP PUSH1 0xFC SLOAD PUSH1 0x1 PUSH1 0x40 SHL SWAP1 DIV PUSH1 0xFF AND JUMPDEST PUSH1 0x40 MLOAD PUSH1 0xFF SWAP1 SWAP2 AND DUP2 MSTORE PUSH1 0x20 ADD PUSH2 0x42A JUMP JUMPDEST CALLVALUE DUP1 ISZERO PUSH2 0x52F JUMPI PUSH1 0x0 DUP1 REVERT JUMPDEST POP PUSH2 0x3BB PUSH2 0x53E CALLDATASIZE PUSH1 0x4 PUSH2 0x26E8 JUMP JUMPDEST PUSH2 0x112D JUMP JUMPDEST CALLVALUE DUP1 ISZERO PUSH2 0x54F JUMPI PUSH1 0x0 DUP1 REVERT JUMPDEST POP PUSH2 0x3BB PUSH2 0x55E CALLDATASIZE PUSH1 0x4 PUSH2 0x281B JUMP JUMPDEST PUSH2 0x1215 JUMP JUMPDEST CALLVALUE DUP1 ISZERO PUSH2 0x56F JUMPI PUSH1 0x0 DUP1 REVERT JUMPDEST POP PUSH2 0x3BB PUSH2 0x123B JUMP JUMPDEST CALLVALUE DUP1 ISZERO PUSH2 0x584 JUMPI PUSH1 0x0 DUP1 REVERT JUMPDEST POP PUSH1 0xFC SLOAD PUSH1 0x1 PUSH1 0x58 SHL SWAP1 DIV PUSH1 0xFF AND PUSH2 0x44E JUMP JUMPDEST CALLVALUE DUP1 ISZERO PUSH2 0x5A3 JUMPI PUSH1 0x0 DUP1 REVERT JUMPDEST POP PUSH2 0x3BB PUSH2 0x5B2 CALLDATASIZE PUSH1 0x4 PUSH2 0x281B JUMP JUMPDEST PUSH2 0x124D JUMP JUMPDEST PUSH2 0x3BB PUSH2 0x5C5 CALLDATASIZE PUSH1 0x4 PUSH2 0x28E3 JUMP JUMPDEST PUSH2 0x1273 JUMP JUMPDEST CALLVALUE DUP1 ISZERO PUSH2 0x5D6 JUMPI PUSH1 0x0 DUP1 REVERT JUMPDEST POP PUSH2 0x5DF PUSH2 0x133F JUMP JUMPDEST PUSH1 0x40 MLOAD SWAP1 DUP2 MSTORE PUSH1 0x20 ADD PUSH2 0x42A JUMP JUMPDEST CALLVALUE DUP1 ISZERO PUSH2 0x5F9 JUMPI PUSH1 0x0 DUP1 REVERT JUMPDEST POP PUSH1 0xFC SLOAD PUSH1 0x1 PUSH1 0x38 SHL SWAP1 DIV PUSH1 0xFF AND PUSH2 0x511 JUMP JUMPDEST CALLVALUE DUP1 ISZERO PUSH2 0x618 JUMPI PUSH1 0x0 DUP1 REVERT JUMPDEST POP PUSH2 0x3BB PUSH2 0x627 CALLDATASIZE PUSH1 0x4 PUSH2 0x2991 JUMP JUMPDEST PUSH2 0x13F2 JUMP JUMPDEST CALLVALUE DUP1 ISZERO PUSH2 0x638 JUMPI PUSH1 0x0 DUP1 REVERT JUMPDEST POP PUSH1 0x33 SLOAD PUSH1 0xFF AND PUSH2 0x44E JUMP JUMPDEST CALLVALUE DUP1 ISZERO PUSH2 0x650 JUMPI PUSH1 0x0 DUP1 REVERT JUMPDEST POP PUSH2 0x3BB PUSH2 0x65F CALLDATASIZE PUSH1 0x4 PUSH2 0x281B JUMP JUMPDEST PUSH2 0x14E4 JUMP JUMPDEST CALLVALUE DUP1 ISZERO PUSH2 0x670 JUMPI PUSH1 0x0 DUP1 REVERT JUMPDEST POP PUSH1 0xFC SLOAD PUSH4 0x1000000 SWAP1 DIV PUSH1 0xFF AND PUSH2 0x511 JUMP JUMPDEST CALLVALUE DUP1 ISZERO PUSH2 0x68F JUMPI PUSH1 0x0 DUP1 REVERT JUMPDEST POP PUSH2 0x6A3 PUSH2 0x69E CALLDATASIZE PUSH1 0x4 PUSH2 0x29D3 JUMP JUMPDEST PUSH2 0x150A JUMP JUMPDEST PUSH1 0x40 MLOAD PUSH1 0x1 PUSH1 0x1 PUSH1 0xA0 SHL SUB SWAP1 SWAP2 AND DUP2 MSTORE PUSH1 0x20 ADD PUSH2 0x42A JUMP JUMPDEST CALLVALUE DUP1 ISZERO PUSH2 0x6C7 JUMPI PUSH1 0x0 DUP1 REVERT JUMPDEST POP PUSH2 0x103 SLOAD PUSH1 0x1 PUSH1 0x1 PUSH1 0xA0 SHL SUB AND PUSH2 0x6A3 JUMP JUMPDEST CALLVALUE DUP1 ISZERO PUSH2 0x6E6 JUMPI PUSH1 0x0 DUP1 REVERT JUMPDEST POP PUSH2 0x3BB PUSH2 0x6F5 CALLDATASIZE PUSH1 0x4 PUSH2 0x2765 JUMP JUMPDEST PUSH2 0x1534 JUMP JUMPDEST CALLVALUE DUP1 ISZERO PUSH2 0x706 JUMPI PUSH1 0x0 DUP1 REVERT JUMPDEST POP PUSH2 0x3BB PUSH2 0x1561 JUMP JUMPDEST CALLVALUE DUP1 ISZERO PUSH2 0x71B JUMPI PUSH1 0x0 DUP1 REVERT JUMPDEST POP PUSH2 0x44E PUSH2 0x72A CALLDATASIZE PUSH1 0x4 PUSH2 0x26E8 JUMP JUMPDEST PUSH1 0x1 PUSH1 0x1 PUSH1 0xA0 SHL SUB AND PUSH1 0x0 SWAP1 DUP2 MSTORE PUSH2 0x107 PUSH1 0x20 MSTORE PUSH1 0x40 SWAP1 KECCAK256 PUSH1 0x3 ADD SLOAD PUSH1 0x1 PUSH1 0xB0 SHL SWAP1 DIV PUSH1 0xFF AND SWAP1 JUMP JUMPDEST CALLVALUE DUP1 ISZERO PUSH2 0x75F JUMPI PUSH1 0x0 DUP1 REVERT JUMPDEST POP PUSH2 0x3BB PUSH2 0x1573 JUMP JUMPDEST CALLVALUE DUP1 ISZERO PUSH2 0x774 JUMPI PUSH1 0x0 DUP1 REVERT JUMPDEST POP PUSH2 0x3BB PUSH2 0x177E JUMP JUMPDEST CALLVALUE DUP1 ISZERO PUSH2 0x789 JUMPI PUSH1 0x0 DUP1 REVERT JUMPDEST POP PUSH2 0x3BB PUSH2 0x798 CALLDATASIZE PUSH1 0x4 PUSH2 0x2765 JUMP JUMPDEST PUSH2 0x178E JUMP JUMPDEST CALLVALUE DUP1 ISZERO PUSH2 0x7A9 JUMPI PUSH1 0x0 DUP1 REVERT JUMPDEST POP PUSH1 0x65 SLOAD PUSH1 0x1 PUSH1 0x1 PUSH1 0xA0 SHL SUB AND PUSH2 0x6A3 JUMP JUMPDEST CALLVALUE DUP1 ISZERO PUSH2 0x7C7 JUMPI PUSH1 0x0 DUP1 REVERT JUMPDEST POP PUSH2 0x104 SLOAD PUSH1 0x1 PUSH1 0x1 PUSH1 0xA0 SHL SUB AND PUSH2 0x6A3 JUMP JUMPDEST CALLVALUE DUP1 ISZERO PUSH2 0x7E6 JUMPI PUSH1 0x0 DUP1 REVERT JUMPDEST POP PUSH2 0x7EF PUSH2 0x17BC JUMP JUMPDEST PUSH1 0x40 MLOAD PUSH2 0x42A SWAP2 SWAP1 PUSH2 0x29EC JUMP JUMPDEST CALLVALUE DUP1 ISZERO PUSH2 0x808 JUMPI PUSH1 0x0 DUP1 REVERT JUMPDEST POP PUSH2 0x3BB PUSH2 0x817 CALLDATASIZE PUSH1 0x4 PUSH2 0x281B JUMP JUMPDEST PUSH2 0x183C JUMP JUMPDEST CALLVALUE DUP1 ISZERO PUSH2 0x828 JUMPI PUSH1 0x0 DUP1 REVERT JUMPDEST POP PUSH2 0x3BB PUSH2 0x837 CALLDATASIZE PUSH1 0x4 PUSH2 0x2765 JUMP JUMPDEST PUSH2 0x1862 JUMP JUMPDEST CALLVALUE DUP1 ISZERO PUSH2 0x848 JUMPI PUSH1 0x0 DUP1 REVERT JUMPDEST POP PUSH1 0xFC SLOAD PUSH1 0x1 PUSH1 0x70 SHL SWAP1 DIV PUSH1 0xFF AND PUSH2 0x44E JUMP JUMPDEST CALLVALUE DUP1 ISZERO PUSH2 0x867 JUMPI PUSH1 0x0 DUP1 REVERT JUMPDEST POP PUSH2 0x3BB PUSH2 0x876 CALLDATASIZE PUSH1 0x4 PUSH2 0x2A46 JUMP JUMPDEST PUSH2 0x188A JUMP JUMPDEST CALLVALUE DUP1 ISZERO PUSH2 0x887 JUMPI PUSH1 0x0 DUP1 REVERT JUMPDEST POP PUSH1 0xFC SLOAD PUSH5 0x100000000 SWAP1 DIV PUSH1 0xFF AND PUSH2 0x511 JUMP JUMPDEST CALLVALUE DUP1 ISZERO PUSH2 0x8A7 JUMPI PUSH1 0x0 DUP1 REVERT JUMPDEST POP PUSH2 0x3BB PUSH2 0x8B6 CALLDATASIZE PUSH1 0x4 PUSH2 0x2765 JUMP JUMPDEST PUSH2 0x18AA JUMP JUMPDEST CALLVALUE DUP1 ISZERO PUSH2 0x8C7 JUMPI PUSH1 0x0 DUP1 REVERT JUMPDEST POP PUSH2 0x3BB PUSH2 0x8D6 CALLDATASIZE PUSH1 0x4 PUSH2 0x2765 JUMP JUMPDEST PUSH2 0x18D0 JUMP JUMPDEST CALLVALUE DUP1 ISZERO PUSH2 0x8E7 JUMPI PUSH1 0x0 DUP1 REVERT JUMPDEST POP PUSH2 0x3BB PUSH2 0x8F6 CALLDATASIZE PUSH1 0x4 PUSH2 0x2765 JUMP JUMPDEST PUSH2 0x18FC JUMP JUMPDEST CALLVALUE DUP1 ISZERO PUSH2 0x907 JUMPI PUSH1 0x0 DUP1 REVERT JUMPDEST POP PUSH2 0x511 PUSH2 0x1928 JUMP JUMPDEST CALLVALUE DUP1 ISZERO PUSH2 0x91C JUMPI PUSH1 0x0 DUP1 REVERT JUMPDEST POP PUSH2 0x3BB PUSH2 0x92B CALLDATASIZE PUSH1 0x4 PUSH2 0x2765 JUMP JUMPDEST PUSH2 0x1978 JUMP JUMPDEST CALLVALUE DUP1 ISZERO PUSH2 0x93C JUMPI PUSH1 0x0 DUP1 REVERT JUMPDEST POP PUSH2 0x105 SLOAD PUSH1 0x1 PUSH1 0x1 PUSH1 0xA0 SHL SUB AND PUSH2 0x6A3 JUMP JUMPDEST CALLVALUE DUP1 ISZERO PUSH2 0x95B JUMPI PUSH1 0x0 DUP1 REVERT JUMPDEST POP PUSH2 0x3BB PUSH2 0x96A CALLDATASIZE PUSH1 0x4 PUSH2 0x281B JUMP JUMPDEST PUSH2 0x19A2 JUMP JUMPDEST CALLVALUE DUP1 ISZERO PUSH2 0x97B JUMPI PUSH1 0x0 DUP1 REVERT JUMPDEST POP PUSH2 0x3BB PUSH2 0x98A CALLDATASIZE PUSH1 0x4 PUSH2 0x2765 JUMP JUMPDEST PUSH2 0x19C8 JUMP JUMPDEST CALLVALUE DUP1 ISZERO PUSH2 0x99B JUMPI PUSH1 0x0 DUP1 REVERT JUMPDEST POP PUSH1 0xFC SLOAD PUSH6 0x10000000000 SWAP1 DIV PUSH1 0xFF AND PUSH2 0x511 JUMP JUMPDEST CALLVALUE DUP1 ISZERO PUSH2 0x9BC JUMPI PUSH1 0x0 DUP1 REVERT JUMPDEST POP PUSH2 0x3BB PUSH2 0x9CB CALLDATASIZE PUSH1 0x4 PUSH2 0x2A85 JUMP JUMPDEST PUSH2 0x19F6 JUMP JUMPDEST CALLVALUE DUP1 ISZERO PUSH2 0x9DC JUMPI PUSH1 0x0 DUP1 REVERT JUMPDEST POP PUSH1 0xFC SLOAD PUSH3 0x10000 SWAP1 DIV PUSH1 0xFF AND PUSH2 0x511 JUMP JUMPDEST CALLVALUE DUP1 ISZERO PUSH2 0x9FA JUMPI PUSH1 0x0 DUP1 REVERT JUMPDEST POP PUSH2 0x3BB PUSH2 0xA09 CALLDATASIZE PUSH1 0x4 PUSH2 0x2BCF JUMP JUMPDEST PUSH2 0x1BD2 JUMP JUMPDEST CALLVALUE DUP1 ISZERO PUSH2 0xA1A JUMPI PUSH1 0x0 DUP1 REVERT JUMPDEST POP PUSH1 0xFC SLOAD PUSH1 0x1 PUSH1 0x48 SHL SWAP1 DIV PUSH1 0xFF AND PUSH2 0x511 JUMP JUMPDEST CALLVALUE DUP1 ISZERO PUSH2 0xA39 JUMPI PUSH1 0x0 DUP1 REVERT JUMPDEST POP PUSH1 0xFC SLOAD PUSH1 0x1 PUSH1 0x78 SHL SWAP1 DIV PUSH1 0xFF AND PUSH2 0x44E JUMP JUMPDEST CALLVALUE DUP1 ISZERO PUSH2 0xA58 JUMPI PUSH1 0x0 DUP1 REVERT JUMPDEST POP PUSH2 0x3BB PUSH2 0xA67 CALLDATASIZE PUSH1 0x4 PUSH2 0x26E8 JUMP JUMPDEST PUSH2 0x1BED JUMP JUMPDEST CALLVALUE DUP1 ISZERO PUSH2 0xA78 JUMPI PUSH1 0x0 DUP1 REVERT JUMPDEST POP PUSH1 0xFC SLOAD PUSH7 0x1000000000000 SWAP1 DIV PUSH1 0xFF AND PUSH2 0x511 JUMP JUMPDEST CALLVALUE DUP1 ISZERO PUSH2 0xA9A JUMPI PUSH1 0x0 DUP1 REVERT JUMPDEST POP PUSH2 0xAAE PUSH2 0xAA9 CALLDATASIZE PUSH1 0x4 PUSH2 0x26E8 JUMP JUMPDEST PUSH2 0x1CB5 JUMP JUMPDEST PUSH1 0x40 MLOAD PUSH2 0x42A SWAP2 SWAP1 PUSH2 0x2C67 JUMP JUMPDEST CALLVALUE DUP1 ISZERO PUSH2 0xAC7 JUMPI PUSH1 0x0 DUP1 REVERT JUMPDEST POP PUSH1 0xFC SLOAD PUSH1 0x40 MLOAD PUSH2 0xFFFF SWAP1 SWAP2 AND DUP2 MSTORE PUSH1 0x20 ADD PUSH2 0x42A JUMP JUMPDEST CALLVALUE DUP1 ISZERO PUSH2 0xAEA JUMPI PUSH1 0x0 DUP1 REVERT JUMPDEST POP PUSH2 0x3BB PUSH2 0xAF9 CALLDATASIZE PUSH1 0x4 PUSH2 0x281B JUMP JUMPDEST PUSH2 0x1E89 JUMP JUMPDEST CALLVALUE DUP1 ISZERO PUSH2 0xB0A JUMPI PUSH1 0x0 DUP1 REVERT JUMPDEST POP PUSH2 0x3BB PUSH2 0xB19 CALLDATASIZE PUSH1 0x4 PUSH2 0x26E8 JUMP JUMPDEST PUSH2 0x1EAF JUMP JUMPDEST CALLVALUE DUP1 ISZERO PUSH2 0xB2A JUMPI PUSH1 0x0 DUP1 REVERT JUMPDEST POP PUSH2 0x3BB PUSH2 0xB39 CALLDATASIZE PUSH1 0x4 PUSH2 0x26E8 JUMP JUMPDEST PUSH2 0x1EDA JUMP JUMPDEST CALLVALUE DUP1 ISZERO PUSH2 0xB4A JUMPI PUSH1 0x0 DUP1 REVERT JUMPDEST POP PUSH2 0xB53 PUSH2 0x1F50 JUMP JUMPDEST PUSH1 0x40 MLOAD PUSH2 0x42A SWAP2 SWAP1 PUSH2 0x2CFF JUMP JUMPDEST PUSH2 0xB68 PUSH2 0x1FB1 JUMP JUMPDEST PUSH1 0x1 PUSH1 0x1 PUSH1 0xA0 SHL SUB DUP2 AND PUSH1 0x0 SWAP1 DUP2 MSTORE PUSH2 0x108 PUSH1 0x20 MSTORE PUSH1 0x40 SWAP1 KECCAK256 SLOAD PUSH1 0xFF AND DUP1 ISZERO PUSH2 0xD39 JUMPI PUSH1 0x1 PUSH1 0x1 PUSH1 0xA0 SHL SUB DUP3 AND PUSH1 0x0 SWAP1 DUP2 MSTORE PUSH2 0x108 PUSH1 0x20 SWAP1 DUP2 MSTORE PUSH1 0x40 DUP1 DUP4 KECCAK256 DUP1 SLOAD PUSH1 0xFF NOT AND SWAP1 SSTORE PUSH1 0xFE DUP1 SLOAD DUP3 MLOAD DUP2 DUP6 MUL DUP2 ADD DUP6 ADD SWAP1 SWAP4 MSTORE DUP1 DUP4 MSTORE SWAP2 SWAP3 SWAP1 SWAP2 SWAP1 DUP4 ADD DUP3 DUP3 DUP1 ISZERO PUSH2 0xC00 JUMPI PUSH1 0x20 MUL DUP3 ADD SWAP2 SWAP1 PUSH1 0x0 MSTORE PUSH1 0x20 PUSH1 0x0 KECCAK256 SWAP1 JUMPDEST DUP2 SLOAD PUSH1 0x1 PUSH1 0x1 PUSH1 0xA0 SHL SUB AND DUP2 MSTORE PUSH1 0x1 SWAP1 SWAP2 ADD SWAP1 PUSH1 0x20 ADD DUP1 DUP4 GT PUSH2 0xBE2 JUMPI JUMPDEST POP POP POP POP POP SWAP1 POP PUSH1 0x0 JUMPDEST DUP2 MLOAD DUP2 LT ISZERO PUSH2 0xD36 JUMPI DUP4 PUSH1 0x1 PUSH1 0x1 PUSH1 0xA0 SHL SUB AND DUP3 DUP3 DUP2 MLOAD DUP2 LT PUSH2 0xC2F JUMPI PUSH2 0xC2F PUSH2 0x2D40 JUMP JUMPDEST PUSH1 0x20 MUL PUSH1 0x20 ADD ADD MLOAD PUSH1 0x1 PUSH1 0x1 PUSH1 0xA0 SHL SUB AND SUB PUSH2 0xD24 JUMPI DUP2 PUSH1 0x1 DUP4 MLOAD PUSH2 0xC54 SWAP2 SWAP1 PUSH2 0x2D6C JUMP JUMPDEST DUP2 MLOAD DUP2 LT PUSH2 0xC64 JUMPI PUSH2 0xC64 PUSH2 0x2D40 JUMP JUMPDEST PUSH1 0x20 MUL PUSH1 0x20 ADD ADD MLOAD PUSH1 0xFE DUP3 DUP2 SLOAD DUP2 LT PUSH2 0xC7F JUMPI PUSH2 0xC7F PUSH2 0x2D40 JUMP JUMPDEST SWAP1 PUSH1 0x0 MSTORE PUSH1 0x20 PUSH1 0x0 KECCAK256 ADD PUSH1 0x0 PUSH2 0x100 EXP DUP2 SLOAD DUP2 PUSH1 0x1 PUSH1 0x1 PUSH1 0xA0 SHL SUB MUL NOT AND SWAP1 DUP4 PUSH1 0x1 PUSH1 0x1 PUSH1 0xA0 SHL SUB AND MUL OR SWAP1 SSTORE POP PUSH1 0xFE DUP1 SLOAD DUP1 PUSH2 0xCBE JUMPI PUSH2 0xCBE PUSH2 0x2D7F JUMP JUMPDEST PUSH1 0x0 DUP3 DUP2 MSTORE PUSH1 0x20 SWAP1 DUP2 SWAP1 KECCAK256 PUSH1 0x0 NOT SWAP1 DUP4 ADD DUP2 ADD DUP1 SLOAD PUSH1 0x1 PUSH1 0x1 PUSH1 0xA0 SHL SUB NOT AND SWAP1 SSTORE SWAP1 SWAP2 ADD SWAP1 SWAP2 SSTORE PUSH1 0x40 MLOAD PUSH1 0x1 PUSH1 0x1 PUSH1 0xA0 SHL SUB DUP7 AND DUP2 MSTORE PUSH32 0x337EEB0192A31DFC3C61AFF0BE47A571A126A9E3F1CAAEE4AF8C29BABBB477E9 SWAP2 ADD PUSH1 0x40 MLOAD DUP1 SWAP2 SUB SWAP1 LOG1 PUSH2 0xD36 JUMP JUMPDEST DUP1 PUSH2 0xD2E DUP2 PUSH2 0x2D95 JUMP JUMPDEST SWAP2 POP POP PUSH2 0xC0A JUMP JUMPDEST POP POP JUMPDEST POP POP JUMP JUMPDEST PUSH2 0xD45 PUSH2 0x1FB1 JUMP JUMPDEST PUSH1 0x40 MLOAD DUP1 PUSH1 0xE0 ADD PUSH1 0x40 MSTORE DUP1 DUP5 PUSH1 0x1 PUSH1 0x1 PUSH1 0xA0 SHL SUB AND DUP2 MSTORE PUSH1 0x20 ADD DUP5 PUSH1 0x1 PUSH1 0x1 PUSH1 0xA0 SHL SUB AND PUSH4 0x6FDDE03 PUSH1 0x40 MLOAD DUP2 PUSH4 0xFFFFFFFF AND PUSH1 0xE0 SHL DUP2 MSTORE PUSH1 0x4 ADD PUSH1 0x0 PUSH1 0x40 MLOAD DUP1 DUP4 SUB DUP2 DUP7 GAS STATICCALL ISZERO DUP1 ISZERO PUSH2 0xD9D JUMPI RETURNDATASIZE PUSH1 0x0 DUP1 RETURNDATACOPY RETURNDATASIZE PUSH1 0x0 REVERT JUMPDEST POP POP POP POP PUSH1 0x40 MLOAD RETURNDATASIZE PUSH1 0x0 DUP3 RETURNDATACOPY PUSH1 0x1F RETURNDATASIZE SWAP1 DUP2 ADD PUSH1 0x1F NOT AND DUP3 ADD PUSH1 0x40 MSTORE PUSH2 0xDC5 SWAP2 SWAP1 DUP2 ADD SWAP1 PUSH2 0x2DAE JUMP JUMPDEST DUP2 MSTORE PUSH1 0x20 ADD DUP5 PUSH1 0x1 PUSH1 0x1 PUSH1 0xA0 SHL SUB AND PUSH4 0x95D89B41 PUSH1 0x40 MLOAD DUP2 PUSH4 0xFFFFFFFF AND PUSH1 0xE0 SHL DUP2 MSTORE PUSH1 0x4 ADD PUSH1 0x0 PUSH1 0x40 MLOAD DUP1 DUP4 SUB DUP2 DUP7 GAS STATICCALL ISZERO DUP1 ISZERO PUSH2 0xE08 JUMPI RETURNDATASIZE PUSH1 0x0 DUP1 RETURNDATACOPY RETURNDATASIZE PUSH1 0x0 REVERT JUMPDEST POP POP POP POP PUSH1 0x40 MLOAD RETURNDATASIZE PUSH1 0x0 DUP3 RETURNDATACOPY PUSH1 0x1F RETURNDATASIZE SWAP1 DUP2 ADD PUSH1 0x1F NOT AND DUP3 ADD PUSH1 0x40 MSTORE PUSH2 0xE30 SWAP2 SWAP1 DUP2 ADD SWAP1 PUSH2 0x2DAE JUMP JUMPDEST DUP2 MSTORE PUSH1 0x20 ADD DUP5 PUSH1 0x1 PUSH1 0x1 PUSH1 0xA0 SHL SUB AND PUSH4 0x313CE567 PUSH1 0x40 MLOAD DUP2 PUSH4 0xFFFFFFFF AND PUSH1 0xE0 SHL DUP2 MSTORE PUSH1 0x4 ADD PUSH1 0x20 PUSH1 0x40 MLOAD DUP1 DUP4 SUB DUP2 DUP7 GAS STATICCALL ISZERO DUP1 ISZERO PUSH2 0xE73 JUMPI RETURNDATASIZE PUSH1 0x0 DUP1 RETURNDATACOPY RETURNDATASIZE PUSH1 0x0 REVERT JUMPDEST POP POP POP POP PUSH1 0x40 MLOAD RETURNDATASIZE PUSH1 0x1F NOT PUSH1 0x1F DUP3 ADD AND DUP3 ADD DUP1 PUSH1 0x40 MSTORE POP DUP2 ADD SWAP1 PUSH2 0xE97 SWAP2 SWAP1 PUSH2 0x2E25 JUMP JUMPDEST PUSH1 0xFF AND DUP2 MSTORE DUP4 ISZERO ISZERO PUSH1 0x20 DUP1 DUP4 ADD SWAP2 SWAP1 SWAP2 MSTORE PUSH1 0x1 PUSH1 0x1 PUSH1 0xA0 SHL SUB DUP5 DUP2 AND PUSH1 0x40 DUP1 DUP6 ADD SWAP2 SWAP1 SWAP2 MSTORE PUSH1 0x1 PUSH1 0x60 SWAP1 SWAP5 ADD DUP5 SWAP1 MSTORE DUP8 DUP3 AND PUSH1 0x0 SWAP1 DUP2 MSTORE PUSH2 0x107 DUP5 MSTORE KECCAK256 DUP5 MLOAD DUP2 SLOAD PUSH1 0x1 PUSH1 0x1 PUSH1 0xA0 SHL SUB NOT AND SWAP3 AND SWAP2 SWAP1 SWAP2 OR DUP2 SSTORE SWAP1 DUP4 ADD MLOAD SWAP1 SWAP2 DUP3 ADD SWAP1 PUSH2 0xEFD SWAP1 DUP3 PUSH2 0x2ECA JUMP JUMPDEST POP PUSH1 0x40 DUP3 ADD MLOAD PUSH1 0x2 DUP3 ADD SWAP1 PUSH2 0xF12 SWAP1 DUP3 PUSH2 0x2ECA JUMP JUMPDEST POP PUSH1 0x60 DUP3 ADD MLOAD PUSH1 0x3 SWAP1 SWAP2 ADD DUP1 SLOAD PUSH1 0x80 DUP5 ADD MLOAD PUSH1 0xA0 DUP6 ADD MLOAD PUSH1 0xC0 SWAP1 SWAP6 ADD MLOAD ISZERO ISZERO PUSH1 0x1 PUSH1 0xB0 SHL MUL PUSH1 0xFF PUSH1 0xB0 SHL NOT PUSH1 0x1 PUSH1 0x1 PUSH1 0xA0 SHL SUB SWAP7 DUP8 AND PUSH3 0x10000 MUL AND PUSH3 0x10000 PUSH1 0x1 PUSH1 0xB8 SHL SUB NOT SWAP3 ISZERO ISZERO PUSH2 0x100 MUL PUSH2 0xFFFF NOT SWAP1 SWAP5 AND PUSH1 0xFF SWAP1 SWAP7 AND SWAP6 SWAP1 SWAP6 OR SWAP3 SWAP1 SWAP3 OR AND SWAP3 SWAP1 SWAP3 OR SWAP2 SWAP1 SWAP2 OR SWAP1 SSTORE PUSH1 0xFD DUP1 SLOAD PUSH1 0x1 DUP2 ADD DUP3 SSTORE PUSH1 0x0 SWAP2 SWAP1 SWAP2 MSTORE PUSH32 0x9346AC6DD7DE6B96975FEC380D4D994C4C12E6A8897544F22915316CC6CCA280 ADD DUP1 SLOAD SWAP5 SWAP1 SWAP2 AND PUSH1 0x1 PUSH1 0x1 PUSH1 0xA0 SHL SUB NOT SWAP1 SWAP5 AND SWAP4 SWAP1 SWAP4 OR SWAP1 SWAP3 SSTORE POP POP JUMP JUMPDEST PUSH2 0xFD6 PUSH2 0x1FB1 JUMP JUMPDEST PUSH2 0x103 DUP1 SLOAD PUSH1 0x1 PUSH1 0x1 PUSH1 0xA0 SHL SUB NOT AND PUSH1 0x1 PUSH1 0x1 PUSH1 0xA0 SHL SUB SWAP3 SWAP1 SWAP3 AND SWAP2 SWAP1 SWAP2 OR SWAP1 SSTORE JUMP JUMPDEST PUSH2 0x1027 PUSH1 0x40 MLOAD DUP1 PUSH1 0x80 ADD PUSH1 0x40 MSTORE DUP1 PUSH1 0x0 PUSH1 0xFF AND DUP2 MSTORE PUSH1 0x20 ADD PUSH1 0x60 DUP2 MSTORE PUSH1 0x20 ADD PUSH1 0x0 DUP2 MSTORE PUSH1 0x20 ADD PUSH1 0x0 DUP2 MSTORE POP SWAP1 JUMP JUMPDEST PUSH1 0xFF DUP1 DUP4 AND PUSH1 0x0 SWAP1 DUP2 MSTORE PUSH2 0x106 PUSH1 0x20 SWAP1 DUP2 MSTORE PUSH1 0x40 SWAP2 DUP3 SWAP1 KECCAK256 DUP3 MLOAD PUSH1 0x80 DUP2 ADD SWAP1 SWAP4 MSTORE DUP1 SLOAD SWAP1 SWAP4 AND DUP3 MSTORE PUSH1 0x1 DUP4 ADD DUP1 SLOAD SWAP3 SWAP4 SWAP3 SWAP2 DUP5 ADD SWAP2 PUSH2 0x1065 SWAP1 PUSH2 0x2E42 JUMP JUMPDEST DUP1 PUSH1 0x1F ADD PUSH1 0x20 DUP1 SWAP2 DIV MUL PUSH1 0x20 ADD PUSH1 0x40 MLOAD SWAP1 DUP2 ADD PUSH1 0x40 MSTORE DUP1 SWAP3 SWAP2 SWAP1 DUP2 DUP2 MSTORE PUSH1 0x20 ADD DUP3 DUP1 SLOAD PUSH2 0x1091 SWAP1 PUSH2 0x2E42 JUMP JUMPDEST DUP1 ISZERO PUSH2 0x10DE JUMPI DUP1 PUSH1 0x1F LT PUSH2 0x10B3 JUMPI PUSH2 0x100 DUP1 DUP4 SLOAD DIV MUL DUP4 MSTORE SWAP2 PUSH1 0x20 ADD SWAP2 PUSH2 0x10DE JUMP JUMPDEST DUP3 ADD SWAP2 SWAP1 PUSH1 0x0 MSTORE PUSH1 0x20 PUSH1 0x0 KECCAK256 SWAP1 JUMPDEST DUP2 SLOAD DUP2 MSTORE SWAP1 PUSH1 0x1 ADD SWAP1 PUSH1 0x20 ADD DUP1 DUP4 GT PUSH2 0x10C1 JUMPI DUP3 SWAP1 SUB PUSH1 0x1F AND DUP3 ADD SWAP2 JUMPDEST POP POP POP POP POP DUP2 MSTORE PUSH1 0x20 ADD PUSH1 0x2 DUP3 ADD SLOAD DUP2 MSTORE PUSH1 0x20 ADD PUSH1 0x3 DUP3 ADD SLOAD DUP2 MSTORE POP POP SWAP1 POP SWAP2 SWAP1 POP JUMP JUMPDEST PUSH2 0x110A PUSH2 0x1FB1 JUMP JUMPDEST PUSH2 0x105 DUP1 SLOAD PUSH1 0x1 PUSH1 0x1 PUSH1 0xA0 SHL SUB NOT AND PUSH1 0x1 PUSH1 0x1 PUSH1 0xA0 SHL SUB SWAP3 SWAP1 SWAP3 AND SWAP2 SWAP1 SWAP2 OR SWAP1 SSTORE JUMP JUMPDEST PUSH1 0x1 PUSH1 0x1 PUSH1 0xA0 SHL SUB PUSH32 0x0 AND ADDRESS SUB PUSH2 0x117E JUMPI PUSH1 0x40 MLOAD PUSH3 0x461BCD PUSH1 0xE5 SHL DUP2 MSTORE PUSH1 0x4 ADD PUSH2 0x1175 SWAP1 PUSH2 0x2F8A JUMP JUMPDEST PUSH1 0x40 MLOAD DUP1 SWAP2 SUB SWAP1 REVERT JUMPDEST PUSH32 0x0 PUSH1 0x1 PUSH1 0x1 PUSH1 0xA0 SHL SUB AND PUSH2 0x11C7 PUSH1 0x0 DUP1 MLOAD PUSH1 0x20 PUSH2 0x30EC DUP4 CODECOPY DUP2 MLOAD SWAP2 MSTORE SLOAD PUSH1 0x1 PUSH1 0x1 PUSH1 0xA0 SHL SUB AND SWAP1 JUMP JUMPDEST PUSH1 0x1 PUSH1 0x1 PUSH1 0xA0 SHL SUB AND EQ PUSH2 0x11ED JUMPI PUSH1 0x40 MLOAD PUSH3 0x461BCD PUSH1 0xE5 SHL DUP2 MSTORE PUSH1 0x4 ADD PUSH2 0x1175 SWAP1 PUSH2 0x2FD6 JUMP JUMPDEST PUSH2 0x11F6 DUP2 PUSH2 0x200B JUMP JUMPDEST PUSH1 0x40 DUP1 MLOAD PUSH1 0x0 DUP1 DUP3 MSTORE PUSH1 0x20 DUP3 ADD SWAP1 SWAP3 MSTORE PUSH2 0x1212 SWAP2 DUP4 SWAP2 SWAP1 PUSH2 0x2013 JUMP JUMPDEST POP JUMP JUMPDEST PUSH2 0x121D PUSH2 0x1FB1 JUMP JUMPDEST PUSH1 0xFC DUP1 SLOAD SWAP2 ISZERO ISZERO PUSH1 0x1 PUSH1 0x68 SHL MUL PUSH1 0xFF PUSH1 0x68 SHL NOT SWAP1 SWAP3 AND SWAP2 SWAP1 SWAP2 OR SWAP1 SSTORE JUMP JUMPDEST PUSH2 0x1243 PUSH2 0x1FB1 JUMP JUMPDEST PUSH2 0x124B PUSH2 0x217E JUMP JUMPDEST JUMP JUMPDEST PUSH2 0x1255 PUSH2 0x1FB1 JUMP JUMPDEST PUSH1 0xFC DUP1 SLOAD SWAP2 ISZERO ISZERO PUSH1 0x1 PUSH1 0x78 SHL MUL PUSH1 0xFF PUSH1 0x78 SHL NOT SWAP1 SWAP3 AND SWAP2 SWAP1 SWAP2 OR SWAP1 SSTORE JUMP JUMPDEST PUSH1 0x1 PUSH1 0x1 PUSH1 0xA0 SHL SUB PUSH32 0x0 AND ADDRESS SUB PUSH2 0x12BB JUMPI PUSH1 0x40 MLOAD PUSH3 0x461BCD PUSH1 0xE5 SHL DUP2 MSTORE PUSH1 0x4 ADD PUSH2 0x1175 SWAP1 PUSH2 0x2F8A JUMP JUMPDEST PUSH32 0x0 PUSH1 0x1 PUSH1 0x1 PUSH1 0xA0 SHL SUB AND PUSH2 0x1304 PUSH1 0x0 DUP1 MLOAD PUSH1 0x20 PUSH2 0x30EC DUP4 CODECOPY DUP2 MLOAD SWAP2 MSTORE SLOAD PUSH1 0x1 PUSH1 0x1 PUSH1 0xA0 SHL SUB AND SWAP1 JUMP JUMPDEST PUSH1 0x1 PUSH1 0x1 PUSH1 0xA0 SHL SUB AND EQ PUSH2 0x132A JUMPI PUSH1 0x40 MLOAD PUSH3 0x461BCD PUSH1 0xE5 SHL DUP2 MSTORE PUSH1 0x4 ADD PUSH2 0x1175 SWAP1 PUSH2 0x2FD6 JUMP JUMPDEST PUSH2 0x1333 DUP3 PUSH2 0x200B JUMP JUMPDEST PUSH2 0xD39 DUP3 DUP3 PUSH1 0x1 PUSH2 0x2013 JUMP JUMPDEST PUSH1 0x0 ADDRESS PUSH1 0x1 PUSH1 0x1 PUSH1 0xA0 SHL SUB PUSH32 0x0 AND EQ PUSH2 0x13DF JUMPI PUSH1 0x40 MLOAD PUSH3 0x461BCD PUSH1 0xE5 SHL DUP2 MSTORE PUSH1 0x20 PUSH1 0x4 DUP3 ADD MSTORE PUSH1 0x38 PUSH1 0x24 DUP3 ADD MSTORE PUSH32 0x555550535570677261646561626C653A206D757374206E6F742062652063616C PUSH1 0x44 DUP3 ADD MSTORE PUSH32 0x6C6564207468726F7567682064656C656761746563616C6C0000000000000000 PUSH1 0x64 DUP3 ADD MSTORE PUSH1 0x84 ADD PUSH2 0x1175 JUMP JUMPDEST POP PUSH1 0x0 DUP1 MLOAD PUSH1 0x20 PUSH2 0x30EC DUP4 CODECOPY DUP2 MLOAD SWAP2 MSTORE SWAP1 JUMP JUMPDEST PUSH2 0x13FA PUSH2 0x1FB1 JUMP JUMPDEST PUSH1 0x0 JUMPDEST PUSH1 0xFF DUP2 AND DUP3 GT ISZERO PUSH2 0x14DF JUMPI PUSH1 0x0 PUSH2 0x107 PUSH1 0x0 DUP6 DUP6 DUP6 PUSH1 0xFF AND DUP2 DUP2 LT PUSH2 0x1424 JUMPI PUSH2 0x1424 PUSH2 0x2D40 JUMP JUMPDEST SWAP1 POP PUSH1 0x20 MUL ADD PUSH1 0x20 DUP2 ADD SWAP1 PUSH2 0x1439 SWAP2 SWAP1 PUSH2 0x26E8 JUMP JUMPDEST PUSH1 0x1 PUSH1 0x1 PUSH1 0xA0 SHL SUB AND DUP2 MSTORE PUSH1 0x20 DUP2 ADD SWAP2 SWAP1 SWAP2 MSTORE PUSH1 0x40 ADD PUSH1 0x0 KECCAK256 PUSH1 0x3 ADD DUP1 SLOAD SWAP2 ISZERO ISZERO PUSH1 0x1 PUSH1 0xB0 SHL MUL PUSH1 0xFF PUSH1 0xB0 SHL NOT SWAP1 SWAP3 AND SWAP2 SWAP1 SWAP2 OR SWAP1 SSTORE PUSH1 0xFD DUP4 DUP4 PUSH1 0xFF DUP5 AND DUP2 DUP2 LT PUSH2 0x1486 JUMPI PUSH2 0x1486 PUSH2 0x2D40 JUMP JUMPDEST SWAP1 POP PUSH1 0x20 MUL ADD PUSH1 0x20 DUP2 ADD SWAP1 PUSH2 0x149B SWAP2 SWAP1 PUSH2 0x26E8 JUMP JUMPDEST DUP2 SLOAD PUSH1 0x1 DUP2 ADD DUP4 SSTORE PUSH1 0x0 SWAP3 DUP4 MSTORE PUSH1 0x20 SWAP1 SWAP3 KECCAK256 SWAP1 SWAP2 ADD DUP1 SLOAD PUSH1 0x1 PUSH1 0x1 PUSH1 0xA0 SHL SUB NOT AND PUSH1 0x1 PUSH1 0x1 PUSH1 0xA0 SHL SUB SWAP1 SWAP3 AND SWAP2 SWAP1 SWAP2 OR SWAP1 SSTORE DUP1 PUSH2 0x14D7 DUP2 PUSH2 0x3022 JUMP JUMPDEST SWAP2 POP POP PUSH2 0x13FD JUMP JUMPDEST POP POP POP JUMP JUMPDEST PUSH2 0x14EC PUSH2 0x1FB1 JUMP JUMPDEST PUSH1 0xFC DUP1 SLOAD SWAP2 ISZERO ISZERO PUSH1 0x1 PUSH1 0x70 SHL MUL PUSH1 0xFF PUSH1 0x70 SHL NOT SWAP1 SWAP3 AND SWAP2 SWAP1 SWAP2 OR SWAP1 SSTORE JUMP JUMPDEST PUSH1 0xFD DUP2 DUP2 SLOAD DUP2 LT PUSH2 0x151A JUMPI PUSH1 0x0 DUP1 REVERT JUMPDEST PUSH1 0x0 SWAP2 DUP3 MSTORE PUSH1 0x20 SWAP1 SWAP2 KECCAK256 ADD SLOAD PUSH1 0x1 PUSH1 0x1 PUSH1 0xA0 SHL SUB AND SWAP1 POP DUP2 JUMP JUMPDEST PUSH2 0x153C PUSH2 0x1FB1 JUMP JUMPDEST PUSH1 0xFC DUP1 SLOAD PUSH1 0xFF SWAP1 SWAP3 AND PUSH1 0x1 PUSH1 0x40 SHL MUL PUSH9 0xFF0000000000000000 NOT SWAP1 SWAP3 AND SWAP2 SWAP1 SWAP2 OR SWAP1 SSTORE JUMP JUMPDEST PUSH2 0x1569 PUSH2 0x1FB1 JUMP JUMPDEST PUSH2 0x124B PUSH1 0x0 PUSH2 0x21D0 JUMP JUMPDEST PUSH1 0x0 SLOAD PUSH2 0x100 SWAP1 DIV PUSH1 0xFF AND ISZERO DUP1 DUP1 ISZERO PUSH2 0x1593 JUMPI POP PUSH1 0x0 SLOAD PUSH1 0x1 PUSH1 0xFF SWAP1 SWAP2 AND LT JUMPDEST DUP1 PUSH2 0x15AD JUMPI POP ADDRESS EXTCODESIZE ISZERO DUP1 ISZERO PUSH2 0x15AD JUMPI POP PUSH1 0x0 SLOAD PUSH1 0xFF AND PUSH1 0x1 EQ JUMPDEST PUSH2 0x1610 JUMPI PUSH1 0x40 MLOAD PUSH3 0x461BCD PUSH1 0xE5 SHL DUP2 MSTORE PUSH1 0x20 PUSH1 0x4 DUP3 ADD MSTORE PUSH1 0x2E PUSH1 0x24 DUP3 ADD MSTORE PUSH32 0x496E697469616C697A61626C653A20636F6E747261637420697320616C726561 PUSH1 0x44 DUP3 ADD MSTORE PUSH14 0x191E481A5B9A5D1A585B1A5E9959 PUSH1 0x92 SHL PUSH1 0x64 DUP3 ADD MSTORE PUSH1 0x84 ADD PUSH2 0x1175 JUMP JUMPDEST PUSH1 0x0 DUP1 SLOAD PUSH1 0xFF NOT AND PUSH1 0x1 OR SWAP1 SSTORE DUP1 ISZERO PUSH2 0x1633 JUMPI PUSH1 0x0 DUP1 SLOAD PUSH2 0xFF00 NOT AND PUSH2 0x100 OR SWAP1 SSTORE JUMPDEST PUSH1 0x40 DUP1 MLOAD PUSH2 0x140 DUP2 ADD DUP3 MSTORE PUSH2 0x1388 DUP2 MSTORE PUSH2 0x1F4 PUSH1 0x20 DUP3 ADD MSTORE PUSH2 0x190 SWAP2 DUP2 ADD SWAP2 SWAP1 SWAP2 MSTORE PUSH2 0x12C PUSH1 0x60 DUP3 ADD MSTORE PUSH1 0xC8 PUSH1 0x80 DUP3 ADD MSTORE PUSH1 0x64 PUSH1 0xA0 DUP3 ADD DUP2 SWAP1 MSTORE PUSH1 0xC0 DUP3 ADD MSTORE PUSH1 0x7D PUSH1 0xE0 DUP3 ADD DUP2 SWAP1 MSTORE PUSH2 0x100 DUP3 ADD MSTORE PUSH1 0x96 PUSH2 0x120 DUP3 ADD MSTORE PUSH2 0x1697 SWAP1 PUSH1 0xFB SWAP1 PUSH1 0xA PUSH2 0x2617 JUMP JUMPDEST POP PUSH1 0xFC DUP1 SLOAD PUSH2 0x103 DUP1 SLOAD PUSH1 0x1 PUSH1 0x1 PUSH1 0xA0 SHL SUB NOT SWAP1 DUP2 AND PUSH20 0x7F9FD63932BABC508FAD2F324EB534D09CFE86F0 OR SWAP1 SWAP2 SSTORE PUSH16 0x10101010101030302050A0A0A002710 PUSH16 0xFFFFFFFFFFFFFFFFFFFFFFFFFF00FFFF NOT SWAP1 SWAP3 AND SWAP2 SWAP1 SWAP2 OR SWAP1 SWAP2 SSTORE PUSH2 0x104 DUP1 SLOAD DUP3 AND PUSH20 0xEFB61C43C70B60563C1A2A835663C63ECC93F6BA OR SWAP1 SSTORE PUSH2 0x105 DUP1 SLOAD SWAP1 SWAP2 AND CALLER OR SWAP1 SSTORE PUSH2 0x1726 PUSH2 0x2222 JUMP JUMPDEST PUSH2 0x172E PUSH2 0x2251 JUMP JUMPDEST PUSH2 0x1736 PUSH2 0x2280 JUMP JUMPDEST DUP1 ISZERO PUSH2 0x1212 JUMPI PUSH1 0x0 DUP1 SLOAD PUSH2 0xFF00 NOT AND SWAP1 SSTORE PUSH1 0x40 MLOAD PUSH1 0x1 DUP2 MSTORE PUSH32 0x7F26B83FF96E1F2B6A682F133852F6798A09C465DA95921460CEFB3847402498 SWAP1 PUSH1 0x20 ADD PUSH1 0x40 MLOAD DUP1 SWAP2 SUB SWAP1 LOG1 POP JUMP JUMPDEST PUSH2 0x1786 PUSH2 0x1FB1 JUMP JUMPDEST PUSH2 0x124B PUSH2 0x22A7 JUMP JUMPDEST PUSH2 0x1796 PUSH2 0x1FB1 JUMP JUMPDEST PUSH1 0xFC DUP1 SLOAD PUSH1 0xFF SWAP1 SWAP3 AND PUSH7 0x1000000000000 MUL PUSH7 0xFF000000000000 NOT SWAP1 SWAP3 AND SWAP2 SWAP1 SWAP2 OR SWAP1 SSTORE JUMP JUMPDEST PUSH1 0x60 PUSH1 0xFB DUP1 SLOAD DUP1 PUSH1 0x20 MUL PUSH1 0x20 ADD PUSH1 0x40 MLOAD SWAP1 DUP2 ADD PUSH1 0x40 MSTORE DUP1 SWAP3 SWAP2 SWAP1 DUP2 DUP2 MSTORE PUSH1 0x20 ADD DUP3 DUP1 SLOAD DUP1 ISZERO PUSH2 0x1832 JUMPI PUSH1 0x20 MUL DUP3 ADD SWAP2 SWAP1 PUSH1 0x0 MSTORE PUSH1 0x20 PUSH1 0x0 KECCAK256 SWAP1 PUSH1 0x0 SWAP1 JUMPDEST DUP3 DUP3 SWAP1 SLOAD SWAP1 PUSH2 0x100 EXP SWAP1 DIV PUSH2 0xFFFF AND PUSH2 0xFFFF AND DUP2 MSTORE PUSH1 0x20 ADD SWAP1 PUSH1 0x2 ADD SWAP1 PUSH1 0x20 DUP3 PUSH1 0x1 ADD DIV SWAP3 DUP4 ADD SWAP3 PUSH1 0x1 SUB DUP3 MUL SWAP2 POP DUP1 DUP5 GT PUSH2 0x17F9 JUMPI SWAP1 POP JUMPDEST POP POP POP POP POP SWAP1 POP SWAP1 JUMP JUMPDEST PUSH2 0x1844 PUSH2 0x1FB1 JUMP JUMPDEST PUSH1 0xFC DUP1 SLOAD SWAP2 ISZERO ISZERO PUSH1 0x1 PUSH1 0x60 SHL MUL PUSH1 0xFF PUSH1 0x60 SHL NOT SWAP1 SWAP3 AND SWAP2 SWAP1 SWAP2 OR SWAP1 SSTORE JUMP JUMPDEST PUSH2 0x186A PUSH2 0x1FB1 JUMP JUMPDEST PUSH1 0xFC DUP1 SLOAD PUSH1 0xFF SWAP1 SWAP3 AND PUSH4 0x1000000 MUL PUSH4 0xFF000000 NOT SWAP1 SWAP3 AND SWAP2 SWAP1 SWAP2 OR SWAP1 SSTORE JUMP JUMPDEST PUSH2 0x1892 PUSH2 0x1FB1 JUMP JUMPDEST PUSH1 0xFC DUP1 SLOAD PUSH2 0xFFFF NOT AND PUSH2 0xFFFF SWAP3 SWAP1 SWAP3 AND SWAP2 SWAP1 SWAP2 OR SWAP1 SSTORE JUMP JUMPDEST PUSH2 0x18B2 PUSH2 0x1FB1 JUMP JUMPDEST PUSH1 0xFC DUP1 SLOAD PUSH1 0xFF SWAP1 SWAP3 AND PUSH3 0x10000 MUL PUSH3 0xFF0000 NOT SWAP1 SWAP3 AND SWAP2 SWAP1 SWAP2 OR SWAP1 SSTORE JUMP JUMPDEST PUSH2 0x18D8 PUSH2 0x1FB1 JUMP JUMPDEST PUSH1 0xFC DUP1 SLOAD PUSH1 0xFF SWAP1 SWAP3 AND PUSH1 0x1 PUSH1 0x38 SHL MUL PUSH8 0xFF00000000000000 NOT SWAP1 SWAP3 AND SWAP2 SWAP1 SWAP2 OR SWAP1 SSTORE JUMP JUMPDEST PUSH2 0x1904 PUSH2 0x1FB1 JUMP JUMPDEST PUSH1 0xFC DUP1 SLOAD PUSH1 0xFF SWAP1 SWAP3 AND PUSH6 0x10000000000 MUL PUSH6 0xFF0000000000 NOT SWAP1 SWAP3 AND SWAP2 SWAP1 SWAP2 OR SWAP1 SSTORE JUMP JUMPDEST PUSH1 0x0 DUP1 JUMPDEST PUSH1 0x14 DUP2 PUSH1 0xFF AND LT ISZERO PUSH2 0x1974 JUMPI PUSH1 0xFF DUP2 AND PUSH1 0x0 SWAP1 DUP2 MSTORE PUSH2 0x106 PUSH1 0x20 MSTORE PUSH1 0x40 SWAP1 KECCAK256 PUSH1 0x2 ADD SLOAD ISZERO PUSH2 0x1962 JUMPI DUP2 PUSH2 0x195E DUP2 PUSH2 0x3022 JUMP JUMPDEST SWAP3 POP POP JUMPDEST DUP1 PUSH2 0x196C DUP2 PUSH2 0x3022 JUMP JUMPDEST SWAP2 POP POP PUSH2 0x192C JUMP JUMPDEST POP SWAP1 JUMP JUMPDEST PUSH2 0x1980 PUSH2 0x1FB1 JUMP JUMPDEST PUSH1 0xFC DUP1 SLOAD PUSH1 0xFF SWAP1 SWAP3 AND PUSH5 0x100000000 MUL PUSH5 0xFF00000000 NOT SWAP1 SWAP3 AND SWAP2 SWAP1 SWAP2 OR SWAP1 SSTORE JUMP JUMPDEST PUSH2 0x19AA PUSH2 0x1FB1 JUMP JUMPDEST PUSH1 0xFC DUP1 SLOAD SWAP2 ISZERO ISZERO PUSH1 0x1 PUSH1 0x58 SHL MUL PUSH1 0xFF PUSH1 0x58 SHL NOT SWAP1 SWAP3 AND SWAP2 SWAP1 SWAP2 OR SWAP1 SSTORE JUMP JUMPDEST PUSH2 0x19D0 PUSH2 0x1FB1 JUMP JUMPDEST PUSH1 0xFC DUP1 SLOAD PUSH1 0xFF SWAP1 SWAP3 AND PUSH1 0x1 PUSH1 0x48 SHL MUL PUSH10 0xFF000000000000000000 NOT SWAP1 SWAP3 AND SWAP2 SWAP1 SWAP2 OR SWAP1 SSTORE JUMP JUMPDEST PUSH2 0x19FE PUSH2 0x1FB1 JUMP JUMPDEST PUSH1 0x0 JUMPDEST DUP7 DUP2 LT ISZERO PUSH2 0x1BC8 JUMPI DUP8 DUP8 DUP3 DUP2 DUP2 LT PUSH2 0x1A1B JUMPI PUSH2 0x1A1B PUSH2 0x2D40 JUMP JUMPDEST SWAP1 POP PUSH1 0x20 MUL ADD PUSH1 0x20 DUP2 ADD SWAP1 PUSH2 0x1A30 SWAP2 SWAP1 PUSH2 0x2765 JUMP JUMPDEST PUSH2 0x106 PUSH1 0x0 DUP11 DUP11 DUP6 DUP2 DUP2 LT PUSH2 0x1A47 JUMPI PUSH2 0x1A47 PUSH2 0x2D40 JUMP JUMPDEST SWAP1 POP PUSH1 0x20 MUL ADD PUSH1 0x20 DUP2 ADD SWAP1 PUSH2 0x1A5C SWAP2 SWAP1 PUSH2 0x2765 JUMP JUMPDEST PUSH1 0xFF SWAP1 DUP2 AND DUP3 MSTORE PUSH1 0x20 DUP3 ADD SWAP3 SWAP1 SWAP3 MSTORE PUSH1 0x40 ADD PUSH1 0x0 KECCAK256 DUP1 SLOAD PUSH1 0xFF NOT AND SWAP3 SWAP1 SWAP2 AND SWAP2 SWAP1 SWAP2 OR SWAP1 SSTORE DUP6 MLOAD DUP7 SWAP1 DUP3 SWAP1 DUP2 LT PUSH2 0x1A95 JUMPI PUSH2 0x1A95 PUSH2 0x2D40 JUMP JUMPDEST PUSH1 0x20 MUL PUSH1 0x20 ADD ADD MLOAD PUSH2 0x106 PUSH1 0x0 DUP11 DUP11 DUP6 DUP2 DUP2 LT PUSH2 0x1AB4 JUMPI PUSH2 0x1AB4 PUSH2 0x2D40 JUMP JUMPDEST SWAP1 POP PUSH1 0x20 MUL ADD PUSH1 0x20 DUP2 ADD SWAP1 PUSH2 0x1AC9 SWAP2 SWAP1 PUSH2 0x2765 JUMP JUMPDEST PUSH1 0xFF AND DUP2 MSTORE PUSH1 0x20 DUP2 ADD SWAP2 SWAP1 SWAP2 MSTORE PUSH1 0x40 ADD PUSH1 0x0 KECCAK256 PUSH1 0x1 ADD SWAP1 PUSH2 0x1AEA SWAP1 DUP3 PUSH2 0x2ECA JUMP JUMPDEST POP DUP5 DUP5 DUP3 DUP2 DUP2 LT PUSH2 0x1AFD JUMPI PUSH2 0x1AFD PUSH2 0x2D40 JUMP JUMPDEST SWAP1 POP PUSH1 0x20 MUL ADD CALLDATALOAD PUSH8 0xDE0B6B3A7640000 PUSH2 0x1B17 SWAP2 SWAP1 PUSH2 0x3041 JUMP JUMPDEST PUSH2 0x106 PUSH1 0x0 DUP11 DUP11 DUP6 DUP2 DUP2 LT PUSH2 0x1B2E JUMPI PUSH2 0x1B2E PUSH2 0x2D40 JUMP JUMPDEST SWAP1 POP PUSH1 0x20 MUL ADD PUSH1 0x20 DUP2 ADD SWAP1 PUSH2 0x1B43 SWAP2 SWAP1 PUSH2 0x2765 JUMP JUMPDEST PUSH1 0xFF AND DUP2 MSTORE PUSH1 0x20 DUP2 ADD SWAP2 SWAP1 SWAP2 MSTORE PUSH1 0x40 ADD PUSH1 0x0 KECCAK256 PUSH1 0x2 ADD SSTORE DUP3 DUP3 DUP3 DUP2 DUP2 LT PUSH2 0x1B6C JUMPI PUSH2 0x1B6C PUSH2 0x2D40 JUMP JUMPDEST SWAP1 POP PUSH1 0x20 MUL ADD CALLDATALOAD PUSH2 0x106 PUSH1 0x0 DUP11 DUP11 DUP6 DUP2 DUP2 LT PUSH2 0x1B8A JUMPI PUSH2 0x1B8A PUSH2 0x2D40 JUMP JUMPDEST SWAP1 POP PUSH1 0x20 MUL ADD PUSH1 0x20 DUP2 ADD SWAP1 PUSH2 0x1B9F SWAP2 SWAP1 PUSH2 0x2765 JUMP JUMPDEST PUSH1 0xFF AND DUP2 MSTORE PUSH1 0x20 DUP2 ADD SWAP2 SWAP1 SWAP2 MSTORE PUSH1 0x40 ADD PUSH1 0x0 KECCAK256 PUSH1 0x3 ADD SSTORE DUP1 PUSH2 0x1BC0 DUP2 PUSH2 0x2D95 JUMP JUMPDEST SWAP2 POP POP PUSH2 0x1A01 JUMP JUMPDEST POP POP POP POP POP POP POP POP JUMP JUMPDEST PUSH2 0x1BDA PUSH2 0x1FB1 JUMP JUMPDEST DUP1 MLOAD PUSH2 0xD39 SWAP1 PUSH1 0xFB SWAP1 PUSH1 0x20 DUP5 ADD SWAP1 PUSH2 0x2617 JUMP JUMPDEST PUSH2 0x1BF5 PUSH2 0x1FB1 JUMP JUMPDEST PUSH1 0x1 PUSH1 0x1 PUSH1 0xA0 SHL SUB DUP2 AND PUSH1 0x0 SWAP1 DUP2 MSTORE PUSH2 0x108 PUSH1 0x20 MSTORE PUSH1 0x40 SWAP1 KECCAK256 SLOAD PUSH1 0xFF AND DUP1 PUSH2 0xD39 JUMPI PUSH1 0x1 PUSH1 0x1 PUSH1 0xA0 SHL SUB DUP3 AND PUSH1 0x0 DUP2 DUP2 MSTORE PUSH2 0x108 PUSH1 0x20 SWAP1 DUP2 MSTORE PUSH1 0x40 DUP1 DUP4 KECCAK256 DUP1 SLOAD PUSH1 0xFF NOT AND PUSH1 0x1 SWAP1 DUP2 OR SWAP1 SWAP2 SSTORE PUSH1 0xFE DUP1 SLOAD SWAP2 DUP3 ADD DUP2 SSTORE SWAP1 SWAP4 MSTORE PUSH32 0x54075DF80EC1AE6AC9100E1FD0EBF3246C17F5C933137AF392011F4C5F61513A SWAP1 SWAP3 ADD DUP1 SLOAD PUSH1 0x1 PUSH1 0x1 PUSH1 0xA0 SHL SUB NOT AND DUP5 OR SWAP1 SSTORE SWAP1 MLOAD SWAP2 DUP3 MSTORE PUSH32 0xE30F8CB0D8CBC7C0E95D5AAA3107CE401738CE4BC98A05DD081BB2A77A9CA749 SWAP2 ADD PUSH1 0x40 MLOAD DUP1 SWAP2 SUB SWAP1 LOG1 POP POP JUMP JUMPDEST PUSH1 0x40 DUP1 MLOAD PUSH1 0xE0 DUP1 DUP3 ADD DUP4 MSTORE PUSH1 0x0 DUP1 DUP4 MSTORE PUSH1 0x60 PUSH1 0x20 DUP1 DUP6 ADD DUP3 SWAP1 MSTORE DUP5 DUP7 ADD DUP3 SWAP1 MSTORE SWAP1 DUP5 ADD DUP3 SWAP1 MSTORE PUSH1 0x80 DUP5 ADD DUP3 SWAP1 MSTORE PUSH1 0xA0 DUP5 ADD DUP3 SWAP1 MSTORE PUSH1 0xC0 DUP5 ADD DUP3 SWAP1 MSTORE PUSH1 0x1 PUSH1 0x1 PUSH1 0xA0 SHL SUB DUP7 DUP2 AND DUP4 MSTORE PUSH2 0x107 DUP3 MSTORE SWAP2 DUP6 SWAP1 KECCAK256 DUP6 MLOAD SWAP4 DUP5 ADD SWAP1 SWAP6 MSTORE DUP5 SLOAD SWAP1 SWAP2 AND DUP3 MSTORE PUSH1 0x1 DUP5 ADD DUP1 SLOAD SWAP4 SWAP5 SWAP3 SWAP4 SWAP2 DUP5 ADD SWAP2 PUSH2 0x1D2C SWAP1 PUSH2 0x2E42 JUMP JUMPDEST DUP1 PUSH1 0x1F ADD PUSH1 0x20 DUP1 SWAP2 DIV MUL PUSH1 0x20 ADD PUSH1 0x40 MLOAD SWAP1 DUP2 ADD PUSH1 0x40 MSTORE DUP1 SWAP3 SWAP2 SWAP1 DUP2 DUP2 MSTORE PUSH1 0x20 ADD DUP3 DUP1 SLOAD PUSH2 0x1D58 SWAP1 PUSH2 0x2E42 JUMP JUMPDEST DUP1 ISZERO PUSH2 0x1DA5 JUMPI DUP1 PUSH1 0x1F LT PUSH2 0x1D7A JUMPI PUSH2 0x100 DUP1 DUP4 SLOAD DIV MUL DUP4 MSTORE SWAP2 PUSH1 0x20 ADD SWAP2 PUSH2 0x1DA5 JUMP JUMPDEST DUP3 ADD SWAP2 SWAP1 PUSH1 0x0 MSTORE PUSH1 0x20 PUSH1 0x0 KECCAK256 SWAP1 JUMPDEST DUP2 SLOAD DUP2 MSTORE SWAP1 PUSH1 0x1 ADD SWAP1 PUSH1 0x20 ADD DUP1 DUP4 GT PUSH2 0x1D88 JUMPI DUP3 SWAP1 SUB PUSH1 0x1F AND DUP3 ADD SWAP2 JUMPDEST POP POP POP POP POP DUP2 MSTORE PUSH1 0x20 ADD PUSH1 0x2 DUP3 ADD DUP1 SLOAD PUSH2 0x1DBE SWAP1 PUSH2 0x2E42 JUMP JUMPDEST DUP1 PUSH1 0x1F ADD PUSH1 0x20 DUP1 SWAP2 DIV MUL PUSH1 0x20 ADD PUSH1 0x40 MLOAD SWAP1 DUP2 ADD PUSH1 0x40 MSTORE DUP1 SWAP3 SWAP2 SWAP1 DUP2 DUP2 MSTORE PUSH1 0x20 ADD DUP3 DUP1 SLOAD PUSH2 0x1DEA SWAP1 PUSH2 0x2E42 JUMP JUMPDEST DUP1 ISZERO PUSH2 0x1E37 JUMPI DUP1 PUSH1 0x1F LT PUSH2 0x1E0C JUMPI PUSH2 0x100 DUP1 DUP4 SLOAD DIV MUL DUP4 MSTORE SWAP2 PUSH1 0x20 ADD SWAP2 PUSH2 0x1E37 JUMP JUMPDEST DUP3 ADD SWAP2 SWAP1 PUSH1 0x0 MSTORE PUSH1 0x20 PUSH1 0x0 KECCAK256 SWAP1 JUMPDEST DUP2 SLOAD DUP2 MSTORE SWAP1 PUSH1 0x1 ADD SWAP1 PUSH1 0x20 ADD DUP1 DUP4 GT PUSH2 0x1E1A JUMPI DUP3 SWAP1 SUB PUSH1 0x1F AND DUP3 ADD SWAP2 JUMPDEST POP POP POP SWAP2 DUP4 MSTORE POP POP PUSH1 0x3 SWAP2 SWAP1 SWAP2 ADD SLOAD PUSH1 0xFF DUP1 DUP3 AND PUSH1 0x20 DUP5 ADD MSTORE PUSH2 0x100 DUP3 DIV DUP2 AND ISZERO ISZERO PUSH1 0x40 DUP5 ADD MSTORE PUSH1 0x1 PUSH1 0x1 PUSH1 0xA0 SHL SUB PUSH3 0x10000 DUP4 DIV AND PUSH1 0x60 DUP5 ADD MSTORE PUSH1 0x1 PUSH1 0xB0 SHL SWAP1 SWAP2 DIV AND ISZERO ISZERO PUSH1 0x80 SWAP1 SWAP2 ADD MSTORE SWAP3 SWAP2 POP POP JUMP JUMPDEST PUSH2 0x1E91 PUSH2 0x1FB1 JUMP JUMPDEST PUSH1 0xFC DUP1 SLOAD SWAP2 ISZERO ISZERO PUSH1 0x1 PUSH1 0x50 SHL MUL PUSH1 0xFF PUSH1 0x50 SHL NOT SWAP1 SWAP3 AND SWAP2 SWAP1 SWAP2 OR SWAP1 SSTORE JUMP JUMPDEST PUSH2 0x1EB7 PUSH2 0x1FB1 JUMP JUMPDEST PUSH2 0x104 DUP1 SLOAD PUSH1 0x1 PUSH1 0x1 PUSH1 0xA0 SHL SUB NOT AND PUSH1 0x1 PUSH1 0x1 PUSH1 0xA0 SHL SUB SWAP3 SWAP1 SWAP3 AND SWAP2 SWAP1 SWAP2 OR SWAP1 SSTORE JUMP JUMPDEST PUSH2 0x1EE2 PUSH2 0x1FB1 JUMP JUMPDEST PUSH1 0x1 PUSH1 0x1 PUSH1 0xA0 SHL SUB DUP2 AND PUSH2 0x1F47 JUMPI PUSH1 0x40 MLOAD PUSH3 0x461BCD PUSH1 0xE5 SHL DUP2 MSTORE PUSH1 0x20 PUSH1 0x4 DUP3 ADD MSTORE PUSH1 0x26 PUSH1 0x24 DUP3 ADD MSTORE PUSH32 0x4F776E61626C653A206E6577206F776E657220697320746865207A65726F2061 PUSH1 0x44 DUP3 ADD MSTORE PUSH6 0x646472657373 PUSH1 0xD0 SHL PUSH1 0x64 DUP3 ADD MSTORE PUSH1 0x84 ADD PUSH2 0x1175 JUMP JUMPDEST PUSH2 0x1212 DUP2 PUSH2 0x21D0 JUMP JUMPDEST PUSH1 0x60 PUSH1 0xFE DUP1 SLOAD DUP1 PUSH1 0x20 MUL PUSH1 0x20 ADD PUSH1 0x40 MLOAD SWAP1 DUP2 ADD PUSH1 0x40 MSTORE DUP1 SWAP3 SWAP2 SWAP1 DUP2 DUP2 MSTORE PUSH1 0x20 ADD DUP3 DUP1 SLOAD DUP1 ISZERO PUSH2 0x1832 JUMPI PUSH1 0x20 MUL DUP3 ADD SWAP2 SWAP1 PUSH1 0x0 MSTORE PUSH1 0x20 PUSH1 0x0 KECCAK256 SWAP1 JUMPDEST DUP2 SLOAD PUSH1 0x1 PUSH1 0x1 PUSH1 0xA0 SHL SUB AND DUP2 MSTORE PUSH1 0x1 SWAP1 SWAP2 ADD SWAP1 PUSH1 0x20 ADD DUP1 DUP4 GT PUSH2 0x1F8A JUMPI POP POP POP POP POP SWAP1 POP SWAP1 JUMP JUMPDEST PUSH1 0x65 SLOAD PUSH1 0x1 PUSH1 0x1 PUSH1 0xA0 SHL SUB AND CALLER EQ PUSH2 0x124B JUMPI PUSH1 0x40 MLOAD PUSH3 0x461BCD PUSH1 0xE5 SHL DUP2 MSTORE PUSH1 0x20 PUSH1 0x4 DUP3 ADD DUP2 SWAP1 MSTORE PUSH1 0x24 DUP3 ADD MSTORE PUSH32 0x4F776E61626C653A2063616C6C6572206973206E6F7420746865206F776E6572 PUSH1 0x44 DUP3 ADD MSTORE PUSH1 0x64 ADD PUSH2 0x1175 JUMP JUMPDEST PUSH2 0x1212 PUSH2 0x1FB1 JUMP JUMPDEST PUSH32 0x4910FDFA16FED3260ED0E7147F7CC6DA11A60208B5B9406D12A635614FFD9143 SLOAD PUSH1 0xFF AND ISZERO PUSH2 0x2046 JUMPI PUSH2 0x14DF DUP4 PUSH2 0x22E4 JUMP JUMPDEST DUP3 PUSH1 0x1 PUSH1 0x1 PUSH1 0xA0 SHL SUB AND PUSH4 0x52D1902D PUSH1 0x40 MLOAD DUP2 PUSH4 0xFFFFFFFF AND PUSH1 0xE0 SHL DUP2 MSTORE PUSH1 0x4 ADD PUSH1 0x20 PUSH1 0x40 MLOAD DUP1 DUP4 SUB DUP2 DUP7 GAS STATICCALL SWAP3 POP POP POP DUP1 ISZERO PUSH2 0x20A0 JUMPI POP PUSH1 0x40 DUP1 MLOAD PUSH1 0x1F RETURNDATASIZE SWAP1 DUP2 ADD PUSH1 0x1F NOT AND DUP3 ADD SWAP1 SWAP3 MSTORE PUSH2 0x209D SWAP2 DUP2 ADD SWAP1 PUSH2 0x3058 JUMP JUMPDEST PUSH1 0x1 JUMPDEST PUSH2 0x2103 JUMPI PUSH1 0x40 MLOAD PUSH3 0x461BCD PUSH1 0xE5 SHL DUP2 MSTORE PUSH1 0x20 PUSH1 0x4 DUP3 ADD MSTORE PUSH1 0x2E PUSH1 0x24 DUP3 ADD MSTORE PUSH32 0x45524331393637557067726164653A206E657720696D706C656D656E74617469 PUSH1 0x44 DUP3 ADD MSTORE PUSH14 0x6F6E206973206E6F742055555053 PUSH1 0x90 SHL PUSH1 0x64 DUP3 ADD MSTORE PUSH1 0x84 ADD PUSH2 0x1175 JUMP JUMPDEST PUSH1 0x0 DUP1 MLOAD PUSH1 0x20 PUSH2 0x30EC DUP4 CODECOPY DUP2 MLOAD SWAP2 MSTORE DUP2 EQ PUSH2 0x2172 JUMPI PUSH1 0x40 MLOAD PUSH3 0x461BCD PUSH1 0xE5 SHL DUP2 MSTORE PUSH1 0x20 PUSH1 0x4 DUP3 ADD MSTORE PUSH1 0x29 PUSH1 0x24 DUP3 ADD MSTORE PUSH32 0x45524331393637557067726164653A20756E737570706F727465642070726F78 PUSH1 0x44 DUP3 ADD MSTORE PUSH9 0x1A58589B1955555251 PUSH1 0xBA SHL PUSH1 0x64 DUP3 ADD MSTORE PUSH1 0x84 ADD PUSH2 0x1175 JUMP JUMPDEST POP PUSH2 0x14DF DUP4 DUP4 DUP4 PUSH2 0x2380 JUMP JUMPDEST PUSH2 0x2186 PUSH2 0x23A5 JUMP JUMPDEST PUSH1 0x33 DUP1 SLOAD PUSH1 0xFF NOT AND SWAP1 SSTORE PUSH32 0x5DB9EE0A495BF2E6FF9C91A7834C1BA4FDD244A5E8AA4E537BD38AEAE4B073AA CALLER JUMPDEST PUSH1 0x40 MLOAD PUSH1 0x1 PUSH1 0x1 PUSH1 0xA0 SHL SUB SWAP1 SWAP2 AND DUP2 MSTORE PUSH1 0x20 ADD PUSH1 0x40 MLOAD DUP1 SWAP2 SUB SWAP1 LOG1 JUMP JUMPDEST PUSH1 0x65 DUP1 SLOAD PUSH1 0x1 PUSH1 0x1 PUSH1 0xA0 SHL SUB DUP4 DUP2 AND PUSH1 0x1 PUSH1 0x1 PUSH1 0xA0 SHL SUB NOT DUP4 AND DUP2 OR SWAP1 SWAP4 SSTORE PUSH1 0x40 MLOAD SWAP2 AND SWAP2 SWAP1 DUP3 SWAP1 PUSH32 0x8BE0079C531659141344CD1FD0A4F28419497F9722A3DAAFE3B4186F6B6457E0 SWAP1 PUSH1 0x0 SWAP1 LOG3 POP POP JUMP JUMPDEST PUSH1 0x0 SLOAD PUSH2 0x100 SWAP1 DIV PUSH1 0xFF AND PUSH2 0x2249 JUMPI PUSH1 0x40 MLOAD PUSH3 0x461BCD PUSH1 0xE5 SHL DUP2 MSTORE PUSH1 0x4 ADD PUSH2 0x1175 SWAP1 PUSH2 0x3071 JUMP JUMPDEST PUSH2 0x124B PUSH2 0x23EE JUMP JUMPDEST PUSH1 0x0 SLOAD PUSH2 0x100 SWAP1 DIV PUSH1 0xFF AND PUSH2 0x2278 JUMPI PUSH1 0x40 MLOAD PUSH3 0x461BCD PUSH1 0xE5 SHL DUP2 MSTORE PUSH1 0x4 ADD PUSH2 0x1175 SWAP1 PUSH2 0x3071 JUMP JUMPDEST PUSH2 0x124B PUSH2 0x2421 JUMP JUMPDEST PUSH1 0x0 SLOAD PUSH2 0x100 SWAP1 DIV PUSH1 0xFF AND PUSH2 0x124B JUMPI PUSH1 0x40 MLOAD PUSH3 0x461BCD PUSH1 0xE5 SHL DUP2 MSTORE PUSH1 0x4 ADD PUSH2 0x1175 SWAP1 PUSH2 0x3071 JUMP JUMPDEST PUSH2 0x22AF PUSH2 0x2451 JUMP JUMPDEST PUSH1 0x33 DUP1 SLOAD PUSH1 0xFF NOT AND PUSH1 0x1 OR SWAP1 SSTORE PUSH32 0x62E78CEA01BEE320CD4E420270B5EA74000D11B0C9F74754EBDBFC544B05A258 PUSH2 0x21B3 CALLER SWAP1 JUMP JUMPDEST PUSH1 0x1 PUSH1 0x1 PUSH1 0xA0 SHL SUB DUP2 AND EXTCODESIZE PUSH2 0x2351 JUMPI PUSH1 0x40 MLOAD PUSH3 0x461BCD PUSH1 0xE5 SHL DUP2 MSTORE PUSH1 0x20 PUSH1 0x4 DUP3 ADD MSTORE PUSH1 0x2D PUSH1 0x24 DUP3 ADD MSTORE PUSH32 0x455243313936373A206E657720696D706C656D656E746174696F6E206973206E PUSH1 0x44 DUP3 ADD MSTORE PUSH13 0x1BDD08184818DBDB9D1C9858DD PUSH1 0x9A SHL PUSH1 0x64 DUP3 ADD MSTORE PUSH1 0x84 ADD PUSH2 0x1175 JUMP JUMPDEST PUSH1 0x0 DUP1 MLOAD PUSH1 0x20 PUSH2 0x30EC DUP4 CODECOPY DUP2 MLOAD SWAP2 MSTORE DUP1 SLOAD PUSH1 0x1 PUSH1 0x1 PUSH1 0xA0 SHL SUB NOT AND PUSH1 0x1 PUSH1 0x1 PUSH1 0xA0 SHL SUB SWAP3 SWAP1 SWAP3 AND SWAP2 SWAP1 SWAP2 OR SWAP1 SSTORE JUMP JUMPDEST PUSH2 0x2389 DUP4 PUSH2 0x2497 JUMP JUMPDEST PUSH1 0x0 DUP3 MLOAD GT DUP1 PUSH2 0x2396 JUMPI POP DUP1 JUMPDEST ISZERO PUSH2 0x14DF JUMPI PUSH2 0xD36 DUP4 DUP4 PUSH2 0x24D7 JUMP JUMPDEST PUSH1 0x33 SLOAD PUSH1 0xFF AND PUSH2 0x124B JUMPI PUSH1 0x40 MLOAD PUSH3 0x461BCD PUSH1 0xE5 SHL DUP2 MSTORE PUSH1 0x20 PUSH1 0x4 DUP3 ADD MSTORE PUSH1 0x14 PUSH1 0x24 DUP3 ADD MSTORE PUSH20 0x14185D5CD8589B194E881B9BDD081C185D5CD959 PUSH1 0x62 SHL PUSH1 0x44 DUP3 ADD MSTORE PUSH1 0x64 ADD PUSH2 0x1175 JUMP JUMPDEST PUSH1 0x0 SLOAD PUSH2 0x100 SWAP1 DIV PUSH1 0xFF AND PUSH2 0x2415 JUMPI PUSH1 0x40 MLOAD PUSH3 0x461BCD PUSH1 0xE5 SHL DUP2 MSTORE PUSH1 0x4 ADD PUSH2 0x1175 SWAP1 PUSH2 0x3071 JUMP JUMPDEST PUSH1 0x33 DUP1 SLOAD PUSH1 0xFF NOT AND SWAP1 SSTORE JUMP JUMPDEST PUSH1 0x0 SLOAD PUSH2 0x100 SWAP1 DIV PUSH1 0xFF AND PUSH2 0x2448 JUMPI PUSH1 0x40 MLOAD PUSH3 0x461BCD PUSH1 0xE5 SHL DUP2 MSTORE PUSH1 0x4 ADD PUSH2 0x1175 SWAP1 PUSH2 0x3071 JUMP JUMPDEST PUSH2 0x124B CALLER PUSH2 0x21D0 JUMP JUMPDEST PUSH1 0x33 SLOAD PUSH1 0xFF AND ISZERO PUSH2 0x124B JUMPI PUSH1 0x40 MLOAD PUSH3 0x461BCD PUSH1 0xE5 SHL DUP2 MSTORE PUSH1 0x20 PUSH1 0x4 DUP3 ADD MSTORE PUSH1 0x10 PUSH1 0x24 DUP3 ADD MSTORE PUSH16 0x14185D5CD8589B194E881C185D5CD959 PUSH1 0x82 SHL PUSH1 0x44 DUP3 ADD MSTORE PUSH1 0x64 ADD PUSH2 0x1175 JUMP JUMPDEST PUSH2 0x24A0 DUP2 PUSH2 0x22E4 JUMP JUMPDEST PUSH1 0x40 MLOAD PUSH1 0x1 PUSH1 0x1 PUSH1 0xA0 SHL SUB DUP3 AND SWAP1 PUSH32 0xBC7CD75A20EE27FD9ADEBAB32041F755214DBC6BFFA90CC0225B39DA2E5C2D3B SWAP1 PUSH1 0x0 SWAP1 LOG2 POP JUMP JUMPDEST PUSH1 0x60 PUSH1 0x1 PUSH1 0x1 PUSH1 0xA0 SHL SUB DUP4 AND EXTCODESIZE PUSH2 0x253F JUMPI PUSH1 0x40 MLOAD PUSH3 0x461BCD PUSH1 0xE5 SHL DUP2 MSTORE PUSH1 0x20 PUSH1 0x4 DUP3 ADD MSTORE PUSH1 0x26 PUSH1 0x24 DUP3 ADD MSTORE PUSH32 0x416464726573733A2064656C65676174652063616C6C20746F206E6F6E2D636F PUSH1 0x44 DUP3 ADD MSTORE PUSH6 0x1B9D1C9858DD PUSH1 0xD2 SHL PUSH1 0x64 DUP3 ADD MSTORE PUSH1 0x84 ADD PUSH2 0x1175 JUMP JUMPDEST PUSH1 0x0 DUP1 DUP5 PUSH1 0x1 PUSH1 0x1 PUSH1 0xA0 SHL SUB AND DUP5 PUSH1 0x40 MLOAD PUSH2 0x255A SWAP2 SWAP1 PUSH2 0x30BC JUMP JUMPDEST PUSH1 0x0 PUSH1 0x40 MLOAD DUP1 DUP4 SUB DUP2 DUP6 GAS DELEGATECALL SWAP2 POP POP RETURNDATASIZE DUP1 PUSH1 0x0 DUP2 EQ PUSH2 0x2595 JUMPI PUSH1 0x40 MLOAD SWAP2 POP PUSH1 0x1F NOT PUSH1 0x3F RETURNDATASIZE ADD AND DUP3 ADD PUSH1 0x40 MSTORE RETURNDATASIZE DUP3 MSTORE RETURNDATASIZE PUSH1 0x0 PUSH1 0x20 DUP5 ADD RETURNDATACOPY PUSH2 0x259A JUMP JUMPDEST PUSH1 0x60 SWAP2 POP JUMPDEST POP SWAP2 POP SWAP2 POP PUSH2 0x25C2 DUP3 DUP3 PUSH1 0x40 MLOAD DUP1 PUSH1 0x60 ADD PUSH1 0x40 MSTORE DUP1 PUSH1 0x27 DUP2 MSTORE PUSH1 0x20 ADD PUSH2 0x310C PUSH1 0x27 SWAP2 CODECOPY PUSH2 0x25CD JUMP JUMPDEST SWAP3 POP POP POP JUMPDEST SWAP3 SWAP2 POP POP JUMP JUMPDEST PUSH1 0x60 DUP4 ISZERO PUSH2 0x25DC JUMPI POP DUP2 PUSH2 0x25E6 JUMP JUMPDEST PUSH2 0x25E6 DUP4 DUP4 PUSH2 0x25ED JUMP JUMPDEST SWAP4 SWAP3 POP POP POP JUMP JUMPDEST DUP2 MLOAD ISZERO PUSH2 0x25FD JUMPI DUP2 MLOAD DUP1 DUP4 PUSH1 0x20 ADD REVERT JUMPDEST DUP1 PUSH1 0x40 MLOAD PUSH3 0x461BCD PUSH1 0xE5 SHL DUP2 MSTORE PUSH1 0x4 ADD PUSH2 0x1175 SWAP2 SWAP1 PUSH2 0x30D8 JUMP JUMPDEST DUP3 DUP1 SLOAD DUP3 DUP3 SSTORE SWAP1 PUSH1 0x0 MSTORE PUSH1 0x20 PUSH1 0x0 KECCAK256 SWAP1 PUSH1 0xF ADD PUSH1 0x10 SWAP1 DIV DUP2 ADD SWAP3 DUP3 ISZERO PUSH2 0x26B0 JUMPI SWAP2 PUSH1 0x20 MUL DUP3 ADD PUSH1 0x0 JUMPDEST DUP4 DUP3 GT ISZERO PUSH2 0x2680 JUMPI DUP4 MLOAD DUP4 DUP3 PUSH2 0x100 EXP DUP2 SLOAD DUP2 PUSH2 0xFFFF MUL NOT AND SWAP1 DUP4 PUSH2 0xFFFF AND MUL OR SWAP1 SSTORE POP SWAP3 PUSH1 0x20 ADD SWAP3 PUSH1 0x2 ADD PUSH1 0x20 DUP2 PUSH1 0x1 ADD DIV SWAP3 DUP4 ADD SWAP3 PUSH1 0x1 SUB MUL PUSH2 0x2640 JUMP JUMPDEST DUP1 ISZERO PUSH2 0x26AE JUMPI DUP3 DUP2 PUSH2 0x100 EXP DUP2 SLOAD SWAP1 PUSH2 0xFFFF MUL NOT AND SWAP1 SSTORE PUSH1 0x2 ADD PUSH1 0x20 DUP2 PUSH1 0x1 ADD DIV SWAP3 DUP4 ADD SWAP3 PUSH1 0x1 SUB MUL PUSH2 0x2680 JUMP JUMPDEST POP JUMPDEST POP PUSH2 0x1974 SWAP3 SWAP2 POP JUMPDEST DUP1 DUP3 GT ISZERO PUSH2 0x1974 JUMPI PUSH1 0x0 DUP2 SSTORE PUSH1 0x1 ADD PUSH2 0x26B8 JUMP JUMPDEST DUP1 CALLDATALOAD PUSH1 0x1 PUSH1 0x1 PUSH1 0xA0 SHL SUB DUP2 AND DUP2 EQ PUSH2 0x26E3 JUMPI PUSH1 0x0 DUP1 REVERT JUMPDEST SWAP2 SWAP1 POP JUMP JUMPDEST PUSH1 0x0 PUSH1 0x20 DUP3 DUP5 SUB SLT ISZERO PUSH2 0x26FA JUMPI PUSH1 0x0 DUP1 REVERT JUMPDEST PUSH2 0x25E6 DUP3 PUSH2 0x26CC JUMP JUMPDEST DUP1 CALLDATALOAD DUP1 ISZERO ISZERO DUP2 EQ PUSH2 0x26E3 JUMPI PUSH1 0x0 DUP1 REVERT JUMPDEST PUSH1 0x0 DUP1 PUSH1 0x0 PUSH1 0x60 DUP5 DUP7 SUB SLT ISZERO PUSH2 0x2728 JUMPI PUSH1 0x0 DUP1 REVERT JUMPDEST PUSH2 0x2731 DUP5 PUSH2 0x26CC JUMP JUMPDEST SWAP3 POP PUSH2 0x273F PUSH1 0x20 DUP6 ADD PUSH2 0x2703 JUMP JUMPDEST SWAP2 POP PUSH2 0x274D PUSH1 0x40 DUP6 ADD PUSH2 0x26CC JUMP JUMPDEST SWAP1 POP SWAP3 POP SWAP3 POP SWAP3 JUMP JUMPDEST PUSH1 0xFF DUP2 AND DUP2 EQ PUSH2 0x1212 JUMPI PUSH1 0x0 DUP1 REVERT JUMPDEST PUSH1 0x0 PUSH1 0x20 DUP3 DUP5 SUB SLT ISZERO PUSH2 0x2777 JUMPI PUSH1 0x0 DUP1 REVERT JUMPDEST DUP2 CALLDATALOAD PUSH2 0x25E6 DUP2 PUSH2 0x2756 JUMP JUMPDEST PUSH1 0x0 JUMPDEST DUP4 DUP2 LT ISZERO PUSH2 0x279D JUMPI DUP2 DUP2 ADD MLOAD DUP4 DUP3 ADD MSTORE PUSH1 0x20 ADD PUSH2 0x2785 JUMP JUMPDEST POP POP PUSH1 0x0 SWAP2 ADD MSTORE JUMP JUMPDEST PUSH1 0x0 DUP2 MLOAD DUP1 DUP5 MSTORE PUSH2 0x27BE DUP2 PUSH1 0x20 DUP7 ADD PUSH1 0x20 DUP7 ADD PUSH2 0x2782 JUMP JUMPDEST PUSH1 0x1F ADD PUSH1 0x1F NOT AND SWAP3 SWAP1 SWAP3 ADD PUSH1 0x20 ADD SWAP3 SWAP2 POP POP JUMP JUMPDEST PUSH1 0x20 DUP2 MSTORE PUSH1 0xFF DUP3 MLOAD AND PUSH1 0x20 DUP3 ADD MSTORE PUSH1 0x0 PUSH1 0x20 DUP4 ADD MLOAD PUSH1 0x80 PUSH1 0x40 DUP5 ADD MSTORE PUSH2 0x27FB PUSH1 0xA0 DUP5 ADD DUP3 PUSH2 0x27A6 JUMP JUMPDEST SWAP1 POP PUSH1 0x40 DUP5 ADD MLOAD PUSH1 0x60 DUP5 ADD MSTORE PUSH1 0x60 DUP5 ADD MLOAD PUSH1 0x80 DUP5 ADD MSTORE DUP1 SWAP2 POP POP SWAP3 SWAP2 POP POP JUMP JUMPDEST PUSH1 0x0 PUSH1 0x20 DUP3 DUP5 SUB SLT ISZERO PUSH2 0x282D JUMPI PUSH1 0x0 DUP1 REVERT JUMPDEST PUSH2 0x25E6 DUP3 PUSH2 0x2703 JUMP JUMPDEST PUSH4 0x4E487B71 PUSH1 0xE0 SHL PUSH1 0x0 MSTORE PUSH1 0x41 PUSH1 0x4 MSTORE PUSH1 0x24 PUSH1 0x0 REVERT JUMPDEST PUSH1 0x40 MLOAD PUSH1 0x1F DUP3 ADD PUSH1 0x1F NOT AND DUP2 ADD PUSH8 0xFFFFFFFFFFFFFFFF DUP2 GT DUP3 DUP3 LT OR ISZERO PUSH2 0x2875 JUMPI PUSH2 0x2875 PUSH2 0x2836 JUMP JUMPDEST PUSH1 0x40 MSTORE SWAP2 SWAP1 POP JUMP JUMPDEST PUSH1 0x0 PUSH8 0xFFFFFFFFFFFFFFFF DUP3 GT ISZERO PUSH2 0x2897 JUMPI PUSH2 0x2897 PUSH2 0x2836 JUMP JUMPDEST POP PUSH1 0x1F ADD PUSH1 0x1F NOT AND PUSH1 0x20 ADD SWAP1 JUMP JUMPDEST PUSH1 0x0 PUSH2 0x28B8 PUSH2 0x28B3 DUP5 PUSH2 0x287D JUMP JUMPDEST PUSH2 0x284C JUMP JUMPDEST SWAP1 POP DUP3 DUP2 MSTORE DUP4 DUP4 DUP4 ADD GT ISZERO PUSH2 0x28CC JUMPI PUSH1 0x0 DUP1 REVERT JUMPDEST DUP3 DUP3 PUSH1 0x20 DUP4 ADD CALLDATACOPY PUSH1 0x0 PUSH1 0x20 DUP5 DUP4 ADD ADD MSTORE SWAP4 SWAP3 POP POP POP JUMP JUMPDEST PUSH1 0x0 DUP1 PUSH1 0x40 DUP4 DUP6 SUB SLT ISZERO PUSH2 0x28F6 JUMPI PUSH1 0x0 DUP1 REVERT JUMPDEST PUSH2 0x28FF DUP4 PUSH2 0x26CC JUMP JUMPDEST SWAP2 POP PUSH1 0x20 DUP4 ADD CALLDATALOAD PUSH8 0xFFFFFFFFFFFFFFFF DUP2 GT ISZERO PUSH2 0x291B JUMPI PUSH1 0x0 DUP1 REVERT JUMPDEST DUP4 ADD PUSH1 0x1F DUP2 ADD DUP6 SGT PUSH2 0x292C JUMPI PUSH1 0x0 DUP1 REVERT JUMPDEST PUSH2 0x293B DUP6 DUP3 CALLDATALOAD PUSH1 0x20 DUP5 ADD PUSH2 0x28A5 JUMP JUMPDEST SWAP2 POP POP SWAP3 POP SWAP3 SWAP1 POP JUMP JUMPDEST PUSH1 0x0 DUP1 DUP4 PUSH1 0x1F DUP5 ADD SLT PUSH2 0x2957 JUMPI PUSH1 0x0 DUP1 REVERT JUMPDEST POP DUP2 CALLDATALOAD PUSH8 0xFFFFFFFFFFFFFFFF DUP2 GT ISZERO PUSH2 0x296F JUMPI PUSH1 0x0 DUP1 REVERT JUMPDEST PUSH1 0x20 DUP4 ADD SWAP2 POP DUP4 PUSH1 0x20 DUP3 PUSH1 0x5 SHL DUP6 ADD ADD GT ISZERO PUSH2 0x298A JUMPI PUSH1 0x0 DUP1 REVERT JUMPDEST SWAP3 POP SWAP3 SWAP1 POP JUMP JUMPDEST PUSH1 0x0 DUP1 PUSH1 0x20 DUP4 DUP6 SUB SLT ISZERO PUSH2 0x29A4 JUMPI PUSH1 0x0 DUP1 REVERT JUMPDEST DUP3 CALLDATALOAD PUSH8 0xFFFFFFFFFFFFFFFF DUP2 GT ISZERO PUSH2 0x29BB JUMPI PUSH1 0x0 DUP1 REVERT JUMPDEST PUSH2 0x29C7 DUP6 DUP3 DUP7 ADD PUSH2 0x2945 JUMP JUMPDEST SWAP1 SWAP7 SWAP1 SWAP6 POP SWAP4 POP POP POP POP JUMP JUMPDEST PUSH1 0x0 PUSH1 0x20 DUP3 DUP5 SUB SLT ISZERO PUSH2 0x29E5 JUMPI PUSH1 0x0 DUP1 REVERT JUMPDEST POP CALLDATALOAD SWAP2 SWAP1 POP JUMP JUMPDEST PUSH1 0x20 DUP1 DUP3 MSTORE DUP3 MLOAD DUP3 DUP3 ADD DUP2 SWAP1 MSTORE PUSH1 0x0 SWAP2 SWAP1 DUP5 DUP3 ADD SWAP1 PUSH1 0x40 DUP6 ADD SWAP1 DUP5 JUMPDEST DUP2 DUP2 LT ISZERO PUSH2 0x2A28 JUMPI DUP4 MLOAD PUSH2 0xFFFF AND DUP4 MSTORE SWAP3 DUP5 ADD SWAP3 SWAP2 DUP5 ADD SWAP2 PUSH1 0x1 ADD PUSH2 0x2A08 JUMP JUMPDEST POP SWAP1 SWAP7 SWAP6 POP POP POP POP POP POP JUMP JUMPDEST DUP1 CALLDATALOAD PUSH2 0xFFFF DUP2 AND DUP2 EQ PUSH2 0x26E3 JUMPI PUSH1 0x0 DUP1 REVERT JUMPDEST PUSH1 0x0 PUSH1 0x20 DUP3 DUP5 SUB SLT ISZERO PUSH2 0x2A58 JUMPI PUSH1 0x0 DUP1 REVERT JUMPDEST PUSH2 0x25E6 DUP3 PUSH2 0x2A34 JUMP JUMPDEST PUSH1 0x0 PUSH8 0xFFFFFFFFFFFFFFFF DUP3 GT ISZERO PUSH2 0x2A7B JUMPI PUSH2 0x2A7B PUSH2 0x2836 JUMP JUMPDEST POP PUSH1 0x5 SHL PUSH1 0x20 ADD SWAP1 JUMP JUMPDEST PUSH1 0x0 DUP1 PUSH1 0x0 DUP1 PUSH1 0x0 DUP1 PUSH1 0x0 PUSH1 0x80 DUP9 DUP11 SUB SLT ISZERO PUSH2 0x2AA0 JUMPI PUSH1 0x0 DUP1 REVERT JUMPDEST PUSH8 0xFFFFFFFFFFFFFFFF DUP1 DUP10 CALLDATALOAD GT ISZERO PUSH2 0x2AB7 JUMPI PUSH1 0x0 DUP1 REVERT JUMPDEST PUSH2 0x2AC4 DUP11 DUP11 CALLDATALOAD DUP12 ADD PUSH2 0x2945 JUMP JUMPDEST SWAP1 SWAP9 POP SWAP7 POP PUSH1 0x20 DUP10 ADD CALLDATALOAD DUP2 LT ISZERO PUSH2 0x2ADA JUMPI PUSH1 0x0 DUP1 REVERT JUMPDEST PUSH1 0x20 DUP10 ADD CALLDATALOAD DUP10 ADD DUP11 PUSH1 0x1F DUP3 ADD SLT PUSH2 0x2AF0 JUMPI PUSH1 0x0 DUP1 REVERT JUMPDEST PUSH2 0x2AFD PUSH2 0x28B3 DUP3 CALLDATALOAD PUSH2 0x2A61 JUMP JUMPDEST DUP2 CALLDATALOAD DUP1 DUP3 MSTORE PUSH1 0x20 DUP1 DUP4 ADD SWAP3 SWAP2 PUSH1 0x5 SHL DUP5 ADD ADD DUP14 DUP2 GT ISZERO PUSH2 0x2B1C JUMPI PUSH1 0x0 DUP1 REVERT JUMPDEST PUSH1 0x20 DUP5 ADD JUMPDEST DUP2 DUP2 LT ISZERO PUSH2 0x2B6D JUMPI DUP6 DUP2 CALLDATALOAD GT ISZERO PUSH2 0x2B37 JUMPI PUSH1 0x0 DUP1 REVERT JUMPDEST DUP15 PUSH1 0x3F DUP3 CALLDATALOAD DUP8 ADD ADD SLT PUSH2 0x2B49 JUMPI PUSH1 0x0 DUP1 REVERT JUMPDEST PUSH2 0x2B5F DUP16 DUP3 CALLDATALOAD DUP8 ADD PUSH1 0x20 DUP2 ADD CALLDATALOAD SWAP1 PUSH1 0x40 ADD PUSH2 0x28A5 JUMP JUMPDEST DUP5 MSTORE PUSH1 0x20 SWAP4 DUP5 ADD SWAP4 ADD PUSH2 0x2B21 JUMP JUMPDEST POP POP DUP1 SWAP9 POP POP POP POP DUP1 PUSH1 0x40 DUP11 ADD CALLDATALOAD GT ISZERO PUSH2 0x2B86 JUMPI PUSH1 0x0 DUP1 REVERT JUMPDEST PUSH2 0x2B96 DUP11 PUSH1 0x40 DUP12 ADD CALLDATALOAD DUP12 ADD PUSH2 0x2945 JUMP JUMPDEST SWAP1 SWAP6 POP SWAP4 POP PUSH1 0x60 DUP10 ADD CALLDATALOAD DUP2 LT ISZERO PUSH2 0x2BAC JUMPI PUSH1 0x0 DUP1 REVERT JUMPDEST POP PUSH2 0x2BBD DUP10 PUSH1 0x60 DUP11 ADD CALLDATALOAD DUP11 ADD PUSH2 0x2945 JUMP JUMPDEST SWAP8 SWAP11 SWAP7 SWAP10 POP SWAP5 SWAP8 POP SWAP3 SWAP6 SWAP2 SWAP5 SWAP2 SWAP3 POP POP JUMP JUMPDEST PUSH1 0x0 PUSH1 0x20 DUP1 DUP4 DUP6 SUB SLT ISZERO PUSH2 0x2BE2 JUMPI PUSH1 0x0 DUP1 REVERT JUMPDEST DUP3 CALLDATALOAD PUSH8 0xFFFFFFFFFFFFFFFF DUP2 GT ISZERO PUSH2 0x2BF9 JUMPI PUSH1 0x0 DUP1 REVERT JUMPDEST DUP4 ADD PUSH1 0x1F DUP2 ADD DUP6 SGT PUSH2 0x2C0A JUMPI PUSH1 0x0 DUP1 REVERT JUMPDEST DUP1 CALLDATALOAD PUSH2 0x2C18 PUSH2 0x28B3 DUP3 PUSH2 0x2A61 JUMP JUMPDEST DUP2 DUP2 MSTORE PUSH1 0x5 SWAP2 SWAP1 SWAP2 SHL DUP3 ADD DUP4 ADD SWAP1 DUP4 DUP2 ADD SWAP1 DUP8 DUP4 GT ISZERO PUSH2 0x2C37 JUMPI PUSH1 0x0 DUP1 REVERT JUMPDEST SWAP3 DUP5 ADD SWAP3 JUMPDEST DUP3 DUP5 LT ISZERO PUSH2 0x2C5C JUMPI PUSH2 0x2C4D DUP5 PUSH2 0x2A34 JUMP JUMPDEST DUP3 MSTORE SWAP3 DUP5 ADD SWAP3 SWAP1 DUP5 ADD SWAP1 PUSH2 0x2C3C JUMP JUMPDEST SWAP8 SWAP7 POP POP POP POP POP POP POP JUMP JUMPDEST PUSH1 0x20 DUP1 DUP3 MSTORE DUP3 MLOAD PUSH1 0x1 PUSH1 0x1 PUSH1 0xA0 SHL SUB AND DUP3 DUP3 ADD MSTORE DUP3 ADD MLOAD PUSH1 0xE0 PUSH1 0x40 DUP4 ADD MSTORE PUSH1 0x0 SWAP1 PUSH2 0x2C96 PUSH2 0x100 DUP5 ADD DUP3 PUSH2 0x27A6 JUMP JUMPDEST SWAP1 POP PUSH1 0x40 DUP5 ADD MLOAD PUSH1 0x1F NOT DUP5 DUP4 SUB ADD PUSH1 0x60 DUP6 ADD MSTORE PUSH2 0x2CB3 DUP3 DUP3 PUSH2 0x27A6 JUMP JUMPDEST SWAP2 POP POP PUSH1 0xFF PUSH1 0x60 DUP6 ADD MLOAD AND PUSH1 0x80 DUP5 ADD MSTORE PUSH1 0x80 DUP5 ADD MLOAD ISZERO ISZERO PUSH1 0xA0 DUP5 ADD MSTORE PUSH1 0xA0 DUP5 ADD MLOAD PUSH2 0x2CE9 PUSH1 0xC0 DUP6 ADD DUP3 PUSH1 0x1 PUSH1 0x1 PUSH1 0xA0 SHL SUB AND SWAP1 MSTORE JUMP JUMPDEST POP PUSH1 0xC0 DUP5 ADD MLOAD DUP1 ISZERO ISZERO PUSH1 0xE0 DUP6 ADD MSTORE POP SWAP4 SWAP3 POP POP POP JUMP JUMPDEST PUSH1 0x20 DUP1 DUP3 MSTORE DUP3 MLOAD DUP3 DUP3 ADD DUP2 SWAP1 MSTORE PUSH1 0x0 SWAP2 SWAP1 DUP5 DUP3 ADD SWAP1 PUSH1 0x40 DUP6 ADD SWAP1 DUP5 JUMPDEST DUP2 DUP2 LT ISZERO PUSH2 0x2A28 JUMPI DUP4 MLOAD PUSH1 0x1 PUSH1 0x1 PUSH1 0xA0 SHL SUB AND DUP4 MSTORE SWAP3 DUP5 ADD SWAP3 SWAP2 DUP5 ADD SWAP2 PUSH1 0x1 ADD PUSH2 0x2D1B JUMP JUMPDEST PUSH4 0x4E487B71 PUSH1 0xE0 SHL PUSH1 0x0 MSTORE PUSH1 0x32 PUSH1 0x4 MSTORE PUSH1 0x24 PUSH1 0x0 REVERT JUMPDEST PUSH4 0x4E487B71 PUSH1 0xE0 SHL PUSH1 0x0 MSTORE PUSH1 0x11 PUSH1 0x4 MSTORE PUSH1 0x24 PUSH1 0x0 REVERT JUMPDEST DUP2 DUP2 SUB DUP2 DUP2 GT ISZERO PUSH2 0x25C7 JUMPI PUSH2 0x25C7 PUSH2 0x2D56 JUMP JUMPDEST PUSH4 0x4E487B71 PUSH1 0xE0 SHL PUSH1 0x0 MSTORE PUSH1 0x31 PUSH1 0x4 MSTORE PUSH1 0x24 PUSH1 0x0 REVERT JUMPDEST PUSH1 0x0 PUSH1 0x1 DUP3 ADD PUSH2 0x2DA7 JUMPI PUSH2 0x2DA7 PUSH2 0x2D56 JUMP JUMPDEST POP PUSH1 0x1 ADD SWAP1 JUMP JUMPDEST PUSH1 0x0 PUSH1 0x20 DUP3 DUP5 SUB SLT ISZERO PUSH2 0x2DC0 JUMPI PUSH1 0x0 DUP1 REVERT JUMPDEST DUP2 MLOAD PUSH8 0xFFFFFFFFFFFFFFFF DUP2 GT ISZERO PUSH2 0x2DD7 JUMPI PUSH1 0x0 DUP1 REVERT JUMPDEST DUP3 ADD PUSH1 0x1F DUP2 ADD DUP5 SGT PUSH2 0x2DE8 JUMPI PUSH1 0x0 DUP1 REVERT JUMPDEST DUP1 MLOAD PUSH2 0x2DF6 PUSH2 0x28B3 DUP3 PUSH2 0x287D JUMP JUMPDEST DUP2 DUP2 MSTORE DUP6 PUSH1 0x20 DUP4 DUP6 ADD ADD GT ISZERO PUSH2 0x2E0B JUMPI PUSH1 0x0 DUP1 REVERT JUMPDEST PUSH2 0x2E1C DUP3 PUSH1 0x20 DUP4 ADD PUSH1 0x20 DUP7 ADD PUSH2 0x2782 JUMP JUMPDEST SWAP6 SWAP5 POP POP POP POP POP JUMP JUMPDEST PUSH1 0x0 PUSH1 0x20 DUP3 DUP5 SUB SLT ISZERO PUSH2 0x2E37 JUMPI PUSH1 0x0 DUP1 REVERT JUMPDEST DUP2 MLOAD PUSH2 0x25E6 DUP2 PUSH2 0x2756 JUMP JUMPDEST PUSH1 0x1 DUP2 DUP2 SHR SWAP1 DUP3 AND DUP1 PUSH2 0x2E56 JUMPI PUSH1 0x7F DUP3 AND SWAP2 POP JUMPDEST PUSH1 0x20 DUP3 LT DUP2 SUB PUSH2 0x2E76 JUMPI PUSH4 0x4E487B71 PUSH1 0xE0 SHL PUSH1 0x0 MSTORE PUSH1 0x22 PUSH1 0x4 MSTORE PUSH1 0x24 PUSH1 0x0 REVERT JUMPDEST POP SWAP2 SWAP1 POP JUMP JUMPDEST PUSH1 0x1F DUP3 GT ISZERO PUSH2 0x14DF JUMPI PUSH1 0x0 DUP2 DUP2 MSTORE PUSH1 0x20 DUP2 KECCAK256 PUSH1 0x1F DUP6 ADD PUSH1 0x5 SHR DUP2 ADD PUSH1 0x20 DUP7 LT ISZERO PUSH2 0x2EA3 JUMPI POP DUP1 JUMPDEST PUSH1 0x1F DUP6 ADD PUSH1 0x5 SHR DUP3 ADD SWAP2 POP JUMPDEST DUP2 DUP2 LT ISZERO PUSH2 0x2EC2 JUMPI DUP3 DUP2 SSTORE PUSH1 0x1 ADD PUSH2 0x2EAF JUMP JUMPDEST POP POP POP POP POP POP JUMP JUMPDEST DUP2 MLOAD PUSH8 0xFFFFFFFFFFFFFFFF DUP2 GT ISZERO PUSH2 0x2EE4 JUMPI PUSH2 0x2EE4 PUSH2 0x2836 JUMP JUMPDEST PUSH2 0x2EF8 DUP2 PUSH2 0x2EF2 DUP5 SLOAD PUSH2 0x2E42 JUMP JUMPDEST DUP5 PUSH2 0x2E7C JUMP JUMPDEST PUSH1 0x20 DUP1 PUSH1 0x1F DUP4 GT PUSH1 0x1 DUP2 EQ PUSH2 0x2F2D JUMPI PUSH1 0x0 DUP5 ISZERO PUSH2 0x2F15 JUMPI POP DUP6 DUP4 ADD MLOAD JUMPDEST PUSH1 0x0 NOT PUSH1 0x3 DUP7 SWAP1 SHL SHR NOT AND PUSH1 0x1 DUP6 SWAP1 SHL OR DUP6 SSTORE PUSH2 0x2EC2 JUMP JUMPDEST PUSH1 0x0 DUP6 DUP2 MSTORE PUSH1 0x20 DUP2 KECCAK256 PUSH1 0x1F NOT DUP7 AND SWAP2 JUMPDEST DUP3 DUP2 LT ISZERO PUSH2 0x2F5C JUMPI DUP9 DUP7 ADD MLOAD DUP3 SSTORE SWAP5 DUP5 ADD SWAP5 PUSH1 0x1 SWAP1 SWAP2 ADD SWAP1 DUP5 ADD PUSH2 0x2F3D JUMP JUMPDEST POP DUP6 DUP3 LT ISZERO PUSH2 0x2F7A JUMPI DUP8 DUP6 ADD MLOAD PUSH1 0x0 NOT PUSH1 0x3 DUP9 SWAP1 SHL PUSH1 0xF8 AND SHR NOT AND DUP2 SSTORE JUMPDEST POP POP POP POP POP PUSH1 0x1 SWAP1 DUP2 SHL ADD SWAP1 SSTORE POP JUMP JUMPDEST PUSH1 0x20 DUP1 DUP3 MSTORE PUSH1 0x2C SWAP1 DUP3 ADD MSTORE PUSH32 0x46756E6374696F6E206D7573742062652063616C6C6564207468726F75676820 PUSH1 0x40 DUP3 ADD MSTORE PUSH12 0x19195B1959D85D1958D85B1B PUSH1 0xA2 SHL PUSH1 0x60 DUP3 ADD MSTORE PUSH1 0x80 ADD SWAP1 JUMP JUMPDEST PUSH1 0x20 DUP1 DUP3 MSTORE PUSH1 0x2C SWAP1 DUP3 ADD MSTORE PUSH32 0x46756E6374696F6E206D7573742062652063616C6C6564207468726F75676820 PUSH1 0x40 DUP3 ADD MSTORE PUSH12 0x6163746976652070726F7879 PUSH1 0xA0 SHL PUSH1 0x60 DUP3 ADD MSTORE PUSH1 0x80 ADD SWAP1 JUMP JUMPDEST PUSH1 0x0 PUSH1 0xFF DUP3 AND PUSH1 0xFF DUP2 SUB PUSH2 0x3038 JUMPI PUSH2 0x3038 PUSH2 0x2D56 JUMP JUMPDEST PUSH1 0x1 ADD SWAP3 SWAP2 POP POP JUMP JUMPDEST DUP1 DUP3 MUL DUP2 ISZERO DUP3 DUP3 DIV DUP5 EQ OR PUSH2 0x25C7 JUMPI PUSH2 0x25C7 PUSH2 0x2D56 JUMP JUMPDEST PUSH1 0x0 PUSH1 0x20 DUP3 DUP5 SUB SLT ISZERO PUSH2 0x306A JUMPI PUSH1 0x0 DUP1 REVERT JUMPDEST POP MLOAD SWAP2 SWAP1 POP JUMP JUMPDEST PUSH1 0x20 DUP1 DUP3 MSTORE PUSH1 0x2B SWAP1 DUP3 ADD MSTORE PUSH32 0x496E697469616C697A61626C653A20636F6E7472616374206973206E6F742069 PUSH1 0x40 DUP3 ADD MSTORE PUSH11 0x6E697469616C697A696E67 PUSH1 0xA8 SHL PUSH1 0x60 DUP3 ADD MSTORE PUSH1 0x80 ADD SWAP1 JUMP JUMPDEST PUSH1 0x0 DUP3 MLOAD PUSH2 0x30CE DUP2 DUP5 PUSH1 0x20 DUP8 ADD PUSH2 0x2782 JUMP JUMPDEST SWAP2 SWAP1 SWAP2 ADD SWAP3 SWAP2 POP POP JUMP JUMPDEST PUSH1 0x20 DUP2 MSTORE PUSH1 0x0 PUSH2 0x25E6 PUSH1 0x20 DUP4 ADD DUP5 PUSH2 0x27A6 JUMP INVALID CALLDATASIZE ADDMOD SWAP5 LOG1 EXTCODESIZE LOG1 LOG3 0x21 MOD PUSH8 0xC828492DB98DCA3E KECCAK256 PUSH23 0xCC3735A920A3CA505D382BBC416464726573733A206C6F PUSH24 0x2D6C6576656C2064656C65676174652063616C6C20666169 PUSH13 0x6564A2646970667358221220F4 0xCE POP DUP13 0x29 BYTE CALL 0xF7 PUSH6 0x76BA265CCF24 MULMOD 0xC3 PUSH27 0x3EDA6FB5727FF1764978F5CF65064736F6C634300081200330000 "},"methodIdentifiers":{"addIBPAddressAdmin(address)":"e371c5c5","disableSupportedToken(address[])":"57b88805","getAdminAddress()":"b2e6b912","getAdminFees()":"3238c16f","getBaseCurrencyDecimals()":"c391d636","getCoreMemberRewardRate()":"5397b86d","getCoreMembersContractAddress()":"916452ab","getGlobalRewardRate()":"a46868f0","getIBPList()":"ffc43f8f","getIbpRewardRate()":"e7016717","getIsPayCoreMembersRewards()":"e179719a","getIsPayGlobalRewards()":"1f1eeec8","getIsPayIbpRewards()":"9f6d8870","getIsPayReferralRewards()":"3fae6a11","getIsPayRewardToken()":"2b70c02c","getIsPayWeeklyRewards()":"16dd07e0","getLevelDecimals()":"e7cca9c7","getLevelRates()":"918a54db","getPlanById(uint8)":"0efc12b1","getPlansCount()":"acc91865","getRewardTokenContract()":"65eb204d","getRewardTokenRate()":"e091099c","getSupportedTokenInfo(address)":"e74af32e","getValueBufferRate()":"5f3ad6e2","getWeeklyRewardRate()":"b9cd1a50","initialize()":"8129fc1c","isIBP(address)":"2f8c7e72","isTokenSupported(address)":"75151b63","owner()":"8da5cb5b","pause()":"8456cb59","paused()":"5c975abb","proxiableUUID()":"52d1902d","pushSupportedTokenToList(address,bool,address)":"051ff2b9","removeIBPAddressAdmin(address)":"00b29290","renounceOwnership()":"715018a6","setAdminAddress(address)":"2c1e816d","setAdminFees(uint8)":"6cf3c676","setBaseCurrencyDecimals(uint8)":"a61a4ff3","setCoreMemberRewardRate(uint8)":"a646e845","setCoreMembersContractAddress(address)":"f2a90121","setGlobalRewardRate(uint8)":"af2d4d09","setIbpRewardRate(uint8)":"880c0ec3","setIsPayCoreMembersRewards(bool)":"4ccebd50","setIsPayGlobalRewards(bool)":"93cee9c9","setIsPayIbpRewards(bool)":"5d9bed63","setIsPayReferralRewards(bool)":"b6443562","setIsPayRewardToken(bool)":"eb758bc7","setIsPayWeeklyRewards(bool)":"39e0dcfa","setLevelDecimals(uint16)":"a43ae408","setLevelRates(uint16[])":"d54fcd93","setPlans(uint8[],string[],uint256[],uint256[])":"bcb03b57","setRewardTokenContract(address)":"08fcfbbe","setRewardTokenRate(uint8)":"b7a26620","setValueBufferRate(uint8)":"94debf48","setWeeklyRewardRate(uint8)":"ac40e309","supportedTokensList(uint256)":"63c91877","transferOwnership(address)":"f2fde38b","unpause()":"3f4ba83a","upgradeTo(address)":"3659cfe6","upgradeToAndCall(address,bytes)":"4f1ef286"}},"storageLayout":{"storage":[{"astId":527,"contract":"contracts/VariablesV1Upgradeable.sol:VariablesV1Upgradeable","label":"_initialized","offset":0,"slot":"0","type":"t_uint8"},{"astId":530,"contract":"contracts/VariablesV1Upgradeable.sol:VariablesV1Upgradeable","label":"_initializing","offset":1,"slot":"0","type":"t_bool"},{"astId":1355,"contract":"contracts/VariablesV1Upgradeable.sol:VariablesV1Upgradeable","label":"__gap","offset":0,"slot":"1","type":"t_array(t_uint256)50_storage"},{"astId":846,"contract":"contracts/VariablesV1Upgradeable.sol:VariablesV1Upgradeable","label":"_paused","offset":0,"slot":"51","type":"t_bool"},{"astId":951,"contract":"contracts/VariablesV1Upgradeable.sol:VariablesV1Upgradeable","label":"__gap","offset":0,"slot":"52","type":"t_array(t_uint256)49_storage"},{"astId":10,"contract":"contracts/VariablesV1Upgradeable.sol:VariablesV1Upgradeable","label":"_owner","offset":0,"slot":"101","type":"t_address"},{"astId":130,"contract":"contracts/VariablesV1Upgradeable.sol:VariablesV1Upgradeable","label":"__gap","offset":0,"slot":"102","type":"t_array(t_uint256)49_storage"},{"astId":509,"contract":"contracts/VariablesV1Upgradeable.sol:VariablesV1Upgradeable","label":"__gap","offset":0,"slot":"151","type":"t_array(t_uint256)50_storage"},{"astId":824,"contract":"contracts/VariablesV1Upgradeable.sol:VariablesV1Upgradeable","label":"__gap","offset":0,"slot":"201","type":"t_array(t_uint256)50_storage"},{"astId":3892,"contract":"contracts/VariablesV1Upgradeable.sol:VariablesV1Upgradeable","label":"_levelRates","offset":0,"slot":"251","type":"t_array(t_uint16)dyn_storage"},{"astId":3894,"contract":"contracts/VariablesV1Upgradeable.sol:VariablesV1Upgradeable","label":"_levelDecimals","offset":0,"slot":"252","type":"t_uint16"},{"astId":3896,"contract":"contracts/VariablesV1Upgradeable.sol:VariablesV1Upgradeable","label":"_baseCurrencyDecimals","offset":2,"slot":"252","type":"t_uint8"},{"astId":3898,"contract":"contracts/VariablesV1Upgradeable.sol:VariablesV1Upgradeable","label":"_valueBufferRate","offset":3,"slot":"252","type":"t_uint8"},{"astId":3900,"contract":"contracts/VariablesV1Upgradeable.sol:VariablesV1Upgradeable","label":"_globalRewardRate","offset":4,"slot":"252","type":"t_uint8"},{"astId":3902,"contract":"contracts/VariablesV1Upgradeable.sol:VariablesV1Upgradeable","label":"_weeklyRewardRate","offset":5,"slot":"252","type":"t_uint8"},{"astId":3904,"contract":"contracts/VariablesV1Upgradeable.sol:VariablesV1Upgradeable","label":"_ibpRewardRate","offset":6,"slot":"252","type":"t_uint8"},{"astId":3906,"contract":"contracts/VariablesV1Upgradeable.sol:VariablesV1Upgradeable","label":"_coreMemberRewardRate","offset":7,"slot":"252","type":"t_uint8"},{"astId":3908,"contract":"contracts/VariablesV1Upgradeable.sol:VariablesV1Upgradeable","label":"_adminFees","offset":8,"slot":"252","type":"t_uint8"},{"astId":3910,"contract":"contracts/VariablesV1Upgradeable.sol:VariablesV1Upgradeable","label":"_rewardTokenRate","offset":9,"slot":"252","type":"t_uint8"},{"astId":3912,"contract":"contracts/VariablesV1Upgradeable.sol:VariablesV1Upgradeable","label":"_isPayRewardToken","offset":10,"slot":"252","type":"t_bool"},{"astId":3914,"contract":"contracts/VariablesV1Upgradeable.sol:VariablesV1Upgradeable","label":"_isPayReferralRewards","offset":11,"slot":"252","type":"t_bool"},{"astId":3916,"contract":"contracts/VariablesV1Upgradeable.sol:VariablesV1Upgradeable","label":"_isPayGlobalRewards","offset":12,"slot":"252","type":"t_bool"},{"astId":3918,"contract":"contracts/VariablesV1Upgradeable.sol:VariablesV1Upgradeable","label":"_isPayWeeklyRewards","offset":13,"slot":"252","type":"t_bool"},{"astId":3920,"contract":"contracts/VariablesV1Upgradeable.sol:VariablesV1Upgradeable","label":"_isPayIbpRewards","offset":14,"slot":"252","type":"t_bool"},{"astId":3922,"contract":"contracts/VariablesV1Upgradeable.sol:VariablesV1Upgradeable","label":"_isPayCoreMembersRewards","offset":15,"slot":"252","type":"t_bool"},{"astId":3925,"contract":"contracts/VariablesV1Upgradeable.sol:VariablesV1Upgradeable","label":"supportedTokensList","offset":0,"slot":"253","type":"t_array(t_address)dyn_storage"},{"astId":3928,"contract":"contracts/VariablesV1Upgradeable.sol:VariablesV1Upgradeable","label":"_ibpAddresses","offset":0,"slot":"254","type":"t_array(t_address)dyn_storage"},{"astId":3930,"contract":"contracts/VariablesV1Upgradeable.sol:VariablesV1Upgradeable","label":"_presaleContract","offset":0,"slot":"255","type":"t_address"},{"astId":3932,"contract":"contracts/VariablesV1Upgradeable.sol:VariablesV1Upgradeable","label":"_referralContract","offset":0,"slot":"256","type":"t_address"},{"astId":3934,"contract":"contracts/VariablesV1Upgradeable.sol:VariablesV1Upgradeable","label":"_stakingContract","offset":0,"slot":"257","type":"t_address"},{"astId":3936,"contract":"contracts/VariablesV1Upgradeable.sol:VariablesV1Upgradeable","label":"_ibpContract","offset":0,"slot":"258","type":"t_address"},{"astId":3938,"contract":"contracts/VariablesV1Upgradeable.sol:VariablesV1Upgradeable","label":"_rewardTokenContract","offset":0,"slot":"259","type":"t_address"},{"astId":3940,"contract":"contracts/VariablesV1Upgradeable.sol:VariablesV1Upgradeable","label":"_coreMembersContract","offset":0,"slot":"260","type":"t_address"},{"astId":3942,"contract":"contracts/VariablesV1Upgradeable.sol:VariablesV1Upgradeable","label":"_adminAddress","offset":0,"slot":"261","type":"t_address"},{"astId":3971,"contract":"contracts/VariablesV1Upgradeable.sol:VariablesV1Upgradeable","label":"plans","offset":0,"slot":"262","type":"t_mapping(t_uint8,t_struct(PlanStruct)3951_storage)"},{"astId":3976,"contract":"contracts/VariablesV1Upgradeable.sol:VariablesV1Upgradeable","label":"supportTokens","offset":0,"slot":"263","type":"t_mapping(t_address,t_struct(SupportedTokensStruct)3966_storage)"},{"astId":3980,"contract":"contracts/VariablesV1Upgradeable.sol:VariablesV1Upgradeable","label":"isIBPAddress","offset":0,"slot":"264","type":"t_mapping(t_address,t_bool)"}],"types":{"t_address":{"encoding":"inplace","label":"address","numberOfBytes":"20"},"t_array(t_address)dyn_storage":{"base":"t_address","encoding":"dynamic_array","label":"address[]","numberOfBytes":"32"},"t_array(t_uint16)dyn_storage":{"base":"t_uint16","encoding":"dynamic_array","label":"uint16[]","numberOfBytes":"32"},"t_array(t_uint256)49_storage":{"base":"t_uint256","encoding":"inplace","label":"uint256[49]","numberOfBytes":"1568"},"t_array(t_uint256)50_storage":{"base":"t_uint256","encoding":"inplace","label":"uint256[50]","numberOfBytes":"1600"},"t_bool":{"encoding":"inplace","label":"bool","numberOfBytes":"1"},"t_mapping(t_address,t_bool)":{"encoding":"mapping","key":"t_address","label":"mapping(address => bool)","numberOfBytes":"32","value":"t_bool"},"t_mapping(t_address,t_struct(SupportedTokensStruct)3966_storage)":{"encoding":"mapping","key":"t_address","label":"mapping(address => struct VariablesV1Upgradeable.SupportedTokensStruct)","numberOfBytes":"32","value":"t_struct(SupportedTokensStruct)3966_storage"},"t_mapping(t_uint8,t_struct(PlanStruct)3951_storage)":{"encoding":"mapping","key":"t_uint8","label":"mapping(uint8 => struct VariablesV1Upgradeable.PlanStruct)","numberOfBytes":"32","value":"t_struct(PlanStruct)3951_storage"},"t_string_storage":{"encoding":"bytes","label":"string","numberOfBytes":"32"},"t_struct(PlanStruct)3951_storage":{"encoding":"inplace","label":"struct VariablesV1Upgradeable.PlanStruct","members":[{"astId":3944,"contract":"contracts/VariablesV1Upgradeable.sol:VariablesV1Upgradeable","label":"planId","offset":0,"slot":"0","type":"t_uint8"},{"astId":3946,"contract":"contracts/VariablesV1Upgradeable.sol:VariablesV1Upgradeable","label":"name","offset":0,"slot":"1","type":"t_string_storage"},{"astId":3948,"contract":"contracts/VariablesV1Upgradeable.sol:VariablesV1Upgradeable","label":"value","offset":0,"slot":"2","type":"t_uint256"},{"astId":3950,"contract":"contracts/VariablesV1Upgradeable.sol:VariablesV1Upgradeable","label":"maxLimitMultiplier","offset":0,"slot":"3","type":"t_uint256"}],"numberOfBytes":"128"},"t_struct(SupportedTokensStruct)3966_storage":{"encoding":"inplace","label":"struct VariablesV1Upgradeable.SupportedTokensStruct","members":[{"astId":3953,"contract":"contracts/VariablesV1Upgradeable.sol:VariablesV1Upgradeable","label":"contractAddress","offset":0,"slot":"0","type":"t_address"},{"astId":3955,"contract":"contracts/VariablesV1Upgradeable.sol:VariablesV1Upgradeable","label":"name","offset":0,"slot":"1","type":"t_string_storage"},{"astId":3957,"contract":"contracts/VariablesV1Upgradeable.sol:VariablesV1Upgradeable","label":"symbol","offset":0,"slot":"2","type":"t_string_storage"},{"astId":3959,"contract":"contracts/VariablesV1Upgradeable.sol:VariablesV1Upgradeable","label":"decimals","offset":0,"slot":"3","type":"t_uint8"},{"astId":3961,"contract":"contracts/VariablesV1Upgradeable.sol:VariablesV1Upgradeable","label":"isStable","offset":1,"slot":"3","type":"t_bool"},{"astId":3963,"contract":"contracts/VariablesV1Upgradeable.sol:VariablesV1Upgradeable","label":"aggregatorAddress","offset":2,"slot":"3","type":"t_address"},{"astId":3965,"contract":"contracts/VariablesV1Upgradeable.sol:VariablesV1Upgradeable","label":"isEnaled","offset":22,"slot":"3","type":"t_bool"}],"numberOfBytes":"128"},"t_uint16":{"encoding":"inplace","label":"uint16","numberOfBytes":"2"},"t_uint256":{"encoding":"inplace","label":"uint256","numberOfBytes":"32"},"t_uint8":{"encoding":"inplace","label":"uint8","numberOfBytes":"1"}}}}}}