{"contracts/ShareBalanceV1Upgradeable.sol":{"ShareBalanceUpgradeable":{"abi":[{"anonymous":false,"inputs":[{"indexed":false,"internalType":"address","name":"previousAdmin","type":"address"},{"indexed":false,"internalType":"address","name":"newAdmin","type":"address"}],"name":"AdminChanged","type":"event"},{"anonymous":false,"inputs":[{"indexed":true,"internalType":"address","name":"beacon","type":"address"}],"name":"BeaconUpgraded","type":"event"},{"anonymous":false,"inputs":[{"indexed":false,"internalType":"uint8","name":"version","type":"uint8"}],"name":"Initialized","type":"event"},{"anonymous":false,"inputs":[{"indexed":true,"internalType":"address","name":"previousOwner","type":"address"},{"indexed":true,"internalType":"address","name":"newOwner","type":"address"}],"name":"OwnershipTransferred","type":"event"},{"anonymous":false,"inputs":[{"indexed":false,"internalType":"address","name":"account","type":"address"}],"name":"Paused","type":"event"},{"anonymous":false,"inputs":[{"indexed":false,"internalType":"address","name":"account","type":"address"}],"name":"Unpaused","type":"event"},{"anonymous":false,"inputs":[{"indexed":true,"internalType":"address","name":"implementation","type":"address"}],"name":"Upgraded","type":"event"},{"anonymous":false,"inputs":[{"indexed":false,"internalType":"address","name":"userAddress","type":"address"}],"name":"UserAdded","type":"event"},{"anonymous":false,"inputs":[{"indexed":false,"internalType":"address","name":"userAddress","type":"address"}],"name":"UserRemoved","type":"event"},{"anonymous":false,"inputs":[{"indexed":false,"internalType":"address","name":"userAddress","type":"address"},{"indexed":false,"internalType":"uint256","name":"value","type":"uint256"},{"indexed":false,"internalType":"uint256","name":"totalValue","type":"uint256"},{"indexed":false,"internalType":"uint256","name":"totalMembers","type":"uint256"}],"name":"WithdrawNative","type":"event"},{"anonymous":false,"inputs":[{"indexed":false,"internalType":"address","name":"tokenAddress","type":"address"},{"indexed":false,"internalType":"address","name":"userAddress","type":"address"},{"indexed":false,"internalType":"uint256","name":"value","type":"uint256"},{"indexed":false,"internalType":"uint256","name":"totalValue","type":"uint256"},{"indexed":false,"internalType":"uint256","name":"totalMembers","type":"uint256"}],"name":"WithdrawToken","type":"event"},{"inputs":[{"internalType":"address","name":"_userAddress","type":"address"}],"name":"addUser","outputs":[],"stateMutability":"nonpayable","type":"function"},{"inputs":[],"name":"distributeETH","outputs":[],"stateMutability":"nonpayable","type":"function"},{"inputs":[{"internalType":"address","name":"_tokenContract","type":"address"}],"name":"distributeToken","outputs":[],"stateMutability":"nonpayable","type":"function"},{"inputs":[],"name":"getAdminAddress","outputs":[{"internalType":"address","name":"","type":"address"}],"stateMutability":"view","type":"function"},{"inputs":[],"name":"getAdminShare","outputs":[{"internalType":"uint8","name":"","type":"uint8"}],"stateMutability":"view","type":"function"},{"inputs":[],"name":"getusersList","outputs":[{"internalType":"address[]","name":"usersList","type":"address[]"},{"internalType":"uint256","name":"usersCount","type":"uint256"}],"stateMutability":"view","type":"function"},{"inputs":[],"name":"initialize","outputs":[],"stateMutability":"nonpayable","type":"function"},{"inputs":[{"internalType":"address","name":"_userAddress","type":"address"}],"name":"isUserInList","outputs":[{"internalType":"bool","name":"","type":"bool"}],"stateMutability":"view","type":"function"},{"inputs":[],"name":"owner","outputs":[{"internalType":"address","name":"","type":"address"}],"stateMutability":"view","type":"function"},{"inputs":[],"name":"pause","outputs":[],"stateMutability":"nonpayable","type":"function"},{"inputs":[],"name":"paused","outputs":[{"internalType":"bool","name":"","type":"bool"}],"stateMutability":"view","type":"function"},{"inputs":[],"name":"proxiableUUID","outputs":[{"internalType":"bytes32","name":"","type":"bytes32"}],"stateMutability":"view","type":"function"},{"inputs":[{"internalType":"address","name":"_userAddress","type":"address"}],"name":"removeUser","outputs":[],"stateMutability":"nonpayable","type":"function"},{"inputs":[],"name":"renounceOwnership","outputs":[],"stateMutability":"nonpayable","type":"function"},{"inputs":[{"internalType":"address","name":"_newAdminAddress","type":"address"}],"name":"setAdminAddress","outputs":[],"stateMutability":"nonpayable","type":"function"},{"inputs":[{"internalType":"uint8","name":"_valueInPer","type":"uint8"}],"name":"setAdminShare","outputs":[],"stateMutability":"nonpayable","type":"function"},{"inputs":[{"internalType":"address","name":"newOwner","type":"address"}],"name":"transferOwnership","outputs":[],"stateMutability":"nonpayable","type":"function"},{"inputs":[],"name":"unpause","outputs":[],"stateMutability":"nonpayable","type":"function"},{"inputs":[{"internalType":"address","name":"newImplementation","type":"address"}],"name":"upgradeTo","outputs":[],"stateMutability":"nonpayable","type":"function"},{"inputs":[{"internalType":"address","name":"newImplementation","type":"address"},{"internalType":"bytes","name":"data","type":"bytes"}],"name":"upgradeToAndCall","outputs":[],"stateMutability":"payable","type":"function"}],"evm":{"bytecode":{"linkReferences":{},"object":"60a06040523060805234801561001457600080fd5b50608051611baf61004c600039600081816103c10152818161040a0152818161054801528181610588015261061b0152611baf6000f3fe60806040526004361061011f5760003560e01c806381237900116100a0578063985751881161006457806398575188146102fa578063b2e6b9121461031a578063b8b9b54914610338578063de45bbd11461034d578063f2fde38b1461036d57600080fd5b8063812379001461025b5780638129fc1c1461027e5780638456cb591461029357806386d74037146102a85780638da5cb5b146102c857600080fd5b80634f1ef286116100e75780634f1ef286146101cc57806352d1902d146101df5780635c975abb1461020257806369088d5d14610226578063715018a61461024657600080fd5b80631bd4fb7a146101245780632c1e816d146101555780633659cfe6146101775780633f4ba83a14610197578063421b2d8b146101ac575b600080fd5b34801561013057600080fd5b5060fc54600160a01b900460ff1660405160ff90911681526020015b60405180910390f35b34801561016157600080fd5b5061017561017036600461178b565b61038d565b005b34801561018357600080fd5b5061017561019236600461178b565b6103b7565b3480156101a357600080fd5b5061017561049f565b3480156101b857600080fd5b506101756101c736600461178b565b6104b1565b6101756101da3660046117bc565b61053e565b3480156101eb57600080fd5b506101f461060e565b60405190815260200161014c565b34801561020e57600080fd5b5060335460ff165b604051901515815260200161014c565b34801561023257600080fd5b5061017561024136600461187e565b6106c1565b34801561025257600080fd5b506101756106e9565b34801561026757600080fd5b506102706106fb565b60405161014c9291906118a1565b34801561028a57600080fd5b50610175610767565b34801561029f57600080fd5b506101756108a8565b3480156102b457600080fd5b506101756102c336600461178b565b6108b8565b3480156102d457600080fd5b506065546001600160a01b03165b6040516001600160a01b03909116815260200161014c565b34801561030657600080fd5b5061017561031536600461178b565b610bee565b34801561032657600080fd5b5060fc546001600160a01b03166102e2565b34801561034457600080fd5b50610175610d92565b34801561035957600080fd5b5061021661036836600461178b565b610fbd565b34801561037957600080fd5b5061017561038836600461178b565b61108e565b610395611104565b60fc80546001600160a01b0319166001600160a01b0392909216919091179055565b6001600160a01b037f00000000000000000000000000000000000000000000000000000000000000001630036104085760405162461bcd60e51b81526004016103ff906118f2565b60405180910390fd5b7f00000000000000000000000000000000000000000000000000000000000000006001600160a01b0316610451600080516020611b33833981519152546001600160a01b031690565b6001600160a01b0316146104775760405162461bcd60e51b81526004016103ff9061193e565b6104808161115e565b6040805160008082526020820190925261049c91839190611166565b50565b6104a7611104565b6104af6112d6565b565b6104b9611104565b60fb80546001810182556000919091527f3e7257b7272bb46d49cd6019b04ddee20da7c0cb13f7c1ec3391291b2ccebabc0180546001600160a01b0319166001600160a01b0383169081179091556040519081527f19ef9a4877199f89440a26acb26895ec02ed86f2df1aeaa90dc18041b892f71f906020015b60405180910390a150565b6001600160a01b037f00000000000000000000000000000000000000000000000000000000000000001630036105865760405162461bcd60e51b81526004016103ff906118f2565b7f00000000000000000000000000000000000000000000000000000000000000006001600160a01b03166105cf600080516020611b33833981519152546001600160a01b031690565b6001600160a01b0316146105f55760405162461bcd60e51b81526004016103ff9061193e565b6105fe8261115e565b61060a82826001611166565b5050565b6000306001600160a01b037f000000000000000000000000000000000000000000000000000000000000000016146106ae5760405162461bcd60e51b815260206004820152603860248201527f555550535570677261646561626c653a206d757374206e6f742062652063616c60448201527f6c6564207468726f7567682064656c656761746563616c6c000000000000000060648201526084016103ff565b50600080516020611b3383398151915290565b6106c9611104565b60fc805460ff909216600160a01b0260ff60a01b19909216919091179055565b6106f1611104565b6104af6000611328565b6060600060fb80548060200260200160405190810160405280929190818152602001828054801561075557602002820191906000526020600020905b81546001600160a01b03168152600190910190602001808311610737575b505060fb549396939550929350505050565b600054610100900460ff16158080156107875750600054600160ff909116105b806107a15750303b1580156107a1575060005460ff166001145b6108045760405162461bcd60e51b815260206004820152602e60248201527f496e697469616c697a61626c653a20636f6e747261637420697320616c72656160448201526d191e481a5b9a5d1a585b1a5e995960921b60648201526084016103ff565b6000805460ff191660011790558015610827576000805461ff0019166101001790555b60fc80546001600160a81b0319167446a6ad793c60fd03137a324b7ddc1a5c66d18eebde17905561085661137a565b61085e6113a9565b6108666113d8565b801561049c576000805461ff0019169055604051600181527f7f26b83ff96e1f2b6a682f133852f6798a09c465da95921460cefb384740249890602001610533565b6108b0611104565b6104af6113ff565b600060fb80548060200260200160405190810160405280929190818152602001828054801561091057602002820191906000526020600020905b81546001600160a01b031681526001909101906020018083116108f2575b505083516040516370a0823160e01b815230600482015294955093600093506001600160a01b03871692506370a082319150602401602060405180830381865afa158015610962573d6000803e3d6000fd5b505050506040513d601f19601f82011682018060405250810190610986919061198a565b60fc549091506000906064906109a690600160a01b900460ff16846119b9565b6109b091906119d0565b905060006109be82846119f2565b905060006109cc85836119d0565b60fc5460405163a9059cbb60e01b81526001600160a01b0391821660048201526024810186905291925088169063a9059cbb906044016020604051808303816000875af1158015610a21573d6000803e3d6000fd5b505050506040513d601f19601f82011682018060405250810190610a459190611a05565b5060fc54604080516001600160a01b03808b1682529092166020830152810184905260608101859052608081018690527fc787e2dfdaea513103b8186b30d608da4212005161d60b3ce864e63907efafc69060a00160405180910390a160005b858161ffff161015610be457876001600160a01b031663a9059cbb888361ffff1681518110610ad657610ad6611a27565b6020026020010151846040518363ffffffff1660e01b8152600401610b109291906001600160a01b03929092168252602082015260400190565b6020604051808303816000875af1158015610b2f573d6000803e3d6000fd5b505050506040513d601f19601f82011682018060405250810190610b539190611a05565b507fc787e2dfdaea513103b8186b30d608da4212005161d60b3ce864e63907efafc688888361ffff1681518110610b8c57610b8c611a27565b602090810291909101810151604080516001600160a01b03948516815293909116918301919091528101859052606081018790526080810188905260a00160405180910390a180610bdc81611a3d565b915050610aa5565b5050505050505050565b610bf6611104565b600060fb805480602002602001604051908101604052809291908181526020018280548015610c4e57602002820191906000526020600020905b81546001600160a01b03168152600190910190602001808311610c30575b505083519394506000925050505b818161ffff161015610d8c57828161ffff1681518110610c7e57610c7e611a27565b60200260200101516001600160a01b0316846001600160a01b031603610d3e578260018451610cad91906119f2565b81518110610cbd57610cbd611a27565b602002602001015160fb8261ffff1681548110610cdc57610cdc611a27565b9060005260206000200160006101000a8154816001600160a01b0302191690836001600160a01b0316021790555060fb805480610d1b57610d1b611a5e565b600082815260209020810160001990810180546001600160a01b03191690550190555b6040516001600160a01b03851681527fe9dce8c992623ce791725b21e857e33248d1f190a25b5168313420eebdaae99d9060200160405180910390a180610d8481611a3d565b915050610c5c565b50505050565b600060fb805480602002602001604051908101604052809291908181526020018280548015610dea57602002820191906000526020600020905b81546001600160a01b03168152600190910190602001808311610dcc575b5050835160fc54949550934793506000925060649150610e1490600160a01b900460ff16846119b9565b610e1e91906119d0565b90506000610e2c82846119f2565b90506000610e3a85836119d0565b60fc546040519192506001600160a01b03169084156108fc029085906000818181858888f19350505050158015610e75573d6000803e3d6000fd5b5060fc54604080516001600160a01b039092168252602082018590528101859052606081018690527ffcf24b8583d2292a6decc9bf77b195c3be12ef70f20dbd3aee29227cce788b3e9060800160405180910390a160005b858161ffff161015610fb457868161ffff1681518110610eef57610eef611a27565b60200260200101516001600160a01b03166108fc839081150290604051600060405180830381858888f19350505050158015610f2f573d6000803e3d6000fd5b507ffcf24b8583d2292a6decc9bf77b195c3be12ef70f20dbd3aee29227cce788b3e878261ffff1681518110610f6757610f67611a27565b602090810291909101810151604080516001600160a01b0390921682529181018590529081018790526060810188905260800160405180910390a180610fac81611a3d565b915050610ecd565b50505050505050565b60008060fb80548060200260200160405190810160405280929190818152602001828054801561101657602002820191906000526020600020905b81546001600160a01b03168152600190910190602001808311610ff8575b505083519394506000925050505b818161ffff16101561108357828161ffff168151811061104657611046611a27565b60200260200101516001600160a01b0316856001600160a01b03160361107157506001949350505050565b8061107b81611a3d565b915050611024565b506000949350505050565b611096611104565b6001600160a01b0381166110fb5760405162461bcd60e51b815260206004820152602660248201527f4f776e61626c653a206e6577206f776e657220697320746865207a65726f206160448201526564647265737360d01b60648201526084016103ff565b61049c81611328565b6065546001600160a01b031633146104af5760405162461bcd60e51b815260206004820181905260248201527f4f776e61626c653a2063616c6c6572206973206e6f7420746865206f776e657260448201526064016103ff565b61049c611104565b7f4910fdfa16fed3260ed0e7147f7cc6da11a60208b5b9406d12a635614ffd91435460ff161561119e576111998361143c565b505050565b826001600160a01b03166352d1902d6040518163ffffffff1660e01b8152600401602060405180830381865afa9250505080156111f8575060408051601f3d908101601f191682019092526111f59181019061198a565b60015b61125b5760405162461bcd60e51b815260206004820152602e60248201527f45524331393637557067726164653a206e657720696d706c656d656e7461746960448201526d6f6e206973206e6f74205555505360901b60648201526084016103ff565b600080516020611b3383398151915281146112ca5760405162461bcd60e51b815260206004820152602960248201527f45524331393637557067726164653a20756e737570706f727465642070726f786044820152681a58589b195555525160ba1b60648201526084016103ff565b506111998383836114d8565b6112de6114fd565b6033805460ff191690557f5db9ee0a495bf2e6ff9c91a7834c1ba4fdd244a5e8aa4e537bd38aeae4b073aa335b6040516001600160a01b03909116815260200160405180910390a1565b606580546001600160a01b038381166001600160a01b0319831681179093556040519116919082907f8be0079c531659141344cd1fd0a4f28419497f9722a3daafe3b4186f6b6457e090600090a35050565b600054610100900460ff166113a15760405162461bcd60e51b81526004016103ff90611a74565b6104af611546565b600054610100900460ff166113d05760405162461bcd60e51b81526004016103ff90611a74565b6104af611579565b600054610100900460ff166104af5760405162461bcd60e51b81526004016103ff90611a74565b6114076115a9565b6033805460ff191660011790557f62e78cea01bee320cd4e420270b5ea74000d11b0c9f74754ebdbfc544b05a25861130b3390565b6001600160a01b0381163b6114a95760405162461bcd60e51b815260206004820152602d60248201527f455243313936373a206e657720696d706c656d656e746174696f6e206973206e60448201526c1bdd08184818dbdb9d1c9858dd609a1b60648201526084016103ff565b600080516020611b3383398151915280546001600160a01b0319166001600160a01b0392909216919091179055565b6114e1836115ef565b6000825111806114ee5750805b1561119957610d8c838361162f565b60335460ff166104af5760405162461bcd60e51b815260206004820152601460248201527314185d5cd8589b194e881b9bdd081c185d5cd95960621b60448201526064016103ff565b600054610100900460ff1661156d5760405162461bcd60e51b81526004016103ff90611a74565b6033805460ff19169055565b600054610100900460ff166115a05760405162461bcd60e51b81526004016103ff90611a74565b6104af33611328565b60335460ff16156104af5760405162461bcd60e51b815260206004820152601060248201526f14185d5cd8589b194e881c185d5cd95960821b60448201526064016103ff565b6115f88161143c565b6040516001600160a01b038216907fbc7cd75a20ee27fd9adebab32041f755214dbc6bffa90cc0225b39da2e5c2d3b90600090a250565b60606001600160a01b0383163b6116975760405162461bcd60e51b815260206004820152602660248201527f416464726573733a2064656c65676174652063616c6c20746f206e6f6e2d636f6044820152651b9d1c9858dd60d21b60648201526084016103ff565b600080846001600160a01b0316846040516116b29190611ae3565b600060405180830381855af49150503d80600081146116ed576040519150601f19603f3d011682016040523d82523d6000602084013e6116f2565b606091505b509150915061171a8282604051806060016040528060278152602001611b5360279139611725565b925050505b92915050565b6060831561173457508161173e565b61173e8383611745565b9392505050565b8151156117555781518083602001fd5b8060405162461bcd60e51b81526004016103ff9190611aff565b80356001600160a01b038116811461178657600080fd5b919050565b60006020828403121561179d57600080fd5b61173e8261176f565b634e487b7160e01b600052604160045260246000fd5b600080604083850312156117cf57600080fd5b6117d88361176f565b9150602083013567ffffffffffffffff808211156117f557600080fd5b818501915085601f83011261180957600080fd5b81358181111561181b5761181b6117a6565b604051601f8201601f19908116603f01168101908382118183101715611843576118436117a6565b8160405282815288602084870101111561185c57600080fd5b8260208601602083013760006020848301015280955050505050509250929050565b60006020828403121561189057600080fd5b813560ff8116811461173e57600080fd5b604080825283519082018190526000906020906060840190828701845b828110156118e35781516001600160a01b0316845292840192908401906001016118be565b50505092019290925292915050565b6020808252602c908201527f46756e6374696f6e206d7573742062652063616c6c6564207468726f7567682060408201526b19195b1959d85d1958d85b1b60a21b606082015260800190565b6020808252602c908201527f46756e6374696f6e206d7573742062652063616c6c6564207468726f7567682060408201526b6163746976652070726f787960a01b606082015260800190565b60006020828403121561199c57600080fd5b5051919050565b634e487b7160e01b600052601160045260246000fd5b808202811582820484141761171f5761171f6119a3565b6000826119ed57634e487b7160e01b600052601260045260246000fd5b500490565b8181038181111561171f5761171f6119a3565b600060208284031215611a1757600080fd5b8151801515811461173e57600080fd5b634e487b7160e01b600052603260045260246000fd5b600061ffff808316818103611a5457611a546119a3565b6001019392505050565b634e487b7160e01b600052603160045260246000fd5b6020808252602b908201527f496e697469616c697a61626c653a20636f6e7472616374206973206e6f74206960408201526a6e697469616c697a696e6760a81b606082015260800190565b60005b83811015611ada578181015183820152602001611ac2565b50506000910152565b60008251611af5818460208701611abf565b9190910192915050565b6020815260008251806020840152611b1e816040850160208701611abf565b601f01601f1916919091016040019291505056fe360894a13ba1a3210667c828492db98dca3e2076cc3735a920a3ca505d382bbc416464726573733a206c6f772d6c6576656c2064656c65676174652063616c6c206661696c6564a2646970667358221220e58685e6f30965f78f997d4d2c087dac6f33a0834c6e5b75cb3a599bddaefe0964736f6c63430008120033","opcodes":"PUSH1 0xA0 PUSH1 0x40 MSTORE ADDRESS PUSH1 0x80 MSTORE CALLVALUE DUP1 ISZERO PUSH2 0x14 JUMPI PUSH1 0x0 DUP1 REVERT JUMPDEST POP PUSH1 0x80 MLOAD PUSH2 0x1BAF PUSH2 0x4C PUSH1 0x0 CODECOPY PUSH1 0x0 DUP2 DUP2 PUSH2 0x3C1 ADD MSTORE DUP2 DUP2 PUSH2 0x40A ADD MSTORE DUP2 DUP2 PUSH2 0x548 ADD MSTORE DUP2 DUP2 PUSH2 0x588 ADD MSTORE PUSH2 0x61B ADD MSTORE PUSH2 0x1BAF PUSH1 0x0 RETURN INVALID PUSH1 0x80 PUSH1 0x40 MSTORE PUSH1 0x4 CALLDATASIZE LT PUSH2 0x11F JUMPI PUSH1 0x0 CALLDATALOAD PUSH1 0xE0 SHR DUP1 PUSH4 0x81237900 GT PUSH2 0xA0 JUMPI DUP1 PUSH4 0x98575188 GT PUSH2 0x64 JUMPI DUP1 PUSH4 0x98575188 EQ PUSH2 0x2FA JUMPI DUP1 PUSH4 0xB2E6B912 EQ PUSH2 0x31A JUMPI DUP1 PUSH4 0xB8B9B549 EQ PUSH2 0x338 JUMPI DUP1 PUSH4 0xDE45BBD1 EQ PUSH2 0x34D JUMPI DUP1 PUSH4 0xF2FDE38B EQ PUSH2 0x36D JUMPI PUSH1 0x0 DUP1 REVERT JUMPDEST DUP1 PUSH4 0x81237900 EQ PUSH2 0x25B JUMPI DUP1 PUSH4 0x8129FC1C EQ PUSH2 0x27E JUMPI DUP1 PUSH4 0x8456CB59 EQ PUSH2 0x293 JUMPI DUP1 PUSH4 0x86D74037 EQ PUSH2 0x2A8 JUMPI DUP1 PUSH4 0x8DA5CB5B EQ PUSH2 0x2C8 JUMPI PUSH1 0x0 DUP1 REVERT JUMPDEST DUP1 PUSH4 0x4F1EF286 GT PUSH2 0xE7 JUMPI DUP1 PUSH4 0x4F1EF286 EQ PUSH2 0x1CC JUMPI DUP1 PUSH4 0x52D1902D EQ PUSH2 0x1DF JUMPI DUP1 PUSH4 0x5C975ABB EQ PUSH2 0x202 JUMPI DUP1 PUSH4 0x69088D5D EQ PUSH2 0x226 JUMPI DUP1 PUSH4 0x715018A6 EQ PUSH2 0x246 JUMPI PUSH1 0x0 DUP1 REVERT JUMPDEST DUP1 PUSH4 0x1BD4FB7A EQ PUSH2 0x124 JUMPI DUP1 PUSH4 0x2C1E816D EQ PUSH2 0x155 JUMPI DUP1 PUSH4 0x3659CFE6 EQ PUSH2 0x177 JUMPI DUP1 PUSH4 0x3F4BA83A EQ PUSH2 0x197 JUMPI DUP1 PUSH4 0x421B2D8B EQ PUSH2 0x1AC JUMPI JUMPDEST PUSH1 0x0 DUP1 REVERT JUMPDEST CALLVALUE DUP1 ISZERO PUSH2 0x130 JUMPI PUSH1 0x0 DUP1 REVERT JUMPDEST POP PUSH1 0xFC SLOAD PUSH1 0x1 PUSH1 0xA0 SHL SWAP1 DIV PUSH1 0xFF AND PUSH1 0x40 MLOAD PUSH1 0xFF SWAP1 SWAP2 AND DUP2 MSTORE PUSH1 0x20 ADD JUMPDEST PUSH1 0x40 MLOAD DUP1 SWAP2 SUB SWAP1 RETURN JUMPDEST CALLVALUE DUP1 ISZERO PUSH2 0x161 JUMPI PUSH1 0x0 DUP1 REVERT JUMPDEST POP PUSH2 0x175 PUSH2 0x170 CALLDATASIZE PUSH1 0x4 PUSH2 0x178B JUMP JUMPDEST PUSH2 0x38D JUMP JUMPDEST STOP JUMPDEST CALLVALUE DUP1 ISZERO PUSH2 0x183 JUMPI PUSH1 0x0 DUP1 REVERT JUMPDEST POP PUSH2 0x175 PUSH2 0x192 CALLDATASIZE PUSH1 0x4 PUSH2 0x178B JUMP JUMPDEST PUSH2 0x3B7 JUMP JUMPDEST CALLVALUE DUP1 ISZERO PUSH2 0x1A3 JUMPI PUSH1 0x0 DUP1 REVERT JUMPDEST POP PUSH2 0x175 PUSH2 0x49F JUMP JUMPDEST CALLVALUE DUP1 ISZERO PUSH2 0x1B8 JUMPI PUSH1 0x0 DUP1 REVERT JUMPDEST POP PUSH2 0x175 PUSH2 0x1C7 CALLDATASIZE PUSH1 0x4 PUSH2 0x178B JUMP JUMPDEST PUSH2 0x4B1 JUMP JUMPDEST PUSH2 0x175 PUSH2 0x1DA CALLDATASIZE PUSH1 0x4 PUSH2 0x17BC JUMP JUMPDEST PUSH2 0x53E JUMP JUMPDEST CALLVALUE DUP1 ISZERO PUSH2 0x1EB JUMPI PUSH1 0x0 DUP1 REVERT JUMPDEST POP PUSH2 0x1F4 PUSH2 0x60E JUMP JUMPDEST PUSH1 0x40 MLOAD SWAP1 DUP2 MSTORE PUSH1 0x20 ADD PUSH2 0x14C JUMP JUMPDEST CALLVALUE DUP1 ISZERO PUSH2 0x20E JUMPI PUSH1 0x0 DUP1 REVERT JUMPDEST POP PUSH1 0x33 SLOAD PUSH1 0xFF AND JUMPDEST PUSH1 0x40 MLOAD SWAP1 ISZERO ISZERO DUP2 MSTORE PUSH1 0x20 ADD PUSH2 0x14C JUMP JUMPDEST CALLVALUE DUP1 ISZERO PUSH2 0x232 JUMPI PUSH1 0x0 DUP1 REVERT JUMPDEST POP PUSH2 0x175 PUSH2 0x241 CALLDATASIZE PUSH1 0x4 PUSH2 0x187E JUMP JUMPDEST PUSH2 0x6C1 JUMP JUMPDEST CALLVALUE DUP1 ISZERO PUSH2 0x252 JUMPI PUSH1 0x0 DUP1 REVERT JUMPDEST POP PUSH2 0x175 PUSH2 0x6E9 JUMP JUMPDEST CALLVALUE DUP1 ISZERO PUSH2 0x267 JUMPI PUSH1 0x0 DUP1 REVERT JUMPDEST POP PUSH2 0x270 PUSH2 0x6FB JUMP JUMPDEST PUSH1 0x40 MLOAD PUSH2 0x14C SWAP3 SWAP2 SWAP1 PUSH2 0x18A1 JUMP JUMPDEST CALLVALUE DUP1 ISZERO PUSH2 0x28A JUMPI PUSH1 0x0 DUP1 REVERT JUMPDEST POP PUSH2 0x175 PUSH2 0x767 JUMP JUMPDEST CALLVALUE DUP1 ISZERO PUSH2 0x29F JUMPI PUSH1 0x0 DUP1 REVERT JUMPDEST POP PUSH2 0x175 PUSH2 0x8A8 JUMP JUMPDEST CALLVALUE DUP1 ISZERO PUSH2 0x2B4 JUMPI PUSH1 0x0 DUP1 REVERT JUMPDEST POP PUSH2 0x175 PUSH2 0x2C3 CALLDATASIZE PUSH1 0x4 PUSH2 0x178B JUMP JUMPDEST PUSH2 0x8B8 JUMP JUMPDEST CALLVALUE DUP1 ISZERO PUSH2 0x2D4 JUMPI PUSH1 0x0 DUP1 REVERT JUMPDEST POP PUSH1 0x65 SLOAD PUSH1 0x1 PUSH1 0x1 PUSH1 0xA0 SHL SUB AND JUMPDEST PUSH1 0x40 MLOAD PUSH1 0x1 PUSH1 0x1 PUSH1 0xA0 SHL SUB SWAP1 SWAP2 AND DUP2 MSTORE PUSH1 0x20 ADD PUSH2 0x14C JUMP JUMPDEST CALLVALUE DUP1 ISZERO PUSH2 0x306 JUMPI PUSH1 0x0 DUP1 REVERT JUMPDEST POP PUSH2 0x175 PUSH2 0x315 CALLDATASIZE PUSH1 0x4 PUSH2 0x178B JUMP JUMPDEST PUSH2 0xBEE JUMP JUMPDEST CALLVALUE DUP1 ISZERO PUSH2 0x326 JUMPI PUSH1 0x0 DUP1 REVERT JUMPDEST POP PUSH1 0xFC SLOAD PUSH1 0x1 PUSH1 0x1 PUSH1 0xA0 SHL SUB AND PUSH2 0x2E2 JUMP JUMPDEST CALLVALUE DUP1 ISZERO PUSH2 0x344 JUMPI PUSH1 0x0 DUP1 REVERT JUMPDEST POP PUSH2 0x175 PUSH2 0xD92 JUMP JUMPDEST CALLVALUE DUP1 ISZERO PUSH2 0x359 JUMPI PUSH1 0x0 DUP1 REVERT JUMPDEST POP PUSH2 0x216 PUSH2 0x368 CALLDATASIZE PUSH1 0x4 PUSH2 0x178B JUMP JUMPDEST PUSH2 0xFBD JUMP JUMPDEST CALLVALUE DUP1 ISZERO PUSH2 0x379 JUMPI PUSH1 0x0 DUP1 REVERT JUMPDEST POP PUSH2 0x175 PUSH2 0x388 CALLDATASIZE PUSH1 0x4 PUSH2 0x178B JUMP JUMPDEST PUSH2 0x108E JUMP JUMPDEST PUSH2 0x395 PUSH2 0x1104 JUMP JUMPDEST PUSH1 0xFC DUP1 SLOAD PUSH1 0x1 PUSH1 0x1 PUSH1 0xA0 SHL SUB NOT AND PUSH1 0x1 PUSH1 0x1 PUSH1 0xA0 SHL SUB SWAP3 SWAP1 SWAP3 AND SWAP2 SWAP1 SWAP2 OR SWAP1 SSTORE JUMP JUMPDEST PUSH1 0x1 PUSH1 0x1 PUSH1 0xA0 SHL SUB PUSH32 0x0 AND ADDRESS SUB PUSH2 0x408 JUMPI PUSH1 0x40 MLOAD PUSH3 0x461BCD PUSH1 0xE5 SHL DUP2 MSTORE PUSH1 0x4 ADD PUSH2 0x3FF SWAP1 PUSH2 0x18F2 JUMP JUMPDEST PUSH1 0x40 MLOAD DUP1 SWAP2 SUB SWAP1 REVERT JUMPDEST PUSH32 0x0 PUSH1 0x1 PUSH1 0x1 PUSH1 0xA0 SHL SUB AND PUSH2 0x451 PUSH1 0x0 DUP1 MLOAD PUSH1 0x20 PUSH2 0x1B33 DUP4 CODECOPY DUP2 MLOAD SWAP2 MSTORE SLOAD PUSH1 0x1 PUSH1 0x1 PUSH1 0xA0 SHL SUB AND SWAP1 JUMP JUMPDEST PUSH1 0x1 PUSH1 0x1 PUSH1 0xA0 SHL SUB AND EQ PUSH2 0x477 JUMPI PUSH1 0x40 MLOAD PUSH3 0x461BCD PUSH1 0xE5 SHL DUP2 MSTORE PUSH1 0x4 ADD PUSH2 0x3FF SWAP1 PUSH2 0x193E JUMP JUMPDEST PUSH2 0x480 DUP2 PUSH2 0x115E JUMP JUMPDEST PUSH1 0x40 DUP1 MLOAD PUSH1 0x0 DUP1 DUP3 MSTORE PUSH1 0x20 DUP3 ADD SWAP1 SWAP3 MSTORE PUSH2 0x49C SWAP2 DUP4 SWAP2 SWAP1 PUSH2 0x1166 JUMP JUMPDEST POP JUMP JUMPDEST PUSH2 0x4A7 PUSH2 0x1104 JUMP JUMPDEST PUSH2 0x4AF PUSH2 0x12D6 JUMP JUMPDEST JUMP JUMPDEST PUSH2 0x4B9 PUSH2 0x1104 JUMP JUMPDEST PUSH1 0xFB DUP1 SLOAD PUSH1 0x1 DUP2 ADD DUP3 SSTORE PUSH1 0x0 SWAP2 SWAP1 SWAP2 MSTORE PUSH32 0x3E7257B7272BB46D49CD6019B04DDEE20DA7C0CB13F7C1EC3391291B2CCEBABC ADD DUP1 SLOAD PUSH1 0x1 PUSH1 0x1 PUSH1 0xA0 SHL SUB NOT AND PUSH1 0x1 PUSH1 0x1 PUSH1 0xA0 SHL SUB DUP4 AND SWAP1 DUP2 OR SWAP1 SWAP2 SSTORE PUSH1 0x40 MLOAD SWAP1 DUP2 MSTORE PUSH32 0x19EF9A4877199F89440A26ACB26895EC02ED86F2DF1AEAA90DC18041B892F71F SWAP1 PUSH1 0x20 ADD JUMPDEST PUSH1 0x40 MLOAD DUP1 SWAP2 SUB SWAP1 LOG1 POP JUMP JUMPDEST PUSH1 0x1 PUSH1 0x1 PUSH1 0xA0 SHL SUB PUSH32 0x0 AND ADDRESS SUB PUSH2 0x586 JUMPI PUSH1 0x40 MLOAD PUSH3 0x461BCD PUSH1 0xE5 SHL DUP2 MSTORE PUSH1 0x4 ADD PUSH2 0x3FF SWAP1 PUSH2 0x18F2 JUMP JUMPDEST PUSH32 0x0 PUSH1 0x1 PUSH1 0x1 PUSH1 0xA0 SHL SUB AND PUSH2 0x5CF PUSH1 0x0 DUP1 MLOAD PUSH1 0x20 PUSH2 0x1B33 DUP4 CODECOPY DUP2 MLOAD SWAP2 MSTORE SLOAD PUSH1 0x1 PUSH1 0x1 PUSH1 0xA0 SHL SUB AND SWAP1 JUMP JUMPDEST PUSH1 0x1 PUSH1 0x1 PUSH1 0xA0 SHL SUB AND EQ PUSH2 0x5F5 JUMPI PUSH1 0x40 MLOAD PUSH3 0x461BCD PUSH1 0xE5 SHL DUP2 MSTORE PUSH1 0x4 ADD PUSH2 0x3FF SWAP1 PUSH2 0x193E JUMP JUMPDEST PUSH2 0x5FE DUP3 PUSH2 0x115E JUMP JUMPDEST PUSH2 0x60A DUP3 DUP3 PUSH1 0x1 PUSH2 0x1166 JUMP JUMPDEST POP POP JUMP JUMPDEST PUSH1 0x0 ADDRESS PUSH1 0x1 PUSH1 0x1 PUSH1 0xA0 SHL SUB PUSH32 0x0 AND EQ PUSH2 0x6AE JUMPI PUSH1 0x40 MLOAD PUSH3 0x461BCD PUSH1 0xE5 SHL DUP2 MSTORE PUSH1 0x20 PUSH1 0x4 DUP3 ADD MSTORE PUSH1 0x38 PUSH1 0x24 DUP3 ADD MSTORE PUSH32 0x555550535570677261646561626C653A206D757374206E6F742062652063616C PUSH1 0x44 DUP3 ADD MSTORE PUSH32 0x6C6564207468726F7567682064656C656761746563616C6C0000000000000000 PUSH1 0x64 DUP3 ADD MSTORE PUSH1 0x84 ADD PUSH2 0x3FF JUMP JUMPDEST POP PUSH1 0x0 DUP1 MLOAD PUSH1 0x20 PUSH2 0x1B33 DUP4 CODECOPY DUP2 MLOAD SWAP2 MSTORE SWAP1 JUMP JUMPDEST PUSH2 0x6C9 PUSH2 0x1104 JUMP JUMPDEST PUSH1 0xFC DUP1 SLOAD PUSH1 0xFF SWAP1 SWAP3 AND PUSH1 0x1 PUSH1 0xA0 SHL MUL PUSH1 0xFF PUSH1 0xA0 SHL NOT SWAP1 SWAP3 AND SWAP2 SWAP1 SWAP2 OR SWAP1 SSTORE JUMP JUMPDEST PUSH2 0x6F1 PUSH2 0x1104 JUMP JUMPDEST PUSH2 0x4AF PUSH1 0x0 PUSH2 0x1328 JUMP JUMPDEST PUSH1 0x60 PUSH1 0x0 PUSH1 0xFB DUP1 SLOAD DUP1 PUSH1 0x20 MUL PUSH1 0x20 ADD PUSH1 0x40 MLOAD SWAP1 DUP2 ADD PUSH1 0x40 MSTORE DUP1 SWAP3 SWAP2 SWAP1 DUP2 DUP2 MSTORE PUSH1 0x20 ADD DUP3 DUP1 SLOAD DUP1 ISZERO PUSH2 0x755 JUMPI PUSH1 0x20 MUL DUP3 ADD SWAP2 SWAP1 PUSH1 0x0 MSTORE PUSH1 0x20 PUSH1 0x0 KECCAK256 SWAP1 JUMPDEST DUP2 SLOAD PUSH1 0x1 PUSH1 0x1 PUSH1 0xA0 SHL SUB AND DUP2 MSTORE PUSH1 0x1 SWAP1 SWAP2 ADD SWAP1 PUSH1 0x20 ADD DUP1 DUP4 GT PUSH2 0x737 JUMPI JUMPDEST POP POP PUSH1 0xFB SLOAD SWAP4 SWAP7 SWAP4 SWAP6 POP SWAP3 SWAP4 POP POP POP POP JUMP JUMPDEST PUSH1 0x0 SLOAD PUSH2 0x100 SWAP1 DIV PUSH1 0xFF AND ISZERO DUP1 DUP1 ISZERO PUSH2 0x787 JUMPI POP PUSH1 0x0 SLOAD PUSH1 0x1 PUSH1 0xFF SWAP1 SWAP2 AND LT JUMPDEST DUP1 PUSH2 0x7A1 JUMPI POP ADDRESS EXTCODESIZE ISZERO DUP1 ISZERO PUSH2 0x7A1 JUMPI POP PUSH1 0x0 SLOAD PUSH1 0xFF AND PUSH1 0x1 EQ JUMPDEST PUSH2 0x804 JUMPI PUSH1 0x40 MLOAD PUSH3 0x461BCD PUSH1 0xE5 SHL DUP2 MSTORE PUSH1 0x20 PUSH1 0x4 DUP3 ADD MSTORE PUSH1 0x2E PUSH1 0x24 DUP3 ADD MSTORE PUSH32 0x496E697469616C697A61626C653A20636F6E747261637420697320616C726561 PUSH1 0x44 DUP3 ADD MSTORE PUSH14 0x191E481A5B9A5D1A585B1A5E9959 PUSH1 0x92 SHL PUSH1 0x64 DUP3 ADD MSTORE PUSH1 0x84 ADD PUSH2 0x3FF JUMP JUMPDEST PUSH1 0x0 DUP1 SLOAD PUSH1 0xFF NOT AND PUSH1 0x1 OR SWAP1 SSTORE DUP1 ISZERO PUSH2 0x827 JUMPI PUSH1 0x0 DUP1 SLOAD PUSH2 0xFF00 NOT AND PUSH2 0x100 OR SWAP1 SSTORE JUMPDEST PUSH1 0xFC DUP1 SLOAD PUSH1 0x1 PUSH1 0x1 PUSH1 0xA8 SHL SUB NOT AND PUSH21 0x46A6AD793C60FD03137A324B7DDC1A5C66D18EEBDE OR SWAP1 SSTORE PUSH2 0x856 PUSH2 0x137A JUMP JUMPDEST PUSH2 0x85E PUSH2 0x13A9 JUMP JUMPDEST PUSH2 0x866 PUSH2 0x13D8 JUMP JUMPDEST DUP1 ISZERO PUSH2 0x49C JUMPI PUSH1 0x0 DUP1 SLOAD PUSH2 0xFF00 NOT AND SWAP1 SSTORE PUSH1 0x40 MLOAD PUSH1 0x1 DUP2 MSTORE PUSH32 0x7F26B83FF96E1F2B6A682F133852F6798A09C465DA95921460CEFB3847402498 SWAP1 PUSH1 0x20 ADD PUSH2 0x533 JUMP JUMPDEST PUSH2 0x8B0 PUSH2 0x1104 JUMP JUMPDEST PUSH2 0x4AF PUSH2 0x13FF JUMP JUMPDEST PUSH1 0x0 PUSH1 0xFB DUP1 SLOAD DUP1 PUSH1 0x20 MUL PUSH1 0x20 ADD PUSH1 0x40 MLOAD SWAP1 DUP2 ADD PUSH1 0x40 MSTORE DUP1 SWAP3 SWAP2 SWAP1 DUP2 DUP2 MSTORE PUSH1 0x20 ADD DUP3 DUP1 SLOAD DUP1 ISZERO PUSH2 0x910 JUMPI PUSH1 0x20 MUL DUP3 ADD SWAP2 SWAP1 PUSH1 0x0 MSTORE PUSH1 0x20 PUSH1 0x0 KECCAK256 SWAP1 JUMPDEST DUP2 SLOAD PUSH1 0x1 PUSH1 0x1 PUSH1 0xA0 SHL SUB AND DUP2 MSTORE PUSH1 0x1 SWAP1 SWAP2 ADD SWAP1 PUSH1 0x20 ADD DUP1 DUP4 GT PUSH2 0x8F2 JUMPI JUMPDEST POP POP DUP4 MLOAD PUSH1 0x40 MLOAD PUSH4 0x70A08231 PUSH1 0xE0 SHL DUP2 MSTORE ADDRESS PUSH1 0x4 DUP3 ADD MSTORE SWAP5 SWAP6 POP SWAP4 PUSH1 0x0 SWAP4 POP PUSH1 0x1 PUSH1 0x1 PUSH1 0xA0 SHL SUB DUP8 AND SWAP3 POP PUSH4 0x70A08231 SWAP2 POP PUSH1 0x24 ADD PUSH1 0x20 PUSH1 0x40 MLOAD DUP1 DUP4 SUB DUP2 DUP7 GAS STATICCALL ISZERO DUP1 ISZERO PUSH2 0x962 JUMPI RETURNDATASIZE PUSH1 0x0 DUP1 RETURNDATACOPY RETURNDATASIZE PUSH1 0x0 REVERT JUMPDEST POP POP POP POP PUSH1 0x40 MLOAD RETURNDATASIZE PUSH1 0x1F NOT PUSH1 0x1F DUP3 ADD AND DUP3 ADD DUP1 PUSH1 0x40 MSTORE POP DUP2 ADD SWAP1 PUSH2 0x986 SWAP2 SWAP1 PUSH2 0x198A JUMP JUMPDEST PUSH1 0xFC SLOAD SWAP1 SWAP2 POP PUSH1 0x0 SWAP1 PUSH1 0x64 SWAP1 PUSH2 0x9A6 SWAP1 PUSH1 0x1 PUSH1 0xA0 SHL SWAP1 DIV PUSH1 0xFF AND DUP5 PUSH2 0x19B9 JUMP JUMPDEST PUSH2 0x9B0 SWAP2 SWAP1 PUSH2 0x19D0 JUMP JUMPDEST SWAP1 POP PUSH1 0x0 PUSH2 0x9BE DUP3 DUP5 PUSH2 0x19F2 JUMP JUMPDEST SWAP1 POP PUSH1 0x0 PUSH2 0x9CC DUP6 DUP4 PUSH2 0x19D0 JUMP JUMPDEST PUSH1 0xFC SLOAD PUSH1 0x40 MLOAD PUSH4 0xA9059CBB PUSH1 0xE0 SHL DUP2 MSTORE PUSH1 0x1 PUSH1 0x1 PUSH1 0xA0 SHL SUB SWAP2 DUP3 AND PUSH1 0x4 DUP3 ADD MSTORE PUSH1 0x24 DUP2 ADD DUP7 SWAP1 MSTORE SWAP2 SWAP3 POP DUP9 AND SWAP1 PUSH4 0xA9059CBB SWAP1 PUSH1 0x44 ADD PUSH1 0x20 PUSH1 0x40 MLOAD DUP1 DUP4 SUB DUP2 PUSH1 0x0 DUP8 GAS CALL ISZERO DUP1 ISZERO PUSH2 0xA21 JUMPI RETURNDATASIZE PUSH1 0x0 DUP1 RETURNDATACOPY RETURNDATASIZE PUSH1 0x0 REVERT JUMPDEST POP POP POP POP PUSH1 0x40 MLOAD RETURNDATASIZE PUSH1 0x1F NOT PUSH1 0x1F DUP3 ADD AND DUP3 ADD DUP1 PUSH1 0x40 MSTORE POP DUP2 ADD SWAP1 PUSH2 0xA45 SWAP2 SWAP1 PUSH2 0x1A05 JUMP JUMPDEST POP PUSH1 0xFC SLOAD PUSH1 0x40 DUP1 MLOAD PUSH1 0x1 PUSH1 0x1 PUSH1 0xA0 SHL SUB DUP1 DUP12 AND DUP3 MSTORE SWAP1 SWAP3 AND PUSH1 0x20 DUP4 ADD MSTORE DUP2 ADD DUP5 SWAP1 MSTORE PUSH1 0x60 DUP2 ADD DUP6 SWAP1 MSTORE PUSH1 0x80 DUP2 ADD DUP7 SWAP1 MSTORE PUSH32 0xC787E2DFDAEA513103B8186B30D608DA4212005161D60B3CE864E63907EFAFC6 SWAP1 PUSH1 0xA0 ADD PUSH1 0x40 MLOAD DUP1 SWAP2 SUB SWAP1 LOG1 PUSH1 0x0 JUMPDEST DUP6 DUP2 PUSH2 0xFFFF AND LT ISZERO PUSH2 0xBE4 JUMPI DUP8 PUSH1 0x1 PUSH1 0x1 PUSH1 0xA0 SHL SUB AND PUSH4 0xA9059CBB DUP9 DUP4 PUSH2 0xFFFF AND DUP2 MLOAD DUP2 LT PUSH2 0xAD6 JUMPI PUSH2 0xAD6 PUSH2 0x1A27 JUMP JUMPDEST PUSH1 0x20 MUL PUSH1 0x20 ADD ADD MLOAD DUP5 PUSH1 0x40 MLOAD DUP4 PUSH4 0xFFFFFFFF AND PUSH1 0xE0 SHL DUP2 MSTORE PUSH1 0x4 ADD PUSH2 0xB10 SWAP3 SWAP2 SWAP1 PUSH1 0x1 PUSH1 0x1 PUSH1 0xA0 SHL SUB SWAP3 SWAP1 SWAP3 AND DUP3 MSTORE PUSH1 0x20 DUP3 ADD MSTORE PUSH1 0x40 ADD SWAP1 JUMP JUMPDEST PUSH1 0x20 PUSH1 0x40 MLOAD DUP1 DUP4 SUB DUP2 PUSH1 0x0 DUP8 GAS CALL ISZERO DUP1 ISZERO PUSH2 0xB2F JUMPI RETURNDATASIZE PUSH1 0x0 DUP1 RETURNDATACOPY RETURNDATASIZE PUSH1 0x0 REVERT JUMPDEST POP POP POP POP PUSH1 0x40 MLOAD RETURNDATASIZE PUSH1 0x1F NOT PUSH1 0x1F DUP3 ADD AND DUP3 ADD DUP1 PUSH1 0x40 MSTORE POP DUP2 ADD SWAP1 PUSH2 0xB53 SWAP2 SWAP1 PUSH2 0x1A05 JUMP JUMPDEST POP PUSH32 0xC787E2DFDAEA513103B8186B30D608DA4212005161D60B3CE864E63907EFAFC6 DUP9 DUP9 DUP4 PUSH2 0xFFFF AND DUP2 MLOAD DUP2 LT PUSH2 0xB8C JUMPI PUSH2 0xB8C PUSH2 0x1A27 JUMP JUMPDEST PUSH1 0x20 SWAP1 DUP2 MUL SWAP2 SWAP1 SWAP2 ADD DUP2 ADD MLOAD PUSH1 0x40 DUP1 MLOAD PUSH1 0x1 PUSH1 0x1 PUSH1 0xA0 SHL SUB SWAP5 DUP6 AND DUP2 MSTORE SWAP4 SWAP1 SWAP2 AND SWAP2 DUP4 ADD SWAP2 SWAP1 SWAP2 MSTORE DUP2 ADD DUP6 SWAP1 MSTORE PUSH1 0x60 DUP2 ADD DUP8 SWAP1 MSTORE PUSH1 0x80 DUP2 ADD DUP9 SWAP1 MSTORE PUSH1 0xA0 ADD PUSH1 0x40 MLOAD DUP1 SWAP2 SUB SWAP1 LOG1 DUP1 PUSH2 0xBDC DUP2 PUSH2 0x1A3D JUMP JUMPDEST SWAP2 POP POP PUSH2 0xAA5 JUMP JUMPDEST POP POP POP POP POP POP POP POP JUMP JUMPDEST PUSH2 0xBF6 PUSH2 0x1104 JUMP JUMPDEST PUSH1 0x0 PUSH1 0xFB DUP1 SLOAD DUP1 PUSH1 0x20 MUL PUSH1 0x20 ADD PUSH1 0x40 MLOAD SWAP1 DUP2 ADD PUSH1 0x40 MSTORE DUP1 SWAP3 SWAP2 SWAP1 DUP2 DUP2 MSTORE PUSH1 0x20 ADD DUP3 DUP1 SLOAD DUP1 ISZERO PUSH2 0xC4E JUMPI PUSH1 0x20 MUL DUP3 ADD SWAP2 SWAP1 PUSH1 0x0 MSTORE PUSH1 0x20 PUSH1 0x0 KECCAK256 SWAP1 JUMPDEST DUP2 SLOAD PUSH1 0x1 PUSH1 0x1 PUSH1 0xA0 SHL SUB AND DUP2 MSTORE PUSH1 0x1 SWAP1 SWAP2 ADD SWAP1 PUSH1 0x20 ADD DUP1 DUP4 GT PUSH2 0xC30 JUMPI JUMPDEST POP POP DUP4 MLOAD SWAP4 SWAP5 POP PUSH1 0x0 SWAP3 POP POP POP JUMPDEST DUP2 DUP2 PUSH2 0xFFFF AND LT ISZERO PUSH2 0xD8C JUMPI DUP3 DUP2 PUSH2 0xFFFF AND DUP2 MLOAD DUP2 LT PUSH2 0xC7E JUMPI PUSH2 0xC7E PUSH2 0x1A27 JUMP JUMPDEST PUSH1 0x20 MUL PUSH1 0x20 ADD ADD MLOAD PUSH1 0x1 PUSH1 0x1 PUSH1 0xA0 SHL SUB AND DUP5 PUSH1 0x1 PUSH1 0x1 PUSH1 0xA0 SHL SUB AND SUB PUSH2 0xD3E JUMPI DUP3 PUSH1 0x1 DUP5 MLOAD PUSH2 0xCAD SWAP2 SWAP1 PUSH2 0x19F2 JUMP JUMPDEST DUP2 MLOAD DUP2 LT PUSH2 0xCBD JUMPI PUSH2 0xCBD PUSH2 0x1A27 JUMP JUMPDEST PUSH1 0x20 MUL PUSH1 0x20 ADD ADD MLOAD PUSH1 0xFB DUP3 PUSH2 0xFFFF AND DUP2 SLOAD DUP2 LT PUSH2 0xCDC JUMPI PUSH2 0xCDC PUSH2 0x1A27 JUMP JUMPDEST SWAP1 PUSH1 0x0 MSTORE PUSH1 0x20 PUSH1 0x0 KECCAK256 ADD PUSH1 0x0 PUSH2 0x100 EXP DUP2 SLOAD DUP2 PUSH1 0x1 PUSH1 0x1 PUSH1 0xA0 SHL SUB MUL NOT AND SWAP1 DUP4 PUSH1 0x1 PUSH1 0x1 PUSH1 0xA0 SHL SUB AND MUL OR SWAP1 SSTORE POP PUSH1 0xFB DUP1 SLOAD DUP1 PUSH2 0xD1B JUMPI PUSH2 0xD1B PUSH2 0x1A5E JUMP JUMPDEST PUSH1 0x0 DUP3 DUP2 MSTORE PUSH1 0x20 SWAP1 KECCAK256 DUP2 ADD PUSH1 0x0 NOT SWAP1 DUP2 ADD DUP1 SLOAD PUSH1 0x1 PUSH1 0x1 PUSH1 0xA0 SHL SUB NOT AND SWAP1 SSTORE ADD SWAP1 SSTORE JUMPDEST PUSH1 0x40 MLOAD PUSH1 0x1 PUSH1 0x1 PUSH1 0xA0 SHL SUB DUP6 AND DUP2 MSTORE PUSH32 0xE9DCE8C992623CE791725B21E857E33248D1F190A25B5168313420EEBDAAE99D SWAP1 PUSH1 0x20 ADD PUSH1 0x40 MLOAD DUP1 SWAP2 SUB SWAP1 LOG1 DUP1 PUSH2 0xD84 DUP2 PUSH2 0x1A3D JUMP JUMPDEST SWAP2 POP POP PUSH2 0xC5C JUMP JUMPDEST POP POP POP POP JUMP JUMPDEST PUSH1 0x0 PUSH1 0xFB DUP1 SLOAD DUP1 PUSH1 0x20 MUL PUSH1 0x20 ADD PUSH1 0x40 MLOAD SWAP1 DUP2 ADD PUSH1 0x40 MSTORE DUP1 SWAP3 SWAP2 SWAP1 DUP2 DUP2 MSTORE PUSH1 0x20 ADD DUP3 DUP1 SLOAD DUP1 ISZERO PUSH2 0xDEA JUMPI PUSH1 0x20 MUL DUP3 ADD SWAP2 SWAP1 PUSH1 0x0 MSTORE PUSH1 0x20 PUSH1 0x0 KECCAK256 SWAP1 JUMPDEST DUP2 SLOAD PUSH1 0x1 PUSH1 0x1 PUSH1 0xA0 SHL SUB AND DUP2 MSTORE PUSH1 0x1 SWAP1 SWAP2 ADD SWAP1 PUSH1 0x20 ADD DUP1 DUP4 GT PUSH2 0xDCC JUMPI JUMPDEST POP POP DUP4 MLOAD PUSH1 0xFC SLOAD SWAP5 SWAP6 POP SWAP4 SELFBALANCE SWAP4 POP PUSH1 0x0 SWAP3 POP PUSH1 0x64 SWAP2 POP PUSH2 0xE14 SWAP1 PUSH1 0x1 PUSH1 0xA0 SHL SWAP1 DIV PUSH1 0xFF AND DUP5 PUSH2 0x19B9 JUMP JUMPDEST PUSH2 0xE1E SWAP2 SWAP1 PUSH2 0x19D0 JUMP JUMPDEST SWAP1 POP PUSH1 0x0 PUSH2 0xE2C DUP3 DUP5 PUSH2 0x19F2 JUMP JUMPDEST SWAP1 POP PUSH1 0x0 PUSH2 0xE3A DUP6 DUP4 PUSH2 0x19D0 JUMP JUMPDEST PUSH1 0xFC SLOAD PUSH1 0x40 MLOAD SWAP2 SWAP3 POP PUSH1 0x1 PUSH1 0x1 PUSH1 0xA0 SHL SUB AND SWAP1 DUP5 ISZERO PUSH2 0x8FC MUL SWAP1 DUP6 SWAP1 PUSH1 0x0 DUP2 DUP2 DUP2 DUP6 DUP9 DUP9 CALL SWAP4 POP POP POP POP ISZERO DUP1 ISZERO PUSH2 0xE75 JUMPI RETURNDATASIZE PUSH1 0x0 DUP1 RETURNDATACOPY RETURNDATASIZE PUSH1 0x0 REVERT JUMPDEST POP PUSH1 0xFC SLOAD PUSH1 0x40 DUP1 MLOAD PUSH1 0x1 PUSH1 0x1 PUSH1 0xA0 SHL SUB SWAP1 SWAP3 AND DUP3 MSTORE PUSH1 0x20 DUP3 ADD DUP6 SWAP1 MSTORE DUP2 ADD DUP6 SWAP1 MSTORE PUSH1 0x60 DUP2 ADD DUP7 SWAP1 MSTORE PUSH32 0xFCF24B8583D2292A6DECC9BF77B195C3BE12EF70F20DBD3AEE29227CCE788B3E SWAP1 PUSH1 0x80 ADD PUSH1 0x40 MLOAD DUP1 SWAP2 SUB SWAP1 LOG1 PUSH1 0x0 JUMPDEST DUP6 DUP2 PUSH2 0xFFFF AND LT ISZERO PUSH2 0xFB4 JUMPI DUP7 DUP2 PUSH2 0xFFFF AND DUP2 MLOAD DUP2 LT PUSH2 0xEEF JUMPI PUSH2 0xEEF PUSH2 0x1A27 JUMP JUMPDEST PUSH1 0x20 MUL PUSH1 0x20 ADD ADD MLOAD PUSH1 0x1 PUSH1 0x1 PUSH1 0xA0 SHL SUB AND PUSH2 0x8FC DUP4 SWAP1 DUP2 ISZERO MUL SWAP1 PUSH1 0x40 MLOAD PUSH1 0x0 PUSH1 0x40 MLOAD DUP1 DUP4 SUB DUP2 DUP6 DUP9 DUP9 CALL SWAP4 POP POP POP POP ISZERO DUP1 ISZERO PUSH2 0xF2F JUMPI RETURNDATASIZE PUSH1 0x0 DUP1 RETURNDATACOPY RETURNDATASIZE PUSH1 0x0 REVERT JUMPDEST POP PUSH32 0xFCF24B8583D2292A6DECC9BF77B195C3BE12EF70F20DBD3AEE29227CCE788B3E DUP8 DUP3 PUSH2 0xFFFF AND DUP2 MLOAD DUP2 LT PUSH2 0xF67 JUMPI PUSH2 0xF67 PUSH2 0x1A27 JUMP JUMPDEST PUSH1 0x20 SWAP1 DUP2 MUL SWAP2 SWAP1 SWAP2 ADD DUP2 ADD MLOAD PUSH1 0x40 DUP1 MLOAD PUSH1 0x1 PUSH1 0x1 PUSH1 0xA0 SHL SUB SWAP1 SWAP3 AND DUP3 MSTORE SWAP2 DUP2 ADD DUP6 SWAP1 MSTORE SWAP1 DUP2 ADD DUP8 SWAP1 MSTORE PUSH1 0x60 DUP2 ADD DUP9 SWAP1 MSTORE PUSH1 0x80 ADD PUSH1 0x40 MLOAD DUP1 SWAP2 SUB SWAP1 LOG1 DUP1 PUSH2 0xFAC DUP2 PUSH2 0x1A3D JUMP JUMPDEST SWAP2 POP POP PUSH2 0xECD JUMP JUMPDEST POP POP POP POP POP POP POP JUMP JUMPDEST PUSH1 0x0 DUP1 PUSH1 0xFB DUP1 SLOAD DUP1 PUSH1 0x20 MUL PUSH1 0x20 ADD PUSH1 0x40 MLOAD SWAP1 DUP2 ADD PUSH1 0x40 MSTORE DUP1 SWAP3 SWAP2 SWAP1 DUP2 DUP2 MSTORE PUSH1 0x20 ADD DUP3 DUP1 SLOAD DUP1 ISZERO PUSH2 0x1016 JUMPI PUSH1 0x20 MUL DUP3 ADD SWAP2 SWAP1 PUSH1 0x0 MSTORE PUSH1 0x20 PUSH1 0x0 KECCAK256 SWAP1 JUMPDEST DUP2 SLOAD PUSH1 0x1 PUSH1 0x1 PUSH1 0xA0 SHL SUB AND DUP2 MSTORE PUSH1 0x1 SWAP1 SWAP2 ADD SWAP1 PUSH1 0x20 ADD DUP1 DUP4 GT PUSH2 0xFF8 JUMPI JUMPDEST POP POP DUP4 MLOAD SWAP4 SWAP5 POP PUSH1 0x0 SWAP3 POP POP POP JUMPDEST DUP2 DUP2 PUSH2 0xFFFF AND LT ISZERO PUSH2 0x1083 JUMPI DUP3 DUP2 PUSH2 0xFFFF AND DUP2 MLOAD DUP2 LT PUSH2 0x1046 JUMPI PUSH2 0x1046 PUSH2 0x1A27 JUMP JUMPDEST PUSH1 0x20 MUL PUSH1 0x20 ADD ADD MLOAD PUSH1 0x1 PUSH1 0x1 PUSH1 0xA0 SHL SUB AND DUP6 PUSH1 0x1 PUSH1 0x1 PUSH1 0xA0 SHL SUB AND SUB PUSH2 0x1071 JUMPI POP PUSH1 0x1 SWAP5 SWAP4 POP POP POP POP JUMP JUMPDEST DUP1 PUSH2 0x107B DUP2 PUSH2 0x1A3D JUMP JUMPDEST SWAP2 POP POP PUSH2 0x1024 JUMP JUMPDEST POP PUSH1 0x0 SWAP5 SWAP4 POP POP POP POP JUMP JUMPDEST PUSH2 0x1096 PUSH2 0x1104 JUMP JUMPDEST PUSH1 0x1 PUSH1 0x1 PUSH1 0xA0 SHL SUB DUP2 AND PUSH2 0x10FB JUMPI PUSH1 0x40 MLOAD PUSH3 0x461BCD PUSH1 0xE5 SHL DUP2 MSTORE PUSH1 0x20 PUSH1 0x4 DUP3 ADD MSTORE PUSH1 0x26 PUSH1 0x24 DUP3 ADD MSTORE PUSH32 0x4F776E61626C653A206E6577206F776E657220697320746865207A65726F2061 PUSH1 0x44 DUP3 ADD MSTORE PUSH6 0x646472657373 PUSH1 0xD0 SHL PUSH1 0x64 DUP3 ADD MSTORE PUSH1 0x84 ADD PUSH2 0x3FF JUMP JUMPDEST PUSH2 0x49C DUP2 PUSH2 0x1328 JUMP JUMPDEST PUSH1 0x65 SLOAD PUSH1 0x1 PUSH1 0x1 PUSH1 0xA0 SHL SUB AND CALLER EQ PUSH2 0x4AF JUMPI PUSH1 0x40 MLOAD PUSH3 0x461BCD PUSH1 0xE5 SHL DUP2 MSTORE PUSH1 0x20 PUSH1 0x4 DUP3 ADD DUP2 SWAP1 MSTORE PUSH1 0x24 DUP3 ADD MSTORE PUSH32 0x4F776E61626C653A2063616C6C6572206973206E6F7420746865206F776E6572 PUSH1 0x44 DUP3 ADD MSTORE PUSH1 0x64 ADD PUSH2 0x3FF JUMP JUMPDEST PUSH2 0x49C PUSH2 0x1104 JUMP JUMPDEST PUSH32 0x4910FDFA16FED3260ED0E7147F7CC6DA11A60208B5B9406D12A635614FFD9143 SLOAD PUSH1 0xFF AND ISZERO PUSH2 0x119E JUMPI PUSH2 0x1199 DUP4 PUSH2 0x143C JUMP JUMPDEST POP POP POP JUMP JUMPDEST DUP3 PUSH1 0x1 PUSH1 0x1 PUSH1 0xA0 SHL SUB AND PUSH4 0x52D1902D PUSH1 0x40 MLOAD DUP2 PUSH4 0xFFFFFFFF AND PUSH1 0xE0 SHL DUP2 MSTORE PUSH1 0x4 ADD PUSH1 0x20 PUSH1 0x40 MLOAD DUP1 DUP4 SUB DUP2 DUP7 GAS STATICCALL SWAP3 POP POP POP DUP1 ISZERO PUSH2 0x11F8 JUMPI POP PUSH1 0x40 DUP1 MLOAD PUSH1 0x1F RETURNDATASIZE SWAP1 DUP2 ADD PUSH1 0x1F NOT AND DUP3 ADD SWAP1 SWAP3 MSTORE PUSH2 0x11F5 SWAP2 DUP2 ADD SWAP1 PUSH2 0x198A JUMP JUMPDEST PUSH1 0x1 JUMPDEST PUSH2 0x125B JUMPI PUSH1 0x40 MLOAD PUSH3 0x461BCD PUSH1 0xE5 SHL DUP2 MSTORE PUSH1 0x20 PUSH1 0x4 DUP3 ADD MSTORE PUSH1 0x2E PUSH1 0x24 DUP3 ADD MSTORE PUSH32 0x45524331393637557067726164653A206E657720696D706C656D656E74617469 PUSH1 0x44 DUP3 ADD MSTORE PUSH14 0x6F6E206973206E6F742055555053 PUSH1 0x90 SHL PUSH1 0x64 DUP3 ADD MSTORE PUSH1 0x84 ADD PUSH2 0x3FF JUMP JUMPDEST PUSH1 0x0 DUP1 MLOAD PUSH1 0x20 PUSH2 0x1B33 DUP4 CODECOPY DUP2 MLOAD SWAP2 MSTORE DUP2 EQ PUSH2 0x12CA JUMPI PUSH1 0x40 MLOAD PUSH3 0x461BCD PUSH1 0xE5 SHL DUP2 MSTORE PUSH1 0x20 PUSH1 0x4 DUP3 ADD MSTORE PUSH1 0x29 PUSH1 0x24 DUP3 ADD MSTORE PUSH32 0x45524331393637557067726164653A20756E737570706F727465642070726F78 PUSH1 0x44 DUP3 ADD MSTORE PUSH9 0x1A58589B1955555251 PUSH1 0xBA SHL PUSH1 0x64 DUP3 ADD MSTORE PUSH1 0x84 ADD PUSH2 0x3FF JUMP JUMPDEST POP PUSH2 0x1199 DUP4 DUP4 DUP4 PUSH2 0x14D8 JUMP JUMPDEST PUSH2 0x12DE PUSH2 0x14FD JUMP JUMPDEST PUSH1 0x33 DUP1 SLOAD PUSH1 0xFF NOT AND SWAP1 SSTORE PUSH32 0x5DB9EE0A495BF2E6FF9C91A7834C1BA4FDD244A5E8AA4E537BD38AEAE4B073AA CALLER JUMPDEST PUSH1 0x40 MLOAD PUSH1 0x1 PUSH1 0x1 PUSH1 0xA0 SHL SUB SWAP1 SWAP2 AND DUP2 MSTORE PUSH1 0x20 ADD PUSH1 0x40 MLOAD DUP1 SWAP2 SUB SWAP1 LOG1 JUMP JUMPDEST PUSH1 0x65 DUP1 SLOAD PUSH1 0x1 PUSH1 0x1 PUSH1 0xA0 SHL SUB DUP4 DUP2 AND PUSH1 0x1 PUSH1 0x1 PUSH1 0xA0 SHL SUB NOT DUP4 AND DUP2 OR SWAP1 SWAP4 SSTORE PUSH1 0x40 MLOAD SWAP2 AND SWAP2 SWAP1 DUP3 SWAP1 PUSH32 0x8BE0079C531659141344CD1FD0A4F28419497F9722A3DAAFE3B4186F6B6457E0 SWAP1 PUSH1 0x0 SWAP1 LOG3 POP POP JUMP JUMPDEST PUSH1 0x0 SLOAD PUSH2 0x100 SWAP1 DIV PUSH1 0xFF AND PUSH2 0x13A1 JUMPI PUSH1 0x40 MLOAD PUSH3 0x461BCD PUSH1 0xE5 SHL DUP2 MSTORE PUSH1 0x4 ADD PUSH2 0x3FF SWAP1 PUSH2 0x1A74 JUMP JUMPDEST PUSH2 0x4AF PUSH2 0x1546 JUMP JUMPDEST PUSH1 0x0 SLOAD PUSH2 0x100 SWAP1 DIV PUSH1 0xFF AND PUSH2 0x13D0 JUMPI PUSH1 0x40 MLOAD PUSH3 0x461BCD PUSH1 0xE5 SHL DUP2 MSTORE PUSH1 0x4 ADD PUSH2 0x3FF SWAP1 PUSH2 0x1A74 JUMP JUMPDEST PUSH2 0x4AF PUSH2 0x1579 JUMP JUMPDEST PUSH1 0x0 SLOAD PUSH2 0x100 SWAP1 DIV PUSH1 0xFF AND PUSH2 0x4AF JUMPI PUSH1 0x40 MLOAD PUSH3 0x461BCD PUSH1 0xE5 SHL DUP2 MSTORE PUSH1 0x4 ADD PUSH2 0x3FF SWAP1 PUSH2 0x1A74 JUMP JUMPDEST PUSH2 0x1407 PUSH2 0x15A9 JUMP JUMPDEST PUSH1 0x33 DUP1 SLOAD PUSH1 0xFF NOT AND PUSH1 0x1 OR SWAP1 SSTORE PUSH32 0x62E78CEA01BEE320CD4E420270B5EA74000D11B0C9F74754EBDBFC544B05A258 PUSH2 0x130B CALLER SWAP1 JUMP JUMPDEST PUSH1 0x1 PUSH1 0x1 PUSH1 0xA0 SHL SUB DUP2 AND EXTCODESIZE PUSH2 0x14A9 JUMPI PUSH1 0x40 MLOAD PUSH3 0x461BCD PUSH1 0xE5 SHL DUP2 MSTORE PUSH1 0x20 PUSH1 0x4 DUP3 ADD MSTORE PUSH1 0x2D PUSH1 0x24 DUP3 ADD MSTORE PUSH32 0x455243313936373A206E657720696D706C656D656E746174696F6E206973206E PUSH1 0x44 DUP3 ADD MSTORE PUSH13 0x1BDD08184818DBDB9D1C9858DD PUSH1 0x9A SHL PUSH1 0x64 DUP3 ADD MSTORE PUSH1 0x84 ADD PUSH2 0x3FF JUMP JUMPDEST PUSH1 0x0 DUP1 MLOAD PUSH1 0x20 PUSH2 0x1B33 DUP4 CODECOPY DUP2 MLOAD SWAP2 MSTORE DUP1 SLOAD PUSH1 0x1 PUSH1 0x1 PUSH1 0xA0 SHL SUB NOT AND PUSH1 0x1 PUSH1 0x1 PUSH1 0xA0 SHL SUB SWAP3 SWAP1 SWAP3 AND SWAP2 SWAP1 SWAP2 OR SWAP1 SSTORE JUMP JUMPDEST PUSH2 0x14E1 DUP4 PUSH2 0x15EF JUMP JUMPDEST PUSH1 0x0 DUP3 MLOAD GT DUP1 PUSH2 0x14EE JUMPI POP DUP1 JUMPDEST ISZERO PUSH2 0x1199 JUMPI PUSH2 0xD8C DUP4 DUP4 PUSH2 0x162F JUMP JUMPDEST PUSH1 0x33 SLOAD PUSH1 0xFF AND PUSH2 0x4AF JUMPI PUSH1 0x40 MLOAD PUSH3 0x461BCD PUSH1 0xE5 SHL DUP2 MSTORE PUSH1 0x20 PUSH1 0x4 DUP3 ADD MSTORE PUSH1 0x14 PUSH1 0x24 DUP3 ADD MSTORE PUSH20 0x14185D5CD8589B194E881B9BDD081C185D5CD959 PUSH1 0x62 SHL PUSH1 0x44 DUP3 ADD MSTORE PUSH1 0x64 ADD PUSH2 0x3FF JUMP JUMPDEST PUSH1 0x0 SLOAD PUSH2 0x100 SWAP1 DIV PUSH1 0xFF AND PUSH2 0x156D JUMPI PUSH1 0x40 MLOAD PUSH3 0x461BCD PUSH1 0xE5 SHL DUP2 MSTORE PUSH1 0x4 ADD PUSH2 0x3FF SWAP1 PUSH2 0x1A74 JUMP JUMPDEST PUSH1 0x33 DUP1 SLOAD PUSH1 0xFF NOT AND SWAP1 SSTORE JUMP JUMPDEST PUSH1 0x0 SLOAD PUSH2 0x100 SWAP1 DIV PUSH1 0xFF AND PUSH2 0x15A0 JUMPI PUSH1 0x40 MLOAD PUSH3 0x461BCD PUSH1 0xE5 SHL DUP2 MSTORE PUSH1 0x4 ADD PUSH2 0x3FF SWAP1 PUSH2 0x1A74 JUMP JUMPDEST PUSH2 0x4AF CALLER PUSH2 0x1328 JUMP JUMPDEST PUSH1 0x33 SLOAD PUSH1 0xFF AND ISZERO PUSH2 0x4AF JUMPI PUSH1 0x40 MLOAD PUSH3 0x461BCD PUSH1 0xE5 SHL DUP2 MSTORE PUSH1 0x20 PUSH1 0x4 DUP3 ADD MSTORE PUSH1 0x10 PUSH1 0x24 DUP3 ADD MSTORE PUSH16 0x14185D5CD8589B194E881C185D5CD959 PUSH1 0x82 SHL PUSH1 0x44 DUP3 ADD MSTORE PUSH1 0x64 ADD PUSH2 0x3FF JUMP JUMPDEST PUSH2 0x15F8 DUP2 PUSH2 0x143C JUMP JUMPDEST PUSH1 0x40 MLOAD PUSH1 0x1 PUSH1 0x1 PUSH1 0xA0 SHL SUB DUP3 AND SWAP1 PUSH32 0xBC7CD75A20EE27FD9ADEBAB32041F755214DBC6BFFA90CC0225B39DA2E5C2D3B SWAP1 PUSH1 0x0 SWAP1 LOG2 POP JUMP JUMPDEST PUSH1 0x60 PUSH1 0x1 PUSH1 0x1 PUSH1 0xA0 SHL SUB DUP4 AND EXTCODESIZE PUSH2 0x1697 JUMPI PUSH1 0x40 MLOAD PUSH3 0x461BCD PUSH1 0xE5 SHL DUP2 MSTORE PUSH1 0x20 PUSH1 0x4 DUP3 ADD MSTORE PUSH1 0x26 PUSH1 0x24 DUP3 ADD MSTORE PUSH32 0x416464726573733A2064656C65676174652063616C6C20746F206E6F6E2D636F PUSH1 0x44 DUP3 ADD MSTORE PUSH6 0x1B9D1C9858DD PUSH1 0xD2 SHL PUSH1 0x64 DUP3 ADD MSTORE PUSH1 0x84 ADD PUSH2 0x3FF JUMP JUMPDEST PUSH1 0x0 DUP1 DUP5 PUSH1 0x1 PUSH1 0x1 PUSH1 0xA0 SHL SUB AND DUP5 PUSH1 0x40 MLOAD PUSH2 0x16B2 SWAP2 SWAP1 PUSH2 0x1AE3 JUMP JUMPDEST PUSH1 0x0 PUSH1 0x40 MLOAD DUP1 DUP4 SUB DUP2 DUP6 GAS DELEGATECALL SWAP2 POP POP RETURNDATASIZE DUP1 PUSH1 0x0 DUP2 EQ PUSH2 0x16ED JUMPI PUSH1 0x40 MLOAD SWAP2 POP PUSH1 0x1F NOT PUSH1 0x3F RETURNDATASIZE ADD AND DUP3 ADD PUSH1 0x40 MSTORE RETURNDATASIZE DUP3 MSTORE RETURNDATASIZE PUSH1 0x0 PUSH1 0x20 DUP5 ADD RETURNDATACOPY PUSH2 0x16F2 JUMP JUMPDEST PUSH1 0x60 SWAP2 POP JUMPDEST POP SWAP2 POP SWAP2 POP PUSH2 0x171A DUP3 DUP3 PUSH1 0x40 MLOAD DUP1 PUSH1 0x60 ADD PUSH1 0x40 MSTORE DUP1 PUSH1 0x27 DUP2 MSTORE PUSH1 0x20 ADD PUSH2 0x1B53 PUSH1 0x27 SWAP2 CODECOPY PUSH2 0x1725 JUMP JUMPDEST SWAP3 POP POP POP JUMPDEST SWAP3 SWAP2 POP POP JUMP JUMPDEST PUSH1 0x60 DUP4 ISZERO PUSH2 0x1734 JUMPI POP DUP2 PUSH2 0x173E JUMP JUMPDEST PUSH2 0x173E DUP4 DUP4 PUSH2 0x1745 JUMP JUMPDEST SWAP4 SWAP3 POP POP POP JUMP JUMPDEST DUP2 MLOAD ISZERO PUSH2 0x1755 JUMPI DUP2 MLOAD DUP1 DUP4 PUSH1 0x20 ADD REVERT JUMPDEST DUP1 PUSH1 0x40 MLOAD PUSH3 0x461BCD PUSH1 0xE5 SHL DUP2 MSTORE PUSH1 0x4 ADD PUSH2 0x3FF SWAP2 SWAP1 PUSH2 0x1AFF JUMP JUMPDEST DUP1 CALLDATALOAD PUSH1 0x1 PUSH1 0x1 PUSH1 0xA0 SHL SUB DUP2 AND DUP2 EQ PUSH2 0x1786 JUMPI PUSH1 0x0 DUP1 REVERT JUMPDEST SWAP2 SWAP1 POP JUMP JUMPDEST PUSH1 0x0 PUSH1 0x20 DUP3 DUP5 SUB SLT ISZERO PUSH2 0x179D JUMPI PUSH1 0x0 DUP1 REVERT JUMPDEST PUSH2 0x173E DUP3 PUSH2 0x176F JUMP JUMPDEST PUSH4 0x4E487B71 PUSH1 0xE0 SHL PUSH1 0x0 MSTORE PUSH1 0x41 PUSH1 0x4 MSTORE PUSH1 0x24 PUSH1 0x0 REVERT JUMPDEST PUSH1 0x0 DUP1 PUSH1 0x40 DUP4 DUP6 SUB SLT ISZERO PUSH2 0x17CF JUMPI PUSH1 0x0 DUP1 REVERT JUMPDEST PUSH2 0x17D8 DUP4 PUSH2 0x176F JUMP JUMPDEST SWAP2 POP PUSH1 0x20 DUP4 ADD CALLDATALOAD PUSH8 0xFFFFFFFFFFFFFFFF DUP1 DUP3 GT ISZERO PUSH2 0x17F5 JUMPI PUSH1 0x0 DUP1 REVERT JUMPDEST DUP2 DUP6 ADD SWAP2 POP DUP6 PUSH1 0x1F DUP4 ADD SLT PUSH2 0x1809 JUMPI PUSH1 0x0 DUP1 REVERT JUMPDEST DUP2 CALLDATALOAD DUP2 DUP2 GT ISZERO PUSH2 0x181B JUMPI PUSH2 0x181B PUSH2 0x17A6 JUMP JUMPDEST PUSH1 0x40 MLOAD PUSH1 0x1F DUP3 ADD PUSH1 0x1F NOT SWAP1 DUP2 AND PUSH1 0x3F ADD AND DUP2 ADD SWAP1 DUP4 DUP3 GT DUP2 DUP4 LT OR ISZERO PUSH2 0x1843 JUMPI PUSH2 0x1843 PUSH2 0x17A6 JUMP JUMPDEST DUP2 PUSH1 0x40 MSTORE DUP3 DUP2 MSTORE DUP9 PUSH1 0x20 DUP5 DUP8 ADD ADD GT ISZERO PUSH2 0x185C JUMPI PUSH1 0x0 DUP1 REVERT JUMPDEST DUP3 PUSH1 0x20 DUP7 ADD PUSH1 0x20 DUP4 ADD CALLDATACOPY PUSH1 0x0 PUSH1 0x20 DUP5 DUP4 ADD ADD MSTORE DUP1 SWAP6 POP POP POP POP POP POP SWAP3 POP SWAP3 SWAP1 POP JUMP JUMPDEST PUSH1 0x0 PUSH1 0x20 DUP3 DUP5 SUB SLT ISZERO PUSH2 0x1890 JUMPI PUSH1 0x0 DUP1 REVERT JUMPDEST DUP2 CALLDATALOAD PUSH1 0xFF DUP2 AND DUP2 EQ PUSH2 0x173E JUMPI PUSH1 0x0 DUP1 REVERT JUMPDEST PUSH1 0x40 DUP1 DUP3 MSTORE DUP4 MLOAD SWAP1 DUP3 ADD DUP2 SWAP1 MSTORE PUSH1 0x0 SWAP1 PUSH1 0x20 SWAP1 PUSH1 0x60 DUP5 ADD SWAP1 DUP3 DUP8 ADD DUP5 JUMPDEST DUP3 DUP2 LT ISZERO PUSH2 0x18E3 JUMPI DUP2 MLOAD PUSH1 0x1 PUSH1 0x1 PUSH1 0xA0 SHL SUB AND DUP5 MSTORE SWAP3 DUP5 ADD SWAP3 SWAP1 DUP5 ADD SWAP1 PUSH1 0x1 ADD PUSH2 0x18BE JUMP JUMPDEST POP POP POP SWAP3 ADD SWAP3 SWAP1 SWAP3 MSTORE SWAP3 SWAP2 POP POP JUMP JUMPDEST PUSH1 0x20 DUP1 DUP3 MSTORE PUSH1 0x2C SWAP1 DUP3 ADD MSTORE PUSH32 0x46756E6374696F6E206D7573742062652063616C6C6564207468726F75676820 PUSH1 0x40 DUP3 ADD MSTORE PUSH12 0x19195B1959D85D1958D85B1B PUSH1 0xA2 SHL PUSH1 0x60 DUP3 ADD MSTORE PUSH1 0x80 ADD SWAP1 JUMP JUMPDEST PUSH1 0x20 DUP1 DUP3 MSTORE PUSH1 0x2C SWAP1 DUP3 ADD MSTORE PUSH32 0x46756E6374696F6E206D7573742062652063616C6C6564207468726F75676820 PUSH1 0x40 DUP3 ADD MSTORE PUSH12 0x6163746976652070726F7879 PUSH1 0xA0 SHL PUSH1 0x60 DUP3 ADD MSTORE PUSH1 0x80 ADD SWAP1 JUMP JUMPDEST PUSH1 0x0 PUSH1 0x20 DUP3 DUP5 SUB SLT ISZERO PUSH2 0x199C JUMPI PUSH1 0x0 DUP1 REVERT JUMPDEST POP MLOAD SWAP2 SWAP1 POP JUMP JUMPDEST PUSH4 0x4E487B71 PUSH1 0xE0 SHL PUSH1 0x0 MSTORE PUSH1 0x11 PUSH1 0x4 MSTORE PUSH1 0x24 PUSH1 0x0 REVERT JUMPDEST DUP1 DUP3 MUL DUP2 ISZERO DUP3 DUP3 DIV DUP5 EQ OR PUSH2 0x171F JUMPI PUSH2 0x171F PUSH2 0x19A3 JUMP JUMPDEST PUSH1 0x0 DUP3 PUSH2 0x19ED JUMPI PUSH4 0x4E487B71 PUSH1 0xE0 SHL PUSH1 0x0 MSTORE PUSH1 0x12 PUSH1 0x4 MSTORE PUSH1 0x24 PUSH1 0x0 REVERT JUMPDEST POP DIV SWAP1 JUMP JUMPDEST DUP2 DUP2 SUB DUP2 DUP2 GT ISZERO PUSH2 0x171F JUMPI PUSH2 0x171F PUSH2 0x19A3 JUMP JUMPDEST PUSH1 0x0 PUSH1 0x20 DUP3 DUP5 SUB SLT ISZERO PUSH2 0x1A17 JUMPI PUSH1 0x0 DUP1 REVERT JUMPDEST DUP2 MLOAD DUP1 ISZERO ISZERO DUP2 EQ PUSH2 0x173E JUMPI PUSH1 0x0 DUP1 REVERT JUMPDEST PUSH4 0x4E487B71 PUSH1 0xE0 SHL PUSH1 0x0 MSTORE PUSH1 0x32 PUSH1 0x4 MSTORE PUSH1 0x24 PUSH1 0x0 REVERT JUMPDEST PUSH1 0x0 PUSH2 0xFFFF DUP1 DUP4 AND DUP2 DUP2 SUB PUSH2 0x1A54 JUMPI PUSH2 0x1A54 PUSH2 0x19A3 JUMP JUMPDEST PUSH1 0x1 ADD SWAP4 SWAP3 POP POP POP JUMP JUMPDEST PUSH4 0x4E487B71 PUSH1 0xE0 SHL PUSH1 0x0 MSTORE PUSH1 0x31 PUSH1 0x4 MSTORE PUSH1 0x24 PUSH1 0x0 REVERT JUMPDEST PUSH1 0x20 DUP1 DUP3 MSTORE PUSH1 0x2B SWAP1 DUP3 ADD MSTORE PUSH32 0x496E697469616C697A61626C653A20636F6E7472616374206973206E6F742069 PUSH1 0x40 DUP3 ADD MSTORE PUSH11 0x6E697469616C697A696E67 PUSH1 0xA8 SHL PUSH1 0x60 DUP3 ADD MSTORE PUSH1 0x80 ADD SWAP1 JUMP JUMPDEST PUSH1 0x0 JUMPDEST DUP4 DUP2 LT ISZERO PUSH2 0x1ADA JUMPI DUP2 DUP2 ADD MLOAD DUP4 DUP3 ADD MSTORE PUSH1 0x20 ADD PUSH2 0x1AC2 JUMP JUMPDEST POP POP PUSH1 0x0 SWAP2 ADD MSTORE JUMP JUMPDEST PUSH1 0x0 DUP3 MLOAD PUSH2 0x1AF5 DUP2 DUP5 PUSH1 0x20 DUP8 ADD PUSH2 0x1ABF JUMP JUMPDEST SWAP2 SWAP1 SWAP2 ADD SWAP3 SWAP2 POP POP JUMP JUMPDEST PUSH1 0x20 DUP2 MSTORE PUSH1 0x0 DUP3 MLOAD DUP1 PUSH1 0x20 DUP5 ADD MSTORE PUSH2 0x1B1E DUP2 PUSH1 0x40 DUP6 ADD PUSH1 0x20 DUP8 ADD PUSH2 0x1ABF JUMP JUMPDEST PUSH1 0x1F ADD PUSH1 0x1F NOT AND SWAP2 SWAP1 SWAP2 ADD PUSH1 0x40 ADD SWAP3 SWAP2 POP POP JUMP INVALID CALLDATASIZE ADDMOD SWAP5 LOG1 EXTCODESIZE LOG1 LOG3 0x21 MOD PUSH8 0xC828492DB98DCA3E KECCAK256 PUSH23 0xCC3735A920A3CA505D382BBC416464726573733A206C6F PUSH24 0x2D6C6576656C2064656C65676174652063616C6C20666169 PUSH13 0x6564A2646970667358221220E5 DUP7 DUP6 0xE6 RETURN MULMOD PUSH6 0xF78F997D4D2C ADDMOD PUSH30 0xAC6F33A0834C6E5B75CB3A599BDDAEFE0964736F6C634300081200330000 "},"methodIdentifiers":{"addUser(address)":"421b2d8b","distributeETH()":"b8b9b549","distributeToken(address)":"86d74037","getAdminAddress()":"b2e6b912","getAdminShare()":"1bd4fb7a","getusersList()":"81237900","initialize()":"8129fc1c","isUserInList(address)":"de45bbd1","owner()":"8da5cb5b","pause()":"8456cb59","paused()":"5c975abb","proxiableUUID()":"52d1902d","removeUser(address)":"98575188","renounceOwnership()":"715018a6","setAdminAddress(address)":"2c1e816d","setAdminShare(uint8)":"69088d5d","transferOwnership(address)":"f2fde38b","unpause()":"3f4ba83a","upgradeTo(address)":"3659cfe6","upgradeToAndCall(address,bytes)":"4f1ef286"}},"storageLayout":{"storage":[{"astId":527,"contract":"contracts/ShareBalanceV1Upgradeable.sol:ShareBalanceUpgradeable","label":"_initialized","offset":0,"slot":"0","type":"t_uint8"},{"astId":530,"contract":"contracts/ShareBalanceV1Upgradeable.sol:ShareBalanceUpgradeable","label":"_initializing","offset":1,"slot":"0","type":"t_bool"},{"astId":1355,"contract":"contracts/ShareBalanceV1Upgradeable.sol:ShareBalanceUpgradeable","label":"__gap","offset":0,"slot":"1","type":"t_array(t_uint256)50_storage"},{"astId":846,"contract":"contracts/ShareBalanceV1Upgradeable.sol:ShareBalanceUpgradeable","label":"_paused","offset":0,"slot":"51","type":"t_bool"},{"astId":951,"contract":"contracts/ShareBalanceV1Upgradeable.sol:ShareBalanceUpgradeable","label":"__gap","offset":0,"slot":"52","type":"t_array(t_uint256)49_storage"},{"astId":10,"contract":"contracts/ShareBalanceV1Upgradeable.sol:ShareBalanceUpgradeable","label":"_owner","offset":0,"slot":"101","type":"t_address"},{"astId":130,"contract":"contracts/ShareBalanceV1Upgradeable.sol:ShareBalanceUpgradeable","label":"__gap","offset":0,"slot":"102","type":"t_array(t_uint256)49_storage"},{"astId":509,"contract":"contracts/ShareBalanceV1Upgradeable.sol:ShareBalanceUpgradeable","label":"__gap","offset":0,"slot":"151","type":"t_array(t_uint256)50_storage"},{"astId":824,"contract":"contracts/ShareBalanceV1Upgradeable.sol:ShareBalanceUpgradeable","label":"__gap","offset":0,"slot":"201","type":"t_array(t_uint256)50_storage"},{"astId":3409,"contract":"contracts/ShareBalanceV1Upgradeable.sol:ShareBalanceUpgradeable","label":"_usersList","offset":0,"slot":"251","type":"t_array(t_address)dyn_storage"},{"astId":3411,"contract":"contracts/ShareBalanceV1Upgradeable.sol:ShareBalanceUpgradeable","label":"_adminAddress","offset":0,"slot":"252","type":"t_address"},{"astId":3413,"contract":"contracts/ShareBalanceV1Upgradeable.sol:ShareBalanceUpgradeable","label":"_adminSharePer","offset":20,"slot":"252","type":"t_uint8"}],"types":{"t_address":{"encoding":"inplace","label":"address","numberOfBytes":"20"},"t_array(t_address)dyn_storage":{"base":"t_address","encoding":"dynamic_array","label":"address[]","numberOfBytes":"32"},"t_array(t_uint256)49_storage":{"base":"t_uint256","encoding":"inplace","label":"uint256[49]","numberOfBytes":"1568"},"t_array(t_uint256)50_storage":{"base":"t_uint256","encoding":"inplace","label":"uint256[50]","numberOfBytes":"1600"},"t_bool":{"encoding":"inplace","label":"bool","numberOfBytes":"1"},"t_uint256":{"encoding":"inplace","label":"uint256","numberOfBytes":"32"},"t_uint8":{"encoding":"inplace","label":"uint8","numberOfBytes":"1"}}}}}}