{"contracts/VariablesV1Upgradeable.sol":{"VariablesV1Upgradeable":{"abi":[{"anonymous":false,"inputs":[{"indexed":false,"internalType":"address","name":"previousAdmin","type":"address"},{"indexed":false,"internalType":"address","name":"newAdmin","type":"address"}],"name":"AdminChanged","type":"event"},{"anonymous":false,"inputs":[{"indexed":true,"internalType":"address","name":"beacon","type":"address"}],"name":"BeaconUpgraded","type":"event"},{"anonymous":false,"inputs":[{"indexed":false,"internalType":"address","name":"ibpAddress","type":"address"}],"name":"IBPPromotedByAdmin","type":"event"},{"anonymous":false,"inputs":[{"indexed":false,"internalType":"address","name":"ibpAddress","type":"address"}],"name":"IBPRemovedByAdmin","type":"event"},{"anonymous":false,"inputs":[{"indexed":false,"internalType":"uint8","name":"version","type":"uint8"}],"name":"Initialized","type":"event"},{"anonymous":false,"inputs":[{"indexed":true,"internalType":"address","name":"previousOwner","type":"address"},{"indexed":true,"internalType":"address","name":"newOwner","type":"address"}],"name":"OwnershipTransferred","type":"event"},{"anonymous":false,"inputs":[{"indexed":false,"internalType":"address","name":"account","type":"address"}],"name":"Paused","type":"event"},{"anonymous":false,"inputs":[{"indexed":false,"internalType":"address","name":"account","type":"address"}],"name":"Unpaused","type":"event"},{"anonymous":false,"inputs":[{"indexed":true,"internalType":"address","name":"implementation","type":"address"}],"name":"Upgraded","type":"event"},{"inputs":[{"internalType":"address","name":"_ibpAddress","type":"address"}],"name":"addIBPAddressAdmin","outputs":[],"stateMutability":"nonpayable","type":"function"},{"inputs":[{"internalType":"address[]","name":"_tokenContractAddress","type":"address[]"}],"name":"disableSupportedToken","outputs":[],"stateMutability":"nonpayable","type":"function"},{"inputs":[],"name":"getAdminAddress","outputs":[{"internalType":"address","name":"","type":"address"}],"stateMutability":"view","type":"function"},{"inputs":[],"name":"getAdminFees","outputs":[{"internalType":"uint8","name":"","type":"uint8"}],"stateMutability":"view","type":"function"},{"inputs":[],"name":"getBaseCurrencyDecimals","outputs":[{"internalType":"uint8","name":"","type":"uint8"}],"stateMutability":"view","type":"function"},{"inputs":[],"name":"getCoreMemberRewardRate","outputs":[{"internalType":"uint8","name":"","type":"uint8"}],"stateMutability":"view","type":"function"},{"inputs":[],"name":"getCoreMembersContractAddress","outputs":[{"internalType":"address","name":"","type":"address"}],"stateMutability":"view","type":"function"},{"inputs":[],"name":"getGlobalRewardRate","outputs":[{"internalType":"uint8","name":"","type":"uint8"}],"stateMutability":"view","type":"function"},{"inputs":[],"name":"getIBPList","outputs":[{"internalType":"address[]","name":"","type":"address[]"}],"stateMutability":"view","type":"function"},{"inputs":[],"name":"getIbpRewardRate","outputs":[{"internalType":"uint8","name":"","type":"uint8"}],"stateMutability":"view","type":"function"},{"inputs":[],"name":"getIsPayCoreMembersRewards","outputs":[{"internalType":"bool","name":"","type":"bool"}],"stateMutability":"view","type":"function"},{"inputs":[],"name":"getIsPayGlobalRewards","outputs":[{"internalType":"bool","name":"","type":"bool"}],"stateMutability":"view","type":"function"},{"inputs":[],"name":"getIsPayIbpRewards","outputs":[{"internalType":"bool","name":"","type":"bool"}],"stateMutability":"view","type":"function"},{"inputs":[],"name":"getIsPayReferralRewards","outputs":[{"internalType":"bool","name":"","type":"bool"}],"stateMutability":"view","type":"function"},{"inputs":[],"name":"getIsPayRewardToken","outputs":[{"internalType":"bool","name":"","type":"bool"}],"stateMutability":"view","type":"function"},{"inputs":[],"name":"getIsPayWeeklyRewards","outputs":[{"internalType":"bool","name":"","type":"bool"}],"stateMutability":"view","type":"function"},{"inputs":[],"name":"getLevelDecimals","outputs":[{"internalType":"uint16","name":"","type":"uint16"}],"stateMutability":"view","type":"function"},{"inputs":[],"name":"getLevelRates","outputs":[{"internalType":"uint16[]","name":"","type":"uint16[]"}],"stateMutability":"view","type":"function"},{"inputs":[{"internalType":"uint8","name":"_planId","type":"uint8"}],"name":"getPlanById","outputs":[{"components":[{"internalType":"uint8","name":"planId","type":"uint8"},{"internalType":"string","name":"name","type":"string"},{"internalType":"uint256","name":"value","type":"uint256"},{"internalType":"uint256","name":"maxLimitMultiplier","type":"uint256"}],"internalType":"struct VariablesV1Upgradeable.PlanStruct","name":"","type":"tuple"}],"stateMutability":"view","type":"function"},{"inputs":[],"name":"getPlansCount","outputs":[{"internalType":"uint8","name":"planCount","type":"uint8"}],"stateMutability":"view","type":"function"},{"inputs":[],"name":"getPresaleContract","outputs":[{"internalType":"address","name":"","type":"address"}],"stateMutability":"view","type":"function"},{"inputs":[],"name":"getRewardTokenContract","outputs":[{"internalType":"address","name":"","type":"address"}],"stateMutability":"view","type":"function"},{"inputs":[],"name":"getRewardTokenRate","outputs":[{"internalType":"uint8","name":"","type":"uint8"}],"stateMutability":"view","type":"function"},{"inputs":[{"internalType":"address","name":"_tokenContractAddress","type":"address"}],"name":"getSupportedTokenInfo","outputs":[{"components":[{"internalType":"address","name":"contractAddress","type":"address"},{"internalType":"string","name":"name","type":"string"},{"internalType":"string","name":"symbol","type":"string"},{"internalType":"uint8","name":"decimals","type":"uint8"},{"internalType":"bool","name":"isStable","type":"bool"},{"internalType":"address","name":"aggregatorAddress","type":"address"},{"internalType":"bool","name":"isEnaled","type":"bool"}],"internalType":"struct VariablesV1Upgradeable.SupportedTokensStruct","name":"","type":"tuple"}],"stateMutability":"view","type":"function"},{"inputs":[],"name":"getValueBufferRate","outputs":[{"internalType":"uint8","name":"","type":"uint8"}],"stateMutability":"view","type":"function"},{"inputs":[],"name":"getWeeklyRewardRate","outputs":[{"internalType":"uint8","name":"","type":"uint8"}],"stateMutability":"view","type":"function"},{"inputs":[],"name":"initialize","outputs":[],"stateMutability":"nonpayable","type":"function"},{"inputs":[{"internalType":"address","name":"_ibpAddress","type":"address"}],"name":"isIBP","outputs":[{"internalType":"bool","name":"","type":"bool"}],"stateMutability":"view","type":"function"},{"inputs":[{"internalType":"address","name":"_tokenContractAddress","type":"address"}],"name":"isTokenSupported","outputs":[{"internalType":"bool","name":"","type":"bool"}],"stateMutability":"view","type":"function"},{"inputs":[],"name":"owner","outputs":[{"internalType":"address","name":"","type":"address"}],"stateMutability":"view","type":"function"},{"inputs":[],"name":"pause","outputs":[],"stateMutability":"nonpayable","type":"function"},{"inputs":[],"name":"paused","outputs":[{"internalType":"bool","name":"","type":"bool"}],"stateMutability":"view","type":"function"},{"inputs":[],"name":"proxiableUUID","outputs":[{"internalType":"bytes32","name":"","type":"bytes32"}],"stateMutability":"view","type":"function"},{"inputs":[{"internalType":"address","name":"_tokenContractAddress","type":"address"},{"internalType":"bool","name":"_isStable","type":"bool"},{"internalType":"address","name":"_aggregatorContractAddress","type":"address"}],"name":"pushSupportedTokenToList","outputs":[],"stateMutability":"nonpayable","type":"function"},{"inputs":[{"internalType":"address","name":"_ibpAddress","type":"address"}],"name":"removeIBPAddressAdmin","outputs":[],"stateMutability":"nonpayable","type":"function"},{"inputs":[],"name":"renounceOwnership","outputs":[],"stateMutability":"nonpayable","type":"function"},{"inputs":[{"internalType":"address","name":"adminAddress","type":"address"}],"name":"setAdminAddress","outputs":[],"stateMutability":"nonpayable","type":"function"},{"inputs":[{"internalType":"uint8","name":"fees","type":"uint8"}],"name":"setAdminFees","outputs":[],"stateMutability":"nonpayable","type":"function"},{"inputs":[{"internalType":"uint8","name":"decimals","type":"uint8"}],"name":"setBaseCurrencyDecimals","outputs":[],"stateMutability":"nonpayable","type":"function"},{"inputs":[{"internalType":"uint8","name":"rate","type":"uint8"}],"name":"setCoreMemberRewardRate","outputs":[],"stateMutability":"nonpayable","type":"function"},{"inputs":[{"internalType":"address","name":"_address","type":"address"}],"name":"setCoreMembersContractAddress","outputs":[],"stateMutability":"nonpayable","type":"function"},{"inputs":[{"internalType":"uint8","name":"rate","type":"uint8"}],"name":"setGlobalRewardRate","outputs":[],"stateMutability":"nonpayable","type":"function"},{"inputs":[{"internalType":"uint8","name":"rate","type":"uint8"}],"name":"setIbpRewardRate","outputs":[],"stateMutability":"nonpayable","type":"function"},{"inputs":[{"internalType":"bool","name":"value","type":"bool"}],"name":"setIsPayCoreMembersRewards","outputs":[],"stateMutability":"nonpayable","type":"function"},{"inputs":[{"internalType":"bool","name":"value","type":"bool"}],"name":"setIsPayGlobalRewards","outputs":[],"stateMutability":"nonpayable","type":"function"},{"inputs":[{"internalType":"bool","name":"value","type":"bool"}],"name":"setIsPayIbpRewards","outputs":[],"stateMutability":"nonpayable","type":"function"},{"inputs":[{"internalType":"bool","name":"value","type":"bool"}],"name":"setIsPayReferralRewards","outputs":[],"stateMutability":"nonpayable","type":"function"},{"inputs":[{"internalType":"bool","name":"isPay","type":"bool"}],"name":"setIsPayRewardToken","outputs":[],"stateMutability":"nonpayable","type":"function"},{"inputs":[{"internalType":"bool","name":"value","type":"bool"}],"name":"setIsPayWeeklyRewards","outputs":[],"stateMutability":"nonpayable","type":"function"},{"inputs":[{"internalType":"uint16","name":"decimals","type":"uint16"}],"name":"setLevelDecimals","outputs":[],"stateMutability":"nonpayable","type":"function"},{"inputs":[{"internalType":"uint16[]","name":"rates","type":"uint16[]"}],"name":"setLevelRates","outputs":[],"stateMutability":"nonpayable","type":"function"},{"inputs":[{"internalType":"uint8[]","name":"planId","type":"uint8[]"},{"internalType":"string[]","name":"name","type":"string[]"},{"internalType":"uint256[]","name":"valueInDecimals","type":"uint256[]"},{"internalType":"uint256[]","name":"maxLimitMultiplier","type":"uint256[]"}],"name":"setPlans","outputs":[],"stateMutability":"nonpayable","type":"function"},{"inputs":[{"internalType":"address","name":"_contractAddress","type":"address"}],"name":"setPresaleContract","outputs":[],"stateMutability":"nonpayable","type":"function"},{"inputs":[{"internalType":"address","name":"tokenContract","type":"address"}],"name":"setRewardTokenContract","outputs":[],"stateMutability":"nonpayable","type":"function"},{"inputs":[{"internalType":"uint8","name":"_rewardRatePer","type":"uint8"}],"name":"setRewardTokenRate","outputs":[],"stateMutability":"nonpayable","type":"function"},{"inputs":[{"internalType":"uint8","name":"rate","type":"uint8"}],"name":"setValueBufferRate","outputs":[],"stateMutability":"nonpayable","type":"function"},{"inputs":[{"internalType":"uint8","name":"rate","type":"uint8"}],"name":"setWeeklyRewardRate","outputs":[],"stateMutability":"nonpayable","type":"function"},{"inputs":[{"internalType":"uint256","name":"","type":"uint256"}],"name":"supportedTokensList","outputs":[{"internalType":"address","name":"","type":"address"}],"stateMutability":"view","type":"function"},{"inputs":[{"internalType":"address","name":"newOwner","type":"address"}],"name":"transferOwnership","outputs":[],"stateMutability":"nonpayable","type":"function"},{"inputs":[],"name":"unpause","outputs":[],"stateMutability":"nonpayable","type":"function"},{"inputs":[{"internalType":"address","name":"newImplementation","type":"address"}],"name":"upgradeTo","outputs":[],"stateMutability":"nonpayable","type":"function"},{"inputs":[{"internalType":"address","name":"newImplementation","type":"address"},{"internalType":"bytes","name":"data","type":"bytes"}],"name":"upgradeToAndCall","outputs":[],"stateMutability":"payable","type":"function"}],"evm":{"bytecode":{"linkReferences":{},"object":"60a06040523060805234801561001457600080fd5b506080516131e661004c6000396000818161118b015281816111d4015281816112d10152818161131101526113a001526131e66000f3fe6080604052600436106103ac5760003560e01c8063916452ab116101e7578063b7a266201161010d578063e7016717116100a0578063f1012b451161006f578063f1012b4514610b34578063f2a9012114610b52578063f2fde38b14610b72578063ffc43f8f14610b9257600080fd5b8063e701671714610aa2578063e74af32e14610ac4578063e7cca9c714610af1578063eb758bc714610b1457600080fd5b8063d54fcd93116100dc578063d54fcd9314610a24578063e091099c14610a44578063e179719a14610a63578063e371c5c514610a8257600080fd5b8063b7a26620146109a5578063b9cd1a50146109c5578063bcb03b57146109e6578063c391d63614610a0657600080fd5b8063a61a4ff311610185578063acc9186511610154578063acc9186514610931578063af2d4d0914610946578063b2e6b91214610966578063b64435621461098557600080fd5b8063a61a4ff3146108b1578063a646e845146108d1578063a9bbd114146108f1578063ac40e3091461091157600080fd5b806394debf48116101c157806394debf48146108325780639f6d887014610852578063a43ae40814610871578063a46868f01461089157600080fd5b8063916452ab146107d1578063918a54db146107f057806393cee9c91461081257600080fd5b80634f1ef286116102d757806365eb204d1161026a5780638129fc1c116102395780638129fc1c146107695780638456cb591461077e578063880c0ec3146107935780638da5cb5b146107b357600080fd5b806365eb204d146106d15780636cf3c676146106f0578063715018a61461071057806375151b631461072557600080fd5b80635c975abb116102a65780635c975abb146106425780635d9bed631461065a5780635f3ad6e21461067a57806363c918771461069957600080fd5b80634f1ef286146105cd57806352d1902d146105e05780635397b86d1461060357806357b888051461062257600080fd5b80632c1e816d1161034f57806339e0dcfa1161031e57806339e0dcfa146105595780633f4ba83a146105795780633fae6a111461058e5780634ccebd50146105ad57600080fd5b80632c1e816d146104b25780632f8c7e72146104d25780633238c16f1461050c5780633659cfe61461053957600080fd5b80630efc12b11161038b5780630efc12b11461041357806316dd07e0146104495780631f1eeec8146104745780632b70c02c1461049357600080fd5b8062b29290146103b1578063051ff2b9146103d357806308fcfbbe146103f3575b600080fd5b3480156103bd57600080fd5b506103d16103cc366004612766565b610bb4565b005b3480156103df57600080fd5b506103d16103ee366004612791565b610d91565b3480156103ff57600080fd5b506103d161040e366004612766565b611022565b34801561041f57600080fd5b5061043361042e3660046127e3565b61104d565b6040516104409190612850565b60405180910390f35b34801561045557600080fd5b5060fc54600160681b900460ff165b6040519015158152602001610440565b34801561048057600080fd5b5060fc54600160601b900460ff16610464565b34801561049f57600080fd5b5060fc54600160501b900460ff16610464565b3480156104be57600080fd5b506103d16104cd366004612766565b611156565b3480156104de57600080fd5b506104646104ed366004612766565b6001600160a01b03166000908152610108602052604090205460ff1690565b34801561051857600080fd5b5060fc54600160401b900460ff165b60405160ff9091168152602001610440565b34801561054557600080fd5b506103d1610554366004612766565b611181565b34801561056557600080fd5b506103d1610574366004612899565b611269565b34801561058557600080fd5b506103d161128f565b34801561059a57600080fd5b5060fc54600160581b900460ff16610464565b3480156105b957600080fd5b506103d16105c8366004612899565b6112a1565b6103d16105db366004612961565b6112c7565b3480156105ec57600080fd5b506105f5611393565b604051908152602001610440565b34801561060f57600080fd5b5060fc54600160381b900460ff16610527565b34801561062e57600080fd5b506103d161063d366004612a0f565b611446565b34801561064e57600080fd5b5060335460ff16610464565b34801561066657600080fd5b506103d1610675366004612899565b611538565b34801561068657600080fd5b5060fc546301000000900460ff16610527565b3480156106a557600080fd5b506106b96106b4366004612a51565b61155e565b6040516001600160a01b039091168152602001610440565b3480156106dd57600080fd5b50610103546001600160a01b03166106b9565b3480156106fc57600080fd5b506103d161070b3660046127e3565b611588565b34801561071c57600080fd5b506103d16115b5565b34801561073157600080fd5b50610464610740366004612766565b6001600160a01b031660009081526101076020526040902060030154600160b01b900460ff1690565b34801561077557600080fd5b506103d16115c7565b34801561078a57600080fd5b506103d16117d2565b34801561079f57600080fd5b506103d16107ae3660046127e3565b6117e2565b3480156107bf57600080fd5b506065546001600160a01b03166106b9565b3480156107dd57600080fd5b50610104546001600160a01b03166106b9565b3480156107fc57600080fd5b50610805611810565b6040516104409190612a6a565b34801561081e57600080fd5b506103d161082d366004612899565b611890565b34801561083e57600080fd5b506103d161084d3660046127e3565b6118b6565b34801561085e57600080fd5b5060fc54600160701b900460ff16610464565b34801561087d57600080fd5b506103d161088c366004612ac4565b6118de565b34801561089d57600080fd5b5060fc54640100000000900460ff16610527565b3480156108bd57600080fd5b506103d16108cc3660046127e3565b6118fe565b3480156108dd57600080fd5b506103d16108ec3660046127e3565b611924565b3480156108fd57600080fd5b506103d161090c366004612766565b611950565b34801561091d57600080fd5b506103d161092c3660046127e3565b61197a565b34801561093d57600080fd5b506105276119a6565b34801561095257600080fd5b506103d16109613660046127e3565b6119f6565b34801561097257600080fd5b50610105546001600160a01b03166106b9565b34801561099157600080fd5b506103d16109a0366004612899565b611a20565b3480156109b157600080fd5b506103d16109c03660046127e3565b611a46565b3480156109d157600080fd5b5060fc5465010000000000900460ff16610527565b3480156109f257600080fd5b506103d1610a01366004612b03565b611a74565b348015610a1257600080fd5b5060fc5462010000900460ff16610527565b348015610a3057600080fd5b506103d1610a3f366004612c4d565b611c50565b348015610a5057600080fd5b5060fc54600160481b900460ff16610527565b348015610a6f57600080fd5b5060fc54600160781b900460ff16610464565b348015610a8e57600080fd5b506103d1610a9d366004612766565b611c6b565b348015610aae57600080fd5b5060fc546601000000000000900460ff16610527565b348015610ad057600080fd5b50610ae4610adf366004612766565b611d33565b6040516104409190612ce5565b348015610afd57600080fd5b5060fc5460405161ffff9091168152602001610440565b348015610b2057600080fd5b506103d1610b2f366004612899565b611f07565b348015610b4057600080fd5b5060ff546001600160a01b03166106b9565b348015610b5e57600080fd5b506103d1610b6d366004612766565b611f2d565b348015610b7e57600080fd5b506103d1610b8d366004612766565b611f58565b348015610b9e57600080fd5b50610ba7611fce565b6040516104409190612d7d565b610bbc61202f565b6001600160a01b0381166000908152610108602052604090205460ff168015610d8d576001600160a01b038216600090815261010860209081526040808320805460ff1916905560fe80548251818502810185019093528083529192909190830182828015610c5457602002820191906000526020600020905b81546001600160a01b03168152600190910190602001808311610c36575b5050505050905060005b8151811015610d8a57836001600160a01b0316828281518110610c8357610c83612dbe565b60200260200101516001600160a01b031603610d78578160018351610ca89190612dea565b81518110610cb857610cb8612dbe565b602002602001015160fe8281548110610cd357610cd3612dbe565b9060005260206000200160006101000a8154816001600160a01b0302191690836001600160a01b0316021790555060fe805480610d1257610d12612dfd565b6000828152602090819020600019908301810180546001600160a01b03191690559091019091556040516001600160a01b03861681527f337eeb0192a31dfc3c61aff0be47a571a126a9e3f1caaee4af8c29babbb477e9910160405180910390a1610d8a565b80610d8281612e13565b915050610c5e565b50505b5050565b610d9961202f565b6040518060e00160405280846001600160a01b03168152602001846001600160a01b03166306fdde036040518163ffffffff1660e01b8152600401600060405180830381865afa158015610df1573d6000803e3d6000fd5b505050506040513d6000823e601f3d908101601f19168201604052610e199190810190612e2c565b8152602001846001600160a01b03166395d89b416040518163ffffffff1660e01b8152600401600060405180830381865afa158015610e5c573d6000803e3d6000fd5b505050506040513d6000823e601f3d908101601f19168201604052610e849190810190612e2c565b8152602001846001600160a01b031663313ce5676040518163ffffffff1660e01b8152600401602060405180830381865afa158015610ec7573d6000803e3d6000fd5b505050506040513d601f19601f82011682018060405250810190610eeb9190612ea3565b60ff1681528315156020808301919091526001600160a01b03848116604080850191909152600160609094018490528782166000908152610107845220845181546001600160a01b0319169216919091178155908301519091820190610f519082612f48565b5060408201516002820190610f669082612f48565b50606082015160039091018054608084015160a085015160c0909501511515600160b01b0260ff60b01b196001600160a01b0396871662010000021662010000600160b81b03199215156101000261ffff1990941660ff9096169590951792909217169290921791909117905560fd80546001810182556000919091527f9346ac6dd7de6b96975fec380d4d994c4c12e6a8897544f22915316cc6cca280018054949091166001600160a01b0319909416939093179092555050565b61102a61202f565b61010380546001600160a01b0319166001600160a01b0392909216919091179055565b61107b6040518060800160405280600060ff1681526020016060815260200160008152602001600081525090565b60ff8083166000908152610106602090815260409182902082516080810190935280549093168252600183018054929392918401916110b990612ec0565b80601f01602080910402602001604051908101604052809291908181526020018280546110e590612ec0565b80156111325780601f1061110757610100808354040283529160200191611132565b820191906000526020600020905b81548152906001019060200180831161111557829003601f168201915b50505050508152602001600282015481526020016003820154815250509050919050565b61115e61202f565b61010580546001600160a01b0319166001600160a01b0392909216919091179055565b6001600160a01b037f00000000000000000000000000000000000000000000000000000000000000001630036111d25760405162461bcd60e51b81526004016111c990613008565b60405180910390fd5b7f00000000000000000000000000000000000000000000000000000000000000006001600160a01b031661121b60008051602061316a833981519152546001600160a01b031690565b6001600160a01b0316146112415760405162461bcd60e51b81526004016111c990613054565b61124a81612089565b6040805160008082526020820190925261126691839190612091565b50565b61127161202f565b60fc8054911515600160681b0260ff60681b19909216919091179055565b61129761202f565b61129f6121fc565b565b6112a961202f565b60fc8054911515600160781b0260ff60781b19909216919091179055565b6001600160a01b037f000000000000000000000000000000000000000000000000000000000000000016300361130f5760405162461bcd60e51b81526004016111c990613008565b7f00000000000000000000000000000000000000000000000000000000000000006001600160a01b031661135860008051602061316a833981519152546001600160a01b031690565b6001600160a01b03161461137e5760405162461bcd60e51b81526004016111c990613054565b61138782612089565b610d8d82826001612091565b6000306001600160a01b037f000000000000000000000000000000000000000000000000000000000000000016146114335760405162461bcd60e51b815260206004820152603860248201527f555550535570677261646561626c653a206d757374206e6f742062652063616c60448201527f6c6564207468726f7567682064656c656761746563616c6c000000000000000060648201526084016111c9565b5060008051602061316a83398151915290565b61144e61202f565b60005b60ff8116821115611533576000610107600085858560ff1681811061147857611478612dbe565b905060200201602081019061148d9190612766565b6001600160a01b0316815260208101919091526040016000206003018054911515600160b01b0260ff60b01b1990921691909117905560fd838360ff84168181106114da576114da612dbe565b90506020020160208101906114ef9190612766565b81546001810183556000928352602090922090910180546001600160a01b0319166001600160a01b039092169190911790558061152b816130a0565b915050611451565b505050565b61154061202f565b60fc8054911515600160701b0260ff60701b19909216919091179055565b60fd818154811061156e57600080fd5b6000918252602090912001546001600160a01b0316905081565b61159061202f565b60fc805460ff909216600160401b0268ff000000000000000019909216919091179055565b6115bd61202f565b61129f600061224e565b600054610100900460ff16158080156115e75750600054600160ff909116105b806116015750303b158015611601575060005460ff166001145b6116645760405162461bcd60e51b815260206004820152602e60248201527f496e697469616c697a61626c653a20636f6e747261637420697320616c72656160448201526d191e481a5b9a5d1a585b1a5e995960921b60648201526084016111c9565b6000805460ff191660011790558015611687576000805461ff0019166101001790555b604080516101408101825261138881526101f460208201526101909181019190915261012c606082015260c86080820152606460a0820181905260c0820152607d60e0820181905261010082015260966101208201526116eb9060fb90600a612695565b5060fc805461010380546001600160a01b0319908116737f9fd63932babc508fad2f324eb534d09cfe86f0179091556f010101010101030302050a0a0a0027106fffffffffffffffffffffffffff00ffff19909216919091179091556101048054821673efb61c43c70b60563c1a2a835663c63ecc93f6ba17905561010580549091163317905561177a6122a0565b6117826122cf565b61178a6122fe565b8015611266576000805461ff0019169055604051600181527f7f26b83ff96e1f2b6a682f133852f6798a09c465da95921460cefb38474024989060200160405180910390a150565b6117da61202f565b61129f612325565b6117ea61202f565b60fc805460ff90921666010000000000000266ff00000000000019909216919091179055565b606060fb80548060200260200160405190810160405280929190818152602001828054801561188657602002820191906000526020600020906000905b82829054906101000a900461ffff1661ffff168152602001906002019060208260010104928301926001038202915080841161184d5790505b5050505050905090565b61189861202f565b60fc8054911515600160601b0260ff60601b19909216919091179055565b6118be61202f565b60fc805460ff90921663010000000263ff00000019909216919091179055565b6118e661202f565b60fc805461ffff191661ffff92909216919091179055565b61190661202f565b60fc805460ff909216620100000262ff000019909216919091179055565b61192c61202f565b60fc805460ff909216600160381b0267ff0000000000000019909216919091179055565b61195861202f565b60ff80546001600160a01b0319166001600160a01b0392909216919091179055565b61198261202f565b60fc805460ff909216650100000000000265ff000000000019909216919091179055565b6000805b60148160ff1610156119f25760ff811660009081526101066020526040902060020154156119e057816119dc816130a0565b9250505b806119ea816130a0565b9150506119aa565b5090565b6119fe61202f565b60fc805460ff9092166401000000000264ff0000000019909216919091179055565b611a2861202f565b60fc8054911515600160581b0260ff60581b19909216919091179055565b611a4e61202f565b60fc805460ff909216600160481b0269ff00000000000000000019909216919091179055565b611a7c61202f565b60005b86811015611c4657878782818110611a9957611a99612dbe565b9050602002016020810190611aae91906127e3565b61010660008a8a85818110611ac557611ac5612dbe565b9050602002016020810190611ada91906127e3565b60ff90811682526020820192909252604001600020805460ff1916929091169190911790558551869082908110611b1357611b13612dbe565b602002602001015161010660008a8a85818110611b3257611b32612dbe565b9050602002016020810190611b4791906127e3565b60ff168152602081019190915260400160002060010190611b689082612f48565b50848482818110611b7b57611b7b612dbe565b90506020020135670de0b6b3a7640000611b9591906130bf565b61010660008a8a85818110611bac57611bac612dbe565b9050602002016020810190611bc191906127e3565b60ff168152602081019190915260400160002060020155828282818110611bea57611bea612dbe565b9050602002013561010660008a8a85818110611c0857611c08612dbe565b9050602002016020810190611c1d91906127e3565b60ff16815260208101919091526040016000206003015580611c3e81612e13565b915050611a7f565b5050505050505050565b611c5861202f565b8051610d8d9060fb906020840190612695565b611c7361202f565b6001600160a01b0381166000908152610108602052604090205460ff1680610d8d576001600160a01b038216600081815261010860209081526040808320805460ff1916600190811790915560fe805491820181559093527f54075df80ec1ae6ac9100e1fd0ebf3246c17f5c933137af392011f4c5f61513a90920180546001600160a01b0319168417905590519182527fe30f8cb0d8cbc7c0e95d5aaa3107ce401738ce4bc98a05dd081bb2a77a9ca749910160405180910390a15050565b6040805160e080820183526000808352606060208085018290528486018290529084018290526080840182905260a0840182905260c084018290526001600160a01b0386811683526101078252918590208551938401909552845490911682526001840180549394929391840191611daa90612ec0565b80601f0160208091040260200160405190810160405280929190818152602001828054611dd690612ec0565b8015611e235780601f10611df857610100808354040283529160200191611e23565b820191906000526020600020905b815481529060010190602001808311611e0657829003601f168201915b50505050508152602001600282018054611e3c90612ec0565b80601f0160208091040260200160405190810160405280929190818152602001828054611e6890612ec0565b8015611eb55780601f10611e8a57610100808354040283529160200191611eb5565b820191906000526020600020905b815481529060010190602001808311611e9857829003601f168201915b50505091835250506003919091015460ff808216602084015261010082048116151560408401526001600160a01b03620100008304166060840152600160b01b90910416151560809091015292915050565b611f0f61202f565b60fc8054911515600160501b0260ff60501b19909216919091179055565b611f3561202f565b61010480546001600160a01b0319166001600160a01b0392909216919091179055565b611f6061202f565b6001600160a01b038116611fc55760405162461bcd60e51b815260206004820152602660248201527f4f776e61626c653a206e6577206f776e657220697320746865207a65726f206160448201526564647265737360d01b60648201526084016111c9565b6112668161224e565b606060fe80548060200260200160405190810160405280929190818152602001828054801561188657602002820191906000526020600020905b81546001600160a01b03168152600190910190602001808311612008575050505050905090565b6065546001600160a01b0316331461129f5760405162461bcd60e51b815260206004820181905260248201527f4f776e61626c653a2063616c6c6572206973206e6f7420746865206f776e657260448201526064016111c9565b61126661202f565b7f4910fdfa16fed3260ed0e7147f7cc6da11a60208b5b9406d12a635614ffd91435460ff16156120c45761153383612362565b826001600160a01b03166352d1902d6040518163ffffffff1660e01b8152600401602060405180830381865afa92505050801561211e575060408051601f3d908101601f1916820190925261211b918101906130d6565b60015b6121815760405162461bcd60e51b815260206004820152602e60248201527f45524331393637557067726164653a206e657720696d706c656d656e7461746960448201526d6f6e206973206e6f74205555505360901b60648201526084016111c9565b60008051602061316a83398151915281146121f05760405162461bcd60e51b815260206004820152602960248201527f45524331393637557067726164653a20756e737570706f727465642070726f786044820152681a58589b195555525160ba1b60648201526084016111c9565b506115338383836123fe565b612204612423565b6033805460ff191690557f5db9ee0a495bf2e6ff9c91a7834c1ba4fdd244a5e8aa4e537bd38aeae4b073aa335b6040516001600160a01b03909116815260200160405180910390a1565b606580546001600160a01b038381166001600160a01b0319831681179093556040519116919082907f8be0079c531659141344cd1fd0a4f28419497f9722a3daafe3b4186f6b6457e090600090a35050565b600054610100900460ff166122c75760405162461bcd60e51b81526004016111c9906130ef565b61129f61246c565b600054610100900460ff166122f65760405162461bcd60e51b81526004016111c9906130ef565b61129f61249f565b600054610100900460ff1661129f5760405162461bcd60e51b81526004016111c9906130ef565b61232d6124cf565b6033805460ff191660011790557f62e78cea01bee320cd4e420270b5ea74000d11b0c9f74754ebdbfc544b05a2586122313390565b6001600160a01b0381163b6123cf5760405162461bcd60e51b815260206004820152602d60248201527f455243313936373a206e657720696d706c656d656e746174696f6e206973206e60448201526c1bdd08184818dbdb9d1c9858dd609a1b60648201526084016111c9565b60008051602061316a83398151915280546001600160a01b0319166001600160a01b0392909216919091179055565b61240783612515565b6000825111806124145750805b1561153357610d8a8383612555565b60335460ff1661129f5760405162461bcd60e51b815260206004820152601460248201527314185d5cd8589b194e881b9bdd081c185d5cd95960621b60448201526064016111c9565b600054610100900460ff166124935760405162461bcd60e51b81526004016111c9906130ef565b6033805460ff19169055565b600054610100900460ff166124c65760405162461bcd60e51b81526004016111c9906130ef565b61129f3361224e565b60335460ff161561129f5760405162461bcd60e51b815260206004820152601060248201526f14185d5cd8589b194e881c185d5cd95960821b60448201526064016111c9565b61251e81612362565b6040516001600160a01b038216907fbc7cd75a20ee27fd9adebab32041f755214dbc6bffa90cc0225b39da2e5c2d3b90600090a250565b60606001600160a01b0383163b6125bd5760405162461bcd60e51b815260206004820152602660248201527f416464726573733a2064656c65676174652063616c6c20746f206e6f6e2d636f6044820152651b9d1c9858dd60d21b60648201526084016111c9565b600080846001600160a01b0316846040516125d8919061313a565b600060405180830381855af49150503d8060008114612613576040519150601f19603f3d011682016040523d82523d6000602084013e612618565b606091505b5091509150612640828260405180606001604052806027815260200161318a6027913961264b565b925050505b92915050565b6060831561265a575081612664565b612664838361266b565b9392505050565b81511561267b5781518083602001fd5b8060405162461bcd60e51b81526004016111c99190613156565b82805482825590600052602060002090600f0160109004810192821561272e5791602002820160005b838211156126fe57835183826101000a81548161ffff021916908361ffff16021790555092602001926002016020816001010492830192600103026126be565b801561272c5782816101000a81549061ffff02191690556002016020816001010492830192600103026126fe565b505b506119f29291505b808211156119f25760008155600101612736565b80356001600160a01b038116811461276157600080fd5b919050565b60006020828403121561277857600080fd5b6126648261274a565b8035801515811461276157600080fd5b6000806000606084860312156127a657600080fd5b6127af8461274a565b92506127bd60208501612781565b91506127cb6040850161274a565b90509250925092565b60ff8116811461126657600080fd5b6000602082840312156127f557600080fd5b8135612664816127d4565b60005b8381101561281b578181015183820152602001612803565b50506000910152565b6000815180845261283c816020860160208601612800565b601f01601f19169290920160200192915050565b6020815260ff8251166020820152600060208301516080604084015261287960a0840182612824565b905060408401516060840152606084015160808401528091505092915050565b6000602082840312156128ab57600080fd5b61266482612781565b634e487b7160e01b600052604160045260246000fd5b604051601f8201601f1916810167ffffffffffffffff811182821017156128f3576128f36128b4565b604052919050565b600067ffffffffffffffff821115612915576129156128b4565b50601f01601f191660200190565b6000612936612931846128fb565b6128ca565b905082815283838301111561294a57600080fd5b828260208301376000602084830101529392505050565b6000806040838503121561297457600080fd5b61297d8361274a565b9150602083013567ffffffffffffffff81111561299957600080fd5b8301601f810185136129aa57600080fd5b6129b985823560208401612923565b9150509250929050565b60008083601f8401126129d557600080fd5b50813567ffffffffffffffff8111156129ed57600080fd5b6020830191508360208260051b8501011115612a0857600080fd5b9250929050565b60008060208385031215612a2257600080fd5b823567ffffffffffffffff811115612a3957600080fd5b612a45858286016129c3565b90969095509350505050565b600060208284031215612a6357600080fd5b5035919050565b6020808252825182820181905260009190848201906040850190845b81811015612aa657835161ffff1683529284019291840191600101612a86565b50909695505050505050565b803561ffff8116811461276157600080fd5b600060208284031215612ad657600080fd5b61266482612ab2565b600067ffffffffffffffff821115612af957612af96128b4565b5060051b60200190565b60008060008060008060006080888a031215612b1e57600080fd5b67ffffffffffffffff8089351115612b3557600080fd5b612b428a8a358b016129c3565b90985096506020890135811015612b5857600080fd5b602089013589018a601f820112612b6e57600080fd5b612b7b6129318235612adf565b81358082526020808301929160051b8401018d811115612b9a57600080fd5b602084015b81811015612beb578581351115612bb557600080fd5b8e603f823587010112612bc757600080fd5b612bdd8f82358701602081013590604001612923565b845260209384019301612b9f565b50508098505050508060408a01351115612c0457600080fd5b612c148a60408b01358b016129c3565b90955093506060890135811015612c2a57600080fd5b50612c3b8960608a01358a016129c3565b979a9699509497509295919491925050565b60006020808385031215612c6057600080fd5b823567ffffffffffffffff811115612c7757600080fd5b8301601f81018513612c8857600080fd5b8035612c9661293182612adf565b81815260059190911b82018301908381019087831115612cb557600080fd5b928401925b82841015612cda57612ccb84612ab2565b82529284019290840190612cba565b979650505050505050565b602080825282516001600160a01b03168282015282015160e06040830152600090612d14610100840182612824565b90506040840151601f19848303016060850152612d318282612824565b91505060ff60608501511660808401526080840151151560a084015260a0840151612d6760c08501826001600160a01b03169052565b5060c084015180151560e0850152509392505050565b6020808252825182820181905260009190848201906040850190845b81811015612aa65783516001600160a01b031683529284019291840191600101612d99565b634e487b7160e01b600052603260045260246000fd5b634e487b7160e01b600052601160045260246000fd5b8181038181111561264557612645612dd4565b634e487b7160e01b600052603160045260246000fd5b600060018201612e2557612e25612dd4565b5060010190565b600060208284031215612e3e57600080fd5b815167ffffffffffffffff811115612e5557600080fd5b8201601f81018413612e6657600080fd5b8051612e74612931826128fb565b818152856020838501011115612e8957600080fd5b612e9a826020830160208601612800565b95945050505050565b600060208284031215612eb557600080fd5b8151612664816127d4565b600181811c90821680612ed457607f821691505b602082108103612ef457634e487b7160e01b600052602260045260246000fd5b50919050565b601f82111561153357600081815260208120601f850160051c81016020861015612f215750805b601f850160051c820191505b81811015612f4057828155600101612f2d565b505050505050565b815167ffffffffffffffff811115612f6257612f626128b4565b612f7681612f708454612ec0565b84612efa565b602080601f831160018114612fab5760008415612f935750858301515b600019600386901b1c1916600185901b178555612f40565b600085815260208120601f198616915b82811015612fda57888601518255948401946001909101908401612fbb565b5085821015612ff85787850151600019600388901b60f8161c191681555b5050505050600190811b01905550565b6020808252602c908201527f46756e6374696f6e206d7573742062652063616c6c6564207468726f7567682060408201526b19195b1959d85d1958d85b1b60a21b606082015260800190565b6020808252602c908201527f46756e6374696f6e206d7573742062652063616c6c6564207468726f7567682060408201526b6163746976652070726f787960a01b606082015260800190565b600060ff821660ff81036130b6576130b6612dd4565b60010192915050565b808202811582820484141761264557612645612dd4565b6000602082840312156130e857600080fd5b5051919050565b6020808252602b908201527f496e697469616c697a61626c653a20636f6e7472616374206973206e6f74206960408201526a6e697469616c697a696e6760a81b606082015260800190565b6000825161314c818460208701612800565b9190910192915050565b602081526000612664602083018461282456fe360894a13ba1a3210667c828492db98dca3e2076cc3735a920a3ca505d382bbc416464726573733a206c6f772d6c6576656c2064656c65676174652063616c6c206661696c6564a264697066735822122070a1d3c1b013fa365a8df373f98c28c808d0e05f44d8fe49c10c86380d3e9b9764736f6c63430008120033","opcodes":"PUSH1 0xA0 PUSH1 0x40 MSTORE ADDRESS PUSH1 0x80 MSTORE CALLVALUE DUP1 ISZERO PUSH2 0x14 JUMPI PUSH1 0x0 DUP1 REVERT JUMPDEST POP PUSH1 0x80 MLOAD PUSH2 0x31E6 PUSH2 0x4C PUSH1 0x0 CODECOPY PUSH1 0x0 DUP2 DUP2 PUSH2 0x118B ADD MSTORE DUP2 DUP2 PUSH2 0x11D4 ADD MSTORE DUP2 DUP2 PUSH2 0x12D1 ADD MSTORE DUP2 DUP2 PUSH2 0x1311 ADD MSTORE PUSH2 0x13A0 ADD MSTORE PUSH2 0x31E6 PUSH1 0x0 RETURN INVALID PUSH1 0x80 PUSH1 0x40 MSTORE PUSH1 0x4 CALLDATASIZE LT PUSH2 0x3AC JUMPI PUSH1 0x0 CALLDATALOAD PUSH1 0xE0 SHR DUP1 PUSH4 0x916452AB GT PUSH2 0x1E7 JUMPI DUP1 PUSH4 0xB7A26620 GT PUSH2 0x10D JUMPI DUP1 PUSH4 0xE7016717 GT PUSH2 0xA0 JUMPI DUP1 PUSH4 0xF1012B45 GT PUSH2 0x6F JUMPI DUP1 PUSH4 0xF1012B45 EQ PUSH2 0xB34 JUMPI DUP1 PUSH4 0xF2A90121 EQ PUSH2 0xB52 JUMPI DUP1 PUSH4 0xF2FDE38B EQ PUSH2 0xB72 JUMPI DUP1 PUSH4 0xFFC43F8F EQ PUSH2 0xB92 JUMPI PUSH1 0x0 DUP1 REVERT JUMPDEST DUP1 PUSH4 0xE7016717 EQ PUSH2 0xAA2 JUMPI DUP1 PUSH4 0xE74AF32E EQ PUSH2 0xAC4 JUMPI DUP1 PUSH4 0xE7CCA9C7 EQ PUSH2 0xAF1 JUMPI DUP1 PUSH4 0xEB758BC7 EQ PUSH2 0xB14 JUMPI PUSH1 0x0 DUP1 REVERT JUMPDEST DUP1 PUSH4 0xD54FCD93 GT PUSH2 0xDC JUMPI DUP1 PUSH4 0xD54FCD93 EQ PUSH2 0xA24 JUMPI DUP1 PUSH4 0xE091099C EQ PUSH2 0xA44 JUMPI DUP1 PUSH4 0xE179719A EQ PUSH2 0xA63 JUMPI DUP1 PUSH4 0xE371C5C5 EQ PUSH2 0xA82 JUMPI PUSH1 0x0 DUP1 REVERT JUMPDEST DUP1 PUSH4 0xB7A26620 EQ PUSH2 0x9A5 JUMPI DUP1 PUSH4 0xB9CD1A50 EQ PUSH2 0x9C5 JUMPI DUP1 PUSH4 0xBCB03B57 EQ PUSH2 0x9E6 JUMPI DUP1 PUSH4 0xC391D636 EQ PUSH2 0xA06 JUMPI PUSH1 0x0 DUP1 REVERT JUMPDEST DUP1 PUSH4 0xA61A4FF3 GT PUSH2 0x185 JUMPI DUP1 PUSH4 0xACC91865 GT PUSH2 0x154 JUMPI DUP1 PUSH4 0xACC91865 EQ PUSH2 0x931 JUMPI DUP1 PUSH4 0xAF2D4D09 EQ PUSH2 0x946 JUMPI DUP1 PUSH4 0xB2E6B912 EQ PUSH2 0x966 JUMPI DUP1 PUSH4 0xB6443562 EQ PUSH2 0x985 JUMPI PUSH1 0x0 DUP1 REVERT JUMPDEST DUP1 PUSH4 0xA61A4FF3 EQ PUSH2 0x8B1 JUMPI DUP1 PUSH4 0xA646E845 EQ PUSH2 0x8D1 JUMPI DUP1 PUSH4 0xA9BBD114 EQ PUSH2 0x8F1 JUMPI DUP1 PUSH4 0xAC40E309 EQ PUSH2 0x911 JUMPI PUSH1 0x0 DUP1 REVERT JUMPDEST DUP1 PUSH4 0x94DEBF48 GT PUSH2 0x1C1 JUMPI DUP1 PUSH4 0x94DEBF48 EQ PUSH2 0x832 JUMPI DUP1 PUSH4 0x9F6D8870 EQ PUSH2 0x852 JUMPI DUP1 PUSH4 0xA43AE408 EQ PUSH2 0x871 JUMPI DUP1 PUSH4 0xA46868F0 EQ PUSH2 0x891 JUMPI PUSH1 0x0 DUP1 REVERT JUMPDEST DUP1 PUSH4 0x916452AB EQ PUSH2 0x7D1 JUMPI DUP1 PUSH4 0x918A54DB EQ PUSH2 0x7F0 JUMPI DUP1 PUSH4 0x93CEE9C9 EQ PUSH2 0x812 JUMPI PUSH1 0x0 DUP1 REVERT JUMPDEST DUP1 PUSH4 0x4F1EF286 GT PUSH2 0x2D7 JUMPI DUP1 PUSH4 0x65EB204D GT PUSH2 0x26A JUMPI DUP1 PUSH4 0x8129FC1C GT PUSH2 0x239 JUMPI DUP1 PUSH4 0x8129FC1C EQ PUSH2 0x769 JUMPI DUP1 PUSH4 0x8456CB59 EQ PUSH2 0x77E JUMPI DUP1 PUSH4 0x880C0EC3 EQ PUSH2 0x793 JUMPI DUP1 PUSH4 0x8DA5CB5B EQ PUSH2 0x7B3 JUMPI PUSH1 0x0 DUP1 REVERT JUMPDEST DUP1 PUSH4 0x65EB204D EQ PUSH2 0x6D1 JUMPI DUP1 PUSH4 0x6CF3C676 EQ PUSH2 0x6F0 JUMPI DUP1 PUSH4 0x715018A6 EQ PUSH2 0x710 JUMPI DUP1 PUSH4 0x75151B63 EQ PUSH2 0x725 JUMPI PUSH1 0x0 DUP1 REVERT JUMPDEST DUP1 PUSH4 0x5C975ABB GT PUSH2 0x2A6 JUMPI DUP1 PUSH4 0x5C975ABB EQ PUSH2 0x642 JUMPI DUP1 PUSH4 0x5D9BED63 EQ PUSH2 0x65A JUMPI DUP1 PUSH4 0x5F3AD6E2 EQ PUSH2 0x67A JUMPI DUP1 PUSH4 0x63C91877 EQ PUSH2 0x699 JUMPI PUSH1 0x0 DUP1 REVERT JUMPDEST DUP1 PUSH4 0x4F1EF286 EQ PUSH2 0x5CD JUMPI DUP1 PUSH4 0x52D1902D EQ PUSH2 0x5E0 JUMPI DUP1 PUSH4 0x5397B86D EQ PUSH2 0x603 JUMPI DUP1 PUSH4 0x57B88805 EQ PUSH2 0x622 JUMPI PUSH1 0x0 DUP1 REVERT JUMPDEST DUP1 PUSH4 0x2C1E816D GT PUSH2 0x34F JUMPI DUP1 PUSH4 0x39E0DCFA GT PUSH2 0x31E JUMPI DUP1 PUSH4 0x39E0DCFA EQ PUSH2 0x559 JUMPI DUP1 PUSH4 0x3F4BA83A EQ PUSH2 0x579 JUMPI DUP1 PUSH4 0x3FAE6A11 EQ PUSH2 0x58E JUMPI DUP1 PUSH4 0x4CCEBD50 EQ PUSH2 0x5AD JUMPI PUSH1 0x0 DUP1 REVERT JUMPDEST DUP1 PUSH4 0x2C1E816D EQ PUSH2 0x4B2 JUMPI DUP1 PUSH4 0x2F8C7E72 EQ PUSH2 0x4D2 JUMPI DUP1 PUSH4 0x3238C16F EQ PUSH2 0x50C JUMPI DUP1 PUSH4 0x3659CFE6 EQ PUSH2 0x539 JUMPI PUSH1 0x0 DUP1 REVERT JUMPDEST DUP1 PUSH4 0xEFC12B1 GT PUSH2 0x38B JUMPI DUP1 PUSH4 0xEFC12B1 EQ PUSH2 0x413 JUMPI DUP1 PUSH4 0x16DD07E0 EQ PUSH2 0x449 JUMPI DUP1 PUSH4 0x1F1EEEC8 EQ PUSH2 0x474 JUMPI DUP1 PUSH4 0x2B70C02C EQ PUSH2 0x493 JUMPI PUSH1 0x0 DUP1 REVERT JUMPDEST DUP1 PUSH3 0xB29290 EQ PUSH2 0x3B1 JUMPI DUP1 PUSH4 0x51FF2B9 EQ PUSH2 0x3D3 JUMPI DUP1 PUSH4 0x8FCFBBE EQ PUSH2 0x3F3 JUMPI JUMPDEST PUSH1 0x0 DUP1 REVERT JUMPDEST CALLVALUE DUP1 ISZERO PUSH2 0x3BD JUMPI PUSH1 0x0 DUP1 REVERT JUMPDEST POP PUSH2 0x3D1 PUSH2 0x3CC CALLDATASIZE PUSH1 0x4 PUSH2 0x2766 JUMP JUMPDEST PUSH2 0xBB4 JUMP JUMPDEST STOP JUMPDEST CALLVALUE DUP1 ISZERO PUSH2 0x3DF JUMPI PUSH1 0x0 DUP1 REVERT JUMPDEST POP PUSH2 0x3D1 PUSH2 0x3EE CALLDATASIZE PUSH1 0x4 PUSH2 0x2791 JUMP JUMPDEST PUSH2 0xD91 JUMP JUMPDEST CALLVALUE DUP1 ISZERO PUSH2 0x3FF JUMPI PUSH1 0x0 DUP1 REVERT JUMPDEST POP PUSH2 0x3D1 PUSH2 0x40E CALLDATASIZE PUSH1 0x4 PUSH2 0x2766 JUMP JUMPDEST PUSH2 0x1022 JUMP JUMPDEST CALLVALUE DUP1 ISZERO PUSH2 0x41F JUMPI PUSH1 0x0 DUP1 REVERT JUMPDEST POP PUSH2 0x433 PUSH2 0x42E CALLDATASIZE PUSH1 0x4 PUSH2 0x27E3 JUMP JUMPDEST PUSH2 0x104D JUMP JUMPDEST PUSH1 0x40 MLOAD PUSH2 0x440 SWAP2 SWAP1 PUSH2 0x2850 JUMP JUMPDEST PUSH1 0x40 MLOAD DUP1 SWAP2 SUB SWAP1 RETURN JUMPDEST CALLVALUE DUP1 ISZERO PUSH2 0x455 JUMPI PUSH1 0x0 DUP1 REVERT JUMPDEST POP PUSH1 0xFC SLOAD PUSH1 0x1 PUSH1 0x68 SHL SWAP1 DIV PUSH1 0xFF AND JUMPDEST PUSH1 0x40 MLOAD SWAP1 ISZERO ISZERO DUP2 MSTORE PUSH1 0x20 ADD PUSH2 0x440 JUMP JUMPDEST CALLVALUE DUP1 ISZERO PUSH2 0x480 JUMPI PUSH1 0x0 DUP1 REVERT JUMPDEST POP PUSH1 0xFC SLOAD PUSH1 0x1 PUSH1 0x60 SHL SWAP1 DIV PUSH1 0xFF AND PUSH2 0x464 JUMP JUMPDEST CALLVALUE DUP1 ISZERO PUSH2 0x49F JUMPI PUSH1 0x0 DUP1 REVERT JUMPDEST POP PUSH1 0xFC SLOAD PUSH1 0x1 PUSH1 0x50 SHL SWAP1 DIV PUSH1 0xFF AND PUSH2 0x464 JUMP JUMPDEST CALLVALUE DUP1 ISZERO PUSH2 0x4BE JUMPI PUSH1 0x0 DUP1 REVERT JUMPDEST POP PUSH2 0x3D1 PUSH2 0x4CD CALLDATASIZE PUSH1 0x4 PUSH2 0x2766 JUMP JUMPDEST PUSH2 0x1156 JUMP JUMPDEST CALLVALUE DUP1 ISZERO PUSH2 0x4DE JUMPI PUSH1 0x0 DUP1 REVERT JUMPDEST POP PUSH2 0x464 PUSH2 0x4ED CALLDATASIZE PUSH1 0x4 PUSH2 0x2766 JUMP JUMPDEST PUSH1 0x1 PUSH1 0x1 PUSH1 0xA0 SHL SUB AND PUSH1 0x0 SWAP1 DUP2 MSTORE PUSH2 0x108 PUSH1 0x20 MSTORE PUSH1 0x40 SWAP1 KECCAK256 SLOAD PUSH1 0xFF AND SWAP1 JUMP JUMPDEST CALLVALUE DUP1 ISZERO PUSH2 0x518 JUMPI PUSH1 0x0 DUP1 REVERT JUMPDEST POP PUSH1 0xFC SLOAD PUSH1 0x1 PUSH1 0x40 SHL SWAP1 DIV PUSH1 0xFF AND JUMPDEST PUSH1 0x40 MLOAD PUSH1 0xFF SWAP1 SWAP2 AND DUP2 MSTORE PUSH1 0x20 ADD PUSH2 0x440 JUMP JUMPDEST CALLVALUE DUP1 ISZERO PUSH2 0x545 JUMPI PUSH1 0x0 DUP1 REVERT JUMPDEST POP PUSH2 0x3D1 PUSH2 0x554 CALLDATASIZE PUSH1 0x4 PUSH2 0x2766 JUMP JUMPDEST PUSH2 0x1181 JUMP JUMPDEST CALLVALUE DUP1 ISZERO PUSH2 0x565 JUMPI PUSH1 0x0 DUP1 REVERT JUMPDEST POP PUSH2 0x3D1 PUSH2 0x574 CALLDATASIZE PUSH1 0x4 PUSH2 0x2899 JUMP JUMPDEST PUSH2 0x1269 JUMP JUMPDEST CALLVALUE DUP1 ISZERO PUSH2 0x585 JUMPI PUSH1 0x0 DUP1 REVERT JUMPDEST POP PUSH2 0x3D1 PUSH2 0x128F JUMP JUMPDEST CALLVALUE DUP1 ISZERO PUSH2 0x59A JUMPI PUSH1 0x0 DUP1 REVERT JUMPDEST POP PUSH1 0xFC SLOAD PUSH1 0x1 PUSH1 0x58 SHL SWAP1 DIV PUSH1 0xFF AND PUSH2 0x464 JUMP JUMPDEST CALLVALUE DUP1 ISZERO PUSH2 0x5B9 JUMPI PUSH1 0x0 DUP1 REVERT JUMPDEST POP PUSH2 0x3D1 PUSH2 0x5C8 CALLDATASIZE PUSH1 0x4 PUSH2 0x2899 JUMP JUMPDEST PUSH2 0x12A1 JUMP JUMPDEST PUSH2 0x3D1 PUSH2 0x5DB CALLDATASIZE PUSH1 0x4 PUSH2 0x2961 JUMP JUMPDEST PUSH2 0x12C7 JUMP JUMPDEST CALLVALUE DUP1 ISZERO PUSH2 0x5EC JUMPI PUSH1 0x0 DUP1 REVERT JUMPDEST POP PUSH2 0x5F5 PUSH2 0x1393 JUMP JUMPDEST PUSH1 0x40 MLOAD SWAP1 DUP2 MSTORE PUSH1 0x20 ADD PUSH2 0x440 JUMP JUMPDEST CALLVALUE DUP1 ISZERO PUSH2 0x60F JUMPI PUSH1 0x0 DUP1 REVERT JUMPDEST POP PUSH1 0xFC SLOAD PUSH1 0x1 PUSH1 0x38 SHL SWAP1 DIV PUSH1 0xFF AND PUSH2 0x527 JUMP JUMPDEST CALLVALUE DUP1 ISZERO PUSH2 0x62E JUMPI PUSH1 0x0 DUP1 REVERT JUMPDEST POP PUSH2 0x3D1 PUSH2 0x63D CALLDATASIZE PUSH1 0x4 PUSH2 0x2A0F JUMP JUMPDEST PUSH2 0x1446 JUMP JUMPDEST CALLVALUE DUP1 ISZERO PUSH2 0x64E JUMPI PUSH1 0x0 DUP1 REVERT JUMPDEST POP PUSH1 0x33 SLOAD PUSH1 0xFF AND PUSH2 0x464 JUMP JUMPDEST CALLVALUE DUP1 ISZERO PUSH2 0x666 JUMPI PUSH1 0x0 DUP1 REVERT JUMPDEST POP PUSH2 0x3D1 PUSH2 0x675 CALLDATASIZE PUSH1 0x4 PUSH2 0x2899 JUMP JUMPDEST PUSH2 0x1538 JUMP JUMPDEST CALLVALUE DUP1 ISZERO PUSH2 0x686 JUMPI PUSH1 0x0 DUP1 REVERT JUMPDEST POP PUSH1 0xFC SLOAD PUSH4 0x1000000 SWAP1 DIV PUSH1 0xFF AND PUSH2 0x527 JUMP JUMPDEST CALLVALUE DUP1 ISZERO PUSH2 0x6A5 JUMPI PUSH1 0x0 DUP1 REVERT JUMPDEST POP PUSH2 0x6B9 PUSH2 0x6B4 CALLDATASIZE PUSH1 0x4 PUSH2 0x2A51 JUMP JUMPDEST PUSH2 0x155E JUMP JUMPDEST PUSH1 0x40 MLOAD PUSH1 0x1 PUSH1 0x1 PUSH1 0xA0 SHL SUB SWAP1 SWAP2 AND DUP2 MSTORE PUSH1 0x20 ADD PUSH2 0x440 JUMP JUMPDEST CALLVALUE DUP1 ISZERO PUSH2 0x6DD JUMPI PUSH1 0x0 DUP1 REVERT JUMPDEST POP PUSH2 0x103 SLOAD PUSH1 0x1 PUSH1 0x1 PUSH1 0xA0 SHL SUB AND PUSH2 0x6B9 JUMP JUMPDEST CALLVALUE DUP1 ISZERO PUSH2 0x6FC JUMPI PUSH1 0x0 DUP1 REVERT JUMPDEST POP PUSH2 0x3D1 PUSH2 0x70B CALLDATASIZE PUSH1 0x4 PUSH2 0x27E3 JUMP JUMPDEST PUSH2 0x1588 JUMP JUMPDEST CALLVALUE DUP1 ISZERO PUSH2 0x71C JUMPI PUSH1 0x0 DUP1 REVERT JUMPDEST POP PUSH2 0x3D1 PUSH2 0x15B5 JUMP JUMPDEST CALLVALUE DUP1 ISZERO PUSH2 0x731 JUMPI PUSH1 0x0 DUP1 REVERT JUMPDEST POP PUSH2 0x464 PUSH2 0x740 CALLDATASIZE PUSH1 0x4 PUSH2 0x2766 JUMP JUMPDEST PUSH1 0x1 PUSH1 0x1 PUSH1 0xA0 SHL SUB AND PUSH1 0x0 SWAP1 DUP2 MSTORE PUSH2 0x107 PUSH1 0x20 MSTORE PUSH1 0x40 SWAP1 KECCAK256 PUSH1 0x3 ADD SLOAD PUSH1 0x1 PUSH1 0xB0 SHL SWAP1 DIV PUSH1 0xFF AND SWAP1 JUMP JUMPDEST CALLVALUE DUP1 ISZERO PUSH2 0x775 JUMPI PUSH1 0x0 DUP1 REVERT JUMPDEST POP PUSH2 0x3D1 PUSH2 0x15C7 JUMP JUMPDEST CALLVALUE DUP1 ISZERO PUSH2 0x78A JUMPI PUSH1 0x0 DUP1 REVERT JUMPDEST POP PUSH2 0x3D1 PUSH2 0x17D2 JUMP JUMPDEST CALLVALUE DUP1 ISZERO PUSH2 0x79F JUMPI PUSH1 0x0 DUP1 REVERT JUMPDEST POP PUSH2 0x3D1 PUSH2 0x7AE CALLDATASIZE PUSH1 0x4 PUSH2 0x27E3 JUMP JUMPDEST PUSH2 0x17E2 JUMP JUMPDEST CALLVALUE DUP1 ISZERO PUSH2 0x7BF JUMPI PUSH1 0x0 DUP1 REVERT JUMPDEST POP PUSH1 0x65 SLOAD PUSH1 0x1 PUSH1 0x1 PUSH1 0xA0 SHL SUB AND PUSH2 0x6B9 JUMP JUMPDEST CALLVALUE DUP1 ISZERO PUSH2 0x7DD JUMPI PUSH1 0x0 DUP1 REVERT JUMPDEST POP PUSH2 0x104 SLOAD PUSH1 0x1 PUSH1 0x1 PUSH1 0xA0 SHL SUB AND PUSH2 0x6B9 JUMP JUMPDEST CALLVALUE DUP1 ISZERO PUSH2 0x7FC JUMPI PUSH1 0x0 DUP1 REVERT JUMPDEST POP PUSH2 0x805 PUSH2 0x1810 JUMP JUMPDEST PUSH1 0x40 MLOAD PUSH2 0x440 SWAP2 SWAP1 PUSH2 0x2A6A JUMP JUMPDEST CALLVALUE DUP1 ISZERO PUSH2 0x81E JUMPI PUSH1 0x0 DUP1 REVERT JUMPDEST POP PUSH2 0x3D1 PUSH2 0x82D CALLDATASIZE PUSH1 0x4 PUSH2 0x2899 JUMP JUMPDEST PUSH2 0x1890 JUMP JUMPDEST CALLVALUE DUP1 ISZERO PUSH2 0x83E JUMPI PUSH1 0x0 DUP1 REVERT JUMPDEST POP PUSH2 0x3D1 PUSH2 0x84D CALLDATASIZE PUSH1 0x4 PUSH2 0x27E3 JUMP JUMPDEST PUSH2 0x18B6 JUMP JUMPDEST CALLVALUE DUP1 ISZERO PUSH2 0x85E JUMPI PUSH1 0x0 DUP1 REVERT JUMPDEST POP PUSH1 0xFC SLOAD PUSH1 0x1 PUSH1 0x70 SHL SWAP1 DIV PUSH1 0xFF AND PUSH2 0x464 JUMP JUMPDEST CALLVALUE DUP1 ISZERO PUSH2 0x87D JUMPI PUSH1 0x0 DUP1 REVERT JUMPDEST POP PUSH2 0x3D1 PUSH2 0x88C CALLDATASIZE PUSH1 0x4 PUSH2 0x2AC4 JUMP JUMPDEST PUSH2 0x18DE JUMP JUMPDEST CALLVALUE DUP1 ISZERO PUSH2 0x89D JUMPI PUSH1 0x0 DUP1 REVERT JUMPDEST POP PUSH1 0xFC SLOAD PUSH5 0x100000000 SWAP1 DIV PUSH1 0xFF AND PUSH2 0x527 JUMP JUMPDEST CALLVALUE DUP1 ISZERO PUSH2 0x8BD JUMPI PUSH1 0x0 DUP1 REVERT JUMPDEST POP PUSH2 0x3D1 PUSH2 0x8CC CALLDATASIZE PUSH1 0x4 PUSH2 0x27E3 JUMP JUMPDEST PUSH2 0x18FE JUMP JUMPDEST CALLVALUE DUP1 ISZERO PUSH2 0x8DD JUMPI PUSH1 0x0 DUP1 REVERT JUMPDEST POP PUSH2 0x3D1 PUSH2 0x8EC CALLDATASIZE PUSH1 0x4 PUSH2 0x27E3 JUMP JUMPDEST PUSH2 0x1924 JUMP JUMPDEST CALLVALUE DUP1 ISZERO PUSH2 0x8FD JUMPI PUSH1 0x0 DUP1 REVERT JUMPDEST POP PUSH2 0x3D1 PUSH2 0x90C CALLDATASIZE PUSH1 0x4 PUSH2 0x2766 JUMP JUMPDEST PUSH2 0x1950 JUMP JUMPDEST CALLVALUE DUP1 ISZERO PUSH2 0x91D JUMPI PUSH1 0x0 DUP1 REVERT JUMPDEST POP PUSH2 0x3D1 PUSH2 0x92C CALLDATASIZE PUSH1 0x4 PUSH2 0x27E3 JUMP JUMPDEST PUSH2 0x197A JUMP JUMPDEST CALLVALUE DUP1 ISZERO PUSH2 0x93D JUMPI PUSH1 0x0 DUP1 REVERT JUMPDEST POP PUSH2 0x527 PUSH2 0x19A6 JUMP JUMPDEST CALLVALUE DUP1 ISZERO PUSH2 0x952 JUMPI PUSH1 0x0 DUP1 REVERT JUMPDEST POP PUSH2 0x3D1 PUSH2 0x961 CALLDATASIZE PUSH1 0x4 PUSH2 0x27E3 JUMP JUMPDEST PUSH2 0x19F6 JUMP JUMPDEST CALLVALUE DUP1 ISZERO PUSH2 0x972 JUMPI PUSH1 0x0 DUP1 REVERT JUMPDEST POP PUSH2 0x105 SLOAD PUSH1 0x1 PUSH1 0x1 PUSH1 0xA0 SHL SUB AND PUSH2 0x6B9 JUMP JUMPDEST CALLVALUE DUP1 ISZERO PUSH2 0x991 JUMPI PUSH1 0x0 DUP1 REVERT JUMPDEST POP PUSH2 0x3D1 PUSH2 0x9A0 CALLDATASIZE PUSH1 0x4 PUSH2 0x2899 JUMP JUMPDEST PUSH2 0x1A20 JUMP JUMPDEST CALLVALUE DUP1 ISZERO PUSH2 0x9B1 JUMPI PUSH1 0x0 DUP1 REVERT JUMPDEST POP PUSH2 0x3D1 PUSH2 0x9C0 CALLDATASIZE PUSH1 0x4 PUSH2 0x27E3 JUMP JUMPDEST PUSH2 0x1A46 JUMP JUMPDEST CALLVALUE DUP1 ISZERO PUSH2 0x9D1 JUMPI PUSH1 0x0 DUP1 REVERT JUMPDEST POP PUSH1 0xFC SLOAD PUSH6 0x10000000000 SWAP1 DIV PUSH1 0xFF AND PUSH2 0x527 JUMP JUMPDEST CALLVALUE DUP1 ISZERO PUSH2 0x9F2 JUMPI PUSH1 0x0 DUP1 REVERT JUMPDEST POP PUSH2 0x3D1 PUSH2 0xA01 CALLDATASIZE PUSH1 0x4 PUSH2 0x2B03 JUMP JUMPDEST PUSH2 0x1A74 JUMP JUMPDEST CALLVALUE DUP1 ISZERO PUSH2 0xA12 JUMPI PUSH1 0x0 DUP1 REVERT JUMPDEST POP PUSH1 0xFC SLOAD PUSH3 0x10000 SWAP1 DIV PUSH1 0xFF AND PUSH2 0x527 JUMP JUMPDEST CALLVALUE DUP1 ISZERO PUSH2 0xA30 JUMPI PUSH1 0x0 DUP1 REVERT JUMPDEST POP PUSH2 0x3D1 PUSH2 0xA3F CALLDATASIZE PUSH1 0x4 PUSH2 0x2C4D JUMP JUMPDEST PUSH2 0x1C50 JUMP JUMPDEST CALLVALUE DUP1 ISZERO PUSH2 0xA50 JUMPI PUSH1 0x0 DUP1 REVERT JUMPDEST POP PUSH1 0xFC SLOAD PUSH1 0x1 PUSH1 0x48 SHL SWAP1 DIV PUSH1 0xFF AND PUSH2 0x527 JUMP JUMPDEST CALLVALUE DUP1 ISZERO PUSH2 0xA6F JUMPI PUSH1 0x0 DUP1 REVERT JUMPDEST POP PUSH1 0xFC SLOAD PUSH1 0x1 PUSH1 0x78 SHL SWAP1 DIV PUSH1 0xFF AND PUSH2 0x464 JUMP JUMPDEST CALLVALUE DUP1 ISZERO PUSH2 0xA8E JUMPI PUSH1 0x0 DUP1 REVERT JUMPDEST POP PUSH2 0x3D1 PUSH2 0xA9D CALLDATASIZE PUSH1 0x4 PUSH2 0x2766 JUMP JUMPDEST PUSH2 0x1C6B JUMP JUMPDEST CALLVALUE DUP1 ISZERO PUSH2 0xAAE JUMPI PUSH1 0x0 DUP1 REVERT JUMPDEST POP PUSH1 0xFC SLOAD PUSH7 0x1000000000000 SWAP1 DIV PUSH1 0xFF AND PUSH2 0x527 JUMP JUMPDEST CALLVALUE DUP1 ISZERO PUSH2 0xAD0 JUMPI PUSH1 0x0 DUP1 REVERT JUMPDEST POP PUSH2 0xAE4 PUSH2 0xADF CALLDATASIZE PUSH1 0x4 PUSH2 0x2766 JUMP JUMPDEST PUSH2 0x1D33 JUMP JUMPDEST PUSH1 0x40 MLOAD PUSH2 0x440 SWAP2 SWAP1 PUSH2 0x2CE5 JUMP JUMPDEST CALLVALUE DUP1 ISZERO PUSH2 0xAFD JUMPI PUSH1 0x0 DUP1 REVERT JUMPDEST POP PUSH1 0xFC SLOAD PUSH1 0x40 MLOAD PUSH2 0xFFFF SWAP1 SWAP2 AND DUP2 MSTORE PUSH1 0x20 ADD PUSH2 0x440 JUMP JUMPDEST CALLVALUE DUP1 ISZERO PUSH2 0xB20 JUMPI PUSH1 0x0 DUP1 REVERT JUMPDEST POP PUSH2 0x3D1 PUSH2 0xB2F CALLDATASIZE PUSH1 0x4 PUSH2 0x2899 JUMP JUMPDEST PUSH2 0x1F07 JUMP JUMPDEST CALLVALUE DUP1 ISZERO PUSH2 0xB40 JUMPI PUSH1 0x0 DUP1 REVERT JUMPDEST POP PUSH1 0xFF SLOAD PUSH1 0x1 PUSH1 0x1 PUSH1 0xA0 SHL SUB AND PUSH2 0x6B9 JUMP JUMPDEST CALLVALUE DUP1 ISZERO PUSH2 0xB5E JUMPI PUSH1 0x0 DUP1 REVERT JUMPDEST POP PUSH2 0x3D1 PUSH2 0xB6D CALLDATASIZE PUSH1 0x4 PUSH2 0x2766 JUMP JUMPDEST PUSH2 0x1F2D JUMP JUMPDEST CALLVALUE DUP1 ISZERO PUSH2 0xB7E JUMPI PUSH1 0x0 DUP1 REVERT JUMPDEST POP PUSH2 0x3D1 PUSH2 0xB8D CALLDATASIZE PUSH1 0x4 PUSH2 0x2766 JUMP JUMPDEST PUSH2 0x1F58 JUMP JUMPDEST CALLVALUE DUP1 ISZERO PUSH2 0xB9E JUMPI PUSH1 0x0 DUP1 REVERT JUMPDEST POP PUSH2 0xBA7 PUSH2 0x1FCE JUMP JUMPDEST PUSH1 0x40 MLOAD PUSH2 0x440 SWAP2 SWAP1 PUSH2 0x2D7D JUMP JUMPDEST PUSH2 0xBBC PUSH2 0x202F JUMP JUMPDEST PUSH1 0x1 PUSH1 0x1 PUSH1 0xA0 SHL SUB DUP2 AND PUSH1 0x0 SWAP1 DUP2 MSTORE PUSH2 0x108 PUSH1 0x20 MSTORE PUSH1 0x40 SWAP1 KECCAK256 SLOAD PUSH1 0xFF AND DUP1 ISZERO PUSH2 0xD8D JUMPI PUSH1 0x1 PUSH1 0x1 PUSH1 0xA0 SHL SUB DUP3 AND PUSH1 0x0 SWAP1 DUP2 MSTORE PUSH2 0x108 PUSH1 0x20 SWAP1 DUP2 MSTORE PUSH1 0x40 DUP1 DUP4 KECCAK256 DUP1 SLOAD PUSH1 0xFF NOT AND SWAP1 SSTORE PUSH1 0xFE DUP1 SLOAD DUP3 MLOAD DUP2 DUP6 MUL DUP2 ADD DUP6 ADD SWAP1 SWAP4 MSTORE DUP1 DUP4 MSTORE SWAP2 SWAP3 SWAP1 SWAP2 SWAP1 DUP4 ADD DUP3 DUP3 DUP1 ISZERO PUSH2 0xC54 JUMPI PUSH1 0x20 MUL DUP3 ADD SWAP2 SWAP1 PUSH1 0x0 MSTORE PUSH1 0x20 PUSH1 0x0 KECCAK256 SWAP1 JUMPDEST DUP2 SLOAD PUSH1 0x1 PUSH1 0x1 PUSH1 0xA0 SHL SUB AND DUP2 MSTORE PUSH1 0x1 SWAP1 SWAP2 ADD SWAP1 PUSH1 0x20 ADD DUP1 DUP4 GT PUSH2 0xC36 JUMPI JUMPDEST POP POP POP POP POP SWAP1 POP PUSH1 0x0 JUMPDEST DUP2 MLOAD DUP2 LT ISZERO PUSH2 0xD8A JUMPI DUP4 PUSH1 0x1 PUSH1 0x1 PUSH1 0xA0 SHL SUB AND DUP3 DUP3 DUP2 MLOAD DUP2 LT PUSH2 0xC83 JUMPI PUSH2 0xC83 PUSH2 0x2DBE JUMP JUMPDEST PUSH1 0x20 MUL PUSH1 0x20 ADD ADD MLOAD PUSH1 0x1 PUSH1 0x1 PUSH1 0xA0 SHL SUB AND SUB PUSH2 0xD78 JUMPI DUP2 PUSH1 0x1 DUP4 MLOAD PUSH2 0xCA8 SWAP2 SWAP1 PUSH2 0x2DEA JUMP JUMPDEST DUP2 MLOAD DUP2 LT PUSH2 0xCB8 JUMPI PUSH2 0xCB8 PUSH2 0x2DBE JUMP JUMPDEST PUSH1 0x20 MUL PUSH1 0x20 ADD ADD MLOAD PUSH1 0xFE DUP3 DUP2 SLOAD DUP2 LT PUSH2 0xCD3 JUMPI PUSH2 0xCD3 PUSH2 0x2DBE JUMP JUMPDEST SWAP1 PUSH1 0x0 MSTORE PUSH1 0x20 PUSH1 0x0 KECCAK256 ADD PUSH1 0x0 PUSH2 0x100 EXP DUP2 SLOAD DUP2 PUSH1 0x1 PUSH1 0x1 PUSH1 0xA0 SHL SUB MUL NOT AND SWAP1 DUP4 PUSH1 0x1 PUSH1 0x1 PUSH1 0xA0 SHL SUB AND MUL OR SWAP1 SSTORE POP PUSH1 0xFE DUP1 SLOAD DUP1 PUSH2 0xD12 JUMPI PUSH2 0xD12 PUSH2 0x2DFD JUMP JUMPDEST PUSH1 0x0 DUP3 DUP2 MSTORE PUSH1 0x20 SWAP1 DUP2 SWAP1 KECCAK256 PUSH1 0x0 NOT SWAP1 DUP4 ADD DUP2 ADD DUP1 SLOAD PUSH1 0x1 PUSH1 0x1 PUSH1 0xA0 SHL SUB NOT AND SWAP1 SSTORE SWAP1 SWAP2 ADD SWAP1 SWAP2 SSTORE PUSH1 0x40 MLOAD PUSH1 0x1 PUSH1 0x1 PUSH1 0xA0 SHL SUB DUP7 AND DUP2 MSTORE PUSH32 0x337EEB0192A31DFC3C61AFF0BE47A571A126A9E3F1CAAEE4AF8C29BABBB477E9 SWAP2 ADD PUSH1 0x40 MLOAD DUP1 SWAP2 SUB SWAP1 LOG1 PUSH2 0xD8A JUMP JUMPDEST DUP1 PUSH2 0xD82 DUP2 PUSH2 0x2E13 JUMP JUMPDEST SWAP2 POP POP PUSH2 0xC5E JUMP JUMPDEST POP POP JUMPDEST POP POP JUMP JUMPDEST PUSH2 0xD99 PUSH2 0x202F JUMP JUMPDEST PUSH1 0x40 MLOAD DUP1 PUSH1 0xE0 ADD PUSH1 0x40 MSTORE DUP1 DUP5 PUSH1 0x1 PUSH1 0x1 PUSH1 0xA0 SHL SUB AND DUP2 MSTORE PUSH1 0x20 ADD DUP5 PUSH1 0x1 PUSH1 0x1 PUSH1 0xA0 SHL SUB AND PUSH4 0x6FDDE03 PUSH1 0x40 MLOAD DUP2 PUSH4 0xFFFFFFFF AND PUSH1 0xE0 SHL DUP2 MSTORE PUSH1 0x4 ADD PUSH1 0x0 PUSH1 0x40 MLOAD DUP1 DUP4 SUB DUP2 DUP7 GAS STATICCALL ISZERO DUP1 ISZERO PUSH2 0xDF1 JUMPI RETURNDATASIZE PUSH1 0x0 DUP1 RETURNDATACOPY RETURNDATASIZE PUSH1 0x0 REVERT JUMPDEST POP POP POP POP PUSH1 0x40 MLOAD RETURNDATASIZE PUSH1 0x0 DUP3 RETURNDATACOPY PUSH1 0x1F RETURNDATASIZE SWAP1 DUP2 ADD PUSH1 0x1F NOT AND DUP3 ADD PUSH1 0x40 MSTORE PUSH2 0xE19 SWAP2 SWAP1 DUP2 ADD SWAP1 PUSH2 0x2E2C JUMP JUMPDEST DUP2 MSTORE PUSH1 0x20 ADD DUP5 PUSH1 0x1 PUSH1 0x1 PUSH1 0xA0 SHL SUB AND PUSH4 0x95D89B41 PUSH1 0x40 MLOAD DUP2 PUSH4 0xFFFFFFFF AND PUSH1 0xE0 SHL DUP2 MSTORE PUSH1 0x4 ADD PUSH1 0x0 PUSH1 0x40 MLOAD DUP1 DUP4 SUB DUP2 DUP7 GAS STATICCALL ISZERO DUP1 ISZERO PUSH2 0xE5C JUMPI RETURNDATASIZE PUSH1 0x0 DUP1 RETURNDATACOPY RETURNDATASIZE PUSH1 0x0 REVERT JUMPDEST POP POP POP POP PUSH1 0x40 MLOAD RETURNDATASIZE PUSH1 0x0 DUP3 RETURNDATACOPY PUSH1 0x1F RETURNDATASIZE SWAP1 DUP2 ADD PUSH1 0x1F NOT AND DUP3 ADD PUSH1 0x40 MSTORE PUSH2 0xE84 SWAP2 SWAP1 DUP2 ADD SWAP1 PUSH2 0x2E2C JUMP JUMPDEST DUP2 MSTORE PUSH1 0x20 ADD DUP5 PUSH1 0x1 PUSH1 0x1 PUSH1 0xA0 SHL SUB AND PUSH4 0x313CE567 PUSH1 0x40 MLOAD DUP2 PUSH4 0xFFFFFFFF AND PUSH1 0xE0 SHL DUP2 MSTORE PUSH1 0x4 ADD PUSH1 0x20 PUSH1 0x40 MLOAD DUP1 DUP4 SUB DUP2 DUP7 GAS STATICCALL ISZERO DUP1 ISZERO PUSH2 0xEC7 JUMPI RETURNDATASIZE PUSH1 0x0 DUP1 RETURNDATACOPY RETURNDATASIZE PUSH1 0x0 REVERT JUMPDEST POP POP POP POP PUSH1 0x40 MLOAD RETURNDATASIZE PUSH1 0x1F NOT PUSH1 0x1F DUP3 ADD AND DUP3 ADD DUP1 PUSH1 0x40 MSTORE POP DUP2 ADD SWAP1 PUSH2 0xEEB SWAP2 SWAP1 PUSH2 0x2EA3 JUMP JUMPDEST PUSH1 0xFF AND DUP2 MSTORE DUP4 ISZERO ISZERO PUSH1 0x20 DUP1 DUP4 ADD SWAP2 SWAP1 SWAP2 MSTORE PUSH1 0x1 PUSH1 0x1 PUSH1 0xA0 SHL SUB DUP5 DUP2 AND PUSH1 0x40 DUP1 DUP6 ADD SWAP2 SWAP1 SWAP2 MSTORE PUSH1 0x1 PUSH1 0x60 SWAP1 SWAP5 ADD DUP5 SWAP1 MSTORE DUP8 DUP3 AND PUSH1 0x0 SWAP1 DUP2 MSTORE PUSH2 0x107 DUP5 MSTORE KECCAK256 DUP5 MLOAD DUP2 SLOAD PUSH1 0x1 PUSH1 0x1 PUSH1 0xA0 SHL SUB NOT AND SWAP3 AND SWAP2 SWAP1 SWAP2 OR DUP2 SSTORE SWAP1 DUP4 ADD MLOAD SWAP1 SWAP2 DUP3 ADD SWAP1 PUSH2 0xF51 SWAP1 DUP3 PUSH2 0x2F48 JUMP JUMPDEST POP PUSH1 0x40 DUP3 ADD MLOAD PUSH1 0x2 DUP3 ADD SWAP1 PUSH2 0xF66 SWAP1 DUP3 PUSH2 0x2F48 JUMP JUMPDEST POP PUSH1 0x60 DUP3 ADD MLOAD PUSH1 0x3 SWAP1 SWAP2 ADD DUP1 SLOAD PUSH1 0x80 DUP5 ADD MLOAD PUSH1 0xA0 DUP6 ADD MLOAD PUSH1 0xC0 SWAP1 SWAP6 ADD MLOAD ISZERO ISZERO PUSH1 0x1 PUSH1 0xB0 SHL MUL PUSH1 0xFF PUSH1 0xB0 SHL NOT PUSH1 0x1 PUSH1 0x1 PUSH1 0xA0 SHL SUB SWAP7 DUP8 AND PUSH3 0x10000 MUL AND PUSH3 0x10000 PUSH1 0x1 PUSH1 0xB8 SHL SUB NOT SWAP3 ISZERO ISZERO PUSH2 0x100 MUL PUSH2 0xFFFF NOT SWAP1 SWAP5 AND PUSH1 0xFF SWAP1 SWAP7 AND SWAP6 SWAP1 SWAP6 OR SWAP3 SWAP1 SWAP3 OR AND SWAP3 SWAP1 SWAP3 OR SWAP2 SWAP1 SWAP2 OR SWAP1 SSTORE PUSH1 0xFD DUP1 SLOAD PUSH1 0x1 DUP2 ADD DUP3 SSTORE PUSH1 0x0 SWAP2 SWAP1 SWAP2 MSTORE PUSH32 0x9346AC6DD7DE6B96975FEC380D4D994C4C12E6A8897544F22915316CC6CCA280 ADD DUP1 SLOAD SWAP5 SWAP1 SWAP2 AND PUSH1 0x1 PUSH1 0x1 PUSH1 0xA0 SHL SUB NOT SWAP1 SWAP5 AND SWAP4 SWAP1 SWAP4 OR SWAP1 SWAP3 SSTORE POP POP JUMP JUMPDEST PUSH2 0x102A PUSH2 0x202F JUMP JUMPDEST PUSH2 0x103 DUP1 SLOAD PUSH1 0x1 PUSH1 0x1 PUSH1 0xA0 SHL SUB NOT AND PUSH1 0x1 PUSH1 0x1 PUSH1 0xA0 SHL SUB SWAP3 SWAP1 SWAP3 AND SWAP2 SWAP1 SWAP2 OR SWAP1 SSTORE JUMP JUMPDEST PUSH2 0x107B PUSH1 0x40 MLOAD DUP1 PUSH1 0x80 ADD PUSH1 0x40 MSTORE DUP1 PUSH1 0x0 PUSH1 0xFF AND DUP2 MSTORE PUSH1 0x20 ADD PUSH1 0x60 DUP2 MSTORE PUSH1 0x20 ADD PUSH1 0x0 DUP2 MSTORE PUSH1 0x20 ADD PUSH1 0x0 DUP2 MSTORE POP SWAP1 JUMP JUMPDEST PUSH1 0xFF DUP1 DUP4 AND PUSH1 0x0 SWAP1 DUP2 MSTORE PUSH2 0x106 PUSH1 0x20 SWAP1 DUP2 MSTORE PUSH1 0x40 SWAP2 DUP3 SWAP1 KECCAK256 DUP3 MLOAD PUSH1 0x80 DUP2 ADD SWAP1 SWAP4 MSTORE DUP1 SLOAD SWAP1 SWAP4 AND DUP3 MSTORE PUSH1 0x1 DUP4 ADD DUP1 SLOAD SWAP3 SWAP4 SWAP3 SWAP2 DUP5 ADD SWAP2 PUSH2 0x10B9 SWAP1 PUSH2 0x2EC0 JUMP JUMPDEST DUP1 PUSH1 0x1F ADD PUSH1 0x20 DUP1 SWAP2 DIV MUL PUSH1 0x20 ADD PUSH1 0x40 MLOAD SWAP1 DUP2 ADD PUSH1 0x40 MSTORE DUP1 SWAP3 SWAP2 SWAP1 DUP2 DUP2 MSTORE PUSH1 0x20 ADD DUP3 DUP1 SLOAD PUSH2 0x10E5 SWAP1 PUSH2 0x2EC0 JUMP JUMPDEST DUP1 ISZERO PUSH2 0x1132 JUMPI DUP1 PUSH1 0x1F LT PUSH2 0x1107 JUMPI PUSH2 0x100 DUP1 DUP4 SLOAD DIV MUL DUP4 MSTORE SWAP2 PUSH1 0x20 ADD SWAP2 PUSH2 0x1132 JUMP JUMPDEST DUP3 ADD SWAP2 SWAP1 PUSH1 0x0 MSTORE PUSH1 0x20 PUSH1 0x0 KECCAK256 SWAP1 JUMPDEST DUP2 SLOAD DUP2 MSTORE SWAP1 PUSH1 0x1 ADD SWAP1 PUSH1 0x20 ADD DUP1 DUP4 GT PUSH2 0x1115 JUMPI DUP3 SWAP1 SUB PUSH1 0x1F AND DUP3 ADD SWAP2 JUMPDEST POP POP POP POP POP DUP2 MSTORE PUSH1 0x20 ADD PUSH1 0x2 DUP3 ADD SLOAD DUP2 MSTORE PUSH1 0x20 ADD PUSH1 0x3 DUP3 ADD SLOAD DUP2 MSTORE POP POP SWAP1 POP SWAP2 SWAP1 POP JUMP JUMPDEST PUSH2 0x115E PUSH2 0x202F JUMP JUMPDEST PUSH2 0x105 DUP1 SLOAD PUSH1 0x1 PUSH1 0x1 PUSH1 0xA0 SHL SUB NOT AND PUSH1 0x1 PUSH1 0x1 PUSH1 0xA0 SHL SUB SWAP3 SWAP1 SWAP3 AND SWAP2 SWAP1 SWAP2 OR SWAP1 SSTORE JUMP JUMPDEST PUSH1 0x1 PUSH1 0x1 PUSH1 0xA0 SHL SUB PUSH32 0x0 AND ADDRESS SUB PUSH2 0x11D2 JUMPI PUSH1 0x40 MLOAD PUSH3 0x461BCD PUSH1 0xE5 SHL DUP2 MSTORE PUSH1 0x4 ADD PUSH2 0x11C9 SWAP1 PUSH2 0x3008 JUMP JUMPDEST PUSH1 0x40 MLOAD DUP1 SWAP2 SUB SWAP1 REVERT JUMPDEST PUSH32 0x0 PUSH1 0x1 PUSH1 0x1 PUSH1 0xA0 SHL SUB AND PUSH2 0x121B PUSH1 0x0 DUP1 MLOAD PUSH1 0x20 PUSH2 0x316A DUP4 CODECOPY DUP2 MLOAD SWAP2 MSTORE SLOAD PUSH1 0x1 PUSH1 0x1 PUSH1 0xA0 SHL SUB AND SWAP1 JUMP JUMPDEST PUSH1 0x1 PUSH1 0x1 PUSH1 0xA0 SHL SUB AND EQ PUSH2 0x1241 JUMPI PUSH1 0x40 MLOAD PUSH3 0x461BCD PUSH1 0xE5 SHL DUP2 MSTORE PUSH1 0x4 ADD PUSH2 0x11C9 SWAP1 PUSH2 0x3054 JUMP JUMPDEST PUSH2 0x124A DUP2 PUSH2 0x2089 JUMP JUMPDEST PUSH1 0x40 DUP1 MLOAD PUSH1 0x0 DUP1 DUP3 MSTORE PUSH1 0x20 DUP3 ADD SWAP1 SWAP3 MSTORE PUSH2 0x1266 SWAP2 DUP4 SWAP2 SWAP1 PUSH2 0x2091 JUMP JUMPDEST POP JUMP JUMPDEST PUSH2 0x1271 PUSH2 0x202F JUMP JUMPDEST PUSH1 0xFC DUP1 SLOAD SWAP2 ISZERO ISZERO PUSH1 0x1 PUSH1 0x68 SHL MUL PUSH1 0xFF PUSH1 0x68 SHL NOT SWAP1 SWAP3 AND SWAP2 SWAP1 SWAP2 OR SWAP1 SSTORE JUMP JUMPDEST PUSH2 0x1297 PUSH2 0x202F JUMP JUMPDEST PUSH2 0x129F PUSH2 0x21FC JUMP JUMPDEST JUMP JUMPDEST PUSH2 0x12A9 PUSH2 0x202F JUMP JUMPDEST PUSH1 0xFC DUP1 SLOAD SWAP2 ISZERO ISZERO PUSH1 0x1 PUSH1 0x78 SHL MUL PUSH1 0xFF PUSH1 0x78 SHL NOT SWAP1 SWAP3 AND SWAP2 SWAP1 SWAP2 OR SWAP1 SSTORE JUMP JUMPDEST PUSH1 0x1 PUSH1 0x1 PUSH1 0xA0 SHL SUB PUSH32 0x0 AND ADDRESS SUB PUSH2 0x130F JUMPI PUSH1 0x40 MLOAD PUSH3 0x461BCD PUSH1 0xE5 SHL DUP2 MSTORE PUSH1 0x4 ADD PUSH2 0x11C9 SWAP1 PUSH2 0x3008 JUMP JUMPDEST PUSH32 0x0 PUSH1 0x1 PUSH1 0x1 PUSH1 0xA0 SHL SUB AND PUSH2 0x1358 PUSH1 0x0 DUP1 MLOAD PUSH1 0x20 PUSH2 0x316A DUP4 CODECOPY DUP2 MLOAD SWAP2 MSTORE SLOAD PUSH1 0x1 PUSH1 0x1 PUSH1 0xA0 SHL SUB AND SWAP1 JUMP JUMPDEST PUSH1 0x1 PUSH1 0x1 PUSH1 0xA0 SHL SUB AND EQ PUSH2 0x137E JUMPI PUSH1 0x40 MLOAD PUSH3 0x461BCD PUSH1 0xE5 SHL DUP2 MSTORE PUSH1 0x4 ADD PUSH2 0x11C9 SWAP1 PUSH2 0x3054 JUMP JUMPDEST PUSH2 0x1387 DUP3 PUSH2 0x2089 JUMP JUMPDEST PUSH2 0xD8D DUP3 DUP3 PUSH1 0x1 PUSH2 0x2091 JUMP JUMPDEST PUSH1 0x0 ADDRESS PUSH1 0x1 PUSH1 0x1 PUSH1 0xA0 SHL SUB PUSH32 0x0 AND EQ PUSH2 0x1433 JUMPI PUSH1 0x40 MLOAD PUSH3 0x461BCD PUSH1 0xE5 SHL DUP2 MSTORE PUSH1 0x20 PUSH1 0x4 DUP3 ADD MSTORE PUSH1 0x38 PUSH1 0x24 DUP3 ADD MSTORE PUSH32 0x555550535570677261646561626C653A206D757374206E6F742062652063616C PUSH1 0x44 DUP3 ADD MSTORE PUSH32 0x6C6564207468726F7567682064656C656761746563616C6C0000000000000000 PUSH1 0x64 DUP3 ADD MSTORE PUSH1 0x84 ADD PUSH2 0x11C9 JUMP JUMPDEST POP PUSH1 0x0 DUP1 MLOAD PUSH1 0x20 PUSH2 0x316A DUP4 CODECOPY DUP2 MLOAD SWAP2 MSTORE SWAP1 JUMP JUMPDEST PUSH2 0x144E PUSH2 0x202F JUMP JUMPDEST PUSH1 0x0 JUMPDEST PUSH1 0xFF DUP2 AND DUP3 GT ISZERO PUSH2 0x1533 JUMPI PUSH1 0x0 PUSH2 0x107 PUSH1 0x0 DUP6 DUP6 DUP6 PUSH1 0xFF AND DUP2 DUP2 LT PUSH2 0x1478 JUMPI PUSH2 0x1478 PUSH2 0x2DBE JUMP JUMPDEST SWAP1 POP PUSH1 0x20 MUL ADD PUSH1 0x20 DUP2 ADD SWAP1 PUSH2 0x148D SWAP2 SWAP1 PUSH2 0x2766 JUMP JUMPDEST PUSH1 0x1 PUSH1 0x1 PUSH1 0xA0 SHL SUB AND DUP2 MSTORE PUSH1 0x20 DUP2 ADD SWAP2 SWAP1 SWAP2 MSTORE PUSH1 0x40 ADD PUSH1 0x0 KECCAK256 PUSH1 0x3 ADD DUP1 SLOAD SWAP2 ISZERO ISZERO PUSH1 0x1 PUSH1 0xB0 SHL MUL PUSH1 0xFF PUSH1 0xB0 SHL NOT SWAP1 SWAP3 AND SWAP2 SWAP1 SWAP2 OR SWAP1 SSTORE PUSH1 0xFD DUP4 DUP4 PUSH1 0xFF DUP5 AND DUP2 DUP2 LT PUSH2 0x14DA JUMPI PUSH2 0x14DA PUSH2 0x2DBE JUMP JUMPDEST SWAP1 POP PUSH1 0x20 MUL ADD PUSH1 0x20 DUP2 ADD SWAP1 PUSH2 0x14EF SWAP2 SWAP1 PUSH2 0x2766 JUMP JUMPDEST DUP2 SLOAD PUSH1 0x1 DUP2 ADD DUP4 SSTORE PUSH1 0x0 SWAP3 DUP4 MSTORE PUSH1 0x20 SWAP1 SWAP3 KECCAK256 SWAP1 SWAP2 ADD DUP1 SLOAD PUSH1 0x1 PUSH1 0x1 PUSH1 0xA0 SHL SUB NOT AND PUSH1 0x1 PUSH1 0x1 PUSH1 0xA0 SHL SUB SWAP1 SWAP3 AND SWAP2 SWAP1 SWAP2 OR SWAP1 SSTORE DUP1 PUSH2 0x152B DUP2 PUSH2 0x30A0 JUMP JUMPDEST SWAP2 POP POP PUSH2 0x1451 JUMP JUMPDEST POP POP POP JUMP JUMPDEST PUSH2 0x1540 PUSH2 0x202F JUMP JUMPDEST PUSH1 0xFC DUP1 SLOAD SWAP2 ISZERO ISZERO PUSH1 0x1 PUSH1 0x70 SHL MUL PUSH1 0xFF PUSH1 0x70 SHL NOT SWAP1 SWAP3 AND SWAP2 SWAP1 SWAP2 OR SWAP1 SSTORE JUMP JUMPDEST PUSH1 0xFD DUP2 DUP2 SLOAD DUP2 LT PUSH2 0x156E JUMPI PUSH1 0x0 DUP1 REVERT JUMPDEST PUSH1 0x0 SWAP2 DUP3 MSTORE PUSH1 0x20 SWAP1 SWAP2 KECCAK256 ADD SLOAD PUSH1 0x1 PUSH1 0x1 PUSH1 0xA0 SHL SUB AND SWAP1 POP DUP2 JUMP JUMPDEST PUSH2 0x1590 PUSH2 0x202F JUMP JUMPDEST PUSH1 0xFC DUP1 SLOAD PUSH1 0xFF SWAP1 SWAP3 AND PUSH1 0x1 PUSH1 0x40 SHL MUL PUSH9 0xFF0000000000000000 NOT SWAP1 SWAP3 AND SWAP2 SWAP1 SWAP2 OR SWAP1 SSTORE JUMP JUMPDEST PUSH2 0x15BD PUSH2 0x202F JUMP JUMPDEST PUSH2 0x129F PUSH1 0x0 PUSH2 0x224E JUMP JUMPDEST PUSH1 0x0 SLOAD PUSH2 0x100 SWAP1 DIV PUSH1 0xFF AND ISZERO DUP1 DUP1 ISZERO PUSH2 0x15E7 JUMPI POP PUSH1 0x0 SLOAD PUSH1 0x1 PUSH1 0xFF SWAP1 SWAP2 AND LT JUMPDEST DUP1 PUSH2 0x1601 JUMPI POP ADDRESS EXTCODESIZE ISZERO DUP1 ISZERO PUSH2 0x1601 JUMPI POP PUSH1 0x0 SLOAD PUSH1 0xFF AND PUSH1 0x1 EQ JUMPDEST PUSH2 0x1664 JUMPI PUSH1 0x40 MLOAD PUSH3 0x461BCD PUSH1 0xE5 SHL DUP2 MSTORE PUSH1 0x20 PUSH1 0x4 DUP3 ADD MSTORE PUSH1 0x2E PUSH1 0x24 DUP3 ADD MSTORE PUSH32 0x496E697469616C697A61626C653A20636F6E747261637420697320616C726561 PUSH1 0x44 DUP3 ADD MSTORE PUSH14 0x191E481A5B9A5D1A585B1A5E9959 PUSH1 0x92 SHL PUSH1 0x64 DUP3 ADD MSTORE PUSH1 0x84 ADD PUSH2 0x11C9 JUMP JUMPDEST PUSH1 0x0 DUP1 SLOAD PUSH1 0xFF NOT AND PUSH1 0x1 OR SWAP1 SSTORE DUP1 ISZERO PUSH2 0x1687 JUMPI PUSH1 0x0 DUP1 SLOAD PUSH2 0xFF00 NOT AND PUSH2 0x100 OR SWAP1 SSTORE JUMPDEST PUSH1 0x40 DUP1 MLOAD PUSH2 0x140 DUP2 ADD DUP3 MSTORE PUSH2 0x1388 DUP2 MSTORE PUSH2 0x1F4 PUSH1 0x20 DUP3 ADD MSTORE PUSH2 0x190 SWAP2 DUP2 ADD SWAP2 SWAP1 SWAP2 MSTORE PUSH2 0x12C PUSH1 0x60 DUP3 ADD MSTORE PUSH1 0xC8 PUSH1 0x80 DUP3 ADD MSTORE PUSH1 0x64 PUSH1 0xA0 DUP3 ADD DUP2 SWAP1 MSTORE PUSH1 0xC0 DUP3 ADD MSTORE PUSH1 0x7D PUSH1 0xE0 DUP3 ADD DUP2 SWAP1 MSTORE PUSH2 0x100 DUP3 ADD MSTORE PUSH1 0x96 PUSH2 0x120 DUP3 ADD MSTORE PUSH2 0x16EB SWAP1 PUSH1 0xFB SWAP1 PUSH1 0xA PUSH2 0x2695 JUMP JUMPDEST POP PUSH1 0xFC DUP1 SLOAD PUSH2 0x103 DUP1 SLOAD PUSH1 0x1 PUSH1 0x1 PUSH1 0xA0 SHL SUB NOT SWAP1 DUP2 AND PUSH20 0x7F9FD63932BABC508FAD2F324EB534D09CFE86F0 OR SWAP1 SWAP2 SSTORE PUSH16 0x10101010101030302050A0A0A002710 PUSH16 0xFFFFFFFFFFFFFFFFFFFFFFFFFF00FFFF NOT SWAP1 SWAP3 AND SWAP2 SWAP1 SWAP2 OR SWAP1 SWAP2 SSTORE PUSH2 0x104 DUP1 SLOAD DUP3 AND PUSH20 0xEFB61C43C70B60563C1A2A835663C63ECC93F6BA OR SWAP1 SSTORE PUSH2 0x105 DUP1 SLOAD SWAP1 SWAP2 AND CALLER OR SWAP1 SSTORE PUSH2 0x177A PUSH2 0x22A0 JUMP JUMPDEST PUSH2 0x1782 PUSH2 0x22CF JUMP JUMPDEST PUSH2 0x178A PUSH2 0x22FE JUMP JUMPDEST DUP1 ISZERO PUSH2 0x1266 JUMPI PUSH1 0x0 DUP1 SLOAD PUSH2 0xFF00 NOT AND SWAP1 SSTORE PUSH1 0x40 MLOAD PUSH1 0x1 DUP2 MSTORE PUSH32 0x7F26B83FF96E1F2B6A682F133852F6798A09C465DA95921460CEFB3847402498 SWAP1 PUSH1 0x20 ADD PUSH1 0x40 MLOAD DUP1 SWAP2 SUB SWAP1 LOG1 POP JUMP JUMPDEST PUSH2 0x17DA PUSH2 0x202F JUMP JUMPDEST PUSH2 0x129F PUSH2 0x2325 JUMP JUMPDEST PUSH2 0x17EA PUSH2 0x202F JUMP JUMPDEST PUSH1 0xFC DUP1 SLOAD PUSH1 0xFF SWAP1 SWAP3 AND PUSH7 0x1000000000000 MUL PUSH7 0xFF000000000000 NOT SWAP1 SWAP3 AND SWAP2 SWAP1 SWAP2 OR SWAP1 SSTORE JUMP JUMPDEST PUSH1 0x60 PUSH1 0xFB DUP1 SLOAD DUP1 PUSH1 0x20 MUL PUSH1 0x20 ADD PUSH1 0x40 MLOAD SWAP1 DUP2 ADD PUSH1 0x40 MSTORE DUP1 SWAP3 SWAP2 SWAP1 DUP2 DUP2 MSTORE PUSH1 0x20 ADD DUP3 DUP1 SLOAD DUP1 ISZERO PUSH2 0x1886 JUMPI PUSH1 0x20 MUL DUP3 ADD SWAP2 SWAP1 PUSH1 0x0 MSTORE PUSH1 0x20 PUSH1 0x0 KECCAK256 SWAP1 PUSH1 0x0 SWAP1 JUMPDEST DUP3 DUP3 SWAP1 SLOAD SWAP1 PUSH2 0x100 EXP SWAP1 DIV PUSH2 0xFFFF AND PUSH2 0xFFFF AND DUP2 MSTORE PUSH1 0x20 ADD SWAP1 PUSH1 0x2 ADD SWAP1 PUSH1 0x20 DUP3 PUSH1 0x1 ADD DIV SWAP3 DUP4 ADD SWAP3 PUSH1 0x1 SUB DUP3 MUL SWAP2 POP DUP1 DUP5 GT PUSH2 0x184D JUMPI SWAP1 POP JUMPDEST POP POP POP POP POP SWAP1 POP SWAP1 JUMP JUMPDEST PUSH2 0x1898 PUSH2 0x202F JUMP JUMPDEST PUSH1 0xFC DUP1 SLOAD SWAP2 ISZERO ISZERO PUSH1 0x1 PUSH1 0x60 SHL MUL PUSH1 0xFF PUSH1 0x60 SHL NOT SWAP1 SWAP3 AND SWAP2 SWAP1 SWAP2 OR SWAP1 SSTORE JUMP JUMPDEST PUSH2 0x18BE PUSH2 0x202F JUMP JUMPDEST PUSH1 0xFC DUP1 SLOAD PUSH1 0xFF SWAP1 SWAP3 AND PUSH4 0x1000000 MUL PUSH4 0xFF000000 NOT SWAP1 SWAP3 AND SWAP2 SWAP1 SWAP2 OR SWAP1 SSTORE JUMP JUMPDEST PUSH2 0x18E6 PUSH2 0x202F JUMP JUMPDEST PUSH1 0xFC DUP1 SLOAD PUSH2 0xFFFF NOT AND PUSH2 0xFFFF SWAP3 SWAP1 SWAP3 AND SWAP2 SWAP1 SWAP2 OR SWAP1 SSTORE JUMP JUMPDEST PUSH2 0x1906 PUSH2 0x202F JUMP JUMPDEST PUSH1 0xFC DUP1 SLOAD PUSH1 0xFF SWAP1 SWAP3 AND PUSH3 0x10000 MUL PUSH3 0xFF0000 NOT SWAP1 SWAP3 AND SWAP2 SWAP1 SWAP2 OR SWAP1 SSTORE JUMP JUMPDEST PUSH2 0x192C PUSH2 0x202F JUMP JUMPDEST PUSH1 0xFC DUP1 SLOAD PUSH1 0xFF SWAP1 SWAP3 AND PUSH1 0x1 PUSH1 0x38 SHL MUL PUSH8 0xFF00000000000000 NOT SWAP1 SWAP3 AND SWAP2 SWAP1 SWAP2 OR SWAP1 SSTORE JUMP JUMPDEST PUSH2 0x1958 PUSH2 0x202F JUMP JUMPDEST PUSH1 0xFF DUP1 SLOAD PUSH1 0x1 PUSH1 0x1 PUSH1 0xA0 SHL SUB NOT AND PUSH1 0x1 PUSH1 0x1 PUSH1 0xA0 SHL SUB SWAP3 SWAP1 SWAP3 AND SWAP2 SWAP1 SWAP2 OR SWAP1 SSTORE JUMP JUMPDEST PUSH2 0x1982 PUSH2 0x202F JUMP JUMPDEST PUSH1 0xFC DUP1 SLOAD PUSH1 0xFF SWAP1 SWAP3 AND PUSH6 0x10000000000 MUL PUSH6 0xFF0000000000 NOT SWAP1 SWAP3 AND SWAP2 SWAP1 SWAP2 OR SWAP1 SSTORE JUMP JUMPDEST PUSH1 0x0 DUP1 JUMPDEST PUSH1 0x14 DUP2 PUSH1 0xFF AND LT ISZERO PUSH2 0x19F2 JUMPI PUSH1 0xFF DUP2 AND PUSH1 0x0 SWAP1 DUP2 MSTORE PUSH2 0x106 PUSH1 0x20 MSTORE PUSH1 0x40 SWAP1 KECCAK256 PUSH1 0x2 ADD SLOAD ISZERO PUSH2 0x19E0 JUMPI DUP2 PUSH2 0x19DC DUP2 PUSH2 0x30A0 JUMP JUMPDEST SWAP3 POP POP JUMPDEST DUP1 PUSH2 0x19EA DUP2 PUSH2 0x30A0 JUMP JUMPDEST SWAP2 POP POP PUSH2 0x19AA JUMP JUMPDEST POP SWAP1 JUMP JUMPDEST PUSH2 0x19FE PUSH2 0x202F JUMP JUMPDEST PUSH1 0xFC DUP1 SLOAD PUSH1 0xFF SWAP1 SWAP3 AND PUSH5 0x100000000 MUL PUSH5 0xFF00000000 NOT SWAP1 SWAP3 AND SWAP2 SWAP1 SWAP2 OR SWAP1 SSTORE JUMP JUMPDEST PUSH2 0x1A28 PUSH2 0x202F JUMP JUMPDEST PUSH1 0xFC DUP1 SLOAD SWAP2 ISZERO ISZERO PUSH1 0x1 PUSH1 0x58 SHL MUL PUSH1 0xFF PUSH1 0x58 SHL NOT SWAP1 SWAP3 AND SWAP2 SWAP1 SWAP2 OR SWAP1 SSTORE JUMP JUMPDEST PUSH2 0x1A4E PUSH2 0x202F JUMP JUMPDEST PUSH1 0xFC DUP1 SLOAD PUSH1 0xFF SWAP1 SWAP3 AND PUSH1 0x1 PUSH1 0x48 SHL MUL PUSH10 0xFF000000000000000000 NOT SWAP1 SWAP3 AND SWAP2 SWAP1 SWAP2 OR SWAP1 SSTORE JUMP JUMPDEST PUSH2 0x1A7C PUSH2 0x202F JUMP JUMPDEST PUSH1 0x0 JUMPDEST DUP7 DUP2 LT ISZERO PUSH2 0x1C46 JUMPI DUP8 DUP8 DUP3 DUP2 DUP2 LT PUSH2 0x1A99 JUMPI PUSH2 0x1A99 PUSH2 0x2DBE JUMP JUMPDEST SWAP1 POP PUSH1 0x20 MUL ADD PUSH1 0x20 DUP2 ADD SWAP1 PUSH2 0x1AAE SWAP2 SWAP1 PUSH2 0x27E3 JUMP JUMPDEST PUSH2 0x106 PUSH1 0x0 DUP11 DUP11 DUP6 DUP2 DUP2 LT PUSH2 0x1AC5 JUMPI PUSH2 0x1AC5 PUSH2 0x2DBE JUMP JUMPDEST SWAP1 POP PUSH1 0x20 MUL ADD PUSH1 0x20 DUP2 ADD SWAP1 PUSH2 0x1ADA SWAP2 SWAP1 PUSH2 0x27E3 JUMP JUMPDEST PUSH1 0xFF SWAP1 DUP2 AND DUP3 MSTORE PUSH1 0x20 DUP3 ADD SWAP3 SWAP1 SWAP3 MSTORE PUSH1 0x40 ADD PUSH1 0x0 KECCAK256 DUP1 SLOAD PUSH1 0xFF NOT AND SWAP3 SWAP1 SWAP2 AND SWAP2 SWAP1 SWAP2 OR SWAP1 SSTORE DUP6 MLOAD DUP7 SWAP1 DUP3 SWAP1 DUP2 LT PUSH2 0x1B13 JUMPI PUSH2 0x1B13 PUSH2 0x2DBE JUMP JUMPDEST PUSH1 0x20 MUL PUSH1 0x20 ADD ADD MLOAD PUSH2 0x106 PUSH1 0x0 DUP11 DUP11 DUP6 DUP2 DUP2 LT PUSH2 0x1B32 JUMPI PUSH2 0x1B32 PUSH2 0x2DBE JUMP JUMPDEST SWAP1 POP PUSH1 0x20 MUL ADD PUSH1 0x20 DUP2 ADD SWAP1 PUSH2 0x1B47 SWAP2 SWAP1 PUSH2 0x27E3 JUMP JUMPDEST PUSH1 0xFF AND DUP2 MSTORE PUSH1 0x20 DUP2 ADD SWAP2 SWAP1 SWAP2 MSTORE PUSH1 0x40 ADD PUSH1 0x0 KECCAK256 PUSH1 0x1 ADD SWAP1 PUSH2 0x1B68 SWAP1 DUP3 PUSH2 0x2F48 JUMP JUMPDEST POP DUP5 DUP5 DUP3 DUP2 DUP2 LT PUSH2 0x1B7B JUMPI PUSH2 0x1B7B PUSH2 0x2DBE JUMP JUMPDEST SWAP1 POP PUSH1 0x20 MUL ADD CALLDATALOAD PUSH8 0xDE0B6B3A7640000 PUSH2 0x1B95 SWAP2 SWAP1 PUSH2 0x30BF JUMP JUMPDEST PUSH2 0x106 PUSH1 0x0 DUP11 DUP11 DUP6 DUP2 DUP2 LT PUSH2 0x1BAC JUMPI PUSH2 0x1BAC PUSH2 0x2DBE JUMP JUMPDEST SWAP1 POP PUSH1 0x20 MUL ADD PUSH1 0x20 DUP2 ADD SWAP1 PUSH2 0x1BC1 SWAP2 SWAP1 PUSH2 0x27E3 JUMP JUMPDEST PUSH1 0xFF AND DUP2 MSTORE PUSH1 0x20 DUP2 ADD SWAP2 SWAP1 SWAP2 MSTORE PUSH1 0x40 ADD PUSH1 0x0 KECCAK256 PUSH1 0x2 ADD SSTORE DUP3 DUP3 DUP3 DUP2 DUP2 LT PUSH2 0x1BEA JUMPI PUSH2 0x1BEA PUSH2 0x2DBE JUMP JUMPDEST SWAP1 POP PUSH1 0x20 MUL ADD CALLDATALOAD PUSH2 0x106 PUSH1 0x0 DUP11 DUP11 DUP6 DUP2 DUP2 LT PUSH2 0x1C08 JUMPI PUSH2 0x1C08 PUSH2 0x2DBE JUMP JUMPDEST SWAP1 POP PUSH1 0x20 MUL ADD PUSH1 0x20 DUP2 ADD SWAP1 PUSH2 0x1C1D SWAP2 SWAP1 PUSH2 0x27E3 JUMP JUMPDEST PUSH1 0xFF AND DUP2 MSTORE PUSH1 0x20 DUP2 ADD SWAP2 SWAP1 SWAP2 MSTORE PUSH1 0x40 ADD PUSH1 0x0 KECCAK256 PUSH1 0x3 ADD SSTORE DUP1 PUSH2 0x1C3E DUP2 PUSH2 0x2E13 JUMP JUMPDEST SWAP2 POP POP PUSH2 0x1A7F JUMP JUMPDEST POP POP POP POP POP POP POP POP JUMP JUMPDEST PUSH2 0x1C58 PUSH2 0x202F JUMP JUMPDEST DUP1 MLOAD PUSH2 0xD8D SWAP1 PUSH1 0xFB SWAP1 PUSH1 0x20 DUP5 ADD SWAP1 PUSH2 0x2695 JUMP JUMPDEST PUSH2 0x1C73 PUSH2 0x202F JUMP JUMPDEST PUSH1 0x1 PUSH1 0x1 PUSH1 0xA0 SHL SUB DUP2 AND PUSH1 0x0 SWAP1 DUP2 MSTORE PUSH2 0x108 PUSH1 0x20 MSTORE PUSH1 0x40 SWAP1 KECCAK256 SLOAD PUSH1 0xFF AND DUP1 PUSH2 0xD8D JUMPI PUSH1 0x1 PUSH1 0x1 PUSH1 0xA0 SHL SUB DUP3 AND PUSH1 0x0 DUP2 DUP2 MSTORE PUSH2 0x108 PUSH1 0x20 SWAP1 DUP2 MSTORE PUSH1 0x40 DUP1 DUP4 KECCAK256 DUP1 SLOAD PUSH1 0xFF NOT AND PUSH1 0x1 SWAP1 DUP2 OR SWAP1 SWAP2 SSTORE PUSH1 0xFE DUP1 SLOAD SWAP2 DUP3 ADD DUP2 SSTORE SWAP1 SWAP4 MSTORE PUSH32 0x54075DF80EC1AE6AC9100E1FD0EBF3246C17F5C933137AF392011F4C5F61513A SWAP1 SWAP3 ADD DUP1 SLOAD PUSH1 0x1 PUSH1 0x1 PUSH1 0xA0 SHL SUB NOT AND DUP5 OR SWAP1 SSTORE SWAP1 MLOAD SWAP2 DUP3 MSTORE PUSH32 0xE30F8CB0D8CBC7C0E95D5AAA3107CE401738CE4BC98A05DD081BB2A77A9CA749 SWAP2 ADD PUSH1 0x40 MLOAD DUP1 SWAP2 SUB SWAP1 LOG1 POP POP JUMP JUMPDEST PUSH1 0x40 DUP1 MLOAD PUSH1 0xE0 DUP1 DUP3 ADD DUP4 MSTORE PUSH1 0x0 DUP1 DUP4 MSTORE PUSH1 0x60 PUSH1 0x20 DUP1 DUP6 ADD DUP3 SWAP1 MSTORE DUP5 DUP7 ADD DUP3 SWAP1 MSTORE SWAP1 DUP5 ADD DUP3 SWAP1 MSTORE PUSH1 0x80 DUP5 ADD DUP3 SWAP1 MSTORE PUSH1 0xA0 DUP5 ADD DUP3 SWAP1 MSTORE PUSH1 0xC0 DUP5 ADD DUP3 SWAP1 MSTORE PUSH1 0x1 PUSH1 0x1 PUSH1 0xA0 SHL SUB DUP7 DUP2 AND DUP4 MSTORE PUSH2 0x107 DUP3 MSTORE SWAP2 DUP6 SWAP1 KECCAK256 DUP6 MLOAD SWAP4 DUP5 ADD SWAP1 SWAP6 MSTORE DUP5 SLOAD SWAP1 SWAP2 AND DUP3 MSTORE PUSH1 0x1 DUP5 ADD DUP1 SLOAD SWAP4 SWAP5 SWAP3 SWAP4 SWAP2 DUP5 ADD SWAP2 PUSH2 0x1DAA SWAP1 PUSH2 0x2EC0 JUMP JUMPDEST DUP1 PUSH1 0x1F ADD PUSH1 0x20 DUP1 SWAP2 DIV MUL PUSH1 0x20 ADD PUSH1 0x40 MLOAD SWAP1 DUP2 ADD PUSH1 0x40 MSTORE DUP1 SWAP3 SWAP2 SWAP1 DUP2 DUP2 MSTORE PUSH1 0x20 ADD DUP3 DUP1 SLOAD PUSH2 0x1DD6 SWAP1 PUSH2 0x2EC0 JUMP JUMPDEST DUP1 ISZERO PUSH2 0x1E23 JUMPI DUP1 PUSH1 0x1F LT PUSH2 0x1DF8 JUMPI PUSH2 0x100 DUP1 DUP4 SLOAD DIV MUL DUP4 MSTORE SWAP2 PUSH1 0x20 ADD SWAP2 PUSH2 0x1E23 JUMP JUMPDEST DUP3 ADD SWAP2 SWAP1 PUSH1 0x0 MSTORE PUSH1 0x20 PUSH1 0x0 KECCAK256 SWAP1 JUMPDEST DUP2 SLOAD DUP2 MSTORE SWAP1 PUSH1 0x1 ADD SWAP1 PUSH1 0x20 ADD DUP1 DUP4 GT PUSH2 0x1E06 JUMPI DUP3 SWAP1 SUB PUSH1 0x1F AND DUP3 ADD SWAP2 JUMPDEST POP POP POP POP POP DUP2 MSTORE PUSH1 0x20 ADD PUSH1 0x2 DUP3 ADD DUP1 SLOAD PUSH2 0x1E3C SWAP1 PUSH2 0x2EC0 JUMP JUMPDEST DUP1 PUSH1 0x1F ADD PUSH1 0x20 DUP1 SWAP2 DIV MUL PUSH1 0x20 ADD PUSH1 0x40 MLOAD SWAP1 DUP2 ADD PUSH1 0x40 MSTORE DUP1 SWAP3 SWAP2 SWAP1 DUP2 DUP2 MSTORE PUSH1 0x20 ADD DUP3 DUP1 SLOAD PUSH2 0x1E68 SWAP1 PUSH2 0x2EC0 JUMP JUMPDEST DUP1 ISZERO PUSH2 0x1EB5 JUMPI DUP1 PUSH1 0x1F LT PUSH2 0x1E8A JUMPI PUSH2 0x100 DUP1 DUP4 SLOAD DIV MUL DUP4 MSTORE SWAP2 PUSH1 0x20 ADD SWAP2 PUSH2 0x1EB5 JUMP JUMPDEST DUP3 ADD SWAP2 SWAP1 PUSH1 0x0 MSTORE PUSH1 0x20 PUSH1 0x0 KECCAK256 SWAP1 JUMPDEST DUP2 SLOAD DUP2 MSTORE SWAP1 PUSH1 0x1 ADD SWAP1 PUSH1 0x20 ADD DUP1 DUP4 GT PUSH2 0x1E98 JUMPI DUP3 SWAP1 SUB PUSH1 0x1F AND DUP3 ADD SWAP2 JUMPDEST POP POP POP SWAP2 DUP4 MSTORE POP POP PUSH1 0x3 SWAP2 SWAP1 SWAP2 ADD SLOAD PUSH1 0xFF DUP1 DUP3 AND PUSH1 0x20 DUP5 ADD MSTORE PUSH2 0x100 DUP3 DIV DUP2 AND ISZERO ISZERO PUSH1 0x40 DUP5 ADD MSTORE PUSH1 0x1 PUSH1 0x1 PUSH1 0xA0 SHL SUB PUSH3 0x10000 DUP4 DIV AND PUSH1 0x60 DUP5 ADD MSTORE PUSH1 0x1 PUSH1 0xB0 SHL SWAP1 SWAP2 DIV AND ISZERO ISZERO PUSH1 0x80 SWAP1 SWAP2 ADD MSTORE SWAP3 SWAP2 POP POP JUMP JUMPDEST PUSH2 0x1F0F PUSH2 0x202F JUMP JUMPDEST PUSH1 0xFC DUP1 SLOAD SWAP2 ISZERO ISZERO PUSH1 0x1 PUSH1 0x50 SHL MUL PUSH1 0xFF PUSH1 0x50 SHL NOT SWAP1 SWAP3 AND SWAP2 SWAP1 SWAP2 OR SWAP1 SSTORE JUMP JUMPDEST PUSH2 0x1F35 PUSH2 0x202F JUMP JUMPDEST PUSH2 0x104 DUP1 SLOAD PUSH1 0x1 PUSH1 0x1 PUSH1 0xA0 SHL SUB NOT AND PUSH1 0x1 PUSH1 0x1 PUSH1 0xA0 SHL SUB SWAP3 SWAP1 SWAP3 AND SWAP2 SWAP1 SWAP2 OR SWAP1 SSTORE JUMP JUMPDEST PUSH2 0x1F60 PUSH2 0x202F JUMP JUMPDEST PUSH1 0x1 PUSH1 0x1 PUSH1 0xA0 SHL SUB DUP2 AND PUSH2 0x1FC5 JUMPI PUSH1 0x40 MLOAD PUSH3 0x461BCD PUSH1 0xE5 SHL DUP2 MSTORE PUSH1 0x20 PUSH1 0x4 DUP3 ADD MSTORE PUSH1 0x26 PUSH1 0x24 DUP3 ADD MSTORE PUSH32 0x4F776E61626C653A206E6577206F776E657220697320746865207A65726F2061 PUSH1 0x44 DUP3 ADD MSTORE PUSH6 0x646472657373 PUSH1 0xD0 SHL PUSH1 0x64 DUP3 ADD MSTORE PUSH1 0x84 ADD PUSH2 0x11C9 JUMP JUMPDEST PUSH2 0x1266 DUP2 PUSH2 0x224E JUMP JUMPDEST PUSH1 0x60 PUSH1 0xFE DUP1 SLOAD DUP1 PUSH1 0x20 MUL PUSH1 0x20 ADD PUSH1 0x40 MLOAD SWAP1 DUP2 ADD PUSH1 0x40 MSTORE DUP1 SWAP3 SWAP2 SWAP1 DUP2 DUP2 MSTORE PUSH1 0x20 ADD DUP3 DUP1 SLOAD DUP1 ISZERO PUSH2 0x1886 JUMPI PUSH1 0x20 MUL DUP3 ADD SWAP2 SWAP1 PUSH1 0x0 MSTORE PUSH1 0x20 PUSH1 0x0 KECCAK256 SWAP1 JUMPDEST DUP2 SLOAD PUSH1 0x1 PUSH1 0x1 PUSH1 0xA0 SHL SUB AND DUP2 MSTORE PUSH1 0x1 SWAP1 SWAP2 ADD SWAP1 PUSH1 0x20 ADD DUP1 DUP4 GT PUSH2 0x2008 JUMPI POP POP POP POP POP SWAP1 POP SWAP1 JUMP JUMPDEST PUSH1 0x65 SLOAD PUSH1 0x1 PUSH1 0x1 PUSH1 0xA0 SHL SUB AND CALLER EQ PUSH2 0x129F JUMPI PUSH1 0x40 MLOAD PUSH3 0x461BCD PUSH1 0xE5 SHL DUP2 MSTORE PUSH1 0x20 PUSH1 0x4 DUP3 ADD DUP2 SWAP1 MSTORE PUSH1 0x24 DUP3 ADD MSTORE PUSH32 0x4F776E61626C653A2063616C6C6572206973206E6F7420746865206F776E6572 PUSH1 0x44 DUP3 ADD MSTORE PUSH1 0x64 ADD PUSH2 0x11C9 JUMP JUMPDEST PUSH2 0x1266 PUSH2 0x202F JUMP JUMPDEST PUSH32 0x4910FDFA16FED3260ED0E7147F7CC6DA11A60208B5B9406D12A635614FFD9143 SLOAD PUSH1 0xFF AND ISZERO PUSH2 0x20C4 JUMPI PUSH2 0x1533 DUP4 PUSH2 0x2362 JUMP JUMPDEST DUP3 PUSH1 0x1 PUSH1 0x1 PUSH1 0xA0 SHL SUB AND PUSH4 0x52D1902D PUSH1 0x40 MLOAD DUP2 PUSH4 0xFFFFFFFF AND PUSH1 0xE0 SHL DUP2 MSTORE PUSH1 0x4 ADD PUSH1 0x20 PUSH1 0x40 MLOAD DUP1 DUP4 SUB DUP2 DUP7 GAS STATICCALL SWAP3 POP POP POP DUP1 ISZERO PUSH2 0x211E JUMPI POP PUSH1 0x40 DUP1 MLOAD PUSH1 0x1F RETURNDATASIZE SWAP1 DUP2 ADD PUSH1 0x1F NOT AND DUP3 ADD SWAP1 SWAP3 MSTORE PUSH2 0x211B SWAP2 DUP2 ADD SWAP1 PUSH2 0x30D6 JUMP JUMPDEST PUSH1 0x1 JUMPDEST PUSH2 0x2181 JUMPI PUSH1 0x40 MLOAD PUSH3 0x461BCD PUSH1 0xE5 SHL DUP2 MSTORE PUSH1 0x20 PUSH1 0x4 DUP3 ADD MSTORE PUSH1 0x2E PUSH1 0x24 DUP3 ADD MSTORE PUSH32 0x45524331393637557067726164653A206E657720696D706C656D656E74617469 PUSH1 0x44 DUP3 ADD MSTORE PUSH14 0x6F6E206973206E6F742055555053 PUSH1 0x90 SHL PUSH1 0x64 DUP3 ADD MSTORE PUSH1 0x84 ADD PUSH2 0x11C9 JUMP JUMPDEST PUSH1 0x0 DUP1 MLOAD PUSH1 0x20 PUSH2 0x316A DUP4 CODECOPY DUP2 MLOAD SWAP2 MSTORE DUP2 EQ PUSH2 0x21F0 JUMPI PUSH1 0x40 MLOAD PUSH3 0x461BCD PUSH1 0xE5 SHL DUP2 MSTORE PUSH1 0x20 PUSH1 0x4 DUP3 ADD MSTORE PUSH1 0x29 PUSH1 0x24 DUP3 ADD MSTORE PUSH32 0x45524331393637557067726164653A20756E737570706F727465642070726F78 PUSH1 0x44 DUP3 ADD MSTORE PUSH9 0x1A58589B1955555251 PUSH1 0xBA SHL PUSH1 0x64 DUP3 ADD MSTORE PUSH1 0x84 ADD PUSH2 0x11C9 JUMP JUMPDEST POP PUSH2 0x1533 DUP4 DUP4 DUP4 PUSH2 0x23FE JUMP JUMPDEST PUSH2 0x2204 PUSH2 0x2423 JUMP JUMPDEST PUSH1 0x33 DUP1 SLOAD PUSH1 0xFF NOT AND SWAP1 SSTORE PUSH32 0x5DB9EE0A495BF2E6FF9C91A7834C1BA4FDD244A5E8AA4E537BD38AEAE4B073AA CALLER JUMPDEST PUSH1 0x40 MLOAD PUSH1 0x1 PUSH1 0x1 PUSH1 0xA0 SHL SUB SWAP1 SWAP2 AND DUP2 MSTORE PUSH1 0x20 ADD PUSH1 0x40 MLOAD DUP1 SWAP2 SUB SWAP1 LOG1 JUMP JUMPDEST PUSH1 0x65 DUP1 SLOAD PUSH1 0x1 PUSH1 0x1 PUSH1 0xA0 SHL SUB DUP4 DUP2 AND PUSH1 0x1 PUSH1 0x1 PUSH1 0xA0 SHL SUB NOT DUP4 AND DUP2 OR SWAP1 SWAP4 SSTORE PUSH1 0x40 MLOAD SWAP2 AND SWAP2 SWAP1 DUP3 SWAP1 PUSH32 0x8BE0079C531659141344CD1FD0A4F28419497F9722A3DAAFE3B4186F6B6457E0 SWAP1 PUSH1 0x0 SWAP1 LOG3 POP POP JUMP JUMPDEST PUSH1 0x0 SLOAD PUSH2 0x100 SWAP1 DIV PUSH1 0xFF AND PUSH2 0x22C7 JUMPI PUSH1 0x40 MLOAD PUSH3 0x461BCD PUSH1 0xE5 SHL DUP2 MSTORE PUSH1 0x4 ADD PUSH2 0x11C9 SWAP1 PUSH2 0x30EF JUMP JUMPDEST PUSH2 0x129F PUSH2 0x246C JUMP JUMPDEST PUSH1 0x0 SLOAD PUSH2 0x100 SWAP1 DIV PUSH1 0xFF AND PUSH2 0x22F6 JUMPI PUSH1 0x40 MLOAD PUSH3 0x461BCD PUSH1 0xE5 SHL DUP2 MSTORE PUSH1 0x4 ADD PUSH2 0x11C9 SWAP1 PUSH2 0x30EF JUMP JUMPDEST PUSH2 0x129F PUSH2 0x249F JUMP JUMPDEST PUSH1 0x0 SLOAD PUSH2 0x100 SWAP1 DIV PUSH1 0xFF AND PUSH2 0x129F JUMPI PUSH1 0x40 MLOAD PUSH3 0x461BCD PUSH1 0xE5 SHL DUP2 MSTORE PUSH1 0x4 ADD PUSH2 0x11C9 SWAP1 PUSH2 0x30EF JUMP JUMPDEST PUSH2 0x232D PUSH2 0x24CF JUMP JUMPDEST PUSH1 0x33 DUP1 SLOAD PUSH1 0xFF NOT AND PUSH1 0x1 OR SWAP1 SSTORE PUSH32 0x62E78CEA01BEE320CD4E420270B5EA74000D11B0C9F74754EBDBFC544B05A258 PUSH2 0x2231 CALLER SWAP1 JUMP JUMPDEST PUSH1 0x1 PUSH1 0x1 PUSH1 0xA0 SHL SUB DUP2 AND EXTCODESIZE PUSH2 0x23CF JUMPI PUSH1 0x40 MLOAD PUSH3 0x461BCD PUSH1 0xE5 SHL DUP2 MSTORE PUSH1 0x20 PUSH1 0x4 DUP3 ADD MSTORE PUSH1 0x2D PUSH1 0x24 DUP3 ADD MSTORE PUSH32 0x455243313936373A206E657720696D706C656D656E746174696F6E206973206E PUSH1 0x44 DUP3 ADD MSTORE PUSH13 0x1BDD08184818DBDB9D1C9858DD PUSH1 0x9A SHL PUSH1 0x64 DUP3 ADD MSTORE PUSH1 0x84 ADD PUSH2 0x11C9 JUMP JUMPDEST PUSH1 0x0 DUP1 MLOAD PUSH1 0x20 PUSH2 0x316A DUP4 CODECOPY DUP2 MLOAD SWAP2 MSTORE DUP1 SLOAD PUSH1 0x1 PUSH1 0x1 PUSH1 0xA0 SHL SUB NOT AND PUSH1 0x1 PUSH1 0x1 PUSH1 0xA0 SHL SUB SWAP3 SWAP1 SWAP3 AND SWAP2 SWAP1 SWAP2 OR SWAP1 SSTORE JUMP JUMPDEST PUSH2 0x2407 DUP4 PUSH2 0x2515 JUMP JUMPDEST PUSH1 0x0 DUP3 MLOAD GT DUP1 PUSH2 0x2414 JUMPI POP DUP1 JUMPDEST ISZERO PUSH2 0x1533 JUMPI PUSH2 0xD8A DUP4 DUP4 PUSH2 0x2555 JUMP JUMPDEST PUSH1 0x33 SLOAD PUSH1 0xFF AND PUSH2 0x129F JUMPI PUSH1 0x40 MLOAD PUSH3 0x461BCD PUSH1 0xE5 SHL DUP2 MSTORE PUSH1 0x20 PUSH1 0x4 DUP3 ADD MSTORE PUSH1 0x14 PUSH1 0x24 DUP3 ADD MSTORE PUSH20 0x14185D5CD8589B194E881B9BDD081C185D5CD959 PUSH1 0x62 SHL PUSH1 0x44 DUP3 ADD MSTORE PUSH1 0x64 ADD PUSH2 0x11C9 JUMP JUMPDEST PUSH1 0x0 SLOAD PUSH2 0x100 SWAP1 DIV PUSH1 0xFF AND PUSH2 0x2493 JUMPI PUSH1 0x40 MLOAD PUSH3 0x461BCD PUSH1 0xE5 SHL DUP2 MSTORE PUSH1 0x4 ADD PUSH2 0x11C9 SWAP1 PUSH2 0x30EF JUMP JUMPDEST PUSH1 0x33 DUP1 SLOAD PUSH1 0xFF NOT AND SWAP1 SSTORE JUMP JUMPDEST PUSH1 0x0 SLOAD PUSH2 0x100 SWAP1 DIV PUSH1 0xFF AND PUSH2 0x24C6 JUMPI PUSH1 0x40 MLOAD PUSH3 0x461BCD PUSH1 0xE5 SHL DUP2 MSTORE PUSH1 0x4 ADD PUSH2 0x11C9 SWAP1 PUSH2 0x30EF JUMP JUMPDEST PUSH2 0x129F CALLER PUSH2 0x224E JUMP JUMPDEST PUSH1 0x33 SLOAD PUSH1 0xFF AND ISZERO PUSH2 0x129F JUMPI PUSH1 0x40 MLOAD PUSH3 0x461BCD PUSH1 0xE5 SHL DUP2 MSTORE PUSH1 0x20 PUSH1 0x4 DUP3 ADD MSTORE PUSH1 0x10 PUSH1 0x24 DUP3 ADD MSTORE PUSH16 0x14185D5CD8589B194E881C185D5CD959 PUSH1 0x82 SHL PUSH1 0x44 DUP3 ADD MSTORE PUSH1 0x64 ADD PUSH2 0x11C9 JUMP JUMPDEST PUSH2 0x251E DUP2 PUSH2 0x2362 JUMP JUMPDEST PUSH1 0x40 MLOAD PUSH1 0x1 PUSH1 0x1 PUSH1 0xA0 SHL SUB DUP3 AND SWAP1 PUSH32 0xBC7CD75A20EE27FD9ADEBAB32041F755214DBC6BFFA90CC0225B39DA2E5C2D3B SWAP1 PUSH1 0x0 SWAP1 LOG2 POP JUMP JUMPDEST PUSH1 0x60 PUSH1 0x1 PUSH1 0x1 PUSH1 0xA0 SHL SUB DUP4 AND EXTCODESIZE PUSH2 0x25BD JUMPI PUSH1 0x40 MLOAD PUSH3 0x461BCD PUSH1 0xE5 SHL DUP2 MSTORE PUSH1 0x20 PUSH1 0x4 DUP3 ADD MSTORE PUSH1 0x26 PUSH1 0x24 DUP3 ADD MSTORE PUSH32 0x416464726573733A2064656C65676174652063616C6C20746F206E6F6E2D636F PUSH1 0x44 DUP3 ADD MSTORE PUSH6 0x1B9D1C9858DD PUSH1 0xD2 SHL PUSH1 0x64 DUP3 ADD MSTORE PUSH1 0x84 ADD PUSH2 0x11C9 JUMP JUMPDEST PUSH1 0x0 DUP1 DUP5 PUSH1 0x1 PUSH1 0x1 PUSH1 0xA0 SHL SUB AND DUP5 PUSH1 0x40 MLOAD PUSH2 0x25D8 SWAP2 SWAP1 PUSH2 0x313A JUMP JUMPDEST PUSH1 0x0 PUSH1 0x40 MLOAD DUP1 DUP4 SUB DUP2 DUP6 GAS DELEGATECALL SWAP2 POP POP RETURNDATASIZE DUP1 PUSH1 0x0 DUP2 EQ PUSH2 0x2613 JUMPI PUSH1 0x40 MLOAD SWAP2 POP PUSH1 0x1F NOT PUSH1 0x3F RETURNDATASIZE ADD AND DUP3 ADD PUSH1 0x40 MSTORE RETURNDATASIZE DUP3 MSTORE RETURNDATASIZE PUSH1 0x0 PUSH1 0x20 DUP5 ADD RETURNDATACOPY PUSH2 0x2618 JUMP JUMPDEST PUSH1 0x60 SWAP2 POP JUMPDEST POP SWAP2 POP SWAP2 POP PUSH2 0x2640 DUP3 DUP3 PUSH1 0x40 MLOAD DUP1 PUSH1 0x60 ADD PUSH1 0x40 MSTORE DUP1 PUSH1 0x27 DUP2 MSTORE PUSH1 0x20 ADD PUSH2 0x318A PUSH1 0x27 SWAP2 CODECOPY PUSH2 0x264B JUMP JUMPDEST SWAP3 POP POP POP JUMPDEST SWAP3 SWAP2 POP POP JUMP JUMPDEST PUSH1 0x60 DUP4 ISZERO PUSH2 0x265A JUMPI POP DUP2 PUSH2 0x2664 JUMP JUMPDEST PUSH2 0x2664 DUP4 DUP4 PUSH2 0x266B JUMP JUMPDEST SWAP4 SWAP3 POP POP POP JUMP JUMPDEST DUP2 MLOAD ISZERO PUSH2 0x267B JUMPI DUP2 MLOAD DUP1 DUP4 PUSH1 0x20 ADD REVERT JUMPDEST DUP1 PUSH1 0x40 MLOAD PUSH3 0x461BCD PUSH1 0xE5 SHL DUP2 MSTORE PUSH1 0x4 ADD PUSH2 0x11C9 SWAP2 SWAP1 PUSH2 0x3156 JUMP JUMPDEST DUP3 DUP1 SLOAD DUP3 DUP3 SSTORE SWAP1 PUSH1 0x0 MSTORE PUSH1 0x20 PUSH1 0x0 KECCAK256 SWAP1 PUSH1 0xF ADD PUSH1 0x10 SWAP1 DIV DUP2 ADD SWAP3 DUP3 ISZERO PUSH2 0x272E JUMPI SWAP2 PUSH1 0x20 MUL DUP3 ADD PUSH1 0x0 JUMPDEST DUP4 DUP3 GT ISZERO PUSH2 0x26FE JUMPI DUP4 MLOAD DUP4 DUP3 PUSH2 0x100 EXP DUP2 SLOAD DUP2 PUSH2 0xFFFF MUL NOT AND SWAP1 DUP4 PUSH2 0xFFFF AND MUL OR SWAP1 SSTORE POP SWAP3 PUSH1 0x20 ADD SWAP3 PUSH1 0x2 ADD PUSH1 0x20 DUP2 PUSH1 0x1 ADD DIV SWAP3 DUP4 ADD SWAP3 PUSH1 0x1 SUB MUL PUSH2 0x26BE JUMP JUMPDEST DUP1 ISZERO PUSH2 0x272C JUMPI DUP3 DUP2 PUSH2 0x100 EXP DUP2 SLOAD SWAP1 PUSH2 0xFFFF MUL NOT AND SWAP1 SSTORE PUSH1 0x2 ADD PUSH1 0x20 DUP2 PUSH1 0x1 ADD DIV SWAP3 DUP4 ADD SWAP3 PUSH1 0x1 SUB MUL PUSH2 0x26FE JUMP JUMPDEST POP JUMPDEST POP PUSH2 0x19F2 SWAP3 SWAP2 POP JUMPDEST DUP1 DUP3 GT ISZERO PUSH2 0x19F2 JUMPI PUSH1 0x0 DUP2 SSTORE PUSH1 0x1 ADD PUSH2 0x2736 JUMP JUMPDEST DUP1 CALLDATALOAD PUSH1 0x1 PUSH1 0x1 PUSH1 0xA0 SHL SUB DUP2 AND DUP2 EQ PUSH2 0x2761 JUMPI PUSH1 0x0 DUP1 REVERT JUMPDEST SWAP2 SWAP1 POP JUMP JUMPDEST PUSH1 0x0 PUSH1 0x20 DUP3 DUP5 SUB SLT ISZERO PUSH2 0x2778 JUMPI PUSH1 0x0 DUP1 REVERT JUMPDEST PUSH2 0x2664 DUP3 PUSH2 0x274A JUMP JUMPDEST DUP1 CALLDATALOAD DUP1 ISZERO ISZERO DUP2 EQ PUSH2 0x2761 JUMPI PUSH1 0x0 DUP1 REVERT JUMPDEST PUSH1 0x0 DUP1 PUSH1 0x0 PUSH1 0x60 DUP5 DUP7 SUB SLT ISZERO PUSH2 0x27A6 JUMPI PUSH1 0x0 DUP1 REVERT JUMPDEST PUSH2 0x27AF DUP5 PUSH2 0x274A JUMP JUMPDEST SWAP3 POP PUSH2 0x27BD PUSH1 0x20 DUP6 ADD PUSH2 0x2781 JUMP JUMPDEST SWAP2 POP PUSH2 0x27CB PUSH1 0x40 DUP6 ADD PUSH2 0x274A JUMP JUMPDEST SWAP1 POP SWAP3 POP SWAP3 POP SWAP3 JUMP JUMPDEST PUSH1 0xFF DUP2 AND DUP2 EQ PUSH2 0x1266 JUMPI PUSH1 0x0 DUP1 REVERT JUMPDEST PUSH1 0x0 PUSH1 0x20 DUP3 DUP5 SUB SLT ISZERO PUSH2 0x27F5 JUMPI PUSH1 0x0 DUP1 REVERT JUMPDEST DUP2 CALLDATALOAD PUSH2 0x2664 DUP2 PUSH2 0x27D4 JUMP JUMPDEST PUSH1 0x0 JUMPDEST DUP4 DUP2 LT ISZERO PUSH2 0x281B JUMPI DUP2 DUP2 ADD MLOAD DUP4 DUP3 ADD MSTORE PUSH1 0x20 ADD PUSH2 0x2803 JUMP JUMPDEST POP POP PUSH1 0x0 SWAP2 ADD MSTORE JUMP JUMPDEST PUSH1 0x0 DUP2 MLOAD DUP1 DUP5 MSTORE PUSH2 0x283C DUP2 PUSH1 0x20 DUP7 ADD PUSH1 0x20 DUP7 ADD PUSH2 0x2800 JUMP JUMPDEST PUSH1 0x1F ADD PUSH1 0x1F NOT AND SWAP3 SWAP1 SWAP3 ADD PUSH1 0x20 ADD SWAP3 SWAP2 POP POP JUMP JUMPDEST PUSH1 0x20 DUP2 MSTORE PUSH1 0xFF DUP3 MLOAD AND PUSH1 0x20 DUP3 ADD MSTORE PUSH1 0x0 PUSH1 0x20 DUP4 ADD MLOAD PUSH1 0x80 PUSH1 0x40 DUP5 ADD MSTORE PUSH2 0x2879 PUSH1 0xA0 DUP5 ADD DUP3 PUSH2 0x2824 JUMP JUMPDEST SWAP1 POP PUSH1 0x40 DUP5 ADD MLOAD PUSH1 0x60 DUP5 ADD MSTORE PUSH1 0x60 DUP5 ADD MLOAD PUSH1 0x80 DUP5 ADD MSTORE DUP1 SWAP2 POP POP SWAP3 SWAP2 POP POP JUMP JUMPDEST PUSH1 0x0 PUSH1 0x20 DUP3 DUP5 SUB SLT ISZERO PUSH2 0x28AB JUMPI PUSH1 0x0 DUP1 REVERT JUMPDEST PUSH2 0x2664 DUP3 PUSH2 0x2781 JUMP JUMPDEST PUSH4 0x4E487B71 PUSH1 0xE0 SHL PUSH1 0x0 MSTORE PUSH1 0x41 PUSH1 0x4 MSTORE PUSH1 0x24 PUSH1 0x0 REVERT JUMPDEST PUSH1 0x40 MLOAD PUSH1 0x1F DUP3 ADD PUSH1 0x1F NOT AND DUP2 ADD PUSH8 0xFFFFFFFFFFFFFFFF DUP2 GT DUP3 DUP3 LT OR ISZERO PUSH2 0x28F3 JUMPI PUSH2 0x28F3 PUSH2 0x28B4 JUMP JUMPDEST PUSH1 0x40 MSTORE SWAP2 SWAP1 POP JUMP JUMPDEST PUSH1 0x0 PUSH8 0xFFFFFFFFFFFFFFFF DUP3 GT ISZERO PUSH2 0x2915 JUMPI PUSH2 0x2915 PUSH2 0x28B4 JUMP JUMPDEST POP PUSH1 0x1F ADD PUSH1 0x1F NOT AND PUSH1 0x20 ADD SWAP1 JUMP JUMPDEST PUSH1 0x0 PUSH2 0x2936 PUSH2 0x2931 DUP5 PUSH2 0x28FB JUMP JUMPDEST PUSH2 0x28CA JUMP JUMPDEST SWAP1 POP DUP3 DUP2 MSTORE DUP4 DUP4 DUP4 ADD GT ISZERO PUSH2 0x294A JUMPI PUSH1 0x0 DUP1 REVERT JUMPDEST DUP3 DUP3 PUSH1 0x20 DUP4 ADD CALLDATACOPY PUSH1 0x0 PUSH1 0x20 DUP5 DUP4 ADD ADD MSTORE SWAP4 SWAP3 POP POP POP JUMP JUMPDEST PUSH1 0x0 DUP1 PUSH1 0x40 DUP4 DUP6 SUB SLT ISZERO PUSH2 0x2974 JUMPI PUSH1 0x0 DUP1 REVERT JUMPDEST PUSH2 0x297D DUP4 PUSH2 0x274A JUMP JUMPDEST SWAP2 POP PUSH1 0x20 DUP4 ADD CALLDATALOAD PUSH8 0xFFFFFFFFFFFFFFFF DUP2 GT ISZERO PUSH2 0x2999 JUMPI PUSH1 0x0 DUP1 REVERT JUMPDEST DUP4 ADD PUSH1 0x1F DUP2 ADD DUP6 SGT PUSH2 0x29AA JUMPI PUSH1 0x0 DUP1 REVERT JUMPDEST PUSH2 0x29B9 DUP6 DUP3 CALLDATALOAD PUSH1 0x20 DUP5 ADD PUSH2 0x2923 JUMP JUMPDEST SWAP2 POP POP SWAP3 POP SWAP3 SWAP1 POP JUMP JUMPDEST PUSH1 0x0 DUP1 DUP4 PUSH1 0x1F DUP5 ADD SLT PUSH2 0x29D5 JUMPI PUSH1 0x0 DUP1 REVERT JUMPDEST POP DUP2 CALLDATALOAD PUSH8 0xFFFFFFFFFFFFFFFF DUP2 GT ISZERO PUSH2 0x29ED JUMPI PUSH1 0x0 DUP1 REVERT JUMPDEST PUSH1 0x20 DUP4 ADD SWAP2 POP DUP4 PUSH1 0x20 DUP3 PUSH1 0x5 SHL DUP6 ADD ADD GT ISZERO PUSH2 0x2A08 JUMPI PUSH1 0x0 DUP1 REVERT JUMPDEST SWAP3 POP SWAP3 SWAP1 POP JUMP JUMPDEST PUSH1 0x0 DUP1 PUSH1 0x20 DUP4 DUP6 SUB SLT ISZERO PUSH2 0x2A22 JUMPI PUSH1 0x0 DUP1 REVERT JUMPDEST DUP3 CALLDATALOAD PUSH8 0xFFFFFFFFFFFFFFFF DUP2 GT ISZERO PUSH2 0x2A39 JUMPI PUSH1 0x0 DUP1 REVERT JUMPDEST PUSH2 0x2A45 DUP6 DUP3 DUP7 ADD PUSH2 0x29C3 JUMP JUMPDEST SWAP1 SWAP7 SWAP1 SWAP6 POP SWAP4 POP POP POP POP JUMP JUMPDEST PUSH1 0x0 PUSH1 0x20 DUP3 DUP5 SUB SLT ISZERO PUSH2 0x2A63 JUMPI PUSH1 0x0 DUP1 REVERT JUMPDEST POP CALLDATALOAD SWAP2 SWAP1 POP JUMP JUMPDEST PUSH1 0x20 DUP1 DUP3 MSTORE DUP3 MLOAD DUP3 DUP3 ADD DUP2 SWAP1 MSTORE PUSH1 0x0 SWAP2 SWAP1 DUP5 DUP3 ADD SWAP1 PUSH1 0x40 DUP6 ADD SWAP1 DUP5 JUMPDEST DUP2 DUP2 LT ISZERO PUSH2 0x2AA6 JUMPI DUP4 MLOAD PUSH2 0xFFFF AND DUP4 MSTORE SWAP3 DUP5 ADD SWAP3 SWAP2 DUP5 ADD SWAP2 PUSH1 0x1 ADD PUSH2 0x2A86 JUMP JUMPDEST POP SWAP1 SWAP7 SWAP6 POP POP POP POP POP POP JUMP JUMPDEST DUP1 CALLDATALOAD PUSH2 0xFFFF DUP2 AND DUP2 EQ PUSH2 0x2761 JUMPI PUSH1 0x0 DUP1 REVERT JUMPDEST PUSH1 0x0 PUSH1 0x20 DUP3 DUP5 SUB SLT ISZERO PUSH2 0x2AD6 JUMPI PUSH1 0x0 DUP1 REVERT JUMPDEST PUSH2 0x2664 DUP3 PUSH2 0x2AB2 JUMP JUMPDEST PUSH1 0x0 PUSH8 0xFFFFFFFFFFFFFFFF DUP3 GT ISZERO PUSH2 0x2AF9 JUMPI PUSH2 0x2AF9 PUSH2 0x28B4 JUMP JUMPDEST POP PUSH1 0x5 SHL PUSH1 0x20 ADD SWAP1 JUMP JUMPDEST PUSH1 0x0 DUP1 PUSH1 0x0 DUP1 PUSH1 0x0 DUP1 PUSH1 0x0 PUSH1 0x80 DUP9 DUP11 SUB SLT ISZERO PUSH2 0x2B1E JUMPI PUSH1 0x0 DUP1 REVERT JUMPDEST PUSH8 0xFFFFFFFFFFFFFFFF DUP1 DUP10 CALLDATALOAD GT ISZERO PUSH2 0x2B35 JUMPI PUSH1 0x0 DUP1 REVERT JUMPDEST PUSH2 0x2B42 DUP11 DUP11 CALLDATALOAD DUP12 ADD PUSH2 0x29C3 JUMP JUMPDEST SWAP1 SWAP9 POP SWAP7 POP PUSH1 0x20 DUP10 ADD CALLDATALOAD DUP2 LT ISZERO PUSH2 0x2B58 JUMPI PUSH1 0x0 DUP1 REVERT JUMPDEST PUSH1 0x20 DUP10 ADD CALLDATALOAD DUP10 ADD DUP11 PUSH1 0x1F DUP3 ADD SLT PUSH2 0x2B6E JUMPI PUSH1 0x0 DUP1 REVERT JUMPDEST PUSH2 0x2B7B PUSH2 0x2931 DUP3 CALLDATALOAD PUSH2 0x2ADF JUMP JUMPDEST DUP2 CALLDATALOAD DUP1 DUP3 MSTORE PUSH1 0x20 DUP1 DUP4 ADD SWAP3 SWAP2 PUSH1 0x5 SHL DUP5 ADD ADD DUP14 DUP2 GT ISZERO PUSH2 0x2B9A JUMPI PUSH1 0x0 DUP1 REVERT JUMPDEST PUSH1 0x20 DUP5 ADD JUMPDEST DUP2 DUP2 LT ISZERO PUSH2 0x2BEB JUMPI DUP6 DUP2 CALLDATALOAD GT ISZERO PUSH2 0x2BB5 JUMPI PUSH1 0x0 DUP1 REVERT JUMPDEST DUP15 PUSH1 0x3F DUP3 CALLDATALOAD DUP8 ADD ADD SLT PUSH2 0x2BC7 JUMPI PUSH1 0x0 DUP1 REVERT JUMPDEST PUSH2 0x2BDD DUP16 DUP3 CALLDATALOAD DUP8 ADD PUSH1 0x20 DUP2 ADD CALLDATALOAD SWAP1 PUSH1 0x40 ADD PUSH2 0x2923 JUMP JUMPDEST DUP5 MSTORE PUSH1 0x20 SWAP4 DUP5 ADD SWAP4 ADD PUSH2 0x2B9F JUMP JUMPDEST POP POP DUP1 SWAP9 POP POP POP POP DUP1 PUSH1 0x40 DUP11 ADD CALLDATALOAD GT ISZERO PUSH2 0x2C04 JUMPI PUSH1 0x0 DUP1 REVERT JUMPDEST PUSH2 0x2C14 DUP11 PUSH1 0x40 DUP12 ADD CALLDATALOAD DUP12 ADD PUSH2 0x29C3 JUMP JUMPDEST SWAP1 SWAP6 POP SWAP4 POP PUSH1 0x60 DUP10 ADD CALLDATALOAD DUP2 LT ISZERO PUSH2 0x2C2A JUMPI PUSH1 0x0 DUP1 REVERT JUMPDEST POP PUSH2 0x2C3B DUP10 PUSH1 0x60 DUP11 ADD CALLDATALOAD DUP11 ADD PUSH2 0x29C3 JUMP JUMPDEST SWAP8 SWAP11 SWAP7 SWAP10 POP SWAP5 SWAP8 POP SWAP3 SWAP6 SWAP2 SWAP5 SWAP2 SWAP3 POP POP JUMP JUMPDEST PUSH1 0x0 PUSH1 0x20 DUP1 DUP4 DUP6 SUB SLT ISZERO PUSH2 0x2C60 JUMPI PUSH1 0x0 DUP1 REVERT JUMPDEST DUP3 CALLDATALOAD PUSH8 0xFFFFFFFFFFFFFFFF DUP2 GT ISZERO PUSH2 0x2C77 JUMPI PUSH1 0x0 DUP1 REVERT JUMPDEST DUP4 ADD PUSH1 0x1F DUP2 ADD DUP6 SGT PUSH2 0x2C88 JUMPI PUSH1 0x0 DUP1 REVERT JUMPDEST DUP1 CALLDATALOAD PUSH2 0x2C96 PUSH2 0x2931 DUP3 PUSH2 0x2ADF JUMP JUMPDEST DUP2 DUP2 MSTORE PUSH1 0x5 SWAP2 SWAP1 SWAP2 SHL DUP3 ADD DUP4 ADD SWAP1 DUP4 DUP2 ADD SWAP1 DUP8 DUP4 GT ISZERO PUSH2 0x2CB5 JUMPI PUSH1 0x0 DUP1 REVERT JUMPDEST SWAP3 DUP5 ADD SWAP3 JUMPDEST DUP3 DUP5 LT ISZERO PUSH2 0x2CDA JUMPI PUSH2 0x2CCB DUP5 PUSH2 0x2AB2 JUMP JUMPDEST DUP3 MSTORE SWAP3 DUP5 ADD SWAP3 SWAP1 DUP5 ADD SWAP1 PUSH2 0x2CBA JUMP JUMPDEST SWAP8 SWAP7 POP POP POP POP POP POP POP JUMP JUMPDEST PUSH1 0x20 DUP1 DUP3 MSTORE DUP3 MLOAD PUSH1 0x1 PUSH1 0x1 PUSH1 0xA0 SHL SUB AND DUP3 DUP3 ADD MSTORE DUP3 ADD MLOAD PUSH1 0xE0 PUSH1 0x40 DUP4 ADD MSTORE PUSH1 0x0 SWAP1 PUSH2 0x2D14 PUSH2 0x100 DUP5 ADD DUP3 PUSH2 0x2824 JUMP JUMPDEST SWAP1 POP PUSH1 0x40 DUP5 ADD MLOAD PUSH1 0x1F NOT DUP5 DUP4 SUB ADD PUSH1 0x60 DUP6 ADD MSTORE PUSH2 0x2D31 DUP3 DUP3 PUSH2 0x2824 JUMP JUMPDEST SWAP2 POP POP PUSH1 0xFF PUSH1 0x60 DUP6 ADD MLOAD AND PUSH1 0x80 DUP5 ADD MSTORE PUSH1 0x80 DUP5 ADD MLOAD ISZERO ISZERO PUSH1 0xA0 DUP5 ADD MSTORE PUSH1 0xA0 DUP5 ADD MLOAD PUSH2 0x2D67 PUSH1 0xC0 DUP6 ADD DUP3 PUSH1 0x1 PUSH1 0x1 PUSH1 0xA0 SHL SUB AND SWAP1 MSTORE JUMP JUMPDEST POP PUSH1 0xC0 DUP5 ADD MLOAD DUP1 ISZERO ISZERO PUSH1 0xE0 DUP6 ADD MSTORE POP SWAP4 SWAP3 POP POP POP JUMP JUMPDEST PUSH1 0x20 DUP1 DUP3 MSTORE DUP3 MLOAD DUP3 DUP3 ADD DUP2 SWAP1 MSTORE PUSH1 0x0 SWAP2 SWAP1 DUP5 DUP3 ADD SWAP1 PUSH1 0x40 DUP6 ADD SWAP1 DUP5 JUMPDEST DUP2 DUP2 LT ISZERO PUSH2 0x2AA6 JUMPI DUP4 MLOAD PUSH1 0x1 PUSH1 0x1 PUSH1 0xA0 SHL SUB AND DUP4 MSTORE SWAP3 DUP5 ADD SWAP3 SWAP2 DUP5 ADD SWAP2 PUSH1 0x1 ADD PUSH2 0x2D99 JUMP JUMPDEST PUSH4 0x4E487B71 PUSH1 0xE0 SHL PUSH1 0x0 MSTORE PUSH1 0x32 PUSH1 0x4 MSTORE PUSH1 0x24 PUSH1 0x0 REVERT JUMPDEST PUSH4 0x4E487B71 PUSH1 0xE0 SHL PUSH1 0x0 MSTORE PUSH1 0x11 PUSH1 0x4 MSTORE PUSH1 0x24 PUSH1 0x0 REVERT JUMPDEST DUP2 DUP2 SUB DUP2 DUP2 GT ISZERO PUSH2 0x2645 JUMPI PUSH2 0x2645 PUSH2 0x2DD4 JUMP JUMPDEST PUSH4 0x4E487B71 PUSH1 0xE0 SHL PUSH1 0x0 MSTORE PUSH1 0x31 PUSH1 0x4 MSTORE PUSH1 0x24 PUSH1 0x0 REVERT JUMPDEST PUSH1 0x0 PUSH1 0x1 DUP3 ADD PUSH2 0x2E25 JUMPI PUSH2 0x2E25 PUSH2 0x2DD4 JUMP JUMPDEST POP PUSH1 0x1 ADD SWAP1 JUMP JUMPDEST PUSH1 0x0 PUSH1 0x20 DUP3 DUP5 SUB SLT ISZERO PUSH2 0x2E3E JUMPI PUSH1 0x0 DUP1 REVERT JUMPDEST DUP2 MLOAD PUSH8 0xFFFFFFFFFFFFFFFF DUP2 GT ISZERO PUSH2 0x2E55 JUMPI PUSH1 0x0 DUP1 REVERT JUMPDEST DUP3 ADD PUSH1 0x1F DUP2 ADD DUP5 SGT PUSH2 0x2E66 JUMPI PUSH1 0x0 DUP1 REVERT JUMPDEST DUP1 MLOAD PUSH2 0x2E74 PUSH2 0x2931 DUP3 PUSH2 0x28FB JUMP JUMPDEST DUP2 DUP2 MSTORE DUP6 PUSH1 0x20 DUP4 DUP6 ADD ADD GT ISZERO PUSH2 0x2E89 JUMPI PUSH1 0x0 DUP1 REVERT JUMPDEST PUSH2 0x2E9A DUP3 PUSH1 0x20 DUP4 ADD PUSH1 0x20 DUP7 ADD PUSH2 0x2800 JUMP JUMPDEST SWAP6 SWAP5 POP POP POP POP POP JUMP JUMPDEST PUSH1 0x0 PUSH1 0x20 DUP3 DUP5 SUB SLT ISZERO PUSH2 0x2EB5 JUMPI PUSH1 0x0 DUP1 REVERT JUMPDEST DUP2 MLOAD PUSH2 0x2664 DUP2 PUSH2 0x27D4 JUMP JUMPDEST PUSH1 0x1 DUP2 DUP2 SHR SWAP1 DUP3 AND DUP1 PUSH2 0x2ED4 JUMPI PUSH1 0x7F DUP3 AND SWAP2 POP JUMPDEST PUSH1 0x20 DUP3 LT DUP2 SUB PUSH2 0x2EF4 JUMPI PUSH4 0x4E487B71 PUSH1 0xE0 SHL PUSH1 0x0 MSTORE PUSH1 0x22 PUSH1 0x4 MSTORE PUSH1 0x24 PUSH1 0x0 REVERT JUMPDEST POP SWAP2 SWAP1 POP JUMP JUMPDEST PUSH1 0x1F DUP3 GT ISZERO PUSH2 0x1533 JUMPI PUSH1 0x0 DUP2 DUP2 MSTORE PUSH1 0x20 DUP2 KECCAK256 PUSH1 0x1F DUP6 ADD PUSH1 0x5 SHR DUP2 ADD PUSH1 0x20 DUP7 LT ISZERO PUSH2 0x2F21 JUMPI POP DUP1 JUMPDEST PUSH1 0x1F DUP6 ADD PUSH1 0x5 SHR DUP3 ADD SWAP2 POP JUMPDEST DUP2 DUP2 LT ISZERO PUSH2 0x2F40 JUMPI DUP3 DUP2 SSTORE PUSH1 0x1 ADD PUSH2 0x2F2D JUMP JUMPDEST POP POP POP POP POP POP JUMP JUMPDEST DUP2 MLOAD PUSH8 0xFFFFFFFFFFFFFFFF DUP2 GT ISZERO PUSH2 0x2F62 JUMPI PUSH2 0x2F62 PUSH2 0x28B4 JUMP JUMPDEST PUSH2 0x2F76 DUP2 PUSH2 0x2F70 DUP5 SLOAD PUSH2 0x2EC0 JUMP JUMPDEST DUP5 PUSH2 0x2EFA JUMP JUMPDEST PUSH1 0x20 DUP1 PUSH1 0x1F DUP4 GT PUSH1 0x1 DUP2 EQ PUSH2 0x2FAB JUMPI PUSH1 0x0 DUP5 ISZERO PUSH2 0x2F93 JUMPI POP DUP6 DUP4 ADD MLOAD JUMPDEST PUSH1 0x0 NOT PUSH1 0x3 DUP7 SWAP1 SHL SHR NOT AND PUSH1 0x1 DUP6 SWAP1 SHL OR DUP6 SSTORE PUSH2 0x2F40 JUMP JUMPDEST PUSH1 0x0 DUP6 DUP2 MSTORE PUSH1 0x20 DUP2 KECCAK256 PUSH1 0x1F NOT DUP7 AND SWAP2 JUMPDEST DUP3 DUP2 LT ISZERO PUSH2 0x2FDA JUMPI DUP9 DUP7 ADD MLOAD DUP3 SSTORE SWAP5 DUP5 ADD SWAP5 PUSH1 0x1 SWAP1 SWAP2 ADD SWAP1 DUP5 ADD PUSH2 0x2FBB JUMP JUMPDEST POP DUP6 DUP3 LT ISZERO PUSH2 0x2FF8 JUMPI DUP8 DUP6 ADD MLOAD PUSH1 0x0 NOT PUSH1 0x3 DUP9 SWAP1 SHL PUSH1 0xF8 AND SHR NOT AND DUP2 SSTORE JUMPDEST POP POP POP POP POP PUSH1 0x1 SWAP1 DUP2 SHL ADD SWAP1 SSTORE POP JUMP JUMPDEST PUSH1 0x20 DUP1 DUP3 MSTORE PUSH1 0x2C SWAP1 DUP3 ADD MSTORE PUSH32 0x46756E6374696F6E206D7573742062652063616C6C6564207468726F75676820 PUSH1 0x40 DUP3 ADD MSTORE PUSH12 0x19195B1959D85D1958D85B1B PUSH1 0xA2 SHL PUSH1 0x60 DUP3 ADD MSTORE PUSH1 0x80 ADD SWAP1 JUMP JUMPDEST PUSH1 0x20 DUP1 DUP3 MSTORE PUSH1 0x2C SWAP1 DUP3 ADD MSTORE PUSH32 0x46756E6374696F6E206D7573742062652063616C6C6564207468726F75676820 PUSH1 0x40 DUP3 ADD MSTORE PUSH12 0x6163746976652070726F7879 PUSH1 0xA0 SHL PUSH1 0x60 DUP3 ADD MSTORE PUSH1 0x80 ADD SWAP1 JUMP JUMPDEST PUSH1 0x0 PUSH1 0xFF DUP3 AND PUSH1 0xFF DUP2 SUB PUSH2 0x30B6 JUMPI PUSH2 0x30B6 PUSH2 0x2DD4 JUMP JUMPDEST PUSH1 0x1 ADD SWAP3 SWAP2 POP POP JUMP JUMPDEST DUP1 DUP3 MUL DUP2 ISZERO DUP3 DUP3 DIV DUP5 EQ OR PUSH2 0x2645 JUMPI PUSH2 0x2645 PUSH2 0x2DD4 JUMP JUMPDEST PUSH1 0x0 PUSH1 0x20 DUP3 DUP5 SUB SLT ISZERO PUSH2 0x30E8 JUMPI PUSH1 0x0 DUP1 REVERT JUMPDEST POP MLOAD SWAP2 SWAP1 POP JUMP JUMPDEST PUSH1 0x20 DUP1 DUP3 MSTORE PUSH1 0x2B SWAP1 DUP3 ADD MSTORE PUSH32 0x496E697469616C697A61626C653A20636F6E7472616374206973206E6F742069 PUSH1 0x40 DUP3 ADD MSTORE PUSH11 0x6E697469616C697A696E67 PUSH1 0xA8 SHL PUSH1 0x60 DUP3 ADD MSTORE PUSH1 0x80 ADD SWAP1 JUMP JUMPDEST PUSH1 0x0 DUP3 MLOAD PUSH2 0x314C DUP2 DUP5 PUSH1 0x20 DUP8 ADD PUSH2 0x2800 JUMP JUMPDEST SWAP2 SWAP1 SWAP2 ADD SWAP3 SWAP2 POP POP JUMP JUMPDEST PUSH1 0x20 DUP2 MSTORE PUSH1 0x0 PUSH2 0x2664 PUSH1 0x20 DUP4 ADD DUP5 PUSH2 0x2824 JUMP INVALID CALLDATASIZE ADDMOD SWAP5 LOG1 EXTCODESIZE LOG1 LOG3 0x21 MOD PUSH8 0xC828492DB98DCA3E KECCAK256 PUSH23 0xCC3735A920A3CA505D382BBC416464726573733A206C6F PUSH24 0x2D6C6576656C2064656C65676174652063616C6C20666169 PUSH13 0x6564A264697066735822122070 LOG1 0xD3 0xC1 0xB0 SGT STATICCALL CALLDATASIZE GAS DUP14 RETURN PUSH20 0xF98C28C808D0E05F44D8FE49C10C86380D3E9B97 PUSH5 0x736F6C6343 STOP ADDMOD SLT STOP CALLER "},"methodIdentifiers":{"addIBPAddressAdmin(address)":"e371c5c5","disableSupportedToken(address[])":"57b88805","getAdminAddress()":"b2e6b912","getAdminFees()":"3238c16f","getBaseCurrencyDecimals()":"c391d636","getCoreMemberRewardRate()":"5397b86d","getCoreMembersContractAddress()":"916452ab","getGlobalRewardRate()":"a46868f0","getIBPList()":"ffc43f8f","getIbpRewardRate()":"e7016717","getIsPayCoreMembersRewards()":"e179719a","getIsPayGlobalRewards()":"1f1eeec8","getIsPayIbpRewards()":"9f6d8870","getIsPayReferralRewards()":"3fae6a11","getIsPayRewardToken()":"2b70c02c","getIsPayWeeklyRewards()":"16dd07e0","getLevelDecimals()":"e7cca9c7","getLevelRates()":"918a54db","getPlanById(uint8)":"0efc12b1","getPlansCount()":"acc91865","getPresaleContract()":"f1012b45","getRewardTokenContract()":"65eb204d","getRewardTokenRate()":"e091099c","getSupportedTokenInfo(address)":"e74af32e","getValueBufferRate()":"5f3ad6e2","getWeeklyRewardRate()":"b9cd1a50","initialize()":"8129fc1c","isIBP(address)":"2f8c7e72","isTokenSupported(address)":"75151b63","owner()":"8da5cb5b","pause()":"8456cb59","paused()":"5c975abb","proxiableUUID()":"52d1902d","pushSupportedTokenToList(address,bool,address)":"051ff2b9","removeIBPAddressAdmin(address)":"00b29290","renounceOwnership()":"715018a6","setAdminAddress(address)":"2c1e816d","setAdminFees(uint8)":"6cf3c676","setBaseCurrencyDecimals(uint8)":"a61a4ff3","setCoreMemberRewardRate(uint8)":"a646e845","setCoreMembersContractAddress(address)":"f2a90121","setGlobalRewardRate(uint8)":"af2d4d09","setIbpRewardRate(uint8)":"880c0ec3","setIsPayCoreMembersRewards(bool)":"4ccebd50","setIsPayGlobalRewards(bool)":"93cee9c9","setIsPayIbpRewards(bool)":"5d9bed63","setIsPayReferralRewards(bool)":"b6443562","setIsPayRewardToken(bool)":"eb758bc7","setIsPayWeeklyRewards(bool)":"39e0dcfa","setLevelDecimals(uint16)":"a43ae408","setLevelRates(uint16[])":"d54fcd93","setPlans(uint8[],string[],uint256[],uint256[])":"bcb03b57","setPresaleContract(address)":"a9bbd114","setRewardTokenContract(address)":"08fcfbbe","setRewardTokenRate(uint8)":"b7a26620","setValueBufferRate(uint8)":"94debf48","setWeeklyRewardRate(uint8)":"ac40e309","supportedTokensList(uint256)":"63c91877","transferOwnership(address)":"f2fde38b","unpause()":"3f4ba83a","upgradeTo(address)":"3659cfe6","upgradeToAndCall(address,bytes)":"4f1ef286"}},"storageLayout":{"storage":[{"astId":527,"contract":"contracts/VariablesV1Upgradeable.sol:VariablesV1Upgradeable","label":"_initialized","offset":0,"slot":"0","type":"t_uint8"},{"astId":530,"contract":"contracts/VariablesV1Upgradeable.sol:VariablesV1Upgradeable","label":"_initializing","offset":1,"slot":"0","type":"t_bool"},{"astId":1355,"contract":"contracts/VariablesV1Upgradeable.sol:VariablesV1Upgradeable","label":"__gap","offset":0,"slot":"1","type":"t_array(t_uint256)50_storage"},{"astId":846,"contract":"contracts/VariablesV1Upgradeable.sol:VariablesV1Upgradeable","label":"_paused","offset":0,"slot":"51","type":"t_bool"},{"astId":951,"contract":"contracts/VariablesV1Upgradeable.sol:VariablesV1Upgradeable","label":"__gap","offset":0,"slot":"52","type":"t_array(t_uint256)49_storage"},{"astId":10,"contract":"contracts/VariablesV1Upgradeable.sol:VariablesV1Upgradeable","label":"_owner","offset":0,"slot":"101","type":"t_address"},{"astId":130,"contract":"contracts/VariablesV1Upgradeable.sol:VariablesV1Upgradeable","label":"__gap","offset":0,"slot":"102","type":"t_array(t_uint256)49_storage"},{"astId":509,"contract":"contracts/VariablesV1Upgradeable.sol:VariablesV1Upgradeable","label":"__gap","offset":0,"slot":"151","type":"t_array(t_uint256)50_storage"},{"astId":824,"contract":"contracts/VariablesV1Upgradeable.sol:VariablesV1Upgradeable","label":"__gap","offset":0,"slot":"201","type":"t_array(t_uint256)50_storage"},{"astId":3422,"contract":"contracts/VariablesV1Upgradeable.sol:VariablesV1Upgradeable","label":"_levelRates","offset":0,"slot":"251","type":"t_array(t_uint16)dyn_storage"},{"astId":3424,"contract":"contracts/VariablesV1Upgradeable.sol:VariablesV1Upgradeable","label":"_levelDecimals","offset":0,"slot":"252","type":"t_uint16"},{"astId":3426,"contract":"contracts/VariablesV1Upgradeable.sol:VariablesV1Upgradeable","label":"_baseCurrencyDecimals","offset":2,"slot":"252","type":"t_uint8"},{"astId":3428,"contract":"contracts/VariablesV1Upgradeable.sol:VariablesV1Upgradeable","label":"_valueBufferRate","offset":3,"slot":"252","type":"t_uint8"},{"astId":3430,"contract":"contracts/VariablesV1Upgradeable.sol:VariablesV1Upgradeable","label":"_globalRewardRate","offset":4,"slot":"252","type":"t_uint8"},{"astId":3432,"contract":"contracts/VariablesV1Upgradeable.sol:VariablesV1Upgradeable","label":"_weeklyRewardRate","offset":5,"slot":"252","type":"t_uint8"},{"astId":3434,"contract":"contracts/VariablesV1Upgradeable.sol:VariablesV1Upgradeable","label":"_ibpRewardRate","offset":6,"slot":"252","type":"t_uint8"},{"astId":3436,"contract":"contracts/VariablesV1Upgradeable.sol:VariablesV1Upgradeable","label":"_coreMemberRewardRate","offset":7,"slot":"252","type":"t_uint8"},{"astId":3438,"contract":"contracts/VariablesV1Upgradeable.sol:VariablesV1Upgradeable","label":"_adminFees","offset":8,"slot":"252","type":"t_uint8"},{"astId":3440,"contract":"contracts/VariablesV1Upgradeable.sol:VariablesV1Upgradeable","label":"_rewardTokenRate","offset":9,"slot":"252","type":"t_uint8"},{"astId":3442,"contract":"contracts/VariablesV1Upgradeable.sol:VariablesV1Upgradeable","label":"_isPayRewardToken","offset":10,"slot":"252","type":"t_bool"},{"astId":3444,"contract":"contracts/VariablesV1Upgradeable.sol:VariablesV1Upgradeable","label":"_isPayReferralRewards","offset":11,"slot":"252","type":"t_bool"},{"astId":3446,"contract":"contracts/VariablesV1Upgradeable.sol:VariablesV1Upgradeable","label":"_isPayGlobalRewards","offset":12,"slot":"252","type":"t_bool"},{"astId":3448,"contract":"contracts/VariablesV1Upgradeable.sol:VariablesV1Upgradeable","label":"_isPayWeeklyRewards","offset":13,"slot":"252","type":"t_bool"},{"astId":3450,"contract":"contracts/VariablesV1Upgradeable.sol:VariablesV1Upgradeable","label":"_isPayIbpRewards","offset":14,"slot":"252","type":"t_bool"},{"astId":3452,"contract":"contracts/VariablesV1Upgradeable.sol:VariablesV1Upgradeable","label":"_isPayCoreMembersRewards","offset":15,"slot":"252","type":"t_bool"},{"astId":3455,"contract":"contracts/VariablesV1Upgradeable.sol:VariablesV1Upgradeable","label":"supportedTokensList","offset":0,"slot":"253","type":"t_array(t_address)dyn_storage"},{"astId":3458,"contract":"contracts/VariablesV1Upgradeable.sol:VariablesV1Upgradeable","label":"_ibpAddresses","offset":0,"slot":"254","type":"t_array(t_address)dyn_storage"},{"astId":3460,"contract":"contracts/VariablesV1Upgradeable.sol:VariablesV1Upgradeable","label":"_presaleContract","offset":0,"slot":"255","type":"t_address"},{"astId":3462,"contract":"contracts/VariablesV1Upgradeable.sol:VariablesV1Upgradeable","label":"_referralContract","offset":0,"slot":"256","type":"t_address"},{"astId":3464,"contract":"contracts/VariablesV1Upgradeable.sol:VariablesV1Upgradeable","label":"_stakingContract","offset":0,"slot":"257","type":"t_address"},{"astId":3466,"contract":"contracts/VariablesV1Upgradeable.sol:VariablesV1Upgradeable","label":"_ibpContract","offset":0,"slot":"258","type":"t_address"},{"astId":3468,"contract":"contracts/VariablesV1Upgradeable.sol:VariablesV1Upgradeable","label":"_rewardTokenContract","offset":0,"slot":"259","type":"t_address"},{"astId":3470,"contract":"contracts/VariablesV1Upgradeable.sol:VariablesV1Upgradeable","label":"_coreMembersContract","offset":0,"slot":"260","type":"t_address"},{"astId":3472,"contract":"contracts/VariablesV1Upgradeable.sol:VariablesV1Upgradeable","label":"_adminAddress","offset":0,"slot":"261","type":"t_address"},{"astId":3501,"contract":"contracts/VariablesV1Upgradeable.sol:VariablesV1Upgradeable","label":"plans","offset":0,"slot":"262","type":"t_mapping(t_uint8,t_struct(PlanStruct)3481_storage)"},{"astId":3506,"contract":"contracts/VariablesV1Upgradeable.sol:VariablesV1Upgradeable","label":"supportTokens","offset":0,"slot":"263","type":"t_mapping(t_address,t_struct(SupportedTokensStruct)3496_storage)"},{"astId":3510,"contract":"contracts/VariablesV1Upgradeable.sol:VariablesV1Upgradeable","label":"isIBPAddress","offset":0,"slot":"264","type":"t_mapping(t_address,t_bool)"}],"types":{"t_address":{"encoding":"inplace","label":"address","numberOfBytes":"20"},"t_array(t_address)dyn_storage":{"base":"t_address","encoding":"dynamic_array","label":"address[]","numberOfBytes":"32"},"t_array(t_uint16)dyn_storage":{"base":"t_uint16","encoding":"dynamic_array","label":"uint16[]","numberOfBytes":"32"},"t_array(t_uint256)49_storage":{"base":"t_uint256","encoding":"inplace","label":"uint256[49]","numberOfBytes":"1568"},"t_array(t_uint256)50_storage":{"base":"t_uint256","encoding":"inplace","label":"uint256[50]","numberOfBytes":"1600"},"t_bool":{"encoding":"inplace","label":"bool","numberOfBytes":"1"},"t_mapping(t_address,t_bool)":{"encoding":"mapping","key":"t_address","label":"mapping(address => bool)","numberOfBytes":"32","value":"t_bool"},"t_mapping(t_address,t_struct(SupportedTokensStruct)3496_storage)":{"encoding":"mapping","key":"t_address","label":"mapping(address => struct VariablesV1Upgradeable.SupportedTokensStruct)","numberOfBytes":"32","value":"t_struct(SupportedTokensStruct)3496_storage"},"t_mapping(t_uint8,t_struct(PlanStruct)3481_storage)":{"encoding":"mapping","key":"t_uint8","label":"mapping(uint8 => struct VariablesV1Upgradeable.PlanStruct)","numberOfBytes":"32","value":"t_struct(PlanStruct)3481_storage"},"t_string_storage":{"encoding":"bytes","label":"string","numberOfBytes":"32"},"t_struct(PlanStruct)3481_storage":{"encoding":"inplace","label":"struct VariablesV1Upgradeable.PlanStruct","members":[{"astId":3474,"contract":"contracts/VariablesV1Upgradeable.sol:VariablesV1Upgradeable","label":"planId","offset":0,"slot":"0","type":"t_uint8"},{"astId":3476,"contract":"contracts/VariablesV1Upgradeable.sol:VariablesV1Upgradeable","label":"name","offset":0,"slot":"1","type":"t_string_storage"},{"astId":3478,"contract":"contracts/VariablesV1Upgradeable.sol:VariablesV1Upgradeable","label":"value","offset":0,"slot":"2","type":"t_uint256"},{"astId":3480,"contract":"contracts/VariablesV1Upgradeable.sol:VariablesV1Upgradeable","label":"maxLimitMultiplier","offset":0,"slot":"3","type":"t_uint256"}],"numberOfBytes":"128"},"t_struct(SupportedTokensStruct)3496_storage":{"encoding":"inplace","label":"struct VariablesV1Upgradeable.SupportedTokensStruct","members":[{"astId":3483,"contract":"contracts/VariablesV1Upgradeable.sol:VariablesV1Upgradeable","label":"contractAddress","offset":0,"slot":"0","type":"t_address"},{"astId":3485,"contract":"contracts/VariablesV1Upgradeable.sol:VariablesV1Upgradeable","label":"name","offset":0,"slot":"1","type":"t_string_storage"},{"astId":3487,"contract":"contracts/VariablesV1Upgradeable.sol:VariablesV1Upgradeable","label":"symbol","offset":0,"slot":"2","type":"t_string_storage"},{"astId":3489,"contract":"contracts/VariablesV1Upgradeable.sol:VariablesV1Upgradeable","label":"decimals","offset":0,"slot":"3","type":"t_uint8"},{"astId":3491,"contract":"contracts/VariablesV1Upgradeable.sol:VariablesV1Upgradeable","label":"isStable","offset":1,"slot":"3","type":"t_bool"},{"astId":3493,"contract":"contracts/VariablesV1Upgradeable.sol:VariablesV1Upgradeable","label":"aggregatorAddress","offset":2,"slot":"3","type":"t_address"},{"astId":3495,"contract":"contracts/VariablesV1Upgradeable.sol:VariablesV1Upgradeable","label":"isEnaled","offset":22,"slot":"3","type":"t_bool"}],"numberOfBytes":"128"},"t_uint16":{"encoding":"inplace","label":"uint16","numberOfBytes":"2"},"t_uint256":{"encoding":"inplace","label":"uint256","numberOfBytes":"32"},"t_uint8":{"encoding":"inplace","label":"uint8","numberOfBytes":"1"}}}}}}