{"contracts/StakingUpgradeable.sol":{"StakingUpgradeable":{"abi":[{"anonymous":false,"inputs":[{"indexed":false,"internalType":"address","name":"previousAdmin","type":"address"},{"indexed":false,"internalType":"address","name":"newAdmin","type":"address"}],"name":"AdminChanged","type":"event"},{"anonymous":false,"inputs":[{"indexed":true,"internalType":"address","name":"beacon","type":"address"}],"name":"BeaconUpgraded","type":"event"},{"anonymous":false,"inputs":[{"indexed":false,"internalType":"uint8","name":"version","type":"uint8"}],"name":"Initialized","type":"event"},{"anonymous":false,"inputs":[{"indexed":true,"internalType":"address","name":"previousOwner","type":"address"},{"indexed":true,"internalType":"address","name":"newOwner","type":"address"}],"name":"OwnershipTransferred","type":"event"},{"anonymous":false,"inputs":[{"indexed":true,"internalType":"address","name":"userAddress","type":"address"},{"indexed":false,"internalType":"uint256","name":"amount","type":"uint256"}],"name":"PrincipalClaimed","type":"event"},{"anonymous":false,"inputs":[{"indexed":true,"internalType":"address","name":"userAddress","type":"address"},{"indexed":true,"internalType":"uint256","name":"valueStaked","type":"uint256"},{"indexed":true,"internalType":"uint256","name":"duration","type":"uint256"},{"indexed":false,"internalType":"uint256","name":"stakingID","type":"uint256"}],"name":"Stake","type":"event"},{"anonymous":false,"inputs":[{"indexed":true,"internalType":"address","name":"userAddress","type":"address"},{"indexed":true,"internalType":"uint256","name":"reward","type":"uint256"},{"indexed":true,"internalType":"uint256","name":"stakingID","type":"uint256"},{"indexed":false,"internalType":"address","name":"tokenAddress","type":"address"}],"name":"StakingRewardClaimed","type":"event"},{"anonymous":false,"inputs":[{"indexed":true,"internalType":"address","name":"userAddress","type":"address"},{"indexed":true,"internalType":"uint256","name":"valueStaked","type":"uint256"},{"indexed":true,"internalType":"uint256","name":"stakingID","type":"uint256"}],"name":"Unstake","type":"event"},{"anonymous":false,"inputs":[{"indexed":true,"internalType":"address","name":"implementation","type":"address"}],"name":"Upgraded","type":"event"},{"inputs":[],"name":"activeStakersList","outputs":[{"internalType":"address[]","name":"","type":"address[]"}],"stateMutability":"view","type":"function"},{"inputs":[],"name":"allStakersList","outputs":[{"internalType":"address[]","name":"","type":"address[]"}],"stateMutability":"view","type":"function"},{"inputs":[{"internalType":"uint256","name":"_stakingID","type":"uint256"}],"name":"claimStakingReward","outputs":[],"stateMutability":"nonpayable","type":"function"},{"inputs":[],"name":"getActiveStakingIDs","outputs":[{"internalType":"uint256[]","name":"","type":"uint256[]"}],"stateMutability":"view","type":"function"},{"inputs":[],"name":"getStakingCappings","outputs":[{"internalType":"uint256","name":"stakingRewardRate","type":"uint256"},{"internalType":"uint256","name":"stakingDuration","type":"uint256"}],"stateMutability":"view","type":"function"},{"inputs":[{"internalType":"uint256","name":"_stakingID","type":"uint256"}],"name":"getStakingReward","outputs":[{"internalType":"uint256","name":"","type":"uint256"}],"stateMutability":"view","type":"function"},{"inputs":[{"internalType":"uint256","name":"_stakingID","type":"uint256"}],"name":"getStakingTimeRemaining","outputs":[{"internalType":"uint256","name":"","type":"uint256"}],"stateMutability":"view","type":"function"},{"inputs":[],"name":"getTotalStakingRewardDistributed","outputs":[{"internalType":"uint256","name":"_tokenRewards","type":"uint256"}],"stateMutability":"view","type":"function"},{"inputs":[],"name":"getTotalValueStaked","outputs":[{"internalType":"uint256","name":"token","type":"uint256"}],"stateMutability":"view","type":"function"},{"inputs":[{"internalType":"address","name":"_userAddress","type":"address"}],"name":"getUserAllStakingsRewards","outputs":[{"internalType":"uint256","name":"allStakingRewards","type":"uint256"}],"stateMutability":"view","type":"function"},{"inputs":[{"internalType":"address","name":"_userAddress","type":"address"}],"name":"getUserStakingIDs","outputs":[{"internalType":"uint256[]","name":"","type":"uint256[]"}],"stateMutability":"view","type":"function"},{"inputs":[{"internalType":"address","name":"_userAddress","type":"address"}],"name":"getUserTotalRewardClaimedToken","outputs":[{"internalType":"uint256","name":"totalRewardClaim","type":"uint256"}],"stateMutability":"view","type":"function"},{"inputs":[{"internalType":"address","name":"_userAddress","type":"address"}],"name":"getUserTotalValueStaked","outputs":[{"internalType":"uint256","name":"token","type":"uint256"}],"stateMutability":"view","type":"function"},{"inputs":[],"name":"getVariablesContract","outputs":[{"internalType":"address","name":"","type":"address"}],"stateMutability":"view","type":"function"},{"inputs":[],"name":"initialize","outputs":[],"stateMutability":"nonpayable","type":"function"},{"inputs":[{"internalType":"address","name":"_userAddress","type":"address"}],"name":"isStaked","outputs":[{"internalType":"bool","name":"","type":"bool"}],"stateMutability":"view","type":"function"},{"inputs":[],"name":"owner","outputs":[{"internalType":"address","name":"","type":"address"}],"stateMutability":"view","type":"function"},{"inputs":[],"name":"proxiableUUID","outputs":[{"internalType":"bytes32","name":"","type":"bytes32"}],"stateMutability":"view","type":"function"},{"inputs":[],"name":"renounceOwnership","outputs":[],"stateMutability":"nonpayable","type":"function"},{"inputs":[{"internalType":"uint256","name":"_valueInDays","type":"uint256"}],"name":"setStakingDuration","outputs":[],"stateMutability":"nonpayable","type":"function"},{"inputs":[{"internalType":"uint256","name":"_valueInPer","type":"uint256"}],"name":"setStakingRewardRate","outputs":[],"stateMutability":"nonpayable","type":"function"},{"inputs":[{"internalType":"address","name":"_contractAddress","type":"address"}],"name":"setVariablesContract","outputs":[],"stateMutability":"nonpayable","type":"function"},{"inputs":[{"internalType":"address","name":"_userAddress","type":"address"},{"internalType":"uint256","name":"_value","type":"uint256"}],"name":"stake","outputs":[],"stateMutability":"nonpayable","type":"function"},{"inputs":[{"internalType":"uint256","name":"_stakingID","type":"uint256"}],"name":"stakeInfoMap","outputs":[{"components":[{"internalType":"bool","name":"isActive","type":"bool"},{"internalType":"address","name":"owner","type":"address"},{"internalType":"uint256","name":"value","type":"uint256"},{"internalType":"uint256","name":"rewardRate","type":"uint256"},{"internalType":"uint256","name":"startTime","type":"uint256"},{"internalType":"uint256","name":"duration","type":"uint256"},{"internalType":"uint256","name":"rewardClaimed","type":"uint256"}],"internalType":"struct StakingUpgradeable.StakeInfo","name":"","type":"tuple"}],"stateMutability":"view","type":"function"},{"inputs":[{"internalType":"address","name":"newOwner","type":"address"}],"name":"transferOwnership","outputs":[],"stateMutability":"nonpayable","type":"function"},{"inputs":[{"internalType":"uint32","name":"_stakingID","type":"uint32"}],"name":"unStake","outputs":[],"stateMutability":"nonpayable","type":"function"},{"inputs":[{"internalType":"address","name":"newImplementation","type":"address"}],"name":"upgradeTo","outputs":[],"stateMutability":"nonpayable","type":"function"},{"inputs":[{"internalType":"address","name":"newImplementation","type":"address"},{"internalType":"bytes","name":"data","type":"bytes"}],"name":"upgradeToAndCall","outputs":[],"stateMutability":"payable","type":"function"},{"inputs":[{"internalType":"address","name":"_userAddress","type":"address"}],"name":"userAccountMap","outputs":[{"components":[{"internalType":"uint256[]","name":"stakingID","type":"uint256[]"}],"internalType":"struct StakingUpgradeable.Account","name":"","type":"tuple"}],"stateMutability":"view","type":"function"},{"stateMutability":"payable","type":"receive"}],"evm":{"bytecode":{"linkReferences":{},"object":"60a06040523060805234801561001457600080fd5b506080516125c761004c60003960008181610866015281816108a601528181610945015281816109850152610a1801526125c76000f3fe6080604052600436106101c65760003560e01c80638da5cb5b116100f7578063c06a538811610095578063deede65411610064578063deede65414610552578063e3a51f5814610567578063f13a143f1461058f578063f2fde38b146105ad57600080fd5b8063c06a5388146104db578063cf8a379d146104fd578063d8ba90b71461051d578063dba4358c1461053d57600080fd5b8063abfe35ad116100d1578063abfe35ad1461044e578063adc9772e1461046e578063b7d685191461048e578063ba4f678e146104ae57600080fd5b80638da5cb5b146103805780639c3fe28a146103b2578063a7566b75146103d257600080fd5b806366e5e570116101645780636f72693b1161013e5780636f72693b1461032c578063715018a6146103415780637ce574bf146103565780638129fc1c1461036b57600080fd5b806366e5e570146102bf5780636a8ca691146102df5780636f51b20b146102ff57600080fd5b80634f1ef286116101a05780634f1ef2861461023457806352d1902d146102475780635f8697141461026f5780636177fd181461028f57600080fd5b80630ba0dba3146101d2578063239cd4a4146101f45780633659cfe61461021457600080fd5b366101cd57005b600080fd5b3480156101de57600080fd5b506101f26101ed36600461205b565b6105cd565b005b34801561020057600080fd5b506101f261020f366004612078565b6105f7565b34801561022057600080fd5b506101f261022f36600461205b565b61085c565b6101f26102423660046120a7565b61093b565b34801561025357600080fd5b5061025c610a0b565b6040519081526020015b60405180910390f35b34801561027b57600080fd5b5061025c61028a36600461205b565b610abe565b34801561029b57600080fd5b506102af6102aa36600461205b565b610ba3565b6040519015158152602001610266565b3480156102cb57600080fd5b5061025c6102da36600461205b565b610c7e565b3480156102eb57600080fd5b506101f26102fa366004612078565b610d4c565b34801561030b57600080fd5b5061031f61031a36600461205b565b610d67565b604051610266919061216b565b34801561033857600080fd5b5061031f610dd3565b34801561034d57600080fd5b506101f2610e87565b34801561036257600080fd5b5060cd5461025c565b34801561037757600080fd5b506101f2610e9b565b34801561038c57600080fd5b506033546001600160a01b03165b6040516001600160a01b039091168152602001610266565b3480156103be57600080fd5b5061025c6103cd36600461205b565b610fe6565b3480156103de57600080fd5b506103f26103ed366004612078565b6110a7565b60405161026691908151151581526020808301516001600160a01b03169082015260408083015190820152606080830151908201526080808301519082015260a0808301519082015260c0918201519181019190915260e00190565b34801561045a57600080fd5b5061025c610469366004612078565b611164565b34801561047a57600080fd5b506101f26104893660046121af565b611175565b34801561049a57600080fd5b506101f26104a9366004612078565b61121b565b3480156104ba57600080fd5b506104ce6104c936600461205b565b611228565b60405161026691906121db565b3480156104e757600080fd5b506104f06112ab565b604051610266919061222b565b34801561050957600080fd5b506101f261051836600461226c565b6113ff565b34801561052957600080fd5b5061025c610538366004612078565b611737565b34801561054957600080fd5b506104f061178d565b34801561055e57600080fd5b5060cb5461025c565b34801561057357600080fd5b5060ce5460cf5460408051928352602083019190915201610266565b34801561059b57600080fd5b5060c9546001600160a01b031661039a565b3480156105b957600080fd5b506101f26105c836600461205b565b6118f1565b6105d5611967565b60c980546001600160a01b0319166001600160a01b0392909216919091179055565b6000610602826119c1565b9050600081116106595760405162461bcd60e51b815260206004820152601c60248201527f596f752068617665206e6f207374616b696e67206f7220656e6465640000000060448201526064015b60405180910390fd5b60c954600083815260d16020526040902080546001600160a01b0392831692339291610100900416821461069f5760405162461bcd60e51b815260040161065090612292565b838160050160008282546106b391906122ef565b925050819055508360cd60008282546106cc91906122ef565b92505081905550826001600160a01b03166365eb204d6040518163ffffffff1660e01b8152600401602060405180830381865afa158015610711573d6000803e3d6000fd5b505050506040513d601f19601f820116820180604052508101906107359190612302565b60405163a9059cbb60e01b81526001600160a01b03848116600483015260248201879052919091169063a9059cbb906044016020604051808303816000875af1158015610786573d6000803e3d6000fd5b505050506040513d601f19601f820116820180604052508101906107aa919061231f565b508484836001600160a01b03167ffec605188cf64597b9aa9cf424a9bba4a84ffb09f9f66c932d6efa1b96fcc7e4866001600160a01b03166365eb204d6040518163ffffffff1660e01b8152600401602060405180830381865afa158015610816573d6000803e3d6000fd5b505050506040513d601f19601f8201168201806040525081019061083a9190612302565b6040516001600160a01b03909116815260200160405180910390a45050505050565b6001600160a01b037f00000000000000000000000000000000000000000000000000000000000000001630036108a45760405162461bcd60e51b815260040161065090612341565b7f00000000000000000000000000000000000000000000000000000000000000006001600160a01b03166108ed60008051602061254b833981519152546001600160a01b031690565b6001600160a01b0316146109135760405162461bcd60e51b81526004016106509061238d565b61091c81611a2e565b6040805160008082526020820190925261093891839190611a36565b50565b6001600160a01b037f00000000000000000000000000000000000000000000000000000000000000001630036109835760405162461bcd60e51b815260040161065090612341565b7f00000000000000000000000000000000000000000000000000000000000000006001600160a01b03166109cc60008051602061254b833981519152546001600160a01b031690565b6001600160a01b0316146109f25760405162461bcd60e51b81526004016106509061238d565b6109fb82611a2e565b610a0782826001611a36565b5050565b6000306001600160a01b037f00000000000000000000000000000000000000000000000000000000000000001614610aab5760405162461bcd60e51b815260206004820152603860248201527f555550535570677261646561626c653a206d757374206e6f742062652063616c60448201527f6c6564207468726f7567682064656c656761746563616c6c00000000000000006064820152608401610650565b5060008051602061254b83398151915290565b6001600160a01b038116600090815260d060209081526040808320805482518185028101850190935280835290928492918491830182828015610b2057602002820191906000526020600020905b815481526020019060010190808311610b0c575b505083519394506000925050505b81811015610b9a57600060d16000858481518110610b4e57610b4e6123d9565b6020908102919091018101518252810191909152604001600020805490915060ff1615610b87576001810154610b8490876122ef565b95505b5080610b92816123ef565b915050610b2e565b50505050919050565b6001600160a01b038116600090815260d060209081526040808320805482518185028101850190935280835290928492918491830182828015610c0557602002820191906000526020600020905b815481526020019060010190808311610bf1575b505083519394506000925050505b81811015610c725760d16000848381518110610c3157610c316123d9565b60209081029190910181015182528101919091526040016000205460ff1615610c605750600195945050505050565b80610c6a816123ef565b915050610c13565b50600095945050505050565b6001600160a01b038116600090815260d060209081526040808320805482518185028101850190935280835290928492918491830182828015610ce057602002820191906000526020600020905b815481526020019060010190808311610ccc575b505083519394506000925050505b81811015610b9a57600060d16000858481518110610d0e57610d0e6123d9565b602002602001015181526020019081526020016000209050806005015486610d3691906122ef565b9550508080610d44906123ef565b915050610cee565b610d54611967565b610d618162015180612408565b60cf5550565b6001600160a01b038116600090815260d06020908152604091829020805483518184028101840190945280845260609392830182828015610dc757602002820191906000526020600020905b815481526020019060010190808311610db3575b50505050509050919050565b60ca5460609060008167ffffffffffffffff811115610df457610df4612091565b604051908082528060200260200182016040528015610e1d578160200160208202803683370190505b50905060005b82811015610e8057600081815260d160205260409020805460ff161515600103610e6d578115610e6d5781838381518110610e6057610e606123d9565b6020026020010181815250505b5080610e78816123ef565b915050610e23565b5092915050565b610e8f611967565b610e996000611ba1565b565b600054610100900460ff1615808015610ebb5750600054600160ff909116105b80610ed55750303b158015610ed5575060005460ff166001145b610f385760405162461bcd60e51b815260206004820152602e60248201527f496e697469616c697a61626c653a20636f6e747261637420697320616c72656160448201526d191e481a5b9a5d1a585b1a5e995960921b6064820152608401610650565b6000805460ff191660011790558015610f5b576000805461ff0019166101001790555b60c980546001600160a01b0319167377daafc7411c911b869c71bf70fe36cce507845d179055606460ce556302d5190060cf55610f96611bf3565b610f9e611c22565b8015610938576000805461ff0019169055604051600181527f7f26b83ff96e1f2b6a682f133852f6798a09c465da95921460cefb38474024989060200160405180910390a150565b6001600160a01b038116600090815260d0602090815260408083208054825181850281018501909352808352849383018282801561104357602002820191906000526020600020905b81548152602001906001019080831161102f575b505083519394506000925050505b818160ff16101561109f57611081838260ff1681518110611074576110746123d9565b60200260200101516119c1565b61108b90856122ef565b9350806110978161241f565b915050611051565b505050919050565b6110f26040518060e0016040528060001515815260200160006001600160a01b0316815260200160008152602001600081526020016000815260200160008152602001600081525090565b50600090815260d16020908152604091829020825160e081018452815460ff81161515825261010090046001600160a01b0316928101929092526001810154928201929092526002820154606082015260038201546080820152600482015460a082015260059091015460c082015290565b600061116f826119c1565b92915050565b60c960009054906101000a90046001600160a01b03166001600160a01b03166323442c606040518163ffffffff1660e01b8152600401602060405180830381865afa1580156111c8573d6000803e3d6000fd5b505050506040513d601f19601f820116820180604052508101906111ec9190612302565b6001600160a01b0316336001600160a01b03161461120957600080fd5b611216828260cf54611c49565b505050565b611223611967565b60ce55565b6040805160208082018352606082526001600160a01b038416600090815260d082528390208351815480840282018601865292810183815293949093919284929184919084018282801561129b57602002820191906000526020600020905b815481526020019060010190808311611287575b5050505050815250509050919050565b6060600060ca80548060200260200160405190810160405280929190818152602001828054801561130557602002820191906000526020600020905b81546001600160a01b031681526001909101906020018083116112e7575b5050505050905060008151905060008167ffffffffffffffff81111561132d5761132d612091565b604051908082528060200260200182016040528015611356578160200160208202803683370190505b5090506000805b838110156113f5576113888386838151811061137b5761137b6123d9565b6020026020010151611d62565b15156001146113e3578481815181106113a3576113a36123d9565b60200260200101518383815181106113bd576113bd6123d9565b6001600160a01b0390921660209283029190910190910152816113df816123ef565b9250505b806113ed816123ef565b91505061135d565b5090949350505050565b63ffffffff8116600090815260d160205260409020805460ff166114655760405162461bcd60e51b815260206004820152601c60248201527f596f752068617665206e6f207374616b696e67206f7220656e646564000000006044820152606401610650565b60006114768363ffffffff166119c1565b60c95483549192506001600160a01b039081169133916101009091041681146114b15760405162461bcd60e51b815260040161065090612292565b4260cf5485600301546114c491906122ef565b116115115760405162461bcd60e51b815260206004820152601d60248201527f596f75207374616b696e67206973206e6f7420656e646564207965742e0000006044820152606401610650565b8284600501600082825461152591906122ef565b925050819055508260cd600082825461153e91906122ef565b925050819055508463ffffffff1683826001600160a01b03167ffec605188cf64597b9aa9cf424a9bba4a84ffb09f9f66c932d6efa1b96fcc7e4856001600160a01b03166365eb204d6040518163ffffffff1660e01b8152600401602060405180830381865afa1580156115b6573d6000803e3d6000fd5b505050506040513d601f19601f820116820180604052508101906115da9190612302565b6040516001600160a01b03909116815260200160405180910390a4835460ff19168455600184015460405163ffffffff871691906001600160a01b038416907ff960dbf9e5d0682f7a298ed974e33a28b4464914b7a2bfac12ae419a9afeb28090600090a4816001600160a01b03166365eb204d6040518163ffffffff1660e01b8152600401602060405180830381865afa15801561167d573d6000803e3d6000fd5b505050506040513d601f19601f820116820180604052508101906116a19190612302565b6001600160a01b031663a9059cbb828587600101546116c091906122ef565b6040516001600160e01b031960e085901b1681526001600160a01b03909216600483015260248201526044016020604051808303816000875af115801561170b573d6000803e3d6000fd5b505050506040513d601f19601f8201168201806040525081019061172f919061231f565b505050505050565b600081815260d16020526040812060cf54600382015442929190849061175e9083906122ef565b905080841015610c72578382846003015461177991906122ef565b611783919061243e565b9695505050505050565b6060600060ca8054806020026020016040519081016040528092919081815260200182805480156117e757602002820191906000526020600020905b81546001600160a01b031681526001909101906020018083116117c9575b5050505050905060008151905060008167ffffffffffffffff81111561180f5761180f612091565b604051908082528060200260200182016040528015611838578160200160208202803683370190505b5090506000805b838110156113f55761185d8386838151811061137b5761137b6123d9565b15156001146118df5761188885828151811061187b5761187b6123d9565b6020026020010151610ba3565b156118df5784818151811061189f5761189f6123d9565b60200260200101518383815181106118b9576118b96123d9565b6001600160a01b0390921660209283029190910190910152816118db816123ef565b9250505b806118e9816123ef565b91505061183f565b6118f9611967565b6001600160a01b03811661195e5760405162461bcd60e51b815260206004820152602660248201527f4f776e61626c653a206e6577206f776e657220697320746865207a65726f206160448201526564647265737360d01b6064820152608401610650565b61093881611ba1565b6033546001600160a01b03163314610e995760405162461bcd60e51b815260206004820181905260248201527f4f776e61626c653a2063616c6c6572206973206e6f7420746865206f776e65726044820152606401610650565b60cf54600082815260d16020526040812060038101549192429290919084906119ea908561243e565b905060008383600101546119fe9190612451565b90508260050154611a0f8386611dc7565b611a19919061243e565b611a239082612408565b979650505050505050565b610938611967565b7f4910fdfa16fed3260ed0e7147f7cc6da11a60208b5b9406d12a635614ffd91435460ff1615611a695761121683611ddd565b826001600160a01b03166352d1902d6040518163ffffffff1660e01b8152600401602060405180830381865afa925050508015611ac3575060408051601f3d908101601f19168201909252611ac091810190612473565b60015b611b265760405162461bcd60e51b815260206004820152602e60248201527f45524331393637557067726164653a206e657720696d706c656d656e7461746960448201526d6f6e206973206e6f74205555505360901b6064820152608401610650565b60008051602061254b8339815191528114611b955760405162461bcd60e51b815260206004820152602960248201527f45524331393637557067726164653a20756e737570706f727465642070726f786044820152681a58589b195555525160ba1b6064820152608401610650565b50611216838383611e79565b603380546001600160a01b038381166001600160a01b0319831681179093556040519116919082907f8be0079c531659141344cd1fd0a4f28419497f9722a3daafe3b4186f6b6457e090600090a35050565b600054610100900460ff16611c1a5760405162461bcd60e51b81526004016106509061248c565b610e99611ea4565b600054610100900460ff16610e995760405162461bcd60e51b81526004016106509061248c565b60ca8054600180820183557f42d72674974f694b5f5159593243114d38a5c39c89d6b62fee061ff523240ee190910180546001600160a01b0319166001600160a01b0387169081179091559154600083815260d06020908152604080832084845260d183529083208154808701835582855292842090920184905581546001600160a81b0319166101009096029590951784178155426003820181905593810187905560cb80549295939493928891908790611d069084906122ef565b925050819055508587896001600160a01b03167ff556991011e831bcfac4f406d547e5e32cdd98267efab83935230d5f8d02c44687604051611d4a91815260200190565b60405180910390a460019450505050505b9392505050565b6000805b8351811015611dbd57826001600160a01b0316848281518110611d8b57611d8b6123d9565b60200260200101516001600160a01b031603611dab57600191505061116f565b80611db5816123ef565b915050611d66565b5060009392505050565b6000818310611dd65781611d5b565b5090919050565b6001600160a01b0381163b611e4a5760405162461bcd60e51b815260206004820152602d60248201527f455243313936373a206e657720696d706c656d656e746174696f6e206973206e60448201526c1bdd08184818dbdb9d1c9858dd609a1b6064820152608401610650565b60008051602061254b83398151915280546001600160a01b0319166001600160a01b0392909216919091179055565b611e8283611ed4565b600082511180611e8f5750805b1561121657611e9e8383611f14565b50505050565b600054610100900460ff16611ecb5760405162461bcd60e51b81526004016106509061248c565b610e9933611ba1565b611edd81611ddd565b6040516001600160a01b038216907fbc7cd75a20ee27fd9adebab32041f755214dbc6bffa90cc0225b39da2e5c2d3b90600090a250565b60606001600160a01b0383163b611f7c5760405162461bcd60e51b815260206004820152602660248201527f416464726573733a2064656c65676174652063616c6c20746f206e6f6e2d636f6044820152651b9d1c9858dd60d21b6064820152608401610650565b600080846001600160a01b031684604051611f9791906124fb565b600060405180830381855af49150503d8060008114611fd2576040519150601f19603f3d011682016040523d82523d6000602084013e611fd7565b606091505b5091509150611fff828260405180606001604052806027815260200161256b60279139612008565b95945050505050565b60608315612017575081611d5b565b611d5b838381511561202c5781518083602001fd5b8060405162461bcd60e51b81526004016106509190612517565b6001600160a01b038116811461093857600080fd5b60006020828403121561206d57600080fd5b8135611d5b81612046565b60006020828403121561208a57600080fd5b5035919050565b634e487b7160e01b600052604160045260246000fd5b600080604083850312156120ba57600080fd5b82356120c581612046565b9150602083013567ffffffffffffffff808211156120e257600080fd5b818501915085601f8301126120f657600080fd5b81358181111561210857612108612091565b604051601f8201601f19908116603f0116810190838211818310171561213057612130612091565b8160405282815288602084870101111561214957600080fd5b8260208601602083013760006020848301015280955050505050509250929050565b6020808252825182820181905260009190848201906040850190845b818110156121a357835183529284019291840191600101612187565b50909695505050505050565b600080604083850312156121c257600080fd5b82356121cd81612046565b946020939093013593505050565b6020808252825182820182905280516040840181905260009291820190839060608601905b808310156122205783518252928401926001929092019190840190612200565b509695505050505050565b6020808252825182820181905260009190848201906040850190845b818110156121a35783516001600160a01b031683529284019291840191600101612247565b60006020828403121561227e57600080fd5b813563ffffffff81168114611d5b57600080fd5b60208082526027908201527f536f727279207374616b696e6720696420646f656e27742062656c6f6e6773206040820152663a37903cb7ba9760c91b606082015260800190565b634e487b7160e01b600052601160045260246000fd5b8082018082111561116f5761116f6122d9565b60006020828403121561231457600080fd5b8151611d5b81612046565b60006020828403121561233157600080fd5b81518015158114611d5b57600080fd5b6020808252602c908201527f46756e6374696f6e206d7573742062652063616c6c6564207468726f7567682060408201526b19195b1959d85d1958d85b1b60a21b606082015260800190565b6020808252602c908201527f46756e6374696f6e206d7573742062652063616c6c6564207468726f7567682060408201526b6163746976652070726f787960a01b606082015260800190565b634e487b7160e01b600052603260045260246000fd5b600060018201612401576124016122d9565b5060010190565b808202811582820484141761116f5761116f6122d9565b600060ff821660ff8103612435576124356122d9565b60010192915050565b8181038181111561116f5761116f6122d9565b60008261246e57634e487b7160e01b600052601260045260246000fd5b500490565b60006020828403121561248557600080fd5b5051919050565b6020808252602b908201527f496e697469616c697a61626c653a20636f6e7472616374206973206e6f74206960408201526a6e697469616c697a696e6760a81b606082015260800190565b60005b838110156124f25781810151838201526020016124da565b50506000910152565b6000825161250d8184602087016124d7565b9190910192915050565b60208152600082518060208401526125368160408501602087016124d7565b601f01601f1916919091016040019291505056fe360894a13ba1a3210667c828492db98dca3e2076cc3735a920a3ca505d382bbc416464726573733a206c6f772d6c6576656c2064656c65676174652063616c6c206661696c6564a2646970667358221220159743f56be7e8760591f5326fc4aaded745e821d39c88ad012f429bf01bb67e64736f6c63430008120033","opcodes":"PUSH1 0xA0 PUSH1 0x40 MSTORE ADDRESS PUSH1 0x80 MSTORE CALLVALUE DUP1 ISZERO PUSH2 0x14 JUMPI PUSH1 0x0 DUP1 REVERT JUMPDEST POP PUSH1 0x80 MLOAD PUSH2 0x25C7 PUSH2 0x4C PUSH1 0x0 CODECOPY PUSH1 0x0 DUP2 DUP2 PUSH2 0x866 ADD MSTORE DUP2 DUP2 PUSH2 0x8A6 ADD MSTORE DUP2 DUP2 PUSH2 0x945 ADD MSTORE DUP2 DUP2 PUSH2 0x985 ADD MSTORE PUSH2 0xA18 ADD MSTORE PUSH2 0x25C7 PUSH1 0x0 RETURN INVALID PUSH1 0x80 PUSH1 0x40 MSTORE PUSH1 0x4 CALLDATASIZE LT PUSH2 0x1C6 JUMPI PUSH1 0x0 CALLDATALOAD PUSH1 0xE0 SHR DUP1 PUSH4 0x8DA5CB5B GT PUSH2 0xF7 JUMPI DUP1 PUSH4 0xC06A5388 GT PUSH2 0x95 JUMPI DUP1 PUSH4 0xDEEDE654 GT PUSH2 0x64 JUMPI DUP1 PUSH4 0xDEEDE654 EQ PUSH2 0x552 JUMPI DUP1 PUSH4 0xE3A51F58 EQ PUSH2 0x567 JUMPI DUP1 PUSH4 0xF13A143F EQ PUSH2 0x58F JUMPI DUP1 PUSH4 0xF2FDE38B EQ PUSH2 0x5AD JUMPI PUSH1 0x0 DUP1 REVERT JUMPDEST DUP1 PUSH4 0xC06A5388 EQ PUSH2 0x4DB JUMPI DUP1 PUSH4 0xCF8A379D EQ PUSH2 0x4FD JUMPI DUP1 PUSH4 0xD8BA90B7 EQ PUSH2 0x51D JUMPI DUP1 PUSH4 0xDBA4358C EQ PUSH2 0x53D JUMPI PUSH1 0x0 DUP1 REVERT JUMPDEST DUP1 PUSH4 0xABFE35AD GT PUSH2 0xD1 JUMPI DUP1 PUSH4 0xABFE35AD EQ PUSH2 0x44E JUMPI DUP1 PUSH4 0xADC9772E EQ PUSH2 0x46E JUMPI DUP1 PUSH4 0xB7D68519 EQ PUSH2 0x48E JUMPI DUP1 PUSH4 0xBA4F678E EQ PUSH2 0x4AE JUMPI PUSH1 0x0 DUP1 REVERT JUMPDEST DUP1 PUSH4 0x8DA5CB5B EQ PUSH2 0x380 JUMPI DUP1 PUSH4 0x9C3FE28A EQ PUSH2 0x3B2 JUMPI DUP1 PUSH4 0xA7566B75 EQ PUSH2 0x3D2 JUMPI PUSH1 0x0 DUP1 REVERT JUMPDEST DUP1 PUSH4 0x66E5E570 GT PUSH2 0x164 JUMPI DUP1 PUSH4 0x6F72693B GT PUSH2 0x13E JUMPI DUP1 PUSH4 0x6F72693B EQ PUSH2 0x32C JUMPI DUP1 PUSH4 0x715018A6 EQ PUSH2 0x341 JUMPI DUP1 PUSH4 0x7CE574BF EQ PUSH2 0x356 JUMPI DUP1 PUSH4 0x8129FC1C EQ PUSH2 0x36B JUMPI PUSH1 0x0 DUP1 REVERT JUMPDEST DUP1 PUSH4 0x66E5E570 EQ PUSH2 0x2BF JUMPI DUP1 PUSH4 0x6A8CA691 EQ PUSH2 0x2DF JUMPI DUP1 PUSH4 0x6F51B20B EQ PUSH2 0x2FF JUMPI PUSH1 0x0 DUP1 REVERT JUMPDEST DUP1 PUSH4 0x4F1EF286 GT PUSH2 0x1A0 JUMPI DUP1 PUSH4 0x4F1EF286 EQ PUSH2 0x234 JUMPI DUP1 PUSH4 0x52D1902D EQ PUSH2 0x247 JUMPI DUP1 PUSH4 0x5F869714 EQ PUSH2 0x26F JUMPI DUP1 PUSH4 0x6177FD18 EQ PUSH2 0x28F JUMPI PUSH1 0x0 DUP1 REVERT JUMPDEST DUP1 PUSH4 0xBA0DBA3 EQ PUSH2 0x1D2 JUMPI DUP1 PUSH4 0x239CD4A4 EQ PUSH2 0x1F4 JUMPI DUP1 PUSH4 0x3659CFE6 EQ PUSH2 0x214 JUMPI PUSH1 0x0 DUP1 REVERT JUMPDEST CALLDATASIZE PUSH2 0x1CD JUMPI STOP JUMPDEST PUSH1 0x0 DUP1 REVERT JUMPDEST CALLVALUE DUP1 ISZERO PUSH2 0x1DE JUMPI PUSH1 0x0 DUP1 REVERT JUMPDEST POP PUSH2 0x1F2 PUSH2 0x1ED CALLDATASIZE PUSH1 0x4 PUSH2 0x205B JUMP JUMPDEST PUSH2 0x5CD JUMP JUMPDEST STOP JUMPDEST CALLVALUE DUP1 ISZERO PUSH2 0x200 JUMPI PUSH1 0x0 DUP1 REVERT JUMPDEST POP PUSH2 0x1F2 PUSH2 0x20F CALLDATASIZE PUSH1 0x4 PUSH2 0x2078 JUMP JUMPDEST PUSH2 0x5F7 JUMP JUMPDEST CALLVALUE DUP1 ISZERO PUSH2 0x220 JUMPI PUSH1 0x0 DUP1 REVERT JUMPDEST POP PUSH2 0x1F2 PUSH2 0x22F CALLDATASIZE PUSH1 0x4 PUSH2 0x205B JUMP JUMPDEST PUSH2 0x85C JUMP JUMPDEST PUSH2 0x1F2 PUSH2 0x242 CALLDATASIZE PUSH1 0x4 PUSH2 0x20A7 JUMP JUMPDEST PUSH2 0x93B JUMP JUMPDEST CALLVALUE DUP1 ISZERO PUSH2 0x253 JUMPI PUSH1 0x0 DUP1 REVERT JUMPDEST POP PUSH2 0x25C PUSH2 0xA0B JUMP JUMPDEST PUSH1 0x40 MLOAD SWAP1 DUP2 MSTORE PUSH1 0x20 ADD JUMPDEST PUSH1 0x40 MLOAD DUP1 SWAP2 SUB SWAP1 RETURN JUMPDEST CALLVALUE DUP1 ISZERO PUSH2 0x27B JUMPI PUSH1 0x0 DUP1 REVERT JUMPDEST POP PUSH2 0x25C PUSH2 0x28A CALLDATASIZE PUSH1 0x4 PUSH2 0x205B JUMP JUMPDEST PUSH2 0xABE JUMP JUMPDEST CALLVALUE DUP1 ISZERO PUSH2 0x29B JUMPI PUSH1 0x0 DUP1 REVERT JUMPDEST POP PUSH2 0x2AF PUSH2 0x2AA CALLDATASIZE PUSH1 0x4 PUSH2 0x205B JUMP JUMPDEST PUSH2 0xBA3 JUMP JUMPDEST PUSH1 0x40 MLOAD SWAP1 ISZERO ISZERO DUP2 MSTORE PUSH1 0x20 ADD PUSH2 0x266 JUMP JUMPDEST CALLVALUE DUP1 ISZERO PUSH2 0x2CB JUMPI PUSH1 0x0 DUP1 REVERT JUMPDEST POP PUSH2 0x25C PUSH2 0x2DA CALLDATASIZE PUSH1 0x4 PUSH2 0x205B JUMP JUMPDEST PUSH2 0xC7E JUMP JUMPDEST CALLVALUE DUP1 ISZERO PUSH2 0x2EB JUMPI PUSH1 0x0 DUP1 REVERT JUMPDEST POP PUSH2 0x1F2 PUSH2 0x2FA CALLDATASIZE PUSH1 0x4 PUSH2 0x2078 JUMP JUMPDEST PUSH2 0xD4C JUMP JUMPDEST CALLVALUE DUP1 ISZERO PUSH2 0x30B JUMPI PUSH1 0x0 DUP1 REVERT JUMPDEST POP PUSH2 0x31F PUSH2 0x31A CALLDATASIZE PUSH1 0x4 PUSH2 0x205B JUMP JUMPDEST PUSH2 0xD67 JUMP JUMPDEST PUSH1 0x40 MLOAD PUSH2 0x266 SWAP2 SWAP1 PUSH2 0x216B JUMP JUMPDEST CALLVALUE DUP1 ISZERO PUSH2 0x338 JUMPI PUSH1 0x0 DUP1 REVERT JUMPDEST POP PUSH2 0x31F PUSH2 0xDD3 JUMP JUMPDEST CALLVALUE DUP1 ISZERO PUSH2 0x34D JUMPI PUSH1 0x0 DUP1 REVERT JUMPDEST POP PUSH2 0x1F2 PUSH2 0xE87 JUMP JUMPDEST CALLVALUE DUP1 ISZERO PUSH2 0x362 JUMPI PUSH1 0x0 DUP1 REVERT JUMPDEST POP PUSH1 0xCD SLOAD PUSH2 0x25C JUMP JUMPDEST CALLVALUE DUP1 ISZERO PUSH2 0x377 JUMPI PUSH1 0x0 DUP1 REVERT JUMPDEST POP PUSH2 0x1F2 PUSH2 0xE9B JUMP JUMPDEST CALLVALUE DUP1 ISZERO PUSH2 0x38C JUMPI PUSH1 0x0 DUP1 REVERT JUMPDEST POP PUSH1 0x33 SLOAD PUSH1 0x1 PUSH1 0x1 PUSH1 0xA0 SHL SUB AND JUMPDEST PUSH1 0x40 MLOAD PUSH1 0x1 PUSH1 0x1 PUSH1 0xA0 SHL SUB SWAP1 SWAP2 AND DUP2 MSTORE PUSH1 0x20 ADD PUSH2 0x266 JUMP JUMPDEST CALLVALUE DUP1 ISZERO PUSH2 0x3BE JUMPI PUSH1 0x0 DUP1 REVERT JUMPDEST POP PUSH2 0x25C PUSH2 0x3CD CALLDATASIZE PUSH1 0x4 PUSH2 0x205B JUMP JUMPDEST PUSH2 0xFE6 JUMP JUMPDEST CALLVALUE DUP1 ISZERO PUSH2 0x3DE JUMPI PUSH1 0x0 DUP1 REVERT JUMPDEST POP PUSH2 0x3F2 PUSH2 0x3ED CALLDATASIZE PUSH1 0x4 PUSH2 0x2078 JUMP JUMPDEST PUSH2 0x10A7 JUMP JUMPDEST PUSH1 0x40 MLOAD PUSH2 0x266 SWAP2 SWAP1 DUP2 MLOAD ISZERO ISZERO DUP2 MSTORE PUSH1 0x20 DUP1 DUP4 ADD MLOAD PUSH1 0x1 PUSH1 0x1 PUSH1 0xA0 SHL SUB AND SWAP1 DUP3 ADD MSTORE PUSH1 0x40 DUP1 DUP4 ADD MLOAD SWAP1 DUP3 ADD MSTORE PUSH1 0x60 DUP1 DUP4 ADD MLOAD SWAP1 DUP3 ADD MSTORE PUSH1 0x80 DUP1 DUP4 ADD MLOAD SWAP1 DUP3 ADD MSTORE PUSH1 0xA0 DUP1 DUP4 ADD MLOAD SWAP1 DUP3 ADD MSTORE PUSH1 0xC0 SWAP2 DUP3 ADD MLOAD SWAP2 DUP2 ADD SWAP2 SWAP1 SWAP2 MSTORE PUSH1 0xE0 ADD SWAP1 JUMP JUMPDEST CALLVALUE DUP1 ISZERO PUSH2 0x45A JUMPI PUSH1 0x0 DUP1 REVERT JUMPDEST POP PUSH2 0x25C PUSH2 0x469 CALLDATASIZE PUSH1 0x4 PUSH2 0x2078 JUMP JUMPDEST PUSH2 0x1164 JUMP JUMPDEST CALLVALUE DUP1 ISZERO PUSH2 0x47A JUMPI PUSH1 0x0 DUP1 REVERT JUMPDEST POP PUSH2 0x1F2 PUSH2 0x489 CALLDATASIZE PUSH1 0x4 PUSH2 0x21AF JUMP JUMPDEST PUSH2 0x1175 JUMP JUMPDEST CALLVALUE DUP1 ISZERO PUSH2 0x49A JUMPI PUSH1 0x0 DUP1 REVERT JUMPDEST POP PUSH2 0x1F2 PUSH2 0x4A9 CALLDATASIZE PUSH1 0x4 PUSH2 0x2078 JUMP JUMPDEST PUSH2 0x121B JUMP JUMPDEST CALLVALUE DUP1 ISZERO PUSH2 0x4BA JUMPI PUSH1 0x0 DUP1 REVERT JUMPDEST POP PUSH2 0x4CE PUSH2 0x4C9 CALLDATASIZE PUSH1 0x4 PUSH2 0x205B JUMP JUMPDEST PUSH2 0x1228 JUMP JUMPDEST PUSH1 0x40 MLOAD PUSH2 0x266 SWAP2 SWAP1 PUSH2 0x21DB JUMP JUMPDEST CALLVALUE DUP1 ISZERO PUSH2 0x4E7 JUMPI PUSH1 0x0 DUP1 REVERT JUMPDEST POP PUSH2 0x4F0 PUSH2 0x12AB JUMP JUMPDEST PUSH1 0x40 MLOAD PUSH2 0x266 SWAP2 SWAP1 PUSH2 0x222B JUMP JUMPDEST CALLVALUE DUP1 ISZERO PUSH2 0x509 JUMPI PUSH1 0x0 DUP1 REVERT JUMPDEST POP PUSH2 0x1F2 PUSH2 0x518 CALLDATASIZE PUSH1 0x4 PUSH2 0x226C JUMP JUMPDEST PUSH2 0x13FF JUMP JUMPDEST CALLVALUE DUP1 ISZERO PUSH2 0x529 JUMPI PUSH1 0x0 DUP1 REVERT JUMPDEST POP PUSH2 0x25C PUSH2 0x538 CALLDATASIZE PUSH1 0x4 PUSH2 0x2078 JUMP JUMPDEST PUSH2 0x1737 JUMP JUMPDEST CALLVALUE DUP1 ISZERO PUSH2 0x549 JUMPI PUSH1 0x0 DUP1 REVERT JUMPDEST POP PUSH2 0x4F0 PUSH2 0x178D JUMP JUMPDEST CALLVALUE DUP1 ISZERO PUSH2 0x55E JUMPI PUSH1 0x0 DUP1 REVERT JUMPDEST POP PUSH1 0xCB SLOAD PUSH2 0x25C JUMP JUMPDEST CALLVALUE DUP1 ISZERO PUSH2 0x573 JUMPI PUSH1 0x0 DUP1 REVERT JUMPDEST POP PUSH1 0xCE SLOAD PUSH1 0xCF SLOAD PUSH1 0x40 DUP1 MLOAD SWAP3 DUP4 MSTORE PUSH1 0x20 DUP4 ADD SWAP2 SWAP1 SWAP2 MSTORE ADD PUSH2 0x266 JUMP JUMPDEST CALLVALUE DUP1 ISZERO PUSH2 0x59B JUMPI PUSH1 0x0 DUP1 REVERT JUMPDEST POP PUSH1 0xC9 SLOAD PUSH1 0x1 PUSH1 0x1 PUSH1 0xA0 SHL SUB AND PUSH2 0x39A JUMP JUMPDEST CALLVALUE DUP1 ISZERO PUSH2 0x5B9 JUMPI PUSH1 0x0 DUP1 REVERT JUMPDEST POP PUSH2 0x1F2 PUSH2 0x5C8 CALLDATASIZE PUSH1 0x4 PUSH2 0x205B JUMP JUMPDEST PUSH2 0x18F1 JUMP JUMPDEST PUSH2 0x5D5 PUSH2 0x1967 JUMP JUMPDEST PUSH1 0xC9 DUP1 SLOAD PUSH1 0x1 PUSH1 0x1 PUSH1 0xA0 SHL SUB NOT AND PUSH1 0x1 PUSH1 0x1 PUSH1 0xA0 SHL SUB SWAP3 SWAP1 SWAP3 AND SWAP2 SWAP1 SWAP2 OR SWAP1 SSTORE JUMP JUMPDEST PUSH1 0x0 PUSH2 0x602 DUP3 PUSH2 0x19C1 JUMP JUMPDEST SWAP1 POP PUSH1 0x0 DUP2 GT PUSH2 0x659 JUMPI PUSH1 0x40 MLOAD PUSH3 0x461BCD PUSH1 0xE5 SHL DUP2 MSTORE PUSH1 0x20 PUSH1 0x4 DUP3 ADD MSTORE PUSH1 0x1C PUSH1 0x24 DUP3 ADD MSTORE PUSH32 0x596F752068617665206E6F207374616B696E67206F7220656E64656400000000 PUSH1 0x44 DUP3 ADD MSTORE PUSH1 0x64 ADD JUMPDEST PUSH1 0x40 MLOAD DUP1 SWAP2 SUB SWAP1 REVERT JUMPDEST PUSH1 0xC9 SLOAD PUSH1 0x0 DUP4 DUP2 MSTORE PUSH1 0xD1 PUSH1 0x20 MSTORE PUSH1 0x40 SWAP1 KECCAK256 DUP1 SLOAD PUSH1 0x1 PUSH1 0x1 PUSH1 0xA0 SHL SUB SWAP3 DUP4 AND SWAP3 CALLER SWAP3 SWAP2 PUSH2 0x100 SWAP1 DIV AND DUP3 EQ PUSH2 0x69F JUMPI PUSH1 0x40 MLOAD PUSH3 0x461BCD PUSH1 0xE5 SHL DUP2 MSTORE PUSH1 0x4 ADD PUSH2 0x650 SWAP1 PUSH2 0x2292 JUMP JUMPDEST DUP4 DUP2 PUSH1 0x5 ADD PUSH1 0x0 DUP3 DUP3 SLOAD PUSH2 0x6B3 SWAP2 SWAP1 PUSH2 0x22EF JUMP JUMPDEST SWAP3 POP POP DUP2 SWAP1 SSTORE POP DUP4 PUSH1 0xCD PUSH1 0x0 DUP3 DUP3 SLOAD PUSH2 0x6CC SWAP2 SWAP1 PUSH2 0x22EF JUMP JUMPDEST SWAP3 POP POP DUP2 SWAP1 SSTORE POP DUP3 PUSH1 0x1 PUSH1 0x1 PUSH1 0xA0 SHL SUB AND PUSH4 0x65EB204D PUSH1 0x40 MLOAD DUP2 PUSH4 0xFFFFFFFF AND PUSH1 0xE0 SHL DUP2 MSTORE PUSH1 0x4 ADD PUSH1 0x20 PUSH1 0x40 MLOAD DUP1 DUP4 SUB DUP2 DUP7 GAS STATICCALL ISZERO DUP1 ISZERO PUSH2 0x711 JUMPI RETURNDATASIZE PUSH1 0x0 DUP1 RETURNDATACOPY RETURNDATASIZE PUSH1 0x0 REVERT JUMPDEST POP POP POP POP PUSH1 0x40 MLOAD RETURNDATASIZE PUSH1 0x1F NOT PUSH1 0x1F DUP3 ADD AND DUP3 ADD DUP1 PUSH1 0x40 MSTORE POP DUP2 ADD SWAP1 PUSH2 0x735 SWAP2 SWAP1 PUSH2 0x2302 JUMP JUMPDEST PUSH1 0x40 MLOAD PUSH4 0xA9059CBB PUSH1 0xE0 SHL DUP2 MSTORE PUSH1 0x1 PUSH1 0x1 PUSH1 0xA0 SHL SUB DUP5 DUP2 AND PUSH1 0x4 DUP4 ADD MSTORE PUSH1 0x24 DUP3 ADD DUP8 SWAP1 MSTORE SWAP2 SWAP1 SWAP2 AND SWAP1 PUSH4 0xA9059CBB SWAP1 PUSH1 0x44 ADD PUSH1 0x20 PUSH1 0x40 MLOAD DUP1 DUP4 SUB DUP2 PUSH1 0x0 DUP8 GAS CALL ISZERO DUP1 ISZERO PUSH2 0x786 JUMPI RETURNDATASIZE PUSH1 0x0 DUP1 RETURNDATACOPY RETURNDATASIZE PUSH1 0x0 REVERT JUMPDEST POP POP POP POP PUSH1 0x40 MLOAD RETURNDATASIZE PUSH1 0x1F NOT PUSH1 0x1F DUP3 ADD AND DUP3 ADD DUP1 PUSH1 0x40 MSTORE POP DUP2 ADD SWAP1 PUSH2 0x7AA SWAP2 SWAP1 PUSH2 0x231F JUMP JUMPDEST POP DUP5 DUP5 DUP4 PUSH1 0x1 PUSH1 0x1 PUSH1 0xA0 SHL SUB AND PUSH32 0xFEC605188CF64597B9AA9CF424A9BBA4A84FFB09F9F66C932D6EFA1B96FCC7E4 DUP7 PUSH1 0x1 PUSH1 0x1 PUSH1 0xA0 SHL SUB AND PUSH4 0x65EB204D PUSH1 0x40 MLOAD DUP2 PUSH4 0xFFFFFFFF AND PUSH1 0xE0 SHL DUP2 MSTORE PUSH1 0x4 ADD PUSH1 0x20 PUSH1 0x40 MLOAD DUP1 DUP4 SUB DUP2 DUP7 GAS STATICCALL ISZERO DUP1 ISZERO PUSH2 0x816 JUMPI RETURNDATASIZE PUSH1 0x0 DUP1 RETURNDATACOPY RETURNDATASIZE PUSH1 0x0 REVERT JUMPDEST POP POP POP POP PUSH1 0x40 MLOAD RETURNDATASIZE PUSH1 0x1F NOT PUSH1 0x1F DUP3 ADD AND DUP3 ADD DUP1 PUSH1 0x40 MSTORE POP DUP2 ADD SWAP1 PUSH2 0x83A SWAP2 SWAP1 PUSH2 0x2302 JUMP JUMPDEST PUSH1 0x40 MLOAD PUSH1 0x1 PUSH1 0x1 PUSH1 0xA0 SHL SUB SWAP1 SWAP2 AND DUP2 MSTORE PUSH1 0x20 ADD PUSH1 0x40 MLOAD DUP1 SWAP2 SUB SWAP1 LOG4 POP POP POP POP POP JUMP JUMPDEST PUSH1 0x1 PUSH1 0x1 PUSH1 0xA0 SHL SUB PUSH32 0x0 AND ADDRESS SUB PUSH2 0x8A4 JUMPI PUSH1 0x40 MLOAD PUSH3 0x461BCD PUSH1 0xE5 SHL DUP2 MSTORE PUSH1 0x4 ADD PUSH2 0x650 SWAP1 PUSH2 0x2341 JUMP JUMPDEST PUSH32 0x0 PUSH1 0x1 PUSH1 0x1 PUSH1 0xA0 SHL SUB AND PUSH2 0x8ED PUSH1 0x0 DUP1 MLOAD PUSH1 0x20 PUSH2 0x254B DUP4 CODECOPY DUP2 MLOAD SWAP2 MSTORE SLOAD PUSH1 0x1 PUSH1 0x1 PUSH1 0xA0 SHL SUB AND SWAP1 JUMP JUMPDEST PUSH1 0x1 PUSH1 0x1 PUSH1 0xA0 SHL SUB AND EQ PUSH2 0x913 JUMPI PUSH1 0x40 MLOAD PUSH3 0x461BCD PUSH1 0xE5 SHL DUP2 MSTORE PUSH1 0x4 ADD PUSH2 0x650 SWAP1 PUSH2 0x238D JUMP JUMPDEST PUSH2 0x91C DUP2 PUSH2 0x1A2E JUMP JUMPDEST PUSH1 0x40 DUP1 MLOAD PUSH1 0x0 DUP1 DUP3 MSTORE PUSH1 0x20 DUP3 ADD SWAP1 SWAP3 MSTORE PUSH2 0x938 SWAP2 DUP4 SWAP2 SWAP1 PUSH2 0x1A36 JUMP JUMPDEST POP JUMP JUMPDEST PUSH1 0x1 PUSH1 0x1 PUSH1 0xA0 SHL SUB PUSH32 0x0 AND ADDRESS SUB PUSH2 0x983 JUMPI PUSH1 0x40 MLOAD PUSH3 0x461BCD PUSH1 0xE5 SHL DUP2 MSTORE PUSH1 0x4 ADD PUSH2 0x650 SWAP1 PUSH2 0x2341 JUMP JUMPDEST PUSH32 0x0 PUSH1 0x1 PUSH1 0x1 PUSH1 0xA0 SHL SUB AND PUSH2 0x9CC PUSH1 0x0 DUP1 MLOAD PUSH1 0x20 PUSH2 0x254B DUP4 CODECOPY DUP2 MLOAD SWAP2 MSTORE SLOAD PUSH1 0x1 PUSH1 0x1 PUSH1 0xA0 SHL SUB AND SWAP1 JUMP JUMPDEST PUSH1 0x1 PUSH1 0x1 PUSH1 0xA0 SHL SUB AND EQ PUSH2 0x9F2 JUMPI PUSH1 0x40 MLOAD PUSH3 0x461BCD PUSH1 0xE5 SHL DUP2 MSTORE PUSH1 0x4 ADD PUSH2 0x650 SWAP1 PUSH2 0x238D JUMP JUMPDEST PUSH2 0x9FB DUP3 PUSH2 0x1A2E JUMP JUMPDEST PUSH2 0xA07 DUP3 DUP3 PUSH1 0x1 PUSH2 0x1A36 JUMP JUMPDEST POP POP JUMP JUMPDEST PUSH1 0x0 ADDRESS PUSH1 0x1 PUSH1 0x1 PUSH1 0xA0 SHL SUB PUSH32 0x0 AND EQ PUSH2 0xAAB JUMPI PUSH1 0x40 MLOAD PUSH3 0x461BCD PUSH1 0xE5 SHL DUP2 MSTORE PUSH1 0x20 PUSH1 0x4 DUP3 ADD MSTORE PUSH1 0x38 PUSH1 0x24 DUP3 ADD MSTORE PUSH32 0x555550535570677261646561626C653A206D757374206E6F742062652063616C PUSH1 0x44 DUP3 ADD MSTORE PUSH32 0x6C6564207468726F7567682064656C656761746563616C6C0000000000000000 PUSH1 0x64 DUP3 ADD MSTORE PUSH1 0x84 ADD PUSH2 0x650 JUMP JUMPDEST POP PUSH1 0x0 DUP1 MLOAD PUSH1 0x20 PUSH2 0x254B DUP4 CODECOPY DUP2 MLOAD SWAP2 MSTORE SWAP1 JUMP JUMPDEST PUSH1 0x1 PUSH1 0x1 PUSH1 0xA0 SHL SUB DUP2 AND PUSH1 0x0 SWAP1 DUP2 MSTORE PUSH1 0xD0 PUSH1 0x20 SWAP1 DUP2 MSTORE PUSH1 0x40 DUP1 DUP4 KECCAK256 DUP1 SLOAD DUP3 MLOAD DUP2 DUP6 MUL DUP2 ADD DUP6 ADD SWAP1 SWAP4 MSTORE DUP1 DUP4 MSTORE SWAP1 SWAP3 DUP5 SWAP3 SWAP2 DUP5 SWAP2 DUP4 ADD DUP3 DUP3 DUP1 ISZERO PUSH2 0xB20 JUMPI PUSH1 0x20 MUL DUP3 ADD SWAP2 SWAP1 PUSH1 0x0 MSTORE PUSH1 0x20 PUSH1 0x0 KECCAK256 SWAP1 JUMPDEST DUP2 SLOAD DUP2 MSTORE PUSH1 0x20 ADD SWAP1 PUSH1 0x1 ADD SWAP1 DUP1 DUP4 GT PUSH2 0xB0C JUMPI JUMPDEST POP POP DUP4 MLOAD SWAP4 SWAP5 POP PUSH1 0x0 SWAP3 POP POP POP JUMPDEST DUP2 DUP2 LT ISZERO PUSH2 0xB9A JUMPI PUSH1 0x0 PUSH1 0xD1 PUSH1 0x0 DUP6 DUP5 DUP2 MLOAD DUP2 LT PUSH2 0xB4E JUMPI PUSH2 0xB4E PUSH2 0x23D9 JUMP JUMPDEST PUSH1 0x20 SWAP1 DUP2 MUL SWAP2 SWAP1 SWAP2 ADD DUP2 ADD MLOAD DUP3 MSTORE DUP2 ADD SWAP2 SWAP1 SWAP2 MSTORE PUSH1 0x40 ADD PUSH1 0x0 KECCAK256 DUP1 SLOAD SWAP1 SWAP2 POP PUSH1 0xFF AND ISZERO PUSH2 0xB87 JUMPI PUSH1 0x1 DUP2 ADD SLOAD PUSH2 0xB84 SWAP1 DUP8 PUSH2 0x22EF JUMP JUMPDEST SWAP6 POP JUMPDEST POP DUP1 PUSH2 0xB92 DUP2 PUSH2 0x23EF JUMP JUMPDEST SWAP2 POP POP PUSH2 0xB2E JUMP JUMPDEST POP POP POP POP SWAP2 SWAP1 POP JUMP JUMPDEST PUSH1 0x1 PUSH1 0x1 PUSH1 0xA0 SHL SUB DUP2 AND PUSH1 0x0 SWAP1 DUP2 MSTORE PUSH1 0xD0 PUSH1 0x20 SWAP1 DUP2 MSTORE PUSH1 0x40 DUP1 DUP4 KECCAK256 DUP1 SLOAD DUP3 MLOAD DUP2 DUP6 MUL DUP2 ADD DUP6 ADD SWAP1 SWAP4 MSTORE DUP1 DUP4 MSTORE SWAP1 SWAP3 DUP5 SWAP3 SWAP2 DUP5 SWAP2 DUP4 ADD DUP3 DUP3 DUP1 ISZERO PUSH2 0xC05 JUMPI PUSH1 0x20 MUL DUP3 ADD SWAP2 SWAP1 PUSH1 0x0 MSTORE PUSH1 0x20 PUSH1 0x0 KECCAK256 SWAP1 JUMPDEST DUP2 SLOAD DUP2 MSTORE PUSH1 0x20 ADD SWAP1 PUSH1 0x1 ADD SWAP1 DUP1 DUP4 GT PUSH2 0xBF1 JUMPI JUMPDEST POP POP DUP4 MLOAD SWAP4 SWAP5 POP PUSH1 0x0 SWAP3 POP POP POP JUMPDEST DUP2 DUP2 LT ISZERO PUSH2 0xC72 JUMPI PUSH1 0xD1 PUSH1 0x0 DUP5 DUP4 DUP2 MLOAD DUP2 LT PUSH2 0xC31 JUMPI PUSH2 0xC31 PUSH2 0x23D9 JUMP JUMPDEST PUSH1 0x20 SWAP1 DUP2 MUL SWAP2 SWAP1 SWAP2 ADD DUP2 ADD MLOAD DUP3 MSTORE DUP2 ADD SWAP2 SWAP1 SWAP2 MSTORE PUSH1 0x40 ADD PUSH1 0x0 KECCAK256 SLOAD PUSH1 0xFF AND ISZERO PUSH2 0xC60 JUMPI POP PUSH1 0x1 SWAP6 SWAP5 POP POP POP POP POP JUMP JUMPDEST DUP1 PUSH2 0xC6A DUP2 PUSH2 0x23EF JUMP JUMPDEST SWAP2 POP POP PUSH2 0xC13 JUMP JUMPDEST POP PUSH1 0x0 SWAP6 SWAP5 POP POP POP POP POP JUMP JUMPDEST PUSH1 0x1 PUSH1 0x1 PUSH1 0xA0 SHL SUB DUP2 AND PUSH1 0x0 SWAP1 DUP2 MSTORE PUSH1 0xD0 PUSH1 0x20 SWAP1 DUP2 MSTORE PUSH1 0x40 DUP1 DUP4 KECCAK256 DUP1 SLOAD DUP3 MLOAD DUP2 DUP6 MUL DUP2 ADD DUP6 ADD SWAP1 SWAP4 MSTORE DUP1 DUP4 MSTORE SWAP1 SWAP3 DUP5 SWAP3 SWAP2 DUP5 SWAP2 DUP4 ADD DUP3 DUP3 DUP1 ISZERO PUSH2 0xCE0 JUMPI PUSH1 0x20 MUL DUP3 ADD SWAP2 SWAP1 PUSH1 0x0 MSTORE PUSH1 0x20 PUSH1 0x0 KECCAK256 SWAP1 JUMPDEST DUP2 SLOAD DUP2 MSTORE PUSH1 0x20 ADD SWAP1 PUSH1 0x1 ADD SWAP1 DUP1 DUP4 GT PUSH2 0xCCC JUMPI JUMPDEST POP POP DUP4 MLOAD SWAP4 SWAP5 POP PUSH1 0x0 SWAP3 POP POP POP JUMPDEST DUP2 DUP2 LT ISZERO PUSH2 0xB9A JUMPI PUSH1 0x0 PUSH1 0xD1 PUSH1 0x0 DUP6 DUP5 DUP2 MLOAD DUP2 LT PUSH2 0xD0E JUMPI PUSH2 0xD0E PUSH2 0x23D9 JUMP JUMPDEST PUSH1 0x20 MUL PUSH1 0x20 ADD ADD MLOAD DUP2 MSTORE PUSH1 0x20 ADD SWAP1 DUP2 MSTORE PUSH1 0x20 ADD PUSH1 0x0 KECCAK256 SWAP1 POP DUP1 PUSH1 0x5 ADD SLOAD DUP7 PUSH2 0xD36 SWAP2 SWAP1 PUSH2 0x22EF JUMP JUMPDEST SWAP6 POP POP DUP1 DUP1 PUSH2 0xD44 SWAP1 PUSH2 0x23EF JUMP JUMPDEST SWAP2 POP POP PUSH2 0xCEE JUMP JUMPDEST PUSH2 0xD54 PUSH2 0x1967 JUMP JUMPDEST PUSH2 0xD61 DUP2 PUSH3 0x15180 PUSH2 0x2408 JUMP JUMPDEST PUSH1 0xCF SSTORE POP JUMP JUMPDEST PUSH1 0x1 PUSH1 0x1 PUSH1 0xA0 SHL SUB DUP2 AND PUSH1 0x0 SWAP1 DUP2 MSTORE PUSH1 0xD0 PUSH1 0x20 SWAP1 DUP2 MSTORE PUSH1 0x40 SWAP2 DUP3 SWAP1 KECCAK256 DUP1 SLOAD DUP4 MLOAD DUP2 DUP5 MUL DUP2 ADD DUP5 ADD SWAP1 SWAP5 MSTORE DUP1 DUP5 MSTORE PUSH1 0x60 SWAP4 SWAP3 DUP4 ADD DUP3 DUP3 DUP1 ISZERO PUSH2 0xDC7 JUMPI PUSH1 0x20 MUL DUP3 ADD SWAP2 SWAP1 PUSH1 0x0 MSTORE PUSH1 0x20 PUSH1 0x0 KECCAK256 SWAP1 JUMPDEST DUP2 SLOAD DUP2 MSTORE PUSH1 0x20 ADD SWAP1 PUSH1 0x1 ADD SWAP1 DUP1 DUP4 GT PUSH2 0xDB3 JUMPI JUMPDEST POP POP POP POP POP SWAP1 POP SWAP2 SWAP1 POP JUMP JUMPDEST PUSH1 0xCA SLOAD PUSH1 0x60 SWAP1 PUSH1 0x0 DUP2 PUSH8 0xFFFFFFFFFFFFFFFF DUP2 GT ISZERO PUSH2 0xDF4 JUMPI PUSH2 0xDF4 PUSH2 0x2091 JUMP JUMPDEST PUSH1 0x40 MLOAD SWAP1 DUP1 DUP3 MSTORE DUP1 PUSH1 0x20 MUL PUSH1 0x20 ADD DUP3 ADD PUSH1 0x40 MSTORE DUP1 ISZERO PUSH2 0xE1D JUMPI DUP2 PUSH1 0x20 ADD PUSH1 0x20 DUP3 MUL DUP1 CALLDATASIZE DUP4 CALLDATACOPY ADD SWAP1 POP JUMPDEST POP SWAP1 POP PUSH1 0x0 JUMPDEST DUP3 DUP2 LT ISZERO PUSH2 0xE80 JUMPI PUSH1 0x0 DUP2 DUP2 MSTORE PUSH1 0xD1 PUSH1 0x20 MSTORE PUSH1 0x40 SWAP1 KECCAK256 DUP1 SLOAD PUSH1 0xFF AND ISZERO ISZERO PUSH1 0x1 SUB PUSH2 0xE6D JUMPI DUP2 ISZERO PUSH2 0xE6D JUMPI DUP2 DUP4 DUP4 DUP2 MLOAD DUP2 LT PUSH2 0xE60 JUMPI PUSH2 0xE60 PUSH2 0x23D9 JUMP JUMPDEST PUSH1 0x20 MUL PUSH1 0x20 ADD ADD DUP2 DUP2 MSTORE POP POP JUMPDEST POP DUP1 PUSH2 0xE78 DUP2 PUSH2 0x23EF JUMP JUMPDEST SWAP2 POP POP PUSH2 0xE23 JUMP JUMPDEST POP SWAP3 SWAP2 POP POP JUMP JUMPDEST PUSH2 0xE8F PUSH2 0x1967 JUMP JUMPDEST PUSH2 0xE99 PUSH1 0x0 PUSH2 0x1BA1 JUMP JUMPDEST JUMP JUMPDEST PUSH1 0x0 SLOAD PUSH2 0x100 SWAP1 DIV PUSH1 0xFF AND ISZERO DUP1 DUP1 ISZERO PUSH2 0xEBB JUMPI POP PUSH1 0x0 SLOAD PUSH1 0x1 PUSH1 0xFF SWAP1 SWAP2 AND LT JUMPDEST DUP1 PUSH2 0xED5 JUMPI POP ADDRESS EXTCODESIZE ISZERO DUP1 ISZERO PUSH2 0xED5 JUMPI POP PUSH1 0x0 SLOAD PUSH1 0xFF AND PUSH1 0x1 EQ JUMPDEST PUSH2 0xF38 JUMPI PUSH1 0x40 MLOAD PUSH3 0x461BCD PUSH1 0xE5 SHL DUP2 MSTORE PUSH1 0x20 PUSH1 0x4 DUP3 ADD MSTORE PUSH1 0x2E PUSH1 0x24 DUP3 ADD MSTORE PUSH32 0x496E697469616C697A61626C653A20636F6E747261637420697320616C726561 PUSH1 0x44 DUP3 ADD MSTORE PUSH14 0x191E481A5B9A5D1A585B1A5E9959 PUSH1 0x92 SHL PUSH1 0x64 DUP3 ADD MSTORE PUSH1 0x84 ADD PUSH2 0x650 JUMP JUMPDEST PUSH1 0x0 DUP1 SLOAD PUSH1 0xFF NOT AND PUSH1 0x1 OR SWAP1 SSTORE DUP1 ISZERO PUSH2 0xF5B JUMPI PUSH1 0x0 DUP1 SLOAD PUSH2 0xFF00 NOT AND PUSH2 0x100 OR SWAP1 SSTORE JUMPDEST PUSH1 0xC9 DUP1 SLOAD PUSH1 0x1 PUSH1 0x1 PUSH1 0xA0 SHL SUB NOT AND PUSH20 0x77DAAFC7411C911B869C71BF70FE36CCE507845D OR SWAP1 SSTORE PUSH1 0x64 PUSH1 0xCE SSTORE PUSH4 0x2D51900 PUSH1 0xCF SSTORE PUSH2 0xF96 PUSH2 0x1BF3 JUMP JUMPDEST PUSH2 0xF9E PUSH2 0x1C22 JUMP JUMPDEST DUP1 ISZERO PUSH2 0x938 JUMPI PUSH1 0x0 DUP1 SLOAD PUSH2 0xFF00 NOT AND SWAP1 SSTORE PUSH1 0x40 MLOAD PUSH1 0x1 DUP2 MSTORE PUSH32 0x7F26B83FF96E1F2B6A682F133852F6798A09C465DA95921460CEFB3847402498 SWAP1 PUSH1 0x20 ADD PUSH1 0x40 MLOAD DUP1 SWAP2 SUB SWAP1 LOG1 POP JUMP JUMPDEST PUSH1 0x1 PUSH1 0x1 PUSH1 0xA0 SHL SUB DUP2 AND PUSH1 0x0 SWAP1 DUP2 MSTORE PUSH1 0xD0 PUSH1 0x20 SWAP1 DUP2 MSTORE PUSH1 0x40 DUP1 DUP4 KECCAK256 DUP1 SLOAD DUP3 MLOAD DUP2 DUP6 MUL DUP2 ADD DUP6 ADD SWAP1 SWAP4 MSTORE DUP1 DUP4 MSTORE DUP5 SWAP4 DUP4 ADD DUP3 DUP3 DUP1 ISZERO PUSH2 0x1043 JUMPI PUSH1 0x20 MUL DUP3 ADD SWAP2 SWAP1 PUSH1 0x0 MSTORE PUSH1 0x20 PUSH1 0x0 KECCAK256 SWAP1 JUMPDEST DUP2 SLOAD DUP2 MSTORE PUSH1 0x20 ADD SWAP1 PUSH1 0x1 ADD SWAP1 DUP1 DUP4 GT PUSH2 0x102F JUMPI JUMPDEST POP POP DUP4 MLOAD SWAP4 SWAP5 POP PUSH1 0x0 SWAP3 POP POP POP JUMPDEST DUP2 DUP2 PUSH1 0xFF AND LT ISZERO PUSH2 0x109F JUMPI PUSH2 0x1081 DUP4 DUP3 PUSH1 0xFF AND DUP2 MLOAD DUP2 LT PUSH2 0x1074 JUMPI PUSH2 0x1074 PUSH2 0x23D9 JUMP JUMPDEST PUSH1 0x20 MUL PUSH1 0x20 ADD ADD MLOAD PUSH2 0x19C1 JUMP JUMPDEST PUSH2 0x108B SWAP1 DUP6 PUSH2 0x22EF JUMP JUMPDEST SWAP4 POP DUP1 PUSH2 0x1097 DUP2 PUSH2 0x241F JUMP JUMPDEST SWAP2 POP POP PUSH2 0x1051 JUMP JUMPDEST POP POP POP SWAP2 SWAP1 POP JUMP JUMPDEST PUSH2 0x10F2 PUSH1 0x40 MLOAD DUP1 PUSH1 0xE0 ADD PUSH1 0x40 MSTORE DUP1 PUSH1 0x0 ISZERO ISZERO DUP2 MSTORE PUSH1 0x20 ADD PUSH1 0x0 PUSH1 0x1 PUSH1 0x1 PUSH1 0xA0 SHL SUB AND DUP2 MSTORE PUSH1 0x20 ADD PUSH1 0x0 DUP2 MSTORE PUSH1 0x20 ADD PUSH1 0x0 DUP2 MSTORE PUSH1 0x20 ADD PUSH1 0x0 DUP2 MSTORE PUSH1 0x20 ADD PUSH1 0x0 DUP2 MSTORE PUSH1 0x20 ADD PUSH1 0x0 DUP2 MSTORE POP SWAP1 JUMP JUMPDEST POP PUSH1 0x0 SWAP1 DUP2 MSTORE PUSH1 0xD1 PUSH1 0x20 SWAP1 DUP2 MSTORE PUSH1 0x40 SWAP2 DUP3 SWAP1 KECCAK256 DUP3 MLOAD PUSH1 0xE0 DUP2 ADD DUP5 MSTORE DUP2 SLOAD PUSH1 0xFF DUP2 AND ISZERO ISZERO DUP3 MSTORE PUSH2 0x100 SWAP1 DIV PUSH1 0x1 PUSH1 0x1 PUSH1 0xA0 SHL SUB AND SWAP3 DUP2 ADD SWAP3 SWAP1 SWAP3 MSTORE PUSH1 0x1 DUP2 ADD SLOAD SWAP3 DUP3 ADD SWAP3 SWAP1 SWAP3 MSTORE PUSH1 0x2 DUP3 ADD SLOAD PUSH1 0x60 DUP3 ADD MSTORE PUSH1 0x3 DUP3 ADD SLOAD PUSH1 0x80 DUP3 ADD MSTORE PUSH1 0x4 DUP3 ADD SLOAD PUSH1 0xA0 DUP3 ADD MSTORE PUSH1 0x5 SWAP1 SWAP2 ADD SLOAD PUSH1 0xC0 DUP3 ADD MSTORE SWAP1 JUMP JUMPDEST PUSH1 0x0 PUSH2 0x116F DUP3 PUSH2 0x19C1 JUMP JUMPDEST SWAP3 SWAP2 POP POP JUMP JUMPDEST PUSH1 0xC9 PUSH1 0x0 SWAP1 SLOAD SWAP1 PUSH2 0x100 EXP SWAP1 DIV PUSH1 0x1 PUSH1 0x1 PUSH1 0xA0 SHL SUB AND PUSH1 0x1 PUSH1 0x1 PUSH1 0xA0 SHL SUB AND PUSH4 0x23442C60 PUSH1 0x40 MLOAD DUP2 PUSH4 0xFFFFFFFF AND PUSH1 0xE0 SHL DUP2 MSTORE PUSH1 0x4 ADD PUSH1 0x20 PUSH1 0x40 MLOAD DUP1 DUP4 SUB DUP2 DUP7 GAS STATICCALL ISZERO DUP1 ISZERO PUSH2 0x11C8 JUMPI RETURNDATASIZE PUSH1 0x0 DUP1 RETURNDATACOPY RETURNDATASIZE PUSH1 0x0 REVERT JUMPDEST POP POP POP POP PUSH1 0x40 MLOAD RETURNDATASIZE PUSH1 0x1F NOT PUSH1 0x1F DUP3 ADD AND DUP3 ADD DUP1 PUSH1 0x40 MSTORE POP DUP2 ADD SWAP1 PUSH2 0x11EC SWAP2 SWAP1 PUSH2 0x2302 JUMP JUMPDEST PUSH1 0x1 PUSH1 0x1 PUSH1 0xA0 SHL SUB AND CALLER PUSH1 0x1 PUSH1 0x1 PUSH1 0xA0 SHL SUB AND EQ PUSH2 0x1209 JUMPI PUSH1 0x0 DUP1 REVERT JUMPDEST PUSH2 0x1216 DUP3 DUP3 PUSH1 0xCF SLOAD PUSH2 0x1C49 JUMP JUMPDEST POP POP POP JUMP JUMPDEST PUSH2 0x1223 PUSH2 0x1967 JUMP JUMPDEST PUSH1 0xCE SSTORE JUMP JUMPDEST PUSH1 0x40 DUP1 MLOAD PUSH1 0x20 DUP1 DUP3 ADD DUP4 MSTORE PUSH1 0x60 DUP3 MSTORE PUSH1 0x1 PUSH1 0x1 PUSH1 0xA0 SHL SUB DUP5 AND PUSH1 0x0 SWAP1 DUP2 MSTORE PUSH1 0xD0 DUP3 MSTORE DUP4 SWAP1 KECCAK256 DUP4 MLOAD DUP2 SLOAD DUP1 DUP5 MUL DUP3 ADD DUP7 ADD DUP7 MSTORE SWAP3 DUP2 ADD DUP4 DUP2 MSTORE SWAP4 SWAP5 SWAP1 SWAP4 SWAP2 SWAP3 DUP5 SWAP3 SWAP2 DUP5 SWAP2 SWAP1 DUP5 ADD DUP3 DUP3 DUP1 ISZERO PUSH2 0x129B JUMPI PUSH1 0x20 MUL DUP3 ADD SWAP2 SWAP1 PUSH1 0x0 MSTORE PUSH1 0x20 PUSH1 0x0 KECCAK256 SWAP1 JUMPDEST DUP2 SLOAD DUP2 MSTORE PUSH1 0x20 ADD SWAP1 PUSH1 0x1 ADD SWAP1 DUP1 DUP4 GT PUSH2 0x1287 JUMPI JUMPDEST POP POP POP POP POP DUP2 MSTORE POP POP SWAP1 POP SWAP2 SWAP1 POP JUMP JUMPDEST PUSH1 0x60 PUSH1 0x0 PUSH1 0xCA DUP1 SLOAD DUP1 PUSH1 0x20 MUL PUSH1 0x20 ADD PUSH1 0x40 MLOAD SWAP1 DUP2 ADD PUSH1 0x40 MSTORE DUP1 SWAP3 SWAP2 SWAP1 DUP2 DUP2 MSTORE PUSH1 0x20 ADD DUP3 DUP1 SLOAD DUP1 ISZERO PUSH2 0x1305 JUMPI PUSH1 0x20 MUL DUP3 ADD SWAP2 SWAP1 PUSH1 0x0 MSTORE PUSH1 0x20 PUSH1 0x0 KECCAK256 SWAP1 JUMPDEST DUP2 SLOAD PUSH1 0x1 PUSH1 0x1 PUSH1 0xA0 SHL SUB AND DUP2 MSTORE PUSH1 0x1 SWAP1 SWAP2 ADD SWAP1 PUSH1 0x20 ADD DUP1 DUP4 GT PUSH2 0x12E7 JUMPI JUMPDEST POP POP POP POP POP SWAP1 POP PUSH1 0x0 DUP2 MLOAD SWAP1 POP PUSH1 0x0 DUP2 PUSH8 0xFFFFFFFFFFFFFFFF DUP2 GT ISZERO PUSH2 0x132D JUMPI PUSH2 0x132D PUSH2 0x2091 JUMP JUMPDEST PUSH1 0x40 MLOAD SWAP1 DUP1 DUP3 MSTORE DUP1 PUSH1 0x20 MUL PUSH1 0x20 ADD DUP3 ADD PUSH1 0x40 MSTORE DUP1 ISZERO PUSH2 0x1356 JUMPI DUP2 PUSH1 0x20 ADD PUSH1 0x20 DUP3 MUL DUP1 CALLDATASIZE DUP4 CALLDATACOPY ADD SWAP1 POP JUMPDEST POP SWAP1 POP PUSH1 0x0 DUP1 JUMPDEST DUP4 DUP2 LT ISZERO PUSH2 0x13F5 JUMPI PUSH2 0x1388 DUP4 DUP7 DUP4 DUP2 MLOAD DUP2 LT PUSH2 0x137B JUMPI PUSH2 0x137B PUSH2 0x23D9 JUMP JUMPDEST PUSH1 0x20 MUL PUSH1 0x20 ADD ADD MLOAD PUSH2 0x1D62 JUMP JUMPDEST ISZERO ISZERO PUSH1 0x1 EQ PUSH2 0x13E3 JUMPI DUP5 DUP2 DUP2 MLOAD DUP2 LT PUSH2 0x13A3 JUMPI PUSH2 0x13A3 PUSH2 0x23D9 JUMP JUMPDEST PUSH1 0x20 MUL PUSH1 0x20 ADD ADD MLOAD DUP4 DUP4 DUP2 MLOAD DUP2 LT PUSH2 0x13BD JUMPI PUSH2 0x13BD PUSH2 0x23D9 JUMP JUMPDEST PUSH1 0x1 PUSH1 0x1 PUSH1 0xA0 SHL SUB SWAP1 SWAP3 AND PUSH1 0x20 SWAP3 DUP4 MUL SWAP2 SWAP1 SWAP2 ADD SWAP1 SWAP2 ADD MSTORE DUP2 PUSH2 0x13DF DUP2 PUSH2 0x23EF JUMP JUMPDEST SWAP3 POP POP JUMPDEST DUP1 PUSH2 0x13ED DUP2 PUSH2 0x23EF JUMP JUMPDEST SWAP2 POP POP PUSH2 0x135D JUMP JUMPDEST POP SWAP1 SWAP5 SWAP4 POP POP POP POP JUMP JUMPDEST PUSH4 0xFFFFFFFF DUP2 AND PUSH1 0x0 SWAP1 DUP2 MSTORE PUSH1 0xD1 PUSH1 0x20 MSTORE PUSH1 0x40 SWAP1 KECCAK256 DUP1 SLOAD PUSH1 0xFF AND PUSH2 0x1465 JUMPI PUSH1 0x40 MLOAD PUSH3 0x461BCD PUSH1 0xE5 SHL DUP2 MSTORE PUSH1 0x20 PUSH1 0x4 DUP3 ADD MSTORE PUSH1 0x1C PUSH1 0x24 DUP3 ADD MSTORE PUSH32 0x596F752068617665206E6F207374616B696E67206F7220656E64656400000000 PUSH1 0x44 DUP3 ADD MSTORE PUSH1 0x64 ADD PUSH2 0x650 JUMP JUMPDEST PUSH1 0x0 PUSH2 0x1476 DUP4 PUSH4 0xFFFFFFFF AND PUSH2 0x19C1 JUMP JUMPDEST PUSH1 0xC9 SLOAD DUP4 SLOAD SWAP2 SWAP3 POP PUSH1 0x1 PUSH1 0x1 PUSH1 0xA0 SHL SUB SWAP1 DUP2 AND SWAP2 CALLER SWAP2 PUSH2 0x100 SWAP1 SWAP2 DIV AND DUP2 EQ PUSH2 0x14B1 JUMPI PUSH1 0x40 MLOAD PUSH3 0x461BCD PUSH1 0xE5 SHL DUP2 MSTORE PUSH1 0x4 ADD PUSH2 0x650 SWAP1 PUSH2 0x2292 JUMP JUMPDEST TIMESTAMP PUSH1 0xCF SLOAD DUP6 PUSH1 0x3 ADD SLOAD PUSH2 0x14C4 SWAP2 SWAP1 PUSH2 0x22EF JUMP JUMPDEST GT PUSH2 0x1511 JUMPI PUSH1 0x40 MLOAD PUSH3 0x461BCD PUSH1 0xE5 SHL DUP2 MSTORE PUSH1 0x20 PUSH1 0x4 DUP3 ADD MSTORE PUSH1 0x1D PUSH1 0x24 DUP3 ADD MSTORE PUSH32 0x596F75207374616B696E67206973206E6F7420656E646564207965742E000000 PUSH1 0x44 DUP3 ADD MSTORE PUSH1 0x64 ADD PUSH2 0x650 JUMP JUMPDEST DUP3 DUP5 PUSH1 0x5 ADD PUSH1 0x0 DUP3 DUP3 SLOAD PUSH2 0x1525 SWAP2 SWAP1 PUSH2 0x22EF JUMP JUMPDEST SWAP3 POP POP DUP2 SWAP1 SSTORE POP DUP3 PUSH1 0xCD PUSH1 0x0 DUP3 DUP3 SLOAD PUSH2 0x153E SWAP2 SWAP1 PUSH2 0x22EF JUMP JUMPDEST SWAP3 POP POP DUP2 SWAP1 SSTORE POP DUP5 PUSH4 0xFFFFFFFF AND DUP4 DUP3 PUSH1 0x1 PUSH1 0x1 PUSH1 0xA0 SHL SUB AND PUSH32 0xFEC605188CF64597B9AA9CF424A9BBA4A84FFB09F9F66C932D6EFA1B96FCC7E4 DUP6 PUSH1 0x1 PUSH1 0x1 PUSH1 0xA0 SHL SUB AND PUSH4 0x65EB204D PUSH1 0x40 MLOAD DUP2 PUSH4 0xFFFFFFFF AND PUSH1 0xE0 SHL DUP2 MSTORE PUSH1 0x4 ADD PUSH1 0x20 PUSH1 0x40 MLOAD DUP1 DUP4 SUB DUP2 DUP7 GAS STATICCALL ISZERO DUP1 ISZERO PUSH2 0x15B6 JUMPI RETURNDATASIZE PUSH1 0x0 DUP1 RETURNDATACOPY RETURNDATASIZE PUSH1 0x0 REVERT JUMPDEST POP POP POP POP PUSH1 0x40 MLOAD RETURNDATASIZE PUSH1 0x1F NOT PUSH1 0x1F DUP3 ADD AND DUP3 ADD DUP1 PUSH1 0x40 MSTORE POP DUP2 ADD SWAP1 PUSH2 0x15DA SWAP2 SWAP1 PUSH2 0x2302 JUMP JUMPDEST PUSH1 0x40 MLOAD PUSH1 0x1 PUSH1 0x1 PUSH1 0xA0 SHL SUB SWAP1 SWAP2 AND DUP2 MSTORE PUSH1 0x20 ADD PUSH1 0x40 MLOAD DUP1 SWAP2 SUB SWAP1 LOG4 DUP4 SLOAD PUSH1 0xFF NOT AND DUP5 SSTORE PUSH1 0x1 DUP5 ADD SLOAD PUSH1 0x40 MLOAD PUSH4 0xFFFFFFFF DUP8 AND SWAP2 SWAP1 PUSH1 0x1 PUSH1 0x1 PUSH1 0xA0 SHL SUB DUP5 AND SWAP1 PUSH32 0xF960DBF9E5D0682F7A298ED974E33A28B4464914B7A2BFAC12AE419A9AFEB280 SWAP1 PUSH1 0x0 SWAP1 LOG4 DUP2 PUSH1 0x1 PUSH1 0x1 PUSH1 0xA0 SHL SUB AND PUSH4 0x65EB204D PUSH1 0x40 MLOAD DUP2 PUSH4 0xFFFFFFFF AND PUSH1 0xE0 SHL DUP2 MSTORE PUSH1 0x4 ADD PUSH1 0x20 PUSH1 0x40 MLOAD DUP1 DUP4 SUB DUP2 DUP7 GAS STATICCALL ISZERO DUP1 ISZERO PUSH2 0x167D JUMPI RETURNDATASIZE PUSH1 0x0 DUP1 RETURNDATACOPY RETURNDATASIZE PUSH1 0x0 REVERT JUMPDEST POP POP POP POP PUSH1 0x40 MLOAD RETURNDATASIZE PUSH1 0x1F NOT PUSH1 0x1F DUP3 ADD AND DUP3 ADD DUP1 PUSH1 0x40 MSTORE POP DUP2 ADD SWAP1 PUSH2 0x16A1 SWAP2 SWAP1 PUSH2 0x2302 JUMP JUMPDEST PUSH1 0x1 PUSH1 0x1 PUSH1 0xA0 SHL SUB AND PUSH4 0xA9059CBB DUP3 DUP6 DUP8 PUSH1 0x1 ADD SLOAD PUSH2 0x16C0 SWAP2 SWAP1 PUSH2 0x22EF JUMP JUMPDEST PUSH1 0x40 MLOAD PUSH1 0x1 PUSH1 0x1 PUSH1 0xE0 SHL SUB NOT PUSH1 0xE0 DUP6 SWAP1 SHL AND DUP2 MSTORE PUSH1 0x1 PUSH1 0x1 PUSH1 0xA0 SHL SUB SWAP1 SWAP3 AND PUSH1 0x4 DUP4 ADD MSTORE PUSH1 0x24 DUP3 ADD MSTORE PUSH1 0x44 ADD PUSH1 0x20 PUSH1 0x40 MLOAD DUP1 DUP4 SUB DUP2 PUSH1 0x0 DUP8 GAS CALL ISZERO DUP1 ISZERO PUSH2 0x170B JUMPI RETURNDATASIZE PUSH1 0x0 DUP1 RETURNDATACOPY RETURNDATASIZE PUSH1 0x0 REVERT JUMPDEST POP POP POP POP PUSH1 0x40 MLOAD RETURNDATASIZE PUSH1 0x1F NOT PUSH1 0x1F DUP3 ADD AND DUP3 ADD DUP1 PUSH1 0x40 MSTORE POP DUP2 ADD SWAP1 PUSH2 0x172F SWAP2 SWAP1 PUSH2 0x231F JUMP JUMPDEST POP POP POP POP POP POP JUMP JUMPDEST PUSH1 0x0 DUP2 DUP2 MSTORE PUSH1 0xD1 PUSH1 0x20 MSTORE PUSH1 0x40 DUP2 KECCAK256 PUSH1 0xCF SLOAD PUSH1 0x3 DUP3 ADD SLOAD TIMESTAMP SWAP3 SWAP2 SWAP1 DUP5 SWAP1 PUSH2 0x175E SWAP1 DUP4 SWAP1 PUSH2 0x22EF JUMP JUMPDEST SWAP1 POP DUP1 DUP5 LT ISZERO PUSH2 0xC72 JUMPI DUP4 DUP3 DUP5 PUSH1 0x3 ADD SLOAD PUSH2 0x1779 SWAP2 SWAP1 PUSH2 0x22EF JUMP JUMPDEST PUSH2 0x1783 SWAP2 SWAP1 PUSH2 0x243E JUMP JUMPDEST SWAP7 SWAP6 POP POP POP POP POP POP JUMP JUMPDEST PUSH1 0x60 PUSH1 0x0 PUSH1 0xCA DUP1 SLOAD DUP1 PUSH1 0x20 MUL PUSH1 0x20 ADD PUSH1 0x40 MLOAD SWAP1 DUP2 ADD PUSH1 0x40 MSTORE DUP1 SWAP3 SWAP2 SWAP1 DUP2 DUP2 MSTORE PUSH1 0x20 ADD DUP3 DUP1 SLOAD DUP1 ISZERO PUSH2 0x17E7 JUMPI PUSH1 0x20 MUL DUP3 ADD SWAP2 SWAP1 PUSH1 0x0 MSTORE PUSH1 0x20 PUSH1 0x0 KECCAK256 SWAP1 JUMPDEST DUP2 SLOAD PUSH1 0x1 PUSH1 0x1 PUSH1 0xA0 SHL SUB AND DUP2 MSTORE PUSH1 0x1 SWAP1 SWAP2 ADD SWAP1 PUSH1 0x20 ADD DUP1 DUP4 GT PUSH2 0x17C9 JUMPI JUMPDEST POP POP POP POP POP SWAP1 POP PUSH1 0x0 DUP2 MLOAD SWAP1 POP PUSH1 0x0 DUP2 PUSH8 0xFFFFFFFFFFFFFFFF DUP2 GT ISZERO PUSH2 0x180F JUMPI PUSH2 0x180F PUSH2 0x2091 JUMP JUMPDEST PUSH1 0x40 MLOAD SWAP1 DUP1 DUP3 MSTORE DUP1 PUSH1 0x20 MUL PUSH1 0x20 ADD DUP3 ADD PUSH1 0x40 MSTORE DUP1 ISZERO PUSH2 0x1838 JUMPI DUP2 PUSH1 0x20 ADD PUSH1 0x20 DUP3 MUL DUP1 CALLDATASIZE DUP4 CALLDATACOPY ADD SWAP1 POP JUMPDEST POP SWAP1 POP PUSH1 0x0 DUP1 JUMPDEST DUP4 DUP2 LT ISZERO PUSH2 0x13F5 JUMPI PUSH2 0x185D DUP4 DUP7 DUP4 DUP2 MLOAD DUP2 LT PUSH2 0x137B JUMPI PUSH2 0x137B PUSH2 0x23D9 JUMP JUMPDEST ISZERO ISZERO PUSH1 0x1 EQ PUSH2 0x18DF JUMPI PUSH2 0x1888 DUP6 DUP3 DUP2 MLOAD DUP2 LT PUSH2 0x187B JUMPI PUSH2 0x187B PUSH2 0x23D9 JUMP JUMPDEST PUSH1 0x20 MUL PUSH1 0x20 ADD ADD MLOAD PUSH2 0xBA3 JUMP JUMPDEST ISZERO PUSH2 0x18DF JUMPI DUP5 DUP2 DUP2 MLOAD DUP2 LT PUSH2 0x189F JUMPI PUSH2 0x189F PUSH2 0x23D9 JUMP JUMPDEST PUSH1 0x20 MUL PUSH1 0x20 ADD ADD MLOAD DUP4 DUP4 DUP2 MLOAD DUP2 LT PUSH2 0x18B9 JUMPI PUSH2 0x18B9 PUSH2 0x23D9 JUMP JUMPDEST PUSH1 0x1 PUSH1 0x1 PUSH1 0xA0 SHL SUB SWAP1 SWAP3 AND PUSH1 0x20 SWAP3 DUP4 MUL SWAP2 SWAP1 SWAP2 ADD SWAP1 SWAP2 ADD MSTORE DUP2 PUSH2 0x18DB DUP2 PUSH2 0x23EF JUMP JUMPDEST SWAP3 POP POP JUMPDEST DUP1 PUSH2 0x18E9 DUP2 PUSH2 0x23EF JUMP JUMPDEST SWAP2 POP POP PUSH2 0x183F JUMP JUMPDEST PUSH2 0x18F9 PUSH2 0x1967 JUMP JUMPDEST PUSH1 0x1 PUSH1 0x1 PUSH1 0xA0 SHL SUB DUP2 AND PUSH2 0x195E JUMPI PUSH1 0x40 MLOAD PUSH3 0x461BCD PUSH1 0xE5 SHL DUP2 MSTORE PUSH1 0x20 PUSH1 0x4 DUP3 ADD MSTORE PUSH1 0x26 PUSH1 0x24 DUP3 ADD MSTORE PUSH32 0x4F776E61626C653A206E6577206F776E657220697320746865207A65726F2061 PUSH1 0x44 DUP3 ADD MSTORE PUSH6 0x646472657373 PUSH1 0xD0 SHL PUSH1 0x64 DUP3 ADD MSTORE PUSH1 0x84 ADD PUSH2 0x650 JUMP JUMPDEST PUSH2 0x938 DUP2 PUSH2 0x1BA1 JUMP JUMPDEST PUSH1 0x33 SLOAD PUSH1 0x1 PUSH1 0x1 PUSH1 0xA0 SHL SUB AND CALLER EQ PUSH2 0xE99 JUMPI PUSH1 0x40 MLOAD PUSH3 0x461BCD PUSH1 0xE5 SHL DUP2 MSTORE PUSH1 0x20 PUSH1 0x4 DUP3 ADD DUP2 SWAP1 MSTORE PUSH1 0x24 DUP3 ADD MSTORE PUSH32 0x4F776E61626C653A2063616C6C6572206973206E6F7420746865206F776E6572 PUSH1 0x44 DUP3 ADD MSTORE PUSH1 0x64 ADD PUSH2 0x650 JUMP JUMPDEST PUSH1 0xCF SLOAD PUSH1 0x0 DUP3 DUP2 MSTORE PUSH1 0xD1 PUSH1 0x20 MSTORE PUSH1 0x40 DUP2 KECCAK256 PUSH1 0x3 DUP2 ADD SLOAD SWAP2 SWAP3 TIMESTAMP SWAP3 SWAP1 SWAP2 SWAP1 DUP5 SWAP1 PUSH2 0x19EA SWAP1 DUP6 PUSH2 0x243E JUMP JUMPDEST SWAP1 POP PUSH1 0x0 DUP4 DUP4 PUSH1 0x1 ADD SLOAD PUSH2 0x19FE SWAP2 SWAP1 PUSH2 0x2451 JUMP JUMPDEST SWAP1 POP DUP3 PUSH1 0x5 ADD SLOAD PUSH2 0x1A0F DUP4 DUP7 PUSH2 0x1DC7 JUMP JUMPDEST PUSH2 0x1A19 SWAP2 SWAP1 PUSH2 0x243E JUMP JUMPDEST PUSH2 0x1A23 SWAP1 DUP3 PUSH2 0x2408 JUMP JUMPDEST SWAP8 SWAP7 POP POP POP POP POP POP POP JUMP JUMPDEST PUSH2 0x938 PUSH2 0x1967 JUMP JUMPDEST PUSH32 0x4910FDFA16FED3260ED0E7147F7CC6DA11A60208B5B9406D12A635614FFD9143 SLOAD PUSH1 0xFF AND ISZERO PUSH2 0x1A69 JUMPI PUSH2 0x1216 DUP4 PUSH2 0x1DDD JUMP JUMPDEST DUP3 PUSH1 0x1 PUSH1 0x1 PUSH1 0xA0 SHL SUB AND PUSH4 0x52D1902D PUSH1 0x40 MLOAD DUP2 PUSH4 0xFFFFFFFF AND PUSH1 0xE0 SHL DUP2 MSTORE PUSH1 0x4 ADD PUSH1 0x20 PUSH1 0x40 MLOAD DUP1 DUP4 SUB DUP2 DUP7 GAS STATICCALL SWAP3 POP POP POP DUP1 ISZERO PUSH2 0x1AC3 JUMPI POP PUSH1 0x40 DUP1 MLOAD PUSH1 0x1F RETURNDATASIZE SWAP1 DUP2 ADD PUSH1 0x1F NOT AND DUP3 ADD SWAP1 SWAP3 MSTORE PUSH2 0x1AC0 SWAP2 DUP2 ADD SWAP1 PUSH2 0x2473 JUMP JUMPDEST PUSH1 0x1 JUMPDEST PUSH2 0x1B26 JUMPI PUSH1 0x40 MLOAD PUSH3 0x461BCD PUSH1 0xE5 SHL DUP2 MSTORE PUSH1 0x20 PUSH1 0x4 DUP3 ADD MSTORE PUSH1 0x2E PUSH1 0x24 DUP3 ADD MSTORE PUSH32 0x45524331393637557067726164653A206E657720696D706C656D656E74617469 PUSH1 0x44 DUP3 ADD MSTORE PUSH14 0x6F6E206973206E6F742055555053 PUSH1 0x90 SHL PUSH1 0x64 DUP3 ADD MSTORE PUSH1 0x84 ADD PUSH2 0x650 JUMP JUMPDEST PUSH1 0x0 DUP1 MLOAD PUSH1 0x20 PUSH2 0x254B DUP4 CODECOPY DUP2 MLOAD SWAP2 MSTORE DUP2 EQ PUSH2 0x1B95 JUMPI PUSH1 0x40 MLOAD PUSH3 0x461BCD PUSH1 0xE5 SHL DUP2 MSTORE PUSH1 0x20 PUSH1 0x4 DUP3 ADD MSTORE PUSH1 0x29 PUSH1 0x24 DUP3 ADD MSTORE PUSH32 0x45524331393637557067726164653A20756E737570706F727465642070726F78 PUSH1 0x44 DUP3 ADD MSTORE PUSH9 0x1A58589B1955555251 PUSH1 0xBA SHL PUSH1 0x64 DUP3 ADD MSTORE PUSH1 0x84 ADD PUSH2 0x650 JUMP JUMPDEST POP PUSH2 0x1216 DUP4 DUP4 DUP4 PUSH2 0x1E79 JUMP JUMPDEST PUSH1 0x33 DUP1 SLOAD PUSH1 0x1 PUSH1 0x1 PUSH1 0xA0 SHL SUB DUP4 DUP2 AND PUSH1 0x1 PUSH1 0x1 PUSH1 0xA0 SHL SUB NOT DUP4 AND DUP2 OR SWAP1 SWAP4 SSTORE PUSH1 0x40 MLOAD SWAP2 AND SWAP2 SWAP1 DUP3 SWAP1 PUSH32 0x8BE0079C531659141344CD1FD0A4F28419497F9722A3DAAFE3B4186F6B6457E0 SWAP1 PUSH1 0x0 SWAP1 LOG3 POP POP JUMP JUMPDEST PUSH1 0x0 SLOAD PUSH2 0x100 SWAP1 DIV PUSH1 0xFF AND PUSH2 0x1C1A JUMPI PUSH1 0x40 MLOAD PUSH3 0x461BCD PUSH1 0xE5 SHL DUP2 MSTORE PUSH1 0x4 ADD PUSH2 0x650 SWAP1 PUSH2 0x248C JUMP JUMPDEST PUSH2 0xE99 PUSH2 0x1EA4 JUMP JUMPDEST PUSH1 0x0 SLOAD PUSH2 0x100 SWAP1 DIV PUSH1 0xFF AND PUSH2 0xE99 JUMPI PUSH1 0x40 MLOAD PUSH3 0x461BCD PUSH1 0xE5 SHL DUP2 MSTORE PUSH1 0x4 ADD PUSH2 0x650 SWAP1 PUSH2 0x248C JUMP JUMPDEST PUSH1 0xCA DUP1 SLOAD PUSH1 0x1 DUP1 DUP3 ADD DUP4 SSTORE PUSH32 0x42D72674974F694B5F5159593243114D38A5C39C89D6B62FEE061FF523240EE1 SWAP1 SWAP2 ADD DUP1 SLOAD PUSH1 0x1 PUSH1 0x1 PUSH1 0xA0 SHL SUB NOT AND PUSH1 0x1 PUSH1 0x1 PUSH1 0xA0 SHL SUB DUP8 AND SWAP1 DUP2 OR SWAP1 SWAP2 SSTORE SWAP2 SLOAD PUSH1 0x0 DUP4 DUP2 MSTORE PUSH1 0xD0 PUSH1 0x20 SWAP1 DUP2 MSTORE PUSH1 0x40 DUP1 DUP4 KECCAK256 DUP5 DUP5 MSTORE PUSH1 0xD1 DUP4 MSTORE SWAP1 DUP4 KECCAK256 DUP2 SLOAD DUP1 DUP8 ADD DUP4 SSTORE DUP3 DUP6 MSTORE SWAP3 DUP5 KECCAK256 SWAP1 SWAP3 ADD DUP5 SWAP1 SSTORE DUP2 SLOAD PUSH1 0x1 PUSH1 0x1 PUSH1 0xA8 SHL SUB NOT AND PUSH2 0x100 SWAP1 SWAP7 MUL SWAP6 SWAP1 SWAP6 OR DUP5 OR DUP2 SSTORE TIMESTAMP PUSH1 0x3 DUP3 ADD DUP2 SWAP1 SSTORE SWAP4 DUP2 ADD DUP8 SWAP1 SSTORE PUSH1 0xCB DUP1 SLOAD SWAP3 SWAP6 SWAP4 SWAP5 SWAP4 SWAP3 DUP9 SWAP2 SWAP1 DUP8 SWAP1 PUSH2 0x1D06 SWAP1 DUP5 SWAP1 PUSH2 0x22EF JUMP JUMPDEST SWAP3 POP POP DUP2 SWAP1 SSTORE POP DUP6 DUP8 DUP10 PUSH1 0x1 PUSH1 0x1 PUSH1 0xA0 SHL SUB AND PUSH32 0xF556991011E831BCFAC4F406D547E5E32CDD98267EFAB83935230D5F8D02C446 DUP8 PUSH1 0x40 MLOAD PUSH2 0x1D4A SWAP2 DUP2 MSTORE PUSH1 0x20 ADD SWAP1 JUMP JUMPDEST PUSH1 0x40 MLOAD DUP1 SWAP2 SUB SWAP1 LOG4 PUSH1 0x1 SWAP5 POP POP POP POP POP JUMPDEST SWAP4 SWAP3 POP POP POP JUMP JUMPDEST PUSH1 0x0 DUP1 JUMPDEST DUP4 MLOAD DUP2 LT ISZERO PUSH2 0x1DBD JUMPI DUP3 PUSH1 0x1 PUSH1 0x1 PUSH1 0xA0 SHL SUB AND DUP5 DUP3 DUP2 MLOAD DUP2 LT PUSH2 0x1D8B JUMPI PUSH2 0x1D8B PUSH2 0x23D9 JUMP JUMPDEST PUSH1 0x20 MUL PUSH1 0x20 ADD ADD MLOAD PUSH1 0x1 PUSH1 0x1 PUSH1 0xA0 SHL SUB AND SUB PUSH2 0x1DAB JUMPI PUSH1 0x1 SWAP2 POP POP PUSH2 0x116F JUMP JUMPDEST DUP1 PUSH2 0x1DB5 DUP2 PUSH2 0x23EF JUMP JUMPDEST SWAP2 POP POP PUSH2 0x1D66 JUMP JUMPDEST POP PUSH1 0x0 SWAP4 SWAP3 POP POP POP JUMP JUMPDEST PUSH1 0x0 DUP2 DUP4 LT PUSH2 0x1DD6 JUMPI DUP2 PUSH2 0x1D5B JUMP JUMPDEST POP SWAP1 SWAP2 SWAP1 POP JUMP JUMPDEST PUSH1 0x1 PUSH1 0x1 PUSH1 0xA0 SHL SUB DUP2 AND EXTCODESIZE PUSH2 0x1E4A JUMPI PUSH1 0x40 MLOAD PUSH3 0x461BCD PUSH1 0xE5 SHL DUP2 MSTORE PUSH1 0x20 PUSH1 0x4 DUP3 ADD MSTORE PUSH1 0x2D PUSH1 0x24 DUP3 ADD MSTORE PUSH32 0x455243313936373A206E657720696D706C656D656E746174696F6E206973206E PUSH1 0x44 DUP3 ADD MSTORE PUSH13 0x1BDD08184818DBDB9D1C9858DD PUSH1 0x9A SHL PUSH1 0x64 DUP3 ADD MSTORE PUSH1 0x84 ADD PUSH2 0x650 JUMP JUMPDEST PUSH1 0x0 DUP1 MLOAD PUSH1 0x20 PUSH2 0x254B DUP4 CODECOPY DUP2 MLOAD SWAP2 MSTORE DUP1 SLOAD PUSH1 0x1 PUSH1 0x1 PUSH1 0xA0 SHL SUB NOT AND PUSH1 0x1 PUSH1 0x1 PUSH1 0xA0 SHL SUB SWAP3 SWAP1 SWAP3 AND SWAP2 SWAP1 SWAP2 OR SWAP1 SSTORE JUMP JUMPDEST PUSH2 0x1E82 DUP4 PUSH2 0x1ED4 JUMP JUMPDEST PUSH1 0x0 DUP3 MLOAD GT DUP1 PUSH2 0x1E8F JUMPI POP DUP1 JUMPDEST ISZERO PUSH2 0x1216 JUMPI PUSH2 0x1E9E DUP4 DUP4 PUSH2 0x1F14 JUMP JUMPDEST POP POP POP POP JUMP JUMPDEST PUSH1 0x0 SLOAD PUSH2 0x100 SWAP1 DIV PUSH1 0xFF AND PUSH2 0x1ECB JUMPI PUSH1 0x40 MLOAD PUSH3 0x461BCD PUSH1 0xE5 SHL DUP2 MSTORE PUSH1 0x4 ADD PUSH2 0x650 SWAP1 PUSH2 0x248C JUMP JUMPDEST PUSH2 0xE99 CALLER PUSH2 0x1BA1 JUMP JUMPDEST PUSH2 0x1EDD DUP2 PUSH2 0x1DDD JUMP JUMPDEST PUSH1 0x40 MLOAD PUSH1 0x1 PUSH1 0x1 PUSH1 0xA0 SHL SUB DUP3 AND SWAP1 PUSH32 0xBC7CD75A20EE27FD9ADEBAB32041F755214DBC6BFFA90CC0225B39DA2E5C2D3B SWAP1 PUSH1 0x0 SWAP1 LOG2 POP JUMP JUMPDEST PUSH1 0x60 PUSH1 0x1 PUSH1 0x1 PUSH1 0xA0 SHL SUB DUP4 AND EXTCODESIZE PUSH2 0x1F7C JUMPI PUSH1 0x40 MLOAD PUSH3 0x461BCD PUSH1 0xE5 SHL DUP2 MSTORE PUSH1 0x20 PUSH1 0x4 DUP3 ADD MSTORE PUSH1 0x26 PUSH1 0x24 DUP3 ADD MSTORE PUSH32 0x416464726573733A2064656C65676174652063616C6C20746F206E6F6E2D636F PUSH1 0x44 DUP3 ADD MSTORE PUSH6 0x1B9D1C9858DD PUSH1 0xD2 SHL PUSH1 0x64 DUP3 ADD MSTORE PUSH1 0x84 ADD PUSH2 0x650 JUMP JUMPDEST PUSH1 0x0 DUP1 DUP5 PUSH1 0x1 PUSH1 0x1 PUSH1 0xA0 SHL SUB AND DUP5 PUSH1 0x40 MLOAD PUSH2 0x1F97 SWAP2 SWAP1 PUSH2 0x24FB JUMP JUMPDEST PUSH1 0x0 PUSH1 0x40 MLOAD DUP1 DUP4 SUB DUP2 DUP6 GAS DELEGATECALL SWAP2 POP POP RETURNDATASIZE DUP1 PUSH1 0x0 DUP2 EQ PUSH2 0x1FD2 JUMPI PUSH1 0x40 MLOAD SWAP2 POP PUSH1 0x1F NOT PUSH1 0x3F RETURNDATASIZE ADD AND DUP3 ADD PUSH1 0x40 MSTORE RETURNDATASIZE DUP3 MSTORE RETURNDATASIZE PUSH1 0x0 PUSH1 0x20 DUP5 ADD RETURNDATACOPY PUSH2 0x1FD7 JUMP JUMPDEST PUSH1 0x60 SWAP2 POP JUMPDEST POP SWAP2 POP SWAP2 POP PUSH2 0x1FFF DUP3 DUP3 PUSH1 0x40 MLOAD DUP1 PUSH1 0x60 ADD PUSH1 0x40 MSTORE DUP1 PUSH1 0x27 DUP2 MSTORE PUSH1 0x20 ADD PUSH2 0x256B PUSH1 0x27 SWAP2 CODECOPY PUSH2 0x2008 JUMP JUMPDEST SWAP6 SWAP5 POP POP POP POP POP JUMP JUMPDEST PUSH1 0x60 DUP4 ISZERO PUSH2 0x2017 JUMPI POP DUP2 PUSH2 0x1D5B JUMP JUMPDEST PUSH2 0x1D5B DUP4 DUP4 DUP2 MLOAD ISZERO PUSH2 0x202C JUMPI DUP2 MLOAD DUP1 DUP4 PUSH1 0x20 ADD REVERT JUMPDEST DUP1 PUSH1 0x40 MLOAD PUSH3 0x461BCD PUSH1 0xE5 SHL DUP2 MSTORE PUSH1 0x4 ADD PUSH2 0x650 SWAP2 SWAP1 PUSH2 0x2517 JUMP JUMPDEST PUSH1 0x1 PUSH1 0x1 PUSH1 0xA0 SHL SUB DUP2 AND DUP2 EQ PUSH2 0x938 JUMPI PUSH1 0x0 DUP1 REVERT JUMPDEST PUSH1 0x0 PUSH1 0x20 DUP3 DUP5 SUB SLT ISZERO PUSH2 0x206D JUMPI PUSH1 0x0 DUP1 REVERT JUMPDEST DUP2 CALLDATALOAD PUSH2 0x1D5B DUP2 PUSH2 0x2046 JUMP JUMPDEST PUSH1 0x0 PUSH1 0x20 DUP3 DUP5 SUB SLT ISZERO PUSH2 0x208A JUMPI PUSH1 0x0 DUP1 REVERT JUMPDEST POP CALLDATALOAD SWAP2 SWAP1 POP JUMP JUMPDEST PUSH4 0x4E487B71 PUSH1 0xE0 SHL PUSH1 0x0 MSTORE PUSH1 0x41 PUSH1 0x4 MSTORE PUSH1 0x24 PUSH1 0x0 REVERT JUMPDEST PUSH1 0x0 DUP1 PUSH1 0x40 DUP4 DUP6 SUB SLT ISZERO PUSH2 0x20BA JUMPI PUSH1 0x0 DUP1 REVERT JUMPDEST DUP3 CALLDATALOAD PUSH2 0x20C5 DUP2 PUSH2 0x2046 JUMP JUMPDEST SWAP2 POP PUSH1 0x20 DUP4 ADD CALLDATALOAD PUSH8 0xFFFFFFFFFFFFFFFF DUP1 DUP3 GT ISZERO PUSH2 0x20E2 JUMPI PUSH1 0x0 DUP1 REVERT JUMPDEST DUP2 DUP6 ADD SWAP2 POP DUP6 PUSH1 0x1F DUP4 ADD SLT PUSH2 0x20F6 JUMPI PUSH1 0x0 DUP1 REVERT JUMPDEST DUP2 CALLDATALOAD DUP2 DUP2 GT ISZERO PUSH2 0x2108 JUMPI PUSH2 0x2108 PUSH2 0x2091 JUMP JUMPDEST PUSH1 0x40 MLOAD PUSH1 0x1F DUP3 ADD PUSH1 0x1F NOT SWAP1 DUP2 AND PUSH1 0x3F ADD AND DUP2 ADD SWAP1 DUP4 DUP3 GT DUP2 DUP4 LT OR ISZERO PUSH2 0x2130 JUMPI PUSH2 0x2130 PUSH2 0x2091 JUMP JUMPDEST DUP2 PUSH1 0x40 MSTORE DUP3 DUP2 MSTORE DUP9 PUSH1 0x20 DUP5 DUP8 ADD ADD GT ISZERO PUSH2 0x2149 JUMPI PUSH1 0x0 DUP1 REVERT JUMPDEST DUP3 PUSH1 0x20 DUP7 ADD PUSH1 0x20 DUP4 ADD CALLDATACOPY PUSH1 0x0 PUSH1 0x20 DUP5 DUP4 ADD ADD MSTORE DUP1 SWAP6 POP POP POP POP POP POP SWAP3 POP SWAP3 SWAP1 POP JUMP JUMPDEST PUSH1 0x20 DUP1 DUP3 MSTORE DUP3 MLOAD DUP3 DUP3 ADD DUP2 SWAP1 MSTORE PUSH1 0x0 SWAP2 SWAP1 DUP5 DUP3 ADD SWAP1 PUSH1 0x40 DUP6 ADD SWAP1 DUP5 JUMPDEST DUP2 DUP2 LT ISZERO PUSH2 0x21A3 JUMPI DUP4 MLOAD DUP4 MSTORE SWAP3 DUP5 ADD SWAP3 SWAP2 DUP5 ADD SWAP2 PUSH1 0x1 ADD PUSH2 0x2187 JUMP JUMPDEST POP SWAP1 SWAP7 SWAP6 POP POP POP POP POP POP JUMP JUMPDEST PUSH1 0x0 DUP1 PUSH1 0x40 DUP4 DUP6 SUB SLT ISZERO PUSH2 0x21C2 JUMPI PUSH1 0x0 DUP1 REVERT JUMPDEST DUP3 CALLDATALOAD PUSH2 0x21CD DUP2 PUSH2 0x2046 JUMP JUMPDEST SWAP5 PUSH1 0x20 SWAP4 SWAP1 SWAP4 ADD CALLDATALOAD SWAP4 POP POP POP JUMP JUMPDEST PUSH1 0x20 DUP1 DUP3 MSTORE DUP3 MLOAD DUP3 DUP3 ADD DUP3 SWAP1 MSTORE DUP1 MLOAD PUSH1 0x40 DUP5 ADD DUP2 SWAP1 MSTORE PUSH1 0x0 SWAP3 SWAP2 DUP3 ADD SWAP1 DUP4 SWAP1 PUSH1 0x60 DUP7 ADD SWAP1 JUMPDEST DUP1 DUP4 LT ISZERO PUSH2 0x2220 JUMPI DUP4 MLOAD DUP3 MSTORE SWAP3 DUP5 ADD SWAP3 PUSH1 0x1 SWAP3 SWAP1 SWAP3 ADD SWAP2 SWAP1 DUP5 ADD SWAP1 PUSH2 0x2200 JUMP JUMPDEST POP SWAP7 SWAP6 POP POP POP POP POP POP JUMP JUMPDEST PUSH1 0x20 DUP1 DUP3 MSTORE DUP3 MLOAD DUP3 DUP3 ADD DUP2 SWAP1 MSTORE PUSH1 0x0 SWAP2 SWAP1 DUP5 DUP3 ADD SWAP1 PUSH1 0x40 DUP6 ADD SWAP1 DUP5 JUMPDEST DUP2 DUP2 LT ISZERO PUSH2 0x21A3 JUMPI DUP4 MLOAD PUSH1 0x1 PUSH1 0x1 PUSH1 0xA0 SHL SUB AND DUP4 MSTORE SWAP3 DUP5 ADD SWAP3 SWAP2 DUP5 ADD SWAP2 PUSH1 0x1 ADD PUSH2 0x2247 JUMP JUMPDEST PUSH1 0x0 PUSH1 0x20 DUP3 DUP5 SUB SLT ISZERO PUSH2 0x227E JUMPI PUSH1 0x0 DUP1 REVERT JUMPDEST DUP2 CALLDATALOAD PUSH4 0xFFFFFFFF DUP2 AND DUP2 EQ PUSH2 0x1D5B JUMPI PUSH1 0x0 DUP1 REVERT JUMPDEST PUSH1 0x20 DUP1 DUP3 MSTORE PUSH1 0x27 SWAP1 DUP3 ADD MSTORE PUSH32 0x536F727279207374616B696E6720696420646F656E27742062656C6F6E677320 PUSH1 0x40 DUP3 ADD MSTORE PUSH7 0x3A37903CB7BA97 PUSH1 0xC9 SHL PUSH1 0x60 DUP3 ADD MSTORE PUSH1 0x80 ADD SWAP1 JUMP JUMPDEST PUSH4 0x4E487B71 PUSH1 0xE0 SHL PUSH1 0x0 MSTORE PUSH1 0x11 PUSH1 0x4 MSTORE PUSH1 0x24 PUSH1 0x0 REVERT JUMPDEST DUP1 DUP3 ADD DUP1 DUP3 GT ISZERO PUSH2 0x116F JUMPI PUSH2 0x116F PUSH2 0x22D9 JUMP JUMPDEST PUSH1 0x0 PUSH1 0x20 DUP3 DUP5 SUB SLT ISZERO PUSH2 0x2314 JUMPI PUSH1 0x0 DUP1 REVERT JUMPDEST DUP2 MLOAD PUSH2 0x1D5B DUP2 PUSH2 0x2046 JUMP JUMPDEST PUSH1 0x0 PUSH1 0x20 DUP3 DUP5 SUB SLT ISZERO PUSH2 0x2331 JUMPI PUSH1 0x0 DUP1 REVERT JUMPDEST DUP2 MLOAD DUP1 ISZERO ISZERO DUP2 EQ PUSH2 0x1D5B JUMPI PUSH1 0x0 DUP1 REVERT JUMPDEST PUSH1 0x20 DUP1 DUP3 MSTORE PUSH1 0x2C SWAP1 DUP3 ADD MSTORE PUSH32 0x46756E6374696F6E206D7573742062652063616C6C6564207468726F75676820 PUSH1 0x40 DUP3 ADD MSTORE PUSH12 0x19195B1959D85D1958D85B1B PUSH1 0xA2 SHL PUSH1 0x60 DUP3 ADD MSTORE PUSH1 0x80 ADD SWAP1 JUMP JUMPDEST PUSH1 0x20 DUP1 DUP3 MSTORE PUSH1 0x2C SWAP1 DUP3 ADD MSTORE PUSH32 0x46756E6374696F6E206D7573742062652063616C6C6564207468726F75676820 PUSH1 0x40 DUP3 ADD MSTORE PUSH12 0x6163746976652070726F7879 PUSH1 0xA0 SHL PUSH1 0x60 DUP3 ADD MSTORE PUSH1 0x80 ADD SWAP1 JUMP JUMPDEST PUSH4 0x4E487B71 PUSH1 0xE0 SHL PUSH1 0x0 MSTORE PUSH1 0x32 PUSH1 0x4 MSTORE PUSH1 0x24 PUSH1 0x0 REVERT JUMPDEST PUSH1 0x0 PUSH1 0x1 DUP3 ADD PUSH2 0x2401 JUMPI PUSH2 0x2401 PUSH2 0x22D9 JUMP JUMPDEST POP PUSH1 0x1 ADD SWAP1 JUMP JUMPDEST DUP1 DUP3 MUL DUP2 ISZERO DUP3 DUP3 DIV DUP5 EQ OR PUSH2 0x116F JUMPI PUSH2 0x116F PUSH2 0x22D9 JUMP JUMPDEST PUSH1 0x0 PUSH1 0xFF DUP3 AND PUSH1 0xFF DUP2 SUB PUSH2 0x2435 JUMPI PUSH2 0x2435 PUSH2 0x22D9 JUMP JUMPDEST PUSH1 0x1 ADD SWAP3 SWAP2 POP POP JUMP JUMPDEST DUP2 DUP2 SUB DUP2 DUP2 GT ISZERO PUSH2 0x116F JUMPI PUSH2 0x116F PUSH2 0x22D9 JUMP JUMPDEST PUSH1 0x0 DUP3 PUSH2 0x246E JUMPI PUSH4 0x4E487B71 PUSH1 0xE0 SHL PUSH1 0x0 MSTORE PUSH1 0x12 PUSH1 0x4 MSTORE PUSH1 0x24 PUSH1 0x0 REVERT JUMPDEST POP DIV SWAP1 JUMP JUMPDEST PUSH1 0x0 PUSH1 0x20 DUP3 DUP5 SUB SLT ISZERO PUSH2 0x2485 JUMPI PUSH1 0x0 DUP1 REVERT JUMPDEST POP MLOAD SWAP2 SWAP1 POP JUMP JUMPDEST PUSH1 0x20 DUP1 DUP3 MSTORE PUSH1 0x2B SWAP1 DUP3 ADD MSTORE PUSH32 0x496E697469616C697A61626C653A20636F6E7472616374206973206E6F742069 PUSH1 0x40 DUP3 ADD MSTORE PUSH11 0x6E697469616C697A696E67 PUSH1 0xA8 SHL PUSH1 0x60 DUP3 ADD MSTORE PUSH1 0x80 ADD SWAP1 JUMP JUMPDEST PUSH1 0x0 JUMPDEST DUP4 DUP2 LT ISZERO PUSH2 0x24F2 JUMPI DUP2 DUP2 ADD MLOAD DUP4 DUP3 ADD MSTORE PUSH1 0x20 ADD PUSH2 0x24DA JUMP JUMPDEST POP POP PUSH1 0x0 SWAP2 ADD MSTORE JUMP JUMPDEST PUSH1 0x0 DUP3 MLOAD PUSH2 0x250D DUP2 DUP5 PUSH1 0x20 DUP8 ADD PUSH2 0x24D7 JUMP JUMPDEST SWAP2 SWAP1 SWAP2 ADD SWAP3 SWAP2 POP POP JUMP JUMPDEST PUSH1 0x20 DUP2 MSTORE PUSH1 0x0 DUP3 MLOAD DUP1 PUSH1 0x20 DUP5 ADD MSTORE PUSH2 0x2536 DUP2 PUSH1 0x40 DUP6 ADD PUSH1 0x20 DUP8 ADD PUSH2 0x24D7 JUMP JUMPDEST PUSH1 0x1F ADD PUSH1 0x1F NOT AND SWAP2 SWAP1 SWAP2 ADD PUSH1 0x40 ADD SWAP3 SWAP2 POP POP JUMP INVALID CALLDATASIZE ADDMOD SWAP5 LOG1 EXTCODESIZE LOG1 LOG3 0x21 MOD PUSH8 0xC828492DB98DCA3E KECCAK256 PUSH23 0xCC3735A920A3CA505D382BBC416464726573733A206C6F PUSH24 0x2D6C6576656C2064656C65676174652063616C6C20666169 PUSH13 0x6564A264697066735822122015 SWAP8 NUMBER CREATE2 PUSH12 0xE7E8760591F5326FC4AADED7 GASLIMIT 0xE8 0x21 0xD3 SWAP13 DUP9 0xAD ADD 0x2F TIMESTAMP SWAP12 CREATE SHL 0xB6 PUSH31 0x64736F6C634300081200330000000000000000000000000000000000000000 "},"methodIdentifiers":{"activeStakersList()":"dba4358c","allStakersList()":"c06a5388","claimStakingReward(uint256)":"239cd4a4","getActiveStakingIDs()":"6f72693b","getStakingCappings()":"e3a51f58","getStakingReward(uint256)":"abfe35ad","getStakingTimeRemaining(uint256)":"d8ba90b7","getTotalStakingRewardDistributed()":"7ce574bf","getTotalValueStaked()":"deede654","getUserAllStakingsRewards(address)":"9c3fe28a","getUserStakingIDs(address)":"6f51b20b","getUserTotalRewardClaimedToken(address)":"66e5e570","getUserTotalValueStaked(address)":"5f869714","getVariablesContract()":"f13a143f","initialize()":"8129fc1c","isStaked(address)":"6177fd18","owner()":"8da5cb5b","proxiableUUID()":"52d1902d","renounceOwnership()":"715018a6","setStakingDuration(uint256)":"6a8ca691","setStakingRewardRate(uint256)":"b7d68519","setVariablesContract(address)":"0ba0dba3","stake(address,uint256)":"adc9772e","stakeInfoMap(uint256)":"a7566b75","transferOwnership(address)":"f2fde38b","unStake(uint32)":"cf8a379d","upgradeTo(address)":"3659cfe6","upgradeToAndCall(address,bytes)":"4f1ef286","userAccountMap(address)":"ba4f678e"}},"storageLayout":{"storage":[{"astId":527,"contract":"contracts/StakingUpgradeable.sol:StakingUpgradeable","label":"_initialized","offset":0,"slot":"0","type":"t_uint8"},{"astId":530,"contract":"contracts/StakingUpgradeable.sol:StakingUpgradeable","label":"_initializing","offset":1,"slot":"0","type":"t_bool"},{"astId":1228,"contract":"contracts/StakingUpgradeable.sol:StakingUpgradeable","label":"__gap","offset":0,"slot":"1","type":"t_array(t_uint256)50_storage"},{"astId":10,"contract":"contracts/StakingUpgradeable.sol:StakingUpgradeable","label":"_owner","offset":0,"slot":"51","type":"t_address"},{"astId":130,"contract":"contracts/StakingUpgradeable.sol:StakingUpgradeable","label":"__gap","offset":0,"slot":"52","type":"t_array(t_uint256)49_storage"},{"astId":509,"contract":"contracts/StakingUpgradeable.sol:StakingUpgradeable","label":"__gap","offset":0,"slot":"101","type":"t_array(t_uint256)50_storage"},{"astId":824,"contract":"contracts/StakingUpgradeable.sol:StakingUpgradeable","label":"__gap","offset":0,"slot":"151","type":"t_array(t_uint256)50_storage"},{"astId":1430,"contract":"contracts/StakingUpgradeable.sol:StakingUpgradeable","label":"_variablesContract","offset":0,"slot":"201","type":"t_address"},{"astId":1433,"contract":"contracts/StakingUpgradeable.sol:StakingUpgradeable","label":"_stakers","offset":0,"slot":"202","type":"t_array(t_address)dyn_storage"},{"astId":1435,"contract":"contracts/StakingUpgradeable.sol:StakingUpgradeable","label":"_totalValueStaked","offset":0,"slot":"203","type":"t_uint256"},{"astId":1437,"contract":"contracts/StakingUpgradeable.sol:StakingUpgradeable","label":"_totalValueUnStaked","offset":0,"slot":"204","type":"t_uint256"},{"astId":1439,"contract":"contracts/StakingUpgradeable.sol:StakingUpgradeable","label":"_rewardsDistributed","offset":0,"slot":"205","type":"t_uint256"},{"astId":1441,"contract":"contracts/StakingUpgradeable.sol:StakingUpgradeable","label":"_stakingRewardRate","offset":0,"slot":"206","type":"t_uint256"},{"astId":1443,"contract":"contracts/StakingUpgradeable.sol:StakingUpgradeable","label":"_stakingDuration","offset":0,"slot":"207","type":"t_uint256"},{"astId":1467,"contract":"contracts/StakingUpgradeable.sol:StakingUpgradeable","label":"account","offset":0,"slot":"208","type":"t_mapping(t_address,t_struct(Account)1447_storage)"},{"astId":1472,"contract":"contracts/StakingUpgradeable.sol:StakingUpgradeable","label":"stakeInfo","offset":0,"slot":"209","type":"t_mapping(t_uint256,t_struct(StakeInfo)1462_storage)"}],"types":{"t_address":{"encoding":"inplace","label":"address","numberOfBytes":"20"},"t_array(t_address)dyn_storage":{"base":"t_address","encoding":"dynamic_array","label":"address[]","numberOfBytes":"32"},"t_array(t_uint256)49_storage":{"base":"t_uint256","encoding":"inplace","label":"uint256[49]","numberOfBytes":"1568"},"t_array(t_uint256)50_storage":{"base":"t_uint256","encoding":"inplace","label":"uint256[50]","numberOfBytes":"1600"},"t_array(t_uint256)dyn_storage":{"base":"t_uint256","encoding":"dynamic_array","label":"uint256[]","numberOfBytes":"32"},"t_bool":{"encoding":"inplace","label":"bool","numberOfBytes":"1"},"t_mapping(t_address,t_struct(Account)1447_storage)":{"encoding":"mapping","key":"t_address","label":"mapping(address => struct StakingUpgradeable.Account)","numberOfBytes":"32","value":"t_struct(Account)1447_storage"},"t_mapping(t_uint256,t_struct(StakeInfo)1462_storage)":{"encoding":"mapping","key":"t_uint256","label":"mapping(uint256 => struct StakingUpgradeable.StakeInfo)","numberOfBytes":"32","value":"t_struct(StakeInfo)1462_storage"},"t_struct(Account)1447_storage":{"encoding":"inplace","label":"struct StakingUpgradeable.Account","members":[{"astId":1446,"contract":"contracts/StakingUpgradeable.sol:StakingUpgradeable","label":"stakingID","offset":0,"slot":"0","type":"t_array(t_uint256)dyn_storage"}],"numberOfBytes":"32"},"t_struct(StakeInfo)1462_storage":{"encoding":"inplace","label":"struct StakingUpgradeable.StakeInfo","members":[{"astId":1449,"contract":"contracts/StakingUpgradeable.sol:StakingUpgradeable","label":"isActive","offset":0,"slot":"0","type":"t_bool"},{"astId":1451,"contract":"contracts/StakingUpgradeable.sol:StakingUpgradeable","label":"owner","offset":1,"slot":"0","type":"t_address"},{"astId":1453,"contract":"contracts/StakingUpgradeable.sol:StakingUpgradeable","label":"value","offset":0,"slot":"1","type":"t_uint256"},{"astId":1455,"contract":"contracts/StakingUpgradeable.sol:StakingUpgradeable","label":"rewardRate","offset":0,"slot":"2","type":"t_uint256"},{"astId":1457,"contract":"contracts/StakingUpgradeable.sol:StakingUpgradeable","label":"startTime","offset":0,"slot":"3","type":"t_uint256"},{"astId":1459,"contract":"contracts/StakingUpgradeable.sol:StakingUpgradeable","label":"duration","offset":0,"slot":"4","type":"t_uint256"},{"astId":1461,"contract":"contracts/StakingUpgradeable.sol:StakingUpgradeable","label":"rewardClaimed","offset":0,"slot":"5","type":"t_uint256"}],"numberOfBytes":"192"},"t_uint256":{"encoding":"inplace","label":"uint256","numberOfBytes":"32"},"t_uint8":{"encoding":"inplace","label":"uint8","numberOfBytes":"1"}}}}}}