{"contracts/VariablesV1Upgradeable.sol":{"VariablesV1Upgradeable":{"abi":[{"anonymous":false,"inputs":[{"indexed":false,"internalType":"address","name":"previousAdmin","type":"address"},{"indexed":false,"internalType":"address","name":"newAdmin","type":"address"}],"name":"AdminChanged","type":"event"},{"anonymous":false,"inputs":[{"indexed":true,"internalType":"address","name":"beacon","type":"address"}],"name":"BeaconUpgraded","type":"event"},{"anonymous":false,"inputs":[{"indexed":false,"internalType":"address","name":"ibpAddress","type":"address"}],"name":"IBPPromotedByAdmin","type":"event"},{"anonymous":false,"inputs":[{"indexed":false,"internalType":"address","name":"ibpAddress","type":"address"}],"name":"IBPRemovedByAdmin","type":"event"},{"anonymous":false,"inputs":[{"indexed":false,"internalType":"uint8","name":"version","type":"uint8"}],"name":"Initialized","type":"event"},{"anonymous":false,"inputs":[{"indexed":true,"internalType":"address","name":"previousOwner","type":"address"},{"indexed":true,"internalType":"address","name":"newOwner","type":"address"}],"name":"OwnershipTransferred","type":"event"},{"anonymous":false,"inputs":[{"indexed":false,"internalType":"address","name":"account","type":"address"}],"name":"Paused","type":"event"},{"anonymous":false,"inputs":[{"indexed":false,"internalType":"address","name":"account","type":"address"}],"name":"Unpaused","type":"event"},{"anonymous":false,"inputs":[{"indexed":true,"internalType":"address","name":"implementation","type":"address"}],"name":"Upgraded","type":"event"},{"inputs":[{"internalType":"address","name":"_ibpAddress","type":"address"}],"name":"addIBPAddressAdmin","outputs":[],"stateMutability":"nonpayable","type":"function"},{"inputs":[{"internalType":"address[]","name":"_tokenContractAddress","type":"address[]"}],"name":"disableSupportedToken","outputs":[],"stateMutability":"nonpayable","type":"function"},{"inputs":[],"name":"getAdminAddress","outputs":[{"internalType":"address","name":"","type":"address"}],"stateMutability":"view","type":"function"},{"inputs":[],"name":"getAdminContractAddress","outputs":[{"internalType":"address","name":"","type":"address"}],"stateMutability":"view","type":"function"},{"inputs":[],"name":"getAdminFees","outputs":[{"internalType":"uint8","name":"","type":"uint8"}],"stateMutability":"view","type":"function"},{"inputs":[],"name":"getBaseCurrencyDecimals","outputs":[{"internalType":"uint8","name":"","type":"uint8"}],"stateMutability":"view","type":"function"},{"inputs":[],"name":"getBusdContractAddress","outputs":[{"internalType":"address","name":"","type":"address"}],"stateMutability":"view","type":"function"},{"inputs":[],"name":"getCoreMemberRewardRate","outputs":[{"internalType":"uint8","name":"","type":"uint8"}],"stateMutability":"view","type":"function"},{"inputs":[],"name":"getCoreMembersContractAddress","outputs":[{"internalType":"address","name":"","type":"address"}],"stateMutability":"view","type":"function"},{"inputs":[],"name":"getDefaultIBP","outputs":[{"internalType":"address","name":"","type":"address"}],"stateMutability":"view","type":"function"},{"inputs":[],"name":"getDefaultReferrer","outputs":[{"internalType":"address","name":"","type":"address"}],"stateMutability":"view","type":"function"},{"inputs":[],"name":"getGlobalRewardRate","outputs":[{"internalType":"uint8","name":"","type":"uint8"}],"stateMutability":"view","type":"function"},{"inputs":[],"name":"getIBPList","outputs":[{"internalType":"address[]","name":"","type":"address[]"}],"stateMutability":"view","type":"function"},{"inputs":[],"name":"getIbpRewardRate","outputs":[{"internalType":"uint8","name":"","type":"uint8"}],"stateMutability":"view","type":"function"},{"inputs":[],"name":"getIsPayCoreMembersRewards","outputs":[{"internalType":"bool","name":"","type":"bool"}],"stateMutability":"view","type":"function"},{"inputs":[],"name":"getIsPayGlobalRewards","outputs":[{"internalType":"bool","name":"","type":"bool"}],"stateMutability":"view","type":"function"},{"inputs":[],"name":"getIsPayIbpRewards","outputs":[{"internalType":"bool","name":"","type":"bool"}],"stateMutability":"view","type":"function"},{"inputs":[],"name":"getIsPayReferralRewards","outputs":[{"internalType":"bool","name":"","type":"bool"}],"stateMutability":"view","type":"function"},{"inputs":[],"name":"getIsPayRewardToken","outputs":[{"internalType":"bool","name":"","type":"bool"}],"stateMutability":"view","type":"function"},{"inputs":[],"name":"getIsPayWeeklyRewards","outputs":[{"internalType":"bool","name":"","type":"bool"}],"stateMutability":"view","type":"function"},{"inputs":[],"name":"getLevelDecimals","outputs":[{"internalType":"uint16","name":"","type":"uint16"}],"stateMutability":"view","type":"function"},{"inputs":[],"name":"getLevelRates","outputs":[{"internalType":"uint16[]","name":"","type":"uint16[]"}],"stateMutability":"view","type":"function"},{"inputs":[{"internalType":"uint8","name":"_planId","type":"uint8"}],"name":"getPlanById","outputs":[{"components":[{"internalType":"uint8","name":"planId","type":"uint8"},{"internalType":"string","name":"name","type":"string"},{"internalType":"uint256","name":"value","type":"uint256"},{"internalType":"uint256","name":"maxLimitMultiplier","type":"uint256"}],"internalType":"struct VariablesV1Upgradeable.PlanStruct","name":"","type":"tuple"}],"stateMutability":"view","type":"function"},{"inputs":[],"name":"getRewardTokenContract","outputs":[{"internalType":"address","name":"","type":"address"}],"stateMutability":"view","type":"function"},{"inputs":[],"name":"getRewardTokenRate","outputs":[{"internalType":"uint8","name":"","type":"uint8"}],"stateMutability":"view","type":"function"},{"inputs":[{"internalType":"address","name":"_tokenContractAddress","type":"address"}],"name":"getSupportedTokenInfo","outputs":[{"components":[{"internalType":"address","name":"contractAddress","type":"address"},{"internalType":"string","name":"name","type":"string"},{"internalType":"string","name":"symbol","type":"string"},{"internalType":"uint8","name":"decimals","type":"uint8"},{"internalType":"address","name":"aggregatorAddress","type":"address"},{"internalType":"bool","name":"isEbaled","type":"bool"}],"internalType":"struct VariablesV1Upgradeable.SupportedTokensStruct","name":"","type":"tuple"}],"stateMutability":"view","type":"function"},{"inputs":[],"name":"getUsdtContractAddress","outputs":[{"internalType":"address","name":"","type":"address"}],"stateMutability":"view","type":"function"},{"inputs":[],"name":"getValueBufferRate","outputs":[{"internalType":"uint8","name":"","type":"uint8"}],"stateMutability":"view","type":"function"},{"inputs":[],"name":"getWeeklyRewardRate","outputs":[{"internalType":"uint8","name":"","type":"uint8"}],"stateMutability":"view","type":"function"},{"inputs":[],"name":"getWeeklyRewardTimeLimit","outputs":[{"internalType":"uint256","name":"","type":"uint256"}],"stateMutability":"view","type":"function"},{"inputs":[],"name":"initialize","outputs":[],"stateMutability":"nonpayable","type":"function"},{"inputs":[{"internalType":"address","name":"_ibpAddress","type":"address"}],"name":"isIBP","outputs":[{"internalType":"bool","name":"","type":"bool"}],"stateMutability":"view","type":"function"},{"inputs":[{"internalType":"address","name":"_tokenContractAddress","type":"address"}],"name":"isTokenSupported","outputs":[{"internalType":"bool","name":"","type":"bool"}],"stateMutability":"view","type":"function"},{"inputs":[],"name":"owner","outputs":[{"internalType":"address","name":"","type":"address"}],"stateMutability":"view","type":"function"},{"inputs":[],"name":"pause","outputs":[],"stateMutability":"nonpayable","type":"function"},{"inputs":[],"name":"paused","outputs":[{"internalType":"bool","name":"","type":"bool"}],"stateMutability":"view","type":"function"},{"inputs":[],"name":"proxiableUUID","outputs":[{"internalType":"bytes32","name":"","type":"bytes32"}],"stateMutability":"view","type":"function"},{"inputs":[{"internalType":"address[]","name":"_tokenContractAddress","type":"address[]"},{"internalType":"address[]","name":"aggregatorContractAddress","type":"address[]"}],"name":"pushSupportedTokenToList","outputs":[],"stateMutability":"nonpayable","type":"function"},{"inputs":[{"internalType":"address","name":"_ibpAddress","type":"address"}],"name":"removeIBPAddressAdmin","outputs":[],"stateMutability":"nonpayable","type":"function"},{"inputs":[],"name":"renounceOwnership","outputs":[],"stateMutability":"nonpayable","type":"function"},{"inputs":[{"internalType":"address","name":"adminAddress","type":"address"}],"name":"setAdminAddress","outputs":[],"stateMutability":"nonpayable","type":"function"},{"inputs":[{"internalType":"address","name":"_address","type":"address"}],"name":"setAdminContractAddress","outputs":[],"stateMutability":"nonpayable","type":"function"},{"inputs":[{"internalType":"uint8","name":"fees","type":"uint8"}],"name":"setAdminFees","outputs":[],"stateMutability":"nonpayable","type":"function"},{"inputs":[{"internalType":"uint8","name":"decimals","type":"uint8"}],"name":"setBaseCurrencyDecimals","outputs":[],"stateMutability":"nonpayable","type":"function"},{"inputs":[{"internalType":"address","name":"busdAddress","type":"address"}],"name":"setBusdContractAddress","outputs":[],"stateMutability":"nonpayable","type":"function"},{"inputs":[{"internalType":"uint8","name":"rate","type":"uint8"}],"name":"setCoreMemberRewardRate","outputs":[],"stateMutability":"nonpayable","type":"function"},{"inputs":[{"internalType":"address","name":"_address","type":"address"}],"name":"setCoreMembersContractAddress","outputs":[],"stateMutability":"nonpayable","type":"function"},{"inputs":[{"internalType":"address","name":"ibpAddress","type":"address"}],"name":"setDefaultIBP","outputs":[],"stateMutability":"nonpayable","type":"function"},{"inputs":[{"internalType":"address","name":"referrer","type":"address"}],"name":"setDefaultReferrer","outputs":[],"stateMutability":"nonpayable","type":"function"},{"inputs":[{"internalType":"uint8","name":"rate","type":"uint8"}],"name":"setGlobalRewardRate","outputs":[],"stateMutability":"nonpayable","type":"function"},{"inputs":[{"internalType":"uint8","name":"rate","type":"uint8"}],"name":"setIbpRewardRate","outputs":[],"stateMutability":"nonpayable","type":"function"},{"inputs":[{"internalType":"bool","name":"value","type":"bool"}],"name":"setIsPayCoreMembersRewards","outputs":[],"stateMutability":"nonpayable","type":"function"},{"inputs":[{"internalType":"bool","name":"value","type":"bool"}],"name":"setIsPayGlobalRewards","outputs":[],"stateMutability":"nonpayable","type":"function"},{"inputs":[{"internalType":"bool","name":"value","type":"bool"}],"name":"setIsPayIbpRewards","outputs":[],"stateMutability":"nonpayable","type":"function"},{"inputs":[{"internalType":"bool","name":"value","type":"bool"}],"name":"setIsPayReferralRewards","outputs":[],"stateMutability":"nonpayable","type":"function"},{"inputs":[{"internalType":"bool","name":"isPay","type":"bool"}],"name":"setIsPayRewardToken","outputs":[],"stateMutability":"nonpayable","type":"function"},{"inputs":[{"internalType":"bool","name":"value","type":"bool"}],"name":"setIsPayWeeklyRewards","outputs":[],"stateMutability":"nonpayable","type":"function"},{"inputs":[{"internalType":"uint16","name":"decimals","type":"uint16"}],"name":"setLevelDecimals","outputs":[],"stateMutability":"nonpayable","type":"function"},{"inputs":[{"internalType":"uint16[]","name":"rates","type":"uint16[]"}],"name":"setLevelRates","outputs":[],"stateMutability":"nonpayable","type":"function"},{"inputs":[{"internalType":"uint8[]","name":"planId","type":"uint8[]"},{"internalType":"string[]","name":"name","type":"string[]"},{"internalType":"uint256[]","name":"value","type":"uint256[]"},{"internalType":"uint256[]","name":"maxLimitMultiplier","type":"uint256[]"}],"name":"setPlans","outputs":[],"stateMutability":"nonpayable","type":"function"},{"inputs":[{"internalType":"address","name":"tokenContract","type":"address"}],"name":"setRewardTokenContract","outputs":[],"stateMutability":"nonpayable","type":"function"},{"inputs":[{"internalType":"uint8","name":"rate","type":"uint8"}],"name":"setRewardTokenRate","outputs":[],"stateMutability":"nonpayable","type":"function"},{"inputs":[{"internalType":"address","name":"usdtAddress","type":"address"}],"name":"setUsdtContractAddress","outputs":[],"stateMutability":"nonpayable","type":"function"},{"inputs":[{"internalType":"uint8","name":"rate","type":"uint8"}],"name":"setValueBufferRate","outputs":[],"stateMutability":"nonpayable","type":"function"},{"inputs":[{"internalType":"uint8","name":"rate","type":"uint8"}],"name":"setWeeklyRewardRate","outputs":[],"stateMutability":"nonpayable","type":"function"},{"inputs":[{"internalType":"uint256","name":"","type":"uint256"}],"name":"supportedTokensList","outputs":[{"internalType":"address","name":"","type":"address"}],"stateMutability":"view","type":"function"},{"inputs":[{"internalType":"address","name":"newOwner","type":"address"}],"name":"transferOwnership","outputs":[],"stateMutability":"nonpayable","type":"function"},{"inputs":[],"name":"unpause","outputs":[],"stateMutability":"nonpayable","type":"function"},{"inputs":[{"internalType":"address","name":"newImplementation","type":"address"}],"name":"upgradeTo","outputs":[],"stateMutability":"nonpayable","type":"function"},{"inputs":[{"internalType":"address","name":"newImplementation","type":"address"},{"internalType":"bytes","name":"data","type":"bytes"}],"name":"upgradeToAndCall","outputs":[],"stateMutability":"payable","type":"function"}],"evm":{"bytecode":{"linkReferences":{},"object":"60a06040523060805234801561001457600080fd5b506080516135d661004c600039600081816110480152818161109101528181611198015281816111d8015261126701526135d66000f3fe6080604052600436106104045760003560e01c8063880c0ec311610213578063b7a2662011610123578063e371c5c5116100ab578063e7cca9c71161007a578063e7cca9c714610c5a578063eb758bc714610c7d578063f2a9012114610c9d578063f2fde38b14610cbd578063ffc43f8f14610cdd57600080fd5b8063e371c5c514610bd5578063e420318314610bf5578063e701671714610c15578063e74af32e14610c2d57600080fd5b8063c391d636116100f2578063c391d63614610b39578063d54fcd9314610b57578063dcf6e81914610b77578063e091099c14610b97578063e179719a14610bb657600080fd5b8063b7a2662014610ab5578063b9cd1a5014610ad5578063bcb03b5714610af4578063beb22a2014610b1457600080fd5b8063a46868f0116101a6578063af2d4d0911610175578063af2d4d0914610a22578063b2e6b91214610a42578063b644356214610a61578063b6b248de14610a81578063b70c14f814610aa057600080fd5b8063a46868f0146109a2578063a61a4ff3146109c2578063a646e845146109e2578063ac40e30914610a0257600080fd5b806393cee9c9116101e257806393cee9c91461092357806394debf48146109435780639f6d887014610963578063a43ae4081461098257600080fd5b8063880c0ec3146108a45780638da5cb5b146108c4578063916452ab146108e2578063918a54db1461090157600080fd5b80634f1ef28611610319578063658918e0116102a1578063715018a611610270578063715018a61461080157806375151b63146108165780638129fc1c1461085a5780638456cb591461086f5780638790c4f81461088457600080fd5b8063658918e01461078257806365eb204d146107a25780636cf3c676146107c1578063707d9afe146107e157600080fd5b8063587d2c14116102e8578063587d2c14146106eb5780635c975abb1461070b5780635d9bed63146107235780635f3ad6e21461074357806363c918771461076257600080fd5b80634f1ef2861461067857806352d1902d1461068b5780635397b86d146106ae57806357b88805146106cb57600080fd5b80632f8c7e721161039c57806339e0dcfa1161036b57806339e0dcfa146105e65780633f4ba83a146106065780633fae6a111461061b5780634b92fb121461063a5780634ccebd501461065857600080fd5b80632f8c7e721461054157806331d4465b1461057b5780633238c16f1461059a5780633659cfe6146105c657600080fd5b80631f1eeec8116103d85780631f1eeec8146104ac57806324883508146104ce5780632b70c02c146105015780632c1e816d1461052157600080fd5b8062b292901461040957806308fcfbbe1461042b5780630efc12b11461044b57806316dd07e014610481575b600080fd5b34801561041557600080fd5b50610429610424366004612b03565b610cff565b005b34801561043757600080fd5b50610429610446366004612b03565b610edf565b34801561045757600080fd5b5061046b610466366004612b2d565b610f0a565b6040516104789190612b9a565b60405180910390f35b34801561048d57600080fd5b5060fe54600160381b900460ff165b6040519015158152602001610478565b3480156104b857600080fd5b5060fe546601000000000000900460ff1661049c565b3480156104da57600080fd5b50610105546001600160a01b03165b6040516001600160a01b039091168152602001610478565b34801561050d57600080fd5b5060fe54640100000000900460ff1661049c565b34801561052d57600080fd5b5061042961053c366004612b03565b611013565b34801561054d57600080fd5b5061049c61055c366004612b03565b6001600160a01b0316600090815261010a602052604090205460ff1690565b34801561058757600080fd5b50610102546001600160a01b03166104e9565b3480156105a657600080fd5b5060fe5462010000900460ff165b60405160ff9091168152602001610478565b3480156105d257600080fd5b506104296105e1366004612b03565b61103e565b3480156105f257600080fd5b50610429610601366004612be3565b611126565b34801561061257600080fd5b50610429611150565b34801561062757600080fd5b5060fe54600160281b900460ff1661049c565b34801561064657600080fd5b5060ff546001600160a01b03166104e9565b34801561066457600080fd5b50610429610673366004612be3565b611162565b610429610686366004612c74565b61118e565b34801561069757600080fd5b506106a061125a565b604051908152602001610478565b3480156106ba57600080fd5b5060fe54610100900460ff166105b4565b3480156106d757600080fd5b506104296106e6366004612d51565b61130d565b3480156106f757600080fd5b50610429610706366004612d93565b611400565b34801561071757600080fd5b5060335460ff1661049c565b34801561072f57600080fd5b5061042961073e366004612be3565b6118cf565b34801561074f57600080fd5b5060fc546301000000900460ff166105b4565b34801561076e57600080fd5b506104e961077d366004612dff565b6118fa565b34801561078e57600080fd5b5061042961079d366004612b03565b611925565b3480156107ae57600080fd5b50610100546001600160a01b03166104e9565b3480156107cd57600080fd5b506104296107dc366004612b2d565b611950565b3480156107ed57600080fd5b506104296107fc366004612b03565b611976565b34801561080d57600080fd5b506104296119a1565b34801561082257600080fd5b5061049c610831366004612b03565b6001600160a01b031660009081526101096020526040902060030154600160a81b900460ff1690565b34801561086657600080fd5b506104296119b3565b34801561087b57600080fd5b50610429611b75565b34801561089057600080fd5b5061042961089f366004612b03565b611b85565b3480156108b057600080fd5b506104296108bf366004612b2d565b611baf565b3480156108d057600080fd5b506065546001600160a01b03166104e9565b3480156108ee57600080fd5b50610101546001600160a01b03166104e9565b34801561090d57600080fd5b50610916611bcd565b6040516104789190612e18565b34801561092f57600080fd5b5061042961093e366004612be3565b611c4d565b34801561094f57600080fd5b5061042961095e366004612b2d565b611c79565b34801561096f57600080fd5b5060fe54600160401b900460ff1661049c565b34801561098e57600080fd5b5061042961099d366004612e72565b611ca1565b3480156109ae57600080fd5b5060fc54640100000000900460ff166105b4565b3480156109ce57600080fd5b506104296109dd366004612b2d565b611cc1565b3480156109ee57600080fd5b506104296109fd366004612b2d565b611ce7565b348015610a0e57600080fd5b50610429610a1d366004612b2d565b611d0b565b348015610a2e57600080fd5b50610429610a3d366004612b2d565b611d35565b348015610a4e57600080fd5b50610107546001600160a01b03166104e9565b348015610a6d57600080fd5b50610429610a7c366004612be3565b611d5f565b348015610a8d57600080fd5b50610106546001600160a01b03166104e9565b348015610aac57600080fd5b5060fd546106a0565b348015610ac157600080fd5b50610429610ad0366004612b2d565b611d87565b348015610ae157600080fd5b5060fc54600160281b900460ff166105b4565b348015610b0057600080fd5b50610429610b0f366004612e8d565b611daf565b348015610b2057600080fd5b5060fe54600160501b90046001600160a01b03166104e9565b348015610b4557600080fd5b5060fc5462010000900460ff166105b4565b348015610b6357600080fd5b50610429610b72366004612f51565b611f82565b348015610b8357600080fd5b50610429610b92366004612b03565b611f9d565b348015610ba357600080fd5b5060fe546301000000900460ff166105b4565b348015610bc257600080fd5b5060fe54600160481b900460ff1661049c565b348015610be157600080fd5b50610429610bf0366004612b03565b611fc8565b348015610c0157600080fd5b50610429610c10366004612b03565b612091565b348015610c2157600080fd5b5060fe5460ff166105b4565b348015610c3957600080fd5b50610c4d610c48366004612b03565b6120da565b6040516104789190612ffe565b348015610c6657600080fd5b5060fc5460405161ffff9091168152602001610478565b348015610c8957600080fd5b50610429610c98366004612be3565b612298565b348015610ca957600080fd5b50610429610cb8366004612b03565b6122c0565b348015610cc957600080fd5b50610429610cd8366004612b03565b6122eb565b348015610ce957600080fd5b50610cf2612361565b604051610478919061307d565b610d076123c3565b6001600160a01b038116600090815261010a602052604090205460ff168015610edb576001600160a01b038216600090815261010a60209081526040808320805460ff1916905561010480548251818502810185019093528083529192909190830182828015610da057602002820191906000526020600020905b81546001600160a01b03168152600190910190602001808311610d82575b5050505050905060005b8151811015610ed857836001600160a01b0316828281518110610dcf57610dcf6130be565b60200260200101516001600160a01b031603610ec6578160018351610df491906130ea565b81518110610e0457610e046130be565b60200260200101516101048281548110610e2057610e206130be565b9060005260206000200160006101000a8154816001600160a01b0302191690836001600160a01b03160217905550610104805480610e6057610e606130fd565b6000828152602090819020600019908301810180546001600160a01b03191690559091019091556040516001600160a01b03861681527f337eeb0192a31dfc3c61aff0be47a571a126a9e3f1caaee4af8c29babbb477e9910160405180910390a1610ed8565b80610ed081613113565b915050610daa565b50505b5050565b610ee76123c3565b61010080546001600160a01b0319166001600160a01b0392909216919091179055565b610f386040518060800160405280600060ff1681526020016060815260200160008152602001600081525090565b60ff808316600090815261010860209081526040918290208251608081019093528054909316825260018301805492939291840191610f769061312c565b80601f0160208091040260200160405190810160405280929190818152602001828054610fa29061312c565b8015610fef5780601f10610fc457610100808354040283529160200191610fef565b820191906000526020600020905b815481529060010190602001808311610fd257829003601f168201915b50505050508152602001600282015481526020016003820154815250509050919050565b61101b6123c3565b61010780546001600160a01b0319166001600160a01b0392909216919091179055565b6001600160a01b037f000000000000000000000000000000000000000000000000000000000000000016300361108f5760405162461bcd60e51b815260040161108690613166565b60405180910390fd5b7f00000000000000000000000000000000000000000000000000000000000000006001600160a01b03166110d860008051602061355a833981519152546001600160a01b031690565b6001600160a01b0316146110fe5760405162461bcd60e51b8152600401611086906131b2565b6111078161241d565b6040805160008082526020820190925261112391839190612425565b50565b61112e6123c3565b60fe8054911515600160381b0267ff0000000000000019909216919091179055565b6111586123c3565b611160612590565b565b61116a6123c3565b60fe8054911515600160481b0269ff00000000000000000019909216919091179055565b6001600160a01b037f00000000000000000000000000000000000000000000000000000000000000001630036111d65760405162461bcd60e51b815260040161108690613166565b7f00000000000000000000000000000000000000000000000000000000000000006001600160a01b031661121f60008051602061355a833981519152546001600160a01b031690565b6001600160a01b0316146112455760405162461bcd60e51b8152600401611086906131b2565b61124e8261241d565b610edb82826001612425565b6000306001600160a01b037f000000000000000000000000000000000000000000000000000000000000000016146112fa5760405162461bcd60e51b815260206004820152603860248201527f555550535570677261646561626c653a206d757374206e6f742062652063616c60448201527f6c6564207468726f7567682064656c656761746563616c6c00000000000000006064820152608401611086565b5060008051602061355a83398151915290565b6113156123c3565b60005b60ff81168211156113fb576000610109600085858560ff1681811061133f5761133f6130be565b90506020020160208101906113549190612b03565b6001600160a01b0316815260208101919091526040016000206003018054911515600160a81b0260ff60a81b19909216919091179055610103838360ff84168181106113a2576113a26130be565b90506020020160208101906113b79190612b03565b81546001810183556000928352602090922090910180546001600160a01b0319166001600160a01b03909216919091179055806113f3816131fe565b915050611318565b505050565b6114086123c3565b60005b60ff81168411156118c85784848260ff1681811061142b5761142b6130be565b90506020020160208101906114409190612b03565b610109600087878560ff1681811061145a5761145a6130be565b905060200201602081019061146f9190612b03565b6001600160a01b039081168252602082019290925260400160002080546001600160a01b03191692909116919091179055848460ff83168181106114b5576114b56130be565b90506020020160208101906114ca9190612b03565b6001600160a01b03166306fdde036040518163ffffffff1660e01b8152600401600060405180830381865afa158015611507573d6000803e3d6000fd5b505050506040513d6000823e601f3d908101601f1916820160405261152f919081019061321d565b610109600087878560ff16818110611549576115496130be565b905060200201602081019061155e9190612b03565b6001600160a01b0316815260208101919091526040016000206001019061158590826132e2565b5084848260ff1681811061159b5761159b6130be565b90506020020160208101906115b09190612b03565b6001600160a01b03166395d89b416040518163ffffffff1660e01b8152600401600060405180830381865afa1580156115ed573d6000803e3d6000fd5b505050506040513d6000823e601f3d908101601f19168201604052611615919081019061321d565b610109600087878560ff1681811061162f5761162f6130be565b90506020020160208101906116449190612b03565b6001600160a01b0316815260208101919091526040016000206002019061166b90826132e2565b5084848260ff16818110611681576116816130be565b90506020020160208101906116969190612b03565b6001600160a01b031663313ce5676040518163ffffffff1660e01b8152600401602060405180830381865afa1580156116d3573d6000803e3d6000fd5b505050506040513d601f19601f820116820180604052508101906116f791906133a2565b610109600087878560ff16818110611711576117116130be565b90506020020160208101906117269190612b03565b6001600160a01b031681526020810191909152604001600020600301805460ff191660ff928316179055839083908316818110611765576117656130be565b905060200201602081019061177a9190612b03565b610109600087878560ff16818110611794576117946130be565b90506020020160208101906117a99190612b03565b6001600160a01b03166001600160a01b0316815260200190815260200160002060030160016101000a8154816001600160a01b0302191690836001600160a01b031602179055506001610109600087878560ff1681811061180c5761180c6130be565b90506020020160208101906118219190612b03565b6001600160a01b0316815260208101919091526040016000206003018054911515600160a81b0260ff60a81b19909216919091179055610103858560ff841681811061186f5761186f6130be565b90506020020160208101906118849190612b03565b81546001810183556000928352602090922090910180546001600160a01b0319166001600160a01b03909216919091179055806118c0816131fe565b91505061140b565b5050505050565b6118d76123c3565b60fe8054911515600160401b0268ff000000000000000019909216919091179055565b610103818154811061190b57600080fd5b6000918252602090912001546001600160a01b0316905081565b61192d6123c3565b61010280546001600160a01b0319166001600160a01b0392909216919091179055565b6119586123c3565b60fe805460ff909216620100000262ff000019909216919091179055565b61197e6123c3565b61010680546001600160a01b0319166001600160a01b0392909216919091179055565b6119a96123c3565b61116060006125e2565b600054610100900460ff16158080156119d35750600054600160ff909116105b806119ed5750303b1580156119ed575060005460ff166001145b611a505760405162461bcd60e51b815260206004820152602e60248201527f496e697469616c697a61626c653a20636f6e747261637420697320616c72656160448201526d191e481a5b9a5d1a585b1a5e995960921b6064820152608401611086565b6000805460ff191660011790558015611a73576000805461ff0019166101001790555b604080516101408101825261138881526101f460208201526101909181019190915261012c606082015260c86080820152606460a0820181905260c0820152607d60e082018190526101008201526096610120820152611ad79060fb90600a612a29565b5060fc805465ffffffffffff1916650a0a0a12271017905562093a8060fd5560fe805469ffffffffffff00ffffff19166901010101010100030205179055611b1d612634565b611b25612663565b611b2d612692565b8015611123576000805461ff0019169055604051600181527f7f26b83ff96e1f2b6a682f133852f6798a09c465da95921460cefb38474024989060200160405180910390a150565b611b7d6123c3565b6111606126b9565b611b8d6123c3565b60ff80546001600160a01b0319166001600160a01b0392909216919091179055565b611bb76123c3565b60fe805460ff191660ff92909216919091179055565b606060fb805480602002602001604051908101604052809291908181526020018280548015611c4357602002820191906000526020600020906000905b82829054906101000a900461ffff1661ffff1681526020019060020190602082600101049283019260010382029150808411611c0a5790505b5050505050905090565b611c556123c3565b60fe805491151566010000000000000266ff00000000000019909216919091179055565b611c816123c3565b60fc805460ff90921663010000000263ff00000019909216919091179055565b611ca96123c3565b60fc805461ffff191661ffff92909216919091179055565b611cc96123c3565b60fc805460ff909216620100000262ff000019909216919091179055565b611cef6123c3565b60fe805460ff9092166101000261ff0019909216919091179055565b611d136123c3565b60fc805460ff909216600160281b0265ff000000000019909216919091179055565b611d3d6123c3565b60fc805460ff9092166401000000000264ff0000000019909216919091179055565b611d676123c3565b60fe8054911515600160281b0265ff000000000019909216919091179055565b611d8f6123c3565b60fe805460ff90921663010000000263ff00000019909216919091179055565b611db76123c3565b60005b87811015611f7757888882818110611dd457611dd46130be565b9050602002016020810190611de99190612b2d565b61010860008b8b85818110611e0057611e006130be565b9050602002016020810190611e159190612b2d565b60ff90811682526020820192909252604001600020805460ff191692909116919091179055868682818110611e4c57611e4c6130be565b9050602002810190611e5e91906133bf565b61010860008c8c86818110611e7557611e756130be565b9050602002016020810190611e8a9190612b2d565b60ff168152602081019190915260400160002060010191611eac919083613406565b50848482818110611ebf57611ebf6130be565b9050602002013561010860008b8b85818110611edd57611edd6130be565b9050602002016020810190611ef29190612b2d565b60ff168152602081019190915260400160002060020155828282818110611f1b57611f1b6130be565b9050602002013561010860008b8b85818110611f3957611f396130be565b9050602002016020810190611f4e9190612b2d565b60ff16815260208101919091526040016000206003015580611f6f81613113565b915050611dba565b505050505050505050565b611f8a6123c3565b8051610edb9060fb906020840190612a29565b611fa56123c3565b61010580546001600160a01b0319166001600160a01b0392909216919091179055565b611fd06123c3565b6001600160a01b038116600090815261010a602052604090205460ff1680610edb576001600160a01b038216600081815261010a60209081526040808320805460ff19166001908117909155610104805491820181559093527f4c0be60200faa20559308cb7b5a1bb3255c16cb1cab91f525b5ae7a03d02fabe90920180546001600160a01b0319168417905590519182527fe30f8cb0d8cbc7c0e95d5aaa3107ce401738ce4bc98a05dd081bb2a77a9ca749910160405180910390a15050565b6120996123c3565b60fe80546001600160a01b03909216600160501b027fffff0000000000000000000000000000000000000000ffffffffffffffffffff909216919091179055565b6040805160c080820183526000808352606060208085018290528486018290529084018290526080840182905260a084018290526001600160a01b038681168352610109825291859020855193840190955284549091168252600184018054939492939184019161214a9061312c565b80601f01602080910402602001604051908101604052809291908181526020018280546121769061312c565b80156121c35780601f10612198576101008083540402835291602001916121c3565b820191906000526020600020905b8154815290600101906020018083116121a657829003601f168201915b505050505081526020016002820180546121dc9061312c565b80601f01602080910402602001604051908101604052809291908181526020018280546122089061312c565b80156122555780601f1061222a57610100808354040283529160200191612255565b820191906000526020600020905b81548152906001019060200180831161223857829003601f168201915b50505091835250506003919091015460ff80821660208401526001600160a01b036101008304166040840152600160a81b90910416151560609091015292915050565b6122a06123c3565b60fe80549115156401000000000264ff0000000019909216919091179055565b6122c86123c3565b61010180546001600160a01b0319166001600160a01b0392909216919091179055565b6122f36123c3565b6001600160a01b0381166123585760405162461bcd60e51b815260206004820152602660248201527f4f776e61626c653a206e6577206f776e657220697320746865207a65726f206160448201526564647265737360d01b6064820152608401611086565b611123816125e2565b6060610104805480602002602001604051908101604052809291908181526020018280548015611c4357602002820191906000526020600020905b81546001600160a01b0316815260019091019060200180831161239c575050505050905090565b6065546001600160a01b031633146111605760405162461bcd60e51b815260206004820181905260248201527f4f776e61626c653a2063616c6c6572206973206e6f7420746865206f776e65726044820152606401611086565b6111236123c3565b7f4910fdfa16fed3260ed0e7147f7cc6da11a60208b5b9406d12a635614ffd91435460ff1615612458576113fb836126f6565b826001600160a01b03166352d1902d6040518163ffffffff1660e01b8152600401602060405180830381865afa9250505080156124b2575060408051601f3d908101601f191682019092526124af918101906134c6565b60015b6125155760405162461bcd60e51b815260206004820152602e60248201527f45524331393637557067726164653a206e657720696d706c656d656e7461746960448201526d6f6e206973206e6f74205555505360901b6064820152608401611086565b60008051602061355a83398151915281146125845760405162461bcd60e51b815260206004820152602960248201527f45524331393637557067726164653a20756e737570706f727465642070726f786044820152681a58589b195555525160ba1b6064820152608401611086565b506113fb838383612792565b6125986127b7565b6033805460ff191690557f5db9ee0a495bf2e6ff9c91a7834c1ba4fdd244a5e8aa4e537bd38aeae4b073aa335b6040516001600160a01b03909116815260200160405180910390a1565b606580546001600160a01b038381166001600160a01b0319831681179093556040519116919082907f8be0079c531659141344cd1fd0a4f28419497f9722a3daafe3b4186f6b6457e090600090a35050565b600054610100900460ff1661265b5760405162461bcd60e51b8152600401611086906134df565b611160612800565b600054610100900460ff1661268a5760405162461bcd60e51b8152600401611086906134df565b611160612833565b600054610100900460ff166111605760405162461bcd60e51b8152600401611086906134df565b6126c1612863565b6033805460ff191660011790557f62e78cea01bee320cd4e420270b5ea74000d11b0c9f74754ebdbfc544b05a2586125c53390565b6001600160a01b0381163b6127635760405162461bcd60e51b815260206004820152602d60248201527f455243313936373a206e657720696d706c656d656e746174696f6e206973206e60448201526c1bdd08184818dbdb9d1c9858dd609a1b6064820152608401611086565b60008051602061355a83398151915280546001600160a01b0319166001600160a01b0392909216919091179055565b61279b836128a9565b6000825111806127a85750805b156113fb57610ed883836128e9565b60335460ff166111605760405162461bcd60e51b815260206004820152601460248201527314185d5cd8589b194e881b9bdd081c185d5cd95960621b6044820152606401611086565b600054610100900460ff166128275760405162461bcd60e51b8152600401611086906134df565b6033805460ff19169055565b600054610100900460ff1661285a5760405162461bcd60e51b8152600401611086906134df565b611160336125e2565b60335460ff16156111605760405162461bcd60e51b815260206004820152601060248201526f14185d5cd8589b194e881c185d5cd95960821b6044820152606401611086565b6128b2816126f6565b6040516001600160a01b038216907fbc7cd75a20ee27fd9adebab32041f755214dbc6bffa90cc0225b39da2e5c2d3b90600090a250565b60606001600160a01b0383163b6129515760405162461bcd60e51b815260206004820152602660248201527f416464726573733a2064656c65676174652063616c6c20746f206e6f6e2d636f6044820152651b9d1c9858dd60d21b6064820152608401611086565b600080846001600160a01b03168460405161296c919061352a565b600060405180830381855af49150503d80600081146129a7576040519150601f19603f3d011682016040523d82523d6000602084013e6129ac565b606091505b50915091506129d4828260405180606001604052806027815260200161357a602791396129df565b925050505b92915050565b606083156129ee5750816129f8565b6129f883836129ff565b9392505050565b815115612a0f5781518083602001fd5b8060405162461bcd60e51b81526004016110869190613546565b82805482825590600052602060002090600f01601090048101928215612ac25791602002820160005b83821115612a9257835183826101000a81548161ffff021916908361ffff1602179055509260200192600201602081600101049283019260010302612a52565b8015612ac05782816101000a81549061ffff0219169055600201602081600101049283019260010302612a92565b505b50612ace929150612ad2565b5090565b5b80821115612ace5760008155600101612ad3565b80356001600160a01b0381168114612afe57600080fd5b919050565b600060208284031215612b1557600080fd5b6129f882612ae7565b60ff8116811461112357600080fd5b600060208284031215612b3f57600080fd5b81356129f881612b1e565b60005b83811015612b65578181015183820152602001612b4d565b50506000910152565b60008151808452612b86816020860160208601612b4a565b601f01601f19169290920160200192915050565b6020815260ff82511660208201526000602083015160806040840152612bc360a0840182612b6e565b905060408401516060840152606084015160808401528091505092915050565b600060208284031215612bf557600080fd5b813580151581146129f857600080fd5b634e487b7160e01b600052604160045260246000fd5b604051601f8201601f1916810167ffffffffffffffff81118282101715612c4457612c44612c05565b604052919050565b600067ffffffffffffffff821115612c6657612c66612c05565b50601f01601f191660200190565b60008060408385031215612c8757600080fd5b612c9083612ae7565b9150602083013567ffffffffffffffff811115612cac57600080fd5b8301601f81018513612cbd57600080fd5b8035612cd0612ccb82612c4c565b612c1b565b818152866020838501011115612ce557600080fd5b816020840160208301376000602083830101528093505050509250929050565b60008083601f840112612d1757600080fd5b50813567ffffffffffffffff811115612d2f57600080fd5b6020830191508360208260051b8501011115612d4a57600080fd5b9250929050565b60008060208385031215612d6457600080fd5b823567ffffffffffffffff811115612d7b57600080fd5b612d8785828601612d05565b90969095509350505050565b60008060008060408587031215612da957600080fd5b843567ffffffffffffffff80821115612dc157600080fd5b612dcd88838901612d05565b90965094506020870135915080821115612de657600080fd5b50612df387828801612d05565b95989497509550505050565b600060208284031215612e1157600080fd5b5035919050565b6020808252825182820181905260009190848201906040850190845b81811015612e5457835161ffff1683529284019291840191600101612e34565b50909695505050505050565b803561ffff81168114612afe57600080fd5b600060208284031215612e8457600080fd5b6129f882612e60565b6000806000806000806000806080898b031215612ea957600080fd5b883567ffffffffffffffff80821115612ec157600080fd5b612ecd8c838d01612d05565b909a50985060208b0135915080821115612ee657600080fd5b612ef28c838d01612d05565b909850965060408b0135915080821115612f0b57600080fd5b612f178c838d01612d05565b909650945060608b0135915080821115612f3057600080fd5b50612f3d8b828c01612d05565b999c989b5096995094979396929594505050565b60006020808385031215612f6457600080fd5b823567ffffffffffffffff80821115612f7c57600080fd5b818501915085601f830112612f9057600080fd5b813581811115612fa257612fa2612c05565b8060051b9150612fb3848301612c1b565b8181529183018401918481019088841115612fcd57600080fd5b938501935b83851015612ff257612fe385612e60565b82529385019390850190612fd2565b98975050505050505050565b60208152600060018060a01b03808451166020840152602084015160c0604085015261302d60e0850182612b6e565b90506040850151601f1985830301606086015261304a8282612b6e565b91505060ff60608601511660808501528160808601511660a085015260a0850151151560c0850152809250505092915050565b6020808252825182820181905260009190848201906040850190845b81811015612e545783516001600160a01b031683529284019291840191600101613099565b634e487b7160e01b600052603260045260246000fd5b634e487b7160e01b600052601160045260246000fd5b818103818111156129d9576129d96130d4565b634e487b7160e01b600052603160045260246000fd5b600060018201613125576131256130d4565b5060010190565b600181811c9082168061314057607f821691505b60208210810361316057634e487b7160e01b600052602260045260246000fd5b50919050565b6020808252602c908201527f46756e6374696f6e206d7573742062652063616c6c6564207468726f7567682060408201526b19195b1959d85d1958d85b1b60a21b606082015260800190565b6020808252602c908201527f46756e6374696f6e206d7573742062652063616c6c6564207468726f7567682060408201526b6163746976652070726f787960a01b606082015260800190565b600060ff821660ff8103613214576132146130d4565b60010192915050565b60006020828403121561322f57600080fd5b815167ffffffffffffffff81111561324657600080fd5b8201601f8101841361325757600080fd5b8051613265612ccb82612c4c565b81815285602083850101111561327a57600080fd5b61328b826020830160208601612b4a565b95945050505050565b601f8211156113fb57600081815260208120601f850160051c810160208610156132bb5750805b601f850160051c820191505b818110156132da578281556001016132c7565b505050505050565b815167ffffffffffffffff8111156132fc576132fc612c05565b6133108161330a845461312c565b84613294565b602080601f831160018114613345576000841561332d5750858301515b600019600386901b1c1916600185901b1785556132da565b600085815260208120601f198616915b8281101561337457888601518255948401946001909101908401613355565b50858210156133925787850151600019600388901b60f8161c191681555b5050505050600190811b01905550565b6000602082840312156133b457600080fd5b81516129f881612b1e565b6000808335601e198436030181126133d657600080fd5b83018035915067ffffffffffffffff8211156133f157600080fd5b602001915036819003821315612d4a57600080fd5b67ffffffffffffffff83111561341e5761341e612c05565b6134328361342c835461312c565b83613294565b6000601f841160018114613466576000851561344e5750838201355b600019600387901b1c1916600186901b1783556118c8565b600083815260209020601f19861690835b828110156134975786850135825560209485019460019092019101613477565b50868210156134b45760001960f88860031b161c19848701351681555b505060018560011b0183555050505050565b6000602082840312156134d857600080fd5b5051919050565b6020808252602b908201527f496e697469616c697a61626c653a20636f6e7472616374206973206e6f74206960408201526a6e697469616c697a696e6760a81b606082015260800190565b6000825161353c818460208701612b4a565b9190910192915050565b6020815260006129f86020830184612b6e56fe360894a13ba1a3210667c828492db98dca3e2076cc3735a920a3ca505d382bbc416464726573733a206c6f772d6c6576656c2064656c65676174652063616c6c206661696c6564a2646970667358221220d9d9f51eea566867ec04f56247ce2b2464e19e98ba84cc1d7d5a99bb0500915964736f6c63430008120033","opcodes":"PUSH1 0xA0 PUSH1 0x40 MSTORE ADDRESS PUSH1 0x80 MSTORE CALLVALUE DUP1 ISZERO PUSH2 0x14 JUMPI PUSH1 0x0 DUP1 REVERT JUMPDEST POP PUSH1 0x80 MLOAD PUSH2 0x35D6 PUSH2 0x4C PUSH1 0x0 CODECOPY PUSH1 0x0 DUP2 DUP2 PUSH2 0x1048 ADD MSTORE DUP2 DUP2 PUSH2 0x1091 ADD MSTORE DUP2 DUP2 PUSH2 0x1198 ADD MSTORE DUP2 DUP2 PUSH2 0x11D8 ADD MSTORE PUSH2 0x1267 ADD MSTORE PUSH2 0x35D6 PUSH1 0x0 RETURN INVALID PUSH1 0x80 PUSH1 0x40 MSTORE PUSH1 0x4 CALLDATASIZE LT PUSH2 0x404 JUMPI PUSH1 0x0 CALLDATALOAD PUSH1 0xE0 SHR DUP1 PUSH4 0x880C0EC3 GT PUSH2 0x213 JUMPI DUP1 PUSH4 0xB7A26620 GT PUSH2 0x123 JUMPI DUP1 PUSH4 0xE371C5C5 GT PUSH2 0xAB JUMPI DUP1 PUSH4 0xE7CCA9C7 GT PUSH2 0x7A JUMPI DUP1 PUSH4 0xE7CCA9C7 EQ PUSH2 0xC5A JUMPI DUP1 PUSH4 0xEB758BC7 EQ PUSH2 0xC7D JUMPI DUP1 PUSH4 0xF2A90121 EQ PUSH2 0xC9D JUMPI DUP1 PUSH4 0xF2FDE38B EQ PUSH2 0xCBD JUMPI DUP1 PUSH4 0xFFC43F8F EQ PUSH2 0xCDD JUMPI PUSH1 0x0 DUP1 REVERT JUMPDEST DUP1 PUSH4 0xE371C5C5 EQ PUSH2 0xBD5 JUMPI DUP1 PUSH4 0xE4203183 EQ PUSH2 0xBF5 JUMPI DUP1 PUSH4 0xE7016717 EQ PUSH2 0xC15 JUMPI DUP1 PUSH4 0xE74AF32E EQ PUSH2 0xC2D JUMPI PUSH1 0x0 DUP1 REVERT JUMPDEST DUP1 PUSH4 0xC391D636 GT PUSH2 0xF2 JUMPI DUP1 PUSH4 0xC391D636 EQ PUSH2 0xB39 JUMPI DUP1 PUSH4 0xD54FCD93 EQ PUSH2 0xB57 JUMPI DUP1 PUSH4 0xDCF6E819 EQ PUSH2 0xB77 JUMPI DUP1 PUSH4 0xE091099C EQ PUSH2 0xB97 JUMPI DUP1 PUSH4 0xE179719A EQ PUSH2 0xBB6 JUMPI PUSH1 0x0 DUP1 REVERT JUMPDEST DUP1 PUSH4 0xB7A26620 EQ PUSH2 0xAB5 JUMPI DUP1 PUSH4 0xB9CD1A50 EQ PUSH2 0xAD5 JUMPI DUP1 PUSH4 0xBCB03B57 EQ PUSH2 0xAF4 JUMPI DUP1 PUSH4 0xBEB22A20 EQ PUSH2 0xB14 JUMPI PUSH1 0x0 DUP1 REVERT JUMPDEST DUP1 PUSH4 0xA46868F0 GT PUSH2 0x1A6 JUMPI DUP1 PUSH4 0xAF2D4D09 GT PUSH2 0x175 JUMPI DUP1 PUSH4 0xAF2D4D09 EQ PUSH2 0xA22 JUMPI DUP1 PUSH4 0xB2E6B912 EQ PUSH2 0xA42 JUMPI DUP1 PUSH4 0xB6443562 EQ PUSH2 0xA61 JUMPI DUP1 PUSH4 0xB6B248DE EQ PUSH2 0xA81 JUMPI DUP1 PUSH4 0xB70C14F8 EQ PUSH2 0xAA0 JUMPI PUSH1 0x0 DUP1 REVERT JUMPDEST DUP1 PUSH4 0xA46868F0 EQ PUSH2 0x9A2 JUMPI DUP1 PUSH4 0xA61A4FF3 EQ PUSH2 0x9C2 JUMPI DUP1 PUSH4 0xA646E845 EQ PUSH2 0x9E2 JUMPI DUP1 PUSH4 0xAC40E309 EQ PUSH2 0xA02 JUMPI PUSH1 0x0 DUP1 REVERT JUMPDEST DUP1 PUSH4 0x93CEE9C9 GT PUSH2 0x1E2 JUMPI DUP1 PUSH4 0x93CEE9C9 EQ PUSH2 0x923 JUMPI DUP1 PUSH4 0x94DEBF48 EQ PUSH2 0x943 JUMPI DUP1 PUSH4 0x9F6D8870 EQ PUSH2 0x963 JUMPI DUP1 PUSH4 0xA43AE408 EQ PUSH2 0x982 JUMPI PUSH1 0x0 DUP1 REVERT JUMPDEST DUP1 PUSH4 0x880C0EC3 EQ PUSH2 0x8A4 JUMPI DUP1 PUSH4 0x8DA5CB5B EQ PUSH2 0x8C4 JUMPI DUP1 PUSH4 0x916452AB EQ PUSH2 0x8E2 JUMPI DUP1 PUSH4 0x918A54DB EQ PUSH2 0x901 JUMPI PUSH1 0x0 DUP1 REVERT JUMPDEST DUP1 PUSH4 0x4F1EF286 GT PUSH2 0x319 JUMPI DUP1 PUSH4 0x658918E0 GT PUSH2 0x2A1 JUMPI DUP1 PUSH4 0x715018A6 GT PUSH2 0x270 JUMPI DUP1 PUSH4 0x715018A6 EQ PUSH2 0x801 JUMPI DUP1 PUSH4 0x75151B63 EQ PUSH2 0x816 JUMPI DUP1 PUSH4 0x8129FC1C EQ PUSH2 0x85A JUMPI DUP1 PUSH4 0x8456CB59 EQ PUSH2 0x86F JUMPI DUP1 PUSH4 0x8790C4F8 EQ PUSH2 0x884 JUMPI PUSH1 0x0 DUP1 REVERT JUMPDEST DUP1 PUSH4 0x658918E0 EQ PUSH2 0x782 JUMPI DUP1 PUSH4 0x65EB204D EQ PUSH2 0x7A2 JUMPI DUP1 PUSH4 0x6CF3C676 EQ PUSH2 0x7C1 JUMPI DUP1 PUSH4 0x707D9AFE EQ PUSH2 0x7E1 JUMPI PUSH1 0x0 DUP1 REVERT JUMPDEST DUP1 PUSH4 0x587D2C14 GT PUSH2 0x2E8 JUMPI DUP1 PUSH4 0x587D2C14 EQ PUSH2 0x6EB JUMPI DUP1 PUSH4 0x5C975ABB EQ PUSH2 0x70B JUMPI DUP1 PUSH4 0x5D9BED63 EQ PUSH2 0x723 JUMPI DUP1 PUSH4 0x5F3AD6E2 EQ PUSH2 0x743 JUMPI DUP1 PUSH4 0x63C91877 EQ PUSH2 0x762 JUMPI PUSH1 0x0 DUP1 REVERT JUMPDEST DUP1 PUSH4 0x4F1EF286 EQ PUSH2 0x678 JUMPI DUP1 PUSH4 0x52D1902D EQ PUSH2 0x68B JUMPI DUP1 PUSH4 0x5397B86D EQ PUSH2 0x6AE JUMPI DUP1 PUSH4 0x57B88805 EQ PUSH2 0x6CB JUMPI PUSH1 0x0 DUP1 REVERT JUMPDEST DUP1 PUSH4 0x2F8C7E72 GT PUSH2 0x39C JUMPI DUP1 PUSH4 0x39E0DCFA GT PUSH2 0x36B JUMPI DUP1 PUSH4 0x39E0DCFA EQ PUSH2 0x5E6 JUMPI DUP1 PUSH4 0x3F4BA83A EQ PUSH2 0x606 JUMPI DUP1 PUSH4 0x3FAE6A11 EQ PUSH2 0x61B JUMPI DUP1 PUSH4 0x4B92FB12 EQ PUSH2 0x63A JUMPI DUP1 PUSH4 0x4CCEBD50 EQ PUSH2 0x658 JUMPI PUSH1 0x0 DUP1 REVERT JUMPDEST DUP1 PUSH4 0x2F8C7E72 EQ PUSH2 0x541 JUMPI DUP1 PUSH4 0x31D4465B EQ PUSH2 0x57B JUMPI DUP1 PUSH4 0x3238C16F EQ PUSH2 0x59A JUMPI DUP1 PUSH4 0x3659CFE6 EQ PUSH2 0x5C6 JUMPI PUSH1 0x0 DUP1 REVERT JUMPDEST DUP1 PUSH4 0x1F1EEEC8 GT PUSH2 0x3D8 JUMPI DUP1 PUSH4 0x1F1EEEC8 EQ PUSH2 0x4AC JUMPI DUP1 PUSH4 0x24883508 EQ PUSH2 0x4CE JUMPI DUP1 PUSH4 0x2B70C02C EQ PUSH2 0x501 JUMPI DUP1 PUSH4 0x2C1E816D EQ PUSH2 0x521 JUMPI PUSH1 0x0 DUP1 REVERT JUMPDEST DUP1 PUSH3 0xB29290 EQ PUSH2 0x409 JUMPI DUP1 PUSH4 0x8FCFBBE EQ PUSH2 0x42B JUMPI DUP1 PUSH4 0xEFC12B1 EQ PUSH2 0x44B JUMPI DUP1 PUSH4 0x16DD07E0 EQ PUSH2 0x481 JUMPI JUMPDEST PUSH1 0x0 DUP1 REVERT JUMPDEST CALLVALUE DUP1 ISZERO PUSH2 0x415 JUMPI PUSH1 0x0 DUP1 REVERT JUMPDEST POP PUSH2 0x429 PUSH2 0x424 CALLDATASIZE PUSH1 0x4 PUSH2 0x2B03 JUMP JUMPDEST PUSH2 0xCFF JUMP JUMPDEST STOP JUMPDEST CALLVALUE DUP1 ISZERO PUSH2 0x437 JUMPI PUSH1 0x0 DUP1 REVERT JUMPDEST POP PUSH2 0x429 PUSH2 0x446 CALLDATASIZE PUSH1 0x4 PUSH2 0x2B03 JUMP JUMPDEST PUSH2 0xEDF JUMP JUMPDEST CALLVALUE DUP1 ISZERO PUSH2 0x457 JUMPI PUSH1 0x0 DUP1 REVERT JUMPDEST POP PUSH2 0x46B PUSH2 0x466 CALLDATASIZE PUSH1 0x4 PUSH2 0x2B2D JUMP JUMPDEST PUSH2 0xF0A JUMP JUMPDEST PUSH1 0x40 MLOAD PUSH2 0x478 SWAP2 SWAP1 PUSH2 0x2B9A JUMP JUMPDEST PUSH1 0x40 MLOAD DUP1 SWAP2 SUB SWAP1 RETURN JUMPDEST CALLVALUE DUP1 ISZERO PUSH2 0x48D JUMPI PUSH1 0x0 DUP1 REVERT JUMPDEST POP PUSH1 0xFE SLOAD PUSH1 0x1 PUSH1 0x38 SHL SWAP1 DIV PUSH1 0xFF AND JUMPDEST PUSH1 0x40 MLOAD SWAP1 ISZERO ISZERO DUP2 MSTORE PUSH1 0x20 ADD PUSH2 0x478 JUMP JUMPDEST CALLVALUE DUP1 ISZERO PUSH2 0x4B8 JUMPI PUSH1 0x0 DUP1 REVERT JUMPDEST POP PUSH1 0xFE SLOAD PUSH7 0x1000000000000 SWAP1 DIV PUSH1 0xFF AND PUSH2 0x49C JUMP JUMPDEST CALLVALUE DUP1 ISZERO PUSH2 0x4DA JUMPI PUSH1 0x0 DUP1 REVERT JUMPDEST POP PUSH2 0x105 SLOAD PUSH1 0x1 PUSH1 0x1 PUSH1 0xA0 SHL SUB AND JUMPDEST PUSH1 0x40 MLOAD PUSH1 0x1 PUSH1 0x1 PUSH1 0xA0 SHL SUB SWAP1 SWAP2 AND DUP2 MSTORE PUSH1 0x20 ADD PUSH2 0x478 JUMP JUMPDEST CALLVALUE DUP1 ISZERO PUSH2 0x50D JUMPI PUSH1 0x0 DUP1 REVERT JUMPDEST POP PUSH1 0xFE SLOAD PUSH5 0x100000000 SWAP1 DIV PUSH1 0xFF AND PUSH2 0x49C JUMP JUMPDEST CALLVALUE DUP1 ISZERO PUSH2 0x52D JUMPI PUSH1 0x0 DUP1 REVERT JUMPDEST POP PUSH2 0x429 PUSH2 0x53C CALLDATASIZE PUSH1 0x4 PUSH2 0x2B03 JUMP JUMPDEST PUSH2 0x1013 JUMP JUMPDEST CALLVALUE DUP1 ISZERO PUSH2 0x54D JUMPI PUSH1 0x0 DUP1 REVERT JUMPDEST POP PUSH2 0x49C PUSH2 0x55C CALLDATASIZE PUSH1 0x4 PUSH2 0x2B03 JUMP JUMPDEST PUSH1 0x1 PUSH1 0x1 PUSH1 0xA0 SHL SUB AND PUSH1 0x0 SWAP1 DUP2 MSTORE PUSH2 0x10A PUSH1 0x20 MSTORE PUSH1 0x40 SWAP1 KECCAK256 SLOAD PUSH1 0xFF AND SWAP1 JUMP JUMPDEST CALLVALUE DUP1 ISZERO PUSH2 0x587 JUMPI PUSH1 0x0 DUP1 REVERT JUMPDEST POP PUSH2 0x102 SLOAD PUSH1 0x1 PUSH1 0x1 PUSH1 0xA0 SHL SUB AND PUSH2 0x4E9 JUMP JUMPDEST CALLVALUE DUP1 ISZERO PUSH2 0x5A6 JUMPI PUSH1 0x0 DUP1 REVERT JUMPDEST POP PUSH1 0xFE SLOAD PUSH3 0x10000 SWAP1 DIV PUSH1 0xFF AND JUMPDEST PUSH1 0x40 MLOAD PUSH1 0xFF SWAP1 SWAP2 AND DUP2 MSTORE PUSH1 0x20 ADD PUSH2 0x478 JUMP JUMPDEST CALLVALUE DUP1 ISZERO PUSH2 0x5D2 JUMPI PUSH1 0x0 DUP1 REVERT JUMPDEST POP PUSH2 0x429 PUSH2 0x5E1 CALLDATASIZE PUSH1 0x4 PUSH2 0x2B03 JUMP JUMPDEST PUSH2 0x103E JUMP JUMPDEST CALLVALUE DUP1 ISZERO PUSH2 0x5F2 JUMPI PUSH1 0x0 DUP1 REVERT JUMPDEST POP PUSH2 0x429 PUSH2 0x601 CALLDATASIZE PUSH1 0x4 PUSH2 0x2BE3 JUMP JUMPDEST PUSH2 0x1126 JUMP JUMPDEST CALLVALUE DUP1 ISZERO PUSH2 0x612 JUMPI PUSH1 0x0 DUP1 REVERT JUMPDEST POP PUSH2 0x429 PUSH2 0x1150 JUMP JUMPDEST CALLVALUE DUP1 ISZERO PUSH2 0x627 JUMPI PUSH1 0x0 DUP1 REVERT JUMPDEST POP PUSH1 0xFE SLOAD PUSH1 0x1 PUSH1 0x28 SHL SWAP1 DIV PUSH1 0xFF AND PUSH2 0x49C JUMP JUMPDEST CALLVALUE DUP1 ISZERO PUSH2 0x646 JUMPI PUSH1 0x0 DUP1 REVERT JUMPDEST POP PUSH1 0xFF SLOAD PUSH1 0x1 PUSH1 0x1 PUSH1 0xA0 SHL SUB AND PUSH2 0x4E9 JUMP JUMPDEST CALLVALUE DUP1 ISZERO PUSH2 0x664 JUMPI PUSH1 0x0 DUP1 REVERT JUMPDEST POP PUSH2 0x429 PUSH2 0x673 CALLDATASIZE PUSH1 0x4 PUSH2 0x2BE3 JUMP JUMPDEST PUSH2 0x1162 JUMP JUMPDEST PUSH2 0x429 PUSH2 0x686 CALLDATASIZE PUSH1 0x4 PUSH2 0x2C74 JUMP JUMPDEST PUSH2 0x118E JUMP JUMPDEST CALLVALUE DUP1 ISZERO PUSH2 0x697 JUMPI PUSH1 0x0 DUP1 REVERT JUMPDEST POP PUSH2 0x6A0 PUSH2 0x125A JUMP JUMPDEST PUSH1 0x40 MLOAD SWAP1 DUP2 MSTORE PUSH1 0x20 ADD PUSH2 0x478 JUMP JUMPDEST CALLVALUE DUP1 ISZERO PUSH2 0x6BA JUMPI PUSH1 0x0 DUP1 REVERT JUMPDEST POP PUSH1 0xFE SLOAD PUSH2 0x100 SWAP1 DIV PUSH1 0xFF AND PUSH2 0x5B4 JUMP JUMPDEST CALLVALUE DUP1 ISZERO PUSH2 0x6D7 JUMPI PUSH1 0x0 DUP1 REVERT JUMPDEST POP PUSH2 0x429 PUSH2 0x6E6 CALLDATASIZE PUSH1 0x4 PUSH2 0x2D51 JUMP JUMPDEST PUSH2 0x130D JUMP JUMPDEST CALLVALUE DUP1 ISZERO PUSH2 0x6F7 JUMPI PUSH1 0x0 DUP1 REVERT JUMPDEST POP PUSH2 0x429 PUSH2 0x706 CALLDATASIZE PUSH1 0x4 PUSH2 0x2D93 JUMP JUMPDEST PUSH2 0x1400 JUMP JUMPDEST CALLVALUE DUP1 ISZERO PUSH2 0x717 JUMPI PUSH1 0x0 DUP1 REVERT JUMPDEST POP PUSH1 0x33 SLOAD PUSH1 0xFF AND PUSH2 0x49C JUMP JUMPDEST CALLVALUE DUP1 ISZERO PUSH2 0x72F JUMPI PUSH1 0x0 DUP1 REVERT JUMPDEST POP PUSH2 0x429 PUSH2 0x73E CALLDATASIZE PUSH1 0x4 PUSH2 0x2BE3 JUMP JUMPDEST PUSH2 0x18CF JUMP JUMPDEST CALLVALUE DUP1 ISZERO PUSH2 0x74F JUMPI PUSH1 0x0 DUP1 REVERT JUMPDEST POP PUSH1 0xFC SLOAD PUSH4 0x1000000 SWAP1 DIV PUSH1 0xFF AND PUSH2 0x5B4 JUMP JUMPDEST CALLVALUE DUP1 ISZERO PUSH2 0x76E JUMPI PUSH1 0x0 DUP1 REVERT JUMPDEST POP PUSH2 0x4E9 PUSH2 0x77D CALLDATASIZE PUSH1 0x4 PUSH2 0x2DFF JUMP JUMPDEST PUSH2 0x18FA JUMP JUMPDEST CALLVALUE DUP1 ISZERO PUSH2 0x78E JUMPI PUSH1 0x0 DUP1 REVERT JUMPDEST POP PUSH2 0x429 PUSH2 0x79D CALLDATASIZE PUSH1 0x4 PUSH2 0x2B03 JUMP JUMPDEST PUSH2 0x1925 JUMP JUMPDEST CALLVALUE DUP1 ISZERO PUSH2 0x7AE JUMPI PUSH1 0x0 DUP1 REVERT JUMPDEST POP PUSH2 0x100 SLOAD PUSH1 0x1 PUSH1 0x1 PUSH1 0xA0 SHL SUB AND PUSH2 0x4E9 JUMP JUMPDEST CALLVALUE DUP1 ISZERO PUSH2 0x7CD JUMPI PUSH1 0x0 DUP1 REVERT JUMPDEST POP PUSH2 0x429 PUSH2 0x7DC CALLDATASIZE PUSH1 0x4 PUSH2 0x2B2D JUMP JUMPDEST PUSH2 0x1950 JUMP JUMPDEST CALLVALUE DUP1 ISZERO PUSH2 0x7ED JUMPI PUSH1 0x0 DUP1 REVERT JUMPDEST POP PUSH2 0x429 PUSH2 0x7FC CALLDATASIZE PUSH1 0x4 PUSH2 0x2B03 JUMP JUMPDEST PUSH2 0x1976 JUMP JUMPDEST CALLVALUE DUP1 ISZERO PUSH2 0x80D JUMPI PUSH1 0x0 DUP1 REVERT JUMPDEST POP PUSH2 0x429 PUSH2 0x19A1 JUMP JUMPDEST CALLVALUE DUP1 ISZERO PUSH2 0x822 JUMPI PUSH1 0x0 DUP1 REVERT JUMPDEST POP PUSH2 0x49C PUSH2 0x831 CALLDATASIZE PUSH1 0x4 PUSH2 0x2B03 JUMP JUMPDEST PUSH1 0x1 PUSH1 0x1 PUSH1 0xA0 SHL SUB AND PUSH1 0x0 SWAP1 DUP2 MSTORE PUSH2 0x109 PUSH1 0x20 MSTORE PUSH1 0x40 SWAP1 KECCAK256 PUSH1 0x3 ADD SLOAD PUSH1 0x1 PUSH1 0xA8 SHL SWAP1 DIV PUSH1 0xFF AND SWAP1 JUMP JUMPDEST CALLVALUE DUP1 ISZERO PUSH2 0x866 JUMPI PUSH1 0x0 DUP1 REVERT JUMPDEST POP PUSH2 0x429 PUSH2 0x19B3 JUMP JUMPDEST CALLVALUE DUP1 ISZERO PUSH2 0x87B JUMPI PUSH1 0x0 DUP1 REVERT JUMPDEST POP PUSH2 0x429 PUSH2 0x1B75 JUMP JUMPDEST CALLVALUE DUP1 ISZERO PUSH2 0x890 JUMPI PUSH1 0x0 DUP1 REVERT JUMPDEST POP PUSH2 0x429 PUSH2 0x89F CALLDATASIZE PUSH1 0x4 PUSH2 0x2B03 JUMP JUMPDEST PUSH2 0x1B85 JUMP JUMPDEST CALLVALUE DUP1 ISZERO PUSH2 0x8B0 JUMPI PUSH1 0x0 DUP1 REVERT JUMPDEST POP PUSH2 0x429 PUSH2 0x8BF CALLDATASIZE PUSH1 0x4 PUSH2 0x2B2D JUMP JUMPDEST PUSH2 0x1BAF JUMP JUMPDEST CALLVALUE DUP1 ISZERO PUSH2 0x8D0 JUMPI PUSH1 0x0 DUP1 REVERT JUMPDEST POP PUSH1 0x65 SLOAD PUSH1 0x1 PUSH1 0x1 PUSH1 0xA0 SHL SUB AND PUSH2 0x4E9 JUMP JUMPDEST CALLVALUE DUP1 ISZERO PUSH2 0x8EE JUMPI PUSH1 0x0 DUP1 REVERT JUMPDEST POP PUSH2 0x101 SLOAD PUSH1 0x1 PUSH1 0x1 PUSH1 0xA0 SHL SUB AND PUSH2 0x4E9 JUMP JUMPDEST CALLVALUE DUP1 ISZERO PUSH2 0x90D JUMPI PUSH1 0x0 DUP1 REVERT JUMPDEST POP PUSH2 0x916 PUSH2 0x1BCD JUMP JUMPDEST PUSH1 0x40 MLOAD PUSH2 0x478 SWAP2 SWAP1 PUSH2 0x2E18 JUMP JUMPDEST CALLVALUE DUP1 ISZERO PUSH2 0x92F JUMPI PUSH1 0x0 DUP1 REVERT JUMPDEST POP PUSH2 0x429 PUSH2 0x93E CALLDATASIZE PUSH1 0x4 PUSH2 0x2BE3 JUMP JUMPDEST PUSH2 0x1C4D JUMP JUMPDEST CALLVALUE DUP1 ISZERO PUSH2 0x94F JUMPI PUSH1 0x0 DUP1 REVERT JUMPDEST POP PUSH2 0x429 PUSH2 0x95E CALLDATASIZE PUSH1 0x4 PUSH2 0x2B2D JUMP JUMPDEST PUSH2 0x1C79 JUMP JUMPDEST CALLVALUE DUP1 ISZERO PUSH2 0x96F JUMPI PUSH1 0x0 DUP1 REVERT JUMPDEST POP PUSH1 0xFE SLOAD PUSH1 0x1 PUSH1 0x40 SHL SWAP1 DIV PUSH1 0xFF AND PUSH2 0x49C JUMP JUMPDEST CALLVALUE DUP1 ISZERO PUSH2 0x98E JUMPI PUSH1 0x0 DUP1 REVERT JUMPDEST POP PUSH2 0x429 PUSH2 0x99D CALLDATASIZE PUSH1 0x4 PUSH2 0x2E72 JUMP JUMPDEST PUSH2 0x1CA1 JUMP JUMPDEST CALLVALUE DUP1 ISZERO PUSH2 0x9AE JUMPI PUSH1 0x0 DUP1 REVERT JUMPDEST POP PUSH1 0xFC SLOAD PUSH5 0x100000000 SWAP1 DIV PUSH1 0xFF AND PUSH2 0x5B4 JUMP JUMPDEST CALLVALUE DUP1 ISZERO PUSH2 0x9CE JUMPI PUSH1 0x0 DUP1 REVERT JUMPDEST POP PUSH2 0x429 PUSH2 0x9DD CALLDATASIZE PUSH1 0x4 PUSH2 0x2B2D JUMP JUMPDEST PUSH2 0x1CC1 JUMP JUMPDEST CALLVALUE DUP1 ISZERO PUSH2 0x9EE JUMPI PUSH1 0x0 DUP1 REVERT JUMPDEST POP PUSH2 0x429 PUSH2 0x9FD CALLDATASIZE PUSH1 0x4 PUSH2 0x2B2D JUMP JUMPDEST PUSH2 0x1CE7 JUMP JUMPDEST CALLVALUE DUP1 ISZERO PUSH2 0xA0E JUMPI PUSH1 0x0 DUP1 REVERT JUMPDEST POP PUSH2 0x429 PUSH2 0xA1D CALLDATASIZE PUSH1 0x4 PUSH2 0x2B2D JUMP JUMPDEST PUSH2 0x1D0B JUMP JUMPDEST CALLVALUE DUP1 ISZERO PUSH2 0xA2E JUMPI PUSH1 0x0 DUP1 REVERT JUMPDEST POP PUSH2 0x429 PUSH2 0xA3D CALLDATASIZE PUSH1 0x4 PUSH2 0x2B2D JUMP JUMPDEST PUSH2 0x1D35 JUMP JUMPDEST CALLVALUE DUP1 ISZERO PUSH2 0xA4E JUMPI PUSH1 0x0 DUP1 REVERT JUMPDEST POP PUSH2 0x107 SLOAD PUSH1 0x1 PUSH1 0x1 PUSH1 0xA0 SHL SUB AND PUSH2 0x4E9 JUMP JUMPDEST CALLVALUE DUP1 ISZERO PUSH2 0xA6D JUMPI PUSH1 0x0 DUP1 REVERT JUMPDEST POP PUSH2 0x429 PUSH2 0xA7C CALLDATASIZE PUSH1 0x4 PUSH2 0x2BE3 JUMP JUMPDEST PUSH2 0x1D5F JUMP JUMPDEST CALLVALUE DUP1 ISZERO PUSH2 0xA8D JUMPI PUSH1 0x0 DUP1 REVERT JUMPDEST POP PUSH2 0x106 SLOAD PUSH1 0x1 PUSH1 0x1 PUSH1 0xA0 SHL SUB AND PUSH2 0x4E9 JUMP JUMPDEST CALLVALUE DUP1 ISZERO PUSH2 0xAAC JUMPI PUSH1 0x0 DUP1 REVERT JUMPDEST POP PUSH1 0xFD SLOAD PUSH2 0x6A0 JUMP JUMPDEST CALLVALUE DUP1 ISZERO PUSH2 0xAC1 JUMPI PUSH1 0x0 DUP1 REVERT JUMPDEST POP PUSH2 0x429 PUSH2 0xAD0 CALLDATASIZE PUSH1 0x4 PUSH2 0x2B2D JUMP JUMPDEST PUSH2 0x1D87 JUMP JUMPDEST CALLVALUE DUP1 ISZERO PUSH2 0xAE1 JUMPI PUSH1 0x0 DUP1 REVERT JUMPDEST POP PUSH1 0xFC SLOAD PUSH1 0x1 PUSH1 0x28 SHL SWAP1 DIV PUSH1 0xFF AND PUSH2 0x5B4 JUMP JUMPDEST CALLVALUE DUP1 ISZERO PUSH2 0xB00 JUMPI PUSH1 0x0 DUP1 REVERT JUMPDEST POP PUSH2 0x429 PUSH2 0xB0F CALLDATASIZE PUSH1 0x4 PUSH2 0x2E8D JUMP JUMPDEST PUSH2 0x1DAF JUMP JUMPDEST CALLVALUE DUP1 ISZERO PUSH2 0xB20 JUMPI PUSH1 0x0 DUP1 REVERT JUMPDEST POP PUSH1 0xFE SLOAD PUSH1 0x1 PUSH1 0x50 SHL SWAP1 DIV PUSH1 0x1 PUSH1 0x1 PUSH1 0xA0 SHL SUB AND PUSH2 0x4E9 JUMP JUMPDEST CALLVALUE DUP1 ISZERO PUSH2 0xB45 JUMPI PUSH1 0x0 DUP1 REVERT JUMPDEST POP PUSH1 0xFC SLOAD PUSH3 0x10000 SWAP1 DIV PUSH1 0xFF AND PUSH2 0x5B4 JUMP JUMPDEST CALLVALUE DUP1 ISZERO PUSH2 0xB63 JUMPI PUSH1 0x0 DUP1 REVERT JUMPDEST POP PUSH2 0x429 PUSH2 0xB72 CALLDATASIZE PUSH1 0x4 PUSH2 0x2F51 JUMP JUMPDEST PUSH2 0x1F82 JUMP JUMPDEST CALLVALUE DUP1 ISZERO PUSH2 0xB83 JUMPI PUSH1 0x0 DUP1 REVERT JUMPDEST POP PUSH2 0x429 PUSH2 0xB92 CALLDATASIZE PUSH1 0x4 PUSH2 0x2B03 JUMP JUMPDEST PUSH2 0x1F9D JUMP JUMPDEST CALLVALUE DUP1 ISZERO PUSH2 0xBA3 JUMPI PUSH1 0x0 DUP1 REVERT JUMPDEST POP PUSH1 0xFE SLOAD PUSH4 0x1000000 SWAP1 DIV PUSH1 0xFF AND PUSH2 0x5B4 JUMP JUMPDEST CALLVALUE DUP1 ISZERO PUSH2 0xBC2 JUMPI PUSH1 0x0 DUP1 REVERT JUMPDEST POP PUSH1 0xFE SLOAD PUSH1 0x1 PUSH1 0x48 SHL SWAP1 DIV PUSH1 0xFF AND PUSH2 0x49C JUMP JUMPDEST CALLVALUE DUP1 ISZERO PUSH2 0xBE1 JUMPI PUSH1 0x0 DUP1 REVERT JUMPDEST POP PUSH2 0x429 PUSH2 0xBF0 CALLDATASIZE PUSH1 0x4 PUSH2 0x2B03 JUMP JUMPDEST PUSH2 0x1FC8 JUMP JUMPDEST CALLVALUE DUP1 ISZERO PUSH2 0xC01 JUMPI PUSH1 0x0 DUP1 REVERT JUMPDEST POP PUSH2 0x429 PUSH2 0xC10 CALLDATASIZE PUSH1 0x4 PUSH2 0x2B03 JUMP JUMPDEST PUSH2 0x2091 JUMP JUMPDEST CALLVALUE DUP1 ISZERO PUSH2 0xC21 JUMPI PUSH1 0x0 DUP1 REVERT JUMPDEST POP PUSH1 0xFE SLOAD PUSH1 0xFF AND PUSH2 0x5B4 JUMP JUMPDEST CALLVALUE DUP1 ISZERO PUSH2 0xC39 JUMPI PUSH1 0x0 DUP1 REVERT JUMPDEST POP PUSH2 0xC4D PUSH2 0xC48 CALLDATASIZE PUSH1 0x4 PUSH2 0x2B03 JUMP JUMPDEST PUSH2 0x20DA JUMP JUMPDEST PUSH1 0x40 MLOAD PUSH2 0x478 SWAP2 SWAP1 PUSH2 0x2FFE JUMP JUMPDEST CALLVALUE DUP1 ISZERO PUSH2 0xC66 JUMPI PUSH1 0x0 DUP1 REVERT JUMPDEST POP PUSH1 0xFC SLOAD PUSH1 0x40 MLOAD PUSH2 0xFFFF SWAP1 SWAP2 AND DUP2 MSTORE PUSH1 0x20 ADD PUSH2 0x478 JUMP JUMPDEST CALLVALUE DUP1 ISZERO PUSH2 0xC89 JUMPI PUSH1 0x0 DUP1 REVERT JUMPDEST POP PUSH2 0x429 PUSH2 0xC98 CALLDATASIZE PUSH1 0x4 PUSH2 0x2BE3 JUMP JUMPDEST PUSH2 0x2298 JUMP JUMPDEST CALLVALUE DUP1 ISZERO PUSH2 0xCA9 JUMPI PUSH1 0x0 DUP1 REVERT JUMPDEST POP PUSH2 0x429 PUSH2 0xCB8 CALLDATASIZE PUSH1 0x4 PUSH2 0x2B03 JUMP JUMPDEST PUSH2 0x22C0 JUMP JUMPDEST CALLVALUE DUP1 ISZERO PUSH2 0xCC9 JUMPI PUSH1 0x0 DUP1 REVERT JUMPDEST POP PUSH2 0x429 PUSH2 0xCD8 CALLDATASIZE PUSH1 0x4 PUSH2 0x2B03 JUMP JUMPDEST PUSH2 0x22EB JUMP JUMPDEST CALLVALUE DUP1 ISZERO PUSH2 0xCE9 JUMPI PUSH1 0x0 DUP1 REVERT JUMPDEST POP PUSH2 0xCF2 PUSH2 0x2361 JUMP JUMPDEST PUSH1 0x40 MLOAD PUSH2 0x478 SWAP2 SWAP1 PUSH2 0x307D JUMP JUMPDEST PUSH2 0xD07 PUSH2 0x23C3 JUMP JUMPDEST PUSH1 0x1 PUSH1 0x1 PUSH1 0xA0 SHL SUB DUP2 AND PUSH1 0x0 SWAP1 DUP2 MSTORE PUSH2 0x10A PUSH1 0x20 MSTORE PUSH1 0x40 SWAP1 KECCAK256 SLOAD PUSH1 0xFF AND DUP1 ISZERO PUSH2 0xEDB JUMPI PUSH1 0x1 PUSH1 0x1 PUSH1 0xA0 SHL SUB DUP3 AND PUSH1 0x0 SWAP1 DUP2 MSTORE PUSH2 0x10A PUSH1 0x20 SWAP1 DUP2 MSTORE PUSH1 0x40 DUP1 DUP4 KECCAK256 DUP1 SLOAD PUSH1 0xFF NOT AND SWAP1 SSTORE PUSH2 0x104 DUP1 SLOAD DUP3 MLOAD DUP2 DUP6 MUL DUP2 ADD DUP6 ADD SWAP1 SWAP4 MSTORE DUP1 DUP4 MSTORE SWAP2 SWAP3 SWAP1 SWAP2 SWAP1 DUP4 ADD DUP3 DUP3 DUP1 ISZERO PUSH2 0xDA0 JUMPI PUSH1 0x20 MUL DUP3 ADD SWAP2 SWAP1 PUSH1 0x0 MSTORE PUSH1 0x20 PUSH1 0x0 KECCAK256 SWAP1 JUMPDEST DUP2 SLOAD PUSH1 0x1 PUSH1 0x1 PUSH1 0xA0 SHL SUB AND DUP2 MSTORE PUSH1 0x1 SWAP1 SWAP2 ADD SWAP1 PUSH1 0x20 ADD DUP1 DUP4 GT PUSH2 0xD82 JUMPI JUMPDEST POP POP POP POP POP SWAP1 POP PUSH1 0x0 JUMPDEST DUP2 MLOAD DUP2 LT ISZERO PUSH2 0xED8 JUMPI DUP4 PUSH1 0x1 PUSH1 0x1 PUSH1 0xA0 SHL SUB AND DUP3 DUP3 DUP2 MLOAD DUP2 LT PUSH2 0xDCF JUMPI PUSH2 0xDCF PUSH2 0x30BE JUMP JUMPDEST PUSH1 0x20 MUL PUSH1 0x20 ADD ADD MLOAD PUSH1 0x1 PUSH1 0x1 PUSH1 0xA0 SHL SUB AND SUB PUSH2 0xEC6 JUMPI DUP2 PUSH1 0x1 DUP4 MLOAD PUSH2 0xDF4 SWAP2 SWAP1 PUSH2 0x30EA JUMP JUMPDEST DUP2 MLOAD DUP2 LT PUSH2 0xE04 JUMPI PUSH2 0xE04 PUSH2 0x30BE JUMP JUMPDEST PUSH1 0x20 MUL PUSH1 0x20 ADD ADD MLOAD PUSH2 0x104 DUP3 DUP2 SLOAD DUP2 LT PUSH2 0xE20 JUMPI PUSH2 0xE20 PUSH2 0x30BE JUMP JUMPDEST SWAP1 PUSH1 0x0 MSTORE PUSH1 0x20 PUSH1 0x0 KECCAK256 ADD PUSH1 0x0 PUSH2 0x100 EXP DUP2 SLOAD DUP2 PUSH1 0x1 PUSH1 0x1 PUSH1 0xA0 SHL SUB MUL NOT AND SWAP1 DUP4 PUSH1 0x1 PUSH1 0x1 PUSH1 0xA0 SHL SUB AND MUL OR SWAP1 SSTORE POP PUSH2 0x104 DUP1 SLOAD DUP1 PUSH2 0xE60 JUMPI PUSH2 0xE60 PUSH2 0x30FD JUMP JUMPDEST PUSH1 0x0 DUP3 DUP2 MSTORE PUSH1 0x20 SWAP1 DUP2 SWAP1 KECCAK256 PUSH1 0x0 NOT SWAP1 DUP4 ADD DUP2 ADD DUP1 SLOAD PUSH1 0x1 PUSH1 0x1 PUSH1 0xA0 SHL SUB NOT AND SWAP1 SSTORE SWAP1 SWAP2 ADD SWAP1 SWAP2 SSTORE PUSH1 0x40 MLOAD PUSH1 0x1 PUSH1 0x1 PUSH1 0xA0 SHL SUB DUP7 AND DUP2 MSTORE PUSH32 0x337EEB0192A31DFC3C61AFF0BE47A571A126A9E3F1CAAEE4AF8C29BABBB477E9 SWAP2 ADD PUSH1 0x40 MLOAD DUP1 SWAP2 SUB SWAP1 LOG1 PUSH2 0xED8 JUMP JUMPDEST DUP1 PUSH2 0xED0 DUP2 PUSH2 0x3113 JUMP JUMPDEST SWAP2 POP POP PUSH2 0xDAA JUMP JUMPDEST POP POP JUMPDEST POP POP JUMP JUMPDEST PUSH2 0xEE7 PUSH2 0x23C3 JUMP JUMPDEST PUSH2 0x100 DUP1 SLOAD PUSH1 0x1 PUSH1 0x1 PUSH1 0xA0 SHL SUB NOT AND PUSH1 0x1 PUSH1 0x1 PUSH1 0xA0 SHL SUB SWAP3 SWAP1 SWAP3 AND SWAP2 SWAP1 SWAP2 OR SWAP1 SSTORE JUMP JUMPDEST PUSH2 0xF38 PUSH1 0x40 MLOAD DUP1 PUSH1 0x80 ADD PUSH1 0x40 MSTORE DUP1 PUSH1 0x0 PUSH1 0xFF AND DUP2 MSTORE PUSH1 0x20 ADD PUSH1 0x60 DUP2 MSTORE PUSH1 0x20 ADD PUSH1 0x0 DUP2 MSTORE PUSH1 0x20 ADD PUSH1 0x0 DUP2 MSTORE POP SWAP1 JUMP JUMPDEST PUSH1 0xFF DUP1 DUP4 AND PUSH1 0x0 SWAP1 DUP2 MSTORE PUSH2 0x108 PUSH1 0x20 SWAP1 DUP2 MSTORE PUSH1 0x40 SWAP2 DUP3 SWAP1 KECCAK256 DUP3 MLOAD PUSH1 0x80 DUP2 ADD SWAP1 SWAP4 MSTORE DUP1 SLOAD SWAP1 SWAP4 AND DUP3 MSTORE PUSH1 0x1 DUP4 ADD DUP1 SLOAD SWAP3 SWAP4 SWAP3 SWAP2 DUP5 ADD SWAP2 PUSH2 0xF76 SWAP1 PUSH2 0x312C JUMP JUMPDEST DUP1 PUSH1 0x1F ADD PUSH1 0x20 DUP1 SWAP2 DIV MUL PUSH1 0x20 ADD PUSH1 0x40 MLOAD SWAP1 DUP2 ADD PUSH1 0x40 MSTORE DUP1 SWAP3 SWAP2 SWAP1 DUP2 DUP2 MSTORE PUSH1 0x20 ADD DUP3 DUP1 SLOAD PUSH2 0xFA2 SWAP1 PUSH2 0x312C JUMP JUMPDEST DUP1 ISZERO PUSH2 0xFEF JUMPI DUP1 PUSH1 0x1F LT PUSH2 0xFC4 JUMPI PUSH2 0x100 DUP1 DUP4 SLOAD DIV MUL DUP4 MSTORE SWAP2 PUSH1 0x20 ADD SWAP2 PUSH2 0xFEF JUMP JUMPDEST DUP3 ADD SWAP2 SWAP1 PUSH1 0x0 MSTORE PUSH1 0x20 PUSH1 0x0 KECCAK256 SWAP1 JUMPDEST DUP2 SLOAD DUP2 MSTORE SWAP1 PUSH1 0x1 ADD SWAP1 PUSH1 0x20 ADD DUP1 DUP4 GT PUSH2 0xFD2 JUMPI DUP3 SWAP1 SUB PUSH1 0x1F AND DUP3 ADD SWAP2 JUMPDEST POP POP POP POP POP DUP2 MSTORE PUSH1 0x20 ADD PUSH1 0x2 DUP3 ADD SLOAD DUP2 MSTORE PUSH1 0x20 ADD PUSH1 0x3 DUP3 ADD SLOAD DUP2 MSTORE POP POP SWAP1 POP SWAP2 SWAP1 POP JUMP JUMPDEST PUSH2 0x101B PUSH2 0x23C3 JUMP JUMPDEST PUSH2 0x107 DUP1 SLOAD PUSH1 0x1 PUSH1 0x1 PUSH1 0xA0 SHL SUB NOT AND PUSH1 0x1 PUSH1 0x1 PUSH1 0xA0 SHL SUB SWAP3 SWAP1 SWAP3 AND SWAP2 SWAP1 SWAP2 OR SWAP1 SSTORE JUMP JUMPDEST PUSH1 0x1 PUSH1 0x1 PUSH1 0xA0 SHL SUB PUSH32 0x0 AND ADDRESS SUB PUSH2 0x108F JUMPI PUSH1 0x40 MLOAD PUSH3 0x461BCD PUSH1 0xE5 SHL DUP2 MSTORE PUSH1 0x4 ADD PUSH2 0x1086 SWAP1 PUSH2 0x3166 JUMP JUMPDEST PUSH1 0x40 MLOAD DUP1 SWAP2 SUB SWAP1 REVERT JUMPDEST PUSH32 0x0 PUSH1 0x1 PUSH1 0x1 PUSH1 0xA0 SHL SUB AND PUSH2 0x10D8 PUSH1 0x0 DUP1 MLOAD PUSH1 0x20 PUSH2 0x355A DUP4 CODECOPY DUP2 MLOAD SWAP2 MSTORE SLOAD PUSH1 0x1 PUSH1 0x1 PUSH1 0xA0 SHL SUB AND SWAP1 JUMP JUMPDEST PUSH1 0x1 PUSH1 0x1 PUSH1 0xA0 SHL SUB AND EQ PUSH2 0x10FE JUMPI PUSH1 0x40 MLOAD PUSH3 0x461BCD PUSH1 0xE5 SHL DUP2 MSTORE PUSH1 0x4 ADD PUSH2 0x1086 SWAP1 PUSH2 0x31B2 JUMP JUMPDEST PUSH2 0x1107 DUP2 PUSH2 0x241D JUMP JUMPDEST PUSH1 0x40 DUP1 MLOAD PUSH1 0x0 DUP1 DUP3 MSTORE PUSH1 0x20 DUP3 ADD SWAP1 SWAP3 MSTORE PUSH2 0x1123 SWAP2 DUP4 SWAP2 SWAP1 PUSH2 0x2425 JUMP JUMPDEST POP JUMP JUMPDEST PUSH2 0x112E PUSH2 0x23C3 JUMP JUMPDEST PUSH1 0xFE DUP1 SLOAD SWAP2 ISZERO ISZERO PUSH1 0x1 PUSH1 0x38 SHL MUL PUSH8 0xFF00000000000000 NOT SWAP1 SWAP3 AND SWAP2 SWAP1 SWAP2 OR SWAP1 SSTORE JUMP JUMPDEST PUSH2 0x1158 PUSH2 0x23C3 JUMP JUMPDEST PUSH2 0x1160 PUSH2 0x2590 JUMP JUMPDEST JUMP JUMPDEST PUSH2 0x116A PUSH2 0x23C3 JUMP JUMPDEST PUSH1 0xFE DUP1 SLOAD SWAP2 ISZERO ISZERO PUSH1 0x1 PUSH1 0x48 SHL MUL PUSH10 0xFF000000000000000000 NOT SWAP1 SWAP3 AND SWAP2 SWAP1 SWAP2 OR SWAP1 SSTORE JUMP JUMPDEST PUSH1 0x1 PUSH1 0x1 PUSH1 0xA0 SHL SUB PUSH32 0x0 AND ADDRESS SUB PUSH2 0x11D6 JUMPI PUSH1 0x40 MLOAD PUSH3 0x461BCD PUSH1 0xE5 SHL DUP2 MSTORE PUSH1 0x4 ADD PUSH2 0x1086 SWAP1 PUSH2 0x3166 JUMP JUMPDEST PUSH32 0x0 PUSH1 0x1 PUSH1 0x1 PUSH1 0xA0 SHL SUB AND PUSH2 0x121F PUSH1 0x0 DUP1 MLOAD PUSH1 0x20 PUSH2 0x355A DUP4 CODECOPY DUP2 MLOAD SWAP2 MSTORE SLOAD PUSH1 0x1 PUSH1 0x1 PUSH1 0xA0 SHL SUB AND SWAP1 JUMP JUMPDEST PUSH1 0x1 PUSH1 0x1 PUSH1 0xA0 SHL SUB AND EQ PUSH2 0x1245 JUMPI PUSH1 0x40 MLOAD PUSH3 0x461BCD PUSH1 0xE5 SHL DUP2 MSTORE PUSH1 0x4 ADD PUSH2 0x1086 SWAP1 PUSH2 0x31B2 JUMP JUMPDEST PUSH2 0x124E DUP3 PUSH2 0x241D JUMP JUMPDEST PUSH2 0xEDB DUP3 DUP3 PUSH1 0x1 PUSH2 0x2425 JUMP JUMPDEST PUSH1 0x0 ADDRESS PUSH1 0x1 PUSH1 0x1 PUSH1 0xA0 SHL SUB PUSH32 0x0 AND EQ PUSH2 0x12FA JUMPI PUSH1 0x40 MLOAD PUSH3 0x461BCD PUSH1 0xE5 SHL DUP2 MSTORE PUSH1 0x20 PUSH1 0x4 DUP3 ADD MSTORE PUSH1 0x38 PUSH1 0x24 DUP3 ADD MSTORE PUSH32 0x555550535570677261646561626C653A206D757374206E6F742062652063616C PUSH1 0x44 DUP3 ADD MSTORE PUSH32 0x6C6564207468726F7567682064656C656761746563616C6C0000000000000000 PUSH1 0x64 DUP3 ADD MSTORE PUSH1 0x84 ADD PUSH2 0x1086 JUMP JUMPDEST POP PUSH1 0x0 DUP1 MLOAD PUSH1 0x20 PUSH2 0x355A DUP4 CODECOPY DUP2 MLOAD SWAP2 MSTORE SWAP1 JUMP JUMPDEST PUSH2 0x1315 PUSH2 0x23C3 JUMP JUMPDEST PUSH1 0x0 JUMPDEST PUSH1 0xFF DUP2 AND DUP3 GT ISZERO PUSH2 0x13FB JUMPI PUSH1 0x0 PUSH2 0x109 PUSH1 0x0 DUP6 DUP6 DUP6 PUSH1 0xFF AND DUP2 DUP2 LT PUSH2 0x133F JUMPI PUSH2 0x133F PUSH2 0x30BE JUMP JUMPDEST SWAP1 POP PUSH1 0x20 MUL ADD PUSH1 0x20 DUP2 ADD SWAP1 PUSH2 0x1354 SWAP2 SWAP1 PUSH2 0x2B03 JUMP JUMPDEST PUSH1 0x1 PUSH1 0x1 PUSH1 0xA0 SHL SUB AND DUP2 MSTORE PUSH1 0x20 DUP2 ADD SWAP2 SWAP1 SWAP2 MSTORE PUSH1 0x40 ADD PUSH1 0x0 KECCAK256 PUSH1 0x3 ADD DUP1 SLOAD SWAP2 ISZERO ISZERO PUSH1 0x1 PUSH1 0xA8 SHL MUL PUSH1 0xFF PUSH1 0xA8 SHL NOT SWAP1 SWAP3 AND SWAP2 SWAP1 SWAP2 OR SWAP1 SSTORE PUSH2 0x103 DUP4 DUP4 PUSH1 0xFF DUP5 AND DUP2 DUP2 LT PUSH2 0x13A2 JUMPI PUSH2 0x13A2 PUSH2 0x30BE JUMP JUMPDEST SWAP1 POP PUSH1 0x20 MUL ADD PUSH1 0x20 DUP2 ADD SWAP1 PUSH2 0x13B7 SWAP2 SWAP1 PUSH2 0x2B03 JUMP JUMPDEST DUP2 SLOAD PUSH1 0x1 DUP2 ADD DUP4 SSTORE PUSH1 0x0 SWAP3 DUP4 MSTORE PUSH1 0x20 SWAP1 SWAP3 KECCAK256 SWAP1 SWAP2 ADD DUP1 SLOAD PUSH1 0x1 PUSH1 0x1 PUSH1 0xA0 SHL SUB NOT AND PUSH1 0x1 PUSH1 0x1 PUSH1 0xA0 SHL SUB SWAP1 SWAP3 AND SWAP2 SWAP1 SWAP2 OR SWAP1 SSTORE DUP1 PUSH2 0x13F3 DUP2 PUSH2 0x31FE JUMP JUMPDEST SWAP2 POP POP PUSH2 0x1318 JUMP JUMPDEST POP POP POP JUMP JUMPDEST PUSH2 0x1408 PUSH2 0x23C3 JUMP JUMPDEST PUSH1 0x0 JUMPDEST PUSH1 0xFF DUP2 AND DUP5 GT ISZERO PUSH2 0x18C8 JUMPI DUP5 DUP5 DUP3 PUSH1 0xFF AND DUP2 DUP2 LT PUSH2 0x142B JUMPI PUSH2 0x142B PUSH2 0x30BE JUMP JUMPDEST SWAP1 POP PUSH1 0x20 MUL ADD PUSH1 0x20 DUP2 ADD SWAP1 PUSH2 0x1440 SWAP2 SWAP1 PUSH2 0x2B03 JUMP JUMPDEST PUSH2 0x109 PUSH1 0x0 DUP8 DUP8 DUP6 PUSH1 0xFF AND DUP2 DUP2 LT PUSH2 0x145A JUMPI PUSH2 0x145A PUSH2 0x30BE JUMP JUMPDEST SWAP1 POP PUSH1 0x20 MUL ADD PUSH1 0x20 DUP2 ADD SWAP1 PUSH2 0x146F SWAP2 SWAP1 PUSH2 0x2B03 JUMP JUMPDEST PUSH1 0x1 PUSH1 0x1 PUSH1 0xA0 SHL SUB SWAP1 DUP2 AND DUP3 MSTORE PUSH1 0x20 DUP3 ADD SWAP3 SWAP1 SWAP3 MSTORE PUSH1 0x40 ADD PUSH1 0x0 KECCAK256 DUP1 SLOAD PUSH1 0x1 PUSH1 0x1 PUSH1 0xA0 SHL SUB NOT AND SWAP3 SWAP1 SWAP2 AND SWAP2 SWAP1 SWAP2 OR SWAP1 SSTORE DUP5 DUP5 PUSH1 0xFF DUP4 AND DUP2 DUP2 LT PUSH2 0x14B5 JUMPI PUSH2 0x14B5 PUSH2 0x30BE JUMP JUMPDEST SWAP1 POP PUSH1 0x20 MUL ADD PUSH1 0x20 DUP2 ADD SWAP1 PUSH2 0x14CA SWAP2 SWAP1 PUSH2 0x2B03 JUMP JUMPDEST PUSH1 0x1 PUSH1 0x1 PUSH1 0xA0 SHL SUB AND PUSH4 0x6FDDE03 PUSH1 0x40 MLOAD DUP2 PUSH4 0xFFFFFFFF AND PUSH1 0xE0 SHL DUP2 MSTORE PUSH1 0x4 ADD PUSH1 0x0 PUSH1 0x40 MLOAD DUP1 DUP4 SUB DUP2 DUP7 GAS STATICCALL ISZERO DUP1 ISZERO PUSH2 0x1507 JUMPI RETURNDATASIZE PUSH1 0x0 DUP1 RETURNDATACOPY RETURNDATASIZE PUSH1 0x0 REVERT JUMPDEST POP POP POP POP PUSH1 0x40 MLOAD RETURNDATASIZE PUSH1 0x0 DUP3 RETURNDATACOPY PUSH1 0x1F RETURNDATASIZE SWAP1 DUP2 ADD PUSH1 0x1F NOT AND DUP3 ADD PUSH1 0x40 MSTORE PUSH2 0x152F SWAP2 SWAP1 DUP2 ADD SWAP1 PUSH2 0x321D JUMP JUMPDEST PUSH2 0x109 PUSH1 0x0 DUP8 DUP8 DUP6 PUSH1 0xFF AND DUP2 DUP2 LT PUSH2 0x1549 JUMPI PUSH2 0x1549 PUSH2 0x30BE JUMP JUMPDEST SWAP1 POP PUSH1 0x20 MUL ADD PUSH1 0x20 DUP2 ADD SWAP1 PUSH2 0x155E SWAP2 SWAP1 PUSH2 0x2B03 JUMP JUMPDEST PUSH1 0x1 PUSH1 0x1 PUSH1 0xA0 SHL SUB AND DUP2 MSTORE PUSH1 0x20 DUP2 ADD SWAP2 SWAP1 SWAP2 MSTORE PUSH1 0x40 ADD PUSH1 0x0 KECCAK256 PUSH1 0x1 ADD SWAP1 PUSH2 0x1585 SWAP1 DUP3 PUSH2 0x32E2 JUMP JUMPDEST POP DUP5 DUP5 DUP3 PUSH1 0xFF AND DUP2 DUP2 LT PUSH2 0x159B JUMPI PUSH2 0x159B PUSH2 0x30BE JUMP JUMPDEST SWAP1 POP PUSH1 0x20 MUL ADD PUSH1 0x20 DUP2 ADD SWAP1 PUSH2 0x15B0 SWAP2 SWAP1 PUSH2 0x2B03 JUMP JUMPDEST PUSH1 0x1 PUSH1 0x1 PUSH1 0xA0 SHL SUB AND PUSH4 0x95D89B41 PUSH1 0x40 MLOAD DUP2 PUSH4 0xFFFFFFFF AND PUSH1 0xE0 SHL DUP2 MSTORE PUSH1 0x4 ADD PUSH1 0x0 PUSH1 0x40 MLOAD DUP1 DUP4 SUB DUP2 DUP7 GAS STATICCALL ISZERO DUP1 ISZERO PUSH2 0x15ED JUMPI RETURNDATASIZE PUSH1 0x0 DUP1 RETURNDATACOPY RETURNDATASIZE PUSH1 0x0 REVERT JUMPDEST POP POP POP POP PUSH1 0x40 MLOAD RETURNDATASIZE PUSH1 0x0 DUP3 RETURNDATACOPY PUSH1 0x1F RETURNDATASIZE SWAP1 DUP2 ADD PUSH1 0x1F NOT AND DUP3 ADD PUSH1 0x40 MSTORE PUSH2 0x1615 SWAP2 SWAP1 DUP2 ADD SWAP1 PUSH2 0x321D JUMP JUMPDEST PUSH2 0x109 PUSH1 0x0 DUP8 DUP8 DUP6 PUSH1 0xFF AND DUP2 DUP2 LT PUSH2 0x162F JUMPI PUSH2 0x162F PUSH2 0x30BE JUMP JUMPDEST SWAP1 POP PUSH1 0x20 MUL ADD PUSH1 0x20 DUP2 ADD SWAP1 PUSH2 0x1644 SWAP2 SWAP1 PUSH2 0x2B03 JUMP JUMPDEST PUSH1 0x1 PUSH1 0x1 PUSH1 0xA0 SHL SUB AND DUP2 MSTORE PUSH1 0x20 DUP2 ADD SWAP2 SWAP1 SWAP2 MSTORE PUSH1 0x40 ADD PUSH1 0x0 KECCAK256 PUSH1 0x2 ADD SWAP1 PUSH2 0x166B SWAP1 DUP3 PUSH2 0x32E2 JUMP JUMPDEST POP DUP5 DUP5 DUP3 PUSH1 0xFF AND DUP2 DUP2 LT PUSH2 0x1681 JUMPI PUSH2 0x1681 PUSH2 0x30BE JUMP JUMPDEST SWAP1 POP PUSH1 0x20 MUL ADD PUSH1 0x20 DUP2 ADD SWAP1 PUSH2 0x1696 SWAP2 SWAP1 PUSH2 0x2B03 JUMP JUMPDEST PUSH1 0x1 PUSH1 0x1 PUSH1 0xA0 SHL SUB AND PUSH4 0x313CE567 PUSH1 0x40 MLOAD DUP2 PUSH4 0xFFFFFFFF AND PUSH1 0xE0 SHL DUP2 MSTORE PUSH1 0x4 ADD PUSH1 0x20 PUSH1 0x40 MLOAD DUP1 DUP4 SUB DUP2 DUP7 GAS STATICCALL ISZERO DUP1 ISZERO PUSH2 0x16D3 JUMPI RETURNDATASIZE PUSH1 0x0 DUP1 RETURNDATACOPY RETURNDATASIZE PUSH1 0x0 REVERT JUMPDEST POP POP POP POP PUSH1 0x40 MLOAD RETURNDATASIZE PUSH1 0x1F NOT PUSH1 0x1F DUP3 ADD AND DUP3 ADD DUP1 PUSH1 0x40 MSTORE POP DUP2 ADD SWAP1 PUSH2 0x16F7 SWAP2 SWAP1 PUSH2 0x33A2 JUMP JUMPDEST PUSH2 0x109 PUSH1 0x0 DUP8 DUP8 DUP6 PUSH1 0xFF AND DUP2 DUP2 LT PUSH2 0x1711 JUMPI PUSH2 0x1711 PUSH2 0x30BE JUMP JUMPDEST SWAP1 POP PUSH1 0x20 MUL ADD PUSH1 0x20 DUP2 ADD SWAP1 PUSH2 0x1726 SWAP2 SWAP1 PUSH2 0x2B03 JUMP JUMPDEST PUSH1 0x1 PUSH1 0x1 PUSH1 0xA0 SHL SUB AND DUP2 MSTORE PUSH1 0x20 DUP2 ADD SWAP2 SWAP1 SWAP2 MSTORE PUSH1 0x40 ADD PUSH1 0x0 KECCAK256 PUSH1 0x3 ADD DUP1 SLOAD PUSH1 0xFF NOT AND PUSH1 0xFF SWAP3 DUP4 AND OR SWAP1 SSTORE DUP4 SWAP1 DUP4 SWAP1 DUP4 AND DUP2 DUP2 LT PUSH2 0x1765 JUMPI PUSH2 0x1765 PUSH2 0x30BE JUMP JUMPDEST SWAP1 POP PUSH1 0x20 MUL ADD PUSH1 0x20 DUP2 ADD SWAP1 PUSH2 0x177A SWAP2 SWAP1 PUSH2 0x2B03 JUMP JUMPDEST PUSH2 0x109 PUSH1 0x0 DUP8 DUP8 DUP6 PUSH1 0xFF AND DUP2 DUP2 LT PUSH2 0x1794 JUMPI PUSH2 0x1794 PUSH2 0x30BE JUMP JUMPDEST SWAP1 POP PUSH1 0x20 MUL ADD PUSH1 0x20 DUP2 ADD SWAP1 PUSH2 0x17A9 SWAP2 SWAP1 PUSH2 0x2B03 JUMP JUMPDEST PUSH1 0x1 PUSH1 0x1 PUSH1 0xA0 SHL SUB AND PUSH1 0x1 PUSH1 0x1 PUSH1 0xA0 SHL SUB AND DUP2 MSTORE PUSH1 0x20 ADD SWAP1 DUP2 MSTORE PUSH1 0x20 ADD PUSH1 0x0 KECCAK256 PUSH1 0x3 ADD PUSH1 0x1 PUSH2 0x100 EXP DUP2 SLOAD DUP2 PUSH1 0x1 PUSH1 0x1 PUSH1 0xA0 SHL SUB MUL NOT AND SWAP1 DUP4 PUSH1 0x1 PUSH1 0x1 PUSH1 0xA0 SHL SUB AND MUL OR SWAP1 SSTORE POP PUSH1 0x1 PUSH2 0x109 PUSH1 0x0 DUP8 DUP8 DUP6 PUSH1 0xFF AND DUP2 DUP2 LT PUSH2 0x180C JUMPI PUSH2 0x180C PUSH2 0x30BE JUMP JUMPDEST SWAP1 POP PUSH1 0x20 MUL ADD PUSH1 0x20 DUP2 ADD SWAP1 PUSH2 0x1821 SWAP2 SWAP1 PUSH2 0x2B03 JUMP JUMPDEST PUSH1 0x1 PUSH1 0x1 PUSH1 0xA0 SHL SUB AND DUP2 MSTORE PUSH1 0x20 DUP2 ADD SWAP2 SWAP1 SWAP2 MSTORE PUSH1 0x40 ADD PUSH1 0x0 KECCAK256 PUSH1 0x3 ADD DUP1 SLOAD SWAP2 ISZERO ISZERO PUSH1 0x1 PUSH1 0xA8 SHL MUL PUSH1 0xFF PUSH1 0xA8 SHL NOT SWAP1 SWAP3 AND SWAP2 SWAP1 SWAP2 OR SWAP1 SSTORE PUSH2 0x103 DUP6 DUP6 PUSH1 0xFF DUP5 AND DUP2 DUP2 LT PUSH2 0x186F JUMPI PUSH2 0x186F PUSH2 0x30BE JUMP JUMPDEST SWAP1 POP PUSH1 0x20 MUL ADD PUSH1 0x20 DUP2 ADD SWAP1 PUSH2 0x1884 SWAP2 SWAP1 PUSH2 0x2B03 JUMP JUMPDEST DUP2 SLOAD PUSH1 0x1 DUP2 ADD DUP4 SSTORE PUSH1 0x0 SWAP3 DUP4 MSTORE PUSH1 0x20 SWAP1 SWAP3 KECCAK256 SWAP1 SWAP2 ADD DUP1 SLOAD PUSH1 0x1 PUSH1 0x1 PUSH1 0xA0 SHL SUB NOT AND PUSH1 0x1 PUSH1 0x1 PUSH1 0xA0 SHL SUB SWAP1 SWAP3 AND SWAP2 SWAP1 SWAP2 OR SWAP1 SSTORE DUP1 PUSH2 0x18C0 DUP2 PUSH2 0x31FE JUMP JUMPDEST SWAP2 POP POP PUSH2 0x140B JUMP JUMPDEST POP POP POP POP POP JUMP JUMPDEST PUSH2 0x18D7 PUSH2 0x23C3 JUMP JUMPDEST PUSH1 0xFE DUP1 SLOAD SWAP2 ISZERO ISZERO PUSH1 0x1 PUSH1 0x40 SHL MUL PUSH9 0xFF0000000000000000 NOT SWAP1 SWAP3 AND SWAP2 SWAP1 SWAP2 OR SWAP1 SSTORE JUMP JUMPDEST PUSH2 0x103 DUP2 DUP2 SLOAD DUP2 LT PUSH2 0x190B JUMPI PUSH1 0x0 DUP1 REVERT JUMPDEST PUSH1 0x0 SWAP2 DUP3 MSTORE PUSH1 0x20 SWAP1 SWAP2 KECCAK256 ADD SLOAD PUSH1 0x1 PUSH1 0x1 PUSH1 0xA0 SHL SUB AND SWAP1 POP DUP2 JUMP JUMPDEST PUSH2 0x192D PUSH2 0x23C3 JUMP JUMPDEST PUSH2 0x102 DUP1 SLOAD PUSH1 0x1 PUSH1 0x1 PUSH1 0xA0 SHL SUB NOT AND PUSH1 0x1 PUSH1 0x1 PUSH1 0xA0 SHL SUB SWAP3 SWAP1 SWAP3 AND SWAP2 SWAP1 SWAP2 OR SWAP1 SSTORE JUMP JUMPDEST PUSH2 0x1958 PUSH2 0x23C3 JUMP JUMPDEST PUSH1 0xFE DUP1 SLOAD PUSH1 0xFF SWAP1 SWAP3 AND PUSH3 0x10000 MUL PUSH3 0xFF0000 NOT SWAP1 SWAP3 AND SWAP2 SWAP1 SWAP2 OR SWAP1 SSTORE JUMP JUMPDEST PUSH2 0x197E PUSH2 0x23C3 JUMP JUMPDEST PUSH2 0x106 DUP1 SLOAD PUSH1 0x1 PUSH1 0x1 PUSH1 0xA0 SHL SUB NOT AND PUSH1 0x1 PUSH1 0x1 PUSH1 0xA0 SHL SUB SWAP3 SWAP1 SWAP3 AND SWAP2 SWAP1 SWAP2 OR SWAP1 SSTORE JUMP JUMPDEST PUSH2 0x19A9 PUSH2 0x23C3 JUMP JUMPDEST PUSH2 0x1160 PUSH1 0x0 PUSH2 0x25E2 JUMP JUMPDEST PUSH1 0x0 SLOAD PUSH2 0x100 SWAP1 DIV PUSH1 0xFF AND ISZERO DUP1 DUP1 ISZERO PUSH2 0x19D3 JUMPI POP PUSH1 0x0 SLOAD PUSH1 0x1 PUSH1 0xFF SWAP1 SWAP2 AND LT JUMPDEST DUP1 PUSH2 0x19ED JUMPI POP ADDRESS EXTCODESIZE ISZERO DUP1 ISZERO PUSH2 0x19ED JUMPI POP PUSH1 0x0 SLOAD PUSH1 0xFF AND PUSH1 0x1 EQ JUMPDEST PUSH2 0x1A50 JUMPI PUSH1 0x40 MLOAD PUSH3 0x461BCD PUSH1 0xE5 SHL DUP2 MSTORE PUSH1 0x20 PUSH1 0x4 DUP3 ADD MSTORE PUSH1 0x2E PUSH1 0x24 DUP3 ADD MSTORE PUSH32 0x496E697469616C697A61626C653A20636F6E747261637420697320616C726561 PUSH1 0x44 DUP3 ADD MSTORE PUSH14 0x191E481A5B9A5D1A585B1A5E9959 PUSH1 0x92 SHL PUSH1 0x64 DUP3 ADD MSTORE PUSH1 0x84 ADD PUSH2 0x1086 JUMP JUMPDEST PUSH1 0x0 DUP1 SLOAD PUSH1 0xFF NOT AND PUSH1 0x1 OR SWAP1 SSTORE DUP1 ISZERO PUSH2 0x1A73 JUMPI PUSH1 0x0 DUP1 SLOAD PUSH2 0xFF00 NOT AND PUSH2 0x100 OR SWAP1 SSTORE JUMPDEST PUSH1 0x40 DUP1 MLOAD PUSH2 0x140 DUP2 ADD DUP3 MSTORE PUSH2 0x1388 DUP2 MSTORE PUSH2 0x1F4 PUSH1 0x20 DUP3 ADD MSTORE PUSH2 0x190 SWAP2 DUP2 ADD SWAP2 SWAP1 SWAP2 MSTORE PUSH2 0x12C PUSH1 0x60 DUP3 ADD MSTORE PUSH1 0xC8 PUSH1 0x80 DUP3 ADD MSTORE PUSH1 0x64 PUSH1 0xA0 DUP3 ADD DUP2 SWAP1 MSTORE PUSH1 0xC0 DUP3 ADD MSTORE PUSH1 0x7D PUSH1 0xE0 DUP3 ADD DUP2 SWAP1 MSTORE PUSH2 0x100 DUP3 ADD MSTORE PUSH1 0x96 PUSH2 0x120 DUP3 ADD MSTORE PUSH2 0x1AD7 SWAP1 PUSH1 0xFB SWAP1 PUSH1 0xA PUSH2 0x2A29 JUMP JUMPDEST POP PUSH1 0xFC DUP1 SLOAD PUSH6 0xFFFFFFFFFFFF NOT AND PUSH6 0xA0A0A122710 OR SWAP1 SSTORE PUSH3 0x93A80 PUSH1 0xFD SSTORE PUSH1 0xFE DUP1 SLOAD PUSH10 0xFFFFFFFFFFFF00FFFFFF NOT AND PUSH10 0x1010101010100030205 OR SWAP1 SSTORE PUSH2 0x1B1D PUSH2 0x2634 JUMP JUMPDEST PUSH2 0x1B25 PUSH2 0x2663 JUMP JUMPDEST PUSH2 0x1B2D PUSH2 0x2692 JUMP JUMPDEST DUP1 ISZERO PUSH2 0x1123 JUMPI PUSH1 0x0 DUP1 SLOAD PUSH2 0xFF00 NOT AND SWAP1 SSTORE PUSH1 0x40 MLOAD PUSH1 0x1 DUP2 MSTORE PUSH32 0x7F26B83FF96E1F2B6A682F133852F6798A09C465DA95921460CEFB3847402498 SWAP1 PUSH1 0x20 ADD PUSH1 0x40 MLOAD DUP1 SWAP2 SUB SWAP1 LOG1 POP JUMP JUMPDEST PUSH2 0x1B7D PUSH2 0x23C3 JUMP JUMPDEST PUSH2 0x1160 PUSH2 0x26B9 JUMP JUMPDEST PUSH2 0x1B8D PUSH2 0x23C3 JUMP JUMPDEST PUSH1 0xFF DUP1 SLOAD PUSH1 0x1 PUSH1 0x1 PUSH1 0xA0 SHL SUB NOT AND PUSH1 0x1 PUSH1 0x1 PUSH1 0xA0 SHL SUB SWAP3 SWAP1 SWAP3 AND SWAP2 SWAP1 SWAP2 OR SWAP1 SSTORE JUMP JUMPDEST PUSH2 0x1BB7 PUSH2 0x23C3 JUMP JUMPDEST PUSH1 0xFE DUP1 SLOAD PUSH1 0xFF NOT AND PUSH1 0xFF SWAP3 SWAP1 SWAP3 AND SWAP2 SWAP1 SWAP2 OR SWAP1 SSTORE JUMP JUMPDEST PUSH1 0x60 PUSH1 0xFB DUP1 SLOAD DUP1 PUSH1 0x20 MUL PUSH1 0x20 ADD PUSH1 0x40 MLOAD SWAP1 DUP2 ADD PUSH1 0x40 MSTORE DUP1 SWAP3 SWAP2 SWAP1 DUP2 DUP2 MSTORE PUSH1 0x20 ADD DUP3 DUP1 SLOAD DUP1 ISZERO PUSH2 0x1C43 JUMPI PUSH1 0x20 MUL DUP3 ADD SWAP2 SWAP1 PUSH1 0x0 MSTORE PUSH1 0x20 PUSH1 0x0 KECCAK256 SWAP1 PUSH1 0x0 SWAP1 JUMPDEST DUP3 DUP3 SWAP1 SLOAD SWAP1 PUSH2 0x100 EXP SWAP1 DIV PUSH2 0xFFFF AND PUSH2 0xFFFF AND DUP2 MSTORE PUSH1 0x20 ADD SWAP1 PUSH1 0x2 ADD SWAP1 PUSH1 0x20 DUP3 PUSH1 0x1 ADD DIV SWAP3 DUP4 ADD SWAP3 PUSH1 0x1 SUB DUP3 MUL SWAP2 POP DUP1 DUP5 GT PUSH2 0x1C0A JUMPI SWAP1 POP JUMPDEST POP POP POP POP POP SWAP1 POP SWAP1 JUMP JUMPDEST PUSH2 0x1C55 PUSH2 0x23C3 JUMP JUMPDEST PUSH1 0xFE DUP1 SLOAD SWAP2 ISZERO ISZERO PUSH7 0x1000000000000 MUL PUSH7 0xFF000000000000 NOT SWAP1 SWAP3 AND SWAP2 SWAP1 SWAP2 OR SWAP1 SSTORE JUMP JUMPDEST PUSH2 0x1C81 PUSH2 0x23C3 JUMP JUMPDEST PUSH1 0xFC DUP1 SLOAD PUSH1 0xFF SWAP1 SWAP3 AND PUSH4 0x1000000 MUL PUSH4 0xFF000000 NOT SWAP1 SWAP3 AND SWAP2 SWAP1 SWAP2 OR SWAP1 SSTORE JUMP JUMPDEST PUSH2 0x1CA9 PUSH2 0x23C3 JUMP JUMPDEST PUSH1 0xFC DUP1 SLOAD PUSH2 0xFFFF NOT AND PUSH2 0xFFFF SWAP3 SWAP1 SWAP3 AND SWAP2 SWAP1 SWAP2 OR SWAP1 SSTORE JUMP JUMPDEST PUSH2 0x1CC9 PUSH2 0x23C3 JUMP JUMPDEST PUSH1 0xFC DUP1 SLOAD PUSH1 0xFF SWAP1 SWAP3 AND PUSH3 0x10000 MUL PUSH3 0xFF0000 NOT SWAP1 SWAP3 AND SWAP2 SWAP1 SWAP2 OR SWAP1 SSTORE JUMP JUMPDEST PUSH2 0x1CEF PUSH2 0x23C3 JUMP JUMPDEST PUSH1 0xFE DUP1 SLOAD PUSH1 0xFF SWAP1 SWAP3 AND PUSH2 0x100 MUL PUSH2 0xFF00 NOT SWAP1 SWAP3 AND SWAP2 SWAP1 SWAP2 OR SWAP1 SSTORE JUMP JUMPDEST PUSH2 0x1D13 PUSH2 0x23C3 JUMP JUMPDEST PUSH1 0xFC DUP1 SLOAD PUSH1 0xFF SWAP1 SWAP3 AND PUSH1 0x1 PUSH1 0x28 SHL MUL PUSH6 0xFF0000000000 NOT SWAP1 SWAP3 AND SWAP2 SWAP1 SWAP2 OR SWAP1 SSTORE JUMP JUMPDEST PUSH2 0x1D3D PUSH2 0x23C3 JUMP JUMPDEST PUSH1 0xFC DUP1 SLOAD PUSH1 0xFF SWAP1 SWAP3 AND PUSH5 0x100000000 MUL PUSH5 0xFF00000000 NOT SWAP1 SWAP3 AND SWAP2 SWAP1 SWAP2 OR SWAP1 SSTORE JUMP JUMPDEST PUSH2 0x1D67 PUSH2 0x23C3 JUMP JUMPDEST PUSH1 0xFE DUP1 SLOAD SWAP2 ISZERO ISZERO PUSH1 0x1 PUSH1 0x28 SHL MUL PUSH6 0xFF0000000000 NOT SWAP1 SWAP3 AND SWAP2 SWAP1 SWAP2 OR SWAP1 SSTORE JUMP JUMPDEST PUSH2 0x1D8F PUSH2 0x23C3 JUMP JUMPDEST PUSH1 0xFE DUP1 SLOAD PUSH1 0xFF SWAP1 SWAP3 AND PUSH4 0x1000000 MUL PUSH4 0xFF000000 NOT SWAP1 SWAP3 AND SWAP2 SWAP1 SWAP2 OR SWAP1 SSTORE JUMP JUMPDEST PUSH2 0x1DB7 PUSH2 0x23C3 JUMP JUMPDEST PUSH1 0x0 JUMPDEST DUP8 DUP2 LT ISZERO PUSH2 0x1F77 JUMPI DUP9 DUP9 DUP3 DUP2 DUP2 LT PUSH2 0x1DD4 JUMPI PUSH2 0x1DD4 PUSH2 0x30BE JUMP JUMPDEST SWAP1 POP PUSH1 0x20 MUL ADD PUSH1 0x20 DUP2 ADD SWAP1 PUSH2 0x1DE9 SWAP2 SWAP1 PUSH2 0x2B2D JUMP JUMPDEST PUSH2 0x108 PUSH1 0x0 DUP12 DUP12 DUP6 DUP2 DUP2 LT PUSH2 0x1E00 JUMPI PUSH2 0x1E00 PUSH2 0x30BE JUMP JUMPDEST SWAP1 POP PUSH1 0x20 MUL ADD PUSH1 0x20 DUP2 ADD SWAP1 PUSH2 0x1E15 SWAP2 SWAP1 PUSH2 0x2B2D JUMP JUMPDEST PUSH1 0xFF SWAP1 DUP2 AND DUP3 MSTORE PUSH1 0x20 DUP3 ADD SWAP3 SWAP1 SWAP3 MSTORE PUSH1 0x40 ADD PUSH1 0x0 KECCAK256 DUP1 SLOAD PUSH1 0xFF NOT AND SWAP3 SWAP1 SWAP2 AND SWAP2 SWAP1 SWAP2 OR SWAP1 SSTORE DUP7 DUP7 DUP3 DUP2 DUP2 LT PUSH2 0x1E4C JUMPI PUSH2 0x1E4C PUSH2 0x30BE JUMP JUMPDEST SWAP1 POP PUSH1 0x20 MUL DUP2 ADD SWAP1 PUSH2 0x1E5E SWAP2 SWAP1 PUSH2 0x33BF JUMP JUMPDEST PUSH2 0x108 PUSH1 0x0 DUP13 DUP13 DUP7 DUP2 DUP2 LT PUSH2 0x1E75 JUMPI PUSH2 0x1E75 PUSH2 0x30BE JUMP JUMPDEST SWAP1 POP PUSH1 0x20 MUL ADD PUSH1 0x20 DUP2 ADD SWAP1 PUSH2 0x1E8A SWAP2 SWAP1 PUSH2 0x2B2D JUMP JUMPDEST PUSH1 0xFF AND DUP2 MSTORE PUSH1 0x20 DUP2 ADD SWAP2 SWAP1 SWAP2 MSTORE PUSH1 0x40 ADD PUSH1 0x0 KECCAK256 PUSH1 0x1 ADD SWAP2 PUSH2 0x1EAC SWAP2 SWAP1 DUP4 PUSH2 0x3406 JUMP JUMPDEST POP DUP5 DUP5 DUP3 DUP2 DUP2 LT PUSH2 0x1EBF JUMPI PUSH2 0x1EBF PUSH2 0x30BE JUMP JUMPDEST SWAP1 POP PUSH1 0x20 MUL ADD CALLDATALOAD PUSH2 0x108 PUSH1 0x0 DUP12 DUP12 DUP6 DUP2 DUP2 LT PUSH2 0x1EDD JUMPI PUSH2 0x1EDD PUSH2 0x30BE JUMP JUMPDEST SWAP1 POP PUSH1 0x20 MUL ADD PUSH1 0x20 DUP2 ADD SWAP1 PUSH2 0x1EF2 SWAP2 SWAP1 PUSH2 0x2B2D JUMP JUMPDEST PUSH1 0xFF AND DUP2 MSTORE PUSH1 0x20 DUP2 ADD SWAP2 SWAP1 SWAP2 MSTORE PUSH1 0x40 ADD PUSH1 0x0 KECCAK256 PUSH1 0x2 ADD SSTORE DUP3 DUP3 DUP3 DUP2 DUP2 LT PUSH2 0x1F1B JUMPI PUSH2 0x1F1B PUSH2 0x30BE JUMP JUMPDEST SWAP1 POP PUSH1 0x20 MUL ADD CALLDATALOAD PUSH2 0x108 PUSH1 0x0 DUP12 DUP12 DUP6 DUP2 DUP2 LT PUSH2 0x1F39 JUMPI PUSH2 0x1F39 PUSH2 0x30BE JUMP JUMPDEST SWAP1 POP PUSH1 0x20 MUL ADD PUSH1 0x20 DUP2 ADD SWAP1 PUSH2 0x1F4E SWAP2 SWAP1 PUSH2 0x2B2D JUMP JUMPDEST PUSH1 0xFF AND DUP2 MSTORE PUSH1 0x20 DUP2 ADD SWAP2 SWAP1 SWAP2 MSTORE PUSH1 0x40 ADD PUSH1 0x0 KECCAK256 PUSH1 0x3 ADD SSTORE DUP1 PUSH2 0x1F6F DUP2 PUSH2 0x3113 JUMP JUMPDEST SWAP2 POP POP PUSH2 0x1DBA JUMP JUMPDEST POP POP POP POP POP POP POP POP POP JUMP JUMPDEST PUSH2 0x1F8A PUSH2 0x23C3 JUMP JUMPDEST DUP1 MLOAD PUSH2 0xEDB SWAP1 PUSH1 0xFB SWAP1 PUSH1 0x20 DUP5 ADD SWAP1 PUSH2 0x2A29 JUMP JUMPDEST PUSH2 0x1FA5 PUSH2 0x23C3 JUMP JUMPDEST PUSH2 0x105 DUP1 SLOAD PUSH1 0x1 PUSH1 0x1 PUSH1 0xA0 SHL SUB NOT AND PUSH1 0x1 PUSH1 0x1 PUSH1 0xA0 SHL SUB SWAP3 SWAP1 SWAP3 AND SWAP2 SWAP1 SWAP2 OR SWAP1 SSTORE JUMP JUMPDEST PUSH2 0x1FD0 PUSH2 0x23C3 JUMP JUMPDEST PUSH1 0x1 PUSH1 0x1 PUSH1 0xA0 SHL SUB DUP2 AND PUSH1 0x0 SWAP1 DUP2 MSTORE PUSH2 0x10A PUSH1 0x20 MSTORE PUSH1 0x40 SWAP1 KECCAK256 SLOAD PUSH1 0xFF AND DUP1 PUSH2 0xEDB JUMPI PUSH1 0x1 PUSH1 0x1 PUSH1 0xA0 SHL SUB DUP3 AND PUSH1 0x0 DUP2 DUP2 MSTORE PUSH2 0x10A PUSH1 0x20 SWAP1 DUP2 MSTORE PUSH1 0x40 DUP1 DUP4 KECCAK256 DUP1 SLOAD PUSH1 0xFF NOT AND PUSH1 0x1 SWAP1 DUP2 OR SWAP1 SWAP2 SSTORE PUSH2 0x104 DUP1 SLOAD SWAP2 DUP3 ADD DUP2 SSTORE SWAP1 SWAP4 MSTORE PUSH32 0x4C0BE60200FAA20559308CB7B5A1BB3255C16CB1CAB91F525B5AE7A03D02FABE SWAP1 SWAP3 ADD DUP1 SLOAD PUSH1 0x1 PUSH1 0x1 PUSH1 0xA0 SHL SUB NOT AND DUP5 OR SWAP1 SSTORE SWAP1 MLOAD SWAP2 DUP3 MSTORE PUSH32 0xE30F8CB0D8CBC7C0E95D5AAA3107CE401738CE4BC98A05DD081BB2A77A9CA749 SWAP2 ADD PUSH1 0x40 MLOAD DUP1 SWAP2 SUB SWAP1 LOG1 POP POP JUMP JUMPDEST PUSH2 0x2099 PUSH2 0x23C3 JUMP JUMPDEST PUSH1 0xFE DUP1 SLOAD PUSH1 0x1 PUSH1 0x1 PUSH1 0xA0 SHL SUB SWAP1 SWAP3 AND PUSH1 0x1 PUSH1 0x50 SHL MUL PUSH32 0xFFFF0000000000000000000000000000000000000000FFFFFFFFFFFFFFFFFFFF SWAP1 SWAP3 AND SWAP2 SWAP1 SWAP2 OR SWAP1 SSTORE JUMP JUMPDEST PUSH1 0x40 DUP1 MLOAD PUSH1 0xC0 DUP1 DUP3 ADD DUP4 MSTORE PUSH1 0x0 DUP1 DUP4 MSTORE PUSH1 0x60 PUSH1 0x20 DUP1 DUP6 ADD DUP3 SWAP1 MSTORE DUP5 DUP7 ADD DUP3 SWAP1 MSTORE SWAP1 DUP5 ADD DUP3 SWAP1 MSTORE PUSH1 0x80 DUP5 ADD DUP3 SWAP1 MSTORE PUSH1 0xA0 DUP5 ADD DUP3 SWAP1 MSTORE PUSH1 0x1 PUSH1 0x1 PUSH1 0xA0 SHL SUB DUP7 DUP2 AND DUP4 MSTORE PUSH2 0x109 DUP3 MSTORE SWAP2 DUP6 SWAP1 KECCAK256 DUP6 MLOAD SWAP4 DUP5 ADD SWAP1 SWAP6 MSTORE DUP5 SLOAD SWAP1 SWAP2 AND DUP3 MSTORE PUSH1 0x1 DUP5 ADD DUP1 SLOAD SWAP4 SWAP5 SWAP3 SWAP4 SWAP2 DUP5 ADD SWAP2 PUSH2 0x214A SWAP1 PUSH2 0x312C JUMP JUMPDEST DUP1 PUSH1 0x1F ADD PUSH1 0x20 DUP1 SWAP2 DIV MUL PUSH1 0x20 ADD PUSH1 0x40 MLOAD SWAP1 DUP2 ADD PUSH1 0x40 MSTORE DUP1 SWAP3 SWAP2 SWAP1 DUP2 DUP2 MSTORE PUSH1 0x20 ADD DUP3 DUP1 SLOAD PUSH2 0x2176 SWAP1 PUSH2 0x312C JUMP JUMPDEST DUP1 ISZERO PUSH2 0x21C3 JUMPI DUP1 PUSH1 0x1F LT PUSH2 0x2198 JUMPI PUSH2 0x100 DUP1 DUP4 SLOAD DIV MUL DUP4 MSTORE SWAP2 PUSH1 0x20 ADD SWAP2 PUSH2 0x21C3 JUMP JUMPDEST DUP3 ADD SWAP2 SWAP1 PUSH1 0x0 MSTORE PUSH1 0x20 PUSH1 0x0 KECCAK256 SWAP1 JUMPDEST DUP2 SLOAD DUP2 MSTORE SWAP1 PUSH1 0x1 ADD SWAP1 PUSH1 0x20 ADD DUP1 DUP4 GT PUSH2 0x21A6 JUMPI DUP3 SWAP1 SUB PUSH1 0x1F AND DUP3 ADD SWAP2 JUMPDEST POP POP POP POP POP DUP2 MSTORE PUSH1 0x20 ADD PUSH1 0x2 DUP3 ADD DUP1 SLOAD PUSH2 0x21DC SWAP1 PUSH2 0x312C JUMP JUMPDEST DUP1 PUSH1 0x1F ADD PUSH1 0x20 DUP1 SWAP2 DIV MUL PUSH1 0x20 ADD PUSH1 0x40 MLOAD SWAP1 DUP2 ADD PUSH1 0x40 MSTORE DUP1 SWAP3 SWAP2 SWAP1 DUP2 DUP2 MSTORE PUSH1 0x20 ADD DUP3 DUP1 SLOAD PUSH2 0x2208 SWAP1 PUSH2 0x312C JUMP JUMPDEST DUP1 ISZERO PUSH2 0x2255 JUMPI DUP1 PUSH1 0x1F LT PUSH2 0x222A JUMPI PUSH2 0x100 DUP1 DUP4 SLOAD DIV MUL DUP4 MSTORE SWAP2 PUSH1 0x20 ADD SWAP2 PUSH2 0x2255 JUMP JUMPDEST DUP3 ADD SWAP2 SWAP1 PUSH1 0x0 MSTORE PUSH1 0x20 PUSH1 0x0 KECCAK256 SWAP1 JUMPDEST DUP2 SLOAD DUP2 MSTORE SWAP1 PUSH1 0x1 ADD SWAP1 PUSH1 0x20 ADD DUP1 DUP4 GT PUSH2 0x2238 JUMPI DUP3 SWAP1 SUB PUSH1 0x1F AND DUP3 ADD SWAP2 JUMPDEST POP POP POP SWAP2 DUP4 MSTORE POP POP PUSH1 0x3 SWAP2 SWAP1 SWAP2 ADD SLOAD PUSH1 0xFF DUP1 DUP3 AND PUSH1 0x20 DUP5 ADD MSTORE PUSH1 0x1 PUSH1 0x1 PUSH1 0xA0 SHL SUB PUSH2 0x100 DUP4 DIV AND PUSH1 0x40 DUP5 ADD MSTORE PUSH1 0x1 PUSH1 0xA8 SHL SWAP1 SWAP2 DIV AND ISZERO ISZERO PUSH1 0x60 SWAP1 SWAP2 ADD MSTORE SWAP3 SWAP2 POP POP JUMP JUMPDEST PUSH2 0x22A0 PUSH2 0x23C3 JUMP JUMPDEST PUSH1 0xFE DUP1 SLOAD SWAP2 ISZERO ISZERO PUSH5 0x100000000 MUL PUSH5 0xFF00000000 NOT SWAP1 SWAP3 AND SWAP2 SWAP1 SWAP2 OR SWAP1 SSTORE JUMP JUMPDEST PUSH2 0x22C8 PUSH2 0x23C3 JUMP JUMPDEST PUSH2 0x101 DUP1 SLOAD PUSH1 0x1 PUSH1 0x1 PUSH1 0xA0 SHL SUB NOT AND PUSH1 0x1 PUSH1 0x1 PUSH1 0xA0 SHL SUB SWAP3 SWAP1 SWAP3 AND SWAP2 SWAP1 SWAP2 OR SWAP1 SSTORE JUMP JUMPDEST PUSH2 0x22F3 PUSH2 0x23C3 JUMP JUMPDEST PUSH1 0x1 PUSH1 0x1 PUSH1 0xA0 SHL SUB DUP2 AND PUSH2 0x2358 JUMPI PUSH1 0x40 MLOAD PUSH3 0x461BCD PUSH1 0xE5 SHL DUP2 MSTORE PUSH1 0x20 PUSH1 0x4 DUP3 ADD MSTORE PUSH1 0x26 PUSH1 0x24 DUP3 ADD MSTORE PUSH32 0x4F776E61626C653A206E6577206F776E657220697320746865207A65726F2061 PUSH1 0x44 DUP3 ADD MSTORE PUSH6 0x646472657373 PUSH1 0xD0 SHL PUSH1 0x64 DUP3 ADD MSTORE PUSH1 0x84 ADD PUSH2 0x1086 JUMP JUMPDEST PUSH2 0x1123 DUP2 PUSH2 0x25E2 JUMP JUMPDEST PUSH1 0x60 PUSH2 0x104 DUP1 SLOAD DUP1 PUSH1 0x20 MUL PUSH1 0x20 ADD PUSH1 0x40 MLOAD SWAP1 DUP2 ADD PUSH1 0x40 MSTORE DUP1 SWAP3 SWAP2 SWAP1 DUP2 DUP2 MSTORE PUSH1 0x20 ADD DUP3 DUP1 SLOAD DUP1 ISZERO PUSH2 0x1C43 JUMPI PUSH1 0x20 MUL DUP3 ADD SWAP2 SWAP1 PUSH1 0x0 MSTORE PUSH1 0x20 PUSH1 0x0 KECCAK256 SWAP1 JUMPDEST DUP2 SLOAD PUSH1 0x1 PUSH1 0x1 PUSH1 0xA0 SHL SUB AND DUP2 MSTORE PUSH1 0x1 SWAP1 SWAP2 ADD SWAP1 PUSH1 0x20 ADD DUP1 DUP4 GT PUSH2 0x239C JUMPI POP POP POP POP POP SWAP1 POP SWAP1 JUMP JUMPDEST PUSH1 0x65 SLOAD PUSH1 0x1 PUSH1 0x1 PUSH1 0xA0 SHL SUB AND CALLER EQ PUSH2 0x1160 JUMPI PUSH1 0x40 MLOAD PUSH3 0x461BCD PUSH1 0xE5 SHL DUP2 MSTORE PUSH1 0x20 PUSH1 0x4 DUP3 ADD DUP2 SWAP1 MSTORE PUSH1 0x24 DUP3 ADD MSTORE PUSH32 0x4F776E61626C653A2063616C6C6572206973206E6F7420746865206F776E6572 PUSH1 0x44 DUP3 ADD MSTORE PUSH1 0x64 ADD PUSH2 0x1086 JUMP JUMPDEST PUSH2 0x1123 PUSH2 0x23C3 JUMP JUMPDEST PUSH32 0x4910FDFA16FED3260ED0E7147F7CC6DA11A60208B5B9406D12A635614FFD9143 SLOAD PUSH1 0xFF AND ISZERO PUSH2 0x2458 JUMPI PUSH2 0x13FB DUP4 PUSH2 0x26F6 JUMP JUMPDEST DUP3 PUSH1 0x1 PUSH1 0x1 PUSH1 0xA0 SHL SUB AND PUSH4 0x52D1902D PUSH1 0x40 MLOAD DUP2 PUSH4 0xFFFFFFFF AND PUSH1 0xE0 SHL DUP2 MSTORE PUSH1 0x4 ADD PUSH1 0x20 PUSH1 0x40 MLOAD DUP1 DUP4 SUB DUP2 DUP7 GAS STATICCALL SWAP3 POP POP POP DUP1 ISZERO PUSH2 0x24B2 JUMPI POP PUSH1 0x40 DUP1 MLOAD PUSH1 0x1F RETURNDATASIZE SWAP1 DUP2 ADD PUSH1 0x1F NOT AND DUP3 ADD SWAP1 SWAP3 MSTORE PUSH2 0x24AF SWAP2 DUP2 ADD SWAP1 PUSH2 0x34C6 JUMP JUMPDEST PUSH1 0x1 JUMPDEST PUSH2 0x2515 JUMPI PUSH1 0x40 MLOAD PUSH3 0x461BCD PUSH1 0xE5 SHL DUP2 MSTORE PUSH1 0x20 PUSH1 0x4 DUP3 ADD MSTORE PUSH1 0x2E PUSH1 0x24 DUP3 ADD MSTORE PUSH32 0x45524331393637557067726164653A206E657720696D706C656D656E74617469 PUSH1 0x44 DUP3 ADD MSTORE PUSH14 0x6F6E206973206E6F742055555053 PUSH1 0x90 SHL PUSH1 0x64 DUP3 ADD MSTORE PUSH1 0x84 ADD PUSH2 0x1086 JUMP JUMPDEST PUSH1 0x0 DUP1 MLOAD PUSH1 0x20 PUSH2 0x355A DUP4 CODECOPY DUP2 MLOAD SWAP2 MSTORE DUP2 EQ PUSH2 0x2584 JUMPI PUSH1 0x40 MLOAD PUSH3 0x461BCD PUSH1 0xE5 SHL DUP2 MSTORE PUSH1 0x20 PUSH1 0x4 DUP3 ADD MSTORE PUSH1 0x29 PUSH1 0x24 DUP3 ADD MSTORE PUSH32 0x45524331393637557067726164653A20756E737570706F727465642070726F78 PUSH1 0x44 DUP3 ADD MSTORE PUSH9 0x1A58589B1955555251 PUSH1 0xBA SHL PUSH1 0x64 DUP3 ADD MSTORE PUSH1 0x84 ADD PUSH2 0x1086 JUMP JUMPDEST POP PUSH2 0x13FB DUP4 DUP4 DUP4 PUSH2 0x2792 JUMP JUMPDEST PUSH2 0x2598 PUSH2 0x27B7 JUMP JUMPDEST PUSH1 0x33 DUP1 SLOAD PUSH1 0xFF NOT AND SWAP1 SSTORE PUSH32 0x5DB9EE0A495BF2E6FF9C91A7834C1BA4FDD244A5E8AA4E537BD38AEAE4B073AA CALLER JUMPDEST PUSH1 0x40 MLOAD PUSH1 0x1 PUSH1 0x1 PUSH1 0xA0 SHL SUB SWAP1 SWAP2 AND DUP2 MSTORE PUSH1 0x20 ADD PUSH1 0x40 MLOAD DUP1 SWAP2 SUB SWAP1 LOG1 JUMP JUMPDEST PUSH1 0x65 DUP1 SLOAD PUSH1 0x1 PUSH1 0x1 PUSH1 0xA0 SHL SUB DUP4 DUP2 AND PUSH1 0x1 PUSH1 0x1 PUSH1 0xA0 SHL SUB NOT DUP4 AND DUP2 OR SWAP1 SWAP4 SSTORE PUSH1 0x40 MLOAD SWAP2 AND SWAP2 SWAP1 DUP3 SWAP1 PUSH32 0x8BE0079C531659141344CD1FD0A4F28419497F9722A3DAAFE3B4186F6B6457E0 SWAP1 PUSH1 0x0 SWAP1 LOG3 POP POP JUMP JUMPDEST PUSH1 0x0 SLOAD PUSH2 0x100 SWAP1 DIV PUSH1 0xFF AND PUSH2 0x265B JUMPI PUSH1 0x40 MLOAD PUSH3 0x461BCD PUSH1 0xE5 SHL DUP2 MSTORE PUSH1 0x4 ADD PUSH2 0x1086 SWAP1 PUSH2 0x34DF JUMP JUMPDEST PUSH2 0x1160 PUSH2 0x2800 JUMP JUMPDEST PUSH1 0x0 SLOAD PUSH2 0x100 SWAP1 DIV PUSH1 0xFF AND PUSH2 0x268A JUMPI PUSH1 0x40 MLOAD PUSH3 0x461BCD PUSH1 0xE5 SHL DUP2 MSTORE PUSH1 0x4 ADD PUSH2 0x1086 SWAP1 PUSH2 0x34DF JUMP JUMPDEST PUSH2 0x1160 PUSH2 0x2833 JUMP JUMPDEST PUSH1 0x0 SLOAD PUSH2 0x100 SWAP1 DIV PUSH1 0xFF AND PUSH2 0x1160 JUMPI PUSH1 0x40 MLOAD PUSH3 0x461BCD PUSH1 0xE5 SHL DUP2 MSTORE PUSH1 0x4 ADD PUSH2 0x1086 SWAP1 PUSH2 0x34DF JUMP JUMPDEST PUSH2 0x26C1 PUSH2 0x2863 JUMP JUMPDEST PUSH1 0x33 DUP1 SLOAD PUSH1 0xFF NOT AND PUSH1 0x1 OR SWAP1 SSTORE PUSH32 0x62E78CEA01BEE320CD4E420270B5EA74000D11B0C9F74754EBDBFC544B05A258 PUSH2 0x25C5 CALLER SWAP1 JUMP JUMPDEST PUSH1 0x1 PUSH1 0x1 PUSH1 0xA0 SHL SUB DUP2 AND EXTCODESIZE PUSH2 0x2763 JUMPI PUSH1 0x40 MLOAD PUSH3 0x461BCD PUSH1 0xE5 SHL DUP2 MSTORE PUSH1 0x20 PUSH1 0x4 DUP3 ADD MSTORE PUSH1 0x2D PUSH1 0x24 DUP3 ADD MSTORE PUSH32 0x455243313936373A206E657720696D706C656D656E746174696F6E206973206E PUSH1 0x44 DUP3 ADD MSTORE PUSH13 0x1BDD08184818DBDB9D1C9858DD PUSH1 0x9A SHL PUSH1 0x64 DUP3 ADD MSTORE PUSH1 0x84 ADD PUSH2 0x1086 JUMP JUMPDEST PUSH1 0x0 DUP1 MLOAD PUSH1 0x20 PUSH2 0x355A DUP4 CODECOPY DUP2 MLOAD SWAP2 MSTORE DUP1 SLOAD PUSH1 0x1 PUSH1 0x1 PUSH1 0xA0 SHL SUB NOT AND PUSH1 0x1 PUSH1 0x1 PUSH1 0xA0 SHL SUB SWAP3 SWAP1 SWAP3 AND SWAP2 SWAP1 SWAP2 OR SWAP1 SSTORE JUMP JUMPDEST PUSH2 0x279B DUP4 PUSH2 0x28A9 JUMP JUMPDEST PUSH1 0x0 DUP3 MLOAD GT DUP1 PUSH2 0x27A8 JUMPI POP DUP1 JUMPDEST ISZERO PUSH2 0x13FB JUMPI PUSH2 0xED8 DUP4 DUP4 PUSH2 0x28E9 JUMP JUMPDEST PUSH1 0x33 SLOAD PUSH1 0xFF AND PUSH2 0x1160 JUMPI PUSH1 0x40 MLOAD PUSH3 0x461BCD PUSH1 0xE5 SHL DUP2 MSTORE PUSH1 0x20 PUSH1 0x4 DUP3 ADD MSTORE PUSH1 0x14 PUSH1 0x24 DUP3 ADD MSTORE PUSH20 0x14185D5CD8589B194E881B9BDD081C185D5CD959 PUSH1 0x62 SHL PUSH1 0x44 DUP3 ADD MSTORE PUSH1 0x64 ADD PUSH2 0x1086 JUMP JUMPDEST PUSH1 0x0 SLOAD PUSH2 0x100 SWAP1 DIV PUSH1 0xFF AND PUSH2 0x2827 JUMPI PUSH1 0x40 MLOAD PUSH3 0x461BCD PUSH1 0xE5 SHL DUP2 MSTORE PUSH1 0x4 ADD PUSH2 0x1086 SWAP1 PUSH2 0x34DF JUMP JUMPDEST PUSH1 0x33 DUP1 SLOAD PUSH1 0xFF NOT AND SWAP1 SSTORE JUMP JUMPDEST PUSH1 0x0 SLOAD PUSH2 0x100 SWAP1 DIV PUSH1 0xFF AND PUSH2 0x285A JUMPI PUSH1 0x40 MLOAD PUSH3 0x461BCD PUSH1 0xE5 SHL DUP2 MSTORE PUSH1 0x4 ADD PUSH2 0x1086 SWAP1 PUSH2 0x34DF JUMP JUMPDEST PUSH2 0x1160 CALLER PUSH2 0x25E2 JUMP JUMPDEST PUSH1 0x33 SLOAD PUSH1 0xFF AND ISZERO PUSH2 0x1160 JUMPI PUSH1 0x40 MLOAD PUSH3 0x461BCD PUSH1 0xE5 SHL DUP2 MSTORE PUSH1 0x20 PUSH1 0x4 DUP3 ADD MSTORE PUSH1 0x10 PUSH1 0x24 DUP3 ADD MSTORE PUSH16 0x14185D5CD8589B194E881C185D5CD959 PUSH1 0x82 SHL PUSH1 0x44 DUP3 ADD MSTORE PUSH1 0x64 ADD PUSH2 0x1086 JUMP JUMPDEST PUSH2 0x28B2 DUP2 PUSH2 0x26F6 JUMP JUMPDEST PUSH1 0x40 MLOAD PUSH1 0x1 PUSH1 0x1 PUSH1 0xA0 SHL SUB DUP3 AND SWAP1 PUSH32 0xBC7CD75A20EE27FD9ADEBAB32041F755214DBC6BFFA90CC0225B39DA2E5C2D3B SWAP1 PUSH1 0x0 SWAP1 LOG2 POP JUMP JUMPDEST PUSH1 0x60 PUSH1 0x1 PUSH1 0x1 PUSH1 0xA0 SHL SUB DUP4 AND EXTCODESIZE PUSH2 0x2951 JUMPI PUSH1 0x40 MLOAD PUSH3 0x461BCD PUSH1 0xE5 SHL DUP2 MSTORE PUSH1 0x20 PUSH1 0x4 DUP3 ADD MSTORE PUSH1 0x26 PUSH1 0x24 DUP3 ADD MSTORE PUSH32 0x416464726573733A2064656C65676174652063616C6C20746F206E6F6E2D636F PUSH1 0x44 DUP3 ADD MSTORE PUSH6 0x1B9D1C9858DD PUSH1 0xD2 SHL PUSH1 0x64 DUP3 ADD MSTORE PUSH1 0x84 ADD PUSH2 0x1086 JUMP JUMPDEST PUSH1 0x0 DUP1 DUP5 PUSH1 0x1 PUSH1 0x1 PUSH1 0xA0 SHL SUB AND DUP5 PUSH1 0x40 MLOAD PUSH2 0x296C SWAP2 SWAP1 PUSH2 0x352A JUMP JUMPDEST PUSH1 0x0 PUSH1 0x40 MLOAD DUP1 DUP4 SUB DUP2 DUP6 GAS DELEGATECALL SWAP2 POP POP RETURNDATASIZE DUP1 PUSH1 0x0 DUP2 EQ PUSH2 0x29A7 JUMPI PUSH1 0x40 MLOAD SWAP2 POP PUSH1 0x1F NOT PUSH1 0x3F RETURNDATASIZE ADD AND DUP3 ADD PUSH1 0x40 MSTORE RETURNDATASIZE DUP3 MSTORE RETURNDATASIZE PUSH1 0x0 PUSH1 0x20 DUP5 ADD RETURNDATACOPY PUSH2 0x29AC JUMP JUMPDEST PUSH1 0x60 SWAP2 POP JUMPDEST POP SWAP2 POP SWAP2 POP PUSH2 0x29D4 DUP3 DUP3 PUSH1 0x40 MLOAD DUP1 PUSH1 0x60 ADD PUSH1 0x40 MSTORE DUP1 PUSH1 0x27 DUP2 MSTORE PUSH1 0x20 ADD PUSH2 0x357A PUSH1 0x27 SWAP2 CODECOPY PUSH2 0x29DF JUMP JUMPDEST SWAP3 POP POP POP JUMPDEST SWAP3 SWAP2 POP POP JUMP JUMPDEST PUSH1 0x60 DUP4 ISZERO PUSH2 0x29EE JUMPI POP DUP2 PUSH2 0x29F8 JUMP JUMPDEST PUSH2 0x29F8 DUP4 DUP4 PUSH2 0x29FF JUMP JUMPDEST SWAP4 SWAP3 POP POP POP JUMP JUMPDEST DUP2 MLOAD ISZERO PUSH2 0x2A0F JUMPI DUP2 MLOAD DUP1 DUP4 PUSH1 0x20 ADD REVERT JUMPDEST DUP1 PUSH1 0x40 MLOAD PUSH3 0x461BCD PUSH1 0xE5 SHL DUP2 MSTORE PUSH1 0x4 ADD PUSH2 0x1086 SWAP2 SWAP1 PUSH2 0x3546 JUMP JUMPDEST DUP3 DUP1 SLOAD DUP3 DUP3 SSTORE SWAP1 PUSH1 0x0 MSTORE PUSH1 0x20 PUSH1 0x0 KECCAK256 SWAP1 PUSH1 0xF ADD PUSH1 0x10 SWAP1 DIV DUP2 ADD SWAP3 DUP3 ISZERO PUSH2 0x2AC2 JUMPI SWAP2 PUSH1 0x20 MUL DUP3 ADD PUSH1 0x0 JUMPDEST DUP4 DUP3 GT ISZERO PUSH2 0x2A92 JUMPI DUP4 MLOAD DUP4 DUP3 PUSH2 0x100 EXP DUP2 SLOAD DUP2 PUSH2 0xFFFF MUL NOT AND SWAP1 DUP4 PUSH2 0xFFFF AND MUL OR SWAP1 SSTORE POP SWAP3 PUSH1 0x20 ADD SWAP3 PUSH1 0x2 ADD PUSH1 0x20 DUP2 PUSH1 0x1 ADD DIV SWAP3 DUP4 ADD SWAP3 PUSH1 0x1 SUB MUL PUSH2 0x2A52 JUMP JUMPDEST DUP1 ISZERO PUSH2 0x2AC0 JUMPI DUP3 DUP2 PUSH2 0x100 EXP DUP2 SLOAD SWAP1 PUSH2 0xFFFF MUL NOT AND SWAP1 SSTORE PUSH1 0x2 ADD PUSH1 0x20 DUP2 PUSH1 0x1 ADD DIV SWAP3 DUP4 ADD SWAP3 PUSH1 0x1 SUB MUL PUSH2 0x2A92 JUMP JUMPDEST POP JUMPDEST POP PUSH2 0x2ACE SWAP3 SWAP2 POP PUSH2 0x2AD2 JUMP JUMPDEST POP SWAP1 JUMP JUMPDEST JUMPDEST DUP1 DUP3 GT ISZERO PUSH2 0x2ACE JUMPI PUSH1 0x0 DUP2 SSTORE PUSH1 0x1 ADD PUSH2 0x2AD3 JUMP JUMPDEST DUP1 CALLDATALOAD PUSH1 0x1 PUSH1 0x1 PUSH1 0xA0 SHL SUB DUP2 AND DUP2 EQ PUSH2 0x2AFE JUMPI PUSH1 0x0 DUP1 REVERT JUMPDEST SWAP2 SWAP1 POP JUMP JUMPDEST PUSH1 0x0 PUSH1 0x20 DUP3 DUP5 SUB SLT ISZERO PUSH2 0x2B15 JUMPI PUSH1 0x0 DUP1 REVERT JUMPDEST PUSH2 0x29F8 DUP3 PUSH2 0x2AE7 JUMP JUMPDEST PUSH1 0xFF DUP2 AND DUP2 EQ PUSH2 0x1123 JUMPI PUSH1 0x0 DUP1 REVERT JUMPDEST PUSH1 0x0 PUSH1 0x20 DUP3 DUP5 SUB SLT ISZERO PUSH2 0x2B3F JUMPI PUSH1 0x0 DUP1 REVERT JUMPDEST DUP2 CALLDATALOAD PUSH2 0x29F8 DUP2 PUSH2 0x2B1E JUMP JUMPDEST PUSH1 0x0 JUMPDEST DUP4 DUP2 LT ISZERO PUSH2 0x2B65 JUMPI DUP2 DUP2 ADD MLOAD DUP4 DUP3 ADD MSTORE PUSH1 0x20 ADD PUSH2 0x2B4D JUMP JUMPDEST POP POP PUSH1 0x0 SWAP2 ADD MSTORE JUMP JUMPDEST PUSH1 0x0 DUP2 MLOAD DUP1 DUP5 MSTORE PUSH2 0x2B86 DUP2 PUSH1 0x20 DUP7 ADD PUSH1 0x20 DUP7 ADD PUSH2 0x2B4A JUMP JUMPDEST PUSH1 0x1F ADD PUSH1 0x1F NOT AND SWAP3 SWAP1 SWAP3 ADD PUSH1 0x20 ADD SWAP3 SWAP2 POP POP JUMP JUMPDEST PUSH1 0x20 DUP2 MSTORE PUSH1 0xFF DUP3 MLOAD AND PUSH1 0x20 DUP3 ADD MSTORE PUSH1 0x0 PUSH1 0x20 DUP4 ADD MLOAD PUSH1 0x80 PUSH1 0x40 DUP5 ADD MSTORE PUSH2 0x2BC3 PUSH1 0xA0 DUP5 ADD DUP3 PUSH2 0x2B6E JUMP JUMPDEST SWAP1 POP PUSH1 0x40 DUP5 ADD MLOAD PUSH1 0x60 DUP5 ADD MSTORE PUSH1 0x60 DUP5 ADD MLOAD PUSH1 0x80 DUP5 ADD MSTORE DUP1 SWAP2 POP POP SWAP3 SWAP2 POP POP JUMP JUMPDEST PUSH1 0x0 PUSH1 0x20 DUP3 DUP5 SUB SLT ISZERO PUSH2 0x2BF5 JUMPI PUSH1 0x0 DUP1 REVERT JUMPDEST DUP2 CALLDATALOAD DUP1 ISZERO ISZERO DUP2 EQ PUSH2 0x29F8 JUMPI PUSH1 0x0 DUP1 REVERT JUMPDEST PUSH4 0x4E487B71 PUSH1 0xE0 SHL PUSH1 0x0 MSTORE PUSH1 0x41 PUSH1 0x4 MSTORE PUSH1 0x24 PUSH1 0x0 REVERT JUMPDEST PUSH1 0x40 MLOAD PUSH1 0x1F DUP3 ADD PUSH1 0x1F NOT AND DUP2 ADD PUSH8 0xFFFFFFFFFFFFFFFF DUP2 GT DUP3 DUP3 LT OR ISZERO PUSH2 0x2C44 JUMPI PUSH2 0x2C44 PUSH2 0x2C05 JUMP JUMPDEST PUSH1 0x40 MSTORE SWAP2 SWAP1 POP JUMP JUMPDEST PUSH1 0x0 PUSH8 0xFFFFFFFFFFFFFFFF DUP3 GT ISZERO PUSH2 0x2C66 JUMPI PUSH2 0x2C66 PUSH2 0x2C05 JUMP JUMPDEST POP PUSH1 0x1F ADD PUSH1 0x1F NOT AND PUSH1 0x20 ADD SWAP1 JUMP JUMPDEST PUSH1 0x0 DUP1 PUSH1 0x40 DUP4 DUP6 SUB SLT ISZERO PUSH2 0x2C87 JUMPI PUSH1 0x0 DUP1 REVERT JUMPDEST PUSH2 0x2C90 DUP4 PUSH2 0x2AE7 JUMP JUMPDEST SWAP2 POP PUSH1 0x20 DUP4 ADD CALLDATALOAD PUSH8 0xFFFFFFFFFFFFFFFF DUP2 GT ISZERO PUSH2 0x2CAC JUMPI PUSH1 0x0 DUP1 REVERT JUMPDEST DUP4 ADD PUSH1 0x1F DUP2 ADD DUP6 SGT PUSH2 0x2CBD JUMPI PUSH1 0x0 DUP1 REVERT JUMPDEST DUP1 CALLDATALOAD PUSH2 0x2CD0 PUSH2 0x2CCB DUP3 PUSH2 0x2C4C JUMP JUMPDEST PUSH2 0x2C1B JUMP JUMPDEST DUP2 DUP2 MSTORE DUP7 PUSH1 0x20 DUP4 DUP6 ADD ADD GT ISZERO PUSH2 0x2CE5 JUMPI PUSH1 0x0 DUP1 REVERT JUMPDEST DUP2 PUSH1 0x20 DUP5 ADD PUSH1 0x20 DUP4 ADD CALLDATACOPY PUSH1 0x0 PUSH1 0x20 DUP4 DUP4 ADD ADD MSTORE DUP1 SWAP4 POP POP POP POP SWAP3 POP SWAP3 SWAP1 POP JUMP JUMPDEST PUSH1 0x0 DUP1 DUP4 PUSH1 0x1F DUP5 ADD SLT PUSH2 0x2D17 JUMPI PUSH1 0x0 DUP1 REVERT JUMPDEST POP DUP2 CALLDATALOAD PUSH8 0xFFFFFFFFFFFFFFFF DUP2 GT ISZERO PUSH2 0x2D2F JUMPI PUSH1 0x0 DUP1 REVERT JUMPDEST PUSH1 0x20 DUP4 ADD SWAP2 POP DUP4 PUSH1 0x20 DUP3 PUSH1 0x5 SHL DUP6 ADD ADD GT ISZERO PUSH2 0x2D4A JUMPI PUSH1 0x0 DUP1 REVERT JUMPDEST SWAP3 POP SWAP3 SWAP1 POP JUMP JUMPDEST PUSH1 0x0 DUP1 PUSH1 0x20 DUP4 DUP6 SUB SLT ISZERO PUSH2 0x2D64 JUMPI PUSH1 0x0 DUP1 REVERT JUMPDEST DUP3 CALLDATALOAD PUSH8 0xFFFFFFFFFFFFFFFF DUP2 GT ISZERO PUSH2 0x2D7B JUMPI PUSH1 0x0 DUP1 REVERT JUMPDEST PUSH2 0x2D87 DUP6 DUP3 DUP7 ADD PUSH2 0x2D05 JUMP JUMPDEST SWAP1 SWAP7 SWAP1 SWAP6 POP SWAP4 POP POP POP POP JUMP JUMPDEST PUSH1 0x0 DUP1 PUSH1 0x0 DUP1 PUSH1 0x40 DUP6 DUP8 SUB SLT ISZERO PUSH2 0x2DA9 JUMPI PUSH1 0x0 DUP1 REVERT JUMPDEST DUP5 CALLDATALOAD PUSH8 0xFFFFFFFFFFFFFFFF DUP1 DUP3 GT ISZERO PUSH2 0x2DC1 JUMPI PUSH1 0x0 DUP1 REVERT JUMPDEST PUSH2 0x2DCD DUP9 DUP4 DUP10 ADD PUSH2 0x2D05 JUMP JUMPDEST SWAP1 SWAP7 POP SWAP5 POP PUSH1 0x20 DUP8 ADD CALLDATALOAD SWAP2 POP DUP1 DUP3 GT ISZERO PUSH2 0x2DE6 JUMPI PUSH1 0x0 DUP1 REVERT JUMPDEST POP PUSH2 0x2DF3 DUP8 DUP3 DUP9 ADD PUSH2 0x2D05 JUMP JUMPDEST SWAP6 SWAP9 SWAP5 SWAP8 POP SWAP6 POP POP POP POP JUMP JUMPDEST PUSH1 0x0 PUSH1 0x20 DUP3 DUP5 SUB SLT ISZERO PUSH2 0x2E11 JUMPI PUSH1 0x0 DUP1 REVERT JUMPDEST POP CALLDATALOAD SWAP2 SWAP1 POP JUMP JUMPDEST PUSH1 0x20 DUP1 DUP3 MSTORE DUP3 MLOAD DUP3 DUP3 ADD DUP2 SWAP1 MSTORE PUSH1 0x0 SWAP2 SWAP1 DUP5 DUP3 ADD SWAP1 PUSH1 0x40 DUP6 ADD SWAP1 DUP5 JUMPDEST DUP2 DUP2 LT ISZERO PUSH2 0x2E54 JUMPI DUP4 MLOAD PUSH2 0xFFFF AND DUP4 MSTORE SWAP3 DUP5 ADD SWAP3 SWAP2 DUP5 ADD SWAP2 PUSH1 0x1 ADD PUSH2 0x2E34 JUMP JUMPDEST POP SWAP1 SWAP7 SWAP6 POP POP POP POP POP POP JUMP JUMPDEST DUP1 CALLDATALOAD PUSH2 0xFFFF DUP2 AND DUP2 EQ PUSH2 0x2AFE JUMPI PUSH1 0x0 DUP1 REVERT JUMPDEST PUSH1 0x0 PUSH1 0x20 DUP3 DUP5 SUB SLT ISZERO PUSH2 0x2E84 JUMPI PUSH1 0x0 DUP1 REVERT JUMPDEST PUSH2 0x29F8 DUP3 PUSH2 0x2E60 JUMP JUMPDEST PUSH1 0x0 DUP1 PUSH1 0x0 DUP1 PUSH1 0x0 DUP1 PUSH1 0x0 DUP1 PUSH1 0x80 DUP10 DUP12 SUB SLT ISZERO PUSH2 0x2EA9 JUMPI PUSH1 0x0 DUP1 REVERT JUMPDEST DUP9 CALLDATALOAD PUSH8 0xFFFFFFFFFFFFFFFF DUP1 DUP3 GT ISZERO PUSH2 0x2EC1 JUMPI PUSH1 0x0 DUP1 REVERT JUMPDEST PUSH2 0x2ECD DUP13 DUP4 DUP14 ADD PUSH2 0x2D05 JUMP JUMPDEST SWAP1 SWAP11 POP SWAP9 POP PUSH1 0x20 DUP12 ADD CALLDATALOAD SWAP2 POP DUP1 DUP3 GT ISZERO PUSH2 0x2EE6 JUMPI PUSH1 0x0 DUP1 REVERT JUMPDEST PUSH2 0x2EF2 DUP13 DUP4 DUP14 ADD PUSH2 0x2D05 JUMP JUMPDEST SWAP1 SWAP9 POP SWAP7 POP PUSH1 0x40 DUP12 ADD CALLDATALOAD SWAP2 POP DUP1 DUP3 GT ISZERO PUSH2 0x2F0B JUMPI PUSH1 0x0 DUP1 REVERT JUMPDEST PUSH2 0x2F17 DUP13 DUP4 DUP14 ADD PUSH2 0x2D05 JUMP JUMPDEST SWAP1 SWAP7 POP SWAP5 POP PUSH1 0x60 DUP12 ADD CALLDATALOAD SWAP2 POP DUP1 DUP3 GT ISZERO PUSH2 0x2F30 JUMPI PUSH1 0x0 DUP1 REVERT JUMPDEST POP PUSH2 0x2F3D DUP12 DUP3 DUP13 ADD PUSH2 0x2D05 JUMP JUMPDEST SWAP10 SWAP13 SWAP9 SWAP12 POP SWAP7 SWAP10 POP SWAP5 SWAP8 SWAP4 SWAP7 SWAP3 SWAP6 SWAP5 POP POP POP JUMP JUMPDEST PUSH1 0x0 PUSH1 0x20 DUP1 DUP4 DUP6 SUB SLT ISZERO PUSH2 0x2F64 JUMPI PUSH1 0x0 DUP1 REVERT JUMPDEST DUP3 CALLDATALOAD PUSH8 0xFFFFFFFFFFFFFFFF DUP1 DUP3 GT ISZERO PUSH2 0x2F7C JUMPI PUSH1 0x0 DUP1 REVERT JUMPDEST DUP2 DUP6 ADD SWAP2 POP DUP6 PUSH1 0x1F DUP4 ADD SLT PUSH2 0x2F90 JUMPI PUSH1 0x0 DUP1 REVERT JUMPDEST DUP2 CALLDATALOAD DUP2 DUP2 GT ISZERO PUSH2 0x2FA2 JUMPI PUSH2 0x2FA2 PUSH2 0x2C05 JUMP JUMPDEST DUP1 PUSH1 0x5 SHL SWAP2 POP PUSH2 0x2FB3 DUP5 DUP4 ADD PUSH2 0x2C1B JUMP JUMPDEST DUP2 DUP2 MSTORE SWAP2 DUP4 ADD DUP5 ADD SWAP2 DUP5 DUP2 ADD SWAP1 DUP9 DUP5 GT ISZERO PUSH2 0x2FCD JUMPI PUSH1 0x0 DUP1 REVERT JUMPDEST SWAP4 DUP6 ADD SWAP4 JUMPDEST DUP4 DUP6 LT ISZERO PUSH2 0x2FF2 JUMPI PUSH2 0x2FE3 DUP6 PUSH2 0x2E60 JUMP JUMPDEST DUP3 MSTORE SWAP4 DUP6 ADD SWAP4 SWAP1 DUP6 ADD SWAP1 PUSH2 0x2FD2 JUMP JUMPDEST SWAP9 SWAP8 POP POP POP POP POP POP POP POP JUMP JUMPDEST PUSH1 0x20 DUP2 MSTORE PUSH1 0x0 PUSH1 0x1 DUP1 PUSH1 0xA0 SHL SUB DUP1 DUP5 MLOAD AND PUSH1 0x20 DUP5 ADD MSTORE PUSH1 0x20 DUP5 ADD MLOAD PUSH1 0xC0 PUSH1 0x40 DUP6 ADD MSTORE PUSH2 0x302D PUSH1 0xE0 DUP6 ADD DUP3 PUSH2 0x2B6E JUMP JUMPDEST SWAP1 POP PUSH1 0x40 DUP6 ADD MLOAD PUSH1 0x1F NOT DUP6 DUP4 SUB ADD PUSH1 0x60 DUP7 ADD MSTORE PUSH2 0x304A DUP3 DUP3 PUSH2 0x2B6E JUMP JUMPDEST SWAP2 POP POP PUSH1 0xFF PUSH1 0x60 DUP7 ADD MLOAD AND PUSH1 0x80 DUP6 ADD MSTORE DUP2 PUSH1 0x80 DUP7 ADD MLOAD AND PUSH1 0xA0 DUP6 ADD MSTORE PUSH1 0xA0 DUP6 ADD MLOAD ISZERO ISZERO PUSH1 0xC0 DUP6 ADD MSTORE DUP1 SWAP3 POP POP POP SWAP3 SWAP2 POP POP JUMP JUMPDEST PUSH1 0x20 DUP1 DUP3 MSTORE DUP3 MLOAD DUP3 DUP3 ADD DUP2 SWAP1 MSTORE PUSH1 0x0 SWAP2 SWAP1 DUP5 DUP3 ADD SWAP1 PUSH1 0x40 DUP6 ADD SWAP1 DUP5 JUMPDEST DUP2 DUP2 LT ISZERO PUSH2 0x2E54 JUMPI DUP4 MLOAD PUSH1 0x1 PUSH1 0x1 PUSH1 0xA0 SHL SUB AND DUP4 MSTORE SWAP3 DUP5 ADD SWAP3 SWAP2 DUP5 ADD SWAP2 PUSH1 0x1 ADD PUSH2 0x3099 JUMP JUMPDEST PUSH4 0x4E487B71 PUSH1 0xE0 SHL PUSH1 0x0 MSTORE PUSH1 0x32 PUSH1 0x4 MSTORE PUSH1 0x24 PUSH1 0x0 REVERT JUMPDEST PUSH4 0x4E487B71 PUSH1 0xE0 SHL PUSH1 0x0 MSTORE PUSH1 0x11 PUSH1 0x4 MSTORE PUSH1 0x24 PUSH1 0x0 REVERT JUMPDEST DUP2 DUP2 SUB DUP2 DUP2 GT ISZERO PUSH2 0x29D9 JUMPI PUSH2 0x29D9 PUSH2 0x30D4 JUMP JUMPDEST PUSH4 0x4E487B71 PUSH1 0xE0 SHL PUSH1 0x0 MSTORE PUSH1 0x31 PUSH1 0x4 MSTORE PUSH1 0x24 PUSH1 0x0 REVERT JUMPDEST PUSH1 0x0 PUSH1 0x1 DUP3 ADD PUSH2 0x3125 JUMPI PUSH2 0x3125 PUSH2 0x30D4 JUMP JUMPDEST POP PUSH1 0x1 ADD SWAP1 JUMP JUMPDEST PUSH1 0x1 DUP2 DUP2 SHR SWAP1 DUP3 AND DUP1 PUSH2 0x3140 JUMPI PUSH1 0x7F DUP3 AND SWAP2 POP JUMPDEST PUSH1 0x20 DUP3 LT DUP2 SUB PUSH2 0x3160 JUMPI PUSH4 0x4E487B71 PUSH1 0xE0 SHL PUSH1 0x0 MSTORE PUSH1 0x22 PUSH1 0x4 MSTORE PUSH1 0x24 PUSH1 0x0 REVERT JUMPDEST POP SWAP2 SWAP1 POP JUMP JUMPDEST PUSH1 0x20 DUP1 DUP3 MSTORE PUSH1 0x2C SWAP1 DUP3 ADD MSTORE PUSH32 0x46756E6374696F6E206D7573742062652063616C6C6564207468726F75676820 PUSH1 0x40 DUP3 ADD MSTORE PUSH12 0x19195B1959D85D1958D85B1B PUSH1 0xA2 SHL PUSH1 0x60 DUP3 ADD MSTORE PUSH1 0x80 ADD SWAP1 JUMP JUMPDEST PUSH1 0x20 DUP1 DUP3 MSTORE PUSH1 0x2C SWAP1 DUP3 ADD MSTORE PUSH32 0x46756E6374696F6E206D7573742062652063616C6C6564207468726F75676820 PUSH1 0x40 DUP3 ADD MSTORE PUSH12 0x6163746976652070726F7879 PUSH1 0xA0 SHL PUSH1 0x60 DUP3 ADD MSTORE PUSH1 0x80 ADD SWAP1 JUMP JUMPDEST PUSH1 0x0 PUSH1 0xFF DUP3 AND PUSH1 0xFF DUP2 SUB PUSH2 0x3214 JUMPI PUSH2 0x3214 PUSH2 0x30D4 JUMP JUMPDEST PUSH1 0x1 ADD SWAP3 SWAP2 POP POP JUMP JUMPDEST PUSH1 0x0 PUSH1 0x20 DUP3 DUP5 SUB SLT ISZERO PUSH2 0x322F JUMPI PUSH1 0x0 DUP1 REVERT JUMPDEST DUP2 MLOAD PUSH8 0xFFFFFFFFFFFFFFFF DUP2 GT ISZERO PUSH2 0x3246 JUMPI PUSH1 0x0 DUP1 REVERT JUMPDEST DUP3 ADD PUSH1 0x1F DUP2 ADD DUP5 SGT PUSH2 0x3257 JUMPI PUSH1 0x0 DUP1 REVERT JUMPDEST DUP1 MLOAD PUSH2 0x3265 PUSH2 0x2CCB DUP3 PUSH2 0x2C4C JUMP JUMPDEST DUP2 DUP2 MSTORE DUP6 PUSH1 0x20 DUP4 DUP6 ADD ADD GT ISZERO PUSH2 0x327A JUMPI PUSH1 0x0 DUP1 REVERT JUMPDEST PUSH2 0x328B DUP3 PUSH1 0x20 DUP4 ADD PUSH1 0x20 DUP7 ADD PUSH2 0x2B4A JUMP JUMPDEST SWAP6 SWAP5 POP POP POP POP POP JUMP JUMPDEST PUSH1 0x1F DUP3 GT ISZERO PUSH2 0x13FB JUMPI PUSH1 0x0 DUP2 DUP2 MSTORE PUSH1 0x20 DUP2 KECCAK256 PUSH1 0x1F DUP6 ADD PUSH1 0x5 SHR DUP2 ADD PUSH1 0x20 DUP7 LT ISZERO PUSH2 0x32BB JUMPI POP DUP1 JUMPDEST PUSH1 0x1F DUP6 ADD PUSH1 0x5 SHR DUP3 ADD SWAP2 POP JUMPDEST DUP2 DUP2 LT ISZERO PUSH2 0x32DA JUMPI DUP3 DUP2 SSTORE PUSH1 0x1 ADD PUSH2 0x32C7 JUMP JUMPDEST POP POP POP POP POP POP JUMP JUMPDEST DUP2 MLOAD PUSH8 0xFFFFFFFFFFFFFFFF DUP2 GT ISZERO PUSH2 0x32FC JUMPI PUSH2 0x32FC PUSH2 0x2C05 JUMP JUMPDEST PUSH2 0x3310 DUP2 PUSH2 0x330A DUP5 SLOAD PUSH2 0x312C JUMP JUMPDEST DUP5 PUSH2 0x3294 JUMP JUMPDEST PUSH1 0x20 DUP1 PUSH1 0x1F DUP4 GT PUSH1 0x1 DUP2 EQ PUSH2 0x3345 JUMPI PUSH1 0x0 DUP5 ISZERO PUSH2 0x332D JUMPI POP DUP6 DUP4 ADD MLOAD JUMPDEST PUSH1 0x0 NOT PUSH1 0x3 DUP7 SWAP1 SHL SHR NOT AND PUSH1 0x1 DUP6 SWAP1 SHL OR DUP6 SSTORE PUSH2 0x32DA JUMP JUMPDEST PUSH1 0x0 DUP6 DUP2 MSTORE PUSH1 0x20 DUP2 KECCAK256 PUSH1 0x1F NOT DUP7 AND SWAP2 JUMPDEST DUP3 DUP2 LT ISZERO PUSH2 0x3374 JUMPI DUP9 DUP7 ADD MLOAD DUP3 SSTORE SWAP5 DUP5 ADD SWAP5 PUSH1 0x1 SWAP1 SWAP2 ADD SWAP1 DUP5 ADD PUSH2 0x3355 JUMP JUMPDEST POP DUP6 DUP3 LT ISZERO PUSH2 0x3392 JUMPI DUP8 DUP6 ADD MLOAD PUSH1 0x0 NOT PUSH1 0x3 DUP9 SWAP1 SHL PUSH1 0xF8 AND SHR NOT AND DUP2 SSTORE JUMPDEST POP POP POP POP POP PUSH1 0x1 SWAP1 DUP2 SHL ADD SWAP1 SSTORE POP JUMP JUMPDEST PUSH1 0x0 PUSH1 0x20 DUP3 DUP5 SUB SLT ISZERO PUSH2 0x33B4 JUMPI PUSH1 0x0 DUP1 REVERT JUMPDEST DUP2 MLOAD PUSH2 0x29F8 DUP2 PUSH2 0x2B1E JUMP JUMPDEST PUSH1 0x0 DUP1 DUP4 CALLDATALOAD PUSH1 0x1E NOT DUP5 CALLDATASIZE SUB ADD DUP2 SLT PUSH2 0x33D6 JUMPI PUSH1 0x0 DUP1 REVERT JUMPDEST DUP4 ADD DUP1 CALLDATALOAD SWAP2 POP PUSH8 0xFFFFFFFFFFFFFFFF DUP3 GT ISZERO PUSH2 0x33F1 JUMPI PUSH1 0x0 DUP1 REVERT JUMPDEST PUSH1 0x20 ADD SWAP2 POP CALLDATASIZE DUP2 SWAP1 SUB DUP3 SGT ISZERO PUSH2 0x2D4A JUMPI PUSH1 0x0 DUP1 REVERT JUMPDEST PUSH8 0xFFFFFFFFFFFFFFFF DUP4 GT ISZERO PUSH2 0x341E JUMPI PUSH2 0x341E PUSH2 0x2C05 JUMP JUMPDEST PUSH2 0x3432 DUP4 PUSH2 0x342C DUP4 SLOAD PUSH2 0x312C JUMP JUMPDEST DUP4 PUSH2 0x3294 JUMP JUMPDEST PUSH1 0x0 PUSH1 0x1F DUP5 GT PUSH1 0x1 DUP2 EQ PUSH2 0x3466 JUMPI PUSH1 0x0 DUP6 ISZERO PUSH2 0x344E JUMPI POP DUP4 DUP3 ADD CALLDATALOAD JUMPDEST PUSH1 0x0 NOT PUSH1 0x3 DUP8 SWAP1 SHL SHR NOT AND PUSH1 0x1 DUP7 SWAP1 SHL OR DUP4 SSTORE PUSH2 0x18C8 JUMP JUMPDEST PUSH1 0x0 DUP4 DUP2 MSTORE PUSH1 0x20 SWAP1 KECCAK256 PUSH1 0x1F NOT DUP7 AND SWAP1 DUP4 JUMPDEST DUP3 DUP2 LT ISZERO PUSH2 0x3497 JUMPI DUP7 DUP6 ADD CALLDATALOAD DUP3 SSTORE PUSH1 0x20 SWAP5 DUP6 ADD SWAP5 PUSH1 0x1 SWAP1 SWAP3 ADD SWAP2 ADD PUSH2 0x3477 JUMP JUMPDEST POP DUP7 DUP3 LT ISZERO PUSH2 0x34B4 JUMPI PUSH1 0x0 NOT PUSH1 0xF8 DUP9 PUSH1 0x3 SHL AND SHR NOT DUP5 DUP8 ADD CALLDATALOAD AND DUP2 SSTORE JUMPDEST POP POP PUSH1 0x1 DUP6 PUSH1 0x1 SHL ADD DUP4 SSTORE POP POP POP POP POP JUMP JUMPDEST PUSH1 0x0 PUSH1 0x20 DUP3 DUP5 SUB SLT ISZERO PUSH2 0x34D8 JUMPI PUSH1 0x0 DUP1 REVERT JUMPDEST POP MLOAD SWAP2 SWAP1 POP JUMP JUMPDEST PUSH1 0x20 DUP1 DUP3 MSTORE PUSH1 0x2B SWAP1 DUP3 ADD MSTORE PUSH32 0x496E697469616C697A61626C653A20636F6E7472616374206973206E6F742069 PUSH1 0x40 DUP3 ADD MSTORE PUSH11 0x6E697469616C697A696E67 PUSH1 0xA8 SHL PUSH1 0x60 DUP3 ADD MSTORE PUSH1 0x80 ADD SWAP1 JUMP JUMPDEST PUSH1 0x0 DUP3 MLOAD PUSH2 0x353C DUP2 DUP5 PUSH1 0x20 DUP8 ADD PUSH2 0x2B4A JUMP JUMPDEST SWAP2 SWAP1 SWAP2 ADD SWAP3 SWAP2 POP POP JUMP JUMPDEST PUSH1 0x20 DUP2 MSTORE PUSH1 0x0 PUSH2 0x29F8 PUSH1 0x20 DUP4 ADD DUP5 PUSH2 0x2B6E JUMP INVALID CALLDATASIZE ADDMOD SWAP5 LOG1 EXTCODESIZE LOG1 LOG3 0x21 MOD PUSH8 0xC828492DB98DCA3E KECCAK256 PUSH23 0xCC3735A920A3CA505D382BBC416464726573733A206C6F PUSH24 0x2D6C6576656C2064656C65676174652063616C6C20666169 PUSH13 0x6564A2646970667358221220D9 0xD9 CREATE2 0x1E 0xEA JUMP PUSH9 0x67EC04F56247CE2B24 PUSH5 0xE19E98BA84 0xCC SAR PUSH30 0x5A99BB0500915964736F6C63430008120033000000000000000000000000 "},"methodIdentifiers":{"addIBPAddressAdmin(address)":"e371c5c5","disableSupportedToken(address[])":"57b88805","getAdminAddress()":"b2e6b912","getAdminContractAddress()":"31d4465b","getAdminFees()":"3238c16f","getBaseCurrencyDecimals()":"c391d636","getBusdContractAddress()":"4b92fb12","getCoreMemberRewardRate()":"5397b86d","getCoreMembersContractAddress()":"916452ab","getDefaultIBP()":"b6b248de","getDefaultReferrer()":"24883508","getGlobalRewardRate()":"a46868f0","getIBPList()":"ffc43f8f","getIbpRewardRate()":"e7016717","getIsPayCoreMembersRewards()":"e179719a","getIsPayGlobalRewards()":"1f1eeec8","getIsPayIbpRewards()":"9f6d8870","getIsPayReferralRewards()":"3fae6a11","getIsPayRewardToken()":"2b70c02c","getIsPayWeeklyRewards()":"16dd07e0","getLevelDecimals()":"e7cca9c7","getLevelRates()":"918a54db","getPlanById(uint8)":"0efc12b1","getRewardTokenContract()":"65eb204d","getRewardTokenRate()":"e091099c","getSupportedTokenInfo(address)":"e74af32e","getUsdtContractAddress()":"beb22a20","getValueBufferRate()":"5f3ad6e2","getWeeklyRewardRate()":"b9cd1a50","getWeeklyRewardTimeLimit()":"b70c14f8","initialize()":"8129fc1c","isIBP(address)":"2f8c7e72","isTokenSupported(address)":"75151b63","owner()":"8da5cb5b","pause()":"8456cb59","paused()":"5c975abb","proxiableUUID()":"52d1902d","pushSupportedTokenToList(address[],address[])":"587d2c14","removeIBPAddressAdmin(address)":"00b29290","renounceOwnership()":"715018a6","setAdminAddress(address)":"2c1e816d","setAdminContractAddress(address)":"658918e0","setAdminFees(uint8)":"6cf3c676","setBaseCurrencyDecimals(uint8)":"a61a4ff3","setBusdContractAddress(address)":"8790c4f8","setCoreMemberRewardRate(uint8)":"a646e845","setCoreMembersContractAddress(address)":"f2a90121","setDefaultIBP(address)":"707d9afe","setDefaultReferrer(address)":"dcf6e819","setGlobalRewardRate(uint8)":"af2d4d09","setIbpRewardRate(uint8)":"880c0ec3","setIsPayCoreMembersRewards(bool)":"4ccebd50","setIsPayGlobalRewards(bool)":"93cee9c9","setIsPayIbpRewards(bool)":"5d9bed63","setIsPayReferralRewards(bool)":"b6443562","setIsPayRewardToken(bool)":"eb758bc7","setIsPayWeeklyRewards(bool)":"39e0dcfa","setLevelDecimals(uint16)":"a43ae408","setLevelRates(uint16[])":"d54fcd93","setPlans(uint8[],string[],uint256[],uint256[])":"bcb03b57","setRewardTokenContract(address)":"08fcfbbe","setRewardTokenRate(uint8)":"b7a26620","setUsdtContractAddress(address)":"e4203183","setValueBufferRate(uint8)":"94debf48","setWeeklyRewardRate(uint8)":"ac40e309","supportedTokensList(uint256)":"63c91877","transferOwnership(address)":"f2fde38b","unpause()":"3f4ba83a","upgradeTo(address)":"3659cfe6","upgradeToAndCall(address,bytes)":"4f1ef286"}},"storageLayout":{"storage":[{"astId":527,"contract":"contracts/VariablesV1Upgradeable.sol:VariablesV1Upgradeable","label":"_initialized","offset":0,"slot":"0","type":"t_uint8"},{"astId":530,"contract":"contracts/VariablesV1Upgradeable.sol:VariablesV1Upgradeable","label":"_initializing","offset":1,"slot":"0","type":"t_bool"},{"astId":1355,"contract":"contracts/VariablesV1Upgradeable.sol:VariablesV1Upgradeable","label":"__gap","offset":0,"slot":"1","type":"t_array(t_uint256)50_storage"},{"astId":846,"contract":"contracts/VariablesV1Upgradeable.sol:VariablesV1Upgradeable","label":"_paused","offset":0,"slot":"51","type":"t_bool"},{"astId":951,"contract":"contracts/VariablesV1Upgradeable.sol:VariablesV1Upgradeable","label":"__gap","offset":0,"slot":"52","type":"t_array(t_uint256)49_storage"},{"astId":10,"contract":"contracts/VariablesV1Upgradeable.sol:VariablesV1Upgradeable","label":"_owner","offset":0,"slot":"101","type":"t_address"},{"astId":130,"contract":"contracts/VariablesV1Upgradeable.sol:VariablesV1Upgradeable","label":"__gap","offset":0,"slot":"102","type":"t_array(t_uint256)49_storage"},{"astId":509,"contract":"contracts/VariablesV1Upgradeable.sol:VariablesV1Upgradeable","label":"__gap","offset":0,"slot":"151","type":"t_array(t_uint256)50_storage"},{"astId":824,"contract":"contracts/VariablesV1Upgradeable.sol:VariablesV1Upgradeable","label":"__gap","offset":0,"slot":"201","type":"t_array(t_uint256)50_storage"},{"astId":3367,"contract":"contracts/VariablesV1Upgradeable.sol:VariablesV1Upgradeable","label":"_levelRates","offset":0,"slot":"251","type":"t_array(t_uint16)dyn_storage"},{"astId":3369,"contract":"contracts/VariablesV1Upgradeable.sol:VariablesV1Upgradeable","label":"_levelDecimals","offset":0,"slot":"252","type":"t_uint16"},{"astId":3371,"contract":"contracts/VariablesV1Upgradeable.sol:VariablesV1Upgradeable","label":"_baseCurrencyDecimals","offset":2,"slot":"252","type":"t_uint8"},{"astId":3373,"contract":"contracts/VariablesV1Upgradeable.sol:VariablesV1Upgradeable","label":"_valueBufferRate","offset":3,"slot":"252","type":"t_uint8"},{"astId":3375,"contract":"contracts/VariablesV1Upgradeable.sol:VariablesV1Upgradeable","label":"_globalRewardRate","offset":4,"slot":"252","type":"t_uint8"},{"astId":3377,"contract":"contracts/VariablesV1Upgradeable.sol:VariablesV1Upgradeable","label":"_weeklyRewardRate","offset":5,"slot":"252","type":"t_uint8"},{"astId":3379,"contract":"contracts/VariablesV1Upgradeable.sol:VariablesV1Upgradeable","label":"_weeklyRewardTimeLimit","offset":0,"slot":"253","type":"t_uint256"},{"astId":3381,"contract":"contracts/VariablesV1Upgradeable.sol:VariablesV1Upgradeable","label":"_ibpRewardRate","offset":0,"slot":"254","type":"t_uint8"},{"astId":3383,"contract":"contracts/VariablesV1Upgradeable.sol:VariablesV1Upgradeable","label":"_coreMemberRewardRate","offset":1,"slot":"254","type":"t_uint8"},{"astId":3385,"contract":"contracts/VariablesV1Upgradeable.sol:VariablesV1Upgradeable","label":"_adminFees","offset":2,"slot":"254","type":"t_uint8"},{"astId":3387,"contract":"contracts/VariablesV1Upgradeable.sol:VariablesV1Upgradeable","label":"_rewardTokenRate","offset":3,"slot":"254","type":"t_uint8"},{"astId":3389,"contract":"contracts/VariablesV1Upgradeable.sol:VariablesV1Upgradeable","label":"_isPayRewardToken","offset":4,"slot":"254","type":"t_bool"},{"astId":3391,"contract":"contracts/VariablesV1Upgradeable.sol:VariablesV1Upgradeable","label":"_isPayReferralRewards","offset":5,"slot":"254","type":"t_bool"},{"astId":3393,"contract":"contracts/VariablesV1Upgradeable.sol:VariablesV1Upgradeable","label":"_isPayGlobalRewards","offset":6,"slot":"254","type":"t_bool"},{"astId":3395,"contract":"contracts/VariablesV1Upgradeable.sol:VariablesV1Upgradeable","label":"_isPayWeeklyRewards","offset":7,"slot":"254","type":"t_bool"},{"astId":3397,"contract":"contracts/VariablesV1Upgradeable.sol:VariablesV1Upgradeable","label":"_isPayIbpRewards","offset":8,"slot":"254","type":"t_bool"},{"astId":3399,"contract":"contracts/VariablesV1Upgradeable.sol:VariablesV1Upgradeable","label":"_isPayCoreMembersRewards","offset":9,"slot":"254","type":"t_bool"},{"astId":3401,"contract":"contracts/VariablesV1Upgradeable.sol:VariablesV1Upgradeable","label":"_usdtContractAddress","offset":10,"slot":"254","type":"t_address"},{"astId":3403,"contract":"contracts/VariablesV1Upgradeable.sol:VariablesV1Upgradeable","label":"_busdContractAddress","offset":0,"slot":"255","type":"t_address"},{"astId":3405,"contract":"contracts/VariablesV1Upgradeable.sol:VariablesV1Upgradeable","label":"_rewardTokenContract","offset":0,"slot":"256","type":"t_address"},{"astId":3407,"contract":"contracts/VariablesV1Upgradeable.sol:VariablesV1Upgradeable","label":"_coreMembersContractAddress","offset":0,"slot":"257","type":"t_address"},{"astId":3409,"contract":"contracts/VariablesV1Upgradeable.sol:VariablesV1Upgradeable","label":"_adminContractAddress","offset":0,"slot":"258","type":"t_address"},{"astId":3412,"contract":"contracts/VariablesV1Upgradeable.sol:VariablesV1Upgradeable","label":"supportedTokensList","offset":0,"slot":"259","type":"t_array(t_address)dyn_storage"},{"astId":3415,"contract":"contracts/VariablesV1Upgradeable.sol:VariablesV1Upgradeable","label":"_ibpAddresses","offset":0,"slot":"260","type":"t_array(t_address)dyn_storage"},{"astId":3417,"contract":"contracts/VariablesV1Upgradeable.sol:VariablesV1Upgradeable","label":"_defaultReferrer","offset":0,"slot":"261","type":"t_address"},{"astId":3419,"contract":"contracts/VariablesV1Upgradeable.sol:VariablesV1Upgradeable","label":"_defaultIBP","offset":0,"slot":"262","type":"t_address"},{"astId":3421,"contract":"contracts/VariablesV1Upgradeable.sol:VariablesV1Upgradeable","label":"_adminAddress","offset":0,"slot":"263","type":"t_address"},{"astId":3448,"contract":"contracts/VariablesV1Upgradeable.sol:VariablesV1Upgradeable","label":"plans","offset":0,"slot":"264","type":"t_mapping(t_uint8,t_struct(PlanStruct)3430_storage)"},{"astId":3453,"contract":"contracts/VariablesV1Upgradeable.sol:VariablesV1Upgradeable","label":"supportTokens","offset":0,"slot":"265","type":"t_mapping(t_address,t_struct(SupportedTokensStruct)3443_storage)"},{"astId":3457,"contract":"contracts/VariablesV1Upgradeable.sol:VariablesV1Upgradeable","label":"isIBPAddress","offset":0,"slot":"266","type":"t_mapping(t_address,t_bool)"}],"types":{"t_address":{"encoding":"inplace","label":"address","numberOfBytes":"20"},"t_array(t_address)dyn_storage":{"base":"t_address","encoding":"dynamic_array","label":"address[]","numberOfBytes":"32"},"t_array(t_uint16)dyn_storage":{"base":"t_uint16","encoding":"dynamic_array","label":"uint16[]","numberOfBytes":"32"},"t_array(t_uint256)49_storage":{"base":"t_uint256","encoding":"inplace","label":"uint256[49]","numberOfBytes":"1568"},"t_array(t_uint256)50_storage":{"base":"t_uint256","encoding":"inplace","label":"uint256[50]","numberOfBytes":"1600"},"t_bool":{"encoding":"inplace","label":"bool","numberOfBytes":"1"},"t_mapping(t_address,t_bool)":{"encoding":"mapping","key":"t_address","label":"mapping(address => bool)","numberOfBytes":"32","value":"t_bool"},"t_mapping(t_address,t_struct(SupportedTokensStruct)3443_storage)":{"encoding":"mapping","key":"t_address","label":"mapping(address => struct VariablesV1Upgradeable.SupportedTokensStruct)","numberOfBytes":"32","value":"t_struct(SupportedTokensStruct)3443_storage"},"t_mapping(t_uint8,t_struct(PlanStruct)3430_storage)":{"encoding":"mapping","key":"t_uint8","label":"mapping(uint8 => struct VariablesV1Upgradeable.PlanStruct)","numberOfBytes":"32","value":"t_struct(PlanStruct)3430_storage"},"t_string_storage":{"encoding":"bytes","label":"string","numberOfBytes":"32"},"t_struct(PlanStruct)3430_storage":{"encoding":"inplace","label":"struct VariablesV1Upgradeable.PlanStruct","members":[{"astId":3423,"contract":"contracts/VariablesV1Upgradeable.sol:VariablesV1Upgradeable","label":"planId","offset":0,"slot":"0","type":"t_uint8"},{"astId":3425,"contract":"contracts/VariablesV1Upgradeable.sol:VariablesV1Upgradeable","label":"name","offset":0,"slot":"1","type":"t_string_storage"},{"astId":3427,"contract":"contracts/VariablesV1Upgradeable.sol:VariablesV1Upgradeable","label":"value","offset":0,"slot":"2","type":"t_uint256"},{"astId":3429,"contract":"contracts/VariablesV1Upgradeable.sol:VariablesV1Upgradeable","label":"maxLimitMultiplier","offset":0,"slot":"3","type":"t_uint256"}],"numberOfBytes":"128"},"t_struct(SupportedTokensStruct)3443_storage":{"encoding":"inplace","label":"struct VariablesV1Upgradeable.SupportedTokensStruct","members":[{"astId":3432,"contract":"contracts/VariablesV1Upgradeable.sol:VariablesV1Upgradeable","label":"contractAddress","offset":0,"slot":"0","type":"t_address"},{"astId":3434,"contract":"contracts/VariablesV1Upgradeable.sol:VariablesV1Upgradeable","label":"name","offset":0,"slot":"1","type":"t_string_storage"},{"astId":3436,"contract":"contracts/VariablesV1Upgradeable.sol:VariablesV1Upgradeable","label":"symbol","offset":0,"slot":"2","type":"t_string_storage"},{"astId":3438,"contract":"contracts/VariablesV1Upgradeable.sol:VariablesV1Upgradeable","label":"decimals","offset":0,"slot":"3","type":"t_uint8"},{"astId":3440,"contract":"contracts/VariablesV1Upgradeable.sol:VariablesV1Upgradeable","label":"aggregatorAddress","offset":1,"slot":"3","type":"t_address"},{"astId":3442,"contract":"contracts/VariablesV1Upgradeable.sol:VariablesV1Upgradeable","label":"isEbaled","offset":21,"slot":"3","type":"t_bool"}],"numberOfBytes":"128"},"t_uint16":{"encoding":"inplace","label":"uint16","numberOfBytes":"2"},"t_uint256":{"encoding":"inplace","label":"uint256","numberOfBytes":"32"},"t_uint8":{"encoding":"inplace","label":"uint8","numberOfBytes":"1"}}}}}}