{"contracts/VariablesV1Upgradeable.sol":{"VariablesV1Upgradeable":{"abi":[{"anonymous":false,"inputs":[{"indexed":false,"internalType":"address","name":"previousAdmin","type":"address"},{"indexed":false,"internalType":"address","name":"newAdmin","type":"address"}],"name":"AdminChanged","type":"event"},{"anonymous":false,"inputs":[{"indexed":true,"internalType":"address","name":"beacon","type":"address"}],"name":"BeaconUpgraded","type":"event"},{"anonymous":false,"inputs":[{"indexed":false,"internalType":"address","name":"ibpAddress","type":"address"}],"name":"IBPPromotedByAdmin","type":"event"},{"anonymous":false,"inputs":[{"indexed":false,"internalType":"address","name":"ibpAddress","type":"address"}],"name":"IBPRemovedByAdmin","type":"event"},{"anonymous":false,"inputs":[{"indexed":false,"internalType":"uint8","name":"version","type":"uint8"}],"name":"Initialized","type":"event"},{"anonymous":false,"inputs":[{"indexed":true,"internalType":"address","name":"previousOwner","type":"address"},{"indexed":true,"internalType":"address","name":"newOwner","type":"address"}],"name":"OwnershipTransferred","type":"event"},{"anonymous":false,"inputs":[{"indexed":false,"internalType":"address","name":"account","type":"address"}],"name":"Paused","type":"event"},{"anonymous":false,"inputs":[{"indexed":false,"internalType":"address","name":"account","type":"address"}],"name":"Unpaused","type":"event"},{"anonymous":false,"inputs":[{"indexed":true,"internalType":"address","name":"implementation","type":"address"}],"name":"Upgraded","type":"event"},{"inputs":[{"internalType":"address","name":"_ibpAddress","type":"address"}],"name":"addIBPAddressAdmin","outputs":[],"stateMutability":"nonpayable","type":"function"},{"inputs":[{"internalType":"address[]","name":"_tokenContractAddress","type":"address[]"}],"name":"disableSupportedToken","outputs":[],"stateMutability":"nonpayable","type":"function"},{"inputs":[],"name":"getAdminAddress","outputs":[{"internalType":"address","name":"","type":"address"}],"stateMutability":"view","type":"function"},{"inputs":[],"name":"getAdminFees","outputs":[{"internalType":"uint8","name":"","type":"uint8"}],"stateMutability":"view","type":"function"},{"inputs":[],"name":"getBaseCurrencyDecimals","outputs":[{"internalType":"uint8","name":"","type":"uint8"}],"stateMutability":"view","type":"function"},{"inputs":[],"name":"getCoreMemberRewardRate","outputs":[{"internalType":"uint8","name":"","type":"uint8"}],"stateMutability":"view","type":"function"},{"inputs":[],"name":"getCoreMembersContractAddress","outputs":[{"internalType":"address","name":"","type":"address"}],"stateMutability":"view","type":"function"},{"inputs":[],"name":"getGlobalRewardRate","outputs":[{"internalType":"uint8","name":"","type":"uint8"}],"stateMutability":"view","type":"function"},{"inputs":[],"name":"getIBPList","outputs":[{"internalType":"address[]","name":"","type":"address[]"}],"stateMutability":"view","type":"function"},{"inputs":[],"name":"getIbpRewardRate","outputs":[{"internalType":"uint8","name":"","type":"uint8"}],"stateMutability":"view","type":"function"},{"inputs":[],"name":"getIsPayCoreMembersRewards","outputs":[{"internalType":"bool","name":"","type":"bool"}],"stateMutability":"view","type":"function"},{"inputs":[],"name":"getIsPayGlobalRewards","outputs":[{"internalType":"bool","name":"","type":"bool"}],"stateMutability":"view","type":"function"},{"inputs":[],"name":"getIsPayIbpRewards","outputs":[{"internalType":"bool","name":"","type":"bool"}],"stateMutability":"view","type":"function"},{"inputs":[],"name":"getIsPayReferralRewards","outputs":[{"internalType":"bool","name":"","type":"bool"}],"stateMutability":"view","type":"function"},{"inputs":[],"name":"getIsPayRewardToken","outputs":[{"internalType":"bool","name":"","type":"bool"}],"stateMutability":"view","type":"function"},{"inputs":[],"name":"getIsPayWeeklyRewards","outputs":[{"internalType":"bool","name":"","type":"bool"}],"stateMutability":"view","type":"function"},{"inputs":[],"name":"getLevelDecimals","outputs":[{"internalType":"uint16","name":"","type":"uint16"}],"stateMutability":"view","type":"function"},{"inputs":[],"name":"getLevelRates","outputs":[{"internalType":"uint16[]","name":"","type":"uint16[]"}],"stateMutability":"view","type":"function"},{"inputs":[{"internalType":"uint8","name":"_planId","type":"uint8"}],"name":"getPlanById","outputs":[{"components":[{"internalType":"uint8","name":"planId","type":"uint8"},{"internalType":"string","name":"name","type":"string"},{"internalType":"uint256","name":"value","type":"uint256"},{"internalType":"uint256","name":"maxLimitMultiplier","type":"uint256"}],"internalType":"struct VariablesV1Upgradeable.PlanStruct","name":"","type":"tuple"}],"stateMutability":"view","type":"function"},{"inputs":[],"name":"getPlansCount","outputs":[{"internalType":"uint8","name":"planCount","type":"uint8"}],"stateMutability":"view","type":"function"},{"inputs":[],"name":"getPresaleContract","outputs":[{"internalType":"address","name":"","type":"address"}],"stateMutability":"view","type":"function"},{"inputs":[],"name":"getReferralContract","outputs":[{"internalType":"address","name":"","type":"address"}],"stateMutability":"view","type":"function"},{"inputs":[],"name":"getRewardTokenContract","outputs":[{"internalType":"address","name":"","type":"address"}],"stateMutability":"view","type":"function"},{"inputs":[],"name":"getRewardTokenRate","outputs":[{"internalType":"uint8","name":"","type":"uint8"}],"stateMutability":"view","type":"function"},{"inputs":[],"name":"getStakingContract","outputs":[{"internalType":"address","name":"","type":"address"}],"stateMutability":"view","type":"function"},{"inputs":[{"internalType":"address","name":"_tokenContractAddress","type":"address"}],"name":"getSupportedTokenInfo","outputs":[{"components":[{"internalType":"address","name":"contractAddress","type":"address"},{"internalType":"string","name":"name","type":"string"},{"internalType":"string","name":"symbol","type":"string"},{"internalType":"uint8","name":"decimals","type":"uint8"},{"internalType":"bool","name":"isStable","type":"bool"},{"internalType":"address","name":"aggregatorAddress","type":"address"},{"internalType":"bool","name":"isEnaled","type":"bool"}],"internalType":"struct VariablesV1Upgradeable.SupportedTokensStruct","name":"","type":"tuple"}],"stateMutability":"view","type":"function"},{"inputs":[],"name":"getUniSwapRouterV2Address","outputs":[{"internalType":"address","name":"","type":"address"}],"stateMutability":"view","type":"function"},{"inputs":[],"name":"getValueBufferRate","outputs":[{"internalType":"uint8","name":"","type":"uint8"}],"stateMutability":"view","type":"function"},{"inputs":[],"name":"getWeeklyRewardRate","outputs":[{"internalType":"uint8","name":"","type":"uint8"}],"stateMutability":"view","type":"function"},{"inputs":[],"name":"initialize","outputs":[],"stateMutability":"nonpayable","type":"function"},{"inputs":[{"internalType":"address","name":"_ibpAddress","type":"address"}],"name":"isIBP","outputs":[{"internalType":"bool","name":"","type":"bool"}],"stateMutability":"view","type":"function"},{"inputs":[{"internalType":"address","name":"_tokenContractAddress","type":"address"}],"name":"isTokenSupported","outputs":[{"internalType":"bool","name":"","type":"bool"}],"stateMutability":"view","type":"function"},{"inputs":[],"name":"owner","outputs":[{"internalType":"address","name":"","type":"address"}],"stateMutability":"view","type":"function"},{"inputs":[],"name":"pause","outputs":[],"stateMutability":"nonpayable","type":"function"},{"inputs":[],"name":"paused","outputs":[{"internalType":"bool","name":"","type":"bool"}],"stateMutability":"view","type":"function"},{"inputs":[],"name":"proxiableUUID","outputs":[{"internalType":"bytes32","name":"","type":"bytes32"}],"stateMutability":"view","type":"function"},{"inputs":[{"internalType":"address","name":"_tokenContractAddress","type":"address"},{"internalType":"bool","name":"_isStable","type":"bool"},{"internalType":"address","name":"_aggregatorContractAddress","type":"address"}],"name":"pushSupportedTokenToList","outputs":[],"stateMutability":"nonpayable","type":"function"},{"inputs":[{"internalType":"address","name":"_ibpAddress","type":"address"}],"name":"removeIBPAddressAdmin","outputs":[],"stateMutability":"nonpayable","type":"function"},{"inputs":[],"name":"renounceOwnership","outputs":[],"stateMutability":"nonpayable","type":"function"},{"inputs":[{"internalType":"address","name":"adminAddress","type":"address"}],"name":"setAdminAddress","outputs":[],"stateMutability":"nonpayable","type":"function"},{"inputs":[{"internalType":"uint8","name":"fees","type":"uint8"}],"name":"setAdminFees","outputs":[],"stateMutability":"nonpayable","type":"function"},{"inputs":[{"internalType":"uint8","name":"decimals","type":"uint8"}],"name":"setBaseCurrencyDecimals","outputs":[],"stateMutability":"nonpayable","type":"function"},{"inputs":[{"internalType":"uint8","name":"rate","type":"uint8"}],"name":"setCoreMemberRewardRate","outputs":[],"stateMutability":"nonpayable","type":"function"},{"inputs":[{"internalType":"address","name":"_address","type":"address"}],"name":"setCoreMembersContractAddress","outputs":[],"stateMutability":"nonpayable","type":"function"},{"inputs":[{"internalType":"uint8","name":"rate","type":"uint8"}],"name":"setGlobalRewardRate","outputs":[],"stateMutability":"nonpayable","type":"function"},{"inputs":[{"internalType":"uint8","name":"rate","type":"uint8"}],"name":"setIbpRewardRate","outputs":[],"stateMutability":"nonpayable","type":"function"},{"inputs":[{"internalType":"bool","name":"value","type":"bool"}],"name":"setIsPayCoreMembersRewards","outputs":[],"stateMutability":"nonpayable","type":"function"},{"inputs":[{"internalType":"bool","name":"value","type":"bool"}],"name":"setIsPayGlobalRewards","outputs":[],"stateMutability":"nonpayable","type":"function"},{"inputs":[{"internalType":"bool","name":"value","type":"bool"}],"name":"setIsPayIbpRewards","outputs":[],"stateMutability":"nonpayable","type":"function"},{"inputs":[{"internalType":"bool","name":"value","type":"bool"}],"name":"setIsPayReferralRewards","outputs":[],"stateMutability":"nonpayable","type":"function"},{"inputs":[{"internalType":"bool","name":"isPay","type":"bool"}],"name":"setIsPayRewardToken","outputs":[],"stateMutability":"nonpayable","type":"function"},{"inputs":[{"internalType":"bool","name":"value","type":"bool"}],"name":"setIsPayWeeklyRewards","outputs":[],"stateMutability":"nonpayable","type":"function"},{"inputs":[{"internalType":"uint16","name":"decimals","type":"uint16"}],"name":"setLevelDecimals","outputs":[],"stateMutability":"nonpayable","type":"function"},{"inputs":[{"internalType":"uint16[]","name":"rates","type":"uint16[]"}],"name":"setLevelRates","outputs":[],"stateMutability":"nonpayable","type":"function"},{"inputs":[{"internalType":"uint8[]","name":"planId","type":"uint8[]"},{"internalType":"string[]","name":"name","type":"string[]"},{"internalType":"uint256[]","name":"valueInDecimals","type":"uint256[]"},{"internalType":"uint256[]","name":"maxLimitMultiplier","type":"uint256[]"}],"name":"setPlans","outputs":[],"stateMutability":"nonpayable","type":"function"},{"inputs":[{"internalType":"address","name":"_contractAddress","type":"address"}],"name":"setPresaleContract","outputs":[],"stateMutability":"nonpayable","type":"function"},{"inputs":[{"internalType":"address","name":"_contractAddress","type":"address"}],"name":"setReferralContract","outputs":[],"stateMutability":"nonpayable","type":"function"},{"inputs":[{"internalType":"address","name":"tokenContract","type":"address"}],"name":"setRewardTokenContract","outputs":[],"stateMutability":"nonpayable","type":"function"},{"inputs":[{"internalType":"uint8","name":"_rewardRatePer","type":"uint8"}],"name":"setRewardTokenRate","outputs":[],"stateMutability":"nonpayable","type":"function"},{"inputs":[{"internalType":"address","name":"_contractAddress","type":"address"}],"name":"setStakingContract","outputs":[],"stateMutability":"nonpayable","type":"function"},{"inputs":[{"internalType":"address","name":"_routerV2Address","type":"address"}],"name":"setUniSwapRouterV2Address","outputs":[],"stateMutability":"nonpayable","type":"function"},{"inputs":[{"internalType":"uint8","name":"rate","type":"uint8"}],"name":"setValueBufferRate","outputs":[],"stateMutability":"nonpayable","type":"function"},{"inputs":[{"internalType":"uint8","name":"rate","type":"uint8"}],"name":"setWeeklyRewardRate","outputs":[],"stateMutability":"nonpayable","type":"function"},{"inputs":[{"internalType":"uint256","name":"","type":"uint256"}],"name":"supportedTokensList","outputs":[{"internalType":"address","name":"","type":"address"}],"stateMutability":"view","type":"function"},{"inputs":[{"internalType":"address","name":"newOwner","type":"address"}],"name":"transferOwnership","outputs":[],"stateMutability":"nonpayable","type":"function"},{"inputs":[],"name":"unpause","outputs":[],"stateMutability":"nonpayable","type":"function"},{"inputs":[{"internalType":"address","name":"newImplementation","type":"address"}],"name":"upgradeTo","outputs":[],"stateMutability":"nonpayable","type":"function"},{"inputs":[{"internalType":"address","name":"newImplementation","type":"address"},{"internalType":"bytes","name":"data","type":"bytes"}],"name":"upgradeToAndCall","outputs":[],"stateMutability":"payable","type":"function"}],"evm":{"bytecode":{"linkReferences":{},"object":"60a06040523060805234801561001457600080fd5b5060805161336261004c600039600081816112b1015281816112fa015281816113f70152818161143701526114c601526133626000f3fe6080604052600436106103ee5760003560e01c80638da5cb5b11610208578063b644356211610118578063e371c5c5116100ab578063eb758bc71161007a578063eb758bc714610c0f578063f1012b4514610c2f578063f2a9012114610c4d578063f2fde38b14610c6d578063ffc43f8f14610c8d57600080fd5b8063e371c5c514610b7d578063e701671714610b9d578063e74af32e14610bbf578063e7cca9c714610bec57600080fd5b8063c391d636116100e7578063c391d63614610b01578063d54fcd9314610b1f578063e091099c14610b3f578063e179719a14610b5e57600080fd5b8063b644356214610a80578063b7a2662014610aa0578063b9cd1a5014610ac0578063bcb03b5714610ae157600080fd5b8063a43ae4081161019b578063a9bbd1141161016a578063a9bbd114146109ec578063ac40e30914610a0c578063acc9186514610a2c578063af2d4d0914610a41578063b2e6b91214610a6157600080fd5b8063a43ae4081461096c578063a46868f01461098c578063a61a4ff3146109ac578063a646e845146109cc57600080fd5b806393cee9c9116101d757806393cee9c9146108ed57806394debf481461090d5780639dd373b91461092d5780639f6d88701461094d57600080fd5b80638da5cb5b1461086f5780638e68dce41461088d578063916452ab146108ac578063918a54db146108cb57600080fd5b80634ccebd50116103035780635f3ad6e211610296578063715018a611610265578063715018a6146107cc57806375151b63146107e15780638129fc1c146108255780638456cb591461083a578063880c0ec31461084f57600080fd5b80635f3ad6e21461074e57806363c918771461076d57806365eb204d1461078d5780636cf3c676146107ac57600080fd5b806357b88805116102d257806357b88805146106d65780635880360a146106f65780635c975abb146107165780635d9bed631461072e57600080fd5b80634ccebd50146106615780634f1ef2861461068157806352d1902d146106945780635397b86d146106b757600080fd5b80632b70c02c116103865780633659cfe6116103555780633659cfe6146105ce57806339e0dcfa146105ee5780633ee1f1ba1461060e5780633f4ba83a1461062d5780633fae6a111461064257600080fd5b80632b70c02c146105285780632c1e816d146105475780632f8c7e72146105675780633238c16f146105a157600080fd5b80630efc12b1116103c25780630efc12b11461047557806316dd07e0146104ab5780631f1eeec8146104d657806323442c60146104f557600080fd5b8062b29290146103f3578063051ff2b91461041557806306ad5a471461043557806308fcfbbe14610455575b600080fd5b3480156103ff57600080fd5b5061041361040e3660046128e2565b610caf565b005b34801561042157600080fd5b5061041361043036600461290d565b610e8c565b34801561044157600080fd5b506104136104503660046128e2565b61111d565b34801561046157600080fd5b506104136104703660046128e2565b611148565b34801561048157600080fd5b5061049561049036600461295f565b611173565b6040516104a291906129cc565b60405180910390f35b3480156104b757600080fd5b5060fc54600160681b900460ff165b60405190151581526020016104a2565b3480156104e257600080fd5b5060fc54600160601b900460ff166104c6565b34801561050157600080fd5b50610100546001600160a01b03165b6040516001600160a01b0390911681526020016104a2565b34801561053457600080fd5b5060fc54600160501b900460ff166104c6565b34801561055357600080fd5b506104136105623660046128e2565b61127c565b34801561057357600080fd5b506104c66105823660046128e2565b6001600160a01b03166000908152610108602052604090205460ff1690565b3480156105ad57600080fd5b5060fc54600160401b900460ff165b60405160ff90911681526020016104a2565b3480156105da57600080fd5b506104136105e93660046128e2565b6112a7565b3480156105fa57600080fd5b50610413610609366004612a15565b61138f565b34801561061a57600080fd5b50610109546001600160a01b0316610510565b34801561063957600080fd5b506104136113b5565b34801561064e57600080fd5b5060fc54600160581b900460ff166104c6565b34801561066d57600080fd5b5061041361067c366004612a15565b6113c7565b61041361068f366004612add565b6113ed565b3480156106a057600080fd5b506106a96114b9565b6040519081526020016104a2565b3480156106c357600080fd5b5060fc54600160381b900460ff166105bc565b3480156106e257600080fd5b506104136106f1366004612b8b565b61156c565b34801561070257600080fd5b506104136107113660046128e2565b61165e565b34801561072257600080fd5b5060335460ff166104c6565b34801561073a57600080fd5b50610413610749366004612a15565b611689565b34801561075a57600080fd5b5060fc546301000000900460ff166105bc565b34801561077957600080fd5b50610510610788366004612bcd565b6116af565b34801561079957600080fd5b50610103546001600160a01b0316610510565b3480156107b857600080fd5b506104136107c736600461295f565b6116d9565b3480156107d857600080fd5b50610413611706565b3480156107ed57600080fd5b506104c66107fc3660046128e2565b6001600160a01b031660009081526101076020526040902060030154600160b01b900460ff1690565b34801561083157600080fd5b50610413611718565b34801561084657600080fd5b50610413611923565b34801561085b57600080fd5b5061041361086a36600461295f565b611933565b34801561087b57600080fd5b506065546001600160a01b0316610510565b34801561089957600080fd5b50610101546001600160a01b0316610510565b3480156108b857600080fd5b50610104546001600160a01b0316610510565b3480156108d757600080fd5b506108e0611961565b6040516104a29190612be6565b3480156108f957600080fd5b50610413610908366004612a15565b6119e1565b34801561091957600080fd5b5061041361092836600461295f565b611a07565b34801561093957600080fd5b506104136109483660046128e2565b611a2f565b34801561095957600080fd5b5060fc54600160701b900460ff166104c6565b34801561097857600080fd5b50610413610987366004612c40565b611a5a565b34801561099857600080fd5b5060fc54640100000000900460ff166105bc565b3480156109b857600080fd5b506104136109c736600461295f565b611a7a565b3480156109d857600080fd5b506104136109e736600461295f565b611aa0565b3480156109f857600080fd5b50610413610a073660046128e2565b611acc565b348015610a1857600080fd5b50610413610a2736600461295f565b611af6565b348015610a3857600080fd5b506105bc611b22565b348015610a4d57600080fd5b50610413610a5c36600461295f565b611b72565b348015610a6d57600080fd5b50610105546001600160a01b0316610510565b348015610a8c57600080fd5b50610413610a9b366004612a15565b611b9c565b348015610aac57600080fd5b50610413610abb36600461295f565b611bc2565b348015610acc57600080fd5b5060fc5465010000000000900460ff166105bc565b348015610aed57600080fd5b50610413610afc366004612c7f565b611bf0565b348015610b0d57600080fd5b5060fc5462010000900460ff166105bc565b348015610b2b57600080fd5b50610413610b3a366004612dc9565b611dcc565b348015610b4b57600080fd5b5060fc54600160481b900460ff166105bc565b348015610b6a57600080fd5b5060fc54600160781b900460ff166104c6565b348015610b8957600080fd5b50610413610b983660046128e2565b611de7565b348015610ba957600080fd5b5060fc546601000000000000900460ff166105bc565b348015610bcb57600080fd5b50610bdf610bda3660046128e2565b611eaf565b6040516104a29190612e61565b348015610bf857600080fd5b5060fc5460405161ffff90911681526020016104a2565b348015610c1b57600080fd5b50610413610c2a366004612a15565b612083565b348015610c3b57600080fd5b5060ff546001600160a01b0316610510565b348015610c5957600080fd5b50610413610c683660046128e2565b6120a9565b348015610c7957600080fd5b50610413610c883660046128e2565b6120d4565b348015610c9957600080fd5b50610ca261214a565b6040516104a29190612ef9565b610cb76121ab565b6001600160a01b0381166000908152610108602052604090205460ff168015610e88576001600160a01b038216600090815261010860209081526040808320805460ff1916905560fe80548251818502810185019093528083529192909190830182828015610d4f57602002820191906000526020600020905b81546001600160a01b03168152600190910190602001808311610d31575b5050505050905060005b8151811015610e8557836001600160a01b0316828281518110610d7e57610d7e612f3a565b60200260200101516001600160a01b031603610e73578160018351610da39190612f66565b81518110610db357610db3612f3a565b602002602001015160fe8281548110610dce57610dce612f3a565b9060005260206000200160006101000a8154816001600160a01b0302191690836001600160a01b0316021790555060fe805480610e0d57610e0d612f79565b6000828152602090819020600019908301810180546001600160a01b03191690559091019091556040516001600160a01b03861681527f337eeb0192a31dfc3c61aff0be47a571a126a9e3f1caaee4af8c29babbb477e9910160405180910390a1610e85565b80610e7d81612f8f565b915050610d59565b50505b5050565b610e946121ab565b6040518060e00160405280846001600160a01b03168152602001846001600160a01b03166306fdde036040518163ffffffff1660e01b8152600401600060405180830381865afa158015610eec573d6000803e3d6000fd5b505050506040513d6000823e601f3d908101601f19168201604052610f149190810190612fa8565b8152602001846001600160a01b03166395d89b416040518163ffffffff1660e01b8152600401600060405180830381865afa158015610f57573d6000803e3d6000fd5b505050506040513d6000823e601f3d908101601f19168201604052610f7f9190810190612fa8565b8152602001846001600160a01b031663313ce5676040518163ffffffff1660e01b8152600401602060405180830381865afa158015610fc2573d6000803e3d6000fd5b505050506040513d601f19601f82011682018060405250810190610fe6919061301f565b60ff1681528315156020808301919091526001600160a01b03848116604080850191909152600160609094018490528782166000908152610107845220845181546001600160a01b031916921691909117815590830151909182019061104c90826130c4565b506040820151600282019061106190826130c4565b50606082015160039091018054608084015160a085015160c0909501511515600160b01b0260ff60b01b196001600160a01b0396871662010000021662010000600160b81b03199215156101000261ffff1990941660ff9096169590951792909217169290921791909117905560fd80546001810182556000919091527f9346ac6dd7de6b96975fec380d4d994c4c12e6a8897544f22915316cc6cca280018054949091166001600160a01b0319909416939093179092555050565b6111256121ab565b61010080546001600160a01b0319166001600160a01b0392909216919091179055565b6111506121ab565b61010380546001600160a01b0319166001600160a01b0392909216919091179055565b6111a16040518060800160405280600060ff1681526020016060815260200160008152602001600081525090565b60ff8083166000908152610106602090815260409182902082516080810190935280549093168252600183018054929392918401916111df9061303c565b80601f016020809104026020016040519081016040528092919081815260200182805461120b9061303c565b80156112585780601f1061122d57610100808354040283529160200191611258565b820191906000526020600020905b81548152906001019060200180831161123b57829003601f168201915b50505050508152602001600282015481526020016003820154815250509050919050565b6112846121ab565b61010580546001600160a01b0319166001600160a01b0392909216919091179055565b6001600160a01b037f00000000000000000000000000000000000000000000000000000000000000001630036112f85760405162461bcd60e51b81526004016112ef90613184565b60405180910390fd5b7f00000000000000000000000000000000000000000000000000000000000000006001600160a01b03166113416000805160206132e6833981519152546001600160a01b031690565b6001600160a01b0316146113675760405162461bcd60e51b81526004016112ef906131d0565b61137081612205565b6040805160008082526020820190925261138c9183919061220d565b50565b6113976121ab565b60fc8054911515600160681b0260ff60681b19909216919091179055565b6113bd6121ab565b6113c5612378565b565b6113cf6121ab565b60fc8054911515600160781b0260ff60781b19909216919091179055565b6001600160a01b037f00000000000000000000000000000000000000000000000000000000000000001630036114355760405162461bcd60e51b81526004016112ef90613184565b7f00000000000000000000000000000000000000000000000000000000000000006001600160a01b031661147e6000805160206132e6833981519152546001600160a01b031690565b6001600160a01b0316146114a45760405162461bcd60e51b81526004016112ef906131d0565b6114ad82612205565b610e888282600161220d565b6000306001600160a01b037f000000000000000000000000000000000000000000000000000000000000000016146115595760405162461bcd60e51b815260206004820152603860248201527f555550535570677261646561626c653a206d757374206e6f742062652063616c60448201527f6c6564207468726f7567682064656c656761746563616c6c000000000000000060648201526084016112ef565b506000805160206132e683398151915290565b6115746121ab565b60005b60ff8116821115611659576000610107600085858560ff1681811061159e5761159e612f3a565b90506020020160208101906115b391906128e2565b6001600160a01b0316815260208101919091526040016000206003018054911515600160b01b0260ff60b01b1990921691909117905560fd838360ff841681811061160057611600612f3a565b905060200201602081019061161591906128e2565b81546001810183556000928352602090922090910180546001600160a01b0319166001600160a01b03909216919091179055806116518161321c565b915050611577565b505050565b6116666121ab565b61010980546001600160a01b0319166001600160a01b0392909216919091179055565b6116916121ab565b60fc8054911515600160701b0260ff60701b19909216919091179055565b60fd81815481106116bf57600080fd5b6000918252602090912001546001600160a01b0316905081565b6116e16121ab565b60fc805460ff909216600160401b0268ff000000000000000019909216919091179055565b61170e6121ab565b6113c560006123ca565b600054610100900460ff16158080156117385750600054600160ff909116105b806117525750303b158015611752575060005460ff166001145b6117b55760405162461bcd60e51b815260206004820152602e60248201527f496e697469616c697a61626c653a20636f6e747261637420697320616c72656160448201526d191e481a5b9a5d1a585b1a5e995960921b60648201526084016112ef565b6000805460ff1916600117905580156117d8576000805461ff0019166101001790555b604080516101408101825261138881526101f460208201526101909181019190915261012c606082015260c86080820152606460a0820181905260c0820152607d60e08201819052610100820152609661012082015261183c9060fb90600a612811565b5060fc805461010380546001600160a01b0319908116737f9fd63932babc508fad2f324eb534d09cfe86f0179091556f010101010101030302050a0a0a0027106fffffffffffffffffffffffffff00ffff19909216919091179091556101048054821673efb61c43c70b60563c1a2a835663c63ecc93f6ba1790556101058054909116331790556118cb61241c565b6118d361244b565b6118db61247a565b801561138c576000805461ff0019169055604051600181527f7f26b83ff96e1f2b6a682f133852f6798a09c465da95921460cefb38474024989060200160405180910390a150565b61192b6121ab565b6113c56124a1565b61193b6121ab565b60fc805460ff90921666010000000000000266ff00000000000019909216919091179055565b606060fb8054806020026020016040519081016040528092919081815260200182805480156119d757602002820191906000526020600020906000905b82829054906101000a900461ffff1661ffff168152602001906002019060208260010104928301926001038202915080841161199e5790505b5050505050905090565b6119e96121ab565b60fc8054911515600160601b0260ff60601b19909216919091179055565b611a0f6121ab565b60fc805460ff90921663010000000263ff00000019909216919091179055565b611a376121ab565b61010180546001600160a01b0319166001600160a01b0392909216919091179055565b611a626121ab565b60fc805461ffff191661ffff92909216919091179055565b611a826121ab565b60fc805460ff909216620100000262ff000019909216919091179055565b611aa86121ab565b60fc805460ff909216600160381b0267ff0000000000000019909216919091179055565b611ad46121ab565b60ff80546001600160a01b0319166001600160a01b0392909216919091179055565b611afe6121ab565b60fc805460ff909216650100000000000265ff000000000019909216919091179055565b6000805b60148160ff161015611b6e5760ff81166000908152610106602052604090206002015415611b5c5781611b588161321c565b9250505b80611b668161321c565b915050611b26565b5090565b611b7a6121ab565b60fc805460ff9092166401000000000264ff0000000019909216919091179055565b611ba46121ab565b60fc8054911515600160581b0260ff60581b19909216919091179055565b611bca6121ab565b60fc805460ff909216600160481b0269ff00000000000000000019909216919091179055565b611bf86121ab565b60005b86811015611dc257878782818110611c1557611c15612f3a565b9050602002016020810190611c2a919061295f565b61010660008a8a85818110611c4157611c41612f3a565b9050602002016020810190611c56919061295f565b60ff90811682526020820192909252604001600020805460ff1916929091169190911790558551869082908110611c8f57611c8f612f3a565b602002602001015161010660008a8a85818110611cae57611cae612f3a565b9050602002016020810190611cc3919061295f565b60ff168152602081019190915260400160002060010190611ce490826130c4565b50848482818110611cf757611cf7612f3a565b90506020020135670de0b6b3a7640000611d11919061323b565b61010660008a8a85818110611d2857611d28612f3a565b9050602002016020810190611d3d919061295f565b60ff168152602081019190915260400160002060020155828282818110611d6657611d66612f3a565b9050602002013561010660008a8a85818110611d8457611d84612f3a565b9050602002016020810190611d99919061295f565b60ff16815260208101919091526040016000206003015580611dba81612f8f565b915050611bfb565b5050505050505050565b611dd46121ab565b8051610e889060fb906020840190612811565b611def6121ab565b6001600160a01b0381166000908152610108602052604090205460ff1680610e88576001600160a01b038216600081815261010860209081526040808320805460ff1916600190811790915560fe805491820181559093527f54075df80ec1ae6ac9100e1fd0ebf3246c17f5c933137af392011f4c5f61513a90920180546001600160a01b0319168417905590519182527fe30f8cb0d8cbc7c0e95d5aaa3107ce401738ce4bc98a05dd081bb2a77a9ca749910160405180910390a15050565b6040805160e080820183526000808352606060208085018290528486018290529084018290526080840182905260a0840182905260c084018290526001600160a01b0386811683526101078252918590208551938401909552845490911682526001840180549394929391840191611f269061303c565b80601f0160208091040260200160405190810160405280929190818152602001828054611f529061303c565b8015611f9f5780601f10611f7457610100808354040283529160200191611f9f565b820191906000526020600020905b815481529060010190602001808311611f8257829003601f168201915b50505050508152602001600282018054611fb89061303c565b80601f0160208091040260200160405190810160405280929190818152602001828054611fe49061303c565b80156120315780601f1061200657610100808354040283529160200191612031565b820191906000526020600020905b81548152906001019060200180831161201457829003601f168201915b50505091835250506003919091015460ff808216602084015261010082048116151560408401526001600160a01b03620100008304166060840152600160b01b90910416151560809091015292915050565b61208b6121ab565b60fc8054911515600160501b0260ff60501b19909216919091179055565b6120b16121ab565b61010480546001600160a01b0319166001600160a01b0392909216919091179055565b6120dc6121ab565b6001600160a01b0381166121415760405162461bcd60e51b815260206004820152602660248201527f4f776e61626c653a206e6577206f776e657220697320746865207a65726f206160448201526564647265737360d01b60648201526084016112ef565b61138c816123ca565b606060fe8054806020026020016040519081016040528092919081815260200182805480156119d757602002820191906000526020600020905b81546001600160a01b03168152600190910190602001808311612184575050505050905090565b6065546001600160a01b031633146113c55760405162461bcd60e51b815260206004820181905260248201527f4f776e61626c653a2063616c6c6572206973206e6f7420746865206f776e657260448201526064016112ef565b61138c6121ab565b7f4910fdfa16fed3260ed0e7147f7cc6da11a60208b5b9406d12a635614ffd91435460ff161561224057611659836124de565b826001600160a01b03166352d1902d6040518163ffffffff1660e01b8152600401602060405180830381865afa92505050801561229a575060408051601f3d908101601f1916820190925261229791810190613252565b60015b6122fd5760405162461bcd60e51b815260206004820152602e60248201527f45524331393637557067726164653a206e657720696d706c656d656e7461746960448201526d6f6e206973206e6f74205555505360901b60648201526084016112ef565b6000805160206132e6833981519152811461236c5760405162461bcd60e51b815260206004820152602960248201527f45524331393637557067726164653a20756e737570706f727465642070726f786044820152681a58589b195555525160ba1b60648201526084016112ef565b5061165983838361257a565b61238061259f565b6033805460ff191690557f5db9ee0a495bf2e6ff9c91a7834c1ba4fdd244a5e8aa4e537bd38aeae4b073aa335b6040516001600160a01b03909116815260200160405180910390a1565b606580546001600160a01b038381166001600160a01b0319831681179093556040519116919082907f8be0079c531659141344cd1fd0a4f28419497f9722a3daafe3b4186f6b6457e090600090a35050565b600054610100900460ff166124435760405162461bcd60e51b81526004016112ef9061326b565b6113c56125e8565b600054610100900460ff166124725760405162461bcd60e51b81526004016112ef9061326b565b6113c561261b565b600054610100900460ff166113c55760405162461bcd60e51b81526004016112ef9061326b565b6124a961264b565b6033805460ff191660011790557f62e78cea01bee320cd4e420270b5ea74000d11b0c9f74754ebdbfc544b05a2586123ad3390565b6001600160a01b0381163b61254b5760405162461bcd60e51b815260206004820152602d60248201527f455243313936373a206e657720696d706c656d656e746174696f6e206973206e60448201526c1bdd08184818dbdb9d1c9858dd609a1b60648201526084016112ef565b6000805160206132e683398151915280546001600160a01b0319166001600160a01b0392909216919091179055565b61258383612691565b6000825111806125905750805b1561165957610e8583836126d1565b60335460ff166113c55760405162461bcd60e51b815260206004820152601460248201527314185d5cd8589b194e881b9bdd081c185d5cd95960621b60448201526064016112ef565b600054610100900460ff1661260f5760405162461bcd60e51b81526004016112ef9061326b565b6033805460ff19169055565b600054610100900460ff166126425760405162461bcd60e51b81526004016112ef9061326b565b6113c5336123ca565b60335460ff16156113c55760405162461bcd60e51b815260206004820152601060248201526f14185d5cd8589b194e881c185d5cd95960821b60448201526064016112ef565b61269a816124de565b6040516001600160a01b038216907fbc7cd75a20ee27fd9adebab32041f755214dbc6bffa90cc0225b39da2e5c2d3b90600090a250565b60606001600160a01b0383163b6127395760405162461bcd60e51b815260206004820152602660248201527f416464726573733a2064656c65676174652063616c6c20746f206e6f6e2d636f6044820152651b9d1c9858dd60d21b60648201526084016112ef565b600080846001600160a01b03168460405161275491906132b6565b600060405180830381855af49150503d806000811461278f576040519150601f19603f3d011682016040523d82523d6000602084013e612794565b606091505b50915091506127bc8282604051806060016040528060278152602001613306602791396127c7565b925050505b92915050565b606083156127d65750816127e0565b6127e083836127e7565b9392505050565b8151156127f75781518083602001fd5b8060405162461bcd60e51b81526004016112ef91906132d2565b82805482825590600052602060002090600f016010900481019282156128aa5791602002820160005b8382111561287a57835183826101000a81548161ffff021916908361ffff160217905550926020019260020160208160010104928301926001030261283a565b80156128a85782816101000a81549061ffff021916905560020160208160010104928301926001030261287a565b505b50611b6e9291505b80821115611b6e57600081556001016128b2565b80356001600160a01b03811681146128dd57600080fd5b919050565b6000602082840312156128f457600080fd5b6127e0826128c6565b803580151581146128dd57600080fd5b60008060006060848603121561292257600080fd5b61292b846128c6565b9250612939602085016128fd565b9150612947604085016128c6565b90509250925092565b60ff8116811461138c57600080fd5b60006020828403121561297157600080fd5b81356127e081612950565b60005b8381101561299757818101518382015260200161297f565b50506000910152565b600081518084526129b881602086016020860161297c565b601f01601f19169290920160200192915050565b6020815260ff825116602082015260006020830151608060408401526129f560a08401826129a0565b905060408401516060840152606084015160808401528091505092915050565b600060208284031215612a2757600080fd5b6127e0826128fd565b634e487b7160e01b600052604160045260246000fd5b604051601f8201601f1916810167ffffffffffffffff81118282101715612a6f57612a6f612a30565b604052919050565b600067ffffffffffffffff821115612a9157612a91612a30565b50601f01601f191660200190565b6000612ab2612aad84612a77565b612a46565b9050828152838383011115612ac657600080fd5b828260208301376000602084830101529392505050565b60008060408385031215612af057600080fd5b612af9836128c6565b9150602083013567ffffffffffffffff811115612b1557600080fd5b8301601f81018513612b2657600080fd5b612b3585823560208401612a9f565b9150509250929050565b60008083601f840112612b5157600080fd5b50813567ffffffffffffffff811115612b6957600080fd5b6020830191508360208260051b8501011115612b8457600080fd5b9250929050565b60008060208385031215612b9e57600080fd5b823567ffffffffffffffff811115612bb557600080fd5b612bc185828601612b3f565b90969095509350505050565b600060208284031215612bdf57600080fd5b5035919050565b6020808252825182820181905260009190848201906040850190845b81811015612c2257835161ffff1683529284019291840191600101612c02565b50909695505050505050565b803561ffff811681146128dd57600080fd5b600060208284031215612c5257600080fd5b6127e082612c2e565b600067ffffffffffffffff821115612c7557612c75612a30565b5060051b60200190565b60008060008060008060006080888a031215612c9a57600080fd5b67ffffffffffffffff8089351115612cb157600080fd5b612cbe8a8a358b01612b3f565b90985096506020890135811015612cd457600080fd5b602089013589018a601f820112612cea57600080fd5b612cf7612aad8235612c5b565b81358082526020808301929160051b8401018d811115612d1657600080fd5b602084015b81811015612d67578581351115612d3157600080fd5b8e603f823587010112612d4357600080fd5b612d598f82358701602081013590604001612a9f565b845260209384019301612d1b565b50508098505050508060408a01351115612d8057600080fd5b612d908a60408b01358b01612b3f565b90955093506060890135811015612da657600080fd5b50612db78960608a01358a01612b3f565b979a9699509497509295919491925050565b60006020808385031215612ddc57600080fd5b823567ffffffffffffffff811115612df357600080fd5b8301601f81018513612e0457600080fd5b8035612e12612aad82612c5b565b81815260059190911b82018301908381019087831115612e3157600080fd5b928401925b82841015612e5657612e4784612c2e565b82529284019290840190612e36565b979650505050505050565b602080825282516001600160a01b03168282015282015160e06040830152600090612e906101008401826129a0565b90506040840151601f19848303016060850152612ead82826129a0565b91505060ff60608501511660808401526080840151151560a084015260a0840151612ee360c08501826001600160a01b03169052565b5060c084015180151560e0850152509392505050565b6020808252825182820181905260009190848201906040850190845b81811015612c225783516001600160a01b031683529284019291840191600101612f15565b634e487b7160e01b600052603260045260246000fd5b634e487b7160e01b600052601160045260246000fd5b818103818111156127c1576127c1612f50565b634e487b7160e01b600052603160045260246000fd5b600060018201612fa157612fa1612f50565b5060010190565b600060208284031215612fba57600080fd5b815167ffffffffffffffff811115612fd157600080fd5b8201601f81018413612fe257600080fd5b8051612ff0612aad82612a77565b81815285602083850101111561300557600080fd5b61301682602083016020860161297c565b95945050505050565b60006020828403121561303157600080fd5b81516127e081612950565b600181811c9082168061305057607f821691505b60208210810361307057634e487b7160e01b600052602260045260246000fd5b50919050565b601f82111561165957600081815260208120601f850160051c8101602086101561309d5750805b601f850160051c820191505b818110156130bc578281556001016130a9565b505050505050565b815167ffffffffffffffff8111156130de576130de612a30565b6130f2816130ec845461303c565b84613076565b602080601f831160018114613127576000841561310f5750858301515b600019600386901b1c1916600185901b1785556130bc565b600085815260208120601f198616915b8281101561315657888601518255948401946001909101908401613137565b50858210156131745787850151600019600388901b60f8161c191681555b5050505050600190811b01905550565b6020808252602c908201527f46756e6374696f6e206d7573742062652063616c6c6564207468726f7567682060408201526b19195b1959d85d1958d85b1b60a21b606082015260800190565b6020808252602c908201527f46756e6374696f6e206d7573742062652063616c6c6564207468726f7567682060408201526b6163746976652070726f787960a01b606082015260800190565b600060ff821660ff810361323257613232612f50565b60010192915050565b80820281158282048414176127c1576127c1612f50565b60006020828403121561326457600080fd5b5051919050565b6020808252602b908201527f496e697469616c697a61626c653a20636f6e7472616374206973206e6f74206960408201526a6e697469616c697a696e6760a81b606082015260800190565b600082516132c881846020870161297c565b9190910192915050565b6020815260006127e060208301846129a056fe360894a13ba1a3210667c828492db98dca3e2076cc3735a920a3ca505d382bbc416464726573733a206c6f772d6c6576656c2064656c65676174652063616c6c206661696c6564a2646970667358221220d484d445f78fe53f31fb90255c5212a42dac92758db6a50288679691548effc264736f6c63430008120033","opcodes":"PUSH1 0xA0 PUSH1 0x40 MSTORE ADDRESS PUSH1 0x80 MSTORE CALLVALUE DUP1 ISZERO PUSH2 0x14 JUMPI PUSH1 0x0 DUP1 REVERT JUMPDEST POP PUSH1 0x80 MLOAD PUSH2 0x3362 PUSH2 0x4C PUSH1 0x0 CODECOPY PUSH1 0x0 DUP2 DUP2 PUSH2 0x12B1 ADD MSTORE DUP2 DUP2 PUSH2 0x12FA ADD MSTORE DUP2 DUP2 PUSH2 0x13F7 ADD MSTORE DUP2 DUP2 PUSH2 0x1437 ADD MSTORE PUSH2 0x14C6 ADD MSTORE PUSH2 0x3362 PUSH1 0x0 RETURN INVALID PUSH1 0x80 PUSH1 0x40 MSTORE PUSH1 0x4 CALLDATASIZE LT PUSH2 0x3EE JUMPI PUSH1 0x0 CALLDATALOAD PUSH1 0xE0 SHR DUP1 PUSH4 0x8DA5CB5B GT PUSH2 0x208 JUMPI DUP1 PUSH4 0xB6443562 GT PUSH2 0x118 JUMPI DUP1 PUSH4 0xE371C5C5 GT PUSH2 0xAB JUMPI DUP1 PUSH4 0xEB758BC7 GT PUSH2 0x7A JUMPI DUP1 PUSH4 0xEB758BC7 EQ PUSH2 0xC0F JUMPI DUP1 PUSH4 0xF1012B45 EQ PUSH2 0xC2F JUMPI DUP1 PUSH4 0xF2A90121 EQ PUSH2 0xC4D JUMPI DUP1 PUSH4 0xF2FDE38B EQ PUSH2 0xC6D JUMPI DUP1 PUSH4 0xFFC43F8F EQ PUSH2 0xC8D JUMPI PUSH1 0x0 DUP1 REVERT JUMPDEST DUP1 PUSH4 0xE371C5C5 EQ PUSH2 0xB7D JUMPI DUP1 PUSH4 0xE7016717 EQ PUSH2 0xB9D JUMPI DUP1 PUSH4 0xE74AF32E EQ PUSH2 0xBBF JUMPI DUP1 PUSH4 0xE7CCA9C7 EQ PUSH2 0xBEC JUMPI PUSH1 0x0 DUP1 REVERT JUMPDEST DUP1 PUSH4 0xC391D636 GT PUSH2 0xE7 JUMPI DUP1 PUSH4 0xC391D636 EQ PUSH2 0xB01 JUMPI DUP1 PUSH4 0xD54FCD93 EQ PUSH2 0xB1F JUMPI DUP1 PUSH4 0xE091099C EQ PUSH2 0xB3F JUMPI DUP1 PUSH4 0xE179719A EQ PUSH2 0xB5E JUMPI PUSH1 0x0 DUP1 REVERT JUMPDEST DUP1 PUSH4 0xB6443562 EQ PUSH2 0xA80 JUMPI DUP1 PUSH4 0xB7A26620 EQ PUSH2 0xAA0 JUMPI DUP1 PUSH4 0xB9CD1A50 EQ PUSH2 0xAC0 JUMPI DUP1 PUSH4 0xBCB03B57 EQ PUSH2 0xAE1 JUMPI PUSH1 0x0 DUP1 REVERT JUMPDEST DUP1 PUSH4 0xA43AE408 GT PUSH2 0x19B JUMPI DUP1 PUSH4 0xA9BBD114 GT PUSH2 0x16A JUMPI DUP1 PUSH4 0xA9BBD114 EQ PUSH2 0x9EC JUMPI DUP1 PUSH4 0xAC40E309 EQ PUSH2 0xA0C JUMPI DUP1 PUSH4 0xACC91865 EQ PUSH2 0xA2C JUMPI DUP1 PUSH4 0xAF2D4D09 EQ PUSH2 0xA41 JUMPI DUP1 PUSH4 0xB2E6B912 EQ PUSH2 0xA61 JUMPI PUSH1 0x0 DUP1 REVERT JUMPDEST DUP1 PUSH4 0xA43AE408 EQ PUSH2 0x96C JUMPI DUP1 PUSH4 0xA46868F0 EQ PUSH2 0x98C JUMPI DUP1 PUSH4 0xA61A4FF3 EQ PUSH2 0x9AC JUMPI DUP1 PUSH4 0xA646E845 EQ PUSH2 0x9CC JUMPI PUSH1 0x0 DUP1 REVERT JUMPDEST DUP1 PUSH4 0x93CEE9C9 GT PUSH2 0x1D7 JUMPI DUP1 PUSH4 0x93CEE9C9 EQ PUSH2 0x8ED JUMPI DUP1 PUSH4 0x94DEBF48 EQ PUSH2 0x90D JUMPI DUP1 PUSH4 0x9DD373B9 EQ PUSH2 0x92D JUMPI DUP1 PUSH4 0x9F6D8870 EQ PUSH2 0x94D JUMPI PUSH1 0x0 DUP1 REVERT JUMPDEST DUP1 PUSH4 0x8DA5CB5B EQ PUSH2 0x86F JUMPI DUP1 PUSH4 0x8E68DCE4 EQ PUSH2 0x88D JUMPI DUP1 PUSH4 0x916452AB EQ PUSH2 0x8AC JUMPI DUP1 PUSH4 0x918A54DB EQ PUSH2 0x8CB JUMPI PUSH1 0x0 DUP1 REVERT JUMPDEST DUP1 PUSH4 0x4CCEBD50 GT PUSH2 0x303 JUMPI DUP1 PUSH4 0x5F3AD6E2 GT PUSH2 0x296 JUMPI DUP1 PUSH4 0x715018A6 GT PUSH2 0x265 JUMPI DUP1 PUSH4 0x715018A6 EQ PUSH2 0x7CC JUMPI DUP1 PUSH4 0x75151B63 EQ PUSH2 0x7E1 JUMPI DUP1 PUSH4 0x8129FC1C EQ PUSH2 0x825 JUMPI DUP1 PUSH4 0x8456CB59 EQ PUSH2 0x83A JUMPI DUP1 PUSH4 0x880C0EC3 EQ PUSH2 0x84F JUMPI PUSH1 0x0 DUP1 REVERT JUMPDEST DUP1 PUSH4 0x5F3AD6E2 EQ PUSH2 0x74E JUMPI DUP1 PUSH4 0x63C91877 EQ PUSH2 0x76D JUMPI DUP1 PUSH4 0x65EB204D EQ PUSH2 0x78D JUMPI DUP1 PUSH4 0x6CF3C676 EQ PUSH2 0x7AC JUMPI PUSH1 0x0 DUP1 REVERT JUMPDEST DUP1 PUSH4 0x57B88805 GT PUSH2 0x2D2 JUMPI DUP1 PUSH4 0x57B88805 EQ PUSH2 0x6D6 JUMPI DUP1 PUSH4 0x5880360A EQ PUSH2 0x6F6 JUMPI DUP1 PUSH4 0x5C975ABB EQ PUSH2 0x716 JUMPI DUP1 PUSH4 0x5D9BED63 EQ PUSH2 0x72E JUMPI PUSH1 0x0 DUP1 REVERT JUMPDEST DUP1 PUSH4 0x4CCEBD50 EQ PUSH2 0x661 JUMPI DUP1 PUSH4 0x4F1EF286 EQ PUSH2 0x681 JUMPI DUP1 PUSH4 0x52D1902D EQ PUSH2 0x694 JUMPI DUP1 PUSH4 0x5397B86D EQ PUSH2 0x6B7 JUMPI PUSH1 0x0 DUP1 REVERT JUMPDEST DUP1 PUSH4 0x2B70C02C GT PUSH2 0x386 JUMPI DUP1 PUSH4 0x3659CFE6 GT PUSH2 0x355 JUMPI DUP1 PUSH4 0x3659CFE6 EQ PUSH2 0x5CE JUMPI DUP1 PUSH4 0x39E0DCFA EQ PUSH2 0x5EE JUMPI DUP1 PUSH4 0x3EE1F1BA EQ PUSH2 0x60E JUMPI DUP1 PUSH4 0x3F4BA83A EQ PUSH2 0x62D JUMPI DUP1 PUSH4 0x3FAE6A11 EQ PUSH2 0x642 JUMPI PUSH1 0x0 DUP1 REVERT JUMPDEST DUP1 PUSH4 0x2B70C02C EQ PUSH2 0x528 JUMPI DUP1 PUSH4 0x2C1E816D EQ PUSH2 0x547 JUMPI DUP1 PUSH4 0x2F8C7E72 EQ PUSH2 0x567 JUMPI DUP1 PUSH4 0x3238C16F EQ PUSH2 0x5A1 JUMPI PUSH1 0x0 DUP1 REVERT JUMPDEST DUP1 PUSH4 0xEFC12B1 GT PUSH2 0x3C2 JUMPI DUP1 PUSH4 0xEFC12B1 EQ PUSH2 0x475 JUMPI DUP1 PUSH4 0x16DD07E0 EQ PUSH2 0x4AB JUMPI DUP1 PUSH4 0x1F1EEEC8 EQ PUSH2 0x4D6 JUMPI DUP1 PUSH4 0x23442C60 EQ PUSH2 0x4F5 JUMPI PUSH1 0x0 DUP1 REVERT JUMPDEST DUP1 PUSH3 0xB29290 EQ PUSH2 0x3F3 JUMPI DUP1 PUSH4 0x51FF2B9 EQ PUSH2 0x415 JUMPI DUP1 PUSH4 0x6AD5A47 EQ PUSH2 0x435 JUMPI DUP1 PUSH4 0x8FCFBBE EQ PUSH2 0x455 JUMPI JUMPDEST PUSH1 0x0 DUP1 REVERT JUMPDEST CALLVALUE DUP1 ISZERO PUSH2 0x3FF JUMPI PUSH1 0x0 DUP1 REVERT JUMPDEST POP PUSH2 0x413 PUSH2 0x40E CALLDATASIZE PUSH1 0x4 PUSH2 0x28E2 JUMP JUMPDEST PUSH2 0xCAF JUMP JUMPDEST STOP JUMPDEST CALLVALUE DUP1 ISZERO PUSH2 0x421 JUMPI PUSH1 0x0 DUP1 REVERT JUMPDEST POP PUSH2 0x413 PUSH2 0x430 CALLDATASIZE PUSH1 0x4 PUSH2 0x290D JUMP JUMPDEST PUSH2 0xE8C JUMP JUMPDEST CALLVALUE DUP1 ISZERO PUSH2 0x441 JUMPI PUSH1 0x0 DUP1 REVERT JUMPDEST POP PUSH2 0x413 PUSH2 0x450 CALLDATASIZE PUSH1 0x4 PUSH2 0x28E2 JUMP JUMPDEST PUSH2 0x111D JUMP JUMPDEST CALLVALUE DUP1 ISZERO PUSH2 0x461 JUMPI PUSH1 0x0 DUP1 REVERT JUMPDEST POP PUSH2 0x413 PUSH2 0x470 CALLDATASIZE PUSH1 0x4 PUSH2 0x28E2 JUMP JUMPDEST PUSH2 0x1148 JUMP JUMPDEST CALLVALUE DUP1 ISZERO PUSH2 0x481 JUMPI PUSH1 0x0 DUP1 REVERT JUMPDEST POP PUSH2 0x495 PUSH2 0x490 CALLDATASIZE PUSH1 0x4 PUSH2 0x295F JUMP JUMPDEST PUSH2 0x1173 JUMP JUMPDEST PUSH1 0x40 MLOAD PUSH2 0x4A2 SWAP2 SWAP1 PUSH2 0x29CC JUMP JUMPDEST PUSH1 0x40 MLOAD DUP1 SWAP2 SUB SWAP1 RETURN JUMPDEST CALLVALUE DUP1 ISZERO PUSH2 0x4B7 JUMPI PUSH1 0x0 DUP1 REVERT JUMPDEST POP PUSH1 0xFC SLOAD PUSH1 0x1 PUSH1 0x68 SHL SWAP1 DIV PUSH1 0xFF AND JUMPDEST PUSH1 0x40 MLOAD SWAP1 ISZERO ISZERO DUP2 MSTORE PUSH1 0x20 ADD PUSH2 0x4A2 JUMP JUMPDEST CALLVALUE DUP1 ISZERO PUSH2 0x4E2 JUMPI PUSH1 0x0 DUP1 REVERT JUMPDEST POP PUSH1 0xFC SLOAD PUSH1 0x1 PUSH1 0x60 SHL SWAP1 DIV PUSH1 0xFF AND PUSH2 0x4C6 JUMP JUMPDEST CALLVALUE DUP1 ISZERO PUSH2 0x501 JUMPI PUSH1 0x0 DUP1 REVERT JUMPDEST POP PUSH2 0x100 SLOAD PUSH1 0x1 PUSH1 0x1 PUSH1 0xA0 SHL SUB AND JUMPDEST PUSH1 0x40 MLOAD PUSH1 0x1 PUSH1 0x1 PUSH1 0xA0 SHL SUB SWAP1 SWAP2 AND DUP2 MSTORE PUSH1 0x20 ADD PUSH2 0x4A2 JUMP JUMPDEST CALLVALUE DUP1 ISZERO PUSH2 0x534 JUMPI PUSH1 0x0 DUP1 REVERT JUMPDEST POP PUSH1 0xFC SLOAD PUSH1 0x1 PUSH1 0x50 SHL SWAP1 DIV PUSH1 0xFF AND PUSH2 0x4C6 JUMP JUMPDEST CALLVALUE DUP1 ISZERO PUSH2 0x553 JUMPI PUSH1 0x0 DUP1 REVERT JUMPDEST POP PUSH2 0x413 PUSH2 0x562 CALLDATASIZE PUSH1 0x4 PUSH2 0x28E2 JUMP JUMPDEST PUSH2 0x127C JUMP JUMPDEST CALLVALUE DUP1 ISZERO PUSH2 0x573 JUMPI PUSH1 0x0 DUP1 REVERT JUMPDEST POP PUSH2 0x4C6 PUSH2 0x582 CALLDATASIZE PUSH1 0x4 PUSH2 0x28E2 JUMP JUMPDEST PUSH1 0x1 PUSH1 0x1 PUSH1 0xA0 SHL SUB AND PUSH1 0x0 SWAP1 DUP2 MSTORE PUSH2 0x108 PUSH1 0x20 MSTORE PUSH1 0x40 SWAP1 KECCAK256 SLOAD PUSH1 0xFF AND SWAP1 JUMP JUMPDEST CALLVALUE DUP1 ISZERO PUSH2 0x5AD JUMPI PUSH1 0x0 DUP1 REVERT JUMPDEST POP PUSH1 0xFC SLOAD PUSH1 0x1 PUSH1 0x40 SHL SWAP1 DIV PUSH1 0xFF AND JUMPDEST PUSH1 0x40 MLOAD PUSH1 0xFF SWAP1 SWAP2 AND DUP2 MSTORE PUSH1 0x20 ADD PUSH2 0x4A2 JUMP JUMPDEST CALLVALUE DUP1 ISZERO PUSH2 0x5DA JUMPI PUSH1 0x0 DUP1 REVERT JUMPDEST POP PUSH2 0x413 PUSH2 0x5E9 CALLDATASIZE PUSH1 0x4 PUSH2 0x28E2 JUMP JUMPDEST PUSH2 0x12A7 JUMP JUMPDEST CALLVALUE DUP1 ISZERO PUSH2 0x5FA JUMPI PUSH1 0x0 DUP1 REVERT JUMPDEST POP PUSH2 0x413 PUSH2 0x609 CALLDATASIZE PUSH1 0x4 PUSH2 0x2A15 JUMP JUMPDEST PUSH2 0x138F JUMP JUMPDEST CALLVALUE DUP1 ISZERO PUSH2 0x61A JUMPI PUSH1 0x0 DUP1 REVERT JUMPDEST POP PUSH2 0x109 SLOAD PUSH1 0x1 PUSH1 0x1 PUSH1 0xA0 SHL SUB AND PUSH2 0x510 JUMP JUMPDEST CALLVALUE DUP1 ISZERO PUSH2 0x639 JUMPI PUSH1 0x0 DUP1 REVERT JUMPDEST POP PUSH2 0x413 PUSH2 0x13B5 JUMP JUMPDEST CALLVALUE DUP1 ISZERO PUSH2 0x64E JUMPI PUSH1 0x0 DUP1 REVERT JUMPDEST POP PUSH1 0xFC SLOAD PUSH1 0x1 PUSH1 0x58 SHL SWAP1 DIV PUSH1 0xFF AND PUSH2 0x4C6 JUMP JUMPDEST CALLVALUE DUP1 ISZERO PUSH2 0x66D JUMPI PUSH1 0x0 DUP1 REVERT JUMPDEST POP PUSH2 0x413 PUSH2 0x67C CALLDATASIZE PUSH1 0x4 PUSH2 0x2A15 JUMP JUMPDEST PUSH2 0x13C7 JUMP JUMPDEST PUSH2 0x413 PUSH2 0x68F CALLDATASIZE PUSH1 0x4 PUSH2 0x2ADD JUMP JUMPDEST PUSH2 0x13ED JUMP JUMPDEST CALLVALUE DUP1 ISZERO PUSH2 0x6A0 JUMPI PUSH1 0x0 DUP1 REVERT JUMPDEST POP PUSH2 0x6A9 PUSH2 0x14B9 JUMP JUMPDEST PUSH1 0x40 MLOAD SWAP1 DUP2 MSTORE PUSH1 0x20 ADD PUSH2 0x4A2 JUMP JUMPDEST CALLVALUE DUP1 ISZERO PUSH2 0x6C3 JUMPI PUSH1 0x0 DUP1 REVERT JUMPDEST POP PUSH1 0xFC SLOAD PUSH1 0x1 PUSH1 0x38 SHL SWAP1 DIV PUSH1 0xFF AND PUSH2 0x5BC JUMP JUMPDEST CALLVALUE DUP1 ISZERO PUSH2 0x6E2 JUMPI PUSH1 0x0 DUP1 REVERT JUMPDEST POP PUSH2 0x413 PUSH2 0x6F1 CALLDATASIZE PUSH1 0x4 PUSH2 0x2B8B JUMP JUMPDEST PUSH2 0x156C JUMP JUMPDEST CALLVALUE DUP1 ISZERO PUSH2 0x702 JUMPI PUSH1 0x0 DUP1 REVERT JUMPDEST POP PUSH2 0x413 PUSH2 0x711 CALLDATASIZE PUSH1 0x4 PUSH2 0x28E2 JUMP JUMPDEST PUSH2 0x165E JUMP JUMPDEST CALLVALUE DUP1 ISZERO PUSH2 0x722 JUMPI PUSH1 0x0 DUP1 REVERT JUMPDEST POP PUSH1 0x33 SLOAD PUSH1 0xFF AND PUSH2 0x4C6 JUMP JUMPDEST CALLVALUE DUP1 ISZERO PUSH2 0x73A JUMPI PUSH1 0x0 DUP1 REVERT JUMPDEST POP PUSH2 0x413 PUSH2 0x749 CALLDATASIZE PUSH1 0x4 PUSH2 0x2A15 JUMP JUMPDEST PUSH2 0x1689 JUMP JUMPDEST CALLVALUE DUP1 ISZERO PUSH2 0x75A JUMPI PUSH1 0x0 DUP1 REVERT JUMPDEST POP PUSH1 0xFC SLOAD PUSH4 0x1000000 SWAP1 DIV PUSH1 0xFF AND PUSH2 0x5BC JUMP JUMPDEST CALLVALUE DUP1 ISZERO PUSH2 0x779 JUMPI PUSH1 0x0 DUP1 REVERT JUMPDEST POP PUSH2 0x510 PUSH2 0x788 CALLDATASIZE PUSH1 0x4 PUSH2 0x2BCD JUMP JUMPDEST PUSH2 0x16AF JUMP JUMPDEST CALLVALUE DUP1 ISZERO PUSH2 0x799 JUMPI PUSH1 0x0 DUP1 REVERT JUMPDEST POP PUSH2 0x103 SLOAD PUSH1 0x1 PUSH1 0x1 PUSH1 0xA0 SHL SUB AND PUSH2 0x510 JUMP JUMPDEST CALLVALUE DUP1 ISZERO PUSH2 0x7B8 JUMPI PUSH1 0x0 DUP1 REVERT JUMPDEST POP PUSH2 0x413 PUSH2 0x7C7 CALLDATASIZE PUSH1 0x4 PUSH2 0x295F JUMP JUMPDEST PUSH2 0x16D9 JUMP JUMPDEST CALLVALUE DUP1 ISZERO PUSH2 0x7D8 JUMPI PUSH1 0x0 DUP1 REVERT JUMPDEST POP PUSH2 0x413 PUSH2 0x1706 JUMP JUMPDEST CALLVALUE DUP1 ISZERO PUSH2 0x7ED JUMPI PUSH1 0x0 DUP1 REVERT JUMPDEST POP PUSH2 0x4C6 PUSH2 0x7FC CALLDATASIZE PUSH1 0x4 PUSH2 0x28E2 JUMP JUMPDEST PUSH1 0x1 PUSH1 0x1 PUSH1 0xA0 SHL SUB AND PUSH1 0x0 SWAP1 DUP2 MSTORE PUSH2 0x107 PUSH1 0x20 MSTORE PUSH1 0x40 SWAP1 KECCAK256 PUSH1 0x3 ADD SLOAD PUSH1 0x1 PUSH1 0xB0 SHL SWAP1 DIV PUSH1 0xFF AND SWAP1 JUMP JUMPDEST CALLVALUE DUP1 ISZERO PUSH2 0x831 JUMPI PUSH1 0x0 DUP1 REVERT JUMPDEST POP PUSH2 0x413 PUSH2 0x1718 JUMP JUMPDEST CALLVALUE DUP1 ISZERO PUSH2 0x846 JUMPI PUSH1 0x0 DUP1 REVERT JUMPDEST POP PUSH2 0x413 PUSH2 0x1923 JUMP JUMPDEST CALLVALUE DUP1 ISZERO PUSH2 0x85B JUMPI PUSH1 0x0 DUP1 REVERT JUMPDEST POP PUSH2 0x413 PUSH2 0x86A CALLDATASIZE PUSH1 0x4 PUSH2 0x295F JUMP JUMPDEST PUSH2 0x1933 JUMP JUMPDEST CALLVALUE DUP1 ISZERO PUSH2 0x87B JUMPI PUSH1 0x0 DUP1 REVERT JUMPDEST POP PUSH1 0x65 SLOAD PUSH1 0x1 PUSH1 0x1 PUSH1 0xA0 SHL SUB AND PUSH2 0x510 JUMP JUMPDEST CALLVALUE DUP1 ISZERO PUSH2 0x899 JUMPI PUSH1 0x0 DUP1 REVERT JUMPDEST POP PUSH2 0x101 SLOAD PUSH1 0x1 PUSH1 0x1 PUSH1 0xA0 SHL SUB AND PUSH2 0x510 JUMP JUMPDEST CALLVALUE DUP1 ISZERO PUSH2 0x8B8 JUMPI PUSH1 0x0 DUP1 REVERT JUMPDEST POP PUSH2 0x104 SLOAD PUSH1 0x1 PUSH1 0x1 PUSH1 0xA0 SHL SUB AND PUSH2 0x510 JUMP JUMPDEST CALLVALUE DUP1 ISZERO PUSH2 0x8D7 JUMPI PUSH1 0x0 DUP1 REVERT JUMPDEST POP PUSH2 0x8E0 PUSH2 0x1961 JUMP JUMPDEST PUSH1 0x40 MLOAD PUSH2 0x4A2 SWAP2 SWAP1 PUSH2 0x2BE6 JUMP JUMPDEST CALLVALUE DUP1 ISZERO PUSH2 0x8F9 JUMPI PUSH1 0x0 DUP1 REVERT JUMPDEST POP PUSH2 0x413 PUSH2 0x908 CALLDATASIZE PUSH1 0x4 PUSH2 0x2A15 JUMP JUMPDEST PUSH2 0x19E1 JUMP JUMPDEST CALLVALUE DUP1 ISZERO PUSH2 0x919 JUMPI PUSH1 0x0 DUP1 REVERT JUMPDEST POP PUSH2 0x413 PUSH2 0x928 CALLDATASIZE PUSH1 0x4 PUSH2 0x295F JUMP JUMPDEST PUSH2 0x1A07 JUMP JUMPDEST CALLVALUE DUP1 ISZERO PUSH2 0x939 JUMPI PUSH1 0x0 DUP1 REVERT JUMPDEST POP PUSH2 0x413 PUSH2 0x948 CALLDATASIZE PUSH1 0x4 PUSH2 0x28E2 JUMP JUMPDEST PUSH2 0x1A2F JUMP JUMPDEST CALLVALUE DUP1 ISZERO PUSH2 0x959 JUMPI PUSH1 0x0 DUP1 REVERT JUMPDEST POP PUSH1 0xFC SLOAD PUSH1 0x1 PUSH1 0x70 SHL SWAP1 DIV PUSH1 0xFF AND PUSH2 0x4C6 JUMP JUMPDEST CALLVALUE DUP1 ISZERO PUSH2 0x978 JUMPI PUSH1 0x0 DUP1 REVERT JUMPDEST POP PUSH2 0x413 PUSH2 0x987 CALLDATASIZE PUSH1 0x4 PUSH2 0x2C40 JUMP JUMPDEST PUSH2 0x1A5A JUMP JUMPDEST CALLVALUE DUP1 ISZERO PUSH2 0x998 JUMPI PUSH1 0x0 DUP1 REVERT JUMPDEST POP PUSH1 0xFC SLOAD PUSH5 0x100000000 SWAP1 DIV PUSH1 0xFF AND PUSH2 0x5BC JUMP JUMPDEST CALLVALUE DUP1 ISZERO PUSH2 0x9B8 JUMPI PUSH1 0x0 DUP1 REVERT JUMPDEST POP PUSH2 0x413 PUSH2 0x9C7 CALLDATASIZE PUSH1 0x4 PUSH2 0x295F JUMP JUMPDEST PUSH2 0x1A7A JUMP JUMPDEST CALLVALUE DUP1 ISZERO PUSH2 0x9D8 JUMPI PUSH1 0x0 DUP1 REVERT JUMPDEST POP PUSH2 0x413 PUSH2 0x9E7 CALLDATASIZE PUSH1 0x4 PUSH2 0x295F JUMP JUMPDEST PUSH2 0x1AA0 JUMP JUMPDEST CALLVALUE DUP1 ISZERO PUSH2 0x9F8 JUMPI PUSH1 0x0 DUP1 REVERT JUMPDEST POP PUSH2 0x413 PUSH2 0xA07 CALLDATASIZE PUSH1 0x4 PUSH2 0x28E2 JUMP JUMPDEST PUSH2 0x1ACC JUMP JUMPDEST CALLVALUE DUP1 ISZERO PUSH2 0xA18 JUMPI PUSH1 0x0 DUP1 REVERT JUMPDEST POP PUSH2 0x413 PUSH2 0xA27 CALLDATASIZE PUSH1 0x4 PUSH2 0x295F JUMP JUMPDEST PUSH2 0x1AF6 JUMP JUMPDEST CALLVALUE DUP1 ISZERO PUSH2 0xA38 JUMPI PUSH1 0x0 DUP1 REVERT JUMPDEST POP PUSH2 0x5BC PUSH2 0x1B22 JUMP JUMPDEST CALLVALUE DUP1 ISZERO PUSH2 0xA4D JUMPI PUSH1 0x0 DUP1 REVERT JUMPDEST POP PUSH2 0x413 PUSH2 0xA5C CALLDATASIZE PUSH1 0x4 PUSH2 0x295F JUMP JUMPDEST PUSH2 0x1B72 JUMP JUMPDEST CALLVALUE DUP1 ISZERO PUSH2 0xA6D JUMPI PUSH1 0x0 DUP1 REVERT JUMPDEST POP PUSH2 0x105 SLOAD PUSH1 0x1 PUSH1 0x1 PUSH1 0xA0 SHL SUB AND PUSH2 0x510 JUMP JUMPDEST CALLVALUE DUP1 ISZERO PUSH2 0xA8C JUMPI PUSH1 0x0 DUP1 REVERT JUMPDEST POP PUSH2 0x413 PUSH2 0xA9B CALLDATASIZE PUSH1 0x4 PUSH2 0x2A15 JUMP JUMPDEST PUSH2 0x1B9C JUMP JUMPDEST CALLVALUE DUP1 ISZERO PUSH2 0xAAC JUMPI PUSH1 0x0 DUP1 REVERT JUMPDEST POP PUSH2 0x413 PUSH2 0xABB CALLDATASIZE PUSH1 0x4 PUSH2 0x295F JUMP JUMPDEST PUSH2 0x1BC2 JUMP JUMPDEST CALLVALUE DUP1 ISZERO PUSH2 0xACC JUMPI PUSH1 0x0 DUP1 REVERT JUMPDEST POP PUSH1 0xFC SLOAD PUSH6 0x10000000000 SWAP1 DIV PUSH1 0xFF AND PUSH2 0x5BC JUMP JUMPDEST CALLVALUE DUP1 ISZERO PUSH2 0xAED JUMPI PUSH1 0x0 DUP1 REVERT JUMPDEST POP PUSH2 0x413 PUSH2 0xAFC CALLDATASIZE PUSH1 0x4 PUSH2 0x2C7F JUMP JUMPDEST PUSH2 0x1BF0 JUMP JUMPDEST CALLVALUE DUP1 ISZERO PUSH2 0xB0D JUMPI PUSH1 0x0 DUP1 REVERT JUMPDEST POP PUSH1 0xFC SLOAD PUSH3 0x10000 SWAP1 DIV PUSH1 0xFF AND PUSH2 0x5BC JUMP JUMPDEST CALLVALUE DUP1 ISZERO PUSH2 0xB2B JUMPI PUSH1 0x0 DUP1 REVERT JUMPDEST POP PUSH2 0x413 PUSH2 0xB3A CALLDATASIZE PUSH1 0x4 PUSH2 0x2DC9 JUMP JUMPDEST PUSH2 0x1DCC JUMP JUMPDEST CALLVALUE DUP1 ISZERO PUSH2 0xB4B JUMPI PUSH1 0x0 DUP1 REVERT JUMPDEST POP PUSH1 0xFC SLOAD PUSH1 0x1 PUSH1 0x48 SHL SWAP1 DIV PUSH1 0xFF AND PUSH2 0x5BC JUMP JUMPDEST CALLVALUE DUP1 ISZERO PUSH2 0xB6A JUMPI PUSH1 0x0 DUP1 REVERT JUMPDEST POP PUSH1 0xFC SLOAD PUSH1 0x1 PUSH1 0x78 SHL SWAP1 DIV PUSH1 0xFF AND PUSH2 0x4C6 JUMP JUMPDEST CALLVALUE DUP1 ISZERO PUSH2 0xB89 JUMPI PUSH1 0x0 DUP1 REVERT JUMPDEST POP PUSH2 0x413 PUSH2 0xB98 CALLDATASIZE PUSH1 0x4 PUSH2 0x28E2 JUMP JUMPDEST PUSH2 0x1DE7 JUMP JUMPDEST CALLVALUE DUP1 ISZERO PUSH2 0xBA9 JUMPI PUSH1 0x0 DUP1 REVERT JUMPDEST POP PUSH1 0xFC SLOAD PUSH7 0x1000000000000 SWAP1 DIV PUSH1 0xFF AND PUSH2 0x5BC JUMP JUMPDEST CALLVALUE DUP1 ISZERO PUSH2 0xBCB JUMPI PUSH1 0x0 DUP1 REVERT JUMPDEST POP PUSH2 0xBDF PUSH2 0xBDA CALLDATASIZE PUSH1 0x4 PUSH2 0x28E2 JUMP JUMPDEST PUSH2 0x1EAF JUMP JUMPDEST PUSH1 0x40 MLOAD PUSH2 0x4A2 SWAP2 SWAP1 PUSH2 0x2E61 JUMP JUMPDEST CALLVALUE DUP1 ISZERO PUSH2 0xBF8 JUMPI PUSH1 0x0 DUP1 REVERT JUMPDEST POP PUSH1 0xFC SLOAD PUSH1 0x40 MLOAD PUSH2 0xFFFF SWAP1 SWAP2 AND DUP2 MSTORE PUSH1 0x20 ADD PUSH2 0x4A2 JUMP JUMPDEST CALLVALUE DUP1 ISZERO PUSH2 0xC1B JUMPI PUSH1 0x0 DUP1 REVERT JUMPDEST POP PUSH2 0x413 PUSH2 0xC2A CALLDATASIZE PUSH1 0x4 PUSH2 0x2A15 JUMP JUMPDEST PUSH2 0x2083 JUMP JUMPDEST CALLVALUE DUP1 ISZERO PUSH2 0xC3B JUMPI PUSH1 0x0 DUP1 REVERT JUMPDEST POP PUSH1 0xFF SLOAD PUSH1 0x1 PUSH1 0x1 PUSH1 0xA0 SHL SUB AND PUSH2 0x510 JUMP JUMPDEST CALLVALUE DUP1 ISZERO PUSH2 0xC59 JUMPI PUSH1 0x0 DUP1 REVERT JUMPDEST POP PUSH2 0x413 PUSH2 0xC68 CALLDATASIZE PUSH1 0x4 PUSH2 0x28E2 JUMP JUMPDEST PUSH2 0x20A9 JUMP JUMPDEST CALLVALUE DUP1 ISZERO PUSH2 0xC79 JUMPI PUSH1 0x0 DUP1 REVERT JUMPDEST POP PUSH2 0x413 PUSH2 0xC88 CALLDATASIZE PUSH1 0x4 PUSH2 0x28E2 JUMP JUMPDEST PUSH2 0x20D4 JUMP JUMPDEST CALLVALUE DUP1 ISZERO PUSH2 0xC99 JUMPI PUSH1 0x0 DUP1 REVERT JUMPDEST POP PUSH2 0xCA2 PUSH2 0x214A JUMP JUMPDEST PUSH1 0x40 MLOAD PUSH2 0x4A2 SWAP2 SWAP1 PUSH2 0x2EF9 JUMP JUMPDEST PUSH2 0xCB7 PUSH2 0x21AB JUMP JUMPDEST PUSH1 0x1 PUSH1 0x1 PUSH1 0xA0 SHL SUB DUP2 AND PUSH1 0x0 SWAP1 DUP2 MSTORE PUSH2 0x108 PUSH1 0x20 MSTORE PUSH1 0x40 SWAP1 KECCAK256 SLOAD PUSH1 0xFF AND DUP1 ISZERO PUSH2 0xE88 JUMPI PUSH1 0x1 PUSH1 0x1 PUSH1 0xA0 SHL SUB DUP3 AND PUSH1 0x0 SWAP1 DUP2 MSTORE PUSH2 0x108 PUSH1 0x20 SWAP1 DUP2 MSTORE PUSH1 0x40 DUP1 DUP4 KECCAK256 DUP1 SLOAD PUSH1 0xFF NOT AND SWAP1 SSTORE PUSH1 0xFE DUP1 SLOAD DUP3 MLOAD DUP2 DUP6 MUL DUP2 ADD DUP6 ADD SWAP1 SWAP4 MSTORE DUP1 DUP4 MSTORE SWAP2 SWAP3 SWAP1 SWAP2 SWAP1 DUP4 ADD DUP3 DUP3 DUP1 ISZERO PUSH2 0xD4F JUMPI PUSH1 0x20 MUL DUP3 ADD SWAP2 SWAP1 PUSH1 0x0 MSTORE PUSH1 0x20 PUSH1 0x0 KECCAK256 SWAP1 JUMPDEST DUP2 SLOAD PUSH1 0x1 PUSH1 0x1 PUSH1 0xA0 SHL SUB AND DUP2 MSTORE PUSH1 0x1 SWAP1 SWAP2 ADD SWAP1 PUSH1 0x20 ADD DUP1 DUP4 GT PUSH2 0xD31 JUMPI JUMPDEST POP POP POP POP POP SWAP1 POP PUSH1 0x0 JUMPDEST DUP2 MLOAD DUP2 LT ISZERO PUSH2 0xE85 JUMPI DUP4 PUSH1 0x1 PUSH1 0x1 PUSH1 0xA0 SHL SUB AND DUP3 DUP3 DUP2 MLOAD DUP2 LT PUSH2 0xD7E JUMPI PUSH2 0xD7E PUSH2 0x2F3A JUMP JUMPDEST PUSH1 0x20 MUL PUSH1 0x20 ADD ADD MLOAD PUSH1 0x1 PUSH1 0x1 PUSH1 0xA0 SHL SUB AND SUB PUSH2 0xE73 JUMPI DUP2 PUSH1 0x1 DUP4 MLOAD PUSH2 0xDA3 SWAP2 SWAP1 PUSH2 0x2F66 JUMP JUMPDEST DUP2 MLOAD DUP2 LT PUSH2 0xDB3 JUMPI PUSH2 0xDB3 PUSH2 0x2F3A JUMP JUMPDEST PUSH1 0x20 MUL PUSH1 0x20 ADD ADD MLOAD PUSH1 0xFE DUP3 DUP2 SLOAD DUP2 LT PUSH2 0xDCE JUMPI PUSH2 0xDCE PUSH2 0x2F3A JUMP JUMPDEST SWAP1 PUSH1 0x0 MSTORE PUSH1 0x20 PUSH1 0x0 KECCAK256 ADD PUSH1 0x0 PUSH2 0x100 EXP DUP2 SLOAD DUP2 PUSH1 0x1 PUSH1 0x1 PUSH1 0xA0 SHL SUB MUL NOT AND SWAP1 DUP4 PUSH1 0x1 PUSH1 0x1 PUSH1 0xA0 SHL SUB AND MUL OR SWAP1 SSTORE POP PUSH1 0xFE DUP1 SLOAD DUP1 PUSH2 0xE0D JUMPI PUSH2 0xE0D PUSH2 0x2F79 JUMP JUMPDEST PUSH1 0x0 DUP3 DUP2 MSTORE PUSH1 0x20 SWAP1 DUP2 SWAP1 KECCAK256 PUSH1 0x0 NOT SWAP1 DUP4 ADD DUP2 ADD DUP1 SLOAD PUSH1 0x1 PUSH1 0x1 PUSH1 0xA0 SHL SUB NOT AND SWAP1 SSTORE SWAP1 SWAP2 ADD SWAP1 SWAP2 SSTORE PUSH1 0x40 MLOAD PUSH1 0x1 PUSH1 0x1 PUSH1 0xA0 SHL SUB DUP7 AND DUP2 MSTORE PUSH32 0x337EEB0192A31DFC3C61AFF0BE47A571A126A9E3F1CAAEE4AF8C29BABBB477E9 SWAP2 ADD PUSH1 0x40 MLOAD DUP1 SWAP2 SUB SWAP1 LOG1 PUSH2 0xE85 JUMP JUMPDEST DUP1 PUSH2 0xE7D DUP2 PUSH2 0x2F8F JUMP JUMPDEST SWAP2 POP POP PUSH2 0xD59 JUMP JUMPDEST POP POP JUMPDEST POP POP JUMP JUMPDEST PUSH2 0xE94 PUSH2 0x21AB JUMP JUMPDEST PUSH1 0x40 MLOAD DUP1 PUSH1 0xE0 ADD PUSH1 0x40 MSTORE DUP1 DUP5 PUSH1 0x1 PUSH1 0x1 PUSH1 0xA0 SHL SUB AND DUP2 MSTORE PUSH1 0x20 ADD DUP5 PUSH1 0x1 PUSH1 0x1 PUSH1 0xA0 SHL SUB AND PUSH4 0x6FDDE03 PUSH1 0x40 MLOAD DUP2 PUSH4 0xFFFFFFFF AND PUSH1 0xE0 SHL DUP2 MSTORE PUSH1 0x4 ADD PUSH1 0x0 PUSH1 0x40 MLOAD DUP1 DUP4 SUB DUP2 DUP7 GAS STATICCALL ISZERO DUP1 ISZERO PUSH2 0xEEC JUMPI RETURNDATASIZE PUSH1 0x0 DUP1 RETURNDATACOPY RETURNDATASIZE PUSH1 0x0 REVERT JUMPDEST POP POP POP POP PUSH1 0x40 MLOAD RETURNDATASIZE PUSH1 0x0 DUP3 RETURNDATACOPY PUSH1 0x1F RETURNDATASIZE SWAP1 DUP2 ADD PUSH1 0x1F NOT AND DUP3 ADD PUSH1 0x40 MSTORE PUSH2 0xF14 SWAP2 SWAP1 DUP2 ADD SWAP1 PUSH2 0x2FA8 JUMP JUMPDEST DUP2 MSTORE PUSH1 0x20 ADD DUP5 PUSH1 0x1 PUSH1 0x1 PUSH1 0xA0 SHL SUB AND PUSH4 0x95D89B41 PUSH1 0x40 MLOAD DUP2 PUSH4 0xFFFFFFFF AND PUSH1 0xE0 SHL DUP2 MSTORE PUSH1 0x4 ADD PUSH1 0x0 PUSH1 0x40 MLOAD DUP1 DUP4 SUB DUP2 DUP7 GAS STATICCALL ISZERO DUP1 ISZERO PUSH2 0xF57 JUMPI RETURNDATASIZE PUSH1 0x0 DUP1 RETURNDATACOPY RETURNDATASIZE PUSH1 0x0 REVERT JUMPDEST POP POP POP POP PUSH1 0x40 MLOAD RETURNDATASIZE PUSH1 0x0 DUP3 RETURNDATACOPY PUSH1 0x1F RETURNDATASIZE SWAP1 DUP2 ADD PUSH1 0x1F NOT AND DUP3 ADD PUSH1 0x40 MSTORE PUSH2 0xF7F SWAP2 SWAP1 DUP2 ADD SWAP1 PUSH2 0x2FA8 JUMP JUMPDEST DUP2 MSTORE PUSH1 0x20 ADD DUP5 PUSH1 0x1 PUSH1 0x1 PUSH1 0xA0 SHL SUB AND PUSH4 0x313CE567 PUSH1 0x40 MLOAD DUP2 PUSH4 0xFFFFFFFF AND PUSH1 0xE0 SHL DUP2 MSTORE PUSH1 0x4 ADD PUSH1 0x20 PUSH1 0x40 MLOAD DUP1 DUP4 SUB DUP2 DUP7 GAS STATICCALL ISZERO DUP1 ISZERO PUSH2 0xFC2 JUMPI RETURNDATASIZE PUSH1 0x0 DUP1 RETURNDATACOPY RETURNDATASIZE PUSH1 0x0 REVERT JUMPDEST POP POP POP POP PUSH1 0x40 MLOAD RETURNDATASIZE PUSH1 0x1F NOT PUSH1 0x1F DUP3 ADD AND DUP3 ADD DUP1 PUSH1 0x40 MSTORE POP DUP2 ADD SWAP1 PUSH2 0xFE6 SWAP2 SWAP1 PUSH2 0x301F JUMP JUMPDEST PUSH1 0xFF AND DUP2 MSTORE DUP4 ISZERO ISZERO PUSH1 0x20 DUP1 DUP4 ADD SWAP2 SWAP1 SWAP2 MSTORE PUSH1 0x1 PUSH1 0x1 PUSH1 0xA0 SHL SUB DUP5 DUP2 AND PUSH1 0x40 DUP1 DUP6 ADD SWAP2 SWAP1 SWAP2 MSTORE PUSH1 0x1 PUSH1 0x60 SWAP1 SWAP5 ADD DUP5 SWAP1 MSTORE DUP8 DUP3 AND PUSH1 0x0 SWAP1 DUP2 MSTORE PUSH2 0x107 DUP5 MSTORE KECCAK256 DUP5 MLOAD DUP2 SLOAD PUSH1 0x1 PUSH1 0x1 PUSH1 0xA0 SHL SUB NOT AND SWAP3 AND SWAP2 SWAP1 SWAP2 OR DUP2 SSTORE SWAP1 DUP4 ADD MLOAD SWAP1 SWAP2 DUP3 ADD SWAP1 PUSH2 0x104C SWAP1 DUP3 PUSH2 0x30C4 JUMP JUMPDEST POP PUSH1 0x40 DUP3 ADD MLOAD PUSH1 0x2 DUP3 ADD SWAP1 PUSH2 0x1061 SWAP1 DUP3 PUSH2 0x30C4 JUMP JUMPDEST POP PUSH1 0x60 DUP3 ADD MLOAD PUSH1 0x3 SWAP1 SWAP2 ADD DUP1 SLOAD PUSH1 0x80 DUP5 ADD MLOAD PUSH1 0xA0 DUP6 ADD MLOAD PUSH1 0xC0 SWAP1 SWAP6 ADD MLOAD ISZERO ISZERO PUSH1 0x1 PUSH1 0xB0 SHL MUL PUSH1 0xFF PUSH1 0xB0 SHL NOT PUSH1 0x1 PUSH1 0x1 PUSH1 0xA0 SHL SUB SWAP7 DUP8 AND PUSH3 0x10000 MUL AND PUSH3 0x10000 PUSH1 0x1 PUSH1 0xB8 SHL SUB NOT SWAP3 ISZERO ISZERO PUSH2 0x100 MUL PUSH2 0xFFFF NOT SWAP1 SWAP5 AND PUSH1 0xFF SWAP1 SWAP7 AND SWAP6 SWAP1 SWAP6 OR SWAP3 SWAP1 SWAP3 OR AND SWAP3 SWAP1 SWAP3 OR SWAP2 SWAP1 SWAP2 OR SWAP1 SSTORE PUSH1 0xFD DUP1 SLOAD PUSH1 0x1 DUP2 ADD DUP3 SSTORE PUSH1 0x0 SWAP2 SWAP1 SWAP2 MSTORE PUSH32 0x9346AC6DD7DE6B96975FEC380D4D994C4C12E6A8897544F22915316CC6CCA280 ADD DUP1 SLOAD SWAP5 SWAP1 SWAP2 AND PUSH1 0x1 PUSH1 0x1 PUSH1 0xA0 SHL SUB NOT SWAP1 SWAP5 AND SWAP4 SWAP1 SWAP4 OR SWAP1 SWAP3 SSTORE POP POP JUMP JUMPDEST PUSH2 0x1125 PUSH2 0x21AB JUMP JUMPDEST PUSH2 0x100 DUP1 SLOAD PUSH1 0x1 PUSH1 0x1 PUSH1 0xA0 SHL SUB NOT AND PUSH1 0x1 PUSH1 0x1 PUSH1 0xA0 SHL SUB SWAP3 SWAP1 SWAP3 AND SWAP2 SWAP1 SWAP2 OR SWAP1 SSTORE JUMP JUMPDEST PUSH2 0x1150 PUSH2 0x21AB JUMP JUMPDEST PUSH2 0x103 DUP1 SLOAD PUSH1 0x1 PUSH1 0x1 PUSH1 0xA0 SHL SUB NOT AND PUSH1 0x1 PUSH1 0x1 PUSH1 0xA0 SHL SUB SWAP3 SWAP1 SWAP3 AND SWAP2 SWAP1 SWAP2 OR SWAP1 SSTORE JUMP JUMPDEST PUSH2 0x11A1 PUSH1 0x40 MLOAD DUP1 PUSH1 0x80 ADD PUSH1 0x40 MSTORE DUP1 PUSH1 0x0 PUSH1 0xFF AND DUP2 MSTORE PUSH1 0x20 ADD PUSH1 0x60 DUP2 MSTORE PUSH1 0x20 ADD PUSH1 0x0 DUP2 MSTORE PUSH1 0x20 ADD PUSH1 0x0 DUP2 MSTORE POP SWAP1 JUMP JUMPDEST PUSH1 0xFF DUP1 DUP4 AND PUSH1 0x0 SWAP1 DUP2 MSTORE PUSH2 0x106 PUSH1 0x20 SWAP1 DUP2 MSTORE PUSH1 0x40 SWAP2 DUP3 SWAP1 KECCAK256 DUP3 MLOAD PUSH1 0x80 DUP2 ADD SWAP1 SWAP4 MSTORE DUP1 SLOAD SWAP1 SWAP4 AND DUP3 MSTORE PUSH1 0x1 DUP4 ADD DUP1 SLOAD SWAP3 SWAP4 SWAP3 SWAP2 DUP5 ADD SWAP2 PUSH2 0x11DF SWAP1 PUSH2 0x303C JUMP JUMPDEST DUP1 PUSH1 0x1F ADD PUSH1 0x20 DUP1 SWAP2 DIV MUL PUSH1 0x20 ADD PUSH1 0x40 MLOAD SWAP1 DUP2 ADD PUSH1 0x40 MSTORE DUP1 SWAP3 SWAP2 SWAP1 DUP2 DUP2 MSTORE PUSH1 0x20 ADD DUP3 DUP1 SLOAD PUSH2 0x120B SWAP1 PUSH2 0x303C JUMP JUMPDEST DUP1 ISZERO PUSH2 0x1258 JUMPI DUP1 PUSH1 0x1F LT PUSH2 0x122D JUMPI PUSH2 0x100 DUP1 DUP4 SLOAD DIV MUL DUP4 MSTORE SWAP2 PUSH1 0x20 ADD SWAP2 PUSH2 0x1258 JUMP JUMPDEST DUP3 ADD SWAP2 SWAP1 PUSH1 0x0 MSTORE PUSH1 0x20 PUSH1 0x0 KECCAK256 SWAP1 JUMPDEST DUP2 SLOAD DUP2 MSTORE SWAP1 PUSH1 0x1 ADD SWAP1 PUSH1 0x20 ADD DUP1 DUP4 GT PUSH2 0x123B JUMPI DUP3 SWAP1 SUB PUSH1 0x1F AND DUP3 ADD SWAP2 JUMPDEST POP POP POP POP POP DUP2 MSTORE PUSH1 0x20 ADD PUSH1 0x2 DUP3 ADD SLOAD DUP2 MSTORE PUSH1 0x20 ADD PUSH1 0x3 DUP3 ADD SLOAD DUP2 MSTORE POP POP SWAP1 POP SWAP2 SWAP1 POP JUMP JUMPDEST PUSH2 0x1284 PUSH2 0x21AB JUMP JUMPDEST PUSH2 0x105 DUP1 SLOAD PUSH1 0x1 PUSH1 0x1 PUSH1 0xA0 SHL SUB NOT AND PUSH1 0x1 PUSH1 0x1 PUSH1 0xA0 SHL SUB SWAP3 SWAP1 SWAP3 AND SWAP2 SWAP1 SWAP2 OR SWAP1 SSTORE JUMP JUMPDEST PUSH1 0x1 PUSH1 0x1 PUSH1 0xA0 SHL SUB PUSH32 0x0 AND ADDRESS SUB PUSH2 0x12F8 JUMPI PUSH1 0x40 MLOAD PUSH3 0x461BCD PUSH1 0xE5 SHL DUP2 MSTORE PUSH1 0x4 ADD PUSH2 0x12EF SWAP1 PUSH2 0x3184 JUMP JUMPDEST PUSH1 0x40 MLOAD DUP1 SWAP2 SUB SWAP1 REVERT JUMPDEST PUSH32 0x0 PUSH1 0x1 PUSH1 0x1 PUSH1 0xA0 SHL SUB AND PUSH2 0x1341 PUSH1 0x0 DUP1 MLOAD PUSH1 0x20 PUSH2 0x32E6 DUP4 CODECOPY DUP2 MLOAD SWAP2 MSTORE SLOAD PUSH1 0x1 PUSH1 0x1 PUSH1 0xA0 SHL SUB AND SWAP1 JUMP JUMPDEST PUSH1 0x1 PUSH1 0x1 PUSH1 0xA0 SHL SUB AND EQ PUSH2 0x1367 JUMPI PUSH1 0x40 MLOAD PUSH3 0x461BCD PUSH1 0xE5 SHL DUP2 MSTORE PUSH1 0x4 ADD PUSH2 0x12EF SWAP1 PUSH2 0x31D0 JUMP JUMPDEST PUSH2 0x1370 DUP2 PUSH2 0x2205 JUMP JUMPDEST PUSH1 0x40 DUP1 MLOAD PUSH1 0x0 DUP1 DUP3 MSTORE PUSH1 0x20 DUP3 ADD SWAP1 SWAP3 MSTORE PUSH2 0x138C SWAP2 DUP4 SWAP2 SWAP1 PUSH2 0x220D JUMP JUMPDEST POP JUMP JUMPDEST PUSH2 0x1397 PUSH2 0x21AB JUMP JUMPDEST PUSH1 0xFC DUP1 SLOAD SWAP2 ISZERO ISZERO PUSH1 0x1 PUSH1 0x68 SHL MUL PUSH1 0xFF PUSH1 0x68 SHL NOT SWAP1 SWAP3 AND SWAP2 SWAP1 SWAP2 OR SWAP1 SSTORE JUMP JUMPDEST PUSH2 0x13BD PUSH2 0x21AB JUMP JUMPDEST PUSH2 0x13C5 PUSH2 0x2378 JUMP JUMPDEST JUMP JUMPDEST PUSH2 0x13CF PUSH2 0x21AB JUMP JUMPDEST PUSH1 0xFC DUP1 SLOAD SWAP2 ISZERO ISZERO PUSH1 0x1 PUSH1 0x78 SHL MUL PUSH1 0xFF PUSH1 0x78 SHL NOT SWAP1 SWAP3 AND SWAP2 SWAP1 SWAP2 OR SWAP1 SSTORE JUMP JUMPDEST PUSH1 0x1 PUSH1 0x1 PUSH1 0xA0 SHL SUB PUSH32 0x0 AND ADDRESS SUB PUSH2 0x1435 JUMPI PUSH1 0x40 MLOAD PUSH3 0x461BCD PUSH1 0xE5 SHL DUP2 MSTORE PUSH1 0x4 ADD PUSH2 0x12EF SWAP1 PUSH2 0x3184 JUMP JUMPDEST PUSH32 0x0 PUSH1 0x1 PUSH1 0x1 PUSH1 0xA0 SHL SUB AND PUSH2 0x147E PUSH1 0x0 DUP1 MLOAD PUSH1 0x20 PUSH2 0x32E6 DUP4 CODECOPY DUP2 MLOAD SWAP2 MSTORE SLOAD PUSH1 0x1 PUSH1 0x1 PUSH1 0xA0 SHL SUB AND SWAP1 JUMP JUMPDEST PUSH1 0x1 PUSH1 0x1 PUSH1 0xA0 SHL SUB AND EQ PUSH2 0x14A4 JUMPI PUSH1 0x40 MLOAD PUSH3 0x461BCD PUSH1 0xE5 SHL DUP2 MSTORE PUSH1 0x4 ADD PUSH2 0x12EF SWAP1 PUSH2 0x31D0 JUMP JUMPDEST PUSH2 0x14AD DUP3 PUSH2 0x2205 JUMP JUMPDEST PUSH2 0xE88 DUP3 DUP3 PUSH1 0x1 PUSH2 0x220D JUMP JUMPDEST PUSH1 0x0 ADDRESS PUSH1 0x1 PUSH1 0x1 PUSH1 0xA0 SHL SUB PUSH32 0x0 AND EQ PUSH2 0x1559 JUMPI PUSH1 0x40 MLOAD PUSH3 0x461BCD PUSH1 0xE5 SHL DUP2 MSTORE PUSH1 0x20 PUSH1 0x4 DUP3 ADD MSTORE PUSH1 0x38 PUSH1 0x24 DUP3 ADD MSTORE PUSH32 0x555550535570677261646561626C653A206D757374206E6F742062652063616C PUSH1 0x44 DUP3 ADD MSTORE PUSH32 0x6C6564207468726F7567682064656C656761746563616C6C0000000000000000 PUSH1 0x64 DUP3 ADD MSTORE PUSH1 0x84 ADD PUSH2 0x12EF JUMP JUMPDEST POP PUSH1 0x0 DUP1 MLOAD PUSH1 0x20 PUSH2 0x32E6 DUP4 CODECOPY DUP2 MLOAD SWAP2 MSTORE SWAP1 JUMP JUMPDEST PUSH2 0x1574 PUSH2 0x21AB JUMP JUMPDEST PUSH1 0x0 JUMPDEST PUSH1 0xFF DUP2 AND DUP3 GT ISZERO PUSH2 0x1659 JUMPI PUSH1 0x0 PUSH2 0x107 PUSH1 0x0 DUP6 DUP6 DUP6 PUSH1 0xFF AND DUP2 DUP2 LT PUSH2 0x159E JUMPI PUSH2 0x159E PUSH2 0x2F3A JUMP JUMPDEST SWAP1 POP PUSH1 0x20 MUL ADD PUSH1 0x20 DUP2 ADD SWAP1 PUSH2 0x15B3 SWAP2 SWAP1 PUSH2 0x28E2 JUMP JUMPDEST PUSH1 0x1 PUSH1 0x1 PUSH1 0xA0 SHL SUB AND DUP2 MSTORE PUSH1 0x20 DUP2 ADD SWAP2 SWAP1 SWAP2 MSTORE PUSH1 0x40 ADD PUSH1 0x0 KECCAK256 PUSH1 0x3 ADD DUP1 SLOAD SWAP2 ISZERO ISZERO PUSH1 0x1 PUSH1 0xB0 SHL MUL PUSH1 0xFF PUSH1 0xB0 SHL NOT SWAP1 SWAP3 AND SWAP2 SWAP1 SWAP2 OR SWAP1 SSTORE PUSH1 0xFD DUP4 DUP4 PUSH1 0xFF DUP5 AND DUP2 DUP2 LT PUSH2 0x1600 JUMPI PUSH2 0x1600 PUSH2 0x2F3A JUMP JUMPDEST SWAP1 POP PUSH1 0x20 MUL ADD PUSH1 0x20 DUP2 ADD SWAP1 PUSH2 0x1615 SWAP2 SWAP1 PUSH2 0x28E2 JUMP JUMPDEST DUP2 SLOAD PUSH1 0x1 DUP2 ADD DUP4 SSTORE PUSH1 0x0 SWAP3 DUP4 MSTORE PUSH1 0x20 SWAP1 SWAP3 KECCAK256 SWAP1 SWAP2 ADD DUP1 SLOAD PUSH1 0x1 PUSH1 0x1 PUSH1 0xA0 SHL SUB NOT AND PUSH1 0x1 PUSH1 0x1 PUSH1 0xA0 SHL SUB SWAP1 SWAP3 AND SWAP2 SWAP1 SWAP2 OR SWAP1 SSTORE DUP1 PUSH2 0x1651 DUP2 PUSH2 0x321C JUMP JUMPDEST SWAP2 POP POP PUSH2 0x1577 JUMP JUMPDEST POP POP POP JUMP JUMPDEST PUSH2 0x1666 PUSH2 0x21AB JUMP JUMPDEST PUSH2 0x109 DUP1 SLOAD PUSH1 0x1 PUSH1 0x1 PUSH1 0xA0 SHL SUB NOT AND PUSH1 0x1 PUSH1 0x1 PUSH1 0xA0 SHL SUB SWAP3 SWAP1 SWAP3 AND SWAP2 SWAP1 SWAP2 OR SWAP1 SSTORE JUMP JUMPDEST PUSH2 0x1691 PUSH2 0x21AB JUMP JUMPDEST PUSH1 0xFC DUP1 SLOAD SWAP2 ISZERO ISZERO PUSH1 0x1 PUSH1 0x70 SHL MUL PUSH1 0xFF PUSH1 0x70 SHL NOT SWAP1 SWAP3 AND SWAP2 SWAP1 SWAP2 OR SWAP1 SSTORE JUMP JUMPDEST PUSH1 0xFD DUP2 DUP2 SLOAD DUP2 LT PUSH2 0x16BF JUMPI PUSH1 0x0 DUP1 REVERT JUMPDEST PUSH1 0x0 SWAP2 DUP3 MSTORE PUSH1 0x20 SWAP1 SWAP2 KECCAK256 ADD SLOAD PUSH1 0x1 PUSH1 0x1 PUSH1 0xA0 SHL SUB AND SWAP1 POP DUP2 JUMP JUMPDEST PUSH2 0x16E1 PUSH2 0x21AB JUMP JUMPDEST PUSH1 0xFC DUP1 SLOAD PUSH1 0xFF SWAP1 SWAP3 AND PUSH1 0x1 PUSH1 0x40 SHL MUL PUSH9 0xFF0000000000000000 NOT SWAP1 SWAP3 AND SWAP2 SWAP1 SWAP2 OR SWAP1 SSTORE JUMP JUMPDEST PUSH2 0x170E PUSH2 0x21AB JUMP JUMPDEST PUSH2 0x13C5 PUSH1 0x0 PUSH2 0x23CA JUMP JUMPDEST PUSH1 0x0 SLOAD PUSH2 0x100 SWAP1 DIV PUSH1 0xFF AND ISZERO DUP1 DUP1 ISZERO PUSH2 0x1738 JUMPI POP PUSH1 0x0 SLOAD PUSH1 0x1 PUSH1 0xFF SWAP1 SWAP2 AND LT JUMPDEST DUP1 PUSH2 0x1752 JUMPI POP ADDRESS EXTCODESIZE ISZERO DUP1 ISZERO PUSH2 0x1752 JUMPI POP PUSH1 0x0 SLOAD PUSH1 0xFF AND PUSH1 0x1 EQ JUMPDEST PUSH2 0x17B5 JUMPI PUSH1 0x40 MLOAD PUSH3 0x461BCD PUSH1 0xE5 SHL DUP2 MSTORE PUSH1 0x20 PUSH1 0x4 DUP3 ADD MSTORE PUSH1 0x2E PUSH1 0x24 DUP3 ADD MSTORE PUSH32 0x496E697469616C697A61626C653A20636F6E747261637420697320616C726561 PUSH1 0x44 DUP3 ADD MSTORE PUSH14 0x191E481A5B9A5D1A585B1A5E9959 PUSH1 0x92 SHL PUSH1 0x64 DUP3 ADD MSTORE PUSH1 0x84 ADD PUSH2 0x12EF JUMP JUMPDEST PUSH1 0x0 DUP1 SLOAD PUSH1 0xFF NOT AND PUSH1 0x1 OR SWAP1 SSTORE DUP1 ISZERO PUSH2 0x17D8 JUMPI PUSH1 0x0 DUP1 SLOAD PUSH2 0xFF00 NOT AND PUSH2 0x100 OR SWAP1 SSTORE JUMPDEST PUSH1 0x40 DUP1 MLOAD PUSH2 0x140 DUP2 ADD DUP3 MSTORE PUSH2 0x1388 DUP2 MSTORE PUSH2 0x1F4 PUSH1 0x20 DUP3 ADD MSTORE PUSH2 0x190 SWAP2 DUP2 ADD SWAP2 SWAP1 SWAP2 MSTORE PUSH2 0x12C PUSH1 0x60 DUP3 ADD MSTORE PUSH1 0xC8 PUSH1 0x80 DUP3 ADD MSTORE PUSH1 0x64 PUSH1 0xA0 DUP3 ADD DUP2 SWAP1 MSTORE PUSH1 0xC0 DUP3 ADD MSTORE PUSH1 0x7D PUSH1 0xE0 DUP3 ADD DUP2 SWAP1 MSTORE PUSH2 0x100 DUP3 ADD MSTORE PUSH1 0x96 PUSH2 0x120 DUP3 ADD MSTORE PUSH2 0x183C SWAP1 PUSH1 0xFB SWAP1 PUSH1 0xA PUSH2 0x2811 JUMP JUMPDEST POP PUSH1 0xFC DUP1 SLOAD PUSH2 0x103 DUP1 SLOAD PUSH1 0x1 PUSH1 0x1 PUSH1 0xA0 SHL SUB NOT SWAP1 DUP2 AND PUSH20 0x7F9FD63932BABC508FAD2F324EB534D09CFE86F0 OR SWAP1 SWAP2 SSTORE PUSH16 0x10101010101030302050A0A0A002710 PUSH16 0xFFFFFFFFFFFFFFFFFFFFFFFFFF00FFFF NOT SWAP1 SWAP3 AND SWAP2 SWAP1 SWAP2 OR SWAP1 SWAP2 SSTORE PUSH2 0x104 DUP1 SLOAD DUP3 AND PUSH20 0xEFB61C43C70B60563C1A2A835663C63ECC93F6BA OR SWAP1 SSTORE PUSH2 0x105 DUP1 SLOAD SWAP1 SWAP2 AND CALLER OR SWAP1 SSTORE PUSH2 0x18CB PUSH2 0x241C JUMP JUMPDEST PUSH2 0x18D3 PUSH2 0x244B JUMP JUMPDEST PUSH2 0x18DB PUSH2 0x247A JUMP JUMPDEST DUP1 ISZERO PUSH2 0x138C JUMPI PUSH1 0x0 DUP1 SLOAD PUSH2 0xFF00 NOT AND SWAP1 SSTORE PUSH1 0x40 MLOAD PUSH1 0x1 DUP2 MSTORE PUSH32 0x7F26B83FF96E1F2B6A682F133852F6798A09C465DA95921460CEFB3847402498 SWAP1 PUSH1 0x20 ADD PUSH1 0x40 MLOAD DUP1 SWAP2 SUB SWAP1 LOG1 POP JUMP JUMPDEST PUSH2 0x192B PUSH2 0x21AB JUMP JUMPDEST PUSH2 0x13C5 PUSH2 0x24A1 JUMP JUMPDEST PUSH2 0x193B PUSH2 0x21AB JUMP JUMPDEST PUSH1 0xFC DUP1 SLOAD PUSH1 0xFF SWAP1 SWAP3 AND PUSH7 0x1000000000000 MUL PUSH7 0xFF000000000000 NOT SWAP1 SWAP3 AND SWAP2 SWAP1 SWAP2 OR SWAP1 SSTORE JUMP JUMPDEST PUSH1 0x60 PUSH1 0xFB DUP1 SLOAD DUP1 PUSH1 0x20 MUL PUSH1 0x20 ADD PUSH1 0x40 MLOAD SWAP1 DUP2 ADD PUSH1 0x40 MSTORE DUP1 SWAP3 SWAP2 SWAP1 DUP2 DUP2 MSTORE PUSH1 0x20 ADD DUP3 DUP1 SLOAD DUP1 ISZERO PUSH2 0x19D7 JUMPI PUSH1 0x20 MUL DUP3 ADD SWAP2 SWAP1 PUSH1 0x0 MSTORE PUSH1 0x20 PUSH1 0x0 KECCAK256 SWAP1 PUSH1 0x0 SWAP1 JUMPDEST DUP3 DUP3 SWAP1 SLOAD SWAP1 PUSH2 0x100 EXP SWAP1 DIV PUSH2 0xFFFF AND PUSH2 0xFFFF AND DUP2 MSTORE PUSH1 0x20 ADD SWAP1 PUSH1 0x2 ADD SWAP1 PUSH1 0x20 DUP3 PUSH1 0x1 ADD DIV SWAP3 DUP4 ADD SWAP3 PUSH1 0x1 SUB DUP3 MUL SWAP2 POP DUP1 DUP5 GT PUSH2 0x199E JUMPI SWAP1 POP JUMPDEST POP POP POP POP POP SWAP1 POP SWAP1 JUMP JUMPDEST PUSH2 0x19E9 PUSH2 0x21AB JUMP JUMPDEST PUSH1 0xFC DUP1 SLOAD SWAP2 ISZERO ISZERO PUSH1 0x1 PUSH1 0x60 SHL MUL PUSH1 0xFF PUSH1 0x60 SHL NOT SWAP1 SWAP3 AND SWAP2 SWAP1 SWAP2 OR SWAP1 SSTORE JUMP JUMPDEST PUSH2 0x1A0F PUSH2 0x21AB JUMP JUMPDEST PUSH1 0xFC DUP1 SLOAD PUSH1 0xFF SWAP1 SWAP3 AND PUSH4 0x1000000 MUL PUSH4 0xFF000000 NOT SWAP1 SWAP3 AND SWAP2 SWAP1 SWAP2 OR SWAP1 SSTORE JUMP JUMPDEST PUSH2 0x1A37 PUSH2 0x21AB JUMP JUMPDEST PUSH2 0x101 DUP1 SLOAD PUSH1 0x1 PUSH1 0x1 PUSH1 0xA0 SHL SUB NOT AND PUSH1 0x1 PUSH1 0x1 PUSH1 0xA0 SHL SUB SWAP3 SWAP1 SWAP3 AND SWAP2 SWAP1 SWAP2 OR SWAP1 SSTORE JUMP JUMPDEST PUSH2 0x1A62 PUSH2 0x21AB JUMP JUMPDEST PUSH1 0xFC DUP1 SLOAD PUSH2 0xFFFF NOT AND PUSH2 0xFFFF SWAP3 SWAP1 SWAP3 AND SWAP2 SWAP1 SWAP2 OR SWAP1 SSTORE JUMP JUMPDEST PUSH2 0x1A82 PUSH2 0x21AB JUMP JUMPDEST PUSH1 0xFC DUP1 SLOAD PUSH1 0xFF SWAP1 SWAP3 AND PUSH3 0x10000 MUL PUSH3 0xFF0000 NOT SWAP1 SWAP3 AND SWAP2 SWAP1 SWAP2 OR SWAP1 SSTORE JUMP JUMPDEST PUSH2 0x1AA8 PUSH2 0x21AB JUMP JUMPDEST PUSH1 0xFC DUP1 SLOAD PUSH1 0xFF SWAP1 SWAP3 AND PUSH1 0x1 PUSH1 0x38 SHL MUL PUSH8 0xFF00000000000000 NOT SWAP1 SWAP3 AND SWAP2 SWAP1 SWAP2 OR SWAP1 SSTORE JUMP JUMPDEST PUSH2 0x1AD4 PUSH2 0x21AB JUMP JUMPDEST PUSH1 0xFF DUP1 SLOAD PUSH1 0x1 PUSH1 0x1 PUSH1 0xA0 SHL SUB NOT AND PUSH1 0x1 PUSH1 0x1 PUSH1 0xA0 SHL SUB SWAP3 SWAP1 SWAP3 AND SWAP2 SWAP1 SWAP2 OR SWAP1 SSTORE JUMP JUMPDEST PUSH2 0x1AFE PUSH2 0x21AB JUMP JUMPDEST PUSH1 0xFC DUP1 SLOAD PUSH1 0xFF SWAP1 SWAP3 AND PUSH6 0x10000000000 MUL PUSH6 0xFF0000000000 NOT SWAP1 SWAP3 AND SWAP2 SWAP1 SWAP2 OR SWAP1 SSTORE JUMP JUMPDEST PUSH1 0x0 DUP1 JUMPDEST PUSH1 0x14 DUP2 PUSH1 0xFF AND LT ISZERO PUSH2 0x1B6E JUMPI PUSH1 0xFF DUP2 AND PUSH1 0x0 SWAP1 DUP2 MSTORE PUSH2 0x106 PUSH1 0x20 MSTORE PUSH1 0x40 SWAP1 KECCAK256 PUSH1 0x2 ADD SLOAD ISZERO PUSH2 0x1B5C JUMPI DUP2 PUSH2 0x1B58 DUP2 PUSH2 0x321C JUMP JUMPDEST SWAP3 POP POP JUMPDEST DUP1 PUSH2 0x1B66 DUP2 PUSH2 0x321C JUMP JUMPDEST SWAP2 POP POP PUSH2 0x1B26 JUMP JUMPDEST POP SWAP1 JUMP JUMPDEST PUSH2 0x1B7A PUSH2 0x21AB JUMP JUMPDEST PUSH1 0xFC DUP1 SLOAD PUSH1 0xFF SWAP1 SWAP3 AND PUSH5 0x100000000 MUL PUSH5 0xFF00000000 NOT SWAP1 SWAP3 AND SWAP2 SWAP1 SWAP2 OR SWAP1 SSTORE JUMP JUMPDEST PUSH2 0x1BA4 PUSH2 0x21AB JUMP JUMPDEST PUSH1 0xFC DUP1 SLOAD SWAP2 ISZERO ISZERO PUSH1 0x1 PUSH1 0x58 SHL MUL PUSH1 0xFF PUSH1 0x58 SHL NOT SWAP1 SWAP3 AND SWAP2 SWAP1 SWAP2 OR SWAP1 SSTORE JUMP JUMPDEST PUSH2 0x1BCA PUSH2 0x21AB JUMP JUMPDEST PUSH1 0xFC DUP1 SLOAD PUSH1 0xFF SWAP1 SWAP3 AND PUSH1 0x1 PUSH1 0x48 SHL MUL PUSH10 0xFF000000000000000000 NOT SWAP1 SWAP3 AND SWAP2 SWAP1 SWAP2 OR SWAP1 SSTORE JUMP JUMPDEST PUSH2 0x1BF8 PUSH2 0x21AB JUMP JUMPDEST PUSH1 0x0 JUMPDEST DUP7 DUP2 LT ISZERO PUSH2 0x1DC2 JUMPI DUP8 DUP8 DUP3 DUP2 DUP2 LT PUSH2 0x1C15 JUMPI PUSH2 0x1C15 PUSH2 0x2F3A JUMP JUMPDEST SWAP1 POP PUSH1 0x20 MUL ADD PUSH1 0x20 DUP2 ADD SWAP1 PUSH2 0x1C2A SWAP2 SWAP1 PUSH2 0x295F JUMP JUMPDEST PUSH2 0x106 PUSH1 0x0 DUP11 DUP11 DUP6 DUP2 DUP2 LT PUSH2 0x1C41 JUMPI PUSH2 0x1C41 PUSH2 0x2F3A JUMP JUMPDEST SWAP1 POP PUSH1 0x20 MUL ADD PUSH1 0x20 DUP2 ADD SWAP1 PUSH2 0x1C56 SWAP2 SWAP1 PUSH2 0x295F JUMP JUMPDEST PUSH1 0xFF SWAP1 DUP2 AND DUP3 MSTORE PUSH1 0x20 DUP3 ADD SWAP3 SWAP1 SWAP3 MSTORE PUSH1 0x40 ADD PUSH1 0x0 KECCAK256 DUP1 SLOAD PUSH1 0xFF NOT AND SWAP3 SWAP1 SWAP2 AND SWAP2 SWAP1 SWAP2 OR SWAP1 SSTORE DUP6 MLOAD DUP7 SWAP1 DUP3 SWAP1 DUP2 LT PUSH2 0x1C8F JUMPI PUSH2 0x1C8F PUSH2 0x2F3A JUMP JUMPDEST PUSH1 0x20 MUL PUSH1 0x20 ADD ADD MLOAD PUSH2 0x106 PUSH1 0x0 DUP11 DUP11 DUP6 DUP2 DUP2 LT PUSH2 0x1CAE JUMPI PUSH2 0x1CAE PUSH2 0x2F3A JUMP JUMPDEST SWAP1 POP PUSH1 0x20 MUL ADD PUSH1 0x20 DUP2 ADD SWAP1 PUSH2 0x1CC3 SWAP2 SWAP1 PUSH2 0x295F JUMP JUMPDEST PUSH1 0xFF AND DUP2 MSTORE PUSH1 0x20 DUP2 ADD SWAP2 SWAP1 SWAP2 MSTORE PUSH1 0x40 ADD PUSH1 0x0 KECCAK256 PUSH1 0x1 ADD SWAP1 PUSH2 0x1CE4 SWAP1 DUP3 PUSH2 0x30C4 JUMP JUMPDEST POP DUP5 DUP5 DUP3 DUP2 DUP2 LT PUSH2 0x1CF7 JUMPI PUSH2 0x1CF7 PUSH2 0x2F3A JUMP JUMPDEST SWAP1 POP PUSH1 0x20 MUL ADD CALLDATALOAD PUSH8 0xDE0B6B3A7640000 PUSH2 0x1D11 SWAP2 SWAP1 PUSH2 0x323B JUMP JUMPDEST PUSH2 0x106 PUSH1 0x0 DUP11 DUP11 DUP6 DUP2 DUP2 LT PUSH2 0x1D28 JUMPI PUSH2 0x1D28 PUSH2 0x2F3A JUMP JUMPDEST SWAP1 POP PUSH1 0x20 MUL ADD PUSH1 0x20 DUP2 ADD SWAP1 PUSH2 0x1D3D SWAP2 SWAP1 PUSH2 0x295F JUMP JUMPDEST PUSH1 0xFF AND DUP2 MSTORE PUSH1 0x20 DUP2 ADD SWAP2 SWAP1 SWAP2 MSTORE PUSH1 0x40 ADD PUSH1 0x0 KECCAK256 PUSH1 0x2 ADD SSTORE DUP3 DUP3 DUP3 DUP2 DUP2 LT PUSH2 0x1D66 JUMPI PUSH2 0x1D66 PUSH2 0x2F3A JUMP JUMPDEST SWAP1 POP PUSH1 0x20 MUL ADD CALLDATALOAD PUSH2 0x106 PUSH1 0x0 DUP11 DUP11 DUP6 DUP2 DUP2 LT PUSH2 0x1D84 JUMPI PUSH2 0x1D84 PUSH2 0x2F3A JUMP JUMPDEST SWAP1 POP PUSH1 0x20 MUL ADD PUSH1 0x20 DUP2 ADD SWAP1 PUSH2 0x1D99 SWAP2 SWAP1 PUSH2 0x295F JUMP JUMPDEST PUSH1 0xFF AND DUP2 MSTORE PUSH1 0x20 DUP2 ADD SWAP2 SWAP1 SWAP2 MSTORE PUSH1 0x40 ADD PUSH1 0x0 KECCAK256 PUSH1 0x3 ADD SSTORE DUP1 PUSH2 0x1DBA DUP2 PUSH2 0x2F8F JUMP JUMPDEST SWAP2 POP POP PUSH2 0x1BFB JUMP JUMPDEST POP POP POP POP POP POP POP POP JUMP JUMPDEST PUSH2 0x1DD4 PUSH2 0x21AB JUMP JUMPDEST DUP1 MLOAD PUSH2 0xE88 SWAP1 PUSH1 0xFB SWAP1 PUSH1 0x20 DUP5 ADD SWAP1 PUSH2 0x2811 JUMP JUMPDEST PUSH2 0x1DEF PUSH2 0x21AB JUMP JUMPDEST PUSH1 0x1 PUSH1 0x1 PUSH1 0xA0 SHL SUB DUP2 AND PUSH1 0x0 SWAP1 DUP2 MSTORE PUSH2 0x108 PUSH1 0x20 MSTORE PUSH1 0x40 SWAP1 KECCAK256 SLOAD PUSH1 0xFF AND DUP1 PUSH2 0xE88 JUMPI PUSH1 0x1 PUSH1 0x1 PUSH1 0xA0 SHL SUB DUP3 AND PUSH1 0x0 DUP2 DUP2 MSTORE PUSH2 0x108 PUSH1 0x20 SWAP1 DUP2 MSTORE PUSH1 0x40 DUP1 DUP4 KECCAK256 DUP1 SLOAD PUSH1 0xFF NOT AND PUSH1 0x1 SWAP1 DUP2 OR SWAP1 SWAP2 SSTORE PUSH1 0xFE DUP1 SLOAD SWAP2 DUP3 ADD DUP2 SSTORE SWAP1 SWAP4 MSTORE PUSH32 0x54075DF80EC1AE6AC9100E1FD0EBF3246C17F5C933137AF392011F4C5F61513A SWAP1 SWAP3 ADD DUP1 SLOAD PUSH1 0x1 PUSH1 0x1 PUSH1 0xA0 SHL SUB NOT AND DUP5 OR SWAP1 SSTORE SWAP1 MLOAD SWAP2 DUP3 MSTORE PUSH32 0xE30F8CB0D8CBC7C0E95D5AAA3107CE401738CE4BC98A05DD081BB2A77A9CA749 SWAP2 ADD PUSH1 0x40 MLOAD DUP1 SWAP2 SUB SWAP1 LOG1 POP POP JUMP JUMPDEST PUSH1 0x40 DUP1 MLOAD PUSH1 0xE0 DUP1 DUP3 ADD DUP4 MSTORE PUSH1 0x0 DUP1 DUP4 MSTORE PUSH1 0x60 PUSH1 0x20 DUP1 DUP6 ADD DUP3 SWAP1 MSTORE DUP5 DUP7 ADD DUP3 SWAP1 MSTORE SWAP1 DUP5 ADD DUP3 SWAP1 MSTORE PUSH1 0x80 DUP5 ADD DUP3 SWAP1 MSTORE PUSH1 0xA0 DUP5 ADD DUP3 SWAP1 MSTORE PUSH1 0xC0 DUP5 ADD DUP3 SWAP1 MSTORE PUSH1 0x1 PUSH1 0x1 PUSH1 0xA0 SHL SUB DUP7 DUP2 AND DUP4 MSTORE PUSH2 0x107 DUP3 MSTORE SWAP2 DUP6 SWAP1 KECCAK256 DUP6 MLOAD SWAP4 DUP5 ADD SWAP1 SWAP6 MSTORE DUP5 SLOAD SWAP1 SWAP2 AND DUP3 MSTORE PUSH1 0x1 DUP5 ADD DUP1 SLOAD SWAP4 SWAP5 SWAP3 SWAP4 SWAP2 DUP5 ADD SWAP2 PUSH2 0x1F26 SWAP1 PUSH2 0x303C JUMP JUMPDEST DUP1 PUSH1 0x1F ADD PUSH1 0x20 DUP1 SWAP2 DIV MUL PUSH1 0x20 ADD PUSH1 0x40 MLOAD SWAP1 DUP2 ADD PUSH1 0x40 MSTORE DUP1 SWAP3 SWAP2 SWAP1 DUP2 DUP2 MSTORE PUSH1 0x20 ADD DUP3 DUP1 SLOAD PUSH2 0x1F52 SWAP1 PUSH2 0x303C JUMP JUMPDEST DUP1 ISZERO PUSH2 0x1F9F JUMPI DUP1 PUSH1 0x1F LT PUSH2 0x1F74 JUMPI PUSH2 0x100 DUP1 DUP4 SLOAD DIV MUL DUP4 MSTORE SWAP2 PUSH1 0x20 ADD SWAP2 PUSH2 0x1F9F JUMP JUMPDEST DUP3 ADD SWAP2 SWAP1 PUSH1 0x0 MSTORE PUSH1 0x20 PUSH1 0x0 KECCAK256 SWAP1 JUMPDEST DUP2 SLOAD DUP2 MSTORE SWAP1 PUSH1 0x1 ADD SWAP1 PUSH1 0x20 ADD DUP1 DUP4 GT PUSH2 0x1F82 JUMPI DUP3 SWAP1 SUB PUSH1 0x1F AND DUP3 ADD SWAP2 JUMPDEST POP POP POP POP POP DUP2 MSTORE PUSH1 0x20 ADD PUSH1 0x2 DUP3 ADD DUP1 SLOAD PUSH2 0x1FB8 SWAP1 PUSH2 0x303C JUMP JUMPDEST DUP1 PUSH1 0x1F ADD PUSH1 0x20 DUP1 SWAP2 DIV MUL PUSH1 0x20 ADD PUSH1 0x40 MLOAD SWAP1 DUP2 ADD PUSH1 0x40 MSTORE DUP1 SWAP3 SWAP2 SWAP1 DUP2 DUP2 MSTORE PUSH1 0x20 ADD DUP3 DUP1 SLOAD PUSH2 0x1FE4 SWAP1 PUSH2 0x303C JUMP JUMPDEST DUP1 ISZERO PUSH2 0x2031 JUMPI DUP1 PUSH1 0x1F LT PUSH2 0x2006 JUMPI PUSH2 0x100 DUP1 DUP4 SLOAD DIV MUL DUP4 MSTORE SWAP2 PUSH1 0x20 ADD SWAP2 PUSH2 0x2031 JUMP JUMPDEST DUP3 ADD SWAP2 SWAP1 PUSH1 0x0 MSTORE PUSH1 0x20 PUSH1 0x0 KECCAK256 SWAP1 JUMPDEST DUP2 SLOAD DUP2 MSTORE SWAP1 PUSH1 0x1 ADD SWAP1 PUSH1 0x20 ADD DUP1 DUP4 GT PUSH2 0x2014 JUMPI DUP3 SWAP1 SUB PUSH1 0x1F AND DUP3 ADD SWAP2 JUMPDEST POP POP POP SWAP2 DUP4 MSTORE POP POP PUSH1 0x3 SWAP2 SWAP1 SWAP2 ADD SLOAD PUSH1 0xFF DUP1 DUP3 AND PUSH1 0x20 DUP5 ADD MSTORE PUSH2 0x100 DUP3 DIV DUP2 AND ISZERO ISZERO PUSH1 0x40 DUP5 ADD MSTORE PUSH1 0x1 PUSH1 0x1 PUSH1 0xA0 SHL SUB PUSH3 0x10000 DUP4 DIV AND PUSH1 0x60 DUP5 ADD MSTORE PUSH1 0x1 PUSH1 0xB0 SHL SWAP1 SWAP2 DIV AND ISZERO ISZERO PUSH1 0x80 SWAP1 SWAP2 ADD MSTORE SWAP3 SWAP2 POP POP JUMP JUMPDEST PUSH2 0x208B PUSH2 0x21AB JUMP JUMPDEST PUSH1 0xFC DUP1 SLOAD SWAP2 ISZERO ISZERO PUSH1 0x1 PUSH1 0x50 SHL MUL PUSH1 0xFF PUSH1 0x50 SHL NOT SWAP1 SWAP3 AND SWAP2 SWAP1 SWAP2 OR SWAP1 SSTORE JUMP JUMPDEST PUSH2 0x20B1 PUSH2 0x21AB JUMP JUMPDEST PUSH2 0x104 DUP1 SLOAD PUSH1 0x1 PUSH1 0x1 PUSH1 0xA0 SHL SUB NOT AND PUSH1 0x1 PUSH1 0x1 PUSH1 0xA0 SHL SUB SWAP3 SWAP1 SWAP3 AND SWAP2 SWAP1 SWAP2 OR SWAP1 SSTORE JUMP JUMPDEST PUSH2 0x20DC PUSH2 0x21AB JUMP JUMPDEST PUSH1 0x1 PUSH1 0x1 PUSH1 0xA0 SHL SUB DUP2 AND PUSH2 0x2141 JUMPI PUSH1 0x40 MLOAD PUSH3 0x461BCD PUSH1 0xE5 SHL DUP2 MSTORE PUSH1 0x20 PUSH1 0x4 DUP3 ADD MSTORE PUSH1 0x26 PUSH1 0x24 DUP3 ADD MSTORE PUSH32 0x4F776E61626C653A206E6577206F776E657220697320746865207A65726F2061 PUSH1 0x44 DUP3 ADD MSTORE PUSH6 0x646472657373 PUSH1 0xD0 SHL PUSH1 0x64 DUP3 ADD MSTORE PUSH1 0x84 ADD PUSH2 0x12EF JUMP JUMPDEST PUSH2 0x138C DUP2 PUSH2 0x23CA JUMP JUMPDEST PUSH1 0x60 PUSH1 0xFE DUP1 SLOAD DUP1 PUSH1 0x20 MUL PUSH1 0x20 ADD PUSH1 0x40 MLOAD SWAP1 DUP2 ADD PUSH1 0x40 MSTORE DUP1 SWAP3 SWAP2 SWAP1 DUP2 DUP2 MSTORE PUSH1 0x20 ADD DUP3 DUP1 SLOAD DUP1 ISZERO PUSH2 0x19D7 JUMPI PUSH1 0x20 MUL DUP3 ADD SWAP2 SWAP1 PUSH1 0x0 MSTORE PUSH1 0x20 PUSH1 0x0 KECCAK256 SWAP1 JUMPDEST DUP2 SLOAD PUSH1 0x1 PUSH1 0x1 PUSH1 0xA0 SHL SUB AND DUP2 MSTORE PUSH1 0x1 SWAP1 SWAP2 ADD SWAP1 PUSH1 0x20 ADD DUP1 DUP4 GT PUSH2 0x2184 JUMPI POP POP POP POP POP SWAP1 POP SWAP1 JUMP JUMPDEST PUSH1 0x65 SLOAD PUSH1 0x1 PUSH1 0x1 PUSH1 0xA0 SHL SUB AND CALLER EQ PUSH2 0x13C5 JUMPI PUSH1 0x40 MLOAD PUSH3 0x461BCD PUSH1 0xE5 SHL DUP2 MSTORE PUSH1 0x20 PUSH1 0x4 DUP3 ADD DUP2 SWAP1 MSTORE PUSH1 0x24 DUP3 ADD MSTORE PUSH32 0x4F776E61626C653A2063616C6C6572206973206E6F7420746865206F776E6572 PUSH1 0x44 DUP3 ADD MSTORE PUSH1 0x64 ADD PUSH2 0x12EF JUMP JUMPDEST PUSH2 0x138C PUSH2 0x21AB JUMP JUMPDEST PUSH32 0x4910FDFA16FED3260ED0E7147F7CC6DA11A60208B5B9406D12A635614FFD9143 SLOAD PUSH1 0xFF AND ISZERO PUSH2 0x2240 JUMPI PUSH2 0x1659 DUP4 PUSH2 0x24DE JUMP JUMPDEST DUP3 PUSH1 0x1 PUSH1 0x1 PUSH1 0xA0 SHL SUB AND PUSH4 0x52D1902D PUSH1 0x40 MLOAD DUP2 PUSH4 0xFFFFFFFF AND PUSH1 0xE0 SHL DUP2 MSTORE PUSH1 0x4 ADD PUSH1 0x20 PUSH1 0x40 MLOAD DUP1 DUP4 SUB DUP2 DUP7 GAS STATICCALL SWAP3 POP POP POP DUP1 ISZERO PUSH2 0x229A JUMPI POP PUSH1 0x40 DUP1 MLOAD PUSH1 0x1F RETURNDATASIZE SWAP1 DUP2 ADD PUSH1 0x1F NOT AND DUP3 ADD SWAP1 SWAP3 MSTORE PUSH2 0x2297 SWAP2 DUP2 ADD SWAP1 PUSH2 0x3252 JUMP JUMPDEST PUSH1 0x1 JUMPDEST PUSH2 0x22FD JUMPI PUSH1 0x40 MLOAD PUSH3 0x461BCD PUSH1 0xE5 SHL DUP2 MSTORE PUSH1 0x20 PUSH1 0x4 DUP3 ADD MSTORE PUSH1 0x2E PUSH1 0x24 DUP3 ADD MSTORE PUSH32 0x45524331393637557067726164653A206E657720696D706C656D656E74617469 PUSH1 0x44 DUP3 ADD MSTORE PUSH14 0x6F6E206973206E6F742055555053 PUSH1 0x90 SHL PUSH1 0x64 DUP3 ADD MSTORE PUSH1 0x84 ADD PUSH2 0x12EF JUMP JUMPDEST PUSH1 0x0 DUP1 MLOAD PUSH1 0x20 PUSH2 0x32E6 DUP4 CODECOPY DUP2 MLOAD SWAP2 MSTORE DUP2 EQ PUSH2 0x236C JUMPI PUSH1 0x40 MLOAD PUSH3 0x461BCD PUSH1 0xE5 SHL DUP2 MSTORE PUSH1 0x20 PUSH1 0x4 DUP3 ADD MSTORE PUSH1 0x29 PUSH1 0x24 DUP3 ADD MSTORE PUSH32 0x45524331393637557067726164653A20756E737570706F727465642070726F78 PUSH1 0x44 DUP3 ADD MSTORE PUSH9 0x1A58589B1955555251 PUSH1 0xBA SHL PUSH1 0x64 DUP3 ADD MSTORE PUSH1 0x84 ADD PUSH2 0x12EF JUMP JUMPDEST POP PUSH2 0x1659 DUP4 DUP4 DUP4 PUSH2 0x257A JUMP JUMPDEST PUSH2 0x2380 PUSH2 0x259F JUMP JUMPDEST PUSH1 0x33 DUP1 SLOAD PUSH1 0xFF NOT AND SWAP1 SSTORE PUSH32 0x5DB9EE0A495BF2E6FF9C91A7834C1BA4FDD244A5E8AA4E537BD38AEAE4B073AA CALLER JUMPDEST PUSH1 0x40 MLOAD PUSH1 0x1 PUSH1 0x1 PUSH1 0xA0 SHL SUB SWAP1 SWAP2 AND DUP2 MSTORE PUSH1 0x20 ADD PUSH1 0x40 MLOAD DUP1 SWAP2 SUB SWAP1 LOG1 JUMP JUMPDEST PUSH1 0x65 DUP1 SLOAD PUSH1 0x1 PUSH1 0x1 PUSH1 0xA0 SHL SUB DUP4 DUP2 AND PUSH1 0x1 PUSH1 0x1 PUSH1 0xA0 SHL SUB NOT DUP4 AND DUP2 OR SWAP1 SWAP4 SSTORE PUSH1 0x40 MLOAD SWAP2 AND SWAP2 SWAP1 DUP3 SWAP1 PUSH32 0x8BE0079C531659141344CD1FD0A4F28419497F9722A3DAAFE3B4186F6B6457E0 SWAP1 PUSH1 0x0 SWAP1 LOG3 POP POP JUMP JUMPDEST PUSH1 0x0 SLOAD PUSH2 0x100 SWAP1 DIV PUSH1 0xFF AND PUSH2 0x2443 JUMPI PUSH1 0x40 MLOAD PUSH3 0x461BCD PUSH1 0xE5 SHL DUP2 MSTORE PUSH1 0x4 ADD PUSH2 0x12EF SWAP1 PUSH2 0x326B JUMP JUMPDEST PUSH2 0x13C5 PUSH2 0x25E8 JUMP JUMPDEST PUSH1 0x0 SLOAD PUSH2 0x100 SWAP1 DIV PUSH1 0xFF AND PUSH2 0x2472 JUMPI PUSH1 0x40 MLOAD PUSH3 0x461BCD PUSH1 0xE5 SHL DUP2 MSTORE PUSH1 0x4 ADD PUSH2 0x12EF SWAP1 PUSH2 0x326B JUMP JUMPDEST PUSH2 0x13C5 PUSH2 0x261B JUMP JUMPDEST PUSH1 0x0 SLOAD PUSH2 0x100 SWAP1 DIV PUSH1 0xFF AND PUSH2 0x13C5 JUMPI PUSH1 0x40 MLOAD PUSH3 0x461BCD PUSH1 0xE5 SHL DUP2 MSTORE PUSH1 0x4 ADD PUSH2 0x12EF SWAP1 PUSH2 0x326B JUMP JUMPDEST PUSH2 0x24A9 PUSH2 0x264B JUMP JUMPDEST PUSH1 0x33 DUP1 SLOAD PUSH1 0xFF NOT AND PUSH1 0x1 OR SWAP1 SSTORE PUSH32 0x62E78CEA01BEE320CD4E420270B5EA74000D11B0C9F74754EBDBFC544B05A258 PUSH2 0x23AD CALLER SWAP1 JUMP JUMPDEST PUSH1 0x1 PUSH1 0x1 PUSH1 0xA0 SHL SUB DUP2 AND EXTCODESIZE PUSH2 0x254B JUMPI PUSH1 0x40 MLOAD PUSH3 0x461BCD PUSH1 0xE5 SHL DUP2 MSTORE PUSH1 0x20 PUSH1 0x4 DUP3 ADD MSTORE PUSH1 0x2D PUSH1 0x24 DUP3 ADD MSTORE PUSH32 0x455243313936373A206E657720696D706C656D656E746174696F6E206973206E PUSH1 0x44 DUP3 ADD MSTORE PUSH13 0x1BDD08184818DBDB9D1C9858DD PUSH1 0x9A SHL PUSH1 0x64 DUP3 ADD MSTORE PUSH1 0x84 ADD PUSH2 0x12EF JUMP JUMPDEST PUSH1 0x0 DUP1 MLOAD PUSH1 0x20 PUSH2 0x32E6 DUP4 CODECOPY DUP2 MLOAD SWAP2 MSTORE DUP1 SLOAD PUSH1 0x1 PUSH1 0x1 PUSH1 0xA0 SHL SUB NOT AND PUSH1 0x1 PUSH1 0x1 PUSH1 0xA0 SHL SUB SWAP3 SWAP1 SWAP3 AND SWAP2 SWAP1 SWAP2 OR SWAP1 SSTORE JUMP JUMPDEST PUSH2 0x2583 DUP4 PUSH2 0x2691 JUMP JUMPDEST PUSH1 0x0 DUP3 MLOAD GT DUP1 PUSH2 0x2590 JUMPI POP DUP1 JUMPDEST ISZERO PUSH2 0x1659 JUMPI PUSH2 0xE85 DUP4 DUP4 PUSH2 0x26D1 JUMP JUMPDEST PUSH1 0x33 SLOAD PUSH1 0xFF AND PUSH2 0x13C5 JUMPI PUSH1 0x40 MLOAD PUSH3 0x461BCD PUSH1 0xE5 SHL DUP2 MSTORE PUSH1 0x20 PUSH1 0x4 DUP3 ADD MSTORE PUSH1 0x14 PUSH1 0x24 DUP3 ADD MSTORE PUSH20 0x14185D5CD8589B194E881B9BDD081C185D5CD959 PUSH1 0x62 SHL PUSH1 0x44 DUP3 ADD MSTORE PUSH1 0x64 ADD PUSH2 0x12EF JUMP JUMPDEST PUSH1 0x0 SLOAD PUSH2 0x100 SWAP1 DIV PUSH1 0xFF AND PUSH2 0x260F JUMPI PUSH1 0x40 MLOAD PUSH3 0x461BCD PUSH1 0xE5 SHL DUP2 MSTORE PUSH1 0x4 ADD PUSH2 0x12EF SWAP1 PUSH2 0x326B JUMP JUMPDEST PUSH1 0x33 DUP1 SLOAD PUSH1 0xFF NOT AND SWAP1 SSTORE JUMP JUMPDEST PUSH1 0x0 SLOAD PUSH2 0x100 SWAP1 DIV PUSH1 0xFF AND PUSH2 0x2642 JUMPI PUSH1 0x40 MLOAD PUSH3 0x461BCD PUSH1 0xE5 SHL DUP2 MSTORE PUSH1 0x4 ADD PUSH2 0x12EF SWAP1 PUSH2 0x326B JUMP JUMPDEST PUSH2 0x13C5 CALLER PUSH2 0x23CA JUMP JUMPDEST PUSH1 0x33 SLOAD PUSH1 0xFF AND ISZERO PUSH2 0x13C5 JUMPI PUSH1 0x40 MLOAD PUSH3 0x461BCD PUSH1 0xE5 SHL DUP2 MSTORE PUSH1 0x20 PUSH1 0x4 DUP3 ADD MSTORE PUSH1 0x10 PUSH1 0x24 DUP3 ADD MSTORE PUSH16 0x14185D5CD8589B194E881C185D5CD959 PUSH1 0x82 SHL PUSH1 0x44 DUP3 ADD MSTORE PUSH1 0x64 ADD PUSH2 0x12EF JUMP JUMPDEST PUSH2 0x269A DUP2 PUSH2 0x24DE JUMP JUMPDEST PUSH1 0x40 MLOAD PUSH1 0x1 PUSH1 0x1 PUSH1 0xA0 SHL SUB DUP3 AND SWAP1 PUSH32 0xBC7CD75A20EE27FD9ADEBAB32041F755214DBC6BFFA90CC0225B39DA2E5C2D3B SWAP1 PUSH1 0x0 SWAP1 LOG2 POP JUMP JUMPDEST PUSH1 0x60 PUSH1 0x1 PUSH1 0x1 PUSH1 0xA0 SHL SUB DUP4 AND EXTCODESIZE PUSH2 0x2739 JUMPI PUSH1 0x40 MLOAD PUSH3 0x461BCD PUSH1 0xE5 SHL DUP2 MSTORE PUSH1 0x20 PUSH1 0x4 DUP3 ADD MSTORE PUSH1 0x26 PUSH1 0x24 DUP3 ADD MSTORE PUSH32 0x416464726573733A2064656C65676174652063616C6C20746F206E6F6E2D636F PUSH1 0x44 DUP3 ADD MSTORE PUSH6 0x1B9D1C9858DD PUSH1 0xD2 SHL PUSH1 0x64 DUP3 ADD MSTORE PUSH1 0x84 ADD PUSH2 0x12EF JUMP JUMPDEST PUSH1 0x0 DUP1 DUP5 PUSH1 0x1 PUSH1 0x1 PUSH1 0xA0 SHL SUB AND DUP5 PUSH1 0x40 MLOAD PUSH2 0x2754 SWAP2 SWAP1 PUSH2 0x32B6 JUMP JUMPDEST PUSH1 0x0 PUSH1 0x40 MLOAD DUP1 DUP4 SUB DUP2 DUP6 GAS DELEGATECALL SWAP2 POP POP RETURNDATASIZE DUP1 PUSH1 0x0 DUP2 EQ PUSH2 0x278F JUMPI PUSH1 0x40 MLOAD SWAP2 POP PUSH1 0x1F NOT PUSH1 0x3F RETURNDATASIZE ADD AND DUP3 ADD PUSH1 0x40 MSTORE RETURNDATASIZE DUP3 MSTORE RETURNDATASIZE PUSH1 0x0 PUSH1 0x20 DUP5 ADD RETURNDATACOPY PUSH2 0x2794 JUMP JUMPDEST PUSH1 0x60 SWAP2 POP JUMPDEST POP SWAP2 POP SWAP2 POP PUSH2 0x27BC DUP3 DUP3 PUSH1 0x40 MLOAD DUP1 PUSH1 0x60 ADD PUSH1 0x40 MSTORE DUP1 PUSH1 0x27 DUP2 MSTORE PUSH1 0x20 ADD PUSH2 0x3306 PUSH1 0x27 SWAP2 CODECOPY PUSH2 0x27C7 JUMP JUMPDEST SWAP3 POP POP POP JUMPDEST SWAP3 SWAP2 POP POP JUMP JUMPDEST PUSH1 0x60 DUP4 ISZERO PUSH2 0x27D6 JUMPI POP DUP2 PUSH2 0x27E0 JUMP JUMPDEST PUSH2 0x27E0 DUP4 DUP4 PUSH2 0x27E7 JUMP JUMPDEST SWAP4 SWAP3 POP POP POP JUMP JUMPDEST DUP2 MLOAD ISZERO PUSH2 0x27F7 JUMPI DUP2 MLOAD DUP1 DUP4 PUSH1 0x20 ADD REVERT JUMPDEST DUP1 PUSH1 0x40 MLOAD PUSH3 0x461BCD PUSH1 0xE5 SHL DUP2 MSTORE PUSH1 0x4 ADD PUSH2 0x12EF SWAP2 SWAP1 PUSH2 0x32D2 JUMP JUMPDEST DUP3 DUP1 SLOAD DUP3 DUP3 SSTORE SWAP1 PUSH1 0x0 MSTORE PUSH1 0x20 PUSH1 0x0 KECCAK256 SWAP1 PUSH1 0xF ADD PUSH1 0x10 SWAP1 DIV DUP2 ADD SWAP3 DUP3 ISZERO PUSH2 0x28AA JUMPI SWAP2 PUSH1 0x20 MUL DUP3 ADD PUSH1 0x0 JUMPDEST DUP4 DUP3 GT ISZERO PUSH2 0x287A JUMPI DUP4 MLOAD DUP4 DUP3 PUSH2 0x100 EXP DUP2 SLOAD DUP2 PUSH2 0xFFFF MUL NOT AND SWAP1 DUP4 PUSH2 0xFFFF AND MUL OR SWAP1 SSTORE POP SWAP3 PUSH1 0x20 ADD SWAP3 PUSH1 0x2 ADD PUSH1 0x20 DUP2 PUSH1 0x1 ADD DIV SWAP3 DUP4 ADD SWAP3 PUSH1 0x1 SUB MUL PUSH2 0x283A JUMP JUMPDEST DUP1 ISZERO PUSH2 0x28A8 JUMPI DUP3 DUP2 PUSH2 0x100 EXP DUP2 SLOAD SWAP1 PUSH2 0xFFFF MUL NOT AND SWAP1 SSTORE PUSH1 0x2 ADD PUSH1 0x20 DUP2 PUSH1 0x1 ADD DIV SWAP3 DUP4 ADD SWAP3 PUSH1 0x1 SUB MUL PUSH2 0x287A JUMP JUMPDEST POP JUMPDEST POP PUSH2 0x1B6E SWAP3 SWAP2 POP JUMPDEST DUP1 DUP3 GT ISZERO PUSH2 0x1B6E JUMPI PUSH1 0x0 DUP2 SSTORE PUSH1 0x1 ADD PUSH2 0x28B2 JUMP JUMPDEST DUP1 CALLDATALOAD PUSH1 0x1 PUSH1 0x1 PUSH1 0xA0 SHL SUB DUP2 AND DUP2 EQ PUSH2 0x28DD JUMPI PUSH1 0x0 DUP1 REVERT JUMPDEST SWAP2 SWAP1 POP JUMP JUMPDEST PUSH1 0x0 PUSH1 0x20 DUP3 DUP5 SUB SLT ISZERO PUSH2 0x28F4 JUMPI PUSH1 0x0 DUP1 REVERT JUMPDEST PUSH2 0x27E0 DUP3 PUSH2 0x28C6 JUMP JUMPDEST DUP1 CALLDATALOAD DUP1 ISZERO ISZERO DUP2 EQ PUSH2 0x28DD JUMPI PUSH1 0x0 DUP1 REVERT JUMPDEST PUSH1 0x0 DUP1 PUSH1 0x0 PUSH1 0x60 DUP5 DUP7 SUB SLT ISZERO PUSH2 0x2922 JUMPI PUSH1 0x0 DUP1 REVERT JUMPDEST PUSH2 0x292B DUP5 PUSH2 0x28C6 JUMP JUMPDEST SWAP3 POP PUSH2 0x2939 PUSH1 0x20 DUP6 ADD PUSH2 0x28FD JUMP JUMPDEST SWAP2 POP PUSH2 0x2947 PUSH1 0x40 DUP6 ADD PUSH2 0x28C6 JUMP JUMPDEST SWAP1 POP SWAP3 POP SWAP3 POP SWAP3 JUMP JUMPDEST PUSH1 0xFF DUP2 AND DUP2 EQ PUSH2 0x138C JUMPI PUSH1 0x0 DUP1 REVERT JUMPDEST PUSH1 0x0 PUSH1 0x20 DUP3 DUP5 SUB SLT ISZERO PUSH2 0x2971 JUMPI PUSH1 0x0 DUP1 REVERT JUMPDEST DUP2 CALLDATALOAD PUSH2 0x27E0 DUP2 PUSH2 0x2950 JUMP JUMPDEST PUSH1 0x0 JUMPDEST DUP4 DUP2 LT ISZERO PUSH2 0x2997 JUMPI DUP2 DUP2 ADD MLOAD DUP4 DUP3 ADD MSTORE PUSH1 0x20 ADD PUSH2 0x297F JUMP JUMPDEST POP POP PUSH1 0x0 SWAP2 ADD MSTORE JUMP JUMPDEST PUSH1 0x0 DUP2 MLOAD DUP1 DUP5 MSTORE PUSH2 0x29B8 DUP2 PUSH1 0x20 DUP7 ADD PUSH1 0x20 DUP7 ADD PUSH2 0x297C JUMP JUMPDEST PUSH1 0x1F ADD PUSH1 0x1F NOT AND SWAP3 SWAP1 SWAP3 ADD PUSH1 0x20 ADD SWAP3 SWAP2 POP POP JUMP JUMPDEST PUSH1 0x20 DUP2 MSTORE PUSH1 0xFF DUP3 MLOAD AND PUSH1 0x20 DUP3 ADD MSTORE PUSH1 0x0 PUSH1 0x20 DUP4 ADD MLOAD PUSH1 0x80 PUSH1 0x40 DUP5 ADD MSTORE PUSH2 0x29F5 PUSH1 0xA0 DUP5 ADD DUP3 PUSH2 0x29A0 JUMP JUMPDEST SWAP1 POP PUSH1 0x40 DUP5 ADD MLOAD PUSH1 0x60 DUP5 ADD MSTORE PUSH1 0x60 DUP5 ADD MLOAD PUSH1 0x80 DUP5 ADD MSTORE DUP1 SWAP2 POP POP SWAP3 SWAP2 POP POP JUMP JUMPDEST PUSH1 0x0 PUSH1 0x20 DUP3 DUP5 SUB SLT ISZERO PUSH2 0x2A27 JUMPI PUSH1 0x0 DUP1 REVERT JUMPDEST PUSH2 0x27E0 DUP3 PUSH2 0x28FD JUMP JUMPDEST PUSH4 0x4E487B71 PUSH1 0xE0 SHL PUSH1 0x0 MSTORE PUSH1 0x41 PUSH1 0x4 MSTORE PUSH1 0x24 PUSH1 0x0 REVERT JUMPDEST PUSH1 0x40 MLOAD PUSH1 0x1F DUP3 ADD PUSH1 0x1F NOT AND DUP2 ADD PUSH8 0xFFFFFFFFFFFFFFFF DUP2 GT DUP3 DUP3 LT OR ISZERO PUSH2 0x2A6F JUMPI PUSH2 0x2A6F PUSH2 0x2A30 JUMP JUMPDEST PUSH1 0x40 MSTORE SWAP2 SWAP1 POP JUMP JUMPDEST PUSH1 0x0 PUSH8 0xFFFFFFFFFFFFFFFF DUP3 GT ISZERO PUSH2 0x2A91 JUMPI PUSH2 0x2A91 PUSH2 0x2A30 JUMP JUMPDEST POP PUSH1 0x1F ADD PUSH1 0x1F NOT AND PUSH1 0x20 ADD SWAP1 JUMP JUMPDEST PUSH1 0x0 PUSH2 0x2AB2 PUSH2 0x2AAD DUP5 PUSH2 0x2A77 JUMP JUMPDEST PUSH2 0x2A46 JUMP JUMPDEST SWAP1 POP DUP3 DUP2 MSTORE DUP4 DUP4 DUP4 ADD GT ISZERO PUSH2 0x2AC6 JUMPI PUSH1 0x0 DUP1 REVERT JUMPDEST DUP3 DUP3 PUSH1 0x20 DUP4 ADD CALLDATACOPY PUSH1 0x0 PUSH1 0x20 DUP5 DUP4 ADD ADD MSTORE SWAP4 SWAP3 POP POP POP JUMP JUMPDEST PUSH1 0x0 DUP1 PUSH1 0x40 DUP4 DUP6 SUB SLT ISZERO PUSH2 0x2AF0 JUMPI PUSH1 0x0 DUP1 REVERT JUMPDEST PUSH2 0x2AF9 DUP4 PUSH2 0x28C6 JUMP JUMPDEST SWAP2 POP PUSH1 0x20 DUP4 ADD CALLDATALOAD PUSH8 0xFFFFFFFFFFFFFFFF DUP2 GT ISZERO PUSH2 0x2B15 JUMPI PUSH1 0x0 DUP1 REVERT JUMPDEST DUP4 ADD PUSH1 0x1F DUP2 ADD DUP6 SGT PUSH2 0x2B26 JUMPI PUSH1 0x0 DUP1 REVERT JUMPDEST PUSH2 0x2B35 DUP6 DUP3 CALLDATALOAD PUSH1 0x20 DUP5 ADD PUSH2 0x2A9F JUMP JUMPDEST SWAP2 POP POP SWAP3 POP SWAP3 SWAP1 POP JUMP JUMPDEST PUSH1 0x0 DUP1 DUP4 PUSH1 0x1F DUP5 ADD SLT PUSH2 0x2B51 JUMPI PUSH1 0x0 DUP1 REVERT JUMPDEST POP DUP2 CALLDATALOAD PUSH8 0xFFFFFFFFFFFFFFFF DUP2 GT ISZERO PUSH2 0x2B69 JUMPI PUSH1 0x0 DUP1 REVERT JUMPDEST PUSH1 0x20 DUP4 ADD SWAP2 POP DUP4 PUSH1 0x20 DUP3 PUSH1 0x5 SHL DUP6 ADD ADD GT ISZERO PUSH2 0x2B84 JUMPI PUSH1 0x0 DUP1 REVERT JUMPDEST SWAP3 POP SWAP3 SWAP1 POP JUMP JUMPDEST PUSH1 0x0 DUP1 PUSH1 0x20 DUP4 DUP6 SUB SLT ISZERO PUSH2 0x2B9E JUMPI PUSH1 0x0 DUP1 REVERT JUMPDEST DUP3 CALLDATALOAD PUSH8 0xFFFFFFFFFFFFFFFF DUP2 GT ISZERO PUSH2 0x2BB5 JUMPI PUSH1 0x0 DUP1 REVERT JUMPDEST PUSH2 0x2BC1 DUP6 DUP3 DUP7 ADD PUSH2 0x2B3F JUMP JUMPDEST SWAP1 SWAP7 SWAP1 SWAP6 POP SWAP4 POP POP POP POP JUMP JUMPDEST PUSH1 0x0 PUSH1 0x20 DUP3 DUP5 SUB SLT ISZERO PUSH2 0x2BDF JUMPI PUSH1 0x0 DUP1 REVERT JUMPDEST POP CALLDATALOAD SWAP2 SWAP1 POP JUMP JUMPDEST PUSH1 0x20 DUP1 DUP3 MSTORE DUP3 MLOAD DUP3 DUP3 ADD DUP2 SWAP1 MSTORE PUSH1 0x0 SWAP2 SWAP1 DUP5 DUP3 ADD SWAP1 PUSH1 0x40 DUP6 ADD SWAP1 DUP5 JUMPDEST DUP2 DUP2 LT ISZERO PUSH2 0x2C22 JUMPI DUP4 MLOAD PUSH2 0xFFFF AND DUP4 MSTORE SWAP3 DUP5 ADD SWAP3 SWAP2 DUP5 ADD SWAP2 PUSH1 0x1 ADD PUSH2 0x2C02 JUMP JUMPDEST POP SWAP1 SWAP7 SWAP6 POP POP POP POP POP POP JUMP JUMPDEST DUP1 CALLDATALOAD PUSH2 0xFFFF DUP2 AND DUP2 EQ PUSH2 0x28DD JUMPI PUSH1 0x0 DUP1 REVERT JUMPDEST PUSH1 0x0 PUSH1 0x20 DUP3 DUP5 SUB SLT ISZERO PUSH2 0x2C52 JUMPI PUSH1 0x0 DUP1 REVERT JUMPDEST PUSH2 0x27E0 DUP3 PUSH2 0x2C2E JUMP JUMPDEST PUSH1 0x0 PUSH8 0xFFFFFFFFFFFFFFFF DUP3 GT ISZERO PUSH2 0x2C75 JUMPI PUSH2 0x2C75 PUSH2 0x2A30 JUMP JUMPDEST POP PUSH1 0x5 SHL PUSH1 0x20 ADD SWAP1 JUMP JUMPDEST PUSH1 0x0 DUP1 PUSH1 0x0 DUP1 PUSH1 0x0 DUP1 PUSH1 0x0 PUSH1 0x80 DUP9 DUP11 SUB SLT ISZERO PUSH2 0x2C9A JUMPI PUSH1 0x0 DUP1 REVERT JUMPDEST PUSH8 0xFFFFFFFFFFFFFFFF DUP1 DUP10 CALLDATALOAD GT ISZERO PUSH2 0x2CB1 JUMPI PUSH1 0x0 DUP1 REVERT JUMPDEST PUSH2 0x2CBE DUP11 DUP11 CALLDATALOAD DUP12 ADD PUSH2 0x2B3F JUMP JUMPDEST SWAP1 SWAP9 POP SWAP7 POP PUSH1 0x20 DUP10 ADD CALLDATALOAD DUP2 LT ISZERO PUSH2 0x2CD4 JUMPI PUSH1 0x0 DUP1 REVERT JUMPDEST PUSH1 0x20 DUP10 ADD CALLDATALOAD DUP10 ADD DUP11 PUSH1 0x1F DUP3 ADD SLT PUSH2 0x2CEA JUMPI PUSH1 0x0 DUP1 REVERT JUMPDEST PUSH2 0x2CF7 PUSH2 0x2AAD DUP3 CALLDATALOAD PUSH2 0x2C5B JUMP JUMPDEST DUP2 CALLDATALOAD DUP1 DUP3 MSTORE PUSH1 0x20 DUP1 DUP4 ADD SWAP3 SWAP2 PUSH1 0x5 SHL DUP5 ADD ADD DUP14 DUP2 GT ISZERO PUSH2 0x2D16 JUMPI PUSH1 0x0 DUP1 REVERT JUMPDEST PUSH1 0x20 DUP5 ADD JUMPDEST DUP2 DUP2 LT ISZERO PUSH2 0x2D67 JUMPI DUP6 DUP2 CALLDATALOAD GT ISZERO PUSH2 0x2D31 JUMPI PUSH1 0x0 DUP1 REVERT JUMPDEST DUP15 PUSH1 0x3F DUP3 CALLDATALOAD DUP8 ADD ADD SLT PUSH2 0x2D43 JUMPI PUSH1 0x0 DUP1 REVERT JUMPDEST PUSH2 0x2D59 DUP16 DUP3 CALLDATALOAD DUP8 ADD PUSH1 0x20 DUP2 ADD CALLDATALOAD SWAP1 PUSH1 0x40 ADD PUSH2 0x2A9F JUMP JUMPDEST DUP5 MSTORE PUSH1 0x20 SWAP4 DUP5 ADD SWAP4 ADD PUSH2 0x2D1B JUMP JUMPDEST POP POP DUP1 SWAP9 POP POP POP POP DUP1 PUSH1 0x40 DUP11 ADD CALLDATALOAD GT ISZERO PUSH2 0x2D80 JUMPI PUSH1 0x0 DUP1 REVERT JUMPDEST PUSH2 0x2D90 DUP11 PUSH1 0x40 DUP12 ADD CALLDATALOAD DUP12 ADD PUSH2 0x2B3F JUMP JUMPDEST SWAP1 SWAP6 POP SWAP4 POP PUSH1 0x60 DUP10 ADD CALLDATALOAD DUP2 LT ISZERO PUSH2 0x2DA6 JUMPI PUSH1 0x0 DUP1 REVERT JUMPDEST POP PUSH2 0x2DB7 DUP10 PUSH1 0x60 DUP11 ADD CALLDATALOAD DUP11 ADD PUSH2 0x2B3F JUMP JUMPDEST SWAP8 SWAP11 SWAP7 SWAP10 POP SWAP5 SWAP8 POP SWAP3 SWAP6 SWAP2 SWAP5 SWAP2 SWAP3 POP POP JUMP JUMPDEST PUSH1 0x0 PUSH1 0x20 DUP1 DUP4 DUP6 SUB SLT ISZERO PUSH2 0x2DDC JUMPI PUSH1 0x0 DUP1 REVERT JUMPDEST DUP3 CALLDATALOAD PUSH8 0xFFFFFFFFFFFFFFFF DUP2 GT ISZERO PUSH2 0x2DF3 JUMPI PUSH1 0x0 DUP1 REVERT JUMPDEST DUP4 ADD PUSH1 0x1F DUP2 ADD DUP6 SGT PUSH2 0x2E04 JUMPI PUSH1 0x0 DUP1 REVERT JUMPDEST DUP1 CALLDATALOAD PUSH2 0x2E12 PUSH2 0x2AAD DUP3 PUSH2 0x2C5B JUMP JUMPDEST DUP2 DUP2 MSTORE PUSH1 0x5 SWAP2 SWAP1 SWAP2 SHL DUP3 ADD DUP4 ADD SWAP1 DUP4 DUP2 ADD SWAP1 DUP8 DUP4 GT ISZERO PUSH2 0x2E31 JUMPI PUSH1 0x0 DUP1 REVERT JUMPDEST SWAP3 DUP5 ADD SWAP3 JUMPDEST DUP3 DUP5 LT ISZERO PUSH2 0x2E56 JUMPI PUSH2 0x2E47 DUP5 PUSH2 0x2C2E JUMP JUMPDEST DUP3 MSTORE SWAP3 DUP5 ADD SWAP3 SWAP1 DUP5 ADD SWAP1 PUSH2 0x2E36 JUMP JUMPDEST SWAP8 SWAP7 POP POP POP POP POP POP POP JUMP JUMPDEST PUSH1 0x20 DUP1 DUP3 MSTORE DUP3 MLOAD PUSH1 0x1 PUSH1 0x1 PUSH1 0xA0 SHL SUB AND DUP3 DUP3 ADD MSTORE DUP3 ADD MLOAD PUSH1 0xE0 PUSH1 0x40 DUP4 ADD MSTORE PUSH1 0x0 SWAP1 PUSH2 0x2E90 PUSH2 0x100 DUP5 ADD DUP3 PUSH2 0x29A0 JUMP JUMPDEST SWAP1 POP PUSH1 0x40 DUP5 ADD MLOAD PUSH1 0x1F NOT DUP5 DUP4 SUB ADD PUSH1 0x60 DUP6 ADD MSTORE PUSH2 0x2EAD DUP3 DUP3 PUSH2 0x29A0 JUMP JUMPDEST SWAP2 POP POP PUSH1 0xFF PUSH1 0x60 DUP6 ADD MLOAD AND PUSH1 0x80 DUP5 ADD MSTORE PUSH1 0x80 DUP5 ADD MLOAD ISZERO ISZERO PUSH1 0xA0 DUP5 ADD MSTORE PUSH1 0xA0 DUP5 ADD MLOAD PUSH2 0x2EE3 PUSH1 0xC0 DUP6 ADD DUP3 PUSH1 0x1 PUSH1 0x1 PUSH1 0xA0 SHL SUB AND SWAP1 MSTORE JUMP JUMPDEST POP PUSH1 0xC0 DUP5 ADD MLOAD DUP1 ISZERO ISZERO PUSH1 0xE0 DUP6 ADD MSTORE POP SWAP4 SWAP3 POP POP POP JUMP JUMPDEST PUSH1 0x20 DUP1 DUP3 MSTORE DUP3 MLOAD DUP3 DUP3 ADD DUP2 SWAP1 MSTORE PUSH1 0x0 SWAP2 SWAP1 DUP5 DUP3 ADD SWAP1 PUSH1 0x40 DUP6 ADD SWAP1 DUP5 JUMPDEST DUP2 DUP2 LT ISZERO PUSH2 0x2C22 JUMPI DUP4 MLOAD PUSH1 0x1 PUSH1 0x1 PUSH1 0xA0 SHL SUB AND DUP4 MSTORE SWAP3 DUP5 ADD SWAP3 SWAP2 DUP5 ADD SWAP2 PUSH1 0x1 ADD PUSH2 0x2F15 JUMP JUMPDEST PUSH4 0x4E487B71 PUSH1 0xE0 SHL PUSH1 0x0 MSTORE PUSH1 0x32 PUSH1 0x4 MSTORE PUSH1 0x24 PUSH1 0x0 REVERT JUMPDEST PUSH4 0x4E487B71 PUSH1 0xE0 SHL PUSH1 0x0 MSTORE PUSH1 0x11 PUSH1 0x4 MSTORE PUSH1 0x24 PUSH1 0x0 REVERT JUMPDEST DUP2 DUP2 SUB DUP2 DUP2 GT ISZERO PUSH2 0x27C1 JUMPI PUSH2 0x27C1 PUSH2 0x2F50 JUMP JUMPDEST PUSH4 0x4E487B71 PUSH1 0xE0 SHL PUSH1 0x0 MSTORE PUSH1 0x31 PUSH1 0x4 MSTORE PUSH1 0x24 PUSH1 0x0 REVERT JUMPDEST PUSH1 0x0 PUSH1 0x1 DUP3 ADD PUSH2 0x2FA1 JUMPI PUSH2 0x2FA1 PUSH2 0x2F50 JUMP JUMPDEST POP PUSH1 0x1 ADD SWAP1 JUMP JUMPDEST PUSH1 0x0 PUSH1 0x20 DUP3 DUP5 SUB SLT ISZERO PUSH2 0x2FBA JUMPI PUSH1 0x0 DUP1 REVERT JUMPDEST DUP2 MLOAD PUSH8 0xFFFFFFFFFFFFFFFF DUP2 GT ISZERO PUSH2 0x2FD1 JUMPI PUSH1 0x0 DUP1 REVERT JUMPDEST DUP3 ADD PUSH1 0x1F DUP2 ADD DUP5 SGT PUSH2 0x2FE2 JUMPI PUSH1 0x0 DUP1 REVERT JUMPDEST DUP1 MLOAD PUSH2 0x2FF0 PUSH2 0x2AAD DUP3 PUSH2 0x2A77 JUMP JUMPDEST DUP2 DUP2 MSTORE DUP6 PUSH1 0x20 DUP4 DUP6 ADD ADD GT ISZERO PUSH2 0x3005 JUMPI PUSH1 0x0 DUP1 REVERT JUMPDEST PUSH2 0x3016 DUP3 PUSH1 0x20 DUP4 ADD PUSH1 0x20 DUP7 ADD PUSH2 0x297C JUMP JUMPDEST SWAP6 SWAP5 POP POP POP POP POP JUMP JUMPDEST PUSH1 0x0 PUSH1 0x20 DUP3 DUP5 SUB SLT ISZERO PUSH2 0x3031 JUMPI PUSH1 0x0 DUP1 REVERT JUMPDEST DUP2 MLOAD PUSH2 0x27E0 DUP2 PUSH2 0x2950 JUMP JUMPDEST PUSH1 0x1 DUP2 DUP2 SHR SWAP1 DUP3 AND DUP1 PUSH2 0x3050 JUMPI PUSH1 0x7F DUP3 AND SWAP2 POP JUMPDEST PUSH1 0x20 DUP3 LT DUP2 SUB PUSH2 0x3070 JUMPI PUSH4 0x4E487B71 PUSH1 0xE0 SHL PUSH1 0x0 MSTORE PUSH1 0x22 PUSH1 0x4 MSTORE PUSH1 0x24 PUSH1 0x0 REVERT JUMPDEST POP SWAP2 SWAP1 POP JUMP JUMPDEST PUSH1 0x1F DUP3 GT ISZERO PUSH2 0x1659 JUMPI PUSH1 0x0 DUP2 DUP2 MSTORE PUSH1 0x20 DUP2 KECCAK256 PUSH1 0x1F DUP6 ADD PUSH1 0x5 SHR DUP2 ADD PUSH1 0x20 DUP7 LT ISZERO PUSH2 0x309D JUMPI POP DUP1 JUMPDEST PUSH1 0x1F DUP6 ADD PUSH1 0x5 SHR DUP3 ADD SWAP2 POP JUMPDEST DUP2 DUP2 LT ISZERO PUSH2 0x30BC JUMPI DUP3 DUP2 SSTORE PUSH1 0x1 ADD PUSH2 0x30A9 JUMP JUMPDEST POP POP POP POP POP POP JUMP JUMPDEST DUP2 MLOAD PUSH8 0xFFFFFFFFFFFFFFFF DUP2 GT ISZERO PUSH2 0x30DE JUMPI PUSH2 0x30DE PUSH2 0x2A30 JUMP JUMPDEST PUSH2 0x30F2 DUP2 PUSH2 0x30EC DUP5 SLOAD PUSH2 0x303C JUMP JUMPDEST DUP5 PUSH2 0x3076 JUMP JUMPDEST PUSH1 0x20 DUP1 PUSH1 0x1F DUP4 GT PUSH1 0x1 DUP2 EQ PUSH2 0x3127 JUMPI PUSH1 0x0 DUP5 ISZERO PUSH2 0x310F JUMPI POP DUP6 DUP4 ADD MLOAD JUMPDEST PUSH1 0x0 NOT PUSH1 0x3 DUP7 SWAP1 SHL SHR NOT AND PUSH1 0x1 DUP6 SWAP1 SHL OR DUP6 SSTORE PUSH2 0x30BC JUMP JUMPDEST PUSH1 0x0 DUP6 DUP2 MSTORE PUSH1 0x20 DUP2 KECCAK256 PUSH1 0x1F NOT DUP7 AND SWAP2 JUMPDEST DUP3 DUP2 LT ISZERO PUSH2 0x3156 JUMPI DUP9 DUP7 ADD MLOAD DUP3 SSTORE SWAP5 DUP5 ADD SWAP5 PUSH1 0x1 SWAP1 SWAP2 ADD SWAP1 DUP5 ADD PUSH2 0x3137 JUMP JUMPDEST POP DUP6 DUP3 LT ISZERO PUSH2 0x3174 JUMPI DUP8 DUP6 ADD MLOAD PUSH1 0x0 NOT PUSH1 0x3 DUP9 SWAP1 SHL PUSH1 0xF8 AND SHR NOT AND DUP2 SSTORE JUMPDEST POP POP POP POP POP PUSH1 0x1 SWAP1 DUP2 SHL ADD SWAP1 SSTORE POP JUMP JUMPDEST PUSH1 0x20 DUP1 DUP3 MSTORE PUSH1 0x2C SWAP1 DUP3 ADD MSTORE PUSH32 0x46756E6374696F6E206D7573742062652063616C6C6564207468726F75676820 PUSH1 0x40 DUP3 ADD MSTORE PUSH12 0x19195B1959D85D1958D85B1B PUSH1 0xA2 SHL PUSH1 0x60 DUP3 ADD MSTORE PUSH1 0x80 ADD SWAP1 JUMP JUMPDEST PUSH1 0x20 DUP1 DUP3 MSTORE PUSH1 0x2C SWAP1 DUP3 ADD MSTORE PUSH32 0x46756E6374696F6E206D7573742062652063616C6C6564207468726F75676820 PUSH1 0x40 DUP3 ADD MSTORE PUSH12 0x6163746976652070726F7879 PUSH1 0xA0 SHL PUSH1 0x60 DUP3 ADD MSTORE PUSH1 0x80 ADD SWAP1 JUMP JUMPDEST PUSH1 0x0 PUSH1 0xFF DUP3 AND PUSH1 0xFF DUP2 SUB PUSH2 0x3232 JUMPI PUSH2 0x3232 PUSH2 0x2F50 JUMP JUMPDEST PUSH1 0x1 ADD SWAP3 SWAP2 POP POP JUMP JUMPDEST DUP1 DUP3 MUL DUP2 ISZERO DUP3 DUP3 DIV DUP5 EQ OR PUSH2 0x27C1 JUMPI PUSH2 0x27C1 PUSH2 0x2F50 JUMP JUMPDEST PUSH1 0x0 PUSH1 0x20 DUP3 DUP5 SUB SLT ISZERO PUSH2 0x3264 JUMPI PUSH1 0x0 DUP1 REVERT JUMPDEST POP MLOAD SWAP2 SWAP1 POP JUMP JUMPDEST PUSH1 0x20 DUP1 DUP3 MSTORE PUSH1 0x2B SWAP1 DUP3 ADD MSTORE PUSH32 0x496E697469616C697A61626C653A20636F6E7472616374206973206E6F742069 PUSH1 0x40 DUP3 ADD MSTORE PUSH11 0x6E697469616C697A696E67 PUSH1 0xA8 SHL PUSH1 0x60 DUP3 ADD MSTORE PUSH1 0x80 ADD SWAP1 JUMP JUMPDEST PUSH1 0x0 DUP3 MLOAD PUSH2 0x32C8 DUP2 DUP5 PUSH1 0x20 DUP8 ADD PUSH2 0x297C JUMP JUMPDEST SWAP2 SWAP1 SWAP2 ADD SWAP3 SWAP2 POP POP JUMP JUMPDEST PUSH1 0x20 DUP2 MSTORE PUSH1 0x0 PUSH2 0x27E0 PUSH1 0x20 DUP4 ADD DUP5 PUSH2 0x29A0 JUMP INVALID CALLDATASIZE ADDMOD SWAP5 LOG1 EXTCODESIZE LOG1 LOG3 0x21 MOD PUSH8 0xC828492DB98DCA3E KECCAK256 PUSH23 0xCC3735A920A3CA505D382BBC416464726573733A206C6F PUSH24 0x2D6C6576656C2064656C65676174652063616C6C20666169 PUSH13 0x6564A2646970667358221220D4 DUP5 0xD4 GASLIMIT 0xF7 DUP16 0xE5 EXTCODEHASH BALANCE 0xFB SWAP1 0x25 0x5C MSTORE SLT LOG4 0x2D 0xAC SWAP3 PUSH22 0x8DB6A50288679691548EFFC264736F6C634300081200 CALLER "},"methodIdentifiers":{"addIBPAddressAdmin(address)":"e371c5c5","disableSupportedToken(address[])":"57b88805","getAdminAddress()":"b2e6b912","getAdminFees()":"3238c16f","getBaseCurrencyDecimals()":"c391d636","getCoreMemberRewardRate()":"5397b86d","getCoreMembersContractAddress()":"916452ab","getGlobalRewardRate()":"a46868f0","getIBPList()":"ffc43f8f","getIbpRewardRate()":"e7016717","getIsPayCoreMembersRewards()":"e179719a","getIsPayGlobalRewards()":"1f1eeec8","getIsPayIbpRewards()":"9f6d8870","getIsPayReferralRewards()":"3fae6a11","getIsPayRewardToken()":"2b70c02c","getIsPayWeeklyRewards()":"16dd07e0","getLevelDecimals()":"e7cca9c7","getLevelRates()":"918a54db","getPlanById(uint8)":"0efc12b1","getPlansCount()":"acc91865","getPresaleContract()":"f1012b45","getReferralContract()":"23442c60","getRewardTokenContract()":"65eb204d","getRewardTokenRate()":"e091099c","getStakingContract()":"8e68dce4","getSupportedTokenInfo(address)":"e74af32e","getUniSwapRouterV2Address()":"3ee1f1ba","getValueBufferRate()":"5f3ad6e2","getWeeklyRewardRate()":"b9cd1a50","initialize()":"8129fc1c","isIBP(address)":"2f8c7e72","isTokenSupported(address)":"75151b63","owner()":"8da5cb5b","pause()":"8456cb59","paused()":"5c975abb","proxiableUUID()":"52d1902d","pushSupportedTokenToList(address,bool,address)":"051ff2b9","removeIBPAddressAdmin(address)":"00b29290","renounceOwnership()":"715018a6","setAdminAddress(address)":"2c1e816d","setAdminFees(uint8)":"6cf3c676","setBaseCurrencyDecimals(uint8)":"a61a4ff3","setCoreMemberRewardRate(uint8)":"a646e845","setCoreMembersContractAddress(address)":"f2a90121","setGlobalRewardRate(uint8)":"af2d4d09","setIbpRewardRate(uint8)":"880c0ec3","setIsPayCoreMembersRewards(bool)":"4ccebd50","setIsPayGlobalRewards(bool)":"93cee9c9","setIsPayIbpRewards(bool)":"5d9bed63","setIsPayReferralRewards(bool)":"b6443562","setIsPayRewardToken(bool)":"eb758bc7","setIsPayWeeklyRewards(bool)":"39e0dcfa","setLevelDecimals(uint16)":"a43ae408","setLevelRates(uint16[])":"d54fcd93","setPlans(uint8[],string[],uint256[],uint256[])":"bcb03b57","setPresaleContract(address)":"a9bbd114","setReferralContract(address)":"06ad5a47","setRewardTokenContract(address)":"08fcfbbe","setRewardTokenRate(uint8)":"b7a26620","setStakingContract(address)":"9dd373b9","setUniSwapRouterV2Address(address)":"5880360a","setValueBufferRate(uint8)":"94debf48","setWeeklyRewardRate(uint8)":"ac40e309","supportedTokensList(uint256)":"63c91877","transferOwnership(address)":"f2fde38b","unpause()":"3f4ba83a","upgradeTo(address)":"3659cfe6","upgradeToAndCall(address,bytes)":"4f1ef286"}},"storageLayout":{"storage":[{"astId":527,"contract":"contracts/VariablesV1Upgradeable.sol:VariablesV1Upgradeable","label":"_initialized","offset":0,"slot":"0","type":"t_uint8"},{"astId":530,"contract":"contracts/VariablesV1Upgradeable.sol:VariablesV1Upgradeable","label":"_initializing","offset":1,"slot":"0","type":"t_bool"},{"astId":1355,"contract":"contracts/VariablesV1Upgradeable.sol:VariablesV1Upgradeable","label":"__gap","offset":0,"slot":"1","type":"t_array(t_uint256)50_storage"},{"astId":846,"contract":"contracts/VariablesV1Upgradeable.sol:VariablesV1Upgradeable","label":"_paused","offset":0,"slot":"51","type":"t_bool"},{"astId":951,"contract":"contracts/VariablesV1Upgradeable.sol:VariablesV1Upgradeable","label":"__gap","offset":0,"slot":"52","type":"t_array(t_uint256)49_storage"},{"astId":10,"contract":"contracts/VariablesV1Upgradeable.sol:VariablesV1Upgradeable","label":"_owner","offset":0,"slot":"101","type":"t_address"},{"astId":130,"contract":"contracts/VariablesV1Upgradeable.sol:VariablesV1Upgradeable","label":"__gap","offset":0,"slot":"102","type":"t_array(t_uint256)49_storage"},{"astId":509,"contract":"contracts/VariablesV1Upgradeable.sol:VariablesV1Upgradeable","label":"__gap","offset":0,"slot":"151","type":"t_array(t_uint256)50_storage"},{"astId":824,"contract":"contracts/VariablesV1Upgradeable.sol:VariablesV1Upgradeable","label":"__gap","offset":0,"slot":"201","type":"t_array(t_uint256)50_storage"},{"astId":3827,"contract":"contracts/VariablesV1Upgradeable.sol:VariablesV1Upgradeable","label":"_levelRates","offset":0,"slot":"251","type":"t_array(t_uint16)dyn_storage"},{"astId":3829,"contract":"contracts/VariablesV1Upgradeable.sol:VariablesV1Upgradeable","label":"_levelDecimals","offset":0,"slot":"252","type":"t_uint16"},{"astId":3831,"contract":"contracts/VariablesV1Upgradeable.sol:VariablesV1Upgradeable","label":"_baseCurrencyDecimals","offset":2,"slot":"252","type":"t_uint8"},{"astId":3833,"contract":"contracts/VariablesV1Upgradeable.sol:VariablesV1Upgradeable","label":"_valueBufferRate","offset":3,"slot":"252","type":"t_uint8"},{"astId":3835,"contract":"contracts/VariablesV1Upgradeable.sol:VariablesV1Upgradeable","label":"_globalRewardRate","offset":4,"slot":"252","type":"t_uint8"},{"astId":3837,"contract":"contracts/VariablesV1Upgradeable.sol:VariablesV1Upgradeable","label":"_weeklyRewardRate","offset":5,"slot":"252","type":"t_uint8"},{"astId":3839,"contract":"contracts/VariablesV1Upgradeable.sol:VariablesV1Upgradeable","label":"_ibpRewardRate","offset":6,"slot":"252","type":"t_uint8"},{"astId":3841,"contract":"contracts/VariablesV1Upgradeable.sol:VariablesV1Upgradeable","label":"_coreMemberRewardRate","offset":7,"slot":"252","type":"t_uint8"},{"astId":3843,"contract":"contracts/VariablesV1Upgradeable.sol:VariablesV1Upgradeable","label":"_adminFees","offset":8,"slot":"252","type":"t_uint8"},{"astId":3845,"contract":"contracts/VariablesV1Upgradeable.sol:VariablesV1Upgradeable","label":"_rewardTokenRate","offset":9,"slot":"252","type":"t_uint8"},{"astId":3847,"contract":"contracts/VariablesV1Upgradeable.sol:VariablesV1Upgradeable","label":"_isPayRewardToken","offset":10,"slot":"252","type":"t_bool"},{"astId":3849,"contract":"contracts/VariablesV1Upgradeable.sol:VariablesV1Upgradeable","label":"_isPayReferralRewards","offset":11,"slot":"252","type":"t_bool"},{"astId":3851,"contract":"contracts/VariablesV1Upgradeable.sol:VariablesV1Upgradeable","label":"_isPayGlobalRewards","offset":12,"slot":"252","type":"t_bool"},{"astId":3853,"contract":"contracts/VariablesV1Upgradeable.sol:VariablesV1Upgradeable","label":"_isPayWeeklyRewards","offset":13,"slot":"252","type":"t_bool"},{"astId":3855,"contract":"contracts/VariablesV1Upgradeable.sol:VariablesV1Upgradeable","label":"_isPayIbpRewards","offset":14,"slot":"252","type":"t_bool"},{"astId":3857,"contract":"contracts/VariablesV1Upgradeable.sol:VariablesV1Upgradeable","label":"_isPayCoreMembersRewards","offset":15,"slot":"252","type":"t_bool"},{"astId":3860,"contract":"contracts/VariablesV1Upgradeable.sol:VariablesV1Upgradeable","label":"supportedTokensList","offset":0,"slot":"253","type":"t_array(t_address)dyn_storage"},{"astId":3863,"contract":"contracts/VariablesV1Upgradeable.sol:VariablesV1Upgradeable","label":"_ibpAddresses","offset":0,"slot":"254","type":"t_array(t_address)dyn_storage"},{"astId":3865,"contract":"contracts/VariablesV1Upgradeable.sol:VariablesV1Upgradeable","label":"_presaleContract","offset":0,"slot":"255","type":"t_address"},{"astId":3867,"contract":"contracts/VariablesV1Upgradeable.sol:VariablesV1Upgradeable","label":"_referralContract","offset":0,"slot":"256","type":"t_address"},{"astId":3869,"contract":"contracts/VariablesV1Upgradeable.sol:VariablesV1Upgradeable","label":"_stakingContract","offset":0,"slot":"257","type":"t_address"},{"astId":3871,"contract":"contracts/VariablesV1Upgradeable.sol:VariablesV1Upgradeable","label":"_ibpContract","offset":0,"slot":"258","type":"t_address"},{"astId":3873,"contract":"contracts/VariablesV1Upgradeable.sol:VariablesV1Upgradeable","label":"_rewardTokenContract","offset":0,"slot":"259","type":"t_address"},{"astId":3875,"contract":"contracts/VariablesV1Upgradeable.sol:VariablesV1Upgradeable","label":"_coreMembersContract","offset":0,"slot":"260","type":"t_address"},{"astId":3877,"contract":"contracts/VariablesV1Upgradeable.sol:VariablesV1Upgradeable","label":"_adminAddress","offset":0,"slot":"261","type":"t_address"},{"astId":3906,"contract":"contracts/VariablesV1Upgradeable.sol:VariablesV1Upgradeable","label":"plans","offset":0,"slot":"262","type":"t_mapping(t_uint8,t_struct(PlanStruct)3886_storage)"},{"astId":3911,"contract":"contracts/VariablesV1Upgradeable.sol:VariablesV1Upgradeable","label":"supportTokens","offset":0,"slot":"263","type":"t_mapping(t_address,t_struct(SupportedTokensStruct)3901_storage)"},{"astId":3915,"contract":"contracts/VariablesV1Upgradeable.sol:VariablesV1Upgradeable","label":"isIBPAddress","offset":0,"slot":"264","type":"t_mapping(t_address,t_bool)"},{"astId":3925,"contract":"contracts/VariablesV1Upgradeable.sol:VariablesV1Upgradeable","label":"_uniswapRouterV2Address","offset":0,"slot":"265","type":"t_address"}],"types":{"t_address":{"encoding":"inplace","label":"address","numberOfBytes":"20"},"t_array(t_address)dyn_storage":{"base":"t_address","encoding":"dynamic_array","label":"address[]","numberOfBytes":"32"},"t_array(t_uint16)dyn_storage":{"base":"t_uint16","encoding":"dynamic_array","label":"uint16[]","numberOfBytes":"32"},"t_array(t_uint256)49_storage":{"base":"t_uint256","encoding":"inplace","label":"uint256[49]","numberOfBytes":"1568"},"t_array(t_uint256)50_storage":{"base":"t_uint256","encoding":"inplace","label":"uint256[50]","numberOfBytes":"1600"},"t_bool":{"encoding":"inplace","label":"bool","numberOfBytes":"1"},"t_mapping(t_address,t_bool)":{"encoding":"mapping","key":"t_address","label":"mapping(address => bool)","numberOfBytes":"32","value":"t_bool"},"t_mapping(t_address,t_struct(SupportedTokensStruct)3901_storage)":{"encoding":"mapping","key":"t_address","label":"mapping(address => struct VariablesV1Upgradeable.SupportedTokensStruct)","numberOfBytes":"32","value":"t_struct(SupportedTokensStruct)3901_storage"},"t_mapping(t_uint8,t_struct(PlanStruct)3886_storage)":{"encoding":"mapping","key":"t_uint8","label":"mapping(uint8 => struct VariablesV1Upgradeable.PlanStruct)","numberOfBytes":"32","value":"t_struct(PlanStruct)3886_storage"},"t_string_storage":{"encoding":"bytes","label":"string","numberOfBytes":"32"},"t_struct(PlanStruct)3886_storage":{"encoding":"inplace","label":"struct VariablesV1Upgradeable.PlanStruct","members":[{"astId":3879,"contract":"contracts/VariablesV1Upgradeable.sol:VariablesV1Upgradeable","label":"planId","offset":0,"slot":"0","type":"t_uint8"},{"astId":3881,"contract":"contracts/VariablesV1Upgradeable.sol:VariablesV1Upgradeable","label":"name","offset":0,"slot":"1","type":"t_string_storage"},{"astId":3883,"contract":"contracts/VariablesV1Upgradeable.sol:VariablesV1Upgradeable","label":"value","offset":0,"slot":"2","type":"t_uint256"},{"astId":3885,"contract":"contracts/VariablesV1Upgradeable.sol:VariablesV1Upgradeable","label":"maxLimitMultiplier","offset":0,"slot":"3","type":"t_uint256"}],"numberOfBytes":"128"},"t_struct(SupportedTokensStruct)3901_storage":{"encoding":"inplace","label":"struct VariablesV1Upgradeable.SupportedTokensStruct","members":[{"astId":3888,"contract":"contracts/VariablesV1Upgradeable.sol:VariablesV1Upgradeable","label":"contractAddress","offset":0,"slot":"0","type":"t_address"},{"astId":3890,"contract":"contracts/VariablesV1Upgradeable.sol:VariablesV1Upgradeable","label":"name","offset":0,"slot":"1","type":"t_string_storage"},{"astId":3892,"contract":"contracts/VariablesV1Upgradeable.sol:VariablesV1Upgradeable","label":"symbol","offset":0,"slot":"2","type":"t_string_storage"},{"astId":3894,"contract":"contracts/VariablesV1Upgradeable.sol:VariablesV1Upgradeable","label":"decimals","offset":0,"slot":"3","type":"t_uint8"},{"astId":3896,"contract":"contracts/VariablesV1Upgradeable.sol:VariablesV1Upgradeable","label":"isStable","offset":1,"slot":"3","type":"t_bool"},{"astId":3898,"contract":"contracts/VariablesV1Upgradeable.sol:VariablesV1Upgradeable","label":"aggregatorAddress","offset":2,"slot":"3","type":"t_address"},{"astId":3900,"contract":"contracts/VariablesV1Upgradeable.sol:VariablesV1Upgradeable","label":"isEnaled","offset":22,"slot":"3","type":"t_bool"}],"numberOfBytes":"128"},"t_uint16":{"encoding":"inplace","label":"uint16","numberOfBytes":"2"},"t_uint256":{"encoding":"inplace","label":"uint256","numberOfBytes":"32"},"t_uint8":{"encoding":"inplace","label":"uint8","numberOfBytes":"1"}}}}}}