{"contracts/MonthlyRewardsUpgradeable.sol":{"MonthlyRewardsUpgradeable":{"abi":[{"inputs":[{"internalType":"address","name":"_userAddress","type":"address"},{"internalType":"uint256","name":"_valueInUSD","type":"uint256"}],"name":"setDirectBusines","outputs":[],"stateMutability":"nonpayable","type":"function"},{"inputs":[{"internalType":"address","name":"_userAddress","type":"address"},{"internalType":"uint256","name":"_valueInUSD","type":"uint256"}],"name":"setSelfBusines","outputs":[],"stateMutability":"nonpayable","type":"function"},{"inputs":[{"internalType":"address","name":"_userAddress","type":"address"},{"internalType":"uint256","name":"_valueInUSD","type":"uint256"}],"name":"setTeamBusines","outputs":[],"stateMutability":"nonpayable","type":"function"}],"evm":{"bytecode":{"linkReferences":{},"object":"608060405234801561001057600080fd5b5060be8061001f6000396000f3fe6080604052348015600f57600080fd5b5060043610603c5760003560e01c806360dab6be14604157806371c1c2f1146041578063ea186bf2146041575b600080fd5b6050604c3660046052565b5050565b005b60008060408385031215606457600080fd5b82356001600160a01b0381168114607a57600080fd5b94602093909301359350505056fea264697066735822122063c8930af87d126845dc35b668f24ed5e70f5a117846181e4e019712170d2ff964736f6c63430008120033","opcodes":"PUSH1 0x80 PUSH1 0x40 MSTORE CALLVALUE DUP1 ISZERO PUSH2 0x10 JUMPI PUSH1 0x0 DUP1 REVERT JUMPDEST POP PUSH1 0xBE DUP1 PUSH2 0x1F PUSH1 0x0 CODECOPY PUSH1 0x0 RETURN INVALID PUSH1 0x80 PUSH1 0x40 MSTORE CALLVALUE DUP1 ISZERO PUSH1 0xF JUMPI PUSH1 0x0 DUP1 REVERT JUMPDEST POP PUSH1 0x4 CALLDATASIZE LT PUSH1 0x3C JUMPI PUSH1 0x0 CALLDATALOAD PUSH1 0xE0 SHR DUP1 PUSH4 0x60DAB6BE EQ PUSH1 0x41 JUMPI DUP1 PUSH4 0x71C1C2F1 EQ PUSH1 0x41 JUMPI DUP1 PUSH4 0xEA186BF2 EQ PUSH1 0x41 JUMPI JUMPDEST PUSH1 0x0 DUP1 REVERT JUMPDEST PUSH1 0x50 PUSH1 0x4C CALLDATASIZE PUSH1 0x4 PUSH1 0x52 JUMP JUMPDEST POP POP JUMP JUMPDEST STOP JUMPDEST PUSH1 0x0 DUP1 PUSH1 0x40 DUP4 DUP6 SUB SLT ISZERO PUSH1 0x64 JUMPI PUSH1 0x0 DUP1 REVERT JUMPDEST DUP3 CALLDATALOAD PUSH1 0x1 PUSH1 0x1 PUSH1 0xA0 SHL SUB DUP2 AND DUP2 EQ PUSH1 0x7A JUMPI PUSH1 0x0 DUP1 REVERT JUMPDEST SWAP5 PUSH1 0x20 SWAP4 SWAP1 SWAP4 ADD CALLDATALOAD SWAP4 POP POP POP JUMP INVALID LOG2 PUSH5 0x6970667358 0x22 SLT KECCAK256 PUSH4 0xC8930AF8 PUSH30 0x126845DC35B668F24ED5E70F5A117846181E4E019712170D2FF964736F6C PUSH4 0x43000812 STOP CALLER "},"methodIdentifiers":{"setDirectBusines(address,uint256)":"60dab6be","setSelfBusines(address,uint256)":"71c1c2f1","setTeamBusines(address,uint256)":"ea186bf2"}},"storageLayout":{"storage":[],"types":null}}}}