{
  "_format": "hh-sol-artifact-1",
  "contractName": "VariablesV1Upgradeable",
  "sourceName": "contracts/VariablesV1Upgradeable.sol",
  "abi": [
    {
      "anonymous": false,
      "inputs": [
        {
          "indexed": false,
          "internalType": "address",
          "name": "previousAdmin",
          "type": "address"
        },
        {
          "indexed": false,
          "internalType": "address",
          "name": "newAdmin",
          "type": "address"
        }
      ],
      "name": "AdminChanged",
      "type": "event"
    },
    {
      "anonymous": false,
      "inputs": [
        {
          "indexed": true,
          "internalType": "address",
          "name": "beacon",
          "type": "address"
        }
      ],
      "name": "BeaconUpgraded",
      "type": "event"
    },
    {
      "anonymous": false,
      "inputs": [
        {
          "indexed": false,
          "internalType": "address",
          "name": "ibpAddress",
          "type": "address"
        }
      ],
      "name": "IBPPromotedByAdmin",
      "type": "event"
    },
    {
      "anonymous": false,
      "inputs": [
        {
          "indexed": false,
          "internalType": "address",
          "name": "ibpAddress",
          "type": "address"
        }
      ],
      "name": "IBPRemovedByAdmin",
      "type": "event"
    },
    {
      "anonymous": false,
      "inputs": [
        {
          "indexed": false,
          "internalType": "uint8",
          "name": "version",
          "type": "uint8"
        }
      ],
      "name": "Initialized",
      "type": "event"
    },
    {
      "anonymous": false,
      "inputs": [
        {
          "indexed": true,
          "internalType": "address",
          "name": "previousOwner",
          "type": "address"
        },
        {
          "indexed": true,
          "internalType": "address",
          "name": "newOwner",
          "type": "address"
        }
      ],
      "name": "OwnershipTransferred",
      "type": "event"
    },
    {
      "anonymous": false,
      "inputs": [
        {
          "indexed": false,
          "internalType": "address",
          "name": "account",
          "type": "address"
        }
      ],
      "name": "Paused",
      "type": "event"
    },
    {
      "anonymous": false,
      "inputs": [
        {
          "indexed": false,
          "internalType": "address",
          "name": "account",
          "type": "address"
        }
      ],
      "name": "Unpaused",
      "type": "event"
    },
    {
      "anonymous": false,
      "inputs": [
        {
          "indexed": true,
          "internalType": "address",
          "name": "implementation",
          "type": "address"
        }
      ],
      "name": "Upgraded",
      "type": "event"
    },
    {
      "inputs": [
        {
          "internalType": "address",
          "name": "_ibpAddress",
          "type": "address"
        }
      ],
      "name": "addIBPAddressAdmin",
      "outputs": [],
      "stateMutability": "nonpayable",
      "type": "function"
    },
    {
      "inputs": [
        {
          "internalType": "address[]",
          "name": "_tokenContractAddress",
          "type": "address[]"
        }
      ],
      "name": "disableSupportedToken",
      "outputs": [],
      "stateMutability": "nonpayable",
      "type": "function"
    },
    {
      "inputs": [],
      "name": "getAdminAddress",
      "outputs": [
        {
          "internalType": "address",
          "name": "",
          "type": "address"
        }
      ],
      "stateMutability": "view",
      "type": "function"
    },
    {
      "inputs": [],
      "name": "getAdminFees",
      "outputs": [
        {
          "internalType": "uint8",
          "name": "",
          "type": "uint8"
        }
      ],
      "stateMutability": "view",
      "type": "function"
    },
    {
      "inputs": [],
      "name": "getBaseCurrencyDecimals",
      "outputs": [
        {
          "internalType": "uint8",
          "name": "",
          "type": "uint8"
        }
      ],
      "stateMutability": "view",
      "type": "function"
    },
    {
      "inputs": [],
      "name": "getCoreMemberRewardRate",
      "outputs": [
        {
          "internalType": "uint8",
          "name": "",
          "type": "uint8"
        }
      ],
      "stateMutability": "view",
      "type": "function"
    },
    {
      "inputs": [],
      "name": "getCoreMembersContractAddress",
      "outputs": [
        {
          "internalType": "address",
          "name": "",
          "type": "address"
        }
      ],
      "stateMutability": "view",
      "type": "function"
    },
    {
      "inputs": [],
      "name": "getGlobalRewardRate",
      "outputs": [
        {
          "internalType": "uint8",
          "name": "",
          "type": "uint8"
        }
      ],
      "stateMutability": "view",
      "type": "function"
    },
    {
      "inputs": [],
      "name": "getIBPList",
      "outputs": [
        {
          "internalType": "address[]",
          "name": "",
          "type": "address[]"
        }
      ],
      "stateMutability": "view",
      "type": "function"
    },
    {
      "inputs": [],
      "name": "getIbpRewardRate",
      "outputs": [
        {
          "internalType": "uint8",
          "name": "",
          "type": "uint8"
        }
      ],
      "stateMutability": "view",
      "type": "function"
    },
    {
      "inputs": [],
      "name": "getIsPayCoreMembersRewards",
      "outputs": [
        {
          "internalType": "bool",
          "name": "",
          "type": "bool"
        }
      ],
      "stateMutability": "view",
      "type": "function"
    },
    {
      "inputs": [],
      "name": "getIsPayGlobalRewards",
      "outputs": [
        {
          "internalType": "bool",
          "name": "",
          "type": "bool"
        }
      ],
      "stateMutability": "view",
      "type": "function"
    },
    {
      "inputs": [],
      "name": "getIsPayIbpRewards",
      "outputs": [
        {
          "internalType": "bool",
          "name": "",
          "type": "bool"
        }
      ],
      "stateMutability": "view",
      "type": "function"
    },
    {
      "inputs": [],
      "name": "getIsPayReferralRewards",
      "outputs": [
        {
          "internalType": "bool",
          "name": "",
          "type": "bool"
        }
      ],
      "stateMutability": "view",
      "type": "function"
    },
    {
      "inputs": [],
      "name": "getIsPayRewardToken",
      "outputs": [
        {
          "internalType": "bool",
          "name": "",
          "type": "bool"
        }
      ],
      "stateMutability": "view",
      "type": "function"
    },
    {
      "inputs": [],
      "name": "getIsPayWeeklyRewards",
      "outputs": [
        {
          "internalType": "bool",
          "name": "",
          "type": "bool"
        }
      ],
      "stateMutability": "view",
      "type": "function"
    },
    {
      "inputs": [],
      "name": "getLevelDecimals",
      "outputs": [
        {
          "internalType": "uint16",
          "name": "",
          "type": "uint16"
        }
      ],
      "stateMutability": "view",
      "type": "function"
    },
    {
      "inputs": [],
      "name": "getLevelRates",
      "outputs": [
        {
          "internalType": "uint16[]",
          "name": "",
          "type": "uint16[]"
        }
      ],
      "stateMutability": "view",
      "type": "function"
    },
    {
      "inputs": [
        {
          "internalType": "uint8",
          "name": "_planId",
          "type": "uint8"
        }
      ],
      "name": "getPlanById",
      "outputs": [
        {
          "components": [
            {
              "internalType": "uint8",
              "name": "planId",
              "type": "uint8"
            },
            {
              "internalType": "string",
              "name": "name",
              "type": "string"
            },
            {
              "internalType": "uint256",
              "name": "value",
              "type": "uint256"
            },
            {
              "internalType": "uint256",
              "name": "maxLimitMultiplier",
              "type": "uint256"
            }
          ],
          "internalType": "struct VariablesV1Upgradeable.PlanStruct",
          "name": "",
          "type": "tuple"
        }
      ],
      "stateMutability": "view",
      "type": "function"
    },
    {
      "inputs": [],
      "name": "getPlansCount",
      "outputs": [
        {
          "internalType": "uint8",
          "name": "planCount",
          "type": "uint8"
        }
      ],
      "stateMutability": "view",
      "type": "function"
    },
    {
      "inputs": [],
      "name": "getPresaleContract",
      "outputs": [
        {
          "internalType": "address",
          "name": "",
          "type": "address"
        }
      ],
      "stateMutability": "view",
      "type": "function"
    },
    {
      "inputs": [],
      "name": "getReferralContract",
      "outputs": [
        {
          "internalType": "address",
          "name": "",
          "type": "address"
        }
      ],
      "stateMutability": "view",
      "type": "function"
    },
    {
      "inputs": [],
      "name": "getRewardTokenContract",
      "outputs": [
        {
          "internalType": "address",
          "name": "",
          "type": "address"
        }
      ],
      "stateMutability": "view",
      "type": "function"
    },
    {
      "inputs": [],
      "name": "getRewardTokenRate",
      "outputs": [
        {
          "internalType": "uint8",
          "name": "",
          "type": "uint8"
        }
      ],
      "stateMutability": "view",
      "type": "function"
    },
    {
      "inputs": [],
      "name": "getStakingContract",
      "outputs": [
        {
          "internalType": "address",
          "name": "",
          "type": "address"
        }
      ],
      "stateMutability": "view",
      "type": "function"
    },
    {
      "inputs": [
        {
          "internalType": "address",
          "name": "_tokenContractAddress",
          "type": "address"
        }
      ],
      "name": "getSupportedTokenInfo",
      "outputs": [
        {
          "components": [
            {
              "internalType": "address",
              "name": "contractAddress",
              "type": "address"
            },
            {
              "internalType": "string",
              "name": "name",
              "type": "string"
            },
            {
              "internalType": "string",
              "name": "symbol",
              "type": "string"
            },
            {
              "internalType": "uint8",
              "name": "decimals",
              "type": "uint8"
            },
            {
              "internalType": "bool",
              "name": "isStable",
              "type": "bool"
            },
            {
              "internalType": "address",
              "name": "aggregatorAddress",
              "type": "address"
            },
            {
              "internalType": "bool",
              "name": "isEnaled",
              "type": "bool"
            }
          ],
          "internalType": "struct VariablesV1Upgradeable.SupportedTokensStruct",
          "name": "",
          "type": "tuple"
        }
      ],
      "stateMutability": "view",
      "type": "function"
    },
    {
      "inputs": [],
      "name": "getValueBufferRate",
      "outputs": [
        {
          "internalType": "uint8",
          "name": "",
          "type": "uint8"
        }
      ],
      "stateMutability": "view",
      "type": "function"
    },
    {
      "inputs": [],
      "name": "getWeeklyRewardRate",
      "outputs": [
        {
          "internalType": "uint8",
          "name": "",
          "type": "uint8"
        }
      ],
      "stateMutability": "view",
      "type": "function"
    },
    {
      "inputs": [],
      "name": "initialize",
      "outputs": [],
      "stateMutability": "nonpayable",
      "type": "function"
    },
    {
      "inputs": [
        {
          "internalType": "address",
          "name": "_ibpAddress",
          "type": "address"
        }
      ],
      "name": "isIBP",
      "outputs": [
        {
          "internalType": "bool",
          "name": "",
          "type": "bool"
        }
      ],
      "stateMutability": "view",
      "type": "function"
    },
    {
      "inputs": [
        {
          "internalType": "address",
          "name": "_tokenContractAddress",
          "type": "address"
        }
      ],
      "name": "isTokenSupported",
      "outputs": [
        {
          "internalType": "bool",
          "name": "",
          "type": "bool"
        }
      ],
      "stateMutability": "view",
      "type": "function"
    },
    {
      "inputs": [],
      "name": "owner",
      "outputs": [
        {
          "internalType": "address",
          "name": "",
          "type": "address"
        }
      ],
      "stateMutability": "view",
      "type": "function"
    },
    {
      "inputs": [],
      "name": "pause",
      "outputs": [],
      "stateMutability": "nonpayable",
      "type": "function"
    },
    {
      "inputs": [],
      "name": "paused",
      "outputs": [
        {
          "internalType": "bool",
          "name": "",
          "type": "bool"
        }
      ],
      "stateMutability": "view",
      "type": "function"
    },
    {
      "inputs": [],
      "name": "proxiableUUID",
      "outputs": [
        {
          "internalType": "bytes32",
          "name": "",
          "type": "bytes32"
        }
      ],
      "stateMutability": "view",
      "type": "function"
    },
    {
      "inputs": [
        {
          "internalType": "address",
          "name": "_tokenContractAddress",
          "type": "address"
        },
        {
          "internalType": "bool",
          "name": "_isStable",
          "type": "bool"
        },
        {
          "internalType": "address",
          "name": "_aggregatorContractAddress",
          "type": "address"
        }
      ],
      "name": "pushSupportedTokenToList",
      "outputs": [],
      "stateMutability": "nonpayable",
      "type": "function"
    },
    {
      "inputs": [
        {
          "internalType": "address",
          "name": "_ibpAddress",
          "type": "address"
        }
      ],
      "name": "removeIBPAddressAdmin",
      "outputs": [],
      "stateMutability": "nonpayable",
      "type": "function"
    },
    {
      "inputs": [],
      "name": "renounceOwnership",
      "outputs": [],
      "stateMutability": "nonpayable",
      "type": "function"
    },
    {
      "inputs": [
        {
          "internalType": "address",
          "name": "adminAddress",
          "type": "address"
        }
      ],
      "name": "setAdminAddress",
      "outputs": [],
      "stateMutability": "nonpayable",
      "type": "function"
    },
    {
      "inputs": [
        {
          "internalType": "uint8",
          "name": "fees",
          "type": "uint8"
        }
      ],
      "name": "setAdminFees",
      "outputs": [],
      "stateMutability": "nonpayable",
      "type": "function"
    },
    {
      "inputs": [
        {
          "internalType": "uint8",
          "name": "decimals",
          "type": "uint8"
        }
      ],
      "name": "setBaseCurrencyDecimals",
      "outputs": [],
      "stateMutability": "nonpayable",
      "type": "function"
    },
    {
      "inputs": [
        {
          "internalType": "uint8",
          "name": "rate",
          "type": "uint8"
        }
      ],
      "name": "setCoreMemberRewardRate",
      "outputs": [],
      "stateMutability": "nonpayable",
      "type": "function"
    },
    {
      "inputs": [
        {
          "internalType": "address",
          "name": "_address",
          "type": "address"
        }
      ],
      "name": "setCoreMembersContractAddress",
      "outputs": [],
      "stateMutability": "nonpayable",
      "type": "function"
    },
    {
      "inputs": [
        {
          "internalType": "uint8",
          "name": "rate",
          "type": "uint8"
        }
      ],
      "name": "setGlobalRewardRate",
      "outputs": [],
      "stateMutability": "nonpayable",
      "type": "function"
    },
    {
      "inputs": [
        {
          "internalType": "uint8",
          "name": "rate",
          "type": "uint8"
        }
      ],
      "name": "setIbpRewardRate",
      "outputs": [],
      "stateMutability": "nonpayable",
      "type": "function"
    },
    {
      "inputs": [
        {
          "internalType": "bool",
          "name": "value",
          "type": "bool"
        }
      ],
      "name": "setIsPayCoreMembersRewards",
      "outputs": [],
      "stateMutability": "nonpayable",
      "type": "function"
    },
    {
      "inputs": [
        {
          "internalType": "bool",
          "name": "value",
          "type": "bool"
        }
      ],
      "name": "setIsPayGlobalRewards",
      "outputs": [],
      "stateMutability": "nonpayable",
      "type": "function"
    },
    {
      "inputs": [
        {
          "internalType": "bool",
          "name": "value",
          "type": "bool"
        }
      ],
      "name": "setIsPayIbpRewards",
      "outputs": [],
      "stateMutability": "nonpayable",
      "type": "function"
    },
    {
      "inputs": [
        {
          "internalType": "bool",
          "name": "value",
          "type": "bool"
        }
      ],
      "name": "setIsPayReferralRewards",
      "outputs": [],
      "stateMutability": "nonpayable",
      "type": "function"
    },
    {
      "inputs": [
        {
          "internalType": "bool",
          "name": "isPay",
          "type": "bool"
        }
      ],
      "name": "setIsPayRewardToken",
      "outputs": [],
      "stateMutability": "nonpayable",
      "type": "function"
    },
    {
      "inputs": [
        {
          "internalType": "bool",
          "name": "value",
          "type": "bool"
        }
      ],
      "name": "setIsPayWeeklyRewards",
      "outputs": [],
      "stateMutability": "nonpayable",
      "type": "function"
    },
    {
      "inputs": [
        {
          "internalType": "uint16",
          "name": "decimals",
          "type": "uint16"
        }
      ],
      "name": "setLevelDecimals",
      "outputs": [],
      "stateMutability": "nonpayable",
      "type": "function"
    },
    {
      "inputs": [
        {
          "internalType": "uint16[]",
          "name": "rates",
          "type": "uint16[]"
        }
      ],
      "name": "setLevelRates",
      "outputs": [],
      "stateMutability": "nonpayable",
      "type": "function"
    },
    {
      "inputs": [
        {
          "internalType": "uint8[]",
          "name": "planId",
          "type": "uint8[]"
        },
        {
          "internalType": "string[]",
          "name": "name",
          "type": "string[]"
        },
        {
          "internalType": "uint256[]",
          "name": "valueInDecimals",
          "type": "uint256[]"
        },
        {
          "internalType": "uint256[]",
          "name": "maxLimitMultiplier",
          "type": "uint256[]"
        }
      ],
      "name": "setPlans",
      "outputs": [],
      "stateMutability": "nonpayable",
      "type": "function"
    },
    {
      "inputs": [
        {
          "internalType": "address",
          "name": "_contractAddress",
          "type": "address"
        }
      ],
      "name": "setPresaleContract",
      "outputs": [],
      "stateMutability": "nonpayable",
      "type": "function"
    },
    {
      "inputs": [
        {
          "internalType": "address",
          "name": "_contractAddress",
          "type": "address"
        }
      ],
      "name": "setReferralContract",
      "outputs": [],
      "stateMutability": "nonpayable",
      "type": "function"
    },
    {
      "inputs": [
        {
          "internalType": "address",
          "name": "tokenContract",
          "type": "address"
        }
      ],
      "name": "setRewardTokenContract",
      "outputs": [],
      "stateMutability": "nonpayable",
      "type": "function"
    },
    {
      "inputs": [
        {
          "internalType": "uint8",
          "name": "_rewardRatePer",
          "type": "uint8"
        }
      ],
      "name": "setRewardTokenRate",
      "outputs": [],
      "stateMutability": "nonpayable",
      "type": "function"
    },
    {
      "inputs": [
        {
          "internalType": "address",
          "name": "_contractAddress",
          "type": "address"
        }
      ],
      "name": "setStakingContract",
      "outputs": [],
      "stateMutability": "nonpayable",
      "type": "function"
    },
    {
      "inputs": [
        {
          "internalType": "uint8",
          "name": "rate",
          "type": "uint8"
        }
      ],
      "name": "setValueBufferRate",
      "outputs": [],
      "stateMutability": "nonpayable",
      "type": "function"
    },
    {
      "inputs": [
        {
          "internalType": "uint8",
          "name": "rate",
          "type": "uint8"
        }
      ],
      "name": "setWeeklyRewardRate",
      "outputs": [],
      "stateMutability": "nonpayable",
      "type": "function"
    },
    {
      "inputs": [
        {
          "internalType": "uint256",
          "name": "",
          "type": "uint256"
        }
      ],
      "name": "supportedTokensList",
      "outputs": [
        {
          "internalType": "address",
          "name": "",
          "type": "address"
        }
      ],
      "stateMutability": "view",
      "type": "function"
    },
    {
      "inputs": [
        {
          "internalType": "address",
          "name": "newOwner",
          "type": "address"
        }
      ],
      "name": "transferOwnership",
      "outputs": [],
      "stateMutability": "nonpayable",
      "type": "function"
    },
    {
      "inputs": [],
      "name": "unpause",
      "outputs": [],
      "stateMutability": "nonpayable",
      "type": "function"
    },
    {
      "inputs": [
        {
          "internalType": "address",
          "name": "newImplementation",
          "type": "address"
        }
      ],
      "name": "upgradeTo",
      "outputs": [],
      "stateMutability": "nonpayable",
      "type": "function"
    },
    {
      "inputs": [
        {
          "internalType": "address",
          "name": "newImplementation",
          "type": "address"
        },
        {
          "internalType": "bytes",
          "name": "data",
          "type": "bytes"
        }
      ],
      "name": "upgradeToAndCall",
      "outputs": [],
      "stateMutability": "payable",
      "type": "function"
    }
  ],
  "bytecode": "0x60a06040523060805234801561001457600080fd5b506080516132e261004c6000396000818161125c015281816112a5015281816113a2015281816113e2015261147101526132e26000f3fe6080604052600436106103d85760003560e01c80638e68dce4116101fd578063b644356211610118578063e371c5c5116100ab578063eb758bc71161007a578063eb758bc714610bba578063f1012b4514610bda578063f2a9012114610bf8578063f2fde38b14610c18578063ffc43f8f14610c3857600080fd5b8063e371c5c514610b28578063e701671714610b48578063e74af32e14610b6a578063e7cca9c714610b9757600080fd5b8063c391d636116100e7578063c391d63614610aac578063d54fcd9314610aca578063e091099c14610aea578063e179719a14610b0957600080fd5b8063b644356214610a2b578063b7a2662014610a4b578063b9cd1a5014610a6b578063bcb03b5714610a8c57600080fd5b8063a46868f011610190578063ac40e3091161015f578063ac40e309146109b7578063acc91865146109d7578063af2d4d09146109ec578063b2e6b91214610a0c57600080fd5b8063a46868f014610937578063a61a4ff314610957578063a646e84514610977578063a9bbd1141461099757600080fd5b806394debf48116101cc57806394debf48146108b85780639dd373b9146108d85780639f6d8870146108f8578063a43ae4081461091757600080fd5b80638e68dce414610838578063916452ab14610857578063918a54db1461087657806393cee9c91461089857600080fd5b80634ccebd50116102f857806363c918771161028b57806375151b631161025a57806375151b631461078c5780638129fc1c146107d05780638456cb59146107e5578063880c0ec3146107fa5780638da5cb5b1461081a57600080fd5b806363c918771461071857806365eb204d146107385780636cf3c67614610757578063715018a61461077757600080fd5b806357b88805116102c757806357b88805146106a15780635c975abb146106c15780635d9bed63146106d95780635f3ad6e2146106f957600080fd5b80634ccebd501461062c5780634f1ef2861461064c57806352d1902d1461065f5780635397b86d1461068257600080fd5b80632b70c02c116103705780633659cfe61161033f5780633659cfe6146105b857806339e0dcfa146105d85780633f4ba83a146105f85780633fae6a111461060d57600080fd5b80632b70c02c146105125780632c1e816d146105315780632f8c7e72146105515780633238c16f1461058b57600080fd5b80630efc12b1116103ac5780630efc12b11461045f57806316dd07e0146104955780631f1eeec8146104c057806323442c60146104df57600080fd5b8062b29290146103dd578063051ff2b9146103ff57806306ad5a471461041f57806308fcfbbe1461043f575b600080fd5b3480156103e957600080fd5b506103fd6103f8366004612862565b610c5a565b005b34801561040b57600080fd5b506103fd61041a36600461288d565b610e37565b34801561042b57600080fd5b506103fd61043a366004612862565b6110c8565b34801561044b57600080fd5b506103fd61045a366004612862565b6110f3565b34801561046b57600080fd5b5061047f61047a3660046128df565b61111e565b60405161048c919061294c565b60405180910390f35b3480156104a157600080fd5b5060fc54600160681b900460ff165b604051901515815260200161048c565b3480156104cc57600080fd5b5060fc54600160601b900460ff166104b0565b3480156104eb57600080fd5b50610100546001600160a01b03165b6040516001600160a01b03909116815260200161048c565b34801561051e57600080fd5b5060fc54600160501b900460ff166104b0565b34801561053d57600080fd5b506103fd61054c366004612862565b611227565b34801561055d57600080fd5b506104b061056c366004612862565b6001600160a01b03166000908152610108602052604090205460ff1690565b34801561059757600080fd5b5060fc54600160401b900460ff165b60405160ff909116815260200161048c565b3480156105c457600080fd5b506103fd6105d3366004612862565b611252565b3480156105e457600080fd5b506103fd6105f3366004612995565b61133a565b34801561060457600080fd5b506103fd611360565b34801561061957600080fd5b5060fc54600160581b900460ff166104b0565b34801561063857600080fd5b506103fd610647366004612995565b611372565b6103fd61065a366004612a5d565b611398565b34801561066b57600080fd5b50610674611464565b60405190815260200161048c565b34801561068e57600080fd5b5060fc54600160381b900460ff166105a6565b3480156106ad57600080fd5b506103fd6106bc366004612b0b565b611517565b3480156106cd57600080fd5b5060335460ff166104b0565b3480156106e557600080fd5b506103fd6106f4366004612995565b611609565b34801561070557600080fd5b5060fc546301000000900460ff166105a6565b34801561072457600080fd5b506104fa610733366004612b4d565b61162f565b34801561074457600080fd5b50610103546001600160a01b03166104fa565b34801561076357600080fd5b506103fd6107723660046128df565b611659565b34801561078357600080fd5b506103fd611686565b34801561079857600080fd5b506104b06107a7366004612862565b6001600160a01b031660009081526101076020526040902060030154600160b01b900460ff1690565b3480156107dc57600080fd5b506103fd611698565b3480156107f157600080fd5b506103fd6118a3565b34801561080657600080fd5b506103fd6108153660046128df565b6118b3565b34801561082657600080fd5b506065546001600160a01b03166104fa565b34801561084457600080fd5b50610101546001600160a01b03166104fa565b34801561086357600080fd5b50610104546001600160a01b03166104fa565b34801561088257600080fd5b5061088b6118e1565b60405161048c9190612b66565b3480156108a457600080fd5b506103fd6108b3366004612995565b611961565b3480156108c457600080fd5b506103fd6108d33660046128df565b611987565b3480156108e457600080fd5b506103fd6108f3366004612862565b6119af565b34801561090457600080fd5b5060fc54600160701b900460ff166104b0565b34801561092357600080fd5b506103fd610932366004612bc0565b6119da565b34801561094357600080fd5b5060fc54640100000000900460ff166105a6565b34801561096357600080fd5b506103fd6109723660046128df565b6119fa565b34801561098357600080fd5b506103fd6109923660046128df565b611a20565b3480156109a357600080fd5b506103fd6109b2366004612862565b611a4c565b3480156109c357600080fd5b506103fd6109d23660046128df565b611a76565b3480156109e357600080fd5b506105a6611aa2565b3480156109f857600080fd5b506103fd610a073660046128df565b611af2565b348015610a1857600080fd5b50610105546001600160a01b03166104fa565b348015610a3757600080fd5b506103fd610a46366004612995565b611b1c565b348015610a5757600080fd5b506103fd610a663660046128df565b611b42565b348015610a7757600080fd5b5060fc5465010000000000900460ff166105a6565b348015610a9857600080fd5b506103fd610aa7366004612bff565b611b70565b348015610ab857600080fd5b5060fc5462010000900460ff166105a6565b348015610ad657600080fd5b506103fd610ae5366004612d49565b611d4c565b348015610af657600080fd5b5060fc54600160481b900460ff166105a6565b348015610b1557600080fd5b5060fc54600160781b900460ff166104b0565b348015610b3457600080fd5b506103fd610b43366004612862565b611d67565b348015610b5457600080fd5b5060fc546601000000000000900460ff166105a6565b348015610b7657600080fd5b50610b8a610b85366004612862565b611e2f565b60405161048c9190612de1565b348015610ba357600080fd5b5060fc5460405161ffff909116815260200161048c565b348015610bc657600080fd5b506103fd610bd5366004612995565b612003565b348015610be657600080fd5b5060ff546001600160a01b03166104fa565b348015610c0457600080fd5b506103fd610c13366004612862565b612029565b348015610c2457600080fd5b506103fd610c33366004612862565b612054565b348015610c4457600080fd5b50610c4d6120ca565b60405161048c9190612e79565b610c6261212b565b6001600160a01b0381166000908152610108602052604090205460ff168015610e33576001600160a01b038216600090815261010860209081526040808320805460ff1916905560fe80548251818502810185019093528083529192909190830182828015610cfa57602002820191906000526020600020905b81546001600160a01b03168152600190910190602001808311610cdc575b5050505050905060005b8151811015610e3057836001600160a01b0316828281518110610d2957610d29612eba565b60200260200101516001600160a01b031603610e1e578160018351610d4e9190612ee6565b81518110610d5e57610d5e612eba565b602002602001015160fe8281548110610d7957610d79612eba565b9060005260206000200160006101000a8154816001600160a01b0302191690836001600160a01b0316021790555060fe805480610db857610db8612ef9565b6000828152602090819020600019908301810180546001600160a01b03191690559091019091556040516001600160a01b03861681527f337eeb0192a31dfc3c61aff0be47a571a126a9e3f1caaee4af8c29babbb477e9910160405180910390a1610e30565b80610e2881612f0f565b915050610d04565b50505b5050565b610e3f61212b565b6040518060e00160405280846001600160a01b03168152602001846001600160a01b03166306fdde036040518163ffffffff1660e01b8152600401600060405180830381865afa158015610e97573d6000803e3d6000fd5b505050506040513d6000823e601f3d908101601f19168201604052610ebf9190810190612f28565b8152602001846001600160a01b03166395d89b416040518163ffffffff1660e01b8152600401600060405180830381865afa158015610f02573d6000803e3d6000fd5b505050506040513d6000823e601f3d908101601f19168201604052610f2a9190810190612f28565b8152602001846001600160a01b031663313ce5676040518163ffffffff1660e01b8152600401602060405180830381865afa158015610f6d573d6000803e3d6000fd5b505050506040513d601f19601f82011682018060405250810190610f919190612f9f565b60ff1681528315156020808301919091526001600160a01b03848116604080850191909152600160609094018490528782166000908152610107845220845181546001600160a01b0319169216919091178155908301519091820190610ff79082613044565b506040820151600282019061100c9082613044565b50606082015160039091018054608084015160a085015160c0909501511515600160b01b0260ff60b01b196001600160a01b0396871662010000021662010000600160b81b03199215156101000261ffff1990941660ff9096169590951792909217169290921791909117905560fd80546001810182556000919091527f9346ac6dd7de6b96975fec380d4d994c4c12e6a8897544f22915316cc6cca280018054949091166001600160a01b0319909416939093179092555050565b6110d061212b565b61010080546001600160a01b0319166001600160a01b0392909216919091179055565b6110fb61212b565b61010380546001600160a01b0319166001600160a01b0392909216919091179055565b61114c6040518060800160405280600060ff1681526020016060815260200160008152602001600081525090565b60ff80831660009081526101066020908152604091829020825160808101909352805490931682526001830180549293929184019161118a90612fbc565b80601f01602080910402602001604051908101604052809291908181526020018280546111b690612fbc565b80156112035780601f106111d857610100808354040283529160200191611203565b820191906000526020600020905b8154815290600101906020018083116111e657829003601f168201915b50505050508152602001600282015481526020016003820154815250509050919050565b61122f61212b565b61010580546001600160a01b0319166001600160a01b0392909216919091179055565b6001600160a01b037f00000000000000000000000000000000000000000000000000000000000000001630036112a35760405162461bcd60e51b815260040161129a90613104565b60405180910390fd5b7f00000000000000000000000000000000000000000000000000000000000000006001600160a01b03166112ec600080516020613266833981519152546001600160a01b031690565b6001600160a01b0316146113125760405162461bcd60e51b815260040161129a90613150565b61131b81612185565b604080516000808252602082019092526113379183919061218d565b50565b61134261212b565b60fc8054911515600160681b0260ff60681b19909216919091179055565b61136861212b565b6113706122f8565b565b61137a61212b565b60fc8054911515600160781b0260ff60781b19909216919091179055565b6001600160a01b037f00000000000000000000000000000000000000000000000000000000000000001630036113e05760405162461bcd60e51b815260040161129a90613104565b7f00000000000000000000000000000000000000000000000000000000000000006001600160a01b0316611429600080516020613266833981519152546001600160a01b031690565b6001600160a01b03161461144f5760405162461bcd60e51b815260040161129a90613150565b61145882612185565b610e338282600161218d565b6000306001600160a01b037f000000000000000000000000000000000000000000000000000000000000000016146115045760405162461bcd60e51b815260206004820152603860248201527f555550535570677261646561626c653a206d757374206e6f742062652063616c60448201527f6c6564207468726f7567682064656c656761746563616c6c0000000000000000606482015260840161129a565b5060008051602061326683398151915290565b61151f61212b565b60005b60ff8116821115611604576000610107600085858560ff1681811061154957611549612eba565b905060200201602081019061155e9190612862565b6001600160a01b0316815260208101919091526040016000206003018054911515600160b01b0260ff60b01b1990921691909117905560fd838360ff84168181106115ab576115ab612eba565b90506020020160208101906115c09190612862565b81546001810183556000928352602090922090910180546001600160a01b0319166001600160a01b03909216919091179055806115fc8161319c565b915050611522565b505050565b61161161212b565b60fc8054911515600160701b0260ff60701b19909216919091179055565b60fd818154811061163f57600080fd5b6000918252602090912001546001600160a01b0316905081565b61166161212b565b60fc805460ff909216600160401b0268ff000000000000000019909216919091179055565b61168e61212b565b611370600061234a565b600054610100900460ff16158080156116b85750600054600160ff909116105b806116d25750303b1580156116d2575060005460ff166001145b6117355760405162461bcd60e51b815260206004820152602e60248201527f496e697469616c697a61626c653a20636f6e747261637420697320616c72656160448201526d191e481a5b9a5d1a585b1a5e995960921b606482015260840161129a565b6000805460ff191660011790558015611758576000805461ff0019166101001790555b604080516101408101825261138881526101f460208201526101909181019190915261012c606082015260c86080820152606460a0820181905260c0820152607d60e0820181905261010082015260966101208201526117bc9060fb90600a612791565b5060fc805461010380546001600160a01b0319908116737f9fd63932babc508fad2f324eb534d09cfe86f0179091556f010101010101030302050a0a0a0027106fffffffffffffffffffffffffff00ffff19909216919091179091556101048054821673efb61c43c70b60563c1a2a835663c63ecc93f6ba17905561010580549091163317905561184b61239c565b6118536123cb565b61185b6123fa565b8015611337576000805461ff0019169055604051600181527f7f26b83ff96e1f2b6a682f133852f6798a09c465da95921460cefb38474024989060200160405180910390a150565b6118ab61212b565b611370612421565b6118bb61212b565b60fc805460ff90921666010000000000000266ff00000000000019909216919091179055565b606060fb80548060200260200160405190810160405280929190818152602001828054801561195757602002820191906000526020600020906000905b82829054906101000a900461ffff1661ffff168152602001906002019060208260010104928301926001038202915080841161191e5790505b5050505050905090565b61196961212b565b60fc8054911515600160601b0260ff60601b19909216919091179055565b61198f61212b565b60fc805460ff90921663010000000263ff00000019909216919091179055565b6119b761212b565b61010180546001600160a01b0319166001600160a01b0392909216919091179055565b6119e261212b565b60fc805461ffff191661ffff92909216919091179055565b611a0261212b565b60fc805460ff909216620100000262ff000019909216919091179055565b611a2861212b565b60fc805460ff909216600160381b0267ff0000000000000019909216919091179055565b611a5461212b565b60ff80546001600160a01b0319166001600160a01b0392909216919091179055565b611a7e61212b565b60fc805460ff909216650100000000000265ff000000000019909216919091179055565b6000805b60148160ff161015611aee5760ff81166000908152610106602052604090206002015415611adc5781611ad88161319c565b9250505b80611ae68161319c565b915050611aa6565b5090565b611afa61212b565b60fc805460ff9092166401000000000264ff0000000019909216919091179055565b611b2461212b565b60fc8054911515600160581b0260ff60581b19909216919091179055565b611b4a61212b565b60fc805460ff909216600160481b0269ff00000000000000000019909216919091179055565b611b7861212b565b60005b86811015611d4257878782818110611b9557611b95612eba565b9050602002016020810190611baa91906128df565b61010660008a8a85818110611bc157611bc1612eba565b9050602002016020810190611bd691906128df565b60ff90811682526020820192909252604001600020805460ff1916929091169190911790558551869082908110611c0f57611c0f612eba565b602002602001015161010660008a8a85818110611c2e57611c2e612eba565b9050602002016020810190611c4391906128df565b60ff168152602081019190915260400160002060010190611c649082613044565b50848482818110611c7757611c77612eba565b90506020020135670de0b6b3a7640000611c9191906131bb565b61010660008a8a85818110611ca857611ca8612eba565b9050602002016020810190611cbd91906128df565b60ff168152602081019190915260400160002060020155828282818110611ce657611ce6612eba565b9050602002013561010660008a8a85818110611d0457611d04612eba565b9050602002016020810190611d1991906128df565b60ff16815260208101919091526040016000206003015580611d3a81612f0f565b915050611b7b565b5050505050505050565b611d5461212b565b8051610e339060fb906020840190612791565b611d6f61212b565b6001600160a01b0381166000908152610108602052604090205460ff1680610e33576001600160a01b038216600081815261010860209081526040808320805460ff1916600190811790915560fe805491820181559093527f54075df80ec1ae6ac9100e1fd0ebf3246c17f5c933137af392011f4c5f61513a90920180546001600160a01b0319168417905590519182527fe30f8cb0d8cbc7c0e95d5aaa3107ce401738ce4bc98a05dd081bb2a77a9ca749910160405180910390a15050565b6040805160e080820183526000808352606060208085018290528486018290529084018290526080840182905260a0840182905260c084018290526001600160a01b0386811683526101078252918590208551938401909552845490911682526001840180549394929391840191611ea690612fbc565b80601f0160208091040260200160405190810160405280929190818152602001828054611ed290612fbc565b8015611f1f5780601f10611ef457610100808354040283529160200191611f1f565b820191906000526020600020905b815481529060010190602001808311611f0257829003601f168201915b50505050508152602001600282018054611f3890612fbc565b80601f0160208091040260200160405190810160405280929190818152602001828054611f6490612fbc565b8015611fb15780601f10611f8657610100808354040283529160200191611fb1565b820191906000526020600020905b815481529060010190602001808311611f9457829003601f168201915b50505091835250506003919091015460ff808216602084015261010082048116151560408401526001600160a01b03620100008304166060840152600160b01b90910416151560809091015292915050565b61200b61212b565b60fc8054911515600160501b0260ff60501b19909216919091179055565b61203161212b565b61010480546001600160a01b0319166001600160a01b0392909216919091179055565b61205c61212b565b6001600160a01b0381166120c15760405162461bcd60e51b815260206004820152602660248201527f4f776e61626c653a206e6577206f776e657220697320746865207a65726f206160448201526564647265737360d01b606482015260840161129a565b6113378161234a565b606060fe80548060200260200160405190810160405280929190818152602001828054801561195757602002820191906000526020600020905b81546001600160a01b03168152600190910190602001808311612104575050505050905090565b6065546001600160a01b031633146113705760405162461bcd60e51b815260206004820181905260248201527f4f776e61626c653a2063616c6c6572206973206e6f7420746865206f776e6572604482015260640161129a565b61133761212b565b7f4910fdfa16fed3260ed0e7147f7cc6da11a60208b5b9406d12a635614ffd91435460ff16156121c0576116048361245e565b826001600160a01b03166352d1902d6040518163ffffffff1660e01b8152600401602060405180830381865afa92505050801561221a575060408051601f3d908101601f19168201909252612217918101906131d2565b60015b61227d5760405162461bcd60e51b815260206004820152602e60248201527f45524331393637557067726164653a206e657720696d706c656d656e7461746960448201526d6f6e206973206e6f74205555505360901b606482015260840161129a565b60008051602061326683398151915281146122ec5760405162461bcd60e51b815260206004820152602960248201527f45524331393637557067726164653a20756e737570706f727465642070726f786044820152681a58589b195555525160ba1b606482015260840161129a565b506116048383836124fa565b61230061251f565b6033805460ff191690557f5db9ee0a495bf2e6ff9c91a7834c1ba4fdd244a5e8aa4e537bd38aeae4b073aa335b6040516001600160a01b03909116815260200160405180910390a1565b606580546001600160a01b038381166001600160a01b0319831681179093556040519116919082907f8be0079c531659141344cd1fd0a4f28419497f9722a3daafe3b4186f6b6457e090600090a35050565b600054610100900460ff166123c35760405162461bcd60e51b815260040161129a906131eb565b611370612568565b600054610100900460ff166123f25760405162461bcd60e51b815260040161129a906131eb565b61137061259b565b600054610100900460ff166113705760405162461bcd60e51b815260040161129a906131eb565b6124296125cb565b6033805460ff191660011790557f62e78cea01bee320cd4e420270b5ea74000d11b0c9f74754ebdbfc544b05a25861232d3390565b6001600160a01b0381163b6124cb5760405162461bcd60e51b815260206004820152602d60248201527f455243313936373a206e657720696d706c656d656e746174696f6e206973206e60448201526c1bdd08184818dbdb9d1c9858dd609a1b606482015260840161129a565b60008051602061326683398151915280546001600160a01b0319166001600160a01b0392909216919091179055565b61250383612611565b6000825111806125105750805b1561160457610e308383612651565b60335460ff166113705760405162461bcd60e51b815260206004820152601460248201527314185d5cd8589b194e881b9bdd081c185d5cd95960621b604482015260640161129a565b600054610100900460ff1661258f5760405162461bcd60e51b815260040161129a906131eb565b6033805460ff19169055565b600054610100900460ff166125c25760405162461bcd60e51b815260040161129a906131eb565b6113703361234a565b60335460ff16156113705760405162461bcd60e51b815260206004820152601060248201526f14185d5cd8589b194e881c185d5cd95960821b604482015260640161129a565b61261a8161245e565b6040516001600160a01b038216907fbc7cd75a20ee27fd9adebab32041f755214dbc6bffa90cc0225b39da2e5c2d3b90600090a250565b60606001600160a01b0383163b6126b95760405162461bcd60e51b815260206004820152602660248201527f416464726573733a2064656c65676174652063616c6c20746f206e6f6e2d636f6044820152651b9d1c9858dd60d21b606482015260840161129a565b600080846001600160a01b0316846040516126d49190613236565b600060405180830381855af49150503d806000811461270f576040519150601f19603f3d011682016040523d82523d6000602084013e612714565b606091505b509150915061273c828260405180606001604052806027815260200161328660279139612747565b925050505b92915050565b60608315612756575081612760565b6127608383612767565b9392505050565b8151156127775781518083602001fd5b8060405162461bcd60e51b815260040161129a9190613252565b82805482825590600052602060002090600f0160109004810192821561282a5791602002820160005b838211156127fa57835183826101000a81548161ffff021916908361ffff16021790555092602001926002016020816001010492830192600103026127ba565b80156128285782816101000a81549061ffff02191690556002016020816001010492830192600103026127fa565b505b50611aee9291505b80821115611aee5760008155600101612832565b80356001600160a01b038116811461285d57600080fd5b919050565b60006020828403121561287457600080fd5b61276082612846565b8035801515811461285d57600080fd5b6000806000606084860312156128a257600080fd5b6128ab84612846565b92506128b96020850161287d565b91506128c760408501612846565b90509250925092565b60ff8116811461133757600080fd5b6000602082840312156128f157600080fd5b8135612760816128d0565b60005b838110156129175781810151838201526020016128ff565b50506000910152565b600081518084526129388160208601602086016128fc565b601f01601f19169290920160200192915050565b6020815260ff8251166020820152600060208301516080604084015261297560a0840182612920565b905060408401516060840152606084015160808401528091505092915050565b6000602082840312156129a757600080fd5b6127608261287d565b634e487b7160e01b600052604160045260246000fd5b604051601f8201601f1916810167ffffffffffffffff811182821017156129ef576129ef6129b0565b604052919050565b600067ffffffffffffffff821115612a1157612a116129b0565b50601f01601f191660200190565b6000612a32612a2d846129f7565b6129c6565b9050828152838383011115612a4657600080fd5b828260208301376000602084830101529392505050565b60008060408385031215612a7057600080fd5b612a7983612846565b9150602083013567ffffffffffffffff811115612a9557600080fd5b8301601f81018513612aa657600080fd5b612ab585823560208401612a1f565b9150509250929050565b60008083601f840112612ad157600080fd5b50813567ffffffffffffffff811115612ae957600080fd5b6020830191508360208260051b8501011115612b0457600080fd5b9250929050565b60008060208385031215612b1e57600080fd5b823567ffffffffffffffff811115612b3557600080fd5b612b4185828601612abf565b90969095509350505050565b600060208284031215612b5f57600080fd5b5035919050565b6020808252825182820181905260009190848201906040850190845b81811015612ba257835161ffff1683529284019291840191600101612b82565b50909695505050505050565b803561ffff8116811461285d57600080fd5b600060208284031215612bd257600080fd5b61276082612bae565b600067ffffffffffffffff821115612bf557612bf56129b0565b5060051b60200190565b60008060008060008060006080888a031215612c1a57600080fd5b67ffffffffffffffff8089351115612c3157600080fd5b612c3e8a8a358b01612abf565b90985096506020890135811015612c5457600080fd5b602089013589018a601f820112612c6a57600080fd5b612c77612a2d8235612bdb565b81358082526020808301929160051b8401018d811115612c9657600080fd5b602084015b81811015612ce7578581351115612cb157600080fd5b8e603f823587010112612cc357600080fd5b612cd98f82358701602081013590604001612a1f565b845260209384019301612c9b565b50508098505050508060408a01351115612d0057600080fd5b612d108a60408b01358b01612abf565b90955093506060890135811015612d2657600080fd5b50612d378960608a01358a01612abf565b979a9699509497509295919491925050565b60006020808385031215612d5c57600080fd5b823567ffffffffffffffff811115612d7357600080fd5b8301601f81018513612d8457600080fd5b8035612d92612a2d82612bdb565b81815260059190911b82018301908381019087831115612db157600080fd5b928401925b82841015612dd657612dc784612bae565b82529284019290840190612db6565b979650505050505050565b602080825282516001600160a01b03168282015282015160e06040830152600090612e10610100840182612920565b90506040840151601f19848303016060850152612e2d8282612920565b91505060ff60608501511660808401526080840151151560a084015260a0840151612e6360c08501826001600160a01b03169052565b5060c084015180151560e0850152509392505050565b6020808252825182820181905260009190848201906040850190845b81811015612ba25783516001600160a01b031683529284019291840191600101612e95565b634e487b7160e01b600052603260045260246000fd5b634e487b7160e01b600052601160045260246000fd5b8181038181111561274157612741612ed0565b634e487b7160e01b600052603160045260246000fd5b600060018201612f2157612f21612ed0565b5060010190565b600060208284031215612f3a57600080fd5b815167ffffffffffffffff811115612f5157600080fd5b8201601f81018413612f6257600080fd5b8051612f70612a2d826129f7565b818152856020838501011115612f8557600080fd5b612f968260208301602086016128fc565b95945050505050565b600060208284031215612fb157600080fd5b8151612760816128d0565b600181811c90821680612fd057607f821691505b602082108103612ff057634e487b7160e01b600052602260045260246000fd5b50919050565b601f82111561160457600081815260208120601f850160051c8101602086101561301d5750805b601f850160051c820191505b8181101561303c57828155600101613029565b505050505050565b815167ffffffffffffffff81111561305e5761305e6129b0565b6130728161306c8454612fbc565b84612ff6565b602080601f8311600181146130a7576000841561308f5750858301515b600019600386901b1c1916600185901b17855561303c565b600085815260208120601f198616915b828110156130d6578886015182559484019460019091019084016130b7565b50858210156130f45787850151600019600388901b60f8161c191681555b5050505050600190811b01905550565b6020808252602c908201527f46756e6374696f6e206d7573742062652063616c6c6564207468726f7567682060408201526b19195b1959d85d1958d85b1b60a21b606082015260800190565b6020808252602c908201527f46756e6374696f6e206d7573742062652063616c6c6564207468726f7567682060408201526b6163746976652070726f787960a01b606082015260800190565b600060ff821660ff81036131b2576131b2612ed0565b60010192915050565b808202811582820484141761274157612741612ed0565b6000602082840312156131e457600080fd5b5051919050565b6020808252602b908201527f496e697469616c697a61626c653a20636f6e7472616374206973206e6f74206960408201526a6e697469616c697a696e6760a81b606082015260800190565b600082516132488184602087016128fc565b9190910192915050565b602081526000612760602083018461292056fe360894a13ba1a3210667c828492db98dca3e2076cc3735a920a3ca505d382bbc416464726573733a206c6f772d6c6576656c2064656c65676174652063616c6c206661696c6564a26469706673582212200a7578421e4d3a1589b89fba7b59bc1e3d63712fa4230a2f281ab94438f7dce964736f6c63430008120033",
  "linkReferences": {},
  "deployedLinkReferences": {}
}