{
  "_format": "hh-sol-artifact-1",
  "contractName": "VariablesV1Upgradeable",
  "sourceName": "contracts/VariablesV1Upgradeable.sol",
  "abi": [
    {
      "anonymous": false,
      "inputs": [
        {
          "indexed": false,
          "internalType": "address",
          "name": "previousAdmin",
          "type": "address"
        },
        {
          "indexed": false,
          "internalType": "address",
          "name": "newAdmin",
          "type": "address"
        }
      ],
      "name": "AdminChanged",
      "type": "event"
    },
    {
      "anonymous": false,
      "inputs": [
        {
          "indexed": true,
          "internalType": "address",
          "name": "beacon",
          "type": "address"
        }
      ],
      "name": "BeaconUpgraded",
      "type": "event"
    },
    {
      "anonymous": false,
      "inputs": [
        {
          "indexed": false,
          "internalType": "address",
          "name": "ibpAddress",
          "type": "address"
        }
      ],
      "name": "IBPPromotedByAdmin",
      "type": "event"
    },
    {
      "anonymous": false,
      "inputs": [
        {
          "indexed": false,
          "internalType": "address",
          "name": "ibpAddress",
          "type": "address"
        }
      ],
      "name": "IBPRemovedByAdmin",
      "type": "event"
    },
    {
      "anonymous": false,
      "inputs": [
        {
          "indexed": false,
          "internalType": "uint8",
          "name": "version",
          "type": "uint8"
        }
      ],
      "name": "Initialized",
      "type": "event"
    },
    {
      "anonymous": false,
      "inputs": [
        {
          "indexed": true,
          "internalType": "address",
          "name": "previousOwner",
          "type": "address"
        },
        {
          "indexed": true,
          "internalType": "address",
          "name": "newOwner",
          "type": "address"
        }
      ],
      "name": "OwnershipTransferred",
      "type": "event"
    },
    {
      "anonymous": false,
      "inputs": [
        {
          "indexed": false,
          "internalType": "address",
          "name": "account",
          "type": "address"
        }
      ],
      "name": "Paused",
      "type": "event"
    },
    {
      "anonymous": false,
      "inputs": [
        {
          "indexed": false,
          "internalType": "address",
          "name": "account",
          "type": "address"
        }
      ],
      "name": "Unpaused",
      "type": "event"
    },
    {
      "anonymous": false,
      "inputs": [
        {
          "indexed": true,
          "internalType": "address",
          "name": "implementation",
          "type": "address"
        }
      ],
      "name": "Upgraded",
      "type": "event"
    },
    {
      "inputs": [
        {
          "internalType": "address",
          "name": "_ibpAddress",
          "type": "address"
        }
      ],
      "name": "addIBPAddressAdmin",
      "outputs": [],
      "stateMutability": "nonpayable",
      "type": "function"
    },
    {
      "inputs": [
        {
          "internalType": "address[]",
          "name": "_tokenContractAddress",
          "type": "address[]"
        }
      ],
      "name": "disableSupportedToken",
      "outputs": [],
      "stateMutability": "nonpayable",
      "type": "function"
    },
    {
      "inputs": [],
      "name": "getAdminAddress",
      "outputs": [
        {
          "internalType": "address",
          "name": "",
          "type": "address"
        }
      ],
      "stateMutability": "view",
      "type": "function"
    },
    {
      "inputs": [],
      "name": "getAdminFees",
      "outputs": [
        {
          "internalType": "uint8",
          "name": "",
          "type": "uint8"
        }
      ],
      "stateMutability": "view",
      "type": "function"
    },
    {
      "inputs": [],
      "name": "getBaseCurrencyDecimals",
      "outputs": [
        {
          "internalType": "uint8",
          "name": "",
          "type": "uint8"
        }
      ],
      "stateMutability": "view",
      "type": "function"
    },
    {
      "inputs": [],
      "name": "getCoreMemberRewardRate",
      "outputs": [
        {
          "internalType": "uint8",
          "name": "",
          "type": "uint8"
        }
      ],
      "stateMutability": "view",
      "type": "function"
    },
    {
      "inputs": [],
      "name": "getCoreMembersContractAddress",
      "outputs": [
        {
          "internalType": "address",
          "name": "",
          "type": "address"
        }
      ],
      "stateMutability": "view",
      "type": "function"
    },
    {
      "inputs": [],
      "name": "getGlobalRewardRate",
      "outputs": [
        {
          "internalType": "uint8",
          "name": "",
          "type": "uint8"
        }
      ],
      "stateMutability": "view",
      "type": "function"
    },
    {
      "inputs": [],
      "name": "getIBPList",
      "outputs": [
        {
          "internalType": "address[]",
          "name": "",
          "type": "address[]"
        }
      ],
      "stateMutability": "view",
      "type": "function"
    },
    {
      "inputs": [],
      "name": "getIbpRewardRate",
      "outputs": [
        {
          "internalType": "uint8",
          "name": "",
          "type": "uint8"
        }
      ],
      "stateMutability": "view",
      "type": "function"
    },
    {
      "inputs": [],
      "name": "getIsPayCoreMembersRewards",
      "outputs": [
        {
          "internalType": "bool",
          "name": "",
          "type": "bool"
        }
      ],
      "stateMutability": "view",
      "type": "function"
    },
    {
      "inputs": [],
      "name": "getIsPayGlobalRewards",
      "outputs": [
        {
          "internalType": "bool",
          "name": "",
          "type": "bool"
        }
      ],
      "stateMutability": "view",
      "type": "function"
    },
    {
      "inputs": [],
      "name": "getIsPayIbpRewards",
      "outputs": [
        {
          "internalType": "bool",
          "name": "",
          "type": "bool"
        }
      ],
      "stateMutability": "view",
      "type": "function"
    },
    {
      "inputs": [],
      "name": "getIsPayReferralRewards",
      "outputs": [
        {
          "internalType": "bool",
          "name": "",
          "type": "bool"
        }
      ],
      "stateMutability": "view",
      "type": "function"
    },
    {
      "inputs": [],
      "name": "getIsPayRewardToken",
      "outputs": [
        {
          "internalType": "bool",
          "name": "",
          "type": "bool"
        }
      ],
      "stateMutability": "view",
      "type": "function"
    },
    {
      "inputs": [],
      "name": "getIsPayWeeklyRewards",
      "outputs": [
        {
          "internalType": "bool",
          "name": "",
          "type": "bool"
        }
      ],
      "stateMutability": "view",
      "type": "function"
    },
    {
      "inputs": [],
      "name": "getLevelDecimals",
      "outputs": [
        {
          "internalType": "uint16",
          "name": "",
          "type": "uint16"
        }
      ],
      "stateMutability": "view",
      "type": "function"
    },
    {
      "inputs": [],
      "name": "getLevelRates",
      "outputs": [
        {
          "internalType": "uint16[]",
          "name": "",
          "type": "uint16[]"
        }
      ],
      "stateMutability": "view",
      "type": "function"
    },
    {
      "inputs": [
        {
          "internalType": "uint8",
          "name": "_planId",
          "type": "uint8"
        }
      ],
      "name": "getPlanById",
      "outputs": [
        {
          "components": [
            {
              "internalType": "uint8",
              "name": "planId",
              "type": "uint8"
            },
            {
              "internalType": "string",
              "name": "name",
              "type": "string"
            },
            {
              "internalType": "uint256",
              "name": "value",
              "type": "uint256"
            },
            {
              "internalType": "uint256",
              "name": "maxLimitMultiplier",
              "type": "uint256"
            }
          ],
          "internalType": "struct VariablesV1Upgradeable.PlanStruct",
          "name": "",
          "type": "tuple"
        }
      ],
      "stateMutability": "view",
      "type": "function"
    },
    {
      "inputs": [],
      "name": "getPlansCount",
      "outputs": [
        {
          "internalType": "uint8",
          "name": "planCount",
          "type": "uint8"
        }
      ],
      "stateMutability": "view",
      "type": "function"
    },
    {
      "inputs": [],
      "name": "getPresaleContract",
      "outputs": [
        {
          "internalType": "address",
          "name": "",
          "type": "address"
        }
      ],
      "stateMutability": "view",
      "type": "function"
    },
    {
      "inputs": [],
      "name": "getRewardTokenContract",
      "outputs": [
        {
          "internalType": "address",
          "name": "",
          "type": "address"
        }
      ],
      "stateMutability": "view",
      "type": "function"
    },
    {
      "inputs": [],
      "name": "getRewardTokenRate",
      "outputs": [
        {
          "internalType": "uint8",
          "name": "",
          "type": "uint8"
        }
      ],
      "stateMutability": "view",
      "type": "function"
    },
    {
      "inputs": [
        {
          "internalType": "address",
          "name": "_tokenContractAddress",
          "type": "address"
        }
      ],
      "name": "getSupportedTokenInfo",
      "outputs": [
        {
          "components": [
            {
              "internalType": "address",
              "name": "contractAddress",
              "type": "address"
            },
            {
              "internalType": "string",
              "name": "name",
              "type": "string"
            },
            {
              "internalType": "string",
              "name": "symbol",
              "type": "string"
            },
            {
              "internalType": "uint8",
              "name": "decimals",
              "type": "uint8"
            },
            {
              "internalType": "bool",
              "name": "isStable",
              "type": "bool"
            },
            {
              "internalType": "address",
              "name": "aggregatorAddress",
              "type": "address"
            },
            {
              "internalType": "bool",
              "name": "isEnaled",
              "type": "bool"
            }
          ],
          "internalType": "struct VariablesV1Upgradeable.SupportedTokensStruct",
          "name": "",
          "type": "tuple"
        }
      ],
      "stateMutability": "view",
      "type": "function"
    },
    {
      "inputs": [],
      "name": "getValueBufferRate",
      "outputs": [
        {
          "internalType": "uint8",
          "name": "",
          "type": "uint8"
        }
      ],
      "stateMutability": "view",
      "type": "function"
    },
    {
      "inputs": [],
      "name": "getWeeklyRewardRate",
      "outputs": [
        {
          "internalType": "uint8",
          "name": "",
          "type": "uint8"
        }
      ],
      "stateMutability": "view",
      "type": "function"
    },
    {
      "inputs": [],
      "name": "initialize",
      "outputs": [],
      "stateMutability": "nonpayable",
      "type": "function"
    },
    {
      "inputs": [
        {
          "internalType": "address",
          "name": "_ibpAddress",
          "type": "address"
        }
      ],
      "name": "isIBP",
      "outputs": [
        {
          "internalType": "bool",
          "name": "",
          "type": "bool"
        }
      ],
      "stateMutability": "view",
      "type": "function"
    },
    {
      "inputs": [
        {
          "internalType": "address",
          "name": "_tokenContractAddress",
          "type": "address"
        }
      ],
      "name": "isTokenSupported",
      "outputs": [
        {
          "internalType": "bool",
          "name": "",
          "type": "bool"
        }
      ],
      "stateMutability": "view",
      "type": "function"
    },
    {
      "inputs": [],
      "name": "owner",
      "outputs": [
        {
          "internalType": "address",
          "name": "",
          "type": "address"
        }
      ],
      "stateMutability": "view",
      "type": "function"
    },
    {
      "inputs": [],
      "name": "pause",
      "outputs": [],
      "stateMutability": "nonpayable",
      "type": "function"
    },
    {
      "inputs": [],
      "name": "paused",
      "outputs": [
        {
          "internalType": "bool",
          "name": "",
          "type": "bool"
        }
      ],
      "stateMutability": "view",
      "type": "function"
    },
    {
      "inputs": [],
      "name": "proxiableUUID",
      "outputs": [
        {
          "internalType": "bytes32",
          "name": "",
          "type": "bytes32"
        }
      ],
      "stateMutability": "view",
      "type": "function"
    },
    {
      "inputs": [
        {
          "internalType": "address",
          "name": "_tokenContractAddress",
          "type": "address"
        },
        {
          "internalType": "bool",
          "name": "_isStable",
          "type": "bool"
        },
        {
          "internalType": "address",
          "name": "_aggregatorContractAddress",
          "type": "address"
        }
      ],
      "name": "pushSupportedTokenToList",
      "outputs": [],
      "stateMutability": "nonpayable",
      "type": "function"
    },
    {
      "inputs": [
        {
          "internalType": "address",
          "name": "_ibpAddress",
          "type": "address"
        }
      ],
      "name": "removeIBPAddressAdmin",
      "outputs": [],
      "stateMutability": "nonpayable",
      "type": "function"
    },
    {
      "inputs": [],
      "name": "renounceOwnership",
      "outputs": [],
      "stateMutability": "nonpayable",
      "type": "function"
    },
    {
      "inputs": [
        {
          "internalType": "address",
          "name": "adminAddress",
          "type": "address"
        }
      ],
      "name": "setAdminAddress",
      "outputs": [],
      "stateMutability": "nonpayable",
      "type": "function"
    },
    {
      "inputs": [
        {
          "internalType": "uint8",
          "name": "fees",
          "type": "uint8"
        }
      ],
      "name": "setAdminFees",
      "outputs": [],
      "stateMutability": "nonpayable",
      "type": "function"
    },
    {
      "inputs": [
        {
          "internalType": "uint8",
          "name": "decimals",
          "type": "uint8"
        }
      ],
      "name": "setBaseCurrencyDecimals",
      "outputs": [],
      "stateMutability": "nonpayable",
      "type": "function"
    },
    {
      "inputs": [
        {
          "internalType": "uint8",
          "name": "rate",
          "type": "uint8"
        }
      ],
      "name": "setCoreMemberRewardRate",
      "outputs": [],
      "stateMutability": "nonpayable",
      "type": "function"
    },
    {
      "inputs": [
        {
          "internalType": "address",
          "name": "_address",
          "type": "address"
        }
      ],
      "name": "setCoreMembersContractAddress",
      "outputs": [],
      "stateMutability": "nonpayable",
      "type": "function"
    },
    {
      "inputs": [
        {
          "internalType": "uint8",
          "name": "rate",
          "type": "uint8"
        }
      ],
      "name": "setGlobalRewardRate",
      "outputs": [],
      "stateMutability": "nonpayable",
      "type": "function"
    },
    {
      "inputs": [
        {
          "internalType": "uint8",
          "name": "rate",
          "type": "uint8"
        }
      ],
      "name": "setIbpRewardRate",
      "outputs": [],
      "stateMutability": "nonpayable",
      "type": "function"
    },
    {
      "inputs": [
        {
          "internalType": "bool",
          "name": "value",
          "type": "bool"
        }
      ],
      "name": "setIsPayCoreMembersRewards",
      "outputs": [],
      "stateMutability": "nonpayable",
      "type": "function"
    },
    {
      "inputs": [
        {
          "internalType": "bool",
          "name": "value",
          "type": "bool"
        }
      ],
      "name": "setIsPayGlobalRewards",
      "outputs": [],
      "stateMutability": "nonpayable",
      "type": "function"
    },
    {
      "inputs": [
        {
          "internalType": "bool",
          "name": "value",
          "type": "bool"
        }
      ],
      "name": "setIsPayIbpRewards",
      "outputs": [],
      "stateMutability": "nonpayable",
      "type": "function"
    },
    {
      "inputs": [
        {
          "internalType": "bool",
          "name": "value",
          "type": "bool"
        }
      ],
      "name": "setIsPayReferralRewards",
      "outputs": [],
      "stateMutability": "nonpayable",
      "type": "function"
    },
    {
      "inputs": [
        {
          "internalType": "bool",
          "name": "isPay",
          "type": "bool"
        }
      ],
      "name": "setIsPayRewardToken",
      "outputs": [],
      "stateMutability": "nonpayable",
      "type": "function"
    },
    {
      "inputs": [
        {
          "internalType": "bool",
          "name": "value",
          "type": "bool"
        }
      ],
      "name": "setIsPayWeeklyRewards",
      "outputs": [],
      "stateMutability": "nonpayable",
      "type": "function"
    },
    {
      "inputs": [
        {
          "internalType": "uint16",
          "name": "decimals",
          "type": "uint16"
        }
      ],
      "name": "setLevelDecimals",
      "outputs": [],
      "stateMutability": "nonpayable",
      "type": "function"
    },
    {
      "inputs": [
        {
          "internalType": "uint16[]",
          "name": "rates",
          "type": "uint16[]"
        }
      ],
      "name": "setLevelRates",
      "outputs": [],
      "stateMutability": "nonpayable",
      "type": "function"
    },
    {
      "inputs": [
        {
          "internalType": "uint8[]",
          "name": "planId",
          "type": "uint8[]"
        },
        {
          "internalType": "string[]",
          "name": "name",
          "type": "string[]"
        },
        {
          "internalType": "uint256[]",
          "name": "valueInDecimals",
          "type": "uint256[]"
        },
        {
          "internalType": "uint256[]",
          "name": "maxLimitMultiplier",
          "type": "uint256[]"
        }
      ],
      "name": "setPlans",
      "outputs": [],
      "stateMutability": "nonpayable",
      "type": "function"
    },
    {
      "inputs": [
        {
          "internalType": "address",
          "name": "_contractAddress",
          "type": "address"
        }
      ],
      "name": "setPresaleContract",
      "outputs": [],
      "stateMutability": "nonpayable",
      "type": "function"
    },
    {
      "inputs": [
        {
          "internalType": "address",
          "name": "tokenContract",
          "type": "address"
        }
      ],
      "name": "setRewardTokenContract",
      "outputs": [],
      "stateMutability": "nonpayable",
      "type": "function"
    },
    {
      "inputs": [
        {
          "internalType": "uint8",
          "name": "_rewardRatePer",
          "type": "uint8"
        }
      ],
      "name": "setRewardTokenRate",
      "outputs": [],
      "stateMutability": "nonpayable",
      "type": "function"
    },
    {
      "inputs": [
        {
          "internalType": "uint8",
          "name": "rate",
          "type": "uint8"
        }
      ],
      "name": "setValueBufferRate",
      "outputs": [],
      "stateMutability": "nonpayable",
      "type": "function"
    },
    {
      "inputs": [
        {
          "internalType": "uint8",
          "name": "rate",
          "type": "uint8"
        }
      ],
      "name": "setWeeklyRewardRate",
      "outputs": [],
      "stateMutability": "nonpayable",
      "type": "function"
    },
    {
      "inputs": [
        {
          "internalType": "uint256",
          "name": "",
          "type": "uint256"
        }
      ],
      "name": "supportedTokensList",
      "outputs": [
        {
          "internalType": "address",
          "name": "",
          "type": "address"
        }
      ],
      "stateMutability": "view",
      "type": "function"
    },
    {
      "inputs": [
        {
          "internalType": "address",
          "name": "newOwner",
          "type": "address"
        }
      ],
      "name": "transferOwnership",
      "outputs": [],
      "stateMutability": "nonpayable",
      "type": "function"
    },
    {
      "inputs": [],
      "name": "unpause",
      "outputs": [],
      "stateMutability": "nonpayable",
      "type": "function"
    },
    {
      "inputs": [
        {
          "internalType": "address",
          "name": "newImplementation",
          "type": "address"
        }
      ],
      "name": "upgradeTo",
      "outputs": [],
      "stateMutability": "nonpayable",
      "type": "function"
    },
    {
      "inputs": [
        {
          "internalType": "address",
          "name": "newImplementation",
          "type": "address"
        },
        {
          "internalType": "bytes",
          "name": "data",
          "type": "bytes"
        }
      ],
      "name": "upgradeToAndCall",
      "outputs": [],
      "stateMutability": "payable",
      "type": "function"
    }
  ],
  "bytecode": "0x60a06040523060805234801561001457600080fd5b506080516131e661004c6000396000818161118b015281816111d4015281816112d10152818161131101526113a001526131e66000f3fe6080604052600436106103ac5760003560e01c8063916452ab116101e7578063b7a266201161010d578063e7016717116100a0578063f1012b451161006f578063f1012b4514610b34578063f2a9012114610b52578063f2fde38b14610b72578063ffc43f8f14610b9257600080fd5b8063e701671714610aa2578063e74af32e14610ac4578063e7cca9c714610af1578063eb758bc714610b1457600080fd5b8063d54fcd93116100dc578063d54fcd9314610a24578063e091099c14610a44578063e179719a14610a63578063e371c5c514610a8257600080fd5b8063b7a26620146109a5578063b9cd1a50146109c5578063bcb03b57146109e6578063c391d63614610a0657600080fd5b8063a61a4ff311610185578063acc9186511610154578063acc9186514610931578063af2d4d0914610946578063b2e6b91214610966578063b64435621461098557600080fd5b8063a61a4ff3146108b1578063a646e845146108d1578063a9bbd114146108f1578063ac40e3091461091157600080fd5b806394debf48116101c157806394debf48146108325780639f6d887014610852578063a43ae40814610871578063a46868f01461089157600080fd5b8063916452ab146107d1578063918a54db146107f057806393cee9c91461081257600080fd5b80634f1ef286116102d757806365eb204d1161026a5780638129fc1c116102395780638129fc1c146107695780638456cb591461077e578063880c0ec3146107935780638da5cb5b146107b357600080fd5b806365eb204d146106d15780636cf3c676146106f0578063715018a61461071057806375151b631461072557600080fd5b80635c975abb116102a65780635c975abb146106425780635d9bed631461065a5780635f3ad6e21461067a57806363c918771461069957600080fd5b80634f1ef286146105cd57806352d1902d146105e05780635397b86d1461060357806357b888051461062257600080fd5b80632c1e816d1161034f57806339e0dcfa1161031e57806339e0dcfa146105595780633f4ba83a146105795780633fae6a111461058e5780634ccebd50146105ad57600080fd5b80632c1e816d146104b25780632f8c7e72146104d25780633238c16f1461050c5780633659cfe61461053957600080fd5b80630efc12b11161038b5780630efc12b11461041357806316dd07e0146104495780631f1eeec8146104745780632b70c02c1461049357600080fd5b8062b29290146103b1578063051ff2b9146103d357806308fcfbbe146103f3575b600080fd5b3480156103bd57600080fd5b506103d16103cc366004612766565b610bb4565b005b3480156103df57600080fd5b506103d16103ee366004612791565b610d91565b3480156103ff57600080fd5b506103d161040e366004612766565b611022565b34801561041f57600080fd5b5061043361042e3660046127e3565b61104d565b6040516104409190612850565b60405180910390f35b34801561045557600080fd5b5060fc54600160681b900460ff165b6040519015158152602001610440565b34801561048057600080fd5b5060fc54600160601b900460ff16610464565b34801561049f57600080fd5b5060fc54600160501b900460ff16610464565b3480156104be57600080fd5b506103d16104cd366004612766565b611156565b3480156104de57600080fd5b506104646104ed366004612766565b6001600160a01b03166000908152610108602052604090205460ff1690565b34801561051857600080fd5b5060fc54600160401b900460ff165b60405160ff9091168152602001610440565b34801561054557600080fd5b506103d1610554366004612766565b611181565b34801561056557600080fd5b506103d1610574366004612899565b611269565b34801561058557600080fd5b506103d161128f565b34801561059a57600080fd5b5060fc54600160581b900460ff16610464565b3480156105b957600080fd5b506103d16105c8366004612899565b6112a1565b6103d16105db366004612961565b6112c7565b3480156105ec57600080fd5b506105f5611393565b604051908152602001610440565b34801561060f57600080fd5b5060fc54600160381b900460ff16610527565b34801561062e57600080fd5b506103d161063d366004612a0f565b611446565b34801561064e57600080fd5b5060335460ff16610464565b34801561066657600080fd5b506103d1610675366004612899565b611538565b34801561068657600080fd5b5060fc546301000000900460ff16610527565b3480156106a557600080fd5b506106b96106b4366004612a51565b61155e565b6040516001600160a01b039091168152602001610440565b3480156106dd57600080fd5b50610103546001600160a01b03166106b9565b3480156106fc57600080fd5b506103d161070b3660046127e3565b611588565b34801561071c57600080fd5b506103d16115b5565b34801561073157600080fd5b50610464610740366004612766565b6001600160a01b031660009081526101076020526040902060030154600160b01b900460ff1690565b34801561077557600080fd5b506103d16115c7565b34801561078a57600080fd5b506103d16117d2565b34801561079f57600080fd5b506103d16107ae3660046127e3565b6117e2565b3480156107bf57600080fd5b506065546001600160a01b03166106b9565b3480156107dd57600080fd5b50610104546001600160a01b03166106b9565b3480156107fc57600080fd5b50610805611810565b6040516104409190612a6a565b34801561081e57600080fd5b506103d161082d366004612899565b611890565b34801561083e57600080fd5b506103d161084d3660046127e3565b6118b6565b34801561085e57600080fd5b5060fc54600160701b900460ff16610464565b34801561087d57600080fd5b506103d161088c366004612ac4565b6118de565b34801561089d57600080fd5b5060fc54640100000000900460ff16610527565b3480156108bd57600080fd5b506103d16108cc3660046127e3565b6118fe565b3480156108dd57600080fd5b506103d16108ec3660046127e3565b611924565b3480156108fd57600080fd5b506103d161090c366004612766565b611950565b34801561091d57600080fd5b506103d161092c3660046127e3565b61197a565b34801561093d57600080fd5b506105276119a6565b34801561095257600080fd5b506103d16109613660046127e3565b6119f6565b34801561097257600080fd5b50610105546001600160a01b03166106b9565b34801561099157600080fd5b506103d16109a0366004612899565b611a20565b3480156109b157600080fd5b506103d16109c03660046127e3565b611a46565b3480156109d157600080fd5b5060fc5465010000000000900460ff16610527565b3480156109f257600080fd5b506103d1610a01366004612b03565b611a74565b348015610a1257600080fd5b5060fc5462010000900460ff16610527565b348015610a3057600080fd5b506103d1610a3f366004612c4d565b611c50565b348015610a5057600080fd5b5060fc54600160481b900460ff16610527565b348015610a6f57600080fd5b5060fc54600160781b900460ff16610464565b348015610a8e57600080fd5b506103d1610a9d366004612766565b611c6b565b348015610aae57600080fd5b5060fc546601000000000000900460ff16610527565b348015610ad057600080fd5b50610ae4610adf366004612766565b611d33565b6040516104409190612ce5565b348015610afd57600080fd5b5060fc5460405161ffff9091168152602001610440565b348015610b2057600080fd5b506103d1610b2f366004612899565b611f07565b348015610b4057600080fd5b5060ff546001600160a01b03166106b9565b348015610b5e57600080fd5b506103d1610b6d366004612766565b611f2d565b348015610b7e57600080fd5b506103d1610b8d366004612766565b611f58565b348015610b9e57600080fd5b50610ba7611fce565b6040516104409190612d7d565b610bbc61202f565b6001600160a01b0381166000908152610108602052604090205460ff168015610d8d576001600160a01b038216600090815261010860209081526040808320805460ff1916905560fe80548251818502810185019093528083529192909190830182828015610c5457602002820191906000526020600020905b81546001600160a01b03168152600190910190602001808311610c36575b5050505050905060005b8151811015610d8a57836001600160a01b0316828281518110610c8357610c83612dbe565b60200260200101516001600160a01b031603610d78578160018351610ca89190612dea565b81518110610cb857610cb8612dbe565b602002602001015160fe8281548110610cd357610cd3612dbe565b9060005260206000200160006101000a8154816001600160a01b0302191690836001600160a01b0316021790555060fe805480610d1257610d12612dfd565b6000828152602090819020600019908301810180546001600160a01b03191690559091019091556040516001600160a01b03861681527f337eeb0192a31dfc3c61aff0be47a571a126a9e3f1caaee4af8c29babbb477e9910160405180910390a1610d8a565b80610d8281612e13565b915050610c5e565b50505b5050565b610d9961202f565b6040518060e00160405280846001600160a01b03168152602001846001600160a01b03166306fdde036040518163ffffffff1660e01b8152600401600060405180830381865afa158015610df1573d6000803e3d6000fd5b505050506040513d6000823e601f3d908101601f19168201604052610e199190810190612e2c565b8152602001846001600160a01b03166395d89b416040518163ffffffff1660e01b8152600401600060405180830381865afa158015610e5c573d6000803e3d6000fd5b505050506040513d6000823e601f3d908101601f19168201604052610e849190810190612e2c565b8152602001846001600160a01b031663313ce5676040518163ffffffff1660e01b8152600401602060405180830381865afa158015610ec7573d6000803e3d6000fd5b505050506040513d601f19601f82011682018060405250810190610eeb9190612ea3565b60ff1681528315156020808301919091526001600160a01b03848116604080850191909152600160609094018490528782166000908152610107845220845181546001600160a01b0319169216919091178155908301519091820190610f519082612f48565b5060408201516002820190610f669082612f48565b50606082015160039091018054608084015160a085015160c0909501511515600160b01b0260ff60b01b196001600160a01b0396871662010000021662010000600160b81b03199215156101000261ffff1990941660ff9096169590951792909217169290921791909117905560fd80546001810182556000919091527f9346ac6dd7de6b96975fec380d4d994c4c12e6a8897544f22915316cc6cca280018054949091166001600160a01b0319909416939093179092555050565b61102a61202f565b61010380546001600160a01b0319166001600160a01b0392909216919091179055565b61107b6040518060800160405280600060ff1681526020016060815260200160008152602001600081525090565b60ff8083166000908152610106602090815260409182902082516080810190935280549093168252600183018054929392918401916110b990612ec0565b80601f01602080910402602001604051908101604052809291908181526020018280546110e590612ec0565b80156111325780601f1061110757610100808354040283529160200191611132565b820191906000526020600020905b81548152906001019060200180831161111557829003601f168201915b50505050508152602001600282015481526020016003820154815250509050919050565b61115e61202f565b61010580546001600160a01b0319166001600160a01b0392909216919091179055565b6001600160a01b037f00000000000000000000000000000000000000000000000000000000000000001630036111d25760405162461bcd60e51b81526004016111c990613008565b60405180910390fd5b7f00000000000000000000000000000000000000000000000000000000000000006001600160a01b031661121b60008051602061316a833981519152546001600160a01b031690565b6001600160a01b0316146112415760405162461bcd60e51b81526004016111c990613054565b61124a81612089565b6040805160008082526020820190925261126691839190612091565b50565b61127161202f565b60fc8054911515600160681b0260ff60681b19909216919091179055565b61129761202f565b61129f6121fc565b565b6112a961202f565b60fc8054911515600160781b0260ff60781b19909216919091179055565b6001600160a01b037f000000000000000000000000000000000000000000000000000000000000000016300361130f5760405162461bcd60e51b81526004016111c990613008565b7f00000000000000000000000000000000000000000000000000000000000000006001600160a01b031661135860008051602061316a833981519152546001600160a01b031690565b6001600160a01b03161461137e5760405162461bcd60e51b81526004016111c990613054565b61138782612089565b610d8d82826001612091565b6000306001600160a01b037f000000000000000000000000000000000000000000000000000000000000000016146114335760405162461bcd60e51b815260206004820152603860248201527f555550535570677261646561626c653a206d757374206e6f742062652063616c60448201527f6c6564207468726f7567682064656c656761746563616c6c000000000000000060648201526084016111c9565b5060008051602061316a83398151915290565b61144e61202f565b60005b60ff8116821115611533576000610107600085858560ff1681811061147857611478612dbe565b905060200201602081019061148d9190612766565b6001600160a01b0316815260208101919091526040016000206003018054911515600160b01b0260ff60b01b1990921691909117905560fd838360ff84168181106114da576114da612dbe565b90506020020160208101906114ef9190612766565b81546001810183556000928352602090922090910180546001600160a01b0319166001600160a01b039092169190911790558061152b816130a0565b915050611451565b505050565b61154061202f565b60fc8054911515600160701b0260ff60701b19909216919091179055565b60fd818154811061156e57600080fd5b6000918252602090912001546001600160a01b0316905081565b61159061202f565b60fc805460ff909216600160401b0268ff000000000000000019909216919091179055565b6115bd61202f565b61129f600061224e565b600054610100900460ff16158080156115e75750600054600160ff909116105b806116015750303b158015611601575060005460ff166001145b6116645760405162461bcd60e51b815260206004820152602e60248201527f496e697469616c697a61626c653a20636f6e747261637420697320616c72656160448201526d191e481a5b9a5d1a585b1a5e995960921b60648201526084016111c9565b6000805460ff191660011790558015611687576000805461ff0019166101001790555b604080516101408101825261138881526101f460208201526101909181019190915261012c606082015260c86080820152606460a0820181905260c0820152607d60e0820181905261010082015260966101208201526116eb9060fb90600a612695565b5060fc805461010380546001600160a01b0319908116737f9fd63932babc508fad2f324eb534d09cfe86f0179091556f010101010101030302050a0a0a0027106fffffffffffffffffffffffffff00ffff19909216919091179091556101048054821673efb61c43c70b60563c1a2a835663c63ecc93f6ba17905561010580549091163317905561177a6122a0565b6117826122cf565b61178a6122fe565b8015611266576000805461ff0019169055604051600181527f7f26b83ff96e1f2b6a682f133852f6798a09c465da95921460cefb38474024989060200160405180910390a150565b6117da61202f565b61129f612325565b6117ea61202f565b60fc805460ff90921666010000000000000266ff00000000000019909216919091179055565b606060fb80548060200260200160405190810160405280929190818152602001828054801561188657602002820191906000526020600020906000905b82829054906101000a900461ffff1661ffff168152602001906002019060208260010104928301926001038202915080841161184d5790505b5050505050905090565b61189861202f565b60fc8054911515600160601b0260ff60601b19909216919091179055565b6118be61202f565b60fc805460ff90921663010000000263ff00000019909216919091179055565b6118e661202f565b60fc805461ffff191661ffff92909216919091179055565b61190661202f565b60fc805460ff909216620100000262ff000019909216919091179055565b61192c61202f565b60fc805460ff909216600160381b0267ff0000000000000019909216919091179055565b61195861202f565b60ff80546001600160a01b0319166001600160a01b0392909216919091179055565b61198261202f565b60fc805460ff909216650100000000000265ff000000000019909216919091179055565b6000805b60148160ff1610156119f25760ff811660009081526101066020526040902060020154156119e057816119dc816130a0565b9250505b806119ea816130a0565b9150506119aa565b5090565b6119fe61202f565b60fc805460ff9092166401000000000264ff0000000019909216919091179055565b611a2861202f565b60fc8054911515600160581b0260ff60581b19909216919091179055565b611a4e61202f565b60fc805460ff909216600160481b0269ff00000000000000000019909216919091179055565b611a7c61202f565b60005b86811015611c4657878782818110611a9957611a99612dbe565b9050602002016020810190611aae91906127e3565b61010660008a8a85818110611ac557611ac5612dbe565b9050602002016020810190611ada91906127e3565b60ff90811682526020820192909252604001600020805460ff1916929091169190911790558551869082908110611b1357611b13612dbe565b602002602001015161010660008a8a85818110611b3257611b32612dbe565b9050602002016020810190611b4791906127e3565b60ff168152602081019190915260400160002060010190611b689082612f48565b50848482818110611b7b57611b7b612dbe565b90506020020135670de0b6b3a7640000611b9591906130bf565b61010660008a8a85818110611bac57611bac612dbe565b9050602002016020810190611bc191906127e3565b60ff168152602081019190915260400160002060020155828282818110611bea57611bea612dbe565b9050602002013561010660008a8a85818110611c0857611c08612dbe565b9050602002016020810190611c1d91906127e3565b60ff16815260208101919091526040016000206003015580611c3e81612e13565b915050611a7f565b5050505050505050565b611c5861202f565b8051610d8d9060fb906020840190612695565b611c7361202f565b6001600160a01b0381166000908152610108602052604090205460ff1680610d8d576001600160a01b038216600081815261010860209081526040808320805460ff1916600190811790915560fe805491820181559093527f54075df80ec1ae6ac9100e1fd0ebf3246c17f5c933137af392011f4c5f61513a90920180546001600160a01b0319168417905590519182527fe30f8cb0d8cbc7c0e95d5aaa3107ce401738ce4bc98a05dd081bb2a77a9ca749910160405180910390a15050565b6040805160e080820183526000808352606060208085018290528486018290529084018290526080840182905260a0840182905260c084018290526001600160a01b0386811683526101078252918590208551938401909552845490911682526001840180549394929391840191611daa90612ec0565b80601f0160208091040260200160405190810160405280929190818152602001828054611dd690612ec0565b8015611e235780601f10611df857610100808354040283529160200191611e23565b820191906000526020600020905b815481529060010190602001808311611e0657829003601f168201915b50505050508152602001600282018054611e3c90612ec0565b80601f0160208091040260200160405190810160405280929190818152602001828054611e6890612ec0565b8015611eb55780601f10611e8a57610100808354040283529160200191611eb5565b820191906000526020600020905b815481529060010190602001808311611e9857829003601f168201915b50505091835250506003919091015460ff808216602084015261010082048116151560408401526001600160a01b03620100008304166060840152600160b01b90910416151560809091015292915050565b611f0f61202f565b60fc8054911515600160501b0260ff60501b19909216919091179055565b611f3561202f565b61010480546001600160a01b0319166001600160a01b0392909216919091179055565b611f6061202f565b6001600160a01b038116611fc55760405162461bcd60e51b815260206004820152602660248201527f4f776e61626c653a206e6577206f776e657220697320746865207a65726f206160448201526564647265737360d01b60648201526084016111c9565b6112668161224e565b606060fe80548060200260200160405190810160405280929190818152602001828054801561188657602002820191906000526020600020905b81546001600160a01b03168152600190910190602001808311612008575050505050905090565b6065546001600160a01b0316331461129f5760405162461bcd60e51b815260206004820181905260248201527f4f776e61626c653a2063616c6c6572206973206e6f7420746865206f776e657260448201526064016111c9565b61126661202f565b7f4910fdfa16fed3260ed0e7147f7cc6da11a60208b5b9406d12a635614ffd91435460ff16156120c45761153383612362565b826001600160a01b03166352d1902d6040518163ffffffff1660e01b8152600401602060405180830381865afa92505050801561211e575060408051601f3d908101601f1916820190925261211b918101906130d6565b60015b6121815760405162461bcd60e51b815260206004820152602e60248201527f45524331393637557067726164653a206e657720696d706c656d656e7461746960448201526d6f6e206973206e6f74205555505360901b60648201526084016111c9565b60008051602061316a83398151915281146121f05760405162461bcd60e51b815260206004820152602960248201527f45524331393637557067726164653a20756e737570706f727465642070726f786044820152681a58589b195555525160ba1b60648201526084016111c9565b506115338383836123fe565b612204612423565b6033805460ff191690557f5db9ee0a495bf2e6ff9c91a7834c1ba4fdd244a5e8aa4e537bd38aeae4b073aa335b6040516001600160a01b03909116815260200160405180910390a1565b606580546001600160a01b038381166001600160a01b0319831681179093556040519116919082907f8be0079c531659141344cd1fd0a4f28419497f9722a3daafe3b4186f6b6457e090600090a35050565b600054610100900460ff166122c75760405162461bcd60e51b81526004016111c9906130ef565b61129f61246c565b600054610100900460ff166122f65760405162461bcd60e51b81526004016111c9906130ef565b61129f61249f565b600054610100900460ff1661129f5760405162461bcd60e51b81526004016111c9906130ef565b61232d6124cf565b6033805460ff191660011790557f62e78cea01bee320cd4e420270b5ea74000d11b0c9f74754ebdbfc544b05a2586122313390565b6001600160a01b0381163b6123cf5760405162461bcd60e51b815260206004820152602d60248201527f455243313936373a206e657720696d706c656d656e746174696f6e206973206e60448201526c1bdd08184818dbdb9d1c9858dd609a1b60648201526084016111c9565b60008051602061316a83398151915280546001600160a01b0319166001600160a01b0392909216919091179055565b61240783612515565b6000825111806124145750805b1561153357610d8a8383612555565b60335460ff1661129f5760405162461bcd60e51b815260206004820152601460248201527314185d5cd8589b194e881b9bdd081c185d5cd95960621b60448201526064016111c9565b600054610100900460ff166124935760405162461bcd60e51b81526004016111c9906130ef565b6033805460ff19169055565b600054610100900460ff166124c65760405162461bcd60e51b81526004016111c9906130ef565b61129f3361224e565b60335460ff161561129f5760405162461bcd60e51b815260206004820152601060248201526f14185d5cd8589b194e881c185d5cd95960821b60448201526064016111c9565b61251e81612362565b6040516001600160a01b038216907fbc7cd75a20ee27fd9adebab32041f755214dbc6bffa90cc0225b39da2e5c2d3b90600090a250565b60606001600160a01b0383163b6125bd5760405162461bcd60e51b815260206004820152602660248201527f416464726573733a2064656c65676174652063616c6c20746f206e6f6e2d636f6044820152651b9d1c9858dd60d21b60648201526084016111c9565b600080846001600160a01b0316846040516125d8919061313a565b600060405180830381855af49150503d8060008114612613576040519150601f19603f3d011682016040523d82523d6000602084013e612618565b606091505b5091509150612640828260405180606001604052806027815260200161318a6027913961264b565b925050505b92915050565b6060831561265a575081612664565b612664838361266b565b9392505050565b81511561267b5781518083602001fd5b8060405162461bcd60e51b81526004016111c99190613156565b82805482825590600052602060002090600f0160109004810192821561272e5791602002820160005b838211156126fe57835183826101000a81548161ffff021916908361ffff16021790555092602001926002016020816001010492830192600103026126be565b801561272c5782816101000a81549061ffff02191690556002016020816001010492830192600103026126fe565b505b506119f29291505b808211156119f25760008155600101612736565b80356001600160a01b038116811461276157600080fd5b919050565b60006020828403121561277857600080fd5b6126648261274a565b8035801515811461276157600080fd5b6000806000606084860312156127a657600080fd5b6127af8461274a565b92506127bd60208501612781565b91506127cb6040850161274a565b90509250925092565b60ff8116811461126657600080fd5b6000602082840312156127f557600080fd5b8135612664816127d4565b60005b8381101561281b578181015183820152602001612803565b50506000910152565b6000815180845261283c816020860160208601612800565b601f01601f19169290920160200192915050565b6020815260ff8251166020820152600060208301516080604084015261287960a0840182612824565b905060408401516060840152606084015160808401528091505092915050565b6000602082840312156128ab57600080fd5b61266482612781565b634e487b7160e01b600052604160045260246000fd5b604051601f8201601f1916810167ffffffffffffffff811182821017156128f3576128f36128b4565b604052919050565b600067ffffffffffffffff821115612915576129156128b4565b50601f01601f191660200190565b6000612936612931846128fb565b6128ca565b905082815283838301111561294a57600080fd5b828260208301376000602084830101529392505050565b6000806040838503121561297457600080fd5b61297d8361274a565b9150602083013567ffffffffffffffff81111561299957600080fd5b8301601f810185136129aa57600080fd5b6129b985823560208401612923565b9150509250929050565b60008083601f8401126129d557600080fd5b50813567ffffffffffffffff8111156129ed57600080fd5b6020830191508360208260051b8501011115612a0857600080fd5b9250929050565b60008060208385031215612a2257600080fd5b823567ffffffffffffffff811115612a3957600080fd5b612a45858286016129c3565b90969095509350505050565b600060208284031215612a6357600080fd5b5035919050565b6020808252825182820181905260009190848201906040850190845b81811015612aa657835161ffff1683529284019291840191600101612a86565b50909695505050505050565b803561ffff8116811461276157600080fd5b600060208284031215612ad657600080fd5b61266482612ab2565b600067ffffffffffffffff821115612af957612af96128b4565b5060051b60200190565b60008060008060008060006080888a031215612b1e57600080fd5b67ffffffffffffffff8089351115612b3557600080fd5b612b428a8a358b016129c3565b90985096506020890135811015612b5857600080fd5b602089013589018a601f820112612b6e57600080fd5b612b7b6129318235612adf565b81358082526020808301929160051b8401018d811115612b9a57600080fd5b602084015b81811015612beb578581351115612bb557600080fd5b8e603f823587010112612bc757600080fd5b612bdd8f82358701602081013590604001612923565b845260209384019301612b9f565b50508098505050508060408a01351115612c0457600080fd5b612c148a60408b01358b016129c3565b90955093506060890135811015612c2a57600080fd5b50612c3b8960608a01358a016129c3565b979a9699509497509295919491925050565b60006020808385031215612c6057600080fd5b823567ffffffffffffffff811115612c7757600080fd5b8301601f81018513612c8857600080fd5b8035612c9661293182612adf565b81815260059190911b82018301908381019087831115612cb557600080fd5b928401925b82841015612cda57612ccb84612ab2565b82529284019290840190612cba565b979650505050505050565b602080825282516001600160a01b03168282015282015160e06040830152600090612d14610100840182612824565b90506040840151601f19848303016060850152612d318282612824565b91505060ff60608501511660808401526080840151151560a084015260a0840151612d6760c08501826001600160a01b03169052565b5060c084015180151560e0850152509392505050565b6020808252825182820181905260009190848201906040850190845b81811015612aa65783516001600160a01b031683529284019291840191600101612d99565b634e487b7160e01b600052603260045260246000fd5b634e487b7160e01b600052601160045260246000fd5b8181038181111561264557612645612dd4565b634e487b7160e01b600052603160045260246000fd5b600060018201612e2557612e25612dd4565b5060010190565b600060208284031215612e3e57600080fd5b815167ffffffffffffffff811115612e5557600080fd5b8201601f81018413612e6657600080fd5b8051612e74612931826128fb565b818152856020838501011115612e8957600080fd5b612e9a826020830160208601612800565b95945050505050565b600060208284031215612eb557600080fd5b8151612664816127d4565b600181811c90821680612ed457607f821691505b602082108103612ef457634e487b7160e01b600052602260045260246000fd5b50919050565b601f82111561153357600081815260208120601f850160051c81016020861015612f215750805b601f850160051c820191505b81811015612f4057828155600101612f2d565b505050505050565b815167ffffffffffffffff811115612f6257612f626128b4565b612f7681612f708454612ec0565b84612efa565b602080601f831160018114612fab5760008415612f935750858301515b600019600386901b1c1916600185901b178555612f40565b600085815260208120601f198616915b82811015612fda57888601518255948401946001909101908401612fbb565b5085821015612ff85787850151600019600388901b60f8161c191681555b5050505050600190811b01905550565b6020808252602c908201527f46756e6374696f6e206d7573742062652063616c6c6564207468726f7567682060408201526b19195b1959d85d1958d85b1b60a21b606082015260800190565b6020808252602c908201527f46756e6374696f6e206d7573742062652063616c6c6564207468726f7567682060408201526b6163746976652070726f787960a01b606082015260800190565b600060ff821660ff81036130b6576130b6612dd4565b60010192915050565b808202811582820484141761264557612645612dd4565b6000602082840312156130e857600080fd5b5051919050565b6020808252602b908201527f496e697469616c697a61626c653a20636f6e7472616374206973206e6f74206960408201526a6e697469616c697a696e6760a81b606082015260800190565b6000825161314c818460208701612800565b9190910192915050565b602081526000612664602083018461282456fe360894a13ba1a3210667c828492db98dca3e2076cc3735a920a3ca505d382bbc416464726573733a206c6f772d6c6576656c2064656c65676174652063616c6c206661696c6564a264697066735822122070a1d3c1b013fa365a8df373f98c28c808d0e05f44d8fe49c10c86380d3e9b9764736f6c63430008120033",
  "linkReferences": {},
  "deployedLinkReferences": {}
}