{
  "_format": "hh-sol-artifact-1",
  "contractName": "VariablesV1Upgradeable",
  "sourceName": "contracts/VariablesV1Upgradeable.sol",
  "abi": [
    {
      "anonymous": false,
      "inputs": [
        {
          "indexed": false,
          "internalType": "address",
          "name": "previousAdmin",
          "type": "address"
        },
        {
          "indexed": false,
          "internalType": "address",
          "name": "newAdmin",
          "type": "address"
        }
      ],
      "name": "AdminChanged",
      "type": "event"
    },
    {
      "anonymous": false,
      "inputs": [
        {
          "indexed": true,
          "internalType": "address",
          "name": "beacon",
          "type": "address"
        }
      ],
      "name": "BeaconUpgraded",
      "type": "event"
    },
    {
      "anonymous": false,
      "inputs": [
        {
          "indexed": false,
          "internalType": "uint8",
          "name": "version",
          "type": "uint8"
        }
      ],
      "name": "Initialized",
      "type": "event"
    },
    {
      "anonymous": false,
      "inputs": [
        {
          "indexed": true,
          "internalType": "address",
          "name": "previousOwner",
          "type": "address"
        },
        {
          "indexed": true,
          "internalType": "address",
          "name": "newOwner",
          "type": "address"
        }
      ],
      "name": "OwnershipTransferred",
      "type": "event"
    },
    {
      "anonymous": false,
      "inputs": [
        {
          "indexed": true,
          "internalType": "address",
          "name": "implementation",
          "type": "address"
        }
      ],
      "name": "Upgraded",
      "type": "event"
    },
    {
      "inputs": [
        {
          "internalType": "address[]",
          "name": "_tokenContractAddress",
          "type": "address[]"
        }
      ],
      "name": "disableSupportedToken",
      "outputs": [],
      "stateMutability": "nonpayable",
      "type": "function"
    },
    {
      "inputs": [],
      "name": "getAdminAddress",
      "outputs": [
        {
          "internalType": "address",
          "name": "",
          "type": "address"
        }
      ],
      "stateMutability": "view",
      "type": "function"
    },
    {
      "inputs": [],
      "name": "getBonanzaContract",
      "outputs": [
        {
          "internalType": "address",
          "name": "",
          "type": "address"
        }
      ],
      "stateMutability": "view",
      "type": "function"
    },
    {
      "inputs": [],
      "name": "getCoreMembersContractAddress",
      "outputs": [
        {
          "internalType": "address",
          "name": "",
          "type": "address"
        }
      ],
      "stateMutability": "view",
      "type": "function"
    },
    {
      "inputs": [],
      "name": "getLevelDecimals",
      "outputs": [
        {
          "internalType": "uint16",
          "name": "",
          "type": "uint16"
        }
      ],
      "stateMutability": "view",
      "type": "function"
    },
    {
      "inputs": [],
      "name": "getLevelRates",
      "outputs": [
        {
          "internalType": "uint16[]",
          "name": "",
          "type": "uint16[]"
        }
      ],
      "stateMutability": "view",
      "type": "function"
    },
    {
      "inputs": [],
      "name": "getMaticUSDPriceOracle",
      "outputs": [
        {
          "internalType": "address",
          "name": "",
          "type": "address"
        }
      ],
      "stateMutability": "view",
      "type": "function"
    },
    {
      "inputs": [
        {
          "internalType": "uint8",
          "name": "_planId",
          "type": "uint8"
        }
      ],
      "name": "getPlanById",
      "outputs": [
        {
          "components": [
            {
              "internalType": "uint8",
              "name": "planId",
              "type": "uint8"
            },
            {
              "internalType": "string",
              "name": "name",
              "type": "string"
            },
            {
              "internalType": "uint256",
              "name": "value",
              "type": "uint256"
            },
            {
              "internalType": "uint256",
              "name": "maxLimitMultiplier",
              "type": "uint256"
            }
          ],
          "internalType": "struct VariablesV1Upgradeable.PlanStruct",
          "name": "",
          "type": "tuple"
        }
      ],
      "stateMutability": "view",
      "type": "function"
    },
    {
      "inputs": [],
      "name": "getPlansCount",
      "outputs": [
        {
          "internalType": "uint8",
          "name": "planCount",
          "type": "uint8"
        }
      ],
      "stateMutability": "view",
      "type": "function"
    },
    {
      "inputs": [],
      "name": "getPresaleContract",
      "outputs": [
        {
          "internalType": "address",
          "name": "",
          "type": "address"
        }
      ],
      "stateMutability": "view",
      "type": "function"
    },
    {
      "inputs": [],
      "name": "getReferralContract",
      "outputs": [
        {
          "internalType": "address",
          "name": "",
          "type": "address"
        }
      ],
      "stateMutability": "view",
      "type": "function"
    },
    {
      "inputs": [],
      "name": "getRewardTokenContract",
      "outputs": [
        {
          "internalType": "address",
          "name": "",
          "type": "address"
        }
      ],
      "stateMutability": "view",
      "type": "function"
    },
    {
      "inputs": [],
      "name": "getStakingContract",
      "outputs": [
        {
          "internalType": "address",
          "name": "",
          "type": "address"
        }
      ],
      "stateMutability": "view",
      "type": "function"
    },
    {
      "inputs": [
        {
          "internalType": "address",
          "name": "_tokenContractAddress",
          "type": "address"
        }
      ],
      "name": "getSupportedTokenInfo",
      "outputs": [
        {
          "components": [
            {
              "internalType": "address",
              "name": "contractAddress",
              "type": "address"
            },
            {
              "internalType": "string",
              "name": "name",
              "type": "string"
            },
            {
              "internalType": "string",
              "name": "symbol",
              "type": "string"
            },
            {
              "internalType": "uint8",
              "name": "decimals",
              "type": "uint8"
            },
            {
              "internalType": "bool",
              "name": "isStable",
              "type": "bool"
            },
            {
              "internalType": "address",
              "name": "aggregatorAddress",
              "type": "address"
            },
            {
              "internalType": "bool",
              "name": "isEnaled",
              "type": "bool"
            }
          ],
          "internalType": "struct VariablesV1Upgradeable.SupportedTokensStruct",
          "name": "",
          "type": "tuple"
        }
      ],
      "stateMutability": "view",
      "type": "function"
    },
    {
      "inputs": [],
      "name": "getUniSwapRouterV2Address",
      "outputs": [
        {
          "internalType": "address",
          "name": "",
          "type": "address"
        }
      ],
      "stateMutability": "view",
      "type": "function"
    },
    {
      "inputs": [],
      "name": "initialize",
      "outputs": [],
      "stateMutability": "nonpayable",
      "type": "function"
    },
    {
      "inputs": [
        {
          "internalType": "address",
          "name": "_userAddress",
          "type": "address"
        }
      ],
      "name": "isAdmin",
      "outputs": [
        {
          "internalType": "bool",
          "name": "",
          "type": "bool"
        }
      ],
      "stateMutability": "view",
      "type": "function"
    },
    {
      "inputs": [
        {
          "internalType": "address",
          "name": "_tokenContractAddress",
          "type": "address"
        }
      ],
      "name": "isTokenSupported",
      "outputs": [
        {
          "internalType": "bool",
          "name": "",
          "type": "bool"
        }
      ],
      "stateMutability": "view",
      "type": "function"
    },
    {
      "inputs": [],
      "name": "owner",
      "outputs": [
        {
          "internalType": "address",
          "name": "",
          "type": "address"
        }
      ],
      "stateMutability": "view",
      "type": "function"
    },
    {
      "inputs": [],
      "name": "proxiableUUID",
      "outputs": [
        {
          "internalType": "bytes32",
          "name": "",
          "type": "bytes32"
        }
      ],
      "stateMutability": "view",
      "type": "function"
    },
    {
      "inputs": [
        {
          "internalType": "address",
          "name": "_tokenContractAddress",
          "type": "address"
        },
        {
          "internalType": "bool",
          "name": "_isStable",
          "type": "bool"
        },
        {
          "internalType": "address",
          "name": "_aggregatorContractAddress",
          "type": "address"
        }
      ],
      "name": "pushSupportedTokenToList",
      "outputs": [],
      "stateMutability": "nonpayable",
      "type": "function"
    },
    {
      "inputs": [],
      "name": "renounceOwnership",
      "outputs": [],
      "stateMutability": "nonpayable",
      "type": "function"
    },
    {
      "inputs": [
        {
          "internalType": "address",
          "name": "adminAddress",
          "type": "address"
        }
      ],
      "name": "setAdminAddress",
      "outputs": [],
      "stateMutability": "nonpayable",
      "type": "function"
    },
    {
      "inputs": [
        {
          "internalType": "address",
          "name": "_contractAddress",
          "type": "address"
        }
      ],
      "name": "setBonanzaContract",
      "outputs": [],
      "stateMutability": "nonpayable",
      "type": "function"
    },
    {
      "inputs": [
        {
          "internalType": "address",
          "name": "_address",
          "type": "address"
        }
      ],
      "name": "setCoreMembersContractAddress",
      "outputs": [],
      "stateMutability": "nonpayable",
      "type": "function"
    },
    {
      "inputs": [
        {
          "internalType": "uint16",
          "name": "decimals",
          "type": "uint16"
        }
      ],
      "name": "setLevelDecimals",
      "outputs": [],
      "stateMutability": "nonpayable",
      "type": "function"
    },
    {
      "inputs": [
        {
          "internalType": "uint16[]",
          "name": "rates",
          "type": "uint16[]"
        }
      ],
      "name": "setLevelRates",
      "outputs": [],
      "stateMutability": "nonpayable",
      "type": "function"
    },
    {
      "inputs": [
        {
          "internalType": "address",
          "name": "_oracleAddress",
          "type": "address"
        }
      ],
      "name": "setMaticUSDPriceOracle",
      "outputs": [],
      "stateMutability": "nonpayable",
      "type": "function"
    },
    {
      "inputs": [
        {
          "internalType": "uint8[]",
          "name": "planId",
          "type": "uint8[]"
        },
        {
          "internalType": "string[]",
          "name": "name",
          "type": "string[]"
        },
        {
          "internalType": "uint256[]",
          "name": "valueInDecimals",
          "type": "uint256[]"
        },
        {
          "internalType": "uint256[]",
          "name": "maxLimitMultiplier",
          "type": "uint256[]"
        }
      ],
      "name": "setPlans",
      "outputs": [],
      "stateMutability": "nonpayable",
      "type": "function"
    },
    {
      "inputs": [
        {
          "internalType": "address",
          "name": "_contractAddress",
          "type": "address"
        }
      ],
      "name": "setPresaleContract",
      "outputs": [],
      "stateMutability": "nonpayable",
      "type": "function"
    },
    {
      "inputs": [
        {
          "internalType": "address",
          "name": "_contractAddress",
          "type": "address"
        }
      ],
      "name": "setReferralContract",
      "outputs": [],
      "stateMutability": "nonpayable",
      "type": "function"
    },
    {
      "inputs": [
        {
          "internalType": "address",
          "name": "tokenContract",
          "type": "address"
        }
      ],
      "name": "setRewardTokenContract",
      "outputs": [],
      "stateMutability": "nonpayable",
      "type": "function"
    },
    {
      "inputs": [
        {
          "internalType": "address",
          "name": "_contractAddress",
          "type": "address"
        }
      ],
      "name": "setStakingContract",
      "outputs": [],
      "stateMutability": "nonpayable",
      "type": "function"
    },
    {
      "inputs": [
        {
          "internalType": "address",
          "name": "_routerV2Address",
          "type": "address"
        }
      ],
      "name": "setUniSwapRouterV2Address",
      "outputs": [],
      "stateMutability": "nonpayable",
      "type": "function"
    },
    {
      "inputs": [
        {
          "internalType": "uint256",
          "name": "",
          "type": "uint256"
        }
      ],
      "name": "supportedTokensList",
      "outputs": [
        {
          "internalType": "address",
          "name": "",
          "type": "address"
        }
      ],
      "stateMutability": "view",
      "type": "function"
    },
    {
      "inputs": [
        {
          "internalType": "address",
          "name": "newOwner",
          "type": "address"
        }
      ],
      "name": "transferOwnership",
      "outputs": [],
      "stateMutability": "nonpayable",
      "type": "function"
    },
    {
      "inputs": [
        {
          "internalType": "address",
          "name": "newImplementation",
          "type": "address"
        }
      ],
      "name": "upgradeTo",
      "outputs": [],
      "stateMutability": "nonpayable",
      "type": "function"
    },
    {
      "inputs": [
        {
          "internalType": "address",
          "name": "newImplementation",
          "type": "address"
        },
        {
          "internalType": "bytes",
          "name": "data",
          "type": "bytes"
        }
      ],
      "name": "upgradeToAndCall",
      "outputs": [],
      "stateMutability": "payable",
      "type": "function"
    }
  ],
  "bytecode": "0x60a06040523060805234801561001457600080fd5b506080516126ab61004c60003960008181610b9101528181610bda01528181610c7901528181610cb90152610d4c01526126ab6000f3fe6080604052600436106102255760003560e01c80638129fc1c11610123578063b2e6b912116100ab578063e74af32e1161006f578063e74af32e14610699578063e7cca9c7146106c6578063f1012b45146106e9578063f2a9012114610707578063f2fde38b1461072757600080fd5b8063b2e6b912146105fd578063bcb03b571461061b578063bf8757641461063b578063d31c1ba714610659578063d54fcd931461067957600080fd5b8063918a54db116100f2578063918a54db146105545780639dd373b914610576578063a43ae40814610596578063a9bbd114146105b6578063acc91865146105d657600080fd5b80638129fc1c146104e55780638da5cb5b146104fa5780638e68dce414610518578063916452ab1461053657600080fd5b80633659cfe6116101b15780635880360a116101755780635880360a1461042f57806363c918771461044f57806365eb204d1461046f578063715018a61461048d57806375151b63146104a257600080fd5b80633659cfe61461039b5780633ee1f1ba146103bb5780634f1ef286146103d957806352d1902d146103ec57806357b888051461040f57600080fd5b80631b40f309116101f85780631b40f309146102c257806323442c60146102f457806324d7806c146103125780632c1e816d1461035b5780632e14c4d21461037b57600080fd5b8063051ff2b91461022a57806306ad5a471461024c57806308fcfbbe1461026c5780630efc12b11461028c575b600080fd5b34801561023657600080fd5b5061024a610245366004611cb9565b610747565b005b34801561025857600080fd5b5061024a610267366004611d03565b6109d7565b34801561027857600080fd5b5061024a610287366004611d03565b610a01565b34801561029857600080fd5b506102ac6102a7366004611d2d565b610a2b565b6040516102b99190611d9a565b60405180910390f35b3480156102ce57600080fd5b5060d6546001600160a01b03165b6040516001600160a01b0390911681526020016102b9565b34801561030057600080fd5b5060cd546001600160a01b03166102dc565b34801561031e57600080fd5b5061034b61032d366004611d03565b6001600160a01b0316600090815260d5602052604090205460ff1690565b60405190151581526020016102b9565b34801561036757600080fd5b5061024a610376366004611d03565b610b33565b34801561038757600080fd5b5061024a610396366004611d03565b610b5d565b3480156103a757600080fd5b5061024a6103b6366004611d03565b610b87565b3480156103c757600080fd5b5060d4546001600160a01b03166102dc565b61024a6103e7366004611e90565b610c6f565b3480156103f857600080fd5b50610401610d3f565b6040519081526020016102b9565b34801561041b57600080fd5b5061024a61042a366004611f3e565b610df2565b34801561043b57600080fd5b5061024a61044a366004611d03565b610ee3565b34801561045b57600080fd5b506102dc61046a366004611f80565b610f0d565b34801561047b57600080fd5b5060cf546001600160a01b03166102dc565b34801561049957600080fd5b5061024a610f37565b3480156104ae57600080fd5b5061034b6104bd366004611d03565b6001600160a01b0316600090815260d36020526040902060030154600160b01b900460ff1690565b3480156104f157600080fd5b5061024a610f4b565b34801561050657600080fd5b506033546001600160a01b03166102dc565b34801561052457600080fd5b5060ce546001600160a01b03166102dc565b34801561054257600080fd5b5060d0546001600160a01b03166102dc565b34801561056057600080fd5b50610569611129565b6040516102b99190611f99565b34801561058257600080fd5b5061024a610591366004611d03565b6111a9565b3480156105a257600080fd5b5061024a6105b1366004611ff3565b6111d3565b3480156105c257600080fd5b5061024a6105d1366004611d03565b6111f3565b3480156105e257600080fd5b506105eb61121d565b60405160ff90911681526020016102b9565b34801561060957600080fd5b5060d1546001600160a01b03166102dc565b34801561062757600080fd5b5061024a610636366004612032565b61126c565b34801561064757600080fd5b5060d7546001600160a01b03166102dc565b34801561066557600080fd5b5061024a610674366004611d03565b611444565b34801561068557600080fd5b5061024a61069436600461217c565b61146e565b3480156106a557600080fd5b506106b96106b4366004611d03565b611489565b6040516102b99190612214565b3480156106d257600080fd5b5060ca5460405161ffff90911681526020016102b9565b3480156106f557600080fd5b5060cc546001600160a01b03166102dc565b34801561071357600080fd5b5061024a610722366004611d03565b61165c565b34801561073357600080fd5b5061024a610742366004611d03565b611686565b61074f6116fc565b6040518060e00160405280846001600160a01b03168152602001846001600160a01b03166306fdde036040518163ffffffff1660e01b8152600401600060405180830381865afa1580156107a7573d6000803e3d6000fd5b505050506040513d6000823e601f3d908101601f191682016040526107cf91908101906122ac565b8152602001846001600160a01b03166395d89b416040518163ffffffff1660e01b8152600401600060405180830381865afa158015610812573d6000803e3d6000fd5b505050506040513d6000823e601f3d908101601f1916820160405261083a91908101906122ac565b8152602001846001600160a01b031663313ce5676040518163ffffffff1660e01b8152600401602060405180830381865afa15801561087d573d6000803e3d6000fd5b505050506040513d601f19601f820116820180604052508101906108a19190612323565b60ff1681528315156020808301919091526001600160a01b0384811660408085019190915260016060909401849052878216600090815260d3845220845181546001600160a01b031916921691909117815590830151909182019061090690826123c8565b506040820151600282019061091b90826123c8565b50606082015160039091018054608084015160a085015160c0909501511515600160b01b0260ff60b01b196001600160a01b0396871662010000021662010000600160b81b03199215156101000261ffff1990941660ff9096169590951792909217169290921791909117905560cb80546001810182556000919091527fa7ce836d032b2bf62b7e2097a8e0a6d8aeb35405ad15271e96d3b0188a1d06fb018054949091166001600160a01b0319909416939093179092555050565b6109df6116fc565b60cd80546001600160a01b0319166001600160a01b0392909216919091179055565b610a096116fc565b60cf80546001600160a01b0319166001600160a01b0392909216919091179055565b610a596040518060800160405280600060ff1681526020016060815260200160008152602001600081525090565b60ff808316600090815260d260209081526040918290208251608081019093528054909316825260018301805492939291840191610a9690612340565b80601f0160208091040260200160405190810160405280929190818152602001828054610ac290612340565b8015610b0f5780601f10610ae457610100808354040283529160200191610b0f565b820191906000526020600020905b815481529060010190602001808311610af257829003601f168201915b50505050508152602001600282015481526020016003820154815250509050919050565b610b3b6116fc565b60d180546001600160a01b0319166001600160a01b0392909216919091179055565b610b656116fc565b60d680546001600160a01b0319166001600160a01b0392909216919091179055565b6001600160a01b037f0000000000000000000000000000000000000000000000000000000000000000163003610bd85760405162461bcd60e51b8152600401610bcf90612488565b60405180910390fd5b7f00000000000000000000000000000000000000000000000000000000000000006001600160a01b0316610c2160008051602061262f833981519152546001600160a01b031690565b6001600160a01b031614610c475760405162461bcd60e51b8152600401610bcf906124d4565b610c5081611756565b60408051600080825260208201909252610c6c9183919061175e565b50565b6001600160a01b037f0000000000000000000000000000000000000000000000000000000000000000163003610cb75760405162461bcd60e51b8152600401610bcf90612488565b7f00000000000000000000000000000000000000000000000000000000000000006001600160a01b0316610d0060008051602061262f833981519152546001600160a01b031690565b6001600160a01b031614610d265760405162461bcd60e51b8152600401610bcf906124d4565b610d2f82611756565b610d3b8282600161175e565b5050565b6000306001600160a01b037f00000000000000000000000000000000000000000000000000000000000000001614610ddf5760405162461bcd60e51b815260206004820152603860248201527f555550535570677261646561626c653a206d757374206e6f742062652063616c60448201527f6c6564207468726f7567682064656c656761746563616c6c00000000000000006064820152608401610bcf565b5060008051602061262f83398151915290565b610dfa6116fc565b60005b60ff8116821115610ede57600060d3600085858560ff16818110610e2357610e23612520565b9050602002016020810190610e389190611d03565b6001600160a01b0316815260208101919091526040016000206003018054911515600160b01b0260ff60b01b1990921691909117905560cb838360ff8416818110610e8557610e85612520565b9050602002016020810190610e9a9190611d03565b81546001810183556000928352602090922090910180546001600160a01b0319166001600160a01b0390921691909117905580610ed68161254c565b915050610dfd565b505050565b610eeb6116fc565b60d480546001600160a01b0319166001600160a01b0392909216919091179055565b60cb8181548110610f1d57600080fd5b6000918252602090912001546001600160a01b0316905081565b610f3f6116fc565b610f4960006118c9565b565b600054610100900460ff1615808015610f6b5750600054600160ff909116105b80610f855750303b158015610f85575060005460ff166001145b610fe85760405162461bcd60e51b815260206004820152602e60248201527f496e697469616c697a61626c653a20636f6e747261637420697320616c72656160448201526d191e481a5b9a5d1a585b1a5e995960921b6064820152608401610bcf565b6000805460ff19166001179055801561100b576000805461ff0019166101001790555b604080516101408101825261138881526101f460208201526101909181019190915261012c606082015260c86080820152606460a0820181905260c0820152607d60e08201819052610100820152609661012082015261106f9060c990600a611be8565b5060ca805461ffff191661271017905560cf80546001600160a01b0319908116737f9fd63932babc508fad2f324eb534d09cfe86f01790915560d0805482167364b909a2c51aa62f30e75010b726a8ce863285fa17905560d18054909116331790556110d961191b565b6110e161194a565b8015610c6c576000805461ff0019169055604051600181527f7f26b83ff96e1f2b6a682f133852f6798a09c465da95921460cefb38474024989060200160405180910390a150565b606060c980548060200260200160405190810160405280929190818152602001828054801561119f57602002820191906000526020600020906000905b82829054906101000a900461ffff1661ffff16815260200190600201906020826001010492830192600103820291508084116111665790505b5050505050905090565b6111b16116fc565b60ce80546001600160a01b0319166001600160a01b0392909216919091179055565b6111db6116fc565b60ca805461ffff191661ffff92909216919091179055565b6111fb6116fc565b60cc80546001600160a01b0319166001600160a01b0392909216919091179055565b6000805b60148160ff1610156112685760ff8116600090815260d260205260409020600201541561125657816112528161254c565b9250505b806112608161254c565b915050611221565b5090565b6112746116fc565b60005b8681101561143a5787878281811061129157611291612520565b90506020020160208101906112a69190611d2d565b60d260008a8a858181106112bc576112bc612520565b90506020020160208101906112d19190611d2d565b60ff90811682526020820192909252604001600020805460ff191692909116919091179055855186908290811061130a5761130a612520565b602002602001015160d260008a8a8581811061132857611328612520565b905060200201602081019061133d9190611d2d565b60ff16815260208101919091526040016000206001019061135e90826123c8565b5084848281811061137157611371612520565b90506020020135670de0b6b3a764000061138b919061256b565b60d260008a8a858181106113a1576113a1612520565b90506020020160208101906113b69190611d2d565b60ff1681526020810191909152604001600020600201558282828181106113df576113df612520565b9050602002013560d260008a8a858181106113fc576113fc612520565b90506020020160208101906114119190611d2d565b60ff1681526020810191909152604001600020600301558061143281612582565b915050611277565b5050505050505050565b61144c6116fc565b60d780546001600160a01b0319166001600160a01b0392909216919091179055565b6114766116fc565b8051610d3b9060c9906020840190611be8565b6040805160e080820183526000808352606060208085018290528486018290529084018290526080840182905260a0840182905260c084018290526001600160a01b03868116835260d382529185902085519384019095528454909116825260018401805493949293918401916114ff90612340565b80601f016020809104026020016040519081016040528092919081815260200182805461152b90612340565b80156115785780601f1061154d57610100808354040283529160200191611578565b820191906000526020600020905b81548152906001019060200180831161155b57829003601f168201915b5050505050815260200160028201805461159190612340565b80601f01602080910402602001604051908101604052809291908181526020018280546115bd90612340565b801561160a5780601f106115df5761010080835404028352916020019161160a565b820191906000526020600020905b8154815290600101906020018083116115ed57829003601f168201915b50505091835250506003919091015460ff808216602084015261010082048116151560408401526001600160a01b03620100008304166060840152600160b01b90910416151560809091015292915050565b6116646116fc565b60d080546001600160a01b0319166001600160a01b0392909216919091179055565b61168e6116fc565b6001600160a01b0381166116f35760405162461bcd60e51b815260206004820152602660248201527f4f776e61626c653a206e6577206f776e657220697320746865207a65726f206160448201526564647265737360d01b6064820152608401610bcf565b610c6c816118c9565b6033546001600160a01b03163314610f495760405162461bcd60e51b815260206004820181905260248201527f4f776e61626c653a2063616c6c6572206973206e6f7420746865206f776e65726044820152606401610bcf565b610c6c6116fc565b7f4910fdfa16fed3260ed0e7147f7cc6da11a60208b5b9406d12a635614ffd91435460ff161561179157610ede83611971565b826001600160a01b03166352d1902d6040518163ffffffff1660e01b8152600401602060405180830381865afa9250505080156117eb575060408051601f3d908101601f191682019092526117e89181019061259b565b60015b61184e5760405162461bcd60e51b815260206004820152602e60248201527f45524331393637557067726164653a206e657720696d706c656d656e7461746960448201526d6f6e206973206e6f74205555505360901b6064820152608401610bcf565b60008051602061262f83398151915281146118bd5760405162461bcd60e51b815260206004820152602960248201527f45524331393637557067726164653a20756e737570706f727465642070726f786044820152681a58589b195555525160ba1b6064820152608401610bcf565b50610ede838383611a0d565b603380546001600160a01b038381166001600160a01b0319831681179093556040519116919082907f8be0079c531659141344cd1fd0a4f28419497f9722a3daafe3b4186f6b6457e090600090a35050565b600054610100900460ff166119425760405162461bcd60e51b8152600401610bcf906125b4565b610f49611a38565b600054610100900460ff16610f495760405162461bcd60e51b8152600401610bcf906125b4565b6001600160a01b0381163b6119de5760405162461bcd60e51b815260206004820152602d60248201527f455243313936373a206e657720696d706c656d656e746174696f6e206973206e60448201526c1bdd08184818dbdb9d1c9858dd609a1b6064820152608401610bcf565b60008051602061262f83398151915280546001600160a01b0319166001600160a01b0392909216919091179055565b611a1683611a68565b600082511180611a235750805b15610ede57611a328383611aa8565b50505050565b600054610100900460ff16611a5f5760405162461bcd60e51b8152600401610bcf906125b4565b610f49336118c9565b611a7181611971565b6040516001600160a01b038216907fbc7cd75a20ee27fd9adebab32041f755214dbc6bffa90cc0225b39da2e5c2d3b90600090a250565b60606001600160a01b0383163b611b105760405162461bcd60e51b815260206004820152602660248201527f416464726573733a2064656c65676174652063616c6c20746f206e6f6e2d636f6044820152651b9d1c9858dd60d21b6064820152608401610bcf565b600080846001600160a01b031684604051611b2b91906125ff565b600060405180830381855af49150503d8060008114611b66576040519150601f19603f3d011682016040523d82523d6000602084013e611b6b565b606091505b5091509150611b93828260405180606001604052806027815260200161264f60279139611b9e565b925050505b92915050565b60608315611bad575081611bb7565b611bb78383611bbe565b9392505050565b815115611bce5781518083602001fd5b8060405162461bcd60e51b8152600401610bcf919061261b565b82805482825590600052602060002090600f01601090048101928215611c815791602002820160005b83821115611c5157835183826101000a81548161ffff021916908361ffff1602179055509260200192600201602081600101049283019260010302611c11565b8015611c7f5782816101000a81549061ffff0219169055600201602081600101049283019260010302611c51565b505b506112689291505b808211156112685760008155600101611c89565b80356001600160a01b0381168114611cb457600080fd5b919050565b600080600060608486031215611cce57600080fd5b611cd784611c9d565b925060208401358015158114611cec57600080fd5b9150611cfa60408501611c9d565b90509250925092565b600060208284031215611d1557600080fd5b611bb782611c9d565b60ff81168114610c6c57600080fd5b600060208284031215611d3f57600080fd5b8135611bb781611d1e565b60005b83811015611d65578181015183820152602001611d4d565b50506000910152565b60008151808452611d86816020860160208601611d4a565b601f01601f19169290920160200192915050565b6020815260ff82511660208201526000602083015160806040840152611dc360a0840182611d6e565b905060408401516060840152606084015160808401528091505092915050565b634e487b7160e01b600052604160045260246000fd5b604051601f8201601f1916810167ffffffffffffffff81118282101715611e2257611e22611de3565b604052919050565b600067ffffffffffffffff821115611e4457611e44611de3565b50601f01601f191660200190565b6000611e65611e6084611e2a565b611df9565b9050828152838383011115611e7957600080fd5b828260208301376000602084830101529392505050565b60008060408385031215611ea357600080fd5b611eac83611c9d565b9150602083013567ffffffffffffffff811115611ec857600080fd5b8301601f81018513611ed957600080fd5b611ee885823560208401611e52565b9150509250929050565b60008083601f840112611f0457600080fd5b50813567ffffffffffffffff811115611f1c57600080fd5b6020830191508360208260051b8501011115611f3757600080fd5b9250929050565b60008060208385031215611f5157600080fd5b823567ffffffffffffffff811115611f6857600080fd5b611f7485828601611ef2565b90969095509350505050565b600060208284031215611f9257600080fd5b5035919050565b6020808252825182820181905260009190848201906040850190845b81811015611fd557835161ffff1683529284019291840191600101611fb5565b50909695505050505050565b803561ffff81168114611cb457600080fd5b60006020828403121561200557600080fd5b611bb782611fe1565b600067ffffffffffffffff82111561202857612028611de3565b5060051b60200190565b60008060008060008060006080888a03121561204d57600080fd5b67ffffffffffffffff808935111561206457600080fd5b6120718a8a358b01611ef2565b9098509650602089013581101561208757600080fd5b602089013589018a601f82011261209d57600080fd5b6120aa611e60823561200e565b81358082526020808301929160051b8401018d8111156120c957600080fd5b602084015b8181101561211a5785813511156120e457600080fd5b8e603f8235870101126120f657600080fd5b61210c8f82358701602081013590604001611e52565b8452602093840193016120ce565b50508098505050508060408a0135111561213357600080fd5b6121438a60408b01358b01611ef2565b9095509350606089013581101561215957600080fd5b5061216a8960608a01358a01611ef2565b979a9699509497509295919491925050565b6000602080838503121561218f57600080fd5b823567ffffffffffffffff8111156121a657600080fd5b8301601f810185136121b757600080fd5b80356121c5611e608261200e565b81815260059190911b820183019083810190878311156121e457600080fd5b928401925b82841015612209576121fa84611fe1565b825292840192908401906121e9565b979650505050505050565b602080825282516001600160a01b03168282015282015160e06040830152600090612243610100840182611d6e565b90506040840151601f198483030160608501526122608282611d6e565b91505060ff60608501511660808401526080840151151560a084015260a084015161229660c08501826001600160a01b03169052565b5060c084015180151560e0850152509392505050565b6000602082840312156122be57600080fd5b815167ffffffffffffffff8111156122d557600080fd5b8201601f810184136122e657600080fd5b80516122f4611e6082611e2a565b81815285602083850101111561230957600080fd5b61231a826020830160208601611d4a565b95945050505050565b60006020828403121561233557600080fd5b8151611bb781611d1e565b600181811c9082168061235457607f821691505b60208210810361237457634e487b7160e01b600052602260045260246000fd5b50919050565b601f821115610ede57600081815260208120601f850160051c810160208610156123a15750805b601f850160051c820191505b818110156123c0578281556001016123ad565b505050505050565b815167ffffffffffffffff8111156123e2576123e2611de3565b6123f6816123f08454612340565b8461237a565b602080601f83116001811461242b57600084156124135750858301515b600019600386901b1c1916600185901b1785556123c0565b600085815260208120601f198616915b8281101561245a5788860151825594840194600190910190840161243b565b50858210156124785787850151600019600388901b60f8161c191681555b5050505050600190811b01905550565b6020808252602c908201527f46756e6374696f6e206d7573742062652063616c6c6564207468726f7567682060408201526b19195b1959d85d1958d85b1b60a21b606082015260800190565b6020808252602c908201527f46756e6374696f6e206d7573742062652063616c6c6564207468726f7567682060408201526b6163746976652070726f787960a01b606082015260800190565b634e487b7160e01b600052603260045260246000fd5b634e487b7160e01b600052601160045260246000fd5b600060ff821660ff810361256257612562612536565b60010192915050565b8082028115828204841417611b9857611b98612536565b60006001820161259457612594612536565b5060010190565b6000602082840312156125ad57600080fd5b5051919050565b6020808252602b908201527f496e697469616c697a61626c653a20636f6e7472616374206973206e6f74206960408201526a6e697469616c697a696e6760a81b606082015260800190565b60008251612611818460208701611d4a565b9190910192915050565b602081526000611bb76020830184611d6e56fe360894a13ba1a3210667c828492db98dca3e2076cc3735a920a3ca505d382bbc416464726573733a206c6f772d6c6576656c2064656c65676174652063616c6c206661696c6564a26469706673582212203f6bd228cfb962767e1a9b20d7542a69e3e0c9570be3090ad797b1aeb621916b64736f6c63430008120033",
  "linkReferences": {},
  "deployedLinkReferences": {}
}