{
  "_format": "hh-sol-artifact-1",
  "contractName": "VariablesV1Upgradeable",
  "sourceName": "contracts/VariablesV1Upgradeable.sol",
  "abi": [
    {
      "anonymous": false,
      "inputs": [
        {
          "indexed": false,
          "internalType": "address",
          "name": "previousAdmin",
          "type": "address"
        },
        {
          "indexed": false,
          "internalType": "address",
          "name": "newAdmin",
          "type": "address"
        }
      ],
      "name": "AdminChanged",
      "type": "event"
    },
    {
      "anonymous": false,
      "inputs": [
        {
          "indexed": true,
          "internalType": "address",
          "name": "beacon",
          "type": "address"
        }
      ],
      "name": "BeaconUpgraded",
      "type": "event"
    },
    {
      "anonymous": false,
      "inputs": [
        {
          "indexed": false,
          "internalType": "address",
          "name": "ibpAddress",
          "type": "address"
        }
      ],
      "name": "IBPPromotedByAdmin",
      "type": "event"
    },
    {
      "anonymous": false,
      "inputs": [
        {
          "indexed": false,
          "internalType": "address",
          "name": "ibpAddress",
          "type": "address"
        }
      ],
      "name": "IBPRemovedByAdmin",
      "type": "event"
    },
    {
      "anonymous": false,
      "inputs": [
        {
          "indexed": false,
          "internalType": "uint8",
          "name": "version",
          "type": "uint8"
        }
      ],
      "name": "Initialized",
      "type": "event"
    },
    {
      "anonymous": false,
      "inputs": [
        {
          "indexed": true,
          "internalType": "address",
          "name": "previousOwner",
          "type": "address"
        },
        {
          "indexed": true,
          "internalType": "address",
          "name": "newOwner",
          "type": "address"
        }
      ],
      "name": "OwnershipTransferred",
      "type": "event"
    },
    {
      "anonymous": false,
      "inputs": [
        {
          "indexed": false,
          "internalType": "address",
          "name": "account",
          "type": "address"
        }
      ],
      "name": "Paused",
      "type": "event"
    },
    {
      "anonymous": false,
      "inputs": [
        {
          "indexed": false,
          "internalType": "address",
          "name": "account",
          "type": "address"
        }
      ],
      "name": "Unpaused",
      "type": "event"
    },
    {
      "anonymous": false,
      "inputs": [
        {
          "indexed": true,
          "internalType": "address",
          "name": "implementation",
          "type": "address"
        }
      ],
      "name": "Upgraded",
      "type": "event"
    },
    {
      "inputs": [
        {
          "internalType": "address",
          "name": "_ibpAddress",
          "type": "address"
        }
      ],
      "name": "addIBPAddressAdmin",
      "outputs": [],
      "stateMutability": "nonpayable",
      "type": "function"
    },
    {
      "inputs": [
        {
          "internalType": "address[]",
          "name": "_tokenContractAddress",
          "type": "address[]"
        }
      ],
      "name": "disableSupportedToken",
      "outputs": [],
      "stateMutability": "nonpayable",
      "type": "function"
    },
    {
      "inputs": [],
      "name": "getAdminAddress",
      "outputs": [
        {
          "internalType": "address",
          "name": "",
          "type": "address"
        }
      ],
      "stateMutability": "view",
      "type": "function"
    },
    {
      "inputs": [],
      "name": "getAdminFees",
      "outputs": [
        {
          "internalType": "uint8",
          "name": "",
          "type": "uint8"
        }
      ],
      "stateMutability": "view",
      "type": "function"
    },
    {
      "inputs": [],
      "name": "getBaseCurrencyDecimals",
      "outputs": [
        {
          "internalType": "uint8",
          "name": "",
          "type": "uint8"
        }
      ],
      "stateMutability": "view",
      "type": "function"
    },
    {
      "inputs": [],
      "name": "getCoreMemberRewardRate",
      "outputs": [
        {
          "internalType": "uint8",
          "name": "",
          "type": "uint8"
        }
      ],
      "stateMutability": "view",
      "type": "function"
    },
    {
      "inputs": [],
      "name": "getCoreMembersContractAddress",
      "outputs": [
        {
          "internalType": "address",
          "name": "",
          "type": "address"
        }
      ],
      "stateMutability": "view",
      "type": "function"
    },
    {
      "inputs": [],
      "name": "getGlobalRewardRate",
      "outputs": [
        {
          "internalType": "uint8",
          "name": "",
          "type": "uint8"
        }
      ],
      "stateMutability": "view",
      "type": "function"
    },
    {
      "inputs": [],
      "name": "getIBPList",
      "outputs": [
        {
          "internalType": "address[]",
          "name": "",
          "type": "address[]"
        }
      ],
      "stateMutability": "view",
      "type": "function"
    },
    {
      "inputs": [],
      "name": "getIbpRewardRate",
      "outputs": [
        {
          "internalType": "uint8",
          "name": "",
          "type": "uint8"
        }
      ],
      "stateMutability": "view",
      "type": "function"
    },
    {
      "inputs": [],
      "name": "getIsPayCoreMembersRewards",
      "outputs": [
        {
          "internalType": "bool",
          "name": "",
          "type": "bool"
        }
      ],
      "stateMutability": "view",
      "type": "function"
    },
    {
      "inputs": [],
      "name": "getIsPayGlobalRewards",
      "outputs": [
        {
          "internalType": "bool",
          "name": "",
          "type": "bool"
        }
      ],
      "stateMutability": "view",
      "type": "function"
    },
    {
      "inputs": [],
      "name": "getIsPayIbpRewards",
      "outputs": [
        {
          "internalType": "bool",
          "name": "",
          "type": "bool"
        }
      ],
      "stateMutability": "view",
      "type": "function"
    },
    {
      "inputs": [],
      "name": "getIsPayReferralRewards",
      "outputs": [
        {
          "internalType": "bool",
          "name": "",
          "type": "bool"
        }
      ],
      "stateMutability": "view",
      "type": "function"
    },
    {
      "inputs": [],
      "name": "getIsPayRewardToken",
      "outputs": [
        {
          "internalType": "bool",
          "name": "",
          "type": "bool"
        }
      ],
      "stateMutability": "view",
      "type": "function"
    },
    {
      "inputs": [],
      "name": "getIsPayWeeklyRewards",
      "outputs": [
        {
          "internalType": "bool",
          "name": "",
          "type": "bool"
        }
      ],
      "stateMutability": "view",
      "type": "function"
    },
    {
      "inputs": [],
      "name": "getLevelDecimals",
      "outputs": [
        {
          "internalType": "uint16",
          "name": "",
          "type": "uint16"
        }
      ],
      "stateMutability": "view",
      "type": "function"
    },
    {
      "inputs": [],
      "name": "getLevelRates",
      "outputs": [
        {
          "internalType": "uint16[]",
          "name": "",
          "type": "uint16[]"
        }
      ],
      "stateMutability": "view",
      "type": "function"
    },
    {
      "inputs": [
        {
          "internalType": "uint8",
          "name": "_planId",
          "type": "uint8"
        }
      ],
      "name": "getPlanById",
      "outputs": [
        {
          "components": [
            {
              "internalType": "uint8",
              "name": "planId",
              "type": "uint8"
            },
            {
              "internalType": "string",
              "name": "name",
              "type": "string"
            },
            {
              "internalType": "uint256",
              "name": "value",
              "type": "uint256"
            },
            {
              "internalType": "uint256",
              "name": "maxLimitMultiplier",
              "type": "uint256"
            }
          ],
          "internalType": "struct VariablesV1Upgradeable.PlanStruct",
          "name": "",
          "type": "tuple"
        }
      ],
      "stateMutability": "view",
      "type": "function"
    },
    {
      "inputs": [],
      "name": "getPlansCount",
      "outputs": [
        {
          "internalType": "uint8",
          "name": "planCount",
          "type": "uint8"
        }
      ],
      "stateMutability": "view",
      "type": "function"
    },
    {
      "inputs": [],
      "name": "getPresaleContract",
      "outputs": [
        {
          "internalType": "address",
          "name": "",
          "type": "address"
        }
      ],
      "stateMutability": "view",
      "type": "function"
    },
    {
      "inputs": [],
      "name": "getReferralContract",
      "outputs": [
        {
          "internalType": "address",
          "name": "",
          "type": "address"
        }
      ],
      "stateMutability": "view",
      "type": "function"
    },
    {
      "inputs": [],
      "name": "getRewardTokenContract",
      "outputs": [
        {
          "internalType": "address",
          "name": "",
          "type": "address"
        }
      ],
      "stateMutability": "view",
      "type": "function"
    },
    {
      "inputs": [],
      "name": "getRewardTokenRate",
      "outputs": [
        {
          "internalType": "uint8",
          "name": "",
          "type": "uint8"
        }
      ],
      "stateMutability": "view",
      "type": "function"
    },
    {
      "inputs": [],
      "name": "getStakingContract",
      "outputs": [
        {
          "internalType": "address",
          "name": "",
          "type": "address"
        }
      ],
      "stateMutability": "view",
      "type": "function"
    },
    {
      "inputs": [
        {
          "internalType": "address",
          "name": "_tokenContractAddress",
          "type": "address"
        }
      ],
      "name": "getSupportedTokenInfo",
      "outputs": [
        {
          "components": [
            {
              "internalType": "address",
              "name": "contractAddress",
              "type": "address"
            },
            {
              "internalType": "string",
              "name": "name",
              "type": "string"
            },
            {
              "internalType": "string",
              "name": "symbol",
              "type": "string"
            },
            {
              "internalType": "uint8",
              "name": "decimals",
              "type": "uint8"
            },
            {
              "internalType": "bool",
              "name": "isStable",
              "type": "bool"
            },
            {
              "internalType": "address",
              "name": "aggregatorAddress",
              "type": "address"
            },
            {
              "internalType": "bool",
              "name": "isEnaled",
              "type": "bool"
            }
          ],
          "internalType": "struct VariablesV1Upgradeable.SupportedTokensStruct",
          "name": "",
          "type": "tuple"
        }
      ],
      "stateMutability": "view",
      "type": "function"
    },
    {
      "inputs": [],
      "name": "getUniSwapRouterV2Address",
      "outputs": [
        {
          "internalType": "address",
          "name": "",
          "type": "address"
        }
      ],
      "stateMutability": "view",
      "type": "function"
    },
    {
      "inputs": [],
      "name": "getValueBufferRate",
      "outputs": [
        {
          "internalType": "uint8",
          "name": "",
          "type": "uint8"
        }
      ],
      "stateMutability": "view",
      "type": "function"
    },
    {
      "inputs": [],
      "name": "getWeeklyRewardRate",
      "outputs": [
        {
          "internalType": "uint8",
          "name": "",
          "type": "uint8"
        }
      ],
      "stateMutability": "view",
      "type": "function"
    },
    {
      "inputs": [],
      "name": "initialize",
      "outputs": [],
      "stateMutability": "nonpayable",
      "type": "function"
    },
    {
      "inputs": [
        {
          "internalType": "address",
          "name": "_ibpAddress",
          "type": "address"
        }
      ],
      "name": "isIBP",
      "outputs": [
        {
          "internalType": "bool",
          "name": "",
          "type": "bool"
        }
      ],
      "stateMutability": "view",
      "type": "function"
    },
    {
      "inputs": [
        {
          "internalType": "address",
          "name": "_tokenContractAddress",
          "type": "address"
        }
      ],
      "name": "isTokenSupported",
      "outputs": [
        {
          "internalType": "bool",
          "name": "",
          "type": "bool"
        }
      ],
      "stateMutability": "view",
      "type": "function"
    },
    {
      "inputs": [],
      "name": "owner",
      "outputs": [
        {
          "internalType": "address",
          "name": "",
          "type": "address"
        }
      ],
      "stateMutability": "view",
      "type": "function"
    },
    {
      "inputs": [],
      "name": "pause",
      "outputs": [],
      "stateMutability": "nonpayable",
      "type": "function"
    },
    {
      "inputs": [],
      "name": "paused",
      "outputs": [
        {
          "internalType": "bool",
          "name": "",
          "type": "bool"
        }
      ],
      "stateMutability": "view",
      "type": "function"
    },
    {
      "inputs": [],
      "name": "proxiableUUID",
      "outputs": [
        {
          "internalType": "bytes32",
          "name": "",
          "type": "bytes32"
        }
      ],
      "stateMutability": "view",
      "type": "function"
    },
    {
      "inputs": [
        {
          "internalType": "address",
          "name": "_tokenContractAddress",
          "type": "address"
        },
        {
          "internalType": "bool",
          "name": "_isStable",
          "type": "bool"
        },
        {
          "internalType": "address",
          "name": "_aggregatorContractAddress",
          "type": "address"
        }
      ],
      "name": "pushSupportedTokenToList",
      "outputs": [],
      "stateMutability": "nonpayable",
      "type": "function"
    },
    {
      "inputs": [
        {
          "internalType": "address",
          "name": "_ibpAddress",
          "type": "address"
        }
      ],
      "name": "removeIBPAddressAdmin",
      "outputs": [],
      "stateMutability": "nonpayable",
      "type": "function"
    },
    {
      "inputs": [],
      "name": "renounceOwnership",
      "outputs": [],
      "stateMutability": "nonpayable",
      "type": "function"
    },
    {
      "inputs": [
        {
          "internalType": "address",
          "name": "adminAddress",
          "type": "address"
        }
      ],
      "name": "setAdminAddress",
      "outputs": [],
      "stateMutability": "nonpayable",
      "type": "function"
    },
    {
      "inputs": [
        {
          "internalType": "uint8",
          "name": "fees",
          "type": "uint8"
        }
      ],
      "name": "setAdminFees",
      "outputs": [],
      "stateMutability": "nonpayable",
      "type": "function"
    },
    {
      "inputs": [
        {
          "internalType": "uint8",
          "name": "decimals",
          "type": "uint8"
        }
      ],
      "name": "setBaseCurrencyDecimals",
      "outputs": [],
      "stateMutability": "nonpayable",
      "type": "function"
    },
    {
      "inputs": [
        {
          "internalType": "uint8",
          "name": "rate",
          "type": "uint8"
        }
      ],
      "name": "setCoreMemberRewardRate",
      "outputs": [],
      "stateMutability": "nonpayable",
      "type": "function"
    },
    {
      "inputs": [
        {
          "internalType": "address",
          "name": "_address",
          "type": "address"
        }
      ],
      "name": "setCoreMembersContractAddress",
      "outputs": [],
      "stateMutability": "nonpayable",
      "type": "function"
    },
    {
      "inputs": [
        {
          "internalType": "uint8",
          "name": "rate",
          "type": "uint8"
        }
      ],
      "name": "setGlobalRewardRate",
      "outputs": [],
      "stateMutability": "nonpayable",
      "type": "function"
    },
    {
      "inputs": [
        {
          "internalType": "uint8",
          "name": "rate",
          "type": "uint8"
        }
      ],
      "name": "setIbpRewardRate",
      "outputs": [],
      "stateMutability": "nonpayable",
      "type": "function"
    },
    {
      "inputs": [
        {
          "internalType": "bool",
          "name": "value",
          "type": "bool"
        }
      ],
      "name": "setIsPayCoreMembersRewards",
      "outputs": [],
      "stateMutability": "nonpayable",
      "type": "function"
    },
    {
      "inputs": [
        {
          "internalType": "bool",
          "name": "value",
          "type": "bool"
        }
      ],
      "name": "setIsPayGlobalRewards",
      "outputs": [],
      "stateMutability": "nonpayable",
      "type": "function"
    },
    {
      "inputs": [
        {
          "internalType": "bool",
          "name": "value",
          "type": "bool"
        }
      ],
      "name": "setIsPayIbpRewards",
      "outputs": [],
      "stateMutability": "nonpayable",
      "type": "function"
    },
    {
      "inputs": [
        {
          "internalType": "bool",
          "name": "value",
          "type": "bool"
        }
      ],
      "name": "setIsPayReferralRewards",
      "outputs": [],
      "stateMutability": "nonpayable",
      "type": "function"
    },
    {
      "inputs": [
        {
          "internalType": "bool",
          "name": "isPay",
          "type": "bool"
        }
      ],
      "name": "setIsPayRewardToken",
      "outputs": [],
      "stateMutability": "nonpayable",
      "type": "function"
    },
    {
      "inputs": [
        {
          "internalType": "bool",
          "name": "value",
          "type": "bool"
        }
      ],
      "name": "setIsPayWeeklyRewards",
      "outputs": [],
      "stateMutability": "nonpayable",
      "type": "function"
    },
    {
      "inputs": [
        {
          "internalType": "uint16",
          "name": "decimals",
          "type": "uint16"
        }
      ],
      "name": "setLevelDecimals",
      "outputs": [],
      "stateMutability": "nonpayable",
      "type": "function"
    },
    {
      "inputs": [
        {
          "internalType": "uint16[]",
          "name": "rates",
          "type": "uint16[]"
        }
      ],
      "name": "setLevelRates",
      "outputs": [],
      "stateMutability": "nonpayable",
      "type": "function"
    },
    {
      "inputs": [
        {
          "internalType": "uint8[]",
          "name": "planId",
          "type": "uint8[]"
        },
        {
          "internalType": "string[]",
          "name": "name",
          "type": "string[]"
        },
        {
          "internalType": "uint256[]",
          "name": "valueInDecimals",
          "type": "uint256[]"
        },
        {
          "internalType": "uint256[]",
          "name": "maxLimitMultiplier",
          "type": "uint256[]"
        }
      ],
      "name": "setPlans",
      "outputs": [],
      "stateMutability": "nonpayable",
      "type": "function"
    },
    {
      "inputs": [
        {
          "internalType": "address",
          "name": "_contractAddress",
          "type": "address"
        }
      ],
      "name": "setPresaleContract",
      "outputs": [],
      "stateMutability": "nonpayable",
      "type": "function"
    },
    {
      "inputs": [
        {
          "internalType": "address",
          "name": "_contractAddress",
          "type": "address"
        }
      ],
      "name": "setReferralContract",
      "outputs": [],
      "stateMutability": "nonpayable",
      "type": "function"
    },
    {
      "inputs": [
        {
          "internalType": "address",
          "name": "tokenContract",
          "type": "address"
        }
      ],
      "name": "setRewardTokenContract",
      "outputs": [],
      "stateMutability": "nonpayable",
      "type": "function"
    },
    {
      "inputs": [
        {
          "internalType": "uint8",
          "name": "_rewardRatePer",
          "type": "uint8"
        }
      ],
      "name": "setRewardTokenRate",
      "outputs": [],
      "stateMutability": "nonpayable",
      "type": "function"
    },
    {
      "inputs": [
        {
          "internalType": "address",
          "name": "_contractAddress",
          "type": "address"
        }
      ],
      "name": "setStakingContract",
      "outputs": [],
      "stateMutability": "nonpayable",
      "type": "function"
    },
    {
      "inputs": [
        {
          "internalType": "address",
          "name": "_routerV2Address",
          "type": "address"
        }
      ],
      "name": "setUniSwapRouterV2Address",
      "outputs": [],
      "stateMutability": "nonpayable",
      "type": "function"
    },
    {
      "inputs": [
        {
          "internalType": "uint8",
          "name": "rate",
          "type": "uint8"
        }
      ],
      "name": "setValueBufferRate",
      "outputs": [],
      "stateMutability": "nonpayable",
      "type": "function"
    },
    {
      "inputs": [
        {
          "internalType": "uint8",
          "name": "rate",
          "type": "uint8"
        }
      ],
      "name": "setWeeklyRewardRate",
      "outputs": [],
      "stateMutability": "nonpayable",
      "type": "function"
    },
    {
      "inputs": [
        {
          "internalType": "uint256",
          "name": "",
          "type": "uint256"
        }
      ],
      "name": "supportedTokensList",
      "outputs": [
        {
          "internalType": "address",
          "name": "",
          "type": "address"
        }
      ],
      "stateMutability": "view",
      "type": "function"
    },
    {
      "inputs": [
        {
          "internalType": "address",
          "name": "newOwner",
          "type": "address"
        }
      ],
      "name": "transferOwnership",
      "outputs": [],
      "stateMutability": "nonpayable",
      "type": "function"
    },
    {
      "inputs": [],
      "name": "unpause",
      "outputs": [],
      "stateMutability": "nonpayable",
      "type": "function"
    },
    {
      "inputs": [
        {
          "internalType": "address",
          "name": "newImplementation",
          "type": "address"
        }
      ],
      "name": "upgradeTo",
      "outputs": [],
      "stateMutability": "nonpayable",
      "type": "function"
    },
    {
      "inputs": [
        {
          "internalType": "address",
          "name": "newImplementation",
          "type": "address"
        },
        {
          "internalType": "bytes",
          "name": "data",
          "type": "bytes"
        }
      ],
      "name": "upgradeToAndCall",
      "outputs": [],
      "stateMutability": "payable",
      "type": "function"
    }
  ],
  "bytecode": "0x60a06040523060805234801561001457600080fd5b5060805161336261004c600039600081816112b1015281816112fa015281816113f70152818161143701526114c601526133626000f3fe6080604052600436106103ee5760003560e01c80638da5cb5b11610208578063b644356211610118578063e371c5c5116100ab578063eb758bc71161007a578063eb758bc714610c0f578063f1012b4514610c2f578063f2a9012114610c4d578063f2fde38b14610c6d578063ffc43f8f14610c8d57600080fd5b8063e371c5c514610b7d578063e701671714610b9d578063e74af32e14610bbf578063e7cca9c714610bec57600080fd5b8063c391d636116100e7578063c391d63614610b01578063d54fcd9314610b1f578063e091099c14610b3f578063e179719a14610b5e57600080fd5b8063b644356214610a80578063b7a2662014610aa0578063b9cd1a5014610ac0578063bcb03b5714610ae157600080fd5b8063a43ae4081161019b578063a9bbd1141161016a578063a9bbd114146109ec578063ac40e30914610a0c578063acc9186514610a2c578063af2d4d0914610a41578063b2e6b91214610a6157600080fd5b8063a43ae4081461096c578063a46868f01461098c578063a61a4ff3146109ac578063a646e845146109cc57600080fd5b806393cee9c9116101d757806393cee9c9146108ed57806394debf481461090d5780639dd373b91461092d5780639f6d88701461094d57600080fd5b80638da5cb5b1461086f5780638e68dce41461088d578063916452ab146108ac578063918a54db146108cb57600080fd5b80634ccebd50116103035780635f3ad6e211610296578063715018a611610265578063715018a6146107cc57806375151b63146107e15780638129fc1c146108255780638456cb591461083a578063880c0ec31461084f57600080fd5b80635f3ad6e21461074e57806363c918771461076d57806365eb204d1461078d5780636cf3c676146107ac57600080fd5b806357b88805116102d257806357b88805146106d65780635880360a146106f65780635c975abb146107165780635d9bed631461072e57600080fd5b80634ccebd50146106615780634f1ef2861461068157806352d1902d146106945780635397b86d146106b757600080fd5b80632b70c02c116103865780633659cfe6116103555780633659cfe6146105ce57806339e0dcfa146105ee5780633ee1f1ba1461060e5780633f4ba83a1461062d5780633fae6a111461064257600080fd5b80632b70c02c146105285780632c1e816d146105475780632f8c7e72146105675780633238c16f146105a157600080fd5b80630efc12b1116103c25780630efc12b11461047557806316dd07e0146104ab5780631f1eeec8146104d657806323442c60146104f557600080fd5b8062b29290146103f3578063051ff2b91461041557806306ad5a471461043557806308fcfbbe14610455575b600080fd5b3480156103ff57600080fd5b5061041361040e3660046128e2565b610caf565b005b34801561042157600080fd5b5061041361043036600461290d565b610e8c565b34801561044157600080fd5b506104136104503660046128e2565b61111d565b34801561046157600080fd5b506104136104703660046128e2565b611148565b34801561048157600080fd5b5061049561049036600461295f565b611173565b6040516104a291906129cc565b60405180910390f35b3480156104b757600080fd5b5060fc54600160681b900460ff165b60405190151581526020016104a2565b3480156104e257600080fd5b5060fc54600160601b900460ff166104c6565b34801561050157600080fd5b50610100546001600160a01b03165b6040516001600160a01b0390911681526020016104a2565b34801561053457600080fd5b5060fc54600160501b900460ff166104c6565b34801561055357600080fd5b506104136105623660046128e2565b61127c565b34801561057357600080fd5b506104c66105823660046128e2565b6001600160a01b03166000908152610108602052604090205460ff1690565b3480156105ad57600080fd5b5060fc54600160401b900460ff165b60405160ff90911681526020016104a2565b3480156105da57600080fd5b506104136105e93660046128e2565b6112a7565b3480156105fa57600080fd5b50610413610609366004612a15565b61138f565b34801561061a57600080fd5b50610109546001600160a01b0316610510565b34801561063957600080fd5b506104136113b5565b34801561064e57600080fd5b5060fc54600160581b900460ff166104c6565b34801561066d57600080fd5b5061041361067c366004612a15565b6113c7565b61041361068f366004612add565b6113ed565b3480156106a057600080fd5b506106a96114b9565b6040519081526020016104a2565b3480156106c357600080fd5b5060fc54600160381b900460ff166105bc565b3480156106e257600080fd5b506104136106f1366004612b8b565b61156c565b34801561070257600080fd5b506104136107113660046128e2565b61165e565b34801561072257600080fd5b5060335460ff166104c6565b34801561073a57600080fd5b50610413610749366004612a15565b611689565b34801561075a57600080fd5b5060fc546301000000900460ff166105bc565b34801561077957600080fd5b50610510610788366004612bcd565b6116af565b34801561079957600080fd5b50610103546001600160a01b0316610510565b3480156107b857600080fd5b506104136107c736600461295f565b6116d9565b3480156107d857600080fd5b50610413611706565b3480156107ed57600080fd5b506104c66107fc3660046128e2565b6001600160a01b031660009081526101076020526040902060030154600160b01b900460ff1690565b34801561083157600080fd5b50610413611718565b34801561084657600080fd5b50610413611923565b34801561085b57600080fd5b5061041361086a36600461295f565b611933565b34801561087b57600080fd5b506065546001600160a01b0316610510565b34801561089957600080fd5b50610101546001600160a01b0316610510565b3480156108b857600080fd5b50610104546001600160a01b0316610510565b3480156108d757600080fd5b506108e0611961565b6040516104a29190612be6565b3480156108f957600080fd5b50610413610908366004612a15565b6119e1565b34801561091957600080fd5b5061041361092836600461295f565b611a07565b34801561093957600080fd5b506104136109483660046128e2565b611a2f565b34801561095957600080fd5b5060fc54600160701b900460ff166104c6565b34801561097857600080fd5b50610413610987366004612c40565b611a5a565b34801561099857600080fd5b5060fc54640100000000900460ff166105bc565b3480156109b857600080fd5b506104136109c736600461295f565b611a7a565b3480156109d857600080fd5b506104136109e736600461295f565b611aa0565b3480156109f857600080fd5b50610413610a073660046128e2565b611acc565b348015610a1857600080fd5b50610413610a2736600461295f565b611af6565b348015610a3857600080fd5b506105bc611b22565b348015610a4d57600080fd5b50610413610a5c36600461295f565b611b72565b348015610a6d57600080fd5b50610105546001600160a01b0316610510565b348015610a8c57600080fd5b50610413610a9b366004612a15565b611b9c565b348015610aac57600080fd5b50610413610abb36600461295f565b611bc2565b348015610acc57600080fd5b5060fc5465010000000000900460ff166105bc565b348015610aed57600080fd5b50610413610afc366004612c7f565b611bf0565b348015610b0d57600080fd5b5060fc5462010000900460ff166105bc565b348015610b2b57600080fd5b50610413610b3a366004612dc9565b611dcc565b348015610b4b57600080fd5b5060fc54600160481b900460ff166105bc565b348015610b6a57600080fd5b5060fc54600160781b900460ff166104c6565b348015610b8957600080fd5b50610413610b983660046128e2565b611de7565b348015610ba957600080fd5b5060fc546601000000000000900460ff166105bc565b348015610bcb57600080fd5b50610bdf610bda3660046128e2565b611eaf565b6040516104a29190612e61565b348015610bf857600080fd5b5060fc5460405161ffff90911681526020016104a2565b348015610c1b57600080fd5b50610413610c2a366004612a15565b612083565b348015610c3b57600080fd5b5060ff546001600160a01b0316610510565b348015610c5957600080fd5b50610413610c683660046128e2565b6120a9565b348015610c7957600080fd5b50610413610c883660046128e2565b6120d4565b348015610c9957600080fd5b50610ca261214a565b6040516104a29190612ef9565b610cb76121ab565b6001600160a01b0381166000908152610108602052604090205460ff168015610e88576001600160a01b038216600090815261010860209081526040808320805460ff1916905560fe80548251818502810185019093528083529192909190830182828015610d4f57602002820191906000526020600020905b81546001600160a01b03168152600190910190602001808311610d31575b5050505050905060005b8151811015610e8557836001600160a01b0316828281518110610d7e57610d7e612f3a565b60200260200101516001600160a01b031603610e73578160018351610da39190612f66565b81518110610db357610db3612f3a565b602002602001015160fe8281548110610dce57610dce612f3a565b9060005260206000200160006101000a8154816001600160a01b0302191690836001600160a01b0316021790555060fe805480610e0d57610e0d612f79565b6000828152602090819020600019908301810180546001600160a01b03191690559091019091556040516001600160a01b03861681527f337eeb0192a31dfc3c61aff0be47a571a126a9e3f1caaee4af8c29babbb477e9910160405180910390a1610e85565b80610e7d81612f8f565b915050610d59565b50505b5050565b610e946121ab565b6040518060e00160405280846001600160a01b03168152602001846001600160a01b03166306fdde036040518163ffffffff1660e01b8152600401600060405180830381865afa158015610eec573d6000803e3d6000fd5b505050506040513d6000823e601f3d908101601f19168201604052610f149190810190612fa8565b8152602001846001600160a01b03166395d89b416040518163ffffffff1660e01b8152600401600060405180830381865afa158015610f57573d6000803e3d6000fd5b505050506040513d6000823e601f3d908101601f19168201604052610f7f9190810190612fa8565b8152602001846001600160a01b031663313ce5676040518163ffffffff1660e01b8152600401602060405180830381865afa158015610fc2573d6000803e3d6000fd5b505050506040513d601f19601f82011682018060405250810190610fe6919061301f565b60ff1681528315156020808301919091526001600160a01b03848116604080850191909152600160609094018490528782166000908152610107845220845181546001600160a01b031916921691909117815590830151909182019061104c90826130c4565b506040820151600282019061106190826130c4565b50606082015160039091018054608084015160a085015160c0909501511515600160b01b0260ff60b01b196001600160a01b0396871662010000021662010000600160b81b03199215156101000261ffff1990941660ff9096169590951792909217169290921791909117905560fd80546001810182556000919091527f9346ac6dd7de6b96975fec380d4d994c4c12e6a8897544f22915316cc6cca280018054949091166001600160a01b0319909416939093179092555050565b6111256121ab565b61010080546001600160a01b0319166001600160a01b0392909216919091179055565b6111506121ab565b61010380546001600160a01b0319166001600160a01b0392909216919091179055565b6111a16040518060800160405280600060ff1681526020016060815260200160008152602001600081525090565b60ff8083166000908152610106602090815260409182902082516080810190935280549093168252600183018054929392918401916111df9061303c565b80601f016020809104026020016040519081016040528092919081815260200182805461120b9061303c565b80156112585780601f1061122d57610100808354040283529160200191611258565b820191906000526020600020905b81548152906001019060200180831161123b57829003601f168201915b50505050508152602001600282015481526020016003820154815250509050919050565b6112846121ab565b61010580546001600160a01b0319166001600160a01b0392909216919091179055565b6001600160a01b037f00000000000000000000000000000000000000000000000000000000000000001630036112f85760405162461bcd60e51b81526004016112ef90613184565b60405180910390fd5b7f00000000000000000000000000000000000000000000000000000000000000006001600160a01b03166113416000805160206132e6833981519152546001600160a01b031690565b6001600160a01b0316146113675760405162461bcd60e51b81526004016112ef906131d0565b61137081612205565b6040805160008082526020820190925261138c9183919061220d565b50565b6113976121ab565b60fc8054911515600160681b0260ff60681b19909216919091179055565b6113bd6121ab565b6113c5612378565b565b6113cf6121ab565b60fc8054911515600160781b0260ff60781b19909216919091179055565b6001600160a01b037f00000000000000000000000000000000000000000000000000000000000000001630036114355760405162461bcd60e51b81526004016112ef90613184565b7f00000000000000000000000000000000000000000000000000000000000000006001600160a01b031661147e6000805160206132e6833981519152546001600160a01b031690565b6001600160a01b0316146114a45760405162461bcd60e51b81526004016112ef906131d0565b6114ad82612205565b610e888282600161220d565b6000306001600160a01b037f000000000000000000000000000000000000000000000000000000000000000016146115595760405162461bcd60e51b815260206004820152603860248201527f555550535570677261646561626c653a206d757374206e6f742062652063616c60448201527f6c6564207468726f7567682064656c656761746563616c6c000000000000000060648201526084016112ef565b506000805160206132e683398151915290565b6115746121ab565b60005b60ff8116821115611659576000610107600085858560ff1681811061159e5761159e612f3a565b90506020020160208101906115b391906128e2565b6001600160a01b0316815260208101919091526040016000206003018054911515600160b01b0260ff60b01b1990921691909117905560fd838360ff841681811061160057611600612f3a565b905060200201602081019061161591906128e2565b81546001810183556000928352602090922090910180546001600160a01b0319166001600160a01b03909216919091179055806116518161321c565b915050611577565b505050565b6116666121ab565b61010980546001600160a01b0319166001600160a01b0392909216919091179055565b6116916121ab565b60fc8054911515600160701b0260ff60701b19909216919091179055565b60fd81815481106116bf57600080fd5b6000918252602090912001546001600160a01b0316905081565b6116e16121ab565b60fc805460ff909216600160401b0268ff000000000000000019909216919091179055565b61170e6121ab565b6113c560006123ca565b600054610100900460ff16158080156117385750600054600160ff909116105b806117525750303b158015611752575060005460ff166001145b6117b55760405162461bcd60e51b815260206004820152602e60248201527f496e697469616c697a61626c653a20636f6e747261637420697320616c72656160448201526d191e481a5b9a5d1a585b1a5e995960921b60648201526084016112ef565b6000805460ff1916600117905580156117d8576000805461ff0019166101001790555b604080516101408101825261138881526101f460208201526101909181019190915261012c606082015260c86080820152606460a0820181905260c0820152607d60e08201819052610100820152609661012082015261183c9060fb90600a612811565b5060fc805461010380546001600160a01b0319908116737f9fd63932babc508fad2f324eb534d09cfe86f0179091556f010101010101030302050a0a0a0027106fffffffffffffffffffffffffff00ffff19909216919091179091556101048054821673efb61c43c70b60563c1a2a835663c63ecc93f6ba1790556101058054909116331790556118cb61241c565b6118d361244b565b6118db61247a565b801561138c576000805461ff0019169055604051600181527f7f26b83ff96e1f2b6a682f133852f6798a09c465da95921460cefb38474024989060200160405180910390a150565b61192b6121ab565b6113c56124a1565b61193b6121ab565b60fc805460ff90921666010000000000000266ff00000000000019909216919091179055565b606060fb8054806020026020016040519081016040528092919081815260200182805480156119d757602002820191906000526020600020906000905b82829054906101000a900461ffff1661ffff168152602001906002019060208260010104928301926001038202915080841161199e5790505b5050505050905090565b6119e96121ab565b60fc8054911515600160601b0260ff60601b19909216919091179055565b611a0f6121ab565b60fc805460ff90921663010000000263ff00000019909216919091179055565b611a376121ab565b61010180546001600160a01b0319166001600160a01b0392909216919091179055565b611a626121ab565b60fc805461ffff191661ffff92909216919091179055565b611a826121ab565b60fc805460ff909216620100000262ff000019909216919091179055565b611aa86121ab565b60fc805460ff909216600160381b0267ff0000000000000019909216919091179055565b611ad46121ab565b60ff80546001600160a01b0319166001600160a01b0392909216919091179055565b611afe6121ab565b60fc805460ff909216650100000000000265ff000000000019909216919091179055565b6000805b60148160ff161015611b6e5760ff81166000908152610106602052604090206002015415611b5c5781611b588161321c565b9250505b80611b668161321c565b915050611b26565b5090565b611b7a6121ab565b60fc805460ff9092166401000000000264ff0000000019909216919091179055565b611ba46121ab565b60fc8054911515600160581b0260ff60581b19909216919091179055565b611bca6121ab565b60fc805460ff909216600160481b0269ff00000000000000000019909216919091179055565b611bf86121ab565b60005b86811015611dc257878782818110611c1557611c15612f3a565b9050602002016020810190611c2a919061295f565b61010660008a8a85818110611c4157611c41612f3a565b9050602002016020810190611c56919061295f565b60ff90811682526020820192909252604001600020805460ff1916929091169190911790558551869082908110611c8f57611c8f612f3a565b602002602001015161010660008a8a85818110611cae57611cae612f3a565b9050602002016020810190611cc3919061295f565b60ff168152602081019190915260400160002060010190611ce490826130c4565b50848482818110611cf757611cf7612f3a565b90506020020135670de0b6b3a7640000611d11919061323b565b61010660008a8a85818110611d2857611d28612f3a565b9050602002016020810190611d3d919061295f565b60ff168152602081019190915260400160002060020155828282818110611d6657611d66612f3a565b9050602002013561010660008a8a85818110611d8457611d84612f3a565b9050602002016020810190611d99919061295f565b60ff16815260208101919091526040016000206003015580611dba81612f8f565b915050611bfb565b5050505050505050565b611dd46121ab565b8051610e889060fb906020840190612811565b611def6121ab565b6001600160a01b0381166000908152610108602052604090205460ff1680610e88576001600160a01b038216600081815261010860209081526040808320805460ff1916600190811790915560fe805491820181559093527f54075df80ec1ae6ac9100e1fd0ebf3246c17f5c933137af392011f4c5f61513a90920180546001600160a01b0319168417905590519182527fe30f8cb0d8cbc7c0e95d5aaa3107ce401738ce4bc98a05dd081bb2a77a9ca749910160405180910390a15050565b6040805160e080820183526000808352606060208085018290528486018290529084018290526080840182905260a0840182905260c084018290526001600160a01b0386811683526101078252918590208551938401909552845490911682526001840180549394929391840191611f269061303c565b80601f0160208091040260200160405190810160405280929190818152602001828054611f529061303c565b8015611f9f5780601f10611f7457610100808354040283529160200191611f9f565b820191906000526020600020905b815481529060010190602001808311611f8257829003601f168201915b50505050508152602001600282018054611fb89061303c565b80601f0160208091040260200160405190810160405280929190818152602001828054611fe49061303c565b80156120315780601f1061200657610100808354040283529160200191612031565b820191906000526020600020905b81548152906001019060200180831161201457829003601f168201915b50505091835250506003919091015460ff808216602084015261010082048116151560408401526001600160a01b03620100008304166060840152600160b01b90910416151560809091015292915050565b61208b6121ab565b60fc8054911515600160501b0260ff60501b19909216919091179055565b6120b16121ab565b61010480546001600160a01b0319166001600160a01b0392909216919091179055565b6120dc6121ab565b6001600160a01b0381166121415760405162461bcd60e51b815260206004820152602660248201527f4f776e61626c653a206e6577206f776e657220697320746865207a65726f206160448201526564647265737360d01b60648201526084016112ef565b61138c816123ca565b606060fe8054806020026020016040519081016040528092919081815260200182805480156119d757602002820191906000526020600020905b81546001600160a01b03168152600190910190602001808311612184575050505050905090565b6065546001600160a01b031633146113c55760405162461bcd60e51b815260206004820181905260248201527f4f776e61626c653a2063616c6c6572206973206e6f7420746865206f776e657260448201526064016112ef565b61138c6121ab565b7f4910fdfa16fed3260ed0e7147f7cc6da11a60208b5b9406d12a635614ffd91435460ff161561224057611659836124de565b826001600160a01b03166352d1902d6040518163ffffffff1660e01b8152600401602060405180830381865afa92505050801561229a575060408051601f3d908101601f1916820190925261229791810190613252565b60015b6122fd5760405162461bcd60e51b815260206004820152602e60248201527f45524331393637557067726164653a206e657720696d706c656d656e7461746960448201526d6f6e206973206e6f74205555505360901b60648201526084016112ef565b6000805160206132e6833981519152811461236c5760405162461bcd60e51b815260206004820152602960248201527f45524331393637557067726164653a20756e737570706f727465642070726f786044820152681a58589b195555525160ba1b60648201526084016112ef565b5061165983838361257a565b61238061259f565b6033805460ff191690557f5db9ee0a495bf2e6ff9c91a7834c1ba4fdd244a5e8aa4e537bd38aeae4b073aa335b6040516001600160a01b03909116815260200160405180910390a1565b606580546001600160a01b038381166001600160a01b0319831681179093556040519116919082907f8be0079c531659141344cd1fd0a4f28419497f9722a3daafe3b4186f6b6457e090600090a35050565b600054610100900460ff166124435760405162461bcd60e51b81526004016112ef9061326b565b6113c56125e8565b600054610100900460ff166124725760405162461bcd60e51b81526004016112ef9061326b565b6113c561261b565b600054610100900460ff166113c55760405162461bcd60e51b81526004016112ef9061326b565b6124a961264b565b6033805460ff191660011790557f62e78cea01bee320cd4e420270b5ea74000d11b0c9f74754ebdbfc544b05a2586123ad3390565b6001600160a01b0381163b61254b5760405162461bcd60e51b815260206004820152602d60248201527f455243313936373a206e657720696d706c656d656e746174696f6e206973206e60448201526c1bdd08184818dbdb9d1c9858dd609a1b60648201526084016112ef565b6000805160206132e683398151915280546001600160a01b0319166001600160a01b0392909216919091179055565b61258383612691565b6000825111806125905750805b1561165957610e8583836126d1565b60335460ff166113c55760405162461bcd60e51b815260206004820152601460248201527314185d5cd8589b194e881b9bdd081c185d5cd95960621b60448201526064016112ef565b600054610100900460ff1661260f5760405162461bcd60e51b81526004016112ef9061326b565b6033805460ff19169055565b600054610100900460ff166126425760405162461bcd60e51b81526004016112ef9061326b565b6113c5336123ca565b60335460ff16156113c55760405162461bcd60e51b815260206004820152601060248201526f14185d5cd8589b194e881c185d5cd95960821b60448201526064016112ef565b61269a816124de565b6040516001600160a01b038216907fbc7cd75a20ee27fd9adebab32041f755214dbc6bffa90cc0225b39da2e5c2d3b90600090a250565b60606001600160a01b0383163b6127395760405162461bcd60e51b815260206004820152602660248201527f416464726573733a2064656c65676174652063616c6c20746f206e6f6e2d636f6044820152651b9d1c9858dd60d21b60648201526084016112ef565b600080846001600160a01b03168460405161275491906132b6565b600060405180830381855af49150503d806000811461278f576040519150601f19603f3d011682016040523d82523d6000602084013e612794565b606091505b50915091506127bc8282604051806060016040528060278152602001613306602791396127c7565b925050505b92915050565b606083156127d65750816127e0565b6127e083836127e7565b9392505050565b8151156127f75781518083602001fd5b8060405162461bcd60e51b81526004016112ef91906132d2565b82805482825590600052602060002090600f016010900481019282156128aa5791602002820160005b8382111561287a57835183826101000a81548161ffff021916908361ffff160217905550926020019260020160208160010104928301926001030261283a565b80156128a85782816101000a81549061ffff021916905560020160208160010104928301926001030261287a565b505b50611b6e9291505b80821115611b6e57600081556001016128b2565b80356001600160a01b03811681146128dd57600080fd5b919050565b6000602082840312156128f457600080fd5b6127e0826128c6565b803580151581146128dd57600080fd5b60008060006060848603121561292257600080fd5b61292b846128c6565b9250612939602085016128fd565b9150612947604085016128c6565b90509250925092565b60ff8116811461138c57600080fd5b60006020828403121561297157600080fd5b81356127e081612950565b60005b8381101561299757818101518382015260200161297f565b50506000910152565b600081518084526129b881602086016020860161297c565b601f01601f19169290920160200192915050565b6020815260ff825116602082015260006020830151608060408401526129f560a08401826129a0565b905060408401516060840152606084015160808401528091505092915050565b600060208284031215612a2757600080fd5b6127e0826128fd565b634e487b7160e01b600052604160045260246000fd5b604051601f8201601f1916810167ffffffffffffffff81118282101715612a6f57612a6f612a30565b604052919050565b600067ffffffffffffffff821115612a9157612a91612a30565b50601f01601f191660200190565b6000612ab2612aad84612a77565b612a46565b9050828152838383011115612ac657600080fd5b828260208301376000602084830101529392505050565b60008060408385031215612af057600080fd5b612af9836128c6565b9150602083013567ffffffffffffffff811115612b1557600080fd5b8301601f81018513612b2657600080fd5b612b3585823560208401612a9f565b9150509250929050565b60008083601f840112612b5157600080fd5b50813567ffffffffffffffff811115612b6957600080fd5b6020830191508360208260051b8501011115612b8457600080fd5b9250929050565b60008060208385031215612b9e57600080fd5b823567ffffffffffffffff811115612bb557600080fd5b612bc185828601612b3f565b90969095509350505050565b600060208284031215612bdf57600080fd5b5035919050565b6020808252825182820181905260009190848201906040850190845b81811015612c2257835161ffff1683529284019291840191600101612c02565b50909695505050505050565b803561ffff811681146128dd57600080fd5b600060208284031215612c5257600080fd5b6127e082612c2e565b600067ffffffffffffffff821115612c7557612c75612a30565b5060051b60200190565b60008060008060008060006080888a031215612c9a57600080fd5b67ffffffffffffffff8089351115612cb157600080fd5b612cbe8a8a358b01612b3f565b90985096506020890135811015612cd457600080fd5b602089013589018a601f820112612cea57600080fd5b612cf7612aad8235612c5b565b81358082526020808301929160051b8401018d811115612d1657600080fd5b602084015b81811015612d67578581351115612d3157600080fd5b8e603f823587010112612d4357600080fd5b612d598f82358701602081013590604001612a9f565b845260209384019301612d1b565b50508098505050508060408a01351115612d8057600080fd5b612d908a60408b01358b01612b3f565b90955093506060890135811015612da657600080fd5b50612db78960608a01358a01612b3f565b979a9699509497509295919491925050565b60006020808385031215612ddc57600080fd5b823567ffffffffffffffff811115612df357600080fd5b8301601f81018513612e0457600080fd5b8035612e12612aad82612c5b565b81815260059190911b82018301908381019087831115612e3157600080fd5b928401925b82841015612e5657612e4784612c2e565b82529284019290840190612e36565b979650505050505050565b602080825282516001600160a01b03168282015282015160e06040830152600090612e906101008401826129a0565b90506040840151601f19848303016060850152612ead82826129a0565b91505060ff60608501511660808401526080840151151560a084015260a0840151612ee360c08501826001600160a01b03169052565b5060c084015180151560e0850152509392505050565b6020808252825182820181905260009190848201906040850190845b81811015612c225783516001600160a01b031683529284019291840191600101612f15565b634e487b7160e01b600052603260045260246000fd5b634e487b7160e01b600052601160045260246000fd5b818103818111156127c1576127c1612f50565b634e487b7160e01b600052603160045260246000fd5b600060018201612fa157612fa1612f50565b5060010190565b600060208284031215612fba57600080fd5b815167ffffffffffffffff811115612fd157600080fd5b8201601f81018413612fe257600080fd5b8051612ff0612aad82612a77565b81815285602083850101111561300557600080fd5b61301682602083016020860161297c565b95945050505050565b60006020828403121561303157600080fd5b81516127e081612950565b600181811c9082168061305057607f821691505b60208210810361307057634e487b7160e01b600052602260045260246000fd5b50919050565b601f82111561165957600081815260208120601f850160051c8101602086101561309d5750805b601f850160051c820191505b818110156130bc578281556001016130a9565b505050505050565b815167ffffffffffffffff8111156130de576130de612a30565b6130f2816130ec845461303c565b84613076565b602080601f831160018114613127576000841561310f5750858301515b600019600386901b1c1916600185901b1785556130bc565b600085815260208120601f198616915b8281101561315657888601518255948401946001909101908401613137565b50858210156131745787850151600019600388901b60f8161c191681555b5050505050600190811b01905550565b6020808252602c908201527f46756e6374696f6e206d7573742062652063616c6c6564207468726f7567682060408201526b19195b1959d85d1958d85b1b60a21b606082015260800190565b6020808252602c908201527f46756e6374696f6e206d7573742062652063616c6c6564207468726f7567682060408201526b6163746976652070726f787960a01b606082015260800190565b600060ff821660ff810361323257613232612f50565b60010192915050565b80820281158282048414176127c1576127c1612f50565b60006020828403121561326457600080fd5b5051919050565b6020808252602b908201527f496e697469616c697a61626c653a20636f6e7472616374206973206e6f74206960408201526a6e697469616c697a696e6760a81b606082015260800190565b600082516132c881846020870161297c565b9190910192915050565b6020815260006127e060208301846129a056fe360894a13ba1a3210667c828492db98dca3e2076cc3735a920a3ca505d382bbc416464726573733a206c6f772d6c6576656c2064656c65676174652063616c6c206661696c6564a2646970667358221220bbdb4a0f036cbadfefdea3d1050822448933dc5b6bb0e9b57ba09e506e89a52c64736f6c63430008120033",
  "linkReferences": {},
  "deployedLinkReferences": {}
}