{
  "_format": "hh-sol-artifact-1",
  "contractName": "VariablesV1Upgradeable",
  "sourceName": "contracts/VariablesV1Upgradeable.sol",
  "abi": [
    {
      "anonymous": false,
      "inputs": [
        {
          "indexed": false,
          "internalType": "address",
          "name": "previousAdmin",
          "type": "address"
        },
        {
          "indexed": false,
          "internalType": "address",
          "name": "newAdmin",
          "type": "address"
        }
      ],
      "name": "AdminChanged",
      "type": "event"
    },
    {
      "anonymous": false,
      "inputs": [
        {
          "indexed": true,
          "internalType": "address",
          "name": "beacon",
          "type": "address"
        }
      ],
      "name": "BeaconUpgraded",
      "type": "event"
    },
    {
      "anonymous": false,
      "inputs": [
        {
          "indexed": false,
          "internalType": "address",
          "name": "ibpAddress",
          "type": "address"
        }
      ],
      "name": "IBPPromotedByAdmin",
      "type": "event"
    },
    {
      "anonymous": false,
      "inputs": [
        {
          "indexed": false,
          "internalType": "address",
          "name": "ibpAddress",
          "type": "address"
        }
      ],
      "name": "IBPRemovedByAdmin",
      "type": "event"
    },
    {
      "anonymous": false,
      "inputs": [
        {
          "indexed": false,
          "internalType": "uint8",
          "name": "version",
          "type": "uint8"
        }
      ],
      "name": "Initialized",
      "type": "event"
    },
    {
      "anonymous": false,
      "inputs": [
        {
          "indexed": true,
          "internalType": "address",
          "name": "previousOwner",
          "type": "address"
        },
        {
          "indexed": true,
          "internalType": "address",
          "name": "newOwner",
          "type": "address"
        }
      ],
      "name": "OwnershipTransferred",
      "type": "event"
    },
    {
      "anonymous": false,
      "inputs": [
        {
          "indexed": false,
          "internalType": "address",
          "name": "account",
          "type": "address"
        }
      ],
      "name": "Paused",
      "type": "event"
    },
    {
      "anonymous": false,
      "inputs": [
        {
          "indexed": false,
          "internalType": "address",
          "name": "account",
          "type": "address"
        }
      ],
      "name": "Unpaused",
      "type": "event"
    },
    {
      "anonymous": false,
      "inputs": [
        {
          "indexed": true,
          "internalType": "address",
          "name": "implementation",
          "type": "address"
        }
      ],
      "name": "Upgraded",
      "type": "event"
    },
    {
      "inputs": [
        {
          "internalType": "address",
          "name": "_ibpAddress",
          "type": "address"
        }
      ],
      "name": "addIBPAddressAdmin",
      "outputs": [],
      "stateMutability": "nonpayable",
      "type": "function"
    },
    {
      "inputs": [
        {
          "internalType": "address[]",
          "name": "_tokenContractAddress",
          "type": "address[]"
        }
      ],
      "name": "disableSupportedToken",
      "outputs": [],
      "stateMutability": "nonpayable",
      "type": "function"
    },
    {
      "inputs": [],
      "name": "getAdminAddress",
      "outputs": [
        {
          "internalType": "address",
          "name": "",
          "type": "address"
        }
      ],
      "stateMutability": "view",
      "type": "function"
    },
    {
      "inputs": [],
      "name": "getAdminFees",
      "outputs": [
        {
          "internalType": "uint8",
          "name": "",
          "type": "uint8"
        }
      ],
      "stateMutability": "view",
      "type": "function"
    },
    {
      "inputs": [],
      "name": "getBaseCurrencyDecimals",
      "outputs": [
        {
          "internalType": "uint8",
          "name": "",
          "type": "uint8"
        }
      ],
      "stateMutability": "view",
      "type": "function"
    },
    {
      "inputs": [],
      "name": "getCoreMemberRewardRate",
      "outputs": [
        {
          "internalType": "uint8",
          "name": "",
          "type": "uint8"
        }
      ],
      "stateMutability": "view",
      "type": "function"
    },
    {
      "inputs": [],
      "name": "getCoreMembersContractAddress",
      "outputs": [
        {
          "internalType": "address",
          "name": "",
          "type": "address"
        }
      ],
      "stateMutability": "view",
      "type": "function"
    },
    {
      "inputs": [],
      "name": "getGlobalRewardRate",
      "outputs": [
        {
          "internalType": "uint8",
          "name": "",
          "type": "uint8"
        }
      ],
      "stateMutability": "view",
      "type": "function"
    },
    {
      "inputs": [],
      "name": "getIBPList",
      "outputs": [
        {
          "internalType": "address[]",
          "name": "",
          "type": "address[]"
        }
      ],
      "stateMutability": "view",
      "type": "function"
    },
    {
      "inputs": [],
      "name": "getIbpRewardRate",
      "outputs": [
        {
          "internalType": "uint8",
          "name": "",
          "type": "uint8"
        }
      ],
      "stateMutability": "view",
      "type": "function"
    },
    {
      "inputs": [],
      "name": "getIsPayCoreMembersRewards",
      "outputs": [
        {
          "internalType": "bool",
          "name": "",
          "type": "bool"
        }
      ],
      "stateMutability": "view",
      "type": "function"
    },
    {
      "inputs": [],
      "name": "getIsPayGlobalRewards",
      "outputs": [
        {
          "internalType": "bool",
          "name": "",
          "type": "bool"
        }
      ],
      "stateMutability": "view",
      "type": "function"
    },
    {
      "inputs": [],
      "name": "getIsPayIbpRewards",
      "outputs": [
        {
          "internalType": "bool",
          "name": "",
          "type": "bool"
        }
      ],
      "stateMutability": "view",
      "type": "function"
    },
    {
      "inputs": [],
      "name": "getIsPayReferralRewards",
      "outputs": [
        {
          "internalType": "bool",
          "name": "",
          "type": "bool"
        }
      ],
      "stateMutability": "view",
      "type": "function"
    },
    {
      "inputs": [],
      "name": "getIsPayRewardToken",
      "outputs": [
        {
          "internalType": "bool",
          "name": "",
          "type": "bool"
        }
      ],
      "stateMutability": "view",
      "type": "function"
    },
    {
      "inputs": [],
      "name": "getIsPayWeeklyRewards",
      "outputs": [
        {
          "internalType": "bool",
          "name": "",
          "type": "bool"
        }
      ],
      "stateMutability": "view",
      "type": "function"
    },
    {
      "inputs": [],
      "name": "getLevelDecimals",
      "outputs": [
        {
          "internalType": "uint16",
          "name": "",
          "type": "uint16"
        }
      ],
      "stateMutability": "view",
      "type": "function"
    },
    {
      "inputs": [],
      "name": "getLevelRates",
      "outputs": [
        {
          "internalType": "uint16[]",
          "name": "",
          "type": "uint16[]"
        }
      ],
      "stateMutability": "view",
      "type": "function"
    },
    {
      "inputs": [
        {
          "internalType": "uint8",
          "name": "_planId",
          "type": "uint8"
        }
      ],
      "name": "getPlanById",
      "outputs": [
        {
          "components": [
            {
              "internalType": "uint8",
              "name": "planId",
              "type": "uint8"
            },
            {
              "internalType": "string",
              "name": "name",
              "type": "string"
            },
            {
              "internalType": "uint256",
              "name": "value",
              "type": "uint256"
            },
            {
              "internalType": "uint256",
              "name": "maxLimitMultiplier",
              "type": "uint256"
            }
          ],
          "internalType": "struct VariablesV1Upgradeable.PlanStruct",
          "name": "",
          "type": "tuple"
        }
      ],
      "stateMutability": "view",
      "type": "function"
    },
    {
      "inputs": [],
      "name": "getPlansCount",
      "outputs": [
        {
          "internalType": "uint8",
          "name": "planCount",
          "type": "uint8"
        }
      ],
      "stateMutability": "view",
      "type": "function"
    },
    {
      "inputs": [],
      "name": "getRewardTokenContract",
      "outputs": [
        {
          "internalType": "address",
          "name": "",
          "type": "address"
        }
      ],
      "stateMutability": "view",
      "type": "function"
    },
    {
      "inputs": [],
      "name": "getRewardTokenRate",
      "outputs": [
        {
          "internalType": "uint8",
          "name": "",
          "type": "uint8"
        }
      ],
      "stateMutability": "view",
      "type": "function"
    },
    {
      "inputs": [
        {
          "internalType": "address",
          "name": "_tokenContractAddress",
          "type": "address"
        }
      ],
      "name": "getSupportedTokenInfo",
      "outputs": [
        {
          "components": [
            {
              "internalType": "address",
              "name": "contractAddress",
              "type": "address"
            },
            {
              "internalType": "string",
              "name": "name",
              "type": "string"
            },
            {
              "internalType": "string",
              "name": "symbol",
              "type": "string"
            },
            {
              "internalType": "uint8",
              "name": "decimals",
              "type": "uint8"
            },
            {
              "internalType": "bool",
              "name": "isStable",
              "type": "bool"
            },
            {
              "internalType": "address",
              "name": "aggregatorAddress",
              "type": "address"
            },
            {
              "internalType": "bool",
              "name": "isEnaled",
              "type": "bool"
            }
          ],
          "internalType": "struct VariablesV1Upgradeable.SupportedTokensStruct",
          "name": "",
          "type": "tuple"
        }
      ],
      "stateMutability": "view",
      "type": "function"
    },
    {
      "inputs": [],
      "name": "getValueBufferRate",
      "outputs": [
        {
          "internalType": "uint8",
          "name": "",
          "type": "uint8"
        }
      ],
      "stateMutability": "view",
      "type": "function"
    },
    {
      "inputs": [],
      "name": "getWeeklyRewardRate",
      "outputs": [
        {
          "internalType": "uint8",
          "name": "",
          "type": "uint8"
        }
      ],
      "stateMutability": "view",
      "type": "function"
    },
    {
      "inputs": [],
      "name": "initialize",
      "outputs": [],
      "stateMutability": "nonpayable",
      "type": "function"
    },
    {
      "inputs": [
        {
          "internalType": "address",
          "name": "_ibpAddress",
          "type": "address"
        }
      ],
      "name": "isIBP",
      "outputs": [
        {
          "internalType": "bool",
          "name": "",
          "type": "bool"
        }
      ],
      "stateMutability": "view",
      "type": "function"
    },
    {
      "inputs": [
        {
          "internalType": "address",
          "name": "_tokenContractAddress",
          "type": "address"
        }
      ],
      "name": "isTokenSupported",
      "outputs": [
        {
          "internalType": "bool",
          "name": "",
          "type": "bool"
        }
      ],
      "stateMutability": "view",
      "type": "function"
    },
    {
      "inputs": [],
      "name": "owner",
      "outputs": [
        {
          "internalType": "address",
          "name": "",
          "type": "address"
        }
      ],
      "stateMutability": "view",
      "type": "function"
    },
    {
      "inputs": [],
      "name": "pause",
      "outputs": [],
      "stateMutability": "nonpayable",
      "type": "function"
    },
    {
      "inputs": [],
      "name": "paused",
      "outputs": [
        {
          "internalType": "bool",
          "name": "",
          "type": "bool"
        }
      ],
      "stateMutability": "view",
      "type": "function"
    },
    {
      "inputs": [],
      "name": "proxiableUUID",
      "outputs": [
        {
          "internalType": "bytes32",
          "name": "",
          "type": "bytes32"
        }
      ],
      "stateMutability": "view",
      "type": "function"
    },
    {
      "inputs": [
        {
          "internalType": "address",
          "name": "_tokenContractAddress",
          "type": "address"
        },
        {
          "internalType": "bool",
          "name": "_isStable",
          "type": "bool"
        },
        {
          "internalType": "address",
          "name": "_aggregatorContractAddress",
          "type": "address"
        }
      ],
      "name": "pushSupportedTokenToList",
      "outputs": [],
      "stateMutability": "nonpayable",
      "type": "function"
    },
    {
      "inputs": [
        {
          "internalType": "address",
          "name": "_ibpAddress",
          "type": "address"
        }
      ],
      "name": "removeIBPAddressAdmin",
      "outputs": [],
      "stateMutability": "nonpayable",
      "type": "function"
    },
    {
      "inputs": [],
      "name": "renounceOwnership",
      "outputs": [],
      "stateMutability": "nonpayable",
      "type": "function"
    },
    {
      "inputs": [
        {
          "internalType": "address",
          "name": "adminAddress",
          "type": "address"
        }
      ],
      "name": "setAdminAddress",
      "outputs": [],
      "stateMutability": "nonpayable",
      "type": "function"
    },
    {
      "inputs": [
        {
          "internalType": "uint8",
          "name": "fees",
          "type": "uint8"
        }
      ],
      "name": "setAdminFees",
      "outputs": [],
      "stateMutability": "nonpayable",
      "type": "function"
    },
    {
      "inputs": [
        {
          "internalType": "uint8",
          "name": "decimals",
          "type": "uint8"
        }
      ],
      "name": "setBaseCurrencyDecimals",
      "outputs": [],
      "stateMutability": "nonpayable",
      "type": "function"
    },
    {
      "inputs": [
        {
          "internalType": "uint8",
          "name": "rate",
          "type": "uint8"
        }
      ],
      "name": "setCoreMemberRewardRate",
      "outputs": [],
      "stateMutability": "nonpayable",
      "type": "function"
    },
    {
      "inputs": [
        {
          "internalType": "address",
          "name": "_address",
          "type": "address"
        }
      ],
      "name": "setCoreMembersContractAddress",
      "outputs": [],
      "stateMutability": "nonpayable",
      "type": "function"
    },
    {
      "inputs": [
        {
          "internalType": "uint8",
          "name": "rate",
          "type": "uint8"
        }
      ],
      "name": "setGlobalRewardRate",
      "outputs": [],
      "stateMutability": "nonpayable",
      "type": "function"
    },
    {
      "inputs": [
        {
          "internalType": "uint8",
          "name": "rate",
          "type": "uint8"
        }
      ],
      "name": "setIbpRewardRate",
      "outputs": [],
      "stateMutability": "nonpayable",
      "type": "function"
    },
    {
      "inputs": [
        {
          "internalType": "bool",
          "name": "value",
          "type": "bool"
        }
      ],
      "name": "setIsPayCoreMembersRewards",
      "outputs": [],
      "stateMutability": "nonpayable",
      "type": "function"
    },
    {
      "inputs": [
        {
          "internalType": "bool",
          "name": "value",
          "type": "bool"
        }
      ],
      "name": "setIsPayGlobalRewards",
      "outputs": [],
      "stateMutability": "nonpayable",
      "type": "function"
    },
    {
      "inputs": [
        {
          "internalType": "bool",
          "name": "value",
          "type": "bool"
        }
      ],
      "name": "setIsPayIbpRewards",
      "outputs": [],
      "stateMutability": "nonpayable",
      "type": "function"
    },
    {
      "inputs": [
        {
          "internalType": "bool",
          "name": "value",
          "type": "bool"
        }
      ],
      "name": "setIsPayReferralRewards",
      "outputs": [],
      "stateMutability": "nonpayable",
      "type": "function"
    },
    {
      "inputs": [
        {
          "internalType": "bool",
          "name": "isPay",
          "type": "bool"
        }
      ],
      "name": "setIsPayRewardToken",
      "outputs": [],
      "stateMutability": "nonpayable",
      "type": "function"
    },
    {
      "inputs": [
        {
          "internalType": "bool",
          "name": "value",
          "type": "bool"
        }
      ],
      "name": "setIsPayWeeklyRewards",
      "outputs": [],
      "stateMutability": "nonpayable",
      "type": "function"
    },
    {
      "inputs": [
        {
          "internalType": "uint16",
          "name": "decimals",
          "type": "uint16"
        }
      ],
      "name": "setLevelDecimals",
      "outputs": [],
      "stateMutability": "nonpayable",
      "type": "function"
    },
    {
      "inputs": [
        {
          "internalType": "uint16[]",
          "name": "rates",
          "type": "uint16[]"
        }
      ],
      "name": "setLevelRates",
      "outputs": [],
      "stateMutability": "nonpayable",
      "type": "function"
    },
    {
      "inputs": [
        {
          "internalType": "uint8[]",
          "name": "planId",
          "type": "uint8[]"
        },
        {
          "internalType": "string[]",
          "name": "name",
          "type": "string[]"
        },
        {
          "internalType": "uint256[]",
          "name": "valueInDecimals",
          "type": "uint256[]"
        },
        {
          "internalType": "uint256[]",
          "name": "maxLimitMultiplier",
          "type": "uint256[]"
        }
      ],
      "name": "setPlans",
      "outputs": [],
      "stateMutability": "nonpayable",
      "type": "function"
    },
    {
      "inputs": [
        {
          "internalType": "address",
          "name": "tokenContract",
          "type": "address"
        }
      ],
      "name": "setRewardTokenContract",
      "outputs": [],
      "stateMutability": "nonpayable",
      "type": "function"
    },
    {
      "inputs": [
        {
          "internalType": "uint8",
          "name": "rate",
          "type": "uint8"
        }
      ],
      "name": "setRewardTokenRate",
      "outputs": [],
      "stateMutability": "nonpayable",
      "type": "function"
    },
    {
      "inputs": [
        {
          "internalType": "uint8",
          "name": "rate",
          "type": "uint8"
        }
      ],
      "name": "setValueBufferRate",
      "outputs": [],
      "stateMutability": "nonpayable",
      "type": "function"
    },
    {
      "inputs": [
        {
          "internalType": "uint8",
          "name": "rate",
          "type": "uint8"
        }
      ],
      "name": "setWeeklyRewardRate",
      "outputs": [],
      "stateMutability": "nonpayable",
      "type": "function"
    },
    {
      "inputs": [
        {
          "internalType": "uint256",
          "name": "",
          "type": "uint256"
        }
      ],
      "name": "supportedTokensList",
      "outputs": [
        {
          "internalType": "address",
          "name": "",
          "type": "address"
        }
      ],
      "stateMutability": "view",
      "type": "function"
    },
    {
      "inputs": [
        {
          "internalType": "address",
          "name": "newOwner",
          "type": "address"
        }
      ],
      "name": "transferOwnership",
      "outputs": [],
      "stateMutability": "nonpayable",
      "type": "function"
    },
    {
      "inputs": [],
      "name": "unpause",
      "outputs": [],
      "stateMutability": "nonpayable",
      "type": "function"
    },
    {
      "inputs": [
        {
          "internalType": "address",
          "name": "newImplementation",
          "type": "address"
        }
      ],
      "name": "upgradeTo",
      "outputs": [],
      "stateMutability": "nonpayable",
      "type": "function"
    },
    {
      "inputs": [
        {
          "internalType": "address",
          "name": "newImplementation",
          "type": "address"
        },
        {
          "internalType": "bytes",
          "name": "data",
          "type": "bytes"
        }
      ],
      "name": "upgradeToAndCall",
      "outputs": [],
      "stateMutability": "payable",
      "type": "function"
    }
  ],
  "bytecode": "0x60a06040523060805234801561001457600080fd5b5060805161316861004c60003960008181611137015281816111800152818161127d015281816112bd015261134c01526131686000f3fe6080604052600436106103965760003560e01c80638da5cb5b116101dc578063b7a2662011610102578063e371c5c5116100a0578063eb758bc71161006f578063eb758bc714610ade578063f2a9012114610afe578063f2fde38b14610b1e578063ffc43f8f14610b3e57600080fd5b8063e371c5c514610a4c578063e701671714610a6c578063e74af32e14610a8e578063e7cca9c714610abb57600080fd5b8063c391d636116100dc578063c391d636146109d0578063d54fcd93146109ee578063e091099c14610a0e578063e179719a14610a2d57600080fd5b8063b7a266201461096f578063b9cd1a501461098f578063bcb03b57146109b057600080fd5b8063a46868f01161017a578063acc9186511610149578063acc91865146108fb578063af2d4d0914610910578063b2e6b91214610930578063b64435621461094f57600080fd5b8063a46868f01461087b578063a61a4ff31461089b578063a646e845146108bb578063ac40e309146108db57600080fd5b806393cee9c9116101b657806393cee9c9146107fc57806394debf481461081c5780639f6d88701461083c578063a43ae4081461085b57600080fd5b80638da5cb5b1461079d578063916452ab146107bb578063918a54db146107da57600080fd5b80634f1ef286116102c157806363c918771161025f57806375151b631161022e57806375151b631461070f5780638129fc1c146107535780638456cb5914610768578063880c0ec31461077d57600080fd5b806363c918771461068357806365eb204d146106bb5780636cf3c676146106da578063715018a6146106fa57600080fd5b806357b888051161029b57806357b888051461060c5780635c975abb1461062c5780635d9bed63146106445780635f3ad6e21461066457600080fd5b80634f1ef286146105b757806352d1902d146105ca5780635397b86d146105ed57600080fd5b80632c1e816d1161033957806339e0dcfa1161030857806339e0dcfa146105435780633f4ba83a146105635780633fae6a11146105785780634ccebd501461059757600080fd5b80632c1e816d1461049c5780632f8c7e72146104bc5780633238c16f146104f65780633659cfe61461052357600080fd5b80630efc12b1116103755780630efc12b1146103fd57806316dd07e0146104335780631f1eeec81461045e5780632b70c02c1461047d57600080fd5b8062b292901461039b578063051ff2b9146103bd57806308fcfbbe146103dd575b600080fd5b3480156103a757600080fd5b506103bb6103b63660046126e8565b610b60565b005b3480156103c957600080fd5b506103bb6103d8366004612713565b610d3d565b3480156103e957600080fd5b506103bb6103f83660046126e8565b610fce565b34801561040957600080fd5b5061041d610418366004612765565b610ff9565b60405161042a91906127d2565b60405180910390f35b34801561043f57600080fd5b5060fc54600160681b900460ff165b604051901515815260200161042a565b34801561046a57600080fd5b5060fc54600160601b900460ff1661044e565b34801561048957600080fd5b5060fc54600160501b900460ff1661044e565b3480156104a857600080fd5b506103bb6104b73660046126e8565b611102565b3480156104c857600080fd5b5061044e6104d73660046126e8565b6001600160a01b03166000908152610108602052604090205460ff1690565b34801561050257600080fd5b5060fc54600160401b900460ff165b60405160ff909116815260200161042a565b34801561052f57600080fd5b506103bb61053e3660046126e8565b61112d565b34801561054f57600080fd5b506103bb61055e36600461281b565b611215565b34801561056f57600080fd5b506103bb61123b565b34801561058457600080fd5b5060fc54600160581b900460ff1661044e565b3480156105a357600080fd5b506103bb6105b236600461281b565b61124d565b6103bb6105c53660046128e3565b611273565b3480156105d657600080fd5b506105df61133f565b60405190815260200161042a565b3480156105f957600080fd5b5060fc54600160381b900460ff16610511565b34801561061857600080fd5b506103bb610627366004612991565b6113f2565b34801561063857600080fd5b5060335460ff1661044e565b34801561065057600080fd5b506103bb61065f36600461281b565b6114e4565b34801561067057600080fd5b5060fc546301000000900460ff16610511565b34801561068f57600080fd5b506106a361069e3660046129d3565b61150a565b6040516001600160a01b03909116815260200161042a565b3480156106c757600080fd5b50610103546001600160a01b03166106a3565b3480156106e657600080fd5b506103bb6106f5366004612765565b611534565b34801561070657600080fd5b506103bb611561565b34801561071b57600080fd5b5061044e61072a3660046126e8565b6001600160a01b031660009081526101076020526040902060030154600160b01b900460ff1690565b34801561075f57600080fd5b506103bb611573565b34801561077457600080fd5b506103bb61177e565b34801561078957600080fd5b506103bb610798366004612765565b61178e565b3480156107a957600080fd5b506065546001600160a01b03166106a3565b3480156107c757600080fd5b50610104546001600160a01b03166106a3565b3480156107e657600080fd5b506107ef6117bc565b60405161042a91906129ec565b34801561080857600080fd5b506103bb61081736600461281b565b61183c565b34801561082857600080fd5b506103bb610837366004612765565b611862565b34801561084857600080fd5b5060fc54600160701b900460ff1661044e565b34801561086757600080fd5b506103bb610876366004612a46565b61188a565b34801561088757600080fd5b5060fc54640100000000900460ff16610511565b3480156108a757600080fd5b506103bb6108b6366004612765565b6118aa565b3480156108c757600080fd5b506103bb6108d6366004612765565b6118d0565b3480156108e757600080fd5b506103bb6108f6366004612765565b6118fc565b34801561090757600080fd5b50610511611928565b34801561091c57600080fd5b506103bb61092b366004612765565b611978565b34801561093c57600080fd5b50610105546001600160a01b03166106a3565b34801561095b57600080fd5b506103bb61096a36600461281b565b6119a2565b34801561097b57600080fd5b506103bb61098a366004612765565b6119c8565b34801561099b57600080fd5b5060fc5465010000000000900460ff16610511565b3480156109bc57600080fd5b506103bb6109cb366004612a85565b6119f6565b3480156109dc57600080fd5b5060fc5462010000900460ff16610511565b3480156109fa57600080fd5b506103bb610a09366004612bcf565b611bd2565b348015610a1a57600080fd5b5060fc54600160481b900460ff16610511565b348015610a3957600080fd5b5060fc54600160781b900460ff1661044e565b348015610a5857600080fd5b506103bb610a673660046126e8565b611bed565b348015610a7857600080fd5b5060fc546601000000000000900460ff16610511565b348015610a9a57600080fd5b50610aae610aa93660046126e8565b611cb5565b60405161042a9190612c67565b348015610ac757600080fd5b5060fc5460405161ffff909116815260200161042a565b348015610aea57600080fd5b506103bb610af936600461281b565b611e89565b348015610b0a57600080fd5b506103bb610b193660046126e8565b611eaf565b348015610b2a57600080fd5b506103bb610b393660046126e8565b611eda565b348015610b4a57600080fd5b50610b53611f50565b60405161042a9190612cff565b610b68611fb1565b6001600160a01b0381166000908152610108602052604090205460ff168015610d39576001600160a01b038216600090815261010860209081526040808320805460ff1916905560fe80548251818502810185019093528083529192909190830182828015610c0057602002820191906000526020600020905b81546001600160a01b03168152600190910190602001808311610be2575b5050505050905060005b8151811015610d3657836001600160a01b0316828281518110610c2f57610c2f612d40565b60200260200101516001600160a01b031603610d24578160018351610c549190612d6c565b81518110610c6457610c64612d40565b602002602001015160fe8281548110610c7f57610c7f612d40565b9060005260206000200160006101000a8154816001600160a01b0302191690836001600160a01b0316021790555060fe805480610cbe57610cbe612d7f565b6000828152602090819020600019908301810180546001600160a01b03191690559091019091556040516001600160a01b03861681527f337eeb0192a31dfc3c61aff0be47a571a126a9e3f1caaee4af8c29babbb477e9910160405180910390a1610d36565b80610d2e81612d95565b915050610c0a565b50505b5050565b610d45611fb1565b6040518060e00160405280846001600160a01b03168152602001846001600160a01b03166306fdde036040518163ffffffff1660e01b8152600401600060405180830381865afa158015610d9d573d6000803e3d6000fd5b505050506040513d6000823e601f3d908101601f19168201604052610dc59190810190612dae565b8152602001846001600160a01b03166395d89b416040518163ffffffff1660e01b8152600401600060405180830381865afa158015610e08573d6000803e3d6000fd5b505050506040513d6000823e601f3d908101601f19168201604052610e309190810190612dae565b8152602001846001600160a01b031663313ce5676040518163ffffffff1660e01b8152600401602060405180830381865afa158015610e73573d6000803e3d6000fd5b505050506040513d601f19601f82011682018060405250810190610e979190612e25565b60ff1681528315156020808301919091526001600160a01b03848116604080850191909152600160609094018490528782166000908152610107845220845181546001600160a01b0319169216919091178155908301519091820190610efd9082612eca565b5060408201516002820190610f129082612eca565b50606082015160039091018054608084015160a085015160c0909501511515600160b01b0260ff60b01b196001600160a01b0396871662010000021662010000600160b81b03199215156101000261ffff1990941660ff9096169590951792909217169290921791909117905560fd80546001810182556000919091527f9346ac6dd7de6b96975fec380d4d994c4c12e6a8897544f22915316cc6cca280018054949091166001600160a01b0319909416939093179092555050565b610fd6611fb1565b61010380546001600160a01b0319166001600160a01b0392909216919091179055565b6110276040518060800160405280600060ff1681526020016060815260200160008152602001600081525090565b60ff80831660009081526101066020908152604091829020825160808101909352805490931682526001830180549293929184019161106590612e42565b80601f016020809104026020016040519081016040528092919081815260200182805461109190612e42565b80156110de5780601f106110b3576101008083540402835291602001916110de565b820191906000526020600020905b8154815290600101906020018083116110c157829003601f168201915b50505050508152602001600282015481526020016003820154815250509050919050565b61110a611fb1565b61010580546001600160a01b0319166001600160a01b0392909216919091179055565b6001600160a01b037f000000000000000000000000000000000000000000000000000000000000000016300361117e5760405162461bcd60e51b815260040161117590612f8a565b60405180910390fd5b7f00000000000000000000000000000000000000000000000000000000000000006001600160a01b03166111c76000805160206130ec833981519152546001600160a01b031690565b6001600160a01b0316146111ed5760405162461bcd60e51b815260040161117590612fd6565b6111f68161200b565b6040805160008082526020820190925261121291839190612013565b50565b61121d611fb1565b60fc8054911515600160681b0260ff60681b19909216919091179055565b611243611fb1565b61124b61217e565b565b611255611fb1565b60fc8054911515600160781b0260ff60781b19909216919091179055565b6001600160a01b037f00000000000000000000000000000000000000000000000000000000000000001630036112bb5760405162461bcd60e51b815260040161117590612f8a565b7f00000000000000000000000000000000000000000000000000000000000000006001600160a01b03166113046000805160206130ec833981519152546001600160a01b031690565b6001600160a01b03161461132a5760405162461bcd60e51b815260040161117590612fd6565b6113338261200b565b610d3982826001612013565b6000306001600160a01b037f000000000000000000000000000000000000000000000000000000000000000016146113df5760405162461bcd60e51b815260206004820152603860248201527f555550535570677261646561626c653a206d757374206e6f742062652063616c60448201527f6c6564207468726f7567682064656c656761746563616c6c00000000000000006064820152608401611175565b506000805160206130ec83398151915290565b6113fa611fb1565b60005b60ff81168211156114df576000610107600085858560ff1681811061142457611424612d40565b905060200201602081019061143991906126e8565b6001600160a01b0316815260208101919091526040016000206003018054911515600160b01b0260ff60b01b1990921691909117905560fd838360ff841681811061148657611486612d40565b905060200201602081019061149b91906126e8565b81546001810183556000928352602090922090910180546001600160a01b0319166001600160a01b03909216919091179055806114d781613022565b9150506113fd565b505050565b6114ec611fb1565b60fc8054911515600160701b0260ff60701b19909216919091179055565b60fd818154811061151a57600080fd5b6000918252602090912001546001600160a01b0316905081565b61153c611fb1565b60fc805460ff909216600160401b0268ff000000000000000019909216919091179055565b611569611fb1565b61124b60006121d0565b600054610100900460ff16158080156115935750600054600160ff909116105b806115ad5750303b1580156115ad575060005460ff166001145b6116105760405162461bcd60e51b815260206004820152602e60248201527f496e697469616c697a61626c653a20636f6e747261637420697320616c72656160448201526d191e481a5b9a5d1a585b1a5e995960921b6064820152608401611175565b6000805460ff191660011790558015611633576000805461ff0019166101001790555b604080516101408101825261138881526101f460208201526101909181019190915261012c606082015260c86080820152606460a0820181905260c0820152607d60e0820181905261010082015260966101208201526116979060fb90600a612617565b5060fc805461010380546001600160a01b0319908116737f9fd63932babc508fad2f324eb534d09cfe86f0179091556101048054821673efb61c43c70b60563c1a2a835663c63ecc93f6ba1790556f010101010101030302050a0a0a0027106fffffffffffffffffffffffffff00ffff1990921691909117909155610105805490911633179055611726612222565b61172e612251565b611736612280565b8015611212576000805461ff0019169055604051600181527f7f26b83ff96e1f2b6a682f133852f6798a09c465da95921460cefb38474024989060200160405180910390a150565b611786611fb1565b61124b6122a7565b611796611fb1565b60fc805460ff90921666010000000000000266ff00000000000019909216919091179055565b606060fb80548060200260200160405190810160405280929190818152602001828054801561183257602002820191906000526020600020906000905b82829054906101000a900461ffff1661ffff16815260200190600201906020826001010492830192600103820291508084116117f95790505b5050505050905090565b611844611fb1565b60fc8054911515600160601b0260ff60601b19909216919091179055565b61186a611fb1565b60fc805460ff90921663010000000263ff00000019909216919091179055565b611892611fb1565b60fc805461ffff191661ffff92909216919091179055565b6118b2611fb1565b60fc805460ff909216620100000262ff000019909216919091179055565b6118d8611fb1565b60fc805460ff909216600160381b0267ff0000000000000019909216919091179055565b611904611fb1565b60fc805460ff909216650100000000000265ff000000000019909216919091179055565b6000805b60148160ff1610156119745760ff81166000908152610106602052604090206002015415611962578161195e81613022565b9250505b8061196c81613022565b91505061192c565b5090565b611980611fb1565b60fc805460ff9092166401000000000264ff0000000019909216919091179055565b6119aa611fb1565b60fc8054911515600160581b0260ff60581b19909216919091179055565b6119d0611fb1565b60fc805460ff909216600160481b0269ff00000000000000000019909216919091179055565b6119fe611fb1565b60005b86811015611bc857878782818110611a1b57611a1b612d40565b9050602002016020810190611a309190612765565b61010660008a8a85818110611a4757611a47612d40565b9050602002016020810190611a5c9190612765565b60ff90811682526020820192909252604001600020805460ff1916929091169190911790558551869082908110611a9557611a95612d40565b602002602001015161010660008a8a85818110611ab457611ab4612d40565b9050602002016020810190611ac99190612765565b60ff168152602081019190915260400160002060010190611aea9082612eca565b50848482818110611afd57611afd612d40565b90506020020135670de0b6b3a7640000611b179190613041565b61010660008a8a85818110611b2e57611b2e612d40565b9050602002016020810190611b439190612765565b60ff168152602081019190915260400160002060020155828282818110611b6c57611b6c612d40565b9050602002013561010660008a8a85818110611b8a57611b8a612d40565b9050602002016020810190611b9f9190612765565b60ff16815260208101919091526040016000206003015580611bc081612d95565b915050611a01565b5050505050505050565b611bda611fb1565b8051610d399060fb906020840190612617565b611bf5611fb1565b6001600160a01b0381166000908152610108602052604090205460ff1680610d39576001600160a01b038216600081815261010860209081526040808320805460ff1916600190811790915560fe805491820181559093527f54075df80ec1ae6ac9100e1fd0ebf3246c17f5c933137af392011f4c5f61513a90920180546001600160a01b0319168417905590519182527fe30f8cb0d8cbc7c0e95d5aaa3107ce401738ce4bc98a05dd081bb2a77a9ca749910160405180910390a15050565b6040805160e080820183526000808352606060208085018290528486018290529084018290526080840182905260a0840182905260c084018290526001600160a01b0386811683526101078252918590208551938401909552845490911682526001840180549394929391840191611d2c90612e42565b80601f0160208091040260200160405190810160405280929190818152602001828054611d5890612e42565b8015611da55780601f10611d7a57610100808354040283529160200191611da5565b820191906000526020600020905b815481529060010190602001808311611d8857829003601f168201915b50505050508152602001600282018054611dbe90612e42565b80601f0160208091040260200160405190810160405280929190818152602001828054611dea90612e42565b8015611e375780601f10611e0c57610100808354040283529160200191611e37565b820191906000526020600020905b815481529060010190602001808311611e1a57829003601f168201915b50505091835250506003919091015460ff808216602084015261010082048116151560408401526001600160a01b03620100008304166060840152600160b01b90910416151560809091015292915050565b611e91611fb1565b60fc8054911515600160501b0260ff60501b19909216919091179055565b611eb7611fb1565b61010480546001600160a01b0319166001600160a01b0392909216919091179055565b611ee2611fb1565b6001600160a01b038116611f475760405162461bcd60e51b815260206004820152602660248201527f4f776e61626c653a206e6577206f776e657220697320746865207a65726f206160448201526564647265737360d01b6064820152608401611175565b611212816121d0565b606060fe80548060200260200160405190810160405280929190818152602001828054801561183257602002820191906000526020600020905b81546001600160a01b03168152600190910190602001808311611f8a575050505050905090565b6065546001600160a01b0316331461124b5760405162461bcd60e51b815260206004820181905260248201527f4f776e61626c653a2063616c6c6572206973206e6f7420746865206f776e65726044820152606401611175565b611212611fb1565b7f4910fdfa16fed3260ed0e7147f7cc6da11a60208b5b9406d12a635614ffd91435460ff1615612046576114df836122e4565b826001600160a01b03166352d1902d6040518163ffffffff1660e01b8152600401602060405180830381865afa9250505080156120a0575060408051601f3d908101601f1916820190925261209d91810190613058565b60015b6121035760405162461bcd60e51b815260206004820152602e60248201527f45524331393637557067726164653a206e657720696d706c656d656e7461746960448201526d6f6e206973206e6f74205555505360901b6064820152608401611175565b6000805160206130ec83398151915281146121725760405162461bcd60e51b815260206004820152602960248201527f45524331393637557067726164653a20756e737570706f727465642070726f786044820152681a58589b195555525160ba1b6064820152608401611175565b506114df838383612380565b6121866123a5565b6033805460ff191690557f5db9ee0a495bf2e6ff9c91a7834c1ba4fdd244a5e8aa4e537bd38aeae4b073aa335b6040516001600160a01b03909116815260200160405180910390a1565b606580546001600160a01b038381166001600160a01b0319831681179093556040519116919082907f8be0079c531659141344cd1fd0a4f28419497f9722a3daafe3b4186f6b6457e090600090a35050565b600054610100900460ff166122495760405162461bcd60e51b815260040161117590613071565b61124b6123ee565b600054610100900460ff166122785760405162461bcd60e51b815260040161117590613071565b61124b612421565b600054610100900460ff1661124b5760405162461bcd60e51b815260040161117590613071565b6122af612451565b6033805460ff191660011790557f62e78cea01bee320cd4e420270b5ea74000d11b0c9f74754ebdbfc544b05a2586121b33390565b6001600160a01b0381163b6123515760405162461bcd60e51b815260206004820152602d60248201527f455243313936373a206e657720696d706c656d656e746174696f6e206973206e60448201526c1bdd08184818dbdb9d1c9858dd609a1b6064820152608401611175565b6000805160206130ec83398151915280546001600160a01b0319166001600160a01b0392909216919091179055565b61238983612497565b6000825111806123965750805b156114df57610d3683836124d7565b60335460ff1661124b5760405162461bcd60e51b815260206004820152601460248201527314185d5cd8589b194e881b9bdd081c185d5cd95960621b6044820152606401611175565b600054610100900460ff166124155760405162461bcd60e51b815260040161117590613071565b6033805460ff19169055565b600054610100900460ff166124485760405162461bcd60e51b815260040161117590613071565b61124b336121d0565b60335460ff161561124b5760405162461bcd60e51b815260206004820152601060248201526f14185d5cd8589b194e881c185d5cd95960821b6044820152606401611175565b6124a0816122e4565b6040516001600160a01b038216907fbc7cd75a20ee27fd9adebab32041f755214dbc6bffa90cc0225b39da2e5c2d3b90600090a250565b60606001600160a01b0383163b61253f5760405162461bcd60e51b815260206004820152602660248201527f416464726573733a2064656c65676174652063616c6c20746f206e6f6e2d636f6044820152651b9d1c9858dd60d21b6064820152608401611175565b600080846001600160a01b03168460405161255a91906130bc565b600060405180830381855af49150503d8060008114612595576040519150601f19603f3d011682016040523d82523d6000602084013e61259a565b606091505b50915091506125c2828260405180606001604052806027815260200161310c602791396125cd565b925050505b92915050565b606083156125dc5750816125e6565b6125e683836125ed565b9392505050565b8151156125fd5781518083602001fd5b8060405162461bcd60e51b815260040161117591906130d8565b82805482825590600052602060002090600f016010900481019282156126b05791602002820160005b8382111561268057835183826101000a81548161ffff021916908361ffff1602179055509260200192600201602081600101049283019260010302612640565b80156126ae5782816101000a81549061ffff0219169055600201602081600101049283019260010302612680565b505b506119749291505b8082111561197457600081556001016126b8565b80356001600160a01b03811681146126e357600080fd5b919050565b6000602082840312156126fa57600080fd5b6125e6826126cc565b803580151581146126e357600080fd5b60008060006060848603121561272857600080fd5b612731846126cc565b925061273f60208501612703565b915061274d604085016126cc565b90509250925092565b60ff8116811461121257600080fd5b60006020828403121561277757600080fd5b81356125e681612756565b60005b8381101561279d578181015183820152602001612785565b50506000910152565b600081518084526127be816020860160208601612782565b601f01601f19169290920160200192915050565b6020815260ff825116602082015260006020830151608060408401526127fb60a08401826127a6565b905060408401516060840152606084015160808401528091505092915050565b60006020828403121561282d57600080fd5b6125e682612703565b634e487b7160e01b600052604160045260246000fd5b604051601f8201601f1916810167ffffffffffffffff8111828210171561287557612875612836565b604052919050565b600067ffffffffffffffff82111561289757612897612836565b50601f01601f191660200190565b60006128b86128b38461287d565b61284c565b90508281528383830111156128cc57600080fd5b828260208301376000602084830101529392505050565b600080604083850312156128f657600080fd5b6128ff836126cc565b9150602083013567ffffffffffffffff81111561291b57600080fd5b8301601f8101851361292c57600080fd5b61293b858235602084016128a5565b9150509250929050565b60008083601f84011261295757600080fd5b50813567ffffffffffffffff81111561296f57600080fd5b6020830191508360208260051b850101111561298a57600080fd5b9250929050565b600080602083850312156129a457600080fd5b823567ffffffffffffffff8111156129bb57600080fd5b6129c785828601612945565b90969095509350505050565b6000602082840312156129e557600080fd5b5035919050565b6020808252825182820181905260009190848201906040850190845b81811015612a2857835161ffff1683529284019291840191600101612a08565b50909695505050505050565b803561ffff811681146126e357600080fd5b600060208284031215612a5857600080fd5b6125e682612a34565b600067ffffffffffffffff821115612a7b57612a7b612836565b5060051b60200190565b60008060008060008060006080888a031215612aa057600080fd5b67ffffffffffffffff8089351115612ab757600080fd5b612ac48a8a358b01612945565b90985096506020890135811015612ada57600080fd5b602089013589018a601f820112612af057600080fd5b612afd6128b38235612a61565b81358082526020808301929160051b8401018d811115612b1c57600080fd5b602084015b81811015612b6d578581351115612b3757600080fd5b8e603f823587010112612b4957600080fd5b612b5f8f823587016020810135906040016128a5565b845260209384019301612b21565b50508098505050508060408a01351115612b8657600080fd5b612b968a60408b01358b01612945565b90955093506060890135811015612bac57600080fd5b50612bbd8960608a01358a01612945565b979a9699509497509295919491925050565b60006020808385031215612be257600080fd5b823567ffffffffffffffff811115612bf957600080fd5b8301601f81018513612c0a57600080fd5b8035612c186128b382612a61565b81815260059190911b82018301908381019087831115612c3757600080fd5b928401925b82841015612c5c57612c4d84612a34565b82529284019290840190612c3c565b979650505050505050565b602080825282516001600160a01b03168282015282015160e06040830152600090612c966101008401826127a6565b90506040840151601f19848303016060850152612cb382826127a6565b91505060ff60608501511660808401526080840151151560a084015260a0840151612ce960c08501826001600160a01b03169052565b5060c084015180151560e0850152509392505050565b6020808252825182820181905260009190848201906040850190845b81811015612a285783516001600160a01b031683529284019291840191600101612d1b565b634e487b7160e01b600052603260045260246000fd5b634e487b7160e01b600052601160045260246000fd5b818103818111156125c7576125c7612d56565b634e487b7160e01b600052603160045260246000fd5b600060018201612da757612da7612d56565b5060010190565b600060208284031215612dc057600080fd5b815167ffffffffffffffff811115612dd757600080fd5b8201601f81018413612de857600080fd5b8051612df66128b38261287d565b818152856020838501011115612e0b57600080fd5b612e1c826020830160208601612782565b95945050505050565b600060208284031215612e3757600080fd5b81516125e681612756565b600181811c90821680612e5657607f821691505b602082108103612e7657634e487b7160e01b600052602260045260246000fd5b50919050565b601f8211156114df57600081815260208120601f850160051c81016020861015612ea35750805b601f850160051c820191505b81811015612ec257828155600101612eaf565b505050505050565b815167ffffffffffffffff811115612ee457612ee4612836565b612ef881612ef28454612e42565b84612e7c565b602080601f831160018114612f2d5760008415612f155750858301515b600019600386901b1c1916600185901b178555612ec2565b600085815260208120601f198616915b82811015612f5c57888601518255948401946001909101908401612f3d565b5085821015612f7a5787850151600019600388901b60f8161c191681555b5050505050600190811b01905550565b6020808252602c908201527f46756e6374696f6e206d7573742062652063616c6c6564207468726f7567682060408201526b19195b1959d85d1958d85b1b60a21b606082015260800190565b6020808252602c908201527f46756e6374696f6e206d7573742062652063616c6c6564207468726f7567682060408201526b6163746976652070726f787960a01b606082015260800190565b600060ff821660ff810361303857613038612d56565b60010192915050565b80820281158282048414176125c7576125c7612d56565b60006020828403121561306a57600080fd5b5051919050565b6020808252602b908201527f496e697469616c697a61626c653a20636f6e7472616374206973206e6f74206960408201526a6e697469616c697a696e6760a81b606082015260800190565b600082516130ce818460208701612782565b9190910192915050565b6020815260006125e660208301846127a656fe360894a13ba1a3210667c828492db98dca3e2076cc3735a920a3ca505d382bbc416464726573733a206c6f772d6c6576656c2064656c65676174652063616c6c206661696c6564a264697066735822122017df384f624941bf0a0b33989d439d9bf6a33450944a65fd1ad0b8951aed856764736f6c63430008120033",
  "linkReferences": {},
  "deployedLinkReferences": {}
}