{
  "_format": "hh-sol-artifact-1",
  "contractName": "VariablesV1Upgradeable",
  "sourceName": "contracts/VariablesV1Upgradeable.sol",
  "abi": [
    {
      "anonymous": false,
      "inputs": [
        {
          "indexed": false,
          "internalType": "address",
          "name": "previousAdmin",
          "type": "address"
        },
        {
          "indexed": false,
          "internalType": "address",
          "name": "newAdmin",
          "type": "address"
        }
      ],
      "name": "AdminChanged",
      "type": "event"
    },
    {
      "anonymous": false,
      "inputs": [
        {
          "indexed": true,
          "internalType": "address",
          "name": "beacon",
          "type": "address"
        }
      ],
      "name": "BeaconUpgraded",
      "type": "event"
    },
    {
      "anonymous": false,
      "inputs": [
        {
          "indexed": false,
          "internalType": "uint8",
          "name": "version",
          "type": "uint8"
        }
      ],
      "name": "Initialized",
      "type": "event"
    },
    {
      "anonymous": false,
      "inputs": [
        {
          "indexed": true,
          "internalType": "address",
          "name": "previousOwner",
          "type": "address"
        },
        {
          "indexed": true,
          "internalType": "address",
          "name": "newOwner",
          "type": "address"
        }
      ],
      "name": "OwnershipTransferred",
      "type": "event"
    },
    {
      "anonymous": false,
      "inputs": [
        {
          "indexed": false,
          "internalType": "address",
          "name": "account",
          "type": "address"
        }
      ],
      "name": "Paused",
      "type": "event"
    },
    {
      "anonymous": false,
      "inputs": [
        {
          "indexed": false,
          "internalType": "address",
          "name": "account",
          "type": "address"
        }
      ],
      "name": "Unpaused",
      "type": "event"
    },
    {
      "anonymous": false,
      "inputs": [
        {
          "indexed": true,
          "internalType": "address",
          "name": "implementation",
          "type": "address"
        }
      ],
      "name": "Upgraded",
      "type": "event"
    },
    {
      "inputs": [],
      "name": "getAdminAddress",
      "outputs": [
        {
          "internalType": "address",
          "name": "",
          "type": "address"
        }
      ],
      "stateMutability": "view",
      "type": "function"
    },
    {
      "inputs": [],
      "name": "getAdminFees",
      "outputs": [
        {
          "internalType": "uint8",
          "name": "",
          "type": "uint8"
        }
      ],
      "stateMutability": "view",
      "type": "function"
    },
    {
      "inputs": [],
      "name": "getBusdContractAddress",
      "outputs": [
        {
          "internalType": "address",
          "name": "",
          "type": "address"
        }
      ],
      "stateMutability": "view",
      "type": "function"
    },
    {
      "inputs": [],
      "name": "getCoreMemberRewardRate",
      "outputs": [
        {
          "internalType": "uint8",
          "name": "",
          "type": "uint8"
        }
      ],
      "stateMutability": "view",
      "type": "function"
    },
    {
      "inputs": [],
      "name": "getDefaultIBP",
      "outputs": [
        {
          "internalType": "address",
          "name": "",
          "type": "address"
        }
      ],
      "stateMutability": "view",
      "type": "function"
    },
    {
      "inputs": [],
      "name": "getDefaultReferrer",
      "outputs": [
        {
          "internalType": "address",
          "name": "",
          "type": "address"
        }
      ],
      "stateMutability": "view",
      "type": "function"
    },
    {
      "inputs": [],
      "name": "getGlobalRewardRate",
      "outputs": [
        {
          "internalType": "uint8",
          "name": "",
          "type": "uint8"
        }
      ],
      "stateMutability": "view",
      "type": "function"
    },
    {
      "inputs": [],
      "name": "getIbpRewardRate",
      "outputs": [
        {
          "internalType": "uint8",
          "name": "",
          "type": "uint8"
        }
      ],
      "stateMutability": "view",
      "type": "function"
    },
    {
      "inputs": [],
      "name": "getIsPayRewardToken",
      "outputs": [
        {
          "internalType": "bool",
          "name": "",
          "type": "bool"
        }
      ],
      "stateMutability": "view",
      "type": "function"
    },
    {
      "inputs": [],
      "name": "getLevelDecimals",
      "outputs": [
        {
          "internalType": "uint16",
          "name": "",
          "type": "uint16"
        }
      ],
      "stateMutability": "view",
      "type": "function"
    },
    {
      "inputs": [],
      "name": "getLevelRates",
      "outputs": [
        {
          "internalType": "uint16[]",
          "name": "",
          "type": "uint16[]"
        }
      ],
      "stateMutability": "view",
      "type": "function"
    },
    {
      "inputs": [
        {
          "internalType": "uint8",
          "name": "_planId",
          "type": "uint8"
        }
      ],
      "name": "getPlanById",
      "outputs": [
        {
          "components": [
            {
              "internalType": "uint8",
              "name": "planId",
              "type": "uint8"
            },
            {
              "internalType": "string",
              "name": "name",
              "type": "string"
            },
            {
              "internalType": "uint256",
              "name": "value",
              "type": "uint256"
            },
            {
              "internalType": "uint256",
              "name": "maxLimitMultiplier",
              "type": "uint256"
            }
          ],
          "internalType": "struct VariablesV1Upgradeable.PlanStruct",
          "name": "",
          "type": "tuple"
        }
      ],
      "stateMutability": "view",
      "type": "function"
    },
    {
      "inputs": [],
      "name": "getRewardTokenContract",
      "outputs": [
        {
          "internalType": "address",
          "name": "",
          "type": "address"
        }
      ],
      "stateMutability": "view",
      "type": "function"
    },
    {
      "inputs": [],
      "name": "getRewardTokenRate",
      "outputs": [
        {
          "internalType": "uint8",
          "name": "",
          "type": "uint8"
        }
      ],
      "stateMutability": "view",
      "type": "function"
    },
    {
      "inputs": [],
      "name": "getUsdtContractAddress",
      "outputs": [
        {
          "internalType": "address",
          "name": "",
          "type": "address"
        }
      ],
      "stateMutability": "view",
      "type": "function"
    },
    {
      "inputs": [],
      "name": "getValueBufferRate",
      "outputs": [
        {
          "internalType": "uint8",
          "name": "",
          "type": "uint8"
        }
      ],
      "stateMutability": "view",
      "type": "function"
    },
    {
      "inputs": [],
      "name": "getWeeklyRewardRate",
      "outputs": [
        {
          "internalType": "uint8",
          "name": "",
          "type": "uint8"
        }
      ],
      "stateMutability": "view",
      "type": "function"
    },
    {
      "inputs": [],
      "name": "initialize",
      "outputs": [],
      "stateMutability": "nonpayable",
      "type": "function"
    },
    {
      "inputs": [
        {
          "internalType": "address",
          "name": "_contractAddress",
          "type": "address"
        }
      ],
      "name": "isIBPAddress",
      "outputs": [
        {
          "internalType": "bool",
          "name": "",
          "type": "bool"
        }
      ],
      "stateMutability": "view",
      "type": "function"
    },
    {
      "inputs": [],
      "name": "owner",
      "outputs": [
        {
          "internalType": "address",
          "name": "",
          "type": "address"
        }
      ],
      "stateMutability": "view",
      "type": "function"
    },
    {
      "inputs": [],
      "name": "pause",
      "outputs": [],
      "stateMutability": "nonpayable",
      "type": "function"
    },
    {
      "inputs": [],
      "name": "paused",
      "outputs": [
        {
          "internalType": "bool",
          "name": "",
          "type": "bool"
        }
      ],
      "stateMutability": "view",
      "type": "function"
    },
    {
      "inputs": [],
      "name": "proxiableUUID",
      "outputs": [
        {
          "internalType": "bytes32",
          "name": "",
          "type": "bytes32"
        }
      ],
      "stateMutability": "view",
      "type": "function"
    },
    {
      "inputs": [],
      "name": "renounceOwnership",
      "outputs": [],
      "stateMutability": "nonpayable",
      "type": "function"
    },
    {
      "inputs": [
        {
          "internalType": "address",
          "name": "adminAddress",
          "type": "address"
        }
      ],
      "name": "setAdminAddress",
      "outputs": [],
      "stateMutability": "nonpayable",
      "type": "function"
    },
    {
      "inputs": [
        {
          "internalType": "uint8",
          "name": "fees",
          "type": "uint8"
        }
      ],
      "name": "setAdminFees",
      "outputs": [],
      "stateMutability": "nonpayable",
      "type": "function"
    },
    {
      "inputs": [
        {
          "internalType": "address",
          "name": "busdAddress",
          "type": "address"
        }
      ],
      "name": "setBusdContractAddress",
      "outputs": [],
      "stateMutability": "nonpayable",
      "type": "function"
    },
    {
      "inputs": [
        {
          "internalType": "uint8",
          "name": "rate",
          "type": "uint8"
        }
      ],
      "name": "setCoreMemberRewardRate",
      "outputs": [],
      "stateMutability": "nonpayable",
      "type": "function"
    },
    {
      "inputs": [
        {
          "internalType": "address",
          "name": "ibpAddress",
          "type": "address"
        }
      ],
      "name": "setDefaultIBP",
      "outputs": [],
      "stateMutability": "nonpayable",
      "type": "function"
    },
    {
      "inputs": [
        {
          "internalType": "address",
          "name": "referrer",
          "type": "address"
        }
      ],
      "name": "setDefaultReferrer",
      "outputs": [],
      "stateMutability": "nonpayable",
      "type": "function"
    },
    {
      "inputs": [
        {
          "internalType": "uint8",
          "name": "rate",
          "type": "uint8"
        }
      ],
      "name": "setGlobalRewardRate",
      "outputs": [],
      "stateMutability": "nonpayable",
      "type": "function"
    },
    {
      "inputs": [
        {
          "internalType": "uint8",
          "name": "rate",
          "type": "uint8"
        }
      ],
      "name": "setIbpRewardRate",
      "outputs": [],
      "stateMutability": "nonpayable",
      "type": "function"
    },
    {
      "inputs": [
        {
          "internalType": "bool",
          "name": "isPay",
          "type": "bool"
        }
      ],
      "name": "setIsPayRewardToken",
      "outputs": [],
      "stateMutability": "nonpayable",
      "type": "function"
    },
    {
      "inputs": [
        {
          "internalType": "uint16",
          "name": "decimals",
          "type": "uint16"
        }
      ],
      "name": "setLevelDecimals",
      "outputs": [],
      "stateMutability": "nonpayable",
      "type": "function"
    },
    {
      "inputs": [
        {
          "internalType": "uint16[]",
          "name": "rates",
          "type": "uint16[]"
        }
      ],
      "name": "setLevelRates",
      "outputs": [],
      "stateMutability": "nonpayable",
      "type": "function"
    },
    {
      "inputs": [
        {
          "internalType": "uint8[]",
          "name": "planId",
          "type": "uint8[]"
        },
        {
          "internalType": "string[]",
          "name": "name",
          "type": "string[]"
        },
        {
          "internalType": "uint256[]",
          "name": "value",
          "type": "uint256[]"
        },
        {
          "internalType": "uint256[]",
          "name": "maxLimitMultiplier",
          "type": "uint256[]"
        }
      ],
      "name": "setPlans",
      "outputs": [],
      "stateMutability": "nonpayable",
      "type": "function"
    },
    {
      "inputs": [
        {
          "internalType": "address",
          "name": "tokenContract",
          "type": "address"
        }
      ],
      "name": "setRewardTokenContract",
      "outputs": [],
      "stateMutability": "nonpayable",
      "type": "function"
    },
    {
      "inputs": [
        {
          "internalType": "uint8",
          "name": "rate",
          "type": "uint8"
        }
      ],
      "name": "setRewardTokenRate",
      "outputs": [],
      "stateMutability": "nonpayable",
      "type": "function"
    },
    {
      "inputs": [
        {
          "internalType": "address",
          "name": "usdtAddress",
          "type": "address"
        }
      ],
      "name": "setUsdtContractAddress",
      "outputs": [],
      "stateMutability": "nonpayable",
      "type": "function"
    },
    {
      "inputs": [
        {
          "internalType": "uint8",
          "name": "rate",
          "type": "uint8"
        }
      ],
      "name": "setValueBufferRate",
      "outputs": [],
      "stateMutability": "nonpayable",
      "type": "function"
    },
    {
      "inputs": [
        {
          "internalType": "uint8",
          "name": "rate",
          "type": "uint8"
        }
      ],
      "name": "setWeeklyRewardRate",
      "outputs": [],
      "stateMutability": "nonpayable",
      "type": "function"
    },
    {
      "inputs": [
        {
          "internalType": "address",
          "name": "newOwner",
          "type": "address"
        }
      ],
      "name": "transferOwnership",
      "outputs": [],
      "stateMutability": "nonpayable",
      "type": "function"
    },
    {
      "inputs": [],
      "name": "unpause",
      "outputs": [],
      "stateMutability": "nonpayable",
      "type": "function"
    },
    {
      "inputs": [
        {
          "internalType": "address",
          "name": "newImplementation",
          "type": "address"
        }
      ],
      "name": "upgradeTo",
      "outputs": [],
      "stateMutability": "nonpayable",
      "type": "function"
    },
    {
      "inputs": [
        {
          "internalType": "address",
          "name": "newImplementation",
          "type": "address"
        },
        {
          "internalType": "bytes",
          "name": "data",
          "type": "bytes"
        }
      ],
      "name": "upgradeToAndCall",
      "outputs": [],
      "stateMutability": "payable",
      "type": "function"
    }
  ],
  "bytecode": "0x60a06040523060805234801561001457600080fd5b506080516121cc61004c6000396000818161099e015281816109e701528181610a9801528181610ad80152610b6b01526121cc6000f3fe6080604052600436106102725760003560e01c8063880c0ec31161014f578063b7a26620116100c1578063e091099c1161007a578063e091099c14610773578063e420318314610792578063e7016717146107b2578063e7cca9c7146107d3578063eb758bc7146107f6578063f2fde38b1461081657600080fd5b8063b7a26620146106ae578063b9cd1a50146106ce578063bcb03b57146106ee578063beb22a201461070e578063d54fcd9314610733578063dcf6e8191461075357600080fd5b8063a46868f011610113578063a46868f0146105f1578063a646e84514610610578063ac40e30914610630578063af2d4d0914610650578063b2e6b91214610670578063b6b248de1461068f57600080fd5b8063880c0ec3146105515780638da5cb5b14610571578063918a54db1461058f57806394debf48146105b1578063a43ae408146105d157600080fd5b80635397b86d116101e85780636da471bd116101ac5780636da471bd14610498578063707d9afe146104d2578063715018a6146104f25780638129fc1c146105075780638456cb591461051c5780638790c4f81461053157600080fd5b80635397b86d146104025780635c975abb146104245780635f3ad6e21461043c57806365eb204d1461045a5780636cf3c6761461047857600080fd5b80633238c16f1161023a5780633238c16f1461034c5780633659cfe6146103795780633f4ba83a146103995780634b92fb12146103ae5780634f1ef286146103cc57806352d1902d146103df57600080fd5b806308fcfbbe146102775780630efc12b11461029957806324883508146102cf5780632b70c02c146103015780632c1e816d1461032c575b600080fd5b34801561028357600080fd5b50610297610292366004611a3f565b610836565b005b3480156102a557600080fd5b506102b96102b4366004611a5a565b610860565b6040516102c69190611acd565b60405180910390f35b3480156102db57600080fd5b5060ff546001600160a01b03165b6040516001600160a01b0390911681526020016102c6565b34801561030d57600080fd5b5060fc54600160481b900460ff165b60405190151581526020016102c6565b34801561033857600080fd5b50610297610347366004611a3f565b610969565b34801561035857600080fd5b5060fc54600160381b900460ff165b60405160ff90911681526020016102c6565b34801561038557600080fd5b50610297610394366004611a3f565b610994565b3480156103a557600080fd5b50610297610a7c565b3480156103ba57600080fd5b5060fd546001600160a01b03166102e9565b6102976103da366004611b5d565b610a8e565b3480156103eb57600080fd5b506103f4610b5e565b6040519081526020016102c6565b34801561040e57600080fd5b5060fc546601000000000000900460ff16610367565b34801561043057600080fd5b5060335460ff1661031c565b34801561044857600080fd5b5060fc5462010000900460ff16610367565b34801561046657600080fd5b5060fe546001600160a01b03166102e9565b34801561048457600080fd5b50610297610493366004611a5a565b610c11565b3480156104a457600080fd5b5061031c6104b3366004611a3f565b6001600160a01b03166000908152610102602052604090205460ff1690565b3480156104de57600080fd5b506102976104ed366004611a3f565b610c3d565b3480156104fe57600080fd5b50610297610c68565b34801561051357600080fd5b50610297610c7a565b34801561052857600080fd5b50610297610e1a565b34801561053d57600080fd5b5061029761054c366004611a3f565b610e2a565b34801561055d57600080fd5b5061029761056c366004611a5a565b610e54565b34801561057d57600080fd5b506065546001600160a01b03166102e9565b34801561059b57600080fd5b506105a4610e80565b6040516102c69190611c03565b3480156105bd57600080fd5b506102976105cc366004611a5a565b610f00565b3480156105dd57600080fd5b506102976105ec366004611c5d565b610f26565b3480156105fd57600080fd5b5060fc546301000000900460ff16610367565b34801561061c57600080fd5b5061029761062b366004611a5a565b610f46565b34801561063c57600080fd5b5061029761064b366004611a5a565b610f74565b34801561065c57600080fd5b5061029761066b366004611a5a565b610f9e565b34801561067c57600080fd5b50610101546001600160a01b03166102e9565b34801561069b57600080fd5b50610100546001600160a01b03166102e9565b3480156106ba57600080fd5b506102976106c9366004611a5a565b610fc6565b3480156106da57600080fd5b5060fc54640100000000900460ff16610367565b3480156106fa57600080fd5b50610297610709366004611cc4565b610ff3565b34801561071a57600080fd5b5060fc54600160501b90046001600160a01b03166102e9565b34801561073f57600080fd5b5061029761074e366004611d88565b6111c6565b34801561075f57600080fd5b5061029761076e366004611a3f565b6111e1565b34801561077f57600080fd5b5060fc54600160401b900460ff16610367565b34801561079e57600080fd5b506102976107ad366004611a3f565b61120b565b3480156107be57600080fd5b5060fc5465010000000000900460ff16610367565b3480156107df57600080fd5b5060fc5460405161ffff90911681526020016102c6565b34801561080257600080fd5b50610297610811366004611e35565b611254565b34801561082257600080fd5b50610297610831366004611a3f565b611280565b61083e6112f6565b60fe80546001600160a01b0319166001600160a01b0392909216919091179055565b61088e6040518060800160405280600060ff1681526020016060815260200160008152602001600081525090565b60ff8083166000908152610103602090815260409182902082516080810190935280549093168252600183018054929392918401916108cc90611e57565b80601f01602080910402602001604051908101604052809291908181526020018280546108f890611e57565b80156109455780601f1061091a57610100808354040283529160200191610945565b820191906000526020600020905b81548152906001019060200180831161092857829003601f168201915b50505050508152602001600282015481526020016003820154815250509050919050565b6109716112f6565b61010180546001600160a01b0319166001600160a01b0392909216919091179055565b6001600160a01b037f00000000000000000000000000000000000000000000000000000000000000001630036109e55760405162461bcd60e51b81526004016109dc90611e91565b60405180910390fd5b7f00000000000000000000000000000000000000000000000000000000000000006001600160a01b0316610a2e600080516020612150833981519152546001600160a01b031690565b6001600160a01b031614610a545760405162461bcd60e51b81526004016109dc90611edd565b610a5d81611350565b60408051600080825260208201909252610a7991839190611358565b50565b610a846112f6565b610a8c6114c8565b565b6001600160a01b037f0000000000000000000000000000000000000000000000000000000000000000163003610ad65760405162461bcd60e51b81526004016109dc90611e91565b7f00000000000000000000000000000000000000000000000000000000000000006001600160a01b0316610b1f600080516020612150833981519152546001600160a01b031690565b6001600160a01b031614610b455760405162461bcd60e51b81526004016109dc90611edd565b610b4e82611350565b610b5a82826001611358565b5050565b6000306001600160a01b037f00000000000000000000000000000000000000000000000000000000000000001614610bfe5760405162461bcd60e51b815260206004820152603860248201527f555550535570677261646561626c653a206d757374206e6f742062652063616c60448201527f6c6564207468726f7567682064656c656761746563616c6c000000000000000060648201526084016109dc565b5060008051602061215083398151915290565b610c196112f6565b60fc805460ff909216600160381b0267ff0000000000000019909216919091179055565b610c456112f6565b61010080546001600160a01b0319166001600160a01b0392909216919091179055565b610c706112f6565b610a8c600061151a565b600054610100900460ff1615808015610c9a5750600054600160ff909116105b80610cb45750303b158015610cb4575060005460ff166001145b610d175760405162461bcd60e51b815260206004820152602e60248201527f496e697469616c697a61626c653a20636f6e747261637420697320616c72656160448201526d191e481a5b9a5d1a585b1a5e995960921b60648201526084016109dc565b6000805460ff191660011790558015610d3a576000805461ff0019166101001790555b604080516101408101825261138881526101f460208201526101909181019190915261012c606082015260c86080820152606460a0820181905260c0820152607d60e082018190526101008201526096610120820152610d9e9060fb90600a611965565b5060fc805467ffffffffffffffff1916670302050a0a0a2710179055610dc261156c565b610dca61159b565b610dd26115ca565b8015610a79576000805461ff0019169055604051600181527f7f26b83ff96e1f2b6a682f133852f6798a09c465da95921460cefb38474024989060200160405180910390a150565b610e226112f6565b610a8c6115f1565b610e326112f6565b60fd80546001600160a01b0319166001600160a01b0392909216919091179055565b610e5c6112f6565b60fc805460ff909216650100000000000265ff000000000019909216919091179055565b606060fb805480602002602001604051908101604052809291908181526020018280548015610ef657602002820191906000526020600020906000905b82829054906101000a900461ffff1661ffff1681526020019060020190602082600101049283019260010382029150808411610ebd5790505b5050505050905090565b610f086112f6565b60fc805460ff909216620100000262ff000019909216919091179055565b610f2e6112f6565b60fc805461ffff191661ffff92909216919091179055565b610f4e6112f6565b60fc805460ff90921666010000000000000266ff00000000000019909216919091179055565b610f7c6112f6565b60fc805460ff9092166401000000000264ff0000000019909216919091179055565b610fa66112f6565b60fc805460ff90921663010000000263ff00000019909216919091179055565b610fce6112f6565b60fc805460ff909216600160401b0268ff000000000000000019909216919091179055565b610ffb6112f6565b60005b878110156111bb5788888281811061101857611018611f29565b905060200201602081019061102d9190611a5a565b61010360008b8b8581811061104457611044611f29565b90506020020160208101906110599190611a5a565b60ff90811682526020820192909252604001600020805460ff19169290911691909117905586868281811061109057611090611f29565b90506020028101906110a29190611f3f565b61010360008c8c868181106110b9576110b9611f29565b90506020020160208101906110ce9190611a5a565b60ff1681526020810191909152604001600020600101916110f0919083611fd4565b5084848281811061110357611103611f29565b9050602002013561010360008b8b8581811061112157611121611f29565b90506020020160208101906111369190611a5a565b60ff16815260208101919091526040016000206002015582828281811061115f5761115f611f29565b9050602002013561010360008b8b8581811061117d5761117d611f29565b90506020020160208101906111929190611a5a565b60ff168152602081019190915260400160002060030155806111b381612095565b915050610ffe565b505050505050505050565b6111ce6112f6565b8051610b5a9060fb906020840190611965565b6111e96112f6565b60ff80546001600160a01b0319166001600160a01b0392909216919091179055565b6112136112f6565b60fc80546001600160a01b03909216600160501b027fffff0000000000000000000000000000000000000000ffffffffffffffffffff909216919091179055565b61125c6112f6565b60fc8054911515600160481b0269ff00000000000000000019909216919091179055565b6112886112f6565b6001600160a01b0381166112ed5760405162461bcd60e51b815260206004820152602660248201527f4f776e61626c653a206e6577206f776e657220697320746865207a65726f206160448201526564647265737360d01b60648201526084016109dc565b610a798161151a565b6065546001600160a01b03163314610a8c5760405162461bcd60e51b815260206004820181905260248201527f4f776e61626c653a2063616c6c6572206973206e6f7420746865206f776e657260448201526064016109dc565b610a796112f6565b7f4910fdfa16fed3260ed0e7147f7cc6da11a60208b5b9406d12a635614ffd91435460ff16156113905761138b8361162e565b505050565b826001600160a01b03166352d1902d6040518163ffffffff1660e01b8152600401602060405180830381865afa9250505080156113ea575060408051601f3d908101601f191682019092526113e7918101906120bc565b60015b61144d5760405162461bcd60e51b815260206004820152602e60248201527f45524331393637557067726164653a206e657720696d706c656d656e7461746960448201526d6f6e206973206e6f74205555505360901b60648201526084016109dc565b60008051602061215083398151915281146114bc5760405162461bcd60e51b815260206004820152602960248201527f45524331393637557067726164653a20756e737570706f727465642070726f786044820152681a58589b195555525160ba1b60648201526084016109dc565b5061138b8383836116ca565b6114d06116f5565b6033805460ff191690557f5db9ee0a495bf2e6ff9c91a7834c1ba4fdd244a5e8aa4e537bd38aeae4b073aa335b6040516001600160a01b03909116815260200160405180910390a1565b606580546001600160a01b038381166001600160a01b0319831681179093556040519116919082907f8be0079c531659141344cd1fd0a4f28419497f9722a3daafe3b4186f6b6457e090600090a35050565b600054610100900460ff166115935760405162461bcd60e51b81526004016109dc906120d5565b610a8c61173e565b600054610100900460ff166115c25760405162461bcd60e51b81526004016109dc906120d5565b610a8c611771565b600054610100900460ff16610a8c5760405162461bcd60e51b81526004016109dc906120d5565b6115f96117a1565b6033805460ff191660011790557f62e78cea01bee320cd4e420270b5ea74000d11b0c9f74754ebdbfc544b05a2586114fd3390565b6001600160a01b0381163b61169b5760405162461bcd60e51b815260206004820152602d60248201527f455243313936373a206e657720696d706c656d656e746174696f6e206973206e60448201526c1bdd08184818dbdb9d1c9858dd609a1b60648201526084016109dc565b60008051602061215083398151915280546001600160a01b0319166001600160a01b0392909216919091179055565b6116d3836117e7565b6000825111806116e05750805b1561138b576116ef8383611827565b50505050565b60335460ff16610a8c5760405162461bcd60e51b815260206004820152601460248201527314185d5cd8589b194e881b9bdd081c185d5cd95960621b60448201526064016109dc565b600054610100900460ff166117655760405162461bcd60e51b81526004016109dc906120d5565b6033805460ff19169055565b600054610100900460ff166117985760405162461bcd60e51b81526004016109dc906120d5565b610a8c3361151a565b60335460ff1615610a8c5760405162461bcd60e51b815260206004820152601060248201526f14185d5cd8589b194e881c185d5cd95960821b60448201526064016109dc565b6117f08161162e565b6040516001600160a01b038216907fbc7cd75a20ee27fd9adebab32041f755214dbc6bffa90cc0225b39da2e5c2d3b90600090a250565b60606001600160a01b0383163b61188f5760405162461bcd60e51b815260206004820152602660248201527f416464726573733a2064656c65676174652063616c6c20746f206e6f6e2d636f6044820152651b9d1c9858dd60d21b60648201526084016109dc565b600080846001600160a01b0316846040516118aa9190612120565b600060405180830381855af49150503d80600081146118e5576040519150601f19603f3d011682016040523d82523d6000602084013e6118ea565b606091505b509150915061191282826040518060600160405280602781526020016121706027913961191b565b95945050505050565b6060831561192a575081611934565b611934838361193b565b9392505050565b81511561194b5781518083602001fd5b8060405162461bcd60e51b81526004016109dc919061213c565b82805482825590600052602060002090600f016010900481019282156119fe5791602002820160005b838211156119ce57835183826101000a81548161ffff021916908361ffff160217905550926020019260020160208160010104928301926001030261198e565b80156119fc5782816101000a81549061ffff02191690556002016020816001010492830192600103026119ce565b505b50611a0a929150611a0e565b5090565b5b80821115611a0a5760008155600101611a0f565b80356001600160a01b0381168114611a3a57600080fd5b919050565b600060208284031215611a5157600080fd5b61193482611a23565b600060208284031215611a6c57600080fd5b813560ff8116811461193457600080fd5b60005b83811015611a98578181015183820152602001611a80565b50506000910152565b60008151808452611ab9816020860160208601611a7d565b601f01601f19169290920160200192915050565b6020815260ff82511660208201526000602083015160806040840152611af660a0840182611aa1565b905060408401516060840152606084015160808401528091505092915050565b634e487b7160e01b600052604160045260246000fd5b604051601f8201601f1916810167ffffffffffffffff81118282101715611b5557611b55611b16565b604052919050565b60008060408385031215611b7057600080fd5b611b7983611a23565b915060208084013567ffffffffffffffff80821115611b9757600080fd5b818601915086601f830112611bab57600080fd5b813581811115611bbd57611bbd611b16565b611bcf601f8201601f19168501611b2c565b91508082528784828501011115611be557600080fd5b80848401858401376000848284010152508093505050509250929050565b6020808252825182820181905260009190848201906040850190845b81811015611c3f57835161ffff1683529284019291840191600101611c1f565b50909695505050505050565b803561ffff81168114611a3a57600080fd5b600060208284031215611c6f57600080fd5b61193482611c4b565b60008083601f840112611c8a57600080fd5b50813567ffffffffffffffff811115611ca257600080fd5b6020830191508360208260051b8501011115611cbd57600080fd5b9250929050565b6000806000806000806000806080898b031215611ce057600080fd5b883567ffffffffffffffff80821115611cf857600080fd5b611d048c838d01611c78565b909a50985060208b0135915080821115611d1d57600080fd5b611d298c838d01611c78565b909850965060408b0135915080821115611d4257600080fd5b611d4e8c838d01611c78565b909650945060608b0135915080821115611d6757600080fd5b50611d748b828c01611c78565b999c989b5096995094979396929594505050565b60006020808385031215611d9b57600080fd5b823567ffffffffffffffff80821115611db357600080fd5b818501915085601f830112611dc757600080fd5b813581811115611dd957611dd9611b16565b8060051b9150611dea848301611b2c565b8181529183018401918481019088841115611e0457600080fd5b938501935b83851015611e2957611e1a85611c4b565b82529385019390850190611e09565b98975050505050505050565b600060208284031215611e4757600080fd5b8135801515811461193457600080fd5b600181811c90821680611e6b57607f821691505b602082108103611e8b57634e487b7160e01b600052602260045260246000fd5b50919050565b6020808252602c908201527f46756e6374696f6e206d7573742062652063616c6c6564207468726f7567682060408201526b19195b1959d85d1958d85b1b60a21b606082015260800190565b6020808252602c908201527f46756e6374696f6e206d7573742062652063616c6c6564207468726f7567682060408201526b6163746976652070726f787960a01b606082015260800190565b634e487b7160e01b600052603260045260246000fd5b6000808335601e19843603018112611f5657600080fd5b83018035915067ffffffffffffffff821115611f7157600080fd5b602001915036819003821315611cbd57600080fd5b601f82111561138b57600081815260208120601f850160051c81016020861015611fad5750805b601f850160051c820191505b81811015611fcc57828155600101611fb9565b505050505050565b67ffffffffffffffff831115611fec57611fec611b16565b61200083611ffa8354611e57565b83611f86565b6000601f841160018114612034576000851561201c5750838201355b600019600387901b1c1916600186901b17835561208e565b600083815260209020601f19861690835b828110156120655786850135825560209485019460019092019101612045565b50868210156120825760001960f88860031b161c19848701351681555b505060018560011b0183555b5050505050565b6000600182016120b557634e487b7160e01b600052601160045260246000fd5b5060010190565b6000602082840312156120ce57600080fd5b5051919050565b6020808252602b908201527f496e697469616c697a61626c653a20636f6e7472616374206973206e6f74206960408201526a6e697469616c697a696e6760a81b606082015260800190565b60008251612132818460208701611a7d565b9190910192915050565b6020815260006119346020830184611aa156fe360894a13ba1a3210667c828492db98dca3e2076cc3735a920a3ca505d382bbc416464726573733a206c6f772d6c6576656c2064656c65676174652063616c6c206661696c6564a26469706673582212208b6b3fa60408afe320a7f25a55e11472d64b86c5664709c1e0e42b3e9021752764736f6c63430008120033",
  "linkReferences": {},
  "deployedLinkReferences": {}
}