{
  "_format": "hh-sol-artifact-1",
  "contractName": "VariablesV1Upgradeable",
  "sourceName": "contracts/VariablesV1Upgradeable.sol",
  "abi": [
    {
      "anonymous": false,
      "inputs": [
        {
          "indexed": false,
          "internalType": "address",
          "name": "previousAdmin",
          "type": "address"
        },
        {
          "indexed": false,
          "internalType": "address",
          "name": "newAdmin",
          "type": "address"
        }
      ],
      "name": "AdminChanged",
      "type": "event"
    },
    {
      "anonymous": false,
      "inputs": [
        {
          "indexed": true,
          "internalType": "address",
          "name": "beacon",
          "type": "address"
        }
      ],
      "name": "BeaconUpgraded",
      "type": "event"
    },
    {
      "anonymous": false,
      "inputs": [
        {
          "indexed": false,
          "internalType": "address",
          "name": "ibpAddress",
          "type": "address"
        }
      ],
      "name": "IBPPromotedByAdmin",
      "type": "event"
    },
    {
      "anonymous": false,
      "inputs": [
        {
          "indexed": false,
          "internalType": "address",
          "name": "ibpAddress",
          "type": "address"
        }
      ],
      "name": "IBPRemovedByAdmin",
      "type": "event"
    },
    {
      "anonymous": false,
      "inputs": [
        {
          "indexed": false,
          "internalType": "uint8",
          "name": "version",
          "type": "uint8"
        }
      ],
      "name": "Initialized",
      "type": "event"
    },
    {
      "anonymous": false,
      "inputs": [
        {
          "indexed": true,
          "internalType": "address",
          "name": "previousOwner",
          "type": "address"
        },
        {
          "indexed": true,
          "internalType": "address",
          "name": "newOwner",
          "type": "address"
        }
      ],
      "name": "OwnershipTransferred",
      "type": "event"
    },
    {
      "anonymous": false,
      "inputs": [
        {
          "indexed": false,
          "internalType": "address",
          "name": "account",
          "type": "address"
        }
      ],
      "name": "Paused",
      "type": "event"
    },
    {
      "anonymous": false,
      "inputs": [
        {
          "indexed": false,
          "internalType": "address",
          "name": "account",
          "type": "address"
        }
      ],
      "name": "Unpaused",
      "type": "event"
    },
    {
      "anonymous": false,
      "inputs": [
        {
          "indexed": true,
          "internalType": "address",
          "name": "implementation",
          "type": "address"
        }
      ],
      "name": "Upgraded",
      "type": "event"
    },
    {
      "inputs": [
        {
          "internalType": "address",
          "name": "_ibpAddress",
          "type": "address"
        }
      ],
      "name": "addIBPAddressAdmin",
      "outputs": [],
      "stateMutability": "nonpayable",
      "type": "function"
    },
    {
      "inputs": [
        {
          "internalType": "address[]",
          "name": "_tokenContractAddress",
          "type": "address[]"
        }
      ],
      "name": "disableSupportedToken",
      "outputs": [],
      "stateMutability": "nonpayable",
      "type": "function"
    },
    {
      "inputs": [],
      "name": "getAdminAddress",
      "outputs": [
        {
          "internalType": "address",
          "name": "",
          "type": "address"
        }
      ],
      "stateMutability": "view",
      "type": "function"
    },
    {
      "inputs": [],
      "name": "getAdminFees",
      "outputs": [
        {
          "internalType": "uint8",
          "name": "",
          "type": "uint8"
        }
      ],
      "stateMutability": "view",
      "type": "function"
    },
    {
      "inputs": [],
      "name": "getBaseCurrencyDecimals",
      "outputs": [
        {
          "internalType": "uint8",
          "name": "",
          "type": "uint8"
        }
      ],
      "stateMutability": "view",
      "type": "function"
    },
    {
      "inputs": [],
      "name": "getCoreMemberRewardRate",
      "outputs": [
        {
          "internalType": "uint8",
          "name": "",
          "type": "uint8"
        }
      ],
      "stateMutability": "view",
      "type": "function"
    },
    {
      "inputs": [],
      "name": "getCoreMembersContractAddress",
      "outputs": [
        {
          "internalType": "address",
          "name": "",
          "type": "address"
        }
      ],
      "stateMutability": "view",
      "type": "function"
    },
    {
      "inputs": [],
      "name": "getGlobalRewardRate",
      "outputs": [
        {
          "internalType": "uint8",
          "name": "",
          "type": "uint8"
        }
      ],
      "stateMutability": "view",
      "type": "function"
    },
    {
      "inputs": [],
      "name": "getIBPList",
      "outputs": [
        {
          "internalType": "address[]",
          "name": "",
          "type": "address[]"
        }
      ],
      "stateMutability": "view",
      "type": "function"
    },
    {
      "inputs": [],
      "name": "getIbpRewardRate",
      "outputs": [
        {
          "internalType": "uint8",
          "name": "",
          "type": "uint8"
        }
      ],
      "stateMutability": "view",
      "type": "function"
    },
    {
      "inputs": [],
      "name": "getIsPayCoreMembersRewards",
      "outputs": [
        {
          "internalType": "bool",
          "name": "",
          "type": "bool"
        }
      ],
      "stateMutability": "view",
      "type": "function"
    },
    {
      "inputs": [],
      "name": "getIsPayGlobalRewards",
      "outputs": [
        {
          "internalType": "bool",
          "name": "",
          "type": "bool"
        }
      ],
      "stateMutability": "view",
      "type": "function"
    },
    {
      "inputs": [],
      "name": "getIsPayIbpRewards",
      "outputs": [
        {
          "internalType": "bool",
          "name": "",
          "type": "bool"
        }
      ],
      "stateMutability": "view",
      "type": "function"
    },
    {
      "inputs": [],
      "name": "getIsPayReferralRewards",
      "outputs": [
        {
          "internalType": "bool",
          "name": "",
          "type": "bool"
        }
      ],
      "stateMutability": "view",
      "type": "function"
    },
    {
      "inputs": [],
      "name": "getIsPayRewardToken",
      "outputs": [
        {
          "internalType": "bool",
          "name": "",
          "type": "bool"
        }
      ],
      "stateMutability": "view",
      "type": "function"
    },
    {
      "inputs": [],
      "name": "getIsPayWeeklyRewards",
      "outputs": [
        {
          "internalType": "bool",
          "name": "",
          "type": "bool"
        }
      ],
      "stateMutability": "view",
      "type": "function"
    },
    {
      "inputs": [],
      "name": "getLevelDecimals",
      "outputs": [
        {
          "internalType": "uint16",
          "name": "",
          "type": "uint16"
        }
      ],
      "stateMutability": "view",
      "type": "function"
    },
    {
      "inputs": [],
      "name": "getLevelRates",
      "outputs": [
        {
          "internalType": "uint16[]",
          "name": "",
          "type": "uint16[]"
        }
      ],
      "stateMutability": "view",
      "type": "function"
    },
    {
      "inputs": [
        {
          "internalType": "uint8",
          "name": "_planId",
          "type": "uint8"
        }
      ],
      "name": "getPlanById",
      "outputs": [
        {
          "components": [
            {
              "internalType": "uint8",
              "name": "planId",
              "type": "uint8"
            },
            {
              "internalType": "string",
              "name": "name",
              "type": "string"
            },
            {
              "internalType": "uint256",
              "name": "value",
              "type": "uint256"
            },
            {
              "internalType": "uint256",
              "name": "maxLimitMultiplier",
              "type": "uint256"
            }
          ],
          "internalType": "struct VariablesV1Upgradeable.PlanStruct",
          "name": "",
          "type": "tuple"
        }
      ],
      "stateMutability": "view",
      "type": "function"
    },
    {
      "inputs": [],
      "name": "getPlansCount",
      "outputs": [
        {
          "internalType": "uint8",
          "name": "planCount",
          "type": "uint8"
        }
      ],
      "stateMutability": "view",
      "type": "function"
    },
    {
      "inputs": [],
      "name": "getPresaleContract",
      "outputs": [
        {
          "internalType": "address",
          "name": "",
          "type": "address"
        }
      ],
      "stateMutability": "view",
      "type": "function"
    },
    {
      "inputs": [],
      "name": "getReferralContract",
      "outputs": [
        {
          "internalType": "address",
          "name": "",
          "type": "address"
        }
      ],
      "stateMutability": "view",
      "type": "function"
    },
    {
      "inputs": [],
      "name": "getRewardTokenContract",
      "outputs": [
        {
          "internalType": "address",
          "name": "",
          "type": "address"
        }
      ],
      "stateMutability": "view",
      "type": "function"
    },
    {
      "inputs": [],
      "name": "getRewardTokenRate",
      "outputs": [
        {
          "internalType": "uint8",
          "name": "",
          "type": "uint8"
        }
      ],
      "stateMutability": "view",
      "type": "function"
    },
    {
      "inputs": [],
      "name": "getStakingContract",
      "outputs": [
        {
          "internalType": "address",
          "name": "",
          "type": "address"
        }
      ],
      "stateMutability": "view",
      "type": "function"
    },
    {
      "inputs": [
        {
          "internalType": "address",
          "name": "_tokenContractAddress",
          "type": "address"
        }
      ],
      "name": "getSupportedTokenInfo",
      "outputs": [
        {
          "components": [
            {
              "internalType": "address",
              "name": "contractAddress",
              "type": "address"
            },
            {
              "internalType": "string",
              "name": "name",
              "type": "string"
            },
            {
              "internalType": "string",
              "name": "symbol",
              "type": "string"
            },
            {
              "internalType": "uint8",
              "name": "decimals",
              "type": "uint8"
            },
            {
              "internalType": "bool",
              "name": "isStable",
              "type": "bool"
            },
            {
              "internalType": "address",
              "name": "aggregatorAddress",
              "type": "address"
            },
            {
              "internalType": "bool",
              "name": "isEnaled",
              "type": "bool"
            }
          ],
          "internalType": "struct VariablesV1Upgradeable.SupportedTokensStruct",
          "name": "",
          "type": "tuple"
        }
      ],
      "stateMutability": "view",
      "type": "function"
    },
    {
      "inputs": [],
      "name": "getUniSwapRouterV2Address",
      "outputs": [
        {
          "internalType": "address",
          "name": "",
          "type": "address"
        }
      ],
      "stateMutability": "view",
      "type": "function"
    },
    {
      "inputs": [],
      "name": "getValueBufferRate",
      "outputs": [
        {
          "internalType": "uint8",
          "name": "",
          "type": "uint8"
        }
      ],
      "stateMutability": "view",
      "type": "function"
    },
    {
      "inputs": [],
      "name": "getWeeklyRewardRate",
      "outputs": [
        {
          "internalType": "uint8",
          "name": "",
          "type": "uint8"
        }
      ],
      "stateMutability": "view",
      "type": "function"
    },
    {
      "inputs": [],
      "name": "initialize",
      "outputs": [],
      "stateMutability": "nonpayable",
      "type": "function"
    },
    {
      "inputs": [
        {
          "internalType": "address",
          "name": "_ibpAddress",
          "type": "address"
        }
      ],
      "name": "isIBP",
      "outputs": [
        {
          "internalType": "bool",
          "name": "",
          "type": "bool"
        }
      ],
      "stateMutability": "view",
      "type": "function"
    },
    {
      "inputs": [
        {
          "internalType": "address",
          "name": "_tokenContractAddress",
          "type": "address"
        }
      ],
      "name": "isTokenSupported",
      "outputs": [
        {
          "internalType": "bool",
          "name": "",
          "type": "bool"
        }
      ],
      "stateMutability": "view",
      "type": "function"
    },
    {
      "inputs": [],
      "name": "owner",
      "outputs": [
        {
          "internalType": "address",
          "name": "",
          "type": "address"
        }
      ],
      "stateMutability": "view",
      "type": "function"
    },
    {
      "inputs": [],
      "name": "pause",
      "outputs": [],
      "stateMutability": "nonpayable",
      "type": "function"
    },
    {
      "inputs": [],
      "name": "paused",
      "outputs": [
        {
          "internalType": "bool",
          "name": "",
          "type": "bool"
        }
      ],
      "stateMutability": "view",
      "type": "function"
    },
    {
      "inputs": [],
      "name": "proxiableUUID",
      "outputs": [
        {
          "internalType": "bytes32",
          "name": "",
          "type": "bytes32"
        }
      ],
      "stateMutability": "view",
      "type": "function"
    },
    {
      "inputs": [
        {
          "internalType": "address",
          "name": "_tokenContractAddress",
          "type": "address"
        },
        {
          "internalType": "bool",
          "name": "_isStable",
          "type": "bool"
        },
        {
          "internalType": "address",
          "name": "_aggregatorContractAddress",
          "type": "address"
        }
      ],
      "name": "pushSupportedTokenToList",
      "outputs": [],
      "stateMutability": "nonpayable",
      "type": "function"
    },
    {
      "inputs": [
        {
          "internalType": "address",
          "name": "_ibpAddress",
          "type": "address"
        }
      ],
      "name": "removeIBPAddressAdmin",
      "outputs": [],
      "stateMutability": "nonpayable",
      "type": "function"
    },
    {
      "inputs": [],
      "name": "renounceOwnership",
      "outputs": [],
      "stateMutability": "nonpayable",
      "type": "function"
    },
    {
      "inputs": [
        {
          "internalType": "address",
          "name": "adminAddress",
          "type": "address"
        }
      ],
      "name": "setAdminAddress",
      "outputs": [],
      "stateMutability": "nonpayable",
      "type": "function"
    },
    {
      "inputs": [
        {
          "internalType": "uint8",
          "name": "fees",
          "type": "uint8"
        }
      ],
      "name": "setAdminFees",
      "outputs": [],
      "stateMutability": "nonpayable",
      "type": "function"
    },
    {
      "inputs": [
        {
          "internalType": "uint8",
          "name": "decimals",
          "type": "uint8"
        }
      ],
      "name": "setBaseCurrencyDecimals",
      "outputs": [],
      "stateMutability": "nonpayable",
      "type": "function"
    },
    {
      "inputs": [
        {
          "internalType": "uint8",
          "name": "rate",
          "type": "uint8"
        }
      ],
      "name": "setCoreMemberRewardRate",
      "outputs": [],
      "stateMutability": "nonpayable",
      "type": "function"
    },
    {
      "inputs": [
        {
          "internalType": "address",
          "name": "_address",
          "type": "address"
        }
      ],
      "name": "setCoreMembersContractAddress",
      "outputs": [],
      "stateMutability": "nonpayable",
      "type": "function"
    },
    {
      "inputs": [
        {
          "internalType": "uint8",
          "name": "rate",
          "type": "uint8"
        }
      ],
      "name": "setGlobalRewardRate",
      "outputs": [],
      "stateMutability": "nonpayable",
      "type": "function"
    },
    {
      "inputs": [
        {
          "internalType": "uint8",
          "name": "rate",
          "type": "uint8"
        }
      ],
      "name": "setIbpRewardRate",
      "outputs": [],
      "stateMutability": "nonpayable",
      "type": "function"
    },
    {
      "inputs": [
        {
          "internalType": "bool",
          "name": "value",
          "type": "bool"
        }
      ],
      "name": "setIsPayCoreMembersRewards",
      "outputs": [],
      "stateMutability": "nonpayable",
      "type": "function"
    },
    {
      "inputs": [
        {
          "internalType": "bool",
          "name": "value",
          "type": "bool"
        }
      ],
      "name": "setIsPayGlobalRewards",
      "outputs": [],
      "stateMutability": "nonpayable",
      "type": "function"
    },
    {
      "inputs": [
        {
          "internalType": "bool",
          "name": "value",
          "type": "bool"
        }
      ],
      "name": "setIsPayIbpRewards",
      "outputs": [],
      "stateMutability": "nonpayable",
      "type": "function"
    },
    {
      "inputs": [
        {
          "internalType": "bool",
          "name": "value",
          "type": "bool"
        }
      ],
      "name": "setIsPayReferralRewards",
      "outputs": [],
      "stateMutability": "nonpayable",
      "type": "function"
    },
    {
      "inputs": [
        {
          "internalType": "bool",
          "name": "isPay",
          "type": "bool"
        }
      ],
      "name": "setIsPayRewardToken",
      "outputs": [],
      "stateMutability": "nonpayable",
      "type": "function"
    },
    {
      "inputs": [
        {
          "internalType": "bool",
          "name": "value",
          "type": "bool"
        }
      ],
      "name": "setIsPayWeeklyRewards",
      "outputs": [],
      "stateMutability": "nonpayable",
      "type": "function"
    },
    {
      "inputs": [
        {
          "internalType": "uint16",
          "name": "decimals",
          "type": "uint16"
        }
      ],
      "name": "setLevelDecimals",
      "outputs": [],
      "stateMutability": "nonpayable",
      "type": "function"
    },
    {
      "inputs": [
        {
          "internalType": "uint16[]",
          "name": "rates",
          "type": "uint16[]"
        }
      ],
      "name": "setLevelRates",
      "outputs": [],
      "stateMutability": "nonpayable",
      "type": "function"
    },
    {
      "inputs": [
        {
          "internalType": "uint8[]",
          "name": "planId",
          "type": "uint8[]"
        },
        {
          "internalType": "string[]",
          "name": "name",
          "type": "string[]"
        },
        {
          "internalType": "uint256[]",
          "name": "valueInDecimals",
          "type": "uint256[]"
        },
        {
          "internalType": "uint256[]",
          "name": "maxLimitMultiplier",
          "type": "uint256[]"
        }
      ],
      "name": "setPlans",
      "outputs": [],
      "stateMutability": "nonpayable",
      "type": "function"
    },
    {
      "inputs": [
        {
          "internalType": "address",
          "name": "_contractAddress",
          "type": "address"
        }
      ],
      "name": "setPresaleContract",
      "outputs": [],
      "stateMutability": "nonpayable",
      "type": "function"
    },
    {
      "inputs": [
        {
          "internalType": "address",
          "name": "_contractAddress",
          "type": "address"
        }
      ],
      "name": "setReferralContract",
      "outputs": [],
      "stateMutability": "nonpayable",
      "type": "function"
    },
    {
      "inputs": [
        {
          "internalType": "address",
          "name": "tokenContract",
          "type": "address"
        }
      ],
      "name": "setRewardTokenContract",
      "outputs": [],
      "stateMutability": "nonpayable",
      "type": "function"
    },
    {
      "inputs": [
        {
          "internalType": "uint8",
          "name": "_rewardRatePer",
          "type": "uint8"
        }
      ],
      "name": "setRewardTokenRate",
      "outputs": [],
      "stateMutability": "nonpayable",
      "type": "function"
    },
    {
      "inputs": [
        {
          "internalType": "address",
          "name": "_contractAddress",
          "type": "address"
        }
      ],
      "name": "setStakingContract",
      "outputs": [],
      "stateMutability": "nonpayable",
      "type": "function"
    },
    {
      "inputs": [
        {
          "internalType": "address",
          "name": "_routerV2Address",
          "type": "address"
        }
      ],
      "name": "setUniSwapRouterV2Address",
      "outputs": [],
      "stateMutability": "nonpayable",
      "type": "function"
    },
    {
      "inputs": [
        {
          "internalType": "uint8",
          "name": "rate",
          "type": "uint8"
        }
      ],
      "name": "setValueBufferRate",
      "outputs": [],
      "stateMutability": "nonpayable",
      "type": "function"
    },
    {
      "inputs": [
        {
          "internalType": "uint8",
          "name": "rate",
          "type": "uint8"
        }
      ],
      "name": "setWeeklyRewardRate",
      "outputs": [],
      "stateMutability": "nonpayable",
      "type": "function"
    },
    {
      "inputs": [
        {
          "internalType": "uint256",
          "name": "",
          "type": "uint256"
        }
      ],
      "name": "supportedTokensList",
      "outputs": [
        {
          "internalType": "address",
          "name": "",
          "type": "address"
        }
      ],
      "stateMutability": "view",
      "type": "function"
    },
    {
      "inputs": [
        {
          "internalType": "address",
          "name": "newOwner",
          "type": "address"
        }
      ],
      "name": "transferOwnership",
      "outputs": [],
      "stateMutability": "nonpayable",
      "type": "function"
    },
    {
      "inputs": [],
      "name": "unpause",
      "outputs": [],
      "stateMutability": "nonpayable",
      "type": "function"
    },
    {
      "inputs": [
        {
          "internalType": "address",
          "name": "newImplementation",
          "type": "address"
        }
      ],
      "name": "upgradeTo",
      "outputs": [],
      "stateMutability": "nonpayable",
      "type": "function"
    },
    {
      "inputs": [
        {
          "internalType": "address",
          "name": "newImplementation",
          "type": "address"
        },
        {
          "internalType": "bytes",
          "name": "data",
          "type": "bytes"
        }
      ],
      "name": "upgradeToAndCall",
      "outputs": [],
      "stateMutability": "payable",
      "type": "function"
    }
  ],
  "bytecode": "0x60a06040523060805234801561001457600080fd5b506080516136e161004c6000396000818161134f015281816113d901528181611568015281816115ed01526116d301526136e16000f3fe60806040526004361061042e5760003560e01c80638da5cb5b11610228578063b644356211610128578063e371c5c5116100bb578063eb758bc71161008a578063f2a901211161006f578063f2a9012114610cd5578063f2fde38b14610cf5578063ffc43f8f14610d1557600080fd5b8063eb758bc714610c97578063f1012b4514610cb757600080fd5b8063e371c5c514610c05578063e701671714610c25578063e74af32e14610c47578063e7cca9c714610c7457600080fd5b8063c391d636116100f7578063c391d63614610b77578063d54fcd9314610b95578063e091099c14610bb5578063e179719a14610bda57600080fd5b8063b644356214610af6578063b7a2662014610b16578063b9cd1a5014610b36578063bcb03b5714610b5757600080fd5b8063a43ae408116101bb578063a9bbd1141161018a578063acc918651161016f578063acc9186514610aa2578063af2d4d0914610ab7578063b2e6b91214610ad757600080fd5b8063a9bbd11414610a62578063ac40e30914610a8257600080fd5b8063a43ae408146109e2578063a46868f014610a02578063a61a4ff314610a22578063a646e84514610a4257600080fd5b806393cee9c9116101f757806393cee9c91461095857806394debf48146109785780639dd373b9146109985780639f6d8870146109b857600080fd5b80638da5cb5b146108da5780638e68dce4146108f8578063916452ab14610917578063918a54db1461093657600080fd5b80634ccebd50116103335780635f3ad6e2116102c6578063715018a6116102955780638129fc1c1161027a5780638129fc1c146108905780638456cb59146108a5578063880c0ec3146108ba57600080fd5b8063715018a61461083757806375151b631461084c57600080fd5b80635f3ad6e2146107b957806363c91877146107d857806365eb204d146107f85780636cf3c6761461081757600080fd5b806357b888051161030257806357b88805146107415780635880360a146107615780635c975abb146107815780635d9bed631461079957600080fd5b80634ccebd50146106c85780634f1ef286146106e857806352d1902d146106fb5780635397b86d1461071e57600080fd5b80632b70c02c116103c65780633659cfe6116103955780633ee1f1ba1161037a5780633ee1f1ba1461066d5780633f4ba83a1461068c5780633fae6a11146106a157600080fd5b80633659cfe61461062d57806339e0dcfa1461064d57600080fd5b80632b70c02c1461057b5780632c1e816d146105a15780632f8c7e72146105c15780633238c16f146105fb57600080fd5b80630efc12b1116104025780630efc12b1146104b557806316dd07e0146104eb5780631f1eeec81461052057806323442c601461054857600080fd5b8062b2929014610433578063051ff2b91461045557806306ad5a471461047557806308fcfbbe14610495575b600080fd5b34801561043f57600080fd5b5061045361044e366004612d63565b610d37565b005b34801561046157600080fd5b50610453610470366004612d8e565b610f14565b34801561048157600080fd5b50610453610490366004612d63565b6111bb565b3480156104a157600080fd5b506104536104b0366004612d63565b6111e6565b3480156104c157600080fd5b506104d56104d0366004612de0565b611211565b6040516104e29190612e4d565b60405180910390f35b3480156104f757600080fd5b5060fc546d0100000000000000000000000000900460ff165b60405190151581526020016104e2565b34801561052c57600080fd5b5060fc546c01000000000000000000000000900460ff16610510565b34801561055457600080fd5b50610100546001600160a01b03165b6040516001600160a01b0390911681526020016104e2565b34801561058757600080fd5b5060fc546a0100000000000000000000900460ff16610510565b3480156105ad57600080fd5b506104536105bc366004612d63565b61131a565b3480156105cd57600080fd5b506105106105dc366004612d63565b6001600160a01b03166000908152610108602052604090205460ff1690565b34801561060757600080fd5b5060fc5468010000000000000000900460ff165b60405160ff90911681526020016104e2565b34801561063957600080fd5b50610453610648366004612d63565b611345565b34801561065957600080fd5b50610453610668366004612e96565b6114c5565b34801561067957600080fd5b50610109546001600160a01b0316610563565b34801561069857600080fd5b506104536114ff565b3480156106ad57600080fd5b5060fc546b010000000000000000000000900460ff16610510565b3480156106d457600080fd5b506104536106e3366004612e96565b611511565b6104536106f6366004612f5e565b61155e565b34801561070757600080fd5b506107106116c6565b6040519081526020016104e2565b34801561072a57600080fd5b5060fc54670100000000000000900460ff1661061b565b34801561074d57600080fd5b5061045361075c36600461300c565b61178b565b34801561076d57600080fd5b5061045361077c366004612d63565b61187d565b34801561078d57600080fd5b5060335460ff16610510565b3480156107a557600080fd5b506104536107b4366004612e96565b6118a8565b3480156107c557600080fd5b5060fc546301000000900460ff1661061b565b3480156107e457600080fd5b506105636107f336600461304e565b6118e4565b34801561080457600080fd5b50610103546001600160a01b0316610563565b34801561082357600080fd5b50610453610832366004612de0565b61190e565b34801561084357600080fd5b50610453611940565b34801561085857600080fd5b50610510610867366004612d63565b6001600160a01b031660009081526101076020526040902060030154600160b01b900460ff1690565b34801561089c57600080fd5b50610453611952565b3480156108b157600080fd5b50610453611b7b565b3480156108c657600080fd5b506104536108d5366004612de0565b611b8b565b3480156108e657600080fd5b506065546001600160a01b0316610563565b34801561090457600080fd5b50610101546001600160a01b0316610563565b34801561092357600080fd5b50610104546001600160a01b0316610563565b34801561094257600080fd5b5061094b611bb9565b6040516104e29190613067565b34801561096457600080fd5b50610453610973366004612e96565b611c39565b34801561098457600080fd5b50610453610993366004612de0565b611c71565b3480156109a457600080fd5b506104536109b3366004612d63565b611c99565b3480156109c457600080fd5b5060fc546e010000000000000000000000000000900460ff16610510565b3480156109ee57600080fd5b506104536109fd3660046130c1565b611cc4565b348015610a0e57600080fd5b5060fc54640100000000900460ff1661061b565b348015610a2e57600080fd5b50610453610a3d366004612de0565b611ce4565b348015610a4e57600080fd5b50610453610a5d366004612de0565b611d0a565b348015610a6e57600080fd5b50610453610a7d366004612d63565b611d3a565b348015610a8e57600080fd5b50610453610a9d366004612de0565b611d64565b348015610aae57600080fd5b5061061b611d90565b348015610ac357600080fd5b50610453610ad2366004612de0565b611de0565b348015610ae357600080fd5b50610105546001600160a01b0316610563565b348015610b0257600080fd5b50610453610b11366004612e96565b611e0a565b348015610b2257600080fd5b50610453610b31366004612de0565b611e40565b348015610b4257600080fd5b5060fc5465010000000000900460ff1661061b565b348015610b6357600080fd5b50610453610b72366004613100565b611e74565b348015610b8357600080fd5b5060fc5462010000900460ff1661061b565b348015610ba157600080fd5b50610453610bb036600461324a565b612050565b348015610bc157600080fd5b5060fc546901000000000000000000900460ff1661061b565b348015610be657600080fd5b5060fc546f01000000000000000000000000000000900460ff16610510565b348015610c1157600080fd5b50610453610c20366004612d63565b61206b565b348015610c3157600080fd5b5060fc546601000000000000900460ff1661061b565b348015610c5357600080fd5b50610c67610c62366004612d63565b612133565b6040516104e291906132e2565b348015610c8057600080fd5b5060fc5460405161ffff90911681526020016104e2565b348015610ca357600080fd5b50610453610cb2366004612e96565b612307565b348015610cc357600080fd5b5060ff546001600160a01b0316610563565b348015610ce157600080fd5b50610453610cf0366004612d63565b61233b565b348015610d0157600080fd5b50610453610d10366004612d63565b612366565b348015610d2157600080fd5b50610d2a6123f3565b6040516104e2919061337b565b610d3f612454565b6001600160a01b0381166000908152610108602052604090205460ff168015610f10576001600160a01b038216600090815261010860209081526040808320805460ff1916905560fe80548251818502810185019093528083529192909190830182828015610dd757602002820191906000526020600020905b81546001600160a01b03168152600190910190602001808311610db9575b5050505050905060005b8151811015610f0d57836001600160a01b0316828281518110610e0657610e066133bc565b60200260200101516001600160a01b031603610efb578160018351610e2b91906133e8565b81518110610e3b57610e3b6133bc565b602002602001015160fe8281548110610e5657610e566133bc565b9060005260206000200160006101000a8154816001600160a01b0302191690836001600160a01b0316021790555060fe805480610e9557610e956133fb565b6000828152602090819020600019908301810180546001600160a01b03191690559091019091556040516001600160a01b03861681527f337eeb0192a31dfc3c61aff0be47a571a126a9e3f1caaee4af8c29babbb477e9910160405180910390a1610f0d565b80610f0581613411565b915050610de1565b50505b5050565b610f1c612454565b6040518060e00160405280846001600160a01b03168152602001846001600160a01b03166306fdde036040518163ffffffff1660e01b8152600401600060405180830381865afa158015610f74573d6000803e3d6000fd5b505050506040513d6000823e601f3d908101601f19168201604052610f9c919081019061342a565b8152602001846001600160a01b03166395d89b416040518163ffffffff1660e01b8152600401600060405180830381865afa158015610fdf573d6000803e3d6000fd5b505050506040513d6000823e601f3d908101601f19168201604052611007919081019061342a565b8152602001846001600160a01b031663313ce5676040518163ffffffff1660e01b8152600401602060405180830381865afa15801561104a573d6000803e3d6000fd5b505050506040513d601f19601f8201168201806040525081019061106e91906134a1565b60ff1681528315156020808301919091526001600160a01b03848116604080850191909152600160609094018490528782166000908152610107845220845181546001600160a01b03191692169190911781559083015190918201906110d49082613546565b50604082015160028201906110e99082613546565b50606082015160039091018054608084015160a085015160c0909501511515600160b01b0260ff60b01b196001600160a01b039687166201000002167fffffffffffffffffff000000000000000000000000000000000000000000ffff9215156101000261ffff1990941660ff9096169590951792909217169290921791909117905560fd80546001810182556000919091527f9346ac6dd7de6b96975fec380d4d994c4c12e6a8897544f22915316cc6cca280018054949091166001600160a01b0319909416939093179092555050565b6111c3612454565b61010080546001600160a01b0319166001600160a01b0392909216919091179055565b6111ee612454565b61010380546001600160a01b0319166001600160a01b0392909216919091179055565b61123f6040518060800160405280600060ff1681526020016060815260200160008152602001600081525090565b60ff80831660009081526101066020908152604091829020825160808101909352805490931682526001830180549293929184019161127d906134be565b80601f01602080910402602001604051908101604052809291908181526020018280546112a9906134be565b80156112f65780601f106112cb576101008083540402835291602001916112f6565b820191906000526020600020905b8154815290600101906020018083116112d957829003601f168201915b50505050508152602001600282015481526020016003820154815250509050919050565b611322612454565b61010580546001600160a01b0319166001600160a01b0392909216919091179055565b6001600160a01b037f00000000000000000000000000000000000000000000000000000000000000001630036113d75760405162461bcd60e51b815260206004820152602c60248201527f46756e6374696f6e206d7573742062652063616c6c6564207468726f7567682060448201526b19195b1959d85d1958d85b1b60a21b60648201526084015b60405180910390fd5b7f00000000000000000000000000000000000000000000000000000000000000006001600160a01b03166114327f360894a13ba1a3210667c828492db98dca3e2076cc3735a920a3ca505d382bbc546001600160a01b031690565b6001600160a01b03161461149d5760405162461bcd60e51b815260206004820152602c60248201527f46756e6374696f6e206d7573742062652063616c6c6564207468726f7567682060448201526b6163746976652070726f787960a01b60648201526084016113ce565b6114a6816124ae565b604080516000808252602082019092526114c2918391906124b6565b50565b6114cd612454565b60fc80549115156d0100000000000000000000000000026dff0000000000000000000000000019909216919091179055565b611507612454565b61150f612656565b565b611519612454565b60fc80549115156f01000000000000000000000000000000027fffffffffffffffffffffffffffffffff00ffffffffffffffffffffffffffffff909216919091179055565b6001600160a01b037f00000000000000000000000000000000000000000000000000000000000000001630036115eb5760405162461bcd60e51b815260206004820152602c60248201527f46756e6374696f6e206d7573742062652063616c6c6564207468726f7567682060448201526b19195b1959d85d1958d85b1b60a21b60648201526084016113ce565b7f00000000000000000000000000000000000000000000000000000000000000006001600160a01b03166116467f360894a13ba1a3210667c828492db98dca3e2076cc3735a920a3ca505d382bbc546001600160a01b031690565b6001600160a01b0316146116b15760405162461bcd60e51b815260206004820152602c60248201527f46756e6374696f6e206d7573742062652063616c6c6564207468726f7567682060448201526b6163746976652070726f787960a01b60648201526084016113ce565b6116ba826124ae565b610f10828260016124b6565b6000306001600160a01b037f000000000000000000000000000000000000000000000000000000000000000016146117665760405162461bcd60e51b815260206004820152603860248201527f555550535570677261646561626c653a206d757374206e6f742062652063616c60448201527f6c6564207468726f7567682064656c656761746563616c6c000000000000000060648201526084016113ce565b507f360894a13ba1a3210667c828492db98dca3e2076cc3735a920a3ca505d382bbc90565b611793612454565b60005b60ff8116821115611878576000610107600085858560ff168181106117bd576117bd6133bc565b90506020020160208101906117d29190612d63565b6001600160a01b0316815260208101919091526040016000206003018054911515600160b01b0260ff60b01b1990921691909117905560fd838360ff841681811061181f5761181f6133bc565b90506020020160208101906118349190612d63565b81546001810183556000928352602090922090910180546001600160a01b0319166001600160a01b039092169190911790558061187081613606565b915050611796565b505050565b611885612454565b61010980546001600160a01b0319166001600160a01b0392909216919091179055565b6118b0612454565b60fc80549115156e010000000000000000000000000000026eff000000000000000000000000000019909216919091179055565b60fd81815481106118f457600080fd5b6000918252602090912001546001600160a01b0316905081565b611916612454565b60fc805460ff909216680100000000000000000268ff000000000000000019909216919091179055565b611948612454565b61150f60006126a8565b600054610100900460ff16158080156119725750600054600160ff909116105b8061198c5750303b15801561198c575060005460ff166001145b6119fe5760405162461bcd60e51b815260206004820152602e60248201527f496e697469616c697a61626c653a20636f6e747261637420697320616c72656160448201527f647920696e697469616c697a656400000000000000000000000000000000000060648201526084016113ce565b6000805460ff191660011790558015611a21576000805461ff0019166101001790555b604080516101408101825261138881526101f460208201526101909181019190915261012c606082015260c86080820152606460a0820181905260c0820152607d60e082018190526101008201526096610120820152611a859060fb90600a612c92565b5060fc805461010380546001600160a01b0319908116737f9fd63932babc508fad2f324eb534d09cfe86f0179091556f010101010101030302050a0a0a0027107fffffffffffffffffffffffffffffffff00000000000000000000000000ff0000909216919091179091556101048054821673efb61c43c70b60563c1a2a835663c63ecc93f6ba179055610105805490911633179055611b236126fa565b611b2b61276d565b611b336127e0565b80156114c2576000805461ff0019169055604051600181527f7f26b83ff96e1f2b6a682f133852f6798a09c465da95921460cefb38474024989060200160405180910390a150565b611b83612454565b61150f61284b565b611b93612454565b60fc805460ff90921666010000000000000266ff00000000000019909216919091179055565b606060fb805480602002602001604051908101604052809291908181526020018280548015611c2f57602002820191906000526020600020906000905b82829054906101000a900461ffff1661ffff1681526020019060020190602082600101049283019260010382029150808411611bf65790505b5050505050905090565b611c41612454565b60fc80549115156c01000000000000000000000000026cff00000000000000000000000019909216919091179055565b611c79612454565b60fc805460ff90921663010000000263ff00000019909216919091179055565b611ca1612454565b61010180546001600160a01b0319166001600160a01b0392909216919091179055565b611ccc612454565b60fc805461ffff191661ffff92909216919091179055565b611cec612454565b60fc805460ff909216620100000262ff000019909216919091179055565b611d12612454565b60fc805460ff9092166701000000000000000267ff0000000000000019909216919091179055565b611d42612454565b60ff80546001600160a01b0319166001600160a01b0392909216919091179055565b611d6c612454565b60fc805460ff909216650100000000000265ff000000000019909216919091179055565b6000805b60148160ff161015611ddc5760ff81166000908152610106602052604090206002015415611dca5781611dc681613606565b9250505b80611dd481613606565b915050611d94565b5090565b611de8612454565b60fc805460ff9092166401000000000264ff0000000019909216919091179055565b611e12612454565b60fc80549115156b010000000000000000000000026bff000000000000000000000019909216919091179055565b611e48612454565b60fc805460ff90921669010000000000000000000269ff00000000000000000019909216919091179055565b611e7c612454565b60005b8681101561204657878782818110611e9957611e996133bc565b9050602002016020810190611eae9190612de0565b61010660008a8a85818110611ec557611ec56133bc565b9050602002016020810190611eda9190612de0565b60ff90811682526020820192909252604001600020805460ff1916929091169190911790558551869082908110611f1357611f136133bc565b602002602001015161010660008a8a85818110611f3257611f326133bc565b9050602002016020810190611f479190612de0565b60ff168152602081019190915260400160002060010190611f689082613546565b50848482818110611f7b57611f7b6133bc565b90506020020135670de0b6b3a7640000611f959190613625565b61010660008a8a85818110611fac57611fac6133bc565b9050602002016020810190611fc19190612de0565b60ff168152602081019190915260400160002060020155828282818110611fea57611fea6133bc565b9050602002013561010660008a8a85818110612008576120086133bc565b905060200201602081019061201d9190612de0565b60ff1681526020810191909152604001600020600301558061203e81613411565b915050611e7f565b5050505050505050565b612058612454565b8051610f109060fb906020840190612c92565b612073612454565b6001600160a01b0381166000908152610108602052604090205460ff1680610f10576001600160a01b038216600081815261010860209081526040808320805460ff1916600190811790915560fe805491820181559093527f54075df80ec1ae6ac9100e1fd0ebf3246c17f5c933137af392011f4c5f61513a90920180546001600160a01b0319168417905590519182527fe30f8cb0d8cbc7c0e95d5aaa3107ce401738ce4bc98a05dd081bb2a77a9ca749910160405180910390a15050565b6040805160e080820183526000808352606060208085018290528486018290529084018290526080840182905260a0840182905260c084018290526001600160a01b03868116835261010782529185902085519384019095528454909116825260018401805493949293918401916121aa906134be565b80601f01602080910402602001604051908101604052809291908181526020018280546121d6906134be565b80156122235780601f106121f857610100808354040283529160200191612223565b820191906000526020600020905b81548152906001019060200180831161220657829003601f168201915b5050505050815260200160028201805461223c906134be565b80601f0160208091040260200160405190810160405280929190818152602001828054612268906134be565b80156122b55780601f1061228a576101008083540402835291602001916122b5565b820191906000526020600020905b81548152906001019060200180831161229857829003601f168201915b50505091835250506003919091015460ff808216602084015261010082048116151560408401526001600160a01b03620100008304166060840152600160b01b90910416151560809091015292915050565b61230f612454565b60fc80549115156a0100000000000000000000026aff0000000000000000000019909216919091179055565b612343612454565b61010480546001600160a01b0319166001600160a01b0392909216919091179055565b61236e612454565b6001600160a01b0381166123ea5760405162461bcd60e51b815260206004820152602660248201527f4f776e61626c653a206e6577206f776e657220697320746865207a65726f206160448201527f646472657373000000000000000000000000000000000000000000000000000060648201526084016113ce565b6114c2816126a8565b606060fe805480602002602001604051908101604052809291908181526020018280548015611c2f57602002820191906000526020600020905b81546001600160a01b0316815260019091019060200180831161242d575050505050905090565b6065546001600160a01b0316331461150f5760405162461bcd60e51b815260206004820181905260248201527f4f776e61626c653a2063616c6c6572206973206e6f7420746865206f776e657260448201526064016113ce565b6114c2612454565b7f4910fdfa16fed3260ed0e7147f7cc6da11a60208b5b9406d12a635614ffd91435460ff16156124e95761187883612888565b826001600160a01b03166352d1902d6040518163ffffffff1660e01b8152600401602060405180830381865afa925050508015612543575060408051601f3d908101601f191682019092526125409181019061363c565b60015b6125b55760405162461bcd60e51b815260206004820152602e60248201527f45524331393637557067726164653a206e657720696d706c656d656e7461746960448201527f6f6e206973206e6f74205555505300000000000000000000000000000000000060648201526084016113ce565b7f360894a13ba1a3210667c828492db98dca3e2076cc3735a920a3ca505d382bbc811461264a5760405162461bcd60e51b815260206004820152602960248201527f45524331393637557067726164653a20756e737570706f727465642070726f7860448201527f6961626c6555554944000000000000000000000000000000000000000000000060648201526084016113ce565b50611878838383612946565b61265e61296b565b6033805460ff191690557f5db9ee0a495bf2e6ff9c91a7834c1ba4fdd244a5e8aa4e537bd38aeae4b073aa335b6040516001600160a01b03909116815260200160405180910390a1565b606580546001600160a01b038381166001600160a01b0319831681179093556040519116919082907f8be0079c531659141344cd1fd0a4f28419497f9722a3daafe3b4186f6b6457e090600090a35050565b600054610100900460ff166127655760405162461bcd60e51b815260206004820152602b60248201527f496e697469616c697a61626c653a20636f6e7472616374206973206e6f74206960448201526a6e697469616c697a696e6760a81b60648201526084016113ce565b61150f6129bd565b600054610100900460ff166127d85760405162461bcd60e51b815260206004820152602b60248201527f496e697469616c697a61626c653a20636f6e7472616374206973206e6f74206960448201526a6e697469616c697a696e6760a81b60648201526084016113ce565b61150f612a34565b600054610100900460ff1661150f5760405162461bcd60e51b815260206004820152602b60248201527f496e697469616c697a61626c653a20636f6e7472616374206973206e6f74206960448201526a6e697469616c697a696e6760a81b60648201526084016113ce565b612853612aa8565b6033805460ff191660011790557f62e78cea01bee320cd4e420270b5ea74000d11b0c9f74754ebdbfc544b05a25861268b3390565b6001600160a01b0381163b6129055760405162461bcd60e51b815260206004820152602d60248201527f455243313936373a206e657720696d706c656d656e746174696f6e206973206e60448201527f6f74206120636f6e74726163740000000000000000000000000000000000000060648201526084016113ce565b7f360894a13ba1a3210667c828492db98dca3e2076cc3735a920a3ca505d382bbc80546001600160a01b0319166001600160a01b0392909216919091179055565b61294f83612afb565b60008251118061295c5750805b1561187857610f0d8383612b3b565b60335460ff1661150f5760405162461bcd60e51b815260206004820152601460248201527f5061757361626c653a206e6f742070617573656400000000000000000000000060448201526064016113ce565b600054610100900460ff16612a285760405162461bcd60e51b815260206004820152602b60248201527f496e697469616c697a61626c653a20636f6e7472616374206973206e6f74206960448201526a6e697469616c697a696e6760a81b60648201526084016113ce565b6033805460ff19169055565b600054610100900460ff16612a9f5760405162461bcd60e51b815260206004820152602b60248201527f496e697469616c697a61626c653a20636f6e7472616374206973206e6f74206960448201526a6e697469616c697a696e6760a81b60648201526084016113ce565b61150f336126a8565b60335460ff161561150f5760405162461bcd60e51b815260206004820152601060248201527f5061757361626c653a207061757365640000000000000000000000000000000060448201526064016113ce565b612b0481612888565b6040516001600160a01b038216907fbc7cd75a20ee27fd9adebab32041f755214dbc6bffa90cc0225b39da2e5c2d3b90600090a250565b60606001600160a01b0383163b612bba5760405162461bcd60e51b815260206004820152602660248201527f416464726573733a2064656c65676174652063616c6c20746f206e6f6e2d636f60448201527f6e7472616374000000000000000000000000000000000000000000000000000060648201526084016113ce565b600080846001600160a01b031684604051612bd59190613655565b600060405180830381855af49150503d8060008114612c10576040519150601f19603f3d011682016040523d82523d6000602084013e612c15565b606091505b5091509150612c3d828260405180606001604052806027815260200161368560279139612c48565b925050505b92915050565b60608315612c57575081612c61565b612c618383612c68565b9392505050565b815115612c785781518083602001fd5b8060405162461bcd60e51b81526004016113ce9190613671565b82805482825590600052602060002090600f01601090048101928215612d2b5791602002820160005b83821115612cfb57835183826101000a81548161ffff021916908361ffff1602179055509260200192600201602081600101049283019260010302612cbb565b8015612d295782816101000a81549061ffff0219169055600201602081600101049283019260010302612cfb565b505b50611ddc9291505b80821115611ddc5760008155600101612d33565b80356001600160a01b0381168114612d5e57600080fd5b919050565b600060208284031215612d7557600080fd5b612c6182612d47565b80358015158114612d5e57600080fd5b600080600060608486031215612da357600080fd5b612dac84612d47565b9250612dba60208501612d7e565b9150612dc860408501612d47565b90509250925092565b60ff811681146114c257600080fd5b600060208284031215612df257600080fd5b8135612c6181612dd1565b60005b83811015612e18578181015183820152602001612e00565b50506000910152565b60008151808452612e39816020860160208601612dfd565b601f01601f19169290920160200192915050565b6020815260ff82511660208201526000602083015160806040840152612e7660a0840182612e21565b905060408401516060840152606084015160808401528091505092915050565b600060208284031215612ea857600080fd5b612c6182612d7e565b634e487b7160e01b600052604160045260246000fd5b604051601f8201601f1916810167ffffffffffffffff81118282101715612ef057612ef0612eb1565b604052919050565b600067ffffffffffffffff821115612f1257612f12612eb1565b50601f01601f191660200190565b6000612f33612f2e84612ef8565b612ec7565b9050828152838383011115612f4757600080fd5b828260208301376000602084830101529392505050565b60008060408385031215612f7157600080fd5b612f7a83612d47565b9150602083013567ffffffffffffffff811115612f9657600080fd5b8301601f81018513612fa757600080fd5b612fb685823560208401612f20565b9150509250929050565b60008083601f840112612fd257600080fd5b50813567ffffffffffffffff811115612fea57600080fd5b6020830191508360208260051b850101111561300557600080fd5b9250929050565b6000806020838503121561301f57600080fd5b823567ffffffffffffffff81111561303657600080fd5b61304285828601612fc0565b90969095509350505050565b60006020828403121561306057600080fd5b5035919050565b6020808252825182820181905260009190848201906040850190845b818110156130a357835161ffff1683529284019291840191600101613083565b50909695505050505050565b803561ffff81168114612d5e57600080fd5b6000602082840312156130d357600080fd5b612c61826130af565b600067ffffffffffffffff8211156130f6576130f6612eb1565b5060051b60200190565b60008060008060008060006080888a03121561311b57600080fd5b67ffffffffffffffff808935111561313257600080fd5b61313f8a8a358b01612fc0565b9098509650602089013581101561315557600080fd5b602089013589018a601f82011261316b57600080fd5b613178612f2e82356130dc565b81358082526020808301929160051b8401018d81111561319757600080fd5b602084015b818110156131e85785813511156131b257600080fd5b8e603f8235870101126131c457600080fd5b6131da8f82358701602081013590604001612f20565b84526020938401930161319c565b50508098505050508060408a0135111561320157600080fd5b6132118a60408b01358b01612fc0565b9095509350606089013581101561322757600080fd5b506132388960608a01358a01612fc0565b979a9699509497509295919491925050565b6000602080838503121561325d57600080fd5b823567ffffffffffffffff81111561327457600080fd5b8301601f8101851361328557600080fd5b8035613293612f2e826130dc565b81815260059190911b820183019083810190878311156132b257600080fd5b928401925b828410156132d7576132c8846130af565b825292840192908401906132b7565b979650505050505050565b602081526001600160a01b0382511660208201526000602083015160e06040840152613312610100840182612e21565b90506040840151601f1984830301606085015261332f8282612e21565b91505060ff60608501511660808401526080840151151560a084015260a084015161336560c08501826001600160a01b03169052565b5060c084015180151560e0850152509392505050565b6020808252825182820181905260009190848201906040850190845b818110156130a35783516001600160a01b031683529284019291840191600101613397565b634e487b7160e01b600052603260045260246000fd5b634e487b7160e01b600052601160045260246000fd5b81810381811115612c4257612c426133d2565b634e487b7160e01b600052603160045260246000fd5b600060018201613423576134236133d2565b5060010190565b60006020828403121561343c57600080fd5b815167ffffffffffffffff81111561345357600080fd5b8201601f8101841361346457600080fd5b8051613472612f2e82612ef8565b81815285602083850101111561348757600080fd5b613498826020830160208601612dfd565b95945050505050565b6000602082840312156134b357600080fd5b8151612c6181612dd1565b600181811c908216806134d257607f821691505b6020821081036134f257634e487b7160e01b600052602260045260246000fd5b50919050565b601f82111561187857600081815260208120601f850160051c8101602086101561351f5750805b601f850160051c820191505b8181101561353e5782815560010161352b565b505050505050565b815167ffffffffffffffff81111561356057613560612eb1565b6135748161356e84546134be565b846134f8565b602080601f8311600181146135a957600084156135915750858301515b600019600386901b1c1916600185901b17855561353e565b600085815260208120601f198616915b828110156135d8578886015182559484019460019091019084016135b9565b50858210156135f65787850151600019600388901b60f8161c191681555b5050505050600190811b01905550565b600060ff821660ff810361361c5761361c6133d2565b60010192915050565b8082028115828204841417612c4257612c426133d2565b60006020828403121561364e57600080fd5b5051919050565b60008251613667818460208701612dfd565b9190910192915050565b602081526000612c616020830184612e2156fe416464726573733a206c6f772d6c6576656c2064656c65676174652063616c6c206661696c6564a2646970667358221220a92801f9b4e939ac490547b872e63d360ecde0450135d3a492be3447c7a3201964736f6c63430008120033",
  "linkReferences": {},
  "deployedLinkReferences": {}
}