{
  "_format": "hh-sol-artifact-1",
  "contractName": "VariablesV1Upgradeable",
  "sourceName": "contracts/VariablesV1Upgradeable.sol",
  "abi": [
    {
      "anonymous": false,
      "inputs": [
        {
          "indexed": false,
          "internalType": "address",
          "name": "previousAdmin",
          "type": "address"
        },
        {
          "indexed": false,
          "internalType": "address",
          "name": "newAdmin",
          "type": "address"
        }
      ],
      "name": "AdminChanged",
      "type": "event"
    },
    {
      "anonymous": false,
      "inputs": [
        {
          "indexed": true,
          "internalType": "address",
          "name": "beacon",
          "type": "address"
        }
      ],
      "name": "BeaconUpgraded",
      "type": "event"
    },
    {
      "anonymous": false,
      "inputs": [
        {
          "indexed": false,
          "internalType": "address",
          "name": "ibpAddress",
          "type": "address"
        }
      ],
      "name": "IBPPromotedByAdmin",
      "type": "event"
    },
    {
      "anonymous": false,
      "inputs": [
        {
          "indexed": false,
          "internalType": "address",
          "name": "ibpAddress",
          "type": "address"
        }
      ],
      "name": "IBPRemovedByAdmin",
      "type": "event"
    },
    {
      "anonymous": false,
      "inputs": [
        {
          "indexed": false,
          "internalType": "uint8",
          "name": "version",
          "type": "uint8"
        }
      ],
      "name": "Initialized",
      "type": "event"
    },
    {
      "anonymous": false,
      "inputs": [
        {
          "indexed": true,
          "internalType": "address",
          "name": "previousOwner",
          "type": "address"
        },
        {
          "indexed": true,
          "internalType": "address",
          "name": "newOwner",
          "type": "address"
        }
      ],
      "name": "OwnershipTransferred",
      "type": "event"
    },
    {
      "anonymous": false,
      "inputs": [
        {
          "indexed": false,
          "internalType": "address",
          "name": "account",
          "type": "address"
        }
      ],
      "name": "Paused",
      "type": "event"
    },
    {
      "anonymous": false,
      "inputs": [
        {
          "indexed": false,
          "internalType": "address",
          "name": "account",
          "type": "address"
        }
      ],
      "name": "Unpaused",
      "type": "event"
    },
    {
      "anonymous": false,
      "inputs": [
        {
          "indexed": true,
          "internalType": "address",
          "name": "implementation",
          "type": "address"
        }
      ],
      "name": "Upgraded",
      "type": "event"
    },
    {
      "inputs": [
        {
          "internalType": "address",
          "name": "_ibpAddress",
          "type": "address"
        }
      ],
      "name": "addIBPAddressAdmin",
      "outputs": [],
      "stateMutability": "nonpayable",
      "type": "function"
    },
    {
      "inputs": [
        {
          "internalType": "address[]",
          "name": "_tokenContractAddress",
          "type": "address[]"
        }
      ],
      "name": "disableSupportedToken",
      "outputs": [],
      "stateMutability": "nonpayable",
      "type": "function"
    },
    {
      "inputs": [],
      "name": "getAdminAddress",
      "outputs": [
        {
          "internalType": "address",
          "name": "",
          "type": "address"
        }
      ],
      "stateMutability": "view",
      "type": "function"
    },
    {
      "inputs": [],
      "name": "getAdminFees",
      "outputs": [
        {
          "internalType": "uint8",
          "name": "",
          "type": "uint8"
        }
      ],
      "stateMutability": "view",
      "type": "function"
    },
    {
      "inputs": [],
      "name": "getBaseCurrencyDecimals",
      "outputs": [
        {
          "internalType": "uint8",
          "name": "",
          "type": "uint8"
        }
      ],
      "stateMutability": "view",
      "type": "function"
    },
    {
      "inputs": [],
      "name": "getCoreMemberRewardRate",
      "outputs": [
        {
          "internalType": "uint8",
          "name": "",
          "type": "uint8"
        }
      ],
      "stateMutability": "view",
      "type": "function"
    },
    {
      "inputs": [],
      "name": "getCoreMembersContractAddress",
      "outputs": [
        {
          "internalType": "address",
          "name": "",
          "type": "address"
        }
      ],
      "stateMutability": "view",
      "type": "function"
    },
    {
      "inputs": [],
      "name": "getGlobalRewardRate",
      "outputs": [
        {
          "internalType": "uint8",
          "name": "",
          "type": "uint8"
        }
      ],
      "stateMutability": "view",
      "type": "function"
    },
    {
      "inputs": [],
      "name": "getIBPList",
      "outputs": [
        {
          "internalType": "address[]",
          "name": "",
          "type": "address[]"
        }
      ],
      "stateMutability": "view",
      "type": "function"
    },
    {
      "inputs": [],
      "name": "getIbpRewardRate",
      "outputs": [
        {
          "internalType": "uint8",
          "name": "",
          "type": "uint8"
        }
      ],
      "stateMutability": "view",
      "type": "function"
    },
    {
      "inputs": [],
      "name": "getIsPayCoreMembersRewards",
      "outputs": [
        {
          "internalType": "bool",
          "name": "",
          "type": "bool"
        }
      ],
      "stateMutability": "view",
      "type": "function"
    },
    {
      "inputs": [],
      "name": "getIsPayGlobalRewards",
      "outputs": [
        {
          "internalType": "bool",
          "name": "",
          "type": "bool"
        }
      ],
      "stateMutability": "view",
      "type": "function"
    },
    {
      "inputs": [],
      "name": "getIsPayIbpRewards",
      "outputs": [
        {
          "internalType": "bool",
          "name": "",
          "type": "bool"
        }
      ],
      "stateMutability": "view",
      "type": "function"
    },
    {
      "inputs": [],
      "name": "getIsPayReferralRewards",
      "outputs": [
        {
          "internalType": "bool",
          "name": "",
          "type": "bool"
        }
      ],
      "stateMutability": "view",
      "type": "function"
    },
    {
      "inputs": [],
      "name": "getIsPayRewardToken",
      "outputs": [
        {
          "internalType": "bool",
          "name": "",
          "type": "bool"
        }
      ],
      "stateMutability": "view",
      "type": "function"
    },
    {
      "inputs": [],
      "name": "getIsPayWeeklyRewards",
      "outputs": [
        {
          "internalType": "bool",
          "name": "",
          "type": "bool"
        }
      ],
      "stateMutability": "view",
      "type": "function"
    },
    {
      "inputs": [],
      "name": "getLevelDecimals",
      "outputs": [
        {
          "internalType": "uint16",
          "name": "",
          "type": "uint16"
        }
      ],
      "stateMutability": "view",
      "type": "function"
    },
    {
      "inputs": [],
      "name": "getLevelRates",
      "outputs": [
        {
          "internalType": "uint16[]",
          "name": "",
          "type": "uint16[]"
        }
      ],
      "stateMutability": "view",
      "type": "function"
    },
    {
      "inputs": [
        {
          "internalType": "uint8",
          "name": "_planId",
          "type": "uint8"
        }
      ],
      "name": "getPlanById",
      "outputs": [
        {
          "components": [
            {
              "internalType": "uint8",
              "name": "planId",
              "type": "uint8"
            },
            {
              "internalType": "string",
              "name": "name",
              "type": "string"
            },
            {
              "internalType": "uint256",
              "name": "value",
              "type": "uint256"
            },
            {
              "internalType": "uint256",
              "name": "maxLimitMultiplier",
              "type": "uint256"
            }
          ],
          "internalType": "struct VariablesV1Upgradeable.PlanStruct",
          "name": "",
          "type": "tuple"
        }
      ],
      "stateMutability": "view",
      "type": "function"
    },
    {
      "inputs": [],
      "name": "getRewardTokenContract",
      "outputs": [
        {
          "internalType": "address",
          "name": "",
          "type": "address"
        }
      ],
      "stateMutability": "view",
      "type": "function"
    },
    {
      "inputs": [],
      "name": "getRewardTokenRate",
      "outputs": [
        {
          "internalType": "uint8",
          "name": "",
          "type": "uint8"
        }
      ],
      "stateMutability": "view",
      "type": "function"
    },
    {
      "inputs": [
        {
          "internalType": "address",
          "name": "_tokenContractAddress",
          "type": "address"
        }
      ],
      "name": "getSupportedTokenInfo",
      "outputs": [
        {
          "components": [
            {
              "internalType": "address",
              "name": "contractAddress",
              "type": "address"
            },
            {
              "internalType": "string",
              "name": "name",
              "type": "string"
            },
            {
              "internalType": "string",
              "name": "symbol",
              "type": "string"
            },
            {
              "internalType": "uint8",
              "name": "decimals",
              "type": "uint8"
            },
            {
              "internalType": "bool",
              "name": "isStable",
              "type": "bool"
            },
            {
              "internalType": "address",
              "name": "aggregatorAddress",
              "type": "address"
            },
            {
              "internalType": "bool",
              "name": "isEnaled",
              "type": "bool"
            }
          ],
          "internalType": "struct VariablesV1Upgradeable.SupportedTokensStruct",
          "name": "",
          "type": "tuple"
        }
      ],
      "stateMutability": "view",
      "type": "function"
    },
    {
      "inputs": [],
      "name": "getValueBufferRate",
      "outputs": [
        {
          "internalType": "uint8",
          "name": "",
          "type": "uint8"
        }
      ],
      "stateMutability": "view",
      "type": "function"
    },
    {
      "inputs": [],
      "name": "getWeeklyRewardRate",
      "outputs": [
        {
          "internalType": "uint8",
          "name": "",
          "type": "uint8"
        }
      ],
      "stateMutability": "view",
      "type": "function"
    },
    {
      "inputs": [],
      "name": "initialize",
      "outputs": [],
      "stateMutability": "nonpayable",
      "type": "function"
    },
    {
      "inputs": [
        {
          "internalType": "address",
          "name": "_ibpAddress",
          "type": "address"
        }
      ],
      "name": "isIBP",
      "outputs": [
        {
          "internalType": "bool",
          "name": "",
          "type": "bool"
        }
      ],
      "stateMutability": "view",
      "type": "function"
    },
    {
      "inputs": [
        {
          "internalType": "address",
          "name": "_tokenContractAddress",
          "type": "address"
        }
      ],
      "name": "isTokenSupported",
      "outputs": [
        {
          "internalType": "bool",
          "name": "",
          "type": "bool"
        }
      ],
      "stateMutability": "view",
      "type": "function"
    },
    {
      "inputs": [],
      "name": "owner",
      "outputs": [
        {
          "internalType": "address",
          "name": "",
          "type": "address"
        }
      ],
      "stateMutability": "view",
      "type": "function"
    },
    {
      "inputs": [],
      "name": "pause",
      "outputs": [],
      "stateMutability": "nonpayable",
      "type": "function"
    },
    {
      "inputs": [],
      "name": "paused",
      "outputs": [
        {
          "internalType": "bool",
          "name": "",
          "type": "bool"
        }
      ],
      "stateMutability": "view",
      "type": "function"
    },
    {
      "inputs": [],
      "name": "proxiableUUID",
      "outputs": [
        {
          "internalType": "bytes32",
          "name": "",
          "type": "bytes32"
        }
      ],
      "stateMutability": "view",
      "type": "function"
    },
    {
      "inputs": [
        {
          "internalType": "address",
          "name": "_tokenContractAddress",
          "type": "address"
        },
        {
          "internalType": "bool",
          "name": "_isStable",
          "type": "bool"
        },
        {
          "internalType": "address",
          "name": "_aggregatorContractAddress",
          "type": "address"
        }
      ],
      "name": "pushSupportedTokenToList",
      "outputs": [],
      "stateMutability": "nonpayable",
      "type": "function"
    },
    {
      "inputs": [
        {
          "internalType": "address",
          "name": "_ibpAddress",
          "type": "address"
        }
      ],
      "name": "removeIBPAddressAdmin",
      "outputs": [],
      "stateMutability": "nonpayable",
      "type": "function"
    },
    {
      "inputs": [],
      "name": "renounceOwnership",
      "outputs": [],
      "stateMutability": "nonpayable",
      "type": "function"
    },
    {
      "inputs": [
        {
          "internalType": "address",
          "name": "adminAddress",
          "type": "address"
        }
      ],
      "name": "setAdminAddress",
      "outputs": [],
      "stateMutability": "nonpayable",
      "type": "function"
    },
    {
      "inputs": [
        {
          "internalType": "uint8",
          "name": "fees",
          "type": "uint8"
        }
      ],
      "name": "setAdminFees",
      "outputs": [],
      "stateMutability": "nonpayable",
      "type": "function"
    },
    {
      "inputs": [
        {
          "internalType": "uint8",
          "name": "decimals",
          "type": "uint8"
        }
      ],
      "name": "setBaseCurrencyDecimals",
      "outputs": [],
      "stateMutability": "nonpayable",
      "type": "function"
    },
    {
      "inputs": [
        {
          "internalType": "uint8",
          "name": "rate",
          "type": "uint8"
        }
      ],
      "name": "setCoreMemberRewardRate",
      "outputs": [],
      "stateMutability": "nonpayable",
      "type": "function"
    },
    {
      "inputs": [
        {
          "internalType": "address",
          "name": "_address",
          "type": "address"
        }
      ],
      "name": "setCoreMembersContractAddress",
      "outputs": [],
      "stateMutability": "nonpayable",
      "type": "function"
    },
    {
      "inputs": [
        {
          "internalType": "uint8",
          "name": "rate",
          "type": "uint8"
        }
      ],
      "name": "setGlobalRewardRate",
      "outputs": [],
      "stateMutability": "nonpayable",
      "type": "function"
    },
    {
      "inputs": [
        {
          "internalType": "uint8",
          "name": "rate",
          "type": "uint8"
        }
      ],
      "name": "setIbpRewardRate",
      "outputs": [],
      "stateMutability": "nonpayable",
      "type": "function"
    },
    {
      "inputs": [
        {
          "internalType": "bool",
          "name": "value",
          "type": "bool"
        }
      ],
      "name": "setIsPayCoreMembersRewards",
      "outputs": [],
      "stateMutability": "nonpayable",
      "type": "function"
    },
    {
      "inputs": [
        {
          "internalType": "bool",
          "name": "value",
          "type": "bool"
        }
      ],
      "name": "setIsPayGlobalRewards",
      "outputs": [],
      "stateMutability": "nonpayable",
      "type": "function"
    },
    {
      "inputs": [
        {
          "internalType": "bool",
          "name": "value",
          "type": "bool"
        }
      ],
      "name": "setIsPayIbpRewards",
      "outputs": [],
      "stateMutability": "nonpayable",
      "type": "function"
    },
    {
      "inputs": [
        {
          "internalType": "bool",
          "name": "value",
          "type": "bool"
        }
      ],
      "name": "setIsPayReferralRewards",
      "outputs": [],
      "stateMutability": "nonpayable",
      "type": "function"
    },
    {
      "inputs": [
        {
          "internalType": "bool",
          "name": "isPay",
          "type": "bool"
        }
      ],
      "name": "setIsPayRewardToken",
      "outputs": [],
      "stateMutability": "nonpayable",
      "type": "function"
    },
    {
      "inputs": [
        {
          "internalType": "bool",
          "name": "value",
          "type": "bool"
        }
      ],
      "name": "setIsPayWeeklyRewards",
      "outputs": [],
      "stateMutability": "nonpayable",
      "type": "function"
    },
    {
      "inputs": [
        {
          "internalType": "uint16",
          "name": "decimals",
          "type": "uint16"
        }
      ],
      "name": "setLevelDecimals",
      "outputs": [],
      "stateMutability": "nonpayable",
      "type": "function"
    },
    {
      "inputs": [
        {
          "internalType": "uint16[]",
          "name": "rates",
          "type": "uint16[]"
        }
      ],
      "name": "setLevelRates",
      "outputs": [],
      "stateMutability": "nonpayable",
      "type": "function"
    },
    {
      "inputs": [
        {
          "internalType": "uint8[]",
          "name": "planId",
          "type": "uint8[]"
        },
        {
          "internalType": "string[]",
          "name": "name",
          "type": "string[]"
        },
        {
          "internalType": "uint256[]",
          "name": "valueInDecimals",
          "type": "uint256[]"
        },
        {
          "internalType": "uint256[]",
          "name": "maxLimitMultiplier",
          "type": "uint256[]"
        }
      ],
      "name": "setPlans",
      "outputs": [],
      "stateMutability": "nonpayable",
      "type": "function"
    },
    {
      "inputs": [
        {
          "internalType": "address",
          "name": "tokenContract",
          "type": "address"
        }
      ],
      "name": "setRewardTokenContract",
      "outputs": [],
      "stateMutability": "nonpayable",
      "type": "function"
    },
    {
      "inputs": [
        {
          "internalType": "uint8",
          "name": "rate",
          "type": "uint8"
        }
      ],
      "name": "setRewardTokenRate",
      "outputs": [],
      "stateMutability": "nonpayable",
      "type": "function"
    },
    {
      "inputs": [
        {
          "internalType": "uint8",
          "name": "rate",
          "type": "uint8"
        }
      ],
      "name": "setValueBufferRate",
      "outputs": [],
      "stateMutability": "nonpayable",
      "type": "function"
    },
    {
      "inputs": [
        {
          "internalType": "uint8",
          "name": "rate",
          "type": "uint8"
        }
      ],
      "name": "setWeeklyRewardRate",
      "outputs": [],
      "stateMutability": "nonpayable",
      "type": "function"
    },
    {
      "inputs": [
        {
          "internalType": "uint256",
          "name": "",
          "type": "uint256"
        }
      ],
      "name": "supportedTokensList",
      "outputs": [
        {
          "internalType": "address",
          "name": "",
          "type": "address"
        }
      ],
      "stateMutability": "view",
      "type": "function"
    },
    {
      "inputs": [
        {
          "internalType": "address",
          "name": "newOwner",
          "type": "address"
        }
      ],
      "name": "transferOwnership",
      "outputs": [],
      "stateMutability": "nonpayable",
      "type": "function"
    },
    {
      "inputs": [],
      "name": "unpause",
      "outputs": [],
      "stateMutability": "nonpayable",
      "type": "function"
    },
    {
      "inputs": [
        {
          "internalType": "address",
          "name": "newImplementation",
          "type": "address"
        }
      ],
      "name": "upgradeTo",
      "outputs": [],
      "stateMutability": "nonpayable",
      "type": "function"
    },
    {
      "inputs": [
        {
          "internalType": "address",
          "name": "newImplementation",
          "type": "address"
        },
        {
          "internalType": "bytes",
          "name": "data",
          "type": "bytes"
        }
      ],
      "name": "upgradeToAndCall",
      "outputs": [],
      "stateMutability": "payable",
      "type": "function"
    }
  ],
  "bytecode": "0x60a06040523060805234801561001457600080fd5b5060805161310161004c60003960008181611117015281816111600152818161125d0152818161129d015261132c01526131016000f3fe60806040526004361061038b5760003560e01c8063880c0ec3116101dc578063b7a2662011610102578063e371c5c5116100a0578063eb758bc71161006f578063eb758bc714610abe578063f2a9012114610ade578063f2fde38b14610afe578063ffc43f8f14610b1e57600080fd5b8063e371c5c514610a2c578063e701671714610a4c578063e74af32e14610a6e578063e7cca9c714610a9b57600080fd5b8063c391d636116100dc578063c391d636146109b0578063d54fcd93146109ce578063e091099c146109ee578063e179719a14610a0d57600080fd5b8063b7a266201461094f578063b9cd1a501461096f578063bcb03b571461099057600080fd5b8063a43ae4081161017a578063ac40e30911610149578063ac40e309146108d0578063af2d4d09146108f0578063b2e6b91214610910578063b64435621461092f57600080fd5b8063a43ae40814610850578063a46868f014610870578063a61a4ff314610890578063a646e845146108b057600080fd5b8063918a54db116101b6578063918a54db146107cf57806393cee9c9146107f157806394debf48146108115780639f6d88701461083157600080fd5b8063880c0ec3146107725780638da5cb5b14610792578063916452ab146107b057600080fd5b80634ccebd50116102c15780635f3ad6e21161025f578063715018a61161022e578063715018a6146106ef57806375151b63146107045780638129fc1c146107485780638456cb591461075d57600080fd5b80635f3ad6e21461065957806363c918771461067857806365eb204d146106b05780636cf3c676146106cf57600080fd5b80635397b86d1161029b5780635397b86d146105e257806357b88805146106015780635c975abb146106215780635d9bed631461063957600080fd5b80634ccebd501461058c5780634f1ef286146105ac57806352d1902d146105bf57600080fd5b80632c1e816d1161032e5780633659cfe6116103085780633659cfe61461051857806339e0dcfa146105385780633f4ba83a146105585780633fae6a111461056d57600080fd5b80632c1e816d146104915780632f8c7e72146104b15780633238c16f146104eb57600080fd5b80630efc12b11161036a5780630efc12b1146103f257806316dd07e0146104285780631f1eeec8146104535780632b70c02c1461047257600080fd5b8062b2929014610390578063051ff2b9146103b257806308fcfbbe146103d2575b600080fd5b34801561039c57600080fd5b506103b06103ab366004612681565b610b40565b005b3480156103be57600080fd5b506103b06103cd3660046126ac565b610d1d565b3480156103de57600080fd5b506103b06103ed366004612681565b610fae565b3480156103fe57600080fd5b5061041261040d3660046126fe565b610fd9565b60405161041f919061276b565b60405180910390f35b34801561043457600080fd5b5060fc54600160681b900460ff165b604051901515815260200161041f565b34801561045f57600080fd5b5060fc54600160601b900460ff16610443565b34801561047e57600080fd5b5060fc54600160501b900460ff16610443565b34801561049d57600080fd5b506103b06104ac366004612681565b6110e2565b3480156104bd57600080fd5b506104436104cc366004612681565b6001600160a01b03166000908152610108602052604090205460ff1690565b3480156104f757600080fd5b5060fc54600160401b900460ff165b60405160ff909116815260200161041f565b34801561052457600080fd5b506103b0610533366004612681565b61110d565b34801561054457600080fd5b506103b06105533660046127b4565b6111f5565b34801561056457600080fd5b506103b061121b565b34801561057957600080fd5b5060fc54600160581b900460ff16610443565b34801561059857600080fd5b506103b06105a73660046127b4565b61122d565b6103b06105ba36600461287c565b611253565b3480156105cb57600080fd5b506105d461131f565b60405190815260200161041f565b3480156105ee57600080fd5b5060fc54600160381b900460ff16610506565b34801561060d57600080fd5b506103b061061c36600461292a565b6113d2565b34801561062d57600080fd5b5060335460ff16610443565b34801561064557600080fd5b506103b06106543660046127b4565b6114c4565b34801561066557600080fd5b5060fc546301000000900460ff16610506565b34801561068457600080fd5b5061069861069336600461296c565b6114ea565b6040516001600160a01b03909116815260200161041f565b3480156106bc57600080fd5b50610103546001600160a01b0316610698565b3480156106db57600080fd5b506103b06106ea3660046126fe565b611514565b3480156106fb57600080fd5b506103b0611541565b34801561071057600080fd5b5061044361071f366004612681565b6001600160a01b031660009081526101076020526040902060030154600160b01b900460ff1690565b34801561075457600080fd5b506103b0611553565b34801561076957600080fd5b506103b061175e565b34801561077e57600080fd5b506103b061078d3660046126fe565b61176e565b34801561079e57600080fd5b506065546001600160a01b0316610698565b3480156107bc57600080fd5b50610104546001600160a01b0316610698565b3480156107db57600080fd5b506107e461179c565b60405161041f9190612985565b3480156107fd57600080fd5b506103b061080c3660046127b4565b61181c565b34801561081d57600080fd5b506103b061082c3660046126fe565b611842565b34801561083d57600080fd5b5060fc54600160701b900460ff16610443565b34801561085c57600080fd5b506103b061086b3660046129df565b61186a565b34801561087c57600080fd5b5060fc54640100000000900460ff16610506565b34801561089c57600080fd5b506103b06108ab3660046126fe565b61188a565b3480156108bc57600080fd5b506103b06108cb3660046126fe565b6118b0565b3480156108dc57600080fd5b506103b06108eb3660046126fe565b6118dc565b3480156108fc57600080fd5b506103b061090b3660046126fe565b611908565b34801561091c57600080fd5b50610105546001600160a01b0316610698565b34801561093b57600080fd5b506103b061094a3660046127b4565b611932565b34801561095b57600080fd5b506103b061096a3660046126fe565b611958565b34801561097b57600080fd5b5060fc5465010000000000900460ff16610506565b34801561099c57600080fd5b506103b06109ab366004612a1e565b611986565b3480156109bc57600080fd5b5060fc5462010000900460ff16610506565b3480156109da57600080fd5b506103b06109e9366004612b68565b611b62565b3480156109fa57600080fd5b5060fc54600160481b900460ff16610506565b348015610a1957600080fd5b5060fc54600160781b900460ff16610443565b348015610a3857600080fd5b506103b0610a47366004612681565b611b7d565b348015610a5857600080fd5b5060fc546601000000000000900460ff16610506565b348015610a7a57600080fd5b50610a8e610a89366004612681565b611c45565b60405161041f9190612c00565b348015610aa757600080fd5b5060fc5460405161ffff909116815260200161041f565b348015610aca57600080fd5b506103b0610ad93660046127b4565b611e19565b348015610aea57600080fd5b506103b0610af9366004612681565b611e3f565b348015610b0a57600080fd5b506103b0610b19366004612681565b611e6a565b348015610b2a57600080fd5b50610b33611ee0565b60405161041f9190612c98565b610b48611f41565b6001600160a01b0381166000908152610108602052604090205460ff168015610d19576001600160a01b038216600090815261010860209081526040808320805460ff1916905560fe80548251818502810185019093528083529192909190830182828015610be057602002820191906000526020600020905b81546001600160a01b03168152600190910190602001808311610bc2575b5050505050905060005b8151811015610d1657836001600160a01b0316828281518110610c0f57610c0f612cd9565b60200260200101516001600160a01b031603610d04578160018351610c349190612d05565b81518110610c4457610c44612cd9565b602002602001015160fe8281548110610c5f57610c5f612cd9565b9060005260206000200160006101000a8154816001600160a01b0302191690836001600160a01b0316021790555060fe805480610c9e57610c9e612d18565b6000828152602090819020600019908301810180546001600160a01b03191690559091019091556040516001600160a01b03861681527f337eeb0192a31dfc3c61aff0be47a571a126a9e3f1caaee4af8c29babbb477e9910160405180910390a1610d16565b80610d0e81612d2e565b915050610bea565b50505b5050565b610d25611f41565b6040518060e00160405280846001600160a01b03168152602001846001600160a01b03166306fdde036040518163ffffffff1660e01b8152600401600060405180830381865afa158015610d7d573d6000803e3d6000fd5b505050506040513d6000823e601f3d908101601f19168201604052610da59190810190612d47565b8152602001846001600160a01b03166395d89b416040518163ffffffff1660e01b8152600401600060405180830381865afa158015610de8573d6000803e3d6000fd5b505050506040513d6000823e601f3d908101601f19168201604052610e109190810190612d47565b8152602001846001600160a01b031663313ce5676040518163ffffffff1660e01b8152600401602060405180830381865afa158015610e53573d6000803e3d6000fd5b505050506040513d601f19601f82011682018060405250810190610e779190612dbe565b60ff1681528315156020808301919091526001600160a01b03848116604080850191909152600160609094018490528782166000908152610107845220845181546001600160a01b0319169216919091178155908301519091820190610edd9082612e63565b5060408201516002820190610ef29082612e63565b50606082015160039091018054608084015160a085015160c0909501511515600160b01b0260ff60b01b196001600160a01b0396871662010000021662010000600160b81b03199215156101000261ffff1990941660ff9096169590951792909217169290921791909117905560fd80546001810182556000919091527f9346ac6dd7de6b96975fec380d4d994c4c12e6a8897544f22915316cc6cca280018054949091166001600160a01b0319909416939093179092555050565b610fb6611f41565b61010380546001600160a01b0319166001600160a01b0392909216919091179055565b6110076040518060800160405280600060ff1681526020016060815260200160008152602001600081525090565b60ff80831660009081526101066020908152604091829020825160808101909352805490931682526001830180549293929184019161104590612ddb565b80601f016020809104026020016040519081016040528092919081815260200182805461107190612ddb565b80156110be5780601f10611093576101008083540402835291602001916110be565b820191906000526020600020905b8154815290600101906020018083116110a157829003601f168201915b50505050508152602001600282015481526020016003820154815250509050919050565b6110ea611f41565b61010580546001600160a01b0319166001600160a01b0392909216919091179055565b6001600160a01b037f000000000000000000000000000000000000000000000000000000000000000016300361115e5760405162461bcd60e51b815260040161115590612f23565b60405180910390fd5b7f00000000000000000000000000000000000000000000000000000000000000006001600160a01b03166111a7600080516020613085833981519152546001600160a01b031690565b6001600160a01b0316146111cd5760405162461bcd60e51b815260040161115590612f6f565b6111d681611f9b565b604080516000808252602082019092526111f291839190611fa3565b50565b6111fd611f41565b60fc8054911515600160681b0260ff60681b19909216919091179055565b611223611f41565b61122b61210e565b565b611235611f41565b60fc8054911515600160781b0260ff60781b19909216919091179055565b6001600160a01b037f000000000000000000000000000000000000000000000000000000000000000016300361129b5760405162461bcd60e51b815260040161115590612f23565b7f00000000000000000000000000000000000000000000000000000000000000006001600160a01b03166112e4600080516020613085833981519152546001600160a01b031690565b6001600160a01b03161461130a5760405162461bcd60e51b815260040161115590612f6f565b61131382611f9b565b610d1982826001611fa3565b6000306001600160a01b037f000000000000000000000000000000000000000000000000000000000000000016146113bf5760405162461bcd60e51b815260206004820152603860248201527f555550535570677261646561626c653a206d757374206e6f742062652063616c60448201527f6c6564207468726f7567682064656c656761746563616c6c00000000000000006064820152608401611155565b5060008051602061308583398151915290565b6113da611f41565b60005b60ff81168211156114bf576000610107600085858560ff1681811061140457611404612cd9565b90506020020160208101906114199190612681565b6001600160a01b0316815260208101919091526040016000206003018054911515600160b01b0260ff60b01b1990921691909117905560fd838360ff841681811061146657611466612cd9565b905060200201602081019061147b9190612681565b81546001810183556000928352602090922090910180546001600160a01b0319166001600160a01b03909216919091179055806114b781612fbb565b9150506113dd565b505050565b6114cc611f41565b60fc8054911515600160701b0260ff60701b19909216919091179055565b60fd81815481106114fa57600080fd5b6000918252602090912001546001600160a01b0316905081565b61151c611f41565b60fc805460ff909216600160401b0268ff000000000000000019909216919091179055565b611549611f41565b61122b6000612160565b600054610100900460ff16158080156115735750600054600160ff909116105b8061158d5750303b15801561158d575060005460ff166001145b6115f05760405162461bcd60e51b815260206004820152602e60248201527f496e697469616c697a61626c653a20636f6e747261637420697320616c72656160448201526d191e481a5b9a5d1a585b1a5e995960921b6064820152608401611155565b6000805460ff191660011790558015611613576000805461ff0019166101001790555b604080516101408101825261138881526101f460208201526101909181019190915261012c606082015260c86080820152606460a0820181905260c0820152607d60e0820181905261010082015260966101208201526116779060fb90600a6125a7565b5060fc805461010380546001600160a01b0319908116737f9fd63932babc508fad2f324eb534d09cfe86f0179091556101048054821673efb61c43c70b60563c1a2a835663c63ecc93f6ba1790556f010101010101030302050a0a0a0027106fffffffffffffffffffffffffff00ffff19909216919091179091556101058054909116331790556117066121b2565b61170e6121e1565b611716612210565b80156111f2576000805461ff0019169055604051600181527f7f26b83ff96e1f2b6a682f133852f6798a09c465da95921460cefb38474024989060200160405180910390a150565b611766611f41565b61122b612237565b611776611f41565b60fc805460ff90921666010000000000000266ff00000000000019909216919091179055565b606060fb80548060200260200160405190810160405280929190818152602001828054801561181257602002820191906000526020600020906000905b82829054906101000a900461ffff1661ffff16815260200190600201906020826001010492830192600103820291508084116117d95790505b5050505050905090565b611824611f41565b60fc8054911515600160601b0260ff60601b19909216919091179055565b61184a611f41565b60fc805460ff90921663010000000263ff00000019909216919091179055565b611872611f41565b60fc805461ffff191661ffff92909216919091179055565b611892611f41565b60fc805460ff909216620100000262ff000019909216919091179055565b6118b8611f41565b60fc805460ff909216600160381b0267ff0000000000000019909216919091179055565b6118e4611f41565b60fc805460ff909216650100000000000265ff000000000019909216919091179055565b611910611f41565b60fc805460ff9092166401000000000264ff0000000019909216919091179055565b61193a611f41565b60fc8054911515600160581b0260ff60581b19909216919091179055565b611960611f41565b60fc805460ff909216600160481b0269ff00000000000000000019909216919091179055565b61198e611f41565b60005b86811015611b58578787828181106119ab576119ab612cd9565b90506020020160208101906119c091906126fe565b61010660008a8a858181106119d7576119d7612cd9565b90506020020160208101906119ec91906126fe565b60ff90811682526020820192909252604001600020805460ff1916929091169190911790558551869082908110611a2557611a25612cd9565b602002602001015161010660008a8a85818110611a4457611a44612cd9565b9050602002016020810190611a5991906126fe565b60ff168152602081019190915260400160002060010190611a7a9082612e63565b50848482818110611a8d57611a8d612cd9565b90506020020135670de0b6b3a7640000611aa79190612fda565b61010660008a8a85818110611abe57611abe612cd9565b9050602002016020810190611ad391906126fe565b60ff168152602081019190915260400160002060020155828282818110611afc57611afc612cd9565b9050602002013561010660008a8a85818110611b1a57611b1a612cd9565b9050602002016020810190611b2f91906126fe565b60ff16815260208101919091526040016000206003015580611b5081612d2e565b915050611991565b5050505050505050565b611b6a611f41565b8051610d199060fb9060208401906125a7565b611b85611f41565b6001600160a01b0381166000908152610108602052604090205460ff1680610d19576001600160a01b038216600081815261010860209081526040808320805460ff1916600190811790915560fe805491820181559093527f54075df80ec1ae6ac9100e1fd0ebf3246c17f5c933137af392011f4c5f61513a90920180546001600160a01b0319168417905590519182527fe30f8cb0d8cbc7c0e95d5aaa3107ce401738ce4bc98a05dd081bb2a77a9ca749910160405180910390a15050565b6040805160e080820183526000808352606060208085018290528486018290529084018290526080840182905260a0840182905260c084018290526001600160a01b0386811683526101078252918590208551938401909552845490911682526001840180549394929391840191611cbc90612ddb565b80601f0160208091040260200160405190810160405280929190818152602001828054611ce890612ddb565b8015611d355780601f10611d0a57610100808354040283529160200191611d35565b820191906000526020600020905b815481529060010190602001808311611d1857829003601f168201915b50505050508152602001600282018054611d4e90612ddb565b80601f0160208091040260200160405190810160405280929190818152602001828054611d7a90612ddb565b8015611dc75780601f10611d9c57610100808354040283529160200191611dc7565b820191906000526020600020905b815481529060010190602001808311611daa57829003601f168201915b50505091835250506003919091015460ff808216602084015261010082048116151560408401526001600160a01b03620100008304166060840152600160b01b90910416151560809091015292915050565b611e21611f41565b60fc8054911515600160501b0260ff60501b19909216919091179055565b611e47611f41565b61010480546001600160a01b0319166001600160a01b0392909216919091179055565b611e72611f41565b6001600160a01b038116611ed75760405162461bcd60e51b815260206004820152602660248201527f4f776e61626c653a206e6577206f776e657220697320746865207a65726f206160448201526564647265737360d01b6064820152608401611155565b6111f281612160565b606060fe80548060200260200160405190810160405280929190818152602001828054801561181257602002820191906000526020600020905b81546001600160a01b03168152600190910190602001808311611f1a575050505050905090565b6065546001600160a01b0316331461122b5760405162461bcd60e51b815260206004820181905260248201527f4f776e61626c653a2063616c6c6572206973206e6f7420746865206f776e65726044820152606401611155565b6111f2611f41565b7f4910fdfa16fed3260ed0e7147f7cc6da11a60208b5b9406d12a635614ffd91435460ff1615611fd6576114bf83612274565b826001600160a01b03166352d1902d6040518163ffffffff1660e01b8152600401602060405180830381865afa925050508015612030575060408051601f3d908101601f1916820190925261202d91810190612ff1565b60015b6120935760405162461bcd60e51b815260206004820152602e60248201527f45524331393637557067726164653a206e657720696d706c656d656e7461746960448201526d6f6e206973206e6f74205555505360901b6064820152608401611155565b60008051602061308583398151915281146121025760405162461bcd60e51b815260206004820152602960248201527f45524331393637557067726164653a20756e737570706f727465642070726f786044820152681a58589b195555525160ba1b6064820152608401611155565b506114bf838383612310565b612116612335565b6033805460ff191690557f5db9ee0a495bf2e6ff9c91a7834c1ba4fdd244a5e8aa4e537bd38aeae4b073aa335b6040516001600160a01b03909116815260200160405180910390a1565b606580546001600160a01b038381166001600160a01b0319831681179093556040519116919082907f8be0079c531659141344cd1fd0a4f28419497f9722a3daafe3b4186f6b6457e090600090a35050565b600054610100900460ff166121d95760405162461bcd60e51b81526004016111559061300a565b61122b61237e565b600054610100900460ff166122085760405162461bcd60e51b81526004016111559061300a565b61122b6123b1565b600054610100900460ff1661122b5760405162461bcd60e51b81526004016111559061300a565b61223f6123e1565b6033805460ff191660011790557f62e78cea01bee320cd4e420270b5ea74000d11b0c9f74754ebdbfc544b05a2586121433390565b6001600160a01b0381163b6122e15760405162461bcd60e51b815260206004820152602d60248201527f455243313936373a206e657720696d706c656d656e746174696f6e206973206e60448201526c1bdd08184818dbdb9d1c9858dd609a1b6064820152608401611155565b60008051602061308583398151915280546001600160a01b0319166001600160a01b0392909216919091179055565b61231983612427565b6000825111806123265750805b156114bf57610d168383612467565b60335460ff1661122b5760405162461bcd60e51b815260206004820152601460248201527314185d5cd8589b194e881b9bdd081c185d5cd95960621b6044820152606401611155565b600054610100900460ff166123a55760405162461bcd60e51b81526004016111559061300a565b6033805460ff19169055565b600054610100900460ff166123d85760405162461bcd60e51b81526004016111559061300a565b61122b33612160565b60335460ff161561122b5760405162461bcd60e51b815260206004820152601060248201526f14185d5cd8589b194e881c185d5cd95960821b6044820152606401611155565b61243081612274565b6040516001600160a01b038216907fbc7cd75a20ee27fd9adebab32041f755214dbc6bffa90cc0225b39da2e5c2d3b90600090a250565b60606001600160a01b0383163b6124cf5760405162461bcd60e51b815260206004820152602660248201527f416464726573733a2064656c65676174652063616c6c20746f206e6f6e2d636f6044820152651b9d1c9858dd60d21b6064820152608401611155565b600080846001600160a01b0316846040516124ea9190613055565b600060405180830381855af49150503d8060008114612525576040519150601f19603f3d011682016040523d82523d6000602084013e61252a565b606091505b509150915061255282826040518060600160405280602781526020016130a56027913961255d565b925050505b92915050565b6060831561256c575081612576565b612576838361257d565b9392505050565b81511561258d5781518083602001fd5b8060405162461bcd60e51b81526004016111559190613071565b82805482825590600052602060002090600f016010900481019282156126405791602002820160005b8382111561261057835183826101000a81548161ffff021916908361ffff16021790555092602001926002016020816001010492830192600103026125d0565b801561263e5782816101000a81549061ffff0219169055600201602081600101049283019260010302612610565b505b5061264c929150612650565b5090565b5b8082111561264c5760008155600101612651565b80356001600160a01b038116811461267c57600080fd5b919050565b60006020828403121561269357600080fd5b61257682612665565b8035801515811461267c57600080fd5b6000806000606084860312156126c157600080fd5b6126ca84612665565b92506126d86020850161269c565b91506126e660408501612665565b90509250925092565b60ff811681146111f257600080fd5b60006020828403121561271057600080fd5b8135612576816126ef565b60005b8381101561273657818101518382015260200161271e565b50506000910152565b6000815180845261275781602086016020860161271b565b601f01601f19169290920160200192915050565b6020815260ff8251166020820152600060208301516080604084015261279460a084018261273f565b905060408401516060840152606084015160808401528091505092915050565b6000602082840312156127c657600080fd5b6125768261269c565b634e487b7160e01b600052604160045260246000fd5b604051601f8201601f1916810167ffffffffffffffff8111828210171561280e5761280e6127cf565b604052919050565b600067ffffffffffffffff821115612830576128306127cf565b50601f01601f191660200190565b600061285161284c84612816565b6127e5565b905082815283838301111561286557600080fd5b828260208301376000602084830101529392505050565b6000806040838503121561288f57600080fd5b61289883612665565b9150602083013567ffffffffffffffff8111156128b457600080fd5b8301601f810185136128c557600080fd5b6128d48582356020840161283e565b9150509250929050565b60008083601f8401126128f057600080fd5b50813567ffffffffffffffff81111561290857600080fd5b6020830191508360208260051b850101111561292357600080fd5b9250929050565b6000806020838503121561293d57600080fd5b823567ffffffffffffffff81111561295457600080fd5b612960858286016128de565b90969095509350505050565b60006020828403121561297e57600080fd5b5035919050565b6020808252825182820181905260009190848201906040850190845b818110156129c157835161ffff16835292840192918401916001016129a1565b50909695505050505050565b803561ffff8116811461267c57600080fd5b6000602082840312156129f157600080fd5b612576826129cd565b600067ffffffffffffffff821115612a1457612a146127cf565b5060051b60200190565b60008060008060008060006080888a031215612a3957600080fd5b67ffffffffffffffff8089351115612a5057600080fd5b612a5d8a8a358b016128de565b90985096506020890135811015612a7357600080fd5b602089013589018a601f820112612a8957600080fd5b612a9661284c82356129fa565b81358082526020808301929160051b8401018d811115612ab557600080fd5b602084015b81811015612b06578581351115612ad057600080fd5b8e603f823587010112612ae257600080fd5b612af88f8235870160208101359060400161283e565b845260209384019301612aba565b50508098505050508060408a01351115612b1f57600080fd5b612b2f8a60408b01358b016128de565b90955093506060890135811015612b4557600080fd5b50612b568960608a01358a016128de565b979a9699509497509295919491925050565b60006020808385031215612b7b57600080fd5b823567ffffffffffffffff811115612b9257600080fd5b8301601f81018513612ba357600080fd5b8035612bb161284c826129fa565b81815260059190911b82018301908381019087831115612bd057600080fd5b928401925b82841015612bf557612be6846129cd565b82529284019290840190612bd5565b979650505050505050565b602080825282516001600160a01b03168282015282015160e06040830152600090612c2f61010084018261273f565b90506040840151601f19848303016060850152612c4c828261273f565b91505060ff60608501511660808401526080840151151560a084015260a0840151612c8260c08501826001600160a01b03169052565b5060c084015180151560e0850152509392505050565b6020808252825182820181905260009190848201906040850190845b818110156129c15783516001600160a01b031683529284019291840191600101612cb4565b634e487b7160e01b600052603260045260246000fd5b634e487b7160e01b600052601160045260246000fd5b8181038181111561255757612557612cef565b634e487b7160e01b600052603160045260246000fd5b600060018201612d4057612d40612cef565b5060010190565b600060208284031215612d5957600080fd5b815167ffffffffffffffff811115612d7057600080fd5b8201601f81018413612d8157600080fd5b8051612d8f61284c82612816565b818152856020838501011115612da457600080fd5b612db582602083016020860161271b565b95945050505050565b600060208284031215612dd057600080fd5b8151612576816126ef565b600181811c90821680612def57607f821691505b602082108103612e0f57634e487b7160e01b600052602260045260246000fd5b50919050565b601f8211156114bf57600081815260208120601f850160051c81016020861015612e3c5750805b601f850160051c820191505b81811015612e5b57828155600101612e48565b505050505050565b815167ffffffffffffffff811115612e7d57612e7d6127cf565b612e9181612e8b8454612ddb565b84612e15565b602080601f831160018114612ec65760008415612eae5750858301515b600019600386901b1c1916600185901b178555612e5b565b600085815260208120601f198616915b82811015612ef557888601518255948401946001909101908401612ed6565b5085821015612f135787850151600019600388901b60f8161c191681555b5050505050600190811b01905550565b6020808252602c908201527f46756e6374696f6e206d7573742062652063616c6c6564207468726f7567682060408201526b19195b1959d85d1958d85b1b60a21b606082015260800190565b6020808252602c908201527f46756e6374696f6e206d7573742062652063616c6c6564207468726f7567682060408201526b6163746976652070726f787960a01b606082015260800190565b600060ff821660ff8103612fd157612fd1612cef565b60010192915050565b808202811582820484141761255757612557612cef565b60006020828403121561300357600080fd5b5051919050565b6020808252602b908201527f496e697469616c697a61626c653a20636f6e7472616374206973206e6f74206960408201526a6e697469616c697a696e6760a81b606082015260800190565b6000825161306781846020870161271b565b9190910192915050565b602081526000612576602083018461273f56fe360894a13ba1a3210667c828492db98dca3e2076cc3735a920a3ca505d382bbc416464726573733a206c6f772d6c6576656c2064656c65676174652063616c6c206661696c6564a26469706673582212208c350dbb785e14efcb074192175b886d5ef903293e8131f50c3f50b3b183837264736f6c63430008120033",
  "linkReferences": {},
  "deployedLinkReferences": {}
}