{
  "_format": "hh-sol-artifact-1",
  "contractName": "VariablesV1Upgradeable",
  "sourceName": "contracts/VariablesV1Upgradeable.sol",
  "abi": [
    {
      "anonymous": false,
      "inputs": [
        {
          "indexed": false,
          "internalType": "address",
          "name": "previousAdmin",
          "type": "address"
        },
        {
          "indexed": false,
          "internalType": "address",
          "name": "newAdmin",
          "type": "address"
        }
      ],
      "name": "AdminChanged",
      "type": "event"
    },
    {
      "anonymous": false,
      "inputs": [
        {
          "indexed": true,
          "internalType": "address",
          "name": "beacon",
          "type": "address"
        }
      ],
      "name": "BeaconUpgraded",
      "type": "event"
    },
    {
      "anonymous": false,
      "inputs": [
        {
          "indexed": false,
          "internalType": "address",
          "name": "ibpAddress",
          "type": "address"
        }
      ],
      "name": "IBPPromotedByAdmin",
      "type": "event"
    },
    {
      "anonymous": false,
      "inputs": [
        {
          "indexed": false,
          "internalType": "address",
          "name": "ibpAddress",
          "type": "address"
        }
      ],
      "name": "IBPRemovedByAdmin",
      "type": "event"
    },
    {
      "anonymous": false,
      "inputs": [
        {
          "indexed": false,
          "internalType": "uint8",
          "name": "version",
          "type": "uint8"
        }
      ],
      "name": "Initialized",
      "type": "event"
    },
    {
      "anonymous": false,
      "inputs": [
        {
          "indexed": true,
          "internalType": "address",
          "name": "previousOwner",
          "type": "address"
        },
        {
          "indexed": true,
          "internalType": "address",
          "name": "newOwner",
          "type": "address"
        }
      ],
      "name": "OwnershipTransferred",
      "type": "event"
    },
    {
      "anonymous": false,
      "inputs": [
        {
          "indexed": false,
          "internalType": "address",
          "name": "account",
          "type": "address"
        }
      ],
      "name": "Paused",
      "type": "event"
    },
    {
      "anonymous": false,
      "inputs": [
        {
          "indexed": false,
          "internalType": "address",
          "name": "account",
          "type": "address"
        }
      ],
      "name": "Unpaused",
      "type": "event"
    },
    {
      "anonymous": false,
      "inputs": [
        {
          "indexed": true,
          "internalType": "address",
          "name": "implementation",
          "type": "address"
        }
      ],
      "name": "Upgraded",
      "type": "event"
    },
    {
      "inputs": [
        {
          "internalType": "address",
          "name": "_ibpAddress",
          "type": "address"
        }
      ],
      "name": "addIBPAddressAdmin",
      "outputs": [],
      "stateMutability": "nonpayable",
      "type": "function"
    },
    {
      "inputs": [
        {
          "internalType": "address[]",
          "name": "_tokenContractAddress",
          "type": "address[]"
        }
      ],
      "name": "disableSupportedToken",
      "outputs": [],
      "stateMutability": "nonpayable",
      "type": "function"
    },
    {
      "inputs": [],
      "name": "getAdminAddress",
      "outputs": [
        {
          "internalType": "address",
          "name": "",
          "type": "address"
        }
      ],
      "stateMutability": "view",
      "type": "function"
    },
    {
      "inputs": [],
      "name": "getAdminContractAddress",
      "outputs": [
        {
          "internalType": "address",
          "name": "",
          "type": "address"
        }
      ],
      "stateMutability": "view",
      "type": "function"
    },
    {
      "inputs": [],
      "name": "getAdminFees",
      "outputs": [
        {
          "internalType": "uint8",
          "name": "",
          "type": "uint8"
        }
      ],
      "stateMutability": "view",
      "type": "function"
    },
    {
      "inputs": [],
      "name": "getBaseCurrencyDecimals",
      "outputs": [
        {
          "internalType": "uint8",
          "name": "",
          "type": "uint8"
        }
      ],
      "stateMutability": "view",
      "type": "function"
    },
    {
      "inputs": [],
      "name": "getBusdContractAddress",
      "outputs": [
        {
          "internalType": "address",
          "name": "",
          "type": "address"
        }
      ],
      "stateMutability": "view",
      "type": "function"
    },
    {
      "inputs": [],
      "name": "getCoreMemberRewardRate",
      "outputs": [
        {
          "internalType": "uint8",
          "name": "",
          "type": "uint8"
        }
      ],
      "stateMutability": "view",
      "type": "function"
    },
    {
      "inputs": [],
      "name": "getCoreMembersContractAddress",
      "outputs": [
        {
          "internalType": "address",
          "name": "",
          "type": "address"
        }
      ],
      "stateMutability": "view",
      "type": "function"
    },
    {
      "inputs": [],
      "name": "getDefaultIBP",
      "outputs": [
        {
          "internalType": "address",
          "name": "",
          "type": "address"
        }
      ],
      "stateMutability": "view",
      "type": "function"
    },
    {
      "inputs": [],
      "name": "getDefaultReferrer",
      "outputs": [
        {
          "internalType": "address",
          "name": "",
          "type": "address"
        }
      ],
      "stateMutability": "view",
      "type": "function"
    },
    {
      "inputs": [],
      "name": "getGlobalRewardRate",
      "outputs": [
        {
          "internalType": "uint8",
          "name": "",
          "type": "uint8"
        }
      ],
      "stateMutability": "view",
      "type": "function"
    },
    {
      "inputs": [],
      "name": "getIBPList",
      "outputs": [
        {
          "internalType": "address[]",
          "name": "",
          "type": "address[]"
        }
      ],
      "stateMutability": "view",
      "type": "function"
    },
    {
      "inputs": [],
      "name": "getIbpRewardRate",
      "outputs": [
        {
          "internalType": "uint8",
          "name": "",
          "type": "uint8"
        }
      ],
      "stateMutability": "view",
      "type": "function"
    },
    {
      "inputs": [],
      "name": "getIsPayCoreMembersRewards",
      "outputs": [
        {
          "internalType": "bool",
          "name": "",
          "type": "bool"
        }
      ],
      "stateMutability": "view",
      "type": "function"
    },
    {
      "inputs": [],
      "name": "getIsPayGlobalRewards",
      "outputs": [
        {
          "internalType": "bool",
          "name": "",
          "type": "bool"
        }
      ],
      "stateMutability": "view",
      "type": "function"
    },
    {
      "inputs": [],
      "name": "getIsPayIbpRewards",
      "outputs": [
        {
          "internalType": "bool",
          "name": "",
          "type": "bool"
        }
      ],
      "stateMutability": "view",
      "type": "function"
    },
    {
      "inputs": [],
      "name": "getIsPayReferralRewards",
      "outputs": [
        {
          "internalType": "bool",
          "name": "",
          "type": "bool"
        }
      ],
      "stateMutability": "view",
      "type": "function"
    },
    {
      "inputs": [],
      "name": "getIsPayRewardToken",
      "outputs": [
        {
          "internalType": "bool",
          "name": "",
          "type": "bool"
        }
      ],
      "stateMutability": "view",
      "type": "function"
    },
    {
      "inputs": [],
      "name": "getIsPayWeeklyRewards",
      "outputs": [
        {
          "internalType": "bool",
          "name": "",
          "type": "bool"
        }
      ],
      "stateMutability": "view",
      "type": "function"
    },
    {
      "inputs": [],
      "name": "getLevelDecimals",
      "outputs": [
        {
          "internalType": "uint16",
          "name": "",
          "type": "uint16"
        }
      ],
      "stateMutability": "view",
      "type": "function"
    },
    {
      "inputs": [],
      "name": "getLevelRates",
      "outputs": [
        {
          "internalType": "uint16[]",
          "name": "",
          "type": "uint16[]"
        }
      ],
      "stateMutability": "view",
      "type": "function"
    },
    {
      "inputs": [
        {
          "internalType": "uint8",
          "name": "_planId",
          "type": "uint8"
        }
      ],
      "name": "getPlanById",
      "outputs": [
        {
          "components": [
            {
              "internalType": "uint8",
              "name": "planId",
              "type": "uint8"
            },
            {
              "internalType": "string",
              "name": "name",
              "type": "string"
            },
            {
              "internalType": "uint256",
              "name": "value",
              "type": "uint256"
            },
            {
              "internalType": "uint256",
              "name": "maxLimitMultiplier",
              "type": "uint256"
            }
          ],
          "internalType": "struct VariablesV1Upgradeable.PlanStruct",
          "name": "",
          "type": "tuple"
        }
      ],
      "stateMutability": "view",
      "type": "function"
    },
    {
      "inputs": [],
      "name": "getRewardTokenContract",
      "outputs": [
        {
          "internalType": "address",
          "name": "",
          "type": "address"
        }
      ],
      "stateMutability": "view",
      "type": "function"
    },
    {
      "inputs": [],
      "name": "getRewardTokenRate",
      "outputs": [
        {
          "internalType": "uint8",
          "name": "",
          "type": "uint8"
        }
      ],
      "stateMutability": "view",
      "type": "function"
    },
    {
      "inputs": [
        {
          "internalType": "address",
          "name": "_tokenContractAddress",
          "type": "address"
        }
      ],
      "name": "getSupportedTokenInfo",
      "outputs": [
        {
          "components": [
            {
              "internalType": "address",
              "name": "contractAddress",
              "type": "address"
            },
            {
              "internalType": "string",
              "name": "name",
              "type": "string"
            },
            {
              "internalType": "string",
              "name": "symbol",
              "type": "string"
            },
            {
              "internalType": "uint8",
              "name": "decimals",
              "type": "uint8"
            },
            {
              "internalType": "address",
              "name": "aggregatorAddress",
              "type": "address"
            },
            {
              "internalType": "bool",
              "name": "isEbaled",
              "type": "bool"
            }
          ],
          "internalType": "struct VariablesV1Upgradeable.SupportedTokensStruct",
          "name": "",
          "type": "tuple"
        }
      ],
      "stateMutability": "view",
      "type": "function"
    },
    {
      "inputs": [],
      "name": "getUsdtContractAddress",
      "outputs": [
        {
          "internalType": "address",
          "name": "",
          "type": "address"
        }
      ],
      "stateMutability": "view",
      "type": "function"
    },
    {
      "inputs": [],
      "name": "getValueBufferRate",
      "outputs": [
        {
          "internalType": "uint8",
          "name": "",
          "type": "uint8"
        }
      ],
      "stateMutability": "view",
      "type": "function"
    },
    {
      "inputs": [],
      "name": "getWeeklyRewardRate",
      "outputs": [
        {
          "internalType": "uint8",
          "name": "",
          "type": "uint8"
        }
      ],
      "stateMutability": "view",
      "type": "function"
    },
    {
      "inputs": [],
      "name": "getWeeklyRewardTimeLimit",
      "outputs": [
        {
          "internalType": "uint256",
          "name": "",
          "type": "uint256"
        }
      ],
      "stateMutability": "view",
      "type": "function"
    },
    {
      "inputs": [],
      "name": "initialize",
      "outputs": [],
      "stateMutability": "nonpayable",
      "type": "function"
    },
    {
      "inputs": [
        {
          "internalType": "address",
          "name": "_ibpAddress",
          "type": "address"
        }
      ],
      "name": "isIBP",
      "outputs": [
        {
          "internalType": "bool",
          "name": "",
          "type": "bool"
        }
      ],
      "stateMutability": "view",
      "type": "function"
    },
    {
      "inputs": [
        {
          "internalType": "address",
          "name": "_tokenContractAddress",
          "type": "address"
        }
      ],
      "name": "isTokenSupported",
      "outputs": [
        {
          "internalType": "bool",
          "name": "",
          "type": "bool"
        }
      ],
      "stateMutability": "view",
      "type": "function"
    },
    {
      "inputs": [],
      "name": "owner",
      "outputs": [
        {
          "internalType": "address",
          "name": "",
          "type": "address"
        }
      ],
      "stateMutability": "view",
      "type": "function"
    },
    {
      "inputs": [],
      "name": "pause",
      "outputs": [],
      "stateMutability": "nonpayable",
      "type": "function"
    },
    {
      "inputs": [],
      "name": "paused",
      "outputs": [
        {
          "internalType": "bool",
          "name": "",
          "type": "bool"
        }
      ],
      "stateMutability": "view",
      "type": "function"
    },
    {
      "inputs": [],
      "name": "proxiableUUID",
      "outputs": [
        {
          "internalType": "bytes32",
          "name": "",
          "type": "bytes32"
        }
      ],
      "stateMutability": "view",
      "type": "function"
    },
    {
      "inputs": [
        {
          "internalType": "address[]",
          "name": "_tokenContractAddress",
          "type": "address[]"
        },
        {
          "internalType": "address[]",
          "name": "aggregatorContractAddress",
          "type": "address[]"
        }
      ],
      "name": "pushSupportedTokenToList",
      "outputs": [],
      "stateMutability": "nonpayable",
      "type": "function"
    },
    {
      "inputs": [
        {
          "internalType": "address",
          "name": "_ibpAddress",
          "type": "address"
        }
      ],
      "name": "removeIBPAddressAdmin",
      "outputs": [],
      "stateMutability": "nonpayable",
      "type": "function"
    },
    {
      "inputs": [],
      "name": "renounceOwnership",
      "outputs": [],
      "stateMutability": "nonpayable",
      "type": "function"
    },
    {
      "inputs": [
        {
          "internalType": "address",
          "name": "adminAddress",
          "type": "address"
        }
      ],
      "name": "setAdminAddress",
      "outputs": [],
      "stateMutability": "nonpayable",
      "type": "function"
    },
    {
      "inputs": [
        {
          "internalType": "address",
          "name": "_address",
          "type": "address"
        }
      ],
      "name": "setAdminContractAddress",
      "outputs": [],
      "stateMutability": "nonpayable",
      "type": "function"
    },
    {
      "inputs": [
        {
          "internalType": "uint8",
          "name": "fees",
          "type": "uint8"
        }
      ],
      "name": "setAdminFees",
      "outputs": [],
      "stateMutability": "nonpayable",
      "type": "function"
    },
    {
      "inputs": [
        {
          "internalType": "uint8",
          "name": "decimals",
          "type": "uint8"
        }
      ],
      "name": "setBaseCurrencyDecimals",
      "outputs": [],
      "stateMutability": "nonpayable",
      "type": "function"
    },
    {
      "inputs": [
        {
          "internalType": "address",
          "name": "busdAddress",
          "type": "address"
        }
      ],
      "name": "setBusdContractAddress",
      "outputs": [],
      "stateMutability": "nonpayable",
      "type": "function"
    },
    {
      "inputs": [
        {
          "internalType": "uint8",
          "name": "rate",
          "type": "uint8"
        }
      ],
      "name": "setCoreMemberRewardRate",
      "outputs": [],
      "stateMutability": "nonpayable",
      "type": "function"
    },
    {
      "inputs": [
        {
          "internalType": "address",
          "name": "_address",
          "type": "address"
        }
      ],
      "name": "setCoreMembersContractAddress",
      "outputs": [],
      "stateMutability": "nonpayable",
      "type": "function"
    },
    {
      "inputs": [
        {
          "internalType": "address",
          "name": "ibpAddress",
          "type": "address"
        }
      ],
      "name": "setDefaultIBP",
      "outputs": [],
      "stateMutability": "nonpayable",
      "type": "function"
    },
    {
      "inputs": [
        {
          "internalType": "address",
          "name": "referrer",
          "type": "address"
        }
      ],
      "name": "setDefaultReferrer",
      "outputs": [],
      "stateMutability": "nonpayable",
      "type": "function"
    },
    {
      "inputs": [
        {
          "internalType": "uint8",
          "name": "rate",
          "type": "uint8"
        }
      ],
      "name": "setGlobalRewardRate",
      "outputs": [],
      "stateMutability": "nonpayable",
      "type": "function"
    },
    {
      "inputs": [
        {
          "internalType": "uint8",
          "name": "rate",
          "type": "uint8"
        }
      ],
      "name": "setIbpRewardRate",
      "outputs": [],
      "stateMutability": "nonpayable",
      "type": "function"
    },
    {
      "inputs": [
        {
          "internalType": "bool",
          "name": "value",
          "type": "bool"
        }
      ],
      "name": "setIsPayCoreMembersRewards",
      "outputs": [],
      "stateMutability": "nonpayable",
      "type": "function"
    },
    {
      "inputs": [
        {
          "internalType": "bool",
          "name": "value",
          "type": "bool"
        }
      ],
      "name": "setIsPayGlobalRewards",
      "outputs": [],
      "stateMutability": "nonpayable",
      "type": "function"
    },
    {
      "inputs": [
        {
          "internalType": "bool",
          "name": "value",
          "type": "bool"
        }
      ],
      "name": "setIsPayIbpRewards",
      "outputs": [],
      "stateMutability": "nonpayable",
      "type": "function"
    },
    {
      "inputs": [
        {
          "internalType": "bool",
          "name": "value",
          "type": "bool"
        }
      ],
      "name": "setIsPayReferralRewards",
      "outputs": [],
      "stateMutability": "nonpayable",
      "type": "function"
    },
    {
      "inputs": [
        {
          "internalType": "bool",
          "name": "isPay",
          "type": "bool"
        }
      ],
      "name": "setIsPayRewardToken",
      "outputs": [],
      "stateMutability": "nonpayable",
      "type": "function"
    },
    {
      "inputs": [
        {
          "internalType": "bool",
          "name": "value",
          "type": "bool"
        }
      ],
      "name": "setIsPayWeeklyRewards",
      "outputs": [],
      "stateMutability": "nonpayable",
      "type": "function"
    },
    {
      "inputs": [
        {
          "internalType": "uint16",
          "name": "decimals",
          "type": "uint16"
        }
      ],
      "name": "setLevelDecimals",
      "outputs": [],
      "stateMutability": "nonpayable",
      "type": "function"
    },
    {
      "inputs": [
        {
          "internalType": "uint16[]",
          "name": "rates",
          "type": "uint16[]"
        }
      ],
      "name": "setLevelRates",
      "outputs": [],
      "stateMutability": "nonpayable",
      "type": "function"
    },
    {
      "inputs": [
        {
          "internalType": "uint8[]",
          "name": "planId",
          "type": "uint8[]"
        },
        {
          "internalType": "string[]",
          "name": "name",
          "type": "string[]"
        },
        {
          "internalType": "uint256[]",
          "name": "value",
          "type": "uint256[]"
        },
        {
          "internalType": "uint256[]",
          "name": "maxLimitMultiplier",
          "type": "uint256[]"
        }
      ],
      "name": "setPlans",
      "outputs": [],
      "stateMutability": "nonpayable",
      "type": "function"
    },
    {
      "inputs": [
        {
          "internalType": "address",
          "name": "tokenContract",
          "type": "address"
        }
      ],
      "name": "setRewardTokenContract",
      "outputs": [],
      "stateMutability": "nonpayable",
      "type": "function"
    },
    {
      "inputs": [
        {
          "internalType": "uint8",
          "name": "rate",
          "type": "uint8"
        }
      ],
      "name": "setRewardTokenRate",
      "outputs": [],
      "stateMutability": "nonpayable",
      "type": "function"
    },
    {
      "inputs": [
        {
          "internalType": "address",
          "name": "usdtAddress",
          "type": "address"
        }
      ],
      "name": "setUsdtContractAddress",
      "outputs": [],
      "stateMutability": "nonpayable",
      "type": "function"
    },
    {
      "inputs": [
        {
          "internalType": "uint8",
          "name": "rate",
          "type": "uint8"
        }
      ],
      "name": "setValueBufferRate",
      "outputs": [],
      "stateMutability": "nonpayable",
      "type": "function"
    },
    {
      "inputs": [
        {
          "internalType": "uint8",
          "name": "rate",
          "type": "uint8"
        }
      ],
      "name": "setWeeklyRewardRate",
      "outputs": [],
      "stateMutability": "nonpayable",
      "type": "function"
    },
    {
      "inputs": [
        {
          "internalType": "uint256",
          "name": "",
          "type": "uint256"
        }
      ],
      "name": "supportedTokensList",
      "outputs": [
        {
          "internalType": "address",
          "name": "",
          "type": "address"
        }
      ],
      "stateMutability": "view",
      "type": "function"
    },
    {
      "inputs": [
        {
          "internalType": "address",
          "name": "newOwner",
          "type": "address"
        }
      ],
      "name": "transferOwnership",
      "outputs": [],
      "stateMutability": "nonpayable",
      "type": "function"
    },
    {
      "inputs": [],
      "name": "unpause",
      "outputs": [],
      "stateMutability": "nonpayable",
      "type": "function"
    },
    {
      "inputs": [
        {
          "internalType": "address",
          "name": "newImplementation",
          "type": "address"
        }
      ],
      "name": "upgradeTo",
      "outputs": [],
      "stateMutability": "nonpayable",
      "type": "function"
    },
    {
      "inputs": [
        {
          "internalType": "address",
          "name": "newImplementation",
          "type": "address"
        },
        {
          "internalType": "bytes",
          "name": "data",
          "type": "bytes"
        }
      ],
      "name": "upgradeToAndCall",
      "outputs": [],
      "stateMutability": "payable",
      "type": "function"
    }
  ],
  "bytecode": "0x60a06040523060805234801561001457600080fd5b506080516135d661004c600039600081816110480152818161109101528181611198015281816111d8015261126701526135d66000f3fe6080604052600436106104045760003560e01c8063880c0ec311610213578063b7a2662011610123578063e371c5c5116100ab578063e7cca9c71161007a578063e7cca9c714610c5a578063eb758bc714610c7d578063f2a9012114610c9d578063f2fde38b14610cbd578063ffc43f8f14610cdd57600080fd5b8063e371c5c514610bd5578063e420318314610bf5578063e701671714610c15578063e74af32e14610c2d57600080fd5b8063c391d636116100f2578063c391d63614610b39578063d54fcd9314610b57578063dcf6e81914610b77578063e091099c14610b97578063e179719a14610bb657600080fd5b8063b7a2662014610ab5578063b9cd1a5014610ad5578063bcb03b5714610af4578063beb22a2014610b1457600080fd5b8063a46868f0116101a6578063af2d4d0911610175578063af2d4d0914610a22578063b2e6b91214610a42578063b644356214610a61578063b6b248de14610a81578063b70c14f814610aa057600080fd5b8063a46868f0146109a2578063a61a4ff3146109c2578063a646e845146109e2578063ac40e30914610a0257600080fd5b806393cee9c9116101e257806393cee9c91461092357806394debf48146109435780639f6d887014610963578063a43ae4081461098257600080fd5b8063880c0ec3146108a45780638da5cb5b146108c4578063916452ab146108e2578063918a54db1461090157600080fd5b80634f1ef28611610319578063658918e0116102a1578063715018a611610270578063715018a61461080157806375151b63146108165780638129fc1c1461085a5780638456cb591461086f5780638790c4f81461088457600080fd5b8063658918e01461078257806365eb204d146107a25780636cf3c676146107c1578063707d9afe146107e157600080fd5b8063587d2c14116102e8578063587d2c14146106eb5780635c975abb1461070b5780635d9bed63146107235780635f3ad6e21461074357806363c918771461076257600080fd5b80634f1ef2861461067857806352d1902d1461068b5780635397b86d146106ae57806357b88805146106cb57600080fd5b80632f8c7e721161039c57806339e0dcfa1161036b57806339e0dcfa146105e65780633f4ba83a146106065780633fae6a111461061b5780634b92fb121461063a5780634ccebd501461065857600080fd5b80632f8c7e721461054157806331d4465b1461057b5780633238c16f1461059a5780633659cfe6146105c657600080fd5b80631f1eeec8116103d85780631f1eeec8146104ac57806324883508146104ce5780632b70c02c146105015780632c1e816d1461052157600080fd5b8062b292901461040957806308fcfbbe1461042b5780630efc12b11461044b57806316dd07e014610481575b600080fd5b34801561041557600080fd5b50610429610424366004612b03565b610cff565b005b34801561043757600080fd5b50610429610446366004612b03565b610edf565b34801561045757600080fd5b5061046b610466366004612b2d565b610f0a565b6040516104789190612b9a565b60405180910390f35b34801561048d57600080fd5b5060fe54600160381b900460ff165b6040519015158152602001610478565b3480156104b857600080fd5b5060fe546601000000000000900460ff1661049c565b3480156104da57600080fd5b50610105546001600160a01b03165b6040516001600160a01b039091168152602001610478565b34801561050d57600080fd5b5060fe54640100000000900460ff1661049c565b34801561052d57600080fd5b5061042961053c366004612b03565b611013565b34801561054d57600080fd5b5061049c61055c366004612b03565b6001600160a01b0316600090815261010a602052604090205460ff1690565b34801561058757600080fd5b50610102546001600160a01b03166104e9565b3480156105a657600080fd5b5060fe5462010000900460ff165b60405160ff9091168152602001610478565b3480156105d257600080fd5b506104296105e1366004612b03565b61103e565b3480156105f257600080fd5b50610429610601366004612be3565b611126565b34801561061257600080fd5b50610429611150565b34801561062757600080fd5b5060fe54600160281b900460ff1661049c565b34801561064657600080fd5b5060ff546001600160a01b03166104e9565b34801561066457600080fd5b50610429610673366004612be3565b611162565b610429610686366004612c74565b61118e565b34801561069757600080fd5b506106a061125a565b604051908152602001610478565b3480156106ba57600080fd5b5060fe54610100900460ff166105b4565b3480156106d757600080fd5b506104296106e6366004612d51565b61130d565b3480156106f757600080fd5b50610429610706366004612d93565b611400565b34801561071757600080fd5b5060335460ff1661049c565b34801561072f57600080fd5b5061042961073e366004612be3565b6118cf565b34801561074f57600080fd5b5060fc546301000000900460ff166105b4565b34801561076e57600080fd5b506104e961077d366004612dff565b6118fa565b34801561078e57600080fd5b5061042961079d366004612b03565b611925565b3480156107ae57600080fd5b50610100546001600160a01b03166104e9565b3480156107cd57600080fd5b506104296107dc366004612b2d565b611950565b3480156107ed57600080fd5b506104296107fc366004612b03565b611976565b34801561080d57600080fd5b506104296119a1565b34801561082257600080fd5b5061049c610831366004612b03565b6001600160a01b031660009081526101096020526040902060030154600160a81b900460ff1690565b34801561086657600080fd5b506104296119b3565b34801561087b57600080fd5b50610429611b75565b34801561089057600080fd5b5061042961089f366004612b03565b611b85565b3480156108b057600080fd5b506104296108bf366004612b2d565b611baf565b3480156108d057600080fd5b506065546001600160a01b03166104e9565b3480156108ee57600080fd5b50610101546001600160a01b03166104e9565b34801561090d57600080fd5b50610916611bcd565b6040516104789190612e18565b34801561092f57600080fd5b5061042961093e366004612be3565b611c4d565b34801561094f57600080fd5b5061042961095e366004612b2d565b611c79565b34801561096f57600080fd5b5060fe54600160401b900460ff1661049c565b34801561098e57600080fd5b5061042961099d366004612e72565b611ca1565b3480156109ae57600080fd5b5060fc54640100000000900460ff166105b4565b3480156109ce57600080fd5b506104296109dd366004612b2d565b611cc1565b3480156109ee57600080fd5b506104296109fd366004612b2d565b611ce7565b348015610a0e57600080fd5b50610429610a1d366004612b2d565b611d0b565b348015610a2e57600080fd5b50610429610a3d366004612b2d565b611d35565b348015610a4e57600080fd5b50610107546001600160a01b03166104e9565b348015610a6d57600080fd5b50610429610a7c366004612be3565b611d5f565b348015610a8d57600080fd5b50610106546001600160a01b03166104e9565b348015610aac57600080fd5b5060fd546106a0565b348015610ac157600080fd5b50610429610ad0366004612b2d565b611d87565b348015610ae157600080fd5b5060fc54600160281b900460ff166105b4565b348015610b0057600080fd5b50610429610b0f366004612e8d565b611daf565b348015610b2057600080fd5b5060fe54600160501b90046001600160a01b03166104e9565b348015610b4557600080fd5b5060fc5462010000900460ff166105b4565b348015610b6357600080fd5b50610429610b72366004612f51565b611f82565b348015610b8357600080fd5b50610429610b92366004612b03565b611f9d565b348015610ba357600080fd5b5060fe546301000000900460ff166105b4565b348015610bc257600080fd5b5060fe54600160481b900460ff1661049c565b348015610be157600080fd5b50610429610bf0366004612b03565b611fc8565b348015610c0157600080fd5b50610429610c10366004612b03565b612091565b348015610c2157600080fd5b5060fe5460ff166105b4565b348015610c3957600080fd5b50610c4d610c48366004612b03565b6120da565b6040516104789190612ffe565b348015610c6657600080fd5b5060fc5460405161ffff9091168152602001610478565b348015610c8957600080fd5b50610429610c98366004612be3565b612298565b348015610ca957600080fd5b50610429610cb8366004612b03565b6122c0565b348015610cc957600080fd5b50610429610cd8366004612b03565b6122eb565b348015610ce957600080fd5b50610cf2612361565b604051610478919061307d565b610d076123c3565b6001600160a01b038116600090815261010a602052604090205460ff168015610edb576001600160a01b038216600090815261010a60209081526040808320805460ff1916905561010480548251818502810185019093528083529192909190830182828015610da057602002820191906000526020600020905b81546001600160a01b03168152600190910190602001808311610d82575b5050505050905060005b8151811015610ed857836001600160a01b0316828281518110610dcf57610dcf6130be565b60200260200101516001600160a01b031603610ec6578160018351610df491906130ea565b81518110610e0457610e046130be565b60200260200101516101048281548110610e2057610e206130be565b9060005260206000200160006101000a8154816001600160a01b0302191690836001600160a01b03160217905550610104805480610e6057610e606130fd565b6000828152602090819020600019908301810180546001600160a01b03191690559091019091556040516001600160a01b03861681527f337eeb0192a31dfc3c61aff0be47a571a126a9e3f1caaee4af8c29babbb477e9910160405180910390a1610ed8565b80610ed081613113565b915050610daa565b50505b5050565b610ee76123c3565b61010080546001600160a01b0319166001600160a01b0392909216919091179055565b610f386040518060800160405280600060ff1681526020016060815260200160008152602001600081525090565b60ff808316600090815261010860209081526040918290208251608081019093528054909316825260018301805492939291840191610f769061312c565b80601f0160208091040260200160405190810160405280929190818152602001828054610fa29061312c565b8015610fef5780601f10610fc457610100808354040283529160200191610fef565b820191906000526020600020905b815481529060010190602001808311610fd257829003601f168201915b50505050508152602001600282015481526020016003820154815250509050919050565b61101b6123c3565b61010780546001600160a01b0319166001600160a01b0392909216919091179055565b6001600160a01b037f000000000000000000000000000000000000000000000000000000000000000016300361108f5760405162461bcd60e51b815260040161108690613166565b60405180910390fd5b7f00000000000000000000000000000000000000000000000000000000000000006001600160a01b03166110d860008051602061355a833981519152546001600160a01b031690565b6001600160a01b0316146110fe5760405162461bcd60e51b8152600401611086906131b2565b6111078161241d565b6040805160008082526020820190925261112391839190612425565b50565b61112e6123c3565b60fe8054911515600160381b0267ff0000000000000019909216919091179055565b6111586123c3565b611160612590565b565b61116a6123c3565b60fe8054911515600160481b0269ff00000000000000000019909216919091179055565b6001600160a01b037f00000000000000000000000000000000000000000000000000000000000000001630036111d65760405162461bcd60e51b815260040161108690613166565b7f00000000000000000000000000000000000000000000000000000000000000006001600160a01b031661121f60008051602061355a833981519152546001600160a01b031690565b6001600160a01b0316146112455760405162461bcd60e51b8152600401611086906131b2565b61124e8261241d565b610edb82826001612425565b6000306001600160a01b037f000000000000000000000000000000000000000000000000000000000000000016146112fa5760405162461bcd60e51b815260206004820152603860248201527f555550535570677261646561626c653a206d757374206e6f742062652063616c60448201527f6c6564207468726f7567682064656c656761746563616c6c00000000000000006064820152608401611086565b5060008051602061355a83398151915290565b6113156123c3565b60005b60ff81168211156113fb576000610109600085858560ff1681811061133f5761133f6130be565b90506020020160208101906113549190612b03565b6001600160a01b0316815260208101919091526040016000206003018054911515600160a81b0260ff60a81b19909216919091179055610103838360ff84168181106113a2576113a26130be565b90506020020160208101906113b79190612b03565b81546001810183556000928352602090922090910180546001600160a01b0319166001600160a01b03909216919091179055806113f3816131fe565b915050611318565b505050565b6114086123c3565b60005b60ff81168411156118c85784848260ff1681811061142b5761142b6130be565b90506020020160208101906114409190612b03565b610109600087878560ff1681811061145a5761145a6130be565b905060200201602081019061146f9190612b03565b6001600160a01b039081168252602082019290925260400160002080546001600160a01b03191692909116919091179055848460ff83168181106114b5576114b56130be565b90506020020160208101906114ca9190612b03565b6001600160a01b03166306fdde036040518163ffffffff1660e01b8152600401600060405180830381865afa158015611507573d6000803e3d6000fd5b505050506040513d6000823e601f3d908101601f1916820160405261152f919081019061321d565b610109600087878560ff16818110611549576115496130be565b905060200201602081019061155e9190612b03565b6001600160a01b0316815260208101919091526040016000206001019061158590826132e2565b5084848260ff1681811061159b5761159b6130be565b90506020020160208101906115b09190612b03565b6001600160a01b03166395d89b416040518163ffffffff1660e01b8152600401600060405180830381865afa1580156115ed573d6000803e3d6000fd5b505050506040513d6000823e601f3d908101601f19168201604052611615919081019061321d565b610109600087878560ff1681811061162f5761162f6130be565b90506020020160208101906116449190612b03565b6001600160a01b0316815260208101919091526040016000206002019061166b90826132e2565b5084848260ff16818110611681576116816130be565b90506020020160208101906116969190612b03565b6001600160a01b031663313ce5676040518163ffffffff1660e01b8152600401602060405180830381865afa1580156116d3573d6000803e3d6000fd5b505050506040513d601f19601f820116820180604052508101906116f791906133a2565b610109600087878560ff16818110611711576117116130be565b90506020020160208101906117269190612b03565b6001600160a01b031681526020810191909152604001600020600301805460ff191660ff928316179055839083908316818110611765576117656130be565b905060200201602081019061177a9190612b03565b610109600087878560ff16818110611794576117946130be565b90506020020160208101906117a99190612b03565b6001600160a01b03166001600160a01b0316815260200190815260200160002060030160016101000a8154816001600160a01b0302191690836001600160a01b031602179055506001610109600087878560ff1681811061180c5761180c6130be565b90506020020160208101906118219190612b03565b6001600160a01b0316815260208101919091526040016000206003018054911515600160a81b0260ff60a81b19909216919091179055610103858560ff841681811061186f5761186f6130be565b90506020020160208101906118849190612b03565b81546001810183556000928352602090922090910180546001600160a01b0319166001600160a01b03909216919091179055806118c0816131fe565b91505061140b565b5050505050565b6118d76123c3565b60fe8054911515600160401b0268ff000000000000000019909216919091179055565b610103818154811061190b57600080fd5b6000918252602090912001546001600160a01b0316905081565b61192d6123c3565b61010280546001600160a01b0319166001600160a01b0392909216919091179055565b6119586123c3565b60fe805460ff909216620100000262ff000019909216919091179055565b61197e6123c3565b61010680546001600160a01b0319166001600160a01b0392909216919091179055565b6119a96123c3565b61116060006125e2565b600054610100900460ff16158080156119d35750600054600160ff909116105b806119ed5750303b1580156119ed575060005460ff166001145b611a505760405162461bcd60e51b815260206004820152602e60248201527f496e697469616c697a61626c653a20636f6e747261637420697320616c72656160448201526d191e481a5b9a5d1a585b1a5e995960921b6064820152608401611086565b6000805460ff191660011790558015611a73576000805461ff0019166101001790555b604080516101408101825261138881526101f460208201526101909181019190915261012c606082015260c86080820152606460a0820181905260c0820152607d60e082018190526101008201526096610120820152611ad79060fb90600a612a29565b5060fc805465ffffffffffff1916650a0a0a12271017905562093a8060fd5560fe805469ffffffffffff00ffffff19166901010101010100030205179055611b1d612634565b611b25612663565b611b2d612692565b8015611123576000805461ff0019169055604051600181527f7f26b83ff96e1f2b6a682f133852f6798a09c465da95921460cefb38474024989060200160405180910390a150565b611b7d6123c3565b6111606126b9565b611b8d6123c3565b60ff80546001600160a01b0319166001600160a01b0392909216919091179055565b611bb76123c3565b60fe805460ff191660ff92909216919091179055565b606060fb805480602002602001604051908101604052809291908181526020018280548015611c4357602002820191906000526020600020906000905b82829054906101000a900461ffff1661ffff1681526020019060020190602082600101049283019260010382029150808411611c0a5790505b5050505050905090565b611c556123c3565b60fe805491151566010000000000000266ff00000000000019909216919091179055565b611c816123c3565b60fc805460ff90921663010000000263ff00000019909216919091179055565b611ca96123c3565b60fc805461ffff191661ffff92909216919091179055565b611cc96123c3565b60fc805460ff909216620100000262ff000019909216919091179055565b611cef6123c3565b60fe805460ff9092166101000261ff0019909216919091179055565b611d136123c3565b60fc805460ff909216600160281b0265ff000000000019909216919091179055565b611d3d6123c3565b60fc805460ff9092166401000000000264ff0000000019909216919091179055565b611d676123c3565b60fe8054911515600160281b0265ff000000000019909216919091179055565b611d8f6123c3565b60fe805460ff90921663010000000263ff00000019909216919091179055565b611db76123c3565b60005b87811015611f7757888882818110611dd457611dd46130be565b9050602002016020810190611de99190612b2d565b61010860008b8b85818110611e0057611e006130be565b9050602002016020810190611e159190612b2d565b60ff90811682526020820192909252604001600020805460ff191692909116919091179055868682818110611e4c57611e4c6130be565b9050602002810190611e5e91906133bf565b61010860008c8c86818110611e7557611e756130be565b9050602002016020810190611e8a9190612b2d565b60ff168152602081019190915260400160002060010191611eac919083613406565b50848482818110611ebf57611ebf6130be565b9050602002013561010860008b8b85818110611edd57611edd6130be565b9050602002016020810190611ef29190612b2d565b60ff168152602081019190915260400160002060020155828282818110611f1b57611f1b6130be565b9050602002013561010860008b8b85818110611f3957611f396130be565b9050602002016020810190611f4e9190612b2d565b60ff16815260208101919091526040016000206003015580611f6f81613113565b915050611dba565b505050505050505050565b611f8a6123c3565b8051610edb9060fb906020840190612a29565b611fa56123c3565b61010580546001600160a01b0319166001600160a01b0392909216919091179055565b611fd06123c3565b6001600160a01b038116600090815261010a602052604090205460ff1680610edb576001600160a01b038216600081815261010a60209081526040808320805460ff19166001908117909155610104805491820181559093527f4c0be60200faa20559308cb7b5a1bb3255c16cb1cab91f525b5ae7a03d02fabe90920180546001600160a01b0319168417905590519182527fe30f8cb0d8cbc7c0e95d5aaa3107ce401738ce4bc98a05dd081bb2a77a9ca749910160405180910390a15050565b6120996123c3565b60fe80546001600160a01b03909216600160501b027fffff0000000000000000000000000000000000000000ffffffffffffffffffff909216919091179055565b6040805160c080820183526000808352606060208085018290528486018290529084018290526080840182905260a084018290526001600160a01b038681168352610109825291859020855193840190955284549091168252600184018054939492939184019161214a9061312c565b80601f01602080910402602001604051908101604052809291908181526020018280546121769061312c565b80156121c35780601f10612198576101008083540402835291602001916121c3565b820191906000526020600020905b8154815290600101906020018083116121a657829003601f168201915b505050505081526020016002820180546121dc9061312c565b80601f01602080910402602001604051908101604052809291908181526020018280546122089061312c565b80156122555780601f1061222a57610100808354040283529160200191612255565b820191906000526020600020905b81548152906001019060200180831161223857829003601f168201915b50505091835250506003919091015460ff80821660208401526001600160a01b036101008304166040840152600160a81b90910416151560609091015292915050565b6122a06123c3565b60fe80549115156401000000000264ff0000000019909216919091179055565b6122c86123c3565b61010180546001600160a01b0319166001600160a01b0392909216919091179055565b6122f36123c3565b6001600160a01b0381166123585760405162461bcd60e51b815260206004820152602660248201527f4f776e61626c653a206e6577206f776e657220697320746865207a65726f206160448201526564647265737360d01b6064820152608401611086565b611123816125e2565b6060610104805480602002602001604051908101604052809291908181526020018280548015611c4357602002820191906000526020600020905b81546001600160a01b0316815260019091019060200180831161239c575050505050905090565b6065546001600160a01b031633146111605760405162461bcd60e51b815260206004820181905260248201527f4f776e61626c653a2063616c6c6572206973206e6f7420746865206f776e65726044820152606401611086565b6111236123c3565b7f4910fdfa16fed3260ed0e7147f7cc6da11a60208b5b9406d12a635614ffd91435460ff1615612458576113fb836126f6565b826001600160a01b03166352d1902d6040518163ffffffff1660e01b8152600401602060405180830381865afa9250505080156124b2575060408051601f3d908101601f191682019092526124af918101906134c6565b60015b6125155760405162461bcd60e51b815260206004820152602e60248201527f45524331393637557067726164653a206e657720696d706c656d656e7461746960448201526d6f6e206973206e6f74205555505360901b6064820152608401611086565b60008051602061355a83398151915281146125845760405162461bcd60e51b815260206004820152602960248201527f45524331393637557067726164653a20756e737570706f727465642070726f786044820152681a58589b195555525160ba1b6064820152608401611086565b506113fb838383612792565b6125986127b7565b6033805460ff191690557f5db9ee0a495bf2e6ff9c91a7834c1ba4fdd244a5e8aa4e537bd38aeae4b073aa335b6040516001600160a01b03909116815260200160405180910390a1565b606580546001600160a01b038381166001600160a01b0319831681179093556040519116919082907f8be0079c531659141344cd1fd0a4f28419497f9722a3daafe3b4186f6b6457e090600090a35050565b600054610100900460ff1661265b5760405162461bcd60e51b8152600401611086906134df565b611160612800565b600054610100900460ff1661268a5760405162461bcd60e51b8152600401611086906134df565b611160612833565b600054610100900460ff166111605760405162461bcd60e51b8152600401611086906134df565b6126c1612863565b6033805460ff191660011790557f62e78cea01bee320cd4e420270b5ea74000d11b0c9f74754ebdbfc544b05a2586125c53390565b6001600160a01b0381163b6127635760405162461bcd60e51b815260206004820152602d60248201527f455243313936373a206e657720696d706c656d656e746174696f6e206973206e60448201526c1bdd08184818dbdb9d1c9858dd609a1b6064820152608401611086565b60008051602061355a83398151915280546001600160a01b0319166001600160a01b0392909216919091179055565b61279b836128a9565b6000825111806127a85750805b156113fb57610ed883836128e9565b60335460ff166111605760405162461bcd60e51b815260206004820152601460248201527314185d5cd8589b194e881b9bdd081c185d5cd95960621b6044820152606401611086565b600054610100900460ff166128275760405162461bcd60e51b8152600401611086906134df565b6033805460ff19169055565b600054610100900460ff1661285a5760405162461bcd60e51b8152600401611086906134df565b611160336125e2565b60335460ff16156111605760405162461bcd60e51b815260206004820152601060248201526f14185d5cd8589b194e881c185d5cd95960821b6044820152606401611086565b6128b2816126f6565b6040516001600160a01b038216907fbc7cd75a20ee27fd9adebab32041f755214dbc6bffa90cc0225b39da2e5c2d3b90600090a250565b60606001600160a01b0383163b6129515760405162461bcd60e51b815260206004820152602660248201527f416464726573733a2064656c65676174652063616c6c20746f206e6f6e2d636f6044820152651b9d1c9858dd60d21b6064820152608401611086565b600080846001600160a01b03168460405161296c919061352a565b600060405180830381855af49150503d80600081146129a7576040519150601f19603f3d011682016040523d82523d6000602084013e6129ac565b606091505b50915091506129d4828260405180606001604052806027815260200161357a602791396129df565b925050505b92915050565b606083156129ee5750816129f8565b6129f883836129ff565b9392505050565b815115612a0f5781518083602001fd5b8060405162461bcd60e51b81526004016110869190613546565b82805482825590600052602060002090600f01601090048101928215612ac25791602002820160005b83821115612a9257835183826101000a81548161ffff021916908361ffff1602179055509260200192600201602081600101049283019260010302612a52565b8015612ac05782816101000a81549061ffff0219169055600201602081600101049283019260010302612a92565b505b50612ace929150612ad2565b5090565b5b80821115612ace5760008155600101612ad3565b80356001600160a01b0381168114612afe57600080fd5b919050565b600060208284031215612b1557600080fd5b6129f882612ae7565b60ff8116811461112357600080fd5b600060208284031215612b3f57600080fd5b81356129f881612b1e565b60005b83811015612b65578181015183820152602001612b4d565b50506000910152565b60008151808452612b86816020860160208601612b4a565b601f01601f19169290920160200192915050565b6020815260ff82511660208201526000602083015160806040840152612bc360a0840182612b6e565b905060408401516060840152606084015160808401528091505092915050565b600060208284031215612bf557600080fd5b813580151581146129f857600080fd5b634e487b7160e01b600052604160045260246000fd5b604051601f8201601f1916810167ffffffffffffffff81118282101715612c4457612c44612c05565b604052919050565b600067ffffffffffffffff821115612c6657612c66612c05565b50601f01601f191660200190565b60008060408385031215612c8757600080fd5b612c9083612ae7565b9150602083013567ffffffffffffffff811115612cac57600080fd5b8301601f81018513612cbd57600080fd5b8035612cd0612ccb82612c4c565b612c1b565b818152866020838501011115612ce557600080fd5b816020840160208301376000602083830101528093505050509250929050565b60008083601f840112612d1757600080fd5b50813567ffffffffffffffff811115612d2f57600080fd5b6020830191508360208260051b8501011115612d4a57600080fd5b9250929050565b60008060208385031215612d6457600080fd5b823567ffffffffffffffff811115612d7b57600080fd5b612d8785828601612d05565b90969095509350505050565b60008060008060408587031215612da957600080fd5b843567ffffffffffffffff80821115612dc157600080fd5b612dcd88838901612d05565b90965094506020870135915080821115612de657600080fd5b50612df387828801612d05565b95989497509550505050565b600060208284031215612e1157600080fd5b5035919050565b6020808252825182820181905260009190848201906040850190845b81811015612e5457835161ffff1683529284019291840191600101612e34565b50909695505050505050565b803561ffff81168114612afe57600080fd5b600060208284031215612e8457600080fd5b6129f882612e60565b6000806000806000806000806080898b031215612ea957600080fd5b883567ffffffffffffffff80821115612ec157600080fd5b612ecd8c838d01612d05565b909a50985060208b0135915080821115612ee657600080fd5b612ef28c838d01612d05565b909850965060408b0135915080821115612f0b57600080fd5b612f178c838d01612d05565b909650945060608b0135915080821115612f3057600080fd5b50612f3d8b828c01612d05565b999c989b5096995094979396929594505050565b60006020808385031215612f6457600080fd5b823567ffffffffffffffff80821115612f7c57600080fd5b818501915085601f830112612f9057600080fd5b813581811115612fa257612fa2612c05565b8060051b9150612fb3848301612c1b565b8181529183018401918481019088841115612fcd57600080fd5b938501935b83851015612ff257612fe385612e60565b82529385019390850190612fd2565b98975050505050505050565b60208152600060018060a01b03808451166020840152602084015160c0604085015261302d60e0850182612b6e565b90506040850151601f1985830301606086015261304a8282612b6e565b91505060ff60608601511660808501528160808601511660a085015260a0850151151560c0850152809250505092915050565b6020808252825182820181905260009190848201906040850190845b81811015612e545783516001600160a01b031683529284019291840191600101613099565b634e487b7160e01b600052603260045260246000fd5b634e487b7160e01b600052601160045260246000fd5b818103818111156129d9576129d96130d4565b634e487b7160e01b600052603160045260246000fd5b600060018201613125576131256130d4565b5060010190565b600181811c9082168061314057607f821691505b60208210810361316057634e487b7160e01b600052602260045260246000fd5b50919050565b6020808252602c908201527f46756e6374696f6e206d7573742062652063616c6c6564207468726f7567682060408201526b19195b1959d85d1958d85b1b60a21b606082015260800190565b6020808252602c908201527f46756e6374696f6e206d7573742062652063616c6c6564207468726f7567682060408201526b6163746976652070726f787960a01b606082015260800190565b600060ff821660ff8103613214576132146130d4565b60010192915050565b60006020828403121561322f57600080fd5b815167ffffffffffffffff81111561324657600080fd5b8201601f8101841361325757600080fd5b8051613265612ccb82612c4c565b81815285602083850101111561327a57600080fd5b61328b826020830160208601612b4a565b95945050505050565b601f8211156113fb57600081815260208120601f850160051c810160208610156132bb5750805b601f850160051c820191505b818110156132da578281556001016132c7565b505050505050565b815167ffffffffffffffff8111156132fc576132fc612c05565b6133108161330a845461312c565b84613294565b602080601f831160018114613345576000841561332d5750858301515b600019600386901b1c1916600185901b1785556132da565b600085815260208120601f198616915b8281101561337457888601518255948401946001909101908401613355565b50858210156133925787850151600019600388901b60f8161c191681555b5050505050600190811b01905550565b6000602082840312156133b457600080fd5b81516129f881612b1e565b6000808335601e198436030181126133d657600080fd5b83018035915067ffffffffffffffff8211156133f157600080fd5b602001915036819003821315612d4a57600080fd5b67ffffffffffffffff83111561341e5761341e612c05565b6134328361342c835461312c565b83613294565b6000601f841160018114613466576000851561344e5750838201355b600019600387901b1c1916600186901b1783556118c8565b600083815260209020601f19861690835b828110156134975786850135825560209485019460019092019101613477565b50868210156134b45760001960f88860031b161c19848701351681555b505060018560011b0183555050505050565b6000602082840312156134d857600080fd5b5051919050565b6020808252602b908201527f496e697469616c697a61626c653a20636f6e7472616374206973206e6f74206960408201526a6e697469616c697a696e6760a81b606082015260800190565b6000825161353c818460208701612b4a565b9190910192915050565b6020815260006129f86020830184612b6e56fe360894a13ba1a3210667c828492db98dca3e2076cc3735a920a3ca505d382bbc416464726573733a206c6f772d6c6576656c2064656c65676174652063616c6c206661696c6564a2646970667358221220d9d9f51eea566867ec04f56247ce2b2464e19e98ba84cc1d7d5a99bb0500915964736f6c63430008120033",
  "linkReferences": {},
  "deployedLinkReferences": {}
}