{
  "_format": "hh-sol-artifact-1",
  "contractName": "VariablesV1Upgradeable",
  "sourceName": "contracts/VariablesV1Upgradeable.sol",
  "abi": [
    {
      "anonymous": false,
      "inputs": [
        {
          "indexed": false,
          "internalType": "address",
          "name": "previousAdmin",
          "type": "address"
        },
        {
          "indexed": false,
          "internalType": "address",
          "name": "newAdmin",
          "type": "address"
        }
      ],
      "name": "AdminChanged",
      "type": "event"
    },
    {
      "anonymous": false,
      "inputs": [
        {
          "indexed": true,
          "internalType": "address",
          "name": "beacon",
          "type": "address"
        }
      ],
      "name": "BeaconUpgraded",
      "type": "event"
    },
    {
      "anonymous": false,
      "inputs": [
        {
          "indexed": false,
          "internalType": "address",
          "name": "ibpAddress",
          "type": "address"
        }
      ],
      "name": "IBPPromotedByAdmin",
      "type": "event"
    },
    {
      "anonymous": false,
      "inputs": [
        {
          "indexed": false,
          "internalType": "address",
          "name": "ibpAddress",
          "type": "address"
        }
      ],
      "name": "IBPRemovedByAdmin",
      "type": "event"
    },
    {
      "anonymous": false,
      "inputs": [
        {
          "indexed": false,
          "internalType": "uint8",
          "name": "version",
          "type": "uint8"
        }
      ],
      "name": "Initialized",
      "type": "event"
    },
    {
      "anonymous": false,
      "inputs": [
        {
          "indexed": true,
          "internalType": "address",
          "name": "previousOwner",
          "type": "address"
        },
        {
          "indexed": true,
          "internalType": "address",
          "name": "newOwner",
          "type": "address"
        }
      ],
      "name": "OwnershipTransferred",
      "type": "event"
    },
    {
      "anonymous": false,
      "inputs": [
        {
          "indexed": false,
          "internalType": "address",
          "name": "account",
          "type": "address"
        }
      ],
      "name": "Paused",
      "type": "event"
    },
    {
      "anonymous": false,
      "inputs": [
        {
          "indexed": false,
          "internalType": "address",
          "name": "account",
          "type": "address"
        }
      ],
      "name": "Unpaused",
      "type": "event"
    },
    {
      "anonymous": false,
      "inputs": [
        {
          "indexed": true,
          "internalType": "address",
          "name": "implementation",
          "type": "address"
        }
      ],
      "name": "Upgraded",
      "type": "event"
    },
    {
      "inputs": [
        {
          "internalType": "address",
          "name": "_ibpAddress",
          "type": "address"
        }
      ],
      "name": "addIBPAddressAdmin",
      "outputs": [],
      "stateMutability": "nonpayable",
      "type": "function"
    },
    {
      "inputs": [
        {
          "internalType": "address[]",
          "name": "_tokenContractAddress",
          "type": "address[]"
        }
      ],
      "name": "disableSupportedToken",
      "outputs": [],
      "stateMutability": "nonpayable",
      "type": "function"
    },
    {
      "inputs": [],
      "name": "getAdminAddress",
      "outputs": [
        {
          "internalType": "address",
          "name": "",
          "type": "address"
        }
      ],
      "stateMutability": "view",
      "type": "function"
    },
    {
      "inputs": [],
      "name": "getAdminFees",
      "outputs": [
        {
          "internalType": "uint8",
          "name": "",
          "type": "uint8"
        }
      ],
      "stateMutability": "view",
      "type": "function"
    },
    {
      "inputs": [],
      "name": "getBaseCurrencyDecimals",
      "outputs": [
        {
          "internalType": "uint8",
          "name": "",
          "type": "uint8"
        }
      ],
      "stateMutability": "view",
      "type": "function"
    },
    {
      "inputs": [],
      "name": "getCoreMemberRewardRate",
      "outputs": [
        {
          "internalType": "uint8",
          "name": "",
          "type": "uint8"
        }
      ],
      "stateMutability": "view",
      "type": "function"
    },
    {
      "inputs": [],
      "name": "getCoreMembersContractAddress",
      "outputs": [
        {
          "internalType": "address",
          "name": "",
          "type": "address"
        }
      ],
      "stateMutability": "view",
      "type": "function"
    },
    {
      "inputs": [],
      "name": "getGlobalRewardRate",
      "outputs": [
        {
          "internalType": "uint8",
          "name": "",
          "type": "uint8"
        }
      ],
      "stateMutability": "view",
      "type": "function"
    },
    {
      "inputs": [],
      "name": "getIBPList",
      "outputs": [
        {
          "internalType": "address[]",
          "name": "",
          "type": "address[]"
        }
      ],
      "stateMutability": "view",
      "type": "function"
    },
    {
      "inputs": [],
      "name": "getIbpRewardRate",
      "outputs": [
        {
          "internalType": "uint8",
          "name": "",
          "type": "uint8"
        }
      ],
      "stateMutability": "view",
      "type": "function"
    },
    {
      "inputs": [],
      "name": "getIsPayCoreMembersRewards",
      "outputs": [
        {
          "internalType": "bool",
          "name": "",
          "type": "bool"
        }
      ],
      "stateMutability": "view",
      "type": "function"
    },
    {
      "inputs": [],
      "name": "getIsPayGlobalRewards",
      "outputs": [
        {
          "internalType": "bool",
          "name": "",
          "type": "bool"
        }
      ],
      "stateMutability": "view",
      "type": "function"
    },
    {
      "inputs": [],
      "name": "getIsPayIbpRewards",
      "outputs": [
        {
          "internalType": "bool",
          "name": "",
          "type": "bool"
        }
      ],
      "stateMutability": "view",
      "type": "function"
    },
    {
      "inputs": [],
      "name": "getIsPayReferralRewards",
      "outputs": [
        {
          "internalType": "bool",
          "name": "",
          "type": "bool"
        }
      ],
      "stateMutability": "view",
      "type": "function"
    },
    {
      "inputs": [],
      "name": "getIsPayRewardToken",
      "outputs": [
        {
          "internalType": "bool",
          "name": "",
          "type": "bool"
        }
      ],
      "stateMutability": "view",
      "type": "function"
    },
    {
      "inputs": [],
      "name": "getIsPayWeeklyRewards",
      "outputs": [
        {
          "internalType": "bool",
          "name": "",
          "type": "bool"
        }
      ],
      "stateMutability": "view",
      "type": "function"
    },
    {
      "inputs": [],
      "name": "getLevelDecimals",
      "outputs": [
        {
          "internalType": "uint16",
          "name": "",
          "type": "uint16"
        }
      ],
      "stateMutability": "view",
      "type": "function"
    },
    {
      "inputs": [],
      "name": "getLevelRates",
      "outputs": [
        {
          "internalType": "uint16[]",
          "name": "",
          "type": "uint16[]"
        }
      ],
      "stateMutability": "view",
      "type": "function"
    },
    {
      "inputs": [],
      "name": "getMaticUSDPriceOracle",
      "outputs": [
        {
          "internalType": "address",
          "name": "",
          "type": "address"
        }
      ],
      "stateMutability": "view",
      "type": "function"
    },
    {
      "inputs": [
        {
          "internalType": "uint8",
          "name": "_planId",
          "type": "uint8"
        }
      ],
      "name": "getPlanById",
      "outputs": [
        {
          "components": [
            {
              "internalType": "uint8",
              "name": "planId",
              "type": "uint8"
            },
            {
              "internalType": "string",
              "name": "name",
              "type": "string"
            },
            {
              "internalType": "uint256",
              "name": "value",
              "type": "uint256"
            },
            {
              "internalType": "uint256",
              "name": "maxLimitMultiplier",
              "type": "uint256"
            }
          ],
          "internalType": "struct VariablesV1Upgradeable.PlanStruct",
          "name": "",
          "type": "tuple"
        }
      ],
      "stateMutability": "view",
      "type": "function"
    },
    {
      "inputs": [],
      "name": "getPlansCount",
      "outputs": [
        {
          "internalType": "uint8",
          "name": "planCount",
          "type": "uint8"
        }
      ],
      "stateMutability": "view",
      "type": "function"
    },
    {
      "inputs": [],
      "name": "getPresaleContract",
      "outputs": [
        {
          "internalType": "address",
          "name": "",
          "type": "address"
        }
      ],
      "stateMutability": "view",
      "type": "function"
    },
    {
      "inputs": [],
      "name": "getReferralContract",
      "outputs": [
        {
          "internalType": "address",
          "name": "",
          "type": "address"
        }
      ],
      "stateMutability": "view",
      "type": "function"
    },
    {
      "inputs": [],
      "name": "getRewardTokenContract",
      "outputs": [
        {
          "internalType": "address",
          "name": "",
          "type": "address"
        }
      ],
      "stateMutability": "view",
      "type": "function"
    },
    {
      "inputs": [],
      "name": "getRewardTokenRate",
      "outputs": [
        {
          "internalType": "uint8",
          "name": "",
          "type": "uint8"
        }
      ],
      "stateMutability": "view",
      "type": "function"
    },
    {
      "inputs": [],
      "name": "getStakingContract",
      "outputs": [
        {
          "internalType": "address",
          "name": "",
          "type": "address"
        }
      ],
      "stateMutability": "view",
      "type": "function"
    },
    {
      "inputs": [
        {
          "internalType": "address",
          "name": "_tokenContractAddress",
          "type": "address"
        }
      ],
      "name": "getSupportedTokenInfo",
      "outputs": [
        {
          "components": [
            {
              "internalType": "address",
              "name": "contractAddress",
              "type": "address"
            },
            {
              "internalType": "string",
              "name": "name",
              "type": "string"
            },
            {
              "internalType": "string",
              "name": "symbol",
              "type": "string"
            },
            {
              "internalType": "uint8",
              "name": "decimals",
              "type": "uint8"
            },
            {
              "internalType": "bool",
              "name": "isStable",
              "type": "bool"
            },
            {
              "internalType": "address",
              "name": "aggregatorAddress",
              "type": "address"
            },
            {
              "internalType": "bool",
              "name": "isEnaled",
              "type": "bool"
            }
          ],
          "internalType": "struct VariablesV1Upgradeable.SupportedTokensStruct",
          "name": "",
          "type": "tuple"
        }
      ],
      "stateMutability": "view",
      "type": "function"
    },
    {
      "inputs": [],
      "name": "getUniSwapRouterV2Address",
      "outputs": [
        {
          "internalType": "address",
          "name": "",
          "type": "address"
        }
      ],
      "stateMutability": "view",
      "type": "function"
    },
    {
      "inputs": [],
      "name": "getValueBufferRate",
      "outputs": [
        {
          "internalType": "uint8",
          "name": "",
          "type": "uint8"
        }
      ],
      "stateMutability": "view",
      "type": "function"
    },
    {
      "inputs": [],
      "name": "getWeeklyRewardRate",
      "outputs": [
        {
          "internalType": "uint8",
          "name": "",
          "type": "uint8"
        }
      ],
      "stateMutability": "view",
      "type": "function"
    },
    {
      "inputs": [],
      "name": "initialize",
      "outputs": [],
      "stateMutability": "nonpayable",
      "type": "function"
    },
    {
      "inputs": [
        {
          "internalType": "address",
          "name": "_userAddress",
          "type": "address"
        }
      ],
      "name": "isAdmin",
      "outputs": [
        {
          "internalType": "bool",
          "name": "",
          "type": "bool"
        }
      ],
      "stateMutability": "view",
      "type": "function"
    },
    {
      "inputs": [
        {
          "internalType": "address",
          "name": "_ibpAddress",
          "type": "address"
        }
      ],
      "name": "isIBP",
      "outputs": [
        {
          "internalType": "bool",
          "name": "",
          "type": "bool"
        }
      ],
      "stateMutability": "view",
      "type": "function"
    },
    {
      "inputs": [
        {
          "internalType": "address",
          "name": "_tokenContractAddress",
          "type": "address"
        }
      ],
      "name": "isTokenSupported",
      "outputs": [
        {
          "internalType": "bool",
          "name": "",
          "type": "bool"
        }
      ],
      "stateMutability": "view",
      "type": "function"
    },
    {
      "inputs": [],
      "name": "owner",
      "outputs": [
        {
          "internalType": "address",
          "name": "",
          "type": "address"
        }
      ],
      "stateMutability": "view",
      "type": "function"
    },
    {
      "inputs": [],
      "name": "pause",
      "outputs": [],
      "stateMutability": "nonpayable",
      "type": "function"
    },
    {
      "inputs": [],
      "name": "paused",
      "outputs": [
        {
          "internalType": "bool",
          "name": "",
          "type": "bool"
        }
      ],
      "stateMutability": "view",
      "type": "function"
    },
    {
      "inputs": [],
      "name": "proxiableUUID",
      "outputs": [
        {
          "internalType": "bytes32",
          "name": "",
          "type": "bytes32"
        }
      ],
      "stateMutability": "view",
      "type": "function"
    },
    {
      "inputs": [
        {
          "internalType": "address",
          "name": "_tokenContractAddress",
          "type": "address"
        },
        {
          "internalType": "bool",
          "name": "_isStable",
          "type": "bool"
        },
        {
          "internalType": "address",
          "name": "_aggregatorContractAddress",
          "type": "address"
        }
      ],
      "name": "pushSupportedTokenToList",
      "outputs": [],
      "stateMutability": "nonpayable",
      "type": "function"
    },
    {
      "inputs": [
        {
          "internalType": "address",
          "name": "_ibpAddress",
          "type": "address"
        }
      ],
      "name": "removeIBPAddressAdmin",
      "outputs": [],
      "stateMutability": "nonpayable",
      "type": "function"
    },
    {
      "inputs": [],
      "name": "renounceOwnership",
      "outputs": [],
      "stateMutability": "nonpayable",
      "type": "function"
    },
    {
      "inputs": [
        {
          "internalType": "address",
          "name": "adminAddress",
          "type": "address"
        }
      ],
      "name": "setAdminAddress",
      "outputs": [],
      "stateMutability": "nonpayable",
      "type": "function"
    },
    {
      "inputs": [
        {
          "internalType": "uint8",
          "name": "fees",
          "type": "uint8"
        }
      ],
      "name": "setAdminFees",
      "outputs": [],
      "stateMutability": "nonpayable",
      "type": "function"
    },
    {
      "inputs": [
        {
          "internalType": "uint8",
          "name": "decimals",
          "type": "uint8"
        }
      ],
      "name": "setBaseCurrencyDecimals",
      "outputs": [],
      "stateMutability": "nonpayable",
      "type": "function"
    },
    {
      "inputs": [
        {
          "internalType": "uint8",
          "name": "rate",
          "type": "uint8"
        }
      ],
      "name": "setCoreMemberRewardRate",
      "outputs": [],
      "stateMutability": "nonpayable",
      "type": "function"
    },
    {
      "inputs": [
        {
          "internalType": "address",
          "name": "_address",
          "type": "address"
        }
      ],
      "name": "setCoreMembersContractAddress",
      "outputs": [],
      "stateMutability": "nonpayable",
      "type": "function"
    },
    {
      "inputs": [
        {
          "internalType": "uint8",
          "name": "rate",
          "type": "uint8"
        }
      ],
      "name": "setGlobalRewardRate",
      "outputs": [],
      "stateMutability": "nonpayable",
      "type": "function"
    },
    {
      "inputs": [
        {
          "internalType": "uint8",
          "name": "rate",
          "type": "uint8"
        }
      ],
      "name": "setIbpRewardRate",
      "outputs": [],
      "stateMutability": "nonpayable",
      "type": "function"
    },
    {
      "inputs": [
        {
          "internalType": "bool",
          "name": "value",
          "type": "bool"
        }
      ],
      "name": "setIsPayCoreMembersRewards",
      "outputs": [],
      "stateMutability": "nonpayable",
      "type": "function"
    },
    {
      "inputs": [
        {
          "internalType": "bool",
          "name": "value",
          "type": "bool"
        }
      ],
      "name": "setIsPayGlobalRewards",
      "outputs": [],
      "stateMutability": "nonpayable",
      "type": "function"
    },
    {
      "inputs": [
        {
          "internalType": "bool",
          "name": "value",
          "type": "bool"
        }
      ],
      "name": "setIsPayIbpRewards",
      "outputs": [],
      "stateMutability": "nonpayable",
      "type": "function"
    },
    {
      "inputs": [
        {
          "internalType": "bool",
          "name": "value",
          "type": "bool"
        }
      ],
      "name": "setIsPayReferralRewards",
      "outputs": [],
      "stateMutability": "nonpayable",
      "type": "function"
    },
    {
      "inputs": [
        {
          "internalType": "bool",
          "name": "isPay",
          "type": "bool"
        }
      ],
      "name": "setIsPayRewardToken",
      "outputs": [],
      "stateMutability": "nonpayable",
      "type": "function"
    },
    {
      "inputs": [
        {
          "internalType": "bool",
          "name": "value",
          "type": "bool"
        }
      ],
      "name": "setIsPayWeeklyRewards",
      "outputs": [],
      "stateMutability": "nonpayable",
      "type": "function"
    },
    {
      "inputs": [
        {
          "internalType": "uint16",
          "name": "decimals",
          "type": "uint16"
        }
      ],
      "name": "setLevelDecimals",
      "outputs": [],
      "stateMutability": "nonpayable",
      "type": "function"
    },
    {
      "inputs": [
        {
          "internalType": "uint16[]",
          "name": "rates",
          "type": "uint16[]"
        }
      ],
      "name": "setLevelRates",
      "outputs": [],
      "stateMutability": "nonpayable",
      "type": "function"
    },
    {
      "inputs": [
        {
          "internalType": "uint8[]",
          "name": "planId",
          "type": "uint8[]"
        },
        {
          "internalType": "string[]",
          "name": "name",
          "type": "string[]"
        },
        {
          "internalType": "uint256[]",
          "name": "valueInDecimals",
          "type": "uint256[]"
        },
        {
          "internalType": "uint256[]",
          "name": "maxLimitMultiplier",
          "type": "uint256[]"
        }
      ],
      "name": "setPlans",
      "outputs": [],
      "stateMutability": "nonpayable",
      "type": "function"
    },
    {
      "inputs": [
        {
          "internalType": "address",
          "name": "_contractAddress",
          "type": "address"
        }
      ],
      "name": "setPresaleContract",
      "outputs": [],
      "stateMutability": "nonpayable",
      "type": "function"
    },
    {
      "inputs": [
        {
          "internalType": "address",
          "name": "_contractAddress",
          "type": "address"
        }
      ],
      "name": "setReferralContract",
      "outputs": [],
      "stateMutability": "nonpayable",
      "type": "function"
    },
    {
      "inputs": [
        {
          "internalType": "address",
          "name": "tokenContract",
          "type": "address"
        }
      ],
      "name": "setRewardTokenContract",
      "outputs": [],
      "stateMutability": "nonpayable",
      "type": "function"
    },
    {
      "inputs": [
        {
          "internalType": "uint8",
          "name": "_rewardRatePer",
          "type": "uint8"
        }
      ],
      "name": "setRewardTokenRate",
      "outputs": [],
      "stateMutability": "nonpayable",
      "type": "function"
    },
    {
      "inputs": [
        {
          "internalType": "address",
          "name": "_contractAddress",
          "type": "address"
        }
      ],
      "name": "setStakingContract",
      "outputs": [],
      "stateMutability": "nonpayable",
      "type": "function"
    },
    {
      "inputs": [
        {
          "internalType": "address",
          "name": "_routerV2Address",
          "type": "address"
        }
      ],
      "name": "setUniSwapRouterV2Address",
      "outputs": [],
      "stateMutability": "nonpayable",
      "type": "function"
    },
    {
      "inputs": [
        {
          "internalType": "uint8",
          "name": "rate",
          "type": "uint8"
        }
      ],
      "name": "setValueBufferRate",
      "outputs": [],
      "stateMutability": "nonpayable",
      "type": "function"
    },
    {
      "inputs": [
        {
          "internalType": "uint8",
          "name": "rate",
          "type": "uint8"
        }
      ],
      "name": "setWeeklyRewardRate",
      "outputs": [],
      "stateMutability": "nonpayable",
      "type": "function"
    },
    {
      "inputs": [
        {
          "internalType": "uint256",
          "name": "",
          "type": "uint256"
        }
      ],
      "name": "supportedTokensList",
      "outputs": [
        {
          "internalType": "address",
          "name": "",
          "type": "address"
        }
      ],
      "stateMutability": "view",
      "type": "function"
    },
    {
      "inputs": [
        {
          "internalType": "address",
          "name": "newOwner",
          "type": "address"
        }
      ],
      "name": "transferOwnership",
      "outputs": [],
      "stateMutability": "nonpayable",
      "type": "function"
    },
    {
      "inputs": [],
      "name": "unpause",
      "outputs": [],
      "stateMutability": "nonpayable",
      "type": "function"
    },
    {
      "inputs": [
        {
          "internalType": "address",
          "name": "newImplementation",
          "type": "address"
        }
      ],
      "name": "upgradeTo",
      "outputs": [],
      "stateMutability": "nonpayable",
      "type": "function"
    },
    {
      "inputs": [
        {
          "internalType": "address",
          "name": "newImplementation",
          "type": "address"
        },
        {
          "internalType": "bytes",
          "name": "data",
          "type": "bytes"
        }
      ],
      "name": "upgradeToAndCall",
      "outputs": [],
      "stateMutability": "payable",
      "type": "function"
    }
  ],
  "bytecode": "0x60a06040523060805234801561001457600080fd5b506080516133d161004c600039600081816113200152818161136901528181611466015281816114a6015261153501526133d16000f3fe6080604052600436106104045760003560e01c8063880c0ec311610213578063b2e6b91211610123578063e371c5c5116100ab578063eb758bc71161007a578063eb758bc714610c7e578063f1012b4514610c9e578063f2a9012114610cbc578063f2fde38b14610cdc578063ffc43f8f14610cfc57600080fd5b8063e371c5c514610bec578063e701671714610c0c578063e74af32e14610c2e578063e7cca9c714610c5b57600080fd5b8063bcb03b57116100f2578063bcb03b5714610b50578063c391d63614610b70578063d54fcd9314610b8e578063e091099c14610bae578063e179719a14610bcd57600080fd5b8063b2e6b91214610ad0578063b644356214610aef578063b7a2662014610b0f578063b9cd1a5014610b2f57600080fd5b80639f6d8870116101a6578063a646e84511610175578063a646e84514610a3b578063a9bbd11414610a5b578063ac40e30914610a7b578063acc9186514610a9b578063af2d4d0914610ab057600080fd5b80639f6d8870146109bc578063a43ae408146109db578063a46868f0146109fb578063a61a4ff314610a1b57600080fd5b8063918a54db116101e2578063918a54db1461093a57806393cee9c91461095c57806394debf481461097c5780639dd373b91461099c57600080fd5b8063880c0ec3146108be5780638da5cb5b146108de5780638e68dce4146108fc578063916452ab1461091b57600080fd5b80633f4ba83a116103195780635d9bed63116102a15780636cf3c676116102705780636cf3c6761461081b578063715018a61461083b57806375151b63146108505780638129fc1c146108945780638456cb59146108a957600080fd5b80635d9bed631461079d5780635f3ad6e2146107bd57806363c91877146107dc57806365eb204d146107fc57600080fd5b806352d1902d116102e857806352d1902d146107035780635397b86d1461072657806357b88805146107455780635880360a146107655780635c975abb1461078557600080fd5b80633f4ba83a1461069c5780633fae6a11146106b15780634ccebd50146106d05780634f1ef286146106f057600080fd5b806323442c601161039c5780632f8c7e721161036b5780632f8c7e72146105d65780633238c16f146106105780633659cfe61461063d57806339e0dcfa1461065d5780633ee1f1ba1461067d57600080fd5b806323442c601461053e57806324d7806c1461055d5780632b70c02c146105975780632c1e816d146105b657600080fd5b80630efc12b1116103d85780630efc12b11461048b57806316dd07e0146104c15780631b40f309146104ec5780631f1eeec81461051f57600080fd5b8062b2929014610409578063051ff2b91461042b57806306ad5a471461044b57806308fcfbbe1461046b575b600080fd5b34801561041557600080fd5b50610429610424366004612951565b610d1e565b005b34801561043757600080fd5b5061042961044636600461297c565b610efb565b34801561045757600080fd5b50610429610466366004612951565b61118c565b34801561047757600080fd5b50610429610486366004612951565b6111b7565b34801561049757600080fd5b506104ab6104a63660046129ce565b6111e2565b6040516104b89190612a3b565b60405180910390f35b3480156104cd57600080fd5b5060fc54600160681b900460ff165b60405190151581526020016104b8565b3480156104f857600080fd5b5061010b546001600160a01b03165b6040516001600160a01b0390911681526020016104b8565b34801561052b57600080fd5b5060fc54600160601b900460ff166104dc565b34801561054a57600080fd5b50610100546001600160a01b0316610507565b34801561056957600080fd5b506104dc610578366004612951565b6001600160a01b0316600090815261010a602052604090205460ff1690565b3480156105a357600080fd5b5060fc54600160501b900460ff166104dc565b3480156105c257600080fd5b506104296105d1366004612951565b6112eb565b3480156105e257600080fd5b506104dc6105f1366004612951565b6001600160a01b03166000908152610108602052604090205460ff1690565b34801561061c57600080fd5b5060fc54600160401b900460ff165b60405160ff90911681526020016104b8565b34801561064957600080fd5b50610429610658366004612951565b611316565b34801561066957600080fd5b50610429610678366004612a84565b6113fe565b34801561068957600080fd5b50610109546001600160a01b0316610507565b3480156106a857600080fd5b50610429611424565b3480156106bd57600080fd5b5060fc54600160581b900460ff166104dc565b3480156106dc57600080fd5b506104296106eb366004612a84565b611436565b6104296106fe366004612b4c565b61145c565b34801561070f57600080fd5b50610718611528565b6040519081526020016104b8565b34801561073257600080fd5b5060fc54600160381b900460ff1661062b565b34801561075157600080fd5b50610429610760366004612bfa565b6115db565b34801561077157600080fd5b50610429610780366004612951565b6116cd565b34801561079157600080fd5b5060335460ff166104dc565b3480156107a957600080fd5b506104296107b8366004612a84565b6116f8565b3480156107c957600080fd5b5060fc546301000000900460ff1661062b565b3480156107e857600080fd5b506105076107f7366004612c3c565b61171e565b34801561080857600080fd5b50610103546001600160a01b0316610507565b34801561082757600080fd5b506104296108363660046129ce565b611748565b34801561084757600080fd5b50610429611775565b34801561085c57600080fd5b506104dc61086b366004612951565b6001600160a01b031660009081526101076020526040902060030154600160b01b900460ff1690565b3480156108a057600080fd5b50610429611787565b3480156108b557600080fd5b50610429611992565b3480156108ca57600080fd5b506104296108d93660046129ce565b6119a2565b3480156108ea57600080fd5b506065546001600160a01b0316610507565b34801561090857600080fd5b50610101546001600160a01b0316610507565b34801561092757600080fd5b50610104546001600160a01b0316610507565b34801561094657600080fd5b5061094f6119d0565b6040516104b89190612c55565b34801561096857600080fd5b50610429610977366004612a84565b611a50565b34801561098857600080fd5b506104296109973660046129ce565b611a76565b3480156109a857600080fd5b506104296109b7366004612951565b611a9e565b3480156109c857600080fd5b5060fc54600160701b900460ff166104dc565b3480156109e757600080fd5b506104296109f6366004612caf565b611ac9565b348015610a0757600080fd5b5060fc54640100000000900460ff1661062b565b348015610a2757600080fd5b50610429610a363660046129ce565b611ae9565b348015610a4757600080fd5b50610429610a563660046129ce565b611b0f565b348015610a6757600080fd5b50610429610a76366004612951565b611b3b565b348015610a8757600080fd5b50610429610a963660046129ce565b611b65565b348015610aa757600080fd5b5061062b611b91565b348015610abc57600080fd5b50610429610acb3660046129ce565b611be1565b348015610adc57600080fd5b50610105546001600160a01b0316610507565b348015610afb57600080fd5b50610429610b0a366004612a84565b611c0b565b348015610b1b57600080fd5b50610429610b2a3660046129ce565b611c31565b348015610b3b57600080fd5b5060fc5465010000000000900460ff1661062b565b348015610b5c57600080fd5b50610429610b6b366004612cee565b611c5f565b348015610b7c57600080fd5b5060fc5462010000900460ff1661062b565b348015610b9a57600080fd5b50610429610ba9366004612e38565b611e3b565b348015610bba57600080fd5b5060fc54600160481b900460ff1661062b565b348015610bd957600080fd5b5060fc54600160781b900460ff166104dc565b348015610bf857600080fd5b50610429610c07366004612951565b611e56565b348015610c1857600080fd5b5060fc546601000000000000900460ff1661062b565b348015610c3a57600080fd5b50610c4e610c49366004612951565b611f1e565b6040516104b89190612ed0565b348015610c6757600080fd5b5060fc5460405161ffff90911681526020016104b8565b348015610c8a57600080fd5b50610429610c99366004612a84565b6120f2565b348015610caa57600080fd5b5060ff546001600160a01b0316610507565b348015610cc857600080fd5b50610429610cd7366004612951565b612118565b348015610ce857600080fd5b50610429610cf7366004612951565b612143565b348015610d0857600080fd5b50610d116121b9565b6040516104b89190612f68565b610d2661221a565b6001600160a01b0381166000908152610108602052604090205460ff168015610ef7576001600160a01b038216600090815261010860209081526040808320805460ff1916905560fe80548251818502810185019093528083529192909190830182828015610dbe57602002820191906000526020600020905b81546001600160a01b03168152600190910190602001808311610da0575b5050505050905060005b8151811015610ef457836001600160a01b0316828281518110610ded57610ded612fa9565b60200260200101516001600160a01b031603610ee2578160018351610e129190612fd5565b81518110610e2257610e22612fa9565b602002602001015160fe8281548110610e3d57610e3d612fa9565b9060005260206000200160006101000a8154816001600160a01b0302191690836001600160a01b0316021790555060fe805480610e7c57610e7c612fe8565b6000828152602090819020600019908301810180546001600160a01b03191690559091019091556040516001600160a01b03861681527f337eeb0192a31dfc3c61aff0be47a571a126a9e3f1caaee4af8c29babbb477e9910160405180910390a1610ef4565b80610eec81612ffe565b915050610dc8565b50505b5050565b610f0361221a565b6040518060e00160405280846001600160a01b03168152602001846001600160a01b03166306fdde036040518163ffffffff1660e01b8152600401600060405180830381865afa158015610f5b573d6000803e3d6000fd5b505050506040513d6000823e601f3d908101601f19168201604052610f839190810190613017565b8152602001846001600160a01b03166395d89b416040518163ffffffff1660e01b8152600401600060405180830381865afa158015610fc6573d6000803e3d6000fd5b505050506040513d6000823e601f3d908101601f19168201604052610fee9190810190613017565b8152602001846001600160a01b031663313ce5676040518163ffffffff1660e01b8152600401602060405180830381865afa158015611031573d6000803e3d6000fd5b505050506040513d601f19601f82011682018060405250810190611055919061308e565b60ff1681528315156020808301919091526001600160a01b03848116604080850191909152600160609094018490528782166000908152610107845220845181546001600160a01b03191692169190911781559083015190918201906110bb9082613133565b50604082015160028201906110d09082613133565b50606082015160039091018054608084015160a085015160c0909501511515600160b01b0260ff60b01b196001600160a01b0396871662010000021662010000600160b81b03199215156101000261ffff1990941660ff9096169590951792909217169290921791909117905560fd80546001810182556000919091527f9346ac6dd7de6b96975fec380d4d994c4c12e6a8897544f22915316cc6cca280018054949091166001600160a01b0319909416939093179092555050565b61119461221a565b61010080546001600160a01b0319166001600160a01b0392909216919091179055565b6111bf61221a565b61010380546001600160a01b0319166001600160a01b0392909216919091179055565b6112106040518060800160405280600060ff1681526020016060815260200160008152602001600081525090565b60ff80831660009081526101066020908152604091829020825160808101909352805490931682526001830180549293929184019161124e906130ab565b80601f016020809104026020016040519081016040528092919081815260200182805461127a906130ab565b80156112c75780601f1061129c576101008083540402835291602001916112c7565b820191906000526020600020905b8154815290600101906020018083116112aa57829003601f168201915b50505050508152602001600282015481526020016003820154815250509050919050565b6112f361221a565b61010580546001600160a01b0319166001600160a01b0392909216919091179055565b6001600160a01b037f00000000000000000000000000000000000000000000000000000000000000001630036113675760405162461bcd60e51b815260040161135e906131f3565b60405180910390fd5b7f00000000000000000000000000000000000000000000000000000000000000006001600160a01b03166113b0600080516020613355833981519152546001600160a01b031690565b6001600160a01b0316146113d65760405162461bcd60e51b815260040161135e9061323f565b6113df81612274565b604080516000808252602082019092526113fb9183919061227c565b50565b61140661221a565b60fc8054911515600160681b0260ff60681b19909216919091179055565b61142c61221a565b6114346123e7565b565b61143e61221a565b60fc8054911515600160781b0260ff60781b19909216919091179055565b6001600160a01b037f00000000000000000000000000000000000000000000000000000000000000001630036114a45760405162461bcd60e51b815260040161135e906131f3565b7f00000000000000000000000000000000000000000000000000000000000000006001600160a01b03166114ed600080516020613355833981519152546001600160a01b031690565b6001600160a01b0316146115135760405162461bcd60e51b815260040161135e9061323f565b61151c82612274565b610ef78282600161227c565b6000306001600160a01b037f000000000000000000000000000000000000000000000000000000000000000016146115c85760405162461bcd60e51b815260206004820152603860248201527f555550535570677261646561626c653a206d757374206e6f742062652063616c60448201527f6c6564207468726f7567682064656c656761746563616c6c0000000000000000606482015260840161135e565b5060008051602061335583398151915290565b6115e361221a565b60005b60ff81168211156116c8576000610107600085858560ff1681811061160d5761160d612fa9565b90506020020160208101906116229190612951565b6001600160a01b0316815260208101919091526040016000206003018054911515600160b01b0260ff60b01b1990921691909117905560fd838360ff841681811061166f5761166f612fa9565b90506020020160208101906116849190612951565b81546001810183556000928352602090922090910180546001600160a01b0319166001600160a01b03909216919091179055806116c08161328b565b9150506115e6565b505050565b6116d561221a565b61010980546001600160a01b0319166001600160a01b0392909216919091179055565b61170061221a565b60fc8054911515600160701b0260ff60701b19909216919091179055565b60fd818154811061172e57600080fd5b6000918252602090912001546001600160a01b0316905081565b61175061221a565b60fc805460ff909216600160401b0268ff000000000000000019909216919091179055565b61177d61221a565b6114346000612439565b600054610100900460ff16158080156117a75750600054600160ff909116105b806117c15750303b1580156117c1575060005460ff166001145b6118245760405162461bcd60e51b815260206004820152602e60248201527f496e697469616c697a61626c653a20636f6e747261637420697320616c72656160448201526d191e481a5b9a5d1a585b1a5e995960921b606482015260840161135e565b6000805460ff191660011790558015611847576000805461ff0019166101001790555b604080516101408101825261138881526101f460208201526101909181019190915261012c606082015260c86080820152606460a0820181905260c0820152607d60e0820181905261010082015260966101208201526118ab9060fb90600a612880565b5060fc805461010380546001600160a01b0319908116737f9fd63932babc508fad2f324eb534d09cfe86f0179091556f010101010101030302050a0a0a0027106fffffffffffffffffffffffffff00ffff19909216919091179091556101048054821673efb61c43c70b60563c1a2a835663c63ecc93f6ba17905561010580549091163317905561193a61248b565b6119426124ba565b61194a6124e9565b80156113fb576000805461ff0019169055604051600181527f7f26b83ff96e1f2b6a682f133852f6798a09c465da95921460cefb38474024989060200160405180910390a150565b61199a61221a565b611434612510565b6119aa61221a565b60fc805460ff90921666010000000000000266ff00000000000019909216919091179055565b606060fb805480602002602001604051908101604052809291908181526020018280548015611a4657602002820191906000526020600020906000905b82829054906101000a900461ffff1661ffff1681526020019060020190602082600101049283019260010382029150808411611a0d5790505b5050505050905090565b611a5861221a565b60fc8054911515600160601b0260ff60601b19909216919091179055565b611a7e61221a565b60fc805460ff90921663010000000263ff00000019909216919091179055565b611aa661221a565b61010180546001600160a01b0319166001600160a01b0392909216919091179055565b611ad161221a565b60fc805461ffff191661ffff92909216919091179055565b611af161221a565b60fc805460ff909216620100000262ff000019909216919091179055565b611b1761221a565b60fc805460ff909216600160381b0267ff0000000000000019909216919091179055565b611b4361221a565b60ff80546001600160a01b0319166001600160a01b0392909216919091179055565b611b6d61221a565b60fc805460ff909216650100000000000265ff000000000019909216919091179055565b6000805b60148160ff161015611bdd5760ff81166000908152610106602052604090206002015415611bcb5781611bc78161328b565b9250505b80611bd58161328b565b915050611b95565b5090565b611be961221a565b60fc805460ff9092166401000000000264ff0000000019909216919091179055565b611c1361221a565b60fc8054911515600160581b0260ff60581b19909216919091179055565b611c3961221a565b60fc805460ff909216600160481b0269ff00000000000000000019909216919091179055565b611c6761221a565b60005b86811015611e3157878782818110611c8457611c84612fa9565b9050602002016020810190611c9991906129ce565b61010660008a8a85818110611cb057611cb0612fa9565b9050602002016020810190611cc591906129ce565b60ff90811682526020820192909252604001600020805460ff1916929091169190911790558551869082908110611cfe57611cfe612fa9565b602002602001015161010660008a8a85818110611d1d57611d1d612fa9565b9050602002016020810190611d3291906129ce565b60ff168152602081019190915260400160002060010190611d539082613133565b50848482818110611d6657611d66612fa9565b90506020020135670de0b6b3a7640000611d8091906132aa565b61010660008a8a85818110611d9757611d97612fa9565b9050602002016020810190611dac91906129ce565b60ff168152602081019190915260400160002060020155828282818110611dd557611dd5612fa9565b9050602002013561010660008a8a85818110611df357611df3612fa9565b9050602002016020810190611e0891906129ce565b60ff16815260208101919091526040016000206003015580611e2981612ffe565b915050611c6a565b5050505050505050565b611e4361221a565b8051610ef79060fb906020840190612880565b611e5e61221a565b6001600160a01b0381166000908152610108602052604090205460ff1680610ef7576001600160a01b038216600081815261010860209081526040808320805460ff1916600190811790915560fe805491820181559093527f54075df80ec1ae6ac9100e1fd0ebf3246c17f5c933137af392011f4c5f61513a90920180546001600160a01b0319168417905590519182527fe30f8cb0d8cbc7c0e95d5aaa3107ce401738ce4bc98a05dd081bb2a77a9ca749910160405180910390a15050565b6040805160e080820183526000808352606060208085018290528486018290529084018290526080840182905260a0840182905260c084018290526001600160a01b0386811683526101078252918590208551938401909552845490911682526001840180549394929391840191611f95906130ab565b80601f0160208091040260200160405190810160405280929190818152602001828054611fc1906130ab565b801561200e5780601f10611fe35761010080835404028352916020019161200e565b820191906000526020600020905b815481529060010190602001808311611ff157829003601f168201915b50505050508152602001600282018054612027906130ab565b80601f0160208091040260200160405190810160405280929190818152602001828054612053906130ab565b80156120a05780601f10612075576101008083540402835291602001916120a0565b820191906000526020600020905b81548152906001019060200180831161208357829003601f168201915b50505091835250506003919091015460ff808216602084015261010082048116151560408401526001600160a01b03620100008304166060840152600160b01b90910416151560809091015292915050565b6120fa61221a565b60fc8054911515600160501b0260ff60501b19909216919091179055565b61212061221a565b61010480546001600160a01b0319166001600160a01b0392909216919091179055565b61214b61221a565b6001600160a01b0381166121b05760405162461bcd60e51b815260206004820152602660248201527f4f776e61626c653a206e6577206f776e657220697320746865207a65726f206160448201526564647265737360d01b606482015260840161135e565b6113fb81612439565b606060fe805480602002602001604051908101604052809291908181526020018280548015611a4657602002820191906000526020600020905b81546001600160a01b031681526001909101906020018083116121f3575050505050905090565b6065546001600160a01b031633146114345760405162461bcd60e51b815260206004820181905260248201527f4f776e61626c653a2063616c6c6572206973206e6f7420746865206f776e6572604482015260640161135e565b6113fb61221a565b7f4910fdfa16fed3260ed0e7147f7cc6da11a60208b5b9406d12a635614ffd91435460ff16156122af576116c88361254d565b826001600160a01b03166352d1902d6040518163ffffffff1660e01b8152600401602060405180830381865afa925050508015612309575060408051601f3d908101601f19168201909252612306918101906132c1565b60015b61236c5760405162461bcd60e51b815260206004820152602e60248201527f45524331393637557067726164653a206e657720696d706c656d656e7461746960448201526d6f6e206973206e6f74205555505360901b606482015260840161135e565b60008051602061335583398151915281146123db5760405162461bcd60e51b815260206004820152602960248201527f45524331393637557067726164653a20756e737570706f727465642070726f786044820152681a58589b195555525160ba1b606482015260840161135e565b506116c88383836125e9565b6123ef61260e565b6033805460ff191690557f5db9ee0a495bf2e6ff9c91a7834c1ba4fdd244a5e8aa4e537bd38aeae4b073aa335b6040516001600160a01b03909116815260200160405180910390a1565b606580546001600160a01b038381166001600160a01b0319831681179093556040519116919082907f8be0079c531659141344cd1fd0a4f28419497f9722a3daafe3b4186f6b6457e090600090a35050565b600054610100900460ff166124b25760405162461bcd60e51b815260040161135e906132da565b611434612657565b600054610100900460ff166124e15760405162461bcd60e51b815260040161135e906132da565b61143461268a565b600054610100900460ff166114345760405162461bcd60e51b815260040161135e906132da565b6125186126ba565b6033805460ff191660011790557f62e78cea01bee320cd4e420270b5ea74000d11b0c9f74754ebdbfc544b05a25861241c3390565b6001600160a01b0381163b6125ba5760405162461bcd60e51b815260206004820152602d60248201527f455243313936373a206e657720696d706c656d656e746174696f6e206973206e60448201526c1bdd08184818dbdb9d1c9858dd609a1b606482015260840161135e565b60008051602061335583398151915280546001600160a01b0319166001600160a01b0392909216919091179055565b6125f283612700565b6000825111806125ff5750805b156116c857610ef48383612740565b60335460ff166114345760405162461bcd60e51b815260206004820152601460248201527314185d5cd8589b194e881b9bdd081c185d5cd95960621b604482015260640161135e565b600054610100900460ff1661267e5760405162461bcd60e51b815260040161135e906132da565b6033805460ff19169055565b600054610100900460ff166126b15760405162461bcd60e51b815260040161135e906132da565b61143433612439565b60335460ff16156114345760405162461bcd60e51b815260206004820152601060248201526f14185d5cd8589b194e881c185d5cd95960821b604482015260640161135e565b6127098161254d565b6040516001600160a01b038216907fbc7cd75a20ee27fd9adebab32041f755214dbc6bffa90cc0225b39da2e5c2d3b90600090a250565b60606001600160a01b0383163b6127a85760405162461bcd60e51b815260206004820152602660248201527f416464726573733a2064656c65676174652063616c6c20746f206e6f6e2d636f6044820152651b9d1c9858dd60d21b606482015260840161135e565b600080846001600160a01b0316846040516127c39190613325565b600060405180830381855af49150503d80600081146127fe576040519150601f19603f3d011682016040523d82523d6000602084013e612803565b606091505b509150915061282b828260405180606001604052806027815260200161337560279139612836565b925050505b92915050565b6060831561284557508161284f565b61284f8383612856565b9392505050565b8151156128665781518083602001fd5b8060405162461bcd60e51b815260040161135e9190613341565b82805482825590600052602060002090600f016010900481019282156129195791602002820160005b838211156128e957835183826101000a81548161ffff021916908361ffff16021790555092602001926002016020816001010492830192600103026128a9565b80156129175782816101000a81549061ffff02191690556002016020816001010492830192600103026128e9565b505b50611bdd9291505b80821115611bdd5760008155600101612921565b80356001600160a01b038116811461294c57600080fd5b919050565b60006020828403121561296357600080fd5b61284f82612935565b8035801515811461294c57600080fd5b60008060006060848603121561299157600080fd5b61299a84612935565b92506129a86020850161296c565b91506129b660408501612935565b90509250925092565b60ff811681146113fb57600080fd5b6000602082840312156129e057600080fd5b813561284f816129bf565b60005b83811015612a065781810151838201526020016129ee565b50506000910152565b60008151808452612a278160208601602086016129eb565b601f01601f19169290920160200192915050565b6020815260ff82511660208201526000602083015160806040840152612a6460a0840182612a0f565b905060408401516060840152606084015160808401528091505092915050565b600060208284031215612a9657600080fd5b61284f8261296c565b634e487b7160e01b600052604160045260246000fd5b604051601f8201601f1916810167ffffffffffffffff81118282101715612ade57612ade612a9f565b604052919050565b600067ffffffffffffffff821115612b0057612b00612a9f565b50601f01601f191660200190565b6000612b21612b1c84612ae6565b612ab5565b9050828152838383011115612b3557600080fd5b828260208301376000602084830101529392505050565b60008060408385031215612b5f57600080fd5b612b6883612935565b9150602083013567ffffffffffffffff811115612b8457600080fd5b8301601f81018513612b9557600080fd5b612ba485823560208401612b0e565b9150509250929050565b60008083601f840112612bc057600080fd5b50813567ffffffffffffffff811115612bd857600080fd5b6020830191508360208260051b8501011115612bf357600080fd5b9250929050565b60008060208385031215612c0d57600080fd5b823567ffffffffffffffff811115612c2457600080fd5b612c3085828601612bae565b90969095509350505050565b600060208284031215612c4e57600080fd5b5035919050565b6020808252825182820181905260009190848201906040850190845b81811015612c9157835161ffff1683529284019291840191600101612c71565b50909695505050505050565b803561ffff8116811461294c57600080fd5b600060208284031215612cc157600080fd5b61284f82612c9d565b600067ffffffffffffffff821115612ce457612ce4612a9f565b5060051b60200190565b60008060008060008060006080888a031215612d0957600080fd5b67ffffffffffffffff8089351115612d2057600080fd5b612d2d8a8a358b01612bae565b90985096506020890135811015612d4357600080fd5b602089013589018a601f820112612d5957600080fd5b612d66612b1c8235612cca565b81358082526020808301929160051b8401018d811115612d8557600080fd5b602084015b81811015612dd6578581351115612da057600080fd5b8e603f823587010112612db257600080fd5b612dc88f82358701602081013590604001612b0e565b845260209384019301612d8a565b50508098505050508060408a01351115612def57600080fd5b612dff8a60408b01358b01612bae565b90955093506060890135811015612e1557600080fd5b50612e268960608a01358a01612bae565b979a9699509497509295919491925050565b60006020808385031215612e4b57600080fd5b823567ffffffffffffffff811115612e6257600080fd5b8301601f81018513612e7357600080fd5b8035612e81612b1c82612cca565b81815260059190911b82018301908381019087831115612ea057600080fd5b928401925b82841015612ec557612eb684612c9d565b82529284019290840190612ea5565b979650505050505050565b602080825282516001600160a01b03168282015282015160e06040830152600090612eff610100840182612a0f565b90506040840151601f19848303016060850152612f1c8282612a0f565b91505060ff60608501511660808401526080840151151560a084015260a0840151612f5260c08501826001600160a01b03169052565b5060c084015180151560e0850152509392505050565b6020808252825182820181905260009190848201906040850190845b81811015612c915783516001600160a01b031683529284019291840191600101612f84565b634e487b7160e01b600052603260045260246000fd5b634e487b7160e01b600052601160045260246000fd5b8181038181111561283057612830612fbf565b634e487b7160e01b600052603160045260246000fd5b60006001820161301057613010612fbf565b5060010190565b60006020828403121561302957600080fd5b815167ffffffffffffffff81111561304057600080fd5b8201601f8101841361305157600080fd5b805161305f612b1c82612ae6565b81815285602083850101111561307457600080fd5b6130858260208301602086016129eb565b95945050505050565b6000602082840312156130a057600080fd5b815161284f816129bf565b600181811c908216806130bf57607f821691505b6020821081036130df57634e487b7160e01b600052602260045260246000fd5b50919050565b601f8211156116c857600081815260208120601f850160051c8101602086101561310c5750805b601f850160051c820191505b8181101561312b57828155600101613118565b505050505050565b815167ffffffffffffffff81111561314d5761314d612a9f565b6131618161315b84546130ab565b846130e5565b602080601f831160018114613196576000841561317e5750858301515b600019600386901b1c1916600185901b17855561312b565b600085815260208120601f198616915b828110156131c5578886015182559484019460019091019084016131a6565b50858210156131e35787850151600019600388901b60f8161c191681555b5050505050600190811b01905550565b6020808252602c908201527f46756e6374696f6e206d7573742062652063616c6c6564207468726f7567682060408201526b19195b1959d85d1958d85b1b60a21b606082015260800190565b6020808252602c908201527f46756e6374696f6e206d7573742062652063616c6c6564207468726f7567682060408201526b6163746976652070726f787960a01b606082015260800190565b600060ff821660ff81036132a1576132a1612fbf565b60010192915050565b808202811582820484141761283057612830612fbf565b6000602082840312156132d357600080fd5b5051919050565b6020808252602b908201527f496e697469616c697a61626c653a20636f6e7472616374206973206e6f74206960408201526a6e697469616c697a696e6760a81b606082015260800190565b600082516133378184602087016129eb565b9190910192915050565b60208152600061284f6020830184612a0f56fe360894a13ba1a3210667c828492db98dca3e2076cc3735a920a3ca505d382bbc416464726573733a206c6f772d6c6576656c2064656c65676174652063616c6c206661696c6564a26469706673582212209518acde4a64314cd5734b9949501040b03b1f92ad5558bf9943b3006df1b1c864736f6c63430008120033",
  "linkReferences": {},
  "deployedLinkReferences": {}
}