{
  "_format": "hh-sol-artifact-1",
  "contractName": "ERC20TokenDeployerWithCreate2",
  "sourceName": "contracts/ERC20TokenDeployerWithCreate2.sol",
  "abi": [
    {
      "anonymous": false,
      "inputs": [
        {
          "indexed": false,
          "internalType": "address",
          "name": "contractAddress",
          "type": "address"
        },
        {
          "indexed": false,
          "internalType": "uint256",
          "name": "saltUsed",
          "type": "uint256"
        }
      ],
      "name": "Deployed",
      "type": "event"
    },
    {
      "inputs": [
        {
          "internalType": "bytes",
          "name": "bytecode",
          "type": "bytes"
        },
        {
          "internalType": "uint256",
          "name": "_salt",
          "type": "uint256"
        },
        {
          "internalType": "address",
          "name": "_transferTokenTo",
          "type": "address"
        },
        {
          "internalType": "bool",
          "name": "_ownershipRenounce",
          "type": "bool"
        }
      ],
      "name": "deploy",
      "outputs": [],
      "stateMutability": "payable",
      "type": "function"
    },
    {
      "inputs": [
        {
          "internalType": "bytes",
          "name": "bytecode",
          "type": "bytes"
        },
        {
          "internalType": "uint256",
          "name": "_salt",
          "type": "uint256"
        }
      ],
      "name": "getAddress",
      "outputs": [
        {
          "internalType": "address",
          "name": "",
          "type": "address"
        }
      ],
      "stateMutability": "view",
      "type": "function"
    }
  ],
  "bytecode": "0x608060405234801561001057600080fd5b506104ef806100206000396000f3fe6080604052600436106100295760003560e01c8063652002f81461002e57806394ca2cb514610043575b600080fd5b61004161003c3660046103de565b6100d6565b005b34801561004f57600080fd5b506100ba61005e36600461045b565b8151602092830120604080516001600160f81b0319818601523060601b6bffffffffffffffffffffffff191660218201526035810193909352605580840192909252805180840390920182526075909201909152805191012090565b6040516001600160a01b03909116815260200160405180910390f35b60008385516020870134f590506001600160a01b0381166101355760405162461bcd60e51b8152602060048201526015602482015274546f6b656e2061646472657373206973207a65726f60581b604482015260640160405180910390fd5b816101985760405163f2fde38b60e01b81523360048201526001600160a01b0382169063f2fde38b90602401600060405180830381600087803b15801561017b57600080fd5b505af115801561018f573d6000803e3d6000fd5b505050506101ec565b806001600160a01b031663715018a66040518163ffffffff1660e01b8152600401600060405180830381600087803b1580156101d357600080fd5b505af11580156101e7573d6000803e3d6000fd5b505050505b6040516370a0823160e01b81523060048201526000906001600160a01b038316906370a0823190602401602060405180830381865afa158015610233573d6000803e3d6000fd5b505050506040513d601f19601f8201168201806040525081019061025791906104a0565b60405163a9059cbb60e01b81526001600160a01b038681166004830152602482018390529192509083169063a9059cbb90604401600060405180830381600087803b1580156102a557600080fd5b505af11580156102b9573d6000803e3d6000fd5b505050505047156102f25760405133904780156108fc02916000818181858888f193505050501580156102f0573d6000803e3d6000fd5b505b604080516001600160a01b0383168152602081018690527fb03c53b28e78a88e31607a27e1fa48234dce28d5d9d9ec7b295aeb02e674a1e1910160405180910390a15050505050565b634e487b7160e01b600052604160045260246000fd5b600082601f83011261036257600080fd5b813567ffffffffffffffff8082111561037d5761037d61033b565b604051601f8301601f19908116603f011681019082821181831017156103a5576103a561033b565b816040528381528660208588010111156103be57600080fd5b836020870160208301376000602085830101528094505050505092915050565b600080600080608085870312156103f457600080fd5b843567ffffffffffffffff81111561040b57600080fd5b61041787828801610351565b9450506020850135925060408501356001600160a01b038116811461043b57600080fd5b91506060850135801515811461045057600080fd5b939692955090935050565b6000806040838503121561046e57600080fd5b823567ffffffffffffffff81111561048557600080fd5b61049185828601610351565b95602094909401359450505050565b6000602082840312156104b257600080fd5b505191905056fea2646970667358221220473aad846ed9561e193488363b005d2dbd11e46f402057350c0f3b4784be049964736f6c63430008120033",
  "linkReferences": {},
  "deployedLinkReferences": {}
}