{
  "_format": "hh-sol-artifact-1",
  "contractName": "ReferralV1Upgradeable",
  "sourceName": "contracts/ReferralV1Upgradeable.sol",
  "abi": [
    {
      "anonymous": false,
      "inputs": [
        {
          "indexed": false,
          "internalType": "address",
          "name": "previousAdmin",
          "type": "address"
        },
        {
          "indexed": false,
          "internalType": "address",
          "name": "newAdmin",
          "type": "address"
        }
      ],
      "name": "AdminChanged",
      "type": "event"
    },
    {
      "anonymous": false,
      "inputs": [
        {
          "indexed": true,
          "internalType": "address",
          "name": "beacon",
          "type": "address"
        }
      ],
      "name": "BeaconUpgraded",
      "type": "event"
    },
    {
      "anonymous": false,
      "inputs": [
        {
          "indexed": false,
          "internalType": "address",
          "name": "globalAddress",
          "type": "address"
        },
        {
          "indexed": false,
          "internalType": "address",
          "name": "userAddress",
          "type": "address"
        },
        {
          "indexed": false,
          "internalType": "uint256",
          "name": "registrationValue",
          "type": "uint256"
        },
        {
          "indexed": false,
          "internalType": "uint256",
          "name": "rewardValue",
          "type": "uint256"
        },
        {
          "indexed": false,
          "internalType": "uint16",
          "name": "rewardRate",
          "type": "uint16"
        },
        {
          "indexed": false,
          "internalType": "uint16",
          "name": "rewardRateDecimals",
          "type": "uint16"
        },
        {
          "indexed": false,
          "internalType": "string",
          "name": "reason",
          "type": "string"
        }
      ],
      "name": "GlobalRewardsNotPaid",
      "type": "event"
    },
    {
      "anonymous": false,
      "inputs": [
        {
          "indexed": false,
          "internalType": "address",
          "name": "globalAddress",
          "type": "address"
        },
        {
          "indexed": false,
          "internalType": "address",
          "name": "userAddress",
          "type": "address"
        },
        {
          "indexed": false,
          "internalType": "uint256",
          "name": "registrationValue",
          "type": "uint256"
        },
        {
          "indexed": false,
          "internalType": "uint256",
          "name": "rewardValue",
          "type": "uint256"
        },
        {
          "indexed": false,
          "internalType": "uint16",
          "name": "rewardRate",
          "type": "uint16"
        },
        {
          "indexed": false,
          "internalType": "uint16",
          "name": "rewardRateDecimals",
          "type": "uint16"
        }
      ],
      "name": "GlobalRewardsPaid",
      "type": "event"
    },
    {
      "anonymous": false,
      "inputs": [
        {
          "indexed": false,
          "internalType": "address",
          "name": "ibpAddress",
          "type": "address"
        },
        {
          "indexed": false,
          "internalType": "address",
          "name": "userAddress",
          "type": "address"
        }
      ],
      "name": "IBPAdded",
      "type": "event"
    },
    {
      "anonymous": false,
      "inputs": [
        {
          "indexed": false,
          "internalType": "address",
          "name": "ibpAddress",
          "type": "address"
        },
        {
          "indexed": false,
          "internalType": "address",
          "name": "userAddress",
          "type": "address"
        },
        {
          "indexed": false,
          "internalType": "string",
          "name": "reason",
          "type": "string"
        }
      ],
      "name": "IBPNotAdded",
      "type": "event"
    },
    {
      "anonymous": false,
      "inputs": [
        {
          "indexed": false,
          "internalType": "address",
          "name": "ibpAddress",
          "type": "address"
        },
        {
          "indexed": false,
          "internalType": "string",
          "name": "reason",
          "type": "string"
        }
      ],
      "name": "IBPRewardsNotPaid",
      "type": "event"
    },
    {
      "anonymous": false,
      "inputs": [
        {
          "indexed": false,
          "internalType": "address",
          "name": "ibpAddress",
          "type": "address"
        },
        {
          "indexed": false,
          "internalType": "address",
          "name": "userAddress",
          "type": "address"
        },
        {
          "indexed": false,
          "internalType": "uint256",
          "name": "businessValue",
          "type": "uint256"
        },
        {
          "indexed": false,
          "internalType": "uint256",
          "name": "rewardValue",
          "type": "uint256"
        },
        {
          "indexed": false,
          "internalType": "uint16",
          "name": "rewardRate",
          "type": "uint16"
        },
        {
          "indexed": false,
          "internalType": "uint16",
          "name": "rewardRateDecimals",
          "type": "uint16"
        }
      ],
      "name": "IBPRewardsPaid",
      "type": "event"
    },
    {
      "anonymous": false,
      "inputs": [
        {
          "indexed": false,
          "internalType": "uint8",
          "name": "version",
          "type": "uint8"
        }
      ],
      "name": "Initialized",
      "type": "event"
    },
    {
      "anonymous": false,
      "inputs": [
        {
          "indexed": false,
          "internalType": "address",
          "name": "userAddress",
          "type": "address"
        },
        {
          "indexed": false,
          "internalType": "string",
          "name": "reason",
          "type": "string"
        }
      ],
      "name": "NoRewardsPaid",
      "type": "event"
    },
    {
      "anonymous": false,
      "inputs": [
        {
          "indexed": true,
          "internalType": "address",
          "name": "previousOwner",
          "type": "address"
        },
        {
          "indexed": true,
          "internalType": "address",
          "name": "newOwner",
          "type": "address"
        }
      ],
      "name": "OwnershipTransferred",
      "type": "event"
    },
    {
      "anonymous": false,
      "inputs": [
        {
          "indexed": false,
          "internalType": "address",
          "name": "account",
          "type": "address"
        }
      ],
      "name": "Paused",
      "type": "event"
    },
    {
      "anonymous": false,
      "inputs": [
        {
          "indexed": false,
          "internalType": "address",
          "name": "referrerAddress",
          "type": "address"
        },
        {
          "indexed": false,
          "internalType": "address",
          "name": "userAddress",
          "type": "address"
        },
        {
          "indexed": false,
          "internalType": "uint256",
          "name": "value",
          "type": "uint256"
        },
        {
          "indexed": false,
          "internalType": "uint256",
          "name": "rewardValue",
          "type": "uint256"
        },
        {
          "indexed": false,
          "internalType": "uint256",
          "name": "rewardRate",
          "type": "uint256"
        },
        {
          "indexed": false,
          "internalType": "uint256",
          "name": "rewardRateDecimals",
          "type": "uint256"
        },
        {
          "indexed": false,
          "internalType": "uint32",
          "name": "level",
          "type": "uint32"
        }
      ],
      "name": "ReferralRewardsPaid",
      "type": "event"
    },
    {
      "anonymous": false,
      "inputs": [
        {
          "indexed": false,
          "internalType": "address",
          "name": "referrerAddress",
          "type": "address"
        },
        {
          "indexed": false,
          "internalType": "address",
          "name": "refereeAddress",
          "type": "address"
        }
      ],
      "name": "ReferrerAdded",
      "type": "event"
    },
    {
      "anonymous": false,
      "inputs": [
        {
          "indexed": false,
          "internalType": "address",
          "name": "referrerAddress",
          "type": "address"
        },
        {
          "indexed": false,
          "internalType": "address",
          "name": "refereeAddress",
          "type": "address"
        },
        {
          "indexed": false,
          "internalType": "string",
          "name": "reason",
          "type": "string"
        }
      ],
      "name": "ReferrerNotAdded",
      "type": "event"
    },
    {
      "anonymous": false,
      "inputs": [
        {
          "indexed": false,
          "internalType": "address",
          "name": "userAddress",
          "type": "address"
        },
        {
          "indexed": false,
          "internalType": "uint32",
          "name": "userId",
          "type": "uint32"
        },
        {
          "indexed": false,
          "internalType": "uint8",
          "name": "planId",
          "type": "uint8"
        },
        {
          "indexed": false,
          "internalType": "address",
          "name": "referrerAddress",
          "type": "address"
        }
      ],
      "name": "Registration",
      "type": "event"
    },
    {
      "anonymous": false,
      "inputs": [
        {
          "indexed": false,
          "internalType": "address",
          "name": "parentAddress",
          "type": "address"
        },
        {
          "indexed": false,
          "internalType": "address",
          "name": "referrerAddress",
          "type": "address"
        },
        {
          "indexed": false,
          "internalType": "address",
          "name": "refereeAddress",
          "type": "address"
        },
        {
          "indexed": false,
          "internalType": "uint32",
          "name": "level",
          "type": "uint32"
        }
      ],
      "name": "TeamAddressAdded",
      "type": "event"
    },
    {
      "anonymous": false,
      "inputs": [
        {
          "indexed": false,
          "internalType": "address",
          "name": "account",
          "type": "address"
        }
      ],
      "name": "Unpaused",
      "type": "event"
    },
    {
      "anonymous": false,
      "inputs": [
        {
          "indexed": true,
          "internalType": "address",
          "name": "implementation",
          "type": "address"
        }
      ],
      "name": "Upgraded",
      "type": "event"
    },
    {
      "anonymous": false,
      "inputs": [
        {
          "indexed": false,
          "internalType": "address",
          "name": "globalAddress",
          "type": "address"
        },
        {
          "indexed": false,
          "internalType": "uint256",
          "name": "rewardValue",
          "type": "uint256"
        }
      ],
      "name": "WeeklyRewardsPaid",
      "type": "event"
    },
    {
      "inputs": [
        {
          "internalType": "address",
          "name": "_userAddress",
          "type": "address"
        },
        {
          "internalType": "address",
          "name": "_ibpAddress",
          "type": "address"
        },
        {
          "internalType": "uint256",
          "name": "_maxLimitInDecimals",
          "type": "uint256"
        }
      ],
      "name": "addIbpToAddressAdmin",
      "outputs": [],
      "stateMutability": "nonpayable",
      "type": "function"
    },
    {
      "inputs": [
        {
          "internalType": "address",
          "name": "_tokenAddress",
          "type": "address"
        }
      ],
      "name": "distributeWeeklyReward",
      "outputs": [
        {
          "internalType": "address",
          "name": "",
          "type": "address"
        }
      ],
      "stateMutability": "nonpayable",
      "type": "function"
    },
    {
      "inputs": [],
      "name": "getRegistrationsStats",
      "outputs": [
        {
          "internalType": "uint32",
          "name": "totalUser",
          "type": "uint32"
        },
        {
          "internalType": "uint256",
          "name": "totalRegistrationValue",
          "type": "uint256"
        },
        {
          "internalType": "uint256",
          "name": "totalReferralPaid",
          "type": "uint256"
        },
        {
          "internalType": "uint256",
          "name": "totalGlobalRewardsPaid",
          "type": "uint256"
        },
        {
          "internalType": "uint256",
          "name": "totalWeeklyRewardsPaid",
          "type": "uint256"
        },
        {
          "internalType": "uint256",
          "name": "totalCoreMembershipRewardPaid",
          "type": "uint256"
        },
        {
          "internalType": "uint256",
          "name": "totalIbpRewardsPaid",
          "type": "uint256"
        }
      ],
      "stateMutability": "view",
      "type": "function"
    },
    {
      "inputs": [
        {
          "internalType": "address",
          "name": "_userAddress",
          "type": "address"
        }
      ],
      "name": "getUserAccount",
      "outputs": [
        {
          "components": [
            {
              "internalType": "uint32",
              "name": "userId",
              "type": "uint32"
            },
            {
              "internalType": "address",
              "name": "selfAddress",
              "type": "address"
            },
            {
              "internalType": "address",
              "name": "ibpAddress",
              "type": "address"
            },
            {
              "internalType": "address",
              "name": "referrerAddress",
              "type": "address"
            },
            {
              "internalType": "address[]",
              "name": "refereeAddresses",
              "type": "address[]"
            },
            {
              "internalType": "address[]",
              "name": "teamAddress",
              "type": "address[]"
            },
            {
              "internalType": "uint32[]",
              "name": "teamLevels",
              "type": "uint32[]"
            },
            {
              "internalType": "uint256",
              "name": "selfBusiness",
              "type": "uint256"
            },
            {
              "internalType": "uint256",
              "name": "directBusiness",
              "type": "uint256"
            },
            {
              "internalType": "uint256",
              "name": "teamBusiness",
              "type": "uint256"
            },
            {
              "internalType": "uint256",
              "name": "maxLimit",
              "type": "uint256"
            },
            {
              "internalType": "uint256",
              "name": "currentLimit",
              "type": "uint256"
            },
            {
              "internalType": "uint256",
              "name": "referralRewards",
              "type": "uint256"
            },
            {
              "internalType": "uint256",
              "name": "globalRewards",
              "type": "uint256"
            },
            {
              "internalType": "uint256",
              "name": "weeklyRewards",
              "type": "uint256"
            },
            {
              "internalType": "uint256",
              "name": "ibpRewards",
              "type": "uint256"
            },
            {
              "internalType": "bool",
              "name": "isGlobal",
              "type": "bool"
            },
            {
              "internalType": "uint32[]",
              "name": "globalIndexes",
              "type": "uint32[]"
            }
          ],
          "internalType": "struct AccountStruct",
          "name": "",
          "type": "tuple"
        }
      ],
      "stateMutability": "view",
      "type": "function"
    },
    {
      "inputs": [
        {
          "internalType": "address",
          "name": "_userAddress",
          "type": "address"
        }
      ],
      "name": "getUserBusiness",
      "outputs": [
        {
          "internalType": "uint256",
          "name": "selfBusiness",
          "type": "uint256"
        },
        {
          "internalType": "uint256",
          "name": "directBusiness",
          "type": "uint256"
        },
        {
          "internalType": "uint256",
          "name": "teamBusiness",
          "type": "uint256"
        },
        {
          "internalType": "uint256",
          "name": "totalBusiness",
          "type": "uint256"
        }
      ],
      "stateMutability": "view",
      "type": "function"
    },
    {
      "inputs": [
        {
          "internalType": "address",
          "name": "_userAddress",
          "type": "address"
        }
      ],
      "name": "getUserIbpAddress",
      "outputs": [
        {
          "internalType": "address",
          "name": "",
          "type": "address"
        }
      ],
      "stateMutability": "view",
      "type": "function"
    },
    {
      "inputs": [
        {
          "internalType": "address",
          "name": "_userAddress",
          "type": "address"
        }
      ],
      "name": "getUserLimit",
      "outputs": [
        {
          "internalType": "uint256",
          "name": "maxLimit",
          "type": "uint256"
        },
        {
          "internalType": "uint256",
          "name": "currentLimit",
          "type": "uint256"
        },
        {
          "internalType": "uint256",
          "name": "limitRemaingvalue",
          "type": "uint256"
        }
      ],
      "stateMutability": "view",
      "type": "function"
    },
    {
      "inputs": [
        {
          "internalType": "address",
          "name": "_userAddress",
          "type": "address"
        }
      ],
      "name": "getUserRewards",
      "outputs": [
        {
          "internalType": "uint256",
          "name": "referralReward",
          "type": "uint256"
        },
        {
          "internalType": "uint256",
          "name": "globalReward",
          "type": "uint256"
        },
        {
          "internalType": "uint256",
          "name": "weeklyReward",
          "type": "uint256"
        },
        {
          "internalType": "uint256",
          "name": "ibpReward",
          "type": "uint256"
        },
        {
          "internalType": "uint256",
          "name": "totalIncome",
          "type": "uint256"
        }
      ],
      "stateMutability": "view",
      "type": "function"
    },
    {
      "inputs": [
        {
          "internalType": "address",
          "name": "_userAddress",
          "type": "address"
        }
      ],
      "name": "getUserTeam",
      "outputs": [
        {
          "internalType": "address",
          "name": "referrer",
          "type": "address"
        },
        {
          "internalType": "address[]",
          "name": "referees",
          "type": "address[]"
        },
        {
          "internalType": "uint256",
          "name": "refereeCount",
          "type": "uint256"
        },
        {
          "internalType": "address[]",
          "name": "team",
          "type": "address[]"
        },
        {
          "internalType": "uint32[]",
          "name": "teamLevels",
          "type": "uint32[]"
        },
        {
          "internalType": "uint256",
          "name": "teamCount",
          "type": "uint256"
        }
      ],
      "stateMutability": "view",
      "type": "function"
    },
    {
      "inputs": [],
      "name": "getVariablesContract",
      "outputs": [
        {
          "internalType": "address",
          "name": "",
          "type": "address"
        }
      ],
      "stateMutability": "view",
      "type": "function"
    },
    {
      "inputs": [],
      "name": "getWeeklyRewardToBeDistributed",
      "outputs": [
        {
          "internalType": "uint256",
          "name": "",
          "type": "uint256"
        }
      ],
      "stateMutability": "view",
      "type": "function"
    },
    {
      "inputs": [],
      "name": "getWeeklyRewardsRemainTime",
      "outputs": [
        {
          "internalType": "uint256",
          "name": "",
          "type": "uint256"
        }
      ],
      "stateMutability": "view",
      "type": "function"
    },
    {
      "inputs": [],
      "name": "initialize",
      "outputs": [],
      "stateMutability": "nonpayable",
      "type": "function"
    },
    {
      "inputs": [
        {
          "internalType": "address",
          "name": "_userAddress",
          "type": "address"
        }
      ],
      "name": "isUserInGlobalList",
      "outputs": [
        {
          "internalType": "bool",
          "name": "isInList",
          "type": "bool"
        },
        {
          "internalType": "uint32[]",
          "name": "indexes",
          "type": "uint32[]"
        },
        {
          "internalType": "uint256",
          "name": "totalGlobalIds",
          "type": "uint256"
        }
      ],
      "stateMutability": "view",
      "type": "function"
    },
    {
      "inputs": [],
      "name": "owner",
      "outputs": [
        {
          "internalType": "address",
          "name": "",
          "type": "address"
        }
      ],
      "stateMutability": "view",
      "type": "function"
    },
    {
      "inputs": [],
      "name": "pause",
      "outputs": [],
      "stateMutability": "nonpayable",
      "type": "function"
    },
    {
      "inputs": [],
      "name": "paused",
      "outputs": [
        {
          "internalType": "bool",
          "name": "",
          "type": "bool"
        }
      ],
      "stateMutability": "view",
      "type": "function"
    },
    {
      "inputs": [],
      "name": "proxiableUUID",
      "outputs": [
        {
          "internalType": "bytes32",
          "name": "",
          "type": "bytes32"
        }
      ],
      "stateMutability": "view",
      "type": "function"
    },
    {
      "inputs": [
        {
          "internalType": "address",
          "name": "_referrer",
          "type": "address"
        },
        {
          "internalType": "uint8",
          "name": "_planId",
          "type": "uint8"
        },
        {
          "internalType": "address",
          "name": "_tokenAddress",
          "type": "address"
        }
      ],
      "name": "registrationWithToken",
      "outputs": [],
      "stateMutability": "nonpayable",
      "type": "function"
    },
    {
      "inputs": [
        {
          "internalType": "address",
          "name": "_userAddress",
          "type": "address"
        }
      ],
      "name": "removeIbpFromAddressAdmin",
      "outputs": [],
      "stateMutability": "nonpayable",
      "type": "function"
    },
    {
      "inputs": [],
      "name": "renounceOwnership",
      "outputs": [],
      "stateMutability": "nonpayable",
      "type": "function"
    },
    {
      "inputs": [
        {
          "internalType": "address",
          "name": "_contractAddress",
          "type": "address"
        }
      ],
      "name": "setVariablesContract",
      "outputs": [],
      "stateMutability": "nonpayable",
      "type": "function"
    },
    {
      "inputs": [
        {
          "internalType": "address",
          "name": "newOwner",
          "type": "address"
        }
      ],
      "name": "transferOwnership",
      "outputs": [],
      "stateMutability": "nonpayable",
      "type": "function"
    },
    {
      "inputs": [],
      "name": "unpause",
      "outputs": [],
      "stateMutability": "nonpayable",
      "type": "function"
    },
    {
      "inputs": [
        {
          "internalType": "address",
          "name": "newImplementation",
          "type": "address"
        }
      ],
      "name": "upgradeTo",
      "outputs": [],
      "stateMutability": "nonpayable",
      "type": "function"
    },
    {
      "inputs": [
        {
          "internalType": "address",
          "name": "newImplementation",
          "type": "address"
        },
        {
          "internalType": "bytes",
          "name": "data",
          "type": "bytes"
        }
      ],
      "name": "upgradeToAndCall",
      "outputs": [],
      "stateMutability": "payable",
      "type": "function"
    },
    {
      "stateMutability": "payable",
      "type": "receive"
    }
  ],
  "bytecode": "0x60a06040523060805234801561001457600080fd5b506080516156606200004d60003960008181610895015281816108de01528181610c5a01528181610c9a0152610d2d01526156606000f3fe6080604052600436106101855760003560e01c80638da5cb5b116100d1578063e6f6769e1161008a578063f2fde38b11610064578063f2fde38b146104d1578063f87127b4146104f1578063faeda7e514610531578063fb47e0161461056357600080fd5b8063e6f6769e14610458578063e9587e8614610478578063f13a143f146104b357600080fd5b80638da5cb5b14610374578063967012eb146103a6578063986992fa146103e3578063aa8d713a146103f8578063d277b8a914610418578063df1081761461043857600080fd5b80634f1ef2861161013e578063715018a611610118578063715018a6146103205780638129fc1c146103355780638456cb591461034a578063846688f71461035f57600080fd5b80634f1ef286146102c757806352d1902d146102da5780635c975abb146102fd57600080fd5b80630690c6a814610191578063078b0fb7146101f95780630ba0dba3146102415780633659cfe6146102635780633ef575e9146102835780633f4ba83a146102b257600080fd5b3661018c57005b600080fd5b34801561019d57600080fd5b5060fd5460fe5461010154610102546101035461010454610105546040805163ffffffff90981688526020880196909652948601939093526060850191909152608084015260a083015260c082015260e0015b60405180910390f35b34801561020557600080fd5b50610219610214366004614afa565b610590565b604080519586526020860194909452928401919091526060830152608082015260a0016101f0565b34801561024d57600080fd5b5061026161025c366004614afa565b610861565b005b34801561026f57600080fd5b5061026161027e366004614afa565b61088b565b34801561028f57600080fd5b506102a361029e366004614afa565b610973565b6040516101f093929190614b58565b3480156102be57600080fd5b50610261610c3e565b6102616102d5366004614c1b565b610c50565b3480156102e657600080fd5b506102ef610d20565b6040519081526020016101f0565b34801561030957600080fd5b5060335460ff1660405190151581526020016101f0565b34801561032c57600080fd5b50610261610dd3565b34801561034157600080fd5b50610261610de5565b34801561035657600080fd5b50610261610f31565b34801561036b57600080fd5b5060ff546102ef565b34801561038057600080fd5b506065546001600160a01b03165b6040516001600160a01b0390911681526020016101f0565b3480156103b257600080fd5b5061038e6103c1366004614afa565b6001600160a01b03908116600090815261010660205260409020600101541690565b3480156103ef57600080fd5b506102ef610f41565b34801561040457600080fd5b50610261610413366004614afa565b610f7a565b34801561042457600080fd5b5061038e610433366004614afa565b6110c0565b34801561044457600080fd5b50610261610453366004614cae565b6112e2565b34801561046457600080fd5b50610261610473366004614cfe565b611395565b34801561048457600080fd5b50610498610493366004614afa565b6113a8565b604080519384526020840192909252908201526060016101f0565b3480156104bf57600080fd5b5060fb546001600160a01b031661038e565b3480156104dd57600080fd5b506102616104ec366004614afa565b61166e565b3480156104fd57600080fd5b5061051161050c366004614afa565b6116e4565b6040805194855260208501939093529183015260608201526080016101f0565b34801561053d57600080fd5b5061055161054c366004614afa565b6119b5565b6040516101f096959493929190614d82565b34801561056f57600080fd5b5061058361057e366004614afa565b611c8e565b6040516101f09190614de6565b6001600160a01b03808216600090815261010660209081526040808320815161024081018352815463ffffffff81168252600160201b90048616818501526001820154861681840152600282015490951660608601526003810180548351818602810186019094528084529495869586958695869586959093608086019383018282801561064757602002820191906000526020600020905b81546001600160a01b03168152600190910190602001808311610629575b50505050508152602001600482018054806020026020016040519081016040528092919081815260200182805480156106a957602002820191906000526020600020905b81546001600160a01b0316815260019091019060200180831161068b575b505050505081526020016005820180548060200260200160405190810160405280929190818152602001828054801561072d57602002820191906000526020600020906000905b82829054906101000a900463ffffffff1663ffffffff16815260200190600401906020826003010492830192600103820291508084116106f05790505b5050505050815260200160068201548152602001600782015481526020016008820154815260200160098201548152602001600a8201548152602001600b8201548152602001600c8201548152602001600d8201548152602001600e8201548152602001600f820160009054906101000a900460ff161515151581526020016010820180548060200260200160405190810160405280929190818152602001828054801561082657602002820191906000526020600020906000905b82829054906101000a900463ffffffff1663ffffffff16815260200190600401906020826003010492830192600103820291508084116107e95790505b505050919092525050506101808101516101a08201516101c08301516101e084015161016090940151929b919a509850919650945092505050565b610869611fdd565b60fb80546001600160a01b0319166001600160a01b0392909216919091179055565b6001600160a01b037f00000000000000000000000000000000000000000000000000000000000000001630036108dc5760405162461bcd60e51b81526004016108d390614f4d565b60405180910390fd5b7f00000000000000000000000000000000000000000000000000000000000000006001600160a01b03166109256000805160206155c4833981519152546001600160a01b031690565b6001600160a01b03161461094b5760405162461bcd60e51b81526004016108d390614f99565b61095481612037565b604080516000808252602082019092526109709183919061203f565b50565b6001600160a01b03808216600090815261010660209081526040808320815161024081018352815463ffffffff81168252600160201b9004861681850152600182015486168184015260028201549095166060868101919091526003820180548451818702810187019095528085529596919587958695939493608086019390929091830182828015610a2f57602002820191906000526020600020905b81546001600160a01b03168152600190910190602001808311610a11575b5050505050815260200160048201805480602002602001604051908101604052809291908181526020018280548015610a9157602002820191906000526020600020905b81546001600160a01b03168152600190910190602001808311610a73575b5050505050815260200160058201805480602002602001604051908101604052809291908181526020018280548015610b1557602002820191906000526020600020906000905b82829054906101000a900463ffffffff1663ffffffff1681526020019060040190602082600301049283019260010382029150808411610ad85790505b5050505050815260200160068201548152602001600782015481526020016008820154815260200160098201548152602001600a8201548152602001600b8201548152602001600c8201548152602001600d8201548152602001600e8201548152602001600f820160009054906101000a900460ff1615151515815260200160108201805480602002602001604051908101604052809291908181526020018280548015610c0e57602002820191906000526020600020906000905b82829054906101000a900463ffffffff1663ffffffff1681526020019060040190602082600301049283019260010382029150808411610bd15790505b50505050508152505090506000816102200151511115610c2d57600193505b610220015180519395909450915050565b610c46611fdd565b610c4e6121af565b565b6001600160a01b037f0000000000000000000000000000000000000000000000000000000000000000163003610c985760405162461bcd60e51b81526004016108d390614f4d565b7f00000000000000000000000000000000000000000000000000000000000000006001600160a01b0316610ce16000805160206155c4833981519152546001600160a01b031690565b6001600160a01b031614610d075760405162461bcd60e51b81526004016108d390614f99565b610d1082612037565b610d1c8282600161203f565b5050565b6000306001600160a01b037f00000000000000000000000000000000000000000000000000000000000000001614610dc05760405162461bcd60e51b815260206004820152603860248201527f555550535570677261646561626c653a206d757374206e6f742062652063616c60448201527f6c6564207468726f7567682064656c656761746563616c6c000000000000000060648201526084016108d3565b506000805160206155c483398151915290565b610ddb611fdd565b610c4e6000612201565b600054610100900460ff1615808015610e055750600054600160ff909116105b80610e1f5750303b158015610e1f575060005460ff166001145b610e825760405162461bcd60e51b815260206004820152602e60248201527f496e697469616c697a61626c653a20636f6e747261637420697320616c72656160448201526d191e481a5b9a5d1a585b1a5e995960921b60648201526084016108d3565b6000805460ff191660011790558015610ea5576000805461ff0019166101001790555b60fb80546001600160a01b03191673494549e00fe6598e3dc93254c5377c406dda85791790554261010055610ed8612253565b610ee0612282565b610ee86122b1565b8015610970576000805461ff0019169055604051600181527f7f26b83ff96e1f2b6a682f133852f6798a09c465da95921460cefb3847402498906020015b60405180910390a150565b610f39611fdd565b610c4e6122d8565b6000806101005462093a80610f569190614ffb565b905042818110610f695760009250505090565b610f73818361500e565b9250505090565b610f82611fdd565b60fb60009054906101000a90046001600160a01b03166001600160a01b031663b2e6b9126040518163ffffffff1660e01b8152600401602060405180830381865afa158015610fd5573d6000803e3d6000fd5b505050506040513d601f19601f82011682018060405250810190610ff9919061502c565b6001600160a01b038281166000908152610106602090815260409182902060010180546001600160a01b0319169484169490941790935560fb5481516359735c8960e11b8152915160008051602061560b83398151915294919093169263b2e6b9129260048082019392918290030181865afa15801561107d573d6000803e3d6000fd5b505050506040513d601f19601f820116820180604052508101906110a1919061502c565b604080516001600160a01b039283168152918416602083015201610f26565b6000806101005462093a806110d59190614ffb565b905042818110156111285760405162461bcd60e51b815260206004820152601c60248201527f5765656b6c792074696d65206973206e6f74206f766572207965742e0000000060448201526064016108d3565b6000611132612315565b6040516370a0823160e01b81523060048201529091506000906001600160a01b038716906370a0823190602401602060405180830381865afa15801561117c573d6000803e3d6000fd5b505050506040513d601f19601f820116820180604052508101906111a09190615049565b60ff549091508082101561121c5760405162461bcd60e51b815260206004820152603760248201527f436f6e74726163742068617320696e73756666696369656e742062616c616e6360448201527f6520746f2064697374726962757465207265776172642e00000000000000000060648201526084016108d3565b60405163a9059cbb60e01b81526001600160a01b0384811660048301526024820183905288169063a9059cbb906044016020604051808303816000875af115801561126b573d6000803e3d6000fd5b505050506040513d601f19601f8201168201806040525081019061128f9190615072565b50600060ff55604080516001600160a01b0385168152602081018390527ffff6edc60fd30afefcc47525cdf85502200830b22550391f79f9e383df03afad910160405180910390a1509095945050505050565b6112ea611fdd565b6001600160a01b0383811660009081526101066020526040902060010180546001600160a01b03191691841691909117905561132e81670de0b6b3a764000061508d565b6001600160a01b038416600090815261010660205260408120600901805490919061135a908490614ffb565b9091555050604080516001600160a01b0380851682528516602082015260008051602061560b833981519152910160405180910390a1505050565b336113a28482858561239c565b50505050565b6001600160a01b03808216600090815261010660209081526040808320815161024081018352815463ffffffff81168252600160201b90048616818501526001820154861681840152600282015490951660608601526003810180548351818602810186019094528084529495869586958695929493608086019392909183018282801561145f57602002820191906000526020600020905b81546001600160a01b03168152600190910190602001808311611441575b50505050508152602001600482018054806020026020016040519081016040528092919081815260200182805480156114c157602002820191906000526020600020905b81546001600160a01b031681526001909101906020018083116114a3575b505050505081526020016005820180548060200260200160405190810160405280929190818152602001828054801561154557602002820191906000526020600020906000905b82829054906101000a900463ffffffff1663ffffffff16815260200190600401906020826003010492830192600103820291508084116115085790505b5050505050815260200160068201548152602001600782015481526020016008820154815260200160098201548152602001600a8201548152602001600b8201548152602001600c8201548152602001600d8201548152602001600e8201548152602001600f820160009054906101000a900460ff161515151581526020016010820180548060200260200160405190810160405280929190818152602001828054801561163e57602002820191906000526020600020906000905b82829054906101000a900463ffffffff1663ffffffff16815260200190600401906020826003010492830192600103820291508084116116015790505b5050509190925250505061014081015161016082015190955093509050611665838561500e565b93959294505050565b611676611fdd565b6001600160a01b0381166116db5760405162461bcd60e51b815260206004820152602660248201527f4f776e61626c653a206e6577206f776e657220697320746865207a65726f206160448201526564647265737360d01b60648201526084016108d3565b61097081612201565b6001600160a01b03808216600090815261010660209081526040808320815161024081018352815463ffffffff81168252600160201b90048616818501526001820154861681840152600282015490951660608601526003810180548351818602810186019094528084529495869586958695869593946080860193919290919083018282801561179e57602002820191906000526020600020905b81546001600160a01b03168152600190910190602001808311611780575b505050505081526020016004820180548060200260200160405190810160405280929190818152602001828054801561180057602002820191906000526020600020905b81546001600160a01b031681526001909101906020018083116117e2575b505050505081526020016005820180548060200260200160405190810160405280929190818152602001828054801561188457602002820191906000526020600020906000905b82829054906101000a900463ffffffff1663ffffffff16815260200190600401906020826003010492830192600103820291508084116118475790505b5050505050815260200160068201548152602001600782015481526020016008820154815260200160098201548152602001600a8201548152602001600b8201548152602001600c8201548152602001600d8201548152602001600e8201548152602001600f820160009054906101000a900460ff161515151581526020016010820180548060200260200160405190810160405280929190818152602001828054801561197d57602002820191906000526020600020906000905b82829054906101000a900463ffffffff1663ffffffff16815260200190600401906020826003010492830192600103820291508084116119405790505b5050509190925250505060e08101516101008201516101208301519197509550935090506119ab8584614ffb565b9150509193509193565b6001600160a01b03808216600090815261010660209081526040808320815161024081018352815463ffffffff81168252600160201b90048616818501526001820154861681840152600282015490951660608681019190915260038201805484518187028101870190955280855295969195879587958695889586959094919360808601939290830182828015611a7657602002820191906000526020600020905b81546001600160a01b03168152600190910190602001808311611a58575b5050505050815260200160048201805480602002602001604051908101604052809291908181526020018280548015611ad857602002820191906000526020600020905b81546001600160a01b03168152600190910190602001808311611aba575b5050505050815260200160058201805480602002602001604051908101604052809291908181526020018280548015611b5c57602002820191906000526020600020906000905b82829054906101000a900463ffffffff1663ffffffff1681526020019060040190602082600301049283019260010382029150808411611b1f5790505b5050505050815260200160068201548152602001600782015481526020016008820154815260200160098201548152602001600a8201548152602001600b8201548152602001600c8201548152602001600d8201548152602001600e8201548152602001600f820160009054906101000a900460ff1615151515815260200160108201805480602002602001604051908101604052809291908181526020018280548015611c5557602002820191906000526020600020906000905b82829054906101000a900463ffffffff1663ffffffff1681526020019060040190602082600301049283019260010382029150808411611c185790505b5050509190925250505060608101516080820151805160a084015160c0909401518451939d929c50909a50929850919650945092505050565b611d3f604051806102400160405280600063ffffffff16815260200160006001600160a01b0316815260200160006001600160a01b0316815260200160006001600160a01b03168152602001606081526020016060815260200160608152602001600081526020016000815260200160008152602001600081526020016000815260200160008152602001600081526020016000815260200160008152602001600015158152602001606081525090565b6001600160a01b0380831660009081526101066020908152604091829020825161024081018452815463ffffffff81168252600160201b900485168184015260018201548516818501526002820154909416606085015260038101805484518185028101850190955280855291936080860193909290830182828015611dee57602002820191906000526020600020905b81546001600160a01b03168152600190910190602001808311611dd0575b5050505050815260200160048201805480602002602001604051908101604052809291908181526020018280548015611e5057602002820191906000526020600020905b81546001600160a01b03168152600190910190602001808311611e32575b5050505050815260200160058201805480602002602001604051908101604052809291908181526020018280548015611ed457602002820191906000526020600020906000905b82829054906101000a900463ffffffff1663ffffffff1681526020019060040190602082600301049283019260010382029150808411611e975790505b5050505050815260200160068201548152602001600782015481526020016008820154815260200160098201548152602001600a8201548152602001600b8201548152602001600c8201548152602001600d8201548152602001600e8201548152602001600f820160009054906101000a900460ff1615151515815260200160108201805480602002602001604051908101604052809291908181526020018280548015611fcd57602002820191906000526020600020906000905b82829054906101000a900463ffffffff1663ffffffff1681526020019060040190602082600301049283019260010382029150808411611f905790505b5050505050815250509050919050565b6065546001600160a01b03163314610c4e5760405162461bcd60e51b815260206004820181905260248201527f4f776e61626c653a2063616c6c6572206973206e6f7420746865206f776e657260448201526064016108d3565b610970611fdd565b7f4910fdfa16fed3260ed0e7147f7cc6da11a60208b5b9406d12a635614ffd91435460ff16156120775761207283613e80565b505050565b826001600160a01b03166352d1902d6040518163ffffffff1660e01b8152600401602060405180830381865afa9250505080156120d1575060408051601f3d908101601f191682019092526120ce91810190615049565b60015b6121345760405162461bcd60e51b815260206004820152602e60248201527f45524331393637557067726164653a206e657720696d706c656d656e7461746960448201526d6f6e206973206e6f74205555505360901b60648201526084016108d3565b6000805160206155c483398151915281146121a35760405162461bcd60e51b815260206004820152602960248201527f45524331393637557067726164653a20756e737570706f727465642070726f786044820152681a58589b195555525160ba1b60648201526084016108d3565b50612072838383613f1c565b6121b7613f41565b6033805460ff191690557f5db9ee0a495bf2e6ff9c91a7834c1ba4fdd244a5e8aa4e537bd38aeae4b073aa335b6040516001600160a01b03909116815260200160405180910390a1565b606580546001600160a01b038381166001600160a01b0319831681179093556040519116919082907f8be0079c531659141344cd1fd0a4f28419497f9722a3daafe3b4186f6b6457e090600090a35050565b600054610100900460ff1661227a5760405162461bcd60e51b81526004016108d3906150a4565b610c4e613f8a565b600054610100900460ff166122a95760405162461bcd60e51b81526004016108d3906150a4565b610c4e613fbd565b600054610100900460ff16610c4e5760405162461bcd60e51b81526004016108d3906150a4565b6122e0613fed565b6033805460ff191660011790557f62e78cea01bee320cd4e420270b5ea74000d11b0c9f74754ebdbfc544b05a2586121e43390565b600080424461232560014361500e565b60408051602081019490945283019190915240606082015260800160408051601f19818403018152919052805160209091012060fc5490915060009061236b9083615105565b905060fc818154811061238057612380615119565b6000918252602090912001546001600160a01b03169392505050565b60fb54604051630efc12b160e01b815260ff841660048201526001600160a01b03909116906000908290630efc12b190602401600060405180830381865afa1580156123ec573d6000803e3d6000fd5b505050506040513d6000823e601f3d908101601f1916820160405261241491908101906151ab565b9050600081604001511161247d5760405162461bcd60e51b815260206004820152602a60248201527f56616c7565206973207a65726f2e20506c656173652073656c65637420636f726044820152693932b1ba10383630b71760b11b60648201526084016108d3565b6040516373a5799760e11b81526001600160a01b0384811660048301526000919084169063e74af32e90602401600060405180830381865afa1580156124c7573d6000803e3d6000fd5b505050506040513d6000823e601f3d908101601f191682016040526124ef9190810190615258565b6060810151815160c083015192935090916125575760405162461bcd60e51b815260206004820152602260248201527f546f6b656e206973206e6f7420737570706f72746564206f722064697361626c604482015261195960f21b60648201526084016108d3565b6000856001600160a01b031663918a54db6040518163ffffffff1660e01b8152600401600060405180830381865afa158015612597573d6000803e3d6000fd5b505050506040513d6000823e601f3d908101601f191682016040526125bf919081019061533e565b9050866001600160a01b03166323b872dd8a3060128760ff16106125e75788604001516125fa565b6125fa896040015160128960ff16614033565b6040516001600160e01b031960e086901b1681526001600160a01b03938416600482015292909116602483015260448201526064016020604051808303816000875af115801561264e573d6000803e3d6000fd5b505050506040513d601f19601f820116820180604052508101906126729190615072565b506001600160a01b0389166000908152610106602052604081208054909163ffffffff909116900361270f5760fd805463ffffffff169060006126b4836153f8565b82546101009290920a63ffffffff81810219909316918316021790915560fd548354911663ffffffff199091168117835560009081526101076020526040902080546001600160a01b0319166001600160a01b038d16179055505b8054640100000000600160c01b031916600160201b6001600160a01b038c1602178155604086015160068201805460009061274b908490614ffb565b909155505060608601516040870151612764919061508d565b8160090160008282546127779190614ffb565b90915550506040516204942560ec1b60208201526023016040516020818303038152906040528051906020012086602001516040516020016127b9919061541b565b604051602081830303815290604052805190602001201480156127f55750805460018201546001600160a01b03908116600160201b9092041614155b15612826578054600182018054600160201b9092046001600160a01b03166001600160a01b03199092169190911790555b6040805161024081018252825463ffffffff811682526001600160a01b03600160201b9091048116602080840191909152600185015482168385015260028501549091166060830152600384018054845181840281018401909552808552612ab894869360808601939192908301828280156128cb57602002820191906000526020600020905b81546001600160a01b031681526001909101906020018083116128ad575b505050505081526020016004820180548060200260200160405190810160405280929190818152602001828054801561292d57602002820191906000526020600020905b81546001600160a01b0316815260019091019060200180831161290f575b50505050508152602001600582018054806020026020016040519081016040528092919081815260200182805480156129b157602002820191906000526020600020906000905b82829054906101000a900463ffffffff1663ffffffff16815260200190600401906020826003010492830192600103820291508084116129745790505b5050505050815260200160068201548152602001600782015481526020016008820154815260200160098201548152602001600a8201548152602001600b8201548152602001600c8201548152602001600d8201548152602001600e8201548152602001600f820160009054906101000a900460ff1615151515815260200160108201805480602002602001604051908101604052809291908181526020018280548015612aaa57602002820191906000526020600020906000905b82829054906101000a900463ffffffff1663ffffffff1681526020019060040190602082600301049283019260010382029150808411612a6d5790505b505050505081525050614069565b612ac957612ac98b8b84518a614088565b8054600282015460408051600160201b84046001600160a01b03908116825263ffffffff909416602082015260ff8d1681830152929091166060830152517fccdfed8601106cae21493f7848436196048b60f2dc70db89d92e3acdabb0ee299181900360800190a160fc5415612cff576000612b43612315565b90506001600160a01b03811615612cfd576001600160a01b0381166000908152610106602052604080822090890151909190606490612b8390600a61508d565b612b8d9190615437565b90508082600c016000828254612ba39190614ffb565b925050819055508082600a016000828254612bbe9190614ffb565b90915550506001600160a01b03861663a9059cbb84601260ff8b1610612be45783612bf3565b612bf38460128c60ff16614033565b6040516001600160e01b031960e085901b1681526001600160a01b03909216600483015260248201526044016020604051808303816000875af1158015612c3e573d6000803e3d6000fd5b505050506040513d601f19601f82011682018060405250810190612c629190615072565b507f693fc02576006378cd4577590d99ad6b18ad4c566c433b85643d7b07a4815665838e8b6040015184600a6064604051612cda969594939291906001600160a01b0396871681529490951660208501526040840192909252606083015261ffff90811660808301529190911660a082015260c00190565b60405180910390a1806101026000828254612cf59190614ffb565b909155505050505b505b60018101546001600160a01b0316156132cc576001808201546001600160a01b0390811660009081526101066020908152604091829020825161024081018452815463ffffffff81168252600160201b900485168184015294810154841685840152600281015490931660608501526003830180548351818402810184019094528084529394612fbb94909386936080860193919290830182828015612dce57602002820191906000526020600020905b81546001600160a01b03168152600190910190602001808311612db0575b5050505050815260200160048201805480602002602001604051908101604052809291908181526020018280548015612e3057602002820191906000526020600020905b81546001600160a01b03168152600190910190602001808311612e12575b5050505050815260200160058201805480602002602001604051908101604052809291908181526020018280548015612eb457602002820191906000526020600020906000905b82829054906101000a900463ffffffff1663ffffffff1681526020019060040190602082600301049283019260010382029150808411612e775790505b5050505050815260200160068201548152602001600782015481526020016008820154815260200160098201548152602001600a8201548152602001600b8201548152602001600c8201548152602001600d8201548152602001600e8201548152602001600f820160009054906101000a900460ff1615151515815260200160108201805480602002602001604051908101604052809291908181526020018280548015612fad57602002820191906000526020600020906000905b82829054906101000a900463ffffffff1663ffffffff1681526020019060040190602082600301049283019260010382029150808411612f705790505b5050505050815250506148f6565b6132465760006064896001600160a01b031663e70167176040518163ffffffff1660e01b8152600401602060405180830381865afa158015613001573d6000803e3d6000fd5b505050506040513d601f19601f82011682018060405250810190613025919061544b565b60ff168960400151613037919061508d565b6130419190615437565b9050600061304f8383614911565b90508083600e0160008282546130659190614ffb565b925050819055508083600a0160008282546130809190614ffb565b909155505060018401546001600160a01b038088169163a9059cbb9116601260ff8b16106130ae57836130bd565b6130bd8460128c60ff16614033565b6040516001600160e01b031960e085901b1681526001600160a01b03909216600483015260248201526044016020604051808303816000875af1158015613108573d6000803e3d6000fd5b505050506040513d601f19601f8201168201806040525081019061312c9190615072565b507f3c8fdb10971c51ff48e3a4db4d7f14e64690a286be5bb9f410d9fd0fb74dbf488460010160009054906101000a90046001600160a01b03168560000160049054906101000a90046001600160a01b03168b60400151848e6001600160a01b031663e70167176040518163ffffffff1660e01b8152600401602060405180830381865afa1580156131c2573d6000803e3d6000fd5b505050506040513d601f19601f820116820180604052508101906131e6919061544b565b604080516001600160a01b03968716815295909416602086015292840191909152606083015260ff166080820152606460a082015260c00160405180910390a18161010560008282546132399190614ffb565b909155506132ca92505050565b6001820154604080516001600160a01b039092168252602082018190526026828201527f49425020526577617264206e6f7420706169642e204d6178204c696d69742052606083015265195858da195960d21b6080830152517fd9365ce421ec9d37d946db34572a16a808a9a2c0df5f97dcafa2775d700428f89181900360a00190a15b505b6000805b83518160ff161015613aee576040805161024081018252845463ffffffff811682526001600160a01b03600160201b909104811660208084019190915260018701548216838501526002870154909116606083015260038601805484518184028101840190955280855261351c94889360808601939192908301828280156128cb576020028201919060005260206000209081546001600160a01b031681526001909101906020018083116128ad57505050505081526020016004820180548060200260200160405190810160405280929190818152602001828054801561292d576020028201919060005260206000209081546001600160a01b0316815260019091019060200180831161290f5750505050508152602001600582018054806020026020016040519081016040528092919081815260200182805480156129b1576000918252602091829020805463ffffffff1684529082028301929091600491018084116129745790505050505050815260200160068201548152602001600782015481526020016008820154815260200160098201548152602001600a8201548152602001600b8201548152602001600c8201548152602001600d8201548152602001600e8201548152602001600f820160009054906101000a900460ff1615151515815260200160108201805480602002602001604051908101604052809291908181526020018280548015612aaa576000918252602091829020805463ffffffff168452908202830192909160049101808411612a6d579050505050505081525050614069565b15613aee576002808401546001600160a01b0390811660009081526101066020908152604091829020825161024081018452815463ffffffff81168252600160201b90048516818401526001820154851681850152948101549093166060850152600383018054835181840281018401909452808452939461377894909386936080860193919290830182828015612dce576020028201919060005260206000209081546001600160a01b03168152600190910190602001808311612db0575050505050815260200160048201805480602002602001604051908101604052809291908181526020018280548015612e30576020028201919060005260206000209081546001600160a01b03168152600190910190602001808311612e12575050505050815260200160058201805480602002602001604051908101604052809291908181526020018280548015612eb4576000918252602091829020805463ffffffff168452908202830192909160049101808411612e775790505050505050815260200160068201548152602001600782015481526020016008820154815260200160098201548152602001600a8201548152602001600b8201548152602001600c8201548152602001600d8201548152602001600e8201548152602001600f820160009054906101000a900460ff1615151515815260200160108201805480602002602001604051908101604052809291908181526020018280548015612fad576000918252602091829020805463ffffffff168452908202830192909160049101808411612f705790505050505050815250506148f6565b156137ec576002840154604080516001600160a01b039092168252602082018190526011828201527013585e08131a5b5a5d0814995858da1959607a1b6060830152517f9cf6f1ac252ffae20583b13cb366045bedd20a57355f5f69adf17da561de00039181900360800190a19250613adc565b8160ff166000036138d957886040015181600701600082825461380f9190614ffb565b9091555050600f81015460ff16156138c457600284015460fc80546001818101835560008390527f371f36870d18f32a11fea0f144b021c8b407bb50f8e0267c711123f454b963c090910180546001600160a01b0319166001600160a01b03909416939093179092555460108301916138879161500e565b8154600181018355600092835260209092206008830401805460079093166004026101000a63ffffffff8181021990941692909316929092021790555b600f8101805460ff19811660ff909116151790555b88604001518160080160008282546138f19190614ffb565b925050819055506000612710868460ff168151811061391257613912615119565b602002602001015161ffff168b6040015161392d919061508d565b6139379190615437565b905060006139458383614911565b90508083600b01600082825461395b9190614ffb565b909155505060028601546001600160a01b03808a169163a9059cbb9116601260ff8d16106139895783613998565b6139988460128e60ff16614033565b6040516001600160e01b031960e085901b1681526001600160a01b03909216600483015260248201526044016020604051808303816000875af11580156139e3573d6000803e3d6000fd5b505050506040513d601f19601f82011682018060405250810190613a079190615072565b50613a128186614ffb565b6002870154875460408e01518a519398507f3fae587c6f1778678d1e63bd99d63afe07677c2a2eb43a4b228b80e8a38c1b06936001600160a01b0393841693600160201b9093049092169185908c9060ff8b16908110613a7457613a74615119565b60200260200101516127108a6001613a8c9190615468565b604080516001600160a01b03988916815297909616602088015294860193909352606085019190915261ffff16608084015260a083015260ff1660c082015260e00160405180910390a150909350505b80613ae681615481565b9150506132d0565b50806101016000828254613b029190614ffb565b9091555050604087015160fe8054600090613b1e908490614ffb565b90915550506040870151606490613b3690600a61508d565b613b409190615437565b60ff6000828254613b519190614ffb565b925050819055506000886001600160a01b03166365eb204d6040518163ffffffff1660e01b8152600401602060405180830381865afa158015613b98573d6000803e3d6000fd5b505050506040513d601f19601f82011682018060405250810190613bbc919061502c565b6040516370a0823160e01b81523060048201526001600160a01b0391909116906370a0823190602401602060405180830381865afa158015613c02573d6000803e3d6000fd5b505050506040513d601f19601f82011682018060405250810190613c269190615049565b90508015613e7157600060648a6001600160a01b031663e091099c6040518163ffffffff1660e01b8152600401602060405180830381865afa158015613c70573d6000803e3d6000fd5b505050506040513d601f19601f82011682018060405250810190613c94919061544b565b60ff168a60400151613ca6919061508d565b613cb09190615437565b9050808210613d9657896001600160a01b03166365eb204d6040518163ffffffff1660e01b8152600401602060405180830381865afa158015613cf7573d6000803e3d6000fd5b505050506040513d601f19601f82011682018060405250810190613d1b919061502c565b60405163a9059cbb60e01b81526001600160a01b038f8116600483015260248201849052919091169063a9059cbb906044016020604051808303816000875af1158015613d6c573d6000803e3d6000fd5b505050506040513d601f19601f82011682018060405250810190613d909190615072565b50613e6f565b896001600160a01b03166365eb204d6040518163ffffffff1660e01b8152600401602060405180830381865afa158015613dd4573d6000803e3d6000fd5b505050506040513d601f19601f82011682018060405250810190613df8919061502c565b60405163a9059cbb60e01b81526001600160a01b038f8116600483015260248201859052919091169063a9059cbb906044016020604051808303816000875af1158015613e49573d6000803e3d6000fd5b505050506040513d601f19601f82011682018060405250810190613e6d9190615072565b505b505b50505050505050505050505050565b6001600160a01b0381163b613eed5760405162461bcd60e51b815260206004820152602d60248201527f455243313936373a206e657720696d706c656d656e746174696f6e206973206e60448201526c1bdd08184818dbdb9d1c9858dd609a1b60648201526084016108d3565b6000805160206155c483398151915280546001600160a01b0319166001600160a01b0392909216919091179055565b613f2583614973565b600082511180613f325750805b15612072576113a283836149b3565b60335460ff16610c4e5760405162461bcd60e51b815260206004820152601460248201527314185d5cd8589b194e881b9bdd081c185d5cd95960621b60448201526064016108d3565b600054610100900460ff16613fb15760405162461bcd60e51b81526004016108d3906150a4565b6033805460ff19169055565b600054610100900460ff16613fe45760405162461bcd60e51b81526004016108d3906150a4565b610c4e33612201565b60335460ff1615610c4e5760405162461bcd60e51b815260206004820152601060248201526f14185d5cd8589b194e881c185d5cd95960821b60448201526064016108d3565b600061404083600a615584565b61404b83600a615584565b614055908661508d565b61405f9190615437565b90505b9392505050565b60608101516000906001600160a01b031615614083575060015b919050565b6001600160a01b0380841660009081526101066020908152604091829020825161024081018452815463ffffffff81168252600160201b900485168184015260018201548516818501526002820154909416606085015260038101805484518185028101850190955280855291946142d894909386936080860193918301828280156128cb576020028201919060005260206000209081546001600160a01b031681526001909101906020018083116128ad57505050505081526020016004820180548060200260200160405190810160405280929190818152602001828054801561292d576020028201919060005260206000209081546001600160a01b0316815260019091019060200180831161290f5750505050508152602001600582018054806020026020016040519081016040528092919081815260200182805480156129b1576000918252602091829020805463ffffffff1684529082028301929091600491018084116129745790505050505050815260200160068201548152602001600782015481526020016008820154815260200160098201548152602001600a8201548152602001600b8201548152602001600c8201548152602001600d8201548152602001600e8201548152602001600f820160009054906101000a900460ff1615151515815260200160108201805480602002602001604051908101604052809291908181526020018280548015612aaa576000918252602091829020805463ffffffff168452908202830192909160049101808411612a6d579050505050505081525050614069565b1580156143585750816001600160a01b031663b2e6b9126040518163ffffffff1660e01b8152600401602060405180830381865afa15801561431e573d6000803e3d6000fd5b505050506040513d601f19601f82011682018060405250810190614342919061502c565b6001600160a01b0316846001600160a01b031614155b156148ef576001600160a01b03851615806143845750846001600160a01b0316846001600160a01b0316145b156144ef57604080516001600160a01b038781168252861660208201526060818301819052603a908201527f5a65726f20616464726573732063616e6e6f742062652072656665727265722e60808201527f2053657474696e672064656661756c742072656665727265722e00000000000060a082015290517f32df26c7e54a821624fc8d22e1171e5793b90d1fccc483d3ff277b9c42bb22399181900360c00190a16000826001600160a01b031663b2e6b9126040518163ffffffff1660e01b8152600401602060405180830381865afa158015614467573d6000803e3d6000fd5b505050506040513d601f19601f8201168201806040525081019061448b919061502c565b6002830180546001600160a01b0319166001600160a01b038381169182179092556040805191825291881660208201529192507fec49a3c8c4ae06c18160fe86119c381c9d213ac3e052ff35b594da8687b193c7910160405180910390a15061454b565b6002810180546001600160a01b0319166001600160a01b038781169182179092556040805191825291861660208201527fec49a3c8c4ae06c18160fe86119c381c9d213ac3e052ff35b594da8687b193c7910160405180910390a15b60005b8360ff168160ff1610156148ed5760028201546001600160a01b0316156148ed5760028201546001600160a01b03166000908152610106602052604081209060ff8316900361485d5760038101805460018082018355600092835260209092200180546001600160a01b0319166001600160a01b0389811691909117909155908401541615614659576001830154604080516001600160a01b03928316815291881660208301526060828201819052601d908301527f5265666572656520616c7265616479206861766520696270207365742e0000006080830152517fffca51efd3fa9dd00c7ad8de67cce6deeb82e78db2d05fe4b84079eca71665109181900360a00190a161485d565b60018101546001600160a01b031661480d576001810154604080516001600160a01b039283168152918816602083015260608282018190526032908301527f5a65726f20616464726573732063616e6e6f74206265206962702e20536574746080830152710696e672075702064656661756c74206962760741b60a0830152517fffca51efd3fa9dd00c7ad8de67cce6deeb82e78db2d05fe4b84079eca71665109181900360c00190a16000846001600160a01b031663b2e6b9126040518163ffffffff1660e01b8152600401602060405180830381865afa158015614743573d6000803e3d6000fd5b505050506040513d601f19601f82011682018060405250810190614767919061502c565b600185810180546001600160a01b038481166001600160a01b03199283168117909355928601805490911682179055845460408051928352600160201b909104909216602082015291925060008051602061560b833981519152910160405180910390a18354604080516001600160a01b038085168252600160201b909304909216602083015260008051602061560b833981519152910160405180910390a15061485d565b6001818101805491850180546001600160a01b0319166001600160a01b0393841617905554604080519183168252918816602082015260008051602061560b833981519152910160405180910390a15b60048101805460018082018355600092835260209092200180546001600160a01b0319166001600160a01b038916179055600582019061489e908490615468565b8154600181018355600092835260209092206008830401805463ffffffff60079094166004026101000a938402191660ff929092169092021790559150806148e581615481565b91505061454e565b505b5050505050565b60008161014001518261016001511061408357506001919050565b600082600901548284600a01546149289190614ffb565b1161494f578190508183600a0160008282546149449190614ffb565b9091555061496d9050565b82600a01548360090154614963919061500e565b600a840181905590505b92915050565b61497c81613e80565b6040516001600160a01b038216907fbc7cd75a20ee27fd9adebab32041f755214dbc6bffa90cc0225b39da2e5c2d3b90600090a250565b60606001600160a01b0383163b614a1b5760405162461bcd60e51b815260206004820152602660248201527f416464726573733a2064656c65676174652063616c6c20746f206e6f6e2d636f6044820152651b9d1c9858dd60d21b60648201526084016108d3565b600080846001600160a01b031684604051614a36919061541b565b600060405180830381855af49150503d8060008114614a71576040519150601f19603f3d011682016040523d82523d6000602084013e614a76565b606091505b5091509150614a9e82826040518060600160405280602781526020016155e460279139614aa7565b95945050505050565b60608315614ab6575081614062565b6140628383815115614acb5781518083602001fd5b8060405162461bcd60e51b81526004016108d39190615590565b6001600160a01b038116811461097057600080fd5b600060208284031215614b0c57600080fd5b813561406281614ae5565b600081518084526020808501945080840160005b83811015614b4d57815163ffffffff1687529582019590820190600101614b2b565b509495945050505050565b8315158152606060208201526000614b736060830185614b17565b9050826040830152949350505050565b634e487b7160e01b600052604160045260246000fd5b60405160e0810167ffffffffffffffff81118282101715614bbc57614bbc614b83565b60405290565b604051601f8201601f1916810167ffffffffffffffff81118282101715614beb57614beb614b83565b604052919050565b600067ffffffffffffffff821115614c0d57614c0d614b83565b50601f01601f191660200190565b60008060408385031215614c2e57600080fd5b8235614c3981614ae5565b9150602083013567ffffffffffffffff811115614c5557600080fd5b8301601f81018513614c6657600080fd5b8035614c79614c7482614bf3565b614bc2565b818152866020838501011115614c8e57600080fd5b816020840160208301376000602083830101528093505050509250929050565b600080600060608486031215614cc357600080fd5b8335614cce81614ae5565b92506020840135614cde81614ae5565b929592945050506040919091013590565b60ff8116811461097057600080fd5b600080600060608486031215614d1357600080fd5b8335614d1e81614ae5565b92506020840135614d2e81614cef565b91506040840135614d3e81614ae5565b809150509250925092565b600081518084526020808501945080840160005b83811015614b4d5781516001600160a01b031687529582019590820190600101614d5d565b6001600160a01b038716815260c060208201819052600090614da690830188614d49565b8660408401528281036060840152614dbe8187614d49565b90508281036080840152614dd28186614b17565b9150508260a0830152979650505050505050565b60208152614dfd60208201835163ffffffff169052565b60006020830151614e1960408401826001600160a01b03169052565b5060408301516001600160a01b03811660608401525060608301516001600160a01b03811660808401525060808301516102408060a0850152614e60610260850183614d49565b915060a0850151601f19808685030160c0870152614e7e8483614d49565b935060c08701519150808685030160e0870152614e9b8483614b17565b60e088015161010088810191909152880151610120808901919091528801516101408089019190915288015161016080890191909152880151610180808901919091528801516101a0808901919091528801516101c0808901919091528801516101e080890191909152880151610200808901919091528801519094509150610220614f2a8188018415159052565b870151868503909101838701529050614f438382614b17565b9695505050505050565b6020808252602c908201527f46756e6374696f6e206d7573742062652063616c6c6564207468726f7567682060408201526b19195b1959d85d1958d85b1b60a21b606082015260800190565b6020808252602c908201527f46756e6374696f6e206d7573742062652063616c6c6564207468726f7567682060408201526b6163746976652070726f787960a01b606082015260800190565b634e487b7160e01b600052601160045260246000fd5b8082018082111561496d5761496d614fe5565b8181038181111561496d5761496d614fe5565b805161408381614ae5565b60006020828403121561503e57600080fd5b815161406281614ae5565b60006020828403121561505b57600080fd5b5051919050565b8051801515811461408357600080fd5b60006020828403121561508457600080fd5b61406282615062565b808202811582820484141761496d5761496d614fe5565b6020808252602b908201527f496e697469616c697a61626c653a20636f6e7472616374206973206e6f74206960408201526a6e697469616c697a696e6760a81b606082015260800190565b634e487b7160e01b600052601260045260246000fd5b600082615114576151146150ef565b500690565b634e487b7160e01b600052603260045260246000fd5b805161408381614cef565b60005b8381101561515557818101518382015260200161513d565b50506000910152565b600082601f83011261516f57600080fd5b815161517d614c7482614bf3565b81815284602083860101111561519257600080fd5b6151a382602083016020870161513a565b949350505050565b6000602082840312156151bd57600080fd5b815167ffffffffffffffff808211156151d557600080fd5b90830190608082860312156151e957600080fd5b60405160808101818110838211171561520457615204614b83565b604052825161521281614cef565b815260208301518281111561522657600080fd5b6152328782860161515e565b602083015250604083015160408201526060830151606082015280935050505092915050565b60006020828403121561526a57600080fd5b815167ffffffffffffffff8082111561528257600080fd5b9083019060e0828603121561529657600080fd5b61529e614b99565b6152a783615021565b81526020830151828111156152bb57600080fd5b6152c78782860161515e565b6020830152506040830151828111156152df57600080fd5b6152eb8782860161515e565b6040830152506152fd6060840161512f565b606082015261530e60808401615062565b608082015261531f60a08401615021565b60a082015261533060c08401615062565b60c082015295945050505050565b6000602080838503121561535157600080fd5b825167ffffffffffffffff8082111561536957600080fd5b818501915085601f83011261537d57600080fd5b81518181111561538f5761538f614b83565b8060051b91506153a0848301614bc2565b81815291830184019184810190888411156153ba57600080fd5b938501935b838510156153ec578451925061ffff831683146153dc5760008081fd5b82825293850193908501906153bf565b98975050505050505050565b600063ffffffff80831681810361541157615411614fe5565b6001019392505050565b6000825161542d81846020870161513a565b9190910192915050565b600082615446576154466150ef565b500490565b60006020828403121561545d57600080fd5b815161406281614cef565b60ff818116838216019081111561496d5761496d614fe5565b600060ff821660ff810361549757615497614fe5565b60010192915050565b600181815b808511156154db5781600019048211156154c1576154c1614fe5565b808516156154ce57918102915b93841c93908002906154a5565b509250929050565b6000826154f25750600161496d565b816154ff5750600061496d565b8160018114615515576002811461551f5761553b565b600191505061496d565b60ff84111561553057615530614fe5565b50506001821b61496d565b5060208310610133831016604e8410600b841016171561555e575081810a61496d565b61556883836154a0565b806000190482111561557c5761557c614fe5565b029392505050565b600061406283836154e3565b60208152600082518060208401526155af81604085016020870161513a565b601f01601f1916919091016040019291505056fe360894a13ba1a3210667c828492db98dca3e2076cc3735a920a3ca505d382bbc416464726573733a206c6f772d6c6576656c2064656c65676174652063616c6c206661696c656400f37bd73ff29ab549d774afc91445bf33292ed9a4b4b4177fb1e61ff3c58469a2646970667358221220a97c874b61a7620af36f7d376488301e63a32e704a3c38439b68dabba9e8609064736f6c63430008120033",
  "linkReferences": {},
  "deployedLinkReferences": {}
}