{
  "_format": "hh-sol-artifact-1",
  "contractName": "ReferralV1Upgradeable",
  "sourceName": "contracts/ReferralV1Upgradeable.sol",
  "abi": [
    {
      "anonymous": false,
      "inputs": [
        {
          "indexed": false,
          "internalType": "address",
          "name": "previousAdmin",
          "type": "address"
        },
        {
          "indexed": false,
          "internalType": "address",
          "name": "newAdmin",
          "type": "address"
        }
      ],
      "name": "AdminChanged",
      "type": "event"
    },
    {
      "anonymous": false,
      "inputs": [
        {
          "indexed": true,
          "internalType": "address",
          "name": "beacon",
          "type": "address"
        }
      ],
      "name": "BeaconUpgraded",
      "type": "event"
    },
    {
      "anonymous": false,
      "inputs": [
        {
          "indexed": false,
          "internalType": "address",
          "name": "globalAddress",
          "type": "address"
        },
        {
          "indexed": false,
          "internalType": "address",
          "name": "userAddress",
          "type": "address"
        },
        {
          "indexed": false,
          "internalType": "uint256",
          "name": "registrationValue",
          "type": "uint256"
        },
        {
          "indexed": false,
          "internalType": "uint256",
          "name": "rewardValue",
          "type": "uint256"
        },
        {
          "indexed": false,
          "internalType": "uint16",
          "name": "rewardRate",
          "type": "uint16"
        },
        {
          "indexed": false,
          "internalType": "uint16",
          "name": "rewardRateDecimals",
          "type": "uint16"
        },
        {
          "indexed": false,
          "internalType": "string",
          "name": "reason",
          "type": "string"
        }
      ],
      "name": "GlobalRewardsNotPaid",
      "type": "event"
    },
    {
      "anonymous": false,
      "inputs": [
        {
          "indexed": false,
          "internalType": "address",
          "name": "globalAddress",
          "type": "address"
        },
        {
          "indexed": false,
          "internalType": "address",
          "name": "userAddress",
          "type": "address"
        },
        {
          "indexed": false,
          "internalType": "uint256",
          "name": "registrationValue",
          "type": "uint256"
        },
        {
          "indexed": false,
          "internalType": "uint256",
          "name": "rewardValue",
          "type": "uint256"
        },
        {
          "indexed": false,
          "internalType": "uint16",
          "name": "rewardRate",
          "type": "uint16"
        },
        {
          "indexed": false,
          "internalType": "uint16",
          "name": "rewardRateDecimals",
          "type": "uint16"
        }
      ],
      "name": "GlobalRewardsPaid",
      "type": "event"
    },
    {
      "anonymous": false,
      "inputs": [
        {
          "indexed": false,
          "internalType": "address",
          "name": "ibpAddress",
          "type": "address"
        },
        {
          "indexed": false,
          "internalType": "address",
          "name": "userAddress",
          "type": "address"
        }
      ],
      "name": "IBPAdded",
      "type": "event"
    },
    {
      "anonymous": false,
      "inputs": [
        {
          "indexed": false,
          "internalType": "address",
          "name": "ibpAddress",
          "type": "address"
        },
        {
          "indexed": false,
          "internalType": "address",
          "name": "userAddress",
          "type": "address"
        },
        {
          "indexed": false,
          "internalType": "string",
          "name": "reason",
          "type": "string"
        }
      ],
      "name": "IBPNotAdded",
      "type": "event"
    },
    {
      "anonymous": false,
      "inputs": [
        {
          "indexed": false,
          "internalType": "address",
          "name": "ibpAddress",
          "type": "address"
        },
        {
          "indexed": false,
          "internalType": "string",
          "name": "reason",
          "type": "string"
        }
      ],
      "name": "IBPRewardsNotPaid",
      "type": "event"
    },
    {
      "anonymous": false,
      "inputs": [
        {
          "indexed": false,
          "internalType": "address",
          "name": "ibpAddress",
          "type": "address"
        },
        {
          "indexed": false,
          "internalType": "address",
          "name": "userAddress",
          "type": "address"
        },
        {
          "indexed": false,
          "internalType": "uint256",
          "name": "businessValue",
          "type": "uint256"
        },
        {
          "indexed": false,
          "internalType": "uint256",
          "name": "rewardValue",
          "type": "uint256"
        },
        {
          "indexed": false,
          "internalType": "uint16",
          "name": "rewardRate",
          "type": "uint16"
        },
        {
          "indexed": false,
          "internalType": "uint16",
          "name": "rewardRateDecimals",
          "type": "uint16"
        }
      ],
      "name": "IBPRewardsPaid",
      "type": "event"
    },
    {
      "anonymous": false,
      "inputs": [
        {
          "indexed": false,
          "internalType": "uint8",
          "name": "version",
          "type": "uint8"
        }
      ],
      "name": "Initialized",
      "type": "event"
    },
    {
      "anonymous": false,
      "inputs": [
        {
          "indexed": false,
          "internalType": "address",
          "name": "userAddress",
          "type": "address"
        },
        {
          "indexed": false,
          "internalType": "string",
          "name": "reason",
          "type": "string"
        }
      ],
      "name": "NoRewardsPaid",
      "type": "event"
    },
    {
      "anonymous": false,
      "inputs": [
        {
          "indexed": true,
          "internalType": "address",
          "name": "previousOwner",
          "type": "address"
        },
        {
          "indexed": true,
          "internalType": "address",
          "name": "newOwner",
          "type": "address"
        }
      ],
      "name": "OwnershipTransferred",
      "type": "event"
    },
    {
      "anonymous": false,
      "inputs": [
        {
          "indexed": false,
          "internalType": "address",
          "name": "account",
          "type": "address"
        }
      ],
      "name": "Paused",
      "type": "event"
    },
    {
      "anonymous": false,
      "inputs": [
        {
          "indexed": false,
          "internalType": "address",
          "name": "referrerAddress",
          "type": "address"
        },
        {
          "indexed": false,
          "internalType": "address",
          "name": "userAddress",
          "type": "address"
        },
        {
          "indexed": false,
          "internalType": "uint256",
          "name": "value",
          "type": "uint256"
        },
        {
          "indexed": false,
          "internalType": "uint256",
          "name": "rewardValue",
          "type": "uint256"
        },
        {
          "indexed": false,
          "internalType": "uint256",
          "name": "rewardRate",
          "type": "uint256"
        },
        {
          "indexed": false,
          "internalType": "uint256",
          "name": "rewardRateDecimals",
          "type": "uint256"
        },
        {
          "indexed": false,
          "internalType": "uint32",
          "name": "level",
          "type": "uint32"
        }
      ],
      "name": "ReferralRewardsPaid",
      "type": "event"
    },
    {
      "anonymous": false,
      "inputs": [
        {
          "indexed": false,
          "internalType": "address",
          "name": "referrerAddress",
          "type": "address"
        },
        {
          "indexed": false,
          "internalType": "address",
          "name": "refereeAddress",
          "type": "address"
        }
      ],
      "name": "ReferrerAdded",
      "type": "event"
    },
    {
      "anonymous": false,
      "inputs": [
        {
          "indexed": false,
          "internalType": "address",
          "name": "referrerAddress",
          "type": "address"
        },
        {
          "indexed": false,
          "internalType": "address",
          "name": "refereeAddress",
          "type": "address"
        },
        {
          "indexed": false,
          "internalType": "string",
          "name": "reason",
          "type": "string"
        }
      ],
      "name": "ReferrerNotAdded",
      "type": "event"
    },
    {
      "anonymous": false,
      "inputs": [
        {
          "indexed": false,
          "internalType": "address",
          "name": "userAddress",
          "type": "address"
        },
        {
          "indexed": false,
          "internalType": "uint32",
          "name": "userId",
          "type": "uint32"
        },
        {
          "indexed": false,
          "internalType": "uint8",
          "name": "planId",
          "type": "uint8"
        },
        {
          "indexed": false,
          "internalType": "address",
          "name": "referrerAddress",
          "type": "address"
        }
      ],
      "name": "Registration",
      "type": "event"
    },
    {
      "anonymous": false,
      "inputs": [
        {
          "indexed": false,
          "internalType": "address",
          "name": "parentAddress",
          "type": "address"
        },
        {
          "indexed": false,
          "internalType": "address",
          "name": "referrerAddress",
          "type": "address"
        },
        {
          "indexed": false,
          "internalType": "address",
          "name": "refereeAddress",
          "type": "address"
        },
        {
          "indexed": false,
          "internalType": "uint32",
          "name": "level",
          "type": "uint32"
        }
      ],
      "name": "TeamAddressAdded",
      "type": "event"
    },
    {
      "anonymous": false,
      "inputs": [
        {
          "indexed": false,
          "internalType": "address",
          "name": "account",
          "type": "address"
        }
      ],
      "name": "Unpaused",
      "type": "event"
    },
    {
      "anonymous": false,
      "inputs": [
        {
          "indexed": true,
          "internalType": "address",
          "name": "implementation",
          "type": "address"
        }
      ],
      "name": "Upgraded",
      "type": "event"
    },
    {
      "anonymous": false,
      "inputs": [
        {
          "indexed": false,
          "internalType": "address",
          "name": "globalAddress",
          "type": "address"
        },
        {
          "indexed": false,
          "internalType": "uint256",
          "name": "rewardValue",
          "type": "uint256"
        }
      ],
      "name": "WeeklyRewardsPaid",
      "type": "event"
    },
    {
      "inputs": [
        {
          "internalType": "address",
          "name": "_userAddress",
          "type": "address"
        },
        {
          "internalType": "address",
          "name": "_ibpAddress",
          "type": "address"
        }
      ],
      "name": "addIbpToAddressAdmin",
      "outputs": [],
      "stateMutability": "nonpayable",
      "type": "function"
    },
    {
      "inputs": [
        {
          "internalType": "address",
          "name": "_tokenAddress",
          "type": "address"
        }
      ],
      "name": "distributeWeeklyReward",
      "outputs": [
        {
          "internalType": "address",
          "name": "",
          "type": "address"
        }
      ],
      "stateMutability": "nonpayable",
      "type": "function"
    },
    {
      "inputs": [],
      "name": "getRegistrationsStats",
      "outputs": [
        {
          "internalType": "uint32",
          "name": "totalUser",
          "type": "uint32"
        },
        {
          "internalType": "uint256",
          "name": "totalRegistrationValue",
          "type": "uint256"
        },
        {
          "internalType": "uint256",
          "name": "totalReferralPaid",
          "type": "uint256"
        },
        {
          "internalType": "uint256",
          "name": "totalGlobalRewardsPaid",
          "type": "uint256"
        },
        {
          "internalType": "uint256",
          "name": "totalWeeklyRewardsPaid",
          "type": "uint256"
        },
        {
          "internalType": "uint256",
          "name": "totalCoreMembershipRewardPaid",
          "type": "uint256"
        },
        {
          "internalType": "uint256",
          "name": "totalIbpRewardsPaid",
          "type": "uint256"
        }
      ],
      "stateMutability": "view",
      "type": "function"
    },
    {
      "inputs": [
        {
          "internalType": "address",
          "name": "_userAddress",
          "type": "address"
        }
      ],
      "name": "getUserAccount",
      "outputs": [
        {
          "components": [
            {
              "internalType": "uint32",
              "name": "userId",
              "type": "uint32"
            },
            {
              "internalType": "address",
              "name": "selfAddress",
              "type": "address"
            },
            {
              "internalType": "address",
              "name": "ibpAddress",
              "type": "address"
            },
            {
              "internalType": "address",
              "name": "referrerAddress",
              "type": "address"
            },
            {
              "internalType": "address[]",
              "name": "refereeAddresses",
              "type": "address[]"
            },
            {
              "internalType": "address[]",
              "name": "teamAddress",
              "type": "address[]"
            },
            {
              "internalType": "uint32[]",
              "name": "teamLevels",
              "type": "uint32[]"
            },
            {
              "internalType": "uint256",
              "name": "selfBusiness",
              "type": "uint256"
            },
            {
              "internalType": "uint256",
              "name": "directBusiness",
              "type": "uint256"
            },
            {
              "internalType": "uint256",
              "name": "teamBusiness",
              "type": "uint256"
            },
            {
              "internalType": "uint256",
              "name": "maxLimit",
              "type": "uint256"
            },
            {
              "internalType": "uint256",
              "name": "currentLimit",
              "type": "uint256"
            },
            {
              "internalType": "uint256",
              "name": "referralRewards",
              "type": "uint256"
            },
            {
              "internalType": "uint256",
              "name": "globalRewards",
              "type": "uint256"
            },
            {
              "internalType": "uint256",
              "name": "weeklyRewards",
              "type": "uint256"
            },
            {
              "internalType": "uint256",
              "name": "ibpRewards",
              "type": "uint256"
            },
            {
              "internalType": "bool",
              "name": "isGlobal",
              "type": "bool"
            },
            {
              "internalType": "uint32[]",
              "name": "globalIndexes",
              "type": "uint32[]"
            }
          ],
          "internalType": "struct AccountStruct",
          "name": "",
          "type": "tuple"
        }
      ],
      "stateMutability": "view",
      "type": "function"
    },
    {
      "inputs": [
        {
          "internalType": "address",
          "name": "_userAddress",
          "type": "address"
        }
      ],
      "name": "getUserBusiness",
      "outputs": [
        {
          "internalType": "uint256",
          "name": "selfBusiness",
          "type": "uint256"
        },
        {
          "internalType": "uint256",
          "name": "directBusiness",
          "type": "uint256"
        },
        {
          "internalType": "uint256",
          "name": "teamBusiness",
          "type": "uint256"
        },
        {
          "internalType": "uint256",
          "name": "totalBusiness",
          "type": "uint256"
        }
      ],
      "stateMutability": "view",
      "type": "function"
    },
    {
      "inputs": [
        {
          "internalType": "address",
          "name": "_userAddress",
          "type": "address"
        }
      ],
      "name": "getUserIbpAddress",
      "outputs": [
        {
          "internalType": "address",
          "name": "",
          "type": "address"
        }
      ],
      "stateMutability": "view",
      "type": "function"
    },
    {
      "inputs": [
        {
          "internalType": "address",
          "name": "_userAddress",
          "type": "address"
        }
      ],
      "name": "getUserLimit",
      "outputs": [
        {
          "internalType": "uint256",
          "name": "maxLimit",
          "type": "uint256"
        },
        {
          "internalType": "uint256",
          "name": "currentLimit",
          "type": "uint256"
        },
        {
          "internalType": "uint256",
          "name": "limitRemaingvalue",
          "type": "uint256"
        }
      ],
      "stateMutability": "view",
      "type": "function"
    },
    {
      "inputs": [
        {
          "internalType": "address",
          "name": "_userAddress",
          "type": "address"
        }
      ],
      "name": "getUserRewards",
      "outputs": [
        {
          "internalType": "uint256",
          "name": "referralReward",
          "type": "uint256"
        },
        {
          "internalType": "uint256",
          "name": "globalReward",
          "type": "uint256"
        },
        {
          "internalType": "uint256",
          "name": "weeklyReward",
          "type": "uint256"
        },
        {
          "internalType": "uint256",
          "name": "ibpReward",
          "type": "uint256"
        },
        {
          "internalType": "uint256",
          "name": "totalIncome",
          "type": "uint256"
        }
      ],
      "stateMutability": "view",
      "type": "function"
    },
    {
      "inputs": [
        {
          "internalType": "address",
          "name": "_userAddress",
          "type": "address"
        }
      ],
      "name": "getUserTeam",
      "outputs": [
        {
          "internalType": "address",
          "name": "referrer",
          "type": "address"
        },
        {
          "internalType": "address[]",
          "name": "referees",
          "type": "address[]"
        },
        {
          "internalType": "uint256",
          "name": "refereeCount",
          "type": "uint256"
        },
        {
          "internalType": "address[]",
          "name": "team",
          "type": "address[]"
        },
        {
          "internalType": "uint32[]",
          "name": "teamLevels",
          "type": "uint32[]"
        },
        {
          "internalType": "uint256",
          "name": "teamCount",
          "type": "uint256"
        }
      ],
      "stateMutability": "view",
      "type": "function"
    },
    {
      "inputs": [],
      "name": "getVariablesContract",
      "outputs": [
        {
          "internalType": "address",
          "name": "",
          "type": "address"
        }
      ],
      "stateMutability": "view",
      "type": "function"
    },
    {
      "inputs": [],
      "name": "getWeeklyRewardToBeDistributed",
      "outputs": [
        {
          "internalType": "uint256",
          "name": "",
          "type": "uint256"
        }
      ],
      "stateMutability": "view",
      "type": "function"
    },
    {
      "inputs": [],
      "name": "getWeeklyRewardsRemainTime",
      "outputs": [
        {
          "internalType": "uint256",
          "name": "",
          "type": "uint256"
        }
      ],
      "stateMutability": "view",
      "type": "function"
    },
    {
      "inputs": [],
      "name": "initialize",
      "outputs": [],
      "stateMutability": "nonpayable",
      "type": "function"
    },
    {
      "inputs": [
        {
          "internalType": "address",
          "name": "_userAddress",
          "type": "address"
        }
      ],
      "name": "isUserInGlobalList",
      "outputs": [
        {
          "internalType": "bool",
          "name": "isInList",
          "type": "bool"
        },
        {
          "internalType": "uint32[]",
          "name": "indexes",
          "type": "uint32[]"
        },
        {
          "internalType": "uint256",
          "name": "totalGlobalIds",
          "type": "uint256"
        }
      ],
      "stateMutability": "view",
      "type": "function"
    },
    {
      "inputs": [],
      "name": "owner",
      "outputs": [
        {
          "internalType": "address",
          "name": "",
          "type": "address"
        }
      ],
      "stateMutability": "view",
      "type": "function"
    },
    {
      "inputs": [],
      "name": "pause",
      "outputs": [],
      "stateMutability": "nonpayable",
      "type": "function"
    },
    {
      "inputs": [],
      "name": "paused",
      "outputs": [
        {
          "internalType": "bool",
          "name": "",
          "type": "bool"
        }
      ],
      "stateMutability": "view",
      "type": "function"
    },
    {
      "inputs": [],
      "name": "proxiableUUID",
      "outputs": [
        {
          "internalType": "bytes32",
          "name": "",
          "type": "bytes32"
        }
      ],
      "stateMutability": "view",
      "type": "function"
    },
    {
      "inputs": [
        {
          "internalType": "address",
          "name": "_referrer",
          "type": "address"
        },
        {
          "internalType": "uint8",
          "name": "_planId",
          "type": "uint8"
        },
        {
          "internalType": "address",
          "name": "_tokenAddress",
          "type": "address"
        }
      ],
      "name": "registrationWithToken",
      "outputs": [],
      "stateMutability": "nonpayable",
      "type": "function"
    },
    {
      "inputs": [
        {
          "internalType": "address",
          "name": "_userAddress",
          "type": "address"
        }
      ],
      "name": "removeIbpFromAddressAdmin",
      "outputs": [],
      "stateMutability": "nonpayable",
      "type": "function"
    },
    {
      "inputs": [],
      "name": "renounceOwnership",
      "outputs": [],
      "stateMutability": "nonpayable",
      "type": "function"
    },
    {
      "inputs": [
        {
          "internalType": "address",
          "name": "_contractAddress",
          "type": "address"
        }
      ],
      "name": "setVariablesContract",
      "outputs": [],
      "stateMutability": "nonpayable",
      "type": "function"
    },
    {
      "inputs": [
        {
          "internalType": "address",
          "name": "newOwner",
          "type": "address"
        }
      ],
      "name": "transferOwnership",
      "outputs": [],
      "stateMutability": "nonpayable",
      "type": "function"
    },
    {
      "inputs": [],
      "name": "unpause",
      "outputs": [],
      "stateMutability": "nonpayable",
      "type": "function"
    },
    {
      "inputs": [
        {
          "internalType": "address",
          "name": "newImplementation",
          "type": "address"
        }
      ],
      "name": "upgradeTo",
      "outputs": [],
      "stateMutability": "nonpayable",
      "type": "function"
    },
    {
      "inputs": [
        {
          "internalType": "address",
          "name": "newImplementation",
          "type": "address"
        },
        {
          "internalType": "bytes",
          "name": "data",
          "type": "bytes"
        }
      ],
      "name": "upgradeToAndCall",
      "outputs": [],
      "stateMutability": "payable",
      "type": "function"
    },
    {
      "stateMutability": "payable",
      "type": "receive"
    }
  ],
  "bytecode": "0x60a06040523060805234801561001457600080fd5b5060805161560a6200004d60003960008181610895015281816108de01528181610cbf01528181610cff0152610d92015261560a6000f3fe6080604052600436106101855760003560e01c8063846688f7116100d1578063e6f6769e1161008a578063f2fde38b11610064578063f2fde38b146104d1578063f87127b4146104f1578063faeda7e514610531578063fb47e0161461056357600080fd5b8063e6f6769e14610458578063e9587e8614610478578063f13a143f146104b357600080fd5b8063846688f71461037f5780638da5cb5b14610394578063967012eb146103c6578063986992fa14610403578063aa8d713a14610418578063d277b8a91461043857600080fd5b806349c03d0d1161013e5780635c975abb116101185780635c975abb1461031d578063715018a6146103405780638129fc1c146103555780638456cb591461036a57600080fd5b806349c03d0d146102c75780634f1ef286146102e757806352d1902d146102fa57600080fd5b80630690c6a814610191578063078b0fb7146101f95780630ba0dba3146102415780633659cfe6146102635780633ef575e9146102835780633f4ba83a146102b257600080fd5b3661018c57005b600080fd5b34801561019d57600080fd5b5060fd5460fe5461010154610102546101035461010454610105546040805163ffffffff90981688526020880196909652948601939093526060850191909152608084015260a083015260c082015260e0015b60405180910390f35b34801561020557600080fd5b50610219610214366004614aac565b610590565b604080519586526020860194909452928401919091526060830152608082015260a0016101f0565b34801561024d57600080fd5b5061026161025c366004614aac565b610861565b005b34801561026f57600080fd5b5061026161027e366004614aac565b61088b565b34801561028f57600080fd5b506102a361029e366004614aac565b610973565b6040516101f093929190614b0a565b3480156102be57600080fd5b50610261610c3e565b3480156102d357600080fd5b506102616102e2366004614b35565b610c50565b6102616102f5366004614c06565b610cb5565b34801561030657600080fd5b5061030f610d85565b6040519081526020016101f0565b34801561032957600080fd5b5060335460ff1660405190151581526020016101f0565b34801561034c57600080fd5b50610261610e38565b34801561036157600080fd5b50610261610e4a565b34801561037657600080fd5b50610261610f96565b34801561038b57600080fd5b5060ff5461030f565b3480156103a057600080fd5b506065546001600160a01b03165b6040516001600160a01b0390911681526020016101f0565b3480156103d257600080fd5b506103ae6103e1366004614aac565b6001600160a01b03908116600090815261010660205260409020600101541690565b34801561040f57600080fd5b5061030f610fa6565b34801561042457600080fd5b50610261610433366004614aac565b610fdf565b34801561044457600080fd5b506103ae610453366004614aac565b611125565b34801561046457600080fd5b50610261610473366004614ca8565b611347565b34801561048457600080fd5b50610498610493366004614aac565b61135a565b604080519384526020840192909252908201526060016101f0565b3480156104bf57600080fd5b5060fb546001600160a01b03166103ae565b3480156104dd57600080fd5b506102616104ec366004614aac565b611620565b3480156104fd57600080fd5b5061051161050c366004614aac565b611696565b6040805194855260208501939093529183015260608201526080016101f0565b34801561053d57600080fd5b5061055161054c366004614aac565b611967565b6040516101f096959493929190614d2c565b34801561056f57600080fd5b5061058361057e366004614aac565b611c40565b6040516101f09190614d90565b6001600160a01b03808216600090815261010660209081526040808320815161024081018352815463ffffffff81168252600160201b90048616818501526001820154861681840152600282015490951660608601526003810180548351818602810186019094528084529495869586958695869586959093608086019383018282801561064757602002820191906000526020600020905b81546001600160a01b03168152600190910190602001808311610629575b50505050508152602001600482018054806020026020016040519081016040528092919081815260200182805480156106a957602002820191906000526020600020905b81546001600160a01b0316815260019091019060200180831161068b575b505050505081526020016005820180548060200260200160405190810160405280929190818152602001828054801561072d57602002820191906000526020600020906000905b82829054906101000a900463ffffffff1663ffffffff16815260200190600401906020826003010492830192600103820291508084116106f05790505b5050505050815260200160068201548152602001600782015481526020016008820154815260200160098201548152602001600a8201548152602001600b8201548152602001600c8201548152602001600d8201548152602001600e8201548152602001600f820160009054906101000a900460ff161515151581526020016010820180548060200260200160405190810160405280929190818152602001828054801561082657602002820191906000526020600020906000905b82829054906101000a900463ffffffff1663ffffffff16815260200190600401906020826003010492830192600103820291508084116107e95790505b505050919092525050506101808101516101a08201516101c08301516101e084015161016090940151929b919a509850919650945092505050565b610869611f8f565b60fb80546001600160a01b0319166001600160a01b0392909216919091179055565b6001600160a01b037f00000000000000000000000000000000000000000000000000000000000000001630036108dc5760405162461bcd60e51b81526004016108d390614ef7565b60405180910390fd5b7f00000000000000000000000000000000000000000000000000000000000000006001600160a01b031661092560008051602061556e833981519152546001600160a01b031690565b6001600160a01b03161461094b5760405162461bcd60e51b81526004016108d390614f43565b61095481611fe9565b6040805160008082526020820190925261097091839190611ff1565b50565b6001600160a01b03808216600090815261010660209081526040808320815161024081018352815463ffffffff81168252600160201b9004861681850152600182015486168184015260028201549095166060868101919091526003820180548451818702810187019095528085529596919587958695939493608086019390929091830182828015610a2f57602002820191906000526020600020905b81546001600160a01b03168152600190910190602001808311610a11575b5050505050815260200160048201805480602002602001604051908101604052809291908181526020018280548015610a9157602002820191906000526020600020905b81546001600160a01b03168152600190910190602001808311610a73575b5050505050815260200160058201805480602002602001604051908101604052809291908181526020018280548015610b1557602002820191906000526020600020906000905b82829054906101000a900463ffffffff1663ffffffff1681526020019060040190602082600301049283019260010382029150808411610ad85790505b5050505050815260200160068201548152602001600782015481526020016008820154815260200160098201548152602001600a8201548152602001600b8201548152602001600c8201548152602001600d8201548152602001600e8201548152602001600f820160009054906101000a900460ff1615151515815260200160108201805480602002602001604051908101604052809291908181526020018280548015610c0e57602002820191906000526020600020906000905b82829054906101000a900463ffffffff1663ffffffff1681526020019060040190602082600301049283019260010382029150808411610bd15790505b50505050508152505090506000816102200151511115610c2d57600193505b610220015180519395909450915050565b610c46611f8f565b610c4e612161565b565b610c58611f8f565b6001600160a01b038281166000818152610106602090815260409182902060010180546001600160a01b031916948616948517905581519384528301919091526000805160206155b5833981519152910160405180910390a15050565b6001600160a01b037f0000000000000000000000000000000000000000000000000000000000000000163003610cfd5760405162461bcd60e51b81526004016108d390614ef7565b7f00000000000000000000000000000000000000000000000000000000000000006001600160a01b0316610d4660008051602061556e833981519152546001600160a01b031690565b6001600160a01b031614610d6c5760405162461bcd60e51b81526004016108d390614f43565b610d7582611fe9565b610d8182826001611ff1565b5050565b6000306001600160a01b037f00000000000000000000000000000000000000000000000000000000000000001614610e255760405162461bcd60e51b815260206004820152603860248201527f555550535570677261646561626c653a206d757374206e6f742062652063616c60448201527f6c6564207468726f7567682064656c656761746563616c6c000000000000000060648201526084016108d3565b5060008051602061556e83398151915290565b610e40611f8f565b610c4e60006121b3565b600054610100900460ff1615808015610e6a5750600054600160ff909116105b80610e845750303b158015610e84575060005460ff166001145b610ee75760405162461bcd60e51b815260206004820152602e60248201527f496e697469616c697a61626c653a20636f6e747261637420697320616c72656160448201526d191e481a5b9a5d1a585b1a5e995960921b60648201526084016108d3565b6000805460ff191660011790558015610f0a576000805461ff0019166101001790555b60fb80546001600160a01b03191673494549e00fe6598e3dc93254c5377c406dda85791790554261010055610f3d612205565b610f45612234565b610f4d612263565b8015610970576000805461ff0019169055604051600181527f7f26b83ff96e1f2b6a682f133852f6798a09c465da95921460cefb3847402498906020015b60405180910390a150565b610f9e611f8f565b610c4e61228a565b6000806101005462093a80610fbb9190614fa5565b905042818110610fce5760009250505090565b610fd88183614fb8565b9250505090565b610fe7611f8f565b60fb60009054906101000a90046001600160a01b03166001600160a01b031663b2e6b9126040518163ffffffff1660e01b8152600401602060405180830381865afa15801561103a573d6000803e3d6000fd5b505050506040513d601f19601f8201168201806040525081019061105e9190614fd6565b6001600160a01b038281166000908152610106602090815260409182902060010180546001600160a01b0319169484169490941790935560fb5481516359735c8960e11b815291516000805160206155b583398151915294919093169263b2e6b9129260048082019392918290030181865afa1580156110e2573d6000803e3d6000fd5b505050506040513d601f19601f820116820180604052508101906111069190614fd6565b604080516001600160a01b039283168152918416602083015201610f8b565b6000806101005462093a8061113a9190614fa5565b9050428181101561118d5760405162461bcd60e51b815260206004820152601c60248201527f5765656b6c792074696d65206973206e6f74206f766572207965742e0000000060448201526064016108d3565b60006111976122c7565b6040516370a0823160e01b81523060048201529091506000906001600160a01b038716906370a0823190602401602060405180830381865afa1580156111e1573d6000803e3d6000fd5b505050506040513d601f19601f820116820180604052508101906112059190614ff3565b60ff54909150808210156112815760405162461bcd60e51b815260206004820152603760248201527f436f6e74726163742068617320696e73756666696369656e742062616c616e6360448201527f6520746f2064697374726962757465207265776172642e00000000000000000060648201526084016108d3565b60405163a9059cbb60e01b81526001600160a01b0384811660048301526024820183905288169063a9059cbb906044016020604051808303816000875af11580156112d0573d6000803e3d6000fd5b505050506040513d601f19601f820116820180604052508101906112f4919061501c565b50600060ff55604080516001600160a01b0385168152602081018390527ffff6edc60fd30afefcc47525cdf85502200830b22550391f79f9e383df03afad910160405180910390a1509095945050505050565b336113548482858561234e565b50505050565b6001600160a01b03808216600090815261010660209081526040808320815161024081018352815463ffffffff81168252600160201b90048616818501526001820154861681840152600282015490951660608601526003810180548351818602810186019094528084529495869586958695929493608086019392909183018282801561141157602002820191906000526020600020905b81546001600160a01b031681526001909101906020018083116113f3575b505050505081526020016004820180548060200260200160405190810160405280929190818152602001828054801561147357602002820191906000526020600020905b81546001600160a01b03168152600190910190602001808311611455575b50505050508152602001600582018054806020026020016040519081016040528092919081815260200182805480156114f757602002820191906000526020600020906000905b82829054906101000a900463ffffffff1663ffffffff16815260200190600401906020826003010492830192600103820291508084116114ba5790505b5050505050815260200160068201548152602001600782015481526020016008820154815260200160098201548152602001600a8201548152602001600b8201548152602001600c8201548152602001600d8201548152602001600e8201548152602001600f820160009054906101000a900460ff16151515158152602001601082018054806020026020016040519081016040528092919081815260200182805480156115f057602002820191906000526020600020906000905b82829054906101000a900463ffffffff1663ffffffff16815260200190600401906020826003010492830192600103820291508084116115b35790505b50505091909252505050610140810151610160820151909550935090506116178385614fb8565b93959294505050565b611628611f8f565b6001600160a01b03811661168d5760405162461bcd60e51b815260206004820152602660248201527f4f776e61626c653a206e6577206f776e657220697320746865207a65726f206160448201526564647265737360d01b60648201526084016108d3565b610970816121b3565b6001600160a01b03808216600090815261010660209081526040808320815161024081018352815463ffffffff81168252600160201b90048616818501526001820154861681840152600282015490951660608601526003810180548351818602810186019094528084529495869586958695869593946080860193919290919083018282801561175057602002820191906000526020600020905b81546001600160a01b03168152600190910190602001808311611732575b50505050508152602001600482018054806020026020016040519081016040528092919081815260200182805480156117b257602002820191906000526020600020905b81546001600160a01b03168152600190910190602001808311611794575b505050505081526020016005820180548060200260200160405190810160405280929190818152602001828054801561183657602002820191906000526020600020906000905b82829054906101000a900463ffffffff1663ffffffff16815260200190600401906020826003010492830192600103820291508084116117f95790505b5050505050815260200160068201548152602001600782015481526020016008820154815260200160098201548152602001600a8201548152602001600b8201548152602001600c8201548152602001600d8201548152602001600e8201548152602001600f820160009054906101000a900460ff161515151581526020016010820180548060200260200160405190810160405280929190818152602001828054801561192f57602002820191906000526020600020906000905b82829054906101000a900463ffffffff1663ffffffff16815260200190600401906020826003010492830192600103820291508084116118f25790505b5050509190925250505060e081015161010082015161012083015191975095509350905061195d8584614fa5565b9150509193509193565b6001600160a01b03808216600090815261010660209081526040808320815161024081018352815463ffffffff81168252600160201b90048616818501526001820154861681840152600282015490951660608681019190915260038201805484518187028101870190955280855295969195879587958695889586959094919360808601939290830182828015611a2857602002820191906000526020600020905b81546001600160a01b03168152600190910190602001808311611a0a575b5050505050815260200160048201805480602002602001604051908101604052809291908181526020018280548015611a8a57602002820191906000526020600020905b81546001600160a01b03168152600190910190602001808311611a6c575b5050505050815260200160058201805480602002602001604051908101604052809291908181526020018280548015611b0e57602002820191906000526020600020906000905b82829054906101000a900463ffffffff1663ffffffff1681526020019060040190602082600301049283019260010382029150808411611ad15790505b5050505050815260200160068201548152602001600782015481526020016008820154815260200160098201548152602001600a8201548152602001600b8201548152602001600c8201548152602001600d8201548152602001600e8201548152602001600f820160009054906101000a900460ff1615151515815260200160108201805480602002602001604051908101604052809291908181526020018280548015611c0757602002820191906000526020600020906000905b82829054906101000a900463ffffffff1663ffffffff1681526020019060040190602082600301049283019260010382029150808411611bca5790505b5050509190925250505060608101516080820151805160a084015160c0909401518451939d929c50909a50929850919650945092505050565b611cf1604051806102400160405280600063ffffffff16815260200160006001600160a01b0316815260200160006001600160a01b0316815260200160006001600160a01b03168152602001606081526020016060815260200160608152602001600081526020016000815260200160008152602001600081526020016000815260200160008152602001600081526020016000815260200160008152602001600015158152602001606081525090565b6001600160a01b0380831660009081526101066020908152604091829020825161024081018452815463ffffffff81168252600160201b900485168184015260018201548516818501526002820154909416606085015260038101805484518185028101850190955280855291936080860193909290830182828015611da057602002820191906000526020600020905b81546001600160a01b03168152600190910190602001808311611d82575b5050505050815260200160048201805480602002602001604051908101604052809291908181526020018280548015611e0257602002820191906000526020600020905b81546001600160a01b03168152600190910190602001808311611de4575b5050505050815260200160058201805480602002602001604051908101604052809291908181526020018280548015611e8657602002820191906000526020600020906000905b82829054906101000a900463ffffffff1663ffffffff1681526020019060040190602082600301049283019260010382029150808411611e495790505b5050505050815260200160068201548152602001600782015481526020016008820154815260200160098201548152602001600a8201548152602001600b8201548152602001600c8201548152602001600d8201548152602001600e8201548152602001600f820160009054906101000a900460ff1615151515815260200160108201805480602002602001604051908101604052809291908181526020018280548015611f7f57602002820191906000526020600020906000905b82829054906101000a900463ffffffff1663ffffffff1681526020019060040190602082600301049283019260010382029150808411611f425790505b5050505050815250509050919050565b6065546001600160a01b03163314610c4e5760405162461bcd60e51b815260206004820181905260248201527f4f776e61626c653a2063616c6c6572206973206e6f7420746865206f776e657260448201526064016108d3565b610970611f8f565b7f4910fdfa16fed3260ed0e7147f7cc6da11a60208b5b9406d12a635614ffd91435460ff16156120295761202483613e32565b505050565b826001600160a01b03166352d1902d6040518163ffffffff1660e01b8152600401602060405180830381865afa925050508015612083575060408051601f3d908101601f1916820190925261208091810190614ff3565b60015b6120e65760405162461bcd60e51b815260206004820152602e60248201527f45524331393637557067726164653a206e657720696d706c656d656e7461746960448201526d6f6e206973206e6f74205555505360901b60648201526084016108d3565b60008051602061556e83398151915281146121555760405162461bcd60e51b815260206004820152602960248201527f45524331393637557067726164653a20756e737570706f727465642070726f786044820152681a58589b195555525160ba1b60648201526084016108d3565b50612024838383613ece565b612169613ef3565b6033805460ff191690557f5db9ee0a495bf2e6ff9c91a7834c1ba4fdd244a5e8aa4e537bd38aeae4b073aa335b6040516001600160a01b03909116815260200160405180910390a1565b606580546001600160a01b038381166001600160a01b0319831681179093556040519116919082907f8be0079c531659141344cd1fd0a4f28419497f9722a3daafe3b4186f6b6457e090600090a35050565b600054610100900460ff1661222c5760405162461bcd60e51b81526004016108d390615037565b610c4e613f3c565b600054610100900460ff1661225b5760405162461bcd60e51b81526004016108d390615037565b610c4e613f6f565b600054610100900460ff16610c4e5760405162461bcd60e51b81526004016108d390615037565b612292613f9f565b6033805460ff191660011790557f62e78cea01bee320cd4e420270b5ea74000d11b0c9f74754ebdbfc544b05a2586121963390565b60008042446122d7600143614fb8565b60408051602081019490945283019190915240606082015260800160408051601f19818403018152919052805160209091012060fc5490915060009061231d9083615098565b905060fc8181548110612332576123326150ac565b6000918252602090912001546001600160a01b03169392505050565b60fb54604051630efc12b160e01b815260ff841660048201526001600160a01b03909116906000908290630efc12b190602401600060405180830381865afa15801561239e573d6000803e3d6000fd5b505050506040513d6000823e601f3d908101601f191682016040526123c6919081019061513e565b9050600081604001511161242f5760405162461bcd60e51b815260206004820152602a60248201527f56616c7565206973207a65726f2e20506c656173652073656c65637420636f726044820152693932b1ba10383630b71760b11b60648201526084016108d3565b6040516373a5799760e11b81526001600160a01b0384811660048301526000919084169063e74af32e90602401600060405180830381865afa158015612479573d6000803e3d6000fd5b505050506040513d6000823e601f3d908101601f191682016040526124a191908101906151eb565b6060810151815160c083015192935090916125095760405162461bcd60e51b815260206004820152602260248201527f546f6b656e206973206e6f7420737570706f72746564206f722064697361626c604482015261195960f21b60648201526084016108d3565b6000856001600160a01b031663918a54db6040518163ffffffff1660e01b8152600401600060405180830381865afa158015612549573d6000803e3d6000fd5b505050506040513d6000823e601f3d908101601f1916820160405261257191908101906152d1565b9050866001600160a01b03166323b872dd8a3060128760ff16106125995788604001516125ac565b6125ac896040015160128960ff16613fe5565b6040516001600160e01b031960e086901b1681526001600160a01b03938416600482015292909116602483015260448201526064016020604051808303816000875af1158015612600573d6000803e3d6000fd5b505050506040513d601f19601f82011682018060405250810190612624919061501c565b506001600160a01b0389166000908152610106602052604081208054909163ffffffff90911690036126c15760fd805463ffffffff169060006126668361538b565b82546101009290920a63ffffffff81810219909316918316021790915560fd548354911663ffffffff199091168117835560009081526101076020526040902080546001600160a01b0319166001600160a01b038d16179055505b8054640100000000600160c01b031916600160201b6001600160a01b038c160217815560408601516006820180546000906126fd908490614fa5565b90915550506060860151604087015161271691906153ae565b8160090160008282546127299190614fa5565b90915550506040516204942560ec1b602082015260230160405160208183030381529060405280519060200120866020015160405160200161276b91906153c5565b604051602081830303815290604052805190602001201480156127a75750805460018201546001600160a01b03908116600160201b9092041614155b156127d8578054600182018054600160201b9092046001600160a01b03166001600160a01b03199092169190911790555b6040805161024081018252825463ffffffff811682526001600160a01b03600160201b9091048116602080840191909152600185015482168385015260028501549091166060830152600384018054845181840281018401909552808552612a6a948693608086019391929083018282801561287d57602002820191906000526020600020905b81546001600160a01b0316815260019091019060200180831161285f575b50505050508152602001600482018054806020026020016040519081016040528092919081815260200182805480156128df57602002820191906000526020600020905b81546001600160a01b031681526001909101906020018083116128c1575b505050505081526020016005820180548060200260200160405190810160405280929190818152602001828054801561296357602002820191906000526020600020906000905b82829054906101000a900463ffffffff1663ffffffff16815260200190600401906020826003010492830192600103820291508084116129265790505b5050505050815260200160068201548152602001600782015481526020016008820154815260200160098201548152602001600a8201548152602001600b8201548152602001600c8201548152602001600d8201548152602001600e8201548152602001600f820160009054906101000a900460ff1615151515815260200160108201805480602002602001604051908101604052809291908181526020018280548015612a5c57602002820191906000526020600020906000905b82829054906101000a900463ffffffff1663ffffffff1681526020019060040190602082600301049283019260010382029150808411612a1f5790505b50505050508152505061401b565b612a7b57612a7b8b8b84518a61403a565b8054600282015460408051600160201b84046001600160a01b03908116825263ffffffff909416602082015260ff8d1681830152929091166060830152517fccdfed8601106cae21493f7848436196048b60f2dc70db89d92e3acdabb0ee299181900360800190a160fc5415612cb1576000612af56122c7565b90506001600160a01b03811615612caf576001600160a01b0381166000908152610106602052604080822090890151909190606490612b3590600a6153ae565b612b3f91906153e1565b90508082600c016000828254612b559190614fa5565b925050819055508082600a016000828254612b709190614fa5565b90915550506001600160a01b03861663a9059cbb84601260ff8b1610612b965783612ba5565b612ba58460128c60ff16613fe5565b6040516001600160e01b031960e085901b1681526001600160a01b03909216600483015260248201526044016020604051808303816000875af1158015612bf0573d6000803e3d6000fd5b505050506040513d601f19601f82011682018060405250810190612c14919061501c565b507f693fc02576006378cd4577590d99ad6b18ad4c566c433b85643d7b07a4815665838e8b6040015184600a6064604051612c8c969594939291906001600160a01b0396871681529490951660208501526040840192909252606083015261ffff90811660808301529190911660a082015260c00190565b60405180910390a1806101026000828254612ca79190614fa5565b909155505050505b505b60018101546001600160a01b03161561327e576001808201546001600160a01b0390811660009081526101066020908152604091829020825161024081018452815463ffffffff81168252600160201b900485168184015294810154841685840152600281015490931660608501526003830180548351818402810184019094528084529394612f6d94909386936080860193919290830182828015612d8057602002820191906000526020600020905b81546001600160a01b03168152600190910190602001808311612d62575b5050505050815260200160048201805480602002602001604051908101604052809291908181526020018280548015612de257602002820191906000526020600020905b81546001600160a01b03168152600190910190602001808311612dc4575b5050505050815260200160058201805480602002602001604051908101604052809291908181526020018280548015612e6657602002820191906000526020600020906000905b82829054906101000a900463ffffffff1663ffffffff1681526020019060040190602082600301049283019260010382029150808411612e295790505b5050505050815260200160068201548152602001600782015481526020016008820154815260200160098201548152602001600a8201548152602001600b8201548152602001600c8201548152602001600d8201548152602001600e8201548152602001600f820160009054906101000a900460ff1615151515815260200160108201805480602002602001604051908101604052809291908181526020018280548015612f5f57602002820191906000526020600020906000905b82829054906101000a900463ffffffff1663ffffffff1681526020019060040190602082600301049283019260010382029150808411612f225790505b5050505050815250506148a8565b6131f85760006064896001600160a01b031663e70167176040518163ffffffff1660e01b8152600401602060405180830381865afa158015612fb3573d6000803e3d6000fd5b505050506040513d601f19601f82011682018060405250810190612fd791906153f5565b60ff168960400151612fe991906153ae565b612ff391906153e1565b9050600061300183836148c3565b90508083600e0160008282546130179190614fa5565b925050819055508083600a0160008282546130329190614fa5565b909155505060018401546001600160a01b038088169163a9059cbb9116601260ff8b1610613060578361306f565b61306f8460128c60ff16613fe5565b6040516001600160e01b031960e085901b1681526001600160a01b03909216600483015260248201526044016020604051808303816000875af11580156130ba573d6000803e3d6000fd5b505050506040513d601f19601f820116820180604052508101906130de919061501c565b507f3c8fdb10971c51ff48e3a4db4d7f14e64690a286be5bb9f410d9fd0fb74dbf488460010160009054906101000a90046001600160a01b03168560000160049054906101000a90046001600160a01b03168b60400151848e6001600160a01b031663e70167176040518163ffffffff1660e01b8152600401602060405180830381865afa158015613174573d6000803e3d6000fd5b505050506040513d601f19601f8201168201806040525081019061319891906153f5565b604080516001600160a01b03968716815295909416602086015292840191909152606083015260ff166080820152606460a082015260c00160405180910390a18161010560008282546131eb9190614fa5565b9091555061327c92505050565b6001820154604080516001600160a01b039092168252602082018190526026828201527f49425020526577617264206e6f7420706169642e204d6178204c696d69742052606083015265195858da195960d21b6080830152517fd9365ce421ec9d37d946db34572a16a808a9a2c0df5f97dcafa2775d700428f89181900360a00190a15b505b6000805b83518160ff161015613aa0576040805161024081018252845463ffffffff811682526001600160a01b03600160201b90910481166020808401919091526001870154821683850152600287015490911660608301526003860180548451818402810184019095528085526134ce948893608086019391929083018282801561287d576020028201919060005260206000209081546001600160a01b0316815260019091019060200180831161285f5750505050508152602001600482018054806020026020016040519081016040528092919081815260200182805480156128df576020028201919060005260206000209081546001600160a01b031681526001909101906020018083116128c1575050505050815260200160058201805480602002602001604051908101604052809291908181526020018280548015612963576000918252602091829020805463ffffffff1684529082028301929091600491018084116129265790505050505050815260200160068201548152602001600782015481526020016008820154815260200160098201548152602001600a8201548152602001600b8201548152602001600c8201548152602001600d8201548152602001600e8201548152602001600f820160009054906101000a900460ff1615151515815260200160108201805480602002602001604051908101604052809291908181526020018280548015612a5c576000918252602091829020805463ffffffff168452908202830192909160049101808411612a1f57905050505050508152505061401b565b15613aa0576002808401546001600160a01b0390811660009081526101066020908152604091829020825161024081018452815463ffffffff81168252600160201b90048516818401526001820154851681850152948101549093166060850152600383018054835181840281018401909452808452939461372a94909386936080860193919290830182828015612d80576020028201919060005260206000209081546001600160a01b03168152600190910190602001808311612d62575050505050815260200160048201805480602002602001604051908101604052809291908181526020018280548015612de2576020028201919060005260206000209081546001600160a01b03168152600190910190602001808311612dc4575050505050815260200160058201805480602002602001604051908101604052809291908181526020018280548015612e66576000918252602091829020805463ffffffff168452908202830192909160049101808411612e295790505050505050815260200160068201548152602001600782015481526020016008820154815260200160098201548152602001600a8201548152602001600b8201548152602001600c8201548152602001600d8201548152602001600e8201548152602001600f820160009054906101000a900460ff1615151515815260200160108201805480602002602001604051908101604052809291908181526020018280548015612f5f576000918252602091829020805463ffffffff168452908202830192909160049101808411612f225790505050505050815250506148a8565b1561379e576002840154604080516001600160a01b039092168252602082018190526011828201527013585e08131a5b5a5d0814995858da1959607a1b6060830152517f9cf6f1ac252ffae20583b13cb366045bedd20a57355f5f69adf17da561de00039181900360800190a19250613a8e565b8160ff1660000361388b5788604001518160070160008282546137c19190614fa5565b9091555050600f81015460ff161561387657600284015460fc80546001818101835560008390527f371f36870d18f32a11fea0f144b021c8b407bb50f8e0267c711123f454b963c090910180546001600160a01b0319166001600160a01b039094169390931790925554601083019161383991614fb8565b8154600181018355600092835260209092206008830401805460079093166004026101000a63ffffffff8181021990941692909316929092021790555b600f8101805460ff19811660ff909116151790555b88604001518160080160008282546138a39190614fa5565b925050819055506000612710868460ff16815181106138c4576138c46150ac565b602002602001015161ffff168b604001516138df91906153ae565b6138e991906153e1565b905060006138f783836148c3565b90508083600b01600082825461390d9190614fa5565b909155505060028601546001600160a01b03808a169163a9059cbb9116601260ff8d161061393b578361394a565b61394a8460128e60ff16613fe5565b6040516001600160e01b031960e085901b1681526001600160a01b03909216600483015260248201526044016020604051808303816000875af1158015613995573d6000803e3d6000fd5b505050506040513d601f19601f820116820180604052508101906139b9919061501c565b506139c48186614fa5565b6002870154875460408e01518a519398507f3fae587c6f1778678d1e63bd99d63afe07677c2a2eb43a4b228b80e8a38c1b06936001600160a01b0393841693600160201b9093049092169185908c9060ff8b16908110613a2657613a266150ac565b60200260200101516127108a6001613a3e9190615412565b604080516001600160a01b03988916815297909616602088015294860193909352606085019190915261ffff16608084015260a083015260ff1660c082015260e00160405180910390a150909350505b80613a988161542b565b915050613282565b50806101016000828254613ab49190614fa5565b9091555050604087015160fe8054600090613ad0908490614fa5565b90915550506040870151606490613ae890600a6153ae565b613af291906153e1565b60ff6000828254613b039190614fa5565b925050819055506000886001600160a01b03166365eb204d6040518163ffffffff1660e01b8152600401602060405180830381865afa158015613b4a573d6000803e3d6000fd5b505050506040513d601f19601f82011682018060405250810190613b6e9190614fd6565b6040516370a0823160e01b81523060048201526001600160a01b0391909116906370a0823190602401602060405180830381865afa158015613bb4573d6000803e3d6000fd5b505050506040513d601f19601f82011682018060405250810190613bd89190614ff3565b90508015613e2357600060648a6001600160a01b031663e091099c6040518163ffffffff1660e01b8152600401602060405180830381865afa158015613c22573d6000803e3d6000fd5b505050506040513d601f19601f82011682018060405250810190613c4691906153f5565b60ff168a60400151613c5891906153ae565b613c6291906153e1565b9050808210613d4857896001600160a01b03166365eb204d6040518163ffffffff1660e01b8152600401602060405180830381865afa158015613ca9573d6000803e3d6000fd5b505050506040513d601f19601f82011682018060405250810190613ccd9190614fd6565b60405163a9059cbb60e01b81526001600160a01b038f8116600483015260248201849052919091169063a9059cbb906044016020604051808303816000875af1158015613d1e573d6000803e3d6000fd5b505050506040513d601f19601f82011682018060405250810190613d42919061501c565b50613e21565b896001600160a01b03166365eb204d6040518163ffffffff1660e01b8152600401602060405180830381865afa158015613d86573d6000803e3d6000fd5b505050506040513d601f19601f82011682018060405250810190613daa9190614fd6565b60405163a9059cbb60e01b81526001600160a01b038f8116600483015260248201859052919091169063a9059cbb906044016020604051808303816000875af1158015613dfb573d6000803e3d6000fd5b505050506040513d601f19601f82011682018060405250810190613e1f919061501c565b505b505b50505050505050505050505050565b6001600160a01b0381163b613e9f5760405162461bcd60e51b815260206004820152602d60248201527f455243313936373a206e657720696d706c656d656e746174696f6e206973206e60448201526c1bdd08184818dbdb9d1c9858dd609a1b60648201526084016108d3565b60008051602061556e83398151915280546001600160a01b0319166001600160a01b0392909216919091179055565b613ed783614925565b600082511180613ee45750805b15612024576113548383614965565b60335460ff16610c4e5760405162461bcd60e51b815260206004820152601460248201527314185d5cd8589b194e881b9bdd081c185d5cd95960621b60448201526064016108d3565b600054610100900460ff16613f635760405162461bcd60e51b81526004016108d390615037565b6033805460ff19169055565b600054610100900460ff16613f965760405162461bcd60e51b81526004016108d390615037565b610c4e336121b3565b60335460ff1615610c4e5760405162461bcd60e51b815260206004820152601060248201526f14185d5cd8589b194e881c185d5cd95960821b60448201526064016108d3565b6000613ff283600a61552e565b613ffd83600a61552e565b61400790866153ae565b61401191906153e1565b90505b9392505050565b60608101516000906001600160a01b031615614035575060015b919050565b6001600160a01b0380841660009081526101066020908152604091829020825161024081018452815463ffffffff81168252600160201b9004851681840152600182015485168185015260028201549094166060850152600381018054845181850281018501909552808552919461428a949093869360808601939183018282801561287d576020028201919060005260206000209081546001600160a01b0316815260019091019060200180831161285f5750505050508152602001600482018054806020026020016040519081016040528092919081815260200182805480156128df576020028201919060005260206000209081546001600160a01b031681526001909101906020018083116128c1575050505050815260200160058201805480602002602001604051908101604052809291908181526020018280548015612963576000918252602091829020805463ffffffff1684529082028301929091600491018084116129265790505050505050815260200160068201548152602001600782015481526020016008820154815260200160098201548152602001600a8201548152602001600b8201548152602001600c8201548152602001600d8201548152602001600e8201548152602001600f820160009054906101000a900460ff1615151515815260200160108201805480602002602001604051908101604052809291908181526020018280548015612a5c576000918252602091829020805463ffffffff168452908202830192909160049101808411612a1f57905050505050508152505061401b565b15801561430a5750816001600160a01b031663b2e6b9126040518163ffffffff1660e01b8152600401602060405180830381865afa1580156142d0573d6000803e3d6000fd5b505050506040513d601f19601f820116820180604052508101906142f49190614fd6565b6001600160a01b0316846001600160a01b031614155b156148a1576001600160a01b03851615806143365750846001600160a01b0316846001600160a01b0316145b156144a157604080516001600160a01b038781168252861660208201526060818301819052603a908201527f5a65726f20616464726573732063616e6e6f742062652072656665727265722e60808201527f2053657474696e672064656661756c742072656665727265722e00000000000060a082015290517f32df26c7e54a821624fc8d22e1171e5793b90d1fccc483d3ff277b9c42bb22399181900360c00190a16000826001600160a01b031663b2e6b9126040518163ffffffff1660e01b8152600401602060405180830381865afa158015614419573d6000803e3d6000fd5b505050506040513d601f19601f8201168201806040525081019061443d9190614fd6565b6002830180546001600160a01b0319166001600160a01b038381169182179092556040805191825291881660208201529192507fec49a3c8c4ae06c18160fe86119c381c9d213ac3e052ff35b594da8687b193c7910160405180910390a1506144fd565b6002810180546001600160a01b0319166001600160a01b038781169182179092556040805191825291861660208201527fec49a3c8c4ae06c18160fe86119c381c9d213ac3e052ff35b594da8687b193c7910160405180910390a15b60005b8360ff168160ff16101561489f5760028201546001600160a01b03161561489f5760028201546001600160a01b03166000908152610106602052604081209060ff8316900361480f5760038101805460018082018355600092835260209092200180546001600160a01b0319166001600160a01b038981169190911790915590840154161561460b576001830154604080516001600160a01b03928316815291881660208301526060828201819052601d908301527f5265666572656520616c7265616479206861766520696270207365742e0000006080830152517fffca51efd3fa9dd00c7ad8de67cce6deeb82e78db2d05fe4b84079eca71665109181900360a00190a161480f565b60018101546001600160a01b03166147bf576001810154604080516001600160a01b039283168152918816602083015260608282018190526032908301527f5a65726f20616464726573732063616e6e6f74206265206962702e20536574746080830152710696e672075702064656661756c74206962760741b60a0830152517fffca51efd3fa9dd00c7ad8de67cce6deeb82e78db2d05fe4b84079eca71665109181900360c00190a16000846001600160a01b031663b2e6b9126040518163ffffffff1660e01b8152600401602060405180830381865afa1580156146f5573d6000803e3d6000fd5b505050506040513d601f19601f820116820180604052508101906147199190614fd6565b600185810180546001600160a01b038481166001600160a01b03199283168117909355928601805490911682179055845460408051928352600160201b90910490921660208201529192506000805160206155b5833981519152910160405180910390a18354604080516001600160a01b038085168252600160201b90930490921660208301526000805160206155b5833981519152910160405180910390a15061480f565b6001818101805491850180546001600160a01b0319166001600160a01b039384161790555460408051918316825291881660208201526000805160206155b5833981519152910160405180910390a15b60048101805460018082018355600092835260209092200180546001600160a01b0319166001600160a01b0389161790556005820190614850908490615412565b8154600181018355600092835260209092206008830401805463ffffffff60079094166004026101000a938402191660ff929092169092021790559150806148978161542b565b915050614500565b505b5050505050565b60008161014001518261016001511061403557506001919050565b600082600901548284600a01546148da9190614fa5565b11614901578190508183600a0160008282546148f69190614fa5565b9091555061491f9050565b82600a015483600901546149159190614fb8565b600a840181905590505b92915050565b61492e81613e32565b6040516001600160a01b038216907fbc7cd75a20ee27fd9adebab32041f755214dbc6bffa90cc0225b39da2e5c2d3b90600090a250565b60606001600160a01b0383163b6149cd5760405162461bcd60e51b815260206004820152602660248201527f416464726573733a2064656c65676174652063616c6c20746f206e6f6e2d636f6044820152651b9d1c9858dd60d21b60648201526084016108d3565b600080846001600160a01b0316846040516149e891906153c5565b600060405180830381855af49150503d8060008114614a23576040519150601f19603f3d011682016040523d82523d6000602084013e614a28565b606091505b5091509150614a50828260405180606001604052806027815260200161558e60279139614a59565b95945050505050565b60608315614a68575081614014565b6140148383815115614a7d5781518083602001fd5b8060405162461bcd60e51b81526004016108d3919061553a565b6001600160a01b038116811461097057600080fd5b600060208284031215614abe57600080fd5b813561401481614a97565b600081518084526020808501945080840160005b83811015614aff57815163ffffffff1687529582019590820190600101614add565b509495945050505050565b8315158152606060208201526000614b256060830185614ac9565b9050826040830152949350505050565b60008060408385031215614b4857600080fd5b8235614b5381614a97565b91506020830135614b6381614a97565b809150509250929050565b634e487b7160e01b600052604160045260246000fd5b60405160e0810167ffffffffffffffff81118282101715614ba757614ba7614b6e565b60405290565b604051601f8201601f1916810167ffffffffffffffff81118282101715614bd657614bd6614b6e565b604052919050565b600067ffffffffffffffff821115614bf857614bf8614b6e565b50601f01601f191660200190565b60008060408385031215614c1957600080fd5b8235614c2481614a97565b9150602083013567ffffffffffffffff811115614c4057600080fd5b8301601f81018513614c5157600080fd5b8035614c64614c5f82614bde565b614bad565b818152866020838501011115614c7957600080fd5b816020840160208301376000602083830101528093505050509250929050565b60ff8116811461097057600080fd5b600080600060608486031215614cbd57600080fd5b8335614cc881614a97565b92506020840135614cd881614c99565b91506040840135614ce881614a97565b809150509250925092565b600081518084526020808501945080840160005b83811015614aff5781516001600160a01b031687529582019590820190600101614d07565b6001600160a01b038716815260c060208201819052600090614d5090830188614cf3565b8660408401528281036060840152614d688187614cf3565b90508281036080840152614d7c8186614ac9565b9150508260a0830152979650505050505050565b60208152614da760208201835163ffffffff169052565b60006020830151614dc360408401826001600160a01b03169052565b5060408301516001600160a01b03811660608401525060608301516001600160a01b03811660808401525060808301516102408060a0850152614e0a610260850183614cf3565b915060a0850151601f19808685030160c0870152614e288483614cf3565b935060c08701519150808685030160e0870152614e458483614ac9565b60e088015161010088810191909152880151610120808901919091528801516101408089019190915288015161016080890191909152880151610180808901919091528801516101a0808901919091528801516101c0808901919091528801516101e080890191909152880151610200808901919091528801519094509150610220614ed48188018415159052565b870151868503909101838701529050614eed8382614ac9565b9695505050505050565b6020808252602c908201527f46756e6374696f6e206d7573742062652063616c6c6564207468726f7567682060408201526b19195b1959d85d1958d85b1b60a21b606082015260800190565b6020808252602c908201527f46756e6374696f6e206d7573742062652063616c6c6564207468726f7567682060408201526b6163746976652070726f787960a01b606082015260800190565b634e487b7160e01b600052601160045260246000fd5b8082018082111561491f5761491f614f8f565b8181038181111561491f5761491f614f8f565b805161403581614a97565b600060208284031215614fe857600080fd5b815161401481614a97565b60006020828403121561500557600080fd5b5051919050565b8051801515811461403557600080fd5b60006020828403121561502e57600080fd5b6140148261500c565b6020808252602b908201527f496e697469616c697a61626c653a20636f6e7472616374206973206e6f74206960408201526a6e697469616c697a696e6760a81b606082015260800190565b634e487b7160e01b600052601260045260246000fd5b6000826150a7576150a7615082565b500690565b634e487b7160e01b600052603260045260246000fd5b805161403581614c99565b60005b838110156150e85781810151838201526020016150d0565b50506000910152565b600082601f83011261510257600080fd5b8151615110614c5f82614bde565b81815284602083860101111561512557600080fd5b6151368260208301602087016150cd565b949350505050565b60006020828403121561515057600080fd5b815167ffffffffffffffff8082111561516857600080fd5b908301906080828603121561517c57600080fd5b60405160808101818110838211171561519757615197614b6e565b60405282516151a581614c99565b81526020830151828111156151b957600080fd5b6151c5878286016150f1565b602083015250604083015160408201526060830151606082015280935050505092915050565b6000602082840312156151fd57600080fd5b815167ffffffffffffffff8082111561521557600080fd5b9083019060e0828603121561522957600080fd5b615231614b84565b61523a83614fcb565b815260208301518281111561524e57600080fd5b61525a878286016150f1565b60208301525060408301518281111561527257600080fd5b61527e878286016150f1565b604083015250615290606084016150c2565b60608201526152a16080840161500c565b60808201526152b260a08401614fcb565b60a08201526152c360c0840161500c565b60c082015295945050505050565b600060208083850312156152e457600080fd5b825167ffffffffffffffff808211156152fc57600080fd5b818501915085601f83011261531057600080fd5b81518181111561532257615322614b6e565b8060051b9150615333848301614bad565b818152918301840191848101908884111561534d57600080fd5b938501935b8385101561537f578451925061ffff8316831461536f5760008081fd5b8282529385019390850190615352565b98975050505050505050565b600063ffffffff8083168181036153a4576153a4614f8f565b6001019392505050565b808202811582820484141761491f5761491f614f8f565b600082516153d78184602087016150cd565b9190910192915050565b6000826153f0576153f0615082565b500490565b60006020828403121561540757600080fd5b815161401481614c99565b60ff818116838216019081111561491f5761491f614f8f565b600060ff821660ff810361544157615441614f8f565b60010192915050565b600181815b8085111561548557816000190482111561546b5761546b614f8f565b8085161561547857918102915b93841c939080029061544f565b509250929050565b60008261549c5750600161491f565b816154a95750600061491f565b81600181146154bf57600281146154c9576154e5565b600191505061491f565b60ff8411156154da576154da614f8f565b50506001821b61491f565b5060208310610133831016604e8410600b8410161715615508575081810a61491f565b615512838361544a565b806000190482111561552657615526614f8f565b029392505050565b6000614014838361548d565b60208152600082518060208401526155598160408501602087016150cd565b601f01601f1916919091016040019291505056fe360894a13ba1a3210667c828492db98dca3e2076cc3735a920a3ca505d382bbc416464726573733a206c6f772d6c6576656c2064656c65676174652063616c6c206661696c656400f37bd73ff29ab549d774afc91445bf33292ed9a4b4b4177fb1e61ff3c58469a26469706673582212204e2b15d9f0f40b33a78768ff2ab7863b52914f3f3a167e8e0863290cfc548fdf64736f6c63430008120033",
  "linkReferences": {},
  "deployedLinkReferences": {}
}