{
  "_format": "hh-sol-artifact-1",
  "contractName": "ReferralV1Upgradeable",
  "sourceName": "contracts/ReferralV1Upgradeable.sol",
  "abi": [
    {
      "anonymous": false,
      "inputs": [
        {
          "indexed": false,
          "internalType": "address",
          "name": "previousAdmin",
          "type": "address"
        },
        {
          "indexed": false,
          "internalType": "address",
          "name": "newAdmin",
          "type": "address"
        }
      ],
      "name": "AdminChanged",
      "type": "event"
    },
    {
      "anonymous": false,
      "inputs": [
        {
          "indexed": true,
          "internalType": "address",
          "name": "beacon",
          "type": "address"
        }
      ],
      "name": "BeaconUpgraded",
      "type": "event"
    },
    {
      "anonymous": false,
      "inputs": [
        {
          "indexed": false,
          "internalType": "address",
          "name": "coreMembersContract",
          "type": "address"
        },
        {
          "indexed": false,
          "internalType": "uint256",
          "name": "value",
          "type": "uint256"
        }
      ],
      "name": "CoreMembersRewardPaid",
      "type": "event"
    },
    {
      "anonymous": false,
      "inputs": [
        {
          "indexed": false,
          "internalType": "address",
          "name": "globalAddress",
          "type": "address"
        },
        {
          "indexed": false,
          "internalType": "address",
          "name": "userAddress",
          "type": "address"
        },
        {
          "indexed": false,
          "internalType": "uint256",
          "name": "registrationValue",
          "type": "uint256"
        },
        {
          "indexed": false,
          "internalType": "uint256",
          "name": "rewardValue",
          "type": "uint256"
        },
        {
          "indexed": false,
          "internalType": "uint16",
          "name": "rewardRate",
          "type": "uint16"
        },
        {
          "indexed": false,
          "internalType": "uint16",
          "name": "rewardRateDecimals",
          "type": "uint16"
        },
        {
          "indexed": false,
          "internalType": "string",
          "name": "reason",
          "type": "string"
        }
      ],
      "name": "GlobalRewardsNotPaid",
      "type": "event"
    },
    {
      "anonymous": false,
      "inputs": [
        {
          "indexed": false,
          "internalType": "address",
          "name": "globalAddress",
          "type": "address"
        },
        {
          "indexed": false,
          "internalType": "address",
          "name": "userAddress",
          "type": "address"
        },
        {
          "indexed": false,
          "internalType": "uint256",
          "name": "registrationValue",
          "type": "uint256"
        },
        {
          "indexed": false,
          "internalType": "uint256",
          "name": "rewardValue",
          "type": "uint256"
        },
        {
          "indexed": false,
          "internalType": "uint16",
          "name": "rewardRate",
          "type": "uint16"
        },
        {
          "indexed": false,
          "internalType": "uint16",
          "name": "rewardRateDecimals",
          "type": "uint16"
        }
      ],
      "name": "GlobalRewardsPaid",
      "type": "event"
    },
    {
      "anonymous": false,
      "inputs": [
        {
          "indexed": false,
          "internalType": "address",
          "name": "ibpAddress",
          "type": "address"
        },
        {
          "indexed": false,
          "internalType": "address",
          "name": "userAddress",
          "type": "address"
        }
      ],
      "name": "IBPAdded",
      "type": "event"
    },
    {
      "anonymous": false,
      "inputs": [
        {
          "indexed": false,
          "internalType": "address",
          "name": "ibpAddress",
          "type": "address"
        },
        {
          "indexed": false,
          "internalType": "address",
          "name": "userAddress",
          "type": "address"
        },
        {
          "indexed": false,
          "internalType": "string",
          "name": "reason",
          "type": "string"
        }
      ],
      "name": "IBPNotAdded",
      "type": "event"
    },
    {
      "anonymous": false,
      "inputs": [
        {
          "indexed": false,
          "internalType": "address",
          "name": "ibpAddress",
          "type": "address"
        },
        {
          "indexed": false,
          "internalType": "string",
          "name": "reason",
          "type": "string"
        }
      ],
      "name": "IBPRewardsNotPaid",
      "type": "event"
    },
    {
      "anonymous": false,
      "inputs": [
        {
          "indexed": false,
          "internalType": "address",
          "name": "ibpAddress",
          "type": "address"
        },
        {
          "indexed": false,
          "internalType": "address",
          "name": "userAddress",
          "type": "address"
        },
        {
          "indexed": false,
          "internalType": "uint256",
          "name": "businessValue",
          "type": "uint256"
        },
        {
          "indexed": false,
          "internalType": "uint256",
          "name": "rewardValue",
          "type": "uint256"
        },
        {
          "indexed": false,
          "internalType": "uint16",
          "name": "rewardRate",
          "type": "uint16"
        },
        {
          "indexed": false,
          "internalType": "uint16",
          "name": "rewardRateDecimals",
          "type": "uint16"
        }
      ],
      "name": "IBPRewardsPaid",
      "type": "event"
    },
    {
      "anonymous": false,
      "inputs": [
        {
          "indexed": false,
          "internalType": "uint8",
          "name": "version",
          "type": "uint8"
        }
      ],
      "name": "Initialized",
      "type": "event"
    },
    {
      "anonymous": false,
      "inputs": [
        {
          "indexed": false,
          "internalType": "address",
          "name": "userAddress",
          "type": "address"
        },
        {
          "indexed": false,
          "internalType": "string",
          "name": "reason",
          "type": "string"
        }
      ],
      "name": "NoRewardsPaid",
      "type": "event"
    },
    {
      "anonymous": false,
      "inputs": [
        {
          "indexed": true,
          "internalType": "address",
          "name": "previousOwner",
          "type": "address"
        },
        {
          "indexed": true,
          "internalType": "address",
          "name": "newOwner",
          "type": "address"
        }
      ],
      "name": "OwnershipTransferred",
      "type": "event"
    },
    {
      "anonymous": false,
      "inputs": [
        {
          "indexed": false,
          "internalType": "address",
          "name": "account",
          "type": "address"
        }
      ],
      "name": "Paused",
      "type": "event"
    },
    {
      "anonymous": false,
      "inputs": [
        {
          "indexed": false,
          "internalType": "address",
          "name": "referrerAddress",
          "type": "address"
        },
        {
          "indexed": false,
          "internalType": "address",
          "name": "userAddress",
          "type": "address"
        },
        {
          "indexed": false,
          "internalType": "uint256",
          "name": "value",
          "type": "uint256"
        },
        {
          "indexed": false,
          "internalType": "uint256",
          "name": "rewardValue",
          "type": "uint256"
        },
        {
          "indexed": false,
          "internalType": "uint256",
          "name": "rewardRate",
          "type": "uint256"
        },
        {
          "indexed": false,
          "internalType": "uint256",
          "name": "rewardRateDecimals",
          "type": "uint256"
        },
        {
          "indexed": false,
          "internalType": "uint32",
          "name": "level",
          "type": "uint32"
        }
      ],
      "name": "ReferralRewardsPaid",
      "type": "event"
    },
    {
      "anonymous": false,
      "inputs": [
        {
          "indexed": false,
          "internalType": "address",
          "name": "referrerAddress",
          "type": "address"
        },
        {
          "indexed": false,
          "internalType": "address",
          "name": "refereeAddress",
          "type": "address"
        }
      ],
      "name": "ReferrerAdded",
      "type": "event"
    },
    {
      "anonymous": false,
      "inputs": [
        {
          "indexed": false,
          "internalType": "address",
          "name": "referrerAddress",
          "type": "address"
        },
        {
          "indexed": false,
          "internalType": "address",
          "name": "refereeAddress",
          "type": "address"
        },
        {
          "indexed": false,
          "internalType": "string",
          "name": "reason",
          "type": "string"
        }
      ],
      "name": "ReferrerNotAdded",
      "type": "event"
    },
    {
      "anonymous": false,
      "inputs": [
        {
          "indexed": false,
          "internalType": "address",
          "name": "userAddress",
          "type": "address"
        },
        {
          "indexed": false,
          "internalType": "uint32",
          "name": "userId",
          "type": "uint32"
        },
        {
          "indexed": false,
          "internalType": "uint8",
          "name": "planId",
          "type": "uint8"
        },
        {
          "indexed": false,
          "internalType": "address",
          "name": "referrerAddress",
          "type": "address"
        }
      ],
      "name": "Registration",
      "type": "event"
    },
    {
      "anonymous": false,
      "inputs": [
        {
          "indexed": false,
          "internalType": "address",
          "name": "parentAddress",
          "type": "address"
        },
        {
          "indexed": false,
          "internalType": "address",
          "name": "referrerAddress",
          "type": "address"
        },
        {
          "indexed": false,
          "internalType": "address",
          "name": "refereeAddress",
          "type": "address"
        },
        {
          "indexed": false,
          "internalType": "uint32",
          "name": "level",
          "type": "uint32"
        }
      ],
      "name": "TeamAddressAdded",
      "type": "event"
    },
    {
      "anonymous": false,
      "inputs": [
        {
          "indexed": false,
          "internalType": "address",
          "name": "account",
          "type": "address"
        }
      ],
      "name": "Unpaused",
      "type": "event"
    },
    {
      "anonymous": false,
      "inputs": [
        {
          "indexed": true,
          "internalType": "address",
          "name": "implementation",
          "type": "address"
        }
      ],
      "name": "Upgraded",
      "type": "event"
    },
    {
      "anonymous": false,
      "inputs": [
        {
          "indexed": false,
          "internalType": "address",
          "name": "globalAddress",
          "type": "address"
        },
        {
          "indexed": false,
          "internalType": "uint256",
          "name": "rewardValue",
          "type": "uint256"
        }
      ],
      "name": "WeeklyRewardsPaid",
      "type": "event"
    },
    {
      "inputs": [
        {
          "internalType": "address",
          "name": "_userAddress",
          "type": "address"
        },
        {
          "internalType": "address",
          "name": "_ibpAddress",
          "type": "address"
        },
        {
          "internalType": "uint256",
          "name": "_maxLimitInDecimals",
          "type": "uint256"
        }
      ],
      "name": "addIbpToAddressAdmin",
      "outputs": [],
      "stateMutability": "nonpayable",
      "type": "function"
    },
    {
      "inputs": [
        {
          "internalType": "address",
          "name": "_referrer",
          "type": "address"
        },
        {
          "internalType": "address",
          "name": "_user",
          "type": "address"
        }
      ],
      "name": "changeReferrer",
      "outputs": [],
      "stateMutability": "nonpayable",
      "type": "function"
    },
    {
      "inputs": [
        {
          "internalType": "address",
          "name": "_tokenAddress",
          "type": "address"
        }
      ],
      "name": "distributeWeeklyReward",
      "outputs": [],
      "stateMutability": "nonpayable",
      "type": "function"
    },
    {
      "inputs": [],
      "name": "getRegistrationsStats",
      "outputs": [
        {
          "internalType": "uint32",
          "name": "totalUser",
          "type": "uint32"
        },
        {
          "internalType": "uint256",
          "name": "totalRegistrationValue",
          "type": "uint256"
        },
        {
          "internalType": "uint256",
          "name": "totalReferralPaid",
          "type": "uint256"
        },
        {
          "internalType": "uint256",
          "name": "totalGlobalRewardsPaid",
          "type": "uint256"
        },
        {
          "internalType": "uint256",
          "name": "totalWeeklyRewardsPaid",
          "type": "uint256"
        },
        {
          "internalType": "uint256",
          "name": "totalCoreMembershipRewardPaid",
          "type": "uint256"
        },
        {
          "internalType": "uint256",
          "name": "totalIbpRewardsPaid",
          "type": "uint256"
        }
      ],
      "stateMutability": "view",
      "type": "function"
    },
    {
      "inputs": [
        {
          "internalType": "address",
          "name": "_userAddress",
          "type": "address"
        }
      ],
      "name": "getUserAccount",
      "outputs": [
        {
          "components": [
            {
              "internalType": "uint32",
              "name": "userId",
              "type": "uint32"
            },
            {
              "internalType": "address",
              "name": "selfAddress",
              "type": "address"
            },
            {
              "internalType": "address",
              "name": "ibpAddress",
              "type": "address"
            },
            {
              "internalType": "address",
              "name": "referrerAddress",
              "type": "address"
            },
            {
              "internalType": "address[]",
              "name": "refereeAddresses",
              "type": "address[]"
            },
            {
              "internalType": "address[]",
              "name": "teamAddress",
              "type": "address[]"
            },
            {
              "internalType": "uint32[]",
              "name": "teamLevels",
              "type": "uint32[]"
            },
            {
              "internalType": "uint256",
              "name": "selfBusiness",
              "type": "uint256"
            },
            {
              "internalType": "uint256",
              "name": "directBusiness",
              "type": "uint256"
            },
            {
              "internalType": "uint256",
              "name": "teamBusiness",
              "type": "uint256"
            },
            {
              "internalType": "uint256",
              "name": "maxLimit",
              "type": "uint256"
            },
            {
              "internalType": "uint256",
              "name": "currentLimit",
              "type": "uint256"
            },
            {
              "internalType": "uint256",
              "name": "referralRewards",
              "type": "uint256"
            },
            {
              "internalType": "uint256",
              "name": "globalRewards",
              "type": "uint256"
            },
            {
              "internalType": "uint256",
              "name": "weeklyRewards",
              "type": "uint256"
            },
            {
              "internalType": "uint256",
              "name": "ibpRewards",
              "type": "uint256"
            },
            {
              "internalType": "bool",
              "name": "isGlobal",
              "type": "bool"
            },
            {
              "internalType": "uint32[]",
              "name": "globalIndexes",
              "type": "uint32[]"
            }
          ],
          "internalType": "struct AccountStruct",
          "name": "",
          "type": "tuple"
        }
      ],
      "stateMutability": "view",
      "type": "function"
    },
    {
      "inputs": [
        {
          "internalType": "address",
          "name": "_userAddress",
          "type": "address"
        }
      ],
      "name": "getUserBusiness",
      "outputs": [
        {
          "internalType": "uint256",
          "name": "selfBusiness",
          "type": "uint256"
        },
        {
          "internalType": "uint256",
          "name": "directBusiness",
          "type": "uint256"
        },
        {
          "internalType": "uint256",
          "name": "teamBusiness",
          "type": "uint256"
        },
        {
          "internalType": "uint256",
          "name": "totalBusiness",
          "type": "uint256"
        }
      ],
      "stateMutability": "view",
      "type": "function"
    },
    {
      "inputs": [
        {
          "internalType": "address",
          "name": "_userAddress",
          "type": "address"
        }
      ],
      "name": "getUserIbpAddress",
      "outputs": [
        {
          "internalType": "address",
          "name": "",
          "type": "address"
        }
      ],
      "stateMutability": "view",
      "type": "function"
    },
    {
      "inputs": [
        {
          "internalType": "address",
          "name": "_userAddress",
          "type": "address"
        }
      ],
      "name": "getUserLimit",
      "outputs": [
        {
          "internalType": "uint256",
          "name": "maxLimit",
          "type": "uint256"
        },
        {
          "internalType": "uint256",
          "name": "currentLimit",
          "type": "uint256"
        },
        {
          "internalType": "uint256",
          "name": "limitRemaingvalue",
          "type": "uint256"
        }
      ],
      "stateMutability": "view",
      "type": "function"
    },
    {
      "inputs": [
        {
          "internalType": "address",
          "name": "_userAddress",
          "type": "address"
        }
      ],
      "name": "getUserRewards",
      "outputs": [
        {
          "internalType": "uint256",
          "name": "referralReward",
          "type": "uint256"
        },
        {
          "internalType": "uint256",
          "name": "globalReward",
          "type": "uint256"
        },
        {
          "internalType": "uint256",
          "name": "weeklyReward",
          "type": "uint256"
        },
        {
          "internalType": "uint256",
          "name": "ibpReward",
          "type": "uint256"
        },
        {
          "internalType": "uint256",
          "name": "totalIncome",
          "type": "uint256"
        }
      ],
      "stateMutability": "view",
      "type": "function"
    },
    {
      "inputs": [
        {
          "internalType": "address",
          "name": "_userAddress",
          "type": "address"
        }
      ],
      "name": "getUserTeam",
      "outputs": [
        {
          "internalType": "address",
          "name": "referrer",
          "type": "address"
        },
        {
          "internalType": "address[]",
          "name": "referees",
          "type": "address[]"
        },
        {
          "internalType": "uint256",
          "name": "refereeCount",
          "type": "uint256"
        },
        {
          "internalType": "address[]",
          "name": "team",
          "type": "address[]"
        },
        {
          "internalType": "uint32[]",
          "name": "teamLevels",
          "type": "uint32[]"
        },
        {
          "internalType": "uint256",
          "name": "teamCount",
          "type": "uint256"
        }
      ],
      "stateMutability": "view",
      "type": "function"
    },
    {
      "inputs": [],
      "name": "getVariablesContract",
      "outputs": [
        {
          "internalType": "address",
          "name": "",
          "type": "address"
        }
      ],
      "stateMutability": "view",
      "type": "function"
    },
    {
      "inputs": [],
      "name": "getWeeklyRewardToBeDistributed",
      "outputs": [
        {
          "internalType": "uint256",
          "name": "_rewardValue",
          "type": "uint256"
        },
        {
          "internalType": "uint256",
          "name": "_remianingTime",
          "type": "uint256"
        }
      ],
      "stateMutability": "view",
      "type": "function"
    },
    {
      "inputs": [],
      "name": "initialize",
      "outputs": [],
      "stateMutability": "nonpayable",
      "type": "function"
    },
    {
      "inputs": [
        {
          "internalType": "address",
          "name": "_userAddress",
          "type": "address"
        }
      ],
      "name": "isUserInGlobalList",
      "outputs": [
        {
          "internalType": "bool",
          "name": "isInList",
          "type": "bool"
        },
        {
          "internalType": "uint32[]",
          "name": "indexes",
          "type": "uint32[]"
        },
        {
          "internalType": "uint256",
          "name": "totalGlobalIds",
          "type": "uint256"
        }
      ],
      "stateMutability": "view",
      "type": "function"
    },
    {
      "inputs": [],
      "name": "owner",
      "outputs": [
        {
          "internalType": "address",
          "name": "",
          "type": "address"
        }
      ],
      "stateMutability": "view",
      "type": "function"
    },
    {
      "inputs": [],
      "name": "paused",
      "outputs": [
        {
          "internalType": "bool",
          "name": "",
          "type": "bool"
        }
      ],
      "stateMutability": "view",
      "type": "function"
    },
    {
      "inputs": [],
      "name": "proxiableUUID",
      "outputs": [
        {
          "internalType": "bytes32",
          "name": "",
          "type": "bytes32"
        }
      ],
      "stateMutability": "view",
      "type": "function"
    },
    {
      "inputs": [
        {
          "internalType": "address",
          "name": "_userAddress",
          "type": "address"
        }
      ],
      "name": "pushAddressToGlobal",
      "outputs": [],
      "stateMutability": "nonpayable",
      "type": "function"
    },
    {
      "inputs": [
        {
          "internalType": "address",
          "name": "_referrer",
          "type": "address"
        },
        {
          "internalType": "uint8",
          "name": "_planId",
          "type": "uint8"
        },
        {
          "internalType": "address",
          "name": "_tokenAddress",
          "type": "address"
        }
      ],
      "name": "registrationWithToken",
      "outputs": [],
      "stateMutability": "nonpayable",
      "type": "function"
    },
    {
      "inputs": [
        {
          "internalType": "address",
          "name": "_userAddress",
          "type": "address"
        }
      ],
      "name": "removeIbpFromAddressAdmin",
      "outputs": [],
      "stateMutability": "nonpayable",
      "type": "function"
    },
    {
      "inputs": [],
      "name": "renounceOwnership",
      "outputs": [],
      "stateMutability": "nonpayable",
      "type": "function"
    },
    {
      "inputs": [
        {
          "internalType": "address",
          "name": "newOwner",
          "type": "address"
        }
      ],
      "name": "transferOwnership",
      "outputs": [],
      "stateMutability": "nonpayable",
      "type": "function"
    },
    {
      "inputs": [
        {
          "internalType": "address",
          "name": "_userAddress",
          "type": "address"
        },
        {
          "internalType": "uint256",
          "name": "_referralIncome",
          "type": "uint256"
        },
        {
          "internalType": "uint256",
          "name": "_limit",
          "type": "uint256"
        },
        {
          "internalType": "uint256",
          "name": "_directBusiness",
          "type": "uint256"
        },
        {
          "internalType": "uint256",
          "name": "_teamBusiness",
          "type": "uint256"
        }
      ],
      "name": "updateUserAccount",
      "outputs": [],
      "stateMutability": "nonpayable",
      "type": "function"
    },
    {
      "inputs": [
        {
          "internalType": "address",
          "name": "newImplementation",
          "type": "address"
        }
      ],
      "name": "upgradeTo",
      "outputs": [],
      "stateMutability": "nonpayable",
      "type": "function"
    },
    {
      "inputs": [
        {
          "internalType": "address",
          "name": "newImplementation",
          "type": "address"
        },
        {
          "internalType": "bytes",
          "name": "data",
          "type": "bytes"
        }
      ],
      "name": "upgradeToAndCall",
      "outputs": [],
      "stateMutability": "payable",
      "type": "function"
    },
    {
      "stateMutability": "payable",
      "type": "receive"
    }
  ],
  "bytecode": "0x60a06040523060805234801561001457600080fd5b5060805161560e6200004d600039600081816109390152818161098201528181610da501528181610de50152610e78015261560e6000f3fe60806040526004361061016a5760003560e01c80638da5cb5b116100d1578063e6f6769e1161008a578063f2fde38b11610064578063f2fde38b146104cc578063f87127b4146104ec578063faeda7e51461052c578063fb47e0161461055e57600080fd5b8063e6f6769e14610453578063e9587e8614610473578063f13a143f146104ae57600080fd5b80638da5cb5b14610364578063967012eb14610396578063aa8d713a146103d3578063af6a6804146103f3578063d277b8a914610413578063df1081761461043357600080fd5b80634f1ef286116101235780634f1ef286146102b757806352d1902d146102ca5780635c975abb146102ed578063715018a6146103105780638129fc1c14610325578063846688f71461033a57600080fd5b80630690c6a814610176578063078b0fb7146101de57806313bc9a59146102265780633659cfe6146102485780633b38bf72146102685780633ef575e91461028857600080fd5b3661017157005b600080fd5b34801561018257600080fd5b5060fd5460fe5461010154610102546101035461010454610105546040805163ffffffff90981688526020880196909652948601939093526060850191909152608084015260a083015260c082015260e0015b60405180910390f35b3480156101ea57600080fd5b506101fe6101f9366004614a11565b61058b565b604080519586526020860194909452928401919091526060830152608082015260a0016101d5565b34801561023257600080fd5b50610246610241366004614a11565b61085c565b005b34801561025457600080fd5b50610246610263366004614a11565b61092f565b34801561027457600080fd5b50610246610283366004614a2e565b610a17565b34801561029457600080fd5b506102a86102a3366004614a11565b610ad0565b6040516101d593929190614aa8565b6102466102c5366004614b6b565b610d9b565b3480156102d657600080fd5b506102df610e6b565b6040519081526020016101d5565b3480156102f957600080fd5b5060335460ff1660405190151581526020016101d5565b34801561031c57600080fd5b50610246610f1e565b34801561033157600080fd5b50610246610f32565b34801561034657600080fd5b5061034f61107e565b604080519283526020830191909152016101d5565b34801561037057600080fd5b506065546001600160a01b03165b6040516001600160a01b0390911681526020016101d5565b3480156103a257600080fd5b5061037e6103b1366004614a11565b6001600160a01b03908116600090815261010660205260409020600101541690565b3480156103df57600080fd5b506102466103ee366004614a11565b6110b5565b3480156103ff57600080fd5b5061024661040e366004614bfe565b6111eb565b34801561041f57600080fd5b5061024661042e366004614a11565b61127f565b34801561043f57600080fd5b5061024661044e366004614c42565b6114d8565b34801561045f57600080fd5b5061024661046e366004614c92565b611582565b34801561047f57600080fd5b5061049361048e366004614a11565b611595565b604080519384526020840192909252908201526060016101d5565b3480156104ba57600080fd5b5060fb546001600160a01b031661037e565b3480156104d857600080fd5b506102466104e7366004614a11565b61185b565b3480156104f857600080fd5b5061050c610507366004614a11565b6118d1565b6040805194855260208501939093529183015260608201526080016101d5565b34801561053857600080fd5b5061054c610547366004614a11565b611ba2565b6040516101d596959493929190614d16565b34801561056a57600080fd5b5061057e610579366004614a11565b611e7b565b6040516101d59190614d7a565b6001600160a01b03808216600090815261010660209081526040808320815161024081018352815463ffffffff81168252600160201b90048616818501526001820154861681840152600282015490951660608601526003810180548351818602810186019094528084529495869586958695869586959093608086019383018282801561064257602002820191906000526020600020905b81546001600160a01b03168152600190910190602001808311610624575b50505050508152602001600482018054806020026020016040519081016040528092919081815260200182805480156106a457602002820191906000526020600020905b81546001600160a01b03168152600190910190602001808311610686575b505050505081526020016005820180548060200260200160405190810160405280929190818152602001828054801561072857602002820191906000526020600020906000905b82829054906101000a900463ffffffff1663ffffffff16815260200190600401906020826003010492830192600103820291508084116106eb5790505b5050505050815260200160068201548152602001600782015481526020016008820154815260200160098201548152602001600a8201548152602001600b8201548152602001600c8201548152602001600d8201548152602001600e8201548152602001600f820160009054906101000a900460ff161515151581526020016010820180548060200260200160405190810160405280929190818152602001828054801561082157602002820191906000526020600020906000905b82829054906101000a900463ffffffff1663ffffffff16815260200190600401906020826003010492830192600103820291508084116107e45790505b505050919092525050506101808101516101a08201516101c08301516101e084015161016090940151929b919a509850919650945092505050565b6108646121ca565b6001600160a01b038116600090815261010660205260409020600f8101805460ff1916600190811790915560fc546010909201916108a29190614ef7565b8154600180820184556000938452602084206008830401805460079093166004026101000a63ffffffff81810219909416949093169290920292909217905560fc805491820181559091527f371f36870d18f32a11fea0f144b021c8b407bb50f8e0267c711123f454b963c00180546001600160a01b0319166001600160a01b0392909216919091179055565b6001600160a01b037f00000000000000000000000000000000000000000000000000000000000000001630036109805760405162461bcd60e51b815260040161097790614f0a565b60405180910390fd5b7f00000000000000000000000000000000000000000000000000000000000000006001600160a01b03166109c9600080516020615572833981519152546001600160a01b031690565b6001600160a01b0316146109ef5760405162461bcd60e51b815260040161097790614f56565b6109f881612224565b60408051600080825260208201909252610a149183919061222c565b50565b610a1f6121ca565b60fb546001600160a01b0382811660009081526101066020526040808220815163918a54db60e01b81529151939094169392849163918a54db91600480830192869291908290030181865afa158015610a7c573d6000803e3d6000fd5b505050506040513d6000823e601f3d908101601f19168201604052610aa49190810190614fa2565b6002830180546001600160a01b03191690558051909150610ac990869086908661239c565b5050505050565b6001600160a01b03808216600090815261010660209081526040808320815161024081018352815463ffffffff81168252600160201b9004861681850152600182015486168184015260028201549095166060868101919091526003820180548451818702810187019095528085529596919587958695939493608086019390929091830182828015610b8c57602002820191906000526020600020905b81546001600160a01b03168152600190910190602001808311610b6e575b5050505050815260200160048201805480602002602001604051908101604052809291908181526020018280548015610bee57602002820191906000526020600020905b81546001600160a01b03168152600190910190602001808311610bd0575b5050505050815260200160058201805480602002602001604051908101604052809291908181526020018280548015610c7257602002820191906000526020600020906000905b82829054906101000a900463ffffffff1663ffffffff1681526020019060040190602082600301049283019260010382029150808411610c355790505b5050505050815260200160068201548152602001600782015481526020016008820154815260200160098201548152602001600a8201548152602001600b8201548152602001600c8201548152602001600d8201548152602001600e8201548152602001600f820160009054906101000a900460ff1615151515815260200160108201805480602002602001604051908101604052809291908181526020018280548015610d6b57602002820191906000526020600020906000905b82829054906101000a900463ffffffff1663ffffffff1681526020019060040190602082600301049283019260010382029150808411610d2e5790505b50505050508152505090506000816102200151511115610d8a57600193505b610220015180519395909450915050565b6001600160a01b037f0000000000000000000000000000000000000000000000000000000000000000163003610de35760405162461bcd60e51b815260040161097790614f0a565b7f00000000000000000000000000000000000000000000000000000000000000006001600160a01b0316610e2c600080516020615572833981519152546001600160a01b031690565b6001600160a01b031614610e525760405162461bcd60e51b815260040161097790614f56565b610e5b82612224565b610e678282600161222c565b5050565b6000306001600160a01b037f00000000000000000000000000000000000000000000000000000000000000001614610f0b5760405162461bcd60e51b815260206004820152603860248201527f555550535570677261646561626c653a206d757374206e6f742062652063616c60448201527f6c6564207468726f7567682064656c656761746563616c6c00000000000000006064820152608401610977565b5060008051602061557283398151915290565b610f266121ca565b610f306000612fb0565b565b600054610100900460ff1615808015610f525750600054600160ff909116105b80610f6c5750303b158015610f6c575060005460ff166001145b610fcf5760405162461bcd60e51b815260206004820152602e60248201527f496e697469616c697a61626c653a20636f6e747261637420697320616c72656160448201526d191e481a5b9a5d1a585b1a5e995960921b6064820152608401610977565b6000805460ff191660011790558015610ff2576000805461ff0019166101001790555b60fb80546001600160a01b03191673494549e00fe6598e3dc93254c5377c406dda85791790554261010055611025613002565b61102d613031565b611035613060565b8015610a14576000805461ff0019169055604051600181527f7f26b83ff96e1f2b6a682f133852f6798a09c465da95921460cefb3847402498906020015b60405180910390a150565b60ff546101005460009081906110979062093a8061505c565b905042808211156110af576110ac8183614ef7565b92505b50509091565b6110bd6121ca565b60fb60009054906101000a90046001600160a01b03166001600160a01b031663b2e6b9126040518163ffffffff1660e01b8152600401602060405180830381865afa158015611110573d6000803e3d6000fd5b505050506040513d601f19601f82011682018060405250810190611134919061507a565b6001600160a01b038281166000908152610106602090815260409182902060010180546001600160a01b0319169484169490941790935560fb5481516359735c8960e11b815291516000805160206155b983398151915294919093169263b2e6b9129260048082019392918290030181865afa1580156111b8573d6000803e3d6000fd5b505050506040513d601f19601f820116820180604052508101906111dc919061507a565b82604051611073929190615097565b6111f36121ca565b6001600160a01b0385166000908152610106602052604081206007810180549192859261122190849061505c565b925050819055508481600b01600082825461123c919061505c565b925050819055508381600a016000828254611257919061505c565b9250508190555081816008016000828254611272919061505c565b9091555050505050505050565b60006101005462093a80611293919061505c565b905042818110156112e65760405162461bcd60e51b815260206004820152601c60248201527f5765656b6c792074696d65206973206e6f74206f766572207965742e000000006044820152606401610977565b60006112f0613087565b6001600160a01b038181166000908152610106602052604080822060fb5491516373a5799760e11b8152898516600482015294955093921691829063e74af32e90602401600060405180830381865afa158015611351573d6000803e3d6000fd5b505050506040513d6000823e601f3d908101601f19168201604052611379919081019061513d565b905060006113898460ff5461310e565b905080156114ce578084600d0160008282546113a5919061505c565b92505081905550876001600160a01b031663a9059cbb866012856060015160ff16106113d157836113e4565b6113e4846012876060015160ff16613170565b6040516001600160e01b031960e085901b1681526001600160a01b03909216600483015260248201526044016020604051808303816000875af115801561142f573d6000803e3d6000fd5b505050506040513d601f19601f820116820180604052508101906114539190615223565b508060ff60008282546114669190614ef7565b90915550504261010055610103805482919060009061148690849061505c565b9091555050604080516001600160a01b0387168152602081018390527ffff6edc60fd30afefcc47525cdf85502200830b22550391f79f9e383df03afad910160405180910390a15b5050505050505050565b6114e06121ca565b6001600160a01b0383811660009081526101066020526040902060010180546001600160a01b03191691841691909117905561152481670de0b6b3a764000061523e565b6001600160a01b038416600090815261010660205260408120600901805490919061155090849061505c565b90915550506040516000805160206155b9833981519152906115759084908690615097565b60405180910390a1505050565b3361158f848285856131a6565b50505050565b6001600160a01b03808216600090815261010660209081526040808320815161024081018352815463ffffffff81168252600160201b90048616818501526001820154861681840152600282015490951660608601526003810180548351818602810186019094528084529495869586958695929493608086019392909183018282801561164c57602002820191906000526020600020905b81546001600160a01b0316815260019091019060200180831161162e575b50505050508152602001600482018054806020026020016040519081016040528092919081815260200182805480156116ae57602002820191906000526020600020905b81546001600160a01b03168152600190910190602001808311611690575b505050505081526020016005820180548060200260200160405190810160405280929190818152602001828054801561173257602002820191906000526020600020906000905b82829054906101000a900463ffffffff1663ffffffff16815260200190600401906020826003010492830192600103820291508084116116f55790505b5050505050815260200160068201548152602001600782015481526020016008820154815260200160098201548152602001600a8201548152602001600b8201548152602001600c8201548152602001600d8201548152602001600e8201548152602001600f820160009054906101000a900460ff161515151581526020016010820180548060200260200160405190810160405280929190818152602001828054801561182b57602002820191906000526020600020906000905b82829054906101000a900463ffffffff1663ffffffff16815260200190600401906020826003010492830192600103820291508084116117ee5790505b50505091909252505050610140810151610160820151909550935090506118528385614ef7565b93959294505050565b6118636121ca565b6001600160a01b0381166118c85760405162461bcd60e51b815260206004820152602660248201527f4f776e61626c653a206e6577206f776e657220697320746865207a65726f206160448201526564647265737360d01b6064820152608401610977565b610a1481612fb0565b6001600160a01b03808216600090815261010660209081526040808320815161024081018352815463ffffffff81168252600160201b90048616818501526001820154861681840152600282015490951660608601526003810180548351818602810186019094528084529495869586958695869593946080860193919290919083018282801561198b57602002820191906000526020600020905b81546001600160a01b0316815260019091019060200180831161196d575b50505050508152602001600482018054806020026020016040519081016040528092919081815260200182805480156119ed57602002820191906000526020600020905b81546001600160a01b031681526001909101906020018083116119cf575b5050505050815260200160058201805480602002602001604051908101604052809291908181526020018280548015611a7157602002820191906000526020600020906000905b82829054906101000a900463ffffffff1663ffffffff1681526020019060040190602082600301049283019260010382029150808411611a345790505b5050505050815260200160068201548152602001600782015481526020016008820154815260200160098201548152602001600a8201548152602001600b8201548152602001600c8201548152602001600d8201548152602001600e8201548152602001600f820160009054906101000a900460ff1615151515815260200160108201805480602002602001604051908101604052809291908181526020018280548015611b6a57602002820191906000526020600020906000905b82829054906101000a900463ffffffff1663ffffffff1681526020019060040190602082600301049283019260010382029150808411611b2d5790505b5050509190925250505060e0810151610100820151610120830151919750955093509050611b98858461505c565b9150509193509193565b6001600160a01b03808216600090815261010660209081526040808320815161024081018352815463ffffffff81168252600160201b90048616818501526001820154861681840152600282015490951660608681019190915260038201805484518187028101870190955280855295969195879587958695889586959094919360808601939290830182828015611c6357602002820191906000526020600020905b81546001600160a01b03168152600190910190602001808311611c45575b5050505050815260200160048201805480602002602001604051908101604052809291908181526020018280548015611cc557602002820191906000526020600020905b81546001600160a01b03168152600190910190602001808311611ca7575b5050505050815260200160058201805480602002602001604051908101604052809291908181526020018280548015611d4957602002820191906000526020600020906000905b82829054906101000a900463ffffffff1663ffffffff1681526020019060040190602082600301049283019260010382029150808411611d0c5790505b5050505050815260200160068201548152602001600782015481526020016008820154815260200160098201548152602001600a8201548152602001600b8201548152602001600c8201548152602001600d8201548152602001600e8201548152602001600f820160009054906101000a900460ff1615151515815260200160108201805480602002602001604051908101604052809291908181526020018280548015611e4257602002820191906000526020600020906000905b82829054906101000a900463ffffffff1663ffffffff1681526020019060040190602082600301049283019260010382029150808411611e055790505b5050509190925250505060608101516080820151805160a084015160c0909401518451939d929c50909a50929850919650945092505050565b611f2c604051806102400160405280600063ffffffff16815260200160006001600160a01b0316815260200160006001600160a01b0316815260200160006001600160a01b03168152602001606081526020016060815260200160608152602001600081526020016000815260200160008152602001600081526020016000815260200160008152602001600081526020016000815260200160008152602001600015158152602001606081525090565b6001600160a01b0380831660009081526101066020908152604091829020825161024081018452815463ffffffff81168252600160201b900485168184015260018201548516818501526002820154909416606085015260038101805484518185028101850190955280855291936080860193909290830182828015611fdb57602002820191906000526020600020905b81546001600160a01b03168152600190910190602001808311611fbd575b505050505081526020016004820180548060200260200160405190810160405280929190818152602001828054801561203d57602002820191906000526020600020905b81546001600160a01b0316815260019091019060200180831161201f575b50505050508152602001600582018054806020026020016040519081016040528092919081815260200182805480156120c157602002820191906000526020600020906000905b82829054906101000a900463ffffffff1663ffffffff16815260200190600401906020826003010492830192600103820291508084116120845790505b5050505050815260200160068201548152602001600782015481526020016008820154815260200160098201548152602001600a8201548152602001600b8201548152602001600c8201548152602001600d8201548152602001600e8201548152602001600f820160009054906101000a900460ff16151515158152602001601082018054806020026020016040519081016040528092919081815260200182805480156121ba57602002820191906000526020600020906000905b82829054906101000a900463ffffffff1663ffffffff168152602001906004019060208260030104928301926001038202915080841161217d5790505b5050505050815250509050919050565b6065546001600160a01b03163314610f305760405162461bcd60e51b815260206004820181905260248201527f4f776e61626c653a2063616c6c6572206973206e6f7420746865206f776e65726044820152606401610977565b610a146121ca565b7f4910fdfa16fed3260ed0e7147f7cc6da11a60208b5b9406d12a635614ffd91435460ff16156122645761225f83614747565b505050565b826001600160a01b03166352d1902d6040518163ffffffff1660e01b8152600401602060405180830381865afa9250505080156122be575060408051601f3d908101601f191682019092526122bb91810190615255565b60015b6123215760405162461bcd60e51b815260206004820152602e60248201527f45524331393637557067726164653a206e657720696d706c656d656e7461746960448201526d6f6e206973206e6f74205555505360901b6064820152608401610977565b60008051602061557283398151915281146123905760405162461bcd60e51b815260206004820152602960248201527f45524331393637557067726164653a20756e737570706f727465642070726f786044820152681a58589b195555525160ba1b6064820152608401610977565b5061225f8383836147e3565b6001600160a01b03808416600090815261010660209081526040808320815161024081018352815463ffffffff81168252600160201b90048616818501526001820154861681840152600282015490951660608601526003810180548351818602810186019094528084529195938693608086019390929183018282801561244d57602002820191906000526020600020905b81546001600160a01b0316815260019091019060200180831161242f575b50505050508152602001600482018054806020026020016040519081016040528092919081815260200182805480156124af57602002820191906000526020600020905b81546001600160a01b03168152600190910190602001808311612491575b505050505081526020016005820180548060200260200160405190810160405280929190818152602001828054801561253357602002820191906000526020600020906000905b82829054906101000a900463ffffffff1663ffffffff16815260200190600401906020826003010492830192600103820291508084116124f65790505b5050505050815260200160068201548152602001600782015481526020016008820154815260200160098201548152602001600a8201548152602001600b8201548152602001600c8201548152602001600d8201548152602001600e8201548152602001600f820160009054906101000a900460ff161515151581526020016010820180548060200260200160405190810160405280929190818152602001828054801561262c57602002820191906000526020600020906000905b82829054906101000a900463ffffffff1663ffffffff16815260200190600401906020826003010492830192600103820291508084116125ef5790505b5050505050815250509050846001600160a01b031681606001516001600160a01b0316036126b15760405162461bcd60e51b815260206004820152602c60248201527f52656665727265722055706c696e652043616e6e6f742062652072656665727260448201526b32b9103237bbb73634b7329760a11b6064820152608401610977565b856001600160a01b0316856001600160a01b0316036127225760405162461bcd60e51b815260206004820152602760248201527f52656665727265722026205573657220616464726573732063616e6e6f742062604482015266329039b0b6b29760c91b6064820152608401610977565b6040805161024081018252835463ffffffff811682526001600160a01b03600160201b90910481166020808401919091526001860154821683850152600286015490911660608301526003850180548451818402810184019095528085526129b494879360808601939192908301828280156127c757602002820191906000526020600020905b81546001600160a01b031681526001909101906020018083116127a9575b505050505081526020016004820180548060200260200160405190810160405280929190818152602001828054801561282957602002820191906000526020600020905b81546001600160a01b0316815260019091019060200180831161280b575b50505050508152602001600582018054806020026020016040519081016040528092919081815260200182805480156128ad57602002820191906000526020600020906000905b82829054906101000a900463ffffffff1663ffffffff16815260200190600401906020826003010492830192600103820291508084116128705790505b5050505050815260200160068201548152602001600782015481526020016008820154815260200160098201548152602001600a8201548152602001600b8201548152602001600c8201548152602001600d8201548152602001600e8201548152602001600f820160009054906101000a900460ff16151515158152602001601082018054806020026020016040519081016040528092919081815260200182805480156129a657602002820191906000526020600020906000905b82829054906101000a900463ffffffff1663ffffffff16815260200190600401906020826003010492830192600103820291508084116129695790505b505050505081525050614808565b612fa8576001600160a01b038616612bb157604080516001600160a01b038881168252871660208201526060818301819052603a908201527f5a65726f20616464726573732063616e6e6f742062652072656665727265722e60808201527f2053657474696e672064656661756c742072656665727265722e00000000000060a082015290517f32df26c7e54a821624fc8d22e1171e5793b90d1fccc483d3ff277b9c42bb22399181900360c00190a16101085460ff16612b33576000836001600160a01b031663b2e6b9126040518163ffffffff1660e01b8152600401602060405180830381865afa158015612aaf573d6000803e3d6000fd5b505050506040513d601f19601f82011682018060405250810190612ad3919061507a565b6002840180546001600160a01b0319166001600160a01b0383161790556040519091507fec49a3c8c4ae06c18160fe86119c381c9d213ac3e052ff35b594da8687b193c790612b259083908990615097565b60405180910390a150612b99565b6000612b3d613087565b6002840180546001600160a01b0319166001600160a01b0383161790556040519091507fec49a3c8c4ae06c18160fe86119c381c9d213ac3e052ff35b594da8687b193c790612b8f9083908990615097565b60405180910390a1505b610108805460ff19811660ff90911615179055612c09565b6002820180546001600160a01b0319166001600160a01b0388161790556040517fec49a3c8c4ae06c18160fe86119c381c9d213ac3e052ff35b594da8687b193c790612c009088908890615097565b60405180910390a15b60005b8460ff168160ff161015612fa65760028301546001600160a01b031615612fa65760028301546001600160a01b03166000908152610106602052604081209060ff83169003612f165760038101805460018082018355600092835260209092200180546001600160a01b0319166001600160a01b038a811691909117909155908501541615612d17576001840154604080516001600160a01b03928316815291891660208301526060828201819052601d908301527f5265666572656520616c7265616479206861766520696270207365742e0000006080830152517fffca51efd3fa9dd00c7ad8de67cce6deeb82e78db2d05fe4b84079eca71665109181900360a00190a1612f16565b60018101546001600160a01b0316612ec8576001810154604080516001600160a01b039283168152918916602083015260608282018190526032908301527f5a65726f20616464726573732063616e6e6f74206265206962702e20536574746080830152710696e672075702064656661756c74206962760741b60a0830152517fffca51efd3fa9dd00c7ad8de67cce6deeb82e78db2d05fe4b84079eca71665109181900360c00190a16000856001600160a01b031663b2e6b9126040518163ffffffff1660e01b8152600401602060405180830381865afa158015612e01573d6000803e3d6000fd5b505050506040513d601f19601f82011682018060405250810190612e25919061507a565b600180870180546001600160a01b038085166001600160a01b031992831681179093559286018054909116909117905583546040519293506000805160206155b983398151915292612e81928592600160201b90041690615097565b60405180910390a184546040516000805160206155b983398151915291612eba918491600160201b90046001600160a01b031690615097565b60405180910390a150612f16565b6001808201805491860180546001600160a01b0319166001600160a01b03938416179055546040516000805160206155b983398151915292612f0d9216908a90615097565b60405180910390a15b60048101805460018082018355600092835260209092200180546001600160a01b0319166001600160a01b038a161790556005820190612f5790849061526e565b8154600181018355600092835260209092206008830401805463ffffffff60079094166004026101000a938402191660ff92909216909202179055925080612f9e81615287565b915050612c0c565b505b505050505050565b606580546001600160a01b038381166001600160a01b0319831681179093556040519116919082907f8be0079c531659141344cd1fd0a4f28419497f9722a3daafe3b4186f6b6457e090600090a35050565b600054610100900460ff166130295760405162461bcd60e51b8152600401610977906152a6565b610f30614827565b600054610100900460ff166130585760405162461bcd60e51b8152600401610977906152a6565b610f3061485a565b600054610100900460ff16610f305760405162461bcd60e51b8152600401610977906152a6565b6000804244613097600143614ef7565b60408051602081019490945283019190915240606082015260800160408051601f19818403018152919052805160209091012060fc549091506000906130dd9083615307565b905060fc81815481106130f2576130f261531b565b6000918252602090912001546001600160a01b03169392505050565b600082600901548284600a0154613125919061505c565b1161314c578190508083600a016000828254613141919061505c565b9091555061316a9050565b82600a015483600901546131609190614ef7565b600a840181905590505b92915050565b600061317d83600a615415565b61318883600a615415565b613192908661523e565b61319c9190615421565b90505b9392505050565b60fb54604051630efc12b160e01b815260ff841660048201526001600160a01b03909116906000908290630efc12b190602401600060405180830381865afa1580156131f6573d6000803e3d6000fd5b505050506040513d6000823e601f3d908101601f1916820160405261321e9190810190615435565b905060008160400151116132875760405162461bcd60e51b815260206004820152602a60248201527f56616c7565206973207a65726f2e20506c656173652073656c65637420636f726044820152693932b1ba10383630b71760b11b6064820152608401610977565b6040516373a5799760e11b81526001600160a01b0384811660048301526000919084169063e74af32e90602401600060405180830381865afa1580156132d1573d6000803e3d6000fd5b505050506040513d6000823e601f3d908101601f191682016040526132f9919081019061513d565b90508060c001516133455760405162461bcd60e51b8152602060048201526016602482015275151bdad95b881a5cc81b9bdd081cdd5c1c1bdc9d195960521b6044820152606401610977565b60008490506000846001600160a01b031663918a54db6040518163ffffffff1660e01b8152600401600060405180830381865afa15801561338a573d6000803e3d6000fd5b505050506040513d6000823e601f3d908101601f191682016040526133b29190810190614fa2565b9050816001600160a01b03166323b872dd89306012876060015160ff16106133de5787604001516133f5565b6133f588604001516012896060015160ff16613170565b6040516001600160e01b031960e086901b1681526001600160a01b03938416600482015292909116602483015260448201526064016020604051808303816000875af1158015613449573d6000803e3d6000fd5b505050506040513d601f19601f8201168201806040525081019061346d9190615223565b506001600160a01b0380891660009081526101066020908152604080832081516365eb204d60e01b8152915190948a16926365eb204d92600480820193918290030181865afa1580156134c4573d6000803e3d6000fd5b505050506040513d601f19601f820116820180604052508101906134e8919061507a565b6040516370a0823160e01b81523060048201526001600160a01b0391909116906370a0823190602401602060405180830381865afa15801561352e573d6000803e3d6000fd5b505050506040513d601f19601f820116820180604052508101906135529190615255565b905085604001518111801561356957506006820154155b15613792576000600287604001516135819190615421565b9050876001600160a01b0316638e68dce46040518163ffffffff1660e01b8152600401602060405180830381865afa1580156135c1573d6000803e3d6000fd5b505050506040513d601f19601f820116820180604052508101906135e5919061507a565b6040516356e4bb9760e11b81526001600160a01b038d8116600483015260248201849052919091169063adc9772e90604401600060405180830381600087803b15801561363157600080fd5b505af1158015613645573d6000803e3d6000fd5b50505050876001600160a01b03166365eb204d6040518163ffffffff1660e01b8152600401602060405180830381865afa158015613687573d6000803e3d6000fd5b505050506040513d601f19601f820116820180604052508101906136ab919061507a565b6001600160a01b031663a9059cbb896001600160a01b0316638e68dce46040518163ffffffff1660e01b8152600401602060405180830381865afa1580156136f7573d6000803e3d6000fd5b505050506040513d601f19601f8201168201806040525081019061371b919061507a565b6040808b015190516001600160e01b031960e085901b1681526001600160a01b03909216600483015260248201526044016020604051808303816000875af115801561376b573d6000803e3d6000fd5b505050506040513d601f19601f8201168201806040525081019061378f9190615223565b50505b815463ffffffff166000036138125760fd805463ffffffff169060006137b7836154e2565b82546101009290920a63ffffffff81810219909316918316021790915560fd548454911663ffffffff199091168117845560009081526101076020526040902080546001600160a01b0319166001600160a01b038d16179055505b8154640100000000600160c01b031916600160201b6001600160a01b038c1602178255604086015160068301805460009061384e90849061505c565b909155505060608601516040870151613867919061523e565b82600901600082825461387a919061505c565b90915550506040805161024081018252835463ffffffff811682526001600160a01b03600160201b9091048116602080840191909152600186015482168385015260028601549091166060830152600385018054845181840281018401909552808552613abf94879360808601939192908301828280156127c7576020028201919060005260206000209081546001600160a01b031681526001909101906020018083116127a9575050505050815260200160048201805480602002602001604051908101604052809291908181526020018280548015612829576020028201919060005260206000209081546001600160a01b0316815260019091019060200180831161280b5750505050508152602001600582018054806020026020016040519081016040528092919081815260200182805480156128ad576000918252602091829020805463ffffffff1684529082028301929091600491018084116128705790505050505050815260200160068201548152602001600782015481526020016008820154815260200160098201548152602001600a8201548152602001600b8201548152602001600c8201548152602001600d8201548152602001600e8201548152602001600f820160009054906101000a900460ff16151515158152602001601082018054806020026020016040519081016040528092919081815260200182805480156129a6576000918252602091829020805463ffffffff168452908202830192909160049101808411612969579050505050505081525050614808565b613ad057613ad08b8b85518a61239c565b8154600283015460408051600160201b84046001600160a01b03908116825263ffffffff909416602082015260ff8d1681830152929091166060830152517fccdfed8601106cae21493f7848436196048b60f2dc70db89d92e3acdabb0ee299181900360800190a16000613b42613087565b90506001600160a01b03811615613cfd576001600160a01b0381166000908152610106602052604080822090890151909190613b97908390606490613b8890600a61523e565b613b929190615421565b61310e565b90508015613cfa57866001600160a01b031663a9059cbb8460128b6060015160ff1610613bc45783613bd7565b613bd78460128d6060015160ff16613170565b6040516001600160e01b031960e085901b1681526001600160a01b03909216600483015260248201526044016020604051808303816000875af1158015613c22573d6000803e3d6000fd5b505050506040513d601f19601f82011682018060405250810190613c469190615223565b508082600c016000828254613c5b919061505c565b925050819055507f693fc02576006378cd4577590d99ad6b18ad4c566c433b85643d7b07a4815665838e8b6040015184600a6064604051613cd9969594939291906001600160a01b0396871681529490951660208501526040840192909252606083015261ffff90811660808301529190911660a082015260c00190565b60405180910390a1806101026000828254613cf4919061505c565b90915550505b50505b60018301546001600160a01b031615613f465760018301546001600160a01b03166000908152610106602052604080822090890151909190606490613d4390600561523e565b613d4d9190615421565b90506000613d5b838361310e565b90508015613f42578083600e016000828254613d77919061505c565b9091555050600186015460608a01516001600160a01b03808b169263a9059cbb92911690601260ff90911610613dad5783613dc0565b613dc08460128e6060015160ff16613170565b6040516001600160e01b031960e085901b1681526001600160a01b03909216600483015260248201526044016020604051808303816000875af1158015613e0b573d6000803e3d6000fd5b505050506040513d601f19601f82011682018060405250810190613e2f9190615223565b507f3c8fdb10971c51ff48e3a4db4d7f14e64690a286be5bb9f410d9fd0fb74dbf488660010160009054906101000a90046001600160a01b03168760000160049054906101000a90046001600160a01b03168c60400151848f6001600160a01b031663e70167176040518163ffffffff1660e01b8152600401602060405180830381865afa158015613ec5573d6000803e3d6000fd5b505050506040513d601f19601f82011682018060405250810190613ee99190615505565b604080516001600160a01b03968716815295909416602086015292840191909152606083015260ff166080820152606460a082015260c00160405180910390a1816101056000828254613f3c919061505c565b90915550505b5050505b6000805b85518160ff1610156144b6576040805161024081018252865463ffffffff811682526001600160a01b03600160201b9091048116602080840191909152600189015482168385015260028901549091166060830152600388018054845181840281018401909552808552614196948a9360808601939192908301828280156127c7576020028201919060005260206000209081546001600160a01b031681526001909101906020018083116127a9575050505050815260200160048201805480602002602001604051908101604052809291908181526020018280548015612829576020028201919060005260206000209081546001600160a01b0316815260019091019060200180831161280b5750505050508152602001600582018054806020026020016040519081016040528092919081815260200182805480156128ad576000918252602091829020805463ffffffff1684529082028301929091600491018084116128705790505050505050815260200160068201548152602001600782015481526020016008820154815260200160098201548152602001600a8201548152602001600b8201548152602001600c8201548152602001600d8201548152602001600e8201548152602001600f820160009054906101000a900460ff16151515158152602001601082018054806020026020016040519081016040528092919081815260200182805480156129a6576000918252602091829020805463ffffffff168452908202830192909160049101808411612969579050505050505081525050614808565b156144b65760028501546001600160a01b03166000908152610106602052604081209060ff831690036142a55789604001518160070160008282546141db919061505c565b9091555050600f81015460ff161561429057600286015460fc80546001818101835560008390527f371f36870d18f32a11fea0f144b021c8b407bb50f8e0267c711123f454b963c090910180546001600160a01b0319166001600160a01b039094169390931790925554601083019161425391614ef7565b8154600181018355600092835260209092206008830401805460079093166004026101000a63ffffffff8181021990941692909316929092021790555b600f8101805460ff19811660ff909116151790555b89604001518160080160008282546142bd919061505c565b9250508190555060006142fd826127108a8660ff16815181106142e2576142e261531b565b602002602001015161ffff168e60400151613b88919061523e565b905080156144a1578082600b016000828254614319919061505c565b9091555050600287015460608b01516001600160a01b03808c169263a9059cbb92911690601260ff9091161061434f5783614362565b6143628460128f6060015160ff16613170565b6040516001600160e01b031960e085901b1681526001600160a01b03909216600483015260248201526044016020604051808303816000875af11580156143ad573d6000803e3d6000fd5b505050506040513d601f19601f820116820180604052508101906143d19190615223565b506143dc818561505c565b6002880154885460408e01518b519397507f3fae587c6f1778678d1e63bd99d63afe07677c2a2eb43a4b228b80e8a38c1b06936001600160a01b0393841693600160201b9093049092169185908d9060ff8a1690811061443e5761443e61531b565b6020026020010151612710896001614456919061526e565b604080516001600160a01b03988916815297909616602088015294860193909352606085019190915261ffff16608084015260a083015260ff1660c082015260e00160405180910390a15b509450806144ae81615287565b915050613f4a565b508061010160008282546144ca919061505c565b9091555050604088015160fe80546000906144e690849061505c565b909155505060408801516064906144fe90600a61523e565b6145089190615421565b60ff6000828254614519919061505c565b9091555050604088015160009060649061453490600561523e565b61453e9190615421565b9050866001600160a01b031663a9059cbb8b6001600160a01b031663916452ab6040518163ffffffff1660e01b8152600401602060405180830381865afa15801561458d573d6000803e3d6000fd5b505050506040513d601f19601f820116820180604052508101906145b1919061507a565b60128b6060015160ff16106145c657836145d9565b6145d98460128d6060015160ff16613170565b6040516001600160e01b031960e085901b1681526001600160a01b03909216600483015260248201526044016020604051808303816000875af1158015614624573d6000803e3d6000fd5b505050506040513d601f19601f820116820180604052508101906146489190615223565b5080610104600082825461465c919061505c565b925050819055507fa290591faac5edd9224fc9f6b8304a91a0fddafde40a1b07f54c093daa8044388a6001600160a01b031663916452ab6040518163ffffffff1660e01b8152600401602060405180830381865afa1580156146c2573d6000803e3d6000fd5b505050506040513d601f19601f820116820180604052508101906146e6919061507a565b60128a6060015160ff161061470257896060015160ff16614715565b6147158360128c6060015160ff16613170565b604080516001600160a01b03909316835260208301919091520160405180910390a15050505050505050505050505050565b6001600160a01b0381163b6147b45760405162461bcd60e51b815260206004820152602d60248201527f455243313936373a206e657720696d706c656d656e746174696f6e206973206e60448201526c1bdd08184818dbdb9d1c9858dd609a1b6064820152608401610977565b60008051602061557283398151915280546001600160a01b0319166001600160a01b0392909216919091179055565b6147ec8361488a565b6000825111806147f95750805b1561225f5761158f83836148ca565b60608101516000906001600160a01b031615614822575060015b919050565b600054610100900460ff1661484e5760405162461bcd60e51b8152600401610977906152a6565b6033805460ff19169055565b600054610100900460ff166148815760405162461bcd60e51b8152600401610977906152a6565b610f3033612fb0565b61489381614747565b6040516001600160a01b038216907fbc7cd75a20ee27fd9adebab32041f755214dbc6bffa90cc0225b39da2e5c2d3b90600090a250565b60606001600160a01b0383163b6149325760405162461bcd60e51b815260206004820152602660248201527f416464726573733a2064656c65676174652063616c6c20746f206e6f6e2d636f6044820152651b9d1c9858dd60d21b6064820152608401610977565b600080846001600160a01b03168460405161494d9190615522565b600060405180830381855af49150503d8060008114614988576040519150601f19603f3d011682016040523d82523d6000602084013e61498d565b606091505b50915091506149b58282604051806060016040528060278152602001615592602791396149be565b95945050505050565b606083156149cd57508161319f565b61319f83838151156149e25781518083602001fd5b8060405162461bcd60e51b8152600401610977919061553e565b6001600160a01b0381168114610a1457600080fd5b600060208284031215614a2357600080fd5b813561319f816149fc565b60008060408385031215614a4157600080fd5b8235614a4c816149fc565b91506020830135614a5c816149fc565b809150509250929050565b600081518084526020808501945080840160005b83811015614a9d57815163ffffffff1687529582019590820190600101614a7b565b509495945050505050565b8315158152606060208201526000614ac36060830185614a67565b9050826040830152949350505050565b634e487b7160e01b600052604160045260246000fd5b60405160e0810167ffffffffffffffff81118282101715614b0c57614b0c614ad3565b60405290565b604051601f8201601f1916810167ffffffffffffffff81118282101715614b3b57614b3b614ad3565b604052919050565b600067ffffffffffffffff821115614b5d57614b5d614ad3565b50601f01601f191660200190565b60008060408385031215614b7e57600080fd5b8235614b89816149fc565b9150602083013567ffffffffffffffff811115614ba557600080fd5b8301601f81018513614bb657600080fd5b8035614bc9614bc482614b43565b614b12565b818152866020838501011115614bde57600080fd5b816020840160208301376000602083830101528093505050509250929050565b600080600080600060a08688031215614c1657600080fd5b8535614c21816149fc565b97602087013597506040870135966060810135965060800135945092505050565b600080600060608486031215614c5757600080fd5b8335614c62816149fc565b92506020840135614c72816149fc565b929592945050506040919091013590565b60ff81168114610a1457600080fd5b600080600060608486031215614ca757600080fd5b8335614cb2816149fc565b92506020840135614cc281614c83565b91506040840135614cd2816149fc565b809150509250925092565b600081518084526020808501945080840160005b83811015614a9d5781516001600160a01b031687529582019590820190600101614cf1565b6001600160a01b038716815260c060208201819052600090614d3a90830188614cdd565b8660408401528281036060840152614d528187614cdd565b90508281036080840152614d668186614a67565b9150508260a0830152979650505050505050565b60208152614d9160208201835163ffffffff169052565b60006020830151614dad60408401826001600160a01b03169052565b5060408301516001600160a01b03811660608401525060608301516001600160a01b03811660808401525060808301516102408060a0850152614df4610260850183614cdd565b915060a0850151601f19808685030160c0870152614e128483614cdd565b935060c08701519150808685030160e0870152614e2f8483614a67565b60e088015161010088810191909152880151610120808901919091528801516101408089019190915288015161016080890191909152880151610180808901919091528801516101a0808901919091528801516101c0808901919091528801516101e080890191909152880151610200808901919091528801519094509150610220614ebe8188018415159052565b870151868503909101838701529050614ed78382614a67565b9695505050505050565b634e487b7160e01b600052601160045260246000fd5b8181038181111561316a5761316a614ee1565b6020808252602c908201527f46756e6374696f6e206d7573742062652063616c6c6564207468726f7567682060408201526b19195b1959d85d1958d85b1b60a21b606082015260800190565b6020808252602c908201527f46756e6374696f6e206d7573742062652063616c6c6564207468726f7567682060408201526b6163746976652070726f787960a01b606082015260800190565b60006020808385031215614fb557600080fd5b825167ffffffffffffffff80821115614fcd57600080fd5b818501915085601f830112614fe157600080fd5b815181811115614ff357614ff3614ad3565b8060051b9150615004848301614b12565b818152918301840191848101908884111561501e57600080fd5b938501935b83851015615050578451925061ffff831683146150405760008081fd5b8282529385019390850190615023565b98975050505050505050565b8082018082111561316a5761316a614ee1565b8051614822816149fc565b60006020828403121561508c57600080fd5b815161319f816149fc565b6001600160a01b0392831681529116602082015260400190565b60005b838110156150cc5781810151838201526020016150b4565b50506000910152565b600082601f8301126150e657600080fd5b81516150f4614bc482614b43565b81815284602083860101111561510957600080fd5b61511a8260208301602087016150b1565b949350505050565b805161482281614c83565b8051801515811461482257600080fd5b60006020828403121561514f57600080fd5b815167ffffffffffffffff8082111561516757600080fd5b9083019060e0828603121561517b57600080fd5b615183614ae9565b61518c8361506f565b81526020830151828111156151a057600080fd5b6151ac878286016150d5565b6020830152506040830151828111156151c457600080fd5b6151d0878286016150d5565b6040830152506151e260608401615122565b60608201526151f36080840161512d565b608082015261520460a0840161506f565b60a082015261521560c0840161512d565b60c082015295945050505050565b60006020828403121561523557600080fd5b61319f8261512d565b808202811582820484141761316a5761316a614ee1565b60006020828403121561526757600080fd5b5051919050565b60ff818116838216019081111561316a5761316a614ee1565b600060ff821660ff810361529d5761529d614ee1565b60010192915050565b6020808252602b908201527f496e697469616c697a61626c653a20636f6e7472616374206973206e6f74206960408201526a6e697469616c697a696e6760a81b606082015260800190565b634e487b7160e01b600052601260045260246000fd5b600082615316576153166152f1565b500690565b634e487b7160e01b600052603260045260246000fd5b600181815b8085111561536c57816000190482111561535257615352614ee1565b8085161561535f57918102915b93841c9390800290615336565b509250929050565b6000826153835750600161316a565b816153905750600061316a565b81600181146153a657600281146153b0576153cc565b600191505061316a565b60ff8411156153c1576153c1614ee1565b50506001821b61316a565b5060208310610133831016604e8410600b84101617156153ef575081810a61316a565b6153f98383615331565b806000190482111561540d5761540d614ee1565b029392505050565b600061319f8383615374565b600082615430576154306152f1565b500490565b60006020828403121561544757600080fd5b815167ffffffffffffffff8082111561545f57600080fd5b908301906080828603121561547357600080fd5b60405160808101818110838211171561548e5761548e614ad3565b604052825161549c81614c83565b81526020830151828111156154b057600080fd5b6154bc878286016150d5565b602083015250604083015160408201526060830151606082015280935050505092915050565b600063ffffffff8083168181036154fb576154fb614ee1565b6001019392505050565b60006020828403121561551757600080fd5b815161319f81614c83565b600082516155348184602087016150b1565b9190910192915050565b602081526000825180602084015261555d8160408501602087016150b1565b601f01601f1916919091016040019291505056fe360894a13ba1a3210667c828492db98dca3e2076cc3735a920a3ca505d382bbc416464726573733a206c6f772d6c6576656c2064656c65676174652063616c6c206661696c656400f37bd73ff29ab549d774afc91445bf33292ed9a4b4b4177fb1e61ff3c58469a2646970667358221220a6ebaaa5738854a2b6d53179b49529d81031014f708aa489ab8324d72239d9a364736f6c63430008120033",
  "linkReferences": {},
  "deployedLinkReferences": {}
}