{
  "_format": "hh-sol-artifact-1",
  "contractName": "ReferralV1Upgradeable",
  "sourceName": "contracts/ReferralV1Upgradeable.sol",
  "abi": [
    {
      "anonymous": false,
      "inputs": [
        {
          "indexed": false,
          "internalType": "address",
          "name": "previousAdmin",
          "type": "address"
        },
        {
          "indexed": false,
          "internalType": "address",
          "name": "newAdmin",
          "type": "address"
        }
      ],
      "name": "AdminChanged",
      "type": "event"
    },
    {
      "anonymous": false,
      "inputs": [
        {
          "indexed": true,
          "internalType": "address",
          "name": "beacon",
          "type": "address"
        }
      ],
      "name": "BeaconUpgraded",
      "type": "event"
    },
    {
      "anonymous": false,
      "inputs": [
        {
          "indexed": false,
          "internalType": "address",
          "name": "coreMembersContract",
          "type": "address"
        },
        {
          "indexed": false,
          "internalType": "uint256",
          "name": "value",
          "type": "uint256"
        }
      ],
      "name": "CoreMembersRewardPaid",
      "type": "event"
    },
    {
      "anonymous": false,
      "inputs": [
        {
          "indexed": false,
          "internalType": "address",
          "name": "referrer",
          "type": "address"
        },
        {
          "indexed": false,
          "internalType": "address",
          "name": "user",
          "type": "address"
        },
        {
          "indexed": false,
          "internalType": "uint256",
          "name": "value",
          "type": "uint256"
        }
      ],
      "name": "DirectBusinessUpdated",
      "type": "event"
    },
    {
      "anonymous": false,
      "inputs": [
        {
          "indexed": false,
          "internalType": "address",
          "name": "globalAddress",
          "type": "address"
        },
        {
          "indexed": false,
          "internalType": "uint256",
          "name": "rewardValue",
          "type": "uint256"
        }
      ],
      "name": "GlobalRewardsPaid",
      "type": "event"
    },
    {
      "anonymous": false,
      "inputs": [
        {
          "indexed": false,
          "internalType": "address",
          "name": "ibpAddress",
          "type": "address"
        },
        {
          "indexed": false,
          "internalType": "address",
          "name": "userAddress",
          "type": "address"
        }
      ],
      "name": "IBPAdded",
      "type": "event"
    },
    {
      "anonymous": false,
      "inputs": [
        {
          "indexed": false,
          "internalType": "address",
          "name": "ibpAddress",
          "type": "address"
        },
        {
          "indexed": false,
          "internalType": "address",
          "name": "userAddress",
          "type": "address"
        },
        {
          "indexed": false,
          "internalType": "string",
          "name": "reason",
          "type": "string"
        }
      ],
      "name": "IBPNotAdded",
      "type": "event"
    },
    {
      "anonymous": false,
      "inputs": [
        {
          "indexed": false,
          "internalType": "address",
          "name": "ibpAddress",
          "type": "address"
        },
        {
          "indexed": false,
          "internalType": "uint256",
          "name": "rewardValue",
          "type": "uint256"
        }
      ],
      "name": "IBPRewardsPaid",
      "type": "event"
    },
    {
      "anonymous": false,
      "inputs": [
        {
          "indexed": false,
          "internalType": "uint8",
          "name": "version",
          "type": "uint8"
        }
      ],
      "name": "Initialized",
      "type": "event"
    },
    {
      "anonymous": false,
      "inputs": [
        {
          "indexed": false,
          "internalType": "address",
          "name": "userAddress",
          "type": "address"
        },
        {
          "indexed": false,
          "internalType": "string",
          "name": "reason",
          "type": "string"
        }
      ],
      "name": "NoRewardsPaid",
      "type": "event"
    },
    {
      "anonymous": false,
      "inputs": [
        {
          "indexed": true,
          "internalType": "address",
          "name": "previousOwner",
          "type": "address"
        },
        {
          "indexed": true,
          "internalType": "address",
          "name": "newOwner",
          "type": "address"
        }
      ],
      "name": "OwnershipTransferred",
      "type": "event"
    },
    {
      "anonymous": false,
      "inputs": [
        {
          "indexed": false,
          "internalType": "address",
          "name": "account",
          "type": "address"
        }
      ],
      "name": "Paused",
      "type": "event"
    },
    {
      "anonymous": false,
      "inputs": [
        {
          "indexed": false,
          "internalType": "address",
          "name": "referrerAddress",
          "type": "address"
        },
        {
          "indexed": false,
          "internalType": "uint256",
          "name": "rewardValue",
          "type": "uint256"
        },
        {
          "indexed": false,
          "internalType": "uint32",
          "name": "level",
          "type": "uint32"
        }
      ],
      "name": "ReferralRewardsPaid",
      "type": "event"
    },
    {
      "anonymous": false,
      "inputs": [
        {
          "indexed": false,
          "internalType": "address",
          "name": "referrerAddress",
          "type": "address"
        },
        {
          "indexed": false,
          "internalType": "address",
          "name": "refereeAddress",
          "type": "address"
        }
      ],
      "name": "ReferrerAdded",
      "type": "event"
    },
    {
      "anonymous": false,
      "inputs": [
        {
          "indexed": false,
          "internalType": "address",
          "name": "referrerAddress",
          "type": "address"
        },
        {
          "indexed": false,
          "internalType": "address",
          "name": "refereeAddress",
          "type": "address"
        },
        {
          "indexed": false,
          "internalType": "string",
          "name": "reason",
          "type": "string"
        }
      ],
      "name": "ReferrerNotAdded",
      "type": "event"
    },
    {
      "anonymous": false,
      "inputs": [
        {
          "indexed": false,
          "internalType": "address",
          "name": "userAddress",
          "type": "address"
        },
        {
          "indexed": false,
          "internalType": "uint32",
          "name": "userId",
          "type": "uint32"
        },
        {
          "indexed": false,
          "internalType": "uint8",
          "name": "planId",
          "type": "uint8"
        },
        {
          "indexed": false,
          "internalType": "address",
          "name": "referrerAddress",
          "type": "address"
        }
      ],
      "name": "Registration",
      "type": "event"
    },
    {
      "anonymous": false,
      "inputs": [
        {
          "indexed": false,
          "internalType": "address",
          "name": "parentAddress",
          "type": "address"
        },
        {
          "indexed": false,
          "internalType": "address",
          "name": "referrerAddress",
          "type": "address"
        },
        {
          "indexed": false,
          "internalType": "address",
          "name": "refereeAddress",
          "type": "address"
        },
        {
          "indexed": false,
          "internalType": "uint32",
          "name": "level",
          "type": "uint32"
        }
      ],
      "name": "TeamAddressAdded",
      "type": "event"
    },
    {
      "anonymous": false,
      "inputs": [
        {
          "indexed": false,
          "internalType": "address",
          "name": "referrer",
          "type": "address"
        },
        {
          "indexed": false,
          "internalType": "address",
          "name": "user",
          "type": "address"
        },
        {
          "indexed": false,
          "internalType": "uint256",
          "name": "value",
          "type": "uint256"
        }
      ],
      "name": "TeamBusinessUpdated",
      "type": "event"
    },
    {
      "anonymous": false,
      "inputs": [
        {
          "indexed": false,
          "internalType": "address",
          "name": "account",
          "type": "address"
        }
      ],
      "name": "Unpaused",
      "type": "event"
    },
    {
      "anonymous": false,
      "inputs": [
        {
          "indexed": true,
          "internalType": "address",
          "name": "implementation",
          "type": "address"
        }
      ],
      "name": "Upgraded",
      "type": "event"
    },
    {
      "anonymous": false,
      "inputs": [
        {
          "indexed": false,
          "internalType": "address",
          "name": "globalAddress",
          "type": "address"
        },
        {
          "indexed": false,
          "internalType": "uint256",
          "name": "rewardValue",
          "type": "uint256"
        }
      ],
      "name": "WeeklyRewardsPaid",
      "type": "event"
    },
    {
      "inputs": [
        {
          "internalType": "address",
          "name": "_userAddress",
          "type": "address"
        },
        {
          "internalType": "address",
          "name": "_ibpAddress",
          "type": "address"
        },
        {
          "internalType": "uint256",
          "name": "_maxLimitInDecimals",
          "type": "uint256"
        }
      ],
      "name": "addIbpToAddressAdmin",
      "outputs": [],
      "stateMutability": "nonpayable",
      "type": "function"
    },
    {
      "inputs": [
        {
          "internalType": "address",
          "name": "_tokenAddress",
          "type": "address"
        }
      ],
      "name": "distributeWeeklyReward",
      "outputs": [],
      "stateMutability": "nonpayable",
      "type": "function"
    },
    {
      "inputs": [],
      "name": "getGlobalAddress",
      "outputs": [
        {
          "internalType": "address[]",
          "name": "globalAddress",
          "type": "address[]"
        },
        {
          "internalType": "uint256",
          "name": "globalAddressCount",
          "type": "uint256"
        }
      ],
      "stateMutability": "view",
      "type": "function"
    },
    {
      "inputs": [
        {
          "internalType": "uint32",
          "name": "_id",
          "type": "uint32"
        }
      ],
      "name": "getIDToAddress",
      "outputs": [
        {
          "internalType": "address",
          "name": "",
          "type": "address"
        }
      ],
      "stateMutability": "view",
      "type": "function"
    },
    {
      "inputs": [],
      "name": "getRandomGlobalAddress",
      "outputs": [
        {
          "internalType": "address",
          "name": "",
          "type": "address"
        }
      ],
      "stateMutability": "view",
      "type": "function"
    },
    {
      "inputs": [],
      "name": "getRegistrationsStats",
      "outputs": [
        {
          "internalType": "uint32",
          "name": "totalUser",
          "type": "uint32"
        },
        {
          "internalType": "uint256",
          "name": "totalRegistrationValue",
          "type": "uint256"
        },
        {
          "internalType": "uint256",
          "name": "totalReferralPaid",
          "type": "uint256"
        },
        {
          "internalType": "uint256",
          "name": "totalGlobalRewardsPaid",
          "type": "uint256"
        },
        {
          "internalType": "uint256",
          "name": "totalWeeklyRewardsPaid",
          "type": "uint256"
        },
        {
          "internalType": "uint256",
          "name": "totalCoreMembershipRewardPaid",
          "type": "uint256"
        },
        {
          "internalType": "uint256",
          "name": "totalIbpRewardsPaid",
          "type": "uint256"
        }
      ],
      "stateMutability": "view",
      "type": "function"
    },
    {
      "inputs": [
        {
          "internalType": "uint256",
          "name": "_valueInUSDWei",
          "type": "uint256"
        }
      ],
      "name": "getUSDToNativeValue",
      "outputs": [
        {
          "internalType": "uint256",
          "name": "",
          "type": "uint256"
        }
      ],
      "stateMutability": "view",
      "type": "function"
    },
    {
      "inputs": [
        {
          "internalType": "address",
          "name": "_userAddress",
          "type": "address"
        }
      ],
      "name": "getUserAccount",
      "outputs": [
        {
          "components": [
            {
              "internalType": "uint32",
              "name": "userId",
              "type": "uint32"
            },
            {
              "internalType": "address",
              "name": "selfAddress",
              "type": "address"
            },
            {
              "internalType": "address",
              "name": "ibpAddress",
              "type": "address"
            },
            {
              "internalType": "address",
              "name": "referrerAddress",
              "type": "address"
            },
            {
              "internalType": "address[]",
              "name": "refereeAddresses",
              "type": "address[]"
            },
            {
              "internalType": "address[]",
              "name": "teamAddress",
              "type": "address[]"
            },
            {
              "internalType": "uint32[]",
              "name": "teamLevels",
              "type": "uint32[]"
            },
            {
              "internalType": "uint256",
              "name": "selfBusiness",
              "type": "uint256"
            },
            {
              "internalType": "uint256",
              "name": "directBusiness",
              "type": "uint256"
            },
            {
              "internalType": "uint256",
              "name": "teamBusiness",
              "type": "uint256"
            },
            {
              "internalType": "uint256",
              "name": "maxLimit",
              "type": "uint256"
            },
            {
              "internalType": "uint256",
              "name": "currentLimit",
              "type": "uint256"
            },
            {
              "internalType": "uint256",
              "name": "referralRewards",
              "type": "uint256"
            },
            {
              "internalType": "uint256",
              "name": "globalRewards",
              "type": "uint256"
            },
            {
              "internalType": "uint256",
              "name": "weeklyRewards",
              "type": "uint256"
            },
            {
              "internalType": "uint256",
              "name": "ibpRewards",
              "type": "uint256"
            },
            {
              "internalType": "bool",
              "name": "isGlobal",
              "type": "bool"
            },
            {
              "internalType": "uint32[]",
              "name": "globalIndexes",
              "type": "uint32[]"
            }
          ],
          "internalType": "struct AccountStruct",
          "name": "",
          "type": "tuple"
        }
      ],
      "stateMutability": "view",
      "type": "function"
    },
    {
      "inputs": [
        {
          "internalType": "address",
          "name": "_userAddress",
          "type": "address"
        }
      ],
      "name": "getUserBusiness",
      "outputs": [
        {
          "internalType": "uint256",
          "name": "selfBusiness",
          "type": "uint256"
        },
        {
          "internalType": "uint256",
          "name": "directBusiness",
          "type": "uint256"
        },
        {
          "internalType": "uint256",
          "name": "teamBusiness",
          "type": "uint256"
        },
        {
          "internalType": "uint256",
          "name": "totalBusiness",
          "type": "uint256"
        }
      ],
      "stateMutability": "view",
      "type": "function"
    },
    {
      "inputs": [
        {
          "internalType": "address",
          "name": "_userAddress",
          "type": "address"
        }
      ],
      "name": "getUserIbpAddress",
      "outputs": [
        {
          "internalType": "address",
          "name": "",
          "type": "address"
        }
      ],
      "stateMutability": "view",
      "type": "function"
    },
    {
      "inputs": [
        {
          "internalType": "address",
          "name": "_userAddress",
          "type": "address"
        }
      ],
      "name": "getUserLimit",
      "outputs": [
        {
          "internalType": "uint256",
          "name": "maxLimit",
          "type": "uint256"
        },
        {
          "internalType": "uint256",
          "name": "currentLimit",
          "type": "uint256"
        },
        {
          "internalType": "uint256",
          "name": "limitRemaingvalue",
          "type": "uint256"
        }
      ],
      "stateMutability": "view",
      "type": "function"
    },
    {
      "inputs": [
        {
          "internalType": "address",
          "name": "_userAddress",
          "type": "address"
        }
      ],
      "name": "getUserRewards",
      "outputs": [
        {
          "internalType": "uint256",
          "name": "referralReward",
          "type": "uint256"
        },
        {
          "internalType": "uint256",
          "name": "globalReward",
          "type": "uint256"
        },
        {
          "internalType": "uint256",
          "name": "weeklyReward",
          "type": "uint256"
        },
        {
          "internalType": "uint256",
          "name": "ibpReward",
          "type": "uint256"
        },
        {
          "internalType": "uint256",
          "name": "totalIncome",
          "type": "uint256"
        }
      ],
      "stateMutability": "view",
      "type": "function"
    },
    {
      "inputs": [
        {
          "internalType": "address",
          "name": "_userAddress",
          "type": "address"
        }
      ],
      "name": "getUserTeam",
      "outputs": [
        {
          "internalType": "address",
          "name": "referrer",
          "type": "address"
        },
        {
          "internalType": "address[]",
          "name": "referees",
          "type": "address[]"
        },
        {
          "internalType": "uint256",
          "name": "refereeCount",
          "type": "uint256"
        },
        {
          "internalType": "address[]",
          "name": "team",
          "type": "address[]"
        },
        {
          "internalType": "uint32[]",
          "name": "teamLevels",
          "type": "uint32[]"
        },
        {
          "internalType": "uint256",
          "name": "teamCount",
          "type": "uint256"
        }
      ],
      "stateMutability": "view",
      "type": "function"
    },
    {
      "inputs": [],
      "name": "getVariablesContract",
      "outputs": [
        {
          "internalType": "address",
          "name": "",
          "type": "address"
        }
      ],
      "stateMutability": "view",
      "type": "function"
    },
    {
      "inputs": [],
      "name": "getWeeklyRewardToBeDistributed",
      "outputs": [
        {
          "internalType": "uint256",
          "name": "_rewardValue",
          "type": "uint256"
        },
        {
          "internalType": "uint256",
          "name": "_remianingTime",
          "type": "uint256"
        },
        {
          "internalType": "uint256",
          "name": "_endTime",
          "type": "uint256"
        }
      ],
      "stateMutability": "view",
      "type": "function"
    },
    {
      "inputs": [],
      "name": "initialize",
      "outputs": [],
      "stateMutability": "nonpayable",
      "type": "function"
    },
    {
      "inputs": [
        {
          "internalType": "address",
          "name": "_userAddress",
          "type": "address"
        }
      ],
      "name": "isUserInGlobalList",
      "outputs": [
        {
          "internalType": "bool",
          "name": "isInList",
          "type": "bool"
        },
        {
          "internalType": "uint32[]",
          "name": "indexes",
          "type": "uint32[]"
        },
        {
          "internalType": "uint256",
          "name": "totalGlobalIds",
          "type": "uint256"
        }
      ],
      "stateMutability": "view",
      "type": "function"
    },
    {
      "inputs": [],
      "name": "owner",
      "outputs": [
        {
          "internalType": "address",
          "name": "",
          "type": "address"
        }
      ],
      "stateMutability": "view",
      "type": "function"
    },
    {
      "inputs": [],
      "name": "paused",
      "outputs": [
        {
          "internalType": "bool",
          "name": "",
          "type": "bool"
        }
      ],
      "stateMutability": "view",
      "type": "function"
    },
    {
      "inputs": [],
      "name": "proxiableUUID",
      "outputs": [
        {
          "internalType": "bytes32",
          "name": "",
          "type": "bytes32"
        }
      ],
      "stateMutability": "view",
      "type": "function"
    },
    {
      "inputs": [
        {
          "internalType": "address",
          "name": "_userAddress",
          "type": "address"
        }
      ],
      "name": "pushAddressToGlobal",
      "outputs": [],
      "stateMutability": "nonpayable",
      "type": "function"
    },
    {
      "inputs": [
        {
          "internalType": "uint16",
          "name": "_from",
          "type": "uint16"
        },
        {
          "internalType": "uint16",
          "name": "_to",
          "type": "uint16"
        }
      ],
      "name": "reRegisterAccounts",
      "outputs": [],
      "stateMutability": "nonpayable",
      "type": "function"
    },
    {
      "inputs": [
        {
          "internalType": "address",
          "name": "_referrer",
          "type": "address"
        },
        {
          "internalType": "uint8",
          "name": "_planId",
          "type": "uint8"
        },
        {
          "internalType": "address",
          "name": "_tokenAddress",
          "type": "address"
        }
      ],
      "name": "registrationWithToken",
      "outputs": [],
      "stateMutability": "nonpayable",
      "type": "function"
    },
    {
      "inputs": [],
      "name": "renounceOwnership",
      "outputs": [],
      "stateMutability": "nonpayable",
      "type": "function"
    },
    {
      "inputs": [],
      "name": "resetGlobalArray",
      "outputs": [],
      "stateMutability": "nonpayable",
      "type": "function"
    },
    {
      "inputs": [
        {
          "internalType": "uint16",
          "name": "_from",
          "type": "uint16"
        },
        {
          "internalType": "uint16",
          "name": "_to",
          "type": "uint16"
        }
      ],
      "name": "resetUserAccounts",
      "outputs": [],
      "stateMutability": "nonpayable",
      "type": "function"
    },
    {
      "inputs": [
        {
          "internalType": "uint256",
          "name": "_valueToAddInWei",
          "type": "uint256"
        },
        {
          "internalType": "uint256",
          "name": "_timeInSeconds",
          "type": "uint256"
        }
      ],
      "name": "setWeeklyDetails",
      "outputs": [],
      "stateMutability": "nonpayable",
      "type": "function"
    },
    {
      "inputs": [
        {
          "internalType": "address",
          "name": "newOwner",
          "type": "address"
        }
      ],
      "name": "transferOwnership",
      "outputs": [],
      "stateMutability": "nonpayable",
      "type": "function"
    },
    {
      "inputs": [
        {
          "internalType": "address",
          "name": "newImplementation",
          "type": "address"
        }
      ],
      "name": "upgradeTo",
      "outputs": [],
      "stateMutability": "nonpayable",
      "type": "function"
    },
    {
      "inputs": [
        {
          "internalType": "address",
          "name": "newImplementation",
          "type": "address"
        },
        {
          "internalType": "bytes",
          "name": "data",
          "type": "bytes"
        }
      ],
      "name": "upgradeToAndCall",
      "outputs": [],
      "stateMutability": "payable",
      "type": "function"
    },
    {
      "stateMutability": "payable",
      "type": "receive"
    }
  ],
  "bytecode": "0x60a06040523060805234801561001457600080fd5b5060805161574c6200004d60003960008181610aed01528181610b3601528181610f4301528181610f830152611016015261574c6000f3fe6080604052600436106101d15760003560e01c8063a0d62b93116100f7578063e9587e8611610095578063f8494b6e11610064578063f8494b6e146105d3578063f87127b4146105e8578063faeda7e514610628578063fb47e0161461065a57600080fd5b8063e9587e8614610560578063f13a143f14610580578063f2fde38b1461059e578063f53e0d67146105be57600080fd5b8063d277b8a9116100d1578063d277b8a9146104c3578063d916fd81146104e3578063df10817614610520578063e6f6769e1461054057600080fd5b8063a0d62b9314610460578063cd4cc86514610480578063d0ff813e146104a057600080fd5b80634f1ef2861161016f5780638129fc1c1161013e5780638129fc1c146103ac578063846688f7146103c15780638da5cb5b146103f1578063967012eb1461042357600080fd5b80634f1ef2861461034c57806352d1902d1461035f5780635c975abb14610374578063715018a61461039757600080fd5b806313bc9a59116101ab57806313bc9a59146102af5780633659cfe6146102cf5780633b51bfa9146102ef5780633ef575e91461031d57600080fd5b80630690c6a8146101dd5780630716b80814610245578063078b0fb71461026757600080fd5b366101d857005b600080fd5b3480156101e957600080fd5b5060fd5460fe5461010154610102546101035461010454610105546040805163ffffffff90981688526020880196909652948601939093526060850191909152608084015260a083015260c082015260e0015b60405180910390f35b34801561025157600080fd5b50610265610260366004614b0a565b610687565b005b34801561027357600080fd5b50610287610282366004614b58565b61073f565b604080519586526020860194909452928401919091526060830152608082015260a00161023c565b3480156102bb57600080fd5b506102656102ca366004614b58565b610a10565b3480156102db57600080fd5b506102656102ea366004614b58565b610ae3565b3480156102fb57600080fd5b5061030f61030a366004614b75565b610bcb565b60405190815260200161023c565b34801561032957600080fd5b5061033d610338366004614b58565b610c6e565b60405161023c93929190614bcf565b61026561035a366004614c92565b610f39565b34801561036b57600080fd5b5061030f611009565b34801561038057600080fd5b5060335460ff16604051901515815260200161023c565b3480156103a357600080fd5b506102656110bc565b3480156103b857600080fd5b506102656110d0565b3480156103cd57600080fd5b506103d661121b565b6040805193845260208401929092529082015260600161023c565b3480156103fd57600080fd5b506065546001600160a01b03165b6040516001600160a01b03909116815260200161023c565b34801561042f57600080fd5b5061040b61043e366004614b58565b6001600160a01b03908116600090815261010660205260409020600101541690565b34801561046c57600080fd5b5061026561047b366004614b0a565b611252565b34801561048c57600080fd5b5061026561049b366004614d25565b6117e6565b3480156104ac57600080fd5b506104b5611811565b60405161023c929190614d80565b3480156104cf57600080fd5b506102656104de366004614b58565b61187d565b3480156104ef57600080fd5b5061040b6104fe366004614da2565b63ffffffff16600090815261010760205260409020546001600160a01b031690565b34801561052c57600080fd5b5061026561053b366004614dc8565b611aac565b34801561054c57600080fd5b5061026561055b366004614e18565b611b70565b34801561056c57600080fd5b506103d661057b366004614b58565b611b7d565b34801561058c57600080fd5b5060fb546001600160a01b031661040b565b3480156105aa57600080fd5b506102656105b9366004614b58565b611e43565b3480156105ca57600080fd5b5061040b611eb9565b3480156105df57600080fd5b50610265611ec8565b3480156105f457600080fd5b50610608610603366004614b58565b611edc565b60408051948552602085019390935291830152606082015260800161023c565b34801561063457600080fd5b50610648610643366004614b58565b6121ad565b60405161023c96959493929190614e63565b34801561066657600080fd5b5061067a610675366004614b58565b612486565b60405161023c9190614ec7565b61068f6127d5565b815b8161ffff168161ffff16101561073a5761ffff8116600090815261010760209081526040808320546001600160a01b0316808452610106909252822090916106dd906003830190614aa2565b80600701600090558060040160006106f59190614aa2565b806008016000905580600501600061070d9190614ac0565b600f8101805460ff19169055610727601082016000614ac0565b50508061073390615044565b9050610691565b505050565b6001600160a01b03808216600090815261010660209081526040808320815161024081018352815463ffffffff81168252600160201b9004861681850152600182015486168184015260028201549095166060860152600381018054835181860281018601909452808452949586958695869586958695909360808601938301828280156107f657602002820191906000526020600020905b81546001600160a01b031681526001909101906020018083116107d8575b505050505081526020016004820180548060200260200160405190810160405280929190818152602001828054801561085857602002820191906000526020600020905b81546001600160a01b0316815260019091019060200180831161083a575b50505050508152602001600582018054806020026020016040519081016040528092919081815260200182805480156108dc57602002820191906000526020600020906000905b82829054906101000a900463ffffffff1663ffffffff168152602001906004019060208260030104928301926001038202915080841161089f5790505b5050505050815260200160068201548152602001600782015481526020016008820154815260200160098201548152602001600a8201548152602001600b8201548152602001600c8201548152602001600d8201548152602001600e8201548152602001600f820160009054906101000a900460ff16151515158152602001601082018054806020026020016040519081016040528092919081815260200182805480156109d557602002820191906000526020600020906000905b82829054906101000a900463ffffffff1663ffffffff16815260200190600401906020826003010492830192600103820291508084116109985790505b505050919092525050506101808101516101a08201516101c08301516101e084015161016090940151929b919a509850919650945092505050565b610a186127d5565b6001600160a01b038116600090815261010660205260409020600f8101805460ff1916600190811790915560fc54601090920191610a569190615065565b8154600180820184556000938452602084206008830401805460079093166004026101000a63ffffffff81810219909416949093169290920292909217905560fc805491820181559091527f371f36870d18f32a11fea0f144b021c8b407bb50f8e0267c711123f454b963c00180546001600160a01b0319166001600160a01b0392909216919091179055565b6001600160a01b037f0000000000000000000000000000000000000000000000000000000000000000163003610b345760405162461bcd60e51b8152600401610b2b90615078565b60405180910390fd5b7f00000000000000000000000000000000000000000000000000000000000000006001600160a01b0316610b7d6000805160206156b0833981519152546001600160a01b031690565b6001600160a01b031614610ba35760405162461bcd60e51b8152600401610b2b906150c4565b610bac8161282f565b60408051600080825260208201909252610bc891839190612837565b50565b6000610c4c60fb60009054906101000a90046001600160a01b03166001600160a01b0316631b40f3096040518163ffffffff1660e01b8152600401602060405180830381865afa158015610c23573d6000803e3d6000fd5b505050506040513d601f19601f82011682018060405250810190610c47919061511b565b6129a2565b610c5e83670de0b6b3a7640000615138565b610c689190615165565b92915050565b6001600160a01b03808216600090815261010660209081526040808320815161024081018352815463ffffffff81168252600160201b9004861681850152600182015486168184015260028201549095166060868101919091526003820180548451818702810187019095528085529596919587958695939493608086019390929091830182828015610d2a57602002820191906000526020600020905b81546001600160a01b03168152600190910190602001808311610d0c575b5050505050815260200160048201805480602002602001604051908101604052809291908181526020018280548015610d8c57602002820191906000526020600020905b81546001600160a01b03168152600190910190602001808311610d6e575b5050505050815260200160058201805480602002602001604051908101604052809291908181526020018280548015610e1057602002820191906000526020600020906000905b82829054906101000a900463ffffffff1663ffffffff1681526020019060040190602082600301049283019260010382029150808411610dd35790505b5050505050815260200160068201548152602001600782015481526020016008820154815260200160098201548152602001600a8201548152602001600b8201548152602001600c8201548152602001600d8201548152602001600e8201548152602001600f820160009054906101000a900460ff1615151515815260200160108201805480602002602001604051908101604052809291908181526020018280548015610f0957602002820191906000526020600020906000905b82829054906101000a900463ffffffff1663ffffffff1681526020019060040190602082600301049283019260010382029150808411610ecc5790505b50505050508152505090506000816102200151511115610f2857600193505b610220015180519395909450915050565b6001600160a01b037f0000000000000000000000000000000000000000000000000000000000000000163003610f815760405162461bcd60e51b8152600401610b2b90615078565b7f00000000000000000000000000000000000000000000000000000000000000006001600160a01b0316610fca6000805160206156b0833981519152546001600160a01b031690565b6001600160a01b031614610ff05760405162461bcd60e51b8152600401610b2b906150c4565b610ff98261282f565b61100582826001612837565b5050565b6000306001600160a01b037f000000000000000000000000000000000000000000000000000000000000000016146110a95760405162461bcd60e51b815260206004820152603860248201527f555550535570677261646561626c653a206d757374206e6f742062652063616c60448201527f6c6564207468726f7567682064656c656761746563616c6c00000000000000006064820152608401610b2b565b506000805160206156b083398151915290565b6110c46127d5565b6110ce6000612a15565b565b600054610100900460ff16158080156110f05750600054600160ff909116105b8061110a5750303b15801561110a575060005460ff166001145b61116d5760405162461bcd60e51b815260206004820152602e60248201527f496e697469616c697a61626c653a20636f6e747261637420697320616c72656160448201526d191e481a5b9a5d1a585b1a5e995960921b6064820152608401610b2b565b6000805460ff191660011790558015611190576000805461ff0019166101001790555b60fb80546001600160a01b03191673494549e00fe6598e3dc93254c5377c406dda857917905542610100556111c3612a67565b6111cb612a96565b6111d3612ac5565b8015610bc8576000805461ff0019169055604051600181527f7f26b83ff96e1f2b6a682f133852f6798a09c465da95921460cefb38474024989060200160405180910390a150565b60ff546101005460009081906112349062093a80615179565b9050428082111561124c576112498183615065565b92505b50909192565b61125a6127d5565b60fb546001600160a01b031661ffff83165b8261ffff168163ffffffff1610156117e05763ffffffff8116600090815261010760209081526040808320546001600160a01b039081168085526101069093529220805491929091600160201b9004166112e4578054640100000000600160c01b031916600160201b6001600160a01b038416021781555b6000816006015490506000856001600160a01b031663918a54db6040518163ffffffff1660e01b8152600401600060405180830381865afa15801561132d573d6000803e3d6000fd5b505050506040513d6000823e601f3d908101601f19168201604052611355919081019061518c565b905060005b81518160ff1610156117ca5760028401546001600160a01b031615806113f15750866001600160a01b031663b2e6b9126040518163ffffffff1660e01b8152600401602060405180830381865afa1580156113b9573d6000803e3d6000fd5b505050506040513d601f19601f820116820180604052508101906113dd919061511b565b60028501546001600160a01b039081169116145b6117ca5760028401546001600160a01b03166000908152610106602052604090208160ff166000036116475760038101805460018101825560009182526020918290200180546001600160a01b0319166001600160a01b03898116918217909255835460408051600160201b9092049093168152928301526000805160206156f7833981519152910160405180910390a1838160070160008282546114969190615179565b9091555050805460408051600160201b9092046001600160a01b0390811683528816602083015281018590527f327db3c27440034a1961b741ea889ec5cb711c4818e57dd60cfccd074cb853949060600160405180910390a1600f81015460ff1680156115755750876001600160a01b031663b2e6b9126040518163ffffffff1660e01b8152600401602060405180830381865afa15801561153c573d6000803e3d6000fd5b505050506040513d601f19601f82011682018060405250810190611560919061511b565b60028601546001600160a01b03908116911614155b801561159157508054600160201b90046001600160a01b031615155b156116325760fc8054601083018054600180820183556000928352602083206008830401805460079093166004026101000a63ffffffff818102199094169390951694909402919091179092558354835492830184559290527f371f36870d18f32a11fea0f144b021c8b407bb50f8e0267c711123f454b963c0018054600160201b9092046001600160a01b03166001600160a01b03199092169190911790555b600f8101805460ff19811660ff909116151790555b60048101805460018082018355600092835260209092200180546001600160a01b0319166001600160a01b038916179055600582019061168890849061523e565b815460018082018455600093845260209093206008820401805463ffffffff60079093166004026101000a928302191660ff93909316909102919091179055600282015482547f23df65cb7316b9c05cad74d9904991bc35adc3a5cdc56a648a8c03f816ca00b7926001600160a01b0392831692600160201b90920490911690899061171590879061523e565b604080516001600160a01b0395861681529385166020850152919093169082015260ff909116606082015260800160405180910390a18381600801600082825461175f9190615179565b9091555050805460408051600160201b9092046001600160a01b0390811683528816602083015281018590527f8cd2488bc4547b0af689f7268f331ff1bcabc27a2bd407ffe501806b77c397ce9060600160405180910390a193506117c381615257565b905061135a565b5050505050806117d990615276565b905061126c565b50505050565b6117ee6127d5565b80610100819055508160ff60008282546118089190615179565b90915550505050565b6060600060fc80548060200260200160405190810160405280929190818152602001828054801561186b57602002820191906000526020600020905b81546001600160a01b0316815260019091019060200180831161184d575b505060fc549396939550929350505050565b60006101005462093a806118919190615179565b905042818110156118e45760405162461bcd60e51b815260206004820152601c60248201527f5765656b6c792074696d65206973206e6f74206f766572207965742e000000006044820152606401610b2b565b60006118ee612aec565b6001600160a01b038181166000908152610106602052604080822060fb5491516373a5799760e11b8152898516600482015294955093921691829063e74af32e90602401600060405180830381865afa15801561194f573d6000803e3d6000fd5b505050506040513d6000823e601f3d908101601f19168201604052611977919081019061531b565b905060006119878460ff54612b73565b90508015611aa2578084600d0160008282546119a39190615179565b92505081905550876001600160a01b031663a9059cbb866012856060015160ff16106119cf57836119e2565b6119e2846012876060015160ff16612c09565b6040518363ffffffff1660e01b81526004016119ff929190615401565b6020604051808303816000875af1158015611a1e573d6000803e3d6000fd5b505050506040513d601f19601f82011682018060405250810190611a42919061541a565b50600060ff81905542610100556101038054839290611a62908490615179565b90915550506040517ffff6edc60fd30afefcc47525cdf85502200830b22550391f79f9e383df03afad90611a999087908490615401565b60405180910390a15b5050505050505050565b611ab46127d5565b6001600160a01b0383811660009081526101066020526040902060010180546001600160a01b031916918416919091179055611af881670de0b6b3a7640000615138565b6001600160a01b0384166000908152610106602052604081206009018054909190611b24908490615179565b9091555050604080516001600160a01b038085168252851660208201527ef37bd73ff29ab549d774afc91445bf33292ed9a4b4b4177fb1e61ff3c58469910160405180910390a1505050565b336117e084828585612c3f565b6001600160a01b03808216600090815261010660209081526040808320815161024081018352815463ffffffff81168252600160201b900486168185015260018201548616818401526002820154909516606086015260038101805483518186028101860190945280845294958695869586959294936080860193929091830182828015611c3457602002820191906000526020600020905b81546001600160a01b03168152600190910190602001808311611c16575b5050505050815260200160048201805480602002602001604051908101604052809291908181526020018280548015611c9657602002820191906000526020600020905b81546001600160a01b03168152600190910190602001808311611c78575b5050505050815260200160058201805480602002602001604051908101604052809291908181526020018280548015611d1a57602002820191906000526020600020906000905b82829054906101000a900463ffffffff1663ffffffff1681526020019060040190602082600301049283019260010382029150808411611cdd5790505b5050505050815260200160068201548152602001600782015481526020016008820154815260200160098201548152602001600a8201548152602001600b8201548152602001600c8201548152602001600d8201548152602001600e8201548152602001600f820160009054906101000a900460ff1615151515815260200160108201805480602002602001604051908101604052809291908181526020018280548015611e1357602002820191906000526020600020906000905b82829054906101000a900463ffffffff1663ffffffff1681526020019060040190602082600301049283019260010382029150808411611dd65790505b5050509190925250505061014081015161016082015190955093509050611e3a8385615065565b93959294505050565b611e4b6127d5565b6001600160a01b038116611eb05760405162461bcd60e51b815260206004820152602660248201527f4f776e61626c653a206e6577206f776e657220697320746865207a65726f206160448201526564647265737360d01b6064820152608401610b2b565b610bc881612a15565b6000611ec3612aec565b905090565b611ed06127d5565b6110ce60fc6000614aa2565b6001600160a01b03808216600090815261010660209081526040808320815161024081018352815463ffffffff81168252600160201b900486168185015260018201548616818401526002820154909516606086015260038101805483518186028101860190945280845294958695869586958695939460808601939192909190830182828015611f9657602002820191906000526020600020905b81546001600160a01b03168152600190910190602001808311611f78575b5050505050815260200160048201805480602002602001604051908101604052809291908181526020018280548015611ff857602002820191906000526020600020905b81546001600160a01b03168152600190910190602001808311611fda575b505050505081526020016005820180548060200260200160405190810160405280929190818152602001828054801561207c57602002820191906000526020600020906000905b82829054906101000a900463ffffffff1663ffffffff168152602001906004019060208260030104928301926001038202915080841161203f5790505b5050505050815260200160068201548152602001600782015481526020016008820154815260200160098201548152602001600a8201548152602001600b8201548152602001600c8201548152602001600d8201548152602001600e8201548152602001600f820160009054906101000a900460ff161515151581526020016010820180548060200260200160405190810160405280929190818152602001828054801561217557602002820191906000526020600020906000905b82829054906101000a900463ffffffff1663ffffffff16815260200190600401906020826003010492830192600103820291508084116121385790505b5050509190925250505060e08101516101008201516101208301519197509550935090506121a38584615179565b9150509193509193565b6001600160a01b03808216600090815261010660209081526040808320815161024081018352815463ffffffff81168252600160201b9004861681850152600182015486168184015260028201549095166060868101919091526003820180548451818702810187019095528085529596919587958795869588958695909491936080860193929083018282801561226e57602002820191906000526020600020905b81546001600160a01b03168152600190910190602001808311612250575b50505050508152602001600482018054806020026020016040519081016040528092919081815260200182805480156122d057602002820191906000526020600020905b81546001600160a01b031681526001909101906020018083116122b2575b505050505081526020016005820180548060200260200160405190810160405280929190818152602001828054801561235457602002820191906000526020600020906000905b82829054906101000a900463ffffffff1663ffffffff16815260200190600401906020826003010492830192600103820291508084116123175790505b5050505050815260200160068201548152602001600782015481526020016008820154815260200160098201548152602001600a8201548152602001600b8201548152602001600c8201548152602001600d8201548152602001600e8201548152602001600f820160009054906101000a900460ff161515151581526020016010820180548060200260200160405190810160405280929190818152602001828054801561244d57602002820191906000526020600020906000905b82829054906101000a900463ffffffff1663ffffffff16815260200190600401906020826003010492830192600103820291508084116124105790505b5050509190925250505060608101516080820151805160a084015160c0909401518451939d929c50909a50929850919650945092505050565b612537604051806102400160405280600063ffffffff16815260200160006001600160a01b0316815260200160006001600160a01b0316815260200160006001600160a01b03168152602001606081526020016060815260200160608152602001600081526020016000815260200160008152602001600081526020016000815260200160008152602001600081526020016000815260200160008152602001600015158152602001606081525090565b6001600160a01b0380831660009081526101066020908152604091829020825161024081018452815463ffffffff81168252600160201b9004851681840152600182015485168185015260028201549094166060850152600381018054845181850281018501909552808552919360808601939092908301828280156125e657602002820191906000526020600020905b81546001600160a01b031681526001909101906020018083116125c8575b505050505081526020016004820180548060200260200160405190810160405280929190818152602001828054801561264857602002820191906000526020600020905b81546001600160a01b0316815260019091019060200180831161262a575b50505050508152602001600582018054806020026020016040519081016040528092919081815260200182805480156126cc57602002820191906000526020600020906000905b82829054906101000a900463ffffffff1663ffffffff168152602001906004019060208260030104928301926001038202915080841161268f5790505b5050505050815260200160068201548152602001600782015481526020016008820154815260200160098201548152602001600a8201548152602001600b8201548152602001600c8201548152602001600d8201548152602001600e8201548152602001600f820160009054906101000a900460ff16151515158152602001601082018054806020026020016040519081016040528092919081815260200182805480156127c557602002820191906000526020600020906000905b82829054906101000a900463ffffffff1663ffffffff16815260200190600401906020826003010492830192600103820291508084116127885790505b5050505050815250509050919050565b6065546001600160a01b031633146110ce5760405162461bcd60e51b815260206004820181905260248201527f4f776e61626c653a2063616c6c6572206973206e6f7420746865206f776e65726044820152606401610b2b565b610bc86127d5565b7f4910fdfa16fed3260ed0e7147f7cc6da11a60208b5b9406d12a635614ffd91435460ff161561286a5761073a83613e33565b826001600160a01b03166352d1902d6040518163ffffffff1660e01b8152600401602060405180830381865afa9250505080156128c4575060408051601f3d908101601f191682019092526128c191810190615435565b60015b6129275760405162461bcd60e51b815260206004820152602e60248201527f45524331393637557067726164653a206e657720696d706c656d656e7461746960448201526d6f6e206973206e6f74205555505360901b6064820152608401610b2b565b6000805160206156b083398151915281146129965760405162461bcd60e51b815260206004820152602960248201527f45524331393637557067726164653a20756e737570706f727465642070726f786044820152681a58589b195555525160ba1b6064820152608401610b2b565b5061073a838383613ecf565b6000816001600160a01b03166350d25bcd6040518163ffffffff1660e01b8152600401602060405180830381865afa1580156129e2573d6000803e3d6000fd5b505050506040513d601f19601f82011682018060405250810190612a069190615435565b610c68906402540be400615138565b606580546001600160a01b038381166001600160a01b0319831681179093556040519116919082907f8be0079c531659141344cd1fd0a4f28419497f9722a3daafe3b4186f6b6457e090600090a35050565b600054610100900460ff16612a8e5760405162461bcd60e51b8152600401610b2b9061544e565b6110ce613ef4565b600054610100900460ff16612abd5760405162461bcd60e51b8152600401610b2b9061544e565b6110ce613f27565b600054610100900460ff166110ce5760405162461bcd60e51b8152600401610b2b9061544e565b6000804244612afc600143615065565b60408051602081019490945283019190915240606082015260800160408051601f19818403018152919052805160209091012060fc54909150600090612b429083615499565b905060fc8181548110612b5757612b576154ad565b6000918252602090912001546001600160a01b03169392505050565b600082600901548284600a0154612b8a9190615179565b1015612bb2578190508083600a016000828254612ba79190615179565b90915550610c689050565b82600901548284600a0154612bc79190615179565b03612be3578190508083600a016000828254612ba79190615179565b82600a01548360090154612bf79190615065565b6009840154600a850155905092915050565b6000612c1683600a6155a7565b612c2183600a6155a7565b612c2b9086615138565b612c359190615165565b90505b9392505050565b60fb54604051630efc12b160e01b815260ff841660048201526001600160a01b03909116906000908290630efc12b190602401600060405180830381865afa158015612c8f573d6000803e3d6000fd5b505050506040513d6000823e601f3d908101601f19168201604052612cb791908101906155b3565b90506000816040015111612d205760405162461bcd60e51b815260206004820152602a60248201527f56616c7565206973207a65726f2e20506c656173652073656c65637420636f726044820152693932b1ba10383630b71760b11b6064820152608401610b2b565b6040516373a5799760e11b81526001600160a01b0384811660048301526000919084169063e74af32e90602401600060405180830381865afa158015612d6a573d6000803e3d6000fd5b505050506040513d6000823e601f3d908101601f19168201604052612d92919081019061531b565b90508060c00151612dde5760405162461bcd60e51b8152602060048201526016602482015275151bdad95b881a5cc81b9bdd081cdd5c1c1bdc9d195960521b6044820152606401610b2b565b60008490506000846001600160a01b031663918a54db6040518163ffffffff1660e01b8152600401600060405180830381865afa158015612e23573d6000803e3d6000fd5b505050506040513d6000823e601f3d908101601f19168201604052612e4b919081019061518c565b9050816001600160a01b03166323b872dd89306012876060015160ff1610612e77578760400151612e8e565b612e8e88604001516012896060015160ff16612c09565b6040516001600160e01b031960e086901b1681526001600160a01b03938416600482015292909116602483015260448201526064016020604051808303816000875af1158015612ee2573d6000803e3d6000fd5b505050506040513d601f19601f82011682018060405250810190612f06919061541a565b506001600160a01b03881660009081526101066020526040812090612f2a87613f57565b6040516370a0823160e01b81523060048201526001600160a01b0391909116906370a0823190602401602060405180830381865afa158015612f70573d6000803e3d6000fd5b505050506040513d601f19601f82011682018060405250810190612f949190615435565b9050856040015181118015612fab57506006820154155b156130b557600060028760400151612fc39190615165565b9050612fce88613fbb565b6001600160a01b031663adc9772e8c836040518363ffffffff1660e01b8152600401612ffb929190615401565b600060405180830381600087803b15801561301557600080fd5b505af1158015613029573d6000803e3d6000fd5b5050505061303688613f57565b6001600160a01b031663a9059cbb61304d8a613fbb565b89604001516040518363ffffffff1660e01b815260040161306f929190615401565b6020604051808303816000875af115801561308e573d6000803e3d6000fd5b505050506040513d601f19601f820116820180604052508101906130b2919061541a565b50505b8154600160201b90046001600160a01b03166130ef578154640100000000600160c01b031916600160201b6001600160a01b038c16021782555b85604001518260060160008282546131079190615179565b9091555050606086015160408701516131209190615138565b8260090160008282546131339190615179565b90915550613142905082613ffb565b6040805161024081018252835463ffffffff811682526001600160a01b03600160201b90910481166020808401919091526001860154821683850152600286015490911660608301526003850180548451818402810184019095528085526133d494879360808601939192908301828280156131e757602002820191906000526020600020905b81546001600160a01b031681526001909101906020018083116131c9575b505050505081526020016004820180548060200260200160405190810160405280929190818152602001828054801561324957602002820191906000526020600020905b81546001600160a01b0316815260019091019060200180831161322b575b50505050508152602001600582018054806020026020016040519081016040528092919081815260200182805480156132cd57602002820191906000526020600020906000905b82829054906101000a900463ffffffff1663ffffffff16815260200190600401906020826003010492830192600103820291508084116132905790505b5050505050815260200160068201548152602001600782015481526020016008820154815260200160098201548152602001600a8201548152602001600b8201548152602001600c8201548152602001600d8201548152602001600e8201548152602001600f820160009054906101000a900460ff16151515158152602001601082018054806020026020016040519081016040528092919081815260200182805480156133c657602002820191906000526020600020906000905b82829054906101000a900463ffffffff1663ffffffff16815260200190600401906020826003010492830192600103820291508084116133895790505b50505050508152505061408b565b6133e5576133e58b8b85518a6140aa565b8154600283015460408051600160201b84046001600160a01b03908116825263ffffffff909416602082015260ff8d1681830152929091166060830152517fccdfed8601106cae21493f7848436196048b60f2dc70db89d92e3acdabb0ee299181900360800190a16000613457612aec565b90506001600160a01b0381161561351c5760006134788289604001516147e1565b9050801561351a57856001600160a01b031663a9059cbb8360128a6060015160ff16106134a557836134b8565b6134b88460128c6060015160ff16612c09565b6040518363ffffffff1660e01b81526004016134d5929190615401565b6020604051808303816000875af11580156134f4573d6000803e3d6000fd5b505050506040513d601f19601f82011682018060405250810190613518919061541a565b505b505b60018301546001600160a01b0316156136015760018301546040880151600091613551916001600160a01b0390911690614898565b905080156135ff57600184015460608801516001600160a01b038089169263a9059cbb92911690601260ff9091161061358a578361359d565b61359d8460128c6060015160ff16612c09565b6040518363ffffffff1660e01b81526004016135ba929190615401565b6020604051808303816000875af11580156135d9573d6000803e3d6000fd5b505050506040513d601f19601f820116820180604052508101906135fd919061541a565b505b505b6000805b85518160ff161015613bbd576040805161024081018252865463ffffffff811682526001600160a01b03600160201b9091048116602080840191909152600189015482168385015260028901549091166060830152600388018054845181840281018401909552808552613851948a9360808601939192908301828280156131e7576020028201919060005260206000209081546001600160a01b031681526001909101906020018083116131c9575050505050815260200160048201805480602002602001604051908101604052809291908181526020018280548015613249576020028201919060005260206000209081546001600160a01b0316815260019091019060200180831161322b5750505050508152602001600582018054806020026020016040519081016040528092919081815260200182805480156132cd576000918252602091829020805463ffffffff1684529082028301929091600491018084116132905790505050505050815260200160068201548152602001600782015481526020016008820154815260200160098201548152602001600a8201548152602001600b8201548152602001600c8201548152602001600d8201548152602001600e8201548152602001600f820160009054906101000a900460ff16151515158152602001601082018054806020026020016040519081016040528092919081815260200182805480156133c6576000918252602091829020805463ffffffff16845290820283019290916004910180841161338957905050505050508152505061408b565b15613bbd5760028501546001600160a01b03166000908152610106602052604081209060ff83169003613a035789604001518160070160008282546138969190615179565b9091555050600f81015460ff1680156138bf57508054600160201b90046001600160a01b031615155b801561394157508a6001600160a01b031663b2e6b9126040518163ffffffff1660e01b8152600401602060405180830381865afa158015613904573d6000803e3d6000fd5b505050506040513d601f19601f82011682018060405250810190613928919061511b565b8154600160201b90046001600160a01b03908116911614155b156139ee57805460fc80546001808201835560008390527f371f36870d18f32a11fea0f144b021c8b407bb50f8e0267c711123f454b963c09091018054600160201b9094046001600160a01b03166001600160a01b0319909416939093179092555460108301916139b191615065565b8154600181018355600092835260209092206008830401805460079093166004026101000a63ffffffff8181021990941692909316929092021790555b600f8101805460ff19811660ff909116151790555b8960400151816008016000828254613a1b9190615179565b925050819055506000613a6a826127108a8660ff1681518110613a4057613a406154ad565b602002602001015161ffff168e60400151613a5b9190615138565b613a659190615165565b612b73565b90508015613ba8578082600b016000828254613a869190615179565b909155505081547f59aa67a3163b3c08cd7278a6a54f52cb090b48211796ff453948bbd26156832d90600160201b90046001600160a01b031682613acb86600161523e565b604080516001600160a01b039094168452602084019290925260ff169082015260600160405180910390a1600287015460608b01516001600160a01b03808c169263a9059cbb92911690601260ff90911610613b275783613b3a565b613b3a8460128f6060015160ff16612c09565b6040518363ffffffff1660e01b8152600401613b57929190615401565b6020604051808303816000875af1158015613b76573d6000803e3d6000fd5b505050506040513d601f19601f82011682018060405250810190613b9a919061541a565b50613ba58185615179565b93505b50945080613bb581615257565b915050613605565b50806101016000828254613bd19190615179565b9091555050604088015160fe8054600090613bed908490615179565b90915550506040880151606490613c0590600a615138565b613c0f9190615165565b60ff6000828254613c209190615179565b90915550506040880151600090606490613c3b906005615138565b613c459190615165565b9050866001600160a01b031663a9059cbb8b6001600160a01b031663916452ab6040518163ffffffff1660e01b8152600401602060405180830381865afa158015613c94573d6000803e3d6000fd5b505050506040513d601f19601f82011682018060405250810190613cb8919061511b565b60128b6060015160ff1610613ccd5783613ce0565b613ce08460128d6060015160ff16612c09565b6040518363ffffffff1660e01b8152600401613cfd929190615401565b6020604051808303816000875af1158015613d1c573d6000803e3d6000fd5b505050506040513d601f19601f82011682018060405250810190613d40919061541a565b50806101046000828254613d549190615179565b925050819055507fa290591faac5edd9224fc9f6b8304a91a0fddafde40a1b07f54c093daa8044388a6001600160a01b031663916452ab6040518163ffffffff1660e01b8152600401602060405180830381865afa158015613dba573d6000803e3d6000fd5b505050506040513d601f19601f82011682018060405250810190613dde919061511b565b60128a6060015160ff1610613dfa57896060015160ff16613e0d565b613e0d8360128c6060015160ff16612c09565b604051613e1b929190615401565b60405180910390a15050505050505050505050505050565b6001600160a01b0381163b613ea05760405162461bcd60e51b815260206004820152602d60248201527f455243313936373a206e657720696d706c656d656e746174696f6e206973206e60448201526c1bdd08184818dbdb9d1c9858dd609a1b6064820152608401610b2b565b6000805160206156b083398151915280546001600160a01b0319166001600160a01b0392909216919091179055565b613ed883614930565b600082511180613ee55750805b1561073a576117e08383614970565b600054610100900460ff16613f1b5760405162461bcd60e51b8152600401610b2b9061544e565b6033805460ff19169055565b600054610100900460ff16613f4e5760405162461bcd60e51b8152600401610b2b9061544e565b6110ce33612a15565b6000816001600160a01b03166365eb204d6040518163ffffffff1660e01b8152600401602060405180830381865afa158015613f97573d6000803e3d6000fd5b505050506040513d601f19601f82011682018060405250810190610c68919061511b565b6000816001600160a01b0316638e68dce46040518163ffffffff1660e01b8152600401602060405180830381865afa158015613f97573d6000803e3d6000fd5b805463ffffffff16600003610bc85760fd805463ffffffff1690600061402083615276565b82546101009290920a63ffffffff81810219909316918316021790915560fd548354911663ffffffff199091168117928390556000908152610107602052604090208054600160201b9093046001600160a01b03166001600160a01b03199093169290921790915550565b60608101516000906001600160a01b0316156140a5575060015b919050565b6001600160a01b03808416600090815261010660209081526040808320815161024081018352815463ffffffff81168252600160201b90048616818501526001820154861681840152600282015490951660608601526003810180548351818602810186019094528084529195938693608086019390929183018282801561415b57602002820191906000526020600020905b81546001600160a01b0316815260019091019060200180831161413d575b50505050508152602001600482018054806020026020016040519081016040528092919081815260200182805480156141bd57602002820191906000526020600020905b81546001600160a01b0316815260019091019060200180831161419f575b505050505081526020016005820180548060200260200160405190810160405280929190818152602001828054801561424157602002820191906000526020600020906000905b82829054906101000a900463ffffffff1663ffffffff16815260200190600401906020826003010492830192600103820291508084116142045790505b5050505050815260200160068201548152602001600782015481526020016008820154815260200160098201548152602001600a8201548152602001600b8201548152602001600c8201548152602001600d8201548152602001600e8201548152602001600f820160009054906101000a900460ff161515151581526020016010820180548060200260200160405190810160405280929190818152602001828054801561433a57602002820191906000526020600020906000905b82829054906101000a900463ffffffff1663ffffffff16815260200190600401906020826003010492830192600103820291508084116142fd5790505b5050505050815250509050846001600160a01b031681606001516001600160a01b0316036143bf5760405162461bcd60e51b815260206004820152602c60248201527f52656665727265722055706c696e652043616e6e6f742062652072656665727260448201526b32b9103237bbb73634b7329760a11b6064820152608401610b2b565b856001600160a01b0316856001600160a01b0316036144305760405162461bcd60e51b815260206004820152602760248201527f52656665727265722026205573657220616464726573732063616e6e6f742062604482015266329039b0b6b29760c91b6064820152608401610b2b565b6001600160a01b03861661460d57604080516001600160a01b038881168252871660208201526060818301819052603a908201527f5a65726f20616464726573732063616e6e6f742062652072656665727265722e60808201527f2053657474696e672064656661756c742072656665727265722e00000000000060a082015290517f32df26c7e54a821624fc8d22e1171e5793b90d1fccc483d3ff277b9c42bb22399181900360c00190a16101085460ff1661459d576000836001600160a01b031663b2e6b9126040518163ffffffff1660e01b8152600401602060405180830381865afa158015614527573d6000803e3d6000fd5b505050506040513d601f19601f8201168201806040525081019061454b919061511b565b6002840180546001600160a01b0319166001600160a01b038381169182179092556040805191825291891660208201529192506000805160206156f7833981519152910160405180910390a1506145f5565b60006145a7612aec565b6002840180546001600160a01b0319166001600160a01b038381169182179092556040805191825291891660208201529192506000805160206156f7833981519152910160405180910390a1505b610108805460ff19811660ff90911615179055614657565b6002820180546001600160a01b0319166001600160a01b038881169182179092556040805191825291871660208201526000805160206156f7833981519152910160405180910390a15b60005b8460ff168160ff1610156147d85760028301546001600160a01b0316156147d85760028301546001600160a01b03166000908152610106602052604081209060ff831690036147485760018101546001600160a01b031615614717576001818101805491860180546001600160a01b0319166001600160a01b039384161790555460408051918316825291891660208201527ef37bd73ff29ab549d774afc91445bf33292ed9a4b4b4177fb1e61ff3c58469910160405180910390a15b600381018054600181018255600091825260209091200180546001600160a01b0319166001600160a01b0389161790555b60048101805460018082018355600092835260209092200180546001600160a01b0319166001600160a01b038a16179055600582019061478990849061523e565b8154600181018355600092835260209092206008830401805463ffffffff60079094166004026101000a938402191660ff929092169092021790559250806147d081615257565b91505061465a565b50505050505050565b6001600160a01b03821660009081526101066020526040812061480b816064613a5b86600a615138565b91508115614891578181600c0160008282546148279190615179565b909155505080546040517fb2302fa600be82c096d9e1dbbf04e10c914ee4657708dd5d39c6f1a70f2188df9161487091600160201b9091046001600160a01b0316908590615401565b60405180910390a181610102600082825461488b9190615179565b90915550505b5092915050565b6001600160a01b0382166000908152610106602052604081206148c2816064613a5b866005615138565b91508115614891578181600e0160008282546148de9190615179565b90915550506040517fd5c849471e381b48771419f3963984b4317475397234e77b7b6983132891df6d906149159086908590615401565b60405180910390a181610105600082825461488b9190615179565b61493981613e33565b6040516001600160a01b038216907fbc7cd75a20ee27fd9adebab32041f755214dbc6bffa90cc0225b39da2e5c2d3b90600090a250565b60606001600160a01b0383163b6149d85760405162461bcd60e51b815260206004820152602660248201527f416464726573733a2064656c65676174652063616c6c20746f206e6f6e2d636f6044820152651b9d1c9858dd60d21b6064820152608401610b2b565b600080846001600160a01b0316846040516149f39190615660565b600060405180830381855af49150503d8060008114614a2e576040519150601f19603f3d011682016040523d82523d6000602084013e614a33565b606091505b5091509150614a5b82826040518060600160405280602781526020016156d060279139614a64565b95945050505050565b60608315614a73575081612c38565b612c388383815115614a885781518083602001fd5b8060405162461bcd60e51b8152600401610b2b919061567c565b5080546000825590600052602060002090810190610bc89190614ae1565b508054600082556007016008900490600052602060002090810190610bc891905b5b80821115614af65760008155600101614ae2565b5090565b61ffff81168114610bc857600080fd5b60008060408385031215614b1d57600080fd5b8235614b2881614afa565b91506020830135614b3881614afa565b809150509250929050565b6001600160a01b0381168114610bc857600080fd5b600060208284031215614b6a57600080fd5b8135612c3881614b43565b600060208284031215614b8757600080fd5b5035919050565b600081518084526020808501945080840160005b83811015614bc457815163ffffffff1687529582019590820190600101614ba2565b509495945050505050565b8315158152606060208201526000614bea6060830185614b8e565b9050826040830152949350505050565b634e487b7160e01b600052604160045260246000fd5b60405160e0810167ffffffffffffffff81118282101715614c3357614c33614bfa565b60405290565b604051601f8201601f1916810167ffffffffffffffff81118282101715614c6257614c62614bfa565b604052919050565b600067ffffffffffffffff821115614c8457614c84614bfa565b50601f01601f191660200190565b60008060408385031215614ca557600080fd5b8235614cb081614b43565b9150602083013567ffffffffffffffff811115614ccc57600080fd5b8301601f81018513614cdd57600080fd5b8035614cf0614ceb82614c6a565b614c39565b818152866020838501011115614d0557600080fd5b816020840160208301376000602083830101528093505050509250929050565b60008060408385031215614d3857600080fd5b50508035926020909101359150565b600081518084526020808501945080840160005b83811015614bc45781516001600160a01b031687529582019590820190600101614d5b565b604081526000614d936040830185614d47565b90508260208301529392505050565b600060208284031215614db457600080fd5b813563ffffffff81168114612c3857600080fd5b600080600060608486031215614ddd57600080fd5b8335614de881614b43565b92506020840135614df881614b43565b929592945050506040919091013590565b60ff81168114610bc857600080fd5b600080600060608486031215614e2d57600080fd5b8335614e3881614b43565b92506020840135614e4881614e09565b91506040840135614e5881614b43565b809150509250925092565b6001600160a01b038716815260c060208201819052600090614e8790830188614d47565b8660408401528281036060840152614e9f8187614d47565b90508281036080840152614eb38186614b8e565b9150508260a0830152979650505050505050565b60208152614ede60208201835163ffffffff169052565b60006020830151614efa60408401826001600160a01b03169052565b5060408301516001600160a01b03811660608401525060608301516001600160a01b03811660808401525060808301516102408060a0850152614f41610260850183614d47565b915060a0850151601f19808685030160c0870152614f5f8483614d47565b935060c08701519150808685030160e0870152614f7c8483614b8e565b60e088015161010088810191909152880151610120808901919091528801516101408089019190915288015161016080890191909152880151610180808901919091528801516101a0808901919091528801516101c0808901919091528801516101e08089019190915288015161020080890191909152880151909450915061022061500b8188018415159052565b8701518685039091018387015290506150248382614b8e565b9695505050505050565b634e487b7160e01b600052601160045260246000fd5b600061ffff80831681810361505b5761505b61502e565b6001019392505050565b81810381811115610c6857610c6861502e565b6020808252602c908201527f46756e6374696f6e206d7573742062652063616c6c6564207468726f7567682060408201526b19195b1959d85d1958d85b1b60a21b606082015260800190565b6020808252602c908201527f46756e6374696f6e206d7573742062652063616c6c6564207468726f7567682060408201526b6163746976652070726f787960a01b606082015260800190565b80516140a581614b43565b60006020828403121561512d57600080fd5b8151612c3881614b43565b8082028115828204841417610c6857610c6861502e565b634e487b7160e01b600052601260045260246000fd5b6000826151745761517461514f565b500490565b80820180821115610c6857610c6861502e565b6000602080838503121561519f57600080fd5b825167ffffffffffffffff808211156151b757600080fd5b818501915085601f8301126151cb57600080fd5b8151818111156151dd576151dd614bfa565b8060051b91506151ee848301614c39565b818152918301840191848101908884111561520857600080fd5b938501935b83851015615232578451925061522283614afa565b828252938501939085019061520d565b98975050505050505050565b60ff8181168382160190811115610c6857610c6861502e565b600060ff821660ff810361526d5761526d61502e565b60010192915050565b600063ffffffff80831681810361505b5761505b61502e565b60005b838110156152aa578181015183820152602001615292565b50506000910152565b600082601f8301126152c457600080fd5b81516152d2614ceb82614c6a565b8181528460208386010111156152e757600080fd5b6152f882602083016020870161528f565b949350505050565b80516140a581614e09565b805180151581146140a557600080fd5b60006020828403121561532d57600080fd5b815167ffffffffffffffff8082111561534557600080fd5b9083019060e0828603121561535957600080fd5b615361614c10565b61536a83615110565b815260208301518281111561537e57600080fd5b61538a878286016152b3565b6020830152506040830151828111156153a257600080fd5b6153ae878286016152b3565b6040830152506153c060608401615300565b60608201526153d16080840161530b565b60808201526153e260a08401615110565b60a08201526153f360c0840161530b565b60c082015295945050505050565b6001600160a01b03929092168252602082015260400190565b60006020828403121561542c57600080fd5b612c388261530b565b60006020828403121561544757600080fd5b5051919050565b6020808252602b908201527f496e697469616c697a61626c653a20636f6e7472616374206973206e6f74206960408201526a6e697469616c697a696e6760a81b606082015260800190565b6000826154a8576154a861514f565b500690565b634e487b7160e01b600052603260045260246000fd5b600181815b808511156154fe5781600019048211156154e4576154e461502e565b808516156154f157918102915b93841c93908002906154c8565b509250929050565b60008261551557506001610c68565b8161552257506000610c68565b816001811461553857600281146155425761555e565b6001915050610c68565b60ff8411156155535761555361502e565b50506001821b610c68565b5060208310610133831016604e8410600b8410161715615581575081810a610c68565b61558b83836154c3565b806000190482111561559f5761559f61502e565b029392505050565b6000612c388383615506565b6000602082840312156155c557600080fd5b815167ffffffffffffffff808211156155dd57600080fd5b90830190608082860312156155f157600080fd5b60405160808101818110838211171561560c5761560c614bfa565b604052825161561a81614e09565b815260208301518281111561562e57600080fd5b61563a878286016152b3565b602083015250604083015160408201526060830151606082015280935050505092915050565b6000825161567281846020870161528f565b9190910192915050565b602081526000825180602084015261569b81604085016020870161528f565b601f01601f1916919091016040019291505056fe360894a13ba1a3210667c828492db98dca3e2076cc3735a920a3ca505d382bbc416464726573733a206c6f772d6c6576656c2064656c65676174652063616c6c206661696c6564ec49a3c8c4ae06c18160fe86119c381c9d213ac3e052ff35b594da8687b193c7a26469706673582212206bc68c1cf920095848d7999b9580768a43d9254fa7454357375b6004f746265764736f6c63430008120033",
  "linkReferences": {},
  "deployedLinkReferences": {}
}