{
  "_format": "hh-sol-artifact-1",
  "contractName": "ReferralV1Upgradeable",
  "sourceName": "contracts/ReferralV1Upgradeable.sol",
  "abi": [
    {
      "anonymous": false,
      "inputs": [
        {
          "indexed": false,
          "internalType": "address",
          "name": "previousAdmin",
          "type": "address"
        },
        {
          "indexed": false,
          "internalType": "address",
          "name": "newAdmin",
          "type": "address"
        }
      ],
      "name": "AdminChanged",
      "type": "event"
    },
    {
      "anonymous": false,
      "inputs": [
        {
          "indexed": true,
          "internalType": "address",
          "name": "beacon",
          "type": "address"
        }
      ],
      "name": "BeaconUpgraded",
      "type": "event"
    },
    {
      "anonymous": false,
      "inputs": [
        {
          "indexed": false,
          "internalType": "address",
          "name": "globalAddress",
          "type": "address"
        },
        {
          "indexed": false,
          "internalType": "address",
          "name": "userAddress",
          "type": "address"
        },
        {
          "indexed": false,
          "internalType": "uint256",
          "name": "registrationValue",
          "type": "uint256"
        },
        {
          "indexed": false,
          "internalType": "uint256",
          "name": "rewardValue",
          "type": "uint256"
        },
        {
          "indexed": false,
          "internalType": "uint16",
          "name": "rewardRate",
          "type": "uint16"
        },
        {
          "indexed": false,
          "internalType": "uint16",
          "name": "rewardRateDecimals",
          "type": "uint16"
        },
        {
          "indexed": false,
          "internalType": "string",
          "name": "reason",
          "type": "string"
        }
      ],
      "name": "GlobalRewardsNotPaid",
      "type": "event"
    },
    {
      "anonymous": false,
      "inputs": [
        {
          "indexed": false,
          "internalType": "address",
          "name": "globalAddress",
          "type": "address"
        },
        {
          "indexed": false,
          "internalType": "address",
          "name": "userAddress",
          "type": "address"
        },
        {
          "indexed": false,
          "internalType": "uint256",
          "name": "registrationValue",
          "type": "uint256"
        },
        {
          "indexed": false,
          "internalType": "uint256",
          "name": "rewardValue",
          "type": "uint256"
        },
        {
          "indexed": false,
          "internalType": "uint16",
          "name": "rewardRate",
          "type": "uint16"
        },
        {
          "indexed": false,
          "internalType": "uint16",
          "name": "rewardRateDecimals",
          "type": "uint16"
        }
      ],
      "name": "GlobalRewardsPaid",
      "type": "event"
    },
    {
      "anonymous": false,
      "inputs": [
        {
          "indexed": false,
          "internalType": "address",
          "name": "ibpAddress",
          "type": "address"
        },
        {
          "indexed": false,
          "internalType": "address",
          "name": "userAddress",
          "type": "address"
        }
      ],
      "name": "IBPAdded",
      "type": "event"
    },
    {
      "anonymous": false,
      "inputs": [
        {
          "indexed": false,
          "internalType": "address",
          "name": "ibpAddress",
          "type": "address"
        },
        {
          "indexed": false,
          "internalType": "address",
          "name": "userAddress",
          "type": "address"
        },
        {
          "indexed": false,
          "internalType": "string",
          "name": "reason",
          "type": "string"
        }
      ],
      "name": "IBPNotAdded",
      "type": "event"
    },
    {
      "anonymous": false,
      "inputs": [
        {
          "indexed": false,
          "internalType": "address",
          "name": "ibpAddress",
          "type": "address"
        },
        {
          "indexed": false,
          "internalType": "string",
          "name": "reason",
          "type": "string"
        }
      ],
      "name": "IBPRewardsNotPaid",
      "type": "event"
    },
    {
      "anonymous": false,
      "inputs": [
        {
          "indexed": false,
          "internalType": "address",
          "name": "ibpAddress",
          "type": "address"
        },
        {
          "indexed": false,
          "internalType": "address",
          "name": "userAddress",
          "type": "address"
        },
        {
          "indexed": false,
          "internalType": "uint256",
          "name": "businessValue",
          "type": "uint256"
        },
        {
          "indexed": false,
          "internalType": "uint256",
          "name": "rewardValue",
          "type": "uint256"
        },
        {
          "indexed": false,
          "internalType": "uint16",
          "name": "rewardRate",
          "type": "uint16"
        },
        {
          "indexed": false,
          "internalType": "uint16",
          "name": "rewardRateDecimals",
          "type": "uint16"
        }
      ],
      "name": "IBPRewardsPaid",
      "type": "event"
    },
    {
      "anonymous": false,
      "inputs": [
        {
          "indexed": false,
          "internalType": "uint8",
          "name": "version",
          "type": "uint8"
        }
      ],
      "name": "Initialized",
      "type": "event"
    },
    {
      "anonymous": false,
      "inputs": [
        {
          "indexed": false,
          "internalType": "address",
          "name": "userAddress",
          "type": "address"
        },
        {
          "indexed": false,
          "internalType": "string",
          "name": "reason",
          "type": "string"
        }
      ],
      "name": "NoRewardsPaid",
      "type": "event"
    },
    {
      "anonymous": false,
      "inputs": [
        {
          "indexed": true,
          "internalType": "address",
          "name": "previousOwner",
          "type": "address"
        },
        {
          "indexed": true,
          "internalType": "address",
          "name": "newOwner",
          "type": "address"
        }
      ],
      "name": "OwnershipTransferred",
      "type": "event"
    },
    {
      "anonymous": false,
      "inputs": [
        {
          "indexed": false,
          "internalType": "address",
          "name": "account",
          "type": "address"
        }
      ],
      "name": "Paused",
      "type": "event"
    },
    {
      "anonymous": false,
      "inputs": [
        {
          "indexed": false,
          "internalType": "address",
          "name": "referrerAddress",
          "type": "address"
        },
        {
          "indexed": false,
          "internalType": "address",
          "name": "userAddress",
          "type": "address"
        },
        {
          "indexed": false,
          "internalType": "uint256",
          "name": "value",
          "type": "uint256"
        },
        {
          "indexed": false,
          "internalType": "uint256",
          "name": "rewardValue",
          "type": "uint256"
        },
        {
          "indexed": false,
          "internalType": "uint256",
          "name": "rewardRate",
          "type": "uint256"
        },
        {
          "indexed": false,
          "internalType": "uint256",
          "name": "rewardRateDecimals",
          "type": "uint256"
        },
        {
          "indexed": false,
          "internalType": "uint32",
          "name": "level",
          "type": "uint32"
        }
      ],
      "name": "ReferralRewardsPaid",
      "type": "event"
    },
    {
      "anonymous": false,
      "inputs": [
        {
          "indexed": false,
          "internalType": "address",
          "name": "referrerAddress",
          "type": "address"
        },
        {
          "indexed": false,
          "internalType": "address",
          "name": "refereeAddress",
          "type": "address"
        }
      ],
      "name": "ReferrerAdded",
      "type": "event"
    },
    {
      "anonymous": false,
      "inputs": [
        {
          "indexed": false,
          "internalType": "address",
          "name": "referrerAddress",
          "type": "address"
        },
        {
          "indexed": false,
          "internalType": "address",
          "name": "refereeAddress",
          "type": "address"
        },
        {
          "indexed": false,
          "internalType": "string",
          "name": "reason",
          "type": "string"
        }
      ],
      "name": "ReferrerNotAdded",
      "type": "event"
    },
    {
      "anonymous": false,
      "inputs": [
        {
          "indexed": false,
          "internalType": "address",
          "name": "userAddress",
          "type": "address"
        },
        {
          "indexed": false,
          "internalType": "uint32",
          "name": "userId",
          "type": "uint32"
        },
        {
          "indexed": false,
          "internalType": "uint8",
          "name": "planId",
          "type": "uint8"
        },
        {
          "indexed": false,
          "internalType": "address",
          "name": "referrerAddress",
          "type": "address"
        }
      ],
      "name": "Registration",
      "type": "event"
    },
    {
      "anonymous": false,
      "inputs": [
        {
          "indexed": false,
          "internalType": "address",
          "name": "parentAddress",
          "type": "address"
        },
        {
          "indexed": false,
          "internalType": "address",
          "name": "referrerAddress",
          "type": "address"
        },
        {
          "indexed": false,
          "internalType": "address",
          "name": "refereeAddress",
          "type": "address"
        },
        {
          "indexed": false,
          "internalType": "uint32",
          "name": "level",
          "type": "uint32"
        }
      ],
      "name": "TeamAddressAdded",
      "type": "event"
    },
    {
      "anonymous": false,
      "inputs": [
        {
          "indexed": false,
          "internalType": "address",
          "name": "account",
          "type": "address"
        }
      ],
      "name": "Unpaused",
      "type": "event"
    },
    {
      "anonymous": false,
      "inputs": [
        {
          "indexed": true,
          "internalType": "address",
          "name": "implementation",
          "type": "address"
        }
      ],
      "name": "Upgraded",
      "type": "event"
    },
    {
      "anonymous": false,
      "inputs": [
        {
          "indexed": false,
          "internalType": "address",
          "name": "globalAddress",
          "type": "address"
        },
        {
          "indexed": false,
          "internalType": "uint256",
          "name": "rewardValue",
          "type": "uint256"
        }
      ],
      "name": "WeeklyRewardsPaid",
      "type": "event"
    },
    {
      "inputs": [
        {
          "internalType": "address",
          "name": "_userAddress",
          "type": "address"
        },
        {
          "internalType": "address",
          "name": "_ibpAddress",
          "type": "address"
        }
      ],
      "name": "addIbpToAddressAdmin",
      "outputs": [],
      "stateMutability": "nonpayable",
      "type": "function"
    },
    {
      "inputs": [
        {
          "internalType": "address",
          "name": "_tokenAddress",
          "type": "address"
        }
      ],
      "name": "distributeWeeklyReward",
      "outputs": [
        {
          "internalType": "address",
          "name": "",
          "type": "address"
        }
      ],
      "stateMutability": "nonpayable",
      "type": "function"
    },
    {
      "inputs": [],
      "name": "getRegistrationsStats",
      "outputs": [
        {
          "internalType": "uint32",
          "name": "totalUser",
          "type": "uint32"
        },
        {
          "internalType": "uint256",
          "name": "totalRegistrationValue",
          "type": "uint256"
        },
        {
          "internalType": "uint256",
          "name": "totalReferralPaid",
          "type": "uint256"
        },
        {
          "internalType": "uint256",
          "name": "totalGlobalRewardsPaid",
          "type": "uint256"
        },
        {
          "internalType": "uint256",
          "name": "totalWeeklyRewardsPaid",
          "type": "uint256"
        },
        {
          "internalType": "uint256",
          "name": "totalCoreMembershipRewardPaid",
          "type": "uint256"
        },
        {
          "internalType": "uint256",
          "name": "totalIbpRewardsPaid",
          "type": "uint256"
        }
      ],
      "stateMutability": "view",
      "type": "function"
    },
    {
      "inputs": [
        {
          "internalType": "address",
          "name": "_userAddress",
          "type": "address"
        }
      ],
      "name": "getUserAccount",
      "outputs": [
        {
          "components": [
            {
              "internalType": "uint32",
              "name": "userId",
              "type": "uint32"
            },
            {
              "internalType": "address",
              "name": "selfAddress",
              "type": "address"
            },
            {
              "internalType": "address",
              "name": "ibpAddress",
              "type": "address"
            },
            {
              "internalType": "address",
              "name": "referrerAddress",
              "type": "address"
            },
            {
              "internalType": "address[]",
              "name": "refereeAddresses",
              "type": "address[]"
            },
            {
              "internalType": "address[]",
              "name": "teamAddress",
              "type": "address[]"
            },
            {
              "internalType": "uint32[]",
              "name": "teamLevels",
              "type": "uint32[]"
            },
            {
              "internalType": "uint256",
              "name": "selfBusiness",
              "type": "uint256"
            },
            {
              "internalType": "uint256",
              "name": "directBusiness",
              "type": "uint256"
            },
            {
              "internalType": "uint256",
              "name": "teamBusiness",
              "type": "uint256"
            },
            {
              "internalType": "uint256",
              "name": "maxLimit",
              "type": "uint256"
            },
            {
              "internalType": "uint256",
              "name": "currentLimit",
              "type": "uint256"
            },
            {
              "internalType": "uint256",
              "name": "referralRewards",
              "type": "uint256"
            },
            {
              "internalType": "uint256",
              "name": "globalRewards",
              "type": "uint256"
            },
            {
              "internalType": "uint256",
              "name": "weeklyRewards",
              "type": "uint256"
            },
            {
              "internalType": "uint256",
              "name": "ibpRewards",
              "type": "uint256"
            },
            {
              "internalType": "bool",
              "name": "isGlobal",
              "type": "bool"
            },
            {
              "internalType": "uint32[]",
              "name": "globalIndexes",
              "type": "uint32[]"
            }
          ],
          "internalType": "struct AccountStruct",
          "name": "",
          "type": "tuple"
        }
      ],
      "stateMutability": "view",
      "type": "function"
    },
    {
      "inputs": [
        {
          "internalType": "address",
          "name": "_userAddress",
          "type": "address"
        }
      ],
      "name": "getUserBusiness",
      "outputs": [
        {
          "internalType": "uint256",
          "name": "selfBusiness",
          "type": "uint256"
        },
        {
          "internalType": "uint256",
          "name": "directBusiness",
          "type": "uint256"
        },
        {
          "internalType": "uint256",
          "name": "teamBusiness",
          "type": "uint256"
        },
        {
          "internalType": "uint256",
          "name": "totalBusiness",
          "type": "uint256"
        }
      ],
      "stateMutability": "view",
      "type": "function"
    },
    {
      "inputs": [
        {
          "internalType": "address",
          "name": "_userAddress",
          "type": "address"
        }
      ],
      "name": "getUserLimit",
      "outputs": [
        {
          "internalType": "uint256",
          "name": "maxLimit",
          "type": "uint256"
        },
        {
          "internalType": "uint256",
          "name": "currentLimit",
          "type": "uint256"
        },
        {
          "internalType": "uint256",
          "name": "limitRemaingvalue",
          "type": "uint256"
        }
      ],
      "stateMutability": "view",
      "type": "function"
    },
    {
      "inputs": [
        {
          "internalType": "address",
          "name": "_userAddress",
          "type": "address"
        }
      ],
      "name": "getUserRewards",
      "outputs": [
        {
          "internalType": "uint256",
          "name": "referralReward",
          "type": "uint256"
        },
        {
          "internalType": "uint256",
          "name": "globalReward",
          "type": "uint256"
        },
        {
          "internalType": "uint256",
          "name": "weeklyReward",
          "type": "uint256"
        },
        {
          "internalType": "uint256",
          "name": "ibpReward",
          "type": "uint256"
        },
        {
          "internalType": "uint256",
          "name": "totalIncome",
          "type": "uint256"
        }
      ],
      "stateMutability": "view",
      "type": "function"
    },
    {
      "inputs": [
        {
          "internalType": "address",
          "name": "_userAddress",
          "type": "address"
        }
      ],
      "name": "getUserTeam",
      "outputs": [
        {
          "internalType": "address",
          "name": "referrer",
          "type": "address"
        },
        {
          "internalType": "address[]",
          "name": "referees",
          "type": "address[]"
        },
        {
          "internalType": "uint256",
          "name": "refereeCount",
          "type": "uint256"
        },
        {
          "internalType": "address[]",
          "name": "team",
          "type": "address[]"
        },
        {
          "internalType": "uint32[]",
          "name": "teamLevels",
          "type": "uint32[]"
        },
        {
          "internalType": "uint256",
          "name": "teamCount",
          "type": "uint256"
        }
      ],
      "stateMutability": "view",
      "type": "function"
    },
    {
      "inputs": [],
      "name": "getWeeklyRewardToBeDistributed",
      "outputs": [
        {
          "internalType": "uint256",
          "name": "",
          "type": "uint256"
        }
      ],
      "stateMutability": "view",
      "type": "function"
    },
    {
      "inputs": [],
      "name": "getWeeklyRewardsRemainTime",
      "outputs": [
        {
          "internalType": "uint256",
          "name": "",
          "type": "uint256"
        }
      ],
      "stateMutability": "view",
      "type": "function"
    },
    {
      "inputs": [
        {
          "internalType": "address",
          "name": "_userAddress",
          "type": "address"
        }
      ],
      "name": "getuserIbpAddress",
      "outputs": [
        {
          "internalType": "address",
          "name": "",
          "type": "address"
        }
      ],
      "stateMutability": "view",
      "type": "function"
    },
    {
      "inputs": [],
      "name": "initialize",
      "outputs": [],
      "stateMutability": "nonpayable",
      "type": "function"
    },
    {
      "inputs": [
        {
          "internalType": "address",
          "name": "_userAddress",
          "type": "address"
        }
      ],
      "name": "isUserInGlobalList",
      "outputs": [
        {
          "internalType": "bool",
          "name": "isInList",
          "type": "bool"
        },
        {
          "internalType": "uint32[]",
          "name": "indexes",
          "type": "uint32[]"
        },
        {
          "internalType": "uint256",
          "name": "totalGlobalIds",
          "type": "uint256"
        }
      ],
      "stateMutability": "view",
      "type": "function"
    },
    {
      "inputs": [],
      "name": "owner",
      "outputs": [
        {
          "internalType": "address",
          "name": "",
          "type": "address"
        }
      ],
      "stateMutability": "view",
      "type": "function"
    },
    {
      "inputs": [],
      "name": "pause",
      "outputs": [],
      "stateMutability": "nonpayable",
      "type": "function"
    },
    {
      "inputs": [],
      "name": "paused",
      "outputs": [
        {
          "internalType": "bool",
          "name": "",
          "type": "bool"
        }
      ],
      "stateMutability": "view",
      "type": "function"
    },
    {
      "inputs": [],
      "name": "proxiableUUID",
      "outputs": [
        {
          "internalType": "bytes32",
          "name": "",
          "type": "bytes32"
        }
      ],
      "stateMutability": "view",
      "type": "function"
    },
    {
      "inputs": [
        {
          "internalType": "address",
          "name": "_referrer",
          "type": "address"
        },
        {
          "internalType": "uint8",
          "name": "_planId",
          "type": "uint8"
        },
        {
          "internalType": "address",
          "name": "_tokenAddress",
          "type": "address"
        }
      ],
      "name": "registrationWithETH",
      "outputs": [],
      "stateMutability": "payable",
      "type": "function"
    },
    {
      "inputs": [
        {
          "internalType": "address",
          "name": "_referrer",
          "type": "address"
        },
        {
          "internalType": "uint8",
          "name": "_planId",
          "type": "uint8"
        },
        {
          "internalType": "address",
          "name": "_tokenAddress",
          "type": "address"
        }
      ],
      "name": "registrationWithToken",
      "outputs": [],
      "stateMutability": "nonpayable",
      "type": "function"
    },
    {
      "inputs": [
        {
          "internalType": "address",
          "name": "_userAddress",
          "type": "address"
        }
      ],
      "name": "removeIbpFromAddressAdmin",
      "outputs": [],
      "stateMutability": "nonpayable",
      "type": "function"
    },
    {
      "inputs": [],
      "name": "renounceOwnership",
      "outputs": [],
      "stateMutability": "nonpayable",
      "type": "function"
    },
    {
      "inputs": [
        {
          "internalType": "address",
          "name": "newOwner",
          "type": "address"
        }
      ],
      "name": "transferOwnership",
      "outputs": [],
      "stateMutability": "nonpayable",
      "type": "function"
    },
    {
      "inputs": [],
      "name": "unpause",
      "outputs": [],
      "stateMutability": "nonpayable",
      "type": "function"
    },
    {
      "inputs": [
        {
          "internalType": "address",
          "name": "newImplementation",
          "type": "address"
        }
      ],
      "name": "upgradeTo",
      "outputs": [],
      "stateMutability": "nonpayable",
      "type": "function"
    },
    {
      "inputs": [
        {
          "internalType": "address",
          "name": "newImplementation",
          "type": "address"
        },
        {
          "internalType": "bytes",
          "name": "data",
          "type": "bytes"
        }
      ],
      "name": "upgradeToAndCall",
      "outputs": [],
      "stateMutability": "payable",
      "type": "function"
    },
    {
      "stateMutability": "payable",
      "type": "receive"
    }
  ],
  "bytecode": "0x60a06040523060805234801561001457600080fd5b5060805161527d61004c600039600081816108290152818161087201528181610c5301528181610c930152610d26015261527d6000f3fe60806040526004361061016a5760003560e01c80638456cb59116100d1578063d277b8a91161008a578063f2fde38b11610064578063f2fde38b1461048f578063f87127b4146104af578063faeda7e5146104ef578063fb47e0161461052157600080fd5b8063d277b8a914610414578063e6f6769e14610434578063e9587e861461045457600080fd5b80638456cb5914610342578063846688f714610357578063881063d31461036c5780638da5cb5b146103c1578063986992fa146103df578063aa8d713a146103f457600080fd5b806349c03d0d1161012357806349c03d0d1461029f5780634f1ef286146102bf57806352d1902d146102d25780635c975abb146102f5578063715018a6146103185780638129fc1c1461032d57600080fd5b80630690c6a814610176578063078b0fb7146101de5780633659cfe6146102265780633ec2223c146102485780633ef575e91461025b5780633f4ba83a1461028a57600080fd5b3661017157005b600080fd5b34801561018257600080fd5b5060fd5460fe5461010154610102546101035461010454610105546040805163ffffffff90981688526020880196909652948601939093526060850191909152608084015260a083015260c082015260e0015b60405180910390f35b3480156101ea57600080fd5b506101fe6101f936600461471f565b61054e565b604080519586526020860194909452928401919091526060830152608082015260a0016101d5565b34801561023257600080fd5b5061024661024136600461471f565b61081f565b005b61024661025636600461474b565b505050565b34801561026757600080fd5b5061027b61027636600461471f565b610907565b6040516101d5939291906147d7565b34801561029657600080fd5b50610246610bd2565b3480156102ab57600080fd5b506102466102ba366004614802565b610be4565b6102466102cd3660046148d3565b610c49565b3480156102de57600080fd5b506102e7610d19565b6040519081526020016101d5565b34801561030157600080fd5b5060335460ff1660405190151581526020016101d5565b34801561032457600080fd5b50610246610dcc565b34801561033957600080fd5b50610246610dde565b34801561034e57600080fd5b50610246610f2a565b34801561036357600080fd5b5060ff546102e7565b34801561037857600080fd5b506103a961038736600461471f565b6001600160a01b03908116600090815261010660205260409020600101541690565b6040516001600160a01b0390911681526020016101d5565b3480156103cd57600080fd5b506065546001600160a01b03166103a9565b3480156103eb57600080fd5b506102e7610f3a565b34801561040057600080fd5b5061024661040f36600461471f565b610f73565b34801561042057600080fd5b506103a961042f36600461471f565b6110b9565b34801561044057600080fd5b5061024661044f36600461474b565b6112db565b34801561046057600080fd5b5061047461046f36600461471f565b6112ee565b604080519384526020840192909252908201526060016101d5565b34801561049b57600080fd5b506102466104aa36600461471f565b6115b4565b3480156104bb57600080fd5b506104cf6104ca36600461471f565b61162a565b6040805194855260208501939093529183015260608201526080016101d5565b3480156104fb57600080fd5b5061050f61050a36600461471f565b6118fb565b6040516101d59695949392919061499f565b34801561052d57600080fd5b5061054161053c36600461471f565b611bd4565b6040516101d59190614a03565b6001600160a01b03808216600090815261010660209081526040808320815161024081018352815463ffffffff81168252600160201b90048616818501526001820154861681840152600282015490951660608601526003810180548351818602810186019094528084529495869586958695869586959093608086019383018282801561060557602002820191906000526020600020905b81546001600160a01b031681526001909101906020018083116105e7575b505050505081526020016004820180548060200260200160405190810160405280929190818152602001828054801561066757602002820191906000526020600020905b81546001600160a01b03168152600190910190602001808311610649575b50505050508152602001600582018054806020026020016040519081016040528092919081815260200182805480156106eb57602002820191906000526020600020906000905b82829054906101000a900463ffffffff1663ffffffff16815260200190600401906020826003010492830192600103820291508084116106ae5790505b5050505050815260200160068201548152602001600782015481526020016008820154815260200160098201548152602001600a8201548152602001600b8201548152602001600c8201548152602001600d8201548152602001600e8201548152602001600f820160009054906101000a900460ff16151515158152602001601082018054806020026020016040519081016040528092919081815260200182805480156107e457602002820191906000526020600020906000905b82829054906101000a900463ffffffff1663ffffffff16815260200190600401906020826003010492830192600103820291508084116107a75790505b505050919092525050506101808101516101a08201516101c08301516101e084015161016090940151929b919a509850919650945092505050565b6001600160a01b037f00000000000000000000000000000000000000000000000000000000000000001630036108705760405162461bcd60e51b815260040161086790614b6a565b60405180910390fd5b7f00000000000000000000000000000000000000000000000000000000000000006001600160a01b03166108b96000805160206151e1833981519152546001600160a01b031690565b6001600160a01b0316146108df5760405162461bcd60e51b815260040161086790614bb6565b6108e881611f23565b6040805160008082526020820190925261090491839190611f2b565b50565b6001600160a01b03808216600090815261010660209081526040808320815161024081018352815463ffffffff81168252600160201b90048616818501526001820154861681840152600282015490951660608681019190915260038201805484518187028101870190955280855295969195879586959394936080860193909290918301828280156109c357602002820191906000526020600020905b81546001600160a01b031681526001909101906020018083116109a5575b5050505050815260200160048201805480602002602001604051908101604052809291908181526020018280548015610a2557602002820191906000526020600020905b81546001600160a01b03168152600190910190602001808311610a07575b5050505050815260200160058201805480602002602001604051908101604052809291908181526020018280548015610aa957602002820191906000526020600020906000905b82829054906101000a900463ffffffff1663ffffffff1681526020019060040190602082600301049283019260010382029150808411610a6c5790505b5050505050815260200160068201548152602001600782015481526020016008820154815260200160098201548152602001600a8201548152602001600b8201548152602001600c8201548152602001600d8201548152602001600e8201548152602001600f820160009054906101000a900460ff1615151515815260200160108201805480602002602001604051908101604052809291908181526020018280548015610ba257602002820191906000526020600020906000905b82829054906101000a900463ffffffff1663ffffffff1681526020019060040190602082600301049283019260010382029150808411610b655790505b50505050508152505090506000816102200151511115610bc157600193505b610220015180519395909450915050565b610bda612096565b610be26120f0565b565b610bec612096565b6001600160a01b038281166000818152610106602090815260409182902060010180546001600160a01b03191694861694851790558151938452830191909152600080516020615228833981519152910160405180910390a15050565b6001600160a01b037f0000000000000000000000000000000000000000000000000000000000000000163003610c915760405162461bcd60e51b815260040161086790614b6a565b7f00000000000000000000000000000000000000000000000000000000000000006001600160a01b0316610cda6000805160206151e1833981519152546001600160a01b031690565b6001600160a01b031614610d005760405162461bcd60e51b815260040161086790614bb6565b610d0982611f23565b610d1582826001611f2b565b5050565b6000306001600160a01b037f00000000000000000000000000000000000000000000000000000000000000001614610db95760405162461bcd60e51b815260206004820152603860248201527f555550535570677261646561626c653a206d757374206e6f742062652063616c60448201527f6c6564207468726f7567682064656c656761746563616c6c00000000000000006064820152608401610867565b506000805160206151e183398151915290565b610dd4612096565b610be26000612142565b600054610100900460ff1615808015610dfe5750600054600160ff909116105b80610e185750303b158015610e18575060005460ff166001145b610e7b5760405162461bcd60e51b815260206004820152602e60248201527f496e697469616c697a61626c653a20636f6e747261637420697320616c72656160448201526d191e481a5b9a5d1a585b1a5e995960921b6064820152608401610867565b6000805460ff191660011790558015610e9e576000805461ff0019166101001790555b60fb80546001600160a01b031916735a7530ee130e38487561032b9571f4ec41ab69ab1790554261010055610ed1612194565b610ed96121c3565b610ee16121f2565b8015610904576000805461ff0019169055604051600181527f7f26b83ff96e1f2b6a682f133852f6798a09c465da95921460cefb3847402498906020015b60405180910390a150565b610f32612096565b610be2612219565b6000806101005462093a80610f4f9190614c18565b905042818110610f625760009250505090565b610f6c8183614c2b565b9250505090565b610f7b612096565b60fb60009054906101000a90046001600160a01b03166001600160a01b031663b2e6b9126040518163ffffffff1660e01b8152600401602060405180830381865afa158015610fce573d6000803e3d6000fd5b505050506040513d601f19601f82011682018060405250810190610ff29190614c49565b6001600160a01b038281166000908152610106602090815260409182902060010180546001600160a01b0319169484169490941790935560fb5481516359735c8960e11b8152915160008051602061522883398151915294919093169263b2e6b9129260048082019392918290030181865afa158015611076573d6000803e3d6000fd5b505050506040513d601f19601f8201168201806040525081019061109a9190614c49565b604080516001600160a01b039283168152918416602083015201610f1f565b6000806101005462093a806110ce9190614c18565b905042818110156111215760405162461bcd60e51b815260206004820152601c60248201527f5765656b6c792074696d65206973206e6f74206f766572207965742e000000006044820152606401610867565b600061112b612256565b6040516370a0823160e01b81523060048201529091506000906001600160a01b038716906370a0823190602401602060405180830381865afa158015611175573d6000803e3d6000fd5b505050506040513d601f19601f820116820180604052508101906111999190614c66565b60ff54909150808210156112155760405162461bcd60e51b815260206004820152603760248201527f436f6e74726163742068617320696e73756666696369656e742062616c616e6360448201527f6520746f2064697374726962757465207265776172642e0000000000000000006064820152608401610867565b60405163a9059cbb60e01b81526001600160a01b0384811660048301526024820183905288169063a9059cbb906044016020604051808303816000875af1158015611264573d6000803e3d6000fd5b505050506040513d601f19601f820116820180604052508101906112889190614c8f565b50600060ff55604080516001600160a01b0385168152602081018390527ffff6edc60fd30afefcc47525cdf85502200830b22550391f79f9e383df03afad910160405180910390a1509095945050505050565b336112e8848285856122dd565b50505050565b6001600160a01b03808216600090815261010660209081526040808320815161024081018352815463ffffffff81168252600160201b9004861681850152600182015486168184015260028201549095166060860152600381018054835181860281018601909452808452949586958695869592949360808601939290918301828280156113a557602002820191906000526020600020905b81546001600160a01b03168152600190910190602001808311611387575b505050505081526020016004820180548060200260200160405190810160405280929190818152602001828054801561140757602002820191906000526020600020905b81546001600160a01b031681526001909101906020018083116113e9575b505050505081526020016005820180548060200260200160405190810160405280929190818152602001828054801561148b57602002820191906000526020600020906000905b82829054906101000a900463ffffffff1663ffffffff168152602001906004019060208260030104928301926001038202915080841161144e5790505b5050505050815260200160068201548152602001600782015481526020016008820154815260200160098201548152602001600a8201548152602001600b8201548152602001600c8201548152602001600d8201548152602001600e8201548152602001600f820160009054906101000a900460ff161515151581526020016010820180548060200260200160405190810160405280929190818152602001828054801561158457602002820191906000526020600020906000905b82829054906101000a900463ffffffff1663ffffffff16815260200190600401906020826003010492830192600103820291508084116115475790505b50505091909252505050610140810151610160820151909550935090506115ab8385614c2b565b93959294505050565b6115bc612096565b6001600160a01b0381166116215760405162461bcd60e51b815260206004820152602660248201527f4f776e61626c653a206e6577206f776e657220697320746865207a65726f206160448201526564647265737360d01b6064820152608401610867565b61090481612142565b6001600160a01b03808216600090815261010660209081526040808320815161024081018352815463ffffffff81168252600160201b9004861681850152600182015486168184015260028201549095166060860152600381018054835181860281018601909452808452949586958695869586959394608086019391929091908301828280156116e457602002820191906000526020600020905b81546001600160a01b031681526001909101906020018083116116c6575b505050505081526020016004820180548060200260200160405190810160405280929190818152602001828054801561174657602002820191906000526020600020905b81546001600160a01b03168152600190910190602001808311611728575b50505050508152602001600582018054806020026020016040519081016040528092919081815260200182805480156117ca57602002820191906000526020600020906000905b82829054906101000a900463ffffffff1663ffffffff168152602001906004019060208260030104928301926001038202915080841161178d5790505b5050505050815260200160068201548152602001600782015481526020016008820154815260200160098201548152602001600a8201548152602001600b8201548152602001600c8201548152602001600d8201548152602001600e8201548152602001600f820160009054906101000a900460ff16151515158152602001601082018054806020026020016040519081016040528092919081815260200182805480156118c357602002820191906000526020600020906000905b82829054906101000a900463ffffffff1663ffffffff16815260200190600401906020826003010492830192600103820291508084116118865790505b5050509190925250505060e08101516101008201516101208301519197509550935090506118f18584614c18565b9150509193509193565b6001600160a01b03808216600090815261010660209081526040808320815161024081018352815463ffffffff81168252600160201b900486168185015260018201548616818401526002820154909516606086810191909152600382018054845181870281018701909552808552959691958795879586958895869590949193608086019392908301828280156119bc57602002820191906000526020600020905b81546001600160a01b0316815260019091019060200180831161199e575b5050505050815260200160048201805480602002602001604051908101604052809291908181526020018280548015611a1e57602002820191906000526020600020905b81546001600160a01b03168152600190910190602001808311611a00575b5050505050815260200160058201805480602002602001604051908101604052809291908181526020018280548015611aa257602002820191906000526020600020906000905b82829054906101000a900463ffffffff1663ffffffff1681526020019060040190602082600301049283019260010382029150808411611a655790505b5050505050815260200160068201548152602001600782015481526020016008820154815260200160098201548152602001600a8201548152602001600b8201548152602001600c8201548152602001600d8201548152602001600e8201548152602001600f820160009054906101000a900460ff1615151515815260200160108201805480602002602001604051908101604052809291908181526020018280548015611b9b57602002820191906000526020600020906000905b82829054906101000a900463ffffffff1663ffffffff1681526020019060040190602082600301049283019260010382029150808411611b5e5790505b5050509190925250505060608101516080820151805160a084015160c0909401518451939d929c50909a50929850919650945092505050565b611c85604051806102400160405280600063ffffffff16815260200160006001600160a01b0316815260200160006001600160a01b0316815260200160006001600160a01b03168152602001606081526020016060815260200160608152602001600081526020016000815260200160008152602001600081526020016000815260200160008152602001600081526020016000815260200160008152602001600015158152602001606081525090565b6001600160a01b0380831660009081526101066020908152604091829020825161024081018452815463ffffffff81168252600160201b900485168184015260018201548516818501526002820154909416606085015260038101805484518185028101850190955280855291936080860193909290830182828015611d3457602002820191906000526020600020905b81546001600160a01b03168152600190910190602001808311611d16575b5050505050815260200160048201805480602002602001604051908101604052809291908181526020018280548015611d9657602002820191906000526020600020905b81546001600160a01b03168152600190910190602001808311611d78575b5050505050815260200160058201805480602002602001604051908101604052809291908181526020018280548015611e1a57602002820191906000526020600020906000905b82829054906101000a900463ffffffff1663ffffffff1681526020019060040190602082600301049283019260010382029150808411611ddd5790505b5050505050815260200160068201548152602001600782015481526020016008820154815260200160098201548152602001600a8201548152602001600b8201548152602001600c8201548152602001600d8201548152602001600e8201548152602001600f820160009054906101000a900460ff1615151515815260200160108201805480602002602001604051908101604052809291908181526020018280548015611f1357602002820191906000526020600020906000905b82829054906101000a900463ffffffff1663ffffffff1681526020019060040190602082600301049283019260010382029150808411611ed65790505b5050505050815250509050919050565b610904612096565b7f4910fdfa16fed3260ed0e7147f7cc6da11a60208b5b9406d12a635614ffd91435460ff1615611f5e5761025683613aa5565b826001600160a01b03166352d1902d6040518163ffffffff1660e01b8152600401602060405180830381865afa925050508015611fb8575060408051601f3d908101601f19168201909252611fb591810190614c66565b60015b61201b5760405162461bcd60e51b815260206004820152602e60248201527f45524331393637557067726164653a206e657720696d706c656d656e7461746960448201526d6f6e206973206e6f74205555505360901b6064820152608401610867565b6000805160206151e1833981519152811461208a5760405162461bcd60e51b815260206004820152602960248201527f45524331393637557067726164653a20756e737570706f727465642070726f786044820152681a58589b195555525160ba1b6064820152608401610867565b50610256838383613b41565b6065546001600160a01b03163314610be25760405162461bcd60e51b815260206004820181905260248201527f4f776e61626c653a2063616c6c6572206973206e6f7420746865206f776e65726044820152606401610867565b6120f8613b66565b6033805460ff191690557f5db9ee0a495bf2e6ff9c91a7834c1ba4fdd244a5e8aa4e537bd38aeae4b073aa335b6040516001600160a01b03909116815260200160405180910390a1565b606580546001600160a01b038381166001600160a01b0319831681179093556040519116919082907f8be0079c531659141344cd1fd0a4f28419497f9722a3daafe3b4186f6b6457e090600090a35050565b600054610100900460ff166121bb5760405162461bcd60e51b815260040161086790614caa565b610be2613baf565b600054610100900460ff166121ea5760405162461bcd60e51b815260040161086790614caa565b610be2613be2565b600054610100900460ff16610be25760405162461bcd60e51b815260040161086790614caa565b612221613c12565b6033805460ff191660011790557f62e78cea01bee320cd4e420270b5ea74000d11b0c9f74754ebdbfc544b05a2586121253390565b6000804244612266600143614c2b565b60408051602081019490945283019190915240606082015260800160408051601f19818403018152919052805160209091012060fc549091506000906122ac9083614d0b565b905060fc81815481106122c1576122c1614d1f565b6000918252602090912001546001600160a01b03169392505050565b60fb54604051630efc12b160e01b815260ff841660048201526001600160a01b03909116906000908290630efc12b190602401600060405180830381865afa15801561232d573d6000803e3d6000fd5b505050506040513d6000823e601f3d908101601f191682016040526123559190810190614db1565b905060008160400151116123be5760405162461bcd60e51b815260206004820152602a60248201527f56616c7565206973207a65726f2e20506c656173652073656c65637420636f726044820152693932b1ba10383630b71760b11b6064820152608401610867565b6040516373a5799760e11b81526001600160a01b0384811660048301526000919084169063e74af32e90602401600060405180830381865afa158015612408573d6000803e3d6000fd5b505050506040513d6000823e601f3d908101601f191682016040526124309190810190614e5e565b6060810151815160c083015192935090916124985760405162461bcd60e51b815260206004820152602260248201527f546f6b656e206973206e6f7420737570706f72746564206f722064697361626c604482015261195960f21b6064820152608401610867565b6000856001600160a01b031663918a54db6040518163ffffffff1660e01b8152600401600060405180830381865afa1580156124d8573d6000803e3d6000fd5b505050506040513d6000823e601f3d908101601f191682016040526125009190810190614f44565b9050866001600160a01b03166323b872dd8a3060128760ff161061252857886040015161253b565b61253b896040015160128960ff16613c58565b6040516001600160e01b031960e086901b1681526001600160a01b03938416600482015292909116602483015260448201526064016020604051808303816000875af115801561258f573d6000803e3d6000fd5b505050506040513d601f19601f820116820180604052508101906125b39190614c8f565b506001600160a01b0389166000908152610106602052604081208054909163ffffffff90911690036126505760fd805463ffffffff169060006125f583614ffe565b82546101009290920a63ffffffff81810219909316918316021790915560fd548354911663ffffffff199091168117835560009081526101076020526040902080546001600160a01b0319166001600160a01b038d16179055505b8054640100000000600160c01b031916600160201b6001600160a01b038c1602178155604086015160068201805460009061268c908490614c18565b9091555050606086015160408701516126a59190615021565b8160090160008282546126b89190614c18565b90915550506040516204942560ec1b60208201526023016040516020818303038152906040528051906020012086602001516040516020016126fa9190615038565b604051602081830303815290604052805190602001201480156127365750805460018201546001600160a01b03908116600160201b9092041614155b15612767578054600182018054600160201b9092046001600160a01b03166001600160a01b03199092169190911790555b6040805161024081018252825463ffffffff811682526001600160a01b03600160201b90910481166020808401919091526001850154821683850152600285015490911660608301526003840180548451818402810184019095528085526129f9948693608086019391929083018282801561280c57602002820191906000526020600020905b81546001600160a01b031681526001909101906020018083116127ee575b505050505081526020016004820180548060200260200160405190810160405280929190818152602001828054801561286e57602002820191906000526020600020905b81546001600160a01b03168152600190910190602001808311612850575b50505050508152602001600582018054806020026020016040519081016040528092919081815260200182805480156128f257602002820191906000526020600020906000905b82829054906101000a900463ffffffff1663ffffffff16815260200190600401906020826003010492830192600103820291508084116128b55790505b5050505050815260200160068201548152602001600782015481526020016008820154815260200160098201548152602001600a8201548152602001600b8201548152602001600c8201548152602001600d8201548152602001600e8201548152602001600f820160009054906101000a900460ff16151515158152602001601082018054806020026020016040519081016040528092919081815260200182805480156129eb57602002820191906000526020600020906000905b82829054906101000a900463ffffffff1663ffffffff16815260200190600401906020826003010492830192600103820291508084116129ae5790505b505050505081525050613c8e565b612a0a57612a0a8b8b84518a613cad565b8054600282015460408051600160201b84046001600160a01b03908116825263ffffffff909416602082015260ff8d1681830152929091166060830152517fccdfed8601106cae21493f7848436196048b60f2dc70db89d92e3acdabb0ee299181900360800190a160fc5415612c40576000612a84612256565b90506001600160a01b03811615612c3e576001600160a01b0381166000908152610106602052604080822090890151909190606490612ac490600a615021565b612ace9190615054565b90508082600c016000828254612ae49190614c18565b925050819055508082600a016000828254612aff9190614c18565b90915550506001600160a01b03861663a9059cbb84601260ff8b1610612b255783612b34565b612b348460128c60ff16613c58565b6040516001600160e01b031960e085901b1681526001600160a01b03909216600483015260248201526044016020604051808303816000875af1158015612b7f573d6000803e3d6000fd5b505050506040513d601f19601f82011682018060405250810190612ba39190614c8f565b507f693fc02576006378cd4577590d99ad6b18ad4c566c433b85643d7b07a4815665838e8b6040015184600a6064604051612c1b969594939291906001600160a01b0396871681529490951660208501526040840192909252606083015261ffff90811660808301529190911660a082015260c00190565b60405180910390a1806101026000828254612c369190614c18565b909155505050505b505b60018101546001600160a01b03161561320d576001808201546001600160a01b0390811660009081526101066020908152604091829020825161024081018452815463ffffffff81168252600160201b900485168184015294810154841685840152600281015490931660608501526003830180548351818402810184019094528084529394612efc94909386936080860193919290830182828015612d0f57602002820191906000526020600020905b81546001600160a01b03168152600190910190602001808311612cf1575b5050505050815260200160048201805480602002602001604051908101604052809291908181526020018280548015612d7157602002820191906000526020600020905b81546001600160a01b03168152600190910190602001808311612d53575b5050505050815260200160058201805480602002602001604051908101604052809291908181526020018280548015612df557602002820191906000526020600020906000905b82829054906101000a900463ffffffff1663ffffffff1681526020019060040190602082600301049283019260010382029150808411612db85790505b5050505050815260200160068201548152602001600782015481526020016008820154815260200160098201548152602001600a8201548152602001600b8201548152602001600c8201548152602001600d8201548152602001600e8201548152602001600f820160009054906101000a900460ff1615151515815260200160108201805480602002602001604051908101604052809291908181526020018280548015612eee57602002820191906000526020600020906000905b82829054906101000a900463ffffffff1663ffffffff1681526020019060040190602082600301049283019260010382029150808411612eb15790505b50505050508152505061451b565b6131875760006064896001600160a01b031663e70167176040518163ffffffff1660e01b8152600401602060405180830381865afa158015612f42573d6000803e3d6000fd5b505050506040513d601f19601f82011682018060405250810190612f669190615068565b60ff168960400151612f789190615021565b612f829190615054565b90506000612f908383614536565b90508083600e016000828254612fa69190614c18565b925050819055508083600a016000828254612fc19190614c18565b909155505060018401546001600160a01b038088169163a9059cbb9116601260ff8b1610612fef5783612ffe565b612ffe8460128c60ff16613c58565b6040516001600160e01b031960e085901b1681526001600160a01b03909216600483015260248201526044016020604051808303816000875af1158015613049573d6000803e3d6000fd5b505050506040513d601f19601f8201168201806040525081019061306d9190614c8f565b507f3c8fdb10971c51ff48e3a4db4d7f14e64690a286be5bb9f410d9fd0fb74dbf488460010160009054906101000a90046001600160a01b03168560000160049054906101000a90046001600160a01b03168b60400151848e6001600160a01b031663e70167176040518163ffffffff1660e01b8152600401602060405180830381865afa158015613103573d6000803e3d6000fd5b505050506040513d601f19601f820116820180604052508101906131279190615068565b604080516001600160a01b03968716815295909416602086015292840191909152606083015260ff166080820152606460a082015260c00160405180910390a181610105600082825461317a9190614c18565b9091555061320b92505050565b6001820154604080516001600160a01b039092168252602082018190526026828201527f49425020526577617264206e6f7420706169642e204d6178204c696d69742052606083015265195858da195960d21b6080830152517fd9365ce421ec9d37d946db34572a16a808a9a2c0df5f97dcafa2775d700428f89181900360a00190a15b505b6000805b83518160ff161015613a2f576040805161024081018252845463ffffffff811682526001600160a01b03600160201b909104811660208084019190915260018701548216838501526002870154909116606083015260038601805484518184028101840190955280855261345d948893608086019391929083018282801561280c576020028201919060005260206000209081546001600160a01b031681526001909101906020018083116127ee57505050505081526020016004820180548060200260200160405190810160405280929190818152602001828054801561286e576020028201919060005260206000209081546001600160a01b031681526001909101906020018083116128505750505050508152602001600582018054806020026020016040519081016040528092919081815260200182805480156128f2576000918252602091829020805463ffffffff1684529082028301929091600491018084116128b55790505050505050815260200160068201548152602001600782015481526020016008820154815260200160098201548152602001600a8201548152602001600b8201548152602001600c8201548152602001600d8201548152602001600e8201548152602001600f820160009054906101000a900460ff16151515158152602001601082018054806020026020016040519081016040528092919081815260200182805480156129eb576000918252602091829020805463ffffffff1684529082028301929091600491018084116129ae579050505050505081525050613c8e565b15613a2f576002808401546001600160a01b0390811660009081526101066020908152604091829020825161024081018452815463ffffffff81168252600160201b9004851681840152600182015485168185015294810154909316606085015260038301805483518184028101840190945280845293946136b994909386936080860193919290830182828015612d0f576020028201919060005260206000209081546001600160a01b03168152600190910190602001808311612cf1575050505050815260200160048201805480602002602001604051908101604052809291908181526020018280548015612d71576020028201919060005260206000209081546001600160a01b03168152600190910190602001808311612d53575050505050815260200160058201805480602002602001604051908101604052809291908181526020018280548015612df5576000918252602091829020805463ffffffff168452908202830192909160049101808411612db85790505050505050815260200160068201548152602001600782015481526020016008820154815260200160098201548152602001600a8201548152602001600b8201548152602001600c8201548152602001600d8201548152602001600e8201548152602001600f820160009054906101000a900460ff1615151515815260200160108201805480602002602001604051908101604052809291908181526020018280548015612eee576000918252602091829020805463ffffffff168452908202830192909160049101808411612eb157905050505050508152505061451b565b1561372d576002840154604080516001600160a01b039092168252602082018190526011828201527013585e08131a5b5a5d0814995858da1959607a1b6060830152517f9cf6f1ac252ffae20583b13cb366045bedd20a57355f5f69adf17da561de00039181900360800190a19250613a1d565b8160ff1660000361381a5788604001518160070160008282546137509190614c18565b9091555050600f81015460ff161561380557600284015460fc80546001818101835560008390527f371f36870d18f32a11fea0f144b021c8b407bb50f8e0267c711123f454b963c090910180546001600160a01b0319166001600160a01b03909416939093179092555460108301916137c891614c2b565b8154600181018355600092835260209092206008830401805460079093166004026101000a63ffffffff8181021990941692909316929092021790555b600f8101805460ff19811660ff909116151790555b88604001518160080160008282546138329190614c18565b925050819055506000612710868460ff168151811061385357613853614d1f565b602002602001015161ffff168b6040015161386e9190615021565b6138789190615054565b905060006138868383614536565b90508083600b01600082825461389c9190614c18565b909155505060028601546001600160a01b03808a169163a9059cbb9116601260ff8d16106138ca57836138d9565b6138d98460128e60ff16613c58565b6040516001600160e01b031960e085901b1681526001600160a01b03909216600483015260248201526044016020604051808303816000875af1158015613924573d6000803e3d6000fd5b505050506040513d601f19601f820116820180604052508101906139489190614c8f565b506139538186614c18565b6002870154875460408e01518a519398507f3fae587c6f1778678d1e63bd99d63afe07677c2a2eb43a4b228b80e8a38c1b06936001600160a01b0393841693600160201b9093049092169185908c9060ff8b169081106139b5576139b5614d1f565b60200260200101516127108a60016139cd9190615085565b604080516001600160a01b03988916815297909616602088015294860193909352606085019190915261ffff16608084015260a083015260ff1660c082015260e00160405180910390a150909350505b80613a278161509e565b915050613211565b50806101016000828254613a439190614c18565b9091555050604087015160fe8054600090613a5f908490614c18565b90915550506040870151606490613a7790600a615021565b613a819190615054565b60ff6000828254613a929190614c18565b9091555050505050505050505050505050565b6001600160a01b0381163b613b125760405162461bcd60e51b815260206004820152602d60248201527f455243313936373a206e657720696d706c656d656e746174696f6e206973206e60448201526c1bdd08184818dbdb9d1c9858dd609a1b6064820152608401610867565b6000805160206151e183398151915280546001600160a01b0319166001600160a01b0392909216919091179055565b613b4a83614598565b600082511180613b575750805b15610256576112e883836145d8565b60335460ff16610be25760405162461bcd60e51b815260206004820152601460248201527314185d5cd8589b194e881b9bdd081c185d5cd95960621b6044820152606401610867565b600054610100900460ff16613bd65760405162461bcd60e51b815260040161086790614caa565b6033805460ff19169055565b600054610100900460ff16613c095760405162461bcd60e51b815260040161086790614caa565b610be233612142565b60335460ff1615610be25760405162461bcd60e51b815260206004820152601060248201526f14185d5cd8589b194e881c185d5cd95960821b6044820152606401610867565b6000613c6583600a6151a1565b613c7083600a6151a1565b613c7a9086615021565b613c849190615054565b90505b9392505050565b60608101516000906001600160a01b031615613ca8575060015b919050565b6001600160a01b0380841660009081526101066020908152604091829020825161024081018452815463ffffffff81168252600160201b90048516818401526001820154851681850152600282015490941660608501526003810180548451818502810185019095528085529194613efd949093869360808601939183018282801561280c576020028201919060005260206000209081546001600160a01b031681526001909101906020018083116127ee57505050505081526020016004820180548060200260200160405190810160405280929190818152602001828054801561286e576020028201919060005260206000209081546001600160a01b031681526001909101906020018083116128505750505050508152602001600582018054806020026020016040519081016040528092919081815260200182805480156128f2576000918252602091829020805463ffffffff1684529082028301929091600491018084116128b55790505050505050815260200160068201548152602001600782015481526020016008820154815260200160098201548152602001600a8201548152602001600b8201548152602001600c8201548152602001600d8201548152602001600e8201548152602001600f820160009054906101000a900460ff16151515158152602001601082018054806020026020016040519081016040528092919081815260200182805480156129eb576000918252602091829020805463ffffffff1684529082028301929091600491018084116129ae579050505050505081525050613c8e565b158015613f7d5750816001600160a01b031663b2e6b9126040518163ffffffff1660e01b8152600401602060405180830381865afa158015613f43573d6000803e3d6000fd5b505050506040513d601f19601f82011682018060405250810190613f679190614c49565b6001600160a01b0316846001600160a01b031614155b15614514576001600160a01b0385161580613fa95750846001600160a01b0316846001600160a01b0316145b1561411457604080516001600160a01b038781168252861660208201526060818301819052603a908201527f5a65726f20616464726573732063616e6e6f742062652072656665727265722e60808201527f2053657474696e672064656661756c742072656665727265722e00000000000060a082015290517f32df26c7e54a821624fc8d22e1171e5793b90d1fccc483d3ff277b9c42bb22399181900360c00190a16000826001600160a01b031663b2e6b9126040518163ffffffff1660e01b8152600401602060405180830381865afa15801561408c573d6000803e3d6000fd5b505050506040513d601f19601f820116820180604052508101906140b09190614c49565b6002830180546001600160a01b0319166001600160a01b038381169182179092556040805191825291881660208201529192507fec49a3c8c4ae06c18160fe86119c381c9d213ac3e052ff35b594da8687b193c7910160405180910390a150614170565b6002810180546001600160a01b0319166001600160a01b038781169182179092556040805191825291861660208201527fec49a3c8c4ae06c18160fe86119c381c9d213ac3e052ff35b594da8687b193c7910160405180910390a15b60005b8360ff168160ff1610156145125760028201546001600160a01b0316156145125760028201546001600160a01b03166000908152610106602052604081209060ff831690036144825760038101805460018082018355600092835260209092200180546001600160a01b0319166001600160a01b038981169190911790915590840154161561427e576001830154604080516001600160a01b03928316815291881660208301526060828201819052601d908301527f5265666572656520616c7265616479206861766520696270207365742e0000006080830152517fffca51efd3fa9dd00c7ad8de67cce6deeb82e78db2d05fe4b84079eca71665109181900360a00190a1614482565b60018101546001600160a01b0316614432576001810154604080516001600160a01b039283168152918816602083015260608282018190526032908301527f5a65726f20616464726573732063616e6e6f74206265206962702e20536574746080830152710696e672075702064656661756c74206962760741b60a0830152517fffca51efd3fa9dd00c7ad8de67cce6deeb82e78db2d05fe4b84079eca71665109181900360c00190a16000846001600160a01b031663b2e6b9126040518163ffffffff1660e01b8152600401602060405180830381865afa158015614368573d6000803e3d6000fd5b505050506040513d601f19601f8201168201806040525081019061438c9190614c49565b600185810180546001600160a01b038481166001600160a01b03199283168117909355928601805490911682179055845460408051928352600160201b9091049092166020820152919250600080516020615228833981519152910160405180910390a18354604080516001600160a01b038085168252600160201b9093049092166020830152600080516020615228833981519152910160405180910390a150614482565b6001818101805491850180546001600160a01b0319166001600160a01b03938416179055546040805191831682529188166020820152600080516020615228833981519152910160405180910390a15b60048101805460018082018355600092835260209092200180546001600160a01b0319166001600160a01b03891617905560058201906144c3908490615085565b8154600181018355600092835260209092206008830401805463ffffffff60079094166004026101000a938402191660ff9290921690920217905591508061450a8161509e565b915050614173565b505b5050505050565b600081610140015182610160015110613ca857506001919050565b600082600901548284600a015461454d9190614c18565b11614574578190508183600a0160008282546145699190614c18565b909155506145929050565b82600a015483600901546145889190614c2b565b600a840181905590505b92915050565b6145a181613aa5565b6040516001600160a01b038216907fbc7cd75a20ee27fd9adebab32041f755214dbc6bffa90cc0225b39da2e5c2d3b90600090a250565b60606001600160a01b0383163b6146405760405162461bcd60e51b815260206004820152602660248201527f416464726573733a2064656c65676174652063616c6c20746f206e6f6e2d636f6044820152651b9d1c9858dd60d21b6064820152608401610867565b600080846001600160a01b03168460405161465b9190615038565b600060405180830381855af49150503d8060008114614696576040519150601f19603f3d011682016040523d82523d6000602084013e61469b565b606091505b50915091506146c38282604051806060016040528060278152602001615201602791396146cc565b95945050505050565b606083156146db575081613c87565b613c8783838151156146f05781518083602001fd5b8060405162461bcd60e51b815260040161086791906151ad565b6001600160a01b038116811461090457600080fd5b60006020828403121561473157600080fd5b8135613c878161470a565b60ff8116811461090457600080fd5b60008060006060848603121561476057600080fd5b833561476b8161470a565b9250602084013561477b8161473c565b9150604084013561478b8161470a565b809150509250925092565b600081518084526020808501945080840160005b838110156147cc57815163ffffffff16875295820195908201906001016147aa565b509495945050505050565b83151581526060602082015260006147f26060830185614796565b9050826040830152949350505050565b6000806040838503121561481557600080fd5b82356148208161470a565b915060208301356148308161470a565b809150509250929050565b634e487b7160e01b600052604160045260246000fd5b60405160e0810167ffffffffffffffff811182821017156148745761487461483b565b60405290565b604051601f8201601f1916810167ffffffffffffffff811182821017156148a3576148a361483b565b604052919050565b600067ffffffffffffffff8211156148c5576148c561483b565b50601f01601f191660200190565b600080604083850312156148e657600080fd5b82356148f18161470a565b9150602083013567ffffffffffffffff81111561490d57600080fd5b8301601f8101851361491e57600080fd5b803561493161492c826148ab565b61487a565b81815286602083850101111561494657600080fd5b816020840160208301376000602083830101528093505050509250929050565b600081518084526020808501945080840160005b838110156147cc5781516001600160a01b03168752958201959082019060010161497a565b6001600160a01b038716815260c0602082018190526000906149c390830188614966565b86604084015282810360608401526149db8187614966565b905082810360808401526149ef8186614796565b9150508260a0830152979650505050505050565b60208152614a1a60208201835163ffffffff169052565b60006020830151614a3660408401826001600160a01b03169052565b5060408301516001600160a01b03811660608401525060608301516001600160a01b03811660808401525060808301516102408060a0850152614a7d610260850183614966565b915060a0850151601f19808685030160c0870152614a9b8483614966565b935060c08701519150808685030160e0870152614ab88483614796565b60e088015161010088810191909152880151610120808901919091528801516101408089019190915288015161016080890191909152880151610180808901919091528801516101a0808901919091528801516101c0808901919091528801516101e080890191909152880151610200808901919091528801519094509150610220614b478188018415159052565b870151868503909101838701529050614b608382614796565b9695505050505050565b6020808252602c908201527f46756e6374696f6e206d7573742062652063616c6c6564207468726f7567682060408201526b19195b1959d85d1958d85b1b60a21b606082015260800190565b6020808252602c908201527f46756e6374696f6e206d7573742062652063616c6c6564207468726f7567682060408201526b6163746976652070726f787960a01b606082015260800190565b634e487b7160e01b600052601160045260246000fd5b8082018082111561459257614592614c02565b8181038181111561459257614592614c02565b8051613ca88161470a565b600060208284031215614c5b57600080fd5b8151613c878161470a565b600060208284031215614c7857600080fd5b5051919050565b80518015158114613ca857600080fd5b600060208284031215614ca157600080fd5b613c8782614c7f565b6020808252602b908201527f496e697469616c697a61626c653a20636f6e7472616374206973206e6f74206960408201526a6e697469616c697a696e6760a81b606082015260800190565b634e487b7160e01b600052601260045260246000fd5b600082614d1a57614d1a614cf5565b500690565b634e487b7160e01b600052603260045260246000fd5b8051613ca88161473c565b60005b83811015614d5b578181015183820152602001614d43565b50506000910152565b600082601f830112614d7557600080fd5b8151614d8361492c826148ab565b818152846020838601011115614d9857600080fd5b614da9826020830160208701614d40565b949350505050565b600060208284031215614dc357600080fd5b815167ffffffffffffffff80821115614ddb57600080fd5b9083019060808286031215614def57600080fd5b604051608081018181108382111715614e0a57614e0a61483b565b6040528251614e188161473c565b8152602083015182811115614e2c57600080fd5b614e3887828601614d64565b602083015250604083015160408201526060830151606082015280935050505092915050565b600060208284031215614e7057600080fd5b815167ffffffffffffffff80821115614e8857600080fd5b9083019060e08286031215614e9c57600080fd5b614ea4614851565b614ead83614c3e565b8152602083015182811115614ec157600080fd5b614ecd87828601614d64565b602083015250604083015182811115614ee557600080fd5b614ef187828601614d64565b604083015250614f0360608401614d35565b6060820152614f1460808401614c7f565b6080820152614f2560a08401614c3e565b60a0820152614f3660c08401614c7f565b60c082015295945050505050565b60006020808385031215614f5757600080fd5b825167ffffffffffffffff80821115614f6f57600080fd5b818501915085601f830112614f8357600080fd5b815181811115614f9557614f9561483b565b8060051b9150614fa684830161487a565b8181529183018401918481019088841115614fc057600080fd5b938501935b83851015614ff2578451925061ffff83168314614fe25760008081fd5b8282529385019390850190614fc5565b98975050505050505050565b600063ffffffff80831681810361501757615017614c02565b6001019392505050565b808202811582820484141761459257614592614c02565b6000825161504a818460208701614d40565b9190910192915050565b60008261506357615063614cf5565b500490565b60006020828403121561507a57600080fd5b8151613c878161473c565b60ff818116838216019081111561459257614592614c02565b600060ff821660ff81036150b4576150b4614c02565b60010192915050565b600181815b808511156150f85781600019048211156150de576150de614c02565b808516156150eb57918102915b93841c93908002906150c2565b509250929050565b60008261510f57506001614592565b8161511c57506000614592565b8160018114615132576002811461513c57615158565b6001915050614592565b60ff84111561514d5761514d614c02565b50506001821b614592565b5060208310610133831016604e8410600b841016171561517b575081810a614592565b61518583836150bd565b806000190482111561519957615199614c02565b029392505050565b6000613c878383615100565b60208152600082518060208401526151cc816040850160208701614d40565b601f01601f1916919091016040019291505056fe360894a13ba1a3210667c828492db98dca3e2076cc3735a920a3ca505d382bbc416464726573733a206c6f772d6c6576656c2064656c65676174652063616c6c206661696c656400f37bd73ff29ab549d774afc91445bf33292ed9a4b4b4177fb1e61ff3c58469a26469706673582212207e090f2c5acdd17a0342fc54f7d10a5e97c0d2f5f3ceb3ca8f56cb206b73295164736f6c63430008120033",
  "linkReferences": {},
  "deployedLinkReferences": {}
}