{
  "_format": "hh-sol-artifact-1",
  "contractName": "ReferralV1Upgradeable",
  "sourceName": "contracts/ReferralV1Upgradeable.sol",
  "abi": [
    {
      "anonymous": false,
      "inputs": [
        {
          "indexed": false,
          "internalType": "address",
          "name": "previousAdmin",
          "type": "address"
        },
        {
          "indexed": false,
          "internalType": "address",
          "name": "newAdmin",
          "type": "address"
        }
      ],
      "name": "AdminChanged",
      "type": "event"
    },
    {
      "anonymous": false,
      "inputs": [
        {
          "indexed": true,
          "internalType": "address",
          "name": "beacon",
          "type": "address"
        }
      ],
      "name": "BeaconUpgraded",
      "type": "event"
    },
    {
      "anonymous": false,
      "inputs": [
        {
          "indexed": false,
          "internalType": "address",
          "name": "coreMembersContract",
          "type": "address"
        },
        {
          "indexed": false,
          "internalType": "uint256",
          "name": "value",
          "type": "uint256"
        }
      ],
      "name": "CoreMembersRewardPaid",
      "type": "event"
    },
    {
      "anonymous": false,
      "inputs": [
        {
          "indexed": false,
          "internalType": "address",
          "name": "globalAddress",
          "type": "address"
        },
        {
          "indexed": false,
          "internalType": "address",
          "name": "userAddress",
          "type": "address"
        },
        {
          "indexed": false,
          "internalType": "uint256",
          "name": "registrationValue",
          "type": "uint256"
        },
        {
          "indexed": false,
          "internalType": "uint256",
          "name": "rewardValue",
          "type": "uint256"
        },
        {
          "indexed": false,
          "internalType": "uint16",
          "name": "rewardRate",
          "type": "uint16"
        },
        {
          "indexed": false,
          "internalType": "uint16",
          "name": "rewardRateDecimals",
          "type": "uint16"
        },
        {
          "indexed": false,
          "internalType": "string",
          "name": "reason",
          "type": "string"
        }
      ],
      "name": "GlobalRewardsNotPaid",
      "type": "event"
    },
    {
      "anonymous": false,
      "inputs": [
        {
          "indexed": false,
          "internalType": "address",
          "name": "globalAddress",
          "type": "address"
        },
        {
          "indexed": false,
          "internalType": "address",
          "name": "userAddress",
          "type": "address"
        },
        {
          "indexed": false,
          "internalType": "uint256",
          "name": "registrationValue",
          "type": "uint256"
        },
        {
          "indexed": false,
          "internalType": "uint256",
          "name": "rewardValue",
          "type": "uint256"
        },
        {
          "indexed": false,
          "internalType": "uint16",
          "name": "rewardRate",
          "type": "uint16"
        },
        {
          "indexed": false,
          "internalType": "uint16",
          "name": "rewardRateDecimals",
          "type": "uint16"
        }
      ],
      "name": "GlobalRewardsPaid",
      "type": "event"
    },
    {
      "anonymous": false,
      "inputs": [
        {
          "indexed": false,
          "internalType": "address",
          "name": "ibpAddress",
          "type": "address"
        },
        {
          "indexed": false,
          "internalType": "address",
          "name": "userAddress",
          "type": "address"
        }
      ],
      "name": "IBPAdded",
      "type": "event"
    },
    {
      "anonymous": false,
      "inputs": [
        {
          "indexed": false,
          "internalType": "address",
          "name": "ibpAddress",
          "type": "address"
        },
        {
          "indexed": false,
          "internalType": "address",
          "name": "userAddress",
          "type": "address"
        },
        {
          "indexed": false,
          "internalType": "string",
          "name": "reason",
          "type": "string"
        }
      ],
      "name": "IBPNotAdded",
      "type": "event"
    },
    {
      "anonymous": false,
      "inputs": [
        {
          "indexed": false,
          "internalType": "address",
          "name": "ibpAddress",
          "type": "address"
        },
        {
          "indexed": false,
          "internalType": "string",
          "name": "reason",
          "type": "string"
        }
      ],
      "name": "IBPRewardsNotPaid",
      "type": "event"
    },
    {
      "anonymous": false,
      "inputs": [
        {
          "indexed": false,
          "internalType": "address",
          "name": "ibpAddress",
          "type": "address"
        },
        {
          "indexed": false,
          "internalType": "address",
          "name": "userAddress",
          "type": "address"
        },
        {
          "indexed": false,
          "internalType": "uint256",
          "name": "businessValue",
          "type": "uint256"
        },
        {
          "indexed": false,
          "internalType": "uint256",
          "name": "rewardValue",
          "type": "uint256"
        },
        {
          "indexed": false,
          "internalType": "uint16",
          "name": "rewardRate",
          "type": "uint16"
        },
        {
          "indexed": false,
          "internalType": "uint16",
          "name": "rewardRateDecimals",
          "type": "uint16"
        }
      ],
      "name": "IBPRewardsPaid",
      "type": "event"
    },
    {
      "anonymous": false,
      "inputs": [
        {
          "indexed": false,
          "internalType": "uint8",
          "name": "version",
          "type": "uint8"
        }
      ],
      "name": "Initialized",
      "type": "event"
    },
    {
      "anonymous": false,
      "inputs": [
        {
          "indexed": false,
          "internalType": "address",
          "name": "userAddress",
          "type": "address"
        },
        {
          "indexed": false,
          "internalType": "string",
          "name": "reason",
          "type": "string"
        }
      ],
      "name": "NoRewardsPaid",
      "type": "event"
    },
    {
      "anonymous": false,
      "inputs": [
        {
          "indexed": true,
          "internalType": "address",
          "name": "previousOwner",
          "type": "address"
        },
        {
          "indexed": true,
          "internalType": "address",
          "name": "newOwner",
          "type": "address"
        }
      ],
      "name": "OwnershipTransferred",
      "type": "event"
    },
    {
      "anonymous": false,
      "inputs": [
        {
          "indexed": false,
          "internalType": "address",
          "name": "account",
          "type": "address"
        }
      ],
      "name": "Paused",
      "type": "event"
    },
    {
      "anonymous": false,
      "inputs": [
        {
          "indexed": false,
          "internalType": "address",
          "name": "referrerAddress",
          "type": "address"
        },
        {
          "indexed": false,
          "internalType": "address",
          "name": "userAddress",
          "type": "address"
        },
        {
          "indexed": false,
          "internalType": "uint256",
          "name": "value",
          "type": "uint256"
        },
        {
          "indexed": false,
          "internalType": "uint256",
          "name": "rewardValue",
          "type": "uint256"
        },
        {
          "indexed": false,
          "internalType": "uint256",
          "name": "rewardRate",
          "type": "uint256"
        },
        {
          "indexed": false,
          "internalType": "uint256",
          "name": "rewardRateDecimals",
          "type": "uint256"
        },
        {
          "indexed": false,
          "internalType": "uint32",
          "name": "level",
          "type": "uint32"
        }
      ],
      "name": "ReferralRewardsPaid",
      "type": "event"
    },
    {
      "anonymous": false,
      "inputs": [
        {
          "indexed": false,
          "internalType": "address",
          "name": "referrerAddress",
          "type": "address"
        },
        {
          "indexed": false,
          "internalType": "address",
          "name": "refereeAddress",
          "type": "address"
        }
      ],
      "name": "ReferrerAdded",
      "type": "event"
    },
    {
      "anonymous": false,
      "inputs": [
        {
          "indexed": false,
          "internalType": "address",
          "name": "referrerAddress",
          "type": "address"
        },
        {
          "indexed": false,
          "internalType": "address",
          "name": "refereeAddress",
          "type": "address"
        },
        {
          "indexed": false,
          "internalType": "string",
          "name": "reason",
          "type": "string"
        }
      ],
      "name": "ReferrerNotAdded",
      "type": "event"
    },
    {
      "anonymous": false,
      "inputs": [
        {
          "indexed": false,
          "internalType": "address",
          "name": "userAddress",
          "type": "address"
        },
        {
          "indexed": false,
          "internalType": "uint32",
          "name": "userId",
          "type": "uint32"
        },
        {
          "indexed": false,
          "internalType": "uint8",
          "name": "planId",
          "type": "uint8"
        },
        {
          "indexed": false,
          "internalType": "address",
          "name": "referrerAddress",
          "type": "address"
        }
      ],
      "name": "Registration",
      "type": "event"
    },
    {
      "anonymous": false,
      "inputs": [
        {
          "indexed": false,
          "internalType": "address",
          "name": "parentAddress",
          "type": "address"
        },
        {
          "indexed": false,
          "internalType": "address",
          "name": "referrerAddress",
          "type": "address"
        },
        {
          "indexed": false,
          "internalType": "address",
          "name": "refereeAddress",
          "type": "address"
        },
        {
          "indexed": false,
          "internalType": "uint32",
          "name": "level",
          "type": "uint32"
        }
      ],
      "name": "TeamAddressAdded",
      "type": "event"
    },
    {
      "anonymous": false,
      "inputs": [
        {
          "indexed": false,
          "internalType": "address",
          "name": "account",
          "type": "address"
        }
      ],
      "name": "Unpaused",
      "type": "event"
    },
    {
      "anonymous": false,
      "inputs": [
        {
          "indexed": true,
          "internalType": "address",
          "name": "implementation",
          "type": "address"
        }
      ],
      "name": "Upgraded",
      "type": "event"
    },
    {
      "anonymous": false,
      "inputs": [
        {
          "indexed": false,
          "internalType": "address",
          "name": "globalAddress",
          "type": "address"
        },
        {
          "indexed": false,
          "internalType": "uint256",
          "name": "rewardValue",
          "type": "uint256"
        }
      ],
      "name": "WeeklyRewardsPaid",
      "type": "event"
    },
    {
      "inputs": [
        {
          "internalType": "address",
          "name": "_userAddress",
          "type": "address"
        },
        {
          "internalType": "address",
          "name": "_ibpAddress",
          "type": "address"
        },
        {
          "internalType": "uint256",
          "name": "_maxLimitInDecimals",
          "type": "uint256"
        }
      ],
      "name": "addIbpToAddressAdmin",
      "outputs": [],
      "stateMutability": "nonpayable",
      "type": "function"
    },
    {
      "inputs": [
        {
          "internalType": "address",
          "name": "_tokenAddress",
          "type": "address"
        }
      ],
      "name": "distributeWeeklyReward",
      "outputs": [],
      "stateMutability": "nonpayable",
      "type": "function"
    },
    {
      "inputs": [],
      "name": "getRegistrationsStats",
      "outputs": [
        {
          "internalType": "uint32",
          "name": "totalUser",
          "type": "uint32"
        },
        {
          "internalType": "uint256",
          "name": "totalRegistrationValue",
          "type": "uint256"
        },
        {
          "internalType": "uint256",
          "name": "totalReferralPaid",
          "type": "uint256"
        },
        {
          "internalType": "uint256",
          "name": "totalGlobalRewardsPaid",
          "type": "uint256"
        },
        {
          "internalType": "uint256",
          "name": "totalWeeklyRewardsPaid",
          "type": "uint256"
        },
        {
          "internalType": "uint256",
          "name": "totalCoreMembershipRewardPaid",
          "type": "uint256"
        },
        {
          "internalType": "uint256",
          "name": "totalIbpRewardsPaid",
          "type": "uint256"
        }
      ],
      "stateMutability": "view",
      "type": "function"
    },
    {
      "inputs": [
        {
          "internalType": "address",
          "name": "_userAddress",
          "type": "address"
        }
      ],
      "name": "getUserAccount",
      "outputs": [
        {
          "components": [
            {
              "internalType": "uint32",
              "name": "userId",
              "type": "uint32"
            },
            {
              "internalType": "address",
              "name": "selfAddress",
              "type": "address"
            },
            {
              "internalType": "address",
              "name": "ibpAddress",
              "type": "address"
            },
            {
              "internalType": "address",
              "name": "referrerAddress",
              "type": "address"
            },
            {
              "internalType": "address[]",
              "name": "refereeAddresses",
              "type": "address[]"
            },
            {
              "internalType": "address[]",
              "name": "teamAddress",
              "type": "address[]"
            },
            {
              "internalType": "uint32[]",
              "name": "teamLevels",
              "type": "uint32[]"
            },
            {
              "internalType": "uint256",
              "name": "selfBusiness",
              "type": "uint256"
            },
            {
              "internalType": "uint256",
              "name": "directBusiness",
              "type": "uint256"
            },
            {
              "internalType": "uint256",
              "name": "teamBusiness",
              "type": "uint256"
            },
            {
              "internalType": "uint256",
              "name": "maxLimit",
              "type": "uint256"
            },
            {
              "internalType": "uint256",
              "name": "currentLimit",
              "type": "uint256"
            },
            {
              "internalType": "uint256",
              "name": "referralRewards",
              "type": "uint256"
            },
            {
              "internalType": "uint256",
              "name": "globalRewards",
              "type": "uint256"
            },
            {
              "internalType": "uint256",
              "name": "weeklyRewards",
              "type": "uint256"
            },
            {
              "internalType": "uint256",
              "name": "ibpRewards",
              "type": "uint256"
            },
            {
              "internalType": "bool",
              "name": "isGlobal",
              "type": "bool"
            },
            {
              "internalType": "uint32[]",
              "name": "globalIndexes",
              "type": "uint32[]"
            }
          ],
          "internalType": "struct AccountStruct",
          "name": "",
          "type": "tuple"
        }
      ],
      "stateMutability": "view",
      "type": "function"
    },
    {
      "inputs": [
        {
          "internalType": "address",
          "name": "_userAddress",
          "type": "address"
        }
      ],
      "name": "getUserBusiness",
      "outputs": [
        {
          "internalType": "uint256",
          "name": "selfBusiness",
          "type": "uint256"
        },
        {
          "internalType": "uint256",
          "name": "directBusiness",
          "type": "uint256"
        },
        {
          "internalType": "uint256",
          "name": "teamBusiness",
          "type": "uint256"
        },
        {
          "internalType": "uint256",
          "name": "totalBusiness",
          "type": "uint256"
        }
      ],
      "stateMutability": "view",
      "type": "function"
    },
    {
      "inputs": [
        {
          "internalType": "address",
          "name": "_userAddress",
          "type": "address"
        }
      ],
      "name": "getUserIbpAddress",
      "outputs": [
        {
          "internalType": "address",
          "name": "",
          "type": "address"
        }
      ],
      "stateMutability": "view",
      "type": "function"
    },
    {
      "inputs": [
        {
          "internalType": "address",
          "name": "_userAddress",
          "type": "address"
        }
      ],
      "name": "getUserLimit",
      "outputs": [
        {
          "internalType": "uint256",
          "name": "maxLimit",
          "type": "uint256"
        },
        {
          "internalType": "uint256",
          "name": "currentLimit",
          "type": "uint256"
        },
        {
          "internalType": "uint256",
          "name": "limitRemaingvalue",
          "type": "uint256"
        }
      ],
      "stateMutability": "view",
      "type": "function"
    },
    {
      "inputs": [
        {
          "internalType": "address",
          "name": "_userAddress",
          "type": "address"
        }
      ],
      "name": "getUserRewards",
      "outputs": [
        {
          "internalType": "uint256",
          "name": "referralReward",
          "type": "uint256"
        },
        {
          "internalType": "uint256",
          "name": "globalReward",
          "type": "uint256"
        },
        {
          "internalType": "uint256",
          "name": "weeklyReward",
          "type": "uint256"
        },
        {
          "internalType": "uint256",
          "name": "ibpReward",
          "type": "uint256"
        },
        {
          "internalType": "uint256",
          "name": "totalIncome",
          "type": "uint256"
        }
      ],
      "stateMutability": "view",
      "type": "function"
    },
    {
      "inputs": [
        {
          "internalType": "address",
          "name": "_userAddress",
          "type": "address"
        }
      ],
      "name": "getUserTeam",
      "outputs": [
        {
          "internalType": "address",
          "name": "referrer",
          "type": "address"
        },
        {
          "internalType": "address[]",
          "name": "referees",
          "type": "address[]"
        },
        {
          "internalType": "uint256",
          "name": "refereeCount",
          "type": "uint256"
        },
        {
          "internalType": "address[]",
          "name": "team",
          "type": "address[]"
        },
        {
          "internalType": "uint32[]",
          "name": "teamLevels",
          "type": "uint32[]"
        },
        {
          "internalType": "uint256",
          "name": "teamCount",
          "type": "uint256"
        }
      ],
      "stateMutability": "view",
      "type": "function"
    },
    {
      "inputs": [],
      "name": "getVariablesContract",
      "outputs": [
        {
          "internalType": "address",
          "name": "",
          "type": "address"
        }
      ],
      "stateMutability": "view",
      "type": "function"
    },
    {
      "inputs": [],
      "name": "getWeeklyRewardToBeDistributed",
      "outputs": [
        {
          "internalType": "uint256",
          "name": "_rewardValue",
          "type": "uint256"
        },
        {
          "internalType": "uint256",
          "name": "_remianingTime",
          "type": "uint256"
        },
        {
          "internalType": "uint256",
          "name": "_endTime",
          "type": "uint256"
        }
      ],
      "stateMutability": "view",
      "type": "function"
    },
    {
      "inputs": [],
      "name": "initialize",
      "outputs": [],
      "stateMutability": "nonpayable",
      "type": "function"
    },
    {
      "inputs": [
        {
          "internalType": "address",
          "name": "_userAddress",
          "type": "address"
        }
      ],
      "name": "isUserInGlobalList",
      "outputs": [
        {
          "internalType": "bool",
          "name": "isInList",
          "type": "bool"
        },
        {
          "internalType": "uint32[]",
          "name": "indexes",
          "type": "uint32[]"
        },
        {
          "internalType": "uint256",
          "name": "totalGlobalIds",
          "type": "uint256"
        }
      ],
      "stateMutability": "view",
      "type": "function"
    },
    {
      "inputs": [],
      "name": "owner",
      "outputs": [
        {
          "internalType": "address",
          "name": "",
          "type": "address"
        }
      ],
      "stateMutability": "view",
      "type": "function"
    },
    {
      "inputs": [],
      "name": "paused",
      "outputs": [
        {
          "internalType": "bool",
          "name": "",
          "type": "bool"
        }
      ],
      "stateMutability": "view",
      "type": "function"
    },
    {
      "inputs": [],
      "name": "proxiableUUID",
      "outputs": [
        {
          "internalType": "bytes32",
          "name": "",
          "type": "bytes32"
        }
      ],
      "stateMutability": "view",
      "type": "function"
    },
    {
      "inputs": [
        {
          "internalType": "address",
          "name": "_userAddress",
          "type": "address"
        }
      ],
      "name": "pushAddressToGlobal",
      "outputs": [],
      "stateMutability": "nonpayable",
      "type": "function"
    },
    {
      "inputs": [
        {
          "internalType": "address",
          "name": "_referrer",
          "type": "address"
        },
        {
          "internalType": "uint8",
          "name": "_planId",
          "type": "uint8"
        },
        {
          "internalType": "address",
          "name": "_tokenAddress",
          "type": "address"
        }
      ],
      "name": "registrationWithToken",
      "outputs": [],
      "stateMutability": "nonpayable",
      "type": "function"
    },
    {
      "inputs": [],
      "name": "renounceOwnership",
      "outputs": [],
      "stateMutability": "nonpayable",
      "type": "function"
    },
    {
      "inputs": [
        {
          "internalType": "address",
          "name": "newOwner",
          "type": "address"
        }
      ],
      "name": "transferOwnership",
      "outputs": [],
      "stateMutability": "nonpayable",
      "type": "function"
    },
    {
      "inputs": [
        {
          "internalType": "uint32",
          "name": "_idFrom",
          "type": "uint32"
        },
        {
          "internalType": "uint32",
          "name": "_idTo",
          "type": "uint32"
        },
        {
          "internalType": "address",
          "name": "_ibpAddress",
          "type": "address"
        },
        {
          "internalType": "address",
          "name": "_ibpAddressToIgnore",
          "type": "address"
        }
      ],
      "name": "updateAllAddressIBP",
      "outputs": [],
      "stateMutability": "nonpayable",
      "type": "function"
    },
    {
      "inputs": [
        {
          "internalType": "address",
          "name": "newImplementation",
          "type": "address"
        }
      ],
      "name": "upgradeTo",
      "outputs": [],
      "stateMutability": "nonpayable",
      "type": "function"
    },
    {
      "inputs": [
        {
          "internalType": "address",
          "name": "newImplementation",
          "type": "address"
        },
        {
          "internalType": "bytes",
          "name": "data",
          "type": "bytes"
        }
      ],
      "name": "upgradeToAndCall",
      "outputs": [],
      "stateMutability": "payable",
      "type": "function"
    },
    {
      "stateMutability": "payable",
      "type": "receive"
    }
  ],
  "bytecode": "0x60a06040523060805234801561001457600080fd5b506080516153cc61004c600039600081816108be0152818161090701528181610d4401528181610d840152610e1701526153cc6000f3fe6080604052600436106101445760003560e01c8063846688f7116100b6578063e9587e861161006f578063e9587e8614610413578063f13a143f14610433578063f2fde38b14610451578063f87127b414610471578063faeda7e5146104b1578063fb47e016146104e357600080fd5b8063846688f7146103145780638da5cb5b14610344578063967012eb14610376578063d277b8a9146103b3578063df108176146103d3578063e6f6769e146103f357600080fd5b80633ef575e9116101085780633ef575e9146102625780634f1ef2861461029157806352d1902d146102a45780635c975abb146102c7578063715018a6146102ea5780638129fc1c146102ff57600080fd5b80630690c6a814610150578063078b0fb7146101b857806313bc9a59146102005780633659cfe6146102225780633b23c45d1461024257600080fd5b3661014b57005b600080fd5b34801561015c57600080fd5b5060fd5460fe5461010154610102546101035461010454610105546040805163ffffffff90981688526020880196909652948601939093526060850191909152608084015260a083015260c082015260e0015b60405180910390f35b3480156101c457600080fd5b506101d86101d33660046147e0565b610510565b604080519586526020860194909452928401919091526060830152608082015260a0016101af565b34801561020c57600080fd5b5061022061021b3660046147e0565b6107e1565b005b34801561022e57600080fd5b5061022061023d3660046147e0565b6108b4565b34801561024e57600080fd5b5061022061025d366004614811565b61099c565b34801561026e57600080fd5b5061028261027d3660046147e0565b610a6f565b6040516101af939291906148aa565b61022061029f36600461496d565b610d3a565b3480156102b057600080fd5b506102b9610e0a565b6040519081526020016101af565b3480156102d357600080fd5b5060335460ff1660405190151581526020016101af565b3480156102f657600080fd5b50610220610ebd565b34801561030b57600080fd5b50610220610ed1565b34801561032057600080fd5b5061032961101c565b604080519384526020840192909252908201526060016101af565b34801561035057600080fd5b506065546001600160a01b03165b6040516001600160a01b0390911681526020016101af565b34801561038257600080fd5b5061035e6103913660046147e0565b6001600160a01b03908116600090815261010660205260409020600101541690565b3480156103bf57600080fd5b506102206103ce3660046147e0565b611053565b3480156103df57600080fd5b506102206103ee366004614a00565b611299565b3480156103ff57600080fd5b5061022061040e366004614a50565b611343565b34801561041f57600080fd5b5061032961042e3660046147e0565b611356565b34801561043f57600080fd5b5060fb546001600160a01b031661035e565b34801561045d57600080fd5b5061022061046c3660046147e0565b61161c565b34801561047d57600080fd5b5061049161048c3660046147e0565b611692565b6040805194855260208501939093529183015260608201526080016101af565b3480156104bd57600080fd5b506104d16104cc3660046147e0565b611963565b6040516101af96959493929190614ad4565b3480156104ef57600080fd5b506105036104fe3660046147e0565b611c3c565b6040516101af9190614b38565b6001600160a01b03808216600090815261010660209081526040808320815161024081018352815463ffffffff81168252600160201b9004861681850152600182015486168184015260028201549095166060860152600381018054835181860281018601909452808452949586958695869586958695909360808601938301828280156105c757602002820191906000526020600020905b81546001600160a01b031681526001909101906020018083116105a9575b505050505081526020016004820180548060200260200160405190810160405280929190818152602001828054801561062957602002820191906000526020600020905b81546001600160a01b0316815260019091019060200180831161060b575b50505050508152602001600582018054806020026020016040519081016040528092919081815260200182805480156106ad57602002820191906000526020600020906000905b82829054906101000a900463ffffffff1663ffffffff16815260200190600401906020826003010492830192600103820291508084116106705790505b5050505050815260200160068201548152602001600782015481526020016008820154815260200160098201548152602001600a8201548152602001600b8201548152602001600c8201548152602001600d8201548152602001600e8201548152602001600f820160009054906101000a900460ff16151515158152602001601082018054806020026020016040519081016040528092919081815260200182805480156107a657602002820191906000526020600020906000905b82829054906101000a900463ffffffff1663ffffffff16815260200190600401906020826003010492830192600103820291508084116107695790505b505050919092525050506101808101516101a08201516101c08301516101e084015161016090940151929b919a509850919650945092505050565b6107e9611f8b565b6001600160a01b038116600090815261010660205260409020600f8101805460ff1916600190811790915560fc546010909201916108279190614cb5565b8154600180820184556000938452602084206008830401805460079093166004026101000a63ffffffff81810219909416949093169290920292909217905560fc805491820181559091527f371f36870d18f32a11fea0f144b021c8b407bb50f8e0267c711123f454b963c00180546001600160a01b0319166001600160a01b0392909216919091179055565b6001600160a01b037f00000000000000000000000000000000000000000000000000000000000000001630036109055760405162461bcd60e51b81526004016108fc90614cc8565b60405180910390fd5b7f00000000000000000000000000000000000000000000000000000000000000006001600160a01b031661094e600080516020615330833981519152546001600160a01b031690565b6001600160a01b0316146109745760405162461bcd60e51b81526004016108fc90614d14565b61097d81611fe5565b6040805160008082526020820190925261099991839190611fed565b50565b6109a4611f8b565b835b8363ffffffff168163ffffffff1611610a685763ffffffff8116600090815261010760209081526040808320546001600160a01b039081168085526101069093529220600101549091848116911614610a55576001600160a01b03818116600090815261010660205260409081902060010180546001600160a01b031916928716929092179091555160008051602061537783398151915290610a4c9086908490614d60565b60405180910390a15b5080610a6081614d7a565b9150506109a6565b5050505050565b6001600160a01b03808216600090815261010660209081526040808320815161024081018352815463ffffffff81168252600160201b9004861681850152600182015486168184015260028201549095166060868101919091526003820180548451818702810187019095528085529596919587958695939493608086019390929091830182828015610b2b57602002820191906000526020600020905b81546001600160a01b03168152600190910190602001808311610b0d575b5050505050815260200160048201805480602002602001604051908101604052809291908181526020018280548015610b8d57602002820191906000526020600020905b81546001600160a01b03168152600190910190602001808311610b6f575b5050505050815260200160058201805480602002602001604051908101604052809291908181526020018280548015610c1157602002820191906000526020600020906000905b82829054906101000a900463ffffffff1663ffffffff1681526020019060040190602082600301049283019260010382029150808411610bd45790505b5050505050815260200160068201548152602001600782015481526020016008820154815260200160098201548152602001600a8201548152602001600b8201548152602001600c8201548152602001600d8201548152602001600e8201548152602001600f820160009054906101000a900460ff1615151515815260200160108201805480602002602001604051908101604052809291908181526020018280548015610d0a57602002820191906000526020600020906000905b82829054906101000a900463ffffffff1663ffffffff1681526020019060040190602082600301049283019260010382029150808411610ccd5790505b50505050508152505090506000816102200151511115610d2957600193505b610220015180519395909450915050565b6001600160a01b037f0000000000000000000000000000000000000000000000000000000000000000163003610d825760405162461bcd60e51b81526004016108fc90614cc8565b7f00000000000000000000000000000000000000000000000000000000000000006001600160a01b0316610dcb600080516020615330833981519152546001600160a01b031690565b6001600160a01b031614610df15760405162461bcd60e51b81526004016108fc90614d14565b610dfa82611fe5565b610e0682826001611fed565b5050565b6000306001600160a01b037f00000000000000000000000000000000000000000000000000000000000000001614610eaa5760405162461bcd60e51b815260206004820152603860248201527f555550535570677261646561626c653a206d757374206e6f742062652063616c60448201527f6c6564207468726f7567682064656c656761746563616c6c000000000000000060648201526084016108fc565b5060008051602061533083398151915290565b610ec5611f8b565b610ecf600061215d565b565b600054610100900460ff1615808015610ef15750600054600160ff909116105b80610f0b5750303b158015610f0b575060005460ff166001145b610f6e5760405162461bcd60e51b815260206004820152602e60248201527f496e697469616c697a61626c653a20636f6e747261637420697320616c72656160448201526d191e481a5b9a5d1a585b1a5e995960921b60648201526084016108fc565b6000805460ff191660011790558015610f91576000805461ff0019166101001790555b60fb80546001600160a01b03191673494549e00fe6598e3dc93254c5377c406dda85791790554261010055610fc46121af565b610fcc6121de565b610fd461220d565b8015610999576000805461ff0019169055604051600181527f7f26b83ff96e1f2b6a682f133852f6798a09c465da95921460cefb38474024989060200160405180910390a150565b60ff546101005460009081906110359062093a80614d9d565b9050428082111561104d5761104a8183614cb5565b92505b50909192565b60006101005462093a806110679190614d9d565b905042818110156110ba5760405162461bcd60e51b815260206004820152601c60248201527f5765656b6c792074696d65206973206e6f74206f766572207965742e0000000060448201526064016108fc565b60006110c4612234565b6001600160a01b038181166000908152610106602052604080822060fb5491516373a5799760e11b8152898516600482015294955093921691829063e74af32e90602401600060405180830381865afa158015611125573d6000803e3d6000fd5b505050506040513d6000823e601f3d908101601f1916820160405261114d9190810190614e47565b9050600061115d8460ff546122bb565b9050801561128f578084600d0160008282546111799190614d9d565b92505081905550876001600160a01b031663a9059cbb866012856060015160ff16106111a557836111b8565b6111b8846012876060015160ff1661233e565b6040516001600160e01b031960e085901b1681526001600160a01b03909216600483015260248201526044016020604051808303816000875af1158015611203573d6000803e3d6000fd5b505050506040513d601f19601f820116820180604052508101906112279190614f2d565b50600060ff81905542610100556101038054839290611247908490614d9d565b9091555050604080516001600160a01b0387168152602081018390527ffff6edc60fd30afefcc47525cdf85502200830b22550391f79f9e383df03afad910160405180910390a15b5050505050505050565b6112a1611f8b565b6001600160a01b0383811660009081526101066020526040902060010180546001600160a01b0319169184169190911790556112e581670de0b6b3a7640000614f48565b6001600160a01b0384166000908152610106602052604081206009018054909190611311908490614d9d565b9091555050604051600080516020615377833981519152906113369084908690614d60565b60405180910390a1505050565b3361135084828585612374565b50505050565b6001600160a01b03808216600090815261010660209081526040808320815161024081018352815463ffffffff81168252600160201b90048616818501526001820154861681840152600282015490951660608601526003810180548351818602810186019094528084529495869586958695929493608086019392909183018282801561140d57602002820191906000526020600020905b81546001600160a01b031681526001909101906020018083116113ef575b505050505081526020016004820180548060200260200160405190810160405280929190818152602001828054801561146f57602002820191906000526020600020905b81546001600160a01b03168152600190910190602001808311611451575b50505050508152602001600582018054806020026020016040519081016040528092919081815260200182805480156114f357602002820191906000526020600020906000905b82829054906101000a900463ffffffff1663ffffffff16815260200190600401906020826003010492830192600103820291508084116114b65790505b5050505050815260200160068201548152602001600782015481526020016008820154815260200160098201548152602001600a8201548152602001600b8201548152602001600c8201548152602001600d8201548152602001600e8201548152602001600f820160009054906101000a900460ff16151515158152602001601082018054806020026020016040519081016040528092919081815260200182805480156115ec57602002820191906000526020600020906000905b82829054906101000a900463ffffffff1663ffffffff16815260200190600401906020826003010492830192600103820291508084116115af5790505b50505091909252505050610140810151610160820151909550935090506116138385614cb5565b93959294505050565b611624611f8b565b6001600160a01b0381166116895760405162461bcd60e51b815260206004820152602660248201527f4f776e61626c653a206e6577206f776e657220697320746865207a65726f206160448201526564647265737360d01b60648201526084016108fc565b6109998161215d565b6001600160a01b03808216600090815261010660209081526040808320815161024081018352815463ffffffff81168252600160201b90048616818501526001820154861681840152600282015490951660608601526003810180548351818602810186019094528084529495869586958695869593946080860193919290919083018282801561174c57602002820191906000526020600020905b81546001600160a01b0316815260019091019060200180831161172e575b50505050508152602001600482018054806020026020016040519081016040528092919081815260200182805480156117ae57602002820191906000526020600020905b81546001600160a01b03168152600190910190602001808311611790575b505050505081526020016005820180548060200260200160405190810160405280929190818152602001828054801561183257602002820191906000526020600020906000905b82829054906101000a900463ffffffff1663ffffffff16815260200190600401906020826003010492830192600103820291508084116117f55790505b5050505050815260200160068201548152602001600782015481526020016008820154815260200160098201548152602001600a8201548152602001600b8201548152602001600c8201548152602001600d8201548152602001600e8201548152602001600f820160009054906101000a900460ff161515151581526020016010820180548060200260200160405190810160405280929190818152602001828054801561192b57602002820191906000526020600020906000905b82829054906101000a900463ffffffff1663ffffffff16815260200190600401906020826003010492830192600103820291508084116118ee5790505b5050509190925250505060e08101516101008201516101208301519197509550935090506119598584614d9d565b9150509193509193565b6001600160a01b03808216600090815261010660209081526040808320815161024081018352815463ffffffff81168252600160201b90048616818501526001820154861681840152600282015490951660608681019190915260038201805484518187028101870190955280855295969195879587958695889586959094919360808601939290830182828015611a2457602002820191906000526020600020905b81546001600160a01b03168152600190910190602001808311611a06575b5050505050815260200160048201805480602002602001604051908101604052809291908181526020018280548015611a8657602002820191906000526020600020905b81546001600160a01b03168152600190910190602001808311611a68575b5050505050815260200160058201805480602002602001604051908101604052809291908181526020018280548015611b0a57602002820191906000526020600020906000905b82829054906101000a900463ffffffff1663ffffffff1681526020019060040190602082600301049283019260010382029150808411611acd5790505b5050505050815260200160068201548152602001600782015481526020016008820154815260200160098201548152602001600a8201548152602001600b8201548152602001600c8201548152602001600d8201548152602001600e8201548152602001600f820160009054906101000a900460ff1615151515815260200160108201805480602002602001604051908101604052809291908181526020018280548015611c0357602002820191906000526020600020906000905b82829054906101000a900463ffffffff1663ffffffff1681526020019060040190602082600301049283019260010382029150808411611bc65790505b5050509190925250505060608101516080820151805160a084015160c0909401518451939d929c50909a50929850919650945092505050565b611ced604051806102400160405280600063ffffffff16815260200160006001600160a01b0316815260200160006001600160a01b0316815260200160006001600160a01b03168152602001606081526020016060815260200160608152602001600081526020016000815260200160008152602001600081526020016000815260200160008152602001600081526020016000815260200160008152602001600015158152602001606081525090565b6001600160a01b0380831660009081526101066020908152604091829020825161024081018452815463ffffffff81168252600160201b900485168184015260018201548516818501526002820154909416606085015260038101805484518185028101850190955280855291936080860193909290830182828015611d9c57602002820191906000526020600020905b81546001600160a01b03168152600190910190602001808311611d7e575b5050505050815260200160048201805480602002602001604051908101604052809291908181526020018280548015611dfe57602002820191906000526020600020905b81546001600160a01b03168152600190910190602001808311611de0575b5050505050815260200160058201805480602002602001604051908101604052809291908181526020018280548015611e8257602002820191906000526020600020906000905b82829054906101000a900463ffffffff1663ffffffff1681526020019060040190602082600301049283019260010382029150808411611e455790505b5050505050815260200160068201548152602001600782015481526020016008820154815260200160098201548152602001600a8201548152602001600b8201548152602001600c8201548152602001600d8201548152602001600e8201548152602001600f820160009054906101000a900460ff1615151515815260200160108201805480602002602001604051908101604052809291908181526020018280548015611f7b57602002820191906000526020600020906000905b82829054906101000a900463ffffffff1663ffffffff1681526020019060040190602082600301049283019260010382029150808411611f3e5790505b5050505050815250509050919050565b6065546001600160a01b03163314610ecf5760405162461bcd60e51b815260206004820181905260248201527f4f776e61626c653a2063616c6c6572206973206e6f7420746865206f776e657260448201526064016108fc565b610999611f8b565b7f4910fdfa16fed3260ed0e7147f7cc6da11a60208b5b9406d12a635614ffd91435460ff16156120255761202083613954565b505050565b826001600160a01b03166352d1902d6040518163ffffffff1660e01b8152600401602060405180830381865afa92505050801561207f575060408051601f3d908101601f1916820190925261207c91810190614f5f565b60015b6120e25760405162461bcd60e51b815260206004820152602e60248201527f45524331393637557067726164653a206e657720696d706c656d656e7461746960448201526d6f6e206973206e6f74205555505360901b60648201526084016108fc565b60008051602061533083398151915281146121515760405162461bcd60e51b815260206004820152602960248201527f45524331393637557067726164653a20756e737570706f727465642070726f786044820152681a58589b195555525160ba1b60648201526084016108fc565b506120208383836139f0565b606580546001600160a01b038381166001600160a01b0319831681179093556040519116919082907f8be0079c531659141344cd1fd0a4f28419497f9722a3daafe3b4186f6b6457e090600090a35050565b600054610100900460ff166121d65760405162461bcd60e51b81526004016108fc90614f78565b610ecf613a15565b600054610100900460ff166122055760405162461bcd60e51b81526004016108fc90614f78565b610ecf613a48565b600054610100900460ff16610ecf5760405162461bcd60e51b81526004016108fc90614f78565b6000804244612244600143614cb5565b60408051602081019490945283019190915240606082015260800160408051601f19818403018152919052805160209091012060fc5490915060009061228a9083614fd9565b905060fc818154811061229f5761229f614fed565b6000918252602090912001546001600160a01b03169392505050565b600082600901548284600a01546122d29190614d9d565b10806122f0575082600901548284600a01546122ee9190614d9d565b145b15612317578190508083600a01600082825461230c9190614d9d565b909155506123389050565b82600a0154836009015461232b9190614cb5565b6009840154600a85015590505b92915050565b600061234b83600a6150e7565b61235683600a6150e7565b6123609086614f48565b61236a91906150f3565b90505b9392505050565b60fb54604051630efc12b160e01b815260ff841660048201526001600160a01b03909116906000908290630efc12b190602401600060405180830381865afa1580156123c4573d6000803e3d6000fd5b505050506040513d6000823e601f3d908101601f191682016040526123ec9190810190615107565b905060008160400151116124555760405162461bcd60e51b815260206004820152602a60248201527f56616c7565206973207a65726f2e20506c656173652073656c65637420636f726044820152693932b1ba10383630b71760b11b60648201526084016108fc565b6040516373a5799760e11b81526001600160a01b0384811660048301526000919084169063e74af32e90602401600060405180830381865afa15801561249f573d6000803e3d6000fd5b505050506040513d6000823e601f3d908101601f191682016040526124c79190810190614e47565b90508060c001516125135760405162461bcd60e51b8152602060048201526016602482015275151bdad95b881a5cc81b9bdd081cdd5c1c1bdc9d195960521b60448201526064016108fc565b60008490506000846001600160a01b031663918a54db6040518163ffffffff1660e01b8152600401600060405180830381865afa158015612558573d6000803e3d6000fd5b505050506040513d6000823e601f3d908101601f1916820160405261258091908101906151b4565b9050816001600160a01b03166323b872dd89306012876060015160ff16106125ac5787604001516125c3565b6125c388604001516012896060015160ff1661233e565b6040516001600160e01b031960e086901b1681526001600160a01b03938416600482015292909116602483015260448201526064016020604051808303816000875af1158015612617573d6000803e3d6000fd5b505050506040513d601f19601f8201168201806040525081019061263b9190614f2d565b506001600160a01b0380891660009081526101066020908152604080832081516365eb204d60e01b8152915190948a16926365eb204d92600480820193918290030181865afa158015612692573d6000803e3d6000fd5b505050506040513d601f19601f820116820180604052508101906126b6919061526e565b6040516370a0823160e01b81523060048201526001600160a01b0391909116906370a0823190602401602060405180830381865afa1580156126fc573d6000803e3d6000fd5b505050506040513d601f19601f820116820180604052508101906127209190614f5f565b905085604001518111801561273757506006820154155b156129605760006002876040015161274f91906150f3565b9050876001600160a01b0316638e68dce46040518163ffffffff1660e01b8152600401602060405180830381865afa15801561278f573d6000803e3d6000fd5b505050506040513d601f19601f820116820180604052508101906127b3919061526e565b6040516356e4bb9760e11b81526001600160a01b038d8116600483015260248201849052919091169063adc9772e90604401600060405180830381600087803b1580156127ff57600080fd5b505af1158015612813573d6000803e3d6000fd5b50505050876001600160a01b03166365eb204d6040518163ffffffff1660e01b8152600401602060405180830381865afa158015612855573d6000803e3d6000fd5b505050506040513d601f19601f82011682018060405250810190612879919061526e565b6001600160a01b031663a9059cbb896001600160a01b0316638e68dce46040518163ffffffff1660e01b8152600401602060405180830381865afa1580156128c5573d6000803e3d6000fd5b505050506040513d601f19601f820116820180604052508101906128e9919061526e565b6040808b015190516001600160e01b031960e085901b1681526001600160a01b03909216600483015260248201526044016020604051808303816000875af1158015612939573d6000803e3d6000fd5b505050506040513d601f19601f8201168201806040525081019061295d9190614f2d565b50505b815463ffffffff166000036129e05760fd805463ffffffff1690600061298583614d7a565b82546101009290920a63ffffffff81810219909316918316021790915560fd548454911663ffffffff199091168117845560009081526101076020526040902080546001600160a01b0319166001600160a01b038d16179055505b8154640100000000600160c01b031916600160201b6001600160a01b038c16021782556040860151600683018054600090612a1c908490614d9d565b909155505060608601516040870151612a359190614f48565b826009016000828254612a489190614d9d565b90915550506040805161024081018252835463ffffffff811682526001600160a01b03600160201b9091048116602080840191909152600186015482168385015260028601549091166060830152600385018054845181840281018401909552808552612cdf9487936080860193919290830182828015612af257602002820191906000526020600020905b81546001600160a01b03168152600190910190602001808311612ad4575b5050505050815260200160048201805480602002602001604051908101604052809291908181526020018280548015612b5457602002820191906000526020600020905b81546001600160a01b03168152600190910190602001808311612b36575b5050505050815260200160058201805480602002602001604051908101604052809291908181526020018280548015612bd857602002820191906000526020600020906000905b82829054906101000a900463ffffffff1663ffffffff1681526020019060040190602082600301049283019260010382029150808411612b9b5790505b5050505050815260200160068201548152602001600782015481526020016008820154815260200160098201548152602001600a8201548152602001600b8201548152602001600c8201548152602001600d8201548152602001600e8201548152602001600f820160009054906101000a900460ff1615151515815260200160108201805480602002602001604051908101604052809291908181526020018280548015612cd157602002820191906000526020600020906000905b82829054906101000a900463ffffffff1663ffffffff1681526020019060040190602082600301049283019260010382029150808411612c945790505b505050505081525050613a78565b612cf057612cf08b8b85518a613a97565b8154600283015460408051600160201b84046001600160a01b03908116825263ffffffff909416602082015260ff8d1681830152929091166060830152517fccdfed8601106cae21493f7848436196048b60f2dc70db89d92e3acdabb0ee299181900360800190a16000612d62612234565b90506001600160a01b03811615612f1d576001600160a01b0381166000908152610106602052604080822090890151909190612db7908390606490612da890600a614f48565b612db291906150f3565b6122bb565b90508015612f1a57866001600160a01b031663a9059cbb8460128b6060015160ff1610612de45783612df7565b612df78460128d6060015160ff1661233e565b6040516001600160e01b031960e085901b1681526001600160a01b03909216600483015260248201526044016020604051808303816000875af1158015612e42573d6000803e3d6000fd5b505050506040513d601f19601f82011682018060405250810190612e669190614f2d565b508082600c016000828254612e7b9190614d9d565b925050819055507f693fc02576006378cd4577590d99ad6b18ad4c566c433b85643d7b07a4815665838e8b6040015184600a6064604051612ef9969594939291906001600160a01b0396871681529490951660208501526040840192909252606083015261ffff90811660808301529190911660a082015260c00190565b60405180910390a1806101026000828254612f149190614d9d565b90915550505b50505b60018301546001600160a01b0316156131535760018301546001600160a01b03166000908152610106602052604080822090890151909190612f69908390606490612da8906005614f48565b90508015613150578082600e016000828254612f859190614d9d565b9091555050600185015460608901516001600160a01b03808a169263a9059cbb92911690601260ff90911610612fbb5783612fce565b612fce8460128d6060015160ff1661233e565b6040516001600160e01b031960e085901b1681526001600160a01b03909216600483015260248201526044016020604051808303816000875af1158015613019573d6000803e3d6000fd5b505050506040513d601f19601f8201168201806040525081019061303d9190614f2d565b507f3c8fdb10971c51ff48e3a4db4d7f14e64690a286be5bb9f410d9fd0fb74dbf488560010160009054906101000a90046001600160a01b03168660000160049054906101000a90046001600160a01b03168b60400151848e6001600160a01b031663e70167176040518163ffffffff1660e01b8152600401602060405180830381865afa1580156130d3573d6000803e3d6000fd5b505050506040513d601f19601f820116820180604052508101906130f7919061528b565b604080516001600160a01b03968716815295909416602086015292840191909152606083015260ff166080820152606460a082015260c00160405180910390a180610105600082825461314a9190614d9d565b90915550505b50505b6000805b85518160ff1610156136c3576040805161024081018252865463ffffffff811682526001600160a01b03600160201b90910481166020808401919091526001890154821683850152600289015490911660608301526003880180548451818402810184019095528085526133a3948a936080860193919290830182828015612af2576020028201919060005260206000209081546001600160a01b03168152600190910190602001808311612ad4575050505050815260200160048201805480602002602001604051908101604052809291908181526020018280548015612b54576020028201919060005260206000209081546001600160a01b03168152600190910190602001808311612b36575050505050815260200160058201805480602002602001604051908101604052809291908181526020018280548015612bd8576000918252602091829020805463ffffffff168452908202830192909160049101808411612b9b5790505050505050815260200160068201548152602001600782015481526020016008820154815260200160098201548152602001600a8201548152602001600b8201548152602001600c8201548152602001600d8201548152602001600e8201548152602001600f820160009054906101000a900460ff1615151515815260200160108201805480602002602001604051908101604052809291908181526020018280548015612cd1576000918252602091829020805463ffffffff168452908202830192909160049101808411612c94579050505050505081525050613a78565b156136c35760028501546001600160a01b03166000908152610106602052604081209060ff831690036134b25789604001518160070160008282546133e89190614d9d565b9091555050600f81015460ff161561349d57600286015460fc80546001818101835560008390527f371f36870d18f32a11fea0f144b021c8b407bb50f8e0267c711123f454b963c090910180546001600160a01b0319166001600160a01b039094169390931790925554601083019161346091614cb5565b8154600181018355600092835260209092206008830401805460079093166004026101000a63ffffffff8181021990941692909316929092021790555b600f8101805460ff19811660ff909116151790555b89604001518160080160008282546134ca9190614d9d565b92505081905550600061350a826127108a8660ff16815181106134ef576134ef614fed565b602002602001015161ffff168e60400151612da89190614f48565b905080156136ae578082600b0160008282546135269190614d9d565b9091555050600287015460608b01516001600160a01b03808c169263a9059cbb92911690601260ff9091161061355c578361356f565b61356f8460128f6060015160ff1661233e565b6040516001600160e01b031960e085901b1681526001600160a01b03909216600483015260248201526044016020604051808303816000875af11580156135ba573d6000803e3d6000fd5b505050506040513d601f19601f820116820180604052508101906135de9190614f2d565b506135e98185614d9d565b6002880154885460408e01518b519397507f3fae587c6f1778678d1e63bd99d63afe07677c2a2eb43a4b228b80e8a38c1b06936001600160a01b0393841693600160201b9093049092169185908d9060ff8a1690811061364b5761364b614fed565b602002602001015161271089600161366391906152a8565b604080516001600160a01b03988916815297909616602088015294860193909352606085019190915261ffff16608084015260a083015260ff1660c082015260e00160405180910390a15b509450806136bb816152c1565b915050613157565b508061010160008282546136d79190614d9d565b9091555050604088015160fe80546000906136f3908490614d9d565b9091555050604088015160649061370b90600a614f48565b61371591906150f3565b60ff60008282546137269190614d9d565b90915550506040880151600090606490613741906005614f48565b61374b91906150f3565b9050866001600160a01b031663a9059cbb8b6001600160a01b031663916452ab6040518163ffffffff1660e01b8152600401602060405180830381865afa15801561379a573d6000803e3d6000fd5b505050506040513d601f19601f820116820180604052508101906137be919061526e565b60128b6060015160ff16106137d357836137e6565b6137e68460128d6060015160ff1661233e565b6040516001600160e01b031960e085901b1681526001600160a01b03909216600483015260248201526044016020604051808303816000875af1158015613831573d6000803e3d6000fd5b505050506040513d601f19601f820116820180604052508101906138559190614f2d565b508061010460008282546138699190614d9d565b925050819055507fa290591faac5edd9224fc9f6b8304a91a0fddafde40a1b07f54c093daa8044388a6001600160a01b031663916452ab6040518163ffffffff1660e01b8152600401602060405180830381865afa1580156138cf573d6000803e3d6000fd5b505050506040513d601f19601f820116820180604052508101906138f3919061526e565b60128a6060015160ff161061390f57896060015160ff16613922565b6139228360128c6060015160ff1661233e565b604080516001600160a01b03909316835260208301919091520160405180910390a15050505050505050505050505050565b6001600160a01b0381163b6139c15760405162461bcd60e51b815260206004820152602d60248201527f455243313936373a206e657720696d706c656d656e746174696f6e206973206e60448201526c1bdd08184818dbdb9d1c9858dd609a1b60648201526084016108fc565b60008051602061533083398151915280546001600160a01b0319166001600160a01b0392909216919091179055565b6139f983614659565b600082511180613a065750805b15612020576113508383614699565b600054610100900460ff16613a3c5760405162461bcd60e51b81526004016108fc90614f78565b6033805460ff19169055565b600054610100900460ff16613a6f5760405162461bcd60e51b81526004016108fc90614f78565b610ecf3361215d565b60608101516000906001600160a01b031615613a92575060015b919050565b6001600160a01b03808416600090815261010660209081526040808320815161024081018352815463ffffffff81168252600160201b900486168185015260018201548616818401526002820154909516606086015260038101805483518186028101860190945280845291959386936080860193909291830182828015613b4857602002820191906000526020600020905b81546001600160a01b03168152600190910190602001808311613b2a575b5050505050815260200160048201805480602002602001604051908101604052809291908181526020018280548015613baa57602002820191906000526020600020905b81546001600160a01b03168152600190910190602001808311613b8c575b5050505050815260200160058201805480602002602001604051908101604052809291908181526020018280548015613c2e57602002820191906000526020600020906000905b82829054906101000a900463ffffffff1663ffffffff1681526020019060040190602082600301049283019260010382029150808411613bf15790505b5050505050815260200160068201548152602001600782015481526020016008820154815260200160098201548152602001600a8201548152602001600b8201548152602001600c8201548152602001600d8201548152602001600e8201548152602001600f820160009054906101000a900460ff1615151515815260200160108201805480602002602001604051908101604052809291908181526020018280548015613d2757602002820191906000526020600020906000905b82829054906101000a900463ffffffff1663ffffffff1681526020019060040190602082600301049283019260010382029150808411613cea5790505b5050505050815250509050846001600160a01b031681606001516001600160a01b031603613dac5760405162461bcd60e51b815260206004820152602c60248201527f52656665727265722055706c696e652043616e6e6f742062652072656665727260448201526b32b9103237bbb73634b7329760a11b60648201526084016108fc565b856001600160a01b0316856001600160a01b031603613e1d5760405162461bcd60e51b815260206004820152602760248201527f52656665727265722026205573657220616464726573732063616e6e6f742062604482015266329039b0b6b29760c91b60648201526084016108fc565b6040805161024081018252835463ffffffff811682526001600160a01b03600160201b909104811660208084019190915260018601548216838501526002860154909116606083015260038501805484518184028101840190955280855261405d9487936080860193919290830182828015612af2576020028201919060005260206000209081546001600160a01b03168152600190910190602001808311612ad4575050505050815260200160048201805480602002602001604051908101604052809291908181526020018280548015612b54576020028201919060005260206000209081546001600160a01b03168152600190910190602001808311612b36575050505050815260200160058201805480602002602001604051908101604052809291908181526020018280548015612bd8576000918252602091829020805463ffffffff168452908202830192909160049101808411612b9b5790505050505050815260200160068201548152602001600782015481526020016008820154815260200160098201548152602001600a8201548152602001600b8201548152602001600c8201548152602001600d8201548152602001600e8201548152602001600f820160009054906101000a900460ff1615151515815260200160108201805480602002602001604051908101604052809291908181526020018280548015612cd1576000918252602091829020805463ffffffff168452908202830192909160049101808411612c94579050505050505081525050613a78565b614651576001600160a01b03861661425a57604080516001600160a01b038881168252871660208201526060818301819052603a908201527f5a65726f20616464726573732063616e6e6f742062652072656665727265722e60808201527f2053657474696e672064656661756c742072656665727265722e00000000000060a082015290517f32df26c7e54a821624fc8d22e1171e5793b90d1fccc483d3ff277b9c42bb22399181900360c00190a16101085460ff166141dc576000836001600160a01b031663b2e6b9126040518163ffffffff1660e01b8152600401602060405180830381865afa158015614158573d6000803e3d6000fd5b505050506040513d601f19601f8201168201806040525081019061417c919061526e565b6002840180546001600160a01b0319166001600160a01b0383161790556040519091507fec49a3c8c4ae06c18160fe86119c381c9d213ac3e052ff35b594da8687b193c7906141ce9083908990614d60565b60405180910390a150614242565b60006141e6612234565b6002840180546001600160a01b0319166001600160a01b0383161790556040519091507fec49a3c8c4ae06c18160fe86119c381c9d213ac3e052ff35b594da8687b193c7906142389083908990614d60565b60405180910390a1505b610108805460ff19811660ff909116151790556142b2565b6002820180546001600160a01b0319166001600160a01b0388161790556040517fec49a3c8c4ae06c18160fe86119c381c9d213ac3e052ff35b594da8687b193c7906142a99088908890614d60565b60405180910390a15b60005b8460ff168160ff16101561464f5760028301546001600160a01b03161561464f5760028301546001600160a01b03166000908152610106602052604081209060ff831690036145bf5760038101805460018082018355600092835260209092200180546001600160a01b0319166001600160a01b038a8116919091179091559085015416156143c0576001840154604080516001600160a01b03928316815291891660208301526060828201819052601d908301527f5265666572656520616c7265616479206861766520696270207365742e0000006080830152517fffca51efd3fa9dd00c7ad8de67cce6deeb82e78db2d05fe4b84079eca71665109181900360a00190a16145bf565b60018101546001600160a01b0316614571576001810154604080516001600160a01b039283168152918916602083015260608282018190526032908301527f5a65726f20616464726573732063616e6e6f74206265206962702e20536574746080830152710696e672075702064656661756c74206962760741b60a0830152517fffca51efd3fa9dd00c7ad8de67cce6deeb82e78db2d05fe4b84079eca71665109181900360c00190a16000856001600160a01b031663b2e6b9126040518163ffffffff1660e01b8152600401602060405180830381865afa1580156144aa573d6000803e3d6000fd5b505050506040513d601f19601f820116820180604052508101906144ce919061526e565b600180870180546001600160a01b038085166001600160a01b031992831681179093559286018054909116909117905583546040519293506000805160206153778339815191529261452a928592600160201b90041690614d60565b60405180910390a1845460405160008051602061537783398151915291614563918491600160201b90046001600160a01b031690614d60565b60405180910390a1506145bf565b6001808201805491860180546001600160a01b0319166001600160a01b0393841617905554604051600080516020615377833981519152926145b69216908a90614d60565b60405180910390a15b60048101805460018082018355600092835260209092200180546001600160a01b0319166001600160a01b038a1617905560058201906146009084906152a8565b8154600181018355600092835260209092206008830401805463ffffffff60079094166004026101000a938402191660ff92909216909202179055925080614647816152c1565b9150506142b5565b505b505050505050565b61466281613954565b6040516001600160a01b038216907fbc7cd75a20ee27fd9adebab32041f755214dbc6bffa90cc0225b39da2e5c2d3b90600090a250565b60606001600160a01b0383163b6147015760405162461bcd60e51b815260206004820152602660248201527f416464726573733a2064656c65676174652063616c6c20746f206e6f6e2d636f6044820152651b9d1c9858dd60d21b60648201526084016108fc565b600080846001600160a01b03168460405161471c91906152e0565b600060405180830381855af49150503d8060008114614757576040519150601f19603f3d011682016040523d82523d6000602084013e61475c565b606091505b509150915061478482826040518060600160405280602781526020016153506027913961478d565b95945050505050565b6060831561479c57508161236d565b61236d83838151156147b15781518083602001fd5b8060405162461bcd60e51b81526004016108fc91906152fc565b6001600160a01b038116811461099957600080fd5b6000602082840312156147f257600080fd5b813561236d816147cb565b803563ffffffff81168114613a9257600080fd5b6000806000806080858703121561482757600080fd5b614830856147fd565b935061483e602086016147fd565b9250604085013561484e816147cb565b9150606085013561485e816147cb565b939692955090935050565b600081518084526020808501945080840160005b8381101561489f57815163ffffffff168752958201959082019060010161487d565b509495945050505050565b83151581526060602082015260006148c56060830185614869565b9050826040830152949350505050565b634e487b7160e01b600052604160045260246000fd5b60405160e0810167ffffffffffffffff8111828210171561490e5761490e6148d5565b60405290565b604051601f8201601f1916810167ffffffffffffffff8111828210171561493d5761493d6148d5565b604052919050565b600067ffffffffffffffff82111561495f5761495f6148d5565b50601f01601f191660200190565b6000806040838503121561498057600080fd5b823561498b816147cb565b9150602083013567ffffffffffffffff8111156149a757600080fd5b8301601f810185136149b857600080fd5b80356149cb6149c682614945565b614914565b8181528660208385010111156149e057600080fd5b816020840160208301376000602083830101528093505050509250929050565b600080600060608486031215614a1557600080fd5b8335614a20816147cb565b92506020840135614a30816147cb565b929592945050506040919091013590565b60ff8116811461099957600080fd5b600080600060608486031215614a6557600080fd5b8335614a70816147cb565b92506020840135614a8081614a41565b91506040840135614a90816147cb565b809150509250925092565b600081518084526020808501945080840160005b8381101561489f5781516001600160a01b031687529582019590820190600101614aaf565b6001600160a01b038716815260c060208201819052600090614af890830188614a9b565b8660408401528281036060840152614b108187614a9b565b90508281036080840152614b248186614869565b9150508260a0830152979650505050505050565b60208152614b4f60208201835163ffffffff169052565b60006020830151614b6b60408401826001600160a01b03169052565b5060408301516001600160a01b03811660608401525060608301516001600160a01b03811660808401525060808301516102408060a0850152614bb2610260850183614a9b565b915060a0850151601f19808685030160c0870152614bd08483614a9b565b935060c08701519150808685030160e0870152614bed8483614869565b60e088015161010088810191909152880151610120808901919091528801516101408089019190915288015161016080890191909152880151610180808901919091528801516101a0808901919091528801516101c0808901919091528801516101e080890191909152880151610200808901919091528801519094509150610220614c7c8188018415159052565b870151868503909101838701529050614c958382614869565b9695505050505050565b634e487b7160e01b600052601160045260246000fd5b8181038181111561233857612338614c9f565b6020808252602c908201527f46756e6374696f6e206d7573742062652063616c6c6564207468726f7567682060408201526b19195b1959d85d1958d85b1b60a21b606082015260800190565b6020808252602c908201527f46756e6374696f6e206d7573742062652063616c6c6564207468726f7567682060408201526b6163746976652070726f787960a01b606082015260800190565b6001600160a01b0392831681529116602082015260400190565b600063ffffffff808316818103614d9357614d93614c9f565b6001019392505050565b8082018082111561233857612338614c9f565b8051613a92816147cb565b60005b83811015614dd6578181015183820152602001614dbe565b50506000910152565b600082601f830112614df057600080fd5b8151614dfe6149c682614945565b818152846020838601011115614e1357600080fd5b614e24826020830160208701614dbb565b949350505050565b8051613a9281614a41565b80518015158114613a9257600080fd5b600060208284031215614e5957600080fd5b815167ffffffffffffffff80821115614e7157600080fd5b9083019060e08286031215614e8557600080fd5b614e8d6148eb565b614e9683614db0565b8152602083015182811115614eaa57600080fd5b614eb687828601614ddf565b602083015250604083015182811115614ece57600080fd5b614eda87828601614ddf565b604083015250614eec60608401614e2c565b6060820152614efd60808401614e37565b6080820152614f0e60a08401614db0565b60a0820152614f1f60c08401614e37565b60c082015295945050505050565b600060208284031215614f3f57600080fd5b61236d82614e37565b808202811582820484141761233857612338614c9f565b600060208284031215614f7157600080fd5b5051919050565b6020808252602b908201527f496e697469616c697a61626c653a20636f6e7472616374206973206e6f74206960408201526a6e697469616c697a696e6760a81b606082015260800190565b634e487b7160e01b600052601260045260246000fd5b600082614fe857614fe8614fc3565b500690565b634e487b7160e01b600052603260045260246000fd5b600181815b8085111561503e57816000190482111561502457615024614c9f565b8085161561503157918102915b93841c9390800290615008565b509250929050565b60008261505557506001612338565b8161506257506000612338565b816001811461507857600281146150825761509e565b6001915050612338565b60ff84111561509357615093614c9f565b50506001821b612338565b5060208310610133831016604e8410600b84101617156150c1575081810a612338565b6150cb8383615003565b80600019048211156150df576150df614c9f565b029392505050565b600061236d8383615046565b60008261510257615102614fc3565b500490565b60006020828403121561511957600080fd5b815167ffffffffffffffff8082111561513157600080fd5b908301906080828603121561514557600080fd5b604051608081018181108382111715615160576151606148d5565b604052825161516e81614a41565b815260208301518281111561518257600080fd5b61518e87828601614ddf565b602083015250604083015160408201526060830151606082015280935050505092915050565b600060208083850312156151c757600080fd5b825167ffffffffffffffff808211156151df57600080fd5b818501915085601f8301126151f357600080fd5b815181811115615205576152056148d5565b8060051b9150615216848301614914565b818152918301840191848101908884111561523057600080fd5b938501935b83851015615262578451925061ffff831683146152525760008081fd5b8282529385019390850190615235565b98975050505050505050565b60006020828403121561528057600080fd5b815161236d816147cb565b60006020828403121561529d57600080fd5b815161236d81614a41565b60ff818116838216019081111561233857612338614c9f565b600060ff821660ff81036152d7576152d7614c9f565b60010192915050565b600082516152f2818460208701614dbb565b9190910192915050565b602081526000825180602084015261531b816040850160208701614dbb565b601f01601f1916919091016040019291505056fe360894a13ba1a3210667c828492db98dca3e2076cc3735a920a3ca505d382bbc416464726573733a206c6f772d6c6576656c2064656c65676174652063616c6c206661696c656400f37bd73ff29ab549d774afc91445bf33292ed9a4b4b4177fb1e61ff3c58469a264697066735822122053fca6e0a423c75c548886e6e340dabbcda3b86982b4f22d37ea3a36d6f3ab2a64736f6c63430008120033",
  "linkReferences": {},
  "deployedLinkReferences": {}
}