{
  "_format": "hh-sol-artifact-1",
  "contractName": "ReferralV1Upgradeable",
  "sourceName": "contracts/ReferralV1Upgradeable.sol",
  "abi": [
    {
      "anonymous": false,
      "inputs": [
        {
          "indexed": false,
          "internalType": "address",
          "name": "previousAdmin",
          "type": "address"
        },
        {
          "indexed": false,
          "internalType": "address",
          "name": "newAdmin",
          "type": "address"
        }
      ],
      "name": "AdminChanged",
      "type": "event"
    },
    {
      "anonymous": false,
      "inputs": [
        {
          "indexed": true,
          "internalType": "address",
          "name": "beacon",
          "type": "address"
        }
      ],
      "name": "BeaconUpgraded",
      "type": "event"
    },
    {
      "anonymous": false,
      "inputs": [
        {
          "indexed": false,
          "internalType": "address",
          "name": "globalAddress",
          "type": "address"
        },
        {
          "indexed": false,
          "internalType": "address",
          "name": "userAddress",
          "type": "address"
        },
        {
          "indexed": false,
          "internalType": "uint256",
          "name": "registrationValue",
          "type": "uint256"
        },
        {
          "indexed": false,
          "internalType": "uint256",
          "name": "rewardValue",
          "type": "uint256"
        },
        {
          "indexed": false,
          "internalType": "uint16",
          "name": "rewardRate",
          "type": "uint16"
        },
        {
          "indexed": false,
          "internalType": "uint16",
          "name": "rewardRateDecimals",
          "type": "uint16"
        },
        {
          "indexed": false,
          "internalType": "string",
          "name": "reason",
          "type": "string"
        }
      ],
      "name": "GlobalRewardsNotPaid",
      "type": "event"
    },
    {
      "anonymous": false,
      "inputs": [
        {
          "indexed": false,
          "internalType": "address",
          "name": "globalAddress",
          "type": "address"
        },
        {
          "indexed": false,
          "internalType": "address",
          "name": "userAddress",
          "type": "address"
        },
        {
          "indexed": false,
          "internalType": "uint256",
          "name": "registrationValue",
          "type": "uint256"
        },
        {
          "indexed": false,
          "internalType": "uint256",
          "name": "rewardValue",
          "type": "uint256"
        },
        {
          "indexed": false,
          "internalType": "uint16",
          "name": "rewardRate",
          "type": "uint16"
        },
        {
          "indexed": false,
          "internalType": "uint16",
          "name": "rewardRateDecimals",
          "type": "uint16"
        }
      ],
      "name": "GlobalRewardsPaid",
      "type": "event"
    },
    {
      "anonymous": false,
      "inputs": [
        {
          "indexed": false,
          "internalType": "address",
          "name": "ibpAddress",
          "type": "address"
        },
        {
          "indexed": false,
          "internalType": "address",
          "name": "userAddress",
          "type": "address"
        }
      ],
      "name": "IBPAdded",
      "type": "event"
    },
    {
      "anonymous": false,
      "inputs": [
        {
          "indexed": false,
          "internalType": "address",
          "name": "ibpAddress",
          "type": "address"
        },
        {
          "indexed": false,
          "internalType": "address",
          "name": "userAddress",
          "type": "address"
        },
        {
          "indexed": false,
          "internalType": "string",
          "name": "reason",
          "type": "string"
        }
      ],
      "name": "IBPNotAdded",
      "type": "event"
    },
    {
      "anonymous": false,
      "inputs": [
        {
          "indexed": false,
          "internalType": "address",
          "name": "ibpAddress",
          "type": "address"
        },
        {
          "indexed": false,
          "internalType": "address",
          "name": "userAddress",
          "type": "address"
        },
        {
          "indexed": false,
          "internalType": "uint256",
          "name": "businessValue",
          "type": "uint256"
        },
        {
          "indexed": false,
          "internalType": "uint256",
          "name": "rewardValue",
          "type": "uint256"
        },
        {
          "indexed": false,
          "internalType": "uint16",
          "name": "rewardRate",
          "type": "uint16"
        },
        {
          "indexed": false,
          "internalType": "uint16",
          "name": "rewardRateDecimals",
          "type": "uint16"
        }
      ],
      "name": "IBPRewardsPaid",
      "type": "event"
    },
    {
      "anonymous": false,
      "inputs": [
        {
          "indexed": false,
          "internalType": "uint8",
          "name": "version",
          "type": "uint8"
        }
      ],
      "name": "Initialized",
      "type": "event"
    },
    {
      "anonymous": false,
      "inputs": [
        {
          "indexed": false,
          "internalType": "address",
          "name": "userAddress",
          "type": "address"
        },
        {
          "indexed": false,
          "internalType": "string",
          "name": "reason",
          "type": "string"
        }
      ],
      "name": "NoRewardsPaid",
      "type": "event"
    },
    {
      "anonymous": false,
      "inputs": [
        {
          "indexed": true,
          "internalType": "address",
          "name": "previousOwner",
          "type": "address"
        },
        {
          "indexed": true,
          "internalType": "address",
          "name": "newOwner",
          "type": "address"
        }
      ],
      "name": "OwnershipTransferred",
      "type": "event"
    },
    {
      "anonymous": false,
      "inputs": [
        {
          "indexed": false,
          "internalType": "address",
          "name": "account",
          "type": "address"
        }
      ],
      "name": "Paused",
      "type": "event"
    },
    {
      "anonymous": false,
      "inputs": [
        {
          "indexed": false,
          "internalType": "address",
          "name": "referrerAddress",
          "type": "address"
        },
        {
          "indexed": false,
          "internalType": "address",
          "name": "userAddress",
          "type": "address"
        },
        {
          "indexed": false,
          "internalType": "uint256",
          "name": "value",
          "type": "uint256"
        },
        {
          "indexed": false,
          "internalType": "uint256",
          "name": "rewardValue",
          "type": "uint256"
        },
        {
          "indexed": false,
          "internalType": "uint256",
          "name": "rewardRate",
          "type": "uint256"
        },
        {
          "indexed": false,
          "internalType": "uint256",
          "name": "rewardRateDecimals",
          "type": "uint256"
        },
        {
          "indexed": false,
          "internalType": "uint32",
          "name": "level",
          "type": "uint32"
        }
      ],
      "name": "ReferralRewardsPaid",
      "type": "event"
    },
    {
      "anonymous": false,
      "inputs": [
        {
          "indexed": false,
          "internalType": "address",
          "name": "referrerAddress",
          "type": "address"
        },
        {
          "indexed": false,
          "internalType": "address",
          "name": "refereeAddress",
          "type": "address"
        }
      ],
      "name": "ReferrerAdded",
      "type": "event"
    },
    {
      "anonymous": false,
      "inputs": [
        {
          "indexed": false,
          "internalType": "address",
          "name": "referrerAddress",
          "type": "address"
        },
        {
          "indexed": false,
          "internalType": "address",
          "name": "refereeAddress",
          "type": "address"
        },
        {
          "indexed": false,
          "internalType": "string",
          "name": "reason",
          "type": "string"
        }
      ],
      "name": "ReferrerNotAdded",
      "type": "event"
    },
    {
      "anonymous": false,
      "inputs": [
        {
          "indexed": false,
          "internalType": "address",
          "name": "userAddress",
          "type": "address"
        },
        {
          "indexed": false,
          "internalType": "uint32",
          "name": "userId",
          "type": "uint32"
        },
        {
          "indexed": false,
          "internalType": "uint8",
          "name": "planId",
          "type": "uint8"
        },
        {
          "indexed": false,
          "internalType": "address",
          "name": "referrerAddress",
          "type": "address"
        }
      ],
      "name": "Registration",
      "type": "event"
    },
    {
      "anonymous": false,
      "inputs": [
        {
          "indexed": false,
          "internalType": "address",
          "name": "parentAddress",
          "type": "address"
        },
        {
          "indexed": false,
          "internalType": "address",
          "name": "referrerAddress",
          "type": "address"
        },
        {
          "indexed": false,
          "internalType": "address",
          "name": "refereeAddress",
          "type": "address"
        },
        {
          "indexed": false,
          "internalType": "uint32",
          "name": "level",
          "type": "uint32"
        }
      ],
      "name": "TeamAddressAdded",
      "type": "event"
    },
    {
      "anonymous": false,
      "inputs": [
        {
          "indexed": false,
          "internalType": "address",
          "name": "account",
          "type": "address"
        }
      ],
      "name": "Unpaused",
      "type": "event"
    },
    {
      "anonymous": false,
      "inputs": [
        {
          "indexed": true,
          "internalType": "address",
          "name": "implementation",
          "type": "address"
        }
      ],
      "name": "Upgraded",
      "type": "event"
    },
    {
      "anonymous": false,
      "inputs": [
        {
          "indexed": false,
          "internalType": "address",
          "name": "globalAddress",
          "type": "address"
        },
        {
          "indexed": false,
          "internalType": "uint256",
          "name": "rewardValue",
          "type": "uint256"
        }
      ],
      "name": "WeeklyRewardsPaid",
      "type": "event"
    },
    {
      "inputs": [
        {
          "internalType": "address",
          "name": "_userAddress",
          "type": "address"
        },
        {
          "internalType": "address",
          "name": "_ibpAddress",
          "type": "address"
        }
      ],
      "name": "addIbpToAddressAdmin",
      "outputs": [],
      "stateMutability": "nonpayable",
      "type": "function"
    },
    {
      "inputs": [],
      "name": "distributeWeeklyReward",
      "outputs": [
        {
          "internalType": "address",
          "name": "",
          "type": "address"
        }
      ],
      "stateMutability": "nonpayable",
      "type": "function"
    },
    {
      "inputs": [],
      "name": "getRegistrationsStats",
      "outputs": [
        {
          "internalType": "uint32",
          "name": "totalUser",
          "type": "uint32"
        },
        {
          "internalType": "uint256",
          "name": "totalRegistrationValue",
          "type": "uint256"
        },
        {
          "internalType": "uint256",
          "name": "totalReferralPaid",
          "type": "uint256"
        },
        {
          "internalType": "uint256",
          "name": "totalGlobalRewardsPaid",
          "type": "uint256"
        },
        {
          "internalType": "uint256",
          "name": "totalWeeklyRewardsPaid",
          "type": "uint256"
        },
        {
          "internalType": "uint256",
          "name": "totalCoreMembershipRewardPaid",
          "type": "uint256"
        },
        {
          "internalType": "uint256",
          "name": "totalIbpRewardsPaid",
          "type": "uint256"
        }
      ],
      "stateMutability": "view",
      "type": "function"
    },
    {
      "inputs": [
        {
          "internalType": "address",
          "name": "_userAddress",
          "type": "address"
        }
      ],
      "name": "getUserAccount",
      "outputs": [
        {
          "components": [
            {
              "internalType": "uint32",
              "name": "userId",
              "type": "uint32"
            },
            {
              "internalType": "address",
              "name": "selfAddress",
              "type": "address"
            },
            {
              "internalType": "address",
              "name": "ibpAddress",
              "type": "address"
            },
            {
              "internalType": "address",
              "name": "referrerAddress",
              "type": "address"
            },
            {
              "internalType": "address[]",
              "name": "refereeAddresses",
              "type": "address[]"
            },
            {
              "internalType": "address[]",
              "name": "teamAddress",
              "type": "address[]"
            },
            {
              "internalType": "uint32[]",
              "name": "teamLevels",
              "type": "uint32[]"
            },
            {
              "internalType": "uint256",
              "name": "selfBusiness",
              "type": "uint256"
            },
            {
              "internalType": "uint256",
              "name": "directBusiness",
              "type": "uint256"
            },
            {
              "internalType": "uint256",
              "name": "teamBusiness",
              "type": "uint256"
            },
            {
              "internalType": "uint256",
              "name": "maxLimit",
              "type": "uint256"
            },
            {
              "internalType": "uint256",
              "name": "currentLimit",
              "type": "uint256"
            },
            {
              "internalType": "uint256",
              "name": "referralRewards",
              "type": "uint256"
            },
            {
              "internalType": "uint256",
              "name": "globalRewards",
              "type": "uint256"
            },
            {
              "internalType": "uint256",
              "name": "weeklyRewards",
              "type": "uint256"
            },
            {
              "internalType": "uint256",
              "name": "ibpRewards",
              "type": "uint256"
            },
            {
              "internalType": "bool",
              "name": "isGlobal",
              "type": "bool"
            },
            {
              "internalType": "uint32[]",
              "name": "globalIndexes",
              "type": "uint32[]"
            }
          ],
          "internalType": "struct AccountStruct",
          "name": "",
          "type": "tuple"
        }
      ],
      "stateMutability": "view",
      "type": "function"
    },
    {
      "inputs": [
        {
          "internalType": "address",
          "name": "_userAddress",
          "type": "address"
        }
      ],
      "name": "getUserBusiness",
      "outputs": [
        {
          "internalType": "uint256",
          "name": "selfBusiness",
          "type": "uint256"
        },
        {
          "internalType": "uint256",
          "name": "directBusiness",
          "type": "uint256"
        },
        {
          "internalType": "uint256",
          "name": "teamBusiness",
          "type": "uint256"
        },
        {
          "internalType": "uint256",
          "name": "totalBusiness",
          "type": "uint256"
        }
      ],
      "stateMutability": "view",
      "type": "function"
    },
    {
      "inputs": [
        {
          "internalType": "address",
          "name": "_userAddress",
          "type": "address"
        }
      ],
      "name": "getUserLimit",
      "outputs": [
        {
          "internalType": "uint256",
          "name": "maxLimit",
          "type": "uint256"
        },
        {
          "internalType": "uint256",
          "name": "currentLimit",
          "type": "uint256"
        },
        {
          "internalType": "uint256",
          "name": "limitRemaingvalue",
          "type": "uint256"
        },
        {
          "internalType": "uint256",
          "name": "limitRemainingPer",
          "type": "uint256"
        }
      ],
      "stateMutability": "view",
      "type": "function"
    },
    {
      "inputs": [
        {
          "internalType": "address",
          "name": "_userAddress",
          "type": "address"
        }
      ],
      "name": "getUserReferee",
      "outputs": [
        {
          "internalType": "address[]",
          "name": "referees",
          "type": "address[]"
        },
        {
          "internalType": "uint256",
          "name": "refereeCount",
          "type": "uint256"
        }
      ],
      "stateMutability": "view",
      "type": "function"
    },
    {
      "inputs": [
        {
          "internalType": "address",
          "name": "_userAddress",
          "type": "address"
        }
      ],
      "name": "getUserReferrer",
      "outputs": [
        {
          "internalType": "address",
          "name": "",
          "type": "address"
        }
      ],
      "stateMutability": "view",
      "type": "function"
    },
    {
      "inputs": [
        {
          "internalType": "address",
          "name": "_userAddress",
          "type": "address"
        }
      ],
      "name": "getUserRewards",
      "outputs": [
        {
          "internalType": "uint256",
          "name": "referralReward",
          "type": "uint256"
        },
        {
          "internalType": "uint256",
          "name": "globalReward",
          "type": "uint256"
        },
        {
          "internalType": "uint256",
          "name": "weeklyReward",
          "type": "uint256"
        },
        {
          "internalType": "uint256",
          "name": "ibpReward",
          "type": "uint256"
        },
        {
          "internalType": "uint256",
          "name": "totalIncome",
          "type": "uint256"
        }
      ],
      "stateMutability": "view",
      "type": "function"
    },
    {
      "inputs": [
        {
          "internalType": "address",
          "name": "_userAddress",
          "type": "address"
        }
      ],
      "name": "getUserTeam",
      "outputs": [
        {
          "internalType": "address[]",
          "name": "team",
          "type": "address[]"
        },
        {
          "internalType": "uint256",
          "name": "teamCount",
          "type": "uint256"
        }
      ],
      "stateMutability": "view",
      "type": "function"
    },
    {
      "inputs": [],
      "name": "getWeeklyRewardToBeDistributed",
      "outputs": [
        {
          "internalType": "uint256",
          "name": "",
          "type": "uint256"
        }
      ],
      "stateMutability": "view",
      "type": "function"
    },
    {
      "inputs": [],
      "name": "getWeeklyRewardsRemainTime",
      "outputs": [
        {
          "internalType": "uint256",
          "name": "",
          "type": "uint256"
        }
      ],
      "stateMutability": "view",
      "type": "function"
    },
    {
      "inputs": [
        {
          "internalType": "address",
          "name": "_userAddress",
          "type": "address"
        }
      ],
      "name": "getuserIbpAddress",
      "outputs": [
        {
          "internalType": "address",
          "name": "",
          "type": "address"
        }
      ],
      "stateMutability": "view",
      "type": "function"
    },
    {
      "inputs": [],
      "name": "initialize",
      "outputs": [],
      "stateMutability": "nonpayable",
      "type": "function"
    },
    {
      "inputs": [
        {
          "internalType": "address",
          "name": "_userAddress",
          "type": "address"
        }
      ],
      "name": "isuserInGlobalList",
      "outputs": [
        {
          "internalType": "bool",
          "name": "isInList",
          "type": "bool"
        },
        {
          "internalType": "uint32[]",
          "name": "indexes",
          "type": "uint32[]"
        },
        {
          "internalType": "uint256",
          "name": "totalGlobalIds",
          "type": "uint256"
        }
      ],
      "stateMutability": "view",
      "type": "function"
    },
    {
      "inputs": [],
      "name": "owner",
      "outputs": [
        {
          "internalType": "address",
          "name": "",
          "type": "address"
        }
      ],
      "stateMutability": "view",
      "type": "function"
    },
    {
      "inputs": [],
      "name": "pause",
      "outputs": [],
      "stateMutability": "nonpayable",
      "type": "function"
    },
    {
      "inputs": [],
      "name": "paused",
      "outputs": [
        {
          "internalType": "bool",
          "name": "",
          "type": "bool"
        }
      ],
      "stateMutability": "view",
      "type": "function"
    },
    {
      "inputs": [],
      "name": "proxiableUUID",
      "outputs": [
        {
          "internalType": "bytes32",
          "name": "",
          "type": "bytes32"
        }
      ],
      "stateMutability": "view",
      "type": "function"
    },
    {
      "inputs": [
        {
          "internalType": "address",
          "name": "_referrer",
          "type": "address"
        },
        {
          "internalType": "uint8",
          "name": "_planId",
          "type": "uint8"
        },
        {
          "internalType": "address",
          "name": "_tokenAddress",
          "type": "address"
        }
      ],
      "name": "registrationWithETH",
      "outputs": [],
      "stateMutability": "payable",
      "type": "function"
    },
    {
      "inputs": [
        {
          "internalType": "address",
          "name": "_referrer",
          "type": "address"
        },
        {
          "internalType": "uint8",
          "name": "_planId",
          "type": "uint8"
        },
        {
          "internalType": "address",
          "name": "_tokenAddress",
          "type": "address"
        }
      ],
      "name": "registrationWithToken",
      "outputs": [],
      "stateMutability": "nonpayable",
      "type": "function"
    },
    {
      "inputs": [
        {
          "internalType": "address",
          "name": "_userAddress",
          "type": "address"
        }
      ],
      "name": "removeIbpFromAddressAdmin",
      "outputs": [],
      "stateMutability": "nonpayable",
      "type": "function"
    },
    {
      "inputs": [],
      "name": "renounceOwnership",
      "outputs": [],
      "stateMutability": "nonpayable",
      "type": "function"
    },
    {
      "inputs": [
        {
          "internalType": "address",
          "name": "newOwner",
          "type": "address"
        }
      ],
      "name": "transferOwnership",
      "outputs": [],
      "stateMutability": "nonpayable",
      "type": "function"
    },
    {
      "inputs": [],
      "name": "unpause",
      "outputs": [],
      "stateMutability": "nonpayable",
      "type": "function"
    },
    {
      "inputs": [
        {
          "internalType": "address",
          "name": "newImplementation",
          "type": "address"
        }
      ],
      "name": "upgradeTo",
      "outputs": [],
      "stateMutability": "nonpayable",
      "type": "function"
    },
    {
      "inputs": [
        {
          "internalType": "address",
          "name": "newImplementation",
          "type": "address"
        },
        {
          "internalType": "bytes",
          "name": "data",
          "type": "bytes"
        }
      ],
      "name": "upgradeToAndCall",
      "outputs": [],
      "stateMutability": "payable",
      "type": "function"
    },
    {
      "stateMutability": "payable",
      "type": "receive"
    }
  ],
  "bytecode": "0x60a06040523060805234801561001457600080fd5b5060805161588f6200004d60003960008181610892015281816108db015281816109f101528181610a310152610ac4015261588f6000f3fe6080604052600436106101a05760003560e01c80638456cb59116100ec578063e6f6769e1161008a578063f2fde38b11610064578063f2fde38b1461052a578063f87127b41461054a578063faeda7e51461056a578063fb47e0161461058a57600080fd5b8063e6f6769e146104b5578063e9587e86146104d5578063ebd0f48f1461051557600080fd5b80638da5cb5b116100c65780638da5cb5b14610434578063986992fa14610452578063aa8d713a14610467578063d113efc41461048757600080fd5b80638456cb59146103cd578063846688f7146103e2578063881063d3146103f757600080fd5b806349c03d0d1161015957806353ae67101161013357806353ae6710146103515780635c975abb14610380578063715018a6146103a35780638129fc1c146103b857600080fd5b806349c03d0d146102fb5780634f1ef2861461031b57806352d1902d1461032e57600080fd5b80630690c6a8146101ac578063078b0fb71461021457806336144c9a1461025c5780633659cfe6146102b15780633ec2223c146102d35780633f4ba83a146102e657600080fd5b366101a757005b600080fd5b3480156101b857600080fd5b5060fd5460fe5461010154610102546101035461010454610105546040805163ffffffff90981688526020880196909652948601939093526060850191909152608084015260a083015260c082015260e0015b60405180910390f35b34801561022057600080fd5b5061023461022f366004614d4d565b6105b7565b604080519586526020860194909452928401919091526060830152608082015260a00161020b565b34801561026857600080fd5b50610299610277366004614d4d565b6001600160a01b03908116600090815261010660205260409020600201541690565b6040516001600160a01b03909116815260200161020b565b3480156102bd57600080fd5b506102d16102cc366004614d4d565b610888565b005b6102d16102e1366004614d79565b505050565b3480156102f257600080fd5b506102d1610970565b34801561030757600080fd5b506102d1610316366004614dc4565b610982565b6102d1610329366004614e95565b6109e7565b34801561033a57600080fd5b50610343610ab7565b60405190815260200161020b565b34801561035d57600080fd5b5061037161036c366004614d4d565b610b6a565b60405161020b93929190614f28565b34801561038c57600080fd5b5060335460ff16604051901515815260200161020b565b3480156103af57600080fd5b506102d1610e35565b3480156103c457600080fd5b506102d1610e47565b3480156103d957600080fd5b506102d1610f7d565b3480156103ee57600080fd5b5060ff54610343565b34801561040357600080fd5b50610299610412366004614d4d565b6001600160a01b03908116600090815261010660205260409020600101541690565b34801561044057600080fd5b506065546001600160a01b0316610299565b34801561045e57600080fd5b50610343610f8d565b34801561047357600080fd5b506102d1610482366004614d4d565b610fc6565b34801561049357600080fd5b506104a76104a2366004614d4d565b61110c565b60405161020b929190614fcb565b3480156104c157600080fd5b506102d16104d0366004614d79565b6113bc565b3480156104e157600080fd5b506104f56104f0366004614d4d565b6113cf565b60408051948552602085019390935291830152606082015260800161020b565b34801561052157600080fd5b506102996116bc565b34801561053657600080fd5b506102d1610545366004614d4d565b611959565b34801561055657600080fd5b506104f5610565366004614d4d565b6119cf565b34801561057657600080fd5b506104a7610585366004614d4d565b611c96565b34801561059657600080fd5b506105aa6105a5366004614d4d565b611f46565b60405161020b9190615023565b6001600160a01b03808216600090815261010660209081526040808320815161024081018352815463ffffffff81168252600160201b90048616818501526001820154861681840152600282015490951660608601526003810180548351818602810186019094528084529495869586958695869586959093608086019383018282801561066e57602002820191906000526020600020905b81546001600160a01b03168152600190910190602001808311610650575b50505050508152602001600482018054806020026020016040519081016040528092919081815260200182805480156106d057602002820191906000526020600020905b81546001600160a01b031681526001909101906020018083116106b2575b505050505081526020016005820180548060200260200160405190810160405280929190818152602001828054801561075457602002820191906000526020600020906000905b82829054906101000a900463ffffffff1663ffffffff16815260200190600401906020826003010492830192600103820291508084116107175790505b5050505050815260200160068201548152602001600782015481526020016008820154815260200160098201548152602001600a8201548152602001600b8201548152602001600c8201548152602001600d8201548152602001600e8201548152602001600f820160009054906101000a900460ff161515151581526020016010820180548060200260200160405190810160405280929190818152602001828054801561084d57602002820191906000526020600020906000905b82829054906101000a900463ffffffff1663ffffffff16815260200190600401906020826003010492830192600103820291508084116108105790505b505050919092525050506101808101516101a08201516101c08301516101e084015161016090940151929b919a509850919650945092505050565b6001600160a01b037f00000000000000000000000000000000000000000000000000000000000000001630036108d95760405162461bcd60e51b81526004016108d09061518a565b60405180910390fd5b7f00000000000000000000000000000000000000000000000000000000000000006001600160a01b03166109226000805160206157f3833981519152546001600160a01b031690565b6001600160a01b0316146109485760405162461bcd60e51b81526004016108d0906151d6565b61095181612295565b6040805160008082526020820190925261096d9183919061229d565b50565b610978612408565b610980612462565b565b61098a612408565b6001600160a01b038281166000818152610106602090815260409182902060010180546001600160a01b0319169486169485179055815193845283019190915260008051602061583a833981519152910160405180910390a15050565b6001600160a01b037f0000000000000000000000000000000000000000000000000000000000000000163003610a2f5760405162461bcd60e51b81526004016108d09061518a565b7f00000000000000000000000000000000000000000000000000000000000000006001600160a01b0316610a786000805160206157f3833981519152546001600160a01b031690565b6001600160a01b031614610a9e5760405162461bcd60e51b81526004016108d0906151d6565b610aa782612295565b610ab38282600161229d565b5050565b6000306001600160a01b037f00000000000000000000000000000000000000000000000000000000000000001614610b575760405162461bcd60e51b815260206004820152603860248201527f555550535570677261646561626c653a206d757374206e6f742062652063616c60448201527f6c6564207468726f7567682064656c656761746563616c6c000000000000000060648201526084016108d0565b506000805160206157f383398151915290565b6001600160a01b03808216600090815261010660209081526040808320815161024081018352815463ffffffff81168252600160201b9004861681850152600182015486168184015260028201549095166060868101919091526003820180548451818702810187019095528085529596919587958695939493608086019390929091830182828015610c2657602002820191906000526020600020905b81546001600160a01b03168152600190910190602001808311610c08575b5050505050815260200160048201805480602002602001604051908101604052809291908181526020018280548015610c8857602002820191906000526020600020905b81546001600160a01b03168152600190910190602001808311610c6a575b5050505050815260200160058201805480602002602001604051908101604052809291908181526020018280548015610d0c57602002820191906000526020600020906000905b82829054906101000a900463ffffffff1663ffffffff1681526020019060040190602082600301049283019260010382029150808411610ccf5790505b5050505050815260200160068201548152602001600782015481526020016008820154815260200160098201548152602001600a8201548152602001600b8201548152602001600c8201548152602001600d8201548152602001600e8201548152602001600f820160009054906101000a900460ff1615151515815260200160108201805480602002602001604051908101604052809291908181526020018280548015610e0557602002820191906000526020600020906000905b82829054906101000a900463ffffffff1663ffffffff1681526020019060040190602082600301049283019260010382029150808411610dc85790505b50505050508152505090506000816102200151511115610e2457600193505b610220015180519395909450915050565b610e3d612408565b61098060006124b4565b600054610100900460ff1615808015610e675750600054600160ff909116105b80610e815750303b158015610e81575060005460ff166001145b610ee45760405162461bcd60e51b815260206004820152602e60248201527f496e697469616c697a61626c653a20636f6e747261637420697320616c72656160448201526d191e481a5b9a5d1a585b1a5e995960921b60648201526084016108d0565b6000805460ff191660011790558015610f07576000805461ff0019166101001790555b60fb80546001600160a01b03191690554261010055610f24612506565b610f2c612535565b610f34612564565b801561096d576000805461ff0019169055604051600181527f7f26b83ff96e1f2b6a682f133852f6798a09c465da95921460cefb3847402498906020015b60405180910390a150565b610f85612408565b61098061258b565b6000806101005462093a80610fa29190615238565b905042818110610fb55760009250505090565b610fbf818361524b565b9250505090565b610fce612408565b60fb60009054906101000a90046001600160a01b03166001600160a01b031663b6b248de6040518163ffffffff1660e01b8152600401602060405180830381865afa158015611021573d6000803e3d6000fd5b505050506040513d601f19601f820116820180604052508101906110459190615269565b6001600160a01b038281166000908152610106602090815260409182902060010180546001600160a01b0319169484169490941790935560fb548151635b59246f60e11b8152915160008051602061583a83398151915294919093169263b6b248de9260048082019392918290030181865afa1580156110c9573d6000803e3d6000fd5b505050506040513d601f19601f820116820180604052508101906110ed9190615269565b604080516001600160a01b039283168152918416602083015201610f72565b6001600160a01b03808216600090815261010660209081526040808320815161024081018352815463ffffffff81168252600160201b90048616818501526001820154861681840152600282015490951660608681019190915260038201805484518187028101870190955280855291968695909460808601939092918301828280156111c257602002820191906000526020600020905b81546001600160a01b031681526001909101906020018083116111a4575b505050505081526020016004820180548060200260200160405190810160405280929190818152602001828054801561122457602002820191906000526020600020905b81546001600160a01b03168152600190910190602001808311611206575b50505050508152602001600582018054806020026020016040519081016040528092919081815260200182805480156112a857602002820191906000526020600020906000905b82829054906101000a900463ffffffff1663ffffffff168152602001906004019060208260030104928301926001038202915080841161126b5790505b5050505050815260200160068201548152602001600782015481526020016008820154815260200160098201548152602001600a8201548152602001600b8201548152602001600c8201548152602001600d8201548152602001600e8201548152602001600f820160009054906101000a900460ff16151515158152602001601082018054806020026020016040519081016040528092919081815260200182805480156113a157602002820191906000526020600020906000905b82829054906101000a900463ffffffff1663ffffffff16815260200190600401906020826003010492830192600103820291508084116113645790505b50505091909252505050608001518051909590945092505050565b336113c9848285856125c8565b50505050565b6001600160a01b03808216600090815261010660209081526040808320815161024081018352815463ffffffff81168252600160201b90048616818501526001820154861681840152600282015490951660608601526003810180548351818602810186019094528084529495869586958695869593946080860193919290919083018282801561148957602002820191906000526020600020905b81546001600160a01b0316815260019091019060200180831161146b575b50505050508152602001600482018054806020026020016040519081016040528092919081815260200182805480156114eb57602002820191906000526020600020905b81546001600160a01b031681526001909101906020018083116114cd575b505050505081526020016005820180548060200260200160405190810160405280929190818152602001828054801561156f57602002820191906000526020600020906000905b82829054906101000a900463ffffffff1663ffffffff16815260200190600401906020826003010492830192600103820291508084116115325790505b5050505050815260200160068201548152602001600782015481526020016008820154815260200160098201548152602001600a8201548152602001600b8201548152602001600c8201548152602001600d8201548152602001600e8201548152602001600f820160009054906101000a900460ff161515151581526020016010820180548060200260200160405190810160405280929190818152602001828054801561166857602002820191906000526020600020906000905b82829054906101000a900463ffffffff1663ffffffff168152602001906004019060208260030104928301926001038202915080841161162b5790505b505050919092525050506101408101516101608201519096509450905061168f848661524b565b92508061014001518161016001516116a7919061529c565b6116b29060646152b0565b9150509193509193565b6000806101005462093a806116d19190615238565b905042818110156117245760405162461bcd60e51b815260206004820152601c60248201527f5765656b6c792074696d65206973206e6f74206f766572207965742e0000000060448201526064016108d0565b600061172e61400b565b9050600060fb60009054906101000a90046001600160a01b03166001600160a01b031663beb22a206040518163ffffffff1660e01b8152600401602060405180830381865afa158015611785573d6000803e3d6000fd5b505050506040513d601f19601f820116820180604052508101906117a99190615269565b6040516370a0823160e01b81523060048201529091506000906001600160a01b038316906370a0823190602401602060405180830381865afa1580156117f3573d6000803e3d6000fd5b505050506040513d601f19601f8201168201806040525081019061181791906152c7565b60ff54909150808210156118935760405162461bcd60e51b815260206004820152603760248201527f436f6e74726163742068617320696e73756666696369656e742062616c616e6360448201527f6520746f2064697374726962757465207265776172642e00000000000000000060648201526084016108d0565b60405163a9059cbb60e01b81526001600160a01b0385811660048301526024820183905284169063a9059cbb906044016020604051808303816000875af11580156118e2573d6000803e3d6000fd5b505050506040513d601f19601f8201168201806040525081019061190691906152f0565b50600060ff55604080516001600160a01b0386168152602081018390527ffff6edc60fd30afefcc47525cdf85502200830b22550391f79f9e383df03afad910160405180910390a1509195945050505050565b611961612408565b6001600160a01b0381166119c65760405162461bcd60e51b815260206004820152602660248201527f4f776e61626c653a206e6577206f776e657220697320746865207a65726f206160448201526564647265737360d01b60648201526084016108d0565b61096d816124b4565b6001600160a01b03808216600090815261010660209081526040808320815161024081018352815463ffffffff81168252600160201b900486168185015260018201548616818401526002820154909516606086015260038101805483518186028101860190945280845294958695869586958695939460808601939192909190830182828015611a8957602002820191906000526020600020905b81546001600160a01b03168152600190910190602001808311611a6b575b5050505050815260200160048201805480602002602001604051908101604052809291908181526020018280548015611aeb57602002820191906000526020600020905b81546001600160a01b03168152600190910190602001808311611acd575b5050505050815260200160058201805480602002602001604051908101604052809291908181526020018280548015611b6f57602002820191906000526020600020906000905b82829054906101000a900463ffffffff1663ffffffff1681526020019060040190602082600301049283019260010382029150808411611b325790505b5050505050815260200160068201548152602001600782015481526020016008820154815260200160098201548152602001600a8201548152602001600b8201548152602001600c8201548152602001600d8201548152602001600e8201548152602001600f820160009054906101000a900460ff1615151515815260200160108201805480602002602001604051908101604052809291908181526020018280548015611c6857602002820191906000526020600020906000905b82829054906101000a900463ffffffff1663ffffffff1681526020019060040190602082600301049283019260010382029150808411611c2b5790505b5050509190925250505060e08101516101008201516101208301519197509550935090506116b28584615238565b6001600160a01b03808216600090815261010660209081526040808320815161024081018352815463ffffffff81168252600160201b9004861681850152600182015486168184015260028201549095166060868101919091526003820180548451818702810187019095528085529196869590946080860193909291830182828015611d4c57602002820191906000526020600020905b81546001600160a01b03168152600190910190602001808311611d2e575b5050505050815260200160048201805480602002602001604051908101604052809291908181526020018280548015611dae57602002820191906000526020600020905b81546001600160a01b03168152600190910190602001808311611d90575b5050505050815260200160058201805480602002602001604051908101604052809291908181526020018280548015611e3257602002820191906000526020600020906000905b82829054906101000a900463ffffffff1663ffffffff1681526020019060040190602082600301049283019260010382029150808411611df55790505b5050505050815260200160068201548152602001600782015481526020016008820154815260200160098201548152602001600a8201548152602001600b8201548152602001600c8201548152602001600d8201548152602001600e8201548152602001600f820160009054906101000a900460ff1615151515815260200160108201805480602002602001604051908101604052809291908181526020018280548015611f2b57602002820191906000526020600020906000905b82829054906101000a900463ffffffff1663ffffffff1681526020019060040190602082600301049283019260010382029150808411611eee5790505b5050509190925250505060a001518051909590945092505050565b611ff7604051806102400160405280600063ffffffff16815260200160006001600160a01b0316815260200160006001600160a01b0316815260200160006001600160a01b03168152602001606081526020016060815260200160608152602001600081526020016000815260200160008152602001600081526020016000815260200160008152602001600081526020016000815260200160008152602001600015158152602001606081525090565b6001600160a01b0380831660009081526101066020908152604091829020825161024081018452815463ffffffff81168252600160201b9004851681840152600182015485168185015260028201549094166060850152600381018054845181850281018501909552808552919360808601939092908301828280156120a657602002820191906000526020600020905b81546001600160a01b03168152600190910190602001808311612088575b505050505081526020016004820180548060200260200160405190810160405280929190818152602001828054801561210857602002820191906000526020600020905b81546001600160a01b031681526001909101906020018083116120ea575b505050505081526020016005820180548060200260200160405190810160405280929190818152602001828054801561218c57602002820191906000526020600020906000905b82829054906101000a900463ffffffff1663ffffffff168152602001906004019060208260030104928301926001038202915080841161214f5790505b5050505050815260200160068201548152602001600782015481526020016008820154815260200160098201548152602001600a8201548152602001600b8201548152602001600c8201548152602001600d8201548152602001600e8201548152602001600f820160009054906101000a900460ff161515151581526020016010820180548060200260200160405190810160405280929190818152602001828054801561228557602002820191906000526020600020906000905b82829054906101000a900463ffffffff1663ffffffff16815260200190600401906020826003010492830192600103820291508084116122485790505b5050505050815250509050919050565b61096d612408565b7f4910fdfa16fed3260ed0e7147f7cc6da11a60208b5b9406d12a635614ffd91435460ff16156122d0576102e183614092565b826001600160a01b03166352d1902d6040518163ffffffff1660e01b8152600401602060405180830381865afa92505050801561232a575060408051601f3d908101601f19168201909252612327918101906152c7565b60015b61238d5760405162461bcd60e51b815260206004820152602e60248201527f45524331393637557067726164653a206e657720696d706c656d656e7461746960448201526d6f6e206973206e6f74205555505360901b60648201526084016108d0565b6000805160206157f383398151915281146123fc5760405162461bcd60e51b815260206004820152602960248201527f45524331393637557067726164653a20756e737570706f727465642070726f786044820152681a58589b195555525160ba1b60648201526084016108d0565b506102e183838361412e565b6065546001600160a01b031633146109805760405162461bcd60e51b815260206004820181905260248201527f4f776e61626c653a2063616c6c6572206973206e6f7420746865206f776e657260448201526064016108d0565b61246a614153565b6033805460ff191690557f5db9ee0a495bf2e6ff9c91a7834c1ba4fdd244a5e8aa4e537bd38aeae4b073aa335b6040516001600160a01b03909116815260200160405180910390a1565b606580546001600160a01b038381166001600160a01b0319831681179093556040519116919082907f8be0079c531659141344cd1fd0a4f28419497f9722a3daafe3b4186f6b6457e090600090a35050565b600054610100900460ff1661252d5760405162461bcd60e51b81526004016108d09061530b565b61098061419c565b600054610100900460ff1661255c5760405162461bcd60e51b81526004016108d09061530b565b6109806141cf565b600054610100900460ff166109805760405162461bcd60e51b81526004016108d09061530b565b6125936141ff565b6033805460ff191660011790557f62e78cea01bee320cd4e420270b5ea74000d11b0c9f74754ebdbfc544b05a2586124973390565b60fb54604051630efc12b160e01b815260ff841660048201526001600160a01b03909116906000908290630efc12b190602401600060405180830381865afa158015612618573d6000803e3d6000fd5b505050506040513d6000823e601f3d908101601f1916820160405261264091908101906153d2565b6040516373a5799760e11b81526001600160a01b03858116600483015291925060009184169063e74af32e90602401600060405180830381865afa15801561268c573d6000803e3d6000fd5b505050506040513d6000823e601f3d908101601f191682016040526126b4919081019061547f565b90508060a001516127125760405162461bcd60e51b815260206004820152602260248201527f546f6b656e206973206e6f7420737570706f72746564206f722064697361626c604482015261195960f21b60648201526084016108d0565b6000836001600160a01b031663918a54db6040518163ffffffff1660e01b8152600401600060405180830381865afa158015612752573d6000803e3d6000fd5b505050506040513d6000823e601f3d908101601f1916820160405261277a9190810190615554565b9050846001600160a01b03166323b872dd88306127a1876040015160128860600151614245565b6040516001600160e01b031960e086901b1681526001600160a01b03938416600482015292909116602483015260448201526064016020604051808303816000875af11580156127f5573d6000803e3d6000fd5b505050506040513d601f19601f8201168201806040525081019061281991906152f0565b506001600160a01b038088166000908152610106602090815260409182902086830151835161024081018552825463ffffffff81168252600160201b900486168185015260018301548616818601526002830154909516606086015260038201805485518186028101860190965280865292959194612ac39492938793608086019391908301828280156128d657602002820191906000526020600020905b81546001600160a01b031681526001909101906020018083116128b8575b505050505081526020016004820180548060200260200160405190810160405280929190818152602001828054801561293857602002820191906000526020600020905b81546001600160a01b0316815260019091019060200180831161291a575b50505050508152602001600582018054806020026020016040519081016040528092919081815260200182805480156129bc57602002820191906000526020600020906000905b82829054906101000a900463ffffffff1663ffffffff168152602001906004019060208260030104928301926001038202915080841161297f5790505b5050505050815260200160068201548152602001600782015481526020016008820154815260200160098201548152602001600a8201548152602001600b8201548152602001600c8201548152602001600d8201548152602001600e8201548152602001600f820160009054906101000a900460ff1615151515815260200160108201805480602002602001604051908101604052809291908181526020018280548015612ab557602002820191906000526020600020906000905b82829054906101000a900463ffffffff1663ffffffff1681526020019060040190602082600301049283019260010382029150808411612a785790505b50505050508152505061427b565b612ad457612ad48a8a85518961429a565b815463ffffffff16600003612b545760fd805463ffffffff16906000612af98361560e565b82546101009290920a63ffffffff81810219909316918316021790915560fd548454911663ffffffff199091168117845560009081526101076020526040902080546001600160a01b0319166001600160a01b038c16179055505b8154640100000000600160c01b031916600160201b6001600160a01b038b1602178255600682018054829190600090612b8e908490615238565b90915550506060850151612ba290826152b0565b826009016000828254612bb59190615238565b909155505060fc5415612ce1576000612bcc61400b565b90506001600160a01b03811615612cdf576001600160a01b038116600090815261010660205260408120906064612c0485600a6152b0565b612c0e919061529c565b90508082600c016000828254612c249190615238565b925050819055508082600a016000828254612c3f9190615238565b92505081905550612c64876000015184612c5f8460128c60600151614245565b614ad5565b604080516001600160a01b0380861682528e16602082015290810185905260608101829052600a6080820152606460a08201527f693fc02576006378cd4577590d99ad6b18ad4c566c433b85643d7b07a48156659060c00160405180910390a1806101026000828254612cd79190615238565b909155505050505b505b60018201546001600160a01b031615801590612d165750815460018301546001600160a01b03908116600160201b9092041614155b8015612d945750856001600160a01b031663b6b248de6040518163ffffffff1660e01b8152600401602060405180830381865afa158015612d5b573d6000803e3d6000fd5b505050506040513d601f19601f82011682018060405250810190612d7f9190615269565b60018301546001600160a01b03908116911614155b156134cd576001808301546001600160a01b0390811660009081526101066020908152604091829020825161024081018452815463ffffffff81168252600160201b90048516818401529481015484168584015260028101549093166060850152600383018054835181840281018401909452808452939461304294909386936080860193919290830182828015612e5557602002820191906000526020600020905b81546001600160a01b03168152600190910190602001808311612e37575b5050505050815260200160048201805480602002602001604051908101604052809291908181526020018280548015612eb757602002820191906000526020600020905b81546001600160a01b03168152600190910190602001808311612e99575b5050505050815260200160058201805480602002602001604051908101604052809291908181526020018280548015612f3b57602002820191906000526020600020906000905b82829054906101000a900463ffffffff1663ffffffff1681526020019060040190602082600301049283019260010382029150808411612efe5790505b5050505050815260200160068201548152602001600782015481526020016008820154815260200160098201548152602001600a8201548152602001600b8201548152602001600c8201548152602001600d8201548152602001600e8201548152602001600f820160009054906101000a900460ff161515151581526020016010820180548060200260200160405190810160405280929190818152602001828054801561303457602002820191906000526020600020906000905b82829054906101000a900463ffffffff1663ffffffff1681526020019060040190602082600301049283019260010382029150808411612ff75790505b505050505081525050614b48565b6134cb5760006064886001600160a01b031663e70167176040518163ffffffff1660e01b8152600401602060405180830381865afa158015613088573d6000803e3d6000fd5b505050506040513d601f19601f820116820180604052508101906130ac9190615631565b6130b99060ff16856152b0565b6130c3919061529c565b6040805161024081018252845463ffffffff811682526001600160a01b03600160201b909104811660208084019190915260018701548216838501526002870154909116606083015260038601805484518184028101840190955280855294955060009461335c948893608086019391929083018282801561316e57602002820191906000526020600020905b81546001600160a01b03168152600190910190602001808311613150575b50505050508152602001600482018054806020026020016040519081016040528092919081815260200182805480156131d057602002820191906000526020600020905b81546001600160a01b031681526001909101906020018083116131b2575b505050505081526020016005820180548060200260200160405190810160405280929190818152602001828054801561325457602002820191906000526020600020906000905b82829054906101000a900463ffffffff1663ffffffff16815260200190600401906020826003010492830192600103820291508084116132175790505b5050505050815260200160068201548152602001600782015481526020016008820154815260200160098201548152602001600a8201548152602001600b8201548152602001600c8201548152602001600d8201548152602001600e8201548152602001600f820160009054906101000a900460ff161515151581526020016010820180548060200260200160405190810160405280929190818152602001828054801561334d57602002820191906000526020600020906000905b82829054906101000a900463ffffffff1663ffffffff16815260200190600401906020826003010492830192600103820291508084116133105790505b50505050508152505083614b63565b90508083600e0160008282546133729190615238565b925050819055508083600a01600082825461338d9190615238565b90915550508651600186015460608901516133bb92916001600160a01b031690612c5f908590601290614245565b7f3c8fdb10971c51ff48e3a4db4d7f14e64690a286be5bb9f410d9fd0fb74dbf488560010160009054906101000a90046001600160a01b03168660000160049054906101000a90046001600160a01b031686848d6001600160a01b031663e70167176040518163ffffffff1660e01b8152600401602060405180830381865afa15801561344c573d6000803e3d6000fd5b505050506040513d601f19601f820116820180604052508101906134709190615631565b604080516001600160a01b03968716815295909416602086015292840191909152606083015260ff166080820152606460a082015260c00160405180910390a18161010560008282546134c39190615238565b909155505050505b505b6000805b84518160ff161015613e9a576040805161024081018252855463ffffffff811682526001600160a01b03600160201b909104811660208084019190915260018801548216838501526002880154909116606083015260038701805484518184028101840190955280855261371d94899360808601939192908301828280156128d6576020028201919060005260206000209081546001600160a01b031681526001909101906020018083116128b8575050505050815260200160048201805480602002602001604051908101604052809291908181526020018280548015612938576020028201919060005260206000209081546001600160a01b0316815260019091019060200180831161291a5750505050508152602001600582018054806020026020016040519081016040528092919081815260200182805480156129bc576000918252602091829020805463ffffffff16845290820283019290916004910180841161297f5790505050505050815260200160068201548152602001600782015481526020016008820154815260200160098201548152602001600a8201548152602001600b8201548152602001600c8201548152602001600d8201548152602001600e8201548152602001600f820160009054906101000a900460ff1615151515815260200160108201805480602002602001604051908101604052809291908181526020018280548015612ab5576000918252602091829020805463ffffffff168452908202830192909160049101808411612a7857905050505050508152505061427b565b15613e9a576002808501546001600160a01b0390811660009081526101066020908152604091829020825161024081018452815463ffffffff81168252600160201b90048516818401526001820154851681850152948101549093166060850152600383018054835181840281018401909452808452939461397994909386936080860193919290830182828015612e55576020028201919060005260206000209081546001600160a01b03168152600190910190602001808311612e37575050505050815260200160048201805480602002602001604051908101604052809291908181526020018280548015612eb7576020028201919060005260206000209081546001600160a01b03168152600190910190602001808311612e99575050505050815260200160058201805480602002602001604051908101604052809291908181526020018280548015612f3b576000918252602091829020805463ffffffff168452908202830192909160049101808411612efe5790505050505050815260200160068201548152602001600782015481526020016008820154815260200160098201548152602001600a8201548152602001600b8201548152602001600c8201548152602001600d8201548152602001600e8201548152602001600f820160009054906101000a900460ff1615151515815260200160108201805480602002602001604051908101604052809291908181526020018280548015613034576000918252602091829020805463ffffffff168452908202830192909160049101808411612ff7579050505050505081525050614b48565b156139ed576002850154604080516001600160a01b039092168252602082018190526011828201527013585e08131a5b5a5d0814995858da1959607a1b6060830152517f9cf6f1ac252ffae20583b13cb366045bedd20a57355f5f69adf17da561de00039181900360800190a19350613e88565b8160ff16600003613ad65783816007016000828254613a0c9190615238565b9091555050600f81015460ff1615613ac157600285015460fc80546001818101835560008390527f371f36870d18f32a11fea0f144b021c8b407bb50f8e0267c711123f454b963c090910180546001600160a01b0319166001600160a01b0390941693909317909255546010830191613a849161524b565b8154600181018355600092835260209092206008830401805460079093166004026101000a63ffffffff8181021990941692909316929092021790555b600f8101805460ff19811660ff909116151790555b83816008016000828254613aea9190615238565b925050819055506000612710878460ff1681518110613b0b57613b0b61564e565b602002602001015161ffff1686613b2291906152b0565b613b2c919061529c565b6040805161024081018252845463ffffffff811682526001600160a01b03600160201b9091048116602080840191909152600187015482168385015260028701549091166060830152600386018054845181840281018401909552808552949550600094613d73948893608086019391929083018282801561316e576020028201919060005260206000209081546001600160a01b031681526001909101906020018083116131505750505050508152602001600482018054806020026020016040519081016040528092919081815260200182805480156131d0576020028201919060005260206000209081546001600160a01b031681526001909101906020018083116131b2575050505050815260200160058201805480602002602001604051908101604052809291908181526020018280548015613254576000918252602091829020805463ffffffff1684529082028301929091600491018084116132175790505050505050815260200160068201548152602001600782015481526020016008820154815260200160098201548152602001600a8201548152602001600b8201548152602001600c8201548152602001600d8201548152602001600e8201548152602001600f820160009054906101000a900460ff161515151581526020016010820180548060200260200160405190810160405280929190818152602001828054801561334d576000918252602091829020805463ffffffff16845290820283019290916004910180841161331057905050505050508152505083614b63565b90508083600b016000828254613d899190615238565b90915550508851600288015460608b0151613db792916001600160a01b031690612c5f908590601290614245565b613dc18186615238565b600288015488548a519297507f3fae587c6f1778678d1e63bd99d63afe07677c2a2eb43a4b228b80e8a38c1b06926001600160a01b0392831692600160201b90920490911690899085908d9060ff8b16908110613e2057613e2061564e565b60200260200101516127108a6001613e389190615664565b604080516001600160a01b03988916815297909616602088015294860193909352606085019190915261ffff16608084015260a083015260ff1660c082015260e00160405180910390a150909450505b80613e928161567d565b9150506134d1565b50806101016000828254613eae9190615238565b925050819055508160fe6000828254613ec79190615238565b9091555060649050613eda83600a6152b0565b613ee4919061529c565b60ff6000828254613ef59190615238565b909155505084516040516370a0823160e01b81523060048201526000916001600160a01b0316906370a0823190602401602060405180830381865afa158015613f42573d6000803e3d6000fd5b505050506040513d601f19601f82011682018060405250810190613f6691906152c7565b9050613ffd8660000151896001600160a01b031663b2e6b9126040518163ffffffff1660e01b8152600401602060405180830381865afa158015613fae573d6000803e3d6000fd5b505050506040513d601f19601f82011682018060405250810190613fd29190615269565b612c5f613fe760ff5460128c60600151614245565b613ff1908661524b565b60128b60600151614245565b505050505050505050505050565b600080424461401b60014361524b565b60408051602081019490945283019190915240606082015260800160408051601f19818403018152919052805160209091012060fc54909150600090614061908361569c565b905060fc81815481106140765761407661564e565b6000918252602090912001546001600160a01b03169392505050565b6001600160a01b0381163b6140ff5760405162461bcd60e51b815260206004820152602d60248201527f455243313936373a206e657720696d706c656d656e746174696f6e206973206e60448201526c1bdd08184818dbdb9d1c9858dd609a1b60648201526084016108d0565b6000805160206157f383398151915280546001600160a01b0319166001600160a01b0392909216919091179055565b61413783614bc6565b6000825111806141445750805b156102e1576113c98383614c06565b60335460ff166109805760405162461bcd60e51b815260206004820152601460248201527314185d5cd8589b194e881b9bdd081c185d5cd95960621b60448201526064016108d0565b600054610100900460ff166141c35760405162461bcd60e51b81526004016108d09061530b565b6033805460ff19169055565b600054610100900460ff166141f65760405162461bcd60e51b81526004016108d09061530b565b610980336124b4565b60335460ff16156109805760405162461bcd60e51b815260206004820152601060248201526f14185d5cd8589b194e881c185d5cd95960821b60448201526064016108d0565b600061425282600a615794565b61425d84600a615794565b614267908661529c565b61427191906152b0565b90505b9392505050565b60608101516000906001600160a01b031615614295575060015b919050565b6001600160a01b0380841660009081526101066020908152604091829020825161024081018452815463ffffffff81168252600160201b900485168184015260018201548516818501526002820154909416606085015260038101805484518185028101850190955280855291946144ea94909386936080860193918301828280156128d6576020028201919060005260206000209081546001600160a01b031681526001909101906020018083116128b8575050505050815260200160048201805480602002602001604051908101604052809291908181526020018280548015612938576020028201919060005260206000209081546001600160a01b0316815260019091019060200180831161291a5750505050508152602001600582018054806020026020016040519081016040528092919081815260200182805480156129bc576000918252602091829020805463ffffffff16845290820283019290916004910180841161297f5790505050505050815260200160068201548152602001600782015481526020016008820154815260200160098201548152602001600a8201548152602001600b8201548152602001600c8201548152602001600d8201548152602001600e8201548152602001600f820160009054906101000a900460ff1615151515815260200160108201805480602002602001604051908101604052809291908181526020018280548015612ab5576000918252602091829020805463ffffffff168452908202830192909160049101808411612a7857905050505050508152505061427b565b15801561456a5750816001600160a01b031663248835086040518163ffffffff1660e01b8152600401602060405180830381865afa158015614530573d6000803e3d6000fd5b505050506040513d601f19601f820116820180604052508101906145549190615269565b6001600160a01b0316846001600160a01b031614155b15614ace576001600160a01b0385166146e357604080516001600160a01b038781168252861660208201526060818301819052603a908201527f5a65726f20616464726573732063616e6e6f742062652072656665727265722e60808201527f2053657474696e672064656661756c742072656665727265722e00000000000060a082015290517f32df26c7e54a821624fc8d22e1171e5793b90d1fccc483d3ff277b9c42bb22399181900360c00190a16000826001600160a01b031663248835086040518163ffffffff1660e01b8152600401602060405180830381865afa15801561465b573d6000803e3d6000fd5b505050506040513d601f19601f8201168201806040525081019061467f9190615269565b6002830180546001600160a01b0319166001600160a01b038381169182179092556040805191825291881660208201529192507fec49a3c8c4ae06c18160fe86119c381c9d213ac3e052ff35b594da8687b193c7910160405180910390a15061473f565b6002810180546001600160a01b0319166001600160a01b038781169182179092556040805191825291861660208201527fec49a3c8c4ae06c18160fe86119c381c9d213ac3e052ff35b594da8687b193c7910160405180910390a15b60005b8360ff168160ff161015614acc5760028201546001600160a01b031615614acc5760028201546001600160a01b03166000908152610106602052604081209060ff83169003614a3c5760038101805460018082018355600092835260209092200180546001600160a01b0319166001600160a01b038981169190911790915590840154161561484d576001830154604080516001600160a01b03928316815291881660208301526060828201819052601d908301527f5265666572656520616c7265616479206861766520696270207365742e0000006080830152517fffca51efd3fa9dd00c7ad8de67cce6deeb82e78db2d05fe4b84079eca71665109181900360a00190a1614a3c565b60018101546001600160a01b03166149ec576001810154604080516001600160a01b039283168152918816602083015260608282018190526032908301527f5a65726f20616464726573732063616e6e6f74206265206962702e20536574746080830152710696e672075702064656661756c74206962760741b60a0830152517fffca51efd3fa9dd00c7ad8de67cce6deeb82e78db2d05fe4b84079eca71665109181900360c00190a16000846001600160a01b031663b6b248de6040518163ffffffff1660e01b8152600401602060405180830381865afa158015614937573d6000803e3d6000fd5b505050506040513d601f19601f8201168201806040525081019061495b9190615269565b600185810180546001600160a01b038481166001600160a01b0319928316811790935592860180549091168217905560408051918252918b16602082015291925060008051602061583a833981519152910160405180910390a1604080516001600160a01b0380841682528916602082015260008051602061583a833981519152910160405180910390a150614a3c565b6001818101805491850180546001600160a01b0319166001600160a01b0393841617905554604080519183168252918816602082015260008051602061583a833981519152910160405180910390a15b60048101805460018082018355600092835260209092200180546001600160a01b0319166001600160a01b0389161790556005820190614a7d908490615664565b8154600181018355600092835260209092206008830401805463ffffffff60079094166004026101000a938402191660ff92909216909202179055915080614ac48161567d565b915050614742565b505b5050505050565b60405163a9059cbb60e01b81526001600160a01b0383811660048301526024820183905284169063a9059cbb906044016020604051808303816000875af1158015614b24573d6000803e3d6000fd5b505050506040513d601f19601f820116820180604052508101906113c991906152f0565b60008161014001518261016001511061429557506001919050565b600082610140015182846101600151614b7c9190615238565b11614b9f57819050818361016001818151614b979190615238565b905250614bc0565b826101600151836101400151614bb5919061524b565b610160840181905290505b92915050565b614bcf81614092565b6040516001600160a01b038216907fbc7cd75a20ee27fd9adebab32041f755214dbc6bffa90cc0225b39da2e5c2d3b90600090a250565b60606001600160a01b0383163b614c6e5760405162461bcd60e51b815260206004820152602660248201527f416464726573733a2064656c65676174652063616c6c20746f206e6f6e2d636f6044820152651b9d1c9858dd60d21b60648201526084016108d0565b600080846001600160a01b031684604051614c8991906157a3565b600060405180830381855af49150503d8060008114614cc4576040519150601f19603f3d011682016040523d82523d6000602084013e614cc9565b606091505b5091509150614cf1828260405180606001604052806027815260200161581360279139614cfa565b95945050505050565b60608315614d09575081614274565b6142748383815115614d1e5781518083602001fd5b8060405162461bcd60e51b81526004016108d091906157bf565b6001600160a01b038116811461096d57600080fd5b600060208284031215614d5f57600080fd5b813561427481614d38565b60ff8116811461096d57600080fd5b600080600060608486031215614d8e57600080fd5b8335614d9981614d38565b92506020840135614da981614d6a565b91506040840135614db981614d38565b809150509250925092565b60008060408385031215614dd757600080fd5b8235614de281614d38565b91506020830135614df281614d38565b809150509250929050565b634e487b7160e01b600052604160045260246000fd5b60405160c0810167ffffffffffffffff81118282101715614e3657614e36614dfd565b60405290565b604051601f8201601f1916810167ffffffffffffffff81118282101715614e6557614e65614dfd565b604052919050565b600067ffffffffffffffff821115614e8757614e87614dfd565b50601f01601f191660200190565b60008060408385031215614ea857600080fd5b8235614eb381614d38565b9150602083013567ffffffffffffffff811115614ecf57600080fd5b8301601f81018513614ee057600080fd5b8035614ef3614eee82614e6d565b614e3c565b818152866020838501011115614f0857600080fd5b816020840160208301376000602083830101528093505050509250929050565b60006060820185151583526020606081850152818651808452608086019150828801935060005b81811015614f7157845163ffffffff1683529383019391830191600101614f4f565b5050809350505050826040830152949350505050565b600081518084526020808501945080840160005b83811015614fc05781516001600160a01b031687529582019590820190600101614f9b565b509495945050505050565b604081526000614fde6040830185614f87565b90508260208301529392505050565b600081518084526020808501945080840160005b83811015614fc057815163ffffffff1687529582019590820190600101615001565b6020815261503a60208201835163ffffffff169052565b6000602083015161505660408401826001600160a01b03169052565b5060408301516001600160a01b03811660608401525060608301516001600160a01b03811660808401525060808301516102408060a085015261509d610260850183614f87565b915060a0850151601f19808685030160c08701526150bb8483614f87565b935060c08701519150808685030160e08701526150d88483614fed565b60e088015161010088810191909152880151610120808901919091528801516101408089019190915288015161016080890191909152880151610180808901919091528801516101a0808901919091528801516101c0808901919091528801516101e0808901919091528801516102008089019190915288015190945091506102206151678188018415159052565b8701518685039091018387015290506151808382614fed565b9695505050505050565b6020808252602c908201527f46756e6374696f6e206d7573742062652063616c6c6564207468726f7567682060408201526b19195b1959d85d1958d85b1b60a21b606082015260800190565b6020808252602c908201527f46756e6374696f6e206d7573742062652063616c6c6564207468726f7567682060408201526b6163746976652070726f787960a01b606082015260800190565b634e487b7160e01b600052601160045260246000fd5b80820180821115614bc057614bc0615222565b81810381811115614bc057614bc0615222565b805161429581614d38565b60006020828403121561527b57600080fd5b815161427481614d38565b634e487b7160e01b600052601260045260246000fd5b6000826152ab576152ab615286565b500490565b8082028115828204841417614bc057614bc0615222565b6000602082840312156152d957600080fd5b5051919050565b8051801515811461429557600080fd5b60006020828403121561530257600080fd5b614274826152e0565b6020808252602b908201527f496e697469616c697a61626c653a20636f6e7472616374206973206e6f74206960408201526a6e697469616c697a696e6760a81b606082015260800190565b805161429581614d6a565b60005b8381101561537c578181015183820152602001615364565b50506000910152565b600082601f83011261539657600080fd5b81516153a4614eee82614e6d565b8181528460208386010111156153b957600080fd5b6153ca826020830160208701615361565b949350505050565b6000602082840312156153e457600080fd5b815167ffffffffffffffff808211156153fc57600080fd5b908301906080828603121561541057600080fd5b60405160808101818110838211171561542b5761542b614dfd565b604052825161543981614d6a565b815260208301518281111561544d57600080fd5b61545987828601615385565b602083015250604083015160408201526060830151606082015280935050505092915050565b60006020828403121561549157600080fd5b815167ffffffffffffffff808211156154a957600080fd5b9083019060c082860312156154bd57600080fd5b6154c5614e13565b6154ce8361525e565b81526020830151828111156154e257600080fd5b6154ee87828601615385565b60208301525060408301518281111561550657600080fd5b61551287828601615385565b60408301525061552460608401615356565b60608201526155356080840161525e565b608082015261554660a084016152e0565b60a082015295945050505050565b6000602080838503121561556757600080fd5b825167ffffffffffffffff8082111561557f57600080fd5b818501915085601f83011261559357600080fd5b8151818111156155a5576155a5614dfd565b8060051b91506155b6848301614e3c565b81815291830184019184810190888411156155d057600080fd5b938501935b83851015615602578451925061ffff831683146155f25760008081fd5b82825293850193908501906155d5565b98975050505050505050565b600063ffffffff80831681810361562757615627615222565b6001019392505050565b60006020828403121561564357600080fd5b815161427481614d6a565b634e487b7160e01b600052603260045260246000fd5b60ff8181168382160190811115614bc057614bc0615222565b600060ff821660ff810361569357615693615222565b60010192915050565b6000826156ab576156ab615286565b500690565b600181815b808511156156eb5781600019048211156156d1576156d1615222565b808516156156de57918102915b93841c93908002906156b5565b509250929050565b60008261570257506001614bc0565b8161570f57506000614bc0565b8160018114615725576002811461572f5761574b565b6001915050614bc0565b60ff84111561574057615740615222565b50506001821b614bc0565b5060208310610133831016604e8410600b841016171561576e575081810a614bc0565b61577883836156b0565b806000190482111561578c5761578c615222565b029392505050565b600061427460ff8416836156f3565b600082516157b5818460208701615361565b9190910192915050565b60208152600082518060208401526157de816040850160208701615361565b601f01601f1916919091016040019291505056fe360894a13ba1a3210667c828492db98dca3e2076cc3735a920a3ca505d382bbc416464726573733a206c6f772d6c6576656c2064656c65676174652063616c6c206661696c656400f37bd73ff29ab549d774afc91445bf33292ed9a4b4b4177fb1e61ff3c58469a2646970667358221220d0be9757fa1b1537b1ebb258cdf6846a268fdd8be32490b6bb36039b12d6b91364736f6c63430008120033",
  "linkReferences": {},
  "deployedLinkReferences": {}
}