{
  "_format": "hh-sol-artifact-1",
  "contractName": "ReferralV1Upgradeable",
  "sourceName": "contracts/ReferralV1Upgradeable.sol",
  "abi": [
    {
      "anonymous": false,
      "inputs": [
        {
          "indexed": false,
          "internalType": "address",
          "name": "previousAdmin",
          "type": "address"
        },
        {
          "indexed": false,
          "internalType": "address",
          "name": "newAdmin",
          "type": "address"
        }
      ],
      "name": "AdminChanged",
      "type": "event"
    },
    {
      "anonymous": false,
      "inputs": [
        {
          "indexed": true,
          "internalType": "address",
          "name": "beacon",
          "type": "address"
        }
      ],
      "name": "BeaconUpgraded",
      "type": "event"
    },
    {
      "anonymous": false,
      "inputs": [
        {
          "indexed": false,
          "internalType": "address",
          "name": "globalAddress",
          "type": "address"
        },
        {
          "indexed": false,
          "internalType": "address",
          "name": "userAddress",
          "type": "address"
        },
        {
          "indexed": false,
          "internalType": "uint256",
          "name": "registrationValue",
          "type": "uint256"
        },
        {
          "indexed": false,
          "internalType": "uint256",
          "name": "rewardValue",
          "type": "uint256"
        },
        {
          "indexed": false,
          "internalType": "uint16",
          "name": "rewardRate",
          "type": "uint16"
        },
        {
          "indexed": false,
          "internalType": "uint16",
          "name": "rewardRateDecimals",
          "type": "uint16"
        },
        {
          "indexed": false,
          "internalType": "string",
          "name": "reason",
          "type": "string"
        }
      ],
      "name": "GlobalRewardsNotPaid",
      "type": "event"
    },
    {
      "anonymous": false,
      "inputs": [
        {
          "indexed": false,
          "internalType": "address",
          "name": "globalAddress",
          "type": "address"
        },
        {
          "indexed": false,
          "internalType": "address",
          "name": "userAddress",
          "type": "address"
        },
        {
          "indexed": false,
          "internalType": "uint256",
          "name": "registrationValue",
          "type": "uint256"
        },
        {
          "indexed": false,
          "internalType": "uint256",
          "name": "rewardValue",
          "type": "uint256"
        },
        {
          "indexed": false,
          "internalType": "uint16",
          "name": "rewardRate",
          "type": "uint16"
        },
        {
          "indexed": false,
          "internalType": "uint16",
          "name": "rewardRateDecimals",
          "type": "uint16"
        }
      ],
      "name": "GlobalRewardsPaid",
      "type": "event"
    },
    {
      "anonymous": false,
      "inputs": [
        {
          "indexed": false,
          "internalType": "address",
          "name": "ibpAddress",
          "type": "address"
        },
        {
          "indexed": false,
          "internalType": "address",
          "name": "userAddress",
          "type": "address"
        }
      ],
      "name": "IBPAdded",
      "type": "event"
    },
    {
      "anonymous": false,
      "inputs": [
        {
          "indexed": false,
          "internalType": "address",
          "name": "ibpAddress",
          "type": "address"
        },
        {
          "indexed": false,
          "internalType": "address",
          "name": "userAddress",
          "type": "address"
        },
        {
          "indexed": false,
          "internalType": "string",
          "name": "reason",
          "type": "string"
        }
      ],
      "name": "IBPNotAdded",
      "type": "event"
    },
    {
      "anonymous": false,
      "inputs": [
        {
          "indexed": false,
          "internalType": "address",
          "name": "ibpAddress",
          "type": "address"
        },
        {
          "indexed": false,
          "internalType": "string",
          "name": "reason",
          "type": "string"
        }
      ],
      "name": "IBPRewardsNotPaid",
      "type": "event"
    },
    {
      "anonymous": false,
      "inputs": [
        {
          "indexed": false,
          "internalType": "address",
          "name": "ibpAddress",
          "type": "address"
        },
        {
          "indexed": false,
          "internalType": "address",
          "name": "userAddress",
          "type": "address"
        },
        {
          "indexed": false,
          "internalType": "uint256",
          "name": "businessValue",
          "type": "uint256"
        },
        {
          "indexed": false,
          "internalType": "uint256",
          "name": "rewardValue",
          "type": "uint256"
        },
        {
          "indexed": false,
          "internalType": "uint16",
          "name": "rewardRate",
          "type": "uint16"
        },
        {
          "indexed": false,
          "internalType": "uint16",
          "name": "rewardRateDecimals",
          "type": "uint16"
        }
      ],
      "name": "IBPRewardsPaid",
      "type": "event"
    },
    {
      "anonymous": false,
      "inputs": [
        {
          "indexed": false,
          "internalType": "uint8",
          "name": "version",
          "type": "uint8"
        }
      ],
      "name": "Initialized",
      "type": "event"
    },
    {
      "anonymous": false,
      "inputs": [
        {
          "indexed": false,
          "internalType": "address",
          "name": "userAddress",
          "type": "address"
        },
        {
          "indexed": false,
          "internalType": "string",
          "name": "reason",
          "type": "string"
        }
      ],
      "name": "NoRewardsPaid",
      "type": "event"
    },
    {
      "anonymous": false,
      "inputs": [
        {
          "indexed": true,
          "internalType": "address",
          "name": "previousOwner",
          "type": "address"
        },
        {
          "indexed": true,
          "internalType": "address",
          "name": "newOwner",
          "type": "address"
        }
      ],
      "name": "OwnershipTransferred",
      "type": "event"
    },
    {
      "anonymous": false,
      "inputs": [
        {
          "indexed": false,
          "internalType": "address",
          "name": "account",
          "type": "address"
        }
      ],
      "name": "Paused",
      "type": "event"
    },
    {
      "anonymous": false,
      "inputs": [
        {
          "indexed": false,
          "internalType": "address",
          "name": "referrerAddress",
          "type": "address"
        },
        {
          "indexed": false,
          "internalType": "address",
          "name": "userAddress",
          "type": "address"
        },
        {
          "indexed": false,
          "internalType": "uint256",
          "name": "value",
          "type": "uint256"
        },
        {
          "indexed": false,
          "internalType": "uint256",
          "name": "rewardValue",
          "type": "uint256"
        },
        {
          "indexed": false,
          "internalType": "uint256",
          "name": "rewardRate",
          "type": "uint256"
        },
        {
          "indexed": false,
          "internalType": "uint256",
          "name": "rewardRateDecimals",
          "type": "uint256"
        },
        {
          "indexed": false,
          "internalType": "uint32",
          "name": "level",
          "type": "uint32"
        }
      ],
      "name": "ReferralRewardsPaid",
      "type": "event"
    },
    {
      "anonymous": false,
      "inputs": [
        {
          "indexed": false,
          "internalType": "address",
          "name": "referrerAddress",
          "type": "address"
        },
        {
          "indexed": false,
          "internalType": "address",
          "name": "refereeAddress",
          "type": "address"
        }
      ],
      "name": "ReferrerAdded",
      "type": "event"
    },
    {
      "anonymous": false,
      "inputs": [
        {
          "indexed": false,
          "internalType": "address",
          "name": "referrerAddress",
          "type": "address"
        },
        {
          "indexed": false,
          "internalType": "address",
          "name": "refereeAddress",
          "type": "address"
        },
        {
          "indexed": false,
          "internalType": "string",
          "name": "reason",
          "type": "string"
        }
      ],
      "name": "ReferrerNotAdded",
      "type": "event"
    },
    {
      "anonymous": false,
      "inputs": [
        {
          "indexed": false,
          "internalType": "address",
          "name": "userAddress",
          "type": "address"
        },
        {
          "indexed": false,
          "internalType": "uint32",
          "name": "userId",
          "type": "uint32"
        },
        {
          "indexed": false,
          "internalType": "uint8",
          "name": "planId",
          "type": "uint8"
        },
        {
          "indexed": false,
          "internalType": "address",
          "name": "referrerAddress",
          "type": "address"
        }
      ],
      "name": "Registration",
      "type": "event"
    },
    {
      "anonymous": false,
      "inputs": [
        {
          "indexed": false,
          "internalType": "address",
          "name": "parentAddress",
          "type": "address"
        },
        {
          "indexed": false,
          "internalType": "address",
          "name": "referrerAddress",
          "type": "address"
        },
        {
          "indexed": false,
          "internalType": "address",
          "name": "refereeAddress",
          "type": "address"
        },
        {
          "indexed": false,
          "internalType": "uint32",
          "name": "level",
          "type": "uint32"
        }
      ],
      "name": "TeamAddressAdded",
      "type": "event"
    },
    {
      "anonymous": false,
      "inputs": [
        {
          "indexed": false,
          "internalType": "address",
          "name": "account",
          "type": "address"
        }
      ],
      "name": "Unpaused",
      "type": "event"
    },
    {
      "anonymous": false,
      "inputs": [
        {
          "indexed": true,
          "internalType": "address",
          "name": "implementation",
          "type": "address"
        }
      ],
      "name": "Upgraded",
      "type": "event"
    },
    {
      "anonymous": false,
      "inputs": [
        {
          "indexed": false,
          "internalType": "address",
          "name": "globalAddress",
          "type": "address"
        },
        {
          "indexed": false,
          "internalType": "uint256",
          "name": "rewardValue",
          "type": "uint256"
        }
      ],
      "name": "WeeklyRewardsPaid",
      "type": "event"
    },
    {
      "inputs": [
        {
          "internalType": "address",
          "name": "_userAddress",
          "type": "address"
        },
        {
          "internalType": "address",
          "name": "_ibpAddress",
          "type": "address"
        },
        {
          "internalType": "uint256",
          "name": "_maxLimitInDecimals",
          "type": "uint256"
        }
      ],
      "name": "addIbpToAddressAdmin",
      "outputs": [],
      "stateMutability": "nonpayable",
      "type": "function"
    },
    {
      "inputs": [
        {
          "internalType": "address",
          "name": "_tokenAddress",
          "type": "address"
        }
      ],
      "name": "distributeWeeklyReward",
      "outputs": [
        {
          "internalType": "address",
          "name": "",
          "type": "address"
        }
      ],
      "stateMutability": "nonpayable",
      "type": "function"
    },
    {
      "inputs": [],
      "name": "getRegistrationsStats",
      "outputs": [
        {
          "internalType": "uint32",
          "name": "totalUser",
          "type": "uint32"
        },
        {
          "internalType": "uint256",
          "name": "totalRegistrationValue",
          "type": "uint256"
        },
        {
          "internalType": "uint256",
          "name": "totalReferralPaid",
          "type": "uint256"
        },
        {
          "internalType": "uint256",
          "name": "totalGlobalRewardsPaid",
          "type": "uint256"
        },
        {
          "internalType": "uint256",
          "name": "totalWeeklyRewardsPaid",
          "type": "uint256"
        },
        {
          "internalType": "uint256",
          "name": "totalCoreMembershipRewardPaid",
          "type": "uint256"
        },
        {
          "internalType": "uint256",
          "name": "totalIbpRewardsPaid",
          "type": "uint256"
        }
      ],
      "stateMutability": "view",
      "type": "function"
    },
    {
      "inputs": [
        {
          "internalType": "address",
          "name": "_userAddress",
          "type": "address"
        }
      ],
      "name": "getUserAccount",
      "outputs": [
        {
          "components": [
            {
              "internalType": "uint32",
              "name": "userId",
              "type": "uint32"
            },
            {
              "internalType": "address",
              "name": "selfAddress",
              "type": "address"
            },
            {
              "internalType": "address",
              "name": "ibpAddress",
              "type": "address"
            },
            {
              "internalType": "address",
              "name": "referrerAddress",
              "type": "address"
            },
            {
              "internalType": "address[]",
              "name": "refereeAddresses",
              "type": "address[]"
            },
            {
              "internalType": "address[]",
              "name": "teamAddress",
              "type": "address[]"
            },
            {
              "internalType": "uint32[]",
              "name": "teamLevels",
              "type": "uint32[]"
            },
            {
              "internalType": "uint256",
              "name": "selfBusiness",
              "type": "uint256"
            },
            {
              "internalType": "uint256",
              "name": "directBusiness",
              "type": "uint256"
            },
            {
              "internalType": "uint256",
              "name": "teamBusiness",
              "type": "uint256"
            },
            {
              "internalType": "uint256",
              "name": "maxLimit",
              "type": "uint256"
            },
            {
              "internalType": "uint256",
              "name": "currentLimit",
              "type": "uint256"
            },
            {
              "internalType": "uint256",
              "name": "referralRewards",
              "type": "uint256"
            },
            {
              "internalType": "uint256",
              "name": "globalRewards",
              "type": "uint256"
            },
            {
              "internalType": "uint256",
              "name": "weeklyRewards",
              "type": "uint256"
            },
            {
              "internalType": "uint256",
              "name": "ibpRewards",
              "type": "uint256"
            },
            {
              "internalType": "bool",
              "name": "isGlobal",
              "type": "bool"
            },
            {
              "internalType": "uint32[]",
              "name": "globalIndexes",
              "type": "uint32[]"
            }
          ],
          "internalType": "struct AccountStruct",
          "name": "",
          "type": "tuple"
        }
      ],
      "stateMutability": "view",
      "type": "function"
    },
    {
      "inputs": [
        {
          "internalType": "address",
          "name": "_userAddress",
          "type": "address"
        }
      ],
      "name": "getUserBusiness",
      "outputs": [
        {
          "internalType": "uint256",
          "name": "selfBusiness",
          "type": "uint256"
        },
        {
          "internalType": "uint256",
          "name": "directBusiness",
          "type": "uint256"
        },
        {
          "internalType": "uint256",
          "name": "teamBusiness",
          "type": "uint256"
        },
        {
          "internalType": "uint256",
          "name": "totalBusiness",
          "type": "uint256"
        }
      ],
      "stateMutability": "view",
      "type": "function"
    },
    {
      "inputs": [
        {
          "internalType": "address",
          "name": "_userAddress",
          "type": "address"
        }
      ],
      "name": "getUserIbpAddress",
      "outputs": [
        {
          "internalType": "address",
          "name": "",
          "type": "address"
        }
      ],
      "stateMutability": "view",
      "type": "function"
    },
    {
      "inputs": [
        {
          "internalType": "address",
          "name": "_userAddress",
          "type": "address"
        }
      ],
      "name": "getUserLimit",
      "outputs": [
        {
          "internalType": "uint256",
          "name": "maxLimit",
          "type": "uint256"
        },
        {
          "internalType": "uint256",
          "name": "currentLimit",
          "type": "uint256"
        },
        {
          "internalType": "uint256",
          "name": "limitRemaingvalue",
          "type": "uint256"
        }
      ],
      "stateMutability": "view",
      "type": "function"
    },
    {
      "inputs": [
        {
          "internalType": "address",
          "name": "_userAddress",
          "type": "address"
        }
      ],
      "name": "getUserRewards",
      "outputs": [
        {
          "internalType": "uint256",
          "name": "referralReward",
          "type": "uint256"
        },
        {
          "internalType": "uint256",
          "name": "globalReward",
          "type": "uint256"
        },
        {
          "internalType": "uint256",
          "name": "weeklyReward",
          "type": "uint256"
        },
        {
          "internalType": "uint256",
          "name": "ibpReward",
          "type": "uint256"
        },
        {
          "internalType": "uint256",
          "name": "totalIncome",
          "type": "uint256"
        }
      ],
      "stateMutability": "view",
      "type": "function"
    },
    {
      "inputs": [
        {
          "internalType": "address",
          "name": "_userAddress",
          "type": "address"
        }
      ],
      "name": "getUserTeam",
      "outputs": [
        {
          "internalType": "address",
          "name": "referrer",
          "type": "address"
        },
        {
          "internalType": "address[]",
          "name": "referees",
          "type": "address[]"
        },
        {
          "internalType": "uint256",
          "name": "refereeCount",
          "type": "uint256"
        },
        {
          "internalType": "address[]",
          "name": "team",
          "type": "address[]"
        },
        {
          "internalType": "uint32[]",
          "name": "teamLevels",
          "type": "uint32[]"
        },
        {
          "internalType": "uint256",
          "name": "teamCount",
          "type": "uint256"
        }
      ],
      "stateMutability": "view",
      "type": "function"
    },
    {
      "inputs": [],
      "name": "getVariablesContract",
      "outputs": [
        {
          "internalType": "address",
          "name": "",
          "type": "address"
        }
      ],
      "stateMutability": "view",
      "type": "function"
    },
    {
      "inputs": [],
      "name": "getWeeklyRewardToBeDistributed",
      "outputs": [
        {
          "internalType": "uint256",
          "name": "",
          "type": "uint256"
        }
      ],
      "stateMutability": "view",
      "type": "function"
    },
    {
      "inputs": [],
      "name": "getWeeklyRewardsRemainTime",
      "outputs": [
        {
          "internalType": "uint256",
          "name": "",
          "type": "uint256"
        }
      ],
      "stateMutability": "view",
      "type": "function"
    },
    {
      "inputs": [],
      "name": "initialize",
      "outputs": [],
      "stateMutability": "nonpayable",
      "type": "function"
    },
    {
      "inputs": [
        {
          "internalType": "address",
          "name": "_userAddress",
          "type": "address"
        }
      ],
      "name": "isUserInGlobalList",
      "outputs": [
        {
          "internalType": "bool",
          "name": "isInList",
          "type": "bool"
        },
        {
          "internalType": "uint32[]",
          "name": "indexes",
          "type": "uint32[]"
        },
        {
          "internalType": "uint256",
          "name": "totalGlobalIds",
          "type": "uint256"
        }
      ],
      "stateMutability": "view",
      "type": "function"
    },
    {
      "inputs": [],
      "name": "owner",
      "outputs": [
        {
          "internalType": "address",
          "name": "",
          "type": "address"
        }
      ],
      "stateMutability": "view",
      "type": "function"
    },
    {
      "inputs": [],
      "name": "pause",
      "outputs": [],
      "stateMutability": "nonpayable",
      "type": "function"
    },
    {
      "inputs": [],
      "name": "paused",
      "outputs": [
        {
          "internalType": "bool",
          "name": "",
          "type": "bool"
        }
      ],
      "stateMutability": "view",
      "type": "function"
    },
    {
      "inputs": [],
      "name": "proxiableUUID",
      "outputs": [
        {
          "internalType": "bytes32",
          "name": "",
          "type": "bytes32"
        }
      ],
      "stateMutability": "view",
      "type": "function"
    },
    {
      "inputs": [
        {
          "internalType": "address",
          "name": "_referrer",
          "type": "address"
        },
        {
          "internalType": "uint8",
          "name": "_planId",
          "type": "uint8"
        },
        {
          "internalType": "address",
          "name": "_tokenAddress",
          "type": "address"
        }
      ],
      "name": "registrationWithToken",
      "outputs": [],
      "stateMutability": "nonpayable",
      "type": "function"
    },
    {
      "inputs": [
        {
          "internalType": "address",
          "name": "_referrer",
          "type": "address"
        },
        {
          "internalType": "address",
          "name": "_userAddress",
          "type": "address"
        },
        {
          "internalType": "uint8",
          "name": "_planId",
          "type": "uint8"
        },
        {
          "internalType": "address",
          "name": "_tokenAddress",
          "type": "address"
        }
      ],
      "name": "registrationWithTokenAdmin",
      "outputs": [],
      "stateMutability": "nonpayable",
      "type": "function"
    },
    {
      "inputs": [
        {
          "internalType": "address",
          "name": "_userAddress",
          "type": "address"
        }
      ],
      "name": "removeIbpFromAddressAdmin",
      "outputs": [],
      "stateMutability": "nonpayable",
      "type": "function"
    },
    {
      "inputs": [],
      "name": "renounceOwnership",
      "outputs": [],
      "stateMutability": "nonpayable",
      "type": "function"
    },
    {
      "inputs": [
        {
          "internalType": "address",
          "name": "_contractAddress",
          "type": "address"
        }
      ],
      "name": "setVariablesContract",
      "outputs": [],
      "stateMutability": "nonpayable",
      "type": "function"
    },
    {
      "inputs": [
        {
          "internalType": "address",
          "name": "newOwner",
          "type": "address"
        }
      ],
      "name": "transferOwnership",
      "outputs": [],
      "stateMutability": "nonpayable",
      "type": "function"
    },
    {
      "inputs": [],
      "name": "unpause",
      "outputs": [],
      "stateMutability": "nonpayable",
      "type": "function"
    },
    {
      "inputs": [
        {
          "internalType": "address",
          "name": "newImplementation",
          "type": "address"
        }
      ],
      "name": "upgradeTo",
      "outputs": [],
      "stateMutability": "nonpayable",
      "type": "function"
    },
    {
      "inputs": [
        {
          "internalType": "address",
          "name": "newImplementation",
          "type": "address"
        },
        {
          "internalType": "bytes",
          "name": "data",
          "type": "bytes"
        }
      ],
      "name": "upgradeToAndCall",
      "outputs": [],
      "stateMutability": "payable",
      "type": "function"
    },
    {
      "stateMutability": "payable",
      "type": "receive"
    }
  ],
  "bytecode": "0x60a06040523060805234801561001457600080fd5b506080516157ee6200004d600039600081816108d00152818161091901528181610c9501528181610cd50152610d6801526157ee6000f3fe6080604052600436106101a05760003560e01c80638da5cb5b116100ec578063e6f6769e1161008a578063f2fde38b11610064578063f2fde38b1461050c578063f87127b41461052c578063faeda7e51461056c578063fb47e0161461059e57600080fd5b8063e6f6769e14610493578063e9587e86146104b3578063f13a143f146104ee57600080fd5b8063aa8d713a116100c6578063aa8d713a14610413578063b1e0c09014610433578063d277b8a914610453578063df1081761461047357600080fd5b80638da5cb5b1461038f578063967012eb146103c1578063986992fa146103fe57600080fd5b80634f1ef28611610159578063715018a611610133578063715018a61461033b5780638129fc1c146103505780638456cb5914610365578063846688f71461037a57600080fd5b80634f1ef286146102e257806352d1902d146102f55780635c975abb1461031857600080fd5b80630690c6a8146101ac578063078b0fb7146102145780630ba0dba31461025c5780633659cfe61461027e5780633ef575e91461029e5780633f4ba83a146102cd57600080fd5b366101a757005b600080fd5b3480156101b857600080fd5b5060fd5460fe5461010154610102546101035461010454610105546040805163ffffffff90981688526020880196909652948601939093526060850191909152608084015260a083015260c082015260e0015b60405180910390f35b34801561022057600080fd5b5061023461022f366004614c2c565b6105cb565b604080519586526020860194909452928401919091526060830152608082015260a00161020b565b34801561026857600080fd5b5061027c610277366004614c2c565b61089c565b005b34801561028a57600080fd5b5061027c610299366004614c2c565b6108c6565b3480156102aa57600080fd5b506102be6102b9366004614c2c565b6109ae565b60405161020b93929190614c8a565b3480156102d957600080fd5b5061027c610c79565b61027c6102f0366004614d4d565b610c8b565b34801561030157600080fd5b5061030a610d5b565b60405190815260200161020b565b34801561032457600080fd5b5060335460ff16604051901515815260200161020b565b34801561034757600080fd5b5061027c610e0e565b34801561035c57600080fd5b5061027c610e20565b34801561037157600080fd5b5061027c610f6c565b34801561038657600080fd5b5060ff5461030a565b34801561039b57600080fd5b506065546001600160a01b03165b6040516001600160a01b03909116815260200161020b565b3480156103cd57600080fd5b506103a96103dc366004614c2c565b6001600160a01b03908116600090815261010660205260409020600101541690565b34801561040a57600080fd5b5061030a610f7c565b34801561041f57600080fd5b5061027c61042e366004614c2c565b610fb5565b34801561043f57600080fd5b5061027c61044e366004614def565b6110fb565b34801561045f57600080fd5b506103a961046e366004614c2c565b6111f8565b34801561047f57600080fd5b5061027c61048e366004614e4b565b61141a565b34801561049f57600080fd5b5061027c6104ae366004614e8c565b6114cd565b3480156104bf57600080fd5b506104d36104ce366004614c2c565b6114da565b6040805193845260208401929092529082015260600161020b565b3480156104fa57600080fd5b5060fb546001600160a01b03166103a9565b34801561051857600080fd5b5061027c610527366004614c2c565b6117a0565b34801561053857600080fd5b5061054c610547366004614c2c565b611816565b60408051948552602085019390935291830152606082015260800161020b565b34801561057857600080fd5b5061058c610587366004614c2c565b611ae7565b60405161020b96959493929190614f10565b3480156105aa57600080fd5b506105be6105b9366004614c2c565b611dc0565b60405161020b9190614f74565b6001600160a01b03808216600090815261010660209081526040808320815161024081018352815463ffffffff81168252600160201b90048616818501526001820154861681840152600282015490951660608601526003810180548351818602810186019094528084529495869586958695869586959093608086019383018282801561068257602002820191906000526020600020905b81546001600160a01b03168152600190910190602001808311610664575b50505050508152602001600482018054806020026020016040519081016040528092919081815260200182805480156106e457602002820191906000526020600020905b81546001600160a01b031681526001909101906020018083116106c6575b505050505081526020016005820180548060200260200160405190810160405280929190818152602001828054801561076857602002820191906000526020600020906000905b82829054906101000a900463ffffffff1663ffffffff168152602001906004019060208260030104928301926001038202915080841161072b5790505b5050505050815260200160068201548152602001600782015481526020016008820154815260200160098201548152602001600a8201548152602001600b8201548152602001600c8201548152602001600d8201548152602001600e8201548152602001600f820160009054906101000a900460ff161515151581526020016010820180548060200260200160405190810160405280929190818152602001828054801561086157602002820191906000526020600020906000905b82829054906101000a900463ffffffff1663ffffffff16815260200190600401906020826003010492830192600103820291508084116108245790505b505050919092525050506101808101516101a08201516101c08301516101e084015161016090940151929b919a509850919650945092505050565b6108a461210f565b60fb80546001600160a01b0319166001600160a01b0392909216919091179055565b6001600160a01b037f00000000000000000000000000000000000000000000000000000000000000001630036109175760405162461bcd60e51b815260040161090e906150db565b60405180910390fd5b7f00000000000000000000000000000000000000000000000000000000000000006001600160a01b0316610960600080516020615752833981519152546001600160a01b031690565b6001600160a01b0316146109865760405162461bcd60e51b815260040161090e90615127565b61098f81612169565b604080516000808252602082019092526109ab91839190612171565b50565b6001600160a01b03808216600090815261010660209081526040808320815161024081018352815463ffffffff81168252600160201b9004861681850152600182015486168184015260028201549095166060868101919091526003820180548451818702810187019095528085529596919587958695939493608086019390929091830182828015610a6a57602002820191906000526020600020905b81546001600160a01b03168152600190910190602001808311610a4c575b5050505050815260200160048201805480602002602001604051908101604052809291908181526020018280548015610acc57602002820191906000526020600020905b81546001600160a01b03168152600190910190602001808311610aae575b5050505050815260200160058201805480602002602001604051908101604052809291908181526020018280548015610b5057602002820191906000526020600020906000905b82829054906101000a900463ffffffff1663ffffffff1681526020019060040190602082600301049283019260010382029150808411610b135790505b5050505050815260200160068201548152602001600782015481526020016008820154815260200160098201548152602001600a8201548152602001600b8201548152602001600c8201548152602001600d8201548152602001600e8201548152602001600f820160009054906101000a900460ff1615151515815260200160108201805480602002602001604051908101604052809291908181526020018280548015610c4957602002820191906000526020600020906000905b82829054906101000a900463ffffffff1663ffffffff1681526020019060040190602082600301049283019260010382029150808411610c0c5790505b50505050508152505090506000816102200151511115610c6857600193505b610220015180519395909450915050565b610c8161210f565b610c896122e1565b565b6001600160a01b037f0000000000000000000000000000000000000000000000000000000000000000163003610cd35760405162461bcd60e51b815260040161090e906150db565b7f00000000000000000000000000000000000000000000000000000000000000006001600160a01b0316610d1c600080516020615752833981519152546001600160a01b031690565b6001600160a01b031614610d425760405162461bcd60e51b815260040161090e90615127565b610d4b82612169565b610d5782826001612171565b5050565b6000306001600160a01b037f00000000000000000000000000000000000000000000000000000000000000001614610dfb5760405162461bcd60e51b815260206004820152603860248201527f555550535570677261646561626c653a206d757374206e6f742062652063616c60448201527f6c6564207468726f7567682064656c656761746563616c6c0000000000000000606482015260840161090e565b5060008051602061575283398151915290565b610e1661210f565b610c896000612333565b600054610100900460ff1615808015610e405750600054600160ff909116105b80610e5a5750303b158015610e5a575060005460ff166001145b610ebd5760405162461bcd60e51b815260206004820152602e60248201527f496e697469616c697a61626c653a20636f6e747261637420697320616c72656160448201526d191e481a5b9a5d1a585b1a5e995960921b606482015260840161090e565b6000805460ff191660011790558015610ee0576000805461ff0019166101001790555b60fb80546001600160a01b03191673494549e00fe6598e3dc93254c5377c406dda85791790554261010055610f13612385565b610f1b6123b4565b610f236123e3565b80156109ab576000805461ff0019169055604051600181527f7f26b83ff96e1f2b6a682f133852f6798a09c465da95921460cefb3847402498906020015b60405180910390a150565b610f7461210f565b610c8961240a565b6000806101005462093a80610f919190615189565b905042818110610fa45760009250505090565b610fae818361519c565b9250505090565b610fbd61210f565b60fb60009054906101000a90046001600160a01b03166001600160a01b031663b2e6b9126040518163ffffffff1660e01b8152600401602060405180830381865afa158015611010573d6000803e3d6000fd5b505050506040513d601f19601f8201168201806040525081019061103491906151ba565b6001600160a01b038281166000908152610106602090815260409182902060010180546001600160a01b0319169484169490941790935560fb5481516359735c8960e11b8152915160008051602061579983398151915294919093169263b2e6b9129260048082019392918290030181865afa1580156110b8573d6000803e3d6000fd5b505050506040513d601f19601f820116820180604052508101906110dc91906151ba565b604080516001600160a01b039283168152918416602083015201610f61565b60fb60009054906101000a90046001600160a01b03166001600160a01b031663f1012b456040518163ffffffff1660e01b8152600401602060405180830381865afa15801561114e573d6000803e3d6000fd5b505050506040513d601f19601f8201168201806040525081019061117291906151ba565b6001600160a01b0316336001600160a01b0316146111e65760405162461bcd60e51b815260206004820152602b60248201527f4f6e6c792050726573616c6520636f6e74726163742063616e2075736520746860448201526a34b990333ab731ba34b7b760a91b606482015260840161090e565b6111f284848484612447565b50505050565b6000806101005462093a8061120d9190615189565b905042818110156112605760405162461bcd60e51b815260206004820152601c60248201527f5765656b6c792074696d65206973206e6f74206f766572207965742e00000000604482015260640161090e565b600061126a613f2b565b6040516370a0823160e01b81523060048201529091506000906001600160a01b038716906370a0823190602401602060405180830381865afa1580156112b4573d6000803e3d6000fd5b505050506040513d601f19601f820116820180604052508101906112d891906151d7565b60ff54909150808210156113545760405162461bcd60e51b815260206004820152603760248201527f436f6e74726163742068617320696e73756666696369656e742062616c616e6360448201527f6520746f2064697374726962757465207265776172642e000000000000000000606482015260840161090e565b60405163a9059cbb60e01b81526001600160a01b0384811660048301526024820183905288169063a9059cbb906044016020604051808303816000875af11580156113a3573d6000803e3d6000fd5b505050506040513d601f19601f820116820180604052508101906113c79190615200565b50600060ff55604080516001600160a01b0385168152602081018390527ffff6edc60fd30afefcc47525cdf85502200830b22550391f79f9e383df03afad910160405180910390a1509095945050505050565b61142261210f565b6001600160a01b0383811660009081526101066020526040902060010180546001600160a01b03191691841691909117905561146681670de0b6b3a764000061521b565b6001600160a01b0384166000908152610106602052604081206009018054909190611492908490615189565b9091555050604080516001600160a01b03808516825285166020820152600080516020615799833981519152910160405180910390a1505050565b336111f284828585612447565b6001600160a01b03808216600090815261010660209081526040808320815161024081018352815463ffffffff81168252600160201b90048616818501526001820154861681840152600282015490951660608601526003810180548351818602810186019094528084529495869586958695929493608086019392909183018282801561159157602002820191906000526020600020905b81546001600160a01b03168152600190910190602001808311611573575b50505050508152602001600482018054806020026020016040519081016040528092919081815260200182805480156115f357602002820191906000526020600020905b81546001600160a01b031681526001909101906020018083116115d5575b505050505081526020016005820180548060200260200160405190810160405280929190818152602001828054801561167757602002820191906000526020600020906000905b82829054906101000a900463ffffffff1663ffffffff168152602001906004019060208260030104928301926001038202915080841161163a5790505b5050505050815260200160068201548152602001600782015481526020016008820154815260200160098201548152602001600a8201548152602001600b8201548152602001600c8201548152602001600d8201548152602001600e8201548152602001600f820160009054906101000a900460ff161515151581526020016010820180548060200260200160405190810160405280929190818152602001828054801561177057602002820191906000526020600020906000905b82829054906101000a900463ffffffff1663ffffffff16815260200190600401906020826003010492830192600103820291508084116117335790505b5050509190925250505061014081015161016082015190955093509050611797838561519c565b93959294505050565b6117a861210f565b6001600160a01b03811661180d5760405162461bcd60e51b815260206004820152602660248201527f4f776e61626c653a206e6577206f776e657220697320746865207a65726f206160448201526564647265737360d01b606482015260840161090e565b6109ab81612333565b6001600160a01b03808216600090815261010660209081526040808320815161024081018352815463ffffffff81168252600160201b9004861681850152600182015486168184015260028201549095166060860152600381018054835181860281018601909452808452949586958695869586959394608086019391929091908301828280156118d057602002820191906000526020600020905b81546001600160a01b031681526001909101906020018083116118b2575b505050505081526020016004820180548060200260200160405190810160405280929190818152602001828054801561193257602002820191906000526020600020905b81546001600160a01b03168152600190910190602001808311611914575b50505050508152602001600582018054806020026020016040519081016040528092919081815260200182805480156119b657602002820191906000526020600020906000905b82829054906101000a900463ffffffff1663ffffffff16815260200190600401906020826003010492830192600103820291508084116119795790505b5050505050815260200160068201548152602001600782015481526020016008820154815260200160098201548152602001600a8201548152602001600b8201548152602001600c8201548152602001600d8201548152602001600e8201548152602001600f820160009054906101000a900460ff1615151515815260200160108201805480602002602001604051908101604052809291908181526020018280548015611aaf57602002820191906000526020600020906000905b82829054906101000a900463ffffffff1663ffffffff1681526020019060040190602082600301049283019260010382029150808411611a725790505b5050509190925250505060e0810151610100820151610120830151919750955093509050611add8584615189565b9150509193509193565b6001600160a01b03808216600090815261010660209081526040808320815161024081018352815463ffffffff81168252600160201b90048616818501526001820154861681840152600282015490951660608681019190915260038201805484518187028101870190955280855295969195879587958695889586959094919360808601939290830182828015611ba857602002820191906000526020600020905b81546001600160a01b03168152600190910190602001808311611b8a575b5050505050815260200160048201805480602002602001604051908101604052809291908181526020018280548015611c0a57602002820191906000526020600020905b81546001600160a01b03168152600190910190602001808311611bec575b5050505050815260200160058201805480602002602001604051908101604052809291908181526020018280548015611c8e57602002820191906000526020600020906000905b82829054906101000a900463ffffffff1663ffffffff1681526020019060040190602082600301049283019260010382029150808411611c515790505b5050505050815260200160068201548152602001600782015481526020016008820154815260200160098201548152602001600a8201548152602001600b8201548152602001600c8201548152602001600d8201548152602001600e8201548152602001600f820160009054906101000a900460ff1615151515815260200160108201805480602002602001604051908101604052809291908181526020018280548015611d8757602002820191906000526020600020906000905b82829054906101000a900463ffffffff1663ffffffff1681526020019060040190602082600301049283019260010382029150808411611d4a5790505b5050509190925250505060608101516080820151805160a084015160c0909401518451939d929c50909a50929850919650945092505050565b611e71604051806102400160405280600063ffffffff16815260200160006001600160a01b0316815260200160006001600160a01b0316815260200160006001600160a01b03168152602001606081526020016060815260200160608152602001600081526020016000815260200160008152602001600081526020016000815260200160008152602001600081526020016000815260200160008152602001600015158152602001606081525090565b6001600160a01b0380831660009081526101066020908152604091829020825161024081018452815463ffffffff81168252600160201b900485168184015260018201548516818501526002820154909416606085015260038101805484518185028101850190955280855291936080860193909290830182828015611f2057602002820191906000526020600020905b81546001600160a01b03168152600190910190602001808311611f02575b5050505050815260200160048201805480602002602001604051908101604052809291908181526020018280548015611f8257602002820191906000526020600020905b81546001600160a01b03168152600190910190602001808311611f64575b505050505081526020016005820180548060200260200160405190810160405280929190818152602001828054801561200657602002820191906000526020600020906000905b82829054906101000a900463ffffffff1663ffffffff1681526020019060040190602082600301049283019260010382029150808411611fc95790505b5050505050815260200160068201548152602001600782015481526020016008820154815260200160098201548152602001600a8201548152602001600b8201548152602001600c8201548152602001600d8201548152602001600e8201548152602001600f820160009054906101000a900460ff16151515158152602001601082018054806020026020016040519081016040528092919081815260200182805480156120ff57602002820191906000526020600020906000905b82829054906101000a900463ffffffff1663ffffffff16815260200190600401906020826003010492830192600103820291508084116120c25790505b5050505050815250509050919050565b6065546001600160a01b03163314610c895760405162461bcd60e51b815260206004820181905260248201527f4f776e61626c653a2063616c6c6572206973206e6f7420746865206f776e6572604482015260640161090e565b6109ab61210f565b7f4910fdfa16fed3260ed0e7147f7cc6da11a60208b5b9406d12a635614ffd91435460ff16156121a9576121a483613fb2565b505050565b826001600160a01b03166352d1902d6040518163ffffffff1660e01b8152600401602060405180830381865afa925050508015612203575060408051601f3d908101601f19168201909252612200918101906151d7565b60015b6122665760405162461bcd60e51b815260206004820152602e60248201527f45524331393637557067726164653a206e657720696d706c656d656e7461746960448201526d6f6e206973206e6f74205555505360901b606482015260840161090e565b60008051602061575283398151915281146122d55760405162461bcd60e51b815260206004820152602960248201527f45524331393637557067726164653a20756e737570706f727465642070726f786044820152681a58589b195555525160ba1b606482015260840161090e565b506121a483838361404e565b6122e9614073565b6033805460ff191690557f5db9ee0a495bf2e6ff9c91a7834c1ba4fdd244a5e8aa4e537bd38aeae4b073aa335b6040516001600160a01b03909116815260200160405180910390a1565b606580546001600160a01b038381166001600160a01b0319831681179093556040519116919082907f8be0079c531659141344cd1fd0a4f28419497f9722a3daafe3b4186f6b6457e090600090a35050565b600054610100900460ff166123ac5760405162461bcd60e51b815260040161090e90615232565b610c896140bc565b600054610100900460ff166123db5760405162461bcd60e51b815260040161090e90615232565b610c896140ef565b600054610100900460ff16610c895760405162461bcd60e51b815260040161090e90615232565b61241261411f565b6033805460ff191660011790557f62e78cea01bee320cd4e420270b5ea74000d11b0c9f74754ebdbfc544b05a2586123163390565b60fb54604051630efc12b160e01b815260ff841660048201526001600160a01b03909116906000908290630efc12b190602401600060405180830381865afa158015612497573d6000803e3d6000fd5b505050506040513d6000823e601f3d908101601f191682016040526124bf91908101906152f9565b905060008160400151116125285760405162461bcd60e51b815260206004820152602a60248201527f56616c7565206973207a65726f2e20506c656173652073656c65637420636f726044820152693932b1ba10383630b71760b11b606482015260840161090e565b6040516373a5799760e11b81526001600160a01b0384811660048301526000919084169063e74af32e90602401600060405180830381865afa158015612572573d6000803e3d6000fd5b505050506040513d6000823e601f3d908101601f1916820160405261259a91908101906153a6565b6060810151815160c083015192935090916126025760405162461bcd60e51b815260206004820152602260248201527f546f6b656e206973206e6f7420737570706f72746564206f722064697361626c604482015261195960f21b606482015260840161090e565b6000856001600160a01b031663918a54db6040518163ffffffff1660e01b8152600401600060405180830381865afa158015612642573d6000803e3d6000fd5b505050506040513d6000823e601f3d908101601f1916820160405261266a919081019061548c565b9050866001600160a01b03166323b872dd8a3060128760ff16106126925788604001516126a5565b6126a5896040015160128960ff16614165565b6040516001600160e01b031960e086901b1681526001600160a01b03938416600482015292909116602483015260448201526064016020604051808303816000875af11580156126f9573d6000803e3d6000fd5b505050506040513d601f19601f8201168201806040525081019061271d9190615200565b506001600160a01b0389166000908152610106602052604081208054909163ffffffff90911690036127ba5760fd805463ffffffff1690600061275f83615546565b82546101009290920a63ffffffff81810219909316918316021790915560fd548354911663ffffffff199091168117835560009081526101076020526040902080546001600160a01b0319166001600160a01b038d16179055505b8054640100000000600160c01b031916600160201b6001600160a01b038c160217815560408601516006820180546000906127f6908490615189565b90915550506060860151604087015161280f919061521b565b8160090160008282546128229190615189565b90915550506040516204942560ec1b60208201526023016040516020818303038152906040528051906020012086602001516040516020016128649190615569565b604051602081830303815290604052805190602001201480156128a05750805460018201546001600160a01b03908116600160201b9092041614155b156128d1578054600182018054600160201b9092046001600160a01b03166001600160a01b03199092169190911790555b6040805161024081018252825463ffffffff811682526001600160a01b03600160201b9091048116602080840191909152600185015482168385015260028501549091166060830152600384018054845181840281018401909552808552612b63948693608086019391929083018282801561297657602002820191906000526020600020905b81546001600160a01b03168152600190910190602001808311612958575b50505050508152602001600482018054806020026020016040519081016040528092919081815260200182805480156129d857602002820191906000526020600020905b81546001600160a01b031681526001909101906020018083116129ba575b5050505050815260200160058201805480602002602001604051908101604052809291908181526020018280548015612a5c57602002820191906000526020600020906000905b82829054906101000a900463ffffffff1663ffffffff1681526020019060040190602082600301049283019260010382029150808411612a1f5790505b5050505050815260200160068201548152602001600782015481526020016008820154815260200160098201548152602001600a8201548152602001600b8201548152602001600c8201548152602001600d8201548152602001600e8201548152602001600f820160009054906101000a900460ff1615151515815260200160108201805480602002602001604051908101604052809291908181526020018280548015612b5557602002820191906000526020600020906000905b82829054906101000a900463ffffffff1663ffffffff1681526020019060040190602082600301049283019260010382029150808411612b185790505b50505050508152505061419b565b612b7457612b748b8b84518a6141ba565b8054600282015460408051600160201b84046001600160a01b03908116825263ffffffff909416602082015260ff8d1681830152929091166060830152517fccdfed8601106cae21493f7848436196048b60f2dc70db89d92e3acdabb0ee299181900360800190a160fc5415612daa576000612bee613f2b565b90506001600160a01b03811615612da8576001600160a01b0381166000908152610106602052604080822090890151909190606490612c2e90600a61521b565b612c38919061559b565b90508082600c016000828254612c4e9190615189565b925050819055508082600a016000828254612c699190615189565b90915550506001600160a01b03861663a9059cbb84601260ff8b1610612c8f5783612c9e565b612c9e8460128c60ff16614165565b6040516001600160e01b031960e085901b1681526001600160a01b03909216600483015260248201526044016020604051808303816000875af1158015612ce9573d6000803e3d6000fd5b505050506040513d601f19601f82011682018060405250810190612d0d9190615200565b507f693fc02576006378cd4577590d99ad6b18ad4c566c433b85643d7b07a4815665838e8b6040015184600a6064604051612d85969594939291906001600160a01b0396871681529490951660208501526040840192909252606083015261ffff90811660808301529190911660a082015260c00190565b60405180910390a1806101026000828254612da09190615189565b909155505050505b505b60018101546001600160a01b031615613377576001808201546001600160a01b0390811660009081526101066020908152604091829020825161024081018452815463ffffffff81168252600160201b90048516818401529481015484168584015260028101549093166060850152600383018054835181840281018401909452808452939461306694909386936080860193919290830182828015612e7957602002820191906000526020600020905b81546001600160a01b03168152600190910190602001808311612e5b575b5050505050815260200160048201805480602002602001604051908101604052809291908181526020018280548015612edb57602002820191906000526020600020905b81546001600160a01b03168152600190910190602001808311612ebd575b5050505050815260200160058201805480602002602001604051908101604052809291908181526020018280548015612f5f57602002820191906000526020600020906000905b82829054906101000a900463ffffffff1663ffffffff1681526020019060040190602082600301049283019260010382029150808411612f225790505b5050505050815260200160068201548152602001600782015481526020016008820154815260200160098201548152602001600a8201548152602001600b8201548152602001600c8201548152602001600d8201548152602001600e8201548152602001600f820160009054906101000a900460ff161515151581526020016010820180548060200260200160405190810160405280929190818152602001828054801561305857602002820191906000526020600020906000905b82829054906101000a900463ffffffff1663ffffffff168152602001906004019060208260030104928301926001038202915080841161301b5790505b505050505081525050614a28565b6132f15760006064896001600160a01b031663e70167176040518163ffffffff1660e01b8152600401602060405180830381865afa1580156130ac573d6000803e3d6000fd5b505050506040513d601f19601f820116820180604052508101906130d091906155af565b60ff1689604001516130e2919061521b565b6130ec919061559b565b905060006130fa8383614a43565b90508083600e0160008282546131109190615189565b925050819055508083600a01600082825461312b9190615189565b909155505060018401546001600160a01b038088169163a9059cbb9116601260ff8b16106131595783613168565b6131688460128c60ff16614165565b6040516001600160e01b031960e085901b1681526001600160a01b03909216600483015260248201526044016020604051808303816000875af11580156131b3573d6000803e3d6000fd5b505050506040513d601f19601f820116820180604052508101906131d79190615200565b507f3c8fdb10971c51ff48e3a4db4d7f14e64690a286be5bb9f410d9fd0fb74dbf488460010160009054906101000a90046001600160a01b03168560000160049054906101000a90046001600160a01b03168b60400151848e6001600160a01b031663e70167176040518163ffffffff1660e01b8152600401602060405180830381865afa15801561326d573d6000803e3d6000fd5b505050506040513d601f19601f8201168201806040525081019061329191906155af565b604080516001600160a01b03968716815295909416602086015292840191909152606083015260ff166080820152606460a082015260c00160405180910390a18161010560008282546132e49190615189565b9091555061337592505050565b6001820154604080516001600160a01b039092168252602082018190526026828201527f49425020526577617264206e6f7420706169642e204d6178204c696d69742052606083015265195858da195960d21b6080830152517fd9365ce421ec9d37d946db34572a16a808a9a2c0df5f97dcafa2775d700428f89181900360a00190a15b505b6000805b83518160ff161015613b99576040805161024081018252845463ffffffff811682526001600160a01b03600160201b90910481166020808401919091526001870154821683850152600287015490911660608301526003860180548451818402810184019095528085526135c79488936080860193919290830182828015612976576020028201919060005260206000209081546001600160a01b031681526001909101906020018083116129585750505050508152602001600482018054806020026020016040519081016040528092919081815260200182805480156129d8576020028201919060005260206000209081546001600160a01b031681526001909101906020018083116129ba575050505050815260200160058201805480602002602001604051908101604052809291908181526020018280548015612a5c576000918252602091829020805463ffffffff168452908202830192909160049101808411612a1f5790505050505050815260200160068201548152602001600782015481526020016008820154815260200160098201548152602001600a8201548152602001600b8201548152602001600c8201548152602001600d8201548152602001600e8201548152602001600f820160009054906101000a900460ff1615151515815260200160108201805480602002602001604051908101604052809291908181526020018280548015612b55576000918252602091829020805463ffffffff168452908202830192909160049101808411612b1857905050505050508152505061419b565b15613b99576002808401546001600160a01b0390811660009081526101066020908152604091829020825161024081018452815463ffffffff81168252600160201b90048516818401526001820154851681850152948101549093166060850152600383018054835181840281018401909452808452939461382394909386936080860193919290830182828015612e79576020028201919060005260206000209081546001600160a01b03168152600190910190602001808311612e5b575050505050815260200160048201805480602002602001604051908101604052809291908181526020018280548015612edb576020028201919060005260206000209081546001600160a01b03168152600190910190602001808311612ebd575050505050815260200160058201805480602002602001604051908101604052809291908181526020018280548015612f5f576000918252602091829020805463ffffffff168452908202830192909160049101808411612f225790505050505050815260200160068201548152602001600782015481526020016008820154815260200160098201548152602001600a8201548152602001600b8201548152602001600c8201548152602001600d8201548152602001600e8201548152602001600f820160009054906101000a900460ff1615151515815260200160108201805480602002602001604051908101604052809291908181526020018280548015613058576000918252602091829020805463ffffffff16845290820283019290916004910180841161301b579050505050505081525050614a28565b15613897576002840154604080516001600160a01b039092168252602082018190526011828201527013585e08131a5b5a5d0814995858da1959607a1b6060830152517f9cf6f1ac252ffae20583b13cb366045bedd20a57355f5f69adf17da561de00039181900360800190a19250613b87565b8160ff166000036139845788604001518160070160008282546138ba9190615189565b9091555050600f81015460ff161561396f57600284015460fc80546001818101835560008390527f371f36870d18f32a11fea0f144b021c8b407bb50f8e0267c711123f454b963c090910180546001600160a01b0319166001600160a01b03909416939093179092555460108301916139329161519c565b8154600181018355600092835260209092206008830401805460079093166004026101000a63ffffffff8181021990941692909316929092021790555b600f8101805460ff19811660ff909116151790555b886040015181600801600082825461399c9190615189565b925050819055506000612710868460ff16815181106139bd576139bd6155cc565b602002602001015161ffff168b604001516139d8919061521b565b6139e2919061559b565b905060006139f08383614a43565b90508083600b016000828254613a069190615189565b909155505060028601546001600160a01b03808a169163a9059cbb9116601260ff8d1610613a345783613a43565b613a438460128e60ff16614165565b6040516001600160e01b031960e085901b1681526001600160a01b03909216600483015260248201526044016020604051808303816000875af1158015613a8e573d6000803e3d6000fd5b505050506040513d601f19601f82011682018060405250810190613ab29190615200565b50613abd8186615189565b6002870154875460408e01518a519398507f3fae587c6f1778678d1e63bd99d63afe07677c2a2eb43a4b228b80e8a38c1b06936001600160a01b0393841693600160201b9093049092169185908c9060ff8b16908110613b1f57613b1f6155cc565b60200260200101516127108a6001613b3791906155e2565b604080516001600160a01b03988916815297909616602088015294860193909352606085019190915261ffff16608084015260a083015260ff1660c082015260e00160405180910390a150909350505b80613b91816155fb565b91505061337b565b50806101016000828254613bad9190615189565b9091555050604087015160fe8054600090613bc9908490615189565b90915550506040870151606490613be190600a61521b565b613beb919061559b565b60ff6000828254613bfc9190615189565b925050819055506000886001600160a01b03166365eb204d6040518163ffffffff1660e01b8152600401602060405180830381865afa158015613c43573d6000803e3d6000fd5b505050506040513d601f19601f82011682018060405250810190613c6791906151ba565b6040516370a0823160e01b81523060048201526001600160a01b0391909116906370a0823190602401602060405180830381865afa158015613cad573d6000803e3d6000fd5b505050506040513d601f19601f82011682018060405250810190613cd191906151d7565b90508015613f1c57600060648a6001600160a01b031663e091099c6040518163ffffffff1660e01b8152600401602060405180830381865afa158015613d1b573d6000803e3d6000fd5b505050506040513d601f19601f82011682018060405250810190613d3f91906155af565b60ff168a60400151613d51919061521b565b613d5b919061559b565b9050808210613e4157896001600160a01b03166365eb204d6040518163ffffffff1660e01b8152600401602060405180830381865afa158015613da2573d6000803e3d6000fd5b505050506040513d601f19601f82011682018060405250810190613dc691906151ba565b60405163a9059cbb60e01b81526001600160a01b038f8116600483015260248201849052919091169063a9059cbb906044016020604051808303816000875af1158015613e17573d6000803e3d6000fd5b505050506040513d601f19601f82011682018060405250810190613e3b9190615200565b50613f1a565b896001600160a01b03166365eb204d6040518163ffffffff1660e01b8152600401602060405180830381865afa158015613e7f573d6000803e3d6000fd5b505050506040513d601f19601f82011682018060405250810190613ea391906151ba565b60405163a9059cbb60e01b81526001600160a01b038f8116600483015260248201859052919091169063a9059cbb906044016020604051808303816000875af1158015613ef4573d6000803e3d6000fd5b505050506040513d601f19601f82011682018060405250810190613f189190615200565b505b505b50505050505050505050505050565b6000804244613f3b60014361519c565b60408051602081019490945283019190915240606082015260800160408051601f19818403018152919052805160209091012060fc54909150600090613f81908361561a565b905060fc8181548110613f9657613f966155cc565b6000918252602090912001546001600160a01b03169392505050565b6001600160a01b0381163b61401f5760405162461bcd60e51b815260206004820152602d60248201527f455243313936373a206e657720696d706c656d656e746174696f6e206973206e60448201526c1bdd08184818dbdb9d1c9858dd609a1b606482015260840161090e565b60008051602061575283398151915280546001600160a01b0319166001600160a01b0392909216919091179055565b61405783614aa5565b6000825111806140645750805b156121a4576111f28383614ae5565b60335460ff16610c895760405162461bcd60e51b815260206004820152601460248201527314185d5cd8589b194e881b9bdd081c185d5cd95960621b604482015260640161090e565b600054610100900460ff166140e35760405162461bcd60e51b815260040161090e90615232565b6033805460ff19169055565b600054610100900460ff166141165760405162461bcd60e51b815260040161090e90615232565b610c8933612333565b60335460ff1615610c895760405162461bcd60e51b815260206004820152601060248201526f14185d5cd8589b194e881c185d5cd95960821b604482015260640161090e565b600061417283600a615712565b61417d83600a615712565b614187908661521b565b614191919061559b565b90505b9392505050565b60608101516000906001600160a01b0316156141b5575060015b919050565b6001600160a01b0380841660009081526101066020908152604091829020825161024081018452815463ffffffff81168252600160201b9004851681840152600182015485168185015260028201549094166060850152600381018054845181850281018501909552808552919461440a9490938693608086019391830182828015612976576020028201919060005260206000209081546001600160a01b031681526001909101906020018083116129585750505050508152602001600482018054806020026020016040519081016040528092919081815260200182805480156129d8576020028201919060005260206000209081546001600160a01b031681526001909101906020018083116129ba575050505050815260200160058201805480602002602001604051908101604052809291908181526020018280548015612a5c576000918252602091829020805463ffffffff168452908202830192909160049101808411612a1f5790505050505050815260200160068201548152602001600782015481526020016008820154815260200160098201548152602001600a8201548152602001600b8201548152602001600c8201548152602001600d8201548152602001600e8201548152602001600f820160009054906101000a900460ff1615151515815260200160108201805480602002602001604051908101604052809291908181526020018280548015612b55576000918252602091829020805463ffffffff168452908202830192909160049101808411612b1857905050505050508152505061419b565b15801561448a5750816001600160a01b031663b2e6b9126040518163ffffffff1660e01b8152600401602060405180830381865afa158015614450573d6000803e3d6000fd5b505050506040513d601f19601f8201168201806040525081019061447491906151ba565b6001600160a01b0316846001600160a01b031614155b15614a21576001600160a01b03851615806144b65750846001600160a01b0316846001600160a01b0316145b1561462157604080516001600160a01b038781168252861660208201526060818301819052603a908201527f5a65726f20616464726573732063616e6e6f742062652072656665727265722e60808201527f2053657474696e672064656661756c742072656665727265722e00000000000060a082015290517f32df26c7e54a821624fc8d22e1171e5793b90d1fccc483d3ff277b9c42bb22399181900360c00190a16000826001600160a01b031663b2e6b9126040518163ffffffff1660e01b8152600401602060405180830381865afa158015614599573d6000803e3d6000fd5b505050506040513d601f19601f820116820180604052508101906145bd91906151ba565b6002830180546001600160a01b0319166001600160a01b038381169182179092556040805191825291881660208201529192507fec49a3c8c4ae06c18160fe86119c381c9d213ac3e052ff35b594da8687b193c7910160405180910390a15061467d565b6002810180546001600160a01b0319166001600160a01b038781169182179092556040805191825291861660208201527fec49a3c8c4ae06c18160fe86119c381c9d213ac3e052ff35b594da8687b193c7910160405180910390a15b60005b8360ff168160ff161015614a1f5760028201546001600160a01b031615614a1f5760028201546001600160a01b03166000908152610106602052604081209060ff8316900361498f5760038101805460018082018355600092835260209092200180546001600160a01b0319166001600160a01b038981169190911790915590840154161561478b576001830154604080516001600160a01b03928316815291881660208301526060828201819052601d908301527f5265666572656520616c7265616479206861766520696270207365742e0000006080830152517fffca51efd3fa9dd00c7ad8de67cce6deeb82e78db2d05fe4b84079eca71665109181900360a00190a161498f565b60018101546001600160a01b031661493f576001810154604080516001600160a01b039283168152918816602083015260608282018190526032908301527f5a65726f20616464726573732063616e6e6f74206265206962702e20536574746080830152710696e672075702064656661756c74206962760741b60a0830152517fffca51efd3fa9dd00c7ad8de67cce6deeb82e78db2d05fe4b84079eca71665109181900360c00190a16000846001600160a01b031663b2e6b9126040518163ffffffff1660e01b8152600401602060405180830381865afa158015614875573d6000803e3d6000fd5b505050506040513d601f19601f8201168201806040525081019061489991906151ba565b600185810180546001600160a01b038481166001600160a01b03199283168117909355928601805490911682179055845460408051928352600160201b9091049092166020820152919250600080516020615799833981519152910160405180910390a18354604080516001600160a01b038085168252600160201b9093049092166020830152600080516020615799833981519152910160405180910390a15061498f565b6001818101805491850180546001600160a01b0319166001600160a01b03938416179055546040805191831682529188166020820152600080516020615799833981519152910160405180910390a15b60048101805460018082018355600092835260209092200180546001600160a01b0319166001600160a01b03891617905560058201906149d09084906155e2565b8154600181018355600092835260209092206008830401805463ffffffff60079094166004026101000a938402191660ff92909216909202179055915080614a17816155fb565b915050614680565b505b5050505050565b6000816101400151826101600151106141b557506001919050565b600082600901548284600a0154614a5a9190615189565b11614a81578190508183600a016000828254614a769190615189565b90915550614a9f9050565b82600a01548360090154614a95919061519c565b600a840181905590505b92915050565b614aae81613fb2565b6040516001600160a01b038216907fbc7cd75a20ee27fd9adebab32041f755214dbc6bffa90cc0225b39da2e5c2d3b90600090a250565b60606001600160a01b0383163b614b4d5760405162461bcd60e51b815260206004820152602660248201527f416464726573733a2064656c65676174652063616c6c20746f206e6f6e2d636f6044820152651b9d1c9858dd60d21b606482015260840161090e565b600080846001600160a01b031684604051614b689190615569565b600060405180830381855af49150503d8060008114614ba3576040519150601f19603f3d011682016040523d82523d6000602084013e614ba8565b606091505b5091509150614bd0828260405180606001604052806027815260200161577260279139614bd9565b95945050505050565b60608315614be8575081614194565b6141948383815115614bfd5781518083602001fd5b8060405162461bcd60e51b815260040161090e919061571e565b6001600160a01b03811681146109ab57600080fd5b600060208284031215614c3e57600080fd5b813561419481614c17565b600081518084526020808501945080840160005b83811015614c7f57815163ffffffff1687529582019590820190600101614c5d565b509495945050505050565b8315158152606060208201526000614ca56060830185614c49565b9050826040830152949350505050565b634e487b7160e01b600052604160045260246000fd5b60405160e0810167ffffffffffffffff81118282101715614cee57614cee614cb5565b60405290565b604051601f8201601f1916810167ffffffffffffffff81118282101715614d1d57614d1d614cb5565b604052919050565b600067ffffffffffffffff821115614d3f57614d3f614cb5565b50601f01601f191660200190565b60008060408385031215614d6057600080fd5b8235614d6b81614c17565b9150602083013567ffffffffffffffff811115614d8757600080fd5b8301601f81018513614d9857600080fd5b8035614dab614da682614d25565b614cf4565b818152866020838501011115614dc057600080fd5b816020840160208301376000602083830101528093505050509250929050565b60ff811681146109ab57600080fd5b60008060008060808587031215614e0557600080fd5b8435614e1081614c17565b93506020850135614e2081614c17565b92506040850135614e3081614de0565b91506060850135614e4081614c17565b939692955090935050565b600080600060608486031215614e6057600080fd5b8335614e6b81614c17565b92506020840135614e7b81614c17565b929592945050506040919091013590565b600080600060608486031215614ea157600080fd5b8335614eac81614c17565b92506020840135614ebc81614de0565b91506040840135614ecc81614c17565b809150509250925092565b600081518084526020808501945080840160005b83811015614c7f5781516001600160a01b031687529582019590820190600101614eeb565b6001600160a01b038716815260c060208201819052600090614f3490830188614ed7565b8660408401528281036060840152614f4c8187614ed7565b90508281036080840152614f608186614c49565b9150508260a0830152979650505050505050565b60208152614f8b60208201835163ffffffff169052565b60006020830151614fa760408401826001600160a01b03169052565b5060408301516001600160a01b03811660608401525060608301516001600160a01b03811660808401525060808301516102408060a0850152614fee610260850183614ed7565b915060a0850151601f19808685030160c087015261500c8483614ed7565b935060c08701519150808685030160e08701526150298483614c49565b60e088015161010088810191909152880151610120808901919091528801516101408089019190915288015161016080890191909152880151610180808901919091528801516101a0808901919091528801516101c0808901919091528801516101e0808901919091528801516102008089019190915288015190945091506102206150b88188018415159052565b8701518685039091018387015290506150d18382614c49565b9695505050505050565b6020808252602c908201527f46756e6374696f6e206d7573742062652063616c6c6564207468726f7567682060408201526b19195b1959d85d1958d85b1b60a21b606082015260800190565b6020808252602c908201527f46756e6374696f6e206d7573742062652063616c6c6564207468726f7567682060408201526b6163746976652070726f787960a01b606082015260800190565b634e487b7160e01b600052601160045260246000fd5b80820180821115614a9f57614a9f615173565b81810381811115614a9f57614a9f615173565b80516141b581614c17565b6000602082840312156151cc57600080fd5b815161419481614c17565b6000602082840312156151e957600080fd5b5051919050565b805180151581146141b557600080fd5b60006020828403121561521257600080fd5b614194826151f0565b8082028115828204841417614a9f57614a9f615173565b6020808252602b908201527f496e697469616c697a61626c653a20636f6e7472616374206973206e6f74206960408201526a6e697469616c697a696e6760a81b606082015260800190565b80516141b581614de0565b60005b838110156152a357818101518382015260200161528b565b50506000910152565b600082601f8301126152bd57600080fd5b81516152cb614da682614d25565b8181528460208386010111156152e057600080fd5b6152f1826020830160208701615288565b949350505050565b60006020828403121561530b57600080fd5b815167ffffffffffffffff8082111561532357600080fd5b908301906080828603121561533757600080fd5b60405160808101818110838211171561535257615352614cb5565b604052825161536081614de0565b815260208301518281111561537457600080fd5b615380878286016152ac565b602083015250604083015160408201526060830151606082015280935050505092915050565b6000602082840312156153b857600080fd5b815167ffffffffffffffff808211156153d057600080fd5b9083019060e082860312156153e457600080fd5b6153ec614ccb565b6153f5836151af565b815260208301518281111561540957600080fd5b615415878286016152ac565b60208301525060408301518281111561542d57600080fd5b615439878286016152ac565b60408301525061544b6060840161527d565b606082015261545c608084016151f0565b608082015261546d60a084016151af565b60a082015261547e60c084016151f0565b60c082015295945050505050565b6000602080838503121561549f57600080fd5b825167ffffffffffffffff808211156154b757600080fd5b818501915085601f8301126154cb57600080fd5b8151818111156154dd576154dd614cb5565b8060051b91506154ee848301614cf4565b818152918301840191848101908884111561550857600080fd5b938501935b8385101561553a578451925061ffff8316831461552a5760008081fd5b828252938501939085019061550d565b98975050505050505050565b600063ffffffff80831681810361555f5761555f615173565b6001019392505050565b6000825161557b818460208701615288565b9190910192915050565b634e487b7160e01b600052601260045260246000fd5b6000826155aa576155aa615585565b500490565b6000602082840312156155c157600080fd5b815161419481614de0565b634e487b7160e01b600052603260045260246000fd5b60ff8181168382160190811115614a9f57614a9f615173565b600060ff821660ff810361561157615611615173565b60010192915050565b60008261562957615629615585565b500690565b600181815b8085111561566957816000190482111561564f5761564f615173565b8085161561565c57918102915b93841c9390800290615633565b509250929050565b60008261568057506001614a9f565b8161568d57506000614a9f565b81600181146156a357600281146156ad576156c9565b6001915050614a9f565b60ff8411156156be576156be615173565b50506001821b614a9f565b5060208310610133831016604e8410600b84101617156156ec575081810a614a9f565b6156f6838361562e565b806000190482111561570a5761570a615173565b029392505050565b60006141948383615671565b602081526000825180602084015261573d816040850160208701615288565b601f01601f1916919091016040019291505056fe360894a13ba1a3210667c828492db98dca3e2076cc3735a920a3ca505d382bbc416464726573733a206c6f772d6c6576656c2064656c65676174652063616c6c206661696c656400f37bd73ff29ab549d774afc91445bf33292ed9a4b4b4177fb1e61ff3c58469a2646970667358221220c86203475ac9072a523ef3f347d66ea18c2b9b84acb6e1f6e0d77cbfd98643e964736f6c63430008120033",
  "linkReferences": {},
  "deployedLinkReferences": {}
}