{
  "_format": "hh-sol-artifact-1",
  "contractName": "ReferralV1Upgradeable",
  "sourceName": "contracts/ReferralV1Upgradeable.sol",
  "abi": [
    {
      "anonymous": false,
      "inputs": [
        {
          "indexed": false,
          "internalType": "address",
          "name": "previousAdmin",
          "type": "address"
        },
        {
          "indexed": false,
          "internalType": "address",
          "name": "newAdmin",
          "type": "address"
        }
      ],
      "name": "AdminChanged",
      "type": "event"
    },
    {
      "anonymous": false,
      "inputs": [
        {
          "indexed": true,
          "internalType": "address",
          "name": "beacon",
          "type": "address"
        }
      ],
      "name": "BeaconUpgraded",
      "type": "event"
    },
    {
      "anonymous": false,
      "inputs": [
        {
          "indexed": false,
          "internalType": "address",
          "name": "coreMembersContract",
          "type": "address"
        },
        {
          "indexed": false,
          "internalType": "uint256",
          "name": "value",
          "type": "uint256"
        }
      ],
      "name": "CoreMembersRewardPaid",
      "type": "event"
    },
    {
      "anonymous": false,
      "inputs": [
        {
          "indexed": false,
          "internalType": "address",
          "name": "globalAddress",
          "type": "address"
        },
        {
          "indexed": false,
          "internalType": "address",
          "name": "userAddress",
          "type": "address"
        },
        {
          "indexed": false,
          "internalType": "uint256",
          "name": "registrationValue",
          "type": "uint256"
        },
        {
          "indexed": false,
          "internalType": "uint256",
          "name": "rewardValue",
          "type": "uint256"
        },
        {
          "indexed": false,
          "internalType": "uint16",
          "name": "rewardRate",
          "type": "uint16"
        },
        {
          "indexed": false,
          "internalType": "uint16",
          "name": "rewardRateDecimals",
          "type": "uint16"
        },
        {
          "indexed": false,
          "internalType": "string",
          "name": "reason",
          "type": "string"
        }
      ],
      "name": "GlobalRewardsNotPaid",
      "type": "event"
    },
    {
      "anonymous": false,
      "inputs": [
        {
          "indexed": false,
          "internalType": "address",
          "name": "globalAddress",
          "type": "address"
        },
        {
          "indexed": false,
          "internalType": "address",
          "name": "userAddress",
          "type": "address"
        },
        {
          "indexed": false,
          "internalType": "uint256",
          "name": "registrationValue",
          "type": "uint256"
        },
        {
          "indexed": false,
          "internalType": "uint256",
          "name": "rewardValue",
          "type": "uint256"
        },
        {
          "indexed": false,
          "internalType": "uint16",
          "name": "rewardRate",
          "type": "uint16"
        },
        {
          "indexed": false,
          "internalType": "uint16",
          "name": "rewardRateDecimals",
          "type": "uint16"
        }
      ],
      "name": "GlobalRewardsPaid",
      "type": "event"
    },
    {
      "anonymous": false,
      "inputs": [
        {
          "indexed": false,
          "internalType": "address",
          "name": "ibpAddress",
          "type": "address"
        },
        {
          "indexed": false,
          "internalType": "address",
          "name": "userAddress",
          "type": "address"
        }
      ],
      "name": "IBPAdded",
      "type": "event"
    },
    {
      "anonymous": false,
      "inputs": [
        {
          "indexed": false,
          "internalType": "address",
          "name": "ibpAddress",
          "type": "address"
        },
        {
          "indexed": false,
          "internalType": "address",
          "name": "userAddress",
          "type": "address"
        },
        {
          "indexed": false,
          "internalType": "string",
          "name": "reason",
          "type": "string"
        }
      ],
      "name": "IBPNotAdded",
      "type": "event"
    },
    {
      "anonymous": false,
      "inputs": [
        {
          "indexed": false,
          "internalType": "address",
          "name": "ibpAddress",
          "type": "address"
        },
        {
          "indexed": false,
          "internalType": "string",
          "name": "reason",
          "type": "string"
        }
      ],
      "name": "IBPRewardsNotPaid",
      "type": "event"
    },
    {
      "anonymous": false,
      "inputs": [
        {
          "indexed": false,
          "internalType": "address",
          "name": "ibpAddress",
          "type": "address"
        },
        {
          "indexed": false,
          "internalType": "address",
          "name": "userAddress",
          "type": "address"
        },
        {
          "indexed": false,
          "internalType": "uint256",
          "name": "businessValue",
          "type": "uint256"
        },
        {
          "indexed": false,
          "internalType": "uint256",
          "name": "rewardValue",
          "type": "uint256"
        },
        {
          "indexed": false,
          "internalType": "uint16",
          "name": "rewardRate",
          "type": "uint16"
        },
        {
          "indexed": false,
          "internalType": "uint16",
          "name": "rewardRateDecimals",
          "type": "uint16"
        }
      ],
      "name": "IBPRewardsPaid",
      "type": "event"
    },
    {
      "anonymous": false,
      "inputs": [
        {
          "indexed": false,
          "internalType": "uint8",
          "name": "version",
          "type": "uint8"
        }
      ],
      "name": "Initialized",
      "type": "event"
    },
    {
      "anonymous": false,
      "inputs": [
        {
          "indexed": false,
          "internalType": "address",
          "name": "userAddress",
          "type": "address"
        },
        {
          "indexed": false,
          "internalType": "string",
          "name": "reason",
          "type": "string"
        }
      ],
      "name": "NoRewardsPaid",
      "type": "event"
    },
    {
      "anonymous": false,
      "inputs": [
        {
          "indexed": true,
          "internalType": "address",
          "name": "previousOwner",
          "type": "address"
        },
        {
          "indexed": true,
          "internalType": "address",
          "name": "newOwner",
          "type": "address"
        }
      ],
      "name": "OwnershipTransferred",
      "type": "event"
    },
    {
      "anonymous": false,
      "inputs": [
        {
          "indexed": false,
          "internalType": "address",
          "name": "account",
          "type": "address"
        }
      ],
      "name": "Paused",
      "type": "event"
    },
    {
      "anonymous": false,
      "inputs": [
        {
          "indexed": false,
          "internalType": "address",
          "name": "referrerAddress",
          "type": "address"
        },
        {
          "indexed": false,
          "internalType": "address",
          "name": "userAddress",
          "type": "address"
        },
        {
          "indexed": false,
          "internalType": "uint256",
          "name": "value",
          "type": "uint256"
        },
        {
          "indexed": false,
          "internalType": "uint256",
          "name": "rewardValue",
          "type": "uint256"
        },
        {
          "indexed": false,
          "internalType": "uint256",
          "name": "rewardRate",
          "type": "uint256"
        },
        {
          "indexed": false,
          "internalType": "uint256",
          "name": "rewardRateDecimals",
          "type": "uint256"
        },
        {
          "indexed": false,
          "internalType": "uint32",
          "name": "level",
          "type": "uint32"
        }
      ],
      "name": "ReferralRewardsPaid",
      "type": "event"
    },
    {
      "anonymous": false,
      "inputs": [
        {
          "indexed": false,
          "internalType": "address",
          "name": "referrerAddress",
          "type": "address"
        },
        {
          "indexed": false,
          "internalType": "address",
          "name": "refereeAddress",
          "type": "address"
        }
      ],
      "name": "ReferrerAdded",
      "type": "event"
    },
    {
      "anonymous": false,
      "inputs": [
        {
          "indexed": false,
          "internalType": "address",
          "name": "referrerAddress",
          "type": "address"
        },
        {
          "indexed": false,
          "internalType": "address",
          "name": "refereeAddress",
          "type": "address"
        },
        {
          "indexed": false,
          "internalType": "string",
          "name": "reason",
          "type": "string"
        }
      ],
      "name": "ReferrerNotAdded",
      "type": "event"
    },
    {
      "anonymous": false,
      "inputs": [
        {
          "indexed": false,
          "internalType": "address",
          "name": "userAddress",
          "type": "address"
        },
        {
          "indexed": false,
          "internalType": "uint32",
          "name": "userId",
          "type": "uint32"
        },
        {
          "indexed": false,
          "internalType": "uint8",
          "name": "planId",
          "type": "uint8"
        },
        {
          "indexed": false,
          "internalType": "address",
          "name": "referrerAddress",
          "type": "address"
        }
      ],
      "name": "Registration",
      "type": "event"
    },
    {
      "anonymous": false,
      "inputs": [
        {
          "indexed": false,
          "internalType": "address",
          "name": "parentAddress",
          "type": "address"
        },
        {
          "indexed": false,
          "internalType": "address",
          "name": "referrerAddress",
          "type": "address"
        },
        {
          "indexed": false,
          "internalType": "address",
          "name": "refereeAddress",
          "type": "address"
        },
        {
          "indexed": false,
          "internalType": "uint32",
          "name": "level",
          "type": "uint32"
        }
      ],
      "name": "TeamAddressAdded",
      "type": "event"
    },
    {
      "anonymous": false,
      "inputs": [
        {
          "indexed": false,
          "internalType": "address",
          "name": "account",
          "type": "address"
        }
      ],
      "name": "Unpaused",
      "type": "event"
    },
    {
      "anonymous": false,
      "inputs": [
        {
          "indexed": true,
          "internalType": "address",
          "name": "implementation",
          "type": "address"
        }
      ],
      "name": "Upgraded",
      "type": "event"
    },
    {
      "anonymous": false,
      "inputs": [
        {
          "indexed": false,
          "internalType": "address",
          "name": "globalAddress",
          "type": "address"
        },
        {
          "indexed": false,
          "internalType": "uint256",
          "name": "rewardValue",
          "type": "uint256"
        }
      ],
      "name": "WeeklyRewardsPaid",
      "type": "event"
    },
    {
      "inputs": [
        {
          "internalType": "address",
          "name": "_userAddress",
          "type": "address"
        },
        {
          "internalType": "address",
          "name": "_ibpAddress",
          "type": "address"
        },
        {
          "internalType": "uint256",
          "name": "_maxLimitInDecimals",
          "type": "uint256"
        }
      ],
      "name": "addIbpToAddressAdmin",
      "outputs": [],
      "stateMutability": "nonpayable",
      "type": "function"
    },
    {
      "inputs": [
        {
          "internalType": "address",
          "name": "_referrer",
          "type": "address"
        },
        {
          "internalType": "address",
          "name": "_user",
          "type": "address"
        }
      ],
      "name": "changeReferrer",
      "outputs": [],
      "stateMutability": "nonpayable",
      "type": "function"
    },
    {
      "inputs": [
        {
          "internalType": "address",
          "name": "_tokenAddress",
          "type": "address"
        }
      ],
      "name": "distributeWeeklyReward",
      "outputs": [],
      "stateMutability": "nonpayable",
      "type": "function"
    },
    {
      "inputs": [],
      "name": "getRegistrationsStats",
      "outputs": [
        {
          "internalType": "uint32",
          "name": "totalUser",
          "type": "uint32"
        },
        {
          "internalType": "uint256",
          "name": "totalRegistrationValue",
          "type": "uint256"
        },
        {
          "internalType": "uint256",
          "name": "totalReferralPaid",
          "type": "uint256"
        },
        {
          "internalType": "uint256",
          "name": "totalGlobalRewardsPaid",
          "type": "uint256"
        },
        {
          "internalType": "uint256",
          "name": "totalWeeklyRewardsPaid",
          "type": "uint256"
        },
        {
          "internalType": "uint256",
          "name": "totalCoreMembershipRewardPaid",
          "type": "uint256"
        },
        {
          "internalType": "uint256",
          "name": "totalIbpRewardsPaid",
          "type": "uint256"
        }
      ],
      "stateMutability": "view",
      "type": "function"
    },
    {
      "inputs": [
        {
          "internalType": "address",
          "name": "_userAddress",
          "type": "address"
        }
      ],
      "name": "getUserAccount",
      "outputs": [
        {
          "components": [
            {
              "internalType": "uint32",
              "name": "userId",
              "type": "uint32"
            },
            {
              "internalType": "address",
              "name": "selfAddress",
              "type": "address"
            },
            {
              "internalType": "address",
              "name": "ibpAddress",
              "type": "address"
            },
            {
              "internalType": "address",
              "name": "referrerAddress",
              "type": "address"
            },
            {
              "internalType": "address[]",
              "name": "refereeAddresses",
              "type": "address[]"
            },
            {
              "internalType": "address[]",
              "name": "teamAddress",
              "type": "address[]"
            },
            {
              "internalType": "uint32[]",
              "name": "teamLevels",
              "type": "uint32[]"
            },
            {
              "internalType": "uint256",
              "name": "selfBusiness",
              "type": "uint256"
            },
            {
              "internalType": "uint256",
              "name": "directBusiness",
              "type": "uint256"
            },
            {
              "internalType": "uint256",
              "name": "teamBusiness",
              "type": "uint256"
            },
            {
              "internalType": "uint256",
              "name": "maxLimit",
              "type": "uint256"
            },
            {
              "internalType": "uint256",
              "name": "currentLimit",
              "type": "uint256"
            },
            {
              "internalType": "uint256",
              "name": "referralRewards",
              "type": "uint256"
            },
            {
              "internalType": "uint256",
              "name": "globalRewards",
              "type": "uint256"
            },
            {
              "internalType": "uint256",
              "name": "weeklyRewards",
              "type": "uint256"
            },
            {
              "internalType": "uint256",
              "name": "ibpRewards",
              "type": "uint256"
            },
            {
              "internalType": "bool",
              "name": "isGlobal",
              "type": "bool"
            },
            {
              "internalType": "uint32[]",
              "name": "globalIndexes",
              "type": "uint32[]"
            }
          ],
          "internalType": "struct AccountStruct",
          "name": "",
          "type": "tuple"
        }
      ],
      "stateMutability": "view",
      "type": "function"
    },
    {
      "inputs": [
        {
          "internalType": "address",
          "name": "_userAddress",
          "type": "address"
        }
      ],
      "name": "getUserBusiness",
      "outputs": [
        {
          "internalType": "uint256",
          "name": "selfBusiness",
          "type": "uint256"
        },
        {
          "internalType": "uint256",
          "name": "directBusiness",
          "type": "uint256"
        },
        {
          "internalType": "uint256",
          "name": "teamBusiness",
          "type": "uint256"
        },
        {
          "internalType": "uint256",
          "name": "totalBusiness",
          "type": "uint256"
        }
      ],
      "stateMutability": "view",
      "type": "function"
    },
    {
      "inputs": [
        {
          "internalType": "address",
          "name": "_userAddress",
          "type": "address"
        }
      ],
      "name": "getUserIbpAddress",
      "outputs": [
        {
          "internalType": "address",
          "name": "",
          "type": "address"
        }
      ],
      "stateMutability": "view",
      "type": "function"
    },
    {
      "inputs": [
        {
          "internalType": "address",
          "name": "_userAddress",
          "type": "address"
        }
      ],
      "name": "getUserLimit",
      "outputs": [
        {
          "internalType": "uint256",
          "name": "maxLimit",
          "type": "uint256"
        },
        {
          "internalType": "uint256",
          "name": "currentLimit",
          "type": "uint256"
        },
        {
          "internalType": "uint256",
          "name": "limitRemaingvalue",
          "type": "uint256"
        }
      ],
      "stateMutability": "view",
      "type": "function"
    },
    {
      "inputs": [
        {
          "internalType": "address",
          "name": "_userAddress",
          "type": "address"
        }
      ],
      "name": "getUserRewards",
      "outputs": [
        {
          "internalType": "uint256",
          "name": "referralReward",
          "type": "uint256"
        },
        {
          "internalType": "uint256",
          "name": "globalReward",
          "type": "uint256"
        },
        {
          "internalType": "uint256",
          "name": "weeklyReward",
          "type": "uint256"
        },
        {
          "internalType": "uint256",
          "name": "ibpReward",
          "type": "uint256"
        },
        {
          "internalType": "uint256",
          "name": "totalIncome",
          "type": "uint256"
        }
      ],
      "stateMutability": "view",
      "type": "function"
    },
    {
      "inputs": [
        {
          "internalType": "address",
          "name": "_userAddress",
          "type": "address"
        }
      ],
      "name": "getUserTeam",
      "outputs": [
        {
          "internalType": "address",
          "name": "referrer",
          "type": "address"
        },
        {
          "internalType": "address[]",
          "name": "referees",
          "type": "address[]"
        },
        {
          "internalType": "uint256",
          "name": "refereeCount",
          "type": "uint256"
        },
        {
          "internalType": "address[]",
          "name": "team",
          "type": "address[]"
        },
        {
          "internalType": "uint32[]",
          "name": "teamLevels",
          "type": "uint32[]"
        },
        {
          "internalType": "uint256",
          "name": "teamCount",
          "type": "uint256"
        }
      ],
      "stateMutability": "view",
      "type": "function"
    },
    {
      "inputs": [],
      "name": "getVariablesContract",
      "outputs": [
        {
          "internalType": "address",
          "name": "",
          "type": "address"
        }
      ],
      "stateMutability": "view",
      "type": "function"
    },
    {
      "inputs": [],
      "name": "getWeeklyRewardToBeDistributed",
      "outputs": [
        {
          "internalType": "uint256",
          "name": "_rewardValue",
          "type": "uint256"
        },
        {
          "internalType": "uint256",
          "name": "_remianingTime",
          "type": "uint256"
        }
      ],
      "stateMutability": "view",
      "type": "function"
    },
    {
      "inputs": [],
      "name": "initialize",
      "outputs": [],
      "stateMutability": "nonpayable",
      "type": "function"
    },
    {
      "inputs": [
        {
          "internalType": "address",
          "name": "_userAddress",
          "type": "address"
        }
      ],
      "name": "isUserInGlobalList",
      "outputs": [
        {
          "internalType": "bool",
          "name": "isInList",
          "type": "bool"
        },
        {
          "internalType": "uint32[]",
          "name": "indexes",
          "type": "uint32[]"
        },
        {
          "internalType": "uint256",
          "name": "totalGlobalIds",
          "type": "uint256"
        }
      ],
      "stateMutability": "view",
      "type": "function"
    },
    {
      "inputs": [],
      "name": "owner",
      "outputs": [
        {
          "internalType": "address",
          "name": "",
          "type": "address"
        }
      ],
      "stateMutability": "view",
      "type": "function"
    },
    {
      "inputs": [],
      "name": "pause",
      "outputs": [],
      "stateMutability": "nonpayable",
      "type": "function"
    },
    {
      "inputs": [],
      "name": "paused",
      "outputs": [
        {
          "internalType": "bool",
          "name": "",
          "type": "bool"
        }
      ],
      "stateMutability": "view",
      "type": "function"
    },
    {
      "inputs": [],
      "name": "proxiableUUID",
      "outputs": [
        {
          "internalType": "bytes32",
          "name": "",
          "type": "bytes32"
        }
      ],
      "stateMutability": "view",
      "type": "function"
    },
    {
      "inputs": [
        {
          "internalType": "address",
          "name": "_referrer",
          "type": "address"
        },
        {
          "internalType": "uint8",
          "name": "_planId",
          "type": "uint8"
        },
        {
          "internalType": "address",
          "name": "_tokenAddress",
          "type": "address"
        }
      ],
      "name": "registrationWithToken",
      "outputs": [],
      "stateMutability": "nonpayable",
      "type": "function"
    },
    {
      "inputs": [
        {
          "internalType": "address",
          "name": "_refereeAddress",
          "type": "address"
        }
      ],
      "name": "removeRefereeAdmin",
      "outputs": [],
      "stateMutability": "nonpayable",
      "type": "function"
    },
    {
      "inputs": [
        {
          "internalType": "address",
          "name": "_teamAddress",
          "type": "address"
        }
      ],
      "name": "removeTeamAddress",
      "outputs": [],
      "stateMutability": "nonpayable",
      "type": "function"
    },
    {
      "inputs": [],
      "name": "renounceOwnership",
      "outputs": [],
      "stateMutability": "nonpayable",
      "type": "function"
    },
    {
      "inputs": [
        {
          "internalType": "address",
          "name": "newOwner",
          "type": "address"
        }
      ],
      "name": "transferOwnership",
      "outputs": [],
      "stateMutability": "nonpayable",
      "type": "function"
    },
    {
      "inputs": [],
      "name": "unpause",
      "outputs": [],
      "stateMutability": "nonpayable",
      "type": "function"
    },
    {
      "inputs": [
        {
          "internalType": "address",
          "name": "newImplementation",
          "type": "address"
        }
      ],
      "name": "upgradeTo",
      "outputs": [],
      "stateMutability": "nonpayable",
      "type": "function"
    },
    {
      "inputs": [
        {
          "internalType": "address",
          "name": "newImplementation",
          "type": "address"
        },
        {
          "internalType": "bytes",
          "name": "data",
          "type": "bytes"
        }
      ],
      "name": "upgradeToAndCall",
      "outputs": [],
      "stateMutability": "payable",
      "type": "function"
    },
    {
      "stateMutability": "payable",
      "type": "receive"
    }
  ],
  "bytecode": "0x60a06040523060805234801561001457600080fd5b5060805161584b6200004d6000396000818161088b015281816108d401528181610de601528181610e260152610eb9015261584b6000f3fe6080604052600436106101855760003560e01c8063846688f7116100d1578063e9587e861161008a578063f87127b411610064578063f87127b4146104f1578063faeda7e514610531578063fb47e01614610563578063fbb9fc801461059057600080fd5b8063e9587e8614610478578063f13a143f146104b3578063f2fde38b146104d157600080fd5b8063846688f71461037f5780638da5cb5b146103a9578063967012eb146103db578063d277b8a914610418578063df10817614610438578063e6f6769e1461045857600080fd5b806340ee66bc1161013e5780635c975abb116101185780635c975abb1461031d578063715018a6146103405780638129fc1c146103555780638456cb591461036a57600080fd5b806340ee66bc146102c75780634f1ef286146102e757806352d1902d146102fa57600080fd5b80630690c6a814610191578063078b0fb7146101f95780633659cfe6146102415780633b38bf72146102635780633ef575e9146102835780633f4ba83a146102b257600080fd5b3661018c57005b600080fd5b34801561019d57600080fd5b5060fd5460fe5461010154610102546101035461010454610105546040805163ffffffff90981688526020880196909652948601939093526060850191909152608084015260a083015260c082015260e0015b60405180910390f35b34801561020557600080fd5b50610219610214366004614c66565b6105b0565b604080519586526020860194909452928401919091526060830152608082015260a0016101f0565b34801561024d57600080fd5b5061026161025c366004614c66565b610881565b005b34801561026f57600080fd5b5061026161027e366004614c83565b610969565b34801561028f57600080fd5b506102a361029e366004614c66565b610a22565b6040516101f093929190614cfd565b3480156102be57600080fd5b50610261610ced565b3480156102d357600080fd5b506102616102e2366004614c66565b610cff565b6102616102f5366004614dc0565b610ddc565b34801561030657600080fd5b5061030f610eac565b6040519081526020016101f0565b34801561032957600080fd5b5060335460ff1660405190151581526020016101f0565b34801561034c57600080fd5b50610261610f5f565b34801561036157600080fd5b50610261610f71565b34801561037657600080fd5b506102616110bc565b34801561038b57600080fd5b506103946110cc565b604080519283526020830191909152016101f0565b3480156103b557600080fd5b506065546001600160a01b03165b6040516001600160a01b0390911681526020016101f0565b3480156103e757600080fd5b506103c36103f6366004614c66565b6001600160a01b03908116600090815261010660205260409020600101541690565b34801561042457600080fd5b50610261610433366004614c66565b611103565b34801561044457600080fd5b50610261610453366004614e53565b61135c565b34801561046457600080fd5b50610261610473366004614ea3565b61140f565b34801561048457600080fd5b50610498610493366004614c66565b611422565b604080519384526020840192909252908201526060016101f0565b3480156104bf57600080fd5b5060fb546001600160a01b03166103c3565b3480156104dd57600080fd5b506102616104ec366004614c66565b6116e8565b3480156104fd57600080fd5b5061051161050c366004614c66565b61175e565b6040805194855260208501939093529183015260608201526080016101f0565b34801561053d57600080fd5b5061055161054c366004614c66565b611a2f565b6040516101f096959493929190614f27565b34801561056f57600080fd5b5061058361057e366004614c66565b611d08565b6040516101f09190614f8b565b34801561059c57600080fd5b506102616105ab366004614c66565b612057565b6001600160a01b03808216600090815261010660209081526040808320815161024081018352815463ffffffff81168252600160201b90048616818501526001820154861681840152600282015490951660608601526003810180548351818602810186019094528084529495869586958695869586959093608086019383018282801561066757602002820191906000526020600020905b81546001600160a01b03168152600190910190602001808311610649575b50505050508152602001600482018054806020026020016040519081016040528092919081815260200182805480156106c957602002820191906000526020600020905b81546001600160a01b031681526001909101906020018083116106ab575b505050505081526020016005820180548060200260200160405190810160405280929190818152602001828054801561074d57602002820191906000526020600020906000905b82829054906101000a900463ffffffff1663ffffffff16815260200190600401906020826003010492830192600103820291508084116107105790505b5050505050815260200160068201548152602001600782015481526020016008820154815260200160098201548152602001600a8201548152602001600b8201548152602001600c8201548152602001600d8201548152602001600e8201548152602001600f820160009054906101000a900460ff161515151581526020016010820180548060200260200160405190810160405280929190818152602001828054801561084657602002820191906000526020600020906000905b82829054906101000a900463ffffffff1663ffffffff16815260200190600401906020826003010492830192600103820291508084116108095790505b505050919092525050506101808101516101a08201516101c08301516101e084015161016090940151929b919a509850919650945092505050565b6001600160a01b037f00000000000000000000000000000000000000000000000000000000000000001630036108d25760405162461bcd60e51b81526004016108c9906150f2565b60405180910390fd5b7f00000000000000000000000000000000000000000000000000000000000000006001600160a01b031661091b6000805160206157af833981519152546001600160a01b031690565b6001600160a01b0316146109415760405162461bcd60e51b81526004016108c99061513e565b61094a81612095565b604080516000808252602082019092526109669183919061209d565b50565b610971612208565b60fb546001600160a01b0382811660009081526101066020526040808220815163918a54db60e01b81529151939094169392849163918a54db91600480830192869291908290030181865afa1580156109ce573d6000803e3d6000fd5b505050506040513d6000823e601f3d908101601f191682016040526109f6919081019061518a565b6002830180546001600160a01b03191690558051909150610a1b908690869086612262565b5050505050565b6001600160a01b03808216600090815261010660209081526040808320815161024081018352815463ffffffff81168252600160201b9004861681850152600182015486168184015260028201549095166060868101919091526003820180548451818702810187019095528085529596919587958695939493608086019390929091830182828015610ade57602002820191906000526020600020905b81546001600160a01b03168152600190910190602001808311610ac0575b5050505050815260200160048201805480602002602001604051908101604052809291908181526020018280548015610b4057602002820191906000526020600020905b81546001600160a01b03168152600190910190602001808311610b22575b5050505050815260200160058201805480602002602001604051908101604052809291908181526020018280548015610bc457602002820191906000526020600020906000905b82829054906101000a900463ffffffff1663ffffffff1681526020019060040190602082600301049283019260010382029150808411610b875790505b5050505050815260200160068201548152602001600782015481526020016008820154815260200160098201548152602001600a8201548152602001600b8201548152602001600c8201548152602001600d8201548152602001600e8201548152602001600f820160009054906101000a900460ff1615151515815260200160108201805480602002602001604051908101604052809291908181526020018280548015610cbd57602002820191906000526020600020906000905b82829054906101000a900463ffffffff1663ffffffff1681526020019060040190602082600301049283019260010382029150808411610c805790505b50505050508152505090506000816102200151511115610cdc57600193505b610220015180519395909450915050565b610cf5612208565b610cfd612e86565b565b610d07612208565b60fb546040805163918a54db60e01b815290516001600160a01b0390921691600091839163918a54db9160048082019286929091908290030181865afa158015610d55573d6000803e3d6000fd5b505050506040513d6000823e601f3d908101601f19168201604052610d7d919081019061518a565b6001600160a01b03808516600090815261010660205260408082206002810154909316825281209293509091905b83518161ffff161015610dd457610dc28287612ed8565b80610dcc8161525a565b915050610dab565b505050505050565b6001600160a01b037f0000000000000000000000000000000000000000000000000000000000000000163003610e245760405162461bcd60e51b81526004016108c9906150f2565b7f00000000000000000000000000000000000000000000000000000000000000006001600160a01b0316610e6d6000805160206157af833981519152546001600160a01b031690565b6001600160a01b031614610e935760405162461bcd60e51b81526004016108c99061513e565b610e9c82612095565b610ea88282600161209d565b5050565b6000306001600160a01b037f00000000000000000000000000000000000000000000000000000000000000001614610f4c5760405162461bcd60e51b815260206004820152603860248201527f555550535570677261646561626c653a206d757374206e6f742062652063616c60448201527f6c6564207468726f7567682064656c656761746563616c6c000000000000000060648201526084016108c9565b506000805160206157af83398151915290565b610f67612208565b610cfd6000613015565b600054610100900460ff1615808015610f915750600054600160ff909116105b80610fab5750303b158015610fab575060005460ff166001145b61100e5760405162461bcd60e51b815260206004820152602e60248201527f496e697469616c697a61626c653a20636f6e747261637420697320616c72656160448201526d191e481a5b9a5d1a585b1a5e995960921b60648201526084016108c9565b6000805460ff191660011790558015611031576000805461ff0019166101001790555b60fb80546001600160a01b03191673494549e00fe6598e3dc93254c5377c406dda85791790554261010055611064613067565b61106c613096565b6110746130c5565b8015610966576000805461ff0019169055604051600181527f7f26b83ff96e1f2b6a682f133852f6798a09c465da95921460cefb38474024989060200160405180910390a150565b6110c4612208565b610cfd6130ec565b60ff546101005460009081906110e59062093a8061527b565b905042808211156110fd576110fa818361528e565b92505b50509091565b60006101005462093a80611117919061527b565b9050428181101561116a5760405162461bcd60e51b815260206004820152601c60248201527f5765656b6c792074696d65206973206e6f74206f766572207965742e0000000060448201526064016108c9565b6000611174613129565b6001600160a01b038181166000908152610106602052604080822060fb5491516373a5799760e11b8152898516600482015294955093921691829063e74af32e90602401600060405180830381865afa1580156111d5573d6000803e3d6000fd5b505050506040513d6000823e601f3d908101601f191682016040526111fd9190810190615338565b9050600061120d8460ff546131b0565b90508015611352578084600d016000828254611229919061527b565b92505081905550876001600160a01b031663a9059cbb866012856060015160ff16106112555783611268565b611268846012876060015160ff16613212565b6040516001600160e01b031960e085901b1681526001600160a01b03909216600483015260248201526044016020604051808303816000875af11580156112b3573d6000803e3d6000fd5b505050506040513d601f19601f820116820180604052508101906112d7919061541e565b508060ff60008282546112ea919061528e565b90915550504261010055610103805482919060009061130a90849061527b565b9091555050604080516001600160a01b0387168152602081018390527ffff6edc60fd30afefcc47525cdf85502200830b22550391f79f9e383df03afad910160405180910390a15b5050505050505050565b611364612208565b6001600160a01b0383811660009081526101066020526040902060010180546001600160a01b0319169184169190911790556113a881670de0b6b3a7640000615439565b6001600160a01b03841660009081526101066020526040812060090180549091906113d490849061527b565b9091555050604080516001600160a01b038085168252851660208201526000805160206157f6833981519152910160405180910390a1505050565b3361141c84828585613248565b50505050565b6001600160a01b03808216600090815261010660209081526040808320815161024081018352815463ffffffff81168252600160201b9004861681850152600182015486168184015260028201549095166060860152600381018054835181860281018601909452808452949586958695869592949360808601939290918301828280156114d957602002820191906000526020600020905b81546001600160a01b031681526001909101906020018083116114bb575b505050505081526020016004820180548060200260200160405190810160405280929190818152602001828054801561153b57602002820191906000526020600020905b81546001600160a01b0316815260019091019060200180831161151d575b50505050508152602001600582018054806020026020016040519081016040528092919081815260200182805480156115bf57602002820191906000526020600020906000905b82829054906101000a900463ffffffff1663ffffffff16815260200190600401906020826003010492830192600103820291508084116115825790505b5050505050815260200160068201548152602001600782015481526020016008820154815260200160098201548152602001600a8201548152602001600b8201548152602001600c8201548152602001600d8201548152602001600e8201548152602001600f820160009054906101000a900460ff16151515158152602001601082018054806020026020016040519081016040528092919081815260200182805480156116b857602002820191906000526020600020906000905b82829054906101000a900463ffffffff1663ffffffff168152602001906004019060208260030104928301926001038202915080841161167b5790505b50505091909252505050610140810151610160820151909550935090506116df838561528e565b93959294505050565b6116f0612208565b6001600160a01b0381166117555760405162461bcd60e51b815260206004820152602660248201527f4f776e61626c653a206e6577206f776e657220697320746865207a65726f206160448201526564647265737360d01b60648201526084016108c9565b61096681613015565b6001600160a01b03808216600090815261010660209081526040808320815161024081018352815463ffffffff81168252600160201b90048616818501526001820154861681840152600282015490951660608601526003810180548351818602810186019094528084529495869586958695869593946080860193919290919083018282801561181857602002820191906000526020600020905b81546001600160a01b031681526001909101906020018083116117fa575b505050505081526020016004820180548060200260200160405190810160405280929190818152602001828054801561187a57602002820191906000526020600020905b81546001600160a01b0316815260019091019060200180831161185c575b50505050508152602001600582018054806020026020016040519081016040528092919081815260200182805480156118fe57602002820191906000526020600020906000905b82829054906101000a900463ffffffff1663ffffffff16815260200190600401906020826003010492830192600103820291508084116118c15790505b5050505050815260200160068201548152602001600782015481526020016008820154815260200160098201548152602001600a8201548152602001600b8201548152602001600c8201548152602001600d8201548152602001600e8201548152602001600f820160009054906101000a900460ff16151515158152602001601082018054806020026020016040519081016040528092919081815260200182805480156119f757602002820191906000526020600020906000905b82829054906101000a900463ffffffff1663ffffffff16815260200190600401906020826003010492830192600103820291508084116119ba5790505b5050509190925250505060e0810151610100820151610120830151919750955093509050611a25858461527b565b9150509193509193565b6001600160a01b03808216600090815261010660209081526040808320815161024081018352815463ffffffff81168252600160201b90048616818501526001820154861681840152600282015490951660608681019190915260038201805484518187028101870190955280855295969195879587958695889586959094919360808601939290830182828015611af057602002820191906000526020600020905b81546001600160a01b03168152600190910190602001808311611ad2575b5050505050815260200160048201805480602002602001604051908101604052809291908181526020018280548015611b5257602002820191906000526020600020905b81546001600160a01b03168152600190910190602001808311611b34575b5050505050815260200160058201805480602002602001604051908101604052809291908181526020018280548015611bd657602002820191906000526020600020906000905b82829054906101000a900463ffffffff1663ffffffff1681526020019060040190602082600301049283019260010382029150808411611b995790505b5050505050815260200160068201548152602001600782015481526020016008820154815260200160098201548152602001600a8201548152602001600b8201548152602001600c8201548152602001600d8201548152602001600e8201548152602001600f820160009054906101000a900460ff1615151515815260200160108201805480602002602001604051908101604052809291908181526020018280548015611ccf57602002820191906000526020600020906000905b82829054906101000a900463ffffffff1663ffffffff1681526020019060040190602082600301049283019260010382029150808411611c925790505b5050509190925250505060608101516080820151805160a084015160c0909401518451939d929c50909a50929850919650945092505050565b611db9604051806102400160405280600063ffffffff16815260200160006001600160a01b0316815260200160006001600160a01b0316815260200160006001600160a01b03168152602001606081526020016060815260200160608152602001600081526020016000815260200160008152602001600081526020016000815260200160008152602001600081526020016000815260200160008152602001600015158152602001606081525090565b6001600160a01b0380831660009081526101066020908152604091829020825161024081018452815463ffffffff81168252600160201b900485168184015260018201548516818501526002820154909416606085015260038101805484518185028101850190955280855291936080860193909290830182828015611e6857602002820191906000526020600020905b81546001600160a01b03168152600190910190602001808311611e4a575b5050505050815260200160048201805480602002602001604051908101604052809291908181526020018280548015611eca57602002820191906000526020600020905b81546001600160a01b03168152600190910190602001808311611eac575b5050505050815260200160058201805480602002602001604051908101604052809291908181526020018280548015611f4e57602002820191906000526020600020906000905b82829054906101000a900463ffffffff1663ffffffff1681526020019060040190602082600301049283019260010382029150808411611f115790505b5050505050815260200160068201548152602001600782015481526020016008820154815260200160098201548152602001600a8201548152602001600b8201548152602001600c8201548152602001600d8201548152602001600e8201548152602001600f820160009054906101000a900460ff161515151581526020016010820180548060200260200160405190810160405280929190818152602001828054801561204757602002820191906000526020600020906000905b82829054906101000a900463ffffffff1663ffffffff168152602001906004019060208260030104928301926001038202915080841161200a5790505b5050505050815250509050919050565b61205f612208565b6001600160a01b038082166000908152610106602052604080822060028101549093168252902061209081846147c3565b505050565b610966612208565b7f4910fdfa16fed3260ed0e7147f7cc6da11a60208b5b9406d12a635614ffd91435460ff16156120d0576120908361490d565b826001600160a01b03166352d1902d6040518163ffffffff1660e01b8152600401602060405180830381865afa92505050801561212a575060408051601f3d908101601f1916820190925261212791810190615450565b60015b61218d5760405162461bcd60e51b815260206004820152602e60248201527f45524331393637557067726164653a206e657720696d706c656d656e7461746960448201526d6f6e206973206e6f74205555505360901b60648201526084016108c9565b6000805160206157af83398151915281146121fc5760405162461bcd60e51b815260206004820152602960248201527f45524331393637557067726164653a20756e737570706f727465642070726f786044820152681a58589b195555525160ba1b60648201526084016108c9565b506120908383836149a9565b6065546001600160a01b03163314610cfd5760405162461bcd60e51b815260206004820181905260248201527f4f776e61626c653a2063616c6c6572206973206e6f7420746865206f776e657260448201526064016108c9565b6001600160a01b03808416600090815261010660209081526040808320815161024081018352815463ffffffff81168252600160201b90048616818501526001820154861681840152600282015490951660608601526003810180548351818602810186019094528084529195938693608086019390929183018282801561231357602002820191906000526020600020905b81546001600160a01b031681526001909101906020018083116122f5575b505050505081526020016004820180548060200260200160405190810160405280929190818152602001828054801561237557602002820191906000526020600020905b81546001600160a01b03168152600190910190602001808311612357575b50505050508152602001600582018054806020026020016040519081016040528092919081815260200182805480156123f957602002820191906000526020600020906000905b82829054906101000a900463ffffffff1663ffffffff16815260200190600401906020826003010492830192600103820291508084116123bc5790505b5050505050815260200160068201548152602001600782015481526020016008820154815260200160098201548152602001600a8201548152602001600b8201548152602001600c8201548152602001600d8201548152602001600e8201548152602001600f820160009054906101000a900460ff16151515158152602001601082018054806020026020016040519081016040528092919081815260200182805480156124f257602002820191906000526020600020906000905b82829054906101000a900463ffffffff1663ffffffff16815260200190600401906020826003010492830192600103820291508084116124b55790505b5050505050815250509050846001600160a01b031681606001516001600160a01b0316036125775760405162461bcd60e51b815260206004820152602c60248201527f52656665727265722055706c696e652043616e6e6f742062652072656665727260448201526b32b9103237bbb73634b7329760a11b60648201526084016108c9565b856001600160a01b0316856001600160a01b0316036125e85760405162461bcd60e51b815260206004820152602760248201527f52656665727265722026205573657220616464726573732063616e6e6f742062604482015266329039b0b6b29760c91b60648201526084016108c9565b6040805161024081018252835463ffffffff811682526001600160a01b03600160201b909104811660208084019190915260018601548216838501526002860154909116606083015260038501805484518184028101840190955280855261287a948793608086019391929083018282801561268d57602002820191906000526020600020905b81546001600160a01b0316815260019091019060200180831161266f575b50505050508152602001600482018054806020026020016040519081016040528092919081815260200182805480156126ef57602002820191906000526020600020905b81546001600160a01b031681526001909101906020018083116126d1575b505050505081526020016005820180548060200260200160405190810160405280929190818152602001828054801561277357602002820191906000526020600020906000905b82829054906101000a900463ffffffff1663ffffffff16815260200190600401906020826003010492830192600103820291508084116127365790505b5050505050815260200160068201548152602001600782015481526020016008820154815260200160098201548152602001600a8201548152602001600b8201548152602001600c8201548152602001600d8201548152602001600e8201548152602001600f820160009054906101000a900460ff161515151581526020016010820180548060200260200160405190810160405280929190818152602001828054801561286c57602002820191906000526020600020906000905b82829054906101000a900463ffffffff1663ffffffff168152602001906004019060208260030104928301926001038202915080841161282f5790505b5050505050815250506149ce565b610dd4576001600160a01b038616612a7f57604080516001600160a01b038881168252871660208201526060818301819052603a908201527f5a65726f20616464726573732063616e6e6f742062652072656665727265722e60808201527f2053657474696e672064656661756c742072656665727265722e00000000000060a082015290517f32df26c7e54a821624fc8d22e1171e5793b90d1fccc483d3ff277b9c42bb22399181900360c00190a16101085460ff166129fd576000836001600160a01b031663b2e6b9126040518163ffffffff1660e01b8152600401602060405180830381865afa158015612975573d6000803e3d6000fd5b505050506040513d601f19601f820116820180604052508101906129999190615469565b6002840180546001600160a01b0319166001600160a01b038381169182179092556040805191825291891660208201529192507fec49a3c8c4ae06c18160fe86119c381c9d213ac3e052ff35b594da8687b193c7910160405180910390a150612a67565b6000612a07613129565b6002840180546001600160a01b0319166001600160a01b038381169182179092556040805191825291891660208201529192507fec49a3c8c4ae06c18160fe86119c381c9d213ac3e052ff35b594da8687b193c7910160405180910390a1505b610108805460ff19811660ff90911615179055612adb565b6002820180546001600160a01b0319166001600160a01b038881169182179092556040805191825291871660208201527fec49a3c8c4ae06c18160fe86119c381c9d213ac3e052ff35b594da8687b193c7910160405180910390a15b60005b8460ff168160ff161015612e7d5760028301546001600160a01b031615612e7d5760028301546001600160a01b03166000908152610106602052604081209060ff83169003612ded5760038101805460018082018355600092835260209092200180546001600160a01b0319166001600160a01b038a811691909117909155908501541615612be9576001840154604080516001600160a01b03928316815291891660208301526060828201819052601d908301527f5265666572656520616c7265616479206861766520696270207365742e0000006080830152517fffca51efd3fa9dd00c7ad8de67cce6deeb82e78db2d05fe4b84079eca71665109181900360a00190a1612ded565b60018101546001600160a01b0316612d9d576001810154604080516001600160a01b039283168152918916602083015260608282018190526032908301527f5a65726f20616464726573732063616e6e6f74206265206962702e20536574746080830152710696e672075702064656661756c74206962760741b60a0830152517fffca51efd3fa9dd00c7ad8de67cce6deeb82e78db2d05fe4b84079eca71665109181900360c00190a16000856001600160a01b031663b2e6b9126040518163ffffffff1660e01b8152600401602060405180830381865afa158015612cd3573d6000803e3d6000fd5b505050506040513d601f19601f82011682018060405250810190612cf79190615469565b600186810180546001600160a01b038481166001600160a01b03199283168117909355928601805490911682179055845460408051928352600160201b90910490921660208201529192506000805160206157f6833981519152910160405180910390a18454604080516001600160a01b038085168252600160201b90930490921660208301526000805160206157f6833981519152910160405180910390a150612ded565b6001818101805491860180546001600160a01b0319166001600160a01b039384161790555460408051918316825291891660208201526000805160206157f6833981519152910160405180910390a15b60048101805460018082018355600092835260209092200180546001600160a01b0319166001600160a01b038a161790556005820190612e2e908490615486565b8154600181018355600092835260209092206008830401805463ffffffff60079094166004026101000a938402191660ff92909216909202179055925080612e758161549f565b915050612ade565b50505050505050565b612e8e6149ed565b6033805460ff191690557f5db9ee0a495bf2e6ff9c91a7834c1ba4fdd244a5e8aa4e537bd38aeae4b073aa335b6040516001600160a01b03909116815260200160405180910390a1565b8154600160201b90046001600160a01b031615610ea857600482015460005b8181101561141c57826001600160a01b0316846003018281548110612f1e57612f1e6154be565b6000918252602090912001546001600160a01b031603612fec57600484018054612f4a9060019061528e565b81548110612f5a57612f5a6154be565b6000918252602090912001546004850180546001600160a01b039092169183908110612f8857612f886154be565b9060005260206000200160006101000a8154816001600160a01b0302191690836001600160a01b0316021790555083600401805480612fc957612fc96154d4565b600082815260209020810160001990810180546001600160a01b03191690550190555b6004840154612ffd9060019061528e565b811461141c578061300d816154ea565b915050612ef7565b606580546001600160a01b038381166001600160a01b0319831681179093556040519116919082907f8be0079c531659141344cd1fd0a4f28419497f9722a3daafe3b4186f6b6457e090600090a35050565b600054610100900460ff1661308e5760405162461bcd60e51b81526004016108c990615503565b610cfd614a36565b600054610100900460ff166130bd5760405162461bcd60e51b81526004016108c990615503565b610cfd614a69565b600054610100900460ff16610cfd5760405162461bcd60e51b81526004016108c990615503565b6130f4614a99565b6033805460ff191660011790557f62e78cea01bee320cd4e420270b5ea74000d11b0c9f74754ebdbfc544b05a258612ebb3390565b600080424461313960014361528e565b60408051602081019490945283019190915240606082015260800160408051601f19818403018152919052805160209091012060fc5490915060009061317f9083615564565b905060fc8181548110613194576131946154be565b6000918252602090912001546001600160a01b03169392505050565b600082600901548284600a01546131c7919061527b565b116131ee578190508183600a0160008282546131e3919061527b565b9091555061320c9050565b82600a01548360090154613202919061528e565b600a840181905590505b92915050565b600061321f83600a61565c565b61322a83600a61565c565b6132349086615439565b61323e9190615668565b90505b9392505050565b60fb54604051630efc12b160e01b815260ff841660048201526001600160a01b03909116906000908290630efc12b190602401600060405180830381865afa158015613298573d6000803e3d6000fd5b505050506040513d6000823e601f3d908101601f191682016040526132c0919081019061567c565b905060008160400151116133295760405162461bcd60e51b815260206004820152602a60248201527f56616c7565206973207a65726f2e20506c656173652073656c65637420636f726044820152693932b1ba10383630b71760b11b60648201526084016108c9565b6040516373a5799760e11b81526001600160a01b0384811660048301526000919084169063e74af32e90602401600060405180830381865afa158015613373573d6000803e3d6000fd5b505050506040513d6000823e601f3d908101601f1916820160405261339b9190810190615338565b606081015160c0820151919250906133ee5760405162461bcd60e51b8152602060048201526016602482015275151bdad95b881a5cc81b9bdd081cdd5c1c1bdc9d195960521b60448201526064016108c9565b60008590506000856001600160a01b031663918a54db6040518163ffffffff1660e01b8152600401600060405180830381865afa158015613433573d6000803e3d6000fd5b505050506040513d6000823e601f3d908101601f1916820160405261345b919081019061518a565b9050816001600160a01b03166323b872dd8a3060128760ff1610613483578860400151613496565b613496896040015160128960ff16613212565b6040516001600160e01b031960e086901b1681526001600160a01b03938416600482015292909116602483015260448201526064016020604051808303816000875af11580156134ea573d6000803e3d6000fd5b505050506040513d601f19601f8201168201806040525081019061350e919061541e565b506001600160a01b0389166000908152610106602052604081208054909163ffffffff90911690036135ab5760fd805463ffffffff1690600061355083615729565b82546101009290920a63ffffffff81810219909316918316021790915560fd548354911663ffffffff199091168117835560009081526101076020526040902080546001600160a01b0319166001600160a01b038d16179055505b8054640100000000600160c01b031916600160201b6001600160a01b038c160217815560408601516006820180546000906135e790849061527b565b9091555050606086015160408701516136009190615439565b816009016000828254613613919061527b565b90915550506040805161024081018252825463ffffffff811682526001600160a01b03600160201b9091048116602080840191909152600185015482168385015260028501549091166060830152600384018054845181840281018401909552808552613858948693608086019391929083018282801561268d576020028201919060005260206000209081546001600160a01b0316815260019091019060200180831161266f5750505050508152602001600482018054806020026020016040519081016040528092919081815260200182805480156126ef576020028201919060005260206000209081546001600160a01b031681526001909101906020018083116126d1575050505050815260200160058201805480602002602001604051908101604052809291908181526020018280548015612773576000918252602091829020805463ffffffff1684529082028301929091600491018084116127365790505050505050815260200160068201548152602001600782015481526020016008820154815260200160098201548152602001600a8201548152602001600b8201548152602001600c8201548152602001600d8201548152602001600e8201548152602001600f820160009054906101000a900460ff161515151581526020016010820180548060200260200160405190810160405280929190818152602001828054801561286c576000918252602091829020805463ffffffff16845290820283019290916004910180841161282f5790505050505050815250506149ce565b613869576138698b8b84518a612262565b8054600282015460408051600160201b84046001600160a01b03908116825263ffffffff909416602082015260ff8d1681830152929091166060830152517fccdfed8601106cae21493f7848436196048b60f2dc70db89d92e3acdabb0ee299181900360800190a160006138db613129565b90506001600160a01b03811615613a8e576001600160a01b038116600090815261010660205260408082209089015190919061393090839060649061392190600a615439565b61392b9190615668565b6131b0565b90508015613a8b57856001600160a01b031663a9059cbb8460128a60ff16106139595783613968565b6139688460128c60ff16613212565b6040516001600160e01b031960e085901b1681526001600160a01b03909216600483015260248201526044016020604051808303816000875af11580156139b3573d6000803e3d6000fd5b505050506040513d601f19601f820116820180604052508101906139d7919061541e565b508082600c0160008282546139ec919061527b565b925050819055507f693fc02576006378cd4577590d99ad6b18ad4c566c433b85643d7b07a4815665838e8b6040015184600a6064604051613a6a969594939291906001600160a01b0396871681529490951660208501526040840192909252606083015261ffff90811660808301529190911660a082015260c00190565b60405180910390a1806101026000828254613a85919061527b565b90915550505b50505b60018201546001600160a01b031615613ccb5760018201546001600160a01b03166000908152610106602052604080822090890151909190606490613ad4906005615439565b613ade9190615668565b90506000613aec83836131b0565b90508015613cc7578083600e016000828254613b08919061527b565b909155505060018501546001600160a01b038089169163a9059cbb9116601260ff8c1610613b365783613b45565b613b458460128d60ff16613212565b6040516001600160e01b031960e085901b1681526001600160a01b03909216600483015260248201526044016020604051808303816000875af1158015613b90573d6000803e3d6000fd5b505050506040513d601f19601f82011682018060405250810190613bb4919061541e565b507f3c8fdb10971c51ff48e3a4db4d7f14e64690a286be5bb9f410d9fd0fb74dbf488560010160009054906101000a90046001600160a01b03168660000160049054906101000a90046001600160a01b03168c60400151848f6001600160a01b031663e70167176040518163ffffffff1660e01b8152600401602060405180830381865afa158015613c4a573d6000803e3d6000fd5b505050506040513d601f19601f82011682018060405250810190613c6e9190615742565b604080516001600160a01b03968716815295909416602086015292840191909152606083015260ff166080820152606460a082015260c00160405180910390a1816101056000828254613cc1919061527b565b90915550505b5050505b6000805b84518160ff16101561422f576040805161024081018252855463ffffffff811682526001600160a01b03600160201b9091048116602080840191909152600188015482168385015260028801549091166060830152600387018054845181840281018401909552808552613f1b948993608086019391929083018282801561268d576020028201919060005260206000209081546001600160a01b0316815260019091019060200180831161266f5750505050508152602001600482018054806020026020016040519081016040528092919081815260200182805480156126ef576020028201919060005260206000209081546001600160a01b031681526001909101906020018083116126d1575050505050815260200160058201805480602002602001604051908101604052809291908181526020018280548015612773576000918252602091829020805463ffffffff1684529082028301929091600491018084116127365790505050505050815260200160068201548152602001600782015481526020016008820154815260200160098201548152602001600a8201548152602001600b8201548152602001600c8201548152602001600d8201548152602001600e8201548152602001600f820160009054906101000a900460ff161515151581526020016010820180548060200260200160405190810160405280929190818152602001828054801561286c576000918252602091829020805463ffffffff16845290820283019290916004910180841161282f5790505050505050815250506149ce565b1561422f5760028401546001600160a01b03166000908152610106602052604081209060ff8316900361402a578960400151816007016000828254613f60919061527b565b9091555050600f81015460ff161561401557600285015460fc80546001818101835560008390527f371f36870d18f32a11fea0f144b021c8b407bb50f8e0267c711123f454b963c090910180546001600160a01b0319166001600160a01b0390941693909317909255546010830191613fd89161528e565b8154600181018355600092835260209092206008830401805460079093166004026101000a63ffffffff8181021990941692909316929092021790555b600f8101805460ff19811660ff909116151790555b8960400151816008016000828254614042919061527b565b92505081905550600061408282612710898660ff1681518110614067576140676154be565b602002602001015161ffff168e604001516139219190615439565b9050801561421a578082600b01600082825461409e919061527b565b909155505060028601546001600160a01b03808a169163a9059cbb9116601260ff8d16106140cc57836140db565b6140db8460128e60ff16613212565b6040516001600160e01b031960e085901b1681526001600160a01b03909216600483015260248201526044016020604051808303816000875af1158015614126573d6000803e3d6000fd5b505050506040513d601f19601f8201168201806040525081019061414a919061541e565b50614155818561527b565b6002870154875460408e01518a519397507f3fae587c6f1778678d1e63bd99d63afe07677c2a2eb43a4b228b80e8a38c1b06936001600160a01b0393841693600160201b9093049092169185908c9060ff8a169081106141b7576141b76154be565b60200260200101516127108960016141cf9190615486565b604080516001600160a01b03988916815297909616602088015294860193909352606085019190915261ffff16608084015260a083015260ff1660c082015260e00160405180910390a15b509350806142278161549f565b915050613ccf565b50806101016000828254614243919061527b565b9091555050604088015160fe805460009061425f90849061527b565b9091555050604088015160649061427790600a615439565b6142819190615668565b60ff6000828254614292919061527b565b925050819055506000896001600160a01b03166365eb204d6040518163ffffffff1660e01b8152600401602060405180830381865afa1580156142d9573d6000803e3d6000fd5b505050506040513d601f19601f820116820180604052508101906142fd9190615469565b6040516370a0823160e01b81523060048201526001600160a01b0391909116906370a0823190602401602060405180830381865afa158015614343573d6000803e3d6000fd5b505050506040513d601f19601f820116820180604052508101906143679190615450565b905080156145ae57600060648a6040015160326143849190615439565b61438e9190615668565b90508a6001600160a01b0316638e68dce46040518163ffffffff1660e01b8152600401602060405180830381865afa1580156143ce573d6000803e3d6000fd5b505050506040513d601f19601f820116820180604052508101906143f29190615469565b6001600160a01b031663adc9772e8f836040518363ffffffff1660e01b81526004016144339291906001600160a01b03929092168252602082015260400190565b600060405180830381600087803b15801561444d57600080fd5b505af1158015614461573d6000803e3d6000fd5b505050508a6001600160a01b03166365eb204d6040518163ffffffff1660e01b8152600401602060405180830381865afa1580156144a3573d6000803e3d6000fd5b505050506040513d601f19601f820116820180604052508101906144c79190615469565b6001600160a01b031663a9059cbb8c6001600160a01b0316638e68dce46040518163ffffffff1660e01b8152600401602060405180830381865afa158015614513573d6000803e3d6000fd5b505050506040513d601f19601f820116820180604052508101906145379190615469565b6040808e015190516001600160e01b031960e085901b1681526001600160a01b03909216600483015260248201526044016020604051808303816000875af1158015614587573d6000803e3d6000fd5b505050506040513d601f19601f820116820180604052508101906145ab919061541e565b50505b600060648a6040015160056145c39190615439565b6145cd9190615668565b9050866001600160a01b031663a9059cbb8c6001600160a01b031663916452ab6040518163ffffffff1660e01b8152600401602060405180830381865afa15801561461c573d6000803e3d6000fd5b505050506040513d601f19601f820116820180604052508101906146409190615469565b60128b60ff16106146515783614660565b6146608460128d60ff16613212565b6040516001600160e01b031960e085901b1681526001600160a01b03909216600483015260248201526044016020604051808303816000875af11580156146ab573d6000803e3d6000fd5b505050506040513d601f19601f820116820180604052508101906146cf919061541e565b508061010460008282546146e3919061527b565b925050819055507fa290591faac5edd9224fc9f6b8304a91a0fddafde40a1b07f54c093daa8044388b6001600160a01b031663916452ab6040518163ffffffff1660e01b8152600401602060405180830381865afa158015614749573d6000803e3d6000fd5b505050506040513d601f19601f8201168201806040525081019061476d9190615469565b60128a60ff1610614781578960ff16614790565b6147908360128c60ff16613212565b604080516001600160a01b03909316835260208301919091520160405180910390a1505050505050505050505050505050565b8154600160201b90046001600160a01b031615610ea857600382015460005b8181101561141c57826001600160a01b0316846003018281548110614809576148096154be565b6000918252602090912001546001600160a01b0316036148d7576003840180546148359060019061528e565b81548110614845576148456154be565b6000918252602090912001546003850180546001600160a01b039092169183908110614873576148736154be565b9060005260206000200160006101000a8154816001600160a01b0302191690836001600160a01b03160217905550836003018054806148b4576148b46154d4565b600082815260209020810160001990810180546001600160a01b03191690550190555b600384015415806148f7575060038401546148f49060019061528e565b81145b61141c5780614905816154ea565b9150506147e2565b6001600160a01b0381163b61497a5760405162461bcd60e51b815260206004820152602d60248201527f455243313936373a206e657720696d706c656d656e746174696f6e206973206e60448201526c1bdd08184818dbdb9d1c9858dd609a1b60648201526084016108c9565b6000805160206157af83398151915280546001600160a01b0319166001600160a01b0392909216919091179055565b6149b283614adf565b6000825111806149bf5750805b156120905761141c8383614b1f565b60608101516000906001600160a01b0316156149e8575060015b919050565b60335460ff16610cfd5760405162461bcd60e51b815260206004820152601460248201527314185d5cd8589b194e881b9bdd081c185d5cd95960621b60448201526064016108c9565b600054610100900460ff16614a5d5760405162461bcd60e51b81526004016108c990615503565b6033805460ff19169055565b600054610100900460ff16614a905760405162461bcd60e51b81526004016108c990615503565b610cfd33613015565b60335460ff1615610cfd5760405162461bcd60e51b815260206004820152601060248201526f14185d5cd8589b194e881c185d5cd95960821b60448201526064016108c9565b614ae88161490d565b6040516001600160a01b038216907fbc7cd75a20ee27fd9adebab32041f755214dbc6bffa90cc0225b39da2e5c2d3b90600090a250565b60606001600160a01b0383163b614b875760405162461bcd60e51b815260206004820152602660248201527f416464726573733a2064656c65676174652063616c6c20746f206e6f6e2d636f6044820152651b9d1c9858dd60d21b60648201526084016108c9565b600080846001600160a01b031684604051614ba2919061575f565b600060405180830381855af49150503d8060008114614bdd576040519150601f19603f3d011682016040523d82523d6000602084013e614be2565b606091505b5091509150614c0a82826040518060600160405280602781526020016157cf60279139614c13565b95945050505050565b60608315614c22575081613241565b6132418383815115614c375781518083602001fd5b8060405162461bcd60e51b81526004016108c9919061577b565b6001600160a01b038116811461096657600080fd5b600060208284031215614c7857600080fd5b813561324181614c51565b60008060408385031215614c9657600080fd5b8235614ca181614c51565b91506020830135614cb181614c51565b809150509250929050565b600081518084526020808501945080840160005b83811015614cf257815163ffffffff1687529582019590820190600101614cd0565b509495945050505050565b8315158152606060208201526000614d186060830185614cbc565b9050826040830152949350505050565b634e487b7160e01b600052604160045260246000fd5b60405160e0810167ffffffffffffffff81118282101715614d6157614d61614d28565b60405290565b604051601f8201601f1916810167ffffffffffffffff81118282101715614d9057614d90614d28565b604052919050565b600067ffffffffffffffff821115614db257614db2614d28565b50601f01601f191660200190565b60008060408385031215614dd357600080fd5b8235614dde81614c51565b9150602083013567ffffffffffffffff811115614dfa57600080fd5b8301601f81018513614e0b57600080fd5b8035614e1e614e1982614d98565b614d67565b818152866020838501011115614e3357600080fd5b816020840160208301376000602083830101528093505050509250929050565b600080600060608486031215614e6857600080fd5b8335614e7381614c51565b92506020840135614e8381614c51565b929592945050506040919091013590565b60ff8116811461096657600080fd5b600080600060608486031215614eb857600080fd5b8335614ec381614c51565b92506020840135614ed381614e94565b91506040840135614ee381614c51565b809150509250925092565b600081518084526020808501945080840160005b83811015614cf25781516001600160a01b031687529582019590820190600101614f02565b6001600160a01b038716815260c060208201819052600090614f4b90830188614eee565b8660408401528281036060840152614f638187614eee565b90508281036080840152614f778186614cbc565b9150508260a0830152979650505050505050565b60208152614fa260208201835163ffffffff169052565b60006020830151614fbe60408401826001600160a01b03169052565b5060408301516001600160a01b03811660608401525060608301516001600160a01b03811660808401525060808301516102408060a0850152615005610260850183614eee565b915060a0850151601f19808685030160c08701526150238483614eee565b935060c08701519150808685030160e08701526150408483614cbc565b60e088015161010088810191909152880151610120808901919091528801516101408089019190915288015161016080890191909152880151610180808901919091528801516101a0808901919091528801516101c0808901919091528801516101e0808901919091528801516102008089019190915288015190945091506102206150cf8188018415159052565b8701518685039091018387015290506150e88382614cbc565b9695505050505050565b6020808252602c908201527f46756e6374696f6e206d7573742062652063616c6c6564207468726f7567682060408201526b19195b1959d85d1958d85b1b60a21b606082015260800190565b6020808252602c908201527f46756e6374696f6e206d7573742062652063616c6c6564207468726f7567682060408201526b6163746976652070726f787960a01b606082015260800190565b6000602080838503121561519d57600080fd5b825167ffffffffffffffff808211156151b557600080fd5b818501915085601f8301126151c957600080fd5b8151818111156151db576151db614d28565b8060051b91506151ec848301614d67565b818152918301840191848101908884111561520657600080fd5b938501935b83851015615238578451925061ffff831683146152285760008081fd5b828252938501939085019061520b565b98975050505050505050565b634e487b7160e01b600052601160045260246000fd5b600061ffff80831681810361527157615271615244565b6001019392505050565b8082018082111561320c5761320c615244565b8181038181111561320c5761320c615244565b80516149e881614c51565b60005b838110156152c75781810151838201526020016152af565b50506000910152565b600082601f8301126152e157600080fd5b81516152ef614e1982614d98565b81815284602083860101111561530457600080fd5b6153158260208301602087016152ac565b949350505050565b80516149e881614e94565b805180151581146149e857600080fd5b60006020828403121561534a57600080fd5b815167ffffffffffffffff8082111561536257600080fd5b9083019060e0828603121561537657600080fd5b61537e614d3e565b615387836152a1565b815260208301518281111561539b57600080fd5b6153a7878286016152d0565b6020830152506040830151828111156153bf57600080fd5b6153cb878286016152d0565b6040830152506153dd6060840161531d565b60608201526153ee60808401615328565b60808201526153ff60a084016152a1565b60a082015261541060c08401615328565b60c082015295945050505050565b60006020828403121561543057600080fd5b61324182615328565b808202811582820484141761320c5761320c615244565b60006020828403121561546257600080fd5b5051919050565b60006020828403121561547b57600080fd5b815161324181614c51565b60ff818116838216019081111561320c5761320c615244565b600060ff821660ff81036154b5576154b5615244565b60010192915050565b634e487b7160e01b600052603260045260246000fd5b634e487b7160e01b600052603160045260246000fd5b6000600182016154fc576154fc615244565b5060010190565b6020808252602b908201527f496e697469616c697a61626c653a20636f6e7472616374206973206e6f74206960408201526a6e697469616c697a696e6760a81b606082015260800190565b634e487b7160e01b600052601260045260246000fd5b6000826155735761557361554e565b500690565b600181815b808511156155b357816000190482111561559957615599615244565b808516156155a657918102915b93841c939080029061557d565b509250929050565b6000826155ca5750600161320c565b816155d75750600061320c565b81600181146155ed57600281146155f757615613565b600191505061320c565b60ff84111561560857615608615244565b50506001821b61320c565b5060208310610133831016604e8410600b8410161715615636575081810a61320c565b6156408383615578565b806000190482111561565457615654615244565b029392505050565b600061324183836155bb565b6000826156775761567761554e565b500490565b60006020828403121561568e57600080fd5b815167ffffffffffffffff808211156156a657600080fd5b90830190608082860312156156ba57600080fd5b6040516080810181811083821117156156d5576156d5614d28565b60405282516156e381614e94565b81526020830151828111156156f757600080fd5b615703878286016152d0565b602083015250604083015160408201526060830151606082015280935050505092915050565b600063ffffffff80831681810361527157615271615244565b60006020828403121561575457600080fd5b815161324181614e94565b600082516157718184602087016152ac565b9190910192915050565b602081526000825180602084015261579a8160408501602087016152ac565b601f01601f1916919091016040019291505056fe360894a13ba1a3210667c828492db98dca3e2076cc3735a920a3ca505d382bbc416464726573733a206c6f772d6c6576656c2064656c65676174652063616c6c206661696c656400f37bd73ff29ab549d774afc91445bf33292ed9a4b4b4177fb1e61ff3c58469a2646970667358221220c0b6a95ae34e7f4a55848a37da4bf0a1f02164c73983360da309293d0c27450a64736f6c63430008120033",
  "linkReferences": {},
  "deployedLinkReferences": {}
}