{
  "_format": "hh-sol-artifact-1",
  "contractName": "ReferralV1Upgradeable",
  "sourceName": "contracts/ReferralV1Upgradeable.sol",
  "abi": [
    {
      "anonymous": false,
      "inputs": [
        {
          "indexed": false,
          "internalType": "address",
          "name": "previousAdmin",
          "type": "address"
        },
        {
          "indexed": false,
          "internalType": "address",
          "name": "newAdmin",
          "type": "address"
        }
      ],
      "name": "AdminChanged",
      "type": "event"
    },
    {
      "anonymous": false,
      "inputs": [
        {
          "indexed": true,
          "internalType": "address",
          "name": "beacon",
          "type": "address"
        }
      ],
      "name": "BeaconUpgraded",
      "type": "event"
    },
    {
      "anonymous": false,
      "inputs": [
        {
          "indexed": false,
          "internalType": "address",
          "name": "globalAddress",
          "type": "address"
        },
        {
          "indexed": false,
          "internalType": "address",
          "name": "userAddress",
          "type": "address"
        },
        {
          "indexed": false,
          "internalType": "uint256",
          "name": "registrationValue",
          "type": "uint256"
        },
        {
          "indexed": false,
          "internalType": "uint256",
          "name": "rewardValue",
          "type": "uint256"
        },
        {
          "indexed": false,
          "internalType": "uint16",
          "name": "rewardRate",
          "type": "uint16"
        },
        {
          "indexed": false,
          "internalType": "uint16",
          "name": "rewardRateDecimals",
          "type": "uint16"
        },
        {
          "indexed": false,
          "internalType": "string",
          "name": "reason",
          "type": "string"
        }
      ],
      "name": "GlobalRewardsNotPaid",
      "type": "event"
    },
    {
      "anonymous": false,
      "inputs": [
        {
          "indexed": false,
          "internalType": "address",
          "name": "globalAddress",
          "type": "address"
        },
        {
          "indexed": false,
          "internalType": "address",
          "name": "userAddress",
          "type": "address"
        },
        {
          "indexed": false,
          "internalType": "uint256",
          "name": "registrationValue",
          "type": "uint256"
        },
        {
          "indexed": false,
          "internalType": "uint256",
          "name": "rewardValue",
          "type": "uint256"
        },
        {
          "indexed": false,
          "internalType": "uint16",
          "name": "rewardRate",
          "type": "uint16"
        },
        {
          "indexed": false,
          "internalType": "uint16",
          "name": "rewardRateDecimals",
          "type": "uint16"
        }
      ],
      "name": "GlobalRewardsPaid",
      "type": "event"
    },
    {
      "anonymous": false,
      "inputs": [
        {
          "indexed": false,
          "internalType": "address",
          "name": "ibpAddress",
          "type": "address"
        },
        {
          "indexed": false,
          "internalType": "address",
          "name": "userAddress",
          "type": "address"
        }
      ],
      "name": "IBPAdded",
      "type": "event"
    },
    {
      "anonymous": false,
      "inputs": [
        {
          "indexed": false,
          "internalType": "address",
          "name": "ibpAddress",
          "type": "address"
        },
        {
          "indexed": false,
          "internalType": "address",
          "name": "userAddress",
          "type": "address"
        },
        {
          "indexed": false,
          "internalType": "string",
          "name": "reason",
          "type": "string"
        }
      ],
      "name": "IBPNotAdded",
      "type": "event"
    },
    {
      "anonymous": false,
      "inputs": [
        {
          "indexed": false,
          "internalType": "address",
          "name": "ibpAddress",
          "type": "address"
        },
        {
          "indexed": false,
          "internalType": "string",
          "name": "reason",
          "type": "string"
        }
      ],
      "name": "IBPRewardsNotPaid",
      "type": "event"
    },
    {
      "anonymous": false,
      "inputs": [
        {
          "indexed": false,
          "internalType": "address",
          "name": "ibpAddress",
          "type": "address"
        },
        {
          "indexed": false,
          "internalType": "address",
          "name": "userAddress",
          "type": "address"
        },
        {
          "indexed": false,
          "internalType": "uint256",
          "name": "businessValue",
          "type": "uint256"
        },
        {
          "indexed": false,
          "internalType": "uint256",
          "name": "rewardValue",
          "type": "uint256"
        },
        {
          "indexed": false,
          "internalType": "uint16",
          "name": "rewardRate",
          "type": "uint16"
        },
        {
          "indexed": false,
          "internalType": "uint16",
          "name": "rewardRateDecimals",
          "type": "uint16"
        }
      ],
      "name": "IBPRewardsPaid",
      "type": "event"
    },
    {
      "anonymous": false,
      "inputs": [
        {
          "indexed": false,
          "internalType": "uint8",
          "name": "version",
          "type": "uint8"
        }
      ],
      "name": "Initialized",
      "type": "event"
    },
    {
      "anonymous": false,
      "inputs": [
        {
          "indexed": false,
          "internalType": "address",
          "name": "userAddress",
          "type": "address"
        },
        {
          "indexed": false,
          "internalType": "string",
          "name": "reason",
          "type": "string"
        }
      ],
      "name": "NoRewardsPaid",
      "type": "event"
    },
    {
      "anonymous": false,
      "inputs": [
        {
          "indexed": true,
          "internalType": "address",
          "name": "previousOwner",
          "type": "address"
        },
        {
          "indexed": true,
          "internalType": "address",
          "name": "newOwner",
          "type": "address"
        }
      ],
      "name": "OwnershipTransferred",
      "type": "event"
    },
    {
      "anonymous": false,
      "inputs": [
        {
          "indexed": false,
          "internalType": "address",
          "name": "account",
          "type": "address"
        }
      ],
      "name": "Paused",
      "type": "event"
    },
    {
      "anonymous": false,
      "inputs": [
        {
          "indexed": false,
          "internalType": "address",
          "name": "referrerAddress",
          "type": "address"
        },
        {
          "indexed": false,
          "internalType": "address",
          "name": "userAddress",
          "type": "address"
        },
        {
          "indexed": false,
          "internalType": "uint256",
          "name": "value",
          "type": "uint256"
        },
        {
          "indexed": false,
          "internalType": "uint256",
          "name": "rewardValue",
          "type": "uint256"
        },
        {
          "indexed": false,
          "internalType": "uint256",
          "name": "rewardRate",
          "type": "uint256"
        },
        {
          "indexed": false,
          "internalType": "uint256",
          "name": "rewardRateDecimals",
          "type": "uint256"
        },
        {
          "indexed": false,
          "internalType": "uint32",
          "name": "level",
          "type": "uint32"
        }
      ],
      "name": "ReferralRewardsPaid",
      "type": "event"
    },
    {
      "anonymous": false,
      "inputs": [
        {
          "indexed": false,
          "internalType": "address",
          "name": "referrerAddress",
          "type": "address"
        },
        {
          "indexed": false,
          "internalType": "address",
          "name": "refereeAddress",
          "type": "address"
        }
      ],
      "name": "ReferrerAdded",
      "type": "event"
    },
    {
      "anonymous": false,
      "inputs": [
        {
          "indexed": false,
          "internalType": "address",
          "name": "referrerAddress",
          "type": "address"
        },
        {
          "indexed": false,
          "internalType": "address",
          "name": "refereeAddress",
          "type": "address"
        },
        {
          "indexed": false,
          "internalType": "string",
          "name": "reason",
          "type": "string"
        }
      ],
      "name": "ReferrerNotAdded",
      "type": "event"
    },
    {
      "anonymous": false,
      "inputs": [
        {
          "indexed": false,
          "internalType": "address",
          "name": "userAddress",
          "type": "address"
        },
        {
          "indexed": false,
          "internalType": "uint32",
          "name": "userId",
          "type": "uint32"
        },
        {
          "indexed": false,
          "internalType": "uint8",
          "name": "planId",
          "type": "uint8"
        },
        {
          "indexed": false,
          "internalType": "address",
          "name": "referrerAddress",
          "type": "address"
        }
      ],
      "name": "Registration",
      "type": "event"
    },
    {
      "anonymous": false,
      "inputs": [
        {
          "indexed": false,
          "internalType": "address",
          "name": "parentAddress",
          "type": "address"
        },
        {
          "indexed": false,
          "internalType": "address",
          "name": "referrerAddress",
          "type": "address"
        },
        {
          "indexed": false,
          "internalType": "address",
          "name": "refereeAddress",
          "type": "address"
        },
        {
          "indexed": false,
          "internalType": "uint32",
          "name": "level",
          "type": "uint32"
        }
      ],
      "name": "TeamAddressAdded",
      "type": "event"
    },
    {
      "anonymous": false,
      "inputs": [
        {
          "indexed": false,
          "internalType": "address",
          "name": "account",
          "type": "address"
        }
      ],
      "name": "Unpaused",
      "type": "event"
    },
    {
      "anonymous": false,
      "inputs": [
        {
          "indexed": true,
          "internalType": "address",
          "name": "implementation",
          "type": "address"
        }
      ],
      "name": "Upgraded",
      "type": "event"
    },
    {
      "anonymous": false,
      "inputs": [
        {
          "indexed": false,
          "internalType": "address",
          "name": "globalAddress",
          "type": "address"
        },
        {
          "indexed": false,
          "internalType": "uint256",
          "name": "rewardValue",
          "type": "uint256"
        }
      ],
      "name": "WeeklyRewardsPaid",
      "type": "event"
    },
    {
      "inputs": [
        {
          "internalType": "address",
          "name": "_userAddress",
          "type": "address"
        },
        {
          "internalType": "address",
          "name": "_ibpAddress",
          "type": "address"
        }
      ],
      "name": "addIbpToAddressAdmin",
      "outputs": [],
      "stateMutability": "nonpayable",
      "type": "function"
    },
    {
      "inputs": [
        {
          "internalType": "address",
          "name": "_tokenAddress",
          "type": "address"
        }
      ],
      "name": "distributeWeeklyReward",
      "outputs": [
        {
          "internalType": "address",
          "name": "",
          "type": "address"
        }
      ],
      "stateMutability": "nonpayable",
      "type": "function"
    },
    {
      "inputs": [],
      "name": "getRegistrationsStats",
      "outputs": [
        {
          "internalType": "uint32",
          "name": "totalUser",
          "type": "uint32"
        },
        {
          "internalType": "uint256",
          "name": "totalRegistrationValue",
          "type": "uint256"
        },
        {
          "internalType": "uint256",
          "name": "totalReferralPaid",
          "type": "uint256"
        },
        {
          "internalType": "uint256",
          "name": "totalGlobalRewardsPaid",
          "type": "uint256"
        },
        {
          "internalType": "uint256",
          "name": "totalWeeklyRewardsPaid",
          "type": "uint256"
        },
        {
          "internalType": "uint256",
          "name": "totalCoreMembershipRewardPaid",
          "type": "uint256"
        },
        {
          "internalType": "uint256",
          "name": "totalIbpRewardsPaid",
          "type": "uint256"
        }
      ],
      "stateMutability": "view",
      "type": "function"
    },
    {
      "inputs": [
        {
          "internalType": "address",
          "name": "_userAddress",
          "type": "address"
        }
      ],
      "name": "getUserAccount",
      "outputs": [
        {
          "components": [
            {
              "internalType": "uint32",
              "name": "userId",
              "type": "uint32"
            },
            {
              "internalType": "address",
              "name": "selfAddress",
              "type": "address"
            },
            {
              "internalType": "address",
              "name": "ibpAddress",
              "type": "address"
            },
            {
              "internalType": "address",
              "name": "referrerAddress",
              "type": "address"
            },
            {
              "internalType": "address[]",
              "name": "refereeAddresses",
              "type": "address[]"
            },
            {
              "internalType": "address[]",
              "name": "teamAddress",
              "type": "address[]"
            },
            {
              "internalType": "uint32[]",
              "name": "teamLevels",
              "type": "uint32[]"
            },
            {
              "internalType": "uint256",
              "name": "selfBusiness",
              "type": "uint256"
            },
            {
              "internalType": "uint256",
              "name": "directBusiness",
              "type": "uint256"
            },
            {
              "internalType": "uint256",
              "name": "teamBusiness",
              "type": "uint256"
            },
            {
              "internalType": "uint256",
              "name": "maxLimit",
              "type": "uint256"
            },
            {
              "internalType": "uint256",
              "name": "currentLimit",
              "type": "uint256"
            },
            {
              "internalType": "uint256",
              "name": "referralRewards",
              "type": "uint256"
            },
            {
              "internalType": "uint256",
              "name": "globalRewards",
              "type": "uint256"
            },
            {
              "internalType": "uint256",
              "name": "weeklyRewards",
              "type": "uint256"
            },
            {
              "internalType": "uint256",
              "name": "ibpRewards",
              "type": "uint256"
            },
            {
              "internalType": "bool",
              "name": "isGlobal",
              "type": "bool"
            },
            {
              "internalType": "uint32[]",
              "name": "globalIndexes",
              "type": "uint32[]"
            }
          ],
          "internalType": "struct AccountStruct",
          "name": "",
          "type": "tuple"
        }
      ],
      "stateMutability": "view",
      "type": "function"
    },
    {
      "inputs": [
        {
          "internalType": "address",
          "name": "_userAddress",
          "type": "address"
        }
      ],
      "name": "getUserBusiness",
      "outputs": [
        {
          "internalType": "uint256",
          "name": "selfBusiness",
          "type": "uint256"
        },
        {
          "internalType": "uint256",
          "name": "directBusiness",
          "type": "uint256"
        },
        {
          "internalType": "uint256",
          "name": "teamBusiness",
          "type": "uint256"
        },
        {
          "internalType": "uint256",
          "name": "totalBusiness",
          "type": "uint256"
        }
      ],
      "stateMutability": "view",
      "type": "function"
    },
    {
      "inputs": [
        {
          "internalType": "address",
          "name": "_userAddress",
          "type": "address"
        }
      ],
      "name": "getUserLimit",
      "outputs": [
        {
          "internalType": "uint256",
          "name": "maxLimit",
          "type": "uint256"
        },
        {
          "internalType": "uint256",
          "name": "currentLimit",
          "type": "uint256"
        },
        {
          "internalType": "uint256",
          "name": "limitRemaingvalue",
          "type": "uint256"
        },
        {
          "internalType": "uint256",
          "name": "limitRemainingPer",
          "type": "uint256"
        }
      ],
      "stateMutability": "view",
      "type": "function"
    },
    {
      "inputs": [
        {
          "internalType": "address",
          "name": "_userAddress",
          "type": "address"
        }
      ],
      "name": "getUserReferee",
      "outputs": [
        {
          "internalType": "address[]",
          "name": "referees",
          "type": "address[]"
        },
        {
          "internalType": "uint256",
          "name": "refereeCount",
          "type": "uint256"
        }
      ],
      "stateMutability": "view",
      "type": "function"
    },
    {
      "inputs": [
        {
          "internalType": "address",
          "name": "_userAddress",
          "type": "address"
        }
      ],
      "name": "getUserReferrer",
      "outputs": [
        {
          "internalType": "address",
          "name": "",
          "type": "address"
        }
      ],
      "stateMutability": "view",
      "type": "function"
    },
    {
      "inputs": [
        {
          "internalType": "address",
          "name": "_userAddress",
          "type": "address"
        }
      ],
      "name": "getUserRewards",
      "outputs": [
        {
          "internalType": "uint256",
          "name": "referralReward",
          "type": "uint256"
        },
        {
          "internalType": "uint256",
          "name": "globalReward",
          "type": "uint256"
        },
        {
          "internalType": "uint256",
          "name": "weeklyReward",
          "type": "uint256"
        },
        {
          "internalType": "uint256",
          "name": "ibpReward",
          "type": "uint256"
        },
        {
          "internalType": "uint256",
          "name": "totalIncome",
          "type": "uint256"
        }
      ],
      "stateMutability": "view",
      "type": "function"
    },
    {
      "inputs": [
        {
          "internalType": "address",
          "name": "_userAddress",
          "type": "address"
        }
      ],
      "name": "getUserTeam",
      "outputs": [
        {
          "internalType": "address[]",
          "name": "team",
          "type": "address[]"
        },
        {
          "internalType": "uint256",
          "name": "teamCount",
          "type": "uint256"
        }
      ],
      "stateMutability": "view",
      "type": "function"
    },
    {
      "inputs": [],
      "name": "getWeeklyRewardToBeDistributed",
      "outputs": [
        {
          "internalType": "uint256",
          "name": "",
          "type": "uint256"
        }
      ],
      "stateMutability": "view",
      "type": "function"
    },
    {
      "inputs": [],
      "name": "getWeeklyRewardsRemainTime",
      "outputs": [
        {
          "internalType": "uint256",
          "name": "",
          "type": "uint256"
        }
      ],
      "stateMutability": "view",
      "type": "function"
    },
    {
      "inputs": [
        {
          "internalType": "address",
          "name": "_userAddress",
          "type": "address"
        }
      ],
      "name": "getuserIbpAddress",
      "outputs": [
        {
          "internalType": "address",
          "name": "",
          "type": "address"
        }
      ],
      "stateMutability": "view",
      "type": "function"
    },
    {
      "inputs": [],
      "name": "initialize",
      "outputs": [],
      "stateMutability": "nonpayable",
      "type": "function"
    },
    {
      "inputs": [
        {
          "internalType": "address",
          "name": "_userAddress",
          "type": "address"
        }
      ],
      "name": "isuserInGlobalList",
      "outputs": [
        {
          "internalType": "bool",
          "name": "isInList",
          "type": "bool"
        },
        {
          "internalType": "uint32[]",
          "name": "indexes",
          "type": "uint32[]"
        },
        {
          "internalType": "uint256",
          "name": "totalGlobalIds",
          "type": "uint256"
        }
      ],
      "stateMutability": "view",
      "type": "function"
    },
    {
      "inputs": [],
      "name": "owner",
      "outputs": [
        {
          "internalType": "address",
          "name": "",
          "type": "address"
        }
      ],
      "stateMutability": "view",
      "type": "function"
    },
    {
      "inputs": [],
      "name": "pause",
      "outputs": [],
      "stateMutability": "nonpayable",
      "type": "function"
    },
    {
      "inputs": [],
      "name": "paused",
      "outputs": [
        {
          "internalType": "bool",
          "name": "",
          "type": "bool"
        }
      ],
      "stateMutability": "view",
      "type": "function"
    },
    {
      "inputs": [],
      "name": "proxiableUUID",
      "outputs": [
        {
          "internalType": "bytes32",
          "name": "",
          "type": "bytes32"
        }
      ],
      "stateMutability": "view",
      "type": "function"
    },
    {
      "inputs": [
        {
          "internalType": "address",
          "name": "_referrer",
          "type": "address"
        },
        {
          "internalType": "uint8",
          "name": "_planId",
          "type": "uint8"
        },
        {
          "internalType": "address",
          "name": "_tokenAddress",
          "type": "address"
        }
      ],
      "name": "registrationWithETH",
      "outputs": [],
      "stateMutability": "payable",
      "type": "function"
    },
    {
      "inputs": [
        {
          "internalType": "address",
          "name": "_referrer",
          "type": "address"
        },
        {
          "internalType": "uint8",
          "name": "_planId",
          "type": "uint8"
        },
        {
          "internalType": "address",
          "name": "_tokenAddress",
          "type": "address"
        }
      ],
      "name": "registrationWithToken",
      "outputs": [],
      "stateMutability": "nonpayable",
      "type": "function"
    },
    {
      "inputs": [
        {
          "internalType": "address",
          "name": "_userAddress",
          "type": "address"
        }
      ],
      "name": "removeIbpFromAddressAdmin",
      "outputs": [],
      "stateMutability": "nonpayable",
      "type": "function"
    },
    {
      "inputs": [],
      "name": "renounceOwnership",
      "outputs": [],
      "stateMutability": "nonpayable",
      "type": "function"
    },
    {
      "inputs": [
        {
          "internalType": "address",
          "name": "newOwner",
          "type": "address"
        }
      ],
      "name": "transferOwnership",
      "outputs": [],
      "stateMutability": "nonpayable",
      "type": "function"
    },
    {
      "inputs": [],
      "name": "unpause",
      "outputs": [],
      "stateMutability": "nonpayable",
      "type": "function"
    },
    {
      "inputs": [
        {
          "internalType": "address",
          "name": "newImplementation",
          "type": "address"
        }
      ],
      "name": "upgradeTo",
      "outputs": [],
      "stateMutability": "nonpayable",
      "type": "function"
    },
    {
      "inputs": [
        {
          "internalType": "address",
          "name": "newImplementation",
          "type": "address"
        },
        {
          "internalType": "bytes",
          "name": "data",
          "type": "bytes"
        }
      ],
      "name": "upgradeToAndCall",
      "outputs": [],
      "stateMutability": "payable",
      "type": "function"
    },
    {
      "stateMutability": "payable",
      "type": "receive"
    }
  ],
  "bytecode": "0x60a06040523060805234801561001457600080fd5b5060805161558761004c6000396000818161089d015281816108e6015281816109fc01528181610a3c0152610acf01526155876000f3fe6080604052600436106101a05760003560e01c80638456cb59116100ec578063d277b8a91161008a578063f2fde38b11610064578063f2fde38b14610535578063f87127b414610555578063faeda7e514610575578063fb47e0161461059557600080fd5b8063d277b8a9146104b5578063e6f6769e146104d5578063e9587e86146104f557600080fd5b80638da5cb5b116100c65780638da5cb5b14610434578063986992fa14610452578063aa8d713a14610467578063d113efc41461048757600080fd5b80638456cb59146103cd578063846688f7146103e2578063881063d3146103f757600080fd5b806349c03d0d1161015957806353ae67101161013357806353ae6710146103515780635c975abb14610380578063715018a6146103a35780638129fc1c146103b857600080fd5b806349c03d0d146102fb5780634f1ef2861461031b57806352d1902d1461032e57600080fd5b80630690c6a8146101ac578063078b0fb71461021457806336144c9a1461025c5780633659cfe6146102b15780633ec2223c146102d35780633f4ba83a146102e657600080fd5b366101a757005b600080fd5b3480156101b857600080fd5b5060fd5460fe5461010154610102546101035461010454610105546040805163ffffffff90981688526020880196909652948601939093526060850191909152608084015260a083015260c082015260e0015b60405180910390f35b34801561022057600080fd5b5061023461022f366004614a37565b6105c2565b604080519586526020860194909452928401919091526060830152608082015260a00161020b565b34801561026857600080fd5b50610299610277366004614a37565b6001600160a01b03908116600090815261010660205260409020600201541690565b6040516001600160a01b03909116815260200161020b565b3480156102bd57600080fd5b506102d16102cc366004614a37565b610893565b005b6102d16102e1366004614a63565b505050565b3480156102f257600080fd5b506102d161097b565b34801561030757600080fd5b506102d1610316366004614aae565b61098d565b6102d1610329366004614b7f565b6109f2565b34801561033a57600080fd5b50610343610ac2565b60405190815260200161020b565b34801561035d57600080fd5b5061037161036c366004614a37565b610b75565b60405161020b93929190614c12565b34801561038c57600080fd5b5060335460ff16604051901515815260200161020b565b3480156103af57600080fd5b506102d1610e40565b3480156103c457600080fd5b506102d1610e52565b3480156103d957600080fd5b506102d1610f9e565b3480156103ee57600080fd5b5060ff54610343565b34801561040357600080fd5b50610299610412366004614a37565b6001600160a01b03908116600090815261010660205260409020600101541690565b34801561044057600080fd5b506065546001600160a01b0316610299565b34801561045e57600080fd5b50610343610fae565b34801561047357600080fd5b506102d1610482366004614a37565b610fe7565b34801561049357600080fd5b506104a76104a2366004614a37565b61112d565b60405161020b929190614cb5565b3480156104c157600080fd5b506102996104d0366004614a37565b6113dd565b3480156104e157600080fd5b506102d16104f0366004614a63565b6115ff565b34801561050157600080fd5b50610515610510366004614a37565b611612565b60408051948552602085019390935291830152606082015260800161020b565b34801561054157600080fd5b506102d1610550366004614a37565b6118ff565b34801561056157600080fd5b50610515610570366004614a37565b611975565b34801561058157600080fd5b506104a7610590366004614a37565b611c3c565b3480156105a157600080fd5b506105b56105b0366004614a37565b611eec565b60405161020b9190614d0d565b6001600160a01b03808216600090815261010660209081526040808320815161024081018352815463ffffffff81168252600160201b90048616818501526001820154861681840152600282015490951660608601526003810180548351818602810186019094528084529495869586958695869586959093608086019383018282801561067957602002820191906000526020600020905b81546001600160a01b0316815260019091019060200180831161065b575b50505050508152602001600482018054806020026020016040519081016040528092919081815260200182805480156106db57602002820191906000526020600020905b81546001600160a01b031681526001909101906020018083116106bd575b505050505081526020016005820180548060200260200160405190810160405280929190818152602001828054801561075f57602002820191906000526020600020906000905b82829054906101000a900463ffffffff1663ffffffff16815260200190600401906020826003010492830192600103820291508084116107225790505b5050505050815260200160068201548152602001600782015481526020016008820154815260200160098201548152602001600a8201548152602001600b8201548152602001600c8201548152602001600d8201548152602001600e8201548152602001600f820160009054906101000a900460ff161515151581526020016010820180548060200260200160405190810160405280929190818152602001828054801561085857602002820191906000526020600020906000905b82829054906101000a900463ffffffff1663ffffffff168152602001906004019060208260030104928301926001038202915080841161081b5790505b505050919092525050506101808101516101a08201516101c08301516101e084015161016090940151929b919a509850919650945092505050565b6001600160a01b037f00000000000000000000000000000000000000000000000000000000000000001630036108e45760405162461bcd60e51b81526004016108db90614e74565b60405180910390fd5b7f00000000000000000000000000000000000000000000000000000000000000006001600160a01b031661092d6000805160206154eb833981519152546001600160a01b031690565b6001600160a01b0316146109535760405162461bcd60e51b81526004016108db90614ec0565b61095c8161223b565b6040805160008082526020820190925261097891839190612243565b50565b6109836123ae565b61098b612408565b565b6109956123ae565b6001600160a01b038281166000818152610106602090815260409182902060010180546001600160a01b03191694861694851790558151938452830191909152600080516020615532833981519152910160405180910390a15050565b6001600160a01b037f0000000000000000000000000000000000000000000000000000000000000000163003610a3a5760405162461bcd60e51b81526004016108db90614e74565b7f00000000000000000000000000000000000000000000000000000000000000006001600160a01b0316610a836000805160206154eb833981519152546001600160a01b031690565b6001600160a01b031614610aa95760405162461bcd60e51b81526004016108db90614ec0565b610ab28261223b565b610abe82826001612243565b5050565b6000306001600160a01b037f00000000000000000000000000000000000000000000000000000000000000001614610b625760405162461bcd60e51b815260206004820152603860248201527f555550535570677261646561626c653a206d757374206e6f742062652063616c60448201527f6c6564207468726f7567682064656c656761746563616c6c000000000000000060648201526084016108db565b506000805160206154eb83398151915290565b6001600160a01b03808216600090815261010660209081526040808320815161024081018352815463ffffffff81168252600160201b9004861681850152600182015486168184015260028201549095166060868101919091526003820180548451818702810187019095528085529596919587958695939493608086019390929091830182828015610c3157602002820191906000526020600020905b81546001600160a01b03168152600190910190602001808311610c13575b5050505050815260200160048201805480602002602001604051908101604052809291908181526020018280548015610c9357602002820191906000526020600020905b81546001600160a01b03168152600190910190602001808311610c75575b5050505050815260200160058201805480602002602001604051908101604052809291908181526020018280548015610d1757602002820191906000526020600020906000905b82829054906101000a900463ffffffff1663ffffffff1681526020019060040190602082600301049283019260010382029150808411610cda5790505b5050505050815260200160068201548152602001600782015481526020016008820154815260200160098201548152602001600a8201548152602001600b8201548152602001600c8201548152602001600d8201548152602001600e8201548152602001600f820160009054906101000a900460ff1615151515815260200160108201805480602002602001604051908101604052809291908181526020018280548015610e1057602002820191906000526020600020906000905b82829054906101000a900463ffffffff1663ffffffff1681526020019060040190602082600301049283019260010382029150808411610dd35790505b50505050508152505090506000816102200151511115610e2f57600193505b610220015180519395909450915050565b610e486123ae565b61098b600061245a565b600054610100900460ff1615808015610e725750600054600160ff909116105b80610e8c5750303b158015610e8c575060005460ff166001145b610eef5760405162461bcd60e51b815260206004820152602e60248201527f496e697469616c697a61626c653a20636f6e747261637420697320616c72656160448201526d191e481a5b9a5d1a585b1a5e995960921b60648201526084016108db565b6000805460ff191660011790558015610f12576000805461ff0019166101001790555b60fb80546001600160a01b031916735a7530ee130e38487561032b9571f4ec41ab69ab1790554261010055610f456124ac565b610f4d6124db565b610f5561250a565b8015610978576000805461ff0019169055604051600181527f7f26b83ff96e1f2b6a682f133852f6798a09c465da95921460cefb3847402498906020015b60405180910390a150565b610fa66123ae565b61098b612531565b6000806101005462093a80610fc39190614f22565b905042818110610fd65760009250505090565b610fe08183614f35565b9250505090565b610fef6123ae565b60fb60009054906101000a90046001600160a01b03166001600160a01b031663b2e6b9126040518163ffffffff1660e01b8152600401602060405180830381865afa158015611042573d6000803e3d6000fd5b505050506040513d601f19601f820116820180604052508101906110669190614f53565b6001600160a01b038281166000908152610106602090815260409182902060010180546001600160a01b0319169484169490941790935560fb5481516359735c8960e11b8152915160008051602061553283398151915294919093169263b2e6b9129260048082019392918290030181865afa1580156110ea573d6000803e3d6000fd5b505050506040513d601f19601f8201168201806040525081019061110e9190614f53565b604080516001600160a01b039283168152918416602083015201610f93565b6001600160a01b03808216600090815261010660209081526040808320815161024081018352815463ffffffff81168252600160201b90048616818501526001820154861681840152600282015490951660608681019190915260038201805484518187028101870190955280855291968695909460808601939092918301828280156111e357602002820191906000526020600020905b81546001600160a01b031681526001909101906020018083116111c5575b505050505081526020016004820180548060200260200160405190810160405280929190818152602001828054801561124557602002820191906000526020600020905b81546001600160a01b03168152600190910190602001808311611227575b50505050508152602001600582018054806020026020016040519081016040528092919081815260200182805480156112c957602002820191906000526020600020906000905b82829054906101000a900463ffffffff1663ffffffff168152602001906004019060208260030104928301926001038202915080841161128c5790505b5050505050815260200160068201548152602001600782015481526020016008820154815260200160098201548152602001600a8201548152602001600b8201548152602001600c8201548152602001600d8201548152602001600e8201548152602001600f820160009054906101000a900460ff16151515158152602001601082018054806020026020016040519081016040528092919081815260200182805480156113c257602002820191906000526020600020906000905b82829054906101000a900463ffffffff1663ffffffff16815260200190600401906020826003010492830192600103820291508084116113855790505b50505091909252505050608001518051909590945092505050565b6000806101005462093a806113f29190614f22565b905042818110156114455760405162461bcd60e51b815260206004820152601c60248201527f5765656b6c792074696d65206973206e6f74206f766572207965742e0000000060448201526064016108db565b600061144f61256e565b6040516370a0823160e01b81523060048201529091506000906001600160a01b038716906370a0823190602401602060405180830381865afa158015611499573d6000803e3d6000fd5b505050506040513d601f19601f820116820180604052508101906114bd9190614f70565b60ff54909150808210156115395760405162461bcd60e51b815260206004820152603760248201527f436f6e74726163742068617320696e73756666696369656e742062616c616e6360448201527f6520746f2064697374726962757465207265776172642e00000000000000000060648201526084016108db565b60405163a9059cbb60e01b81526001600160a01b0384811660048301526024820183905288169063a9059cbb906044016020604051808303816000875af1158015611588573d6000803e3d6000fd5b505050506040513d601f19601f820116820180604052508101906115ac9190614f99565b50600060ff55604080516001600160a01b0385168152602081018390527ffff6edc60fd30afefcc47525cdf85502200830b22550391f79f9e383df03afad910160405180910390a1509095945050505050565b3361160c848285856125f5565b50505050565b6001600160a01b03808216600090815261010660209081526040808320815161024081018352815463ffffffff81168252600160201b9004861681850152600182015486168184015260028201549095166060860152600381018054835181860281018601909452808452949586958695869586959394608086019391929091908301828280156116cc57602002820191906000526020600020905b81546001600160a01b031681526001909101906020018083116116ae575b505050505081526020016004820180548060200260200160405190810160405280929190818152602001828054801561172e57602002820191906000526020600020905b81546001600160a01b03168152600190910190602001808311611710575b50505050508152602001600582018054806020026020016040519081016040528092919081815260200182805480156117b257602002820191906000526020600020906000905b82829054906101000a900463ffffffff1663ffffffff16815260200190600401906020826003010492830192600103820291508084116117755790505b5050505050815260200160068201548152602001600782015481526020016008820154815260200160098201548152602001600a8201548152602001600b8201548152602001600c8201548152602001600d8201548152602001600e8201548152602001600f820160009054906101000a900460ff16151515158152602001601082018054806020026020016040519081016040528092919081815260200182805480156118ab57602002820191906000526020600020906000905b82829054906101000a900463ffffffff1663ffffffff168152602001906004019060208260030104928301926001038202915080841161186e5790505b50505091909252505050610140810151610160820151909650945090506118d28486614f35565b92508061014001518161016001516118ea9190614fca565b6118f5906064614fde565b9150509193509193565b6119076123ae565b6001600160a01b03811661196c5760405162461bcd60e51b815260206004820152602660248201527f4f776e61626c653a206e6577206f776e657220697320746865207a65726f206160448201526564647265737360d01b60648201526084016108db565b6109788161245a565b6001600160a01b03808216600090815261010660209081526040808320815161024081018352815463ffffffff81168252600160201b900486168185015260018201548616818401526002820154909516606086015260038101805483518186028101860190945280845294958695869586958695939460808601939192909190830182828015611a2f57602002820191906000526020600020905b81546001600160a01b03168152600190910190602001808311611a11575b5050505050815260200160048201805480602002602001604051908101604052809291908181526020018280548015611a9157602002820191906000526020600020905b81546001600160a01b03168152600190910190602001808311611a73575b5050505050815260200160058201805480602002602001604051908101604052809291908181526020018280548015611b1557602002820191906000526020600020906000905b82829054906101000a900463ffffffff1663ffffffff1681526020019060040190602082600301049283019260010382029150808411611ad85790505b5050505050815260200160068201548152602001600782015481526020016008820154815260200160098201548152602001600a8201548152602001600b8201548152602001600c8201548152602001600d8201548152602001600e8201548152602001600f820160009054906101000a900460ff1615151515815260200160108201805480602002602001604051908101604052809291908181526020018280548015611c0e57602002820191906000526020600020906000905b82829054906101000a900463ffffffff1663ffffffff1681526020019060040190602082600301049283019260010382029150808411611bd15790505b5050509190925250505060e08101516101008201516101208301519197509550935090506118f58584614f22565b6001600160a01b03808216600090815261010660209081526040808320815161024081018352815463ffffffff81168252600160201b9004861681850152600182015486168184015260028201549095166060868101919091526003820180548451818702810187019095528085529196869590946080860193909291830182828015611cf257602002820191906000526020600020905b81546001600160a01b03168152600190910190602001808311611cd4575b5050505050815260200160048201805480602002602001604051908101604052809291908181526020018280548015611d5457602002820191906000526020600020905b81546001600160a01b03168152600190910190602001808311611d36575b5050505050815260200160058201805480602002602001604051908101604052809291908181526020018280548015611dd857602002820191906000526020600020906000905b82829054906101000a900463ffffffff1663ffffffff1681526020019060040190602082600301049283019260010382029150808411611d9b5790505b5050505050815260200160068201548152602001600782015481526020016008820154815260200160098201548152602001600a8201548152602001600b8201548152602001600c8201548152602001600d8201548152602001600e8201548152602001600f820160009054906101000a900460ff1615151515815260200160108201805480602002602001604051908101604052809291908181526020018280548015611ed157602002820191906000526020600020906000905b82829054906101000a900463ffffffff1663ffffffff1681526020019060040190602082600301049283019260010382029150808411611e945790505b5050509190925250505060a001518051909590945092505050565b611f9d604051806102400160405280600063ffffffff16815260200160006001600160a01b0316815260200160006001600160a01b0316815260200160006001600160a01b03168152602001606081526020016060815260200160608152602001600081526020016000815260200160008152602001600081526020016000815260200160008152602001600081526020016000815260200160008152602001600015158152602001606081525090565b6001600160a01b0380831660009081526101066020908152604091829020825161024081018452815463ffffffff81168252600160201b90048516818401526001820154851681850152600282015490941660608501526003810180548451818502810185019095528085529193608086019390929083018282801561204c57602002820191906000526020600020905b81546001600160a01b0316815260019091019060200180831161202e575b50505050508152602001600482018054806020026020016040519081016040528092919081815260200182805480156120ae57602002820191906000526020600020905b81546001600160a01b03168152600190910190602001808311612090575b505050505081526020016005820180548060200260200160405190810160405280929190818152602001828054801561213257602002820191906000526020600020906000905b82829054906101000a900463ffffffff1663ffffffff16815260200190600401906020826003010492830192600103820291508084116120f55790505b5050505050815260200160068201548152602001600782015481526020016008820154815260200160098201548152602001600a8201548152602001600b8201548152602001600c8201548152602001600d8201548152602001600e8201548152602001600f820160009054906101000a900460ff161515151581526020016010820180548060200260200160405190810160405280929190818152602001828054801561222b57602002820191906000526020600020906000905b82829054906101000a900463ffffffff1663ffffffff16815260200190600401906020826003010492830192600103820291508084116121ee5790505b5050505050815250509050919050565b6109786123ae565b7f4910fdfa16fed3260ed0e7147f7cc6da11a60208b5b9406d12a635614ffd91435460ff1615612276576102e183613dbd565b826001600160a01b03166352d1902d6040518163ffffffff1660e01b8152600401602060405180830381865afa9250505080156122d0575060408051601f3d908101601f191682019092526122cd91810190614f70565b60015b6123335760405162461bcd60e51b815260206004820152602e60248201527f45524331393637557067726164653a206e657720696d706c656d656e7461746960448201526d6f6e206973206e6f74205555505360901b60648201526084016108db565b6000805160206154eb83398151915281146123a25760405162461bcd60e51b815260206004820152602960248201527f45524331393637557067726164653a20756e737570706f727465642070726f786044820152681a58589b195555525160ba1b60648201526084016108db565b506102e1838383613e59565b6065546001600160a01b0316331461098b5760405162461bcd60e51b815260206004820181905260248201527f4f776e61626c653a2063616c6c6572206973206e6f7420746865206f776e657260448201526064016108db565b612410613e7e565b6033805460ff191690557f5db9ee0a495bf2e6ff9c91a7834c1ba4fdd244a5e8aa4e537bd38aeae4b073aa335b6040516001600160a01b03909116815260200160405180910390a1565b606580546001600160a01b038381166001600160a01b0319831681179093556040519116919082907f8be0079c531659141344cd1fd0a4f28419497f9722a3daafe3b4186f6b6457e090600090a35050565b600054610100900460ff166124d35760405162461bcd60e51b81526004016108db90614ff5565b61098b613ec7565b600054610100900460ff166125025760405162461bcd60e51b81526004016108db90614ff5565b61098b613efa565b600054610100900460ff1661098b5760405162461bcd60e51b81526004016108db90614ff5565b612539613f2a565b6033805460ff191660011790557f62e78cea01bee320cd4e420270b5ea74000d11b0c9f74754ebdbfc544b05a25861243d3390565b600080424461257e600143614f35565b60408051602081019490945283019190915240606082015260800160408051601f19818403018152919052805160209091012060fc549091506000906125c49083615040565b905060fc81815481106125d9576125d9615054565b6000918252602090912001546001600160a01b03169392505050565b60fb54604051630efc12b160e01b815260ff841660048201526001600160a01b03909116906000908290630efc12b190602401600060405180830381865afa158015612645573d6000803e3d6000fd5b505050506040513d6000823e601f3d908101601f1916820160405261266d91908101906150e6565b905060008160400151116126d65760405162461bcd60e51b815260206004820152602a60248201527f56616c7565206973207a65726f2e20506c656173652073656c65637420636f726044820152693932b1ba10383630b71760b11b60648201526084016108db565b6040516373a5799760e11b81526001600160a01b0384811660048301526000919084169063e74af32e90602401600060405180830381865afa158015612720573d6000803e3d6000fd5b505050506040513d6000823e601f3d908101601f191682016040526127489190810190615193565b6060810151815160c083015192935090916127b05760405162461bcd60e51b815260206004820152602260248201527f546f6b656e206973206e6f7420737570706f72746564206f722064697361626c604482015261195960f21b60648201526084016108db565b6000856001600160a01b031663918a54db6040518163ffffffff1660e01b8152600401600060405180830381865afa1580156127f0573d6000803e3d6000fd5b505050506040513d6000823e601f3d908101601f191682016040526128189190810190615279565b9050866001600160a01b03166323b872dd8a3060128760ff1610612840578860400151612853565b612853896040015160128960ff16613f70565b6040516001600160e01b031960e086901b1681526001600160a01b03938416600482015292909116602483015260448201526064016020604051808303816000875af11580156128a7573d6000803e3d6000fd5b505050506040513d601f19601f820116820180604052508101906128cb9190614f99565b506001600160a01b0389166000908152610106602052604081208054909163ffffffff90911690036129685760fd805463ffffffff1690600061290d83615333565b82546101009290920a63ffffffff81810219909316918316021790915560fd548354911663ffffffff199091168117835560009081526101076020526040902080546001600160a01b0319166001600160a01b038d16179055505b8054640100000000600160c01b031916600160201b6001600160a01b038c160217815560408601516006820180546000906129a4908490614f22565b9091555050606086015160408701516129bd9190614fde565b8160090160008282546129d09190614f22565b90915550506040516204942560ec1b6020820152602301604051602081830303815290604052805190602001208660200151604051602001612a129190615356565b60405160208183030381529060405280519060200120148015612a4e5750805460018201546001600160a01b03908116600160201b9092041614155b15612a7f578054600182018054600160201b9092046001600160a01b03166001600160a01b03199092169190911790555b6040805161024081018252825463ffffffff811682526001600160a01b03600160201b9091048116602080840191909152600185015482168385015260028501549091166060830152600384018054845181840281018401909552808552612d119486936080860193919290830182828015612b2457602002820191906000526020600020905b81546001600160a01b03168152600190910190602001808311612b06575b5050505050815260200160048201805480602002602001604051908101604052809291908181526020018280548015612b8657602002820191906000526020600020905b81546001600160a01b03168152600190910190602001808311612b68575b5050505050815260200160058201805480602002602001604051908101604052809291908181526020018280548015612c0a57602002820191906000526020600020906000905b82829054906101000a900463ffffffff1663ffffffff1681526020019060040190602082600301049283019260010382029150808411612bcd5790505b5050505050815260200160068201548152602001600782015481526020016008820154815260200160098201548152602001600a8201548152602001600b8201548152602001600c8201548152602001600d8201548152602001600e8201548152602001600f820160009054906101000a900460ff1615151515815260200160108201805480602002602001604051908101604052809291908181526020018280548015612d0357602002820191906000526020600020906000905b82829054906101000a900463ffffffff1663ffffffff1681526020019060040190602082600301049283019260010382029150808411612cc65790505b505050505081525050613fa6565b612d2257612d228b8b84518a613fc5565b8054600282015460408051600160201b84046001600160a01b03908116825263ffffffff909416602082015260ff8d1681830152929091166060830152517fccdfed8601106cae21493f7848436196048b60f2dc70db89d92e3acdabb0ee299181900360800190a160fc5415612f58576000612d9c61256e565b90506001600160a01b03811615612f56576001600160a01b0381166000908152610106602052604080822090890151909190606490612ddc90600a614fde565b612de69190614fca565b90508082600c016000828254612dfc9190614f22565b925050819055508082600a016000828254612e179190614f22565b90915550506001600160a01b03861663a9059cbb84601260ff8b1610612e3d5783612e4c565b612e4c8460128c60ff16613f70565b6040516001600160e01b031960e085901b1681526001600160a01b03909216600483015260248201526044016020604051808303816000875af1158015612e97573d6000803e3d6000fd5b505050506040513d601f19601f82011682018060405250810190612ebb9190614f99565b507f693fc02576006378cd4577590d99ad6b18ad4c566c433b85643d7b07a4815665838e8b6040015184600a6064604051612f33969594939291906001600160a01b0396871681529490951660208501526040840192909252606083015261ffff90811660808301529190911660a082015260c00190565b60405180910390a1806101026000828254612f4e9190614f22565b909155505050505b505b60018101546001600160a01b031615613525576001808201546001600160a01b0390811660009081526101066020908152604091829020825161024081018452815463ffffffff81168252600160201b9004851681840152948101548416858401526002810154909316606085015260038301805483518184028101840190945280845293946132149490938693608086019391929083018282801561302757602002820191906000526020600020905b81546001600160a01b03168152600190910190602001808311613009575b505050505081526020016004820180548060200260200160405190810160405280929190818152602001828054801561308957602002820191906000526020600020905b81546001600160a01b0316815260019091019060200180831161306b575b505050505081526020016005820180548060200260200160405190810160405280929190818152602001828054801561310d57602002820191906000526020600020906000905b82829054906101000a900463ffffffff1663ffffffff16815260200190600401906020826003010492830192600103820291508084116130d05790505b5050505050815260200160068201548152602001600782015481526020016008820154815260200160098201548152602001600a8201548152602001600b8201548152602001600c8201548152602001600d8201548152602001600e8201548152602001600f820160009054906101000a900460ff161515151581526020016010820180548060200260200160405190810160405280929190818152602001828054801561320657602002820191906000526020600020906000905b82829054906101000a900463ffffffff1663ffffffff16815260200190600401906020826003010492830192600103820291508084116131c95790505b505050505081525050614833565b61349f5760006064896001600160a01b031663e70167176040518163ffffffff1660e01b8152600401602060405180830381865afa15801561325a573d6000803e3d6000fd5b505050506040513d601f19601f8201168201806040525081019061327e9190615372565b60ff1689604001516132909190614fde565b61329a9190614fca565b905060006132a8838361484e565b90508083600e0160008282546132be9190614f22565b925050819055508083600a0160008282546132d99190614f22565b909155505060018401546001600160a01b038088169163a9059cbb9116601260ff8b16106133075783613316565b6133168460128c60ff16613f70565b6040516001600160e01b031960e085901b1681526001600160a01b03909216600483015260248201526044016020604051808303816000875af1158015613361573d6000803e3d6000fd5b505050506040513d601f19601f820116820180604052508101906133859190614f99565b507f3c8fdb10971c51ff48e3a4db4d7f14e64690a286be5bb9f410d9fd0fb74dbf488460010160009054906101000a90046001600160a01b03168560000160049054906101000a90046001600160a01b03168b60400151848e6001600160a01b031663e70167176040518163ffffffff1660e01b8152600401602060405180830381865afa15801561341b573d6000803e3d6000fd5b505050506040513d601f19601f8201168201806040525081019061343f9190615372565b604080516001600160a01b03968716815295909416602086015292840191909152606083015260ff166080820152606460a082015260c00160405180910390a18161010560008282546134929190614f22565b9091555061352392505050565b6001820154604080516001600160a01b039092168252602082018190526026828201527f49425020526577617264206e6f7420706169642e204d6178204c696d69742052606083015265195858da195960d21b6080830152517fd9365ce421ec9d37d946db34572a16a808a9a2c0df5f97dcafa2775d700428f89181900360a00190a15b505b6000805b83518160ff161015613d47576040805161024081018252845463ffffffff811682526001600160a01b03600160201b90910481166020808401919091526001870154821683850152600287015490911660608301526003860180548451818402810184019095528085526137759488936080860193919290830182828015612b24576020028201919060005260206000209081546001600160a01b03168152600190910190602001808311612b06575050505050815260200160048201805480602002602001604051908101604052809291908181526020018280548015612b86576020028201919060005260206000209081546001600160a01b03168152600190910190602001808311612b68575050505050815260200160058201805480602002602001604051908101604052809291908181526020018280548015612c0a576000918252602091829020805463ffffffff168452908202830192909160049101808411612bcd5790505050505050815260200160068201548152602001600782015481526020016008820154815260200160098201548152602001600a8201548152602001600b8201548152602001600c8201548152602001600d8201548152602001600e8201548152602001600f820160009054906101000a900460ff1615151515815260200160108201805480602002602001604051908101604052809291908181526020018280548015612d03576000918252602091829020805463ffffffff168452908202830192909160049101808411612cc6579050505050505081525050613fa6565b15613d47576002808401546001600160a01b0390811660009081526101066020908152604091829020825161024081018452815463ffffffff81168252600160201b9004851681840152600182015485168185015294810154909316606085015260038301805483518184028101840190945280845293946139d194909386936080860193919290830182828015613027576020028201919060005260206000209081546001600160a01b03168152600190910190602001808311613009575050505050815260200160048201805480602002602001604051908101604052809291908181526020018280548015613089576020028201919060005260206000209081546001600160a01b0316815260019091019060200180831161306b57505050505081526020016005820180548060200260200160405190810160405280929190818152602001828054801561310d576000918252602091829020805463ffffffff1684529082028301929091600491018084116130d05790505050505050815260200160068201548152602001600782015481526020016008820154815260200160098201548152602001600a8201548152602001600b8201548152602001600c8201548152602001600d8201548152602001600e8201548152602001600f820160009054906101000a900460ff1615151515815260200160108201805480602002602001604051908101604052809291908181526020018280548015613206576000918252602091829020805463ffffffff1684529082028301929091600491018084116131c9579050505050505081525050614833565b15613a45576002840154604080516001600160a01b039092168252602082018190526011828201527013585e08131a5b5a5d0814995858da1959607a1b6060830152517f9cf6f1ac252ffae20583b13cb366045bedd20a57355f5f69adf17da561de00039181900360800190a19250613d35565b8160ff16600003613b32578860400151816007016000828254613a689190614f22565b9091555050600f81015460ff1615613b1d57600284015460fc80546001818101835560008390527f371f36870d18f32a11fea0f144b021c8b407bb50f8e0267c711123f454b963c090910180546001600160a01b0319166001600160a01b0390941693909317909255546010830191613ae091614f35565b8154600181018355600092835260209092206008830401805460079093166004026101000a63ffffffff8181021990941692909316929092021790555b600f8101805460ff19811660ff909116151790555b8860400151816008016000828254613b4a9190614f22565b925050819055506000612710868460ff1681518110613b6b57613b6b615054565b602002602001015161ffff168b60400151613b869190614fde565b613b909190614fca565b90506000613b9e838361484e565b90508083600b016000828254613bb49190614f22565b909155505060028601546001600160a01b03808a169163a9059cbb9116601260ff8d1610613be25783613bf1565b613bf18460128e60ff16613f70565b6040516001600160e01b031960e085901b1681526001600160a01b03909216600483015260248201526044016020604051808303816000875af1158015613c3c573d6000803e3d6000fd5b505050506040513d601f19601f82011682018060405250810190613c609190614f99565b50613c6b8186614f22565b6002870154875460408e01518a519398507f3fae587c6f1778678d1e63bd99d63afe07677c2a2eb43a4b228b80e8a38c1b06936001600160a01b0393841693600160201b9093049092169185908c9060ff8b16908110613ccd57613ccd615054565b60200260200101516127108a6001613ce5919061538f565b604080516001600160a01b03988916815297909616602088015294860193909352606085019190915261ffff16608084015260a083015260ff1660c082015260e00160405180910390a150909350505b80613d3f816153a8565b915050613529565b50806101016000828254613d5b9190614f22565b9091555050604087015160fe8054600090613d77908490614f22565b90915550506040870151606490613d8f90600a614fde565b613d999190614fca565b60ff6000828254613daa9190614f22565b9091555050505050505050505050505050565b6001600160a01b0381163b613e2a5760405162461bcd60e51b815260206004820152602d60248201527f455243313936373a206e657720696d706c656d656e746174696f6e206973206e60448201526c1bdd08184818dbdb9d1c9858dd609a1b60648201526084016108db565b6000805160206154eb83398151915280546001600160a01b0319166001600160a01b0392909216919091179055565b613e62836148b0565b600082511180613e6f5750805b156102e15761160c83836148f0565b60335460ff1661098b5760405162461bcd60e51b815260206004820152601460248201527314185d5cd8589b194e881b9bdd081c185d5cd95960621b60448201526064016108db565b600054610100900460ff16613eee5760405162461bcd60e51b81526004016108db90614ff5565b6033805460ff19169055565b600054610100900460ff16613f215760405162461bcd60e51b81526004016108db90614ff5565b61098b3361245a565b60335460ff161561098b5760405162461bcd60e51b815260206004820152601060248201526f14185d5cd8589b194e881c185d5cd95960821b60448201526064016108db565b6000613f7d83600a6154ab565b613f8883600a6154ab565b613f929086614fde565b613f9c9190614fca565b90505b9392505050565b60608101516000906001600160a01b031615613fc0575060015b919050565b6001600160a01b0380841660009081526101066020908152604091829020825161024081018452815463ffffffff81168252600160201b900485168184015260018201548516818501526002820154909416606085015260038101805484518185028101850190955280855291946142159490938693608086019391830182828015612b24576020028201919060005260206000209081546001600160a01b03168152600190910190602001808311612b06575050505050815260200160048201805480602002602001604051908101604052809291908181526020018280548015612b86576020028201919060005260206000209081546001600160a01b03168152600190910190602001808311612b68575050505050815260200160058201805480602002602001604051908101604052809291908181526020018280548015612c0a576000918252602091829020805463ffffffff168452908202830192909160049101808411612bcd5790505050505050815260200160068201548152602001600782015481526020016008820154815260200160098201548152602001600a8201548152602001600b8201548152602001600c8201548152602001600d8201548152602001600e8201548152602001600f820160009054906101000a900460ff1615151515815260200160108201805480602002602001604051908101604052809291908181526020018280548015612d03576000918252602091829020805463ffffffff168452908202830192909160049101808411612cc6579050505050505081525050613fa6565b1580156142955750816001600160a01b031663b2e6b9126040518163ffffffff1660e01b8152600401602060405180830381865afa15801561425b573d6000803e3d6000fd5b505050506040513d601f19601f8201168201806040525081019061427f9190614f53565b6001600160a01b0316846001600160a01b031614155b1561482c576001600160a01b03851615806142c15750846001600160a01b0316846001600160a01b0316145b1561442c57604080516001600160a01b038781168252861660208201526060818301819052603a908201527f5a65726f20616464726573732063616e6e6f742062652072656665727265722e60808201527f2053657474696e672064656661756c742072656665727265722e00000000000060a082015290517f32df26c7e54a821624fc8d22e1171e5793b90d1fccc483d3ff277b9c42bb22399181900360c00190a16000826001600160a01b031663b2e6b9126040518163ffffffff1660e01b8152600401602060405180830381865afa1580156143a4573d6000803e3d6000fd5b505050506040513d601f19601f820116820180604052508101906143c89190614f53565b6002830180546001600160a01b0319166001600160a01b038381169182179092556040805191825291881660208201529192507fec49a3c8c4ae06c18160fe86119c381c9d213ac3e052ff35b594da8687b193c7910160405180910390a150614488565b6002810180546001600160a01b0319166001600160a01b038781169182179092556040805191825291861660208201527fec49a3c8c4ae06c18160fe86119c381c9d213ac3e052ff35b594da8687b193c7910160405180910390a15b60005b8360ff168160ff16101561482a5760028201546001600160a01b03161561482a5760028201546001600160a01b03166000908152610106602052604081209060ff8316900361479a5760038101805460018082018355600092835260209092200180546001600160a01b0319166001600160a01b0389811691909117909155908401541615614596576001830154604080516001600160a01b03928316815291881660208301526060828201819052601d908301527f5265666572656520616c7265616479206861766520696270207365742e0000006080830152517fffca51efd3fa9dd00c7ad8de67cce6deeb82e78db2d05fe4b84079eca71665109181900360a00190a161479a565b60018101546001600160a01b031661474a576001810154604080516001600160a01b039283168152918816602083015260608282018190526032908301527f5a65726f20616464726573732063616e6e6f74206265206962702e20536574746080830152710696e672075702064656661756c74206962760741b60a0830152517fffca51efd3fa9dd00c7ad8de67cce6deeb82e78db2d05fe4b84079eca71665109181900360c00190a16000846001600160a01b031663b2e6b9126040518163ffffffff1660e01b8152600401602060405180830381865afa158015614680573d6000803e3d6000fd5b505050506040513d601f19601f820116820180604052508101906146a49190614f53565b600185810180546001600160a01b038481166001600160a01b03199283168117909355928601805490911682179055845460408051928352600160201b9091049092166020820152919250600080516020615532833981519152910160405180910390a18354604080516001600160a01b038085168252600160201b9093049092166020830152600080516020615532833981519152910160405180910390a15061479a565b6001818101805491850180546001600160a01b0319166001600160a01b03938416179055546040805191831682529188166020820152600080516020615532833981519152910160405180910390a15b60048101805460018082018355600092835260209092200180546001600160a01b0319166001600160a01b03891617905560058201906147db90849061538f565b8154600181018355600092835260209092206008830401805463ffffffff60079094166004026101000a938402191660ff92909216909202179055915080614822816153a8565b91505061448b565b505b5050505050565b600081610140015182610160015110613fc057506001919050565b600082600901548284600a01546148659190614f22565b1161488c578190508183600a0160008282546148819190614f22565b909155506148aa9050565b82600a015483600901546148a09190614f35565b600a840181905590505b92915050565b6148b981613dbd565b6040516001600160a01b038216907fbc7cd75a20ee27fd9adebab32041f755214dbc6bffa90cc0225b39da2e5c2d3b90600090a250565b60606001600160a01b0383163b6149585760405162461bcd60e51b815260206004820152602660248201527f416464726573733a2064656c65676174652063616c6c20746f206e6f6e2d636f6044820152651b9d1c9858dd60d21b60648201526084016108db565b600080846001600160a01b0316846040516149739190615356565b600060405180830381855af49150503d80600081146149ae576040519150601f19603f3d011682016040523d82523d6000602084013e6149b3565b606091505b50915091506149db828260405180606001604052806027815260200161550b602791396149e4565b95945050505050565b606083156149f3575081613f9f565b613f9f8383815115614a085781518083602001fd5b8060405162461bcd60e51b81526004016108db91906154b7565b6001600160a01b038116811461097857600080fd5b600060208284031215614a4957600080fd5b8135613f9f81614a22565b60ff8116811461097857600080fd5b600080600060608486031215614a7857600080fd5b8335614a8381614a22565b92506020840135614a9381614a54565b91506040840135614aa381614a22565b809150509250925092565b60008060408385031215614ac157600080fd5b8235614acc81614a22565b91506020830135614adc81614a22565b809150509250929050565b634e487b7160e01b600052604160045260246000fd5b60405160e0810167ffffffffffffffff81118282101715614b2057614b20614ae7565b60405290565b604051601f8201601f1916810167ffffffffffffffff81118282101715614b4f57614b4f614ae7565b604052919050565b600067ffffffffffffffff821115614b7157614b71614ae7565b50601f01601f191660200190565b60008060408385031215614b9257600080fd5b8235614b9d81614a22565b9150602083013567ffffffffffffffff811115614bb957600080fd5b8301601f81018513614bca57600080fd5b8035614bdd614bd882614b57565b614b26565b818152866020838501011115614bf257600080fd5b816020840160208301376000602083830101528093505050509250929050565b60006060820185151583526020606081850152818651808452608086019150828801935060005b81811015614c5b57845163ffffffff1683529383019391830191600101614c39565b5050809350505050826040830152949350505050565b600081518084526020808501945080840160005b83811015614caa5781516001600160a01b031687529582019590820190600101614c85565b509495945050505050565b604081526000614cc86040830185614c71565b90508260208301529392505050565b600081518084526020808501945080840160005b83811015614caa57815163ffffffff1687529582019590820190600101614ceb565b60208152614d2460208201835163ffffffff169052565b60006020830151614d4060408401826001600160a01b03169052565b5060408301516001600160a01b03811660608401525060608301516001600160a01b03811660808401525060808301516102408060a0850152614d87610260850183614c71565b915060a0850151601f19808685030160c0870152614da58483614c71565b935060c08701519150808685030160e0870152614dc28483614cd7565b60e088015161010088810191909152880151610120808901919091528801516101408089019190915288015161016080890191909152880151610180808901919091528801516101a0808901919091528801516101c0808901919091528801516101e080890191909152880151610200808901919091528801519094509150610220614e518188018415159052565b870151868503909101838701529050614e6a8382614cd7565b9695505050505050565b6020808252602c908201527f46756e6374696f6e206d7573742062652063616c6c6564207468726f7567682060408201526b19195b1959d85d1958d85b1b60a21b606082015260800190565b6020808252602c908201527f46756e6374696f6e206d7573742062652063616c6c6564207468726f7567682060408201526b6163746976652070726f787960a01b606082015260800190565b634e487b7160e01b600052601160045260246000fd5b808201808211156148aa576148aa614f0c565b818103818111156148aa576148aa614f0c565b8051613fc081614a22565b600060208284031215614f6557600080fd5b8151613f9f81614a22565b600060208284031215614f8257600080fd5b5051919050565b80518015158114613fc057600080fd5b600060208284031215614fab57600080fd5b613f9f82614f89565b634e487b7160e01b600052601260045260246000fd5b600082614fd957614fd9614fb4565b500490565b80820281158282048414176148aa576148aa614f0c565b6020808252602b908201527f496e697469616c697a61626c653a20636f6e7472616374206973206e6f74206960408201526a6e697469616c697a696e6760a81b606082015260800190565b60008261504f5761504f614fb4565b500690565b634e487b7160e01b600052603260045260246000fd5b8051613fc081614a54565b60005b83811015615090578181015183820152602001615078565b50506000910152565b600082601f8301126150aa57600080fd5b81516150b8614bd882614b57565b8181528460208386010111156150cd57600080fd5b6150de826020830160208701615075565b949350505050565b6000602082840312156150f857600080fd5b815167ffffffffffffffff8082111561511057600080fd5b908301906080828603121561512457600080fd5b60405160808101818110838211171561513f5761513f614ae7565b604052825161514d81614a54565b815260208301518281111561516157600080fd5b61516d87828601615099565b602083015250604083015160408201526060830151606082015280935050505092915050565b6000602082840312156151a557600080fd5b815167ffffffffffffffff808211156151bd57600080fd5b9083019060e082860312156151d157600080fd5b6151d9614afd565b6151e283614f48565b81526020830151828111156151f657600080fd5b61520287828601615099565b60208301525060408301518281111561521a57600080fd5b61522687828601615099565b6040830152506152386060840161506a565b606082015261524960808401614f89565b608082015261525a60a08401614f48565b60a082015261526b60c08401614f89565b60c082015295945050505050565b6000602080838503121561528c57600080fd5b825167ffffffffffffffff808211156152a457600080fd5b818501915085601f8301126152b857600080fd5b8151818111156152ca576152ca614ae7565b8060051b91506152db848301614b26565b81815291830184019184810190888411156152f557600080fd5b938501935b83851015615327578451925061ffff831683146153175760008081fd5b82825293850193908501906152fa565b98975050505050505050565b600063ffffffff80831681810361534c5761534c614f0c565b6001019392505050565b60008251615368818460208701615075565b9190910192915050565b60006020828403121561538457600080fd5b8151613f9f81614a54565b60ff81811683821601908111156148aa576148aa614f0c565b600060ff821660ff81036153be576153be614f0c565b60010192915050565b600181815b808511156154025781600019048211156153e8576153e8614f0c565b808516156153f557918102915b93841c93908002906153cc565b509250929050565b600082615419575060016148aa565b81615426575060006148aa565b816001811461543c576002811461544657615462565b60019150506148aa565b60ff84111561545757615457614f0c565b50506001821b6148aa565b5060208310610133831016604e8410600b8410161715615485575081810a6148aa565b61548f83836153c7565b80600019048211156154a3576154a3614f0c565b029392505050565b6000613f9f838361540a565b60208152600082518060208401526154d6816040850160208701615075565b601f01601f1916919091016040019291505056fe360894a13ba1a3210667c828492db98dca3e2076cc3735a920a3ca505d382bbc416464726573733a206c6f772d6c6576656c2064656c65676174652063616c6c206661696c656400f37bd73ff29ab549d774afc91445bf33292ed9a4b4b4177fb1e61ff3c58469a2646970667358221220fb77badc7847949d961ed9301f9c5c4d83045516af987b58e3ba45d99e526a1a64736f6c63430008120033",
  "linkReferences": {},
  "deployedLinkReferences": {}
}