{
  "_format": "hh-sol-artifact-1",
  "contractName": "ReferralV1Upgradeable",
  "sourceName": "contracts/ReferralV1Upgradeable.sol",
  "abi": [
    {
      "anonymous": false,
      "inputs": [
        {
          "indexed": false,
          "internalType": "address",
          "name": "previousAdmin",
          "type": "address"
        },
        {
          "indexed": false,
          "internalType": "address",
          "name": "newAdmin",
          "type": "address"
        }
      ],
      "name": "AdminChanged",
      "type": "event"
    },
    {
      "anonymous": false,
      "inputs": [
        {
          "indexed": true,
          "internalType": "address",
          "name": "beacon",
          "type": "address"
        }
      ],
      "name": "BeaconUpgraded",
      "type": "event"
    },
    {
      "anonymous": false,
      "inputs": [
        {
          "indexed": false,
          "internalType": "address",
          "name": "globalAddress",
          "type": "address"
        },
        {
          "indexed": false,
          "internalType": "address",
          "name": "userAddress",
          "type": "address"
        },
        {
          "indexed": false,
          "internalType": "uint256",
          "name": "registrationValue",
          "type": "uint256"
        },
        {
          "indexed": false,
          "internalType": "uint256",
          "name": "rewardValue",
          "type": "uint256"
        },
        {
          "indexed": false,
          "internalType": "uint16",
          "name": "rewardRate",
          "type": "uint16"
        },
        {
          "indexed": false,
          "internalType": "uint16",
          "name": "rewardRateDecimals",
          "type": "uint16"
        },
        {
          "indexed": false,
          "internalType": "string",
          "name": "reason",
          "type": "string"
        }
      ],
      "name": "GlobalRewardsNotPaid",
      "type": "event"
    },
    {
      "anonymous": false,
      "inputs": [
        {
          "indexed": false,
          "internalType": "address",
          "name": "globalAddress",
          "type": "address"
        },
        {
          "indexed": false,
          "internalType": "address",
          "name": "userAddress",
          "type": "address"
        },
        {
          "indexed": false,
          "internalType": "uint256",
          "name": "registrationValue",
          "type": "uint256"
        },
        {
          "indexed": false,
          "internalType": "uint256",
          "name": "rewardValue",
          "type": "uint256"
        },
        {
          "indexed": false,
          "internalType": "uint16",
          "name": "rewardRate",
          "type": "uint16"
        },
        {
          "indexed": false,
          "internalType": "uint16",
          "name": "rewardRateDecimals",
          "type": "uint16"
        }
      ],
      "name": "GlobalRewardsPaid",
      "type": "event"
    },
    {
      "anonymous": false,
      "inputs": [
        {
          "indexed": false,
          "internalType": "address",
          "name": "ibpAddress",
          "type": "address"
        },
        {
          "indexed": false,
          "internalType": "address",
          "name": "userAddress",
          "type": "address"
        }
      ],
      "name": "IBPAdded",
      "type": "event"
    },
    {
      "anonymous": false,
      "inputs": [
        {
          "indexed": false,
          "internalType": "address",
          "name": "ibpAddress",
          "type": "address"
        },
        {
          "indexed": false,
          "internalType": "address",
          "name": "userAddress",
          "type": "address"
        },
        {
          "indexed": false,
          "internalType": "string",
          "name": "reason",
          "type": "string"
        }
      ],
      "name": "IBPNotAdded",
      "type": "event"
    },
    {
      "anonymous": false,
      "inputs": [
        {
          "indexed": false,
          "internalType": "address",
          "name": "ibpAddress",
          "type": "address"
        },
        {
          "indexed": false,
          "internalType": "string",
          "name": "reason",
          "type": "string"
        }
      ],
      "name": "IBPRewardsNotPaid",
      "type": "event"
    },
    {
      "anonymous": false,
      "inputs": [
        {
          "indexed": false,
          "internalType": "address",
          "name": "ibpAddress",
          "type": "address"
        },
        {
          "indexed": false,
          "internalType": "address",
          "name": "userAddress",
          "type": "address"
        },
        {
          "indexed": false,
          "internalType": "uint256",
          "name": "businessValue",
          "type": "uint256"
        },
        {
          "indexed": false,
          "internalType": "uint256",
          "name": "rewardValue",
          "type": "uint256"
        },
        {
          "indexed": false,
          "internalType": "uint16",
          "name": "rewardRate",
          "type": "uint16"
        },
        {
          "indexed": false,
          "internalType": "uint16",
          "name": "rewardRateDecimals",
          "type": "uint16"
        }
      ],
      "name": "IBPRewardsPaid",
      "type": "event"
    },
    {
      "anonymous": false,
      "inputs": [
        {
          "indexed": false,
          "internalType": "uint8",
          "name": "version",
          "type": "uint8"
        }
      ],
      "name": "Initialized",
      "type": "event"
    },
    {
      "anonymous": false,
      "inputs": [
        {
          "indexed": false,
          "internalType": "address",
          "name": "userAddress",
          "type": "address"
        },
        {
          "indexed": false,
          "internalType": "string",
          "name": "reason",
          "type": "string"
        }
      ],
      "name": "NoRewardsPaid",
      "type": "event"
    },
    {
      "anonymous": false,
      "inputs": [
        {
          "indexed": true,
          "internalType": "address",
          "name": "previousOwner",
          "type": "address"
        },
        {
          "indexed": true,
          "internalType": "address",
          "name": "newOwner",
          "type": "address"
        }
      ],
      "name": "OwnershipTransferred",
      "type": "event"
    },
    {
      "anonymous": false,
      "inputs": [
        {
          "indexed": false,
          "internalType": "address",
          "name": "account",
          "type": "address"
        }
      ],
      "name": "Paused",
      "type": "event"
    },
    {
      "anonymous": false,
      "inputs": [
        {
          "indexed": false,
          "internalType": "address",
          "name": "referrerAddress",
          "type": "address"
        },
        {
          "indexed": false,
          "internalType": "address",
          "name": "userAddress",
          "type": "address"
        },
        {
          "indexed": false,
          "internalType": "uint256",
          "name": "value",
          "type": "uint256"
        },
        {
          "indexed": false,
          "internalType": "uint256",
          "name": "rewardValue",
          "type": "uint256"
        },
        {
          "indexed": false,
          "internalType": "uint256",
          "name": "rewardRate",
          "type": "uint256"
        },
        {
          "indexed": false,
          "internalType": "uint256",
          "name": "rewardRateDecimals",
          "type": "uint256"
        },
        {
          "indexed": false,
          "internalType": "uint32",
          "name": "level",
          "type": "uint32"
        }
      ],
      "name": "ReferralRewardsPaid",
      "type": "event"
    },
    {
      "anonymous": false,
      "inputs": [
        {
          "indexed": false,
          "internalType": "address",
          "name": "referrerAddress",
          "type": "address"
        },
        {
          "indexed": false,
          "internalType": "address",
          "name": "refereeAddress",
          "type": "address"
        }
      ],
      "name": "ReferrerAdded",
      "type": "event"
    },
    {
      "anonymous": false,
      "inputs": [
        {
          "indexed": false,
          "internalType": "address",
          "name": "referrerAddress",
          "type": "address"
        },
        {
          "indexed": false,
          "internalType": "address",
          "name": "refereeAddress",
          "type": "address"
        },
        {
          "indexed": false,
          "internalType": "string",
          "name": "reason",
          "type": "string"
        }
      ],
      "name": "ReferrerNotAdded",
      "type": "event"
    },
    {
      "anonymous": false,
      "inputs": [
        {
          "indexed": false,
          "internalType": "address",
          "name": "userAddress",
          "type": "address"
        },
        {
          "indexed": false,
          "internalType": "uint32",
          "name": "userId",
          "type": "uint32"
        },
        {
          "indexed": false,
          "internalType": "uint8",
          "name": "planId",
          "type": "uint8"
        },
        {
          "indexed": false,
          "internalType": "address",
          "name": "referrerAddress",
          "type": "address"
        }
      ],
      "name": "Registration",
      "type": "event"
    },
    {
      "anonymous": false,
      "inputs": [
        {
          "indexed": false,
          "internalType": "address",
          "name": "parentAddress",
          "type": "address"
        },
        {
          "indexed": false,
          "internalType": "address",
          "name": "referrerAddress",
          "type": "address"
        },
        {
          "indexed": false,
          "internalType": "address",
          "name": "refereeAddress",
          "type": "address"
        },
        {
          "indexed": false,
          "internalType": "uint32",
          "name": "level",
          "type": "uint32"
        }
      ],
      "name": "TeamAddressAdded",
      "type": "event"
    },
    {
      "anonymous": false,
      "inputs": [
        {
          "indexed": false,
          "internalType": "address",
          "name": "account",
          "type": "address"
        }
      ],
      "name": "Unpaused",
      "type": "event"
    },
    {
      "anonymous": false,
      "inputs": [
        {
          "indexed": true,
          "internalType": "address",
          "name": "implementation",
          "type": "address"
        }
      ],
      "name": "Upgraded",
      "type": "event"
    },
    {
      "anonymous": false,
      "inputs": [
        {
          "indexed": false,
          "internalType": "address",
          "name": "globalAddress",
          "type": "address"
        },
        {
          "indexed": false,
          "internalType": "uint256",
          "name": "rewardValue",
          "type": "uint256"
        }
      ],
      "name": "WeeklyRewardsPaid",
      "type": "event"
    },
    {
      "inputs": [
        {
          "internalType": "address",
          "name": "_userAddress",
          "type": "address"
        },
        {
          "internalType": "address",
          "name": "_ibpAddress",
          "type": "address"
        },
        {
          "internalType": "uint256",
          "name": "_maxLimitInDecimals",
          "type": "uint256"
        }
      ],
      "name": "addIbpToAddressAdmin",
      "outputs": [],
      "stateMutability": "nonpayable",
      "type": "function"
    },
    {
      "inputs": [
        {
          "internalType": "address",
          "name": "_referrer",
          "type": "address"
        },
        {
          "internalType": "address",
          "name": "_user",
          "type": "address"
        }
      ],
      "name": "changeReferrer",
      "outputs": [],
      "stateMutability": "nonpayable",
      "type": "function"
    },
    {
      "inputs": [
        {
          "internalType": "address",
          "name": "_tokenAddress",
          "type": "address"
        }
      ],
      "name": "distributeWeeklyReward",
      "outputs": [
        {
          "internalType": "address",
          "name": "",
          "type": "address"
        }
      ],
      "stateMutability": "nonpayable",
      "type": "function"
    },
    {
      "inputs": [],
      "name": "getRegistrationsStats",
      "outputs": [
        {
          "internalType": "uint32",
          "name": "totalUser",
          "type": "uint32"
        },
        {
          "internalType": "uint256",
          "name": "totalRegistrationValue",
          "type": "uint256"
        },
        {
          "internalType": "uint256",
          "name": "totalReferralPaid",
          "type": "uint256"
        },
        {
          "internalType": "uint256",
          "name": "totalGlobalRewardsPaid",
          "type": "uint256"
        },
        {
          "internalType": "uint256",
          "name": "totalWeeklyRewardsPaid",
          "type": "uint256"
        },
        {
          "internalType": "uint256",
          "name": "totalCoreMembershipRewardPaid",
          "type": "uint256"
        },
        {
          "internalType": "uint256",
          "name": "totalIbpRewardsPaid",
          "type": "uint256"
        }
      ],
      "stateMutability": "view",
      "type": "function"
    },
    {
      "inputs": [
        {
          "internalType": "address",
          "name": "_userAddress",
          "type": "address"
        }
      ],
      "name": "getUserAccount",
      "outputs": [
        {
          "components": [
            {
              "internalType": "uint32",
              "name": "userId",
              "type": "uint32"
            },
            {
              "internalType": "address",
              "name": "selfAddress",
              "type": "address"
            },
            {
              "internalType": "address",
              "name": "ibpAddress",
              "type": "address"
            },
            {
              "internalType": "address",
              "name": "referrerAddress",
              "type": "address"
            },
            {
              "internalType": "address[]",
              "name": "refereeAddresses",
              "type": "address[]"
            },
            {
              "internalType": "address[]",
              "name": "teamAddress",
              "type": "address[]"
            },
            {
              "internalType": "uint32[]",
              "name": "teamLevels",
              "type": "uint32[]"
            },
            {
              "internalType": "uint256",
              "name": "selfBusiness",
              "type": "uint256"
            },
            {
              "internalType": "uint256",
              "name": "directBusiness",
              "type": "uint256"
            },
            {
              "internalType": "uint256",
              "name": "teamBusiness",
              "type": "uint256"
            },
            {
              "internalType": "uint256",
              "name": "maxLimit",
              "type": "uint256"
            },
            {
              "internalType": "uint256",
              "name": "currentLimit",
              "type": "uint256"
            },
            {
              "internalType": "uint256",
              "name": "referralRewards",
              "type": "uint256"
            },
            {
              "internalType": "uint256",
              "name": "globalRewards",
              "type": "uint256"
            },
            {
              "internalType": "uint256",
              "name": "weeklyRewards",
              "type": "uint256"
            },
            {
              "internalType": "uint256",
              "name": "ibpRewards",
              "type": "uint256"
            },
            {
              "internalType": "bool",
              "name": "isGlobal",
              "type": "bool"
            },
            {
              "internalType": "uint32[]",
              "name": "globalIndexes",
              "type": "uint32[]"
            }
          ],
          "internalType": "struct AccountStruct",
          "name": "",
          "type": "tuple"
        }
      ],
      "stateMutability": "view",
      "type": "function"
    },
    {
      "inputs": [
        {
          "internalType": "address",
          "name": "_userAddress",
          "type": "address"
        }
      ],
      "name": "getUserBusiness",
      "outputs": [
        {
          "internalType": "uint256",
          "name": "selfBusiness",
          "type": "uint256"
        },
        {
          "internalType": "uint256",
          "name": "directBusiness",
          "type": "uint256"
        },
        {
          "internalType": "uint256",
          "name": "teamBusiness",
          "type": "uint256"
        },
        {
          "internalType": "uint256",
          "name": "totalBusiness",
          "type": "uint256"
        }
      ],
      "stateMutability": "view",
      "type": "function"
    },
    {
      "inputs": [
        {
          "internalType": "address",
          "name": "_userAddress",
          "type": "address"
        }
      ],
      "name": "getUserIbpAddress",
      "outputs": [
        {
          "internalType": "address",
          "name": "",
          "type": "address"
        }
      ],
      "stateMutability": "view",
      "type": "function"
    },
    {
      "inputs": [
        {
          "internalType": "address",
          "name": "_userAddress",
          "type": "address"
        }
      ],
      "name": "getUserLimit",
      "outputs": [
        {
          "internalType": "uint256",
          "name": "maxLimit",
          "type": "uint256"
        },
        {
          "internalType": "uint256",
          "name": "currentLimit",
          "type": "uint256"
        },
        {
          "internalType": "uint256",
          "name": "limitRemaingvalue",
          "type": "uint256"
        }
      ],
      "stateMutability": "view",
      "type": "function"
    },
    {
      "inputs": [
        {
          "internalType": "address",
          "name": "_userAddress",
          "type": "address"
        }
      ],
      "name": "getUserRewards",
      "outputs": [
        {
          "internalType": "uint256",
          "name": "referralReward",
          "type": "uint256"
        },
        {
          "internalType": "uint256",
          "name": "globalReward",
          "type": "uint256"
        },
        {
          "internalType": "uint256",
          "name": "weeklyReward",
          "type": "uint256"
        },
        {
          "internalType": "uint256",
          "name": "ibpReward",
          "type": "uint256"
        },
        {
          "internalType": "uint256",
          "name": "totalIncome",
          "type": "uint256"
        }
      ],
      "stateMutability": "view",
      "type": "function"
    },
    {
      "inputs": [
        {
          "internalType": "address",
          "name": "_userAddress",
          "type": "address"
        }
      ],
      "name": "getUserTeam",
      "outputs": [
        {
          "internalType": "address",
          "name": "referrer",
          "type": "address"
        },
        {
          "internalType": "address[]",
          "name": "referees",
          "type": "address[]"
        },
        {
          "internalType": "uint256",
          "name": "refereeCount",
          "type": "uint256"
        },
        {
          "internalType": "address[]",
          "name": "team",
          "type": "address[]"
        },
        {
          "internalType": "uint32[]",
          "name": "teamLevels",
          "type": "uint32[]"
        },
        {
          "internalType": "uint256",
          "name": "teamCount",
          "type": "uint256"
        }
      ],
      "stateMutability": "view",
      "type": "function"
    },
    {
      "inputs": [],
      "name": "getVariablesContract",
      "outputs": [
        {
          "internalType": "address",
          "name": "",
          "type": "address"
        }
      ],
      "stateMutability": "view",
      "type": "function"
    },
    {
      "inputs": [],
      "name": "getWeeklyRewardToBeDistributed",
      "outputs": [
        {
          "internalType": "uint256",
          "name": "",
          "type": "uint256"
        }
      ],
      "stateMutability": "view",
      "type": "function"
    },
    {
      "inputs": [],
      "name": "getWeeklyRewardsRemainTime",
      "outputs": [
        {
          "internalType": "uint256",
          "name": "",
          "type": "uint256"
        }
      ],
      "stateMutability": "view",
      "type": "function"
    },
    {
      "inputs": [],
      "name": "initialize",
      "outputs": [],
      "stateMutability": "nonpayable",
      "type": "function"
    },
    {
      "inputs": [
        {
          "internalType": "address",
          "name": "_userAddress",
          "type": "address"
        }
      ],
      "name": "isUserInGlobalList",
      "outputs": [
        {
          "internalType": "bool",
          "name": "isInList",
          "type": "bool"
        },
        {
          "internalType": "uint32[]",
          "name": "indexes",
          "type": "uint32[]"
        },
        {
          "internalType": "uint256",
          "name": "totalGlobalIds",
          "type": "uint256"
        }
      ],
      "stateMutability": "view",
      "type": "function"
    },
    {
      "inputs": [],
      "name": "owner",
      "outputs": [
        {
          "internalType": "address",
          "name": "",
          "type": "address"
        }
      ],
      "stateMutability": "view",
      "type": "function"
    },
    {
      "inputs": [],
      "name": "pause",
      "outputs": [],
      "stateMutability": "nonpayable",
      "type": "function"
    },
    {
      "inputs": [],
      "name": "paused",
      "outputs": [
        {
          "internalType": "bool",
          "name": "",
          "type": "bool"
        }
      ],
      "stateMutability": "view",
      "type": "function"
    },
    {
      "inputs": [],
      "name": "proxiableUUID",
      "outputs": [
        {
          "internalType": "bytes32",
          "name": "",
          "type": "bytes32"
        }
      ],
      "stateMutability": "view",
      "type": "function"
    },
    {
      "inputs": [
        {
          "internalType": "address",
          "name": "_referrer",
          "type": "address"
        },
        {
          "internalType": "uint8",
          "name": "_planId",
          "type": "uint8"
        },
        {
          "internalType": "address",
          "name": "_tokenAddress",
          "type": "address"
        }
      ],
      "name": "registrationWithToken",
      "outputs": [],
      "stateMutability": "nonpayable",
      "type": "function"
    },
    {
      "inputs": [
        {
          "internalType": "address",
          "name": "_referrer",
          "type": "address"
        },
        {
          "internalType": "address",
          "name": "_userAddress",
          "type": "address"
        },
        {
          "internalType": "uint8",
          "name": "_planId",
          "type": "uint8"
        },
        {
          "internalType": "address",
          "name": "_tokenAddress",
          "type": "address"
        }
      ],
      "name": "registrationWithTokenAdmin",
      "outputs": [],
      "stateMutability": "nonpayable",
      "type": "function"
    },
    {
      "inputs": [
        {
          "internalType": "address",
          "name": "_userAddress",
          "type": "address"
        }
      ],
      "name": "removeIbpFromAddressAdmin",
      "outputs": [],
      "stateMutability": "nonpayable",
      "type": "function"
    },
    {
      "inputs": [],
      "name": "renounceOwnership",
      "outputs": [],
      "stateMutability": "nonpayable",
      "type": "function"
    },
    {
      "inputs": [
        {
          "internalType": "address",
          "name": "_contractAddress",
          "type": "address"
        }
      ],
      "name": "setVariablesContract",
      "outputs": [],
      "stateMutability": "nonpayable",
      "type": "function"
    },
    {
      "inputs": [
        {
          "internalType": "address",
          "name": "newOwner",
          "type": "address"
        }
      ],
      "name": "transferOwnership",
      "outputs": [],
      "stateMutability": "nonpayable",
      "type": "function"
    },
    {
      "inputs": [],
      "name": "unpause",
      "outputs": [],
      "stateMutability": "nonpayable",
      "type": "function"
    },
    {
      "inputs": [
        {
          "internalType": "address",
          "name": "newImplementation",
          "type": "address"
        }
      ],
      "name": "upgradeTo",
      "outputs": [],
      "stateMutability": "nonpayable",
      "type": "function"
    },
    {
      "inputs": [
        {
          "internalType": "address",
          "name": "newImplementation",
          "type": "address"
        },
        {
          "internalType": "bytes",
          "name": "data",
          "type": "bytes"
        }
      ],
      "name": "upgradeToAndCall",
      "outputs": [],
      "stateMutability": "payable",
      "type": "function"
    },
    {
      "stateMutability": "payable",
      "type": "receive"
    }
  ],
  "bytecode": "0x60a06040523060805234801561001457600080fd5b506080516158c86200004d6000396000818161090b0152818161095401528181610d5101528181610d910152610e2401526158c86000f3fe6080604052600436106101bb5760003560e01c80638da5cb5b116100ec578063e6f6769e1161008a578063f2fde38b11610064578063f2fde38b14610547578063f87127b414610567578063faeda7e5146105a7578063fb47e016146105d957600080fd5b8063e6f6769e146104ce578063e9587e86146104ee578063f13a143f1461052957600080fd5b8063aa8d713a116100c6578063aa8d713a1461044e578063b1e0c0901461046e578063d277b8a91461048e578063df108176146104ae57600080fd5b80638da5cb5b146103ca578063967012eb146103fc578063986992fa1461043957600080fd5b80634f1ef28611610159578063715018a611610133578063715018a6146103765780638129fc1c1461038b5780638456cb59146103a0578063846688f7146103b557600080fd5b80634f1ef2861461031d57806352d1902d146103305780635c975abb1461035357600080fd5b80633659cfe6116101955780633659cfe6146102995780633b38bf72146102b95780633ef575e9146102d95780633f4ba83a1461030857600080fd5b80630690c6a8146101c7578063078b0fb71461022f5780630ba0dba31461027757600080fd5b366101c257005b600080fd5b3480156101d357600080fd5b5060fd5460fe5461010154610102546101035461010454610105546040805163ffffffff90981688526020880196909652948601939093526060850191909152608084015260a083015260c082015260e0015b60405180910390f35b34801561023b57600080fd5b5061024f61024a366004614ccd565b610606565b604080519586526020860194909452928401919091526060830152608082015260a001610226565b34801561028357600080fd5b50610297610292366004614ccd565b6108d7565b005b3480156102a557600080fd5b506102976102b4366004614ccd565b610901565b3480156102c557600080fd5b506102976102d4366004614cea565b6109e9565b3480156102e557600080fd5b506102f96102f4366004614ccd565b610a6a565b60405161022693929190614d64565b34801561031457600080fd5b50610297610d35565b61029761032b366004614e27565b610d47565b34801561033c57600080fd5b50610345610e17565b604051908152602001610226565b34801561035f57600080fd5b5060335460ff166040519015158152602001610226565b34801561038257600080fd5b50610297610eca565b34801561039757600080fd5b50610297610edc565b3480156103ac57600080fd5b50610297611028565b3480156103c157600080fd5b5060ff54610345565b3480156103d657600080fd5b506065546001600160a01b03165b6040516001600160a01b039091168152602001610226565b34801561040857600080fd5b506103e4610417366004614ccd565b6001600160a01b03908116600090815261010660205260409020600101541690565b34801561044557600080fd5b50610345611038565b34801561045a57600080fd5b50610297610469366004614ccd565b611071565b34801561047a57600080fd5b50610297610489366004614ec9565b6111b7565b34801561049a57600080fd5b506103e46104a9366004614ccd565b6112b4565b3480156104ba57600080fd5b506102976104c9366004614f25565b6114d6565b3480156104da57600080fd5b506102976104e9366004614f66565b611589565b3480156104fa57600080fd5b5061050e610509366004614ccd565b611596565b60408051938452602084019290925290820152606001610226565b34801561053557600080fd5b5060fb546001600160a01b03166103e4565b34801561055357600080fd5b50610297610562366004614ccd565b61185c565b34801561057357600080fd5b50610587610582366004614ccd565b6118d2565b604080519485526020850193909352918301526060820152608001610226565b3480156105b357600080fd5b506105c76105c2366004614ccd565b611ba3565b60405161022696959493929190614fea565b3480156105e557600080fd5b506105f96105f4366004614ccd565b611e7c565b604051610226919061504e565b6001600160a01b03808216600090815261010660209081526040808320815161024081018352815463ffffffff81168252600160201b9004861681850152600182015486168184015260028201549095166060860152600381018054835181860281018601909452808452949586958695869586958695909360808601938301828280156106bd57602002820191906000526020600020905b81546001600160a01b0316815260019091019060200180831161069f575b505050505081526020016004820180548060200260200160405190810160405280929190818152602001828054801561071f57602002820191906000526020600020905b81546001600160a01b03168152600190910190602001808311610701575b50505050508152602001600582018054806020026020016040519081016040528092919081815260200182805480156107a357602002820191906000526020600020906000905b82829054906101000a900463ffffffff1663ffffffff16815260200190600401906020826003010492830192600103820291508084116107665790505b5050505050815260200160068201548152602001600782015481526020016008820154815260200160098201548152602001600a8201548152602001600b8201548152602001600c8201548152602001600d8201548152602001600e8201548152602001600f820160009054906101000a900460ff161515151581526020016010820180548060200260200160405190810160405280929190818152602001828054801561089c57602002820191906000526020600020906000905b82829054906101000a900463ffffffff1663ffffffff168152602001906004019060208260030104928301926001038202915080841161085f5790505b505050919092525050506101808101516101a08201516101c08301516101e084015161016090940151929b919a509850919650945092505050565b6108df6121cb565b60fb80546001600160a01b0319166001600160a01b0392909216919091179055565b6001600160a01b037f00000000000000000000000000000000000000000000000000000000000000001630036109525760405162461bcd60e51b8152600401610949906151b5565b60405180910390fd5b7f00000000000000000000000000000000000000000000000000000000000000006001600160a01b031661099b60008051602061582c833981519152546001600160a01b031690565b6001600160a01b0316146109c15760405162461bcd60e51b815260040161094990615201565b6109ca81612225565b604080516000808252602082019092526109e69183919061222d565b50565b6109f16121cb565b6001600160a01b039081166000818152610106602090815260408083206002018054959096166001600160a01b0319958616811790965594825293812060038101805460018181018355918452868420018054861685179055600490910180549182018155825293902090920180549091169091179055565b6001600160a01b03808216600090815261010660209081526040808320815161024081018352815463ffffffff81168252600160201b9004861681850152600182015486168184015260028201549095166060868101919091526003820180548451818702810187019095528085529596919587958695939493608086019390929091830182828015610b2657602002820191906000526020600020905b81546001600160a01b03168152600190910190602001808311610b08575b5050505050815260200160048201805480602002602001604051908101604052809291908181526020018280548015610b8857602002820191906000526020600020905b81546001600160a01b03168152600190910190602001808311610b6a575b5050505050815260200160058201805480602002602001604051908101604052809291908181526020018280548015610c0c57602002820191906000526020600020906000905b82829054906101000a900463ffffffff1663ffffffff1681526020019060040190602082600301049283019260010382029150808411610bcf5790505b5050505050815260200160068201548152602001600782015481526020016008820154815260200160098201548152602001600a8201548152602001600b8201548152602001600c8201548152602001600d8201548152602001600e8201548152602001600f820160009054906101000a900460ff1615151515815260200160108201805480602002602001604051908101604052809291908181526020018280548015610d0557602002820191906000526020600020906000905b82829054906101000a900463ffffffff1663ffffffff1681526020019060040190602082600301049283019260010382029150808411610cc85790505b50505050508152505090506000816102200151511115610d2457600193505b610220015180519395909450915050565b610d3d6121cb565b610d4561239d565b565b6001600160a01b037f0000000000000000000000000000000000000000000000000000000000000000163003610d8f5760405162461bcd60e51b8152600401610949906151b5565b7f00000000000000000000000000000000000000000000000000000000000000006001600160a01b0316610dd860008051602061582c833981519152546001600160a01b031690565b6001600160a01b031614610dfe5760405162461bcd60e51b815260040161094990615201565b610e0782612225565b610e138282600161222d565b5050565b6000306001600160a01b037f00000000000000000000000000000000000000000000000000000000000000001614610eb75760405162461bcd60e51b815260206004820152603860248201527f555550535570677261646561626c653a206d757374206e6f742062652063616c60448201527f6c6564207468726f7567682064656c656761746563616c6c00000000000000006064820152608401610949565b5060008051602061582c83398151915290565b610ed26121cb565b610d4560006123ef565b600054610100900460ff1615808015610efc5750600054600160ff909116105b80610f165750303b158015610f16575060005460ff166001145b610f795760405162461bcd60e51b815260206004820152602e60248201527f496e697469616c697a61626c653a20636f6e747261637420697320616c72656160448201526d191e481a5b9a5d1a585b1a5e995960921b6064820152608401610949565b6000805460ff191660011790558015610f9c576000805461ff0019166101001790555b60fb80546001600160a01b03191673494549e00fe6598e3dc93254c5377c406dda85791790554261010055610fcf612441565b610fd7612470565b610fdf61249f565b80156109e6576000805461ff0019169055604051600181527f7f26b83ff96e1f2b6a682f133852f6798a09c465da95921460cefb3847402498906020015b60405180910390a150565b6110306121cb565b610d456124c6565b6000806101005462093a8061104d9190615263565b9050428181106110605760009250505090565b61106a8183615276565b9250505090565b6110796121cb565b60fb60009054906101000a90046001600160a01b03166001600160a01b031663b2e6b9126040518163ffffffff1660e01b8152600401602060405180830381865afa1580156110cc573d6000803e3d6000fd5b505050506040513d601f19601f820116820180604052508101906110f09190615294565b6001600160a01b038281166000908152610106602090815260409182902060010180546001600160a01b0319169484169490941790935560fb5481516359735c8960e11b8152915160008051602061587383398151915294919093169263b2e6b9129260048082019392918290030181865afa158015611174573d6000803e3d6000fd5b505050506040513d601f19601f820116820180604052508101906111989190615294565b604080516001600160a01b03928316815291841660208301520161101d565b60fb60009054906101000a90046001600160a01b03166001600160a01b031663f1012b456040518163ffffffff1660e01b8152600401602060405180830381865afa15801561120a573d6000803e3d6000fd5b505050506040513d601f19601f8201168201806040525081019061122e9190615294565b6001600160a01b0316336001600160a01b0316146112a25760405162461bcd60e51b815260206004820152602b60248201527f4f6e6c792050726573616c6520636f6e74726163742063616e2075736520746860448201526a34b990333ab731ba34b7b760a91b6064820152608401610949565b6112ae84848484612503565b50505050565b6000806101005462093a806112c99190615263565b9050428181101561131c5760405162461bcd60e51b815260206004820152601c60248201527f5765656b6c792074696d65206973206e6f74206f766572207965742e000000006044820152606401610949565b6000611326613fcc565b6040516370a0823160e01b81523060048201529091506000906001600160a01b038716906370a0823190602401602060405180830381865afa158015611370573d6000803e3d6000fd5b505050506040513d601f19601f8201168201806040525081019061139491906152b1565b60ff54909150808210156114105760405162461bcd60e51b815260206004820152603760248201527f436f6e74726163742068617320696e73756666696369656e742062616c616e6360448201527f6520746f2064697374726962757465207265776172642e0000000000000000006064820152608401610949565b60405163a9059cbb60e01b81526001600160a01b0384811660048301526024820183905288169063a9059cbb906044016020604051808303816000875af115801561145f573d6000803e3d6000fd5b505050506040513d601f19601f8201168201806040525081019061148391906152da565b50600060ff55604080516001600160a01b0385168152602081018390527ffff6edc60fd30afefcc47525cdf85502200830b22550391f79f9e383df03afad910160405180910390a1509095945050505050565b6114de6121cb565b6001600160a01b0383811660009081526101066020526040902060010180546001600160a01b03191691841691909117905561152281670de0b6b3a76400006152f5565b6001600160a01b038416600090815261010660205260408120600901805490919061154e908490615263565b9091555050604080516001600160a01b03808516825285166020820152600080516020615873833981519152910160405180910390a1505050565b336112ae84828585612503565b6001600160a01b03808216600090815261010660209081526040808320815161024081018352815463ffffffff81168252600160201b90048616818501526001820154861681840152600282015490951660608601526003810180548351818602810186019094528084529495869586958695929493608086019392909183018282801561164d57602002820191906000526020600020905b81546001600160a01b0316815260019091019060200180831161162f575b50505050508152602001600482018054806020026020016040519081016040528092919081815260200182805480156116af57602002820191906000526020600020905b81546001600160a01b03168152600190910190602001808311611691575b505050505081526020016005820180548060200260200160405190810160405280929190818152602001828054801561173357602002820191906000526020600020906000905b82829054906101000a900463ffffffff1663ffffffff16815260200190600401906020826003010492830192600103820291508084116116f65790505b5050505050815260200160068201548152602001600782015481526020016008820154815260200160098201548152602001600a8201548152602001600b8201548152602001600c8201548152602001600d8201548152602001600e8201548152602001600f820160009054906101000a900460ff161515151581526020016010820180548060200260200160405190810160405280929190818152602001828054801561182c57602002820191906000526020600020906000905b82829054906101000a900463ffffffff1663ffffffff16815260200190600401906020826003010492830192600103820291508084116117ef5790505b50505091909252505050610140810151610160820151909550935090506118538385615276565b93959294505050565b6118646121cb565b6001600160a01b0381166118c95760405162461bcd60e51b815260206004820152602660248201527f4f776e61626c653a206e6577206f776e657220697320746865207a65726f206160448201526564647265737360d01b6064820152608401610949565b6109e6816123ef565b6001600160a01b03808216600090815261010660209081526040808320815161024081018352815463ffffffff81168252600160201b90048616818501526001820154861681840152600282015490951660608601526003810180548351818602810186019094528084529495869586958695869593946080860193919290919083018282801561198c57602002820191906000526020600020905b81546001600160a01b0316815260019091019060200180831161196e575b50505050508152602001600482018054806020026020016040519081016040528092919081815260200182805480156119ee57602002820191906000526020600020905b81546001600160a01b031681526001909101906020018083116119d0575b5050505050815260200160058201805480602002602001604051908101604052809291908181526020018280548015611a7257602002820191906000526020600020906000905b82829054906101000a900463ffffffff1663ffffffff1681526020019060040190602082600301049283019260010382029150808411611a355790505b5050505050815260200160068201548152602001600782015481526020016008820154815260200160098201548152602001600a8201548152602001600b8201548152602001600c8201548152602001600d8201548152602001600e8201548152602001600f820160009054906101000a900460ff1615151515815260200160108201805480602002602001604051908101604052809291908181526020018280548015611b6b57602002820191906000526020600020906000905b82829054906101000a900463ffffffff1663ffffffff1681526020019060040190602082600301049283019260010382029150808411611b2e5790505b5050509190925250505060e0810151610100820151610120830151919750955093509050611b998584615263565b9150509193509193565b6001600160a01b03808216600090815261010660209081526040808320815161024081018352815463ffffffff81168252600160201b90048616818501526001820154861681840152600282015490951660608681019190915260038201805484518187028101870190955280855295969195879587958695889586959094919360808601939290830182828015611c6457602002820191906000526020600020905b81546001600160a01b03168152600190910190602001808311611c46575b5050505050815260200160048201805480602002602001604051908101604052809291908181526020018280548015611cc657602002820191906000526020600020905b81546001600160a01b03168152600190910190602001808311611ca8575b5050505050815260200160058201805480602002602001604051908101604052809291908181526020018280548015611d4a57602002820191906000526020600020906000905b82829054906101000a900463ffffffff1663ffffffff1681526020019060040190602082600301049283019260010382029150808411611d0d5790505b5050505050815260200160068201548152602001600782015481526020016008820154815260200160098201548152602001600a8201548152602001600b8201548152602001600c8201548152602001600d8201548152602001600e8201548152602001600f820160009054906101000a900460ff1615151515815260200160108201805480602002602001604051908101604052809291908181526020018280548015611e4357602002820191906000526020600020906000905b82829054906101000a900463ffffffff1663ffffffff1681526020019060040190602082600301049283019260010382029150808411611e065790505b5050509190925250505060608101516080820151805160a084015160c0909401518451939d929c50909a50929850919650945092505050565b611f2d604051806102400160405280600063ffffffff16815260200160006001600160a01b0316815260200160006001600160a01b0316815260200160006001600160a01b03168152602001606081526020016060815260200160608152602001600081526020016000815260200160008152602001600081526020016000815260200160008152602001600081526020016000815260200160008152602001600015158152602001606081525090565b6001600160a01b0380831660009081526101066020908152604091829020825161024081018452815463ffffffff81168252600160201b900485168184015260018201548516818501526002820154909416606085015260038101805484518185028101850190955280855291936080860193909290830182828015611fdc57602002820191906000526020600020905b81546001600160a01b03168152600190910190602001808311611fbe575b505050505081526020016004820180548060200260200160405190810160405280929190818152602001828054801561203e57602002820191906000526020600020905b81546001600160a01b03168152600190910190602001808311612020575b50505050508152602001600582018054806020026020016040519081016040528092919081815260200182805480156120c257602002820191906000526020600020906000905b82829054906101000a900463ffffffff1663ffffffff16815260200190600401906020826003010492830192600103820291508084116120855790505b5050505050815260200160068201548152602001600782015481526020016008820154815260200160098201548152602001600a8201548152602001600b8201548152602001600c8201548152602001600d8201548152602001600e8201548152602001600f820160009054906101000a900460ff16151515158152602001601082018054806020026020016040519081016040528092919081815260200182805480156121bb57602002820191906000526020600020906000905b82829054906101000a900463ffffffff1663ffffffff168152602001906004019060208260030104928301926001038202915080841161217e5790505b5050505050815250509050919050565b6065546001600160a01b03163314610d455760405162461bcd60e51b815260206004820181905260248201527f4f776e61626c653a2063616c6c6572206973206e6f7420746865206f776e65726044820152606401610949565b6109e66121cb565b7f4910fdfa16fed3260ed0e7147f7cc6da11a60208b5b9406d12a635614ffd91435460ff16156122655761226083614053565b505050565b826001600160a01b03166352d1902d6040518163ffffffff1660e01b8152600401602060405180830381865afa9250505080156122bf575060408051601f3d908101601f191682019092526122bc918101906152b1565b60015b6123225760405162461bcd60e51b815260206004820152602e60248201527f45524331393637557067726164653a206e657720696d706c656d656e7461746960448201526d6f6e206973206e6f74205555505360901b6064820152608401610949565b60008051602061582c83398151915281146123915760405162461bcd60e51b815260206004820152602960248201527f45524331393637557067726164653a20756e737570706f727465642070726f786044820152681a58589b195555525160ba1b6064820152608401610949565b506122608383836140ef565b6123a5614114565b6033805460ff191690557f5db9ee0a495bf2e6ff9c91a7834c1ba4fdd244a5e8aa4e537bd38aeae4b073aa335b6040516001600160a01b03909116815260200160405180910390a1565b606580546001600160a01b038381166001600160a01b0319831681179093556040519116919082907f8be0079c531659141344cd1fd0a4f28419497f9722a3daafe3b4186f6b6457e090600090a35050565b600054610100900460ff166124685760405162461bcd60e51b81526004016109499061530c565b610d4561415d565b600054610100900460ff166124975760405162461bcd60e51b81526004016109499061530c565b610d45614190565b600054610100900460ff16610d455760405162461bcd60e51b81526004016109499061530c565b6124ce6141c0565b6033805460ff191660011790557f62e78cea01bee320cd4e420270b5ea74000d11b0c9f74754ebdbfc544b05a2586123d23390565b60fb54604051630efc12b160e01b815260ff841660048201526001600160a01b03909116906000908290630efc12b190602401600060405180830381865afa158015612553573d6000803e3d6000fd5b505050506040513d6000823e601f3d908101601f1916820160405261257b91908101906153d3565b905060008160400151116125e45760405162461bcd60e51b815260206004820152602a60248201527f56616c7565206973207a65726f2e20506c656173652073656c65637420636f726044820152693932b1ba10383630b71760b11b6064820152608401610949565b6040516373a5799760e11b81526001600160a01b0384811660048301526000919084169063e74af32e90602401600060405180830381865afa15801561262e573d6000803e3d6000fd5b505050506040513d6000823e601f3d908101601f191682016040526126569190810190615480565b6060810151815160c083015192935090916126be5760405162461bcd60e51b815260206004820152602260248201527f546f6b656e206973206e6f7420737570706f72746564206f722064697361626c604482015261195960f21b6064820152608401610949565b6000856001600160a01b031663918a54db6040518163ffffffff1660e01b8152600401600060405180830381865afa1580156126fe573d6000803e3d6000fd5b505050506040513d6000823e601f3d908101601f191682016040526127269190810190615566565b9050866001600160a01b03166323b872dd8a3060128760ff161061274e578860400151612761565b612761896040015160128960ff16614206565b6040516001600160e01b031960e086901b1681526001600160a01b03938416600482015292909116602483015260448201526064016020604051808303816000875af11580156127b5573d6000803e3d6000fd5b505050506040513d601f19601f820116820180604052508101906127d991906152da565b506001600160a01b0389166000908152610106602052604081208054909163ffffffff90911690036128765760fd805463ffffffff1690600061281b83615620565b82546101009290920a63ffffffff81810219909316918316021790915560fd548354911663ffffffff199091168117835560009081526101076020526040902080546001600160a01b0319166001600160a01b038d16179055505b8054640100000000600160c01b031916600160201b6001600160a01b038c160217815560408601516006820180546000906128b2908490615263565b9091555050606086015160408701516128cb91906152f5565b8160090160008282546128de9190615263565b90915550506040516204942560ec1b60208201526023016040516020818303038152906040528051906020012086602001516040516020016129209190615643565b6040516020818303038152906040528051906020012014801561295c5750805460018201546001600160a01b03908116600160201b9092041614155b1561298d578054600182018054600160201b9092046001600160a01b03166001600160a01b03199092169190911790555b6040805161024081018252825463ffffffff811682526001600160a01b03600160201b9091048116602080840191909152600185015482168385015260028501549091166060830152600384018054845181840281018401909552808552612c1f9486936080860193919290830182828015612a3257602002820191906000526020600020905b81546001600160a01b03168152600190910190602001808311612a14575b5050505050815260200160048201805480602002602001604051908101604052809291908181526020018280548015612a9457602002820191906000526020600020905b81546001600160a01b03168152600190910190602001808311612a76575b5050505050815260200160058201805480602002602001604051908101604052809291908181526020018280548015612b1857602002820191906000526020600020906000905b82829054906101000a900463ffffffff1663ffffffff1681526020019060040190602082600301049283019260010382029150808411612adb5790505b5050505050815260200160068201548152602001600782015481526020016008820154815260200160098201548152602001600a8201548152602001600b8201548152602001600c8201548152602001600d8201548152602001600e8201548152602001600f820160009054906101000a900460ff1615151515815260200160108201805480602002602001604051908101604052809291908181526020018280548015612c1157602002820191906000526020600020906000905b82829054906101000a900463ffffffff1663ffffffff1681526020019060040190602082600301049283019260010382029150808411612bd45790505b50505050508152505061423c565b612c3057612c308b8b84518a61425b565b8054600282015460408051600160201b84046001600160a01b03908116825263ffffffff909416602082015260ff8d1681830152929091166060830152517fccdfed8601106cae21493f7848436196048b60f2dc70db89d92e3acdabb0ee299181900360800190a160fc5415612e66576000612caa613fcc565b90506001600160a01b03811615612e64576001600160a01b0381166000908152610106602052604080822090890151909190606490612cea90600a6152f5565b612cf49190615675565b90508082600c016000828254612d0a9190615263565b925050819055508082600a016000828254612d259190615263565b90915550506001600160a01b03861663a9059cbb84601260ff8b1610612d4b5783612d5a565b612d5a8460128c60ff16614206565b6040516001600160e01b031960e085901b1681526001600160a01b03909216600483015260248201526044016020604051808303816000875af1158015612da5573d6000803e3d6000fd5b505050506040513d601f19601f82011682018060405250810190612dc991906152da565b507f693fc02576006378cd4577590d99ad6b18ad4c566c433b85643d7b07a4815665838e8b6040015184600a6064604051612e41969594939291906001600160a01b0396871681529490951660208501526040840192909252606083015261ffff90811660808301529190911660a082015260c00190565b60405180910390a1806101026000828254612e5c9190615263565b909155505050505b505b60018101546001600160a01b031615613418576001808201546001600160a01b0390811660009081526101066020908152604091829020825161024081018452815463ffffffff81168252600160201b90048516818401529481015484168584015260028101549093166060850152600383018054835181840281018401909452808452939461312294909386936080860193919290830182828015612f3557602002820191906000526020600020905b81546001600160a01b03168152600190910190602001808311612f17575b5050505050815260200160048201805480602002602001604051908101604052809291908181526020018280548015612f9757602002820191906000526020600020905b81546001600160a01b03168152600190910190602001808311612f79575b505050505081526020016005820180548060200260200160405190810160405280929190818152602001828054801561301b57602002820191906000526020600020906000905b82829054906101000a900463ffffffff1663ffffffff1681526020019060040190602082600301049283019260010382029150808411612fde5790505b5050505050815260200160068201548152602001600782015481526020016008820154815260200160098201548152602001600a8201548152602001600b8201548152602001600c8201548152602001600d8201548152602001600e8201548152602001600f820160009054906101000a900460ff161515151581526020016010820180548060200260200160405190810160405280929190818152602001828054801561311457602002820191906000526020600020906000905b82829054906101000a900463ffffffff1663ffffffff16815260200190600401906020826003010492830192600103820291508084116130d75790505b505050505081525050614ac9565b6133925760006064896001600160a01b031663e70167176040518163ffffffff1660e01b8152600401602060405180830381865afa158015613168573d6000803e3d6000fd5b505050506040513d601f19601f8201168201806040525081019061318c9190615689565b60ff16896040015161319e91906152f5565b6131a89190615675565b905060006131b68383614ae4565b90508083600e0160008282546131cc9190615263565b909155505060018401546001600160a01b038088169163a9059cbb9116601260ff8b16106131fa5783613209565b6132098460128c60ff16614206565b6040516001600160e01b031960e085901b1681526001600160a01b03909216600483015260248201526044016020604051808303816000875af1158015613254573d6000803e3d6000fd5b505050506040513d601f19601f8201168201806040525081019061327891906152da565b507f3c8fdb10971c51ff48e3a4db4d7f14e64690a286be5bb9f410d9fd0fb74dbf488460010160009054906101000a90046001600160a01b03168560000160049054906101000a90046001600160a01b03168b60400151848e6001600160a01b031663e70167176040518163ffffffff1660e01b8152600401602060405180830381865afa15801561330e573d6000803e3d6000fd5b505050506040513d601f19601f820116820180604052508101906133329190615689565b604080516001600160a01b03968716815295909416602086015292840191909152606083015260ff166080820152606460a082015260c00160405180910390a18161010560008282546133859190615263565b9091555061341692505050565b6001820154604080516001600160a01b039092168252602082018190526026828201527f49425020526577617264206e6f7420706169642e204d6178204c696d69742052606083015265195858da195960d21b6080830152517fd9365ce421ec9d37d946db34572a16a808a9a2c0df5f97dcafa2775d700428f89181900360a00190a15b505b6000805b83518160ff161015613c3a576040805161024081018252845463ffffffff811682526001600160a01b03600160201b90910481166020808401919091526001870154821683850152600287015490911660608301526003860180548451818402810184019095528085526136689488936080860193919290830182828015612a32576020028201919060005260206000209081546001600160a01b03168152600190910190602001808311612a14575050505050815260200160048201805480602002602001604051908101604052809291908181526020018280548015612a94576020028201919060005260206000209081546001600160a01b03168152600190910190602001808311612a76575050505050815260200160058201805480602002602001604051908101604052809291908181526020018280548015612b18576000918252602091829020805463ffffffff168452908202830192909160049101808411612adb5790505050505050815260200160068201548152602001600782015481526020016008820154815260200160098201548152602001600a8201548152602001600b8201548152602001600c8201548152602001600d8201548152602001600e8201548152602001600f820160009054906101000a900460ff1615151515815260200160108201805480602002602001604051908101604052809291908181526020018280548015612c11576000918252602091829020805463ffffffff168452908202830192909160049101808411612bd457905050505050508152505061423c565b15613c3a576002808401546001600160a01b0390811660009081526101066020908152604091829020825161024081018452815463ffffffff81168252600160201b9004851681840152600182015485168185015294810154909316606085015260038301805483518184028101840190945280845293946138c494909386936080860193919290830182828015612f35576020028201919060005260206000209081546001600160a01b03168152600190910190602001808311612f17575050505050815260200160048201805480602002602001604051908101604052809291908181526020018280548015612f97576020028201919060005260206000209081546001600160a01b03168152600190910190602001808311612f7957505050505081526020016005820180548060200260200160405190810160405280929190818152602001828054801561301b576000918252602091829020805463ffffffff168452908202830192909160049101808411612fde5790505050505050815260200160068201548152602001600782015481526020016008820154815260200160098201548152602001600a8201548152602001600b8201548152602001600c8201548152602001600d8201548152602001600e8201548152602001600f820160009054906101000a900460ff1615151515815260200160108201805480602002602001604051908101604052809291908181526020018280548015613114576000918252602091829020805463ffffffff1684529082028301929091600491018084116130d7579050505050505081525050614ac9565b15613938576002840154604080516001600160a01b039092168252602082018190526011828201527013585e08131a5b5a5d0814995858da1959607a1b6060830152517f9cf6f1ac252ffae20583b13cb366045bedd20a57355f5f69adf17da561de00039181900360800190a19250613c28565b8160ff16600003613a2557886040015181600701600082825461395b9190615263565b9091555050600f81015460ff1615613a1057600284015460fc80546001818101835560008390527f371f36870d18f32a11fea0f144b021c8b407bb50f8e0267c711123f454b963c090910180546001600160a01b0319166001600160a01b03909416939093179092555460108301916139d391615276565b8154600181018355600092835260209092206008830401805460079093166004026101000a63ffffffff8181021990941692909316929092021790555b600f8101805460ff19811660ff909116151790555b8860400151816008016000828254613a3d9190615263565b925050819055506000612710868460ff1681518110613a5e57613a5e6156a6565b602002602001015161ffff168b60400151613a7991906152f5565b613a839190615675565b90506000613a918383614ae4565b90508083600b016000828254613aa79190615263565b909155505060028601546001600160a01b03808a169163a9059cbb9116601260ff8d1610613ad55783613ae4565b613ae48460128e60ff16614206565b6040516001600160e01b031960e085901b1681526001600160a01b03909216600483015260248201526044016020604051808303816000875af1158015613b2f573d6000803e3d6000fd5b505050506040513d601f19601f82011682018060405250810190613b5391906152da565b50613b5e8186615263565b6002870154875460408e01518a519398507f3fae587c6f1778678d1e63bd99d63afe07677c2a2eb43a4b228b80e8a38c1b06936001600160a01b0393841693600160201b9093049092169185908c9060ff8b16908110613bc057613bc06156a6565b60200260200101516127108a6001613bd891906156bc565b604080516001600160a01b03988916815297909616602088015294860193909352606085019190915261ffff16608084015260a083015260ff1660c082015260e00160405180910390a150909350505b80613c32816156d5565b91505061341c565b50806101016000828254613c4e9190615263565b9091555050604087015160fe8054600090613c6a908490615263565b90915550506040870151606490613c8290600a6152f5565b613c8c9190615675565b60ff6000828254613c9d9190615263565b925050819055506000886001600160a01b03166365eb204d6040518163ffffffff1660e01b8152600401602060405180830381865afa158015613ce4573d6000803e3d6000fd5b505050506040513d601f19601f82011682018060405250810190613d089190615294565b6040516370a0823160e01b81523060048201526001600160a01b0391909116906370a0823190602401602060405180830381865afa158015613d4e573d6000803e3d6000fd5b505050506040513d601f19601f82011682018060405250810190613d7291906152b1565b90508015613fbd57600060648a6001600160a01b031663e091099c6040518163ffffffff1660e01b8152600401602060405180830381865afa158015613dbc573d6000803e3d6000fd5b505050506040513d601f19601f82011682018060405250810190613de09190615689565b60ff168a60400151613df291906152f5565b613dfc9190615675565b9050808210613ee257896001600160a01b03166365eb204d6040518163ffffffff1660e01b8152600401602060405180830381865afa158015613e43573d6000803e3d6000fd5b505050506040513d601f19601f82011682018060405250810190613e679190615294565b60405163a9059cbb60e01b81526001600160a01b038f8116600483015260248201849052919091169063a9059cbb906044016020604051808303816000875af1158015613eb8573d6000803e3d6000fd5b505050506040513d601f19601f82011682018060405250810190613edc91906152da565b50613fbb565b896001600160a01b03166365eb204d6040518163ffffffff1660e01b8152600401602060405180830381865afa158015613f20573d6000803e3d6000fd5b505050506040513d601f19601f82011682018060405250810190613f449190615294565b60405163a9059cbb60e01b81526001600160a01b038f8116600483015260248201859052919091169063a9059cbb906044016020604051808303816000875af1158015613f95573d6000803e3d6000fd5b505050506040513d601f19601f82011682018060405250810190613fb991906152da565b505b505b50505050505050505050505050565b6000804244613fdc600143615276565b60408051602081019490945283019190915240606082015260800160408051601f19818403018152919052805160209091012060fc5490915060009061402290836156f4565b905060fc8181548110614037576140376156a6565b6000918252602090912001546001600160a01b03169392505050565b6001600160a01b0381163b6140c05760405162461bcd60e51b815260206004820152602d60248201527f455243313936373a206e657720696d706c656d656e746174696f6e206973206e60448201526c1bdd08184818dbdb9d1c9858dd609a1b6064820152608401610949565b60008051602061582c83398151915280546001600160a01b0319166001600160a01b0392909216919091179055565b6140f883614b46565b6000825111806141055750805b15612260576112ae8383614b86565b60335460ff16610d455760405162461bcd60e51b815260206004820152601460248201527314185d5cd8589b194e881b9bdd081c185d5cd95960621b6044820152606401610949565b600054610100900460ff166141845760405162461bcd60e51b81526004016109499061530c565b6033805460ff19169055565b600054610100900460ff166141b75760405162461bcd60e51b81526004016109499061530c565b610d45336123ef565b60335460ff1615610d455760405162461bcd60e51b815260206004820152601060248201526f14185d5cd8589b194e881c185d5cd95960821b6044820152606401610949565b600061421383600a6157ec565b61421e83600a6157ec565b61422890866152f5565b6142329190615675565b90505b9392505050565b60608101516000906001600160a01b031615614256575060015b919050565b6001600160a01b0380841660009081526101066020908152604091829020825161024081018452815463ffffffff81168252600160201b900485168184015260018201548516818501526002820154909416606085015260038101805484518185028101850190955280855291946144ab9490938693608086019391830182828015612a32576020028201919060005260206000209081546001600160a01b03168152600190910190602001808311612a14575050505050815260200160048201805480602002602001604051908101604052809291908181526020018280548015612a94576020028201919060005260206000209081546001600160a01b03168152600190910190602001808311612a76575050505050815260200160058201805480602002602001604051908101604052809291908181526020018280548015612b18576000918252602091829020805463ffffffff168452908202830192909160049101808411612adb5790505050505050815260200160068201548152602001600782015481526020016008820154815260200160098201548152602001600a8201548152602001600b8201548152602001600c8201548152602001600d8201548152602001600e8201548152602001600f820160009054906101000a900460ff1615151515815260200160108201805480602002602001604051908101604052809291908181526020018280548015612c11576000918252602091829020805463ffffffff168452908202830192909160049101808411612bd457905050505050508152505061423c565b15801561452b5750816001600160a01b031663b2e6b9126040518163ffffffff1660e01b8152600401602060405180830381865afa1580156144f1573d6000803e3d6000fd5b505050506040513d601f19601f820116820180604052508101906145159190615294565b6001600160a01b0316846001600160a01b031614155b15614ac2576001600160a01b03851615806145575750846001600160a01b0316846001600160a01b0316145b156146c257604080516001600160a01b038781168252861660208201526060818301819052603a908201527f5a65726f20616464726573732063616e6e6f742062652072656665727265722e60808201527f2053657474696e672064656661756c742072656665727265722e00000000000060a082015290517f32df26c7e54a821624fc8d22e1171e5793b90d1fccc483d3ff277b9c42bb22399181900360c00190a16000826001600160a01b031663b2e6b9126040518163ffffffff1660e01b8152600401602060405180830381865afa15801561463a573d6000803e3d6000fd5b505050506040513d601f19601f8201168201806040525081019061465e9190615294565b6002830180546001600160a01b0319166001600160a01b038381169182179092556040805191825291881660208201529192507fec49a3c8c4ae06c18160fe86119c381c9d213ac3e052ff35b594da8687b193c7910160405180910390a15061471e565b6002810180546001600160a01b0319166001600160a01b038781169182179092556040805191825291861660208201527fec49a3c8c4ae06c18160fe86119c381c9d213ac3e052ff35b594da8687b193c7910160405180910390a15b60005b8360ff168160ff161015614ac05760028201546001600160a01b031615614ac05760028201546001600160a01b03166000908152610106602052604081209060ff83169003614a305760038101805460018082018355600092835260209092200180546001600160a01b0319166001600160a01b038981169190911790915590840154161561482c576001830154604080516001600160a01b03928316815291881660208301526060828201819052601d908301527f5265666572656520616c7265616479206861766520696270207365742e0000006080830152517fffca51efd3fa9dd00c7ad8de67cce6deeb82e78db2d05fe4b84079eca71665109181900360a00190a1614a30565b60018101546001600160a01b03166149e0576001810154604080516001600160a01b039283168152918816602083015260608282018190526032908301527f5a65726f20616464726573732063616e6e6f74206265206962702e20536574746080830152710696e672075702064656661756c74206962760741b60a0830152517fffca51efd3fa9dd00c7ad8de67cce6deeb82e78db2d05fe4b84079eca71665109181900360c00190a16000846001600160a01b031663b2e6b9126040518163ffffffff1660e01b8152600401602060405180830381865afa158015614916573d6000803e3d6000fd5b505050506040513d601f19601f8201168201806040525081019061493a9190615294565b600185810180546001600160a01b038481166001600160a01b03199283168117909355928601805490911682179055845460408051928352600160201b9091049092166020820152919250600080516020615873833981519152910160405180910390a18354604080516001600160a01b038085168252600160201b9093049092166020830152600080516020615873833981519152910160405180910390a150614a30565b6001818101805491850180546001600160a01b0319166001600160a01b03938416179055546040805191831682529188166020820152600080516020615873833981519152910160405180910390a15b60048101805460018082018355600092835260209092200180546001600160a01b0319166001600160a01b0389161790556005820190614a719084906156bc565b8154600181018355600092835260209092206008830401805463ffffffff60079094166004026101000a938402191660ff92909216909202179055915080614ab8816156d5565b915050614721565b505b5050505050565b60008161014001518261016001511061425657506001919050565b600082600901548284600a0154614afb9190615263565b11614b22578190508183600a016000828254614b179190615263565b90915550614b409050565b82600a01548360090154614b369190615276565b600a840181905590505b92915050565b614b4f81614053565b6040516001600160a01b038216907fbc7cd75a20ee27fd9adebab32041f755214dbc6bffa90cc0225b39da2e5c2d3b90600090a250565b60606001600160a01b0383163b614bee5760405162461bcd60e51b815260206004820152602660248201527f416464726573733a2064656c65676174652063616c6c20746f206e6f6e2d636f6044820152651b9d1c9858dd60d21b6064820152608401610949565b600080846001600160a01b031684604051614c099190615643565b600060405180830381855af49150503d8060008114614c44576040519150601f19603f3d011682016040523d82523d6000602084013e614c49565b606091505b5091509150614c71828260405180606001604052806027815260200161584c60279139614c7a565b95945050505050565b60608315614c89575081614235565b6142358383815115614c9e5781518083602001fd5b8060405162461bcd60e51b815260040161094991906157f8565b6001600160a01b03811681146109e657600080fd5b600060208284031215614cdf57600080fd5b813561423581614cb8565b60008060408385031215614cfd57600080fd5b8235614d0881614cb8565b91506020830135614d1881614cb8565b809150509250929050565b600081518084526020808501945080840160005b83811015614d5957815163ffffffff1687529582019590820190600101614d37565b509495945050505050565b8315158152606060208201526000614d7f6060830185614d23565b9050826040830152949350505050565b634e487b7160e01b600052604160045260246000fd5b60405160e0810167ffffffffffffffff81118282101715614dc857614dc8614d8f565b60405290565b604051601f8201601f1916810167ffffffffffffffff81118282101715614df757614df7614d8f565b604052919050565b600067ffffffffffffffff821115614e1957614e19614d8f565b50601f01601f191660200190565b60008060408385031215614e3a57600080fd5b8235614e4581614cb8565b9150602083013567ffffffffffffffff811115614e6157600080fd5b8301601f81018513614e7257600080fd5b8035614e85614e8082614dff565b614dce565b818152866020838501011115614e9a57600080fd5b816020840160208301376000602083830101528093505050509250929050565b60ff811681146109e657600080fd5b60008060008060808587031215614edf57600080fd5b8435614eea81614cb8565b93506020850135614efa81614cb8565b92506040850135614f0a81614eba565b91506060850135614f1a81614cb8565b939692955090935050565b600080600060608486031215614f3a57600080fd5b8335614f4581614cb8565b92506020840135614f5581614cb8565b929592945050506040919091013590565b600080600060608486031215614f7b57600080fd5b8335614f8681614cb8565b92506020840135614f9681614eba565b91506040840135614fa681614cb8565b809150509250925092565b600081518084526020808501945080840160005b83811015614d595781516001600160a01b031687529582019590820190600101614fc5565b6001600160a01b038716815260c06020820181905260009061500e90830188614fb1565b86604084015282810360608401526150268187614fb1565b9050828103608084015261503a8186614d23565b9150508260a0830152979650505050505050565b6020815261506560208201835163ffffffff169052565b6000602083015161508160408401826001600160a01b03169052565b5060408301516001600160a01b03811660608401525060608301516001600160a01b03811660808401525060808301516102408060a08501526150c8610260850183614fb1565b915060a0850151601f19808685030160c08701526150e68483614fb1565b935060c08701519150808685030160e08701526151038483614d23565b60e088015161010088810191909152880151610120808901919091528801516101408089019190915288015161016080890191909152880151610180808901919091528801516101a0808901919091528801516101c0808901919091528801516101e0808901919091528801516102008089019190915288015190945091506102206151928188018415159052565b8701518685039091018387015290506151ab8382614d23565b9695505050505050565b6020808252602c908201527f46756e6374696f6e206d7573742062652063616c6c6564207468726f7567682060408201526b19195b1959d85d1958d85b1b60a21b606082015260800190565b6020808252602c908201527f46756e6374696f6e206d7573742062652063616c6c6564207468726f7567682060408201526b6163746976652070726f787960a01b606082015260800190565b634e487b7160e01b600052601160045260246000fd5b80820180821115614b4057614b4061524d565b81810381811115614b4057614b4061524d565b805161425681614cb8565b6000602082840312156152a657600080fd5b815161423581614cb8565b6000602082840312156152c357600080fd5b5051919050565b8051801515811461425657600080fd5b6000602082840312156152ec57600080fd5b614235826152ca565b8082028115828204841417614b4057614b4061524d565b6020808252602b908201527f496e697469616c697a61626c653a20636f6e7472616374206973206e6f74206960408201526a6e697469616c697a696e6760a81b606082015260800190565b805161425681614eba565b60005b8381101561537d578181015183820152602001615365565b50506000910152565b600082601f83011261539757600080fd5b81516153a5614e8082614dff565b8181528460208386010111156153ba57600080fd5b6153cb826020830160208701615362565b949350505050565b6000602082840312156153e557600080fd5b815167ffffffffffffffff808211156153fd57600080fd5b908301906080828603121561541157600080fd5b60405160808101818110838211171561542c5761542c614d8f565b604052825161543a81614eba565b815260208301518281111561544e57600080fd5b61545a87828601615386565b602083015250604083015160408201526060830151606082015280935050505092915050565b60006020828403121561549257600080fd5b815167ffffffffffffffff808211156154aa57600080fd5b9083019060e082860312156154be57600080fd5b6154c6614da5565b6154cf83615289565b81526020830151828111156154e357600080fd5b6154ef87828601615386565b60208301525060408301518281111561550757600080fd5b61551387828601615386565b60408301525061552560608401615357565b6060820152615536608084016152ca565b608082015261554760a08401615289565b60a082015261555860c084016152ca565b60c082015295945050505050565b6000602080838503121561557957600080fd5b825167ffffffffffffffff8082111561559157600080fd5b818501915085601f8301126155a557600080fd5b8151818111156155b7576155b7614d8f565b8060051b91506155c8848301614dce565b81815291830184019184810190888411156155e257600080fd5b938501935b83851015615614578451925061ffff831683146156045760008081fd5b82825293850193908501906155e7565b98975050505050505050565b600063ffffffff8083168181036156395761563961524d565b6001019392505050565b60008251615655818460208701615362565b9190910192915050565b634e487b7160e01b600052601260045260246000fd5b6000826156845761568461565f565b500490565b60006020828403121561569b57600080fd5b815161423581614eba565b634e487b7160e01b600052603260045260246000fd5b60ff8181168382160190811115614b4057614b4061524d565b600060ff821660ff81036156eb576156eb61524d565b60010192915050565b6000826157035761570361565f565b500690565b600181815b808511156157435781600019048211156157295761572961524d565b8085161561573657918102915b93841c939080029061570d565b509250929050565b60008261575a57506001614b40565b8161576757506000614b40565b816001811461577d5760028114615787576157a3565b6001915050614b40565b60ff8411156157985761579861524d565b50506001821b614b40565b5060208310610133831016604e8410600b84101617156157c6575081810a614b40565b6157d08383615708565b80600019048211156157e4576157e461524d565b029392505050565b6000614235838361574b565b6020815260008251806020840152615817816040850160208701615362565b601f01601f1916919091016040019291505056fe360894a13ba1a3210667c828492db98dca3e2076cc3735a920a3ca505d382bbc416464726573733a206c6f772d6c6576656c2064656c65676174652063616c6c206661696c656400f37bd73ff29ab549d774afc91445bf33292ed9a4b4b4177fb1e61ff3c58469a2646970667358221220e92f16319f1e4cf138700e9f5701e123a20e65699cd72bb5d0b1a9c07f5ad08164736f6c63430008120033",
  "linkReferences": {},
  "deployedLinkReferences": {}
}