{
  "_format": "hh-sol-artifact-1",
  "contractName": "ReferralV1Upgradeable",
  "sourceName": "contracts/ReferralV1Upgradeable.sol",
  "abi": [
    {
      "anonymous": false,
      "inputs": [
        {
          "indexed": false,
          "internalType": "address",
          "name": "previousAdmin",
          "type": "address"
        },
        {
          "indexed": false,
          "internalType": "address",
          "name": "newAdmin",
          "type": "address"
        }
      ],
      "name": "AdminChanged",
      "type": "event"
    },
    {
      "anonymous": false,
      "inputs": [
        {
          "indexed": true,
          "internalType": "address",
          "name": "beacon",
          "type": "address"
        }
      ],
      "name": "BeaconUpgraded",
      "type": "event"
    },
    {
      "anonymous": false,
      "inputs": [
        {
          "indexed": false,
          "internalType": "address",
          "name": "coreMembersContract",
          "type": "address"
        },
        {
          "indexed": false,
          "internalType": "uint256",
          "name": "value",
          "type": "uint256"
        }
      ],
      "name": "CoreMembersRewardPaid",
      "type": "event"
    },
    {
      "anonymous": false,
      "inputs": [
        {
          "indexed": false,
          "internalType": "address",
          "name": "globalAddress",
          "type": "address"
        },
        {
          "indexed": false,
          "internalType": "uint256",
          "name": "rewardValue",
          "type": "uint256"
        }
      ],
      "name": "GlobalRewardsPaid",
      "type": "event"
    },
    {
      "anonymous": false,
      "inputs": [
        {
          "indexed": false,
          "internalType": "address",
          "name": "ibpAddress",
          "type": "address"
        },
        {
          "indexed": false,
          "internalType": "address",
          "name": "userAddress",
          "type": "address"
        }
      ],
      "name": "IBPAdded",
      "type": "event"
    },
    {
      "anonymous": false,
      "inputs": [
        {
          "indexed": false,
          "internalType": "address",
          "name": "ibpAddress",
          "type": "address"
        },
        {
          "indexed": false,
          "internalType": "address",
          "name": "userAddress",
          "type": "address"
        },
        {
          "indexed": false,
          "internalType": "string",
          "name": "reason",
          "type": "string"
        }
      ],
      "name": "IBPNotAdded",
      "type": "event"
    },
    {
      "anonymous": false,
      "inputs": [
        {
          "indexed": false,
          "internalType": "address",
          "name": "ibpAddress",
          "type": "address"
        },
        {
          "indexed": false,
          "internalType": "uint256",
          "name": "rewardValue",
          "type": "uint256"
        }
      ],
      "name": "IBPRewardsPaid",
      "type": "event"
    },
    {
      "anonymous": false,
      "inputs": [
        {
          "indexed": false,
          "internalType": "uint8",
          "name": "version",
          "type": "uint8"
        }
      ],
      "name": "Initialized",
      "type": "event"
    },
    {
      "anonymous": false,
      "inputs": [
        {
          "indexed": false,
          "internalType": "address",
          "name": "userAddress",
          "type": "address"
        },
        {
          "indexed": false,
          "internalType": "string",
          "name": "reason",
          "type": "string"
        }
      ],
      "name": "NoRewardsPaid",
      "type": "event"
    },
    {
      "anonymous": false,
      "inputs": [
        {
          "indexed": true,
          "internalType": "address",
          "name": "previousOwner",
          "type": "address"
        },
        {
          "indexed": true,
          "internalType": "address",
          "name": "newOwner",
          "type": "address"
        }
      ],
      "name": "OwnershipTransferred",
      "type": "event"
    },
    {
      "anonymous": false,
      "inputs": [
        {
          "indexed": false,
          "internalType": "address",
          "name": "account",
          "type": "address"
        }
      ],
      "name": "Paused",
      "type": "event"
    },
    {
      "anonymous": false,
      "inputs": [
        {
          "indexed": false,
          "internalType": "address",
          "name": "referrerAddress",
          "type": "address"
        },
        {
          "indexed": false,
          "internalType": "uint256",
          "name": "rewardValue",
          "type": "uint256"
        },
        {
          "indexed": false,
          "internalType": "uint32",
          "name": "level",
          "type": "uint32"
        }
      ],
      "name": "ReferralRewardsPaid",
      "type": "event"
    },
    {
      "anonymous": false,
      "inputs": [
        {
          "indexed": false,
          "internalType": "address",
          "name": "referrerAddress",
          "type": "address"
        },
        {
          "indexed": false,
          "internalType": "address",
          "name": "refereeAddress",
          "type": "address"
        }
      ],
      "name": "ReferrerAdded",
      "type": "event"
    },
    {
      "anonymous": false,
      "inputs": [
        {
          "indexed": false,
          "internalType": "address",
          "name": "referrerAddress",
          "type": "address"
        },
        {
          "indexed": false,
          "internalType": "address",
          "name": "refereeAddress",
          "type": "address"
        },
        {
          "indexed": false,
          "internalType": "string",
          "name": "reason",
          "type": "string"
        }
      ],
      "name": "ReferrerNotAdded",
      "type": "event"
    },
    {
      "anonymous": false,
      "inputs": [
        {
          "indexed": false,
          "internalType": "address",
          "name": "userAddress",
          "type": "address"
        },
        {
          "indexed": false,
          "internalType": "uint32",
          "name": "userId",
          "type": "uint32"
        },
        {
          "indexed": false,
          "internalType": "uint8",
          "name": "planId",
          "type": "uint8"
        },
        {
          "indexed": false,
          "internalType": "address",
          "name": "referrerAddress",
          "type": "address"
        }
      ],
      "name": "Registration",
      "type": "event"
    },
    {
      "anonymous": false,
      "inputs": [
        {
          "indexed": false,
          "internalType": "address",
          "name": "parentAddress",
          "type": "address"
        },
        {
          "indexed": false,
          "internalType": "address",
          "name": "referrerAddress",
          "type": "address"
        },
        {
          "indexed": false,
          "internalType": "address",
          "name": "refereeAddress",
          "type": "address"
        },
        {
          "indexed": false,
          "internalType": "uint32",
          "name": "level",
          "type": "uint32"
        }
      ],
      "name": "TeamAddressAdded",
      "type": "event"
    },
    {
      "anonymous": false,
      "inputs": [
        {
          "indexed": false,
          "internalType": "address",
          "name": "account",
          "type": "address"
        }
      ],
      "name": "Unpaused",
      "type": "event"
    },
    {
      "anonymous": false,
      "inputs": [
        {
          "indexed": true,
          "internalType": "address",
          "name": "implementation",
          "type": "address"
        }
      ],
      "name": "Upgraded",
      "type": "event"
    },
    {
      "anonymous": false,
      "inputs": [
        {
          "indexed": false,
          "internalType": "address",
          "name": "globalAddress",
          "type": "address"
        },
        {
          "indexed": false,
          "internalType": "uint256",
          "name": "rewardValue",
          "type": "uint256"
        }
      ],
      "name": "WeeklyRewardsPaid",
      "type": "event"
    },
    {
      "inputs": [
        {
          "internalType": "address",
          "name": "_userAddress",
          "type": "address"
        },
        {
          "internalType": "address",
          "name": "_ibpAddress",
          "type": "address"
        },
        {
          "internalType": "uint256",
          "name": "_maxLimitInDecimals",
          "type": "uint256"
        }
      ],
      "name": "addIbpToAddressAdmin",
      "outputs": [],
      "stateMutability": "nonpayable",
      "type": "function"
    },
    {
      "inputs": [
        {
          "internalType": "address",
          "name": "_tokenAddress",
          "type": "address"
        }
      ],
      "name": "distributeWeeklyReward",
      "outputs": [],
      "stateMutability": "nonpayable",
      "type": "function"
    },
    {
      "inputs": [],
      "name": "getGlobalAddress",
      "outputs": [
        {
          "internalType": "address[]",
          "name": "globalAddress",
          "type": "address[]"
        },
        {
          "internalType": "uint256",
          "name": "globalAddressCount",
          "type": "uint256"
        }
      ],
      "stateMutability": "view",
      "type": "function"
    },
    {
      "inputs": [],
      "name": "getRandomGlobalAddress",
      "outputs": [
        {
          "internalType": "address",
          "name": "",
          "type": "address"
        }
      ],
      "stateMutability": "view",
      "type": "function"
    },
    {
      "inputs": [],
      "name": "getRegistrationsStats",
      "outputs": [
        {
          "internalType": "uint32",
          "name": "totalUser",
          "type": "uint32"
        },
        {
          "internalType": "uint256",
          "name": "totalRegistrationValue",
          "type": "uint256"
        },
        {
          "internalType": "uint256",
          "name": "totalReferralPaid",
          "type": "uint256"
        },
        {
          "internalType": "uint256",
          "name": "totalGlobalRewardsPaid",
          "type": "uint256"
        },
        {
          "internalType": "uint256",
          "name": "totalWeeklyRewardsPaid",
          "type": "uint256"
        },
        {
          "internalType": "uint256",
          "name": "totalCoreMembershipRewardPaid",
          "type": "uint256"
        },
        {
          "internalType": "uint256",
          "name": "totalIbpRewardsPaid",
          "type": "uint256"
        }
      ],
      "stateMutability": "view",
      "type": "function"
    },
    {
      "inputs": [
        {
          "internalType": "address",
          "name": "_userAddress",
          "type": "address"
        }
      ],
      "name": "getUserAccount",
      "outputs": [
        {
          "components": [
            {
              "internalType": "uint32",
              "name": "userId",
              "type": "uint32"
            },
            {
              "internalType": "address",
              "name": "selfAddress",
              "type": "address"
            },
            {
              "internalType": "address",
              "name": "ibpAddress",
              "type": "address"
            },
            {
              "internalType": "address",
              "name": "referrerAddress",
              "type": "address"
            },
            {
              "internalType": "address[]",
              "name": "refereeAddresses",
              "type": "address[]"
            },
            {
              "internalType": "address[]",
              "name": "teamAddress",
              "type": "address[]"
            },
            {
              "internalType": "uint32[]",
              "name": "teamLevels",
              "type": "uint32[]"
            },
            {
              "internalType": "uint256",
              "name": "selfBusiness",
              "type": "uint256"
            },
            {
              "internalType": "uint256",
              "name": "directBusiness",
              "type": "uint256"
            },
            {
              "internalType": "uint256",
              "name": "teamBusiness",
              "type": "uint256"
            },
            {
              "internalType": "uint256",
              "name": "maxLimit",
              "type": "uint256"
            },
            {
              "internalType": "uint256",
              "name": "currentLimit",
              "type": "uint256"
            },
            {
              "internalType": "uint256",
              "name": "referralRewards",
              "type": "uint256"
            },
            {
              "internalType": "uint256",
              "name": "globalRewards",
              "type": "uint256"
            },
            {
              "internalType": "uint256",
              "name": "weeklyRewards",
              "type": "uint256"
            },
            {
              "internalType": "uint256",
              "name": "ibpRewards",
              "type": "uint256"
            },
            {
              "internalType": "bool",
              "name": "isGlobal",
              "type": "bool"
            },
            {
              "internalType": "uint32[]",
              "name": "globalIndexes",
              "type": "uint32[]"
            }
          ],
          "internalType": "struct AccountStruct",
          "name": "",
          "type": "tuple"
        }
      ],
      "stateMutability": "view",
      "type": "function"
    },
    {
      "inputs": [
        {
          "internalType": "address",
          "name": "_userAddress",
          "type": "address"
        }
      ],
      "name": "getUserBusiness",
      "outputs": [
        {
          "internalType": "uint256",
          "name": "selfBusiness",
          "type": "uint256"
        },
        {
          "internalType": "uint256",
          "name": "directBusiness",
          "type": "uint256"
        },
        {
          "internalType": "uint256",
          "name": "teamBusiness",
          "type": "uint256"
        },
        {
          "internalType": "uint256",
          "name": "totalBusiness",
          "type": "uint256"
        }
      ],
      "stateMutability": "view",
      "type": "function"
    },
    {
      "inputs": [
        {
          "internalType": "address",
          "name": "_userAddress",
          "type": "address"
        }
      ],
      "name": "getUserIbpAddress",
      "outputs": [
        {
          "internalType": "address",
          "name": "",
          "type": "address"
        }
      ],
      "stateMutability": "view",
      "type": "function"
    },
    {
      "inputs": [
        {
          "internalType": "address",
          "name": "_userAddress",
          "type": "address"
        }
      ],
      "name": "getUserLimit",
      "outputs": [
        {
          "internalType": "uint256",
          "name": "maxLimit",
          "type": "uint256"
        },
        {
          "internalType": "uint256",
          "name": "currentLimit",
          "type": "uint256"
        },
        {
          "internalType": "uint256",
          "name": "limitRemaingvalue",
          "type": "uint256"
        }
      ],
      "stateMutability": "view",
      "type": "function"
    },
    {
      "inputs": [
        {
          "internalType": "address",
          "name": "_userAddress",
          "type": "address"
        }
      ],
      "name": "getUserRewards",
      "outputs": [
        {
          "internalType": "uint256",
          "name": "referralReward",
          "type": "uint256"
        },
        {
          "internalType": "uint256",
          "name": "globalReward",
          "type": "uint256"
        },
        {
          "internalType": "uint256",
          "name": "weeklyReward",
          "type": "uint256"
        },
        {
          "internalType": "uint256",
          "name": "ibpReward",
          "type": "uint256"
        },
        {
          "internalType": "uint256",
          "name": "totalIncome",
          "type": "uint256"
        }
      ],
      "stateMutability": "view",
      "type": "function"
    },
    {
      "inputs": [
        {
          "internalType": "address",
          "name": "_userAddress",
          "type": "address"
        }
      ],
      "name": "getUserTeam",
      "outputs": [
        {
          "internalType": "address",
          "name": "referrer",
          "type": "address"
        },
        {
          "internalType": "address[]",
          "name": "referees",
          "type": "address[]"
        },
        {
          "internalType": "uint256",
          "name": "refereeCount",
          "type": "uint256"
        },
        {
          "internalType": "address[]",
          "name": "team",
          "type": "address[]"
        },
        {
          "internalType": "uint32[]",
          "name": "teamLevels",
          "type": "uint32[]"
        },
        {
          "internalType": "uint256",
          "name": "teamCount",
          "type": "uint256"
        }
      ],
      "stateMutability": "view",
      "type": "function"
    },
    {
      "inputs": [],
      "name": "getVariablesContract",
      "outputs": [
        {
          "internalType": "address",
          "name": "",
          "type": "address"
        }
      ],
      "stateMutability": "view",
      "type": "function"
    },
    {
      "inputs": [],
      "name": "getWeeklyRewardToBeDistributed",
      "outputs": [
        {
          "internalType": "uint256",
          "name": "_rewardValue",
          "type": "uint256"
        },
        {
          "internalType": "uint256",
          "name": "_remianingTime",
          "type": "uint256"
        },
        {
          "internalType": "uint256",
          "name": "_endTime",
          "type": "uint256"
        }
      ],
      "stateMutability": "view",
      "type": "function"
    },
    {
      "inputs": [],
      "name": "initialize",
      "outputs": [],
      "stateMutability": "nonpayable",
      "type": "function"
    },
    {
      "inputs": [
        {
          "internalType": "address",
          "name": "_userAddress",
          "type": "address"
        }
      ],
      "name": "isUserInGlobalList",
      "outputs": [
        {
          "internalType": "bool",
          "name": "isInList",
          "type": "bool"
        },
        {
          "internalType": "uint32[]",
          "name": "indexes",
          "type": "uint32[]"
        },
        {
          "internalType": "uint256",
          "name": "totalGlobalIds",
          "type": "uint256"
        }
      ],
      "stateMutability": "view",
      "type": "function"
    },
    {
      "inputs": [],
      "name": "owner",
      "outputs": [
        {
          "internalType": "address",
          "name": "",
          "type": "address"
        }
      ],
      "stateMutability": "view",
      "type": "function"
    },
    {
      "inputs": [],
      "name": "paused",
      "outputs": [
        {
          "internalType": "bool",
          "name": "",
          "type": "bool"
        }
      ],
      "stateMutability": "view",
      "type": "function"
    },
    {
      "inputs": [],
      "name": "proxiableUUID",
      "outputs": [
        {
          "internalType": "bytes32",
          "name": "",
          "type": "bytes32"
        }
      ],
      "stateMutability": "view",
      "type": "function"
    },
    {
      "inputs": [
        {
          "internalType": "address",
          "name": "_userAddress",
          "type": "address"
        }
      ],
      "name": "pushAddressToGlobal",
      "outputs": [],
      "stateMutability": "nonpayable",
      "type": "function"
    },
    {
      "inputs": [
        {
          "internalType": "address",
          "name": "_referrer",
          "type": "address"
        },
        {
          "internalType": "uint8",
          "name": "_planId",
          "type": "uint8"
        }
      ],
      "name": "registrationWithNative",
      "outputs": [],
      "stateMutability": "payable",
      "type": "function"
    },
    {
      "inputs": [
        {
          "internalType": "address",
          "name": "_referrer",
          "type": "address"
        },
        {
          "internalType": "uint8",
          "name": "_planId",
          "type": "uint8"
        },
        {
          "internalType": "address",
          "name": "_tokenAddress",
          "type": "address"
        }
      ],
      "name": "registrationWithToken",
      "outputs": [],
      "stateMutability": "nonpayable",
      "type": "function"
    },
    {
      "inputs": [],
      "name": "renounceOwnership",
      "outputs": [],
      "stateMutability": "nonpayable",
      "type": "function"
    },
    {
      "inputs": [
        {
          "internalType": "address",
          "name": "newOwner",
          "type": "address"
        }
      ],
      "name": "transferOwnership",
      "outputs": [],
      "stateMutability": "nonpayable",
      "type": "function"
    },
    {
      "inputs": [
        {
          "internalType": "address",
          "name": "newImplementation",
          "type": "address"
        }
      ],
      "name": "upgradeTo",
      "outputs": [],
      "stateMutability": "nonpayable",
      "type": "function"
    },
    {
      "inputs": [
        {
          "internalType": "address",
          "name": "newImplementation",
          "type": "address"
        },
        {
          "internalType": "bytes",
          "name": "data",
          "type": "bytes"
        }
      ],
      "name": "upgradeToAndCall",
      "outputs": [],
      "stateMutability": "payable",
      "type": "function"
    },
    {
      "stateMutability": "payable",
      "type": "receive"
    }
  ],
  "bytecode": "0x60a06040523060805234801561001457600080fd5b50608051615f096200004d6000396000818161090f0152818161095801528181610cc201528181610d020152610d950152615f096000f3fe60806040526004361061016a5760003560e01c8063967012eb116100d1578063e9587e861161008a578063f53e0d6711610064578063f53e0d67146104ad578063f87127b4146104c2578063faeda7e514610502578063fb47e0161461053457600080fd5b8063e9587e861461044f578063f13a143f1461046f578063f2fde38b1461048d57600080fd5b8063967012eb1461037c578063d0ff813e146103b9578063d277b8a9146103dc578063df108176146103fc578063e4fbf2e71461041c578063e6f6769e1461042f57600080fd5b806352d1902d1161012357806352d1902d146102aa5780635c975abb146102cd578063715018a6146102f05780638129fc1c14610305578063846688f71461031a5780638da5cb5b1461034a57600080fd5b80630690c6a814610176578063078b0fb7146101de57806313bc9a59146102265780633659cfe6146102485780633ef575e9146102685780634f1ef2861461029757600080fd5b3661017157005b600080fd5b34801561018257600080fd5b5060fd5460fe5461010154610102546101035461010454610105546040805163ffffffff90981688526020880196909652948601939093526060850191909152608084015260a083015260c082015260e0015b60405180910390f35b3480156101ea57600080fd5b506101fe6101f93660046152ed565b610561565b604080519586526020860194909452928401919091526060830152608082015260a0016101d5565b34801561023257600080fd5b506102466102413660046152ed565b610832565b005b34801561025457600080fd5b506102466102633660046152ed565b610905565b34801561027457600080fd5b506102886102833660046152ed565b6109ed565b6040516101d59392919061534b565b6102466102a536600461540e565b610cb8565b3480156102b657600080fd5b506102bf610d88565b6040519081526020016101d5565b3480156102d957600080fd5b5060335460ff1660405190151581526020016101d5565b3480156102fc57600080fd5b50610246610e3b565b34801561031157600080fd5b50610246610e4f565b34801561032657600080fd5b5061032f610f9a565b604080519384526020840192909252908201526060016101d5565b34801561035657600080fd5b506065546001600160a01b03165b6040516001600160a01b0390911681526020016101d5565b34801561038857600080fd5b506103646103973660046152ed565b6001600160a01b03908116600090815261010660205260409020600101541690565b3480156103c557600080fd5b506103ce610fd1565b6040516101d59291906154da565b3480156103e857600080fd5b506102466103f73660046152ed565b61103d565b34801561040857600080fd5b506102466104173660046154fc565b61126c565b61024661042a36600461554c565b61131f565b34801561043b57600080fd5b5061024661044a366004615585565b61132b565b34801561045b57600080fd5b5061032f61046a3660046152ed565b61133e565b34801561047b57600080fd5b5060fb546001600160a01b0316610364565b34801561049957600080fd5b506102466104a83660046152ed565b611604565b3480156104b957600080fd5b5061036461167a565b3480156104ce57600080fd5b506104e26104dd3660046152ed565b611689565b6040805194855260208501939093529183015260608201526080016101d5565b34801561050e57600080fd5b5061052261051d3660046152ed565b61195a565b6040516101d5969594939291906155d0565b34801561054057600080fd5b5061055461054f3660046152ed565b611c33565b6040516101d59190615634565b6001600160a01b03808216600090815261010660209081526040808320815161024081018352815463ffffffff81168252600160201b90048616818501526001820154861681840152600282015490951660608601526003810180548351818602810186019094528084529495869586958695869586959093608086019383018282801561061857602002820191906000526020600020905b81546001600160a01b031681526001909101906020018083116105fa575b505050505081526020016004820180548060200260200160405190810160405280929190818152602001828054801561067a57602002820191906000526020600020905b81546001600160a01b0316815260019091019060200180831161065c575b50505050508152602001600582018054806020026020016040519081016040528092919081815260200182805480156106fe57602002820191906000526020600020906000905b82829054906101000a900463ffffffff1663ffffffff16815260200190600401906020826003010492830192600103820291508084116106c15790505b5050505050815260200160068201548152602001600782015481526020016008820154815260200160098201548152602001600a8201548152602001600b8201548152602001600c8201548152602001600d8201548152602001600e8201548152602001600f820160009054906101000a900460ff16151515158152602001601082018054806020026020016040519081016040528092919081815260200182805480156107f757602002820191906000526020600020906000905b82829054906101000a900463ffffffff1663ffffffff16815260200190600401906020826003010492830192600103820291508084116107ba5790505b505050919092525050506101808101516101a08201516101c08301516101e084015161016090940151929b919a509850919650945092505050565b61083a611f82565b6001600160a01b038116600090815261010660205260409020600f8101805460ff1916600190811790915560fc5460109092019161087891906157b1565b8154600180820184556000938452602084206008830401805460079093166004026101000a63ffffffff81810219909416949093169290920292909217905560fc805491820181559091527f371f36870d18f32a11fea0f144b021c8b407bb50f8e0267c711123f454b963c00180546001600160a01b0319166001600160a01b0392909216919091179055565b6001600160a01b037f00000000000000000000000000000000000000000000000000000000000000001630036109565760405162461bcd60e51b815260040161094d906157c4565b60405180910390fd5b7f00000000000000000000000000000000000000000000000000000000000000006001600160a01b031661099f600080516020615e6d833981519152546001600160a01b031690565b6001600160a01b0316146109c55760405162461bcd60e51b815260040161094d90615810565b6109ce81611fdc565b604080516000808252602082019092526109ea91839190611fe4565b50565b6001600160a01b03808216600090815261010660209081526040808320815161024081018352815463ffffffff81168252600160201b9004861681850152600182015486168184015260028201549095166060868101919091526003820180548451818702810187019095528085529596919587958695939493608086019390929091830182828015610aa957602002820191906000526020600020905b81546001600160a01b03168152600190910190602001808311610a8b575b5050505050815260200160048201805480602002602001604051908101604052809291908181526020018280548015610b0b57602002820191906000526020600020905b81546001600160a01b03168152600190910190602001808311610aed575b5050505050815260200160058201805480602002602001604051908101604052809291908181526020018280548015610b8f57602002820191906000526020600020906000905b82829054906101000a900463ffffffff1663ffffffff1681526020019060040190602082600301049283019260010382029150808411610b525790505b5050505050815260200160068201548152602001600782015481526020016008820154815260200160098201548152602001600a8201548152602001600b8201548152602001600c8201548152602001600d8201548152602001600e8201548152602001600f820160009054906101000a900460ff1615151515815260200160108201805480602002602001604051908101604052809291908181526020018280548015610c8857602002820191906000526020600020906000905b82829054906101000a900463ffffffff1663ffffffff1681526020019060040190602082600301049283019260010382029150808411610c4b5790505b50505050508152505090506000816102200151511115610ca757600193505b610220015180519395909450915050565b6001600160a01b037f0000000000000000000000000000000000000000000000000000000000000000163003610d005760405162461bcd60e51b815260040161094d906157c4565b7f00000000000000000000000000000000000000000000000000000000000000006001600160a01b0316610d49600080516020615e6d833981519152546001600160a01b031690565b6001600160a01b031614610d6f5760405162461bcd60e51b815260040161094d90615810565b610d7882611fdc565b610d8482826001611fe4565b5050565b6000306001600160a01b037f00000000000000000000000000000000000000000000000000000000000000001614610e285760405162461bcd60e51b815260206004820152603860248201527f555550535570677261646561626c653a206d757374206e6f742062652063616c60448201527f6c6564207468726f7567682064656c656761746563616c6c0000000000000000606482015260840161094d565b50600080516020615e6d83398151915290565b610e43611f82565b610e4d6000612154565b565b600054610100900460ff1615808015610e6f5750600054600160ff909116105b80610e895750303b158015610e89575060005460ff166001145b610eec5760405162461bcd60e51b815260206004820152602e60248201527f496e697469616c697a61626c653a20636f6e747261637420697320616c72656160448201526d191e481a5b9a5d1a585b1a5e995960921b606482015260840161094d565b6000805460ff191660011790558015610f0f576000805461ff0019166101001790555b60fb80546001600160a01b03191673494549e00fe6598e3dc93254c5377c406dda85791790554261010055610f426121a6565b610f4a6121d5565b610f52612204565b80156109ea576000805461ff0019169055604051600181527f7f26b83ff96e1f2b6a682f133852f6798a09c465da95921460cefb38474024989060200160405180910390a150565b60ff54610100546000908190610fb39062093a8061585c565b90504280821115610fcb57610fc881836157b1565b92505b50909192565b6060600060fc80548060200260200160405190810160405280929190818152602001828054801561102b57602002820191906000526020600020905b81546001600160a01b0316815260019091019060200180831161100d575b505060fc549396939550929350505050565b60006101005462093a80611051919061585c565b905042818110156110a45760405162461bcd60e51b815260206004820152601c60248201527f5765656b6c792074696d65206973206e6f74206f766572207965742e00000000604482015260640161094d565b60006110ae61222b565b6001600160a01b038181166000908152610106602052604080822060fb5491516373a5799760e11b8152898516600482015294955093921691829063e74af32e90602401600060405180830381865afa15801561110f573d6000803e3d6000fd5b505050506040513d6000823e601f3d908101601f1916820160405261113791908101906158fe565b905060006111478460ff546122b2565b90508015611262578084600d016000828254611163919061585c565b92505081905550876001600160a01b031663a9059cbb866012856060015160ff161061118f57836111a2565b6111a2846012876060015160ff16612349565b6040518363ffffffff1660e01b81526004016111bf9291906159e4565b6020604051808303816000875af11580156111de573d6000803e3d6000fd5b505050506040513d601f19601f8201168201806040525081019061120291906159fd565b50600060ff8190554261010055610103805483929061122290849061585c565b90915550506040517ffff6edc60fd30afefcc47525cdf85502200830b22550391f79f9e383df03afad9061125990879084906159e4565b60405180910390a15b5050505050505050565b611274611f82565b6001600160a01b0383811660009081526101066020526040902060010180546001600160a01b0319169184169190911790556112b881670de0b6b3a7640000615a18565b6001600160a01b03841660009081526101066020526040812060090180549091906112e490849061585c565b9091555050604080516001600160a01b03808516825285166020820152600080516020615eb4833981519152910160405180910390a1505050565b610d848233833461237f565b336113388482858561316a565b50505050565b6001600160a01b03808216600090815261010660209081526040808320815161024081018352815463ffffffff81168252600160201b9004861681850152600182015486168184015260028201549095166060860152600381018054835181860281018601909452808452949586958695869592949360808601939290918301828280156113f557602002820191906000526020600020905b81546001600160a01b031681526001909101906020018083116113d7575b505050505081526020016004820180548060200260200160405190810160405280929190818152602001828054801561145757602002820191906000526020600020905b81546001600160a01b03168152600190910190602001808311611439575b50505050508152602001600582018054806020026020016040519081016040528092919081815260200182805480156114db57602002820191906000526020600020906000905b82829054906101000a900463ffffffff1663ffffffff168152602001906004019060208260030104928301926001038202915080841161149e5790505b5050505050815260200160068201548152602001600782015481526020016008820154815260200160098201548152602001600a8201548152602001600b8201548152602001600c8201548152602001600d8201548152602001600e8201548152602001600f820160009054906101000a900460ff16151515158152602001601082018054806020026020016040519081016040528092919081815260200182805480156115d457602002820191906000526020600020906000905b82829054906101000a900463ffffffff1663ffffffff16815260200190600401906020826003010492830192600103820291508084116115975790505b50505091909252505050610140810151610160820151909550935090506115fb83856157b1565b93959294505050565b61160c611f82565b6001600160a01b0381166116715760405162461bcd60e51b815260206004820152602660248201527f4f776e61626c653a206e6577206f776e657220697320746865207a65726f206160448201526564647265737360d01b606482015260840161094d565b6109ea81612154565b600061168461222b565b905090565b6001600160a01b03808216600090815261010660209081526040808320815161024081018352815463ffffffff81168252600160201b90048616818501526001820154861681840152600282015490951660608601526003810180548351818602810186019094528084529495869586958695869593946080860193919290919083018282801561174357602002820191906000526020600020905b81546001600160a01b03168152600190910190602001808311611725575b50505050508152602001600482018054806020026020016040519081016040528092919081815260200182805480156117a557602002820191906000526020600020905b81546001600160a01b03168152600190910190602001808311611787575b505050505081526020016005820180548060200260200160405190810160405280929190818152602001828054801561182957602002820191906000526020600020906000905b82829054906101000a900463ffffffff1663ffffffff16815260200190600401906020826003010492830192600103820291508084116117ec5790505b5050505050815260200160068201548152602001600782015481526020016008820154815260200160098201548152602001600a8201548152602001600b8201548152602001600c8201548152602001600d8201548152602001600e8201548152602001600f820160009054906101000a900460ff161515151581526020016010820180548060200260200160405190810160405280929190818152602001828054801561192257602002820191906000526020600020906000905b82829054906101000a900463ffffffff1663ffffffff16815260200190600401906020826003010492830192600103820291508084116118e55790505b5050509190925250505060e0810151610100820151610120830151919750955093509050611950858461585c565b9150509193509193565b6001600160a01b03808216600090815261010660209081526040808320815161024081018352815463ffffffff81168252600160201b90048616818501526001820154861681840152600282015490951660608681019190915260038201805484518187028101870190955280855295969195879587958695889586959094919360808601939290830182828015611a1b57602002820191906000526020600020905b81546001600160a01b031681526001909101906020018083116119fd575b5050505050815260200160048201805480602002602001604051908101604052809291908181526020018280548015611a7d57602002820191906000526020600020905b81546001600160a01b03168152600190910190602001808311611a5f575b5050505050815260200160058201805480602002602001604051908101604052809291908181526020018280548015611b0157602002820191906000526020600020906000905b82829054906101000a900463ffffffff1663ffffffff1681526020019060040190602082600301049283019260010382029150808411611ac45790505b5050505050815260200160068201548152602001600782015481526020016008820154815260200160098201548152602001600a8201548152602001600b8201548152602001600c8201548152602001600d8201548152602001600e8201548152602001600f820160009054906101000a900460ff1615151515815260200160108201805480602002602001604051908101604052809291908181526020018280548015611bfa57602002820191906000526020600020906000905b82829054906101000a900463ffffffff1663ffffffff1681526020019060040190602082600301049283019260010382029150808411611bbd5790505b5050509190925250505060608101516080820151805160a084015160c0909401518451939d929c50909a50929850919650945092505050565b611ce4604051806102400160405280600063ffffffff16815260200160006001600160a01b0316815260200160006001600160a01b0316815260200160006001600160a01b03168152602001606081526020016060815260200160608152602001600081526020016000815260200160008152602001600081526020016000815260200160008152602001600081526020016000815260200160008152602001600015158152602001606081525090565b6001600160a01b0380831660009081526101066020908152604091829020825161024081018452815463ffffffff81168252600160201b900485168184015260018201548516818501526002820154909416606085015260038101805484518185028101850190955280855291936080860193909290830182828015611d9357602002820191906000526020600020905b81546001600160a01b03168152600190910190602001808311611d75575b5050505050815260200160048201805480602002602001604051908101604052809291908181526020018280548015611df557602002820191906000526020600020905b81546001600160a01b03168152600190910190602001808311611dd7575b5050505050815260200160058201805480602002602001604051908101604052809291908181526020018280548015611e7957602002820191906000526020600020906000905b82829054906101000a900463ffffffff1663ffffffff1681526020019060040190602082600301049283019260010382029150808411611e3c5790505b5050505050815260200160068201548152602001600782015481526020016008820154815260200160098201548152602001600a8201548152602001600b8201548152602001600c8201548152602001600d8201548152602001600e8201548152602001600f820160009054906101000a900460ff1615151515815260200160108201805480602002602001604051908101604052809291908181526020018280548015611f7257602002820191906000526020600020906000905b82829054906101000a900463ffffffff1663ffffffff1681526020019060040190602082600301049283019260010382029150808411611f355790505b5050505050815250509050919050565b6065546001600160a01b03163314610e4d5760405162461bcd60e51b815260206004820181905260248201527f4f776e61626c653a2063616c6c6572206973206e6f7420746865206f776e6572604482015260640161094d565b6109ea611f82565b7f4910fdfa16fed3260ed0e7147f7cc6da11a60208b5b9406d12a635614ffd91435460ff161561201c57612017836141b2565b505050565b826001600160a01b03166352d1902d6040518163ffffffff1660e01b8152600401602060405180830381865afa925050508015612076575060408051601f3d908101601f1916820190925261207391810190615a2f565b60015b6120d95760405162461bcd60e51b815260206004820152602e60248201527f45524331393637557067726164653a206e657720696d706c656d656e7461746960448201526d6f6e206973206e6f74205555505360901b606482015260840161094d565b600080516020615e6d83398151915281146121485760405162461bcd60e51b815260206004820152602960248201527f45524331393637557067726164653a20756e737570706f727465642070726f786044820152681a58589b195555525160ba1b606482015260840161094d565b5061201783838361424e565b606580546001600160a01b038381166001600160a01b0319831681179093556040519116919082907f8be0079c531659141344cd1fd0a4f28419497f9722a3daafe3b4186f6b6457e090600090a35050565b600054610100900460ff166121cd5760405162461bcd60e51b815260040161094d90615a48565b610e4d614273565b600054610100900460ff166121fc5760405162461bcd60e51b815260040161094d90615a48565b610e4d6142a6565b600054610100900460ff16610e4d5760405162461bcd60e51b815260040161094d90615a48565b600080424461223b6001436157b1565b60408051602081019490945283019190915240606082015260800160408051601f19818403018152919052805160209091012060fc549091506000906122819083615aa9565b905060fc818154811061229657612296615abd565b6000918252602090912001546001600160a01b03169392505050565b600082600901548284600a01546122c9919061585c565b10156122f1578190508083600a0160008282546122e6919061585c565b909155506123439050565b82600901548284600a0154612306919061585c565b03612322578190508083600a0160008282546122e6919061585c565b82600a0154836009015461233691906157b1565b6009840154600a85015590505b92915050565b600061235683600a615bb7565b61236183600a615bb7565b61236b9086615a18565b6123759190615bc3565b90505b9392505050565b60fb54604051630efc12b160e01b815260ff841660048201526001600160a01b03909116906000908290630efc12b190602401600060405180830381865afa1580156123cf573d6000803e3d6000fd5b505050506040513d6000823e601f3d908101601f191682016040526123f79190810190615bd7565b90506000612465836001600160a01b0316631b40f3096040518163ffffffff1660e01b8152600401602060405180830381865afa15801561243c573d6000803e3d6000fd5b505050506040513d601f19601f820116820180604052508101906124609190615c84565b6142d6565b905060006124738583614349565b905060008360400151116124995760405162461bcd60e51b815260040161094d90615ca1565b6064836040015160056124ac9190615a18565b6124b69190615bc3565b83604001516124c591906157b1565b811161251e5760405162461bcd60e51b815260206004820152602260248201527f4e61746976652076616c7565206973206c657373203525206f662070726963656044820152612e7360f01b606482015260840161094d565b6000846001600160a01b031663918a54db6040518163ffffffff1660e01b8152600401600060405180830381865afa15801561255e573d6000803e3d6000fd5b505050506040513d6000823e601f3d908101601f191682016040526125869190810190615ceb565b9050600061010660008a6001600160a01b03166001600160a01b0316815260200190815260200160002090506000866001600160a01b03166365eb204d6040518163ffffffff1660e01b8152600401602060405180830381865afa1580156125f2573d6000803e3d6000fd5b505050506040513d601f19601f820116820180604052508101906126169190615c84565b6040516370a0823160e01b81523060048201526001600160a01b0391909116906370a0823190602401602060405180830381865afa15801561265c573d6000803e3d6000fd5b505050506040513d601f19601f820116820180604052508101906126809190615a2f565b9050838111801561269357506006820154155b1561289e5760006126a5600286615bc3565b9050876001600160a01b0316638e68dce46040518163ffffffff1660e01b8152600401602060405180830381865afa1580156126e5573d6000803e3d6000fd5b505050506040513d601f19601f820116820180604052508101906127099190615c84565b6001600160a01b031663adc9772e8c836040518363ffffffff1660e01b81526004016127369291906159e4565b600060405180830381600087803b15801561275057600080fd5b505af1158015612764573d6000803e3d6000fd5b50505050876001600160a01b03166365eb204d6040518163ffffffff1660e01b8152600401602060405180830381865afa1580156127a6573d6000803e3d6000fd5b505050506040513d601f19601f820116820180604052508101906127ca9190615c84565b6001600160a01b031663a9059cbb896001600160a01b0316638e68dce46040518163ffffffff1660e01b8152600401602060405180830381865afa158015612816573d6000803e3d6000fd5b505050506040513d601f19601f8201168201806040525081019061283a9190615c84565b876040518363ffffffff1660e01b81526004016128589291906159e4565b6020604051808303816000875af1158015612877573d6000803e3d6000fd5b505050506040513d601f19601f8201168201806040525081019061289b91906159fd565b50505b8154640100000000600160c01b031916600160201b6001600160a01b038c16021782556006820180548591906000906128d890849061585c565b909155505060608601516128ec9085615a18565b8260090160008282546128ff919061585c565b9091555061290e905082614355565b6040805161024081018252835463ffffffff811682526001600160a01b03600160201b9091048116602080840191909152600186015482168385015260028601549091166060830152600385018054845181840281018401909552808552612ba094879360808601939192908301828280156129b357602002820191906000526020600020905b81546001600160a01b03168152600190910190602001808311612995575b5050505050815260200160048201805480602002602001604051908101604052809291908181526020018280548015612a1557602002820191906000526020600020905b81546001600160a01b031681526001909101906020018083116129f7575b5050505050815260200160058201805480602002602001604051908101604052809291908181526020018280548015612a9957602002820191906000526020600020906000905b82829054906101000a900463ffffffff1663ffffffff1681526020019060040190602082600301049283019260010382029150808411612a5c5790505b5050505050815260200160068201548152602001600782015481526020016008820154815260200160098201548152602001600a8201548152602001600b8201548152602001600c8201548152602001600d8201548152602001600e8201548152602001600f820160009054906101000a900460ff1615151515815260200160108201805480602002602001604051908101604052809291908181526020018280548015612b9257602002820191906000526020600020906000905b82829054906101000a900463ffffffff1663ffffffff1681526020019060040190602082600301049283019260010382029150808411612b555790505b5050505050815250506143e5565b612bb157612bb18b8b85518a614404565b8154600283015460408051600160201b84046001600160a01b03908116825263ffffffff909416602082015260ff8d1681830152929091166060830152517fccdfed8601106cae21493f7848436196048b60f2dc70db89d92e3acdabb0ee299181900360800190a16000612c2361222b565b90506001600160a01b03811615612c8b576000612c408287614d92565b90508015612c8957816001600160a01b03166108fc612c5f838a614e58565b6040518115909202916000818181858888f19350505050158015612c87573d6000803e3d6000fd5b505b505b60018301546001600160a01b031615612d08576001830154600090612cb9906001600160a01b03168b614e64565b90508015612d065760018401546001600160a01b03166108fc612cdc838a614e58565b6040518115909202916000818181858888f19350505050158015612d04573d6000803e3d6000fd5b505b505b6000805b85518160ff161015612ff8576040805161024081018252865463ffffffff811682526001600160a01b03600160201b9091048116602080840191909152600189015482168385015260028901549091166060830152600388018054845181840281018401909552808552612f58948a9360808601939192908301828280156129b3576020028201919060005260206000209081546001600160a01b03168152600190910190602001808311612995575050505050815260200160048201805480602002602001604051908101604052809291908181526020018280548015612a15576020028201919060005260206000209081546001600160a01b031681526001909101906020018083116129f7575050505050815260200160058201805480602002602001604051908101604052809291908181526020018280548015612a99576000918252602091829020805463ffffffff168452908202830192909160049101808411612a5c5790505050505050815260200160068201548152602001600782015481526020016008820154815260200160098201548152602001600a8201548152602001600b8201548152602001600c8201548152602001600d8201548152602001600e8201548152602001600f820160009054906101000a900460ff1615151515815260200160108201805480602002602001604051908101604052809291908181526020018280548015612b92576000918252602091829020805463ffffffff168452908202830192909160049101808411612b555790505050505050815250506143e5565b15612ff85760028501546001600160a01b031660009081526101066020526040812090612f8a828e8a60ff8716614efc565b90508015612fe35760028701546001600160a01b03166108fc612fad838d614e58565b6040518115909202916000818181858888f19350505050158015612fd5573d6000803e3d6000fd5b50612fe0818561585c565b93505b50945080612ff081615da5565b915050612d0c565b50886001600160a01b031663916452ab6040518163ffffffff1660e01b8152600401602060405180830381865afa158015613037573d6000803e3d6000fd5b505050506040513d601f19601f8201168201806040525081019061305b9190615c84565b6001600160a01b03166108fc6130d28c8c6001600160a01b031663916452ab6040518163ffffffff1660e01b8152600401602060405180830381865afa1580156130a9573d6000803e3d6000fd5b505050506040513d601f19601f820116820180604052508101906130cd9190615c84565b6150f3565b6040518115909202916000818181858888f193505050501580156130fa573d6000803e3d6000fd5b5080610101600082825461310e919061585c565b925050819055508560fe6000828254613127919061585c565b909155506064905061313a8b600a615a18565b6131449190615bc3565b6101096000828254613156919061585c565b909155505050505050505050505050505050565b60fb54604051630efc12b160e01b815260ff841660048201526001600160a01b03909116906000908290630efc12b190602401600060405180830381865afa1580156131ba573d6000803e3d6000fd5b505050506040513d6000823e601f3d908101601f191682016040526131e29190810190615bd7565b905060008160400151116132085760405162461bcd60e51b815260040161094d90615ca1565b6040516373a5799760e11b81526001600160a01b0384811660048301526000919084169063e74af32e90602401600060405180830381865afa158015613252573d6000803e3d6000fd5b505050506040513d6000823e601f3d908101601f1916820160405261327a91908101906158fe565b90508060c001516132c65760405162461bcd60e51b8152602060048201526016602482015275151bdad95b881a5cc81b9bdd081cdd5c1c1bdc9d195960521b604482015260640161094d565b60008490506000846001600160a01b031663918a54db6040518163ffffffff1660e01b8152600401600060405180830381865afa15801561330b573d6000803e3d6000fd5b505050506040513d6000823e601f3d908101601f191682016040526133339190810190615ceb565b9050816001600160a01b03166323b872dd89306012876060015160ff161061335f578760400151613376565b61337688604001516012896060015160ff16612349565b6040516001600160e01b031960e086901b1681526001600160a01b03938416600482015292909116602483015260448201526064016020604051808303816000875af11580156133ca573d6000803e3d6000fd5b505050506040513d601f19601f820116820180604052508101906133ee91906159fd565b506001600160a01b0380891660009081526101066020908152604080832081516365eb204d60e01b8152915190948a16926365eb204d92600480820193918290030181865afa158015613445573d6000803e3d6000fd5b505050506040513d601f19601f820116820180604052508101906134699190615c84565b6040516370a0823160e01b81523060048201526001600160a01b0391909116906370a0823190602401602060405180830381865afa1580156134af573d6000803e3d6000fd5b505050506040513d601f19601f820116820180604052508101906134d39190615a2f565b90508560400151811180156134ea57506006820154155b156136ff576000600287604001516135029190615bc3565b9050876001600160a01b0316638e68dce46040518163ffffffff1660e01b8152600401602060405180830381865afa158015613542573d6000803e3d6000fd5b505050506040513d601f19601f820116820180604052508101906135669190615c84565b6001600160a01b031663adc9772e8c836040518363ffffffff1660e01b81526004016135939291906159e4565b600060405180830381600087803b1580156135ad57600080fd5b505af11580156135c1573d6000803e3d6000fd5b50505050876001600160a01b03166365eb204d6040518163ffffffff1660e01b8152600401602060405180830381865afa158015613603573d6000803e3d6000fd5b505050506040513d601f19601f820116820180604052508101906136279190615c84565b6001600160a01b031663a9059cbb896001600160a01b0316638e68dce46040518163ffffffff1660e01b8152600401602060405180830381865afa158015613673573d6000803e3d6000fd5b505050506040513d601f19601f820116820180604052508101906136979190615c84565b89604001516040518363ffffffff1660e01b81526004016136b99291906159e4565b6020604051808303816000875af11580156136d8573d6000803e3d6000fd5b505050506040513d601f19601f820116820180604052508101906136fc91906159fd565b50505b8154640100000000600160c01b031916600160201b6001600160a01b038c1602178255604086015160068301805460009061373b90849061585c565b9091555050606086015160408701516137549190615a18565b826009016000828254613767919061585c565b90915550613776905082614355565b6040805161024081018252835463ffffffff811682526001600160a01b03600160201b90910481166020808401919091526001860154821683850152600286015490911660608301526003850180548451818402810184019095528085526139b694879360808601939192908301828280156129b3576020028201919060005260206000209081546001600160a01b03168152600190910190602001808311612995575050505050815260200160048201805480602002602001604051908101604052809291908181526020018280548015612a15576020028201919060005260206000209081546001600160a01b031681526001909101906020018083116129f7575050505050815260200160058201805480602002602001604051908101604052809291908181526020018280548015612a99576000918252602091829020805463ffffffff168452908202830192909160049101808411612a5c5790505050505050815260200160068201548152602001600782015481526020016008820154815260200160098201548152602001600a8201548152602001600b8201548152602001600c8201548152602001600d8201548152602001600e8201548152602001600f820160009054906101000a900460ff1615151515815260200160108201805480602002602001604051908101604052809291908181526020018280548015612b92576000918252602091829020805463ffffffff168452908202830192909160049101808411612b555790505050505050815250506143e5565b6139c7576139c78b8b85518a614404565b8154600283015460408051600160201b84046001600160a01b03908116825263ffffffff909416602082015260ff8d1681830152929091166060830152517fccdfed8601106cae21493f7848436196048b60f2dc70db89d92e3acdabb0ee299181900360800190a16000613a3961222b565b90506001600160a01b03811615613afe576000613a5a828960400151614d92565b90508015613afc57856001600160a01b031663a9059cbb8360128a6060015160ff1610613a875783613a9a565b613a9a8460128c6060015160ff16612349565b6040518363ffffffff1660e01b8152600401613ab79291906159e4565b6020604051808303816000875af1158015613ad6573d6000803e3d6000fd5b505050506040513d601f19601f82011682018060405250810190613afa91906159fd565b505b505b60018301546001600160a01b031615613be35760018301546040880151600091613b33916001600160a01b0390911690614e64565b90508015613be157600184015460608801516001600160a01b038089169263a9059cbb92911690601260ff90911610613b6c5783613b7f565b613b7f8460128c6060015160ff16612349565b6040518363ffffffff1660e01b8152600401613b9c9291906159e4565b6020604051808303816000875af1158015613bbb573d6000803e3d6000fd5b505050506040513d601f19601f82011682018060405250810190613bdf91906159fd565b505b505b6000805b85518160ff161015613f3c576040805161024081018252865463ffffffff811682526001600160a01b03600160201b9091048116602080840191909152600189015482168385015260028901549091166060830152600388018054845181840281018401909552808552613e33948a9360808601939192908301828280156129b3576020028201919060005260206000209081546001600160a01b03168152600190910190602001808311612995575050505050815260200160048201805480602002602001604051908101604052809291908181526020018280548015612a15576020028201919060005260206000209081546001600160a01b031681526001909101906020018083116129f7575050505050815260200160058201805480602002602001604051908101604052809291908181526020018280548015612a99576000918252602091829020805463ffffffff168452908202830192909160049101808411612a5c5790505050505050815260200160068201548152602001600782015481526020016008820154815260200160098201548152602001600a8201548152602001600b8201548152602001600c8201548152602001600d8201548152602001600e8201548152602001600f820160009054906101000a900460ff1615151515815260200160108201805480602002602001604051908101604052809291908181526020018280548015612b92576000918252602091829020805463ffffffff168452908202830192909160049101808411612b555790505050505050815250506143e5565b15613f3c5760028501546001600160a01b031660009081526101066020526040808220908b0151909190613e6d9083908a60ff8716614efc565b90508015613f2757600287015460608b01516001600160a01b03808c169263a9059cbb92911690601260ff90911610613ea65783613eb9565b613eb98460128f6060015160ff16612349565b6040518363ffffffff1660e01b8152600401613ed69291906159e4565b6020604051808303816000875af1158015613ef5573d6000803e3d6000fd5b505050506040513d601f19601f82011682018060405250810190613f1991906159fd565b50613f24818561585c565b93505b50945080613f3481615da5565b915050613be7565b50806101016000828254613f50919061585c565b9091555050604088015160fe8054600090613f6c90849061585c565b90915550506040880151606490613f8490600a615a18565b613f8e9190615bc3565b60ff6000828254613f9f919061585c565b90915550506040880151600090606490613fba906005615a18565b613fc49190615bc3565b9050866001600160a01b031663a9059cbb8b6001600160a01b031663916452ab6040518163ffffffff1660e01b8152600401602060405180830381865afa158015614013573d6000803e3d6000fd5b505050506040513d601f19601f820116820180604052508101906140379190615c84565b60128b6060015160ff161061404c578361405f565b61405f8460128d6060015160ff16612349565b6040518363ffffffff1660e01b815260040161407c9291906159e4565b6020604051808303816000875af115801561409b573d6000803e3d6000fd5b505050506040513d601f19601f820116820180604052508101906140bf91906159fd565b508061010460008282546140d3919061585c565b925050819055507fa290591faac5edd9224fc9f6b8304a91a0fddafde40a1b07f54c093daa8044388a6001600160a01b031663916452ab6040518163ffffffff1660e01b8152600401602060405180830381865afa158015614139573d6000803e3d6000fd5b505050506040513d601f19601f8201168201806040525081019061415d9190615c84565b60128a6060015160ff161061417957896060015160ff1661418c565b61418c8360128c6060015160ff16612349565b60405161419a9291906159e4565b60405180910390a15050505050505050505050505050565b6001600160a01b0381163b61421f5760405162461bcd60e51b815260206004820152602d60248201527f455243313936373a206e657720696d706c656d656e746174696f6e206973206e60448201526c1bdd08184818dbdb9d1c9858dd609a1b606482015260840161094d565b600080516020615e6d83398151915280546001600160a01b0319166001600160a01b0392909216919091179055565b61425783615166565b6000825111806142645750805b156120175761133883836151a6565b600054610100900460ff1661429a5760405162461bcd60e51b815260040161094d90615a48565b6033805460ff19169055565b600054610100900460ff166142cd5760405162461bcd60e51b815260040161094d90615a48565b610e4d33612154565b6000816001600160a01b03166350d25bcd6040518163ffffffff1660e01b8152600401602060405180830381865afa158015614316573d6000803e3d6000fd5b505050506040513d601f19601f8201168201806040525081019061433a9190615a2f565b612343906402540be400615a18565b60006123788284615a18565b805463ffffffff166000036109ea5760fd805463ffffffff1690600061437a83615dc4565b82546101009290920a63ffffffff81810219909316918316021790915560fd548354911663ffffffff199091168117928390556000908152610107602052604090208054600160201b9093046001600160a01b03166001600160a01b03199093169290921790915550565b60608101516000906001600160a01b0316156143ff575060015b919050565b6001600160a01b03808416600090815261010660209081526040808320815161024081018352815463ffffffff81168252600160201b9004861681850152600182015486168184015260028201549095166060860152600381018054835181860281018601909452808452919593869360808601939092918301828280156144b557602002820191906000526020600020905b81546001600160a01b03168152600190910190602001808311614497575b505050505081526020016004820180548060200260200160405190810160405280929190818152602001828054801561451757602002820191906000526020600020905b81546001600160a01b031681526001909101906020018083116144f9575b505050505081526020016005820180548060200260200160405190810160405280929190818152602001828054801561459b57602002820191906000526020600020906000905b82829054906101000a900463ffffffff1663ffffffff168152602001906004019060208260030104928301926001038202915080841161455e5790505b5050505050815260200160068201548152602001600782015481526020016008820154815260200160098201548152602001600a8201548152602001600b8201548152602001600c8201548152602001600d8201548152602001600e8201548152602001600f820160009054906101000a900460ff161515151581526020016010820180548060200260200160405190810160405280929190818152602001828054801561469457602002820191906000526020600020906000905b82829054906101000a900463ffffffff1663ffffffff16815260200190600401906020826003010492830192600103820291508084116146575790505b5050505050815250509050846001600160a01b031681606001516001600160a01b0316036147195760405162461bcd60e51b815260206004820152602c60248201527f52656665727265722055706c696e652043616e6e6f742062652072656665727260448201526b32b9103237bbb73634b7329760a11b606482015260840161094d565b856001600160a01b0316856001600160a01b03160361478a5760405162461bcd60e51b815260206004820152602760248201527f52656665727265722026205573657220616464726573732063616e6e6f742062604482015266329039b0b6b29760c91b606482015260840161094d565b6001600160a01b03861661498b57604080516001600160a01b038881168252871660208201526060818301819052603a908201527f5a65726f20616464726573732063616e6e6f742062652072656665727265722e60808201527f2053657474696e672064656661756c742072656665727265722e00000000000060a082015290517f32df26c7e54a821624fc8d22e1171e5793b90d1fccc483d3ff277b9c42bb22399181900360c00190a16101085460ff16614909576000836001600160a01b031663b2e6b9126040518163ffffffff1660e01b8152600401602060405180830381865afa158015614881573d6000803e3d6000fd5b505050506040513d601f19601f820116820180604052508101906148a59190615c84565b6002840180546001600160a01b0319166001600160a01b038381169182179092556040805191825291891660208201529192507fec49a3c8c4ae06c18160fe86119c381c9d213ac3e052ff35b594da8687b193c7910160405180910390a150614973565b600061491361222b565b6002840180546001600160a01b0319166001600160a01b038381169182179092556040805191825291891660208201529192507fec49a3c8c4ae06c18160fe86119c381c9d213ac3e052ff35b594da8687b193c7910160405180910390a1505b610108805460ff19811660ff909116151790556149e7565b6002820180546001600160a01b0319166001600160a01b038881169182179092556040805191825291871660208201527fec49a3c8c4ae06c18160fe86119c381c9d213ac3e052ff35b594da8687b193c7910160405180910390a15b60005b8460ff168160ff161015614d895760028301546001600160a01b031615614d895760028301546001600160a01b03166000908152610106602052604081209060ff83169003614cf95760038101805460018082018355600092835260209092200180546001600160a01b0319166001600160a01b038a811691909117909155908501541615614af5576001840154604080516001600160a01b03928316815291891660208301526060828201819052601d908301527f5265666572656520616c7265616479206861766520696270207365742e0000006080830152517fffca51efd3fa9dd00c7ad8de67cce6deeb82e78db2d05fe4b84079eca71665109181900360a00190a1614cf9565b60018101546001600160a01b0316614ca9576001810154604080516001600160a01b039283168152918916602083015260608282018190526032908301527f5a65726f20616464726573732063616e6e6f74206265206962702e20536574746080830152710696e672075702064656661756c74206962760741b60a0830152517fffca51efd3fa9dd00c7ad8de67cce6deeb82e78db2d05fe4b84079eca71665109181900360c00190a16000856001600160a01b031663b2e6b9126040518163ffffffff1660e01b8152600401602060405180830381865afa158015614bdf573d6000803e3d6000fd5b505050506040513d601f19601f82011682018060405250810190614c039190615c84565b600186810180546001600160a01b038481166001600160a01b03199283168117909355928601805490911682179055845460408051928352600160201b9091049092166020820152919250600080516020615eb4833981519152910160405180910390a18454604080516001600160a01b038085168252600160201b9093049092166020830152600080516020615eb4833981519152910160405180910390a150614cf9565b6001818101805491860180546001600160a01b0319166001600160a01b03938416179055546040805191831682529189166020820152600080516020615eb4833981519152910160405180910390a15b60048101805460018082018355600092835260209092200180546001600160a01b0319166001600160a01b038a161790556005820190614d3a908490615de7565b8154600181018355600092835260209092206008830401805463ffffffff60079094166004026101000a938402191660ff92909216909202179055925080614d8181615da5565b9150506149ea565b50505050505050565b6001600160a01b038216600090815261010660205260408120614dcb816064614dbc86600a615a18565b614dc69190615bc3565b6122b2565b91508115614e51578181600c016000828254614de7919061585c565b909155505080546040517fb2302fa600be82c096d9e1dbbf04e10c914ee4657708dd5d39c6f1a70f2188df91614e3091600160201b9091046001600160a01b03169085906159e4565b60405180910390a1816101026000828254614e4b919061585c565b90915550505b5092915050565b60006123788284615bc3565b6001600160a01b038216600090815261010660205260408120614e8e816064614dbc866005615a18565b91508115614e51578181600e016000828254614eaa919061585c565b90915550506040517fd5c849471e381b48771419f3963984b4317475397234e77b7b6983132891df6d90614ee190869085906159e4565b60405180910390a1816101056000828254614e4b919061585c565b60008163ffffffff1660000361500a5783856007016000828254614f20919061585c565b9091555050600f85015460ff168015614f4957508454600160201b90046001600160a01b031615155b1561500a57845460fc80546001808201835560008390527f371f36870d18f32a11fea0f144b021c8b407bb50f8e0267c711123f454b963c09091018054600160201b9094046001600160a01b03166001600160a01b031990941693909317909255546010870191614fb9916157b1565b8154600181018355600092835260209092206008830401805460079093166004026101000a63ffffffff818102199094169290931692909202179055600f8501805460ff81161560ff199091161790555b8385600801600082825461501e919061585c565b9250508190555061505b85612710858563ffffffff168151811061504457615044615abd565b602002602001015161ffff1687614dbc9190615a18565b905080156150eb578085600b016000828254615077919061585c565b909155505084547f59aa67a3163b3c08cd7278a6a54f52cb090b48211796ff453948bbd26156832d90600160201b90046001600160a01b0316826150bc856001615e00565b604080516001600160a01b039094168452602084019290925263ffffffff169082015260600160405180910390a15b949350505050565b60006064615102846005615a18565b61510c9190615bc3565b9050806101046000828254615121919061585c565b90915550506040517fa290591faac5edd9224fc9f6b8304a91a0fddafde40a1b07f54c093daa8044389061515890849084906159e4565b60405180910390a192915050565b61516f816141b2565b6040516001600160a01b038216907fbc7cd75a20ee27fd9adebab32041f755214dbc6bffa90cc0225b39da2e5c2d3b90600090a250565b60606001600160a01b0383163b61520e5760405162461bcd60e51b815260206004820152602660248201527f416464726573733a2064656c65676174652063616c6c20746f206e6f6e2d636f6044820152651b9d1c9858dd60d21b606482015260840161094d565b600080846001600160a01b0316846040516152299190615e1d565b600060405180830381855af49150503d8060008114615264576040519150601f19603f3d011682016040523d82523d6000602084013e615269565b606091505b50915091506152918282604051806060016040528060278152602001615e8d6027913961529a565b95945050505050565b606083156152a9575081612378565b61237883838151156152be5781518083602001fd5b8060405162461bcd60e51b815260040161094d9190615e39565b6001600160a01b03811681146109ea57600080fd5b6000602082840312156152ff57600080fd5b8135612378816152d8565b600081518084526020808501945080840160005b8381101561534057815163ffffffff168752958201959082019060010161531e565b509495945050505050565b8315158152606060208201526000615366606083018561530a565b9050826040830152949350505050565b634e487b7160e01b600052604160045260246000fd5b60405160e0810167ffffffffffffffff811182821017156153af576153af615376565b60405290565b604051601f8201601f1916810167ffffffffffffffff811182821017156153de576153de615376565b604052919050565b600067ffffffffffffffff82111561540057615400615376565b50601f01601f191660200190565b6000806040838503121561542157600080fd5b823561542c816152d8565b9150602083013567ffffffffffffffff81111561544857600080fd5b8301601f8101851361545957600080fd5b803561546c615467826153e6565b6153b5565b81815286602083850101111561548157600080fd5b816020840160208301376000602083830101528093505050509250929050565b600081518084526020808501945080840160005b838110156153405781516001600160a01b0316875295820195908201906001016154b5565b6040815260006154ed60408301856154a1565b90508260208301529392505050565b60008060006060848603121561551157600080fd5b833561551c816152d8565b9250602084013561552c816152d8565b929592945050506040919091013590565b60ff811681146109ea57600080fd5b6000806040838503121561555f57600080fd5b823561556a816152d8565b9150602083013561557a8161553d565b809150509250929050565b60008060006060848603121561559a57600080fd5b83356155a5816152d8565b925060208401356155b58161553d565b915060408401356155c5816152d8565b809150509250925092565b6001600160a01b038716815260c0602082018190526000906155f4908301886154a1565b866040840152828103606084015261560c81876154a1565b90508281036080840152615620818661530a565b9150508260a0830152979650505050505050565b6020815261564b60208201835163ffffffff169052565b6000602083015161566760408401826001600160a01b03169052565b5060408301516001600160a01b03811660608401525060608301516001600160a01b03811660808401525060808301516102408060a08501526156ae6102608501836154a1565b915060a0850151601f19808685030160c08701526156cc84836154a1565b935060c08701519150808685030160e08701526156e9848361530a565b60e088015161010088810191909152880151610120808901919091528801516101408089019190915288015161016080890191909152880151610180808901919091528801516101a0808901919091528801516101c0808901919091528801516101e0808901919091528801516102008089019190915288015190945091506102206157788188018415159052565b870151868503909101838701529050615791838261530a565b9695505050505050565b634e487b7160e01b600052601160045260246000fd5b818103818111156123435761234361579b565b6020808252602c908201527f46756e6374696f6e206d7573742062652063616c6c6564207468726f7567682060408201526b19195b1959d85d1958d85b1b60a21b606082015260800190565b6020808252602c908201527f46756e6374696f6e206d7573742062652063616c6c6564207468726f7567682060408201526b6163746976652070726f787960a01b606082015260800190565b808201808211156123435761234361579b565b80516143ff816152d8565b60005b8381101561589557818101518382015260200161587d565b50506000910152565b600082601f8301126158af57600080fd5b81516158bd615467826153e6565b8181528460208386010111156158d257600080fd5b6150eb82602083016020870161587a565b80516143ff8161553d565b805180151581146143ff57600080fd5b60006020828403121561591057600080fd5b815167ffffffffffffffff8082111561592857600080fd5b9083019060e0828603121561593c57600080fd5b61594461538c565b61594d8361586f565b815260208301518281111561596157600080fd5b61596d8782860161589e565b60208301525060408301518281111561598557600080fd5b6159918782860161589e565b6040830152506159a3606084016158e3565b60608201526159b4608084016158ee565b60808201526159c560a0840161586f565b60a08201526159d660c084016158ee565b60c082015295945050505050565b6001600160a01b03929092168252602082015260400190565b600060208284031215615a0f57600080fd5b612378826158ee565b80820281158282048414176123435761234361579b565b600060208284031215615a4157600080fd5b5051919050565b6020808252602b908201527f496e697469616c697a61626c653a20636f6e7472616374206973206e6f74206960408201526a6e697469616c697a696e6760a81b606082015260800190565b634e487b7160e01b600052601260045260246000fd5b600082615ab857615ab8615a93565b500690565b634e487b7160e01b600052603260045260246000fd5b600181815b80851115615b0e578160001904821115615af457615af461579b565b80851615615b0157918102915b93841c9390800290615ad8565b509250929050565b600082615b2557506001612343565b81615b3257506000612343565b8160018114615b485760028114615b5257615b6e565b6001915050612343565b60ff841115615b6357615b6361579b565b50506001821b612343565b5060208310610133831016604e8410600b8410161715615b91575081810a612343565b615b9b8383615ad3565b8060001904821115615baf57615baf61579b565b029392505050565b60006123788383615b16565b600082615bd257615bd2615a93565b500490565b600060208284031215615be957600080fd5b815167ffffffffffffffff80821115615c0157600080fd5b9083019060808286031215615c1557600080fd5b604051608081018181108382111715615c3057615c30615376565b6040528251615c3e8161553d565b8152602083015182811115615c5257600080fd5b615c5e8782860161589e565b602083015250604083015160408201526060830151606082015280935050505092915050565b600060208284031215615c9657600080fd5b8151612378816152d8565b6020808252602a908201527f56616c7565206973207a65726f2e20506c656173652073656c65637420636f726040820152693932b1ba10383630b71760b11b606082015260800190565b60006020808385031215615cfe57600080fd5b825167ffffffffffffffff80821115615d1657600080fd5b818501915085601f830112615d2a57600080fd5b815181811115615d3c57615d3c615376565b8060051b9150615d4d8483016153b5565b8181529183018401918481019088841115615d6757600080fd5b938501935b83851015615d99578451925061ffff83168314615d895760008081fd5b8282529385019390850190615d6c565b98975050505050505050565b600060ff821660ff8103615dbb57615dbb61579b565b60010192915050565b600063ffffffff808316818103615ddd57615ddd61579b565b6001019392505050565b60ff81811683821601908111156123435761234361579b565b63ffffffff818116838216019080821115614e5157614e5161579b565b60008251615e2f81846020870161587a565b9190910192915050565b6020815260008251806020840152615e5881604085016020870161587a565b601f01601f1916919091016040019291505056fe360894a13ba1a3210667c828492db98dca3e2076cc3735a920a3ca505d382bbc416464726573733a206c6f772d6c6576656c2064656c65676174652063616c6c206661696c656400f37bd73ff29ab549d774afc91445bf33292ed9a4b4b4177fb1e61ff3c58469a2646970667358221220282ff8eb01d56736f9114a87747ce27fbee922634784275572bdf94af79721ba64736f6c63430008120033",
  "linkReferences": {},
  "deployedLinkReferences": {}
}