{
  "_format": "hh-sol-artifact-1",
  "contractName": "ReferralV1Upgradeable",
  "sourceName": "contracts/ReferralV1Upgradeable.sol",
  "abi": [
    {
      "anonymous": false,
      "inputs": [
        {
          "indexed": false,
          "internalType": "address",
          "name": "previousAdmin",
          "type": "address"
        },
        {
          "indexed": false,
          "internalType": "address",
          "name": "newAdmin",
          "type": "address"
        }
      ],
      "name": "AdminChanged",
      "type": "event"
    },
    {
      "anonymous": false,
      "inputs": [
        {
          "indexed": true,
          "internalType": "address",
          "name": "beacon",
          "type": "address"
        }
      ],
      "name": "BeaconUpgraded",
      "type": "event"
    },
    {
      "anonymous": false,
      "inputs": [
        {
          "indexed": false,
          "internalType": "address",
          "name": "coreMembersContract",
          "type": "address"
        },
        {
          "indexed": false,
          "internalType": "uint256",
          "name": "value",
          "type": "uint256"
        }
      ],
      "name": "CoreMembersRewardPaid",
      "type": "event"
    },
    {
      "anonymous": false,
      "inputs": [
        {
          "indexed": false,
          "internalType": "address",
          "name": "globalAddress",
          "type": "address"
        },
        {
          "indexed": false,
          "internalType": "address",
          "name": "userAddress",
          "type": "address"
        },
        {
          "indexed": false,
          "internalType": "uint256",
          "name": "registrationValue",
          "type": "uint256"
        },
        {
          "indexed": false,
          "internalType": "uint256",
          "name": "rewardValue",
          "type": "uint256"
        },
        {
          "indexed": false,
          "internalType": "uint16",
          "name": "rewardRate",
          "type": "uint16"
        },
        {
          "indexed": false,
          "internalType": "uint16",
          "name": "rewardRateDecimals",
          "type": "uint16"
        },
        {
          "indexed": false,
          "internalType": "string",
          "name": "reason",
          "type": "string"
        }
      ],
      "name": "GlobalRewardsNotPaid",
      "type": "event"
    },
    {
      "anonymous": false,
      "inputs": [
        {
          "indexed": false,
          "internalType": "address",
          "name": "globalAddress",
          "type": "address"
        },
        {
          "indexed": false,
          "internalType": "address",
          "name": "userAddress",
          "type": "address"
        },
        {
          "indexed": false,
          "internalType": "uint256",
          "name": "registrationValue",
          "type": "uint256"
        },
        {
          "indexed": false,
          "internalType": "uint256",
          "name": "rewardValue",
          "type": "uint256"
        },
        {
          "indexed": false,
          "internalType": "uint16",
          "name": "rewardRate",
          "type": "uint16"
        },
        {
          "indexed": false,
          "internalType": "uint16",
          "name": "rewardRateDecimals",
          "type": "uint16"
        }
      ],
      "name": "GlobalRewardsPaid",
      "type": "event"
    },
    {
      "anonymous": false,
      "inputs": [
        {
          "indexed": false,
          "internalType": "address",
          "name": "ibpAddress",
          "type": "address"
        },
        {
          "indexed": false,
          "internalType": "address",
          "name": "userAddress",
          "type": "address"
        }
      ],
      "name": "IBPAdded",
      "type": "event"
    },
    {
      "anonymous": false,
      "inputs": [
        {
          "indexed": false,
          "internalType": "address",
          "name": "ibpAddress",
          "type": "address"
        },
        {
          "indexed": false,
          "internalType": "address",
          "name": "userAddress",
          "type": "address"
        },
        {
          "indexed": false,
          "internalType": "string",
          "name": "reason",
          "type": "string"
        }
      ],
      "name": "IBPNotAdded",
      "type": "event"
    },
    {
      "anonymous": false,
      "inputs": [
        {
          "indexed": false,
          "internalType": "address",
          "name": "ibpAddress",
          "type": "address"
        },
        {
          "indexed": false,
          "internalType": "string",
          "name": "reason",
          "type": "string"
        }
      ],
      "name": "IBPRewardsNotPaid",
      "type": "event"
    },
    {
      "anonymous": false,
      "inputs": [
        {
          "indexed": false,
          "internalType": "address",
          "name": "ibpAddress",
          "type": "address"
        },
        {
          "indexed": false,
          "internalType": "address",
          "name": "userAddress",
          "type": "address"
        },
        {
          "indexed": false,
          "internalType": "uint256",
          "name": "businessValue",
          "type": "uint256"
        },
        {
          "indexed": false,
          "internalType": "uint256",
          "name": "rewardValue",
          "type": "uint256"
        },
        {
          "indexed": false,
          "internalType": "uint16",
          "name": "rewardRate",
          "type": "uint16"
        },
        {
          "indexed": false,
          "internalType": "uint16",
          "name": "rewardRateDecimals",
          "type": "uint16"
        }
      ],
      "name": "IBPRewardsPaid",
      "type": "event"
    },
    {
      "anonymous": false,
      "inputs": [
        {
          "indexed": false,
          "internalType": "uint8",
          "name": "version",
          "type": "uint8"
        }
      ],
      "name": "Initialized",
      "type": "event"
    },
    {
      "anonymous": false,
      "inputs": [
        {
          "indexed": false,
          "internalType": "address",
          "name": "userAddress",
          "type": "address"
        },
        {
          "indexed": false,
          "internalType": "string",
          "name": "reason",
          "type": "string"
        }
      ],
      "name": "NoRewardsPaid",
      "type": "event"
    },
    {
      "anonymous": false,
      "inputs": [
        {
          "indexed": true,
          "internalType": "address",
          "name": "previousOwner",
          "type": "address"
        },
        {
          "indexed": true,
          "internalType": "address",
          "name": "newOwner",
          "type": "address"
        }
      ],
      "name": "OwnershipTransferred",
      "type": "event"
    },
    {
      "anonymous": false,
      "inputs": [
        {
          "indexed": false,
          "internalType": "address",
          "name": "account",
          "type": "address"
        }
      ],
      "name": "Paused",
      "type": "event"
    },
    {
      "anonymous": false,
      "inputs": [
        {
          "indexed": false,
          "internalType": "address",
          "name": "referrerAddress",
          "type": "address"
        },
        {
          "indexed": false,
          "internalType": "address",
          "name": "userAddress",
          "type": "address"
        },
        {
          "indexed": false,
          "internalType": "uint256",
          "name": "value",
          "type": "uint256"
        },
        {
          "indexed": false,
          "internalType": "uint256",
          "name": "rewardValue",
          "type": "uint256"
        },
        {
          "indexed": false,
          "internalType": "uint256",
          "name": "rewardRate",
          "type": "uint256"
        },
        {
          "indexed": false,
          "internalType": "uint256",
          "name": "rewardRateDecimals",
          "type": "uint256"
        },
        {
          "indexed": false,
          "internalType": "uint32",
          "name": "level",
          "type": "uint32"
        }
      ],
      "name": "ReferralRewardsPaid",
      "type": "event"
    },
    {
      "anonymous": false,
      "inputs": [
        {
          "indexed": false,
          "internalType": "address",
          "name": "referrerAddress",
          "type": "address"
        },
        {
          "indexed": false,
          "internalType": "address",
          "name": "refereeAddress",
          "type": "address"
        }
      ],
      "name": "ReferrerAdded",
      "type": "event"
    },
    {
      "anonymous": false,
      "inputs": [
        {
          "indexed": false,
          "internalType": "address",
          "name": "referrerAddress",
          "type": "address"
        },
        {
          "indexed": false,
          "internalType": "address",
          "name": "refereeAddress",
          "type": "address"
        },
        {
          "indexed": false,
          "internalType": "string",
          "name": "reason",
          "type": "string"
        }
      ],
      "name": "ReferrerNotAdded",
      "type": "event"
    },
    {
      "anonymous": false,
      "inputs": [
        {
          "indexed": false,
          "internalType": "address",
          "name": "userAddress",
          "type": "address"
        },
        {
          "indexed": false,
          "internalType": "uint32",
          "name": "userId",
          "type": "uint32"
        },
        {
          "indexed": false,
          "internalType": "uint8",
          "name": "planId",
          "type": "uint8"
        },
        {
          "indexed": false,
          "internalType": "address",
          "name": "referrerAddress",
          "type": "address"
        }
      ],
      "name": "Registration",
      "type": "event"
    },
    {
      "anonymous": false,
      "inputs": [
        {
          "indexed": false,
          "internalType": "address",
          "name": "parentAddress",
          "type": "address"
        },
        {
          "indexed": false,
          "internalType": "address",
          "name": "referrerAddress",
          "type": "address"
        },
        {
          "indexed": false,
          "internalType": "address",
          "name": "refereeAddress",
          "type": "address"
        },
        {
          "indexed": false,
          "internalType": "uint32",
          "name": "level",
          "type": "uint32"
        }
      ],
      "name": "TeamAddressAdded",
      "type": "event"
    },
    {
      "anonymous": false,
      "inputs": [
        {
          "indexed": false,
          "internalType": "address",
          "name": "account",
          "type": "address"
        }
      ],
      "name": "Unpaused",
      "type": "event"
    },
    {
      "anonymous": false,
      "inputs": [
        {
          "indexed": true,
          "internalType": "address",
          "name": "implementation",
          "type": "address"
        }
      ],
      "name": "Upgraded",
      "type": "event"
    },
    {
      "anonymous": false,
      "inputs": [
        {
          "indexed": false,
          "internalType": "address",
          "name": "globalAddress",
          "type": "address"
        },
        {
          "indexed": false,
          "internalType": "uint256",
          "name": "rewardValue",
          "type": "uint256"
        }
      ],
      "name": "WeeklyRewardsPaid",
      "type": "event"
    },
    {
      "inputs": [
        {
          "internalType": "address",
          "name": "_userAddress",
          "type": "address"
        },
        {
          "internalType": "address",
          "name": "_ibpAddress",
          "type": "address"
        },
        {
          "internalType": "uint256",
          "name": "_maxLimitInDecimals",
          "type": "uint256"
        }
      ],
      "name": "addIbpToAddressAdmin",
      "outputs": [],
      "stateMutability": "nonpayable",
      "type": "function"
    },
    {
      "inputs": [
        {
          "internalType": "address",
          "name": "_tokenAddress",
          "type": "address"
        }
      ],
      "name": "distributeWeeklyReward",
      "outputs": [],
      "stateMutability": "nonpayable",
      "type": "function"
    },
    {
      "inputs": [],
      "name": "getRegistrationsStats",
      "outputs": [
        {
          "internalType": "uint32",
          "name": "totalUser",
          "type": "uint32"
        },
        {
          "internalType": "uint256",
          "name": "totalRegistrationValue",
          "type": "uint256"
        },
        {
          "internalType": "uint256",
          "name": "totalReferralPaid",
          "type": "uint256"
        },
        {
          "internalType": "uint256",
          "name": "totalGlobalRewardsPaid",
          "type": "uint256"
        },
        {
          "internalType": "uint256",
          "name": "totalWeeklyRewardsPaid",
          "type": "uint256"
        },
        {
          "internalType": "uint256",
          "name": "totalCoreMembershipRewardPaid",
          "type": "uint256"
        },
        {
          "internalType": "uint256",
          "name": "totalIbpRewardsPaid",
          "type": "uint256"
        }
      ],
      "stateMutability": "view",
      "type": "function"
    },
    {
      "inputs": [
        {
          "internalType": "address",
          "name": "_userAddress",
          "type": "address"
        }
      ],
      "name": "getUserAccount",
      "outputs": [
        {
          "components": [
            {
              "internalType": "uint32",
              "name": "userId",
              "type": "uint32"
            },
            {
              "internalType": "address",
              "name": "selfAddress",
              "type": "address"
            },
            {
              "internalType": "address",
              "name": "ibpAddress",
              "type": "address"
            },
            {
              "internalType": "address",
              "name": "referrerAddress",
              "type": "address"
            },
            {
              "internalType": "address[]",
              "name": "refereeAddresses",
              "type": "address[]"
            },
            {
              "internalType": "address[]",
              "name": "teamAddress",
              "type": "address[]"
            },
            {
              "internalType": "uint32[]",
              "name": "teamLevels",
              "type": "uint32[]"
            },
            {
              "internalType": "uint256",
              "name": "selfBusiness",
              "type": "uint256"
            },
            {
              "internalType": "uint256",
              "name": "directBusiness",
              "type": "uint256"
            },
            {
              "internalType": "uint256",
              "name": "teamBusiness",
              "type": "uint256"
            },
            {
              "internalType": "uint256",
              "name": "maxLimit",
              "type": "uint256"
            },
            {
              "internalType": "uint256",
              "name": "currentLimit",
              "type": "uint256"
            },
            {
              "internalType": "uint256",
              "name": "referralRewards",
              "type": "uint256"
            },
            {
              "internalType": "uint256",
              "name": "globalRewards",
              "type": "uint256"
            },
            {
              "internalType": "uint256",
              "name": "weeklyRewards",
              "type": "uint256"
            },
            {
              "internalType": "uint256",
              "name": "ibpRewards",
              "type": "uint256"
            },
            {
              "internalType": "bool",
              "name": "isGlobal",
              "type": "bool"
            },
            {
              "internalType": "uint32[]",
              "name": "globalIndexes",
              "type": "uint32[]"
            }
          ],
          "internalType": "struct AccountStruct",
          "name": "",
          "type": "tuple"
        }
      ],
      "stateMutability": "view",
      "type": "function"
    },
    {
      "inputs": [
        {
          "internalType": "address",
          "name": "_userAddress",
          "type": "address"
        }
      ],
      "name": "getUserBusiness",
      "outputs": [
        {
          "internalType": "uint256",
          "name": "selfBusiness",
          "type": "uint256"
        },
        {
          "internalType": "uint256",
          "name": "directBusiness",
          "type": "uint256"
        },
        {
          "internalType": "uint256",
          "name": "teamBusiness",
          "type": "uint256"
        },
        {
          "internalType": "uint256",
          "name": "totalBusiness",
          "type": "uint256"
        }
      ],
      "stateMutability": "view",
      "type": "function"
    },
    {
      "inputs": [
        {
          "internalType": "address",
          "name": "_userAddress",
          "type": "address"
        }
      ],
      "name": "getUserIbpAddress",
      "outputs": [
        {
          "internalType": "address",
          "name": "",
          "type": "address"
        }
      ],
      "stateMutability": "view",
      "type": "function"
    },
    {
      "inputs": [
        {
          "internalType": "address",
          "name": "_userAddress",
          "type": "address"
        }
      ],
      "name": "getUserLimit",
      "outputs": [
        {
          "internalType": "uint256",
          "name": "maxLimit",
          "type": "uint256"
        },
        {
          "internalType": "uint256",
          "name": "currentLimit",
          "type": "uint256"
        },
        {
          "internalType": "uint256",
          "name": "limitRemaingvalue",
          "type": "uint256"
        }
      ],
      "stateMutability": "view",
      "type": "function"
    },
    {
      "inputs": [
        {
          "internalType": "address",
          "name": "_userAddress",
          "type": "address"
        }
      ],
      "name": "getUserRewards",
      "outputs": [
        {
          "internalType": "uint256",
          "name": "referralReward",
          "type": "uint256"
        },
        {
          "internalType": "uint256",
          "name": "globalReward",
          "type": "uint256"
        },
        {
          "internalType": "uint256",
          "name": "weeklyReward",
          "type": "uint256"
        },
        {
          "internalType": "uint256",
          "name": "ibpReward",
          "type": "uint256"
        },
        {
          "internalType": "uint256",
          "name": "totalIncome",
          "type": "uint256"
        }
      ],
      "stateMutability": "view",
      "type": "function"
    },
    {
      "inputs": [
        {
          "internalType": "address",
          "name": "_userAddress",
          "type": "address"
        }
      ],
      "name": "getUserTeam",
      "outputs": [
        {
          "internalType": "address",
          "name": "referrer",
          "type": "address"
        },
        {
          "internalType": "address[]",
          "name": "referees",
          "type": "address[]"
        },
        {
          "internalType": "uint256",
          "name": "refereeCount",
          "type": "uint256"
        },
        {
          "internalType": "address[]",
          "name": "team",
          "type": "address[]"
        },
        {
          "internalType": "uint32[]",
          "name": "teamLevels",
          "type": "uint32[]"
        },
        {
          "internalType": "uint256",
          "name": "teamCount",
          "type": "uint256"
        }
      ],
      "stateMutability": "view",
      "type": "function"
    },
    {
      "inputs": [],
      "name": "getVariablesContract",
      "outputs": [
        {
          "internalType": "address",
          "name": "",
          "type": "address"
        }
      ],
      "stateMutability": "view",
      "type": "function"
    },
    {
      "inputs": [],
      "name": "getWeeklyRewardToBeDistributed",
      "outputs": [
        {
          "internalType": "uint256",
          "name": "_rewardValue",
          "type": "uint256"
        },
        {
          "internalType": "uint256",
          "name": "_remianingTime",
          "type": "uint256"
        },
        {
          "internalType": "uint256",
          "name": "_endTime",
          "type": "uint256"
        }
      ],
      "stateMutability": "view",
      "type": "function"
    },
    {
      "inputs": [],
      "name": "initialize",
      "outputs": [],
      "stateMutability": "nonpayable",
      "type": "function"
    },
    {
      "inputs": [
        {
          "internalType": "address",
          "name": "_userAddress",
          "type": "address"
        }
      ],
      "name": "isUserInGlobalList",
      "outputs": [
        {
          "internalType": "bool",
          "name": "isInList",
          "type": "bool"
        },
        {
          "internalType": "uint32[]",
          "name": "indexes",
          "type": "uint32[]"
        },
        {
          "internalType": "uint256",
          "name": "totalGlobalIds",
          "type": "uint256"
        }
      ],
      "stateMutability": "view",
      "type": "function"
    },
    {
      "inputs": [],
      "name": "owner",
      "outputs": [
        {
          "internalType": "address",
          "name": "",
          "type": "address"
        }
      ],
      "stateMutability": "view",
      "type": "function"
    },
    {
      "inputs": [],
      "name": "paused",
      "outputs": [
        {
          "internalType": "bool",
          "name": "",
          "type": "bool"
        }
      ],
      "stateMutability": "view",
      "type": "function"
    },
    {
      "inputs": [],
      "name": "proxiableUUID",
      "outputs": [
        {
          "internalType": "bytes32",
          "name": "",
          "type": "bytes32"
        }
      ],
      "stateMutability": "view",
      "type": "function"
    },
    {
      "inputs": [
        {
          "internalType": "address",
          "name": "_userAddress",
          "type": "address"
        }
      ],
      "name": "pushAddressToGlobal",
      "outputs": [],
      "stateMutability": "nonpayable",
      "type": "function"
    },
    {
      "inputs": [
        {
          "internalType": "address",
          "name": "_referrer",
          "type": "address"
        },
        {
          "internalType": "uint8",
          "name": "_planId",
          "type": "uint8"
        },
        {
          "internalType": "address",
          "name": "_tokenAddress",
          "type": "address"
        }
      ],
      "name": "registrationWithToken",
      "outputs": [],
      "stateMutability": "nonpayable",
      "type": "function"
    },
    {
      "inputs": [],
      "name": "renounceOwnership",
      "outputs": [],
      "stateMutability": "nonpayable",
      "type": "function"
    },
    {
      "inputs": [
        {
          "internalType": "address",
          "name": "newOwner",
          "type": "address"
        }
      ],
      "name": "transferOwnership",
      "outputs": [],
      "stateMutability": "nonpayable",
      "type": "function"
    },
    {
      "inputs": [
        {
          "internalType": "uint32",
          "name": "_idFrom",
          "type": "uint32"
        },
        {
          "internalType": "uint32",
          "name": "_idTo",
          "type": "uint32"
        },
        {
          "internalType": "address",
          "name": "_ibpAddress",
          "type": "address"
        },
        {
          "internalType": "address",
          "name": "_ibpAddressToIgnore",
          "type": "address"
        }
      ],
      "name": "updateAllAddressIBP",
      "outputs": [],
      "stateMutability": "nonpayable",
      "type": "function"
    },
    {
      "inputs": [
        {
          "internalType": "address",
          "name": "newImplementation",
          "type": "address"
        }
      ],
      "name": "upgradeTo",
      "outputs": [],
      "stateMutability": "nonpayable",
      "type": "function"
    },
    {
      "inputs": [
        {
          "internalType": "address",
          "name": "newImplementation",
          "type": "address"
        },
        {
          "internalType": "bytes",
          "name": "data",
          "type": "bytes"
        }
      ],
      "name": "upgradeToAndCall",
      "outputs": [],
      "stateMutability": "payable",
      "type": "function"
    },
    {
      "stateMutability": "payable",
      "type": "receive"
    }
  ],
  "bytecode": "0x60a06040523060805234801561001457600080fd5b5060805161573b6200004d600039600081816108ff0152818161098901528181610e2d01528181610eb20152610f9c015261573b6000f3fe6080604052600436106101845760003560e01c8063846688f7116100d6578063e9587e861161007f578063f87127b411610059578063f87127b4146104b1578063faeda7e5146104f1578063fb47e0161461052357600080fd5b8063e9587e8614610453578063f13a143f14610473578063f2fde38b1461049157600080fd5b8063d277b8a9116100b0578063d277b8a9146103f3578063df10817614610413578063e6f6769e1461043357600080fd5b8063846688f7146103545780638da5cb5b14610384578063967012eb146103b657600080fd5b80633ef575e9116101385780635c975abb116101125780635c975abb14610307578063715018a61461032a5780638129fc1c1461033f57600080fd5b80633ef575e9146102a25780634f1ef286146102d157806352d1902d146102e457600080fd5b806313bc9a591161016957806313bc9a59146102405780633659cfe6146102625780633b23c45d1461028257600080fd5b80630690c6a814610190578063078b0fb7146101f857600080fd5b3661018b57005b600080fd5b34801561019c57600080fd5b5060fd5460fe5461010154610102546101035461010454610105546040805163ffffffff90981688526020880196909652948601939093526060850191909152608084015260a083015260c082015260e0015b60405180910390f35b34801561020457600080fd5b50610218610213366004614c8e565b610550565b604080519586526020860194909452928401919091526060830152608082015260a0016101ef565b34801561024c57600080fd5b5061026061025b366004614c8e565b610822565b005b34801561026e57600080fd5b5061026061027d366004614c8e565b6108f5565b34801561028e57600080fd5b5061026061029d366004614cbf565b610a75565b3480156102ae57600080fd5b506102c26102bd366004614c8e565b610b57565b6040516101ef93929190614d58565b6102606102df366004614e1b565b610e23565b3480156102f057600080fd5b506102f9610f8f565b6040519081526020016101ef565b34801561031357600080fd5b5060335460ff1660405190151581526020016101ef565b34801561033657600080fd5b50610260611054565b34801561034b57600080fd5b50610260611068565b34801561036057600080fd5b506103696111c2565b604080519384526020840192909252908201526060016101ef565b34801561039057600080fd5b506065546001600160a01b03165b6040516001600160a01b0390911681526020016101ef565b3480156103c257600080fd5b5061039e6103d1366004614c8e565b6001600160a01b03908116600090815261010660205260409020600101541690565b3480156103ff57600080fd5b5061026061040e366004614c8e565b6111f9565b34801561041f57600080fd5b5061026061042e366004614eae565b61143f565b34801561043f57600080fd5b5061026061044e366004614efe565b611503565b34801561045f57600080fd5b5061036961046e366004614c8e565b611516565b34801561047f57600080fd5b5060fb546001600160a01b031661039e565b34801561049d57600080fd5b506102606104ac366004614c8e565b6117dd565b3480156104bd57600080fd5b506104d16104cc366004614c8e565b61186a565b6040805194855260208501939093529183015260608201526080016101ef565b3480156104fd57600080fd5b5061051161050c366004614c8e565b611b3c565b6040516101ef96959493929190614f82565b34801561052f57600080fd5b5061054361053e366004614c8e565b611e16565b6040516101ef9190614fe4565b6001600160a01b03808216600090815261010660209081526040808320815161024081018352815463ffffffff8116825264010000000090048616818501526001820154861681840152600282015490951660608601526003810180548351818602810186019094528084529495869586958695869586959093608086019383018282801561060857602002820191906000526020600020905b81546001600160a01b031681526001909101906020018083116105ea575b505050505081526020016004820180548060200260200160405190810160405280929190818152602001828054801561066a57602002820191906000526020600020905b81546001600160a01b0316815260019091019060200180831161064c575b50505050508152602001600582018054806020026020016040519081016040528092919081815260200182805480156106ee57602002820191906000526020600020906000905b82829054906101000a900463ffffffff1663ffffffff16815260200190600401906020826003010492830192600103820291508084116106b15790505b5050505050815260200160068201548152602001600782015481526020016008820154815260200160098201548152602001600a8201548152602001600b8201548152602001600c8201548152602001600d8201548152602001600e8201548152602001600f820160009054906101000a900460ff16151515158152602001601082018054806020026020016040519081016040528092919081815260200182805480156107e757602002820191906000526020600020906000905b82829054906101000a900463ffffffff1663ffffffff16815260200190600401906020826003010492830192600103820291508084116107aa5790505b505050919092525050506101808101516101a08201516101c08301516101e084015161016090940151929b919a509850919650945092505050565b61082a612166565b6001600160a01b038116600090815261010660205260409020600f8101805460ff1916600190811790915560fc546010909201916108689190615161565b8154600180820184556000938452602084206008830401805460079093166004026101000a63ffffffff81810219909416949093169290920292909217905560fc805491820181559091527f371f36870d18f32a11fea0f144b021c8b407bb50f8e0267c711123f454b963c00180546001600160a01b0319166001600160a01b0392909216919091179055565b6001600160a01b037f00000000000000000000000000000000000000000000000000000000000000001630036109875760405162461bcd60e51b815260206004820152602c60248201527f46756e6374696f6e206d7573742062652063616c6c6564207468726f7567682060448201526b19195b1959d85d1958d85b1b60a21b60648201526084015b60405180910390fd5b7f00000000000000000000000000000000000000000000000000000000000000006001600160a01b03166109e27f360894a13ba1a3210667c828492db98dca3e2076cc3735a920a3ca505d382bbc546001600160a01b031690565b6001600160a01b031614610a4d5760405162461bcd60e51b815260206004820152602c60248201527f46756e6374696f6e206d7573742062652063616c6c6564207468726f7567682060448201526b6163746976652070726f787960a01b606482015260840161097e565b610a56816121c0565b60408051600080825260208201909252610a72918391906121c8565b50565b610a7d612166565b835b8363ffffffff168163ffffffff1611610b505763ffffffff8116600090815261010760209081526040808320546001600160a01b039081168085526101069093529220600101549091848116911614610b3d576001600160a01b038181166000818152610106602090815260409182902060010180546001600160a01b031916948916948517905581519384528301919091527ef37bd73ff29ab549d774afc91445bf33292ed9a4b4b4177fb1e61ff3c58469910160405180910390a15b5080610b4881615174565b915050610a7f565b5050505050565b6001600160a01b03808216600090815261010660209081526040808320815161024081018352815463ffffffff811682526401000000009004861681850152600182015486168184015260028201549095166060868101919091526003820180548451818702810187019095528085529596919587958695939493608086019390929091830182828015610c1457602002820191906000526020600020905b81546001600160a01b03168152600190910190602001808311610bf6575b5050505050815260200160048201805480602002602001604051908101604052809291908181526020018280548015610c7657602002820191906000526020600020905b81546001600160a01b03168152600190910190602001808311610c58575b5050505050815260200160058201805480602002602001604051908101604052809291908181526020018280548015610cfa57602002820191906000526020600020906000905b82829054906101000a900463ffffffff1663ffffffff1681526020019060040190602082600301049283019260010382029150808411610cbd5790505b5050505050815260200160068201548152602001600782015481526020016008820154815260200160098201548152602001600a8201548152602001600b8201548152602001600c8201548152602001600d8201548152602001600e8201548152602001600f820160009054906101000a900460ff1615151515815260200160108201805480602002602001604051908101604052809291908181526020018280548015610df357602002820191906000526020600020906000905b82829054906101000a900463ffffffff1663ffffffff1681526020019060040190602082600301049283019260010382029150808411610db65790505b50505050508152505090506000816102200151511115610e1257600193505b610220015180519395909450915050565b6001600160a01b037f0000000000000000000000000000000000000000000000000000000000000000163003610eb05760405162461bcd60e51b815260206004820152602c60248201527f46756e6374696f6e206d7573742062652063616c6c6564207468726f7567682060448201526b19195b1959d85d1958d85b1b60a21b606482015260840161097e565b7f00000000000000000000000000000000000000000000000000000000000000006001600160a01b0316610f0b7f360894a13ba1a3210667c828492db98dca3e2076cc3735a920a3ca505d382bbc546001600160a01b031690565b6001600160a01b031614610f765760405162461bcd60e51b815260206004820152602c60248201527f46756e6374696f6e206d7573742062652063616c6c6564207468726f7567682060448201526b6163746976652070726f787960a01b606482015260840161097e565b610f7f826121c0565b610f8b828260016121c8565b5050565b6000306001600160a01b037f0000000000000000000000000000000000000000000000000000000000000000161461102f5760405162461bcd60e51b815260206004820152603860248201527f555550535570677261646561626c653a206d757374206e6f742062652063616c60448201527f6c6564207468726f7567682064656c656761746563616c6c0000000000000000606482015260840161097e565b507f360894a13ba1a3210667c828492db98dca3e2076cc3735a920a3ca505d382bbc90565b61105c612166565b611066600061236d565b565b600054610100900460ff16158080156110885750600054600160ff909116105b806110a25750303b1580156110a2575060005460ff166001145b6111145760405162461bcd60e51b815260206004820152602e60248201527f496e697469616c697a61626c653a20636f6e747261637420697320616c72656160448201527f647920696e697469616c697a6564000000000000000000000000000000000000606482015260840161097e565b6000805460ff191660011790558015611137576000805461ff0019166101001790555b60fb80546001600160a01b03191673494549e00fe6598e3dc93254c5377c406dda8579179055426101005561116a6123bf565b611172612432565b61117a6124a5565b8015610a72576000805461ff0019169055604051600181527f7f26b83ff96e1f2b6a682f133852f6798a09c465da95921460cefb38474024989060200160405180910390a150565b60ff546101005460009081906111db9062093a80615197565b905042808211156111f3576111f08183615161565b92505b50909192565b60006101005462093a8061120d9190615197565b905042818110156112605760405162461bcd60e51b815260206004820152601c60248201527f5765656b6c792074696d65206973206e6f74206f766572207965742e00000000604482015260640161097e565b600061126a612510565b6001600160a01b038181166000908152610106602052604080822060fb5491516373a5799760e11b8152898516600482015294955093921691829063e74af32e90602401600060405180830381865afa1580156112cb573d6000803e3d6000fd5b505050506040513d6000823e601f3d908101601f191682016040526112f39190810190615241565b905060006113038460ff54612597565b90508015611435578084600d01600082825461131f9190615197565b92505081905550876001600160a01b031663a9059cbb866012856060015160ff161061134b578361135e565b61135e846012876060015160ff1661261a565b6040516001600160e01b031960e085901b1681526001600160a01b03909216600483015260248201526044016020604051808303816000875af11580156113a9573d6000803e3d6000fd5b505050506040513d601f19601f820116820180604052508101906113cd9190615327565b50600060ff819055426101005561010380548392906113ed908490615197565b9091555050604080516001600160a01b0387168152602081018390527ffff6edc60fd30afefcc47525cdf85502200830b22550391f79f9e383df03afad910160405180910390a15b5050505050505050565b611447612166565b6001600160a01b0383811660009081526101066020526040902060010180546001600160a01b03191691841691909117905561148b81670de0b6b3a7640000615342565b6001600160a01b03841660009081526101066020526040812060090180549091906114b7908490615197565b9091555050604080516001600160a01b038085168252851660208201527ef37bd73ff29ab549d774afc91445bf33292ed9a4b4b4177fb1e61ff3c58469910160405180910390a1505050565b3361151084828585612650565b50505050565b6001600160a01b03808216600090815261010660209081526040808320815161024081018352815463ffffffff811682526401000000009004861681850152600182015486168184015260028201549095166060860152600381018054835181860281018601909452808452949586958695869592949360808601939290918301828280156115ce57602002820191906000526020600020905b81546001600160a01b031681526001909101906020018083116115b0575b505050505081526020016004820180548060200260200160405190810160405280929190818152602001828054801561163057602002820191906000526020600020905b81546001600160a01b03168152600190910190602001808311611612575b50505050508152602001600582018054806020026020016040519081016040528092919081815260200182805480156116b457602002820191906000526020600020906000905b82829054906101000a900463ffffffff1663ffffffff16815260200190600401906020826003010492830192600103820291508084116116775790505b5050505050815260200160068201548152602001600782015481526020016008820154815260200160098201548152602001600a8201548152602001600b8201548152602001600c8201548152602001600d8201548152602001600e8201548152602001600f820160009054906101000a900460ff16151515158152602001601082018054806020026020016040519081016040528092919081815260200182805480156117ad57602002820191906000526020600020906000905b82829054906101000a900463ffffffff1663ffffffff16815260200190600401906020826003010492830192600103820291508084116117705790505b50505091909252505050610140810151610160820151909550935090506117d48385615161565b93959294505050565b6117e5612166565b6001600160a01b0381166118615760405162461bcd60e51b815260206004820152602660248201527f4f776e61626c653a206e6577206f776e657220697320746865207a65726f206160448201527f6464726573730000000000000000000000000000000000000000000000000000606482015260840161097e565b610a728161236d565b6001600160a01b03808216600090815261010660209081526040808320815161024081018352815463ffffffff8116825264010000000090048616818501526001820154861681840152600282015490951660608601526003810180548351818602810186019094528084529495869586958695869593946080860193919290919083018282801561192557602002820191906000526020600020905b81546001600160a01b03168152600190910190602001808311611907575b505050505081526020016004820180548060200260200160405190810160405280929190818152602001828054801561198757602002820191906000526020600020905b81546001600160a01b03168152600190910190602001808311611969575b5050505050815260200160058201805480602002602001604051908101604052809291908181526020018280548015611a0b57602002820191906000526020600020906000905b82829054906101000a900463ffffffff1663ffffffff16815260200190600401906020826003010492830192600103820291508084116119ce5790505b5050505050815260200160068201548152602001600782015481526020016008820154815260200160098201548152602001600a8201548152602001600b8201548152602001600c8201548152602001600d8201548152602001600e8201548152602001600f820160009054906101000a900460ff1615151515815260200160108201805480602002602001604051908101604052809291908181526020018280548015611b0457602002820191906000526020600020906000905b82829054906101000a900463ffffffff1663ffffffff1681526020019060040190602082600301049283019260010382029150808411611ac75790505b5050509190925250505060e0810151610100820151610120830151919750955093509050611b328584615197565b9150509193509193565b6001600160a01b03808216600090815261010660209081526040808320815161024081018352815463ffffffff8116825264010000000090048616818501526001820154861681840152600282015490951660608681019190915260038201805484518187028101870190955280855295969195879587958695889586959094919360808601939290830182828015611bfe57602002820191906000526020600020905b81546001600160a01b03168152600190910190602001808311611be0575b5050505050815260200160048201805480602002602001604051908101604052809291908181526020018280548015611c6057602002820191906000526020600020905b81546001600160a01b03168152600190910190602001808311611c42575b5050505050815260200160058201805480602002602001604051908101604052809291908181526020018280548015611ce457602002820191906000526020600020906000905b82829054906101000a900463ffffffff1663ffffffff1681526020019060040190602082600301049283019260010382029150808411611ca75790505b5050505050815260200160068201548152602001600782015481526020016008820154815260200160098201548152602001600a8201548152602001600b8201548152602001600c8201548152602001600d8201548152602001600e8201548152602001600f820160009054906101000a900460ff1615151515815260200160108201805480602002602001604051908101604052809291908181526020018280548015611ddd57602002820191906000526020600020906000905b82829054906101000a900463ffffffff1663ffffffff1681526020019060040190602082600301049283019260010382029150808411611da05790505b5050509190925250505060608101516080820151805160a084015160c0909401518451939d929c50909a50929850919650945092505050565b611ec7604051806102400160405280600063ffffffff16815260200160006001600160a01b0316815260200160006001600160a01b0316815260200160006001600160a01b03168152602001606081526020016060815260200160608152602001600081526020016000815260200160008152602001600081526020016000815260200160008152602001600081526020016000815260200160008152602001600015158152602001606081525090565b6001600160a01b0380831660009081526101066020908152604091829020825161024081018452815463ffffffff81168252640100000000900485168184015260018201548516818501526002820154909416606085015260038101805484518185028101850190955280855291936080860193909290830182828015611f7757602002820191906000526020600020905b81546001600160a01b03168152600190910190602001808311611f59575b5050505050815260200160048201805480602002602001604051908101604052809291908181526020018280548015611fd957602002820191906000526020600020905b81546001600160a01b03168152600190910190602001808311611fbb575b505050505081526020016005820180548060200260200160405190810160405280929190818152602001828054801561205d57602002820191906000526020600020906000905b82829054906101000a900463ffffffff1663ffffffff16815260200190600401906020826003010492830192600103820291508084116120205790505b5050505050815260200160068201548152602001600782015481526020016008820154815260200160098201548152602001600a8201548152602001600b8201548152602001600c8201548152602001600d8201548152602001600e8201548152602001600f820160009054906101000a900460ff161515151581526020016010820180548060200260200160405190810160405280929190818152602001828054801561215657602002820191906000526020600020906000905b82829054906101000a900463ffffffff1663ffffffff16815260200190600401906020826003010492830192600103820291508084116121195790505b5050505050815250509050919050565b6065546001600160a01b031633146110665760405162461bcd60e51b815260206004820181905260248201527f4f776e61626c653a2063616c6c6572206973206e6f7420746865206f776e6572604482015260640161097e565b610a72612166565b7f4910fdfa16fed3260ed0e7147f7cc6da11a60208b5b9406d12a635614ffd91435460ff1615612200576121fb83613cc7565b505050565b826001600160a01b03166352d1902d6040518163ffffffff1660e01b8152600401602060405180830381865afa92505050801561225a575060408051601f3d908101601f1916820190925261225791810190615359565b60015b6122cc5760405162461bcd60e51b815260206004820152602e60248201527f45524331393637557067726164653a206e657720696d706c656d656e7461746960448201527f6f6e206973206e6f742055555053000000000000000000000000000000000000606482015260840161097e565b7f360894a13ba1a3210667c828492db98dca3e2076cc3735a920a3ca505d382bbc81146123615760405162461bcd60e51b815260206004820152602960248201527f45524331393637557067726164653a20756e737570706f727465642070726f7860448201527f6961626c65555549440000000000000000000000000000000000000000000000606482015260840161097e565b506121fb838383613d85565b606580546001600160a01b038381166001600160a01b0319831681179093556040519116919082907f8be0079c531659141344cd1fd0a4f28419497f9722a3daafe3b4186f6b6457e090600090a35050565b600054610100900460ff1661242a5760405162461bcd60e51b815260206004820152602b60248201527f496e697469616c697a61626c653a20636f6e7472616374206973206e6f74206960448201526a6e697469616c697a696e6760a81b606482015260840161097e565b611066613daa565b600054610100900460ff1661249d5760405162461bcd60e51b815260206004820152602b60248201527f496e697469616c697a61626c653a20636f6e7472616374206973206e6f74206960448201526a6e697469616c697a696e6760a81b606482015260840161097e565b611066613e21565b600054610100900460ff166110665760405162461bcd60e51b815260206004820152602b60248201527f496e697469616c697a61626c653a20636f6e7472616374206973206e6f74206960448201526a6e697469616c697a696e6760a81b606482015260840161097e565b6000804244612520600143615161565b60408051602081019490945283019190915240606082015260800160408051601f19818403018152919052805160209091012060fc549091506000906125669083615388565b905060fc818154811061257b5761257b61539c565b6000918252602090912001546001600160a01b03169392505050565b600082600901548284600a01546125ae9190615197565b10806125cc575082600901548284600a01546125ca9190615197565b145b156125f3578190508083600a0160008282546125e89190615197565b909155506126149050565b82600a015483600901546126079190615161565b6009840154600a85015590505b92915050565b600061262783600a615496565b61263283600a615496565b61263c9086615342565b61264691906154a2565b90505b9392505050565b60fb546040517f0efc12b100000000000000000000000000000000000000000000000000000000815260ff841660048201526001600160a01b03909116906000908290630efc12b190602401600060405180830381865afa1580156126b9573d6000803e3d6000fd5b505050506040513d6000823e601f3d908101601f191682016040526126e191908101906154b6565b9050600081604001511161275d5760405162461bcd60e51b815260206004820152602a60248201527f56616c7565206973207a65726f2e20506c656173652073656c65637420636f7260448201527f7265637420706c616e2e00000000000000000000000000000000000000000000606482015260840161097e565b6040516373a5799760e11b81526001600160a01b0384811660048301526000919084169063e74af32e90602401600060405180830381865afa1580156127a7573d6000803e3d6000fd5b505050506040513d6000823e601f3d908101601f191682016040526127cf9190810190615241565b90508060c001516128225760405162461bcd60e51b815260206004820152601660248201527f546f6b656e206973206e6f7420737570706f7274656400000000000000000000604482015260640161097e565b60008490506000846001600160a01b031663918a54db6040518163ffffffff1660e01b8152600401600060405180830381865afa158015612867573d6000803e3d6000fd5b505050506040513d6000823e601f3d908101601f1916820160405261288f9190810190615563565b9050816001600160a01b03166323b872dd89306012876060015160ff16106128bb5787604001516128d2565b6128d288604001516012896060015160ff1661261a565b6040516001600160e01b031960e086901b1681526001600160a01b03938416600482015292909116602483015260448201526064016020604051808303816000875af1158015612926573d6000803e3d6000fd5b505050506040513d601f19601f8201168201806040525081019061294a9190615327565b506001600160a01b0380891660009081526101066020908152604080832081517f65eb204d000000000000000000000000000000000000000000000000000000008152915190948a16926365eb204d92600480820193918290030181865afa1580156129ba573d6000803e3d6000fd5b505050506040513d601f19601f820116820180604052508101906129de919061561d565b6040517f70a082310000000000000000000000000000000000000000000000000000000081523060048201526001600160a01b0391909116906370a0823190602401602060405180830381865afa158015612a3d573d6000803e3d6000fd5b505050506040513d601f19601f82011682018060405250810190612a619190615359565b9050856040015181118015612a7857506006820154155b15612cba57600060028760400151612a9091906154a2565b9050876001600160a01b0316638e68dce46040518163ffffffff1660e01b8152600401602060405180830381865afa158015612ad0573d6000803e3d6000fd5b505050506040513d601f19601f82011682018060405250810190612af4919061561d565b6040517fadc9772e0000000000000000000000000000000000000000000000000000000081526001600160a01b038d8116600483015260248201849052919091169063adc9772e90604401600060405180830381600087803b158015612b5957600080fd5b505af1158015612b6d573d6000803e3d6000fd5b50505050876001600160a01b03166365eb204d6040518163ffffffff1660e01b8152600401602060405180830381865afa158015612baf573d6000803e3d6000fd5b505050506040513d601f19601f82011682018060405250810190612bd3919061561d565b6001600160a01b031663a9059cbb896001600160a01b0316638e68dce46040518163ffffffff1660e01b8152600401602060405180830381865afa158015612c1f573d6000803e3d6000fd5b505050506040513d601f19601f82011682018060405250810190612c43919061561d565b6040808b015190516001600160e01b031960e085901b1681526001600160a01b03909216600483015260248201526044016020604051808303816000875af1158015612c93573d6000803e3d6000fd5b505050506040513d601f19601f82011682018060405250810190612cb79190615327565b50505b815463ffffffff16600003612d3a5760fd805463ffffffff16906000612cdf83615174565b82546101009290920a63ffffffff81810219909316918316021790915560fd548454911663ffffffff199091168117845560009081526101076020526040902080546001600160a01b0319166001600160a01b038d16179055505b81547fffffffffffffffff0000000000000000000000000000000000000000ffffffff166401000000006001600160a01b038c16021782556040860151600683018054600090612d8b908490615197565b909155505060608601516040870151612da49190615342565b826009016000828254612db79190615197565b90915550506040805161024081018252835463ffffffff811682526001600160a01b03640100000000909104811660208084019190915260018601548216838501526002860154909116606083015260038501805484518184028101840190955280855261304f9487936080860193919290830182828015612e6257602002820191906000526020600020905b81546001600160a01b03168152600190910190602001808311612e44575b5050505050815260200160048201805480602002602001604051908101604052809291908181526020018280548015612ec457602002820191906000526020600020905b81546001600160a01b03168152600190910190602001808311612ea6575b5050505050815260200160058201805480602002602001604051908101604052809291908181526020018280548015612f4857602002820191906000526020600020906000905b82829054906101000a900463ffffffff1663ffffffff1681526020019060040190602082600301049283019260010382029150808411612f0b5790505b5050505050815260200160068201548152602001600782015481526020016008820154815260200160098201548152602001600a8201548152602001600b8201548152602001600c8201548152602001600d8201548152602001600e8201548152602001600f820160009054906101000a900460ff161515151581526020016010820180548060200260200160405190810160405280929190818152602001828054801561304157602002820191906000526020600020906000905b82829054906101000a900463ffffffff1663ffffffff16815260200190600401906020826003010492830192600103820291508084116130045790505b505050505081525050613e95565b613060576130608b8b85518a613eb4565b815460028301546040805164010000000084046001600160a01b03908116825263ffffffff909416602082015260ff8d1681830152929091166060830152517fccdfed8601106cae21493f7848436196048b60f2dc70db89d92e3acdabb0ee299181900360800190a160006130d3612510565b90506001600160a01b0381161561328e576001600160a01b038116600090815261010660205260408082209089015190919061312890839060649061311990600a615342565b61312391906154a2565b612597565b9050801561328b57866001600160a01b031663a9059cbb8460128b6060015160ff16106131555783613168565b6131688460128d6060015160ff1661261a565b6040516001600160e01b031960e085901b1681526001600160a01b03909216600483015260248201526044016020604051808303816000875af11580156131b3573d6000803e3d6000fd5b505050506040513d601f19601f820116820180604052508101906131d79190615327565b508082600c0160008282546131ec9190615197565b925050819055507f693fc02576006378cd4577590d99ad6b18ad4c566c433b85643d7b07a4815665838e8b6040015184600a606460405161326a969594939291906001600160a01b0396871681529490951660208501526040840192909252606083015261ffff90811660808301529190911660a082015260c00190565b60405180910390a18061010260008282546132859190615197565b90915550505b50505b60018301546001600160a01b0316156134c45760018301546001600160a01b031660009081526101066020526040808220908901519091906132da908390606490613119906005615342565b905080156134c1578082600e0160008282546132f69190615197565b9091555050600185015460608901516001600160a01b03808a169263a9059cbb92911690601260ff9091161061332c578361333f565b61333f8460128d6060015160ff1661261a565b6040516001600160e01b031960e085901b1681526001600160a01b03909216600483015260248201526044016020604051808303816000875af115801561338a573d6000803e3d6000fd5b505050506040513d601f19601f820116820180604052508101906133ae9190615327565b507f3c8fdb10971c51ff48e3a4db4d7f14e64690a286be5bb9f410d9fd0fb74dbf488560010160009054906101000a90046001600160a01b03168660000160049054906101000a90046001600160a01b03168b60400151848e6001600160a01b031663e70167176040518163ffffffff1660e01b8152600401602060405180830381865afa158015613444573d6000803e3d6000fd5b505050506040513d601f19601f82011682018060405250810190613468919061563a565b604080516001600160a01b03968716815295909416602086015292840191909152606083015260ff166080820152606460a082015260c00160405180910390a18061010560008282546134bb9190615197565b90915550505b50505b6000805b85518160ff161015613a36576040805161024081018252865463ffffffff811682526001600160a01b036401000000009091048116602080840191909152600189015482168385015260028901549091166060830152600388018054845181840281018401909552808552613715948a936080860193919290830182828015612e62576020028201919060005260206000209081546001600160a01b03168152600190910190602001808311612e44575050505050815260200160048201805480602002602001604051908101604052809291908181526020018280548015612ec4576020028201919060005260206000209081546001600160a01b03168152600190910190602001808311612ea6575050505050815260200160058201805480602002602001604051908101604052809291908181526020018280548015612f48576000918252602091829020805463ffffffff168452908202830192909160049101808411612f0b5790505050505050815260200160068201548152602001600782015481526020016008820154815260200160098201548152602001600a8201548152602001600b8201548152602001600c8201548152602001600d8201548152602001600e8201548152602001600f820160009054906101000a900460ff1615151515815260200160108201805480602002602001604051908101604052809291908181526020018280548015613041576000918252602091829020805463ffffffff168452908202830192909160049101808411613004579050505050505081525050613e95565b15613a365760028501546001600160a01b03166000908152610106602052604081209060ff8316900361382457896040015181600701600082825461375a9190615197565b9091555050600f81015460ff161561380f57600286015460fc80546001818101835560008390527f371f36870d18f32a11fea0f144b021c8b407bb50f8e0267c711123f454b963c090910180546001600160a01b0319166001600160a01b03909416939093179092555460108301916137d291615161565b8154600181018355600092835260209092206008830401805460079093166004026101000a63ffffffff8181021990941692909316929092021790555b600f8101805460ff19811660ff909116151790555b896040015181600801600082825461383c9190615197565b92505081905550600061387c826127108a8660ff16815181106138615761386161539c565b602002602001015161ffff168e604001516131199190615342565b90508015613a21578082600b0160008282546138989190615197565b9091555050600287015460608b01516001600160a01b03808c169263a9059cbb92911690601260ff909116106138ce57836138e1565b6138e18460128f6060015160ff1661261a565b6040516001600160e01b031960e085901b1681526001600160a01b03909216600483015260248201526044016020604051808303816000875af115801561392c573d6000803e3d6000fd5b505050506040513d601f19601f820116820180604052508101906139509190615327565b5061395b8185615197565b6002880154885460408e01518b519397507f3fae587c6f1778678d1e63bd99d63afe07677c2a2eb43a4b228b80e8a38c1b06936001600160a01b03938416936401000000009093049092169185908d9060ff8a169081106139be576139be61539c565b60200260200101516127108960016139d69190615657565b604080516001600160a01b03988916815297909616602088015294860193909352606085019190915261ffff16608084015260a083015260ff1660c082015260e00160405180910390a15b50945080613a2e81615670565b9150506134c8565b50806101016000828254613a4a9190615197565b9091555050604088015160fe8054600090613a66908490615197565b90915550506040880151606490613a7e90600a615342565b613a8891906154a2565b60ff6000828254613a999190615197565b90915550506040880151600090606490613ab4906005615342565b613abe91906154a2565b9050866001600160a01b031663a9059cbb8b6001600160a01b031663916452ab6040518163ffffffff1660e01b8152600401602060405180830381865afa158015613b0d573d6000803e3d6000fd5b505050506040513d601f19601f82011682018060405250810190613b31919061561d565b60128b6060015160ff1610613b465783613b59565b613b598460128d6060015160ff1661261a565b6040516001600160e01b031960e085901b1681526001600160a01b03909216600483015260248201526044016020604051808303816000875af1158015613ba4573d6000803e3d6000fd5b505050506040513d601f19601f82011682018060405250810190613bc89190615327565b50806101046000828254613bdc9190615197565b925050819055507fa290591faac5edd9224fc9f6b8304a91a0fddafde40a1b07f54c093daa8044388a6001600160a01b031663916452ab6040518163ffffffff1660e01b8152600401602060405180830381865afa158015613c42573d6000803e3d6000fd5b505050506040513d601f19601f82011682018060405250810190613c66919061561d565b60128a6060015160ff1610613c8257896060015160ff16613c95565b613c958360128c6060015160ff1661261a565b604080516001600160a01b03909316835260208301919091520160405180910390a15050505050505050505050505050565b6001600160a01b0381163b613d445760405162461bcd60e51b815260206004820152602d60248201527f455243313936373a206e657720696d706c656d656e746174696f6e206973206e60448201527f6f74206120636f6e747261637400000000000000000000000000000000000000606482015260840161097e565b7f360894a13ba1a3210667c828492db98dca3e2076cc3735a920a3ca505d382bbc80546001600160a01b0319166001600160a01b0392909216919091179055565b613d8e83614af0565b600082511180613d9b5750805b156121fb576115108383614b30565b600054610100900460ff16613e155760405162461bcd60e51b815260206004820152602b60248201527f496e697469616c697a61626c653a20636f6e7472616374206973206e6f74206960448201526a6e697469616c697a696e6760a81b606482015260840161097e565b6033805460ff19169055565b600054610100900460ff16613e8c5760405162461bcd60e51b815260206004820152602b60248201527f496e697469616c697a61626c653a20636f6e7472616374206973206e6f74206960448201526a6e697469616c697a696e6760a81b606482015260840161097e565b6110663361236d565b60608101516000906001600160a01b031615613eaf575060015b919050565b6001600160a01b03808416600090815261010660209081526040808320815161024081018352815463ffffffff81168252640100000000900486168185015260018201548616818401526002820154909516606086015260038101805483518186028101860190945280845291959386936080860193909291830182828015613f6657602002820191906000526020600020905b81546001600160a01b03168152600190910190602001808311613f48575b5050505050815260200160048201805480602002602001604051908101604052809291908181526020018280548015613fc857602002820191906000526020600020905b81546001600160a01b03168152600190910190602001808311613faa575b505050505081526020016005820180548060200260200160405190810160405280929190818152602001828054801561404c57602002820191906000526020600020906000905b82829054906101000a900463ffffffff1663ffffffff168152602001906004019060208260030104928301926001038202915080841161400f5790505b5050505050815260200160068201548152602001600782015481526020016008820154815260200160098201548152602001600a8201548152602001600b8201548152602001600c8201548152602001600d8201548152602001600e8201548152602001600f820160009054906101000a900460ff161515151581526020016010820180548060200260200160405190810160405280929190818152602001828054801561414557602002820191906000526020600020906000905b82829054906101000a900463ffffffff1663ffffffff16815260200190600401906020826003010492830192600103820291508084116141085790505b5050505050815250509050846001600160a01b031681606001516001600160a01b0316036141db5760405162461bcd60e51b815260206004820152602c60248201527f52656665727265722055706c696e652043616e6e6f742062652072656665727260448201527f657220646f776e6c696e652e0000000000000000000000000000000000000000606482015260840161097e565b856001600160a01b0316856001600160a01b0316036142625760405162461bcd60e51b815260206004820152602760248201527f52656665727265722026205573657220616464726573732063616e6e6f74206260448201527f652073616d652e00000000000000000000000000000000000000000000000000606482015260840161097e565b6040805161024081018252835463ffffffff811682526001600160a01b0364010000000090910481166020808401919091526001860154821683850152600286015490911660608301526003850180548451818402810184019095528085526144a39487936080860193919290830182828015612e62576020028201919060005260206000209081546001600160a01b03168152600190910190602001808311612e44575050505050815260200160048201805480602002602001604051908101604052809291908181526020018280548015612ec4576020028201919060005260206000209081546001600160a01b03168152600190910190602001808311612ea6575050505050815260200160058201805480602002602001604051908101604052809291908181526020018280548015612f48576000918252602091829020805463ffffffff168452908202830192909160049101808411612f0b5790505050505050815260200160068201548152602001600782015481526020016008820154815260200160098201548152602001600a8201548152602001600b8201548152602001600c8201548152602001600d8201548152602001600e8201548152602001600f820160009054906101000a900460ff1615151515815260200160108201805480602002602001604051908101604052809291908181526020018280548015613041576000918252602091829020805463ffffffff168452908202830192909160049101808411613004579050505050505081525050613e95565b614ae8576001600160a01b0386166146a857604080516001600160a01b038881168252871660208201526060818301819052603a908201527f5a65726f20616464726573732063616e6e6f742062652072656665727265722e60808201527f2053657474696e672064656661756c742072656665727265722e00000000000060a082015290517f32df26c7e54a821624fc8d22e1171e5793b90d1fccc483d3ff277b9c42bb22399181900360c00190a16101085460ff16614626576000836001600160a01b031663b2e6b9126040518163ffffffff1660e01b8152600401602060405180830381865afa15801561459e573d6000803e3d6000fd5b505050506040513d601f19601f820116820180604052508101906145c2919061561d565b6002840180546001600160a01b0319166001600160a01b038381169182179092556040805191825291891660208201529192507fec49a3c8c4ae06c18160fe86119c381c9d213ac3e052ff35b594da8687b193c7910160405180910390a150614690565b6000614630612510565b6002840180546001600160a01b0319166001600160a01b038381169182179092556040805191825291891660208201529192507fec49a3c8c4ae06c18160fe86119c381c9d213ac3e052ff35b594da8687b193c7910160405180910390a1505b610108805460ff19811660ff90911615179055614704565b6002820180546001600160a01b0319166001600160a01b038881169182179092556040805191825291871660208201527fec49a3c8c4ae06c18160fe86119c381c9d213ac3e052ff35b594da8687b193c7910160405180910390a15b60005b8460ff168160ff161015614ae65760028301546001600160a01b031615614ae65760028301546001600160a01b03166000908152610106602052604081209060ff83169003614a565760038101805460018082018355600092835260209092200180546001600160a01b0319166001600160a01b038a811691909117909155908501541615614812576001840154604080516001600160a01b03928316815291891660208301526060828201819052601d908301527f5265666572656520616c7265616479206861766520696270207365742e0000006080830152517fffca51efd3fa9dd00c7ad8de67cce6deeb82e78db2d05fe4b84079eca71665109181900360a00190a1614a56565b60018101546001600160a01b03166149f5576001810154604080516001600160a01b039283168152918916602083015260608282018190526032908301527f5a65726f20616464726573732063616e6e6f74206265206962702e205365747460808301527f696e672075702064656661756c7420696270000000000000000000000000000060a0830152517fffca51efd3fa9dd00c7ad8de67cce6deeb82e78db2d05fe4b84079eca71665109181900360c00190a16000856001600160a01b031663b2e6b9126040518163ffffffff1660e01b8152600401602060405180830381865afa158015614907573d6000803e3d6000fd5b505050506040513d601f19601f8201168201806040525081019061492b919061561d565b600186810180546001600160a01b038481166001600160a01b0319928316811790935592860180549091168217905584546040805192835264010000000090910490921660208201529192507ef37bd73ff29ab549d774afc91445bf33292ed9a4b4b4177fb1e61ff3c58469910160405180910390a18454604080516001600160a01b03808516825264010000000090930490921660208301527ef37bd73ff29ab549d774afc91445bf33292ed9a4b4b4177fb1e61ff3c58469910160405180910390a150614a56565b6001818101805491860180546001600160a01b0319166001600160a01b039384161790555460408051918316825291891660208201527ef37bd73ff29ab549d774afc91445bf33292ed9a4b4b4177fb1e61ff3c58469910160405180910390a15b60048101805460018082018355600092835260209092200180546001600160a01b0319166001600160a01b038a161790556005820190614a97908490615657565b8154600181018355600092835260209092206008830401805463ffffffff60079094166004026101000a938402191660ff92909216909202179055925080614ade81615670565b915050614707565b505b505050505050565b614af981613cc7565b6040516001600160a01b038216907fbc7cd75a20ee27fd9adebab32041f755214dbc6bffa90cc0225b39da2e5c2d3b90600090a250565b60606001600160a01b0383163b614baf5760405162461bcd60e51b815260206004820152602660248201527f416464726573733a2064656c65676174652063616c6c20746f206e6f6e2d636f60448201527f6e74726163740000000000000000000000000000000000000000000000000000606482015260840161097e565b600080846001600160a01b031684604051614bca919061568f565b600060405180830381855af49150503d8060008114614c05576040519150601f19603f3d011682016040523d82523d6000602084013e614c0a565b606091505b5091509150614c3282826040518060600160405280602781526020016156df60279139614c3b565b95945050505050565b60608315614c4a575081612649565b6126498383815115614c5f5781518083602001fd5b8060405162461bcd60e51b815260040161097e91906156ab565b6001600160a01b0381168114610a7257600080fd5b600060208284031215614ca057600080fd5b813561264981614c79565b803563ffffffff81168114613eaf57600080fd5b60008060008060808587031215614cd557600080fd5b614cde85614cab565b9350614cec60208601614cab565b92506040850135614cfc81614c79565b91506060850135614d0c81614c79565b939692955090935050565b600081518084526020808501945080840160005b83811015614d4d57815163ffffffff1687529582019590820190600101614d2b565b509495945050505050565b8315158152606060208201526000614d736060830185614d17565b9050826040830152949350505050565b634e487b7160e01b600052604160045260246000fd5b60405160e0810167ffffffffffffffff81118282101715614dbc57614dbc614d83565b60405290565b604051601f8201601f1916810167ffffffffffffffff81118282101715614deb57614deb614d83565b604052919050565b600067ffffffffffffffff821115614e0d57614e0d614d83565b50601f01601f191660200190565b60008060408385031215614e2e57600080fd5b8235614e3981614c79565b9150602083013567ffffffffffffffff811115614e5557600080fd5b8301601f81018513614e6657600080fd5b8035614e79614e7482614df3565b614dc2565b818152866020838501011115614e8e57600080fd5b816020840160208301376000602083830101528093505050509250929050565b600080600060608486031215614ec357600080fd5b8335614ece81614c79565b92506020840135614ede81614c79565b929592945050506040919091013590565b60ff81168114610a7257600080fd5b600080600060608486031215614f1357600080fd5b8335614f1e81614c79565b92506020840135614f2e81614eef565b91506040840135614f3e81614c79565b809150509250925092565b600081518084526020808501945080840160005b83811015614d4d5781516001600160a01b031687529582019590820190600101614f5d565b6001600160a01b038716815260c060208201526000614fa460c0830188614f49565b8660408401528281036060840152614fbc8187614f49565b90508281036080840152614fd08186614d17565b9150508260a0830152979650505050505050565b60208152614ffb60208201835163ffffffff169052565b6000602083015161501760408401826001600160a01b03169052565b5060408301516001600160a01b03811660608401525060608301516001600160a01b03811660808401525060808301516102408060a085015261505e610260850183614f49565b915060a0850151601f19808685030160c087015261507c8483614f49565b935060c08701519150808685030160e08701526150998483614d17565b60e088015161010088810191909152880151610120808901919091528801516101408089019190915288015161016080890191909152880151610180808901919091528801516101a0808901919091528801516101c0808901919091528801516101e0808901919091528801516102008089019190915288015190945091506102206151288188018415159052565b8701518685039091018387015290506151418382614d17565b9695505050505050565b634e487b7160e01b600052601160045260246000fd5b818103818111156126145761261461514b565b600063ffffffff80831681810361518d5761518d61514b565b6001019392505050565b808201808211156126145761261461514b565b8051613eaf81614c79565b60005b838110156151d05781810151838201526020016151b8565b50506000910152565b600082601f8301126151ea57600080fd5b81516151f8614e7482614df3565b81815284602083860101111561520d57600080fd5b61521e8260208301602087016151b5565b949350505050565b8051613eaf81614eef565b80518015158114613eaf57600080fd5b60006020828403121561525357600080fd5b815167ffffffffffffffff8082111561526b57600080fd5b9083019060e0828603121561527f57600080fd5b615287614d99565b615290836151aa565b81526020830151828111156152a457600080fd5b6152b0878286016151d9565b6020830152506040830151828111156152c857600080fd5b6152d4878286016151d9565b6040830152506152e660608401615226565b60608201526152f760808401615231565b608082015261530860a084016151aa565b60a082015261531960c08401615231565b60c082015295945050505050565b60006020828403121561533957600080fd5b61264982615231565b80820281158282048414176126145761261461514b565b60006020828403121561536b57600080fd5b5051919050565b634e487b7160e01b600052601260045260246000fd5b60008261539757615397615372565b500690565b634e487b7160e01b600052603260045260246000fd5b600181815b808511156153ed5781600019048211156153d3576153d361514b565b808516156153e057918102915b93841c93908002906153b7565b509250929050565b60008261540457506001612614565b8161541157506000612614565b816001811461542757600281146154315761544d565b6001915050612614565b60ff8411156154425761544261514b565b50506001821b612614565b5060208310610133831016604e8410600b8410161715615470575081810a612614565b61547a83836153b2565b806000190482111561548e5761548e61514b565b029392505050565b600061264983836153f5565b6000826154b1576154b1615372565b500490565b6000602082840312156154c857600080fd5b815167ffffffffffffffff808211156154e057600080fd5b90830190608082860312156154f457600080fd5b60405160808101818110838211171561550f5761550f614d83565b604052825161551d81614eef565b815260208301518281111561553157600080fd5b61553d878286016151d9565b602083015250604083015160408201526060830151606082015280935050505092915050565b6000602080838503121561557657600080fd5b825167ffffffffffffffff8082111561558e57600080fd5b818501915085601f8301126155a257600080fd5b8151818111156155b4576155b4614d83565b8060051b91506155c5848301614dc2565b81815291830184019184810190888411156155df57600080fd5b938501935b83851015615611578451925061ffff831683146156015760008081fd5b82825293850193908501906155e4565b98975050505050505050565b60006020828403121561562f57600080fd5b815161264981614c79565b60006020828403121561564c57600080fd5b815161264981614eef565b60ff81811683821601908111156126145761261461514b565b600060ff821660ff81036156865761568661514b565b60010192915050565b600082516156a18184602087016151b5565b9190910192915050565b60208152600082518060208401526156ca8160408501602087016151b5565b601f01601f1916919091016040019291505056fe416464726573733a206c6f772d6c6576656c2064656c65676174652063616c6c206661696c6564a26469706673582212205ad36a40349bc0a422012a5a64ce26db6948616ed8424c2163a965cf0700c5e264736f6c63430008120033",
  "linkReferences": {},
  "deployedLinkReferences": {}
}