{
  "_format": "hh-sol-artifact-1",
  "contractName": "ReferralV1Upgradeable1",
  "sourceName": "contracts/RegisterV1Upgradeable.sol",
  "abi": [
    {
      "anonymous": false,
      "inputs": [
        {
          "indexed": false,
          "internalType": "address",
          "name": "previousAdmin",
          "type": "address"
        },
        {
          "indexed": false,
          "internalType": "address",
          "name": "newAdmin",
          "type": "address"
        }
      ],
      "name": "AdminChanged",
      "type": "event"
    },
    {
      "anonymous": false,
      "inputs": [
        {
          "indexed": true,
          "internalType": "address",
          "name": "beacon",
          "type": "address"
        }
      ],
      "name": "BeaconUpgraded",
      "type": "event"
    },
    {
      "anonymous": false,
      "inputs": [
        {
          "indexed": false,
          "internalType": "address",
          "name": "globalAddress",
          "type": "address"
        },
        {
          "indexed": false,
          "internalType": "address",
          "name": "userAddress",
          "type": "address"
        },
        {
          "indexed": false,
          "internalType": "uint256",
          "name": "registrationValue",
          "type": "uint256"
        },
        {
          "indexed": false,
          "internalType": "uint256",
          "name": "rewardValue",
          "type": "uint256"
        },
        {
          "indexed": false,
          "internalType": "uint16",
          "name": "rewardRate",
          "type": "uint16"
        },
        {
          "indexed": false,
          "internalType": "uint16",
          "name": "rewardRateDecimals",
          "type": "uint16"
        },
        {
          "indexed": false,
          "internalType": "string",
          "name": "reason",
          "type": "string"
        }
      ],
      "name": "GlobalRewardsNotPaid",
      "type": "event"
    },
    {
      "anonymous": false,
      "inputs": [
        {
          "indexed": false,
          "internalType": "address",
          "name": "globalAddress",
          "type": "address"
        },
        {
          "indexed": false,
          "internalType": "address",
          "name": "userAddress",
          "type": "address"
        },
        {
          "indexed": false,
          "internalType": "uint256",
          "name": "registrationValue",
          "type": "uint256"
        },
        {
          "indexed": false,
          "internalType": "uint256",
          "name": "rewardValue",
          "type": "uint256"
        },
        {
          "indexed": false,
          "internalType": "uint16",
          "name": "rewardRate",
          "type": "uint16"
        },
        {
          "indexed": false,
          "internalType": "uint16",
          "name": "rewardRateDecimals",
          "type": "uint16"
        }
      ],
      "name": "GlobalRewardsPaid",
      "type": "event"
    },
    {
      "anonymous": false,
      "inputs": [
        {
          "indexed": false,
          "internalType": "address",
          "name": "ibpAddress",
          "type": "address"
        },
        {
          "indexed": false,
          "internalType": "address",
          "name": "userAddress",
          "type": "address"
        }
      ],
      "name": "IBPAdded",
      "type": "event"
    },
    {
      "anonymous": false,
      "inputs": [
        {
          "indexed": false,
          "internalType": "address",
          "name": "ibpAddress",
          "type": "address"
        },
        {
          "indexed": false,
          "internalType": "address",
          "name": "userAddress",
          "type": "address"
        },
        {
          "indexed": false,
          "internalType": "string",
          "name": "reason",
          "type": "string"
        }
      ],
      "name": "IBPNotAdded",
      "type": "event"
    },
    {
      "anonymous": false,
      "inputs": [
        {
          "indexed": false,
          "internalType": "address",
          "name": "ibpAddress",
          "type": "address"
        },
        {
          "indexed": false,
          "internalType": "string",
          "name": "reason",
          "type": "string"
        }
      ],
      "name": "IBPRewardsNotPaid",
      "type": "event"
    },
    {
      "anonymous": false,
      "inputs": [
        {
          "indexed": false,
          "internalType": "address",
          "name": "ibpAddress",
          "type": "address"
        },
        {
          "indexed": false,
          "internalType": "address",
          "name": "userAddress",
          "type": "address"
        },
        {
          "indexed": false,
          "internalType": "uint256",
          "name": "businessValue",
          "type": "uint256"
        },
        {
          "indexed": false,
          "internalType": "uint256",
          "name": "rewardValue",
          "type": "uint256"
        },
        {
          "indexed": false,
          "internalType": "uint16",
          "name": "rewardRate",
          "type": "uint16"
        },
        {
          "indexed": false,
          "internalType": "uint16",
          "name": "rewardRateDecimals",
          "type": "uint16"
        }
      ],
      "name": "IBPRewardsPaid",
      "type": "event"
    },
    {
      "anonymous": false,
      "inputs": [
        {
          "indexed": false,
          "internalType": "uint8",
          "name": "version",
          "type": "uint8"
        }
      ],
      "name": "Initialized",
      "type": "event"
    },
    {
      "anonymous": false,
      "inputs": [
        {
          "indexed": false,
          "internalType": "address",
          "name": "userAddress",
          "type": "address"
        },
        {
          "indexed": false,
          "internalType": "string",
          "name": "reason",
          "type": "string"
        }
      ],
      "name": "NoRewardsPaid",
      "type": "event"
    },
    {
      "anonymous": false,
      "inputs": [
        {
          "indexed": true,
          "internalType": "address",
          "name": "previousOwner",
          "type": "address"
        },
        {
          "indexed": true,
          "internalType": "address",
          "name": "newOwner",
          "type": "address"
        }
      ],
      "name": "OwnershipTransferred",
      "type": "event"
    },
    {
      "anonymous": false,
      "inputs": [
        {
          "indexed": false,
          "internalType": "address",
          "name": "account",
          "type": "address"
        }
      ],
      "name": "Paused",
      "type": "event"
    },
    {
      "anonymous": false,
      "inputs": [
        {
          "indexed": false,
          "internalType": "address",
          "name": "referrerAddress",
          "type": "address"
        },
        {
          "indexed": false,
          "internalType": "address",
          "name": "userAddress",
          "type": "address"
        },
        {
          "indexed": false,
          "internalType": "uint256",
          "name": "value",
          "type": "uint256"
        },
        {
          "indexed": false,
          "internalType": "uint256",
          "name": "rewardValue",
          "type": "uint256"
        },
        {
          "indexed": false,
          "internalType": "uint256",
          "name": "rewardRate",
          "type": "uint256"
        },
        {
          "indexed": false,
          "internalType": "uint256",
          "name": "rewardRateDecimals",
          "type": "uint256"
        },
        {
          "indexed": false,
          "internalType": "uint32",
          "name": "level",
          "type": "uint32"
        }
      ],
      "name": "ReferralRewardsPaid",
      "type": "event"
    },
    {
      "anonymous": false,
      "inputs": [
        {
          "indexed": false,
          "internalType": "address",
          "name": "referrerAddress",
          "type": "address"
        },
        {
          "indexed": false,
          "internalType": "address",
          "name": "refereeAddress",
          "type": "address"
        }
      ],
      "name": "ReferrerAdded",
      "type": "event"
    },
    {
      "anonymous": false,
      "inputs": [
        {
          "indexed": false,
          "internalType": "address",
          "name": "referrerAddress",
          "type": "address"
        },
        {
          "indexed": false,
          "internalType": "address",
          "name": "refereeAddress",
          "type": "address"
        },
        {
          "indexed": false,
          "internalType": "string",
          "name": "reason",
          "type": "string"
        }
      ],
      "name": "ReferrerNotAdded",
      "type": "event"
    },
    {
      "anonymous": false,
      "inputs": [
        {
          "indexed": false,
          "internalType": "address",
          "name": "userAddress",
          "type": "address"
        },
        {
          "indexed": false,
          "internalType": "uint32",
          "name": "userId",
          "type": "uint32"
        },
        {
          "indexed": false,
          "internalType": "uint8",
          "name": "planId",
          "type": "uint8"
        },
        {
          "indexed": false,
          "internalType": "address",
          "name": "referrerAddress",
          "type": "address"
        }
      ],
      "name": "Registration",
      "type": "event"
    },
    {
      "anonymous": false,
      "inputs": [
        {
          "indexed": false,
          "internalType": "address",
          "name": "parentAddress",
          "type": "address"
        },
        {
          "indexed": false,
          "internalType": "address",
          "name": "referrerAddress",
          "type": "address"
        },
        {
          "indexed": false,
          "internalType": "address",
          "name": "refereeAddress",
          "type": "address"
        },
        {
          "indexed": false,
          "internalType": "uint32",
          "name": "level",
          "type": "uint32"
        }
      ],
      "name": "TeamAddressAdded",
      "type": "event"
    },
    {
      "anonymous": false,
      "inputs": [
        {
          "indexed": false,
          "internalType": "address",
          "name": "account",
          "type": "address"
        }
      ],
      "name": "Unpaused",
      "type": "event"
    },
    {
      "anonymous": false,
      "inputs": [
        {
          "indexed": true,
          "internalType": "address",
          "name": "implementation",
          "type": "address"
        }
      ],
      "name": "Upgraded",
      "type": "event"
    },
    {
      "anonymous": false,
      "inputs": [
        {
          "indexed": false,
          "internalType": "address",
          "name": "globalAddress",
          "type": "address"
        },
        {
          "indexed": false,
          "internalType": "uint256",
          "name": "rewardValue",
          "type": "uint256"
        }
      ],
      "name": "WeeklyRewardsPaid",
      "type": "event"
    },
    {
      "inputs": [
        {
          "internalType": "address",
          "name": "_userAddress",
          "type": "address"
        },
        {
          "internalType": "address",
          "name": "_ibpAddress",
          "type": "address"
        },
        {
          "internalType": "uint256",
          "name": "_maxLimitInDecimals",
          "type": "uint256"
        }
      ],
      "name": "addIbpToAddressAdmin",
      "outputs": [],
      "stateMutability": "nonpayable",
      "type": "function"
    },
    {
      "inputs": [
        {
          "internalType": "address",
          "name": "_referrer",
          "type": "address"
        },
        {
          "internalType": "address",
          "name": "_user",
          "type": "address"
        }
      ],
      "name": "changeReferrer",
      "outputs": [],
      "stateMutability": "nonpayable",
      "type": "function"
    },
    {
      "inputs": [
        {
          "internalType": "address",
          "name": "_tokenAddress",
          "type": "address"
        }
      ],
      "name": "distributeWeeklyReward",
      "outputs": [
        {
          "internalType": "address",
          "name": "",
          "type": "address"
        }
      ],
      "stateMutability": "nonpayable",
      "type": "function"
    },
    {
      "inputs": [],
      "name": "getRegistrationsStats",
      "outputs": [
        {
          "internalType": "uint32",
          "name": "totalUser",
          "type": "uint32"
        },
        {
          "internalType": "uint256",
          "name": "totalRegistrationValue",
          "type": "uint256"
        },
        {
          "internalType": "uint256",
          "name": "totalReferralPaid",
          "type": "uint256"
        },
        {
          "internalType": "uint256",
          "name": "totalGlobalRewardsPaid",
          "type": "uint256"
        },
        {
          "internalType": "uint256",
          "name": "totalWeeklyRewardsPaid",
          "type": "uint256"
        },
        {
          "internalType": "uint256",
          "name": "totalCoreMembershipRewardPaid",
          "type": "uint256"
        },
        {
          "internalType": "uint256",
          "name": "totalIbpRewardsPaid",
          "type": "uint256"
        }
      ],
      "stateMutability": "view",
      "type": "function"
    },
    {
      "inputs": [
        {
          "internalType": "address",
          "name": "_userAddress",
          "type": "address"
        }
      ],
      "name": "getUserAccount",
      "outputs": [
        {
          "components": [
            {
              "internalType": "uint32",
              "name": "userId",
              "type": "uint32"
            },
            {
              "internalType": "address",
              "name": "selfAddress",
              "type": "address"
            },
            {
              "internalType": "address",
              "name": "ibpAddress",
              "type": "address"
            },
            {
              "internalType": "address",
              "name": "referrerAddress",
              "type": "address"
            },
            {
              "internalType": "address[]",
              "name": "refereeAddresses",
              "type": "address[]"
            },
            {
              "internalType": "address[]",
              "name": "teamAddress",
              "type": "address[]"
            },
            {
              "internalType": "uint32[]",
              "name": "teamLevels",
              "type": "uint32[]"
            },
            {
              "internalType": "uint256",
              "name": "selfBusiness",
              "type": "uint256"
            },
            {
              "internalType": "uint256",
              "name": "directBusiness",
              "type": "uint256"
            },
            {
              "internalType": "uint256",
              "name": "teamBusiness",
              "type": "uint256"
            },
            {
              "internalType": "uint256",
              "name": "maxLimit",
              "type": "uint256"
            },
            {
              "internalType": "uint256",
              "name": "currentLimit",
              "type": "uint256"
            },
            {
              "internalType": "uint256",
              "name": "referralRewards",
              "type": "uint256"
            },
            {
              "internalType": "uint256",
              "name": "globalRewards",
              "type": "uint256"
            },
            {
              "internalType": "uint256",
              "name": "weeklyRewards",
              "type": "uint256"
            },
            {
              "internalType": "uint256",
              "name": "ibpRewards",
              "type": "uint256"
            },
            {
              "internalType": "bool",
              "name": "isGlobal",
              "type": "bool"
            },
            {
              "internalType": "uint32[]",
              "name": "globalIndexes",
              "type": "uint32[]"
            }
          ],
          "internalType": "struct AccountStruct",
          "name": "",
          "type": "tuple"
        }
      ],
      "stateMutability": "view",
      "type": "function"
    },
    {
      "inputs": [
        {
          "internalType": "address",
          "name": "_userAddress",
          "type": "address"
        }
      ],
      "name": "getUserBusiness",
      "outputs": [
        {
          "internalType": "uint256",
          "name": "selfBusiness",
          "type": "uint256"
        },
        {
          "internalType": "uint256",
          "name": "directBusiness",
          "type": "uint256"
        },
        {
          "internalType": "uint256",
          "name": "teamBusiness",
          "type": "uint256"
        },
        {
          "internalType": "uint256",
          "name": "totalBusiness",
          "type": "uint256"
        }
      ],
      "stateMutability": "view",
      "type": "function"
    },
    {
      "inputs": [
        {
          "internalType": "address",
          "name": "_userAddress",
          "type": "address"
        }
      ],
      "name": "getUserIbpAddress",
      "outputs": [
        {
          "internalType": "address",
          "name": "",
          "type": "address"
        }
      ],
      "stateMutability": "view",
      "type": "function"
    },
    {
      "inputs": [
        {
          "internalType": "address",
          "name": "_userAddress",
          "type": "address"
        }
      ],
      "name": "getUserLimit",
      "outputs": [
        {
          "internalType": "uint256",
          "name": "maxLimit",
          "type": "uint256"
        },
        {
          "internalType": "uint256",
          "name": "currentLimit",
          "type": "uint256"
        },
        {
          "internalType": "uint256",
          "name": "limitRemaingvalue",
          "type": "uint256"
        }
      ],
      "stateMutability": "view",
      "type": "function"
    },
    {
      "inputs": [
        {
          "internalType": "address",
          "name": "_userAddress",
          "type": "address"
        }
      ],
      "name": "getUserRewards",
      "outputs": [
        {
          "internalType": "uint256",
          "name": "referralReward",
          "type": "uint256"
        },
        {
          "internalType": "uint256",
          "name": "globalReward",
          "type": "uint256"
        },
        {
          "internalType": "uint256",
          "name": "weeklyReward",
          "type": "uint256"
        },
        {
          "internalType": "uint256",
          "name": "ibpReward",
          "type": "uint256"
        },
        {
          "internalType": "uint256",
          "name": "totalIncome",
          "type": "uint256"
        }
      ],
      "stateMutability": "view",
      "type": "function"
    },
    {
      "inputs": [
        {
          "internalType": "address",
          "name": "_userAddress",
          "type": "address"
        }
      ],
      "name": "getUserTeam",
      "outputs": [
        {
          "internalType": "address",
          "name": "referrer",
          "type": "address"
        },
        {
          "internalType": "address[]",
          "name": "referees",
          "type": "address[]"
        },
        {
          "internalType": "uint256",
          "name": "refereeCount",
          "type": "uint256"
        },
        {
          "internalType": "address[]",
          "name": "team",
          "type": "address[]"
        },
        {
          "internalType": "uint32[]",
          "name": "teamLevels",
          "type": "uint32[]"
        },
        {
          "internalType": "uint256",
          "name": "teamCount",
          "type": "uint256"
        }
      ],
      "stateMutability": "view",
      "type": "function"
    },
    {
      "inputs": [],
      "name": "getVariablesContract",
      "outputs": [
        {
          "internalType": "address",
          "name": "",
          "type": "address"
        }
      ],
      "stateMutability": "view",
      "type": "function"
    },
    {
      "inputs": [],
      "name": "getWeeklyRewardToBeDistributed",
      "outputs": [
        {
          "internalType": "uint256",
          "name": "",
          "type": "uint256"
        }
      ],
      "stateMutability": "view",
      "type": "function"
    },
    {
      "inputs": [],
      "name": "getWeeklyRewardsRemainTime",
      "outputs": [
        {
          "internalType": "uint256",
          "name": "",
          "type": "uint256"
        }
      ],
      "stateMutability": "view",
      "type": "function"
    },
    {
      "inputs": [],
      "name": "initialize",
      "outputs": [],
      "stateMutability": "nonpayable",
      "type": "function"
    },
    {
      "inputs": [
        {
          "internalType": "address",
          "name": "_userAddress",
          "type": "address"
        }
      ],
      "name": "isUserInGlobalList",
      "outputs": [
        {
          "internalType": "bool",
          "name": "isInList",
          "type": "bool"
        },
        {
          "internalType": "uint32[]",
          "name": "indexes",
          "type": "uint32[]"
        },
        {
          "internalType": "uint256",
          "name": "totalGlobalIds",
          "type": "uint256"
        }
      ],
      "stateMutability": "view",
      "type": "function"
    },
    {
      "inputs": [],
      "name": "owner",
      "outputs": [
        {
          "internalType": "address",
          "name": "",
          "type": "address"
        }
      ],
      "stateMutability": "view",
      "type": "function"
    },
    {
      "inputs": [],
      "name": "pause",
      "outputs": [],
      "stateMutability": "nonpayable",
      "type": "function"
    },
    {
      "inputs": [],
      "name": "paused",
      "outputs": [
        {
          "internalType": "bool",
          "name": "",
          "type": "bool"
        }
      ],
      "stateMutability": "view",
      "type": "function"
    },
    {
      "inputs": [],
      "name": "proxiableUUID",
      "outputs": [
        {
          "internalType": "bytes32",
          "name": "",
          "type": "bytes32"
        }
      ],
      "stateMutability": "view",
      "type": "function"
    },
    {
      "inputs": [
        {
          "internalType": "address",
          "name": "_userAddress",
          "type": "address"
        }
      ],
      "name": "pushAddressToGlobal",
      "outputs": [],
      "stateMutability": "nonpayable",
      "type": "function"
    },
    {
      "inputs": [
        {
          "internalType": "address",
          "name": "_referrer",
          "type": "address"
        },
        {
          "internalType": "uint8",
          "name": "_planId",
          "type": "uint8"
        },
        {
          "internalType": "address",
          "name": "_tokenAddress",
          "type": "address"
        }
      ],
      "name": "registrationWithToken",
      "outputs": [],
      "stateMutability": "nonpayable",
      "type": "function"
    },
    {
      "inputs": [
        {
          "internalType": "address",
          "name": "_referrer",
          "type": "address"
        },
        {
          "internalType": "address",
          "name": "_userAddress",
          "type": "address"
        },
        {
          "internalType": "uint8",
          "name": "_planId",
          "type": "uint8"
        },
        {
          "internalType": "address",
          "name": "_tokenAddress",
          "type": "address"
        }
      ],
      "name": "registrationWithTokenAdmin",
      "outputs": [],
      "stateMutability": "nonpayable",
      "type": "function"
    },
    {
      "inputs": [
        {
          "internalType": "address",
          "name": "_userAddress",
          "type": "address"
        }
      ],
      "name": "removeIbpFromAddressAdmin",
      "outputs": [],
      "stateMutability": "nonpayable",
      "type": "function"
    },
    {
      "inputs": [],
      "name": "renounceOwnership",
      "outputs": [],
      "stateMutability": "nonpayable",
      "type": "function"
    },
    {
      "inputs": [
        {
          "internalType": "address",
          "name": "_contractAddress",
          "type": "address"
        }
      ],
      "name": "setVariablesContract",
      "outputs": [],
      "stateMutability": "nonpayable",
      "type": "function"
    },
    {
      "inputs": [
        {
          "internalType": "address",
          "name": "newOwner",
          "type": "address"
        }
      ],
      "name": "transferOwnership",
      "outputs": [],
      "stateMutability": "nonpayable",
      "type": "function"
    },
    {
      "inputs": [],
      "name": "unpause",
      "outputs": [],
      "stateMutability": "nonpayable",
      "type": "function"
    },
    {
      "inputs": [
        {
          "internalType": "address",
          "name": "newImplementation",
          "type": "address"
        }
      ],
      "name": "upgradeTo",
      "outputs": [],
      "stateMutability": "nonpayable",
      "type": "function"
    },
    {
      "inputs": [
        {
          "internalType": "address",
          "name": "newImplementation",
          "type": "address"
        },
        {
          "internalType": "bytes",
          "name": "data",
          "type": "bytes"
        }
      ],
      "name": "upgradeToAndCall",
      "outputs": [],
      "stateMutability": "payable",
      "type": "function"
    },
    {
      "stateMutability": "payable",
      "type": "receive"
    }
  ],
  "bytecode": "0x60a06040523060805234801561001457600080fd5b50608051615d336200004d60003960008181610a0a01528181610a9401528181610ee901528181610f6e01526110580152615d336000f3fe6080604052600436106101c65760003560e01c8063846688f7116100f7578063df10817611610095578063f2fde38b11610064578063f2fde38b14610572578063f87127b414610592578063faeda7e5146105d2578063fb47e0161461060457600080fd5b8063df108176146104d9578063e6f6769e146104f9578063e9587e8614610519578063f13a143f1461055457600080fd5b8063986992fa116100d1578063986992fa14610464578063aa8d713a14610479578063b1e0c09014610499578063d277b8a9146104b957600080fd5b8063846688f7146103e05780638da5cb5b146103f5578063967012eb1461042757600080fd5b80633f4ba83a116101645780635c975abb1161013e5780635c975abb1461037e578063715018a6146103a15780638129fc1c146103b65780638456cb59146103cb57600080fd5b80633f4ba83a146103335780634f1ef2861461034857806352d1902d1461035b57600080fd5b806313bc9a59116101a057806313bc9a59146102a45780633659cfe6146102c45780633b38bf72146102e45780633ef575e91461030457600080fd5b80630690c6a8146101d2578063078b0fb71461023a5780630ba0dba31461028257600080fd5b366101cd57005b600080fd5b3480156101de57600080fd5b5060fd5460fe5461010154610102546101035461010454610105546040805163ffffffff90981688526020880196909652948601939093526060850191909152608084015260a083015260c082015260e0015b60405180910390f35b34801561024657600080fd5b5061025a61025536600461525d565b610631565b604080519586526020860194909452928401919091526060830152608082015260a001610231565b34801561028e57600080fd5b506102a261029d36600461525d565b610903565b005b3480156102b057600080fd5b506102a26102bf36600461525d565b61092d565b3480156102d057600080fd5b506102a26102df36600461525d565b610a00565b3480156102f057600080fd5b506102a26102ff36600461527a565b610b80565b34801561031057600080fd5b5061032461031f36600461525d565b610c01565b604051610231939291906152f4565b34801561033f57600080fd5b506102a2610ecd565b6102a26103563660046153b7565b610edf565b34801561036757600080fd5b5061037061104b565b604051908152602001610231565b34801561038a57600080fd5b5060335460ff166040519015158152602001610231565b3480156103ad57600080fd5b506102a2611110565b3480156103c257600080fd5b506102a2611122565b3480156103d757600080fd5b506102a261127d565b3480156103ec57600080fd5b5060ff54610370565b34801561040157600080fd5b506065546001600160a01b03165b6040516001600160a01b039091168152602001610231565b34801561043357600080fd5b5061040f61044236600461525d565b6001600160a01b03908116600090815261010660205260409020600101541690565b34801561047057600080fd5b5061037061128d565b34801561048557600080fd5b506102a261049436600461525d565b6112c6565b3480156104a557600080fd5b506102a26104b4366004615459565b611436565b3480156104c557600080fd5b5061040f6104d436600461525d565b611545565b3480156104e557600080fd5b506102a26104f43660046154b5565b611767565b34801561050557600080fd5b506102a26105143660046154f6565b61182b565b34801561052557600080fd5b5061053961053436600461525d565b611838565b60408051938452602084019290925290820152606001610231565b34801561056057600080fd5b5060fb546001600160a01b031661040f565b34801561057e57600080fd5b506102a261058d36600461525d565b611aff565b34801561059e57600080fd5b506105b26105ad36600461525d565b611b8c565b604080519485526020850193909352918301526060820152608001610231565b3480156105de57600080fd5b506105f26105ed36600461525d565b611e5e565b6040516102319695949392919061557a565b34801561061057600080fd5b5061062461061f36600461525d565b612138565b60405161023191906155dc565b6001600160a01b03808216600090815261010660209081526040808320815161024081018352815463ffffffff811682526401000000009004861681850152600182015486168184015260028201549095166060860152600381018054835181860281018601909452808452949586958695869586958695909360808601938301828280156106e957602002820191906000526020600020905b81546001600160a01b031681526001909101906020018083116106cb575b505050505081526020016004820180548060200260200160405190810160405280929190818152602001828054801561074b57602002820191906000526020600020905b81546001600160a01b0316815260019091019060200180831161072d575b50505050508152602001600582018054806020026020016040519081016040528092919081815260200182805480156107cf57602002820191906000526020600020906000905b82829054906101000a900463ffffffff1663ffffffff16815260200190600401906020826003010492830192600103820291508084116107925790505b5050505050815260200160068201548152602001600782015481526020016008820154815260200160098201548152602001600a8201548152602001600b8201548152602001600c8201548152602001600d8201548152602001600e8201548152602001600f820160009054906101000a900460ff16151515158152602001601082018054806020026020016040519081016040528092919081815260200182805480156108c857602002820191906000526020600020906000905b82829054906101000a900463ffffffff1663ffffffff168152602001906004019060208260030104928301926001038202915080841161088b5790505b505050919092525050506101808101516101a08201516101c08301516101e084015161016090940151929b919a509850919650945092505050565b61090b612488565b60fb80546001600160a01b0319166001600160a01b0392909216919091179055565b610935612488565b6001600160a01b038116600090815261010660205260409020600f8101805460ff1916600190811790915560fc546010909201916109739190615759565b8154600180820184556000938452602084206008830401805460079093166004026101000a63ffffffff81810219909416949093169290920292909217905560fc805491820181559091527f371f36870d18f32a11fea0f144b021c8b407bb50f8e0267c711123f454b963c00180546001600160a01b0319166001600160a01b0392909216919091179055565b6001600160a01b037f0000000000000000000000000000000000000000000000000000000000000000163003610a925760405162461bcd60e51b815260206004820152602c60248201527f46756e6374696f6e206d7573742062652063616c6c6564207468726f7567682060448201526b19195b1959d85d1958d85b1b60a21b60648201526084015b60405180910390fd5b7f00000000000000000000000000000000000000000000000000000000000000006001600160a01b0316610aed7f360894a13ba1a3210667c828492db98dca3e2076cc3735a920a3ca505d382bbc546001600160a01b031690565b6001600160a01b031614610b585760405162461bcd60e51b815260206004820152602c60248201527f46756e6374696f6e206d7573742062652063616c6c6564207468726f7567682060448201526b6163746976652070726f787960a01b6064820152608401610a89565b610b61816124e2565b60408051600080825260208201909252610b7d918391906124ea565b50565b610b88612488565b6001600160a01b039081166000818152610106602090815260408083206002018054959096166001600160a01b0319958616811790965594825293812060038101805460018181018355918452868420018054861685179055600490910180549182018155825293902090920180549091169091179055565b6001600160a01b03808216600090815261010660209081526040808320815161024081018352815463ffffffff811682526401000000009004861681850152600182015486168184015260028201549095166060868101919091526003820180548451818702810187019095528085529596919587958695939493608086019390929091830182828015610cbe57602002820191906000526020600020905b81546001600160a01b03168152600190910190602001808311610ca0575b5050505050815260200160048201805480602002602001604051908101604052809291908181526020018280548015610d2057602002820191906000526020600020905b81546001600160a01b03168152600190910190602001808311610d02575b5050505050815260200160058201805480602002602001604051908101604052809291908181526020018280548015610da457602002820191906000526020600020906000905b82829054906101000a900463ffffffff1663ffffffff1681526020019060040190602082600301049283019260010382029150808411610d675790505b5050505050815260200160068201548152602001600782015481526020016008820154815260200160098201548152602001600a8201548152602001600b8201548152602001600c8201548152602001600d8201548152602001600e8201548152602001600f820160009054906101000a900460ff1615151515815260200160108201805480602002602001604051908101604052809291908181526020018280548015610e9d57602002820191906000526020600020906000905b82829054906101000a900463ffffffff1663ffffffff1681526020019060040190602082600301049283019260010382029150808411610e605790505b50505050508152505090506000816102200151511115610ebc57600193505b610220015180519395909450915050565b610ed5612488565b610edd61268f565b565b6001600160a01b037f0000000000000000000000000000000000000000000000000000000000000000163003610f6c5760405162461bcd60e51b815260206004820152602c60248201527f46756e6374696f6e206d7573742062652063616c6c6564207468726f7567682060448201526b19195b1959d85d1958d85b1b60a21b6064820152608401610a89565b7f00000000000000000000000000000000000000000000000000000000000000006001600160a01b0316610fc77f360894a13ba1a3210667c828492db98dca3e2076cc3735a920a3ca505d382bbc546001600160a01b031690565b6001600160a01b0316146110325760405162461bcd60e51b815260206004820152602c60248201527f46756e6374696f6e206d7573742062652063616c6c6564207468726f7567682060448201526b6163746976652070726f787960a01b6064820152608401610a89565b61103b826124e2565b611047828260016124ea565b5050565b6000306001600160a01b037f000000000000000000000000000000000000000000000000000000000000000016146110eb5760405162461bcd60e51b815260206004820152603860248201527f555550535570677261646561626c653a206d757374206e6f742062652063616c60448201527f6c6564207468726f7567682064656c656761746563616c6c00000000000000006064820152608401610a89565b507f360894a13ba1a3210667c828492db98dca3e2076cc3735a920a3ca505d382bbc90565b611118612488565b610edd60006126e1565b600054610100900460ff16158080156111425750600054600160ff909116105b8061115c5750303b15801561115c575060005460ff166001145b6111ce5760405162461bcd60e51b815260206004820152602e60248201527f496e697469616c697a61626c653a20636f6e747261637420697320616c72656160448201527f647920696e697469616c697a65640000000000000000000000000000000000006064820152608401610a89565b6000805460ff1916600117905580156111f1576000805461ff0019166101001790555b60fb80546001600160a01b03191673494549e00fe6598e3dc93254c5377c406dda85791790554261010055611224612733565b61122c6127a6565b611234612819565b8015610b7d576000805461ff0019169055604051600181527f7f26b83ff96e1f2b6a682f133852f6798a09c465da95921460cefb3847402498906020015b60405180910390a150565b611285612488565b610edd612884565b6000806101005462093a806112a2919061576c565b9050428181106112b55760009250505090565b6112bf8183615759565b9250505090565b6112ce612488565b60fb60009054906101000a90046001600160a01b03166001600160a01b031663b2e6b9126040518163ffffffff1660e01b8152600401602060405180830381865afa158015611321573d6000803e3d6000fd5b505050506040513d601f19601f82011682018060405250810190611345919061578a565b6001600160a01b038281166000908152610106602090815260409182902060010180546001600160a01b0319169484169490941790935560fb5481517fb2e6b91200000000000000000000000000000000000000000000000000000000815291517ef37bd73ff29ab549d774afc91445bf33292ed9a4b4b4177fb1e61ff3c5846994919093169263b2e6b9129260048082019392918290030181865afa1580156113f3573d6000803e3d6000fd5b505050506040513d601f19601f82011682018060405250810190611417919061578a565b604080516001600160a01b039283168152918416602083015201611272565b60fb60009054906101000a90046001600160a01b03166001600160a01b031663f1012b456040518163ffffffff1660e01b8152600401602060405180830381865afa158015611489573d6000803e3d6000fd5b505050506040513d601f19601f820116820180604052508101906114ad919061578a565b6001600160a01b0316336001600160a01b0316146115335760405162461bcd60e51b815260206004820152602b60248201527f4f6e6c792050726573616c6520636f6e74726163742063616e2075736520746860448201527f69732066756e6374696f6e0000000000000000000000000000000000000000006064820152608401610a89565b61153f848484846128c1565b50505050565b6000806101005462093a8061155a919061576c565b905042818110156115ad5760405162461bcd60e51b815260206004820152601c60248201527f5765656b6c792074696d65206973206e6f74206f766572207965742e000000006044820152606401610a89565b60006115b7614444565b6040516370a0823160e01b81523060048201529091506000906001600160a01b038716906370a0823190602401602060405180830381865afa158015611601573d6000803e3d6000fd5b505050506040513d601f19601f8201168201806040525081019061162591906157a7565b60ff54909150808210156116a15760405162461bcd60e51b815260206004820152603760248201527f436f6e74726163742068617320696e73756666696369656e742062616c616e6360448201527f6520746f2064697374726962757465207265776172642e0000000000000000006064820152608401610a89565b60405163a9059cbb60e01b81526001600160a01b0384811660048301526024820183905288169063a9059cbb906044016020604051808303816000875af11580156116f0573d6000803e3d6000fd5b505050506040513d601f19601f8201168201806040525081019061171491906157d0565b50600060ff55604080516001600160a01b0385168152602081018390527ffff6edc60fd30afefcc47525cdf85502200830b22550391f79f9e383df03afad910160405180910390a1509095945050505050565b61176f612488565b6001600160a01b0383811660009081526101066020526040902060010180546001600160a01b0319169184169190911790556117b381670de0b6b3a76400006157eb565b6001600160a01b03841660009081526101066020526040812060090180549091906117df90849061576c565b9091555050604080516001600160a01b038085168252851660208201527ef37bd73ff29ab549d774afc91445bf33292ed9a4b4b4177fb1e61ff3c58469910160405180910390a1505050565b3361153f848285856128c1565b6001600160a01b03808216600090815261010660209081526040808320815161024081018352815463ffffffff811682526401000000009004861681850152600182015486168184015260028201549095166060860152600381018054835181860281018601909452808452949586958695869592949360808601939290918301828280156118f057602002820191906000526020600020905b81546001600160a01b031681526001909101906020018083116118d2575b505050505081526020016004820180548060200260200160405190810160405280929190818152602001828054801561195257602002820191906000526020600020905b81546001600160a01b03168152600190910190602001808311611934575b50505050508152602001600582018054806020026020016040519081016040528092919081815260200182805480156119d657602002820191906000526020600020906000905b82829054906101000a900463ffffffff1663ffffffff16815260200190600401906020826003010492830192600103820291508084116119995790505b5050505050815260200160068201548152602001600782015481526020016008820154815260200160098201548152602001600a8201548152602001600b8201548152602001600c8201548152602001600d8201548152602001600e8201548152602001600f820160009054906101000a900460ff1615151515815260200160108201805480602002602001604051908101604052809291908181526020018280548015611acf57602002820191906000526020600020906000905b82829054906101000a900463ffffffff1663ffffffff1681526020019060040190602082600301049283019260010382029150808411611a925790505b5050509190925250505061014081015161016082015190955093509050611af68385615759565b93959294505050565b611b07612488565b6001600160a01b038116611b835760405162461bcd60e51b815260206004820152602660248201527f4f776e61626c653a206e6577206f776e657220697320746865207a65726f206160448201527f64647265737300000000000000000000000000000000000000000000000000006064820152608401610a89565b610b7d816126e1565b6001600160a01b03808216600090815261010660209081526040808320815161024081018352815463ffffffff81168252640100000000900486168185015260018201548616818401526002820154909516606086015260038101805483518186028101860190945280845294958695869586958695939460808601939192909190830182828015611c4757602002820191906000526020600020905b81546001600160a01b03168152600190910190602001808311611c29575b5050505050815260200160048201805480602002602001604051908101604052809291908181526020018280548015611ca957602002820191906000526020600020905b81546001600160a01b03168152600190910190602001808311611c8b575b5050505050815260200160058201805480602002602001604051908101604052809291908181526020018280548015611d2d57602002820191906000526020600020906000905b82829054906101000a900463ffffffff1663ffffffff1681526020019060040190602082600301049283019260010382029150808411611cf05790505b5050505050815260200160068201548152602001600782015481526020016008820154815260200160098201548152602001600a8201548152602001600b8201548152602001600c8201548152602001600d8201548152602001600e8201548152602001600f820160009054906101000a900460ff1615151515815260200160108201805480602002602001604051908101604052809291908181526020018280548015611e2657602002820191906000526020600020906000905b82829054906101000a900463ffffffff1663ffffffff1681526020019060040190602082600301049283019260010382029150808411611de95790505b5050509190925250505060e0810151610100820151610120830151919750955093509050611e54858461576c565b9150509193509193565b6001600160a01b03808216600090815261010660209081526040808320815161024081018352815463ffffffff8116825264010000000090048616818501526001820154861681840152600282015490951660608681019190915260038201805484518187028101870190955280855295969195879587958695889586959094919360808601939290830182828015611f2057602002820191906000526020600020905b81546001600160a01b03168152600190910190602001808311611f02575b5050505050815260200160048201805480602002602001604051908101604052809291908181526020018280548015611f8257602002820191906000526020600020905b81546001600160a01b03168152600190910190602001808311611f64575b505050505081526020016005820180548060200260200160405190810160405280929190818152602001828054801561200657602002820191906000526020600020906000905b82829054906101000a900463ffffffff1663ffffffff1681526020019060040190602082600301049283019260010382029150808411611fc95790505b5050505050815260200160068201548152602001600782015481526020016008820154815260200160098201548152602001600a8201548152602001600b8201548152602001600c8201548152602001600d8201548152602001600e8201548152602001600f820160009054906101000a900460ff16151515158152602001601082018054806020026020016040519081016040528092919081815260200182805480156120ff57602002820191906000526020600020906000905b82829054906101000a900463ffffffff1663ffffffff16815260200190600401906020826003010492830192600103820291508084116120c25790505b5050509190925250505060608101516080820151805160a084015160c0909401518451939d929c50909a50929850919650945092505050565b6121e9604051806102400160405280600063ffffffff16815260200160006001600160a01b0316815260200160006001600160a01b0316815260200160006001600160a01b03168152602001606081526020016060815260200160608152602001600081526020016000815260200160008152602001600081526020016000815260200160008152602001600081526020016000815260200160008152602001600015158152602001606081525090565b6001600160a01b0380831660009081526101066020908152604091829020825161024081018452815463ffffffff8116825264010000000090048516818401526001820154851681850152600282015490941660608501526003810180548451818502810185019095528085529193608086019390929083018282801561229957602002820191906000526020600020905b81546001600160a01b0316815260019091019060200180831161227b575b50505050508152602001600482018054806020026020016040519081016040528092919081815260200182805480156122fb57602002820191906000526020600020905b81546001600160a01b031681526001909101906020018083116122dd575b505050505081526020016005820180548060200260200160405190810160405280929190818152602001828054801561237f57602002820191906000526020600020906000905b82829054906101000a900463ffffffff1663ffffffff16815260200190600401906020826003010492830192600103820291508084116123425790505b5050505050815260200160068201548152602001600782015481526020016008820154815260200160098201548152602001600a8201548152602001600b8201548152602001600c8201548152602001600d8201548152602001600e8201548152602001600f820160009054906101000a900460ff161515151581526020016010820180548060200260200160405190810160405280929190818152602001828054801561247857602002820191906000526020600020906000905b82829054906101000a900463ffffffff1663ffffffff168152602001906004019060208260030104928301926001038202915080841161243b5790505b5050505050815250509050919050565b6065546001600160a01b03163314610edd5760405162461bcd60e51b815260206004820181905260248201527f4f776e61626c653a2063616c6c6572206973206e6f7420746865206f776e65726044820152606401610a89565b610b7d612488565b7f4910fdfa16fed3260ed0e7147f7cc6da11a60208b5b9406d12a635614ffd91435460ff16156125225761251d836144cb565b505050565b826001600160a01b03166352d1902d6040518163ffffffff1660e01b8152600401602060405180830381865afa92505050801561257c575060408051601f3d908101601f19168201909252612579918101906157a7565b60015b6125ee5760405162461bcd60e51b815260206004820152602e60248201527f45524331393637557067726164653a206e657720696d706c656d656e7461746960448201527f6f6e206973206e6f7420555550530000000000000000000000000000000000006064820152608401610a89565b7f360894a13ba1a3210667c828492db98dca3e2076cc3735a920a3ca505d382bbc81146126835760405162461bcd60e51b815260206004820152602960248201527f45524331393637557067726164653a20756e737570706f727465642070726f7860448201527f6961626c655555494400000000000000000000000000000000000000000000006064820152608401610a89565b5061251d838383614589565b6126976145ae565b6033805460ff191690557f5db9ee0a495bf2e6ff9c91a7834c1ba4fdd244a5e8aa4e537bd38aeae4b073aa335b6040516001600160a01b03909116815260200160405180910390a1565b606580546001600160a01b038381166001600160a01b0319831681179093556040519116919082907f8be0079c531659141344cd1fd0a4f28419497f9722a3daafe3b4186f6b6457e090600090a35050565b600054610100900460ff1661279e5760405162461bcd60e51b815260206004820152602b60248201527f496e697469616c697a61626c653a20636f6e7472616374206973206e6f74206960448201526a6e697469616c697a696e6760a81b6064820152608401610a89565b610edd614600565b600054610100900460ff166128115760405162461bcd60e51b815260206004820152602b60248201527f496e697469616c697a61626c653a20636f6e7472616374206973206e6f74206960448201526a6e697469616c697a696e6760a81b6064820152608401610a89565b610edd614677565b600054610100900460ff16610edd5760405162461bcd60e51b815260206004820152602b60248201527f496e697469616c697a61626c653a20636f6e7472616374206973206e6f74206960448201526a6e697469616c697a696e6760a81b6064820152608401610a89565b61288c6146eb565b6033805460ff191660011790557f62e78cea01bee320cd4e420270b5ea74000d11b0c9f74754ebdbfc544b05a2586126c43390565b60fb546040517f0efc12b100000000000000000000000000000000000000000000000000000000815260ff841660048201526001600160a01b03909116906000908290630efc12b190602401600060405180830381865afa15801561292a573d6000803e3d6000fd5b505050506040513d6000823e601f3d908101601f19168201604052612952919081019061587e565b905060008160400151116129ce5760405162461bcd60e51b815260206004820152602a60248201527f56616c7565206973207a65726f2e20506c656173652073656c65637420636f7260448201527f7265637420706c616e2e000000000000000000000000000000000000000000006064820152608401610a89565b6040517fe74af32e0000000000000000000000000000000000000000000000000000000081526001600160a01b0384811660048301526000919084169063e74af32e90602401600060405180830381865afa158015612a31573d6000803e3d6000fd5b505050506040513d6000823e601f3d908101601f19168201604052612a59919081019061592b565b6060810151815160c08301519293509091612adc5760405162461bcd60e51b815260206004820152602260248201527f546f6b656e206973206e6f7420737570706f72746564206f722064697361626c60448201527f65640000000000000000000000000000000000000000000000000000000000006064820152608401610a89565b6000856001600160a01b031663918a54db6040518163ffffffff1660e01b8152600401600060405180830381865afa158015612b1c573d6000803e3d6000fd5b505050506040513d6000823e601f3d908101601f19168201604052612b449190810190615a11565b9050866001600160a01b03166323b872dd8a3060128760ff1610612b6c578860400151612b7f565b612b7f896040015160128960ff1661473e565b6040516001600160e01b031960e086901b1681526001600160a01b03938416600482015292909116602483015260448201526064016020604051808303816000875af1158015612bd3573d6000803e3d6000fd5b505050506040513d601f19601f82011682018060405250810190612bf791906157d0565b506001600160a01b0389166000908152610106602052604081208054909163ffffffff9091169003612c945760fd805463ffffffff16906000612c3983615acb565b82546101009290920a63ffffffff81810219909316918316021790915560fd548354911663ffffffff199091168117835560009081526101076020526040902080546001600160a01b0319166001600160a01b038d16179055505b80547fffffffffffffffff0000000000000000000000000000000000000000ffffffff166401000000006001600160a01b038c16021781556040860151600682018054600090612ce590849061576c565b909155505060608601516040870151612cfe91906157eb565b816009016000828254612d11919061576c565b90915550506040517f49425000000000000000000000000000000000000000000000000000000000006020820152602301604051602081830303815290604052805190602001208660200151604051602001612d6d9190615aee565b60405160208183030381529060405280519060200120148015612daa5750805460018201546001600160a01b039081166401000000009092041614155b15612ddc5780546001820180546401000000009092046001600160a01b03166001600160a01b03199092169190911790555b6040805161024081018252825463ffffffff811682526001600160a01b03640100000000909104811660208084019190915260018501548216838501526002850154909116606083015260038401805484518184028101840190955280855261306f9486936080860193919290830182828015612e8257602002820191906000526020600020905b81546001600160a01b03168152600190910190602001808311612e64575b5050505050815260200160048201805480602002602001604051908101604052809291908181526020018280548015612ee457602002820191906000526020600020905b81546001600160a01b03168152600190910190602001808311612ec6575b5050505050815260200160058201805480602002602001604051908101604052809291908181526020018280548015612f6857602002820191906000526020600020906000905b82829054906101000a900463ffffffff1663ffffffff1681526020019060040190602082600301049283019260010382029150808411612f2b5790505b5050505050815260200160068201548152602001600782015481526020016008820154815260200160098201548152602001600a8201548152602001600b8201548152602001600c8201548152602001600d8201548152602001600e8201548152602001600f820160009054906101000a900460ff161515151581526020016010820180548060200260200160405190810160405280929190818152602001828054801561306157602002820191906000526020600020906000905b82829054906101000a900463ffffffff1663ffffffff16815260200190600401906020826003010492830192600103820291508084116130245790505b505050505081525050614774565b613080576130808b8b84518a614793565b805460028201546040805164010000000084046001600160a01b03908116825263ffffffff909416602082015260ff8d1681830152929091166060830152517fccdfed8601106cae21493f7848436196048b60f2dc70db89d92e3acdabb0ee299181900360800190a160fc54156132b75760006130fb614444565b90506001600160a01b038116156132b5576001600160a01b038116600090815261010660205260408082209089015190919060649061313b90600a6157eb565b6131459190615b20565b90508082600c01600082825461315b919061576c565b925050819055508082600a016000828254613176919061576c565b90915550506001600160a01b03861663a9059cbb84601260ff8b161061319c57836131ab565b6131ab8460128c60ff1661473e565b6040516001600160e01b031960e085901b1681526001600160a01b03909216600483015260248201526044016020604051808303816000875af11580156131f6573d6000803e3d6000fd5b505050506040513d601f19601f8201168201806040525081019061321a91906157d0565b507f693fc02576006378cd4577590d99ad6b18ad4c566c433b85643d7b07a4815665838e8b6040015184600a6064604051613292969594939291906001600160a01b0396871681529490951660208501526040840192909252606083015261ffff90811660808301529190911660a082015260c00190565b60405180910390a18061010260008282546132ad919061576c565b909155505050505b505b60018101546001600160a01b031615613881576001808201546001600160a01b0390811660009081526101066020908152604091829020825161024081018452815463ffffffff811682526401000000009004851681840152948101548416858401526002810154909316606085015260038301805483518184028101840190945280845293946135749490938693608086019391929083018282801561338757602002820191906000526020600020905b81546001600160a01b03168152600190910190602001808311613369575b50505050508152602001600482018054806020026020016040519081016040528092919081815260200182805480156133e957602002820191906000526020600020905b81546001600160a01b031681526001909101906020018083116133cb575b505050505081526020016005820180548060200260200160405190810160405280929190818152602001828054801561346d57602002820191906000526020600020906000905b82829054906101000a900463ffffffff1663ffffffff16815260200190600401906020826003010492830192600103820291508084116134305790505b5050505050815260200160068201548152602001600782015481526020016008820154815260200160098201548152602001600a8201548152602001600b8201548152602001600c8201548152602001600d8201548152602001600e8201548152602001600f820160009054906101000a900460ff161515151581526020016010820180548060200260200160405190810160405280929190818152602001828054801561356657602002820191906000526020600020906000905b82829054906101000a900463ffffffff1663ffffffff16815260200190600401906020826003010492830192600103820291508084116135295790505b505050505081525050615042565b6137e45760006064896001600160a01b031663e70167176040518163ffffffff1660e01b8152600401602060405180830381865afa1580156135ba573d6000803e3d6000fd5b505050506040513d601f19601f820116820180604052508101906135de9190615b34565b60ff1689604001516135f091906157eb565b6135fa9190615b20565b90506000613608838361505d565b90508083600e01600082825461361e919061576c565b909155505060018401546001600160a01b038088169163a9059cbb9116601260ff8b161061364c578361365b565b61365b8460128c60ff1661473e565b6040516001600160e01b031960e085901b1681526001600160a01b03909216600483015260248201526044016020604051808303816000875af11580156136a6573d6000803e3d6000fd5b505050506040513d601f19601f820116820180604052508101906136ca91906157d0565b507f3c8fdb10971c51ff48e3a4db4d7f14e64690a286be5bb9f410d9fd0fb74dbf488460010160009054906101000a90046001600160a01b03168560000160049054906101000a90046001600160a01b03168b60400151848e6001600160a01b031663e70167176040518163ffffffff1660e01b8152600401602060405180830381865afa158015613760573d6000803e3d6000fd5b505050506040513d601f19601f820116820180604052508101906137849190615b34565b604080516001600160a01b03968716815295909416602086015292840191909152606083015260ff166080820152606460a082015260c00160405180910390a18161010560008282546137d7919061576c565b9091555061387f92505050565b6001820154604080516001600160a01b039092168252602082018190526026828201527f49425020526577617264206e6f7420706169642e204d6178204c696d6974205260608301527f65616368656400000000000000000000000000000000000000000000000000006080830152517fd9365ce421ec9d37d946db34572a16a808a9a2c0df5f97dcafa2775d700428f89181900360a00190a15b505b6000805b83518160ff1610156140b2576040805161024081018252845463ffffffff811682526001600160a01b036401000000009091048116602080840191909152600187015482168385015260028701549091166060830152600386018054845181840281018401909552808552613ad29488936080860193919290830182828015612e82576020028201919060005260206000209081546001600160a01b03168152600190910190602001808311612e64575050505050815260200160048201805480602002602001604051908101604052809291908181526020018280548015612ee4576020028201919060005260206000209081546001600160a01b03168152600190910190602001808311612ec6575050505050815260200160058201805480602002602001604051908101604052809291908181526020018280548015612f68576000918252602091829020805463ffffffff168452908202830192909160049101808411612f2b5790505050505050815260200160068201548152602001600782015481526020016008820154815260200160098201548152602001600a8201548152602001600b8201548152602001600c8201548152602001600d8201548152602001600e8201548152602001600f820160009054906101000a900460ff1615151515815260200160108201805480602002602001604051908101604052809291908181526020018280548015613061576000918252602091829020805463ffffffff168452908202830192909160049101808411613024579050505050505081525050614774565b156140b2576002808401546001600160a01b0390811660009081526101066020908152604091829020825161024081018452815463ffffffff81168252640100000000900485168184015260018201548516818501529481015490931660608501526003830180548351818402810184019094528084529394613d2f94909386936080860193919290830182828015613387576020028201919060005260206000209081546001600160a01b031681526001909101906020018083116133695750505050508152602001600482018054806020026020016040519081016040528092919081815260200182805480156133e9576020028201919060005260206000209081546001600160a01b031681526001909101906020018083116133cb57505050505081526020016005820180548060200260200160405190810160405280929190818152602001828054801561346d576000918252602091829020805463ffffffff1684529082028301929091600491018084116134305790505050505050815260200160068201548152602001600782015481526020016008820154815260200160098201548152602001600a8201548152602001600b8201548152602001600c8201548152602001600d8201548152602001600e8201548152602001600f820160009054906101000a900460ff1615151515815260200160108201805480602002602001604051908101604052809291908181526020018280548015613566576000918252602091829020805463ffffffff168452908202830192909160049101808411613529579050505050505081525050615042565b15613daf576002840154604080516001600160a01b039092168252602082018190526011828201527f4d6178204c696d697420526561636865640000000000000000000000000000006060830152517f9cf6f1ac252ffae20583b13cb366045bedd20a57355f5f69adf17da561de00039181900360800190a192506140a0565b8160ff16600003613e9c578860400151816007016000828254613dd2919061576c565b9091555050600f81015460ff1615613e8757600284015460fc80546001818101835560008390527f371f36870d18f32a11fea0f144b021c8b407bb50f8e0267c711123f454b963c090910180546001600160a01b0319166001600160a01b0390941693909317909255546010830191613e4a91615759565b8154600181018355600092835260209092206008830401805460079093166004026101000a63ffffffff8181021990941692909316929092021790555b600f8101805460ff19811660ff909116151790555b8860400151816008016000828254613eb4919061576c565b925050819055506000612710868460ff1681518110613ed557613ed5615b51565b602002602001015161ffff168b60400151613ef091906157eb565b613efa9190615b20565b90506000613f08838361505d565b90508083600b016000828254613f1e919061576c565b909155505060028601546001600160a01b03808a169163a9059cbb9116601260ff8d1610613f4c5783613f5b565b613f5b8460128e60ff1661473e565b6040516001600160e01b031960e085901b1681526001600160a01b03909216600483015260248201526044016020604051808303816000875af1158015613fa6573d6000803e3d6000fd5b505050506040513d601f19601f82011682018060405250810190613fca91906157d0565b50613fd5818661576c565b6002870154875460408e01518a519398507f3fae587c6f1778678d1e63bd99d63afe07677c2a2eb43a4b228b80e8a38c1b06936001600160a01b03938416936401000000009093049092169185908c9060ff8b1690811061403857614038615b51565b60200260200101516127108a60016140509190615b67565b604080516001600160a01b03988916815297909616602088015294860193909352606085019190915261ffff16608084015260a083015260ff1660c082015260e00160405180910390a150909350505b806140aa81615b80565b915050613885565b508061010160008282546140c6919061576c565b9091555050604087015160fe80546000906140e290849061576c565b909155505060408701516064906140fa90600a6157eb565b6141049190615b20565b60ff6000828254614115919061576c565b925050819055506000886001600160a01b03166365eb204d6040518163ffffffff1660e01b8152600401602060405180830381865afa15801561415c573d6000803e3d6000fd5b505050506040513d601f19601f82011682018060405250810190614180919061578a565b6040516370a0823160e01b81523060048201526001600160a01b0391909116906370a0823190602401602060405180830381865afa1580156141c6573d6000803e3d6000fd5b505050506040513d601f19601f820116820180604052508101906141ea91906157a7565b9050801561443557600060648a6001600160a01b031663e091099c6040518163ffffffff1660e01b8152600401602060405180830381865afa158015614234573d6000803e3d6000fd5b505050506040513d601f19601f820116820180604052508101906142589190615b34565b60ff168a6040015161426a91906157eb565b6142749190615b20565b905080821061435a57896001600160a01b03166365eb204d6040518163ffffffff1660e01b8152600401602060405180830381865afa1580156142bb573d6000803e3d6000fd5b505050506040513d601f19601f820116820180604052508101906142df919061578a565b60405163a9059cbb60e01b81526001600160a01b038f8116600483015260248201849052919091169063a9059cbb906044016020604051808303816000875af1158015614330573d6000803e3d6000fd5b505050506040513d601f19601f8201168201806040525081019061435491906157d0565b50614433565b896001600160a01b03166365eb204d6040518163ffffffff1660e01b8152600401602060405180830381865afa158015614398573d6000803e3d6000fd5b505050506040513d601f19601f820116820180604052508101906143bc919061578a565b60405163a9059cbb60e01b81526001600160a01b038f8116600483015260248201859052919091169063a9059cbb906044016020604051808303816000875af115801561440d573d6000803e3d6000fd5b505050506040513d601f19601f8201168201806040525081019061443191906157d0565b505b505b50505050505050505050505050565b6000804244614454600143615759565b60408051602081019490945283019190915240606082015260800160408051601f19818403018152919052805160209091012060fc5490915060009061449a9083615b9f565b905060fc81815481106144af576144af615b51565b6000918252602090912001546001600160a01b03169392505050565b6001600160a01b0381163b6145485760405162461bcd60e51b815260206004820152602d60248201527f455243313936373a206e657720696d706c656d656e746174696f6e206973206e60448201527f6f74206120636f6e7472616374000000000000000000000000000000000000006064820152608401610a89565b7f360894a13ba1a3210667c828492db98dca3e2076cc3735a920a3ca505d382bbc80546001600160a01b0319166001600160a01b0392909216919091179055565b614592836150bf565b60008251118061459f5750805b1561251d5761153f83836150ff565b60335460ff16610edd5760405162461bcd60e51b815260206004820152601460248201527f5061757361626c653a206e6f74207061757365640000000000000000000000006044820152606401610a89565b600054610100900460ff1661466b5760405162461bcd60e51b815260206004820152602b60248201527f496e697469616c697a61626c653a20636f6e7472616374206973206e6f74206960448201526a6e697469616c697a696e6760a81b6064820152608401610a89565b6033805460ff19169055565b600054610100900460ff166146e25760405162461bcd60e51b815260206004820152602b60248201527f496e697469616c697a61626c653a20636f6e7472616374206973206e6f74206960448201526a6e697469616c697a696e6760a81b6064820152608401610a89565b610edd336126e1565b60335460ff1615610edd5760405162461bcd60e51b815260206004820152601060248201527f5061757361626c653a20706175736564000000000000000000000000000000006044820152606401610a89565b600061474b83600a615c97565b61475683600a615c97565b61476090866157eb565b61476a9190615b20565b90505b9392505050565b60608101516000906001600160a01b03161561478e575060015b919050565b6001600160a01b0380841660009081526101066020908152604091829020825161024081018452815463ffffffff81168252640100000000900485168184015260018201548516818501526002820154909416606085015260038101805484518185028101850190955280855291946149e49490938693608086019391830182828015612e82576020028201919060005260206000209081546001600160a01b03168152600190910190602001808311612e64575050505050815260200160048201805480602002602001604051908101604052809291908181526020018280548015612ee4576020028201919060005260206000209081546001600160a01b03168152600190910190602001808311612ec6575050505050815260200160058201805480602002602001604051908101604052809291908181526020018280548015612f68576000918252602091829020805463ffffffff168452908202830192909160049101808411612f2b5790505050505050815260200160068201548152602001600782015481526020016008820154815260200160098201548152602001600a8201548152602001600b8201548152602001600c8201548152602001600d8201548152602001600e8201548152602001600f820160009054906101000a900460ff1615151515815260200160108201805480602002602001604051908101604052809291908181526020018280548015613061576000918252602091829020805463ffffffff168452908202830192909160049101808411613024579050505050505081525050614774565b158015614a645750816001600160a01b031663b2e6b9126040518163ffffffff1660e01b8152600401602060405180830381865afa158015614a2a573d6000803e3d6000fd5b505050506040513d601f19601f82011682018060405250810190614a4e919061578a565b6001600160a01b0316846001600160a01b031614155b1561503b576001600160a01b0385161580614a905750846001600160a01b0316846001600160a01b0316145b15614bfb57604080516001600160a01b038781168252861660208201526060818301819052603a908201527f5a65726f20616464726573732063616e6e6f742062652072656665727265722e60808201527f2053657474696e672064656661756c742072656665727265722e00000000000060a082015290517f32df26c7e54a821624fc8d22e1171e5793b90d1fccc483d3ff277b9c42bb22399181900360c00190a16000826001600160a01b031663b2e6b9126040518163ffffffff1660e01b8152600401602060405180830381865afa158015614b73573d6000803e3d6000fd5b505050506040513d601f19601f82011682018060405250810190614b97919061578a565b6002830180546001600160a01b0319166001600160a01b038381169182179092556040805191825291881660208201529192507fec49a3c8c4ae06c18160fe86119c381c9d213ac3e052ff35b594da8687b193c7910160405180910390a150614c57565b6002810180546001600160a01b0319166001600160a01b038781169182179092556040805191825291861660208201527fec49a3c8c4ae06c18160fe86119c381c9d213ac3e052ff35b594da8687b193c7910160405180910390a15b60005b8360ff168160ff1610156150395760028201546001600160a01b0316156150395760028201546001600160a01b03166000908152610106602052604081209060ff83169003614fa95760038101805460018082018355600092835260209092200180546001600160a01b0319166001600160a01b0389811691909117909155908401541615614d65576001830154604080516001600160a01b03928316815291881660208301526060828201819052601d908301527f5265666572656520616c7265616479206861766520696270207365742e0000006080830152517fffca51efd3fa9dd00c7ad8de67cce6deeb82e78db2d05fe4b84079eca71665109181900360a00190a1614fa9565b60018101546001600160a01b0316614f48576001810154604080516001600160a01b039283168152918816602083015260608282018190526032908301527f5a65726f20616464726573732063616e6e6f74206265206962702e205365747460808301527f696e672075702064656661756c7420696270000000000000000000000000000060a0830152517fffca51efd3fa9dd00c7ad8de67cce6deeb82e78db2d05fe4b84079eca71665109181900360c00190a16000846001600160a01b031663b2e6b9126040518163ffffffff1660e01b8152600401602060405180830381865afa158015614e5a573d6000803e3d6000fd5b505050506040513d601f19601f82011682018060405250810190614e7e919061578a565b600185810180546001600160a01b038481166001600160a01b0319928316811790935592860180549091168217905584546040805192835264010000000090910490921660208201529192507ef37bd73ff29ab549d774afc91445bf33292ed9a4b4b4177fb1e61ff3c58469910160405180910390a18354604080516001600160a01b03808516825264010000000090930490921660208301527ef37bd73ff29ab549d774afc91445bf33292ed9a4b4b4177fb1e61ff3c58469910160405180910390a150614fa9565b6001818101805491850180546001600160a01b0319166001600160a01b039384161790555460408051918316825291881660208201527ef37bd73ff29ab549d774afc91445bf33292ed9a4b4b4177fb1e61ff3c58469910160405180910390a15b60048101805460018082018355600092835260209092200180546001600160a01b0319166001600160a01b0389161790556005820190614fea908490615b67565b8154600181018355600092835260209092206008830401805463ffffffff60079094166004026101000a938402191660ff9290921690920217905591508061503181615b80565b915050614c5a565b505b5050505050565b60008161014001518261016001511061478e57506001919050565b600082600901548284600a0154615074919061576c565b1161509b578190508183600a016000828254615090919061576c565b909155506150b99050565b82600a015483600901546150af9190615759565b600a840181905590505b92915050565b6150c8816144cb565b6040516001600160a01b038216907fbc7cd75a20ee27fd9adebab32041f755214dbc6bffa90cc0225b39da2e5c2d3b90600090a250565b60606001600160a01b0383163b61517e5760405162461bcd60e51b815260206004820152602660248201527f416464726573733a2064656c65676174652063616c6c20746f206e6f6e2d636f60448201527f6e747261637400000000000000000000000000000000000000000000000000006064820152608401610a89565b600080846001600160a01b0316846040516151999190615aee565b600060405180830381855af49150503d80600081146151d4576040519150601f19603f3d011682016040523d82523d6000602084013e6151d9565b606091505b50915091506152018282604051806060016040528060278152602001615cd76027913961520a565b95945050505050565b6060831561521957508161476d565b61476d838381511561522e5781518083602001fd5b8060405162461bcd60e51b8152600401610a899190615ca3565b6001600160a01b0381168114610b7d57600080fd5b60006020828403121561526f57600080fd5b813561476d81615248565b6000806040838503121561528d57600080fd5b823561529881615248565b915060208301356152a881615248565b809150509250929050565b600081518084526020808501945080840160005b838110156152e957815163ffffffff16875295820195908201906001016152c7565b509495945050505050565b831515815260606020820152600061530f60608301856152b3565b9050826040830152949350505050565b634e487b7160e01b600052604160045260246000fd5b60405160e0810167ffffffffffffffff811182821017156153585761535861531f565b60405290565b604051601f8201601f1916810167ffffffffffffffff811182821017156153875761538761531f565b604052919050565b600067ffffffffffffffff8211156153a9576153a961531f565b50601f01601f191660200190565b600080604083850312156153ca57600080fd5b82356153d581615248565b9150602083013567ffffffffffffffff8111156153f157600080fd5b8301601f8101851361540257600080fd5b80356154156154108261538f565b61535e565b81815286602083850101111561542a57600080fd5b816020840160208301376000602083830101528093505050509250929050565b60ff81168114610b7d57600080fd5b6000806000806080858703121561546f57600080fd5b843561547a81615248565b9350602085013561548a81615248565b9250604085013561549a8161544a565b915060608501356154aa81615248565b939692955090935050565b6000806000606084860312156154ca57600080fd5b83356154d581615248565b925060208401356154e581615248565b929592945050506040919091013590565b60008060006060848603121561550b57600080fd5b833561551681615248565b925060208401356155268161544a565b9150604084013561553681615248565b809150509250925092565b600081518084526020808501945080840160005b838110156152e95781516001600160a01b031687529582019590820190600101615555565b6001600160a01b038716815260c06020820152600061559c60c0830188615541565b86604084015282810360608401526155b48187615541565b905082810360808401526155c881866152b3565b9150508260a0830152979650505050505050565b602081526155f360208201835163ffffffff169052565b6000602083015161560f60408401826001600160a01b03169052565b5060408301516001600160a01b03811660608401525060608301516001600160a01b03811660808401525060808301516102408060a0850152615656610260850183615541565b915060a0850151601f19808685030160c08701526156748483615541565b935060c08701519150808685030160e087015261569184836152b3565b60e088015161010088810191909152880151610120808901919091528801516101408089019190915288015161016080890191909152880151610180808901919091528801516101a0808901919091528801516101c0808901919091528801516101e0808901919091528801516102008089019190915288015190945091506102206157208188018415159052565b87015186850390910183870152905061573983826152b3565b9695505050505050565b634e487b7160e01b600052601160045260246000fd5b818103818111156150b9576150b9615743565b808201808211156150b9576150b9615743565b805161478e81615248565b60006020828403121561579c57600080fd5b815161476d81615248565b6000602082840312156157b957600080fd5b5051919050565b8051801515811461478e57600080fd5b6000602082840312156157e257600080fd5b61476d826157c0565b80820281158282048414176150b9576150b9615743565b805161478e8161544a565b60005b83811015615828578181015183820152602001615810565b50506000910152565b600082601f83011261584257600080fd5b81516158506154108261538f565b81815284602083860101111561586557600080fd5b61587682602083016020870161580d565b949350505050565b60006020828403121561589057600080fd5b815167ffffffffffffffff808211156158a857600080fd5b90830190608082860312156158bc57600080fd5b6040516080810181811083821117156158d7576158d761531f565b60405282516158e58161544a565b81526020830151828111156158f957600080fd5b61590587828601615831565b602083015250604083015160408201526060830151606082015280935050505092915050565b60006020828403121561593d57600080fd5b815167ffffffffffffffff8082111561595557600080fd5b9083019060e0828603121561596957600080fd5b615971615335565b61597a8361577f565b815260208301518281111561598e57600080fd5b61599a87828601615831565b6020830152506040830151828111156159b257600080fd5b6159be87828601615831565b6040830152506159d060608401615802565b60608201526159e1608084016157c0565b60808201526159f260a0840161577f565b60a0820152615a0360c084016157c0565b60c082015295945050505050565b60006020808385031215615a2457600080fd5b825167ffffffffffffffff80821115615a3c57600080fd5b818501915085601f830112615a5057600080fd5b815181811115615a6257615a6261531f565b8060051b9150615a7384830161535e565b8181529183018401918481019088841115615a8d57600080fd5b938501935b83851015615abf578451925061ffff83168314615aaf5760008081fd5b8282529385019390850190615a92565b98975050505050505050565b600063ffffffff808316818103615ae457615ae4615743565b6001019392505050565b60008251615b0081846020870161580d565b9190910192915050565b634e487b7160e01b600052601260045260246000fd5b600082615b2f57615b2f615b0a565b500490565b600060208284031215615b4657600080fd5b815161476d8161544a565b634e487b7160e01b600052603260045260246000fd5b60ff81811683821601908111156150b9576150b9615743565b600060ff821660ff8103615b9657615b96615743565b60010192915050565b600082615bae57615bae615b0a565b500690565b600181815b80851115615bee578160001904821115615bd457615bd4615743565b80851615615be157918102915b93841c9390800290615bb8565b509250929050565b600082615c05575060016150b9565b81615c12575060006150b9565b8160018114615c285760028114615c3257615c4e565b60019150506150b9565b60ff841115615c4357615c43615743565b50506001821b6150b9565b5060208310610133831016604e8410600b8410161715615c71575081810a6150b9565b615c7b8383615bb3565b8060001904821115615c8f57615c8f615743565b029392505050565b600061476d8383615bf6565b6020815260008251806020840152615cc281604085016020870161580d565b601f01601f1916919091016040019291505056fe416464726573733a206c6f772d6c6576656c2064656c65676174652063616c6c206661696c6564a26469706673582212204c65fc0158cb2bd0f45be6f3758902f197745f7fd23ce87086685cbb7e048cda64736f6c63430008120033",
  "linkReferences": {},
  "deployedLinkReferences": {}
}