{
  "_format": "hh-sol-artifact-1",
  "contractName": "RegisterV1Upgradeable",
  "sourceName": "contracts/RegisterV1Upgradeable.sol",
  "abi": [
    {
      "anonymous": false,
      "inputs": [
        {
          "indexed": false,
          "internalType": "address",
          "name": "previousAdmin",
          "type": "address"
        },
        {
          "indexed": false,
          "internalType": "address",
          "name": "newAdmin",
          "type": "address"
        }
      ],
      "name": "AdminChanged",
      "type": "event"
    },
    {
      "anonymous": false,
      "inputs": [
        {
          "indexed": true,
          "internalType": "address",
          "name": "beacon",
          "type": "address"
        }
      ],
      "name": "BeaconUpgraded",
      "type": "event"
    },
    {
      "anonymous": false,
      "inputs": [
        {
          "indexed": false,
          "internalType": "uint8",
          "name": "version",
          "type": "uint8"
        }
      ],
      "name": "Initialized",
      "type": "event"
    },
    {
      "anonymous": false,
      "inputs": [
        {
          "indexed": true,
          "internalType": "address",
          "name": "previousOwner",
          "type": "address"
        },
        {
          "indexed": true,
          "internalType": "address",
          "name": "newOwner",
          "type": "address"
        }
      ],
      "name": "OwnershipTransferred",
      "type": "event"
    },
    {
      "anonymous": false,
      "inputs": [
        {
          "indexed": false,
          "internalType": "address",
          "name": "account",
          "type": "address"
        }
      ],
      "name": "Paused",
      "type": "event"
    },
    {
      "anonymous": false,
      "inputs": [
        {
          "indexed": false,
          "internalType": "address",
          "name": "account",
          "type": "address"
        }
      ],
      "name": "Unpaused",
      "type": "event"
    },
    {
      "anonymous": false,
      "inputs": [
        {
          "indexed": true,
          "internalType": "address",
          "name": "implementation",
          "type": "address"
        }
      ],
      "name": "Upgraded",
      "type": "event"
    },
    {
      "inputs": [],
      "name": "initialize",
      "outputs": [],
      "stateMutability": "nonpayable",
      "type": "function"
    },
    {
      "inputs": [],
      "name": "owner",
      "outputs": [
        {
          "internalType": "address",
          "name": "",
          "type": "address"
        }
      ],
      "stateMutability": "view",
      "type": "function"
    },
    {
      "inputs": [],
      "name": "pause",
      "outputs": [],
      "stateMutability": "nonpayable",
      "type": "function"
    },
    {
      "inputs": [],
      "name": "paused",
      "outputs": [
        {
          "internalType": "bool",
          "name": "",
          "type": "bool"
        }
      ],
      "stateMutability": "view",
      "type": "function"
    },
    {
      "inputs": [],
      "name": "proxiableUUID",
      "outputs": [
        {
          "internalType": "bytes32",
          "name": "",
          "type": "bytes32"
        }
      ],
      "stateMutability": "view",
      "type": "function"
    },
    {
      "inputs": [],
      "name": "renounceOwnership",
      "outputs": [],
      "stateMutability": "nonpayable",
      "type": "function"
    },
    {
      "inputs": [
        {
          "internalType": "address",
          "name": "newOwner",
          "type": "address"
        }
      ],
      "name": "transferOwnership",
      "outputs": [],
      "stateMutability": "nonpayable",
      "type": "function"
    },
    {
      "inputs": [],
      "name": "unpause",
      "outputs": [],
      "stateMutability": "nonpayable",
      "type": "function"
    },
    {
      "inputs": [
        {
          "internalType": "address",
          "name": "newImplementation",
          "type": "address"
        }
      ],
      "name": "upgradeTo",
      "outputs": [],
      "stateMutability": "nonpayable",
      "type": "function"
    },
    {
      "inputs": [
        {
          "internalType": "address",
          "name": "newImplementation",
          "type": "address"
        },
        {
          "internalType": "bytes",
          "name": "data",
          "type": "bytes"
        }
      ],
      "name": "upgradeToAndCall",
      "outputs": [],
      "stateMutability": "payable",
      "type": "function"
    },
    {
      "stateMutability": "payable",
      "type": "receive"
    }
  ],
  "bytecode": "0x60a06040523060805234801561001457600080fd5b50608051610f5c61004c600039600081816101c701528181610210015281816102c10152818161030101526103940152610f5c6000f3fe6080604052600436106100955760003560e01c8063715018a611610059578063715018a6146101365780638129fc1c1461014b5780638456cb59146101605780638da5cb5b14610175578063f2fde38b1461019d57600080fd5b80633659cfe6146100a15780633f4ba83a146100c35780634f1ef286146100d857806352d1902d146100eb5780635c975abb1461011357600080fd5b3661009c57005b600080fd5b3480156100ad57600080fd5b506100c16100bc366004610c7d565b6101bd565b005b3480156100cf57600080fd5b506100c16102a5565b6100c16100e6366004610cae565b6102b7565b3480156100f757600080fd5b50610100610387565b6040519081526020015b60405180910390f35b34801561011f57600080fd5b5060335460ff16604051901515815260200161010a565b34801561014257600080fd5b506100c161043a565b34801561015757600080fd5b506100c161044c565b34801561016c57600080fd5b506100c161056c565b34801561018157600080fd5b506065546040516001600160a01b03909116815260200161010a565b3480156101a957600080fd5b506100c16101b8366004610c7d565b61057c565b6001600160a01b037f000000000000000000000000000000000000000000000000000000000000000016300361020e5760405162461bcd60e51b815260040161020590610d70565b60405180910390fd5b7f00000000000000000000000000000000000000000000000000000000000000006001600160a01b0316610257600080516020610ee0833981519152546001600160a01b031690565b6001600160a01b03161461027d5760405162461bcd60e51b815260040161020590610dbc565b610286816105f2565b604080516000808252602082019092526102a2918391906105fa565b50565b6102ad61076a565b6102b56107c4565b565b6001600160a01b037f00000000000000000000000000000000000000000000000000000000000000001630036102ff5760405162461bcd60e51b815260040161020590610d70565b7f00000000000000000000000000000000000000000000000000000000000000006001600160a01b0316610348600080516020610ee0833981519152546001600160a01b031690565b6001600160a01b03161461036e5760405162461bcd60e51b815260040161020590610dbc565b610377826105f2565b610383828260016105fa565b5050565b6000306001600160a01b037f000000000000000000000000000000000000000000000000000000000000000016146104275760405162461bcd60e51b815260206004820152603860248201527f555550535570677261646561626c653a206d757374206e6f742062652063616c60448201527f6c6564207468726f7567682064656c656761746563616c6c00000000000000006064820152608401610205565b50600080516020610ee083398151915290565b61044261076a565b6102b56000610816565b600054610100900460ff161580801561046c5750600054600160ff909116105b806104865750303b158015610486575060005460ff166001145b6104e95760405162461bcd60e51b815260206004820152602e60248201527f496e697469616c697a61626c653a20636f6e747261637420697320616c72656160448201526d191e481a5b9a5d1a585b1a5e995960921b6064820152608401610205565b6000805460ff19166001179055801561050c576000805461ff0019166101001790555b610514610868565b61051c610897565b6105246108c6565b80156102a2576000805461ff0019169055604051600181527f7f26b83ff96e1f2b6a682f133852f6798a09c465da95921460cefb38474024989060200160405180910390a150565b61057461076a565b6102b56108ed565b61058461076a565b6001600160a01b0381166105e95760405162461bcd60e51b815260206004820152602660248201527f4f776e61626c653a206e6577206f776e657220697320746865207a65726f206160448201526564647265737360d01b6064820152608401610205565b6102a281610816565b6102a261076a565b7f4910fdfa16fed3260ed0e7147f7cc6da11a60208b5b9406d12a635614ffd91435460ff16156106325761062d8361092a565b505050565b826001600160a01b03166352d1902d6040518163ffffffff1660e01b8152600401602060405180830381865afa92505050801561068c575060408051601f3d908101601f1916820190925261068991810190610e08565b60015b6106ef5760405162461bcd60e51b815260206004820152602e60248201527f45524331393637557067726164653a206e657720696d706c656d656e7461746960448201526d6f6e206973206e6f74205555505360901b6064820152608401610205565b600080516020610ee0833981519152811461075e5760405162461bcd60e51b815260206004820152602960248201527f45524331393637557067726164653a20756e737570706f727465642070726f786044820152681a58589b195555525160ba1b6064820152608401610205565b5061062d8383836109c6565b6065546001600160a01b031633146102b55760405162461bcd60e51b815260206004820181905260248201527f4f776e61626c653a2063616c6c6572206973206e6f7420746865206f776e65726044820152606401610205565b6107cc6109f1565b6033805460ff191690557f5db9ee0a495bf2e6ff9c91a7834c1ba4fdd244a5e8aa4e537bd38aeae4b073aa335b6040516001600160a01b03909116815260200160405180910390a1565b606580546001600160a01b038381166001600160a01b0319831681179093556040519116919082907f8be0079c531659141344cd1fd0a4f28419497f9722a3daafe3b4186f6b6457e090600090a35050565b600054610100900460ff1661088f5760405162461bcd60e51b815260040161020590610e21565b6102b5610a3a565b600054610100900460ff166108be5760405162461bcd60e51b815260040161020590610e21565b6102b5610a6d565b600054610100900460ff166102b55760405162461bcd60e51b815260040161020590610e21565b6108f5610a9d565b6033805460ff191660011790557f62e78cea01bee320cd4e420270b5ea74000d11b0c9f74754ebdbfc544b05a2586107f93390565b6001600160a01b0381163b6109975760405162461bcd60e51b815260206004820152602d60248201527f455243313936373a206e657720696d706c656d656e746174696f6e206973206e60448201526c1bdd08184818dbdb9d1c9858dd609a1b6064820152608401610205565b600080516020610ee083398151915280546001600160a01b0319166001600160a01b0392909216919091179055565b6109cf83610ae3565b6000825111806109dc5750805b1561062d576109eb8383610b23565b50505050565b60335460ff166102b55760405162461bcd60e51b815260206004820152601460248201527314185d5cd8589b194e881b9bdd081c185d5cd95960621b6044820152606401610205565b600054610100900460ff16610a615760405162461bcd60e51b815260040161020590610e21565b6033805460ff19169055565b600054610100900460ff16610a945760405162461bcd60e51b815260040161020590610e21565b6102b533610816565b60335460ff16156102b55760405162461bcd60e51b815260206004820152601060248201526f14185d5cd8589b194e881c185d5cd95960821b6044820152606401610205565b610aec8161092a565b6040516001600160a01b038216907fbc7cd75a20ee27fd9adebab32041f755214dbc6bffa90cc0225b39da2e5c2d3b90600090a250565b60606001600160a01b0383163b610b8b5760405162461bcd60e51b815260206004820152602660248201527f416464726573733a2064656c65676174652063616c6c20746f206e6f6e2d636f6044820152651b9d1c9858dd60d21b6064820152608401610205565b600080846001600160a01b031684604051610ba69190610e90565b600060405180830381855af49150503d8060008114610be1576040519150601f19603f3d011682016040523d82523d6000602084013e610be6565b606091505b5091509150610c0e8282604051806060016040528060278152602001610f0060279139610c17565b95945050505050565b60608315610c26575081610c30565b610c308383610c37565b9392505050565b815115610c475781518083602001fd5b8060405162461bcd60e51b81526004016102059190610eac565b80356001600160a01b0381168114610c7857600080fd5b919050565b600060208284031215610c8f57600080fd5b610c3082610c61565b634e487b7160e01b600052604160045260246000fd5b60008060408385031215610cc157600080fd5b610cca83610c61565b9150602083013567ffffffffffffffff80821115610ce757600080fd5b818501915085601f830112610cfb57600080fd5b813581811115610d0d57610d0d610c98565b604051601f8201601f19908116603f01168101908382118183101715610d3557610d35610c98565b81604052828152886020848701011115610d4e57600080fd5b8260208601602083013760006020848301015280955050505050509250929050565b6020808252602c908201527f46756e6374696f6e206d7573742062652063616c6c6564207468726f7567682060408201526b19195b1959d85d1958d85b1b60a21b606082015260800190565b6020808252602c908201527f46756e6374696f6e206d7573742062652063616c6c6564207468726f7567682060408201526b6163746976652070726f787960a01b606082015260800190565b600060208284031215610e1a57600080fd5b5051919050565b6020808252602b908201527f496e697469616c697a61626c653a20636f6e7472616374206973206e6f74206960408201526a6e697469616c697a696e6760a81b606082015260800190565b60005b83811015610e87578181015183820152602001610e6f565b50506000910152565b60008251610ea2818460208701610e6c565b9190910192915050565b6020815260008251806020840152610ecb816040850160208701610e6c565b601f01601f1916919091016040019291505056fe360894a13ba1a3210667c828492db98dca3e2076cc3735a920a3ca505d382bbc416464726573733a206c6f772d6c6576656c2064656c65676174652063616c6c206661696c6564a264697066735822122044077fb38ca5987223da6043f30141ccb0cb402a97af1db2b0109a10970df29364736f6c63430008120033",
  "linkReferences": {},
  "deployedLinkReferences": {}
}