{
  "_format": "hh-sol-artifact-1",
  "contractName": "CoreMembersV1Upgradeable",
  "sourceName": "contracts/CoreMembersV1Upgradeable.sol",
  "abi": [
    {
      "anonymous": false,
      "inputs": [
        {
          "indexed": false,
          "internalType": "address",
          "name": "adminAddress",
          "type": "address"
        }
      ],
      "name": "AddedAdmin",
      "type": "event"
    },
    {
      "anonymous": false,
      "inputs": [
        {
          "indexed": false,
          "internalType": "address",
          "name": "coreMemberAddress",
          "type": "address"
        }
      ],
      "name": "AddedCoreMember",
      "type": "event"
    },
    {
      "anonymous": false,
      "inputs": [
        {
          "indexed": false,
          "internalType": "address",
          "name": "previousAdmin",
          "type": "address"
        },
        {
          "indexed": false,
          "internalType": "address",
          "name": "newAdmin",
          "type": "address"
        }
      ],
      "name": "AdminChanged",
      "type": "event"
    },
    {
      "anonymous": false,
      "inputs": [
        {
          "indexed": false,
          "internalType": "address",
          "name": "adminAddress",
          "type": "address"
        },
        {
          "indexed": false,
          "internalType": "uint256",
          "name": "value",
          "type": "uint256"
        },
        {
          "indexed": false,
          "internalType": "uint256",
          "name": "valuePaidInContract",
          "type": "uint256"
        },
        {
          "indexed": false,
          "internalType": "uint256",
          "name": "totalMembers",
          "type": "uint256"
        },
        {
          "indexed": false,
          "internalType": "address",
          "name": "paidIn",
          "type": "address"
        }
      ],
      "name": "AdminSharePaid",
      "type": "event"
    },
    {
      "anonymous": false,
      "inputs": [
        {
          "indexed": true,
          "internalType": "address",
          "name": "beacon",
          "type": "address"
        }
      ],
      "name": "BeaconUpgraded",
      "type": "event"
    },
    {
      "anonymous": false,
      "inputs": [
        {
          "indexed": false,
          "internalType": "address",
          "name": "coreMemberAddress",
          "type": "address"
        },
        {
          "indexed": false,
          "internalType": "uint256",
          "name": "value",
          "type": "uint256"
        },
        {
          "indexed": false,
          "internalType": "uint256",
          "name": "valuePaidInContract",
          "type": "uint256"
        },
        {
          "indexed": false,
          "internalType": "uint256",
          "name": "totalMembers",
          "type": "uint256"
        },
        {
          "indexed": false,
          "internalType": "address",
          "name": "paidIn",
          "type": "address"
        }
      ],
      "name": "CoreMembersRewardPaid",
      "type": "event"
    },
    {
      "anonymous": false,
      "inputs": [
        {
          "indexed": false,
          "internalType": "uint8",
          "name": "version",
          "type": "uint8"
        }
      ],
      "name": "Initialized",
      "type": "event"
    },
    {
      "anonymous": false,
      "inputs": [
        {
          "indexed": true,
          "internalType": "address",
          "name": "previousOwner",
          "type": "address"
        },
        {
          "indexed": true,
          "internalType": "address",
          "name": "newOwner",
          "type": "address"
        }
      ],
      "name": "OwnershipTransferred",
      "type": "event"
    },
    {
      "anonymous": false,
      "inputs": [
        {
          "indexed": false,
          "internalType": "address",
          "name": "account",
          "type": "address"
        }
      ],
      "name": "Paused",
      "type": "event"
    },
    {
      "anonymous": false,
      "inputs": [
        {
          "indexed": false,
          "internalType": "address",
          "name": "adminAddress",
          "type": "address"
        }
      ],
      "name": "RemovedAdmin",
      "type": "event"
    },
    {
      "anonymous": false,
      "inputs": [
        {
          "indexed": false,
          "internalType": "address",
          "name": "coreMemberAddress",
          "type": "address"
        }
      ],
      "name": "RemovedCoreMember",
      "type": "event"
    },
    {
      "anonymous": false,
      "inputs": [
        {
          "indexed": false,
          "internalType": "address",
          "name": "account",
          "type": "address"
        }
      ],
      "name": "Unpaused",
      "type": "event"
    },
    {
      "anonymous": false,
      "inputs": [
        {
          "indexed": true,
          "internalType": "address",
          "name": "implementation",
          "type": "address"
        }
      ],
      "name": "Upgraded",
      "type": "event"
    },
    {
      "inputs": [
        {
          "internalType": "address",
          "name": "_address",
          "type": "address"
        }
      ],
      "name": "addAdmin",
      "outputs": [],
      "stateMutability": "nonpayable",
      "type": "function"
    },
    {
      "inputs": [
        {
          "internalType": "address",
          "name": "_userAddress",
          "type": "address"
        }
      ],
      "name": "addCoreMember",
      "outputs": [],
      "stateMutability": "nonpayable",
      "type": "function"
    },
    {
      "inputs": [],
      "name": "distributeETH",
      "outputs": [],
      "stateMutability": "nonpayable",
      "type": "function"
    },
    {
      "inputs": [
        {
          "internalType": "address",
          "name": "_tokenContract",
          "type": "address"
        }
      ],
      "name": "distributeToken",
      "outputs": [],
      "stateMutability": "nonpayable",
      "type": "function"
    },
    {
      "inputs": [],
      "name": "getAdminList",
      "outputs": [
        {
          "internalType": "address[]",
          "name": "adminsList",
          "type": "address[]"
        },
        {
          "internalType": "uint256",
          "name": "adminsCount",
          "type": "uint256"
        },
        {
          "internalType": "uint8",
          "name": "adminShareRate",
          "type": "uint8"
        }
      ],
      "stateMutability": "view",
      "type": "function"
    },
    {
      "inputs": [],
      "name": "getCoreMembersList",
      "outputs": [
        {
          "internalType": "address[]",
          "name": "coreMembersList",
          "type": "address[]"
        },
        {
          "internalType": "uint256",
          "name": "coreMembersLength",
          "type": "uint256"
        }
      ],
      "stateMutability": "view",
      "type": "function"
    },
    {
      "inputs": [],
      "name": "initialize",
      "outputs": [],
      "stateMutability": "nonpayable",
      "type": "function"
    },
    {
      "inputs": [
        {
          "internalType": "address",
          "name": "_userAddress",
          "type": "address"
        }
      ],
      "name": "isUserInCoreMembersList",
      "outputs": [
        {
          "internalType": "bool",
          "name": "",
          "type": "bool"
        }
      ],
      "stateMutability": "view",
      "type": "function"
    },
    {
      "inputs": [],
      "name": "owner",
      "outputs": [
        {
          "internalType": "address",
          "name": "",
          "type": "address"
        }
      ],
      "stateMutability": "view",
      "type": "function"
    },
    {
      "inputs": [],
      "name": "pause",
      "outputs": [],
      "stateMutability": "nonpayable",
      "type": "function"
    },
    {
      "inputs": [],
      "name": "paused",
      "outputs": [
        {
          "internalType": "bool",
          "name": "",
          "type": "bool"
        }
      ],
      "stateMutability": "view",
      "type": "function"
    },
    {
      "inputs": [],
      "name": "proxiableUUID",
      "outputs": [
        {
          "internalType": "bytes32",
          "name": "",
          "type": "bytes32"
        }
      ],
      "stateMutability": "view",
      "type": "function"
    },
    {
      "inputs": [
        {
          "internalType": "address",
          "name": "_address",
          "type": "address"
        }
      ],
      "name": "removeAdmin",
      "outputs": [],
      "stateMutability": "nonpayable",
      "type": "function"
    },
    {
      "inputs": [
        {
          "internalType": "address",
          "name": "_userAddress",
          "type": "address"
        }
      ],
      "name": "removeCoreMember",
      "outputs": [],
      "stateMutability": "nonpayable",
      "type": "function"
    },
    {
      "inputs": [],
      "name": "renounceOwnership",
      "outputs": [],
      "stateMutability": "nonpayable",
      "type": "function"
    },
    {
      "inputs": [
        {
          "internalType": "uint8",
          "name": "_value",
          "type": "uint8"
        }
      ],
      "name": "setAdminShareRate",
      "outputs": [],
      "stateMutability": "nonpayable",
      "type": "function"
    },
    {
      "inputs": [
        {
          "internalType": "address",
          "name": "newOwner",
          "type": "address"
        }
      ],
      "name": "transferOwnership",
      "outputs": [],
      "stateMutability": "nonpayable",
      "type": "function"
    },
    {
      "inputs": [],
      "name": "unpause",
      "outputs": [],
      "stateMutability": "nonpayable",
      "type": "function"
    },
    {
      "inputs": [
        {
          "internalType": "address",
          "name": "newImplementation",
          "type": "address"
        }
      ],
      "name": "upgradeTo",
      "outputs": [],
      "stateMutability": "nonpayable",
      "type": "function"
    },
    {
      "inputs": [
        {
          "internalType": "address",
          "name": "newImplementation",
          "type": "address"
        },
        {
          "internalType": "bytes",
          "name": "data",
          "type": "bytes"
        }
      ],
      "name": "upgradeToAndCall",
      "outputs": [],
      "stateMutability": "payable",
      "type": "function"
    }
  ],
  "bytecode": "0x60a06040523060805234801561001457600080fd5b50608051611ffb61004c600039600081816107050152818161074e015281816107ff0152818161083f01526108d20152611ffb6000f3fe60806040526004361061011f5760003560e01c8063715018a6116100a05780638da5cb5b116100645780638da5cb5b146102d9578063b8b9b54914610301578063c4d12ee914610316578063d9f774fc14610339578063f2fde38b1461035d57600080fd5b8063715018a61461025a5780638129fc1c1461026f5780638456cb591461028457806386d740371461029957806387262bb4146102b957600080fd5b80634f1ef286116100e75780634f1ef286146101bb57806352d1902d146101ce5780635c975abb146101f65780635cf833da1461021a578063704802751461023a57600080fd5b806306232001146101245780631785f53c146101465780632a28576c146101665780633659cfe6146101865780633f4ba83a146101a6575b600080fd5b34801561013057600080fd5b5061014461013f366004611b4a565b61037d565b005b34801561015257600080fd5b50610144610161366004611b89565b61039b565b34801561017257600080fd5b50610144610181366004611b89565b61054e565b34801561019257600080fd5b506101446101a1366004611b89565b6106fb565b3480156101b257600080fd5b506101446107e3565b6101446101c9366004611bba565b6107f5565b3480156101da57600080fd5b506101e36108c5565b6040519081526020015b60405180910390f35b34801561020257600080fd5b5060335460ff165b60405190151581526020016101ed565b34801561022657600080fd5b50610144610235366004611b89565b610978565b34801561024657600080fd5b50610144610255366004611b89565b610a05565b34801561026657600080fd5b50610144610a8b565b34801561027b57600080fd5b50610144610a9d565b34801561029057600080fd5b50610144610bfd565b3480156102a557600080fd5b506101446102b4366004611b89565b610c0d565b3480156102c557600080fd5b5061020a6102d4366004611b89565b610fe4565b3480156102e557600080fd5b506065546040516001600160a01b0390911681526020016101ed565b34801561030d57600080fd5b506101446110b5565b34801561032257600080fd5b5061032b611389565b6040516101ed929190611cc0565b34801561034557600080fd5b5061034e6113f2565b6040516101ed93929190611ce2565b34801561036957600080fd5b50610144610378366004611b89565b611469565b6103856114df565b60fd805460ff191660ff92909216919091179055565b6103a36114df565b600060fc8054806020026020016040519081016040528092919081815260200182805480156103fb57602002820191906000526020600020905b81546001600160a01b031681526001909101906020018083116103dd575b505083519394506000925050505b818161ffff16101561054857828161ffff168151811061042b5761042b611d0e565b60200260200101516001600160a01b0316846001600160a01b0316036104fa5760fc610458600184611d3a565b8154811061046857610468611d0e565b60009182526020909120015460fc80546001600160a01b039092169161ffff841690811061049857610498611d0e565b9060005260206000200160006101000a8154816001600160a01b0302191690836001600160a01b0316021790555060fc8054806104d7576104d7611d4d565b600082815260209020810160001990810180546001600160a01b03191690550190555b6040516001600160a01b03851681527f3137a7fedbfedb7895dfa5a6812a4566dae9ded68d00aeec13c6ed1fa84a1c809060200160405180910390a18061054081611d63565b915050610409565b50505050565b6105566114df565b600060fb8054806020026020016040519081016040528092919081815260200182805480156105ae57602002820191906000526020600020905b81546001600160a01b03168152600190910190602001808311610590575b505083519394506000925050505b818161ffff16101561054857828161ffff16815181106105de576105de611d0e565b60200260200101516001600160a01b0316846001600160a01b0316036106ad5760fb61060b600184611d3a565b8154811061061b5761061b611d0e565b60009182526020909120015460fb80546001600160a01b039092169161ffff841690811061064b5761064b611d0e565b9060005260206000200160006101000a8154816001600160a01b0302191690836001600160a01b0316021790555060fb80548061068a5761068a611d4d565b600082815260209020810160001990810180546001600160a01b03191690550190555b6040516001600160a01b03851681527f886a0002ee57f231e443a0d2d27811c0b75e1f6165cf416fc5259cba744329839060200160405180910390a1806106f381611d63565b9150506105bc565b6001600160a01b037f000000000000000000000000000000000000000000000000000000000000000016300361074c5760405162461bcd60e51b815260040161074390611d84565b60405180910390fd5b7f00000000000000000000000000000000000000000000000000000000000000006001600160a01b0316610795600080516020611f7f833981519152546001600160a01b031690565b6001600160a01b0316146107bb5760405162461bcd60e51b815260040161074390611dd0565b6107c481611539565b604080516000808252602082019092526107e091839190611541565b50565b6107eb6114df565b6107f36116b1565b565b6001600160a01b037f000000000000000000000000000000000000000000000000000000000000000016300361083d5760405162461bcd60e51b815260040161074390611d84565b7f00000000000000000000000000000000000000000000000000000000000000006001600160a01b0316610886600080516020611f7f833981519152546001600160a01b031690565b6001600160a01b0316146108ac5760405162461bcd60e51b815260040161074390611dd0565b6108b582611539565b6108c182826001611541565b5050565b6000306001600160a01b037f000000000000000000000000000000000000000000000000000000000000000016146109655760405162461bcd60e51b815260206004820152603860248201527f555550535570677261646561626c653a206d757374206e6f742062652063616c60448201527f6c6564207468726f7567682064656c656761746563616c6c00000000000000006064820152608401610743565b50600080516020611f7f83398151915290565b6109806114df565b60fb80546001810182556000919091527f3e7257b7272bb46d49cd6019b04ddee20da7c0cb13f7c1ec3391291b2ccebabc0180546001600160a01b0319166001600160a01b0383169081179091556040519081527ffe4cf9290a1fba8327acbf8b8b43ced4a73a6e01979709c1cbb6d7bb0b2863f6906020015b60405180910390a150565b610a0d6114df565b60fc80546001810182556000919091527f371f36870d18f32a11fea0f144b021c8b407bb50f8e0267c711123f454b963c00180546001600160a01b0319166001600160a01b0383169081179091556040519081527f7849194239ab1d31b991b5436d81370256505cf25eaafbcccbc66acd11896916906020016109fa565b610a936114df565b6107f36000611703565b600054610100900460ff1615808015610abd5750600054600160ff909116105b80610ad75750303b158015610ad7575060005460ff166001145b610b3a5760405162461bcd60e51b815260206004820152602e60248201527f496e697469616c697a61626c653a20636f6e747261637420697320616c72656160448201526d191e481a5b9a5d1a585b1a5e995960921b6064820152608401610743565b6000805460ff191660011790558015610b5d576000805461ff0019166101001790555b60fc610b716065546001600160a01b031690565b81546001810183556000928352602090922090910180546001600160a01b0319166001600160a01b03909216919091179055610bab611755565b610bb3611784565b610bbb6117b3565b80156107e0576000805461ff0019169055604051600181527f7f26b83ff96e1f2b6a682f133852f6798a09c465da95921460cefb3847402498906020016109fa565b610c056114df565b6107f36117da565b610c15611817565b600060fb805480602002602001604051908101604052809291908181526020018280548015610c6d57602002820191906000526020600020905b81546001600160a01b03168152600190910190602001808311610c4f575b50505050509050600060fc805480602002602001604051908101604052809291908181526020018280548015610ccc57602002820191906000526020600020905b81546001600160a01b03168152600190910190602001808311610cae575b5050855184516040516370a0823160e01b81523060048201529596509094909350600092506001600160a01b03881691506370a0823190602401602060405180830381865afa158015610d23573d6000803e3d6000fd5b505050506040513d601f19601f82011682018060405250810190610d479190611e1c565b60fd54909150600090606490610d609060ff1684611e35565b610d6a9190611e4c565b90506000610d788284611d3a565b90506000610d868584611e4c565b90506000610d948784611e4c565b905060005b868161ffff161015610eb6578a6001600160a01b031663a9059cbb8a8361ffff1681518110610dca57610dca611d0e565b6020026020010151856040518363ffffffff1660e01b8152600401610e049291906001600160a01b03929092168252602082015260400190565b6020604051808303816000875af1158015610e23573d6000803e3d6000fd5b505050506040513d601f19601f82011682018060405250810190610e479190611e6e565b507f45e21a04ded973229aa2879f8db4a7196c900363ed98bbf373bf0b499b6691da898261ffff1681518110610e7f57610e7f611d0e565b602002602001015184888a8f604051610e9c959493929190611e90565b60405180910390a180610eae81611d63565b915050610d99565b5060005b878161ffff161015610fd7578a6001600160a01b031663a9059cbb8b8361ffff1681518110610eeb57610eeb611d0e565b6020026020010151846040518363ffffffff1660e01b8152600401610f259291906001600160a01b03929092168252602082015260400190565b6020604051808303816000875af1158015610f44573d6000803e3d6000fd5b505050506040513d601f19601f82011682018060405250810190610f689190611e6e565b507ffdd9227d7f7e007f47768219b57d918722583293089f1e7352a26c4bdac5d9358a8261ffff1681518110610fa057610fa0611d0e565b602002602001015183888b8f604051610fbd959493929190611e90565b60405180910390a180610fcf81611d63565b915050610eba565b5050505050505050505050565b60008060fb80548060200260200160405190810160405280929190818152602001828054801561103d57602002820191906000526020600020905b81546001600160a01b0316815260019091019060200180831161101f575b505083519394506000925050505b818161ffff1610156110aa57828161ffff168151811061106d5761106d611d0e565b60200260200101516001600160a01b0316856001600160a01b03160361109857506001949350505050565b806110a281611d63565b91505061104b565b506000949350505050565b6110bd611817565b600060fb80548060200260200160405190810160405280929190818152602001828054801561111557602002820191906000526020600020905b81546001600160a01b031681526001909101906020018083116110f7575b50505050509050600060fc80548060200260200160405190810160405280929190818152602001828054801561117457602002820191906000526020600020905b81546001600160a01b03168152600190910190602001808311611156575b50508551845160fd5495965090949093504792506000915060649061119c9060ff1684611e35565b6111a69190611e4c565b905060006111b48284611d3a565b905060006111c28584611e4c565b905060006111d08784611e4c565b905060005b868161ffff1610156112a757888161ffff16815181106111f7576111f7611d0e565b60200260200101516001600160a01b03166108fc849081150290604051600060405180830381858888f19350505050158015611237573d6000803e3d6000fd5b507f45e21a04ded973229aa2879f8db4a7196c900363ed98bbf373bf0b499b6691da898261ffff168151811061126f5761126f611d0e565b602002602001015184888a600060405161128d959493929190611e90565b60405180910390a18061129f81611d63565b9150506111d5565b5060005b878161ffff16101561137d57898161ffff16815181106112cd576112cd611d0e565b60200260200101516001600160a01b03166108fc839081150290604051600060405180830381858888f1935050505015801561130d573d6000803e3d6000fd5b507ffdd9227d7f7e007f47768219b57d918722583293089f1e7352a26c4bdac5d9358a8261ffff168151811061134557611345611d0e565b602002602001015183888b6000604051611363959493929190611e90565b60405180910390a18061137581611d63565b9150506112ab565b50505050505050505050565b6060600060fb8054806020026020016040519081016040528092919081815260200182805480156113e357602002820191906000526020600020905b81546001600160a01b031681526001909101906020018083116113c5575b50505050509150815190509091565b606060008060fc80548060200260200160405190810160405280929190818152602001828054801561144d57602002820191906000526020600020905b81546001600160a01b0316815260019091019060200180831161142f575b505060fc5460fd54949890975060ff9094169550929350505050565b6114716114df565b6001600160a01b0381166114d65760405162461bcd60e51b815260206004820152602660248201527f4f776e61626c653a206e6577206f776e657220697320746865207a65726f206160448201526564647265737360d01b6064820152608401610743565b6107e081611703565b6065546001600160a01b031633146107f35760405162461bcd60e51b815260206004820181905260248201527f4f776e61626c653a2063616c6c6572206973206e6f7420746865206f776e65726044820152606401610743565b6107e06114df565b7f4910fdfa16fed3260ed0e7147f7cc6da11a60208b5b9406d12a635614ffd91435460ff1615611579576115748361185d565b505050565b826001600160a01b03166352d1902d6040518163ffffffff1660e01b8152600401602060405180830381865afa9250505080156115d3575060408051601f3d908101601f191682019092526115d091810190611e1c565b60015b6116365760405162461bcd60e51b815260206004820152602e60248201527f45524331393637557067726164653a206e657720696d706c656d656e7461746960448201526d6f6e206973206e6f74205555505360901b6064820152608401610743565b600080516020611f7f83398151915281146116a55760405162461bcd60e51b815260206004820152602960248201527f45524331393637557067726164653a20756e737570706f727465642070726f786044820152681a58589b195555525160ba1b6064820152608401610743565b506115748383836118f9565b6116b961191e565b6033805460ff191690557f5db9ee0a495bf2e6ff9c91a7834c1ba4fdd244a5e8aa4e537bd38aeae4b073aa335b6040516001600160a01b03909116815260200160405180910390a1565b606580546001600160a01b038381166001600160a01b0319831681179093556040519116919082907f8be0079c531659141344cd1fd0a4f28419497f9722a3daafe3b4186f6b6457e090600090a35050565b600054610100900460ff1661177c5760405162461bcd60e51b815260040161074390611ec0565b6107f3611967565b600054610100900460ff166117ab5760405162461bcd60e51b815260040161074390611ec0565b6107f361199a565b600054610100900460ff166107f35760405162461bcd60e51b815260040161074390611ec0565b6117e2611817565b6033805460ff191660011790557f62e78cea01bee320cd4e420270b5ea74000d11b0c9f74754ebdbfc544b05a2586116e63390565b60335460ff16156107f35760405162461bcd60e51b815260206004820152601060248201526f14185d5cd8589b194e881c185d5cd95960821b6044820152606401610743565b6001600160a01b0381163b6118ca5760405162461bcd60e51b815260206004820152602d60248201527f455243313936373a206e657720696d706c656d656e746174696f6e206973206e60448201526c1bdd08184818dbdb9d1c9858dd609a1b6064820152608401610743565b600080516020611f7f83398151915280546001600160a01b0319166001600160a01b0392909216919091179055565b611902836119ca565b60008251118061190f5750805b15611574576105488383611a0a565b60335460ff166107f35760405162461bcd60e51b815260206004820152601460248201527314185d5cd8589b194e881b9bdd081c185d5cd95960621b6044820152606401610743565b600054610100900460ff1661198e5760405162461bcd60e51b815260040161074390611ec0565b6033805460ff19169055565b600054610100900460ff166119c15760405162461bcd60e51b815260040161074390611ec0565b6107f333611703565b6119d38161185d565b6040516001600160a01b038216907fbc7cd75a20ee27fd9adebab32041f755214dbc6bffa90cc0225b39da2e5c2d3b90600090a250565b60606001600160a01b0383163b611a725760405162461bcd60e51b815260206004820152602660248201527f416464726573733a2064656c65676174652063616c6c20746f206e6f6e2d636f6044820152651b9d1c9858dd60d21b6064820152608401610743565b600080846001600160a01b031684604051611a8d9190611f2f565b600060405180830381855af49150503d8060008114611ac8576040519150601f19603f3d011682016040523d82523d6000602084013e611acd565b606091505b5091509150611af58282604051806060016040528060278152602001611f9f60279139611b00565b925050505b92915050565b60608315611b0f575081611b19565b611b198383611b20565b9392505050565b815115611b305781518083602001fd5b8060405162461bcd60e51b81526004016107439190611f4b565b600060208284031215611b5c57600080fd5b813560ff81168114611b1957600080fd5b80356001600160a01b0381168114611b8457600080fd5b919050565b600060208284031215611b9b57600080fd5b611b1982611b6d565b634e487b7160e01b600052604160045260246000fd5b60008060408385031215611bcd57600080fd5b611bd683611b6d565b9150602083013567ffffffffffffffff80821115611bf357600080fd5b818501915085601f830112611c0757600080fd5b813581811115611c1957611c19611ba4565b604051601f8201601f19908116603f01168101908382118183101715611c4157611c41611ba4565b81604052828152886020848701011115611c5a57600080fd5b8260208601602083013760006020848301015280955050505050509250929050565b600081518084526020808501945080840160005b83811015611cb55781516001600160a01b031687529582019590820190600101611c90565b509495945050505050565b604081526000611cd36040830185611c7c565b90508260208301529392505050565b606081526000611cf56060830186611c7c565b905083602083015260ff83166040830152949350505050565b634e487b7160e01b600052603260045260246000fd5b634e487b7160e01b600052601160045260246000fd5b81810381811115611afa57611afa611d24565b634e487b7160e01b600052603160045260246000fd5b600061ffff808316818103611d7a57611d7a611d24565b6001019392505050565b6020808252602c908201527f46756e6374696f6e206d7573742062652063616c6c6564207468726f7567682060408201526b19195b1959d85d1958d85b1b60a21b606082015260800190565b6020808252602c908201527f46756e6374696f6e206d7573742062652063616c6c6564207468726f7567682060408201526b6163746976652070726f787960a01b606082015260800190565b600060208284031215611e2e57600080fd5b5051919050565b8082028115828204841417611afa57611afa611d24565b600082611e6957634e487b7160e01b600052601260045260246000fd5b500490565b600060208284031215611e8057600080fd5b81518015158114611b1957600080fd5b6001600160a01b039586168152602081019490945260408401929092526060830152909116608082015260a00190565b6020808252602b908201527f496e697469616c697a61626c653a20636f6e7472616374206973206e6f74206960408201526a6e697469616c697a696e6760a81b606082015260800190565b60005b83811015611f26578181015183820152602001611f0e565b50506000910152565b60008251611f41818460208701611f0b565b9190910192915050565b6020815260008251806020840152611f6a816040850160208701611f0b565b601f01601f1916919091016040019291505056fe360894a13ba1a3210667c828492db98dca3e2076cc3735a920a3ca505d382bbc416464726573733a206c6f772d6c6576656c2064656c65676174652063616c6c206661696c6564a264697066735822122029517859fd1a95bfbfeb96493ac4016dc3d3fb995334a160cedc60dfb02d81cf64736f6c63430008120033",
  "linkReferences": {},
  "deployedLinkReferences": {}
}