{
  "_format": "hh-sol-artifact-1",
  "contractName": "CoreMembersV1Upgradeable",
  "sourceName": "contracts/CoreMembersV1Upgradeable.sol",
  "abi": [
    {
      "anonymous": false,
      "inputs": [
        {
          "indexed": false,
          "internalType": "address",
          "name": "userAddress",
          "type": "address"
        }
      ],
      "name": "AddedCoreMember",
      "type": "event"
    },
    {
      "anonymous": false,
      "inputs": [
        {
          "indexed": false,
          "internalType": "address",
          "name": "previousAdmin",
          "type": "address"
        },
        {
          "indexed": false,
          "internalType": "address",
          "name": "newAdmin",
          "type": "address"
        }
      ],
      "name": "AdminChanged",
      "type": "event"
    },
    {
      "anonymous": false,
      "inputs": [
        {
          "indexed": true,
          "internalType": "address",
          "name": "beacon",
          "type": "address"
        }
      ],
      "name": "BeaconUpgraded",
      "type": "event"
    },
    {
      "anonymous": false,
      "inputs": [
        {
          "indexed": false,
          "internalType": "address",
          "name": "coreMemberAddress",
          "type": "address"
        },
        {
          "indexed": false,
          "internalType": "uint256",
          "name": "value",
          "type": "uint256"
        },
        {
          "indexed": false,
          "internalType": "address",
          "name": "valuePaidInContract",
          "type": "address"
        },
        {
          "indexed": false,
          "internalType": "uint256",
          "name": "totalMembers",
          "type": "uint256"
        }
      ],
      "name": "CoreMembersRewardPaid",
      "type": "event"
    },
    {
      "anonymous": false,
      "inputs": [
        {
          "indexed": false,
          "internalType": "uint8",
          "name": "version",
          "type": "uint8"
        }
      ],
      "name": "Initialized",
      "type": "event"
    },
    {
      "anonymous": false,
      "inputs": [
        {
          "indexed": true,
          "internalType": "address",
          "name": "previousOwner",
          "type": "address"
        },
        {
          "indexed": true,
          "internalType": "address",
          "name": "newOwner",
          "type": "address"
        }
      ],
      "name": "OwnershipTransferred",
      "type": "event"
    },
    {
      "anonymous": false,
      "inputs": [
        {
          "indexed": false,
          "internalType": "address",
          "name": "account",
          "type": "address"
        }
      ],
      "name": "Paused",
      "type": "event"
    },
    {
      "anonymous": false,
      "inputs": [
        {
          "indexed": false,
          "internalType": "address",
          "name": "userAddress",
          "type": "address"
        }
      ],
      "name": "RemoveCoreMember",
      "type": "event"
    },
    {
      "anonymous": false,
      "inputs": [
        {
          "indexed": false,
          "internalType": "address",
          "name": "account",
          "type": "address"
        }
      ],
      "name": "Unpaused",
      "type": "event"
    },
    {
      "anonymous": false,
      "inputs": [
        {
          "indexed": true,
          "internalType": "address",
          "name": "implementation",
          "type": "address"
        }
      ],
      "name": "Upgraded",
      "type": "event"
    },
    {
      "inputs": [
        {
          "internalType": "address",
          "name": "_userAddress",
          "type": "address"
        }
      ],
      "name": "addCoreMember",
      "outputs": [],
      "stateMutability": "nonpayable",
      "type": "function"
    },
    {
      "inputs": [],
      "name": "distributeETH",
      "outputs": [],
      "stateMutability": "nonpayable",
      "type": "function"
    },
    {
      "inputs": [
        {
          "internalType": "address",
          "name": "_tokenContract",
          "type": "address"
        }
      ],
      "name": "distributeToken",
      "outputs": [],
      "stateMutability": "nonpayable",
      "type": "function"
    },
    {
      "inputs": [],
      "name": "getCoreMembersList",
      "outputs": [
        {
          "internalType": "address[]",
          "name": "coreMembersList",
          "type": "address[]"
        },
        {
          "internalType": "uint256",
          "name": "coreMembersLength",
          "type": "uint256"
        }
      ],
      "stateMutability": "view",
      "type": "function"
    },
    {
      "inputs": [],
      "name": "initialize",
      "outputs": [],
      "stateMutability": "nonpayable",
      "type": "function"
    },
    {
      "inputs": [
        {
          "internalType": "address",
          "name": "_userAddress",
          "type": "address"
        }
      ],
      "name": "isUserInCoreMembersList",
      "outputs": [
        {
          "internalType": "bool",
          "name": "",
          "type": "bool"
        }
      ],
      "stateMutability": "view",
      "type": "function"
    },
    {
      "inputs": [],
      "name": "owner",
      "outputs": [
        {
          "internalType": "address",
          "name": "",
          "type": "address"
        }
      ],
      "stateMutability": "view",
      "type": "function"
    },
    {
      "inputs": [],
      "name": "pause",
      "outputs": [],
      "stateMutability": "nonpayable",
      "type": "function"
    },
    {
      "inputs": [],
      "name": "paused",
      "outputs": [
        {
          "internalType": "bool",
          "name": "",
          "type": "bool"
        }
      ],
      "stateMutability": "view",
      "type": "function"
    },
    {
      "inputs": [],
      "name": "proxiableUUID",
      "outputs": [
        {
          "internalType": "bytes32",
          "name": "",
          "type": "bytes32"
        }
      ],
      "stateMutability": "view",
      "type": "function"
    },
    {
      "inputs": [
        {
          "internalType": "address",
          "name": "_userAddress",
          "type": "address"
        }
      ],
      "name": "removeCoreMember",
      "outputs": [],
      "stateMutability": "nonpayable",
      "type": "function"
    },
    {
      "inputs": [],
      "name": "renounceOwnership",
      "outputs": [],
      "stateMutability": "nonpayable",
      "type": "function"
    },
    {
      "inputs": [
        {
          "internalType": "address",
          "name": "newOwner",
          "type": "address"
        }
      ],
      "name": "transferOwnership",
      "outputs": [],
      "stateMutability": "nonpayable",
      "type": "function"
    },
    {
      "inputs": [],
      "name": "unpause",
      "outputs": [],
      "stateMutability": "nonpayable",
      "type": "function"
    },
    {
      "inputs": [
        {
          "internalType": "address",
          "name": "newImplementation",
          "type": "address"
        }
      ],
      "name": "upgradeTo",
      "outputs": [],
      "stateMutability": "nonpayable",
      "type": "function"
    },
    {
      "inputs": [
        {
          "internalType": "address",
          "name": "newImplementation",
          "type": "address"
        },
        {
          "internalType": "bytes",
          "name": "data",
          "type": "bytes"
        }
      ],
      "name": "upgradeToAndCall",
      "outputs": [],
      "stateMutability": "payable",
      "type": "function"
    }
  ],
  "bytecode": "0x60a06040523060805234801561001457600080fd5b506080516117fb61004c6000396000818161048a015281816104d301528181610584015281816105c4015261065701526117fb6000f3fe6080604052600436106100f35760003560e01c80638129fc1c1161008a5780638da5cb5b116100595780638da5cb5b1461024d578063b8b9b54914610275578063c4d12ee91461028a578063f2fde38b146102ad57600080fd5b80638129fc1c146101e35780638456cb59146101f857806386d740371461020d57806387262bb41461022d57600080fd5b806352d1902d116100c657806352d1902d146101625780635c975abb1461018a5780635cf833da146101ae578063715018a6146101ce57600080fd5b80632a28576c146100f85780633659cfe61461011a5780633f4ba83a1461013a5780634f1ef2861461014f575b600080fd5b34801561010457600080fd5b50610118610113366004611433565b6102cd565b005b34801561012657600080fd5b50610118610135366004611433565b610480565b34801561014657600080fd5b50610118610568565b61011861015d366004611464565b61057a565b34801561016e57600080fd5b5061017761064a565b6040519081526020015b60405180910390f35b34801561019657600080fd5b5060335460ff165b6040519015158152602001610181565b3480156101ba57600080fd5b506101186101c9366004611433565b6106fd565b3480156101da57600080fd5b5061011861078a565b3480156101ef57600080fd5b5061011861079c565b34801561020457600080fd5b506101186108b6565b34801561021957600080fd5b50610118610228366004611433565b6108c6565b34801561023957600080fd5b5061019e610248366004611433565b610a97565b34801561025957600080fd5b506065546040516001600160a01b039091168152602001610181565b34801561028157600080fd5b50610118610b68565b34801561029657600080fd5b5061029f610ccd565b604051610181929190611526565b3480156102b957600080fd5b506101186102c8366004611433565b610d36565b6102d5610dac565b600060fb80548060200260200160405190810160405280929190818152602001828054801561032d57602002820191906000526020600020905b81546001600160a01b0316815260019091019060200180831161030f575b505083519394506000925050505b818161ffff16101561047a57828161ffff168151811061035d5761035d611577565b60200260200101516001600160a01b0316846001600160a01b03160361042c5760fb61038a6001846115a3565b8154811061039a5761039a611577565b60009182526020909120015460fb80546001600160a01b039092169161ffff84169081106103ca576103ca611577565b9060005260206000200160006101000a8154816001600160a01b0302191690836001600160a01b0316021790555060fb805480610409576104096115b6565b600082815260209020810160001990810180546001600160a01b03191690550190555b6040516001600160a01b03851681527fd36c7ffa5838d983ecfd41f5684aa11afcc10f290bd27e76bbb5506f3d0a91489060200160405180910390a180610472816115cc565b91505061033b565b50505050565b6001600160a01b037f00000000000000000000000000000000000000000000000000000000000000001630036104d15760405162461bcd60e51b81526004016104c8906115ed565b60405180910390fd5b7f00000000000000000000000000000000000000000000000000000000000000006001600160a01b031661051a60008051602061177f833981519152546001600160a01b031690565b6001600160a01b0316146105405760405162461bcd60e51b81526004016104c890611639565b61054981610e06565b6040805160008082526020820190925261056591839190610e0e565b50565b610570610dac565b610578610f7e565b565b6001600160a01b037f00000000000000000000000000000000000000000000000000000000000000001630036105c25760405162461bcd60e51b81526004016104c8906115ed565b7f00000000000000000000000000000000000000000000000000000000000000006001600160a01b031661060b60008051602061177f833981519152546001600160a01b031690565b6001600160a01b0316146106315760405162461bcd60e51b81526004016104c890611639565b61063a82610e06565b61064682826001610e0e565b5050565b6000306001600160a01b037f000000000000000000000000000000000000000000000000000000000000000016146106ea5760405162461bcd60e51b815260206004820152603860248201527f555550535570677261646561626c653a206d757374206e6f742062652063616c60448201527f6c6564207468726f7567682064656c656761746563616c6c000000000000000060648201526084016104c8565b5060008051602061177f83398151915290565b610705610dac565b60fb80546001810182556000919091527f3e7257b7272bb46d49cd6019b04ddee20da7c0cb13f7c1ec3391291b2ccebabc0180546001600160a01b0319166001600160a01b0383169081179091556040519081527ffe4cf9290a1fba8327acbf8b8b43ced4a73a6e01979709c1cbb6d7bb0b2863f6906020015b60405180910390a150565b610792610dac565b6105786000610fd0565b600054610100900460ff16158080156107bc5750600054600160ff909116105b806107d65750303b1580156107d6575060005460ff166001145b6108395760405162461bcd60e51b815260206004820152602e60248201527f496e697469616c697a61626c653a20636f6e747261637420697320616c72656160448201526d191e481a5b9a5d1a585b1a5e995960921b60648201526084016104c8565b6000805460ff19166001179055801561085c576000805461ff0019166101001790555b610864611022565b61086c611051565b610874611080565b8015610565576000805461ff0019169055604051600181527f7f26b83ff96e1f2b6a682f133852f6798a09c465da95921460cefb38474024989060200161077f565b6108be610dac565b6105786110a7565b600060fb80548060200260200160405190810160405280929190818152602001828054801561091e57602002820191906000526020600020905b81546001600160a01b03168152600190910190602001808311610900575b505083516040516370a0823160e01b815230600482015294955093600093506001600160a01b03871692506370a082319150602401602060405180830381865afa158015610970573d6000803e3d6000fd5b505050506040513d601f19601f820116820180604052508101906109949190611685565b905060006109a2838361169e565b905060005b838161ffff161015610a8f57848161ffff16815181106109c9576109c9611577565b60200260200101516001600160a01b03166108fc839081150290604051600060405180830381858888f19350505050158015610a09573d6000803e3d6000fd5b507f13bf42bd09ce4c1db4fed6cf8e9ba3489e2625a44cf36df1fca75be6e5e8b833858261ffff1681518110610a4157610a41611577565b602090810291909101810151604080516001600160a01b039283168152928301869052908916908201526060810186905260800160405180910390a180610a87816115cc565b9150506109a7565b505050505050565b60008060fb805480602002602001604051908101604052809291908181526020018280548015610af057602002820191906000526020600020905b81546001600160a01b03168152600190910190602001808311610ad2575b505083519394506000925050505b818161ffff161015610b5d57828161ffff1681518110610b2057610b20611577565b60200260200101516001600160a01b0316856001600160a01b031603610b4b57506001949350505050565b80610b55816115cc565b915050610afe565b506000949350505050565b600060fb805480602002602001604051908101604052809291908181526020018280548015610bc057602002820191906000526020600020905b81546001600160a01b03168152600190910190602001808311610ba2575b5050835193945047925060009150610bda9050838361169e565b905060005b838161ffff161015610cc657848161ffff1681518110610c0157610c01611577565b60200260200101516001600160a01b03166108fc839081150290604051600060405180830381858888f19350505050158015610c41573d6000803e3d6000fd5b507f13bf42bd09ce4c1db4fed6cf8e9ba3489e2625a44cf36df1fca75be6e5e8b833858261ffff1681518110610c7957610c79611577565b602090810291909101810151604080516001600160a01b0390921682529181018590526000818301526060810187905290519081900360800190a180610cbe816115cc565b915050610bdf565b5050505050565b6060600060fb805480602002602001604051908101604052809291908181526020018280548015610d2757602002820191906000526020600020905b81546001600160a01b03168152600190910190602001808311610d09575b50505050509150815190509091565b610d3e610dac565b6001600160a01b038116610da35760405162461bcd60e51b815260206004820152602660248201527f4f776e61626c653a206e6577206f776e657220697320746865207a65726f206160448201526564647265737360d01b60648201526084016104c8565b61056581610fd0565b6065546001600160a01b031633146105785760405162461bcd60e51b815260206004820181905260248201527f4f776e61626c653a2063616c6c6572206973206e6f7420746865206f776e657260448201526064016104c8565b610565610dac565b7f4910fdfa16fed3260ed0e7147f7cc6da11a60208b5b9406d12a635614ffd91435460ff1615610e4657610e41836110e4565b505050565b826001600160a01b03166352d1902d6040518163ffffffff1660e01b8152600401602060405180830381865afa925050508015610ea0575060408051601f3d908101601f19168201909252610e9d91810190611685565b60015b610f035760405162461bcd60e51b815260206004820152602e60248201527f45524331393637557067726164653a206e657720696d706c656d656e7461746960448201526d6f6e206973206e6f74205555505360901b60648201526084016104c8565b60008051602061177f8339815191528114610f725760405162461bcd60e51b815260206004820152602960248201527f45524331393637557067726164653a20756e737570706f727465642070726f786044820152681a58589b195555525160ba1b60648201526084016104c8565b50610e41838383611180565b610f866111a5565b6033805460ff191690557f5db9ee0a495bf2e6ff9c91a7834c1ba4fdd244a5e8aa4e537bd38aeae4b073aa335b6040516001600160a01b03909116815260200160405180910390a1565b606580546001600160a01b038381166001600160a01b0319831681179093556040519116919082907f8be0079c531659141344cd1fd0a4f28419497f9722a3daafe3b4186f6b6457e090600090a35050565b600054610100900460ff166110495760405162461bcd60e51b81526004016104c8906116c0565b6105786111ee565b600054610100900460ff166110785760405162461bcd60e51b81526004016104c8906116c0565b610578611221565b600054610100900460ff166105785760405162461bcd60e51b81526004016104c8906116c0565b6110af611251565b6033805460ff191660011790557f62e78cea01bee320cd4e420270b5ea74000d11b0c9f74754ebdbfc544b05a258610fb33390565b6001600160a01b0381163b6111515760405162461bcd60e51b815260206004820152602d60248201527f455243313936373a206e657720696d706c656d656e746174696f6e206973206e60448201526c1bdd08184818dbdb9d1c9858dd609a1b60648201526084016104c8565b60008051602061177f83398151915280546001600160a01b0319166001600160a01b0392909216919091179055565b61118983611297565b6000825111806111965750805b15610e415761047a83836112d7565b60335460ff166105785760405162461bcd60e51b815260206004820152601460248201527314185d5cd8589b194e881b9bdd081c185d5cd95960621b60448201526064016104c8565b600054610100900460ff166112155760405162461bcd60e51b81526004016104c8906116c0565b6033805460ff19169055565b600054610100900460ff166112485760405162461bcd60e51b81526004016104c8906116c0565b61057833610fd0565b60335460ff16156105785760405162461bcd60e51b815260206004820152601060248201526f14185d5cd8589b194e881c185d5cd95960821b60448201526064016104c8565b6112a0816110e4565b6040516001600160a01b038216907fbc7cd75a20ee27fd9adebab32041f755214dbc6bffa90cc0225b39da2e5c2d3b90600090a250565b60606001600160a01b0383163b61133f5760405162461bcd60e51b815260206004820152602660248201527f416464726573733a2064656c65676174652063616c6c20746f206e6f6e2d636f6044820152651b9d1c9858dd60d21b60648201526084016104c8565b600080846001600160a01b03168460405161135a919061172f565b600060405180830381855af49150503d8060008114611395576040519150601f19603f3d011682016040523d82523d6000602084013e61139a565b606091505b50915091506113c2828260405180606001604052806027815260200161179f602791396113cd565b925050505b92915050565b606083156113dc5750816113e6565b6113e683836113ed565b9392505050565b8151156113fd5781518083602001fd5b8060405162461bcd60e51b81526004016104c8919061174b565b80356001600160a01b038116811461142e57600080fd5b919050565b60006020828403121561144557600080fd5b6113e682611417565b634e487b7160e01b600052604160045260246000fd5b6000806040838503121561147757600080fd5b61148083611417565b9150602083013567ffffffffffffffff8082111561149d57600080fd5b818501915085601f8301126114b157600080fd5b8135818111156114c3576114c361144e565b604051601f8201601f19908116603f011681019083821181831017156114eb576114eb61144e565b8160405282815288602084870101111561150457600080fd5b8260208601602083013760006020848301015280955050505050509250929050565b604080825283519082018190526000906020906060840190828701845b828110156115685781516001600160a01b031684529284019290840190600101611543565b50505092019290925292915050565b634e487b7160e01b600052603260045260246000fd5b634e487b7160e01b600052601160045260246000fd5b818103818111156113c7576113c761158d565b634e487b7160e01b600052603160045260246000fd5b600061ffff8083168181036115e3576115e361158d565b6001019392505050565b6020808252602c908201527f46756e6374696f6e206d7573742062652063616c6c6564207468726f7567682060408201526b19195b1959d85d1958d85b1b60a21b606082015260800190565b6020808252602c908201527f46756e6374696f6e206d7573742062652063616c6c6564207468726f7567682060408201526b6163746976652070726f787960a01b606082015260800190565b60006020828403121561169757600080fd5b5051919050565b6000826116bb57634e487b7160e01b600052601260045260246000fd5b500490565b6020808252602b908201527f496e697469616c697a61626c653a20636f6e7472616374206973206e6f74206960408201526a6e697469616c697a696e6760a81b606082015260800190565b60005b8381101561172657818101518382015260200161170e565b50506000910152565b6000825161174181846020870161170b565b9190910192915050565b602081526000825180602084015261176a81604085016020870161170b565b601f01601f1916919091016040019291505056fe360894a13ba1a3210667c828492db98dca3e2076cc3735a920a3ca505d382bbc416464726573733a206c6f772d6c6576656c2064656c65676174652063616c6c206661696c6564a2646970667358221220a6dd8ae288abd1c40262284abd6f68c2bdb4dbeab592d91a8a2477ea0ed16fd464736f6c63430008120033",
  "linkReferences": {},
  "deployedLinkReferences": {}
}