{
  "_format": "hh-sol-artifact-1",
  "contractName": "CoreMembersV1Upgradeable",
  "sourceName": "contracts/CoreMembersV1Upgradeable.sol",
  "abi": [
    {
      "anonymous": false,
      "inputs": [
        {
          "indexed": false,
          "internalType": "address",
          "name": "adminAddress",
          "type": "address"
        }
      ],
      "name": "AddedAdmin",
      "type": "event"
    },
    {
      "anonymous": false,
      "inputs": [
        {
          "indexed": false,
          "internalType": "address",
          "name": "coreMemberAddress",
          "type": "address"
        }
      ],
      "name": "AddedCoreMember",
      "type": "event"
    },
    {
      "anonymous": false,
      "inputs": [
        {
          "indexed": false,
          "internalType": "address",
          "name": "previousAdmin",
          "type": "address"
        },
        {
          "indexed": false,
          "internalType": "address",
          "name": "newAdmin",
          "type": "address"
        }
      ],
      "name": "AdminChanged",
      "type": "event"
    },
    {
      "anonymous": false,
      "inputs": [
        {
          "indexed": false,
          "internalType": "address",
          "name": "adminAddress",
          "type": "address"
        },
        {
          "indexed": false,
          "internalType": "uint256",
          "name": "value",
          "type": "uint256"
        },
        {
          "indexed": false,
          "internalType": "uint256",
          "name": "valuePaidInContract",
          "type": "uint256"
        },
        {
          "indexed": false,
          "internalType": "uint256",
          "name": "totalMembers",
          "type": "uint256"
        },
        {
          "indexed": false,
          "internalType": "address",
          "name": "paidIn",
          "type": "address"
        }
      ],
      "name": "AdminSharePaid",
      "type": "event"
    },
    {
      "anonymous": false,
      "inputs": [
        {
          "indexed": true,
          "internalType": "address",
          "name": "beacon",
          "type": "address"
        }
      ],
      "name": "BeaconUpgraded",
      "type": "event"
    },
    {
      "anonymous": false,
      "inputs": [
        {
          "indexed": false,
          "internalType": "address",
          "name": "coreMemberAddress",
          "type": "address"
        },
        {
          "indexed": false,
          "internalType": "uint256",
          "name": "value",
          "type": "uint256"
        },
        {
          "indexed": false,
          "internalType": "uint256",
          "name": "valuePaidInContract",
          "type": "uint256"
        },
        {
          "indexed": false,
          "internalType": "uint256",
          "name": "totalMembers",
          "type": "uint256"
        },
        {
          "indexed": false,
          "internalType": "address",
          "name": "paidIn",
          "type": "address"
        }
      ],
      "name": "CoreMembersRewardPaid",
      "type": "event"
    },
    {
      "anonymous": false,
      "inputs": [
        {
          "indexed": false,
          "internalType": "uint8",
          "name": "version",
          "type": "uint8"
        }
      ],
      "name": "Initialized",
      "type": "event"
    },
    {
      "anonymous": false,
      "inputs": [
        {
          "indexed": true,
          "internalType": "address",
          "name": "previousOwner",
          "type": "address"
        },
        {
          "indexed": true,
          "internalType": "address",
          "name": "newOwner",
          "type": "address"
        }
      ],
      "name": "OwnershipTransferred",
      "type": "event"
    },
    {
      "anonymous": false,
      "inputs": [
        {
          "indexed": false,
          "internalType": "address",
          "name": "account",
          "type": "address"
        }
      ],
      "name": "Paused",
      "type": "event"
    },
    {
      "anonymous": false,
      "inputs": [
        {
          "indexed": false,
          "internalType": "address",
          "name": "adminAddress",
          "type": "address"
        }
      ],
      "name": "RemovedAdmin",
      "type": "event"
    },
    {
      "anonymous": false,
      "inputs": [
        {
          "indexed": false,
          "internalType": "address",
          "name": "coreMemberAddress",
          "type": "address"
        }
      ],
      "name": "RemovedCoreMember",
      "type": "event"
    },
    {
      "anonymous": false,
      "inputs": [
        {
          "indexed": false,
          "internalType": "address",
          "name": "account",
          "type": "address"
        }
      ],
      "name": "Unpaused",
      "type": "event"
    },
    {
      "anonymous": false,
      "inputs": [
        {
          "indexed": true,
          "internalType": "address",
          "name": "implementation",
          "type": "address"
        }
      ],
      "name": "Upgraded",
      "type": "event"
    },
    {
      "inputs": [
        {
          "internalType": "address",
          "name": "_address",
          "type": "address"
        }
      ],
      "name": "addAdmin",
      "outputs": [],
      "stateMutability": "nonpayable",
      "type": "function"
    },
    {
      "inputs": [
        {
          "internalType": "address",
          "name": "_userAddress",
          "type": "address"
        }
      ],
      "name": "addCoreMember",
      "outputs": [],
      "stateMutability": "nonpayable",
      "type": "function"
    },
    {
      "inputs": [],
      "name": "distributeETH",
      "outputs": [],
      "stateMutability": "nonpayable",
      "type": "function"
    },
    {
      "inputs": [
        {
          "internalType": "address",
          "name": "_tokenContract",
          "type": "address"
        }
      ],
      "name": "distributeToken",
      "outputs": [],
      "stateMutability": "nonpayable",
      "type": "function"
    },
    {
      "inputs": [],
      "name": "getAdminList",
      "outputs": [
        {
          "internalType": "address[]",
          "name": "adminsList",
          "type": "address[]"
        },
        {
          "internalType": "uint256",
          "name": "adminsCount",
          "type": "uint256"
        },
        {
          "internalType": "uint8",
          "name": "adminShareRate",
          "type": "uint8"
        }
      ],
      "stateMutability": "view",
      "type": "function"
    },
    {
      "inputs": [],
      "name": "getCoreMembersList",
      "outputs": [
        {
          "internalType": "address[]",
          "name": "coreMembersList",
          "type": "address[]"
        },
        {
          "internalType": "uint256",
          "name": "coreMembersLength",
          "type": "uint256"
        }
      ],
      "stateMutability": "view",
      "type": "function"
    },
    {
      "inputs": [],
      "name": "initialize",
      "outputs": [],
      "stateMutability": "nonpayable",
      "type": "function"
    },
    {
      "inputs": [
        {
          "internalType": "address",
          "name": "_userAddress",
          "type": "address"
        }
      ],
      "name": "isUserInCoreMembersList",
      "outputs": [
        {
          "internalType": "bool",
          "name": "",
          "type": "bool"
        }
      ],
      "stateMutability": "view",
      "type": "function"
    },
    {
      "inputs": [],
      "name": "owner",
      "outputs": [
        {
          "internalType": "address",
          "name": "",
          "type": "address"
        }
      ],
      "stateMutability": "view",
      "type": "function"
    },
    {
      "inputs": [],
      "name": "pause",
      "outputs": [],
      "stateMutability": "nonpayable",
      "type": "function"
    },
    {
      "inputs": [],
      "name": "paused",
      "outputs": [
        {
          "internalType": "bool",
          "name": "",
          "type": "bool"
        }
      ],
      "stateMutability": "view",
      "type": "function"
    },
    {
      "inputs": [],
      "name": "proxiableUUID",
      "outputs": [
        {
          "internalType": "bytes32",
          "name": "",
          "type": "bytes32"
        }
      ],
      "stateMutability": "view",
      "type": "function"
    },
    {
      "inputs": [
        {
          "internalType": "address",
          "name": "_address",
          "type": "address"
        }
      ],
      "name": "removeAdmin",
      "outputs": [],
      "stateMutability": "nonpayable",
      "type": "function"
    },
    {
      "inputs": [
        {
          "internalType": "address",
          "name": "_userAddress",
          "type": "address"
        }
      ],
      "name": "removeCoreMember",
      "outputs": [],
      "stateMutability": "nonpayable",
      "type": "function"
    },
    {
      "inputs": [],
      "name": "renounceOwnership",
      "outputs": [],
      "stateMutability": "nonpayable",
      "type": "function"
    },
    {
      "inputs": [
        {
          "internalType": "uint8",
          "name": "_value",
          "type": "uint8"
        }
      ],
      "name": "setAdminShareRate",
      "outputs": [],
      "stateMutability": "nonpayable",
      "type": "function"
    },
    {
      "inputs": [
        {
          "internalType": "address",
          "name": "newOwner",
          "type": "address"
        }
      ],
      "name": "transferOwnership",
      "outputs": [],
      "stateMutability": "nonpayable",
      "type": "function"
    },
    {
      "inputs": [
        {
          "internalType": "address",
          "name": "_tokenAddress",
          "type": "address"
        },
        {
          "internalType": "address",
          "name": "_userAddress",
          "type": "address"
        },
        {
          "internalType": "uint256",
          "name": "_valueInWei",
          "type": "uint256"
        }
      ],
      "name": "transferToken",
      "outputs": [],
      "stateMutability": "nonpayable",
      "type": "function"
    },
    {
      "inputs": [],
      "name": "unpause",
      "outputs": [],
      "stateMutability": "nonpayable",
      "type": "function"
    },
    {
      "inputs": [
        {
          "internalType": "address",
          "name": "newImplementation",
          "type": "address"
        }
      ],
      "name": "upgradeTo",
      "outputs": [],
      "stateMutability": "nonpayable",
      "type": "function"
    },
    {
      "inputs": [
        {
          "internalType": "address",
          "name": "newImplementation",
          "type": "address"
        },
        {
          "internalType": "bytes",
          "name": "data",
          "type": "bytes"
        }
      ],
      "name": "upgradeToAndCall",
      "outputs": [],
      "stateMutability": "payable",
      "type": "function"
    }
  ],
  "bytecode": "0x60a06040523060805234801561001457600080fd5b506080516120dd61004c60003960008181610730015281816107790152818161082a0152818161086a01526108fd01526120dd6000f3fe60806040526004361061012a5760003560e01c8063715018a6116100ab5780638da5cb5b1161006f5780638da5cb5b146102e4578063b8b9b5491461030c578063c4d12ee914610321578063d9f774fc14610344578063f2fde38b14610368578063f5537ede1461038857600080fd5b8063715018a6146102655780638129fc1c1461027a5780638456cb591461028f57806386d74037146102a457806387262bb4146102c457600080fd5b80634f1ef286116100f25780634f1ef286146101c657806352d1902d146101d95780635c975abb146102015780635cf833da14610225578063704802751461024557600080fd5b8063062320011461012f5780631785f53c146101515780632a28576c146101715780633659cfe6146101915780633f4ba83a146101b1575b600080fd5b34801561013b57600080fd5b5061014f61014a366004611bf0565b6103a8565b005b34801561015d57600080fd5b5061014f61016c366004611c2f565b6103c6565b34801561017d57600080fd5b5061014f61018c366004611c2f565b610579565b34801561019d57600080fd5b5061014f6101ac366004611c2f565b610726565b3480156101bd57600080fd5b5061014f61080e565b61014f6101d4366004611c60565b610820565b3480156101e557600080fd5b506101ee6108f0565b6040519081526020015b60405180910390f35b34801561020d57600080fd5b5060335460ff165b60405190151581526020016101f8565b34801561023157600080fd5b5061014f610240366004611c2f565b6109a3565b34801561025157600080fd5b5061014f610260366004611c2f565b610a30565b34801561027157600080fd5b5061014f610ab6565b34801561028657600080fd5b5061014f610ac8565b34801561029b57600080fd5b5061014f610c28565b3480156102b057600080fd5b5061014f6102bf366004611c2f565b610c38565b3480156102d057600080fd5b506102156102df366004611c2f565b61100f565b3480156102f057600080fd5b506065546040516001600160a01b0390911681526020016101f8565b34801561031857600080fd5b5061014f6110e0565b34801561032d57600080fd5b506103366113b4565b6040516101f8929190611d66565b34801561035057600080fd5b5061035961141d565b6040516101f893929190611d88565b34801561037457600080fd5b5061014f610383366004611c2f565b611494565b34801561039457600080fd5b5061014f6103a3366004611db4565b61150a565b6103b0611585565b60fd805460ff191660ff92909216919091179055565b6103ce611585565b600060fc80548060200260200160405190810160405280929190818152602001828054801561042657602002820191906000526020600020905b81546001600160a01b03168152600190910190602001808311610408575b505083519394506000925050505b818161ffff16101561057357828161ffff168151811061045657610456611df0565b60200260200101516001600160a01b0316846001600160a01b0316036105255760fc610483600184611e1c565b8154811061049357610493611df0565b60009182526020909120015460fc80546001600160a01b039092169161ffff84169081106104c3576104c3611df0565b9060005260206000200160006101000a8154816001600160a01b0302191690836001600160a01b0316021790555060fc80548061050257610502611e2f565b600082815260209020810160001990810180546001600160a01b03191690550190555b6040516001600160a01b03851681527f3137a7fedbfedb7895dfa5a6812a4566dae9ded68d00aeec13c6ed1fa84a1c809060200160405180910390a18061056b81611e45565b915050610434565b50505050565b610581611585565b600060fb8054806020026020016040519081016040528092919081815260200182805480156105d957602002820191906000526020600020905b81546001600160a01b031681526001909101906020018083116105bb575b505083519394506000925050505b818161ffff16101561057357828161ffff168151811061060957610609611df0565b60200260200101516001600160a01b0316846001600160a01b0316036106d85760fb610636600184611e1c565b8154811061064657610646611df0565b60009182526020909120015460fb80546001600160a01b039092169161ffff841690811061067657610676611df0565b9060005260206000200160006101000a8154816001600160a01b0302191690836001600160a01b0316021790555060fb8054806106b5576106b5611e2f565b600082815260209020810160001990810180546001600160a01b03191690550190555b6040516001600160a01b03851681527f886a0002ee57f231e443a0d2d27811c0b75e1f6165cf416fc5259cba744329839060200160405180910390a18061071e81611e45565b9150506105e7565b6001600160a01b037f00000000000000000000000000000000000000000000000000000000000000001630036107775760405162461bcd60e51b815260040161076e90611e66565b60405180910390fd5b7f00000000000000000000000000000000000000000000000000000000000000006001600160a01b03166107c0600080516020612061833981519152546001600160a01b031690565b6001600160a01b0316146107e65760405162461bcd60e51b815260040161076e90611eb2565b6107ef816115df565b6040805160008082526020820190925261080b918391906115e7565b50565b610816611585565b61081e611757565b565b6001600160a01b037f00000000000000000000000000000000000000000000000000000000000000001630036108685760405162461bcd60e51b815260040161076e90611e66565b7f00000000000000000000000000000000000000000000000000000000000000006001600160a01b03166108b1600080516020612061833981519152546001600160a01b031690565b6001600160a01b0316146108d75760405162461bcd60e51b815260040161076e90611eb2565b6108e0826115df565b6108ec828260016115e7565b5050565b6000306001600160a01b037f000000000000000000000000000000000000000000000000000000000000000016146109905760405162461bcd60e51b815260206004820152603860248201527f555550535570677261646561626c653a206d757374206e6f742062652063616c60448201527f6c6564207468726f7567682064656c656761746563616c6c0000000000000000606482015260840161076e565b5060008051602061206183398151915290565b6109ab611585565b60fb80546001810182556000919091527f3e7257b7272bb46d49cd6019b04ddee20da7c0cb13f7c1ec3391291b2ccebabc0180546001600160a01b0319166001600160a01b0383169081179091556040519081527ffe4cf9290a1fba8327acbf8b8b43ced4a73a6e01979709c1cbb6d7bb0b2863f6906020015b60405180910390a150565b610a38611585565b60fc80546001810182556000919091527f371f36870d18f32a11fea0f144b021c8b407bb50f8e0267c711123f454b963c00180546001600160a01b0319166001600160a01b0383169081179091556040519081527f7849194239ab1d31b991b5436d81370256505cf25eaafbcccbc66acd1189691690602001610a25565b610abe611585565b61081e60006117a9565b600054610100900460ff1615808015610ae85750600054600160ff909116105b80610b025750303b158015610b02575060005460ff166001145b610b655760405162461bcd60e51b815260206004820152602e60248201527f496e697469616c697a61626c653a20636f6e747261637420697320616c72656160448201526d191e481a5b9a5d1a585b1a5e995960921b606482015260840161076e565b6000805460ff191660011790558015610b88576000805461ff0019166101001790555b60fc610b9c6065546001600160a01b031690565b81546001810183556000928352602090922090910180546001600160a01b0319166001600160a01b03909216919091179055610bd66117fb565b610bde61182a565b610be6611859565b801561080b576000805461ff0019169055604051600181527f7f26b83ff96e1f2b6a682f133852f6798a09c465da95921460cefb384740249890602001610a25565b610c30611585565b61081e611880565b610c406118bd565b600060fb805480602002602001604051908101604052809291908181526020018280548015610c9857602002820191906000526020600020905b81546001600160a01b03168152600190910190602001808311610c7a575b50505050509050600060fc805480602002602001604051908101604052809291908181526020018280548015610cf757602002820191906000526020600020905b81546001600160a01b03168152600190910190602001808311610cd9575b5050855184516040516370a0823160e01b81523060048201529596509094909350600092506001600160a01b03881691506370a0823190602401602060405180830381865afa158015610d4e573d6000803e3d6000fd5b505050506040513d601f19601f82011682018060405250810190610d729190611efe565b60fd54909150600090606490610d8b9060ff1684611f17565b610d959190611f2e565b90506000610da38284611e1c565b90506000610db18584611f2e565b90506000610dbf8784611f2e565b905060005b868161ffff161015610ee1578a6001600160a01b031663a9059cbb8a8361ffff1681518110610df557610df5611df0565b6020026020010151856040518363ffffffff1660e01b8152600401610e2f9291906001600160a01b03929092168252602082015260400190565b6020604051808303816000875af1158015610e4e573d6000803e3d6000fd5b505050506040513d601f19601f82011682018060405250810190610e729190611f50565b507f45e21a04ded973229aa2879f8db4a7196c900363ed98bbf373bf0b499b6691da898261ffff1681518110610eaa57610eaa611df0565b602002602001015184888a8f604051610ec7959493929190611f72565b60405180910390a180610ed981611e45565b915050610dc4565b5060005b878161ffff161015611002578a6001600160a01b031663a9059cbb8b8361ffff1681518110610f1657610f16611df0565b6020026020010151846040518363ffffffff1660e01b8152600401610f509291906001600160a01b03929092168252602082015260400190565b6020604051808303816000875af1158015610f6f573d6000803e3d6000fd5b505050506040513d601f19601f82011682018060405250810190610f939190611f50565b507ffdd9227d7f7e007f47768219b57d918722583293089f1e7352a26c4bdac5d9358a8261ffff1681518110610fcb57610fcb611df0565b602002602001015183888b8f604051610fe8959493929190611f72565b60405180910390a180610ffa81611e45565b915050610ee5565b5050505050505050505050565b60008060fb80548060200260200160405190810160405280929190818152602001828054801561106857602002820191906000526020600020905b81546001600160a01b0316815260019091019060200180831161104a575b505083519394506000925050505b818161ffff1610156110d557828161ffff168151811061109857611098611df0565b60200260200101516001600160a01b0316856001600160a01b0316036110c357506001949350505050565b806110cd81611e45565b915050611076565b506000949350505050565b6110e86118bd565b600060fb80548060200260200160405190810160405280929190818152602001828054801561114057602002820191906000526020600020905b81546001600160a01b03168152600190910190602001808311611122575b50505050509050600060fc80548060200260200160405190810160405280929190818152602001828054801561119f57602002820191906000526020600020905b81546001600160a01b03168152600190910190602001808311611181575b50508551845160fd549596509094909350479250600091506064906111c79060ff1684611f17565b6111d19190611f2e565b905060006111df8284611e1c565b905060006111ed8584611f2e565b905060006111fb8784611f2e565b905060005b868161ffff1610156112d257888161ffff168151811061122257611222611df0565b60200260200101516001600160a01b03166108fc849081150290604051600060405180830381858888f19350505050158015611262573d6000803e3d6000fd5b507f45e21a04ded973229aa2879f8db4a7196c900363ed98bbf373bf0b499b6691da898261ffff168151811061129a5761129a611df0565b602002602001015184888a60006040516112b8959493929190611f72565b60405180910390a1806112ca81611e45565b915050611200565b5060005b878161ffff1610156113a857898161ffff16815181106112f8576112f8611df0565b60200260200101516001600160a01b03166108fc839081150290604051600060405180830381858888f19350505050158015611338573d6000803e3d6000fd5b507ffdd9227d7f7e007f47768219b57d918722583293089f1e7352a26c4bdac5d9358a8261ffff168151811061137057611370611df0565b602002602001015183888b600060405161138e959493929190611f72565b60405180910390a1806113a081611e45565b9150506112d6565b50505050505050505050565b6060600060fb80548060200260200160405190810160405280929190818152602001828054801561140e57602002820191906000526020600020905b81546001600160a01b031681526001909101906020018083116113f0575b50505050509150815190509091565b606060008060fc80548060200260200160405190810160405280929190818152602001828054801561147857602002820191906000526020600020905b81546001600160a01b0316815260019091019060200180831161145a575b505060fc5460fd54949890975060ff9094169550929350505050565b61149c611585565b6001600160a01b0381166115015760405162461bcd60e51b815260206004820152602660248201527f4f776e61626c653a206e6577206f776e657220697320746865207a65726f206160448201526564647265737360d01b606482015260840161076e565b61080b816117a9565b611512611585565b60405163a9059cbb60e01b81526001600160a01b0383811660048301526024820183905284169063a9059cbb906044016020604051808303816000875af1158015611561573d6000803e3d6000fd5b505050506040513d601f19601f820116820180604052508101906105739190611f50565b6065546001600160a01b0316331461081e5760405162461bcd60e51b815260206004820181905260248201527f4f776e61626c653a2063616c6c6572206973206e6f7420746865206f776e6572604482015260640161076e565b61080b611585565b7f4910fdfa16fed3260ed0e7147f7cc6da11a60208b5b9406d12a635614ffd91435460ff161561161f5761161a83611903565b505050565b826001600160a01b03166352d1902d6040518163ffffffff1660e01b8152600401602060405180830381865afa925050508015611679575060408051601f3d908101601f1916820190925261167691810190611efe565b60015b6116dc5760405162461bcd60e51b815260206004820152602e60248201527f45524331393637557067726164653a206e657720696d706c656d656e7461746960448201526d6f6e206973206e6f74205555505360901b606482015260840161076e565b600080516020612061833981519152811461174b5760405162461bcd60e51b815260206004820152602960248201527f45524331393637557067726164653a20756e737570706f727465642070726f786044820152681a58589b195555525160ba1b606482015260840161076e565b5061161a83838361199f565b61175f6119c4565b6033805460ff191690557f5db9ee0a495bf2e6ff9c91a7834c1ba4fdd244a5e8aa4e537bd38aeae4b073aa335b6040516001600160a01b03909116815260200160405180910390a1565b606580546001600160a01b038381166001600160a01b0319831681179093556040519116919082907f8be0079c531659141344cd1fd0a4f28419497f9722a3daafe3b4186f6b6457e090600090a35050565b600054610100900460ff166118225760405162461bcd60e51b815260040161076e90611fa2565b61081e611a0d565b600054610100900460ff166118515760405162461bcd60e51b815260040161076e90611fa2565b61081e611a40565b600054610100900460ff1661081e5760405162461bcd60e51b815260040161076e90611fa2565b6118886118bd565b6033805460ff191660011790557f62e78cea01bee320cd4e420270b5ea74000d11b0c9f74754ebdbfc544b05a25861178c3390565b60335460ff161561081e5760405162461bcd60e51b815260206004820152601060248201526f14185d5cd8589b194e881c185d5cd95960821b604482015260640161076e565b6001600160a01b0381163b6119705760405162461bcd60e51b815260206004820152602d60248201527f455243313936373a206e657720696d706c656d656e746174696f6e206973206e60448201526c1bdd08184818dbdb9d1c9858dd609a1b606482015260840161076e565b60008051602061206183398151915280546001600160a01b0319166001600160a01b0392909216919091179055565b6119a883611a70565b6000825111806119b55750805b1561161a576105738383611ab0565b60335460ff1661081e5760405162461bcd60e51b815260206004820152601460248201527314185d5cd8589b194e881b9bdd081c185d5cd95960621b604482015260640161076e565b600054610100900460ff16611a345760405162461bcd60e51b815260040161076e90611fa2565b6033805460ff19169055565b600054610100900460ff16611a675760405162461bcd60e51b815260040161076e90611fa2565b61081e336117a9565b611a7981611903565b6040516001600160a01b038216907fbc7cd75a20ee27fd9adebab32041f755214dbc6bffa90cc0225b39da2e5c2d3b90600090a250565b60606001600160a01b0383163b611b185760405162461bcd60e51b815260206004820152602660248201527f416464726573733a2064656c65676174652063616c6c20746f206e6f6e2d636f6044820152651b9d1c9858dd60d21b606482015260840161076e565b600080846001600160a01b031684604051611b339190612011565b600060405180830381855af49150503d8060008114611b6e576040519150601f19603f3d011682016040523d82523d6000602084013e611b73565b606091505b5091509150611b9b828260405180606001604052806027815260200161208160279139611ba6565b925050505b92915050565b60608315611bb5575081611bbf565b611bbf8383611bc6565b9392505050565b815115611bd65781518083602001fd5b8060405162461bcd60e51b815260040161076e919061202d565b600060208284031215611c0257600080fd5b813560ff81168114611bbf57600080fd5b80356001600160a01b0381168114611c2a57600080fd5b919050565b600060208284031215611c4157600080fd5b611bbf82611c13565b634e487b7160e01b600052604160045260246000fd5b60008060408385031215611c7357600080fd5b611c7c83611c13565b9150602083013567ffffffffffffffff80821115611c9957600080fd5b818501915085601f830112611cad57600080fd5b813581811115611cbf57611cbf611c4a565b604051601f8201601f19908116603f01168101908382118183101715611ce757611ce7611c4a565b81604052828152886020848701011115611d0057600080fd5b8260208601602083013760006020848301015280955050505050509250929050565b600081518084526020808501945080840160005b83811015611d5b5781516001600160a01b031687529582019590820190600101611d36565b509495945050505050565b604081526000611d796040830185611d22565b90508260208301529392505050565b606081526000611d9b6060830186611d22565b905083602083015260ff83166040830152949350505050565b600080600060608486031215611dc957600080fd5b611dd284611c13565b9250611de060208501611c13565b9150604084013590509250925092565b634e487b7160e01b600052603260045260246000fd5b634e487b7160e01b600052601160045260246000fd5b81810381811115611ba057611ba0611e06565b634e487b7160e01b600052603160045260246000fd5b600061ffff808316818103611e5c57611e5c611e06565b6001019392505050565b6020808252602c908201527f46756e6374696f6e206d7573742062652063616c6c6564207468726f7567682060408201526b19195b1959d85d1958d85b1b60a21b606082015260800190565b6020808252602c908201527f46756e6374696f6e206d7573742062652063616c6c6564207468726f7567682060408201526b6163746976652070726f787960a01b606082015260800190565b600060208284031215611f1057600080fd5b5051919050565b8082028115828204841417611ba057611ba0611e06565b600082611f4b57634e487b7160e01b600052601260045260246000fd5b500490565b600060208284031215611f6257600080fd5b81518015158114611bbf57600080fd5b6001600160a01b039586168152602081019490945260408401929092526060830152909116608082015260a00190565b6020808252602b908201527f496e697469616c697a61626c653a20636f6e7472616374206973206e6f74206960408201526a6e697469616c697a696e6760a81b606082015260800190565b60005b83811015612008578181015183820152602001611ff0565b50506000910152565b60008251612023818460208701611fed565b9190910192915050565b602081526000825180602084015261204c816040850160208701611fed565b601f01601f1916919091016040019291505056fe360894a13ba1a3210667c828492db98dca3e2076cc3735a920a3ca505d382bbc416464726573733a206c6f772d6c6576656c2064656c65676174652063616c6c206661696c6564a2646970667358221220eeea844b9b13e3645d779b0b8a03a640c0bb513f5058f463c1c7336a933c8f2a64736f6c63430008120033",
  "linkReferences": {},
  "deployedLinkReferences": {}
}