{
  "_format": "hh-sol-artifact-1",
  "contractName": "CoreMembersV1Upgradeable",
  "sourceName": "contracts/CoreMembersV1Upgradeable.sol",
  "abi": [
    {
      "anonymous": false,
      "inputs": [
        {
          "indexed": false,
          "internalType": "address",
          "name": "adminAddress",
          "type": "address"
        }
      ],
      "name": "AddedAdmin",
      "type": "event"
    },
    {
      "anonymous": false,
      "inputs": [
        {
          "indexed": false,
          "internalType": "address",
          "name": "coreMemberAddress",
          "type": "address"
        }
      ],
      "name": "AddedCoreMember",
      "type": "event"
    },
    {
      "anonymous": false,
      "inputs": [
        {
          "indexed": false,
          "internalType": "address",
          "name": "previousAdmin",
          "type": "address"
        },
        {
          "indexed": false,
          "internalType": "address",
          "name": "newAdmin",
          "type": "address"
        }
      ],
      "name": "AdminChanged",
      "type": "event"
    },
    {
      "anonymous": false,
      "inputs": [
        {
          "indexed": false,
          "internalType": "address",
          "name": "adminAddress",
          "type": "address"
        },
        {
          "indexed": false,
          "internalType": "uint256",
          "name": "value",
          "type": "uint256"
        },
        {
          "indexed": false,
          "internalType": "uint256",
          "name": "valuePaidInContract",
          "type": "uint256"
        },
        {
          "indexed": false,
          "internalType": "uint256",
          "name": "totalMembers",
          "type": "uint256"
        },
        {
          "indexed": false,
          "internalType": "address",
          "name": "paidIn",
          "type": "address"
        }
      ],
      "name": "AdminSharePaid",
      "type": "event"
    },
    {
      "anonymous": false,
      "inputs": [
        {
          "indexed": true,
          "internalType": "address",
          "name": "beacon",
          "type": "address"
        }
      ],
      "name": "BeaconUpgraded",
      "type": "event"
    },
    {
      "anonymous": false,
      "inputs": [
        {
          "indexed": false,
          "internalType": "address",
          "name": "coreMemberAddress",
          "type": "address"
        },
        {
          "indexed": false,
          "internalType": "uint256",
          "name": "value",
          "type": "uint256"
        },
        {
          "indexed": false,
          "internalType": "uint256",
          "name": "valuePaidInContract",
          "type": "uint256"
        },
        {
          "indexed": false,
          "internalType": "uint256",
          "name": "totalMembers",
          "type": "uint256"
        },
        {
          "indexed": false,
          "internalType": "address",
          "name": "paidIn",
          "type": "address"
        }
      ],
      "name": "CoreMembersRewardPaid",
      "type": "event"
    },
    {
      "anonymous": false,
      "inputs": [
        {
          "indexed": false,
          "internalType": "uint8",
          "name": "version",
          "type": "uint8"
        }
      ],
      "name": "Initialized",
      "type": "event"
    },
    {
      "anonymous": false,
      "inputs": [
        {
          "indexed": true,
          "internalType": "address",
          "name": "previousOwner",
          "type": "address"
        },
        {
          "indexed": true,
          "internalType": "address",
          "name": "newOwner",
          "type": "address"
        }
      ],
      "name": "OwnershipTransferred",
      "type": "event"
    },
    {
      "anonymous": false,
      "inputs": [
        {
          "indexed": false,
          "internalType": "address",
          "name": "account",
          "type": "address"
        }
      ],
      "name": "Paused",
      "type": "event"
    },
    {
      "anonymous": false,
      "inputs": [
        {
          "indexed": false,
          "internalType": "address",
          "name": "adminAddress",
          "type": "address"
        }
      ],
      "name": "RemovedAdmin",
      "type": "event"
    },
    {
      "anonymous": false,
      "inputs": [
        {
          "indexed": false,
          "internalType": "address",
          "name": "coreMemberAddress",
          "type": "address"
        }
      ],
      "name": "RemovedCoreMember",
      "type": "event"
    },
    {
      "anonymous": false,
      "inputs": [
        {
          "indexed": false,
          "internalType": "address",
          "name": "account",
          "type": "address"
        }
      ],
      "name": "Unpaused",
      "type": "event"
    },
    {
      "anonymous": false,
      "inputs": [
        {
          "indexed": true,
          "internalType": "address",
          "name": "implementation",
          "type": "address"
        }
      ],
      "name": "Upgraded",
      "type": "event"
    },
    {
      "inputs": [
        {
          "internalType": "address",
          "name": "_address",
          "type": "address"
        }
      ],
      "name": "addAdmin",
      "outputs": [],
      "stateMutability": "nonpayable",
      "type": "function"
    },
    {
      "inputs": [
        {
          "internalType": "address",
          "name": "_userAddress",
          "type": "address"
        }
      ],
      "name": "addCoreMember",
      "outputs": [],
      "stateMutability": "nonpayable",
      "type": "function"
    },
    {
      "inputs": [],
      "name": "distributeETH",
      "outputs": [],
      "stateMutability": "nonpayable",
      "type": "function"
    },
    {
      "inputs": [
        {
          "internalType": "address",
          "name": "_tokenContract",
          "type": "address"
        }
      ],
      "name": "distributeToken",
      "outputs": [],
      "stateMutability": "nonpayable",
      "type": "function"
    },
    {
      "inputs": [],
      "name": "getAdminList",
      "outputs": [
        {
          "internalType": "address[]",
          "name": "adminsList",
          "type": "address[]"
        },
        {
          "internalType": "uint256",
          "name": "adminsCount",
          "type": "uint256"
        },
        {
          "internalType": "uint8",
          "name": "adminShareRate",
          "type": "uint8"
        }
      ],
      "stateMutability": "view",
      "type": "function"
    },
    {
      "inputs": [],
      "name": "getCoreMembersList",
      "outputs": [
        {
          "internalType": "address[]",
          "name": "coreMembersList",
          "type": "address[]"
        },
        {
          "internalType": "uint256",
          "name": "coreMembersLength",
          "type": "uint256"
        }
      ],
      "stateMutability": "view",
      "type": "function"
    },
    {
      "inputs": [],
      "name": "initialize",
      "outputs": [],
      "stateMutability": "nonpayable",
      "type": "function"
    },
    {
      "inputs": [
        {
          "internalType": "address",
          "name": "_userAddress",
          "type": "address"
        }
      ],
      "name": "isUserInCoreMembersList",
      "outputs": [
        {
          "internalType": "bool",
          "name": "",
          "type": "bool"
        }
      ],
      "stateMutability": "view",
      "type": "function"
    },
    {
      "inputs": [],
      "name": "owner",
      "outputs": [
        {
          "internalType": "address",
          "name": "",
          "type": "address"
        }
      ],
      "stateMutability": "view",
      "type": "function"
    },
    {
      "inputs": [],
      "name": "pause",
      "outputs": [],
      "stateMutability": "nonpayable",
      "type": "function"
    },
    {
      "inputs": [],
      "name": "paused",
      "outputs": [
        {
          "internalType": "bool",
          "name": "",
          "type": "bool"
        }
      ],
      "stateMutability": "view",
      "type": "function"
    },
    {
      "inputs": [],
      "name": "proxiableUUID",
      "outputs": [
        {
          "internalType": "bytes32",
          "name": "",
          "type": "bytes32"
        }
      ],
      "stateMutability": "view",
      "type": "function"
    },
    {
      "inputs": [
        {
          "internalType": "address",
          "name": "_address",
          "type": "address"
        }
      ],
      "name": "removeAdmin",
      "outputs": [],
      "stateMutability": "nonpayable",
      "type": "function"
    },
    {
      "inputs": [
        {
          "internalType": "address",
          "name": "_userAddress",
          "type": "address"
        }
      ],
      "name": "removeCoreMember",
      "outputs": [],
      "stateMutability": "nonpayable",
      "type": "function"
    },
    {
      "inputs": [],
      "name": "renounceOwnership",
      "outputs": [],
      "stateMutability": "nonpayable",
      "type": "function"
    },
    {
      "inputs": [
        {
          "internalType": "uint8",
          "name": "_value",
          "type": "uint8"
        }
      ],
      "name": "setAdminShareRate",
      "outputs": [],
      "stateMutability": "nonpayable",
      "type": "function"
    },
    {
      "inputs": [
        {
          "internalType": "address",
          "name": "newOwner",
          "type": "address"
        }
      ],
      "name": "transferOwnership",
      "outputs": [],
      "stateMutability": "nonpayable",
      "type": "function"
    },
    {
      "inputs": [
        {
          "internalType": "address",
          "name": "_tokenAddress",
          "type": "address"
        },
        {
          "internalType": "address",
          "name": "_userAddress",
          "type": "address"
        },
        {
          "internalType": "uint256",
          "name": "_valueInWei",
          "type": "uint256"
        }
      ],
      "name": "transferToken",
      "outputs": [],
      "stateMutability": "nonpayable",
      "type": "function"
    },
    {
      "inputs": [],
      "name": "unpause",
      "outputs": [],
      "stateMutability": "nonpayable",
      "type": "function"
    },
    {
      "inputs": [
        {
          "internalType": "address",
          "name": "newImplementation",
          "type": "address"
        }
      ],
      "name": "upgradeTo",
      "outputs": [],
      "stateMutability": "nonpayable",
      "type": "function"
    },
    {
      "inputs": [
        {
          "internalType": "address",
          "name": "newImplementation",
          "type": "address"
        },
        {
          "internalType": "bytes",
          "name": "data",
          "type": "bytes"
        }
      ],
      "name": "upgradeToAndCall",
      "outputs": [],
      "stateMutability": "payable",
      "type": "function"
    }
  ],
  "bytecode": "0x60a06040523060805234801561001457600080fd5b506080516123d061004c60003960008181610770015281816107fa01528181610902015281816109870152610a7101526123d06000f3fe60806040526004361061016a5760003560e01c8063715018a6116100cb5780638da5cb5b1161007f578063d9f774fc11610059578063d9f774fc14610384578063f2fde38b146103a8578063f5537ede146103c857600080fd5b80638da5cb5b14610324578063b8b9b5491461034c578063c4d12ee91461036157600080fd5b80638456cb59116100b05780638456cb59146102cf57806386d74037146102e457806387262bb41461030457600080fd5b8063715018a6146102a55780638129fc1c146102ba57600080fd5b80634f1ef286116101225780635c975abb116101075780635c975abb146102415780635cf833da14610265578063704802751461028557600080fd5b80634f1ef2861461020657806352d1902d1461021957600080fd5b80632a28576c116101535780632a28576c146101b15780633659cfe6146101d15780633f4ba83a146101f157600080fd5b8063062320011461016f5780631785f53c14610191575b600080fd5b34801561017b57600080fd5b5061018f61018a366004612016565b6103e8565b005b34801561019d57600080fd5b5061018f6101ac366004612055565b610406565b3480156101bd57600080fd5b5061018f6101cc366004612055565b6105b9565b3480156101dd57600080fd5b5061018f6101ec366004612055565b610766565b3480156101fd57600080fd5b5061018f6108e6565b61018f610214366004612086565b6108f8565b34801561022557600080fd5b5061022e610a64565b6040519081526020015b60405180910390f35b34801561024d57600080fd5b5060335460ff165b6040519015158152602001610238565b34801561027157600080fd5b5061018f610280366004612055565b610b29565b34801561029157600080fd5b5061018f6102a0366004612055565b610bb6565b3480156102b157600080fd5b5061018f610c3c565b3480156102c657600080fd5b5061018f610c4e565b3480156102db57600080fd5b5061018f610dbd565b3480156102f057600080fd5b5061018f6102ff366004612055565b610dcd565b34801561031057600080fd5b5061025561031f366004612055565b6111f5565b34801561033057600080fd5b506065546040516001600160a01b039091168152602001610238565b34801561035857600080fd5b5061018f6112c6565b34801561036d57600080fd5b506103766115d2565b60405161023892919061218c565b34801561039057600080fd5b5061039961163b565b604051610238939291906121ae565b3480156103b457600080fd5b5061018f6103c3366004612055565b6116b2565b3480156103d457600080fd5b5061018f6103e33660046121da565b61173f565b6103f06117d3565b60fd805460ff191660ff92909216919091179055565b61040e6117d3565b600060fc80548060200260200160405190810160405280929190818152602001828054801561046657602002820191906000526020600020905b81546001600160a01b03168152600190910190602001808311610448575b505083519394506000925050505b818161ffff1610156105b357828161ffff168151811061049657610496612216565b60200260200101516001600160a01b0316846001600160a01b0316036105655760fc6104c3600184612242565b815481106104d3576104d3612216565b60009182526020909120015460fc80546001600160a01b039092169161ffff841690811061050357610503612216565b9060005260206000200160006101000a8154816001600160a01b0302191690836001600160a01b0316021790555060fc80548061054257610542612255565b600082815260209020810160001990810180546001600160a01b03191690550190555b6040516001600160a01b03851681527f3137a7fedbfedb7895dfa5a6812a4566dae9ded68d00aeec13c6ed1fa84a1c809060200160405180910390a1806105ab8161226b565b915050610474565b50505050565b6105c16117d3565b600060fb80548060200260200160405190810160405280929190818152602001828054801561061957602002820191906000526020600020905b81546001600160a01b031681526001909101906020018083116105fb575b505083519394506000925050505b818161ffff1610156105b357828161ffff168151811061064957610649612216565b60200260200101516001600160a01b0316846001600160a01b0316036107185760fb610676600184612242565b8154811061068657610686612216565b60009182526020909120015460fb80546001600160a01b039092169161ffff84169081106106b6576106b6612216565b9060005260206000200160006101000a8154816001600160a01b0302191690836001600160a01b0316021790555060fb8054806106f5576106f5612255565b600082815260209020810160001990810180546001600160a01b03191690550190555b6040516001600160a01b03851681527f886a0002ee57f231e443a0d2d27811c0b75e1f6165cf416fc5259cba744329839060200160405180910390a18061075e8161226b565b915050610627565b6001600160a01b037f00000000000000000000000000000000000000000000000000000000000000001630036107f85760405162461bcd60e51b815260206004820152602c60248201527f46756e6374696f6e206d7573742062652063616c6c6564207468726f7567682060448201526b19195b1959d85d1958d85b1b60a21b60648201526084015b60405180910390fd5b7f00000000000000000000000000000000000000000000000000000000000000006001600160a01b03166108537f360894a13ba1a3210667c828492db98dca3e2076cc3735a920a3ca505d382bbc546001600160a01b031690565b6001600160a01b0316146108be5760405162461bcd60e51b815260206004820152602c60248201527f46756e6374696f6e206d7573742062652063616c6c6564207468726f7567682060448201526b6163746976652070726f787960a01b60648201526084016107ef565b6108c78161182d565b604080516000808252602082019092526108e391839190611835565b50565b6108ee6117d3565b6108f66119da565b565b6001600160a01b037f00000000000000000000000000000000000000000000000000000000000000001630036109855760405162461bcd60e51b815260206004820152602c60248201527f46756e6374696f6e206d7573742062652063616c6c6564207468726f7567682060448201526b19195b1959d85d1958d85b1b60a21b60648201526084016107ef565b7f00000000000000000000000000000000000000000000000000000000000000006001600160a01b03166109e07f360894a13ba1a3210667c828492db98dca3e2076cc3735a920a3ca505d382bbc546001600160a01b031690565b6001600160a01b031614610a4b5760405162461bcd60e51b815260206004820152602c60248201527f46756e6374696f6e206d7573742062652063616c6c6564207468726f7567682060448201526b6163746976652070726f787960a01b60648201526084016107ef565b610a548261182d565b610a6082826001611835565b5050565b6000306001600160a01b037f00000000000000000000000000000000000000000000000000000000000000001614610b045760405162461bcd60e51b815260206004820152603860248201527f555550535570677261646561626c653a206d757374206e6f742062652063616c60448201527f6c6564207468726f7567682064656c656761746563616c6c000000000000000060648201526084016107ef565b507f360894a13ba1a3210667c828492db98dca3e2076cc3735a920a3ca505d382bbc90565b610b316117d3565b60fb80546001810182556000919091527f3e7257b7272bb46d49cd6019b04ddee20da7c0cb13f7c1ec3391291b2ccebabc0180546001600160a01b0319166001600160a01b0383169081179091556040519081527ffe4cf9290a1fba8327acbf8b8b43ced4a73a6e01979709c1cbb6d7bb0b2863f6906020015b60405180910390a150565b610bbe6117d3565b60fc80546001810182556000919091527f371f36870d18f32a11fea0f144b021c8b407bb50f8e0267c711123f454b963c00180546001600160a01b0319166001600160a01b0383169081179091556040519081527f7849194239ab1d31b991b5436d81370256505cf25eaafbcccbc66acd1189691690602001610bab565b610c446117d3565b6108f66000611a2c565b600054610100900460ff1615808015610c6e5750600054600160ff909116105b80610c885750303b158015610c88575060005460ff166001145b610cfa5760405162461bcd60e51b815260206004820152602e60248201527f496e697469616c697a61626c653a20636f6e747261637420697320616c72656160448201527f647920696e697469616c697a656400000000000000000000000000000000000060648201526084016107ef565b6000805460ff191660011790558015610d1d576000805461ff0019166101001790555b60fc610d316065546001600160a01b031690565b81546001810183556000928352602090922090910180546001600160a01b0319166001600160a01b03909216919091179055610d6b611a7e565b610d73611af1565b610d7b611b64565b80156108e3576000805461ff0019169055604051600181527f7f26b83ff96e1f2b6a682f133852f6798a09c465da95921460cefb384740249890602001610bab565b610dc56117d3565b6108f6611bcf565b610dd5611c0c565b600060fb805480602002602001604051908101604052809291908181526020018280548015610e2d57602002820191906000526020600020905b81546001600160a01b03168152600190910190602001808311610e0f575b50505050509050600060fc805480602002602001604051908101604052809291908181526020018280548015610e8c57602002820191906000526020600020905b81546001600160a01b03168152600190910190602001808311610e6e575b5050855184516040517f70a082310000000000000000000000000000000000000000000000000000000081523060048201529596509094909350600092506001600160a01b03881691506370a0823190602401602060405180830381865afa158015610efc573d6000803e3d6000fd5b505050506040513d601f19601f82011682018060405250810190610f20919061228c565b60fd54909150600090606490610f399060ff16846122a5565b610f4391906122bc565b90506000610f518284612242565b90506000610f5f85846122bc565b90506000610f6d87846122bc565b905060005b868161ffff1610156110ab578a6001600160a01b031663a9059cbb8a8361ffff1681518110610fa357610fa3612216565b6020026020010151856040518363ffffffff1660e01b8152600401610fdd9291906001600160a01b03929092168252602082015260400190565b6020604051808303816000875af1158015610ffc573d6000803e3d6000fd5b505050506040513d601f19601f8201168201806040525081019061102091906122de565b507f45e21a04ded973229aa2879f8db4a7196c900363ed98bbf373bf0b499b6691da898261ffff168151811061105857611058612216565b602090810291909101810151604080516001600160a01b0392831681529283018790528201899052606082018a90528d16608082015260a00160405180910390a1806110a38161226b565b915050610f72565b5060005b878161ffff1610156111e8578a6001600160a01b031663a9059cbb8b8361ffff16815181106110e0576110e0612216565b6020026020010151846040518363ffffffff1660e01b815260040161111a9291906001600160a01b03929092168252602082015260400190565b6020604051808303816000875af1158015611139573d6000803e3d6000fd5b505050506040513d601f19601f8201168201806040525081019061115d91906122de565b507ffdd9227d7f7e007f47768219b57d918722583293089f1e7352a26c4bdac5d9358a8261ffff168151811061119557611195612216565b602090810291909101810151604080516001600160a01b0392831681529283018690528201899052606082018b90528d16608082015260a00160405180910390a1806111e08161226b565b9150506110af565b5050505050505050505050565b60008060fb80548060200260200160405190810160405280929190818152602001828054801561124e57602002820191906000526020600020905b81546001600160a01b03168152600190910190602001808311611230575b505083519394506000925050505b818161ffff1610156112bb57828161ffff168151811061127e5761127e612216565b60200260200101516001600160a01b0316856001600160a01b0316036112a957506001949350505050565b806112b38161226b565b91505061125c565b506000949350505050565b6112ce611c0c565b600060fb80548060200260200160405190810160405280929190818152602001828054801561132657602002820191906000526020600020905b81546001600160a01b03168152600190910190602001808311611308575b50505050509050600060fc80548060200260200160405190810160405280929190818152602001828054801561138557602002820191906000526020600020905b81546001600160a01b03168152600190910190602001808311611367575b50508551845160fd549596509094909350479250600091506064906113ad9060ff16846122a5565b6113b791906122bc565b905060006113c58284612242565b905060006113d385846122bc565b905060006113e187846122bc565b905060005b868161ffff1610156114d457888161ffff168151811061140857611408612216565b60200260200101516001600160a01b03166108fc849081150290604051600060405180830381858888f19350505050158015611448573d6000803e3d6000fd5b507f45e21a04ded973229aa2879f8db4a7196c900363ed98bbf373bf0b499b6691da898261ffff168151811061148057611480612216565b602090810291909101810151604080516001600160a01b039092168252918101869052908101889052606081018990526000608082015260a00160405180910390a1806114cc8161226b565b9150506113e6565b5060005b878161ffff1610156115c657898161ffff16815181106114fa576114fa612216565b60200260200101516001600160a01b03166108fc839081150290604051600060405180830381858888f1935050505015801561153a573d6000803e3d6000fd5b507ffdd9227d7f7e007f47768219b57d918722583293089f1e7352a26c4bdac5d9358a8261ffff168151811061157257611572612216565b602090810291909101810151604080516001600160a01b039092168252918101859052908101889052606081018a90526000608082015260a00160405180910390a1806115be8161226b565b9150506114d8565b50505050505050505050565b6060600060fb80548060200260200160405190810160405280929190818152602001828054801561162c57602002820191906000526020600020905b81546001600160a01b0316815260019091019060200180831161160e575b50505050509150815190509091565b606060008060fc80548060200260200160405190810160405280929190818152602001828054801561169657602002820191906000526020600020905b81546001600160a01b03168152600190910190602001808311611678575b505060fc5460fd54949890975060ff9094169550929350505050565b6116ba6117d3565b6001600160a01b0381166117365760405162461bcd60e51b815260206004820152602660248201527f4f776e61626c653a206e6577206f776e657220697320746865207a65726f206160448201527f646472657373000000000000000000000000000000000000000000000000000060648201526084016107ef565b6108e381611a2c565b6117476117d3565b6040517fa9059cbb0000000000000000000000000000000000000000000000000000000081526001600160a01b0383811660048301526024820183905284169063a9059cbb906044016020604051808303816000875af11580156117af573d6000803e3d6000fd5b505050506040513d601f19601f820116820180604052508101906105b391906122de565b6065546001600160a01b031633146108f65760405162461bcd60e51b815260206004820181905260248201527f4f776e61626c653a2063616c6c6572206973206e6f7420746865206f776e657260448201526064016107ef565b6108e36117d3565b7f4910fdfa16fed3260ed0e7147f7cc6da11a60208b5b9406d12a635614ffd91435460ff161561186d5761186883611c5f565b505050565b826001600160a01b03166352d1902d6040518163ffffffff1660e01b8152600401602060405180830381865afa9250505080156118c7575060408051601f3d908101601f191682019092526118c49181019061228c565b60015b6119395760405162461bcd60e51b815260206004820152602e60248201527f45524331393637557067726164653a206e657720696d706c656d656e7461746960448201527f6f6e206973206e6f74205555505300000000000000000000000000000000000060648201526084016107ef565b7f360894a13ba1a3210667c828492db98dca3e2076cc3735a920a3ca505d382bbc81146119ce5760405162461bcd60e51b815260206004820152602960248201527f45524331393637557067726164653a20756e737570706f727465642070726f7860448201527f6961626c6555554944000000000000000000000000000000000000000000000060648201526084016107ef565b50611868838383611d1d565b6119e2611d42565b6033805460ff191690557f5db9ee0a495bf2e6ff9c91a7834c1ba4fdd244a5e8aa4e537bd38aeae4b073aa335b6040516001600160a01b03909116815260200160405180910390a1565b606580546001600160a01b038381166001600160a01b0319831681179093556040519116919082907f8be0079c531659141344cd1fd0a4f28419497f9722a3daafe3b4186f6b6457e090600090a35050565b600054610100900460ff16611ae95760405162461bcd60e51b815260206004820152602b60248201527f496e697469616c697a61626c653a20636f6e7472616374206973206e6f74206960448201526a6e697469616c697a696e6760a81b60648201526084016107ef565b6108f6611d94565b600054610100900460ff16611b5c5760405162461bcd60e51b815260206004820152602b60248201527f496e697469616c697a61626c653a20636f6e7472616374206973206e6f74206960448201526a6e697469616c697a696e6760a81b60648201526084016107ef565b6108f6611e0b565b600054610100900460ff166108f65760405162461bcd60e51b815260206004820152602b60248201527f496e697469616c697a61626c653a20636f6e7472616374206973206e6f74206960448201526a6e697469616c697a696e6760a81b60648201526084016107ef565b611bd7611c0c565b6033805460ff191660011790557f62e78cea01bee320cd4e420270b5ea74000d11b0c9f74754ebdbfc544b05a258611a0f3390565b60335460ff16156108f65760405162461bcd60e51b815260206004820152601060248201527f5061757361626c653a207061757365640000000000000000000000000000000060448201526064016107ef565b6001600160a01b0381163b611cdc5760405162461bcd60e51b815260206004820152602d60248201527f455243313936373a206e657720696d706c656d656e746174696f6e206973206e60448201527f6f74206120636f6e74726163740000000000000000000000000000000000000060648201526084016107ef565b7f360894a13ba1a3210667c828492db98dca3e2076cc3735a920a3ca505d382bbc80546001600160a01b0319166001600160a01b0392909216919091179055565b611d2683611e7f565b600082511180611d335750805b15611868576105b38383611ebf565b60335460ff166108f65760405162461bcd60e51b815260206004820152601460248201527f5061757361626c653a206e6f742070617573656400000000000000000000000060448201526064016107ef565b600054610100900460ff16611dff5760405162461bcd60e51b815260206004820152602b60248201527f496e697469616c697a61626c653a20636f6e7472616374206973206e6f74206960448201526a6e697469616c697a696e6760a81b60648201526084016107ef565b6033805460ff19169055565b600054610100900460ff16611e765760405162461bcd60e51b815260206004820152602b60248201527f496e697469616c697a61626c653a20636f6e7472616374206973206e6f74206960448201526a6e697469616c697a696e6760a81b60648201526084016107ef565b6108f633611a2c565b611e8881611c5f565b6040516001600160a01b038216907fbc7cd75a20ee27fd9adebab32041f755214dbc6bffa90cc0225b39da2e5c2d3b90600090a250565b60606001600160a01b0383163b611f3e5760405162461bcd60e51b815260206004820152602660248201527f416464726573733a2064656c65676174652063616c6c20746f206e6f6e2d636f60448201527f6e7472616374000000000000000000000000000000000000000000000000000060648201526084016107ef565b600080846001600160a01b031684604051611f599190612324565b600060405180830381855af49150503d8060008114611f94576040519150601f19603f3d011682016040523d82523d6000602084013e611f99565b606091505b5091509150611fc1828260405180606001604052806027815260200161237460279139611fcc565b925050505b92915050565b60608315611fdb575081611fe5565b611fe58383611fec565b9392505050565b815115611ffc5781518083602001fd5b8060405162461bcd60e51b81526004016107ef9190612340565b60006020828403121561202857600080fd5b813560ff81168114611fe557600080fd5b80356001600160a01b038116811461205057600080fd5b919050565b60006020828403121561206757600080fd5b611fe582612039565b634e487b7160e01b600052604160045260246000fd5b6000806040838503121561209957600080fd5b6120a283612039565b9150602083013567ffffffffffffffff808211156120bf57600080fd5b818501915085601f8301126120d357600080fd5b8135818111156120e5576120e5612070565b604051601f8201601f19908116603f0116810190838211818310171561210d5761210d612070565b8160405282815288602084870101111561212657600080fd5b8260208601602083013760006020848301015280955050505050509250929050565b600081518084526020808501945080840160005b838110156121815781516001600160a01b03168752958201959082019060010161215c565b509495945050505050565b60408152600061219f6040830185612148565b90508260208301529392505050565b6060815260006121c16060830186612148565b905083602083015260ff83166040830152949350505050565b6000806000606084860312156121ef57600080fd5b6121f884612039565b925061220660208501612039565b9150604084013590509250925092565b634e487b7160e01b600052603260045260246000fd5b634e487b7160e01b600052601160045260246000fd5b81810381811115611fc657611fc661222c565b634e487b7160e01b600052603160045260246000fd5b600061ffff8083168181036122825761228261222c565b6001019392505050565b60006020828403121561229e57600080fd5b5051919050565b8082028115828204841417611fc657611fc661222c565b6000826122d957634e487b7160e01b600052601260045260246000fd5b500490565b6000602082840312156122f057600080fd5b81518015158114611fe557600080fd5b60005b8381101561231b578181015183820152602001612303565b50506000910152565b60008251612336818460208701612300565b9190910192915050565b602081526000825180602084015261235f816040850160208701612300565b601f01601f1916919091016040019291505056fe416464726573733a206c6f772d6c6576656c2064656c65676174652063616c6c206661696c6564a264697066735822122007f669b30b95a204f3a780368ebbc4baf1231d786a4e6e6d5452ff851f0d6eaf64736f6c63430008120033",
  "linkReferences": {},
  "deployedLinkReferences": {}
}