{
  "_format": "hh-sol-artifact-1",
  "contractName": "ShareBalanceUpgradeable",
  "sourceName": "contracts/ShareBalanceV1Upgradeable.sol",
  "abi": [
    {
      "anonymous": false,
      "inputs": [
        {
          "indexed": false,
          "internalType": "address",
          "name": "previousAdmin",
          "type": "address"
        },
        {
          "indexed": false,
          "internalType": "address",
          "name": "newAdmin",
          "type": "address"
        }
      ],
      "name": "AdminChanged",
      "type": "event"
    },
    {
      "anonymous": false,
      "inputs": [
        {
          "indexed": true,
          "internalType": "address",
          "name": "beacon",
          "type": "address"
        }
      ],
      "name": "BeaconUpgraded",
      "type": "event"
    },
    {
      "anonymous": false,
      "inputs": [
        {
          "indexed": false,
          "internalType": "uint8",
          "name": "version",
          "type": "uint8"
        }
      ],
      "name": "Initialized",
      "type": "event"
    },
    {
      "anonymous": false,
      "inputs": [
        {
          "indexed": true,
          "internalType": "address",
          "name": "previousOwner",
          "type": "address"
        },
        {
          "indexed": true,
          "internalType": "address",
          "name": "newOwner",
          "type": "address"
        }
      ],
      "name": "OwnershipTransferred",
      "type": "event"
    },
    {
      "anonymous": false,
      "inputs": [
        {
          "indexed": false,
          "internalType": "address",
          "name": "account",
          "type": "address"
        }
      ],
      "name": "Paused",
      "type": "event"
    },
    {
      "anonymous": false,
      "inputs": [
        {
          "indexed": false,
          "internalType": "address",
          "name": "account",
          "type": "address"
        }
      ],
      "name": "Unpaused",
      "type": "event"
    },
    {
      "anonymous": false,
      "inputs": [
        {
          "indexed": true,
          "internalType": "address",
          "name": "implementation",
          "type": "address"
        }
      ],
      "name": "Upgraded",
      "type": "event"
    },
    {
      "anonymous": false,
      "inputs": [
        {
          "indexed": false,
          "internalType": "address",
          "name": "userAddress",
          "type": "address"
        }
      ],
      "name": "UserAdded",
      "type": "event"
    },
    {
      "anonymous": false,
      "inputs": [
        {
          "indexed": false,
          "internalType": "address",
          "name": "userAddress",
          "type": "address"
        }
      ],
      "name": "UserRemoved",
      "type": "event"
    },
    {
      "anonymous": false,
      "inputs": [
        {
          "indexed": false,
          "internalType": "address",
          "name": "userAddress",
          "type": "address"
        },
        {
          "indexed": false,
          "internalType": "uint256",
          "name": "value",
          "type": "uint256"
        },
        {
          "indexed": false,
          "internalType": "uint256",
          "name": "totalValue",
          "type": "uint256"
        },
        {
          "indexed": false,
          "internalType": "uint256",
          "name": "totalMembers",
          "type": "uint256"
        }
      ],
      "name": "WithdrawNative",
      "type": "event"
    },
    {
      "anonymous": false,
      "inputs": [
        {
          "indexed": false,
          "internalType": "address",
          "name": "tokenAddress",
          "type": "address"
        },
        {
          "indexed": false,
          "internalType": "address",
          "name": "userAddress",
          "type": "address"
        },
        {
          "indexed": false,
          "internalType": "uint256",
          "name": "value",
          "type": "uint256"
        },
        {
          "indexed": false,
          "internalType": "uint256",
          "name": "totalValue",
          "type": "uint256"
        },
        {
          "indexed": false,
          "internalType": "uint256",
          "name": "totalMembers",
          "type": "uint256"
        }
      ],
      "name": "WithdrawToken",
      "type": "event"
    },
    {
      "inputs": [
        {
          "internalType": "address",
          "name": "_userAddress",
          "type": "address"
        }
      ],
      "name": "addUser",
      "outputs": [],
      "stateMutability": "nonpayable",
      "type": "function"
    },
    {
      "inputs": [],
      "name": "distributeETH",
      "outputs": [],
      "stateMutability": "nonpayable",
      "type": "function"
    },
    {
      "inputs": [
        {
          "internalType": "address",
          "name": "_tokenContract",
          "type": "address"
        }
      ],
      "name": "distributeToken",
      "outputs": [],
      "stateMutability": "nonpayable",
      "type": "function"
    },
    {
      "inputs": [],
      "name": "getAdminAddress",
      "outputs": [
        {
          "internalType": "address",
          "name": "",
          "type": "address"
        }
      ],
      "stateMutability": "view",
      "type": "function"
    },
    {
      "inputs": [],
      "name": "getAdminShare",
      "outputs": [
        {
          "internalType": "uint8",
          "name": "",
          "type": "uint8"
        }
      ],
      "stateMutability": "view",
      "type": "function"
    },
    {
      "inputs": [],
      "name": "getusersList",
      "outputs": [
        {
          "internalType": "address[]",
          "name": "usersList",
          "type": "address[]"
        },
        {
          "internalType": "uint256",
          "name": "usersCount",
          "type": "uint256"
        }
      ],
      "stateMutability": "view",
      "type": "function"
    },
    {
      "inputs": [],
      "name": "initialize",
      "outputs": [],
      "stateMutability": "nonpayable",
      "type": "function"
    },
    {
      "inputs": [
        {
          "internalType": "address",
          "name": "_userAddress",
          "type": "address"
        }
      ],
      "name": "isUserInList",
      "outputs": [
        {
          "internalType": "bool",
          "name": "",
          "type": "bool"
        }
      ],
      "stateMutability": "view",
      "type": "function"
    },
    {
      "inputs": [],
      "name": "owner",
      "outputs": [
        {
          "internalType": "address",
          "name": "",
          "type": "address"
        }
      ],
      "stateMutability": "view",
      "type": "function"
    },
    {
      "inputs": [],
      "name": "pause",
      "outputs": [],
      "stateMutability": "nonpayable",
      "type": "function"
    },
    {
      "inputs": [],
      "name": "paused",
      "outputs": [
        {
          "internalType": "bool",
          "name": "",
          "type": "bool"
        }
      ],
      "stateMutability": "view",
      "type": "function"
    },
    {
      "inputs": [],
      "name": "proxiableUUID",
      "outputs": [
        {
          "internalType": "bytes32",
          "name": "",
          "type": "bytes32"
        }
      ],
      "stateMutability": "view",
      "type": "function"
    },
    {
      "inputs": [
        {
          "internalType": "address",
          "name": "_userAddress",
          "type": "address"
        }
      ],
      "name": "removeUser",
      "outputs": [],
      "stateMutability": "nonpayable",
      "type": "function"
    },
    {
      "inputs": [],
      "name": "renounceOwnership",
      "outputs": [],
      "stateMutability": "nonpayable",
      "type": "function"
    },
    {
      "inputs": [
        {
          "internalType": "address",
          "name": "_newAdminAddress",
          "type": "address"
        }
      ],
      "name": "setAdminAddress",
      "outputs": [],
      "stateMutability": "nonpayable",
      "type": "function"
    },
    {
      "inputs": [
        {
          "internalType": "uint8",
          "name": "_valueInPer",
          "type": "uint8"
        }
      ],
      "name": "setAdminShare",
      "outputs": [],
      "stateMutability": "nonpayable",
      "type": "function"
    },
    {
      "inputs": [
        {
          "internalType": "address",
          "name": "newOwner",
          "type": "address"
        }
      ],
      "name": "transferOwnership",
      "outputs": [],
      "stateMutability": "nonpayable",
      "type": "function"
    },
    {
      "inputs": [],
      "name": "unpause",
      "outputs": [],
      "stateMutability": "nonpayable",
      "type": "function"
    },
    {
      "inputs": [
        {
          "internalType": "address",
          "name": "newImplementation",
          "type": "address"
        }
      ],
      "name": "upgradeTo",
      "outputs": [],
      "stateMutability": "nonpayable",
      "type": "function"
    },
    {
      "inputs": [
        {
          "internalType": "address",
          "name": "newImplementation",
          "type": "address"
        },
        {
          "internalType": "bytes",
          "name": "data",
          "type": "bytes"
        }
      ],
      "name": "upgradeToAndCall",
      "outputs": [],
      "stateMutability": "payable",
      "type": "function"
    }
  ],
  "bytecode": "0x60a06040523060805234801561001457600080fd5b50608051611baf61004c600039600081816103c10152818161040a0152818161054801528181610588015261061b0152611baf6000f3fe60806040526004361061011f5760003560e01c806381237900116100a0578063985751881161006457806398575188146102fa578063b2e6b9121461031a578063b8b9b54914610338578063de45bbd11461034d578063f2fde38b1461036d57600080fd5b8063812379001461025b5780638129fc1c1461027e5780638456cb591461029357806386d74037146102a85780638da5cb5b146102c857600080fd5b80634f1ef286116100e75780634f1ef286146101cc57806352d1902d146101df5780635c975abb1461020257806369088d5d14610226578063715018a61461024657600080fd5b80631bd4fb7a146101245780632c1e816d146101555780633659cfe6146101775780633f4ba83a14610197578063421b2d8b146101ac575b600080fd5b34801561013057600080fd5b5060fc54600160a01b900460ff1660405160ff90911681526020015b60405180910390f35b34801561016157600080fd5b5061017561017036600461178b565b61038d565b005b34801561018357600080fd5b5061017561019236600461178b565b6103b7565b3480156101a357600080fd5b5061017561049f565b3480156101b857600080fd5b506101756101c736600461178b565b6104b1565b6101756101da3660046117bc565b61053e565b3480156101eb57600080fd5b506101f461060e565b60405190815260200161014c565b34801561020e57600080fd5b5060335460ff165b604051901515815260200161014c565b34801561023257600080fd5b5061017561024136600461187e565b6106c1565b34801561025257600080fd5b506101756106e9565b34801561026757600080fd5b506102706106fb565b60405161014c9291906118a1565b34801561028a57600080fd5b50610175610767565b34801561029f57600080fd5b506101756108a8565b3480156102b457600080fd5b506101756102c336600461178b565b6108b8565b3480156102d457600080fd5b506065546001600160a01b03165b6040516001600160a01b03909116815260200161014c565b34801561030657600080fd5b5061017561031536600461178b565b610bee565b34801561032657600080fd5b5060fc546001600160a01b03166102e2565b34801561034457600080fd5b50610175610d92565b34801561035957600080fd5b5061021661036836600461178b565b610fbd565b34801561037957600080fd5b5061017561038836600461178b565b61108e565b610395611104565b60fc80546001600160a01b0319166001600160a01b0392909216919091179055565b6001600160a01b037f00000000000000000000000000000000000000000000000000000000000000001630036104085760405162461bcd60e51b81526004016103ff906118f2565b60405180910390fd5b7f00000000000000000000000000000000000000000000000000000000000000006001600160a01b0316610451600080516020611b33833981519152546001600160a01b031690565b6001600160a01b0316146104775760405162461bcd60e51b81526004016103ff9061193e565b6104808161115e565b6040805160008082526020820190925261049c91839190611166565b50565b6104a7611104565b6104af6112d6565b565b6104b9611104565b60fb80546001810182556000919091527f3e7257b7272bb46d49cd6019b04ddee20da7c0cb13f7c1ec3391291b2ccebabc0180546001600160a01b0319166001600160a01b0383169081179091556040519081527f19ef9a4877199f89440a26acb26895ec02ed86f2df1aeaa90dc18041b892f71f906020015b60405180910390a150565b6001600160a01b037f00000000000000000000000000000000000000000000000000000000000000001630036105865760405162461bcd60e51b81526004016103ff906118f2565b7f00000000000000000000000000000000000000000000000000000000000000006001600160a01b03166105cf600080516020611b33833981519152546001600160a01b031690565b6001600160a01b0316146105f55760405162461bcd60e51b81526004016103ff9061193e565b6105fe8261115e565b61060a82826001611166565b5050565b6000306001600160a01b037f000000000000000000000000000000000000000000000000000000000000000016146106ae5760405162461bcd60e51b815260206004820152603860248201527f555550535570677261646561626c653a206d757374206e6f742062652063616c60448201527f6c6564207468726f7567682064656c656761746563616c6c000000000000000060648201526084016103ff565b50600080516020611b3383398151915290565b6106c9611104565b60fc805460ff909216600160a01b0260ff60a01b19909216919091179055565b6106f1611104565b6104af6000611328565b6060600060fb80548060200260200160405190810160405280929190818152602001828054801561075557602002820191906000526020600020905b81546001600160a01b03168152600190910190602001808311610737575b505060fb549396939550929350505050565b600054610100900460ff16158080156107875750600054600160ff909116105b806107a15750303b1580156107a1575060005460ff166001145b6108045760405162461bcd60e51b815260206004820152602e60248201527f496e697469616c697a61626c653a20636f6e747261637420697320616c72656160448201526d191e481a5b9a5d1a585b1a5e995960921b60648201526084016103ff565b6000805460ff191660011790558015610827576000805461ff0019166101001790555b60fc80546001600160a81b0319167446a6ad793c60fd03137a324b7ddc1a5c66d18eebde17905561085661137a565b61085e6113a9565b6108666113d8565b801561049c576000805461ff0019169055604051600181527f7f26b83ff96e1f2b6a682f133852f6798a09c465da95921460cefb384740249890602001610533565b6108b0611104565b6104af6113ff565b600060fb80548060200260200160405190810160405280929190818152602001828054801561091057602002820191906000526020600020905b81546001600160a01b031681526001909101906020018083116108f2575b505083516040516370a0823160e01b815230600482015294955093600093506001600160a01b03871692506370a082319150602401602060405180830381865afa158015610962573d6000803e3d6000fd5b505050506040513d601f19601f82011682018060405250810190610986919061198a565b60fc549091506000906064906109a690600160a01b900460ff16846119b9565b6109b091906119d0565b905060006109be82846119f2565b905060006109cc85836119d0565b60fc5460405163a9059cbb60e01b81526001600160a01b0391821660048201526024810186905291925088169063a9059cbb906044016020604051808303816000875af1158015610a21573d6000803e3d6000fd5b505050506040513d601f19601f82011682018060405250810190610a459190611a05565b5060fc54604080516001600160a01b03808b1682529092166020830152810184905260608101859052608081018690527fc787e2dfdaea513103b8186b30d608da4212005161d60b3ce864e63907efafc69060a00160405180910390a160005b858161ffff161015610be457876001600160a01b031663a9059cbb888361ffff1681518110610ad657610ad6611a27565b6020026020010151846040518363ffffffff1660e01b8152600401610b109291906001600160a01b03929092168252602082015260400190565b6020604051808303816000875af1158015610b2f573d6000803e3d6000fd5b505050506040513d601f19601f82011682018060405250810190610b539190611a05565b507fc787e2dfdaea513103b8186b30d608da4212005161d60b3ce864e63907efafc688888361ffff1681518110610b8c57610b8c611a27565b602090810291909101810151604080516001600160a01b03948516815293909116918301919091528101859052606081018790526080810188905260a00160405180910390a180610bdc81611a3d565b915050610aa5565b5050505050505050565b610bf6611104565b600060fb805480602002602001604051908101604052809291908181526020018280548015610c4e57602002820191906000526020600020905b81546001600160a01b03168152600190910190602001808311610c30575b505083519394506000925050505b818161ffff161015610d8c57828161ffff1681518110610c7e57610c7e611a27565b60200260200101516001600160a01b0316846001600160a01b031603610d3e578260018451610cad91906119f2565b81518110610cbd57610cbd611a27565b602002602001015160fb8261ffff1681548110610cdc57610cdc611a27565b9060005260206000200160006101000a8154816001600160a01b0302191690836001600160a01b0316021790555060fb805480610d1b57610d1b611a5e565b600082815260209020810160001990810180546001600160a01b03191690550190555b6040516001600160a01b03851681527fe9dce8c992623ce791725b21e857e33248d1f190a25b5168313420eebdaae99d9060200160405180910390a180610d8481611a3d565b915050610c5c565b50505050565b600060fb805480602002602001604051908101604052809291908181526020018280548015610dea57602002820191906000526020600020905b81546001600160a01b03168152600190910190602001808311610dcc575b5050835160fc54949550934793506000925060649150610e1490600160a01b900460ff16846119b9565b610e1e91906119d0565b90506000610e2c82846119f2565b90506000610e3a85836119d0565b60fc546040519192506001600160a01b03169084156108fc029085906000818181858888f19350505050158015610e75573d6000803e3d6000fd5b5060fc54604080516001600160a01b039092168252602082018590528101859052606081018690527ffcf24b8583d2292a6decc9bf77b195c3be12ef70f20dbd3aee29227cce788b3e9060800160405180910390a160005b858161ffff161015610fb457868161ffff1681518110610eef57610eef611a27565b60200260200101516001600160a01b03166108fc839081150290604051600060405180830381858888f19350505050158015610f2f573d6000803e3d6000fd5b507ffcf24b8583d2292a6decc9bf77b195c3be12ef70f20dbd3aee29227cce788b3e878261ffff1681518110610f6757610f67611a27565b602090810291909101810151604080516001600160a01b0390921682529181018590529081018790526060810188905260800160405180910390a180610fac81611a3d565b915050610ecd565b50505050505050565b60008060fb80548060200260200160405190810160405280929190818152602001828054801561101657602002820191906000526020600020905b81546001600160a01b03168152600190910190602001808311610ff8575b505083519394506000925050505b818161ffff16101561108357828161ffff168151811061104657611046611a27565b60200260200101516001600160a01b0316856001600160a01b03160361107157506001949350505050565b8061107b81611a3d565b915050611024565b506000949350505050565b611096611104565b6001600160a01b0381166110fb5760405162461bcd60e51b815260206004820152602660248201527f4f776e61626c653a206e6577206f776e657220697320746865207a65726f206160448201526564647265737360d01b60648201526084016103ff565b61049c81611328565b6065546001600160a01b031633146104af5760405162461bcd60e51b815260206004820181905260248201527f4f776e61626c653a2063616c6c6572206973206e6f7420746865206f776e657260448201526064016103ff565b61049c611104565b7f4910fdfa16fed3260ed0e7147f7cc6da11a60208b5b9406d12a635614ffd91435460ff161561119e576111998361143c565b505050565b826001600160a01b03166352d1902d6040518163ffffffff1660e01b8152600401602060405180830381865afa9250505080156111f8575060408051601f3d908101601f191682019092526111f59181019061198a565b60015b61125b5760405162461bcd60e51b815260206004820152602e60248201527f45524331393637557067726164653a206e657720696d706c656d656e7461746960448201526d6f6e206973206e6f74205555505360901b60648201526084016103ff565b600080516020611b3383398151915281146112ca5760405162461bcd60e51b815260206004820152602960248201527f45524331393637557067726164653a20756e737570706f727465642070726f786044820152681a58589b195555525160ba1b60648201526084016103ff565b506111998383836114d8565b6112de6114fd565b6033805460ff191690557f5db9ee0a495bf2e6ff9c91a7834c1ba4fdd244a5e8aa4e537bd38aeae4b073aa335b6040516001600160a01b03909116815260200160405180910390a1565b606580546001600160a01b038381166001600160a01b0319831681179093556040519116919082907f8be0079c531659141344cd1fd0a4f28419497f9722a3daafe3b4186f6b6457e090600090a35050565b600054610100900460ff166113a15760405162461bcd60e51b81526004016103ff90611a74565b6104af611546565b600054610100900460ff166113d05760405162461bcd60e51b81526004016103ff90611a74565b6104af611579565b600054610100900460ff166104af5760405162461bcd60e51b81526004016103ff90611a74565b6114076115a9565b6033805460ff191660011790557f62e78cea01bee320cd4e420270b5ea74000d11b0c9f74754ebdbfc544b05a25861130b3390565b6001600160a01b0381163b6114a95760405162461bcd60e51b815260206004820152602d60248201527f455243313936373a206e657720696d706c656d656e746174696f6e206973206e60448201526c1bdd08184818dbdb9d1c9858dd609a1b60648201526084016103ff565b600080516020611b3383398151915280546001600160a01b0319166001600160a01b0392909216919091179055565b6114e1836115ef565b6000825111806114ee5750805b1561119957610d8c838361162f565b60335460ff166104af5760405162461bcd60e51b815260206004820152601460248201527314185d5cd8589b194e881b9bdd081c185d5cd95960621b60448201526064016103ff565b600054610100900460ff1661156d5760405162461bcd60e51b81526004016103ff90611a74565b6033805460ff19169055565b600054610100900460ff166115a05760405162461bcd60e51b81526004016103ff90611a74565b6104af33611328565b60335460ff16156104af5760405162461bcd60e51b815260206004820152601060248201526f14185d5cd8589b194e881c185d5cd95960821b60448201526064016103ff565b6115f88161143c565b6040516001600160a01b038216907fbc7cd75a20ee27fd9adebab32041f755214dbc6bffa90cc0225b39da2e5c2d3b90600090a250565b60606001600160a01b0383163b6116975760405162461bcd60e51b815260206004820152602660248201527f416464726573733a2064656c65676174652063616c6c20746f206e6f6e2d636f6044820152651b9d1c9858dd60d21b60648201526084016103ff565b600080846001600160a01b0316846040516116b29190611ae3565b600060405180830381855af49150503d80600081146116ed576040519150601f19603f3d011682016040523d82523d6000602084013e6116f2565b606091505b509150915061171a8282604051806060016040528060278152602001611b5360279139611725565b925050505b92915050565b6060831561173457508161173e565b61173e8383611745565b9392505050565b8151156117555781518083602001fd5b8060405162461bcd60e51b81526004016103ff9190611aff565b80356001600160a01b038116811461178657600080fd5b919050565b60006020828403121561179d57600080fd5b61173e8261176f565b634e487b7160e01b600052604160045260246000fd5b600080604083850312156117cf57600080fd5b6117d88361176f565b9150602083013567ffffffffffffffff808211156117f557600080fd5b818501915085601f83011261180957600080fd5b81358181111561181b5761181b6117a6565b604051601f8201601f19908116603f01168101908382118183101715611843576118436117a6565b8160405282815288602084870101111561185c57600080fd5b8260208601602083013760006020848301015280955050505050509250929050565b60006020828403121561189057600080fd5b813560ff8116811461173e57600080fd5b604080825283519082018190526000906020906060840190828701845b828110156118e35781516001600160a01b0316845292840192908401906001016118be565b50505092019290925292915050565b6020808252602c908201527f46756e6374696f6e206d7573742062652063616c6c6564207468726f7567682060408201526b19195b1959d85d1958d85b1b60a21b606082015260800190565b6020808252602c908201527f46756e6374696f6e206d7573742062652063616c6c6564207468726f7567682060408201526b6163746976652070726f787960a01b606082015260800190565b60006020828403121561199c57600080fd5b5051919050565b634e487b7160e01b600052601160045260246000fd5b808202811582820484141761171f5761171f6119a3565b6000826119ed57634e487b7160e01b600052601260045260246000fd5b500490565b8181038181111561171f5761171f6119a3565b600060208284031215611a1757600080fd5b8151801515811461173e57600080fd5b634e487b7160e01b600052603260045260246000fd5b600061ffff808316818103611a5457611a546119a3565b6001019392505050565b634e487b7160e01b600052603160045260246000fd5b6020808252602b908201527f496e697469616c697a61626c653a20636f6e7472616374206973206e6f74206960408201526a6e697469616c697a696e6760a81b606082015260800190565b60005b83811015611ada578181015183820152602001611ac2565b50506000910152565b60008251611af5818460208701611abf565b9190910192915050565b6020815260008251806020840152611b1e816040850160208701611abf565b601f01601f1916919091016040019291505056fe360894a13ba1a3210667c828492db98dca3e2076cc3735a920a3ca505d382bbc416464726573733a206c6f772d6c6576656c2064656c65676174652063616c6c206661696c6564a2646970667358221220e58685e6f30965f78f997d4d2c087dac6f33a0834c6e5b75cb3a599bddaefe0964736f6c63430008120033",
  "linkReferences": {},
  "deployedLinkReferences": {}
}