{
  "_format": "hh-sol-artifact-1",
  "contractName": "ShareBalanceUpgradeable",
  "sourceName": "contracts/ShareBalanceV1Upgradeable.sol",
  "abi": [
    {
      "anonymous": false,
      "inputs": [
        {
          "indexed": false,
          "internalType": "address",
          "name": "previousAdmin",
          "type": "address"
        },
        {
          "indexed": false,
          "internalType": "address",
          "name": "newAdmin",
          "type": "address"
        }
      ],
      "name": "AdminChanged",
      "type": "event"
    },
    {
      "anonymous": false,
      "inputs": [
        {
          "indexed": true,
          "internalType": "address",
          "name": "beacon",
          "type": "address"
        }
      ],
      "name": "BeaconUpgraded",
      "type": "event"
    },
    {
      "anonymous": false,
      "inputs": [
        {
          "indexed": false,
          "internalType": "uint8",
          "name": "version",
          "type": "uint8"
        }
      ],
      "name": "Initialized",
      "type": "event"
    },
    {
      "anonymous": false,
      "inputs": [
        {
          "indexed": true,
          "internalType": "address",
          "name": "previousOwner",
          "type": "address"
        },
        {
          "indexed": true,
          "internalType": "address",
          "name": "newOwner",
          "type": "address"
        }
      ],
      "name": "OwnershipTransferred",
      "type": "event"
    },
    {
      "anonymous": false,
      "inputs": [
        {
          "indexed": false,
          "internalType": "address",
          "name": "account",
          "type": "address"
        }
      ],
      "name": "Paused",
      "type": "event"
    },
    {
      "anonymous": false,
      "inputs": [
        {
          "indexed": false,
          "internalType": "address",
          "name": "account",
          "type": "address"
        }
      ],
      "name": "Unpaused",
      "type": "event"
    },
    {
      "anonymous": false,
      "inputs": [
        {
          "indexed": true,
          "internalType": "address",
          "name": "implementation",
          "type": "address"
        }
      ],
      "name": "Upgraded",
      "type": "event"
    },
    {
      "anonymous": false,
      "inputs": [
        {
          "indexed": false,
          "internalType": "address",
          "name": "userAddress",
          "type": "address"
        }
      ],
      "name": "UserAdded",
      "type": "event"
    },
    {
      "anonymous": false,
      "inputs": [
        {
          "indexed": false,
          "internalType": "address",
          "name": "userAddress",
          "type": "address"
        }
      ],
      "name": "UserRemoved",
      "type": "event"
    },
    {
      "anonymous": false,
      "inputs": [
        {
          "indexed": false,
          "internalType": "address",
          "name": "userAddress",
          "type": "address"
        },
        {
          "indexed": false,
          "internalType": "uint256",
          "name": "value",
          "type": "uint256"
        },
        {
          "indexed": false,
          "internalType": "uint256",
          "name": "totalValue",
          "type": "uint256"
        },
        {
          "indexed": false,
          "internalType": "uint256",
          "name": "totalMembers",
          "type": "uint256"
        }
      ],
      "name": "WithdrawNative",
      "type": "event"
    },
    {
      "anonymous": false,
      "inputs": [
        {
          "indexed": false,
          "internalType": "address",
          "name": "tokenAddress",
          "type": "address"
        },
        {
          "indexed": false,
          "internalType": "address",
          "name": "userAddress",
          "type": "address"
        },
        {
          "indexed": false,
          "internalType": "uint256",
          "name": "value",
          "type": "uint256"
        },
        {
          "indexed": false,
          "internalType": "uint256",
          "name": "totalValue",
          "type": "uint256"
        },
        {
          "indexed": false,
          "internalType": "uint256",
          "name": "totalMembers",
          "type": "uint256"
        }
      ],
      "name": "WithdrawToken",
      "type": "event"
    },
    {
      "inputs": [
        {
          "internalType": "address",
          "name": "_userAddress",
          "type": "address"
        }
      ],
      "name": "addUser",
      "outputs": [],
      "stateMutability": "nonpayable",
      "type": "function"
    },
    {
      "inputs": [],
      "name": "distributeETH",
      "outputs": [],
      "stateMutability": "nonpayable",
      "type": "function"
    },
    {
      "inputs": [
        {
          "internalType": "address",
          "name": "_tokenContract",
          "type": "address"
        }
      ],
      "name": "distributeToken",
      "outputs": [],
      "stateMutability": "nonpayable",
      "type": "function"
    },
    {
      "inputs": [],
      "name": "getAdminAddress",
      "outputs": [
        {
          "internalType": "address",
          "name": "",
          "type": "address"
        }
      ],
      "stateMutability": "view",
      "type": "function"
    },
    {
      "inputs": [],
      "name": "getAdminShare",
      "outputs": [
        {
          "internalType": "uint8",
          "name": "",
          "type": "uint8"
        }
      ],
      "stateMutability": "view",
      "type": "function"
    },
    {
      "inputs": [],
      "name": "getusersList",
      "outputs": [
        {
          "internalType": "address[]",
          "name": "usersList",
          "type": "address[]"
        },
        {
          "internalType": "uint256",
          "name": "usersCount",
          "type": "uint256"
        }
      ],
      "stateMutability": "view",
      "type": "function"
    },
    {
      "inputs": [],
      "name": "initialize",
      "outputs": [],
      "stateMutability": "nonpayable",
      "type": "function"
    },
    {
      "inputs": [
        {
          "internalType": "address",
          "name": "_userAddress",
          "type": "address"
        }
      ],
      "name": "isUserInList",
      "outputs": [
        {
          "internalType": "bool",
          "name": "",
          "type": "bool"
        }
      ],
      "stateMutability": "view",
      "type": "function"
    },
    {
      "inputs": [],
      "name": "owner",
      "outputs": [
        {
          "internalType": "address",
          "name": "",
          "type": "address"
        }
      ],
      "stateMutability": "view",
      "type": "function"
    },
    {
      "inputs": [],
      "name": "pause",
      "outputs": [],
      "stateMutability": "nonpayable",
      "type": "function"
    },
    {
      "inputs": [],
      "name": "paused",
      "outputs": [
        {
          "internalType": "bool",
          "name": "",
          "type": "bool"
        }
      ],
      "stateMutability": "view",
      "type": "function"
    },
    {
      "inputs": [],
      "name": "proxiableUUID",
      "outputs": [
        {
          "internalType": "bytes32",
          "name": "",
          "type": "bytes32"
        }
      ],
      "stateMutability": "view",
      "type": "function"
    },
    {
      "inputs": [
        {
          "internalType": "address",
          "name": "_userAddress",
          "type": "address"
        }
      ],
      "name": "removeUser",
      "outputs": [],
      "stateMutability": "nonpayable",
      "type": "function"
    },
    {
      "inputs": [],
      "name": "renounceOwnership",
      "outputs": [],
      "stateMutability": "nonpayable",
      "type": "function"
    },
    {
      "inputs": [
        {
          "internalType": "address",
          "name": "_newAdminAddress",
          "type": "address"
        }
      ],
      "name": "setAdminAddress",
      "outputs": [],
      "stateMutability": "nonpayable",
      "type": "function"
    },
    {
      "inputs": [
        {
          "internalType": "uint8",
          "name": "_valueInPer",
          "type": "uint8"
        }
      ],
      "name": "setAdminShare",
      "outputs": [],
      "stateMutability": "nonpayable",
      "type": "function"
    },
    {
      "inputs": [
        {
          "internalType": "address",
          "name": "newOwner",
          "type": "address"
        }
      ],
      "name": "transferOwnership",
      "outputs": [],
      "stateMutability": "nonpayable",
      "type": "function"
    },
    {
      "inputs": [],
      "name": "unpause",
      "outputs": [],
      "stateMutability": "nonpayable",
      "type": "function"
    },
    {
      "inputs": [
        {
          "internalType": "address",
          "name": "newImplementation",
          "type": "address"
        }
      ],
      "name": "upgradeTo",
      "outputs": [],
      "stateMutability": "nonpayable",
      "type": "function"
    },
    {
      "inputs": [
        {
          "internalType": "address",
          "name": "newImplementation",
          "type": "address"
        },
        {
          "internalType": "bytes",
          "name": "data",
          "type": "bytes"
        }
      ],
      "name": "upgradeToAndCall",
      "outputs": [],
      "stateMutability": "payable",
      "type": "function"
    }
  ],
  "bytecode": "0x60a06040523060805234801561001457600080fd5b50608051611e9561004c600039600081816104010152818161048b01528181610620015281816106a5015261078f0152611e956000f3fe60806040526004361061015f5760003560e01c806381237900116100c05780639857518811610074578063b8b9b54911610059578063b8b9b54914610378578063de45bbd11461038d578063f2fde38b146103ad57600080fd5b8063985751881461033a578063b2e6b9121461035a57600080fd5b80638456cb59116100a55780638456cb59146102d357806386d74037146102e85780638da5cb5b1461030857600080fd5b8063812379001461029b5780638129fc1c146102be57600080fd5b80634f1ef286116101175780635c975abb116100fc5780635c975abb1461024257806369088d5d14610266578063715018a61461028657600080fd5b80634f1ef2861461020c57806352d1902d1461021f57600080fd5b80633659cfe6116101485780633659cfe6146101b75780633f4ba83a146101d7578063421b2d8b146101ec57600080fd5b80631bd4fb7a146101645780632c1e816d14610195575b600080fd5b34801561017057600080fd5b5060fc54600160a01b900460ff1660405160ff90911681526020015b60405180910390f35b3480156101a157600080fd5b506101b56101b0366004611b74565b6103cd565b005b3480156101c357600080fd5b506101b56101d2366004611b74565b6103f7565b3480156101e357600080fd5b506101b5610577565b3480156101f857600080fd5b506101b5610207366004611b74565b610589565b6101b561021a366004611ba5565b610616565b34801561022b57600080fd5b50610234610782565b60405190815260200161018c565b34801561024e57600080fd5b5060335460ff165b604051901515815260200161018c565b34801561027257600080fd5b506101b5610281366004611c67565b610847565b34801561029257600080fd5b506101b561088a565b3480156102a757600080fd5b506102b061089c565b60405161018c929190611c8a565b3480156102ca57600080fd5b506101b5610908565b3480156102df57600080fd5b506101b5610a70565b3480156102f457600080fd5b506101b5610303366004611b74565b610a80565b34801561031457600080fd5b506065546001600160a01b03165b6040516001600160a01b03909116815260200161018c565b34801561034657600080fd5b506101b5610355366004611b74565b610de8565b34801561036657600080fd5b5060fc546001600160a01b0316610322565b34801561038457600080fd5b506101b5610f8c565b34801561039957600080fd5b506102566103a8366004611b74565b6111b7565b3480156103b957600080fd5b506101b56103c8366004611b74565b611288565b6103d5611315565b60fc80546001600160a01b0319166001600160a01b0392909216919091179055565b6001600160a01b037f00000000000000000000000000000000000000000000000000000000000000001630036104895760405162461bcd60e51b815260206004820152602c60248201527f46756e6374696f6e206d7573742062652063616c6c6564207468726f7567682060448201526b19195b1959d85d1958d85b1b60a21b60648201526084015b60405180910390fd5b7f00000000000000000000000000000000000000000000000000000000000000006001600160a01b03166104e47f360894a13ba1a3210667c828492db98dca3e2076cc3735a920a3ca505d382bbc546001600160a01b031690565b6001600160a01b03161461054f5760405162461bcd60e51b815260206004820152602c60248201527f46756e6374696f6e206d7573742062652063616c6c6564207468726f7567682060448201526b6163746976652070726f787960a01b6064820152608401610480565b6105588161136f565b6040805160008082526020820190925261057491839190611377565b50565b61057f611315565b61058761151c565b565b610591611315565b60fb80546001810182556000919091527f3e7257b7272bb46d49cd6019b04ddee20da7c0cb13f7c1ec3391291b2ccebabc0180546001600160a01b0319166001600160a01b0383169081179091556040519081527f19ef9a4877199f89440a26acb26895ec02ed86f2df1aeaa90dc18041b892f71f906020015b60405180910390a150565b6001600160a01b037f00000000000000000000000000000000000000000000000000000000000000001630036106a35760405162461bcd60e51b815260206004820152602c60248201527f46756e6374696f6e206d7573742062652063616c6c6564207468726f7567682060448201526b19195b1959d85d1958d85b1b60a21b6064820152608401610480565b7f00000000000000000000000000000000000000000000000000000000000000006001600160a01b03166106fe7f360894a13ba1a3210667c828492db98dca3e2076cc3735a920a3ca505d382bbc546001600160a01b031690565b6001600160a01b0316146107695760405162461bcd60e51b815260206004820152602c60248201527f46756e6374696f6e206d7573742062652063616c6c6564207468726f7567682060448201526b6163746976652070726f787960a01b6064820152608401610480565b6107728261136f565b61077e82826001611377565b5050565b6000306001600160a01b037f000000000000000000000000000000000000000000000000000000000000000016146108225760405162461bcd60e51b815260206004820152603860248201527f555550535570677261646561626c653a206d757374206e6f742062652063616c60448201527f6c6564207468726f7567682064656c656761746563616c6c00000000000000006064820152608401610480565b507f360894a13ba1a3210667c828492db98dca3e2076cc3735a920a3ca505d382bbc90565b61084f611315565b60fc805460ff909216600160a01b027fffffffffffffffffffffff00ffffffffffffffffffffffffffffffffffffffff909216919091179055565b610892611315565b610587600061156e565b6060600060fb8054806020026020016040519081016040528092919081815260200182805480156108f657602002820191906000526020600020905b81546001600160a01b031681526001909101906020018083116108d8575b505060fb549396939550929350505050565b600054610100900460ff16158080156109285750600054600160ff909116105b806109425750303b158015610942575060005460ff166001145b6109b45760405162461bcd60e51b815260206004820152602e60248201527f496e697469616c697a61626c653a20636f6e747261637420697320616c72656160448201527f647920696e697469616c697a65640000000000000000000000000000000000006064820152608401610480565b6000805460ff1916600117905580156109d7576000805461ff0019166101001790555b60fc80547fffffffffffffffffffffff000000000000000000000000000000000000000000167446a6ad793c60fd03137a324b7ddc1a5c66d18eebde179055610a1e6115c0565b610a26611633565b610a2e6116a6565b8015610574576000805461ff0019169055604051600181527f7f26b83ff96e1f2b6a682f133852f6798a09c465da95921460cefb38474024989060200161060b565b610a78611315565b610587611711565b600060fb805480602002602001604051908101604052809291908181526020018280548015610ad857602002820191906000526020600020905b81546001600160a01b03168152600190910190602001808311610aba575b505083516040517f70a0823100000000000000000000000000000000000000000000000000000000815230600482015294955093600093506001600160a01b03871692506370a082319150602401602060405180830381865afa158015610b43573d6000803e3d6000fd5b505050506040513d601f19601f82011682018060405250810190610b679190611cdb565b60fc54909150600090606490610b8790600160a01b900460ff1684611d0a565b610b919190611d21565b90506000610b9f8284611d43565b90506000610bad8583611d21565b60fc546040517fa9059cbb0000000000000000000000000000000000000000000000000000000081526001600160a01b0391821660048201526024810186905291925088169063a9059cbb906044016020604051808303816000875af1158015610c1b573d6000803e3d6000fd5b505050506040513d601f19601f82011682018060405250810190610c3f9190611d56565b5060fc54604080516001600160a01b03808b1682529092166020830152810184905260608101859052608081018690527fc787e2dfdaea513103b8186b30d608da4212005161d60b3ce864e63907efafc69060a00160405180910390a160005b858161ffff161015610dde57876001600160a01b031663a9059cbb888361ffff1681518110610cd057610cd0611d78565b6020026020010151846040518363ffffffff1660e01b8152600401610d0a9291906001600160a01b03929092168252602082015260400190565b6020604051808303816000875af1158015610d29573d6000803e3d6000fd5b505050506040513d601f19601f82011682018060405250810190610d4d9190611d56565b507fc787e2dfdaea513103b8186b30d608da4212005161d60b3ce864e63907efafc688888361ffff1681518110610d8657610d86611d78565b602090810291909101810151604080516001600160a01b03948516815293909116918301919091528101859052606081018790526080810188905260a00160405180910390a180610dd681611d8e565b915050610c9f565b5050505050505050565b610df0611315565b600060fb805480602002602001604051908101604052809291908181526020018280548015610e4857602002820191906000526020600020905b81546001600160a01b03168152600190910190602001808311610e2a575b505083519394506000925050505b818161ffff161015610f8657828161ffff1681518110610e7857610e78611d78565b60200260200101516001600160a01b0316846001600160a01b031603610f38578260018451610ea79190611d43565b81518110610eb757610eb7611d78565b602002602001015160fb8261ffff1681548110610ed657610ed6611d78565b9060005260206000200160006101000a8154816001600160a01b0302191690836001600160a01b0316021790555060fb805480610f1557610f15611daf565b600082815260209020810160001990810180546001600160a01b03191690550190555b6040516001600160a01b03851681527fe9dce8c992623ce791725b21e857e33248d1f190a25b5168313420eebdaae99d9060200160405180910390a180610f7e81611d8e565b915050610e56565b50505050565b600060fb805480602002602001604051908101604052809291908181526020018280548015610fe457602002820191906000526020600020905b81546001600160a01b03168152600190910190602001808311610fc6575b5050835160fc5494955093479350600092506064915061100e90600160a01b900460ff1684611d0a565b6110189190611d21565b905060006110268284611d43565b905060006110348583611d21565b60fc546040519192506001600160a01b03169084156108fc029085906000818181858888f1935050505015801561106f573d6000803e3d6000fd5b5060fc54604080516001600160a01b039092168252602082018590528101859052606081018690527ffcf24b8583d2292a6decc9bf77b195c3be12ef70f20dbd3aee29227cce788b3e9060800160405180910390a160005b858161ffff1610156111ae57868161ffff16815181106110e9576110e9611d78565b60200260200101516001600160a01b03166108fc839081150290604051600060405180830381858888f19350505050158015611129573d6000803e3d6000fd5b507ffcf24b8583d2292a6decc9bf77b195c3be12ef70f20dbd3aee29227cce788b3e878261ffff168151811061116157611161611d78565b602090810291909101810151604080516001600160a01b0390921682529181018590529081018790526060810188905260800160405180910390a1806111a681611d8e565b9150506110c7565b50505050505050565b60008060fb80548060200260200160405190810160405280929190818152602001828054801561121057602002820191906000526020600020905b81546001600160a01b031681526001909101906020018083116111f2575b505083519394506000925050505b818161ffff16101561127d57828161ffff168151811061124057611240611d78565b60200260200101516001600160a01b0316856001600160a01b03160361126b57506001949350505050565b8061127581611d8e565b91505061121e565b506000949350505050565b611290611315565b6001600160a01b03811661130c5760405162461bcd60e51b815260206004820152602660248201527f4f776e61626c653a206e6577206f776e657220697320746865207a65726f206160448201527f64647265737300000000000000000000000000000000000000000000000000006064820152608401610480565b6105748161156e565b6065546001600160a01b031633146105875760405162461bcd60e51b815260206004820181905260248201527f4f776e61626c653a2063616c6c6572206973206e6f7420746865206f776e65726044820152606401610480565b610574611315565b7f4910fdfa16fed3260ed0e7147f7cc6da11a60208b5b9406d12a635614ffd91435460ff16156113af576113aa8361174e565b505050565b826001600160a01b03166352d1902d6040518163ffffffff1660e01b8152600401602060405180830381865afa925050508015611409575060408051601f3d908101601f1916820190925261140691810190611cdb565b60015b61147b5760405162461bcd60e51b815260206004820152602e60248201527f45524331393637557067726164653a206e657720696d706c656d656e7461746960448201527f6f6e206973206e6f7420555550530000000000000000000000000000000000006064820152608401610480565b7f360894a13ba1a3210667c828492db98dca3e2076cc3735a920a3ca505d382bbc81146115105760405162461bcd60e51b815260206004820152602960248201527f45524331393637557067726164653a20756e737570706f727465642070726f7860448201527f6961626c655555494400000000000000000000000000000000000000000000006064820152608401610480565b506113aa83838361180c565b611524611831565b6033805460ff191690557f5db9ee0a495bf2e6ff9c91a7834c1ba4fdd244a5e8aa4e537bd38aeae4b073aa335b6040516001600160a01b03909116815260200160405180910390a1565b606580546001600160a01b038381166001600160a01b0319831681179093556040519116919082907f8be0079c531659141344cd1fd0a4f28419497f9722a3daafe3b4186f6b6457e090600090a35050565b600054610100900460ff1661162b5760405162461bcd60e51b815260206004820152602b60248201527f496e697469616c697a61626c653a20636f6e7472616374206973206e6f74206960448201526a6e697469616c697a696e6760a81b6064820152608401610480565b610587611883565b600054610100900460ff1661169e5760405162461bcd60e51b815260206004820152602b60248201527f496e697469616c697a61626c653a20636f6e7472616374206973206e6f74206960448201526a6e697469616c697a696e6760a81b6064820152608401610480565b6105876118fa565b600054610100900460ff166105875760405162461bcd60e51b815260206004820152602b60248201527f496e697469616c697a61626c653a20636f6e7472616374206973206e6f74206960448201526a6e697469616c697a696e6760a81b6064820152608401610480565b61171961196e565b6033805460ff191660011790557f62e78cea01bee320cd4e420270b5ea74000d11b0c9f74754ebdbfc544b05a2586115513390565b6001600160a01b0381163b6117cb5760405162461bcd60e51b815260206004820152602d60248201527f455243313936373a206e657720696d706c656d656e746174696f6e206973206e60448201527f6f74206120636f6e7472616374000000000000000000000000000000000000006064820152608401610480565b7f360894a13ba1a3210667c828492db98dca3e2076cc3735a920a3ca505d382bbc80546001600160a01b0319166001600160a01b0392909216919091179055565b611815836119c1565b6000825111806118225750805b156113aa57610f868383611a01565b60335460ff166105875760405162461bcd60e51b815260206004820152601460248201527f5061757361626c653a206e6f74207061757365640000000000000000000000006044820152606401610480565b600054610100900460ff166118ee5760405162461bcd60e51b815260206004820152602b60248201527f496e697469616c697a61626c653a20636f6e7472616374206973206e6f74206960448201526a6e697469616c697a696e6760a81b6064820152608401610480565b6033805460ff19169055565b600054610100900460ff166119655760405162461bcd60e51b815260206004820152602b60248201527f496e697469616c697a61626c653a20636f6e7472616374206973206e6f74206960448201526a6e697469616c697a696e6760a81b6064820152608401610480565b6105873361156e565b60335460ff16156105875760405162461bcd60e51b815260206004820152601060248201527f5061757361626c653a20706175736564000000000000000000000000000000006044820152606401610480565b6119ca8161174e565b6040516001600160a01b038216907fbc7cd75a20ee27fd9adebab32041f755214dbc6bffa90cc0225b39da2e5c2d3b90600090a250565b60606001600160a01b0383163b611a805760405162461bcd60e51b815260206004820152602660248201527f416464726573733a2064656c65676174652063616c6c20746f206e6f6e2d636f60448201527f6e747261637400000000000000000000000000000000000000000000000000006064820152608401610480565b600080846001600160a01b031684604051611a9b9190611de9565b600060405180830381855af49150503d8060008114611ad6576040519150601f19603f3d011682016040523d82523d6000602084013e611adb565b606091505b5091509150611b038282604051806060016040528060278152602001611e3960279139611b0e565b925050505b92915050565b60608315611b1d575081611b27565b611b278383611b2e565b9392505050565b815115611b3e5781518083602001fd5b8060405162461bcd60e51b81526004016104809190611e05565b80356001600160a01b0381168114611b6f57600080fd5b919050565b600060208284031215611b8657600080fd5b611b2782611b58565b634e487b7160e01b600052604160045260246000fd5b60008060408385031215611bb857600080fd5b611bc183611b58565b9150602083013567ffffffffffffffff80821115611bde57600080fd5b818501915085601f830112611bf257600080fd5b813581811115611c0457611c04611b8f565b604051601f8201601f19908116603f01168101908382118183101715611c2c57611c2c611b8f565b81604052828152886020848701011115611c4557600080fd5b8260208601602083013760006020848301015280955050505050509250929050565b600060208284031215611c7957600080fd5b813560ff81168114611b2757600080fd5b604080825283519082018190526000906020906060840190828701845b82811015611ccc5781516001600160a01b031684529284019290840190600101611ca7565b50505092019290925292915050565b600060208284031215611ced57600080fd5b5051919050565b634e487b7160e01b600052601160045260246000fd5b8082028115828204841417611b0857611b08611cf4565b600082611d3e57634e487b7160e01b600052601260045260246000fd5b500490565b81810381811115611b0857611b08611cf4565b600060208284031215611d6857600080fd5b81518015158114611b2757600080fd5b634e487b7160e01b600052603260045260246000fd5b600061ffff808316818103611da557611da5611cf4565b6001019392505050565b634e487b7160e01b600052603160045260246000fd5b60005b83811015611de0578181015183820152602001611dc8565b50506000910152565b60008251611dfb818460208701611dc5565b9190910192915050565b6020815260008251806020840152611e24816040850160208701611dc5565b601f01601f1916919091016040019291505056fe416464726573733a206c6f772d6c6576656c2064656c65676174652063616c6c206661696c6564a2646970667358221220ee3c5dbfa5b9138a9ef94a6fe592347956621b986f09c859bb2d1137ddae01b064736f6c63430008120033",
  "linkReferences": {},
  "deployedLinkReferences": {}
}