{
  "_format": "hh-sol-artifact-1",
  "contractName": "StakingUpgradeable",
  "sourceName": "contracts/StakingUpgradeable.sol",
  "abi": [
    {
      "anonymous": false,
      "inputs": [
        {
          "indexed": false,
          "internalType": "address",
          "name": "previousAdmin",
          "type": "address"
        },
        {
          "indexed": false,
          "internalType": "address",
          "name": "newAdmin",
          "type": "address"
        }
      ],
      "name": "AdminChanged",
      "type": "event"
    },
    {
      "anonymous": false,
      "inputs": [
        {
          "indexed": true,
          "internalType": "address",
          "name": "beacon",
          "type": "address"
        }
      ],
      "name": "BeaconUpgraded",
      "type": "event"
    },
    {
      "anonymous": false,
      "inputs": [
        {
          "indexed": false,
          "internalType": "uint8",
          "name": "version",
          "type": "uint8"
        }
      ],
      "name": "Initialized",
      "type": "event"
    },
    {
      "anonymous": false,
      "inputs": [
        {
          "indexed": true,
          "internalType": "address",
          "name": "previousOwner",
          "type": "address"
        },
        {
          "indexed": true,
          "internalType": "address",
          "name": "newOwner",
          "type": "address"
        }
      ],
      "name": "OwnershipTransferred",
      "type": "event"
    },
    {
      "anonymous": false,
      "inputs": [
        {
          "indexed": false,
          "internalType": "address",
          "name": "account",
          "type": "address"
        }
      ],
      "name": "Paused",
      "type": "event"
    },
    {
      "anonymous": false,
      "inputs": [
        {
          "indexed": true,
          "internalType": "address",
          "name": "userAddress",
          "type": "address"
        },
        {
          "indexed": false,
          "internalType": "uint256",
          "name": "amount",
          "type": "uint256"
        }
      ],
      "name": "PrincipalClaimed",
      "type": "event"
    },
    {
      "anonymous": false,
      "inputs": [
        {
          "indexed": true,
          "internalType": "address",
          "name": "userAddress",
          "type": "address"
        },
        {
          "indexed": true,
          "internalType": "uint256",
          "name": "valueStaked",
          "type": "uint256"
        },
        {
          "indexed": true,
          "internalType": "uint256",
          "name": "duration",
          "type": "uint256"
        },
        {
          "indexed": false,
          "internalType": "uint256",
          "name": "stakingID",
          "type": "uint256"
        }
      ],
      "name": "Stake",
      "type": "event"
    },
    {
      "anonymous": false,
      "inputs": [
        {
          "indexed": true,
          "internalType": "address",
          "name": "userAddress",
          "type": "address"
        },
        {
          "indexed": true,
          "internalType": "uint256",
          "name": "reward",
          "type": "uint256"
        },
        {
          "indexed": true,
          "internalType": "uint256",
          "name": "stakingID",
          "type": "uint256"
        },
        {
          "indexed": false,
          "internalType": "address",
          "name": "tokenAddress",
          "type": "address"
        }
      ],
      "name": "StakingRewardClaimed",
      "type": "event"
    },
    {
      "anonymous": false,
      "inputs": [
        {
          "indexed": false,
          "internalType": "address",
          "name": "account",
          "type": "address"
        }
      ],
      "name": "Unpaused",
      "type": "event"
    },
    {
      "anonymous": false,
      "inputs": [
        {
          "indexed": true,
          "internalType": "address",
          "name": "userAddress",
          "type": "address"
        },
        {
          "indexed": true,
          "internalType": "uint256",
          "name": "valueStaked",
          "type": "uint256"
        },
        {
          "indexed": true,
          "internalType": "uint256",
          "name": "stakingID",
          "type": "uint256"
        }
      ],
      "name": "Unstake",
      "type": "event"
    },
    {
      "anonymous": false,
      "inputs": [
        {
          "indexed": true,
          "internalType": "address",
          "name": "implementation",
          "type": "address"
        }
      ],
      "name": "Upgraded",
      "type": "event"
    },
    {
      "inputs": [],
      "name": "activeStakersList",
      "outputs": [
        {
          "internalType": "address[]",
          "name": "",
          "type": "address[]"
        }
      ],
      "stateMutability": "view",
      "type": "function"
    },
    {
      "inputs": [],
      "name": "allStakersList",
      "outputs": [
        {
          "internalType": "address[]",
          "name": "",
          "type": "address[]"
        }
      ],
      "stateMutability": "view",
      "type": "function"
    },
    {
      "inputs": [],
      "name": "getActiveStakingIDs",
      "outputs": [
        {
          "internalType": "uint256[]",
          "name": "",
          "type": "uint256[]"
        }
      ],
      "stateMutability": "view",
      "type": "function"
    },
    {
      "inputs": [],
      "name": "getStakingCappings",
      "outputs": [
        {
          "internalType": "uint256",
          "name": "stakingRewardRate",
          "type": "uint256"
        },
        {
          "internalType": "uint256",
          "name": "stakingDuration",
          "type": "uint256"
        }
      ],
      "stateMutability": "view",
      "type": "function"
    },
    {
      "inputs": [
        {
          "internalType": "uint256",
          "name": "_stakingID",
          "type": "uint256"
        }
      ],
      "name": "getStakingReward",
      "outputs": [
        {
          "internalType": "uint256",
          "name": "",
          "type": "uint256"
        }
      ],
      "stateMutability": "view",
      "type": "function"
    },
    {
      "inputs": [
        {
          "internalType": "uint256",
          "name": "_stakingID",
          "type": "uint256"
        }
      ],
      "name": "getStakingTimeRemaining",
      "outputs": [
        {
          "internalType": "uint256",
          "name": "",
          "type": "uint256"
        }
      ],
      "stateMutability": "view",
      "type": "function"
    },
    {
      "inputs": [],
      "name": "getTotalStakingRewardDistributed",
      "outputs": [
        {
          "internalType": "uint256",
          "name": "_tokenRewards",
          "type": "uint256"
        }
      ],
      "stateMutability": "view",
      "type": "function"
    },
    {
      "inputs": [],
      "name": "getTotalValueStaked",
      "outputs": [
        {
          "internalType": "uint256",
          "name": "token",
          "type": "uint256"
        }
      ],
      "stateMutability": "view",
      "type": "function"
    },
    {
      "inputs": [
        {
          "internalType": "address",
          "name": "_userAddress",
          "type": "address"
        }
      ],
      "name": "getUserAllStakingsRewards",
      "outputs": [
        {
          "internalType": "uint256",
          "name": "",
          "type": "uint256"
        }
      ],
      "stateMutability": "view",
      "type": "function"
    },
    {
      "inputs": [
        {
          "internalType": "address",
          "name": "_userAddress",
          "type": "address"
        }
      ],
      "name": "getUserStakingIDs",
      "outputs": [
        {
          "internalType": "uint256[]",
          "name": "",
          "type": "uint256[]"
        }
      ],
      "stateMutability": "view",
      "type": "function"
    },
    {
      "inputs": [
        {
          "internalType": "address",
          "name": "_userAddress",
          "type": "address"
        }
      ],
      "name": "getUserTotalRewardClaimedToken",
      "outputs": [
        {
          "internalType": "uint256",
          "name": "totalRewardClaim",
          "type": "uint256"
        }
      ],
      "stateMutability": "view",
      "type": "function"
    },
    {
      "inputs": [
        {
          "internalType": "address",
          "name": "_userAddress",
          "type": "address"
        }
      ],
      "name": "getUserTotalValueStaked",
      "outputs": [
        {
          "internalType": "uint256",
          "name": "token",
          "type": "uint256"
        }
      ],
      "stateMutability": "view",
      "type": "function"
    },
    {
      "inputs": [],
      "name": "initialize",
      "outputs": [],
      "stateMutability": "nonpayable",
      "type": "function"
    },
    {
      "inputs": [
        {
          "internalType": "address",
          "name": "_userAddress",
          "type": "address"
        }
      ],
      "name": "isStaked",
      "outputs": [
        {
          "internalType": "bool",
          "name": "",
          "type": "bool"
        }
      ],
      "stateMutability": "view",
      "type": "function"
    },
    {
      "inputs": [],
      "name": "owner",
      "outputs": [
        {
          "internalType": "address",
          "name": "",
          "type": "address"
        }
      ],
      "stateMutability": "view",
      "type": "function"
    },
    {
      "inputs": [],
      "name": "pause",
      "outputs": [],
      "stateMutability": "nonpayable",
      "type": "function"
    },
    {
      "inputs": [],
      "name": "paused",
      "outputs": [
        {
          "internalType": "bool",
          "name": "",
          "type": "bool"
        }
      ],
      "stateMutability": "view",
      "type": "function"
    },
    {
      "inputs": [],
      "name": "proxiableUUID",
      "outputs": [
        {
          "internalType": "bytes32",
          "name": "",
          "type": "bytes32"
        }
      ],
      "stateMutability": "view",
      "type": "function"
    },
    {
      "inputs": [],
      "name": "renounceOwnership",
      "outputs": [],
      "stateMutability": "nonpayable",
      "type": "function"
    },
    {
      "inputs": [
        {
          "internalType": "uint256",
          "name": "_valueInDays",
          "type": "uint256"
        }
      ],
      "name": "setStakingDuration",
      "outputs": [],
      "stateMutability": "nonpayable",
      "type": "function"
    },
    {
      "inputs": [
        {
          "internalType": "uint256",
          "name": "_valueInPer",
          "type": "uint256"
        }
      ],
      "name": "setStakingRewardRate",
      "outputs": [],
      "stateMutability": "nonpayable",
      "type": "function"
    },
    {
      "inputs": [
        {
          "internalType": "uint256",
          "name": "_stakingID",
          "type": "uint256"
        }
      ],
      "name": "stakeInfoMap",
      "outputs": [
        {
          "components": [
            {
              "internalType": "bool",
              "name": "isActive",
              "type": "bool"
            },
            {
              "internalType": "address",
              "name": "owner",
              "type": "address"
            },
            {
              "internalType": "uint256",
              "name": "value",
              "type": "uint256"
            },
            {
              "internalType": "uint256",
              "name": "rewardRate",
              "type": "uint256"
            },
            {
              "internalType": "uint256",
              "name": "startTime",
              "type": "uint256"
            },
            {
              "internalType": "uint256",
              "name": "duration",
              "type": "uint256"
            },
            {
              "internalType": "uint256",
              "name": "rewardClaimed",
              "type": "uint256"
            }
          ],
          "internalType": "struct StakingUpgradeable.StakeInfo",
          "name": "",
          "type": "tuple"
        }
      ],
      "stateMutability": "view",
      "type": "function"
    },
    {
      "inputs": [
        {
          "internalType": "address",
          "name": "newOwner",
          "type": "address"
        }
      ],
      "name": "transferOwnership",
      "outputs": [],
      "stateMutability": "nonpayable",
      "type": "function"
    },
    {
      "inputs": [],
      "name": "unpause",
      "outputs": [],
      "stateMutability": "nonpayable",
      "type": "function"
    },
    {
      "inputs": [
        {
          "internalType": "address",
          "name": "newImplementation",
          "type": "address"
        }
      ],
      "name": "upgradeTo",
      "outputs": [],
      "stateMutability": "nonpayable",
      "type": "function"
    },
    {
      "inputs": [
        {
          "internalType": "address",
          "name": "newImplementation",
          "type": "address"
        },
        {
          "internalType": "bytes",
          "name": "data",
          "type": "bytes"
        }
      ],
      "name": "upgradeToAndCall",
      "outputs": [],
      "stateMutability": "payable",
      "type": "function"
    },
    {
      "inputs": [
        {
          "internalType": "address",
          "name": "_userAddress",
          "type": "address"
        }
      ],
      "name": "userAccountMap",
      "outputs": [
        {
          "components": [
            {
              "internalType": "uint256[]",
              "name": "stakingID",
              "type": "uint256[]"
            }
          ],
          "internalType": "struct StakingUpgradeable.Account",
          "name": "",
          "type": "tuple"
        }
      ],
      "stateMutability": "view",
      "type": "function"
    },
    {
      "inputs": [
        {
          "internalType": "address",
          "name": "_receiver",
          "type": "address"
        },
        {
          "internalType": "uint256",
          "name": "_value",
          "type": "uint256"
        }
      ],
      "name": "withdrawNativeFunds",
      "outputs": [
        {
          "internalType": "bool",
          "name": "",
          "type": "bool"
        }
      ],
      "stateMutability": "nonpayable",
      "type": "function"
    },
    {
      "inputs": [
        {
          "internalType": "address",
          "name": "_tokenAddress",
          "type": "address"
        },
        {
          "internalType": "address",
          "name": "_receiver",
          "type": "address"
        },
        {
          "internalType": "uint256",
          "name": "_value",
          "type": "uint256"
        }
      ],
      "name": "withdrawTokens",
      "outputs": [
        {
          "internalType": "bool",
          "name": "",
          "type": "bool"
        }
      ],
      "stateMutability": "nonpayable",
      "type": "function"
    },
    {
      "stateMutability": "payable",
      "type": "receive"
    }
  ],
  "bytecode": "0x60a06040523060805234801561001457600080fd5b5060805161209761004c600039600081816105fe01528181610647015281816106f80152818161073801526107cb01526120976000f3fe6080604052600436106101c65760003560e01c80637ce574bf116100f7578063b7d6851911610095578063dba4358c11610064578063dba4358c14610535578063deede6541461054a578063e3a51f581461055f578063f2fde38b1461058857600080fd5b8063b7d68519146104a6578063ba4f678e146104c6578063c06a5388146104f3578063d8ba90b71461051557600080fd5b80638da5cb5b116100d15780638da5cb5b146103c25780639c3fe28a146103ea578063a7566b751461040a578063abfe35ad1461048657600080fd5b80637ce574bf146103835780638129fc1c146103985780638456cb59146103ad57600080fd5b80635f869714116101645780636a8ca6911161013e5780636a8ca6911461030c5780636f51b20b1461032c5780636f72693b14610359578063715018a61461036e57600080fd5b80635f869714146102ac5780636177fd18146102cc57806366e5e570146102ec57600080fd5b80634f1ef286116101a05780634f1ef2861461023e57806352d1902d146102515780635c975abb146102745780635e35359e1461028c57600080fd5b806326792aca146101d25780633659cfe6146102075780633f4ba83a1461022957600080fd5b366101cd57005b600080fd5b3480156101de57600080fd5b506101f26101ed366004611b7f565b6105a8565b60405190151581526020015b60405180910390f35b34801561021357600080fd5b50610227610222366004611ba9565b6105f4565b005b34801561023557600080fd5b506102276106dc565b61022761024c366004611bda565b6106ee565b34801561025d57600080fd5b506102666107be565b6040519081526020016101fe565b34801561028057600080fd5b5060335460ff166101f2565b34801561029857600080fd5b506101f26102a7366004611c9c565b610871565b3480156102b857600080fd5b506102666102c7366004611ba9565b6108fb565b3480156102d857600080fd5b506101f26102e7366004611ba9565b6109e2565b3480156102f857600080fd5b50610266610307366004611ba9565b610abf565b34801561031857600080fd5b50610227610327366004611cd8565b610b8f565b34801561033857600080fd5b5061034c610347366004611ba9565b610bab565b6040516101fe9190611cf1565b34801561036557600080fd5b5061034c610c18565b34801561037a57600080fd5b50610227610ccd565b34801561038f57600080fd5b5060fe54610266565b3480156103a457600080fd5b50610227610cdf565b3480156103b957600080fd5b50610227610e33565b3480156103ce57600080fd5b506065546040516001600160a01b0390911681526020016101fe565b3480156103f657600080fd5b50610266610405366004611ba9565b610e43565b34801561041657600080fd5b5061042a610425366004611cd8565b610f47565b6040516101fe91908151151581526020808301516001600160a01b03169082015260408083015190820152606080830151908201526080808301519082015260a0808301519082015260c0918201519181019190915260e00190565b34801561049257600080fd5b506102666104a1366004611cd8565b611005565b3480156104b257600080fd5b506102276104c1366004611cd8565b611010565b3480156104d257600080fd5b506104e66104e1366004611ba9565b61101d565b6040516101fe9190611d35565b3480156104ff57600080fd5b506105086110a1565b6040516101fe9190611d85565b34801561052157600080fd5b50610266610530366004611cd8565b6111f5565b34801561054157600080fd5b5061050861125a565b34801561055657600080fd5b5060fd54610266565b34801561056b57600080fd5b5060ff5461010054604080519283526020830191909152016101fe565b34801561059457600080fd5b506102276105a3366004611ba9565b6113be565b60006105b2611434565b6040516001600160a01b0384169083156108fc029084906000818181858888f193505050501580156105e8573d6000803e3d6000fd5b50600190505b92915050565b6001600160a01b037f00000000000000000000000000000000000000000000000000000000000000001630036106455760405162461bcd60e51b815260040161063c90611dc6565b60405180910390fd5b7f00000000000000000000000000000000000000000000000000000000000000006001600160a01b031661068e60008051602061201b833981519152546001600160a01b031690565b6001600160a01b0316146106b45760405162461bcd60e51b815260040161063c90611e12565b6106bd8161148e565b604080516000808252602082019092526106d991839190611496565b50565b6106e4611434565b6106ec611606565b565b6001600160a01b037f00000000000000000000000000000000000000000000000000000000000000001630036107365760405162461bcd60e51b815260040161063c90611dc6565b7f00000000000000000000000000000000000000000000000000000000000000006001600160a01b031661077f60008051602061201b833981519152546001600160a01b031690565b6001600160a01b0316146107a55760405162461bcd60e51b815260040161063c90611e12565b6107ae8261148e565b6107ba82826001611496565b5050565b6000306001600160a01b037f0000000000000000000000000000000000000000000000000000000000000000161461085e5760405162461bcd60e51b815260206004820152603860248201527f555550535570677261646561626c653a206d757374206e6f742062652063616c60448201527f6c6564207468726f7567682064656c656761746563616c6c0000000000000000606482015260840161063c565b5060008051602061201b83398151915290565b600061087b611434565b60405163a9059cbb60e01b81526001600160a01b0384811660048301526024820184905285169063a9059cbb906044016020604051808303816000875af11580156108ca573d6000803e3d6000fd5b505050506040513d601f19601f820116820180604052508101906108ee9190611e5e565b50600190505b9392505050565b6001600160a01b03811660009081526101016020908152604080832080548251818502810185019093528083529092849291849183018282801561095e57602002820191906000526020600020905b81548152602001906001019080831161094a575b505083519394506000925050505b818110156109d9576000610102600085848151811061098d5761098d611e80565b6020908102919091018101518252810191909152604001600020805490915060ff16156109c65760018101546109c39087611eac565b95505b50806109d181611ebf565b91505061096c565b50505050919050565b6001600160a01b038116600090815261010160209081526040808320805482518185028101850190935280835290928492918491830182828015610a4557602002820191906000526020600020905b815481526020019060010190808311610a31575b505083519394506000925050505b81811015610ab3576101026000848381518110610a7257610a72611e80565b60209081029190910181015182528101919091526040016000205460ff1615610aa15750600195945050505050565b80610aab81611ebf565b915050610a53565b50600095945050505050565b6001600160a01b038116600090815261010160209081526040808320805482518185028101850190935280835290928492918491830182828015610b2257602002820191906000526020600020905b815481526020019060010190808311610b0e575b505083519394506000925050505b818110156109d95760006101026000858481518110610b5157610b51611e80565b602002602001015181526020019081526020016000209050806005015486610b799190611eac565b9550508080610b8790611ebf565b915050610b30565b610b97611434565b610ba48162015180611ed8565b6101005550565b6001600160a01b03811660009081526101016020908152604091829020805483518184028101840190945280845260609392830182828015610c0c57602002820191906000526020600020905b815481526020019060010190808311610bf8575b50505050509050919050565b60fc5460609060008167ffffffffffffffff811115610c3957610c39611bc4565b604051908082528060200260200182016040528015610c62578160200160208202803683370190505b50905060005b82811015610cc657600081815261010260205260409020805460ff161515600103610cb3578115610cb35781838381518110610ca657610ca6611e80565b6020026020010181815250505b5080610cbe81611ebf565b915050610c68565b5092915050565b610cd5611434565b6106ec6000611658565b600054610100900460ff1615808015610cff5750600054600160ff909116105b80610d195750303b158015610d19575060005460ff166001145b610d7c5760405162461bcd60e51b815260206004820152602e60248201527f496e697469616c697a61626c653a20636f6e747261637420697320616c72656160448201526d191e481a5b9a5d1a585b1a5e995960921b606482015260840161063c565b6000805460ff191660011790558015610d9f576000805461ff0019166101001790555b60fb80546001600160a01b0319167377daafc7411c911b869c71bf70fe36cce507845d179055606460ff556301e1338061010055610ddb6116aa565b610de36116d9565b610deb611708565b80156106d9576000805461ff0019169055604051600181527f7f26b83ff96e1f2b6a682f133852f6798a09c465da95921460cefb38474024989060200160405180910390a150565b610e3b611434565b6106ec61172f565b6001600160a01b03811660009081526101016020908152604080832080548251818502810185019093528083528493830182828015610ea157602002820191906000526020600020905b815481526020019060010190808311610e8d575b505050505090506000815190506000805b828160ff161015610f3e576101026000858360ff1681518110610ed757610ed7611e80565b60209081029190910181015182528101919091526040016000205460ff1615610f2c57610f1f848260ff1681518110610f1257610f12611e80565b602002602001015161176c565b610f299083611eac565b91505b80610f3681611eef565b915050610eb2565b50949350505050565b610f926040518060e0016040528060001515815260200160006001600160a01b0316815260200160008152602001600081526020016000815260200160008152602001600081525090565b5060009081526101026020908152604091829020825160e081018452815460ff81161515825261010090046001600160a01b0316928101929092526001810154928201929092526002820154606082015260038201546080820152600482015460a082015260059091015460c082015290565b60006105ee8261176c565b611018611434565b60ff55565b6040805160208082018352606082526001600160a01b038416600090815261010182528390208351815480840282018601865292810183815293949093919284929184919084018282801561109157602002820191906000526020600020905b81548152602001906001019080831161107d575b5050505050815250509050919050565b6060600060fc8054806020026020016040519081016040528092919081815260200182805480156110fb57602002820191906000526020600020905b81546001600160a01b031681526001909101906020018083116110dd575b5050505050905060008151905060008167ffffffffffffffff81111561112357611123611bc4565b60405190808252806020026020018201604052801561114c578160200160208202803683370190505b5090506000805b838110156111eb5761117e8386838151811061117157611171611e80565b60200260200101516117cb565b15156001146111d95784818151811061119957611199611e80565b60200260200101518383815181106111b3576111b3611e80565b6001600160a01b0390921660209283029190910190910152816111d581611ebf565b9250505b806111e381611ebf565b915050611153565b5090949350505050565b60008181526101026020526040812060048101546003820154429291849161121d9190611eac565b90508083101561124f57828260040154836003015461123c9190611eac565b6112469190611f0e565b95945050505050565b506000949350505050565b6060600060fc8054806020026020016040519081016040528092919081815260200182805480156112b457602002820191906000526020600020905b81546001600160a01b03168152600190910190602001808311611296575b5050505050905060008151905060008167ffffffffffffffff8111156112dc576112dc611bc4565b604051908082528060200260200182016040528015611305578160200160208202803683370190505b5090506000805b838110156111eb5761132a8386838151811061117157611171611e80565b15156001146113ac5761135585828151811061134857611348611e80565b60200260200101516109e2565b156113ac5784818151811061136c5761136c611e80565b602002602001015183838151811061138657611386611e80565b6001600160a01b0390921660209283029190910190910152816113a881611ebf565b9250505b806113b681611ebf565b91505061130c565b6113c6611434565b6001600160a01b03811661142b5760405162461bcd60e51b815260206004820152602660248201527f4f776e61626c653a206e6577206f776e657220697320746865207a65726f206160448201526564647265737360d01b606482015260840161063c565b6106d981611658565b6065546001600160a01b031633146106ec5760405162461bcd60e51b815260206004820181905260248201527f4f776e61626c653a2063616c6c6572206973206e6f7420746865206f776e6572604482015260640161063c565b6106d9611434565b7f4910fdfa16fed3260ed0e7147f7cc6da11a60208b5b9406d12a635614ffd91435460ff16156114ce576114c983611830565b505050565b826001600160a01b03166352d1902d6040518163ffffffff1660e01b8152600401602060405180830381865afa925050508015611528575060408051601f3d908101601f1916820190925261152591810190611f21565b60015b61158b5760405162461bcd60e51b815260206004820152602e60248201527f45524331393637557067726164653a206e657720696d706c656d656e7461746960448201526d6f6e206973206e6f74205555505360901b606482015260840161063c565b60008051602061201b83398151915281146115fa5760405162461bcd60e51b815260206004820152602960248201527f45524331393637557067726164653a20756e737570706f727465642070726f786044820152681a58589b195555525160ba1b606482015260840161063c565b506114c98383836118cc565b61160e6118f7565b6033805460ff191690557f5db9ee0a495bf2e6ff9c91a7834c1ba4fdd244a5e8aa4e537bd38aeae4b073aa335b6040516001600160a01b03909116815260200160405180910390a1565b606580546001600160a01b038381166001600160a01b0319831681179093556040519116919082907f8be0079c531659141344cd1fd0a4f28419497f9722a3daafe3b4186f6b6457e090600090a35050565b600054610100900460ff166116d15760405162461bcd60e51b815260040161063c90611f3a565b6106ec611940565b600054610100900460ff166117005760405162461bcd60e51b815260040161063c90611f3a565b6106ec611973565b600054610100900460ff166106ec5760405162461bcd60e51b815260040161063c90611f3a565b6117376119a3565b6033805460ff191660011790557f62e78cea01bee320cd4e420270b5ea74000d11b0c9f74754ebdbfc544b05a25861163b3390565b6000818152610102602052604081206003810154429190839061178f9084611f0e565b90506000826004015483600101546117a79190611f85565b90506117b78284600401546119e9565b6117c19082611ed8565b9695505050505050565b6000805b835181101561182657826001600160a01b03168482815181106117f4576117f4611e80565b60200260200101516001600160a01b0316036118145760019150506105ee565b8061181e81611ebf565b9150506117cf565b5060009392505050565b6001600160a01b0381163b61189d5760405162461bcd60e51b815260206004820152602d60248201527f455243313936373a206e657720696d706c656d656e746174696f6e206973206e60448201526c1bdd08184818dbdb9d1c9858dd609a1b606482015260840161063c565b60008051602061201b83398151915280546001600160a01b0319166001600160a01b0392909216919091179055565b6118d5836119ff565b6000825111806118e25750805b156114c9576118f18383611a3f565b50505050565b60335460ff166106ec5760405162461bcd60e51b815260206004820152601460248201527314185d5cd8589b194e881b9bdd081c185d5cd95960621b604482015260640161063c565b600054610100900460ff166119675760405162461bcd60e51b815260040161063c90611f3a565b6033805460ff19169055565b600054610100900460ff1661199a5760405162461bcd60e51b815260040161063c90611f3a565b6106ec33611658565b60335460ff16156106ec5760405162461bcd60e51b815260206004820152601060248201526f14185d5cd8589b194e881c185d5cd95960821b604482015260640161063c565b60008183106119f857816108f4565b5090919050565b611a0881611830565b6040516001600160a01b038216907fbc7cd75a20ee27fd9adebab32041f755214dbc6bffa90cc0225b39da2e5c2d3b90600090a250565b60606001600160a01b0383163b611aa75760405162461bcd60e51b815260206004820152602660248201527f416464726573733a2064656c65676174652063616c6c20746f206e6f6e2d636f6044820152651b9d1c9858dd60d21b606482015260840161063c565b600080846001600160a01b031684604051611ac29190611fcb565b600060405180830381855af49150503d8060008114611afd576040519150601f19603f3d011682016040523d82523d6000602084013e611b02565b606091505b5091509150611246828260405180606001604052806027815260200161203b6027913960608315611b345750816108f4565b6108f48383815115611b495781518083602001fd5b8060405162461bcd60e51b815260040161063c9190611fe7565b80356001600160a01b0381168114611b7a57600080fd5b919050565b60008060408385031215611b9257600080fd5b611b9b83611b63565b946020939093013593505050565b600060208284031215611bbb57600080fd5b6108f482611b63565b634e487b7160e01b600052604160045260246000fd5b60008060408385031215611bed57600080fd5b611bf683611b63565b9150602083013567ffffffffffffffff80821115611c1357600080fd5b818501915085601f830112611c2757600080fd5b813581811115611c3957611c39611bc4565b604051601f8201601f19908116603f01168101908382118183101715611c6157611c61611bc4565b81604052828152886020848701011115611c7a57600080fd5b8260208601602083013760006020848301015280955050505050509250929050565b600080600060608486031215611cb157600080fd5b611cba84611b63565b9250611cc860208501611b63565b9150604084013590509250925092565b600060208284031215611cea57600080fd5b5035919050565b6020808252825182820181905260009190848201906040850190845b81811015611d2957835183529284019291840191600101611d0d565b50909695505050505050565b6020808252825182820182905280516040840181905260009291820190839060608601905b80831015611d7a5783518252928401926001929092019190840190611d5a565b509695505050505050565b6020808252825182820181905260009190848201906040850190845b81811015611d295783516001600160a01b031683529284019291840191600101611da1565b6020808252602c908201527f46756e6374696f6e206d7573742062652063616c6c6564207468726f7567682060408201526b19195b1959d85d1958d85b1b60a21b606082015260800190565b6020808252602c908201527f46756e6374696f6e206d7573742062652063616c6c6564207468726f7567682060408201526b6163746976652070726f787960a01b606082015260800190565b600060208284031215611e7057600080fd5b815180151581146108f457600080fd5b634e487b7160e01b600052603260045260246000fd5b634e487b7160e01b600052601160045260246000fd5b808201808211156105ee576105ee611e96565b600060018201611ed157611ed1611e96565b5060010190565b80820281158282048414176105ee576105ee611e96565b600060ff821660ff8103611f0557611f05611e96565b60010192915050565b818103818111156105ee576105ee611e96565b600060208284031215611f3357600080fd5b5051919050565b6020808252602b908201527f496e697469616c697a61626c653a20636f6e7472616374206973206e6f74206960408201526a6e697469616c697a696e6760a81b606082015260800190565b600082611fa257634e487b7160e01b600052601260045260246000fd5b500490565b60005b83811015611fc2578181015183820152602001611faa565b50506000910152565b60008251611fdd818460208701611fa7565b9190910192915050565b6020815260008251806020840152612006816040850160208701611fa7565b601f01601f1916919091016040019291505056fe360894a13ba1a3210667c828492db98dca3e2076cc3735a920a3ca505d382bbc416464726573733a206c6f772d6c6576656c2064656c65676174652063616c6c206661696c6564a26469706673582212204a62c5c812087d41649178027e5a99e5aa10ab58ede42985e248bdd0e6da8cf964736f6c63430008120033",
  "linkReferences": {},
  "deployedLinkReferences": {}
}