{
  "_format": "hh-sol-artifact-1",
  "contractName": "StakingUpgradeable",
  "sourceName": "contracts/StakingUpgradeable.sol",
  "abi": [
    {
      "anonymous": false,
      "inputs": [
        {
          "indexed": false,
          "internalType": "address",
          "name": "previousAdmin",
          "type": "address"
        },
        {
          "indexed": false,
          "internalType": "address",
          "name": "newAdmin",
          "type": "address"
        }
      ],
      "name": "AdminChanged",
      "type": "event"
    },
    {
      "anonymous": false,
      "inputs": [
        {
          "indexed": true,
          "internalType": "address",
          "name": "beacon",
          "type": "address"
        }
      ],
      "name": "BeaconUpgraded",
      "type": "event"
    },
    {
      "anonymous": false,
      "inputs": [
        {
          "indexed": false,
          "internalType": "uint8",
          "name": "version",
          "type": "uint8"
        }
      ],
      "name": "Initialized",
      "type": "event"
    },
    {
      "anonymous": false,
      "inputs": [
        {
          "indexed": true,
          "internalType": "address",
          "name": "previousOwner",
          "type": "address"
        },
        {
          "indexed": true,
          "internalType": "address",
          "name": "newOwner",
          "type": "address"
        }
      ],
      "name": "OwnershipTransferred",
      "type": "event"
    },
    {
      "anonymous": false,
      "inputs": [
        {
          "indexed": true,
          "internalType": "address",
          "name": "userAddress",
          "type": "address"
        },
        {
          "indexed": false,
          "internalType": "uint256",
          "name": "amount",
          "type": "uint256"
        }
      ],
      "name": "PrincipalClaimed",
      "type": "event"
    },
    {
      "anonymous": false,
      "inputs": [
        {
          "indexed": true,
          "internalType": "address",
          "name": "userAddress",
          "type": "address"
        },
        {
          "indexed": true,
          "internalType": "uint256",
          "name": "valueStaked",
          "type": "uint256"
        },
        {
          "indexed": true,
          "internalType": "uint256",
          "name": "duration",
          "type": "uint256"
        },
        {
          "indexed": false,
          "internalType": "uint256",
          "name": "stakingID",
          "type": "uint256"
        }
      ],
      "name": "Stake",
      "type": "event"
    },
    {
      "anonymous": false,
      "inputs": [
        {
          "indexed": true,
          "internalType": "address",
          "name": "userAddress",
          "type": "address"
        },
        {
          "indexed": true,
          "internalType": "uint256",
          "name": "reward",
          "type": "uint256"
        },
        {
          "indexed": true,
          "internalType": "uint256",
          "name": "stakingID",
          "type": "uint256"
        },
        {
          "indexed": false,
          "internalType": "address",
          "name": "tokenAddress",
          "type": "address"
        }
      ],
      "name": "StakingRewardClaimed",
      "type": "event"
    },
    {
      "anonymous": false,
      "inputs": [
        {
          "indexed": true,
          "internalType": "address",
          "name": "userAddress",
          "type": "address"
        },
        {
          "indexed": true,
          "internalType": "uint256",
          "name": "valueStaked",
          "type": "uint256"
        },
        {
          "indexed": true,
          "internalType": "uint256",
          "name": "stakingID",
          "type": "uint256"
        }
      ],
      "name": "Unstake",
      "type": "event"
    },
    {
      "anonymous": false,
      "inputs": [
        {
          "indexed": true,
          "internalType": "address",
          "name": "implementation",
          "type": "address"
        }
      ],
      "name": "Upgraded",
      "type": "event"
    },
    {
      "inputs": [],
      "name": "activeStakersList",
      "outputs": [
        {
          "internalType": "address[]",
          "name": "",
          "type": "address[]"
        }
      ],
      "stateMutability": "view",
      "type": "function"
    },
    {
      "inputs": [],
      "name": "allStakersList",
      "outputs": [
        {
          "internalType": "address[]",
          "name": "",
          "type": "address[]"
        }
      ],
      "stateMutability": "view",
      "type": "function"
    },
    {
      "inputs": [
        {
          "internalType": "uint256",
          "name": "_stakingID",
          "type": "uint256"
        }
      ],
      "name": "claimStakingReward",
      "outputs": [],
      "stateMutability": "nonpayable",
      "type": "function"
    },
    {
      "inputs": [],
      "name": "getActiveStakingIDs",
      "outputs": [
        {
          "internalType": "uint256[]",
          "name": "",
          "type": "uint256[]"
        }
      ],
      "stateMutability": "view",
      "type": "function"
    },
    {
      "inputs": [],
      "name": "getStakingCappings",
      "outputs": [
        {
          "internalType": "uint256",
          "name": "stakingRewardRate",
          "type": "uint256"
        },
        {
          "internalType": "uint256",
          "name": "stakingDuration",
          "type": "uint256"
        }
      ],
      "stateMutability": "view",
      "type": "function"
    },
    {
      "inputs": [
        {
          "internalType": "uint256",
          "name": "_stakingID",
          "type": "uint256"
        }
      ],
      "name": "getStakingReward",
      "outputs": [
        {
          "internalType": "uint256",
          "name": "",
          "type": "uint256"
        }
      ],
      "stateMutability": "view",
      "type": "function"
    },
    {
      "inputs": [
        {
          "internalType": "uint256",
          "name": "_stakingID",
          "type": "uint256"
        }
      ],
      "name": "getStakingTimeRemaining",
      "outputs": [
        {
          "internalType": "uint256",
          "name": "",
          "type": "uint256"
        }
      ],
      "stateMutability": "view",
      "type": "function"
    },
    {
      "inputs": [],
      "name": "getTotalStakingRewardDistributed",
      "outputs": [
        {
          "internalType": "uint256",
          "name": "_tokenRewards",
          "type": "uint256"
        }
      ],
      "stateMutability": "view",
      "type": "function"
    },
    {
      "inputs": [],
      "name": "getTotalValueStaked",
      "outputs": [
        {
          "internalType": "uint256",
          "name": "token",
          "type": "uint256"
        }
      ],
      "stateMutability": "view",
      "type": "function"
    },
    {
      "inputs": [
        {
          "internalType": "address",
          "name": "_userAddress",
          "type": "address"
        }
      ],
      "name": "getUserAllStakingsRewards",
      "outputs": [
        {
          "internalType": "uint256",
          "name": "allStakingRewards",
          "type": "uint256"
        }
      ],
      "stateMutability": "view",
      "type": "function"
    },
    {
      "inputs": [
        {
          "internalType": "address",
          "name": "_userAddress",
          "type": "address"
        }
      ],
      "name": "getUserStakingIDs",
      "outputs": [
        {
          "internalType": "uint256[]",
          "name": "",
          "type": "uint256[]"
        }
      ],
      "stateMutability": "view",
      "type": "function"
    },
    {
      "inputs": [
        {
          "internalType": "address",
          "name": "_userAddress",
          "type": "address"
        }
      ],
      "name": "getUserTotalRewardClaimedToken",
      "outputs": [
        {
          "internalType": "uint256",
          "name": "totalRewardClaim",
          "type": "uint256"
        }
      ],
      "stateMutability": "view",
      "type": "function"
    },
    {
      "inputs": [
        {
          "internalType": "address",
          "name": "_userAddress",
          "type": "address"
        }
      ],
      "name": "getUserTotalValueStaked",
      "outputs": [
        {
          "internalType": "uint256",
          "name": "token",
          "type": "uint256"
        }
      ],
      "stateMutability": "view",
      "type": "function"
    },
    {
      "inputs": [],
      "name": "getVariablesContract",
      "outputs": [
        {
          "internalType": "address",
          "name": "",
          "type": "address"
        }
      ],
      "stateMutability": "view",
      "type": "function"
    },
    {
      "inputs": [],
      "name": "initialize",
      "outputs": [],
      "stateMutability": "nonpayable",
      "type": "function"
    },
    {
      "inputs": [
        {
          "internalType": "address",
          "name": "_userAddress",
          "type": "address"
        }
      ],
      "name": "isStaked",
      "outputs": [
        {
          "internalType": "bool",
          "name": "",
          "type": "bool"
        }
      ],
      "stateMutability": "view",
      "type": "function"
    },
    {
      "inputs": [],
      "name": "owner",
      "outputs": [
        {
          "internalType": "address",
          "name": "",
          "type": "address"
        }
      ],
      "stateMutability": "view",
      "type": "function"
    },
    {
      "inputs": [],
      "name": "proxiableUUID",
      "outputs": [
        {
          "internalType": "bytes32",
          "name": "",
          "type": "bytes32"
        }
      ],
      "stateMutability": "view",
      "type": "function"
    },
    {
      "inputs": [],
      "name": "renounceOwnership",
      "outputs": [],
      "stateMutability": "nonpayable",
      "type": "function"
    },
    {
      "inputs": [
        {
          "internalType": "uint256",
          "name": "_valueInDays",
          "type": "uint256"
        }
      ],
      "name": "setStakingDuration",
      "outputs": [],
      "stateMutability": "nonpayable",
      "type": "function"
    },
    {
      "inputs": [
        {
          "internalType": "uint256",
          "name": "_valueInPer",
          "type": "uint256"
        }
      ],
      "name": "setStakingRewardRate",
      "outputs": [],
      "stateMutability": "nonpayable",
      "type": "function"
    },
    {
      "inputs": [
        {
          "internalType": "address",
          "name": "_contractAddress",
          "type": "address"
        }
      ],
      "name": "setVariablesContract",
      "outputs": [],
      "stateMutability": "nonpayable",
      "type": "function"
    },
    {
      "inputs": [
        {
          "internalType": "address",
          "name": "_userAddress",
          "type": "address"
        },
        {
          "internalType": "uint256",
          "name": "_value",
          "type": "uint256"
        }
      ],
      "name": "stake",
      "outputs": [],
      "stateMutability": "nonpayable",
      "type": "function"
    },
    {
      "inputs": [
        {
          "internalType": "uint256",
          "name": "_stakingID",
          "type": "uint256"
        }
      ],
      "name": "stakeInfoMap",
      "outputs": [
        {
          "components": [
            {
              "internalType": "bool",
              "name": "isActive",
              "type": "bool"
            },
            {
              "internalType": "address",
              "name": "owner",
              "type": "address"
            },
            {
              "internalType": "uint256",
              "name": "value",
              "type": "uint256"
            },
            {
              "internalType": "uint256",
              "name": "rewardRate",
              "type": "uint256"
            },
            {
              "internalType": "uint256",
              "name": "startTime",
              "type": "uint256"
            },
            {
              "internalType": "uint256",
              "name": "duration",
              "type": "uint256"
            },
            {
              "internalType": "uint256",
              "name": "rewardClaimed",
              "type": "uint256"
            }
          ],
          "internalType": "struct StakingUpgradeable.StakeInfo",
          "name": "",
          "type": "tuple"
        }
      ],
      "stateMutability": "view",
      "type": "function"
    },
    {
      "inputs": [
        {
          "internalType": "address",
          "name": "newOwner",
          "type": "address"
        }
      ],
      "name": "transferOwnership",
      "outputs": [],
      "stateMutability": "nonpayable",
      "type": "function"
    },
    {
      "inputs": [
        {
          "internalType": "uint32",
          "name": "_stakingID",
          "type": "uint32"
        }
      ],
      "name": "unStake",
      "outputs": [],
      "stateMutability": "nonpayable",
      "type": "function"
    },
    {
      "inputs": [
        {
          "internalType": "address",
          "name": "newImplementation",
          "type": "address"
        }
      ],
      "name": "upgradeTo",
      "outputs": [],
      "stateMutability": "nonpayable",
      "type": "function"
    },
    {
      "inputs": [
        {
          "internalType": "address",
          "name": "newImplementation",
          "type": "address"
        },
        {
          "internalType": "bytes",
          "name": "data",
          "type": "bytes"
        }
      ],
      "name": "upgradeToAndCall",
      "outputs": [],
      "stateMutability": "payable",
      "type": "function"
    },
    {
      "inputs": [
        {
          "internalType": "address",
          "name": "_userAddress",
          "type": "address"
        }
      ],
      "name": "userAccountMap",
      "outputs": [
        {
          "components": [
            {
              "internalType": "uint256[]",
              "name": "stakingID",
              "type": "uint256[]"
            }
          ],
          "internalType": "struct StakingUpgradeable.Account",
          "name": "",
          "type": "tuple"
        }
      ],
      "stateMutability": "view",
      "type": "function"
    },
    {
      "stateMutability": "payable",
      "type": "receive"
    }
  ],
  "bytecode": "0x60a06040523060805234801561001457600080fd5b506080516127f561004c600039600081816108c40152818161094901528181610a3f01528181610ac40152610bae01526127f56000f3fe6080604052600436106101c65760003560e01c80638da5cb5b116100f7578063c06a538811610095578063deede65411610064578063deede65414610557578063e3a51f581461056c578063f13a143f14610594578063f2fde38b146105b257600080fd5b8063c06a5388146104e0578063cf8a379d14610502578063d8ba90b714610522578063dba4358c1461054257600080fd5b8063abfe35ad116100d1578063abfe35ad14610453578063adc9772e14610473578063b7d6851914610493578063ba4f678e146104b357600080fd5b80638da5cb5b146103805780639c3fe28a146103b2578063a7566b75146103d257600080fd5b806366e5e570116101645780636f72693b1161013e5780636f72693b1461032c578063715018a6146103415780637ce574bf146103565780638129fc1c1461036b57600080fd5b806366e5e570146102bf5780636a8ca691146102df5780636f51b20b146102ff57600080fd5b80634f1ef286116101a05780634f1ef2861461023457806352d1902d146102475780635f8697141461026f5780636177fd181461028f57600080fd5b80630ba0dba3146101d2578063239cd4a4146101f45780633659cfe61461021457600080fd5b366101cd57005b600080fd5b3480156101de57600080fd5b506101f26101ed3660046123d3565b6105d2565b005b34801561020057600080fd5b506101f261020f3660046123f0565b6105fc565b34801561022057600080fd5b506101f261022f3660046123d3565b6108ba565b6101f261024236600461241f565b610a35565b34801561025357600080fd5b5061025c610ba1565b6040519081526020015b60405180910390f35b34801561027b57600080fd5b5061025c61028a3660046123d3565b610c66565b34801561029b57600080fd5b506102af6102aa3660046123d3565b610d4b565b6040519015158152602001610266565b3480156102cb57600080fd5b5061025c6102da3660046123d3565b610e26565b3480156102eb57600080fd5b506101f26102fa3660046123f0565b610ef4565b34801561030b57600080fd5b5061031f61031a3660046123d3565b610f0f565b60405161026691906124e3565b34801561033857600080fd5b5061031f610f7b565b34801561034d57600080fd5b506101f261102f565b34801561036257600080fd5b5060cd5461025c565b34801561037757600080fd5b506101f2611043565b34801561038c57600080fd5b506033546001600160a01b03165b6040516001600160a01b039091168152602001610266565b3480156103be57600080fd5b5061025c6103cd3660046123d3565b61119d565b3480156103de57600080fd5b506103f26103ed3660046123f0565b61125e565b6040516102669190600060e0820190508251151582526001600160a01b03602084015116602083015260408301516040830152606083015160608301526080830151608083015260a083015160a083015260c083015160c083015292915050565b34801561045f57600080fd5b5061025c61046e3660046123f0565b61131b565b34801561047f57600080fd5b506101f261048e366004612527565b61132c565b34801561049f57600080fd5b506101f26104ae3660046123f0565b6113d2565b3480156104bf57600080fd5b506104d36104ce3660046123d3565b6113df565b6040516102669190612553565b3480156104ec57600080fd5b506104f5611462565b60405161026691906125a3565b34801561050e57600080fd5b506101f261051d3660046125e4565b6115b6565b34801561052e57600080fd5b5061025c61053d3660046123f0565b611946565b34801561054e57600080fd5b506104f561199c565b34801561056357600080fd5b5060cb5461025c565b34801561057857600080fd5b5060ce5460cf5460408051928352602083019190915201610266565b3480156105a057600080fd5b5060c9546001600160a01b031661039a565b3480156105be57600080fd5b506101f26105cd3660046123d3565b611b00565b6105da611b8d565b60c980546001600160a01b0319166001600160a01b0392909216919091179055565b600061060782611be7565b90506000811161065e5760405162461bcd60e51b815260206004820152601c60248201527f596f752068617665206e6f207374616b696e67206f7220656e6465640000000060448201526064015b60405180910390fd5b60c954600083815260d16020526040902080546001600160a01b039283169233929161010090041682146106e45760405162461bcd60e51b815260206004820152602760248201527f536f727279207374616b696e6720696420646f656e27742062656c6f6e6773206044820152663a37903cb7ba9760c91b6064820152608401610655565b838160050160008282546106f89190612620565b925050819055508360cd60008282546107119190612620565b92505081905550826001600160a01b03166365eb204d6040518163ffffffff1660e01b8152600401602060405180830381865afa158015610756573d6000803e3d6000fd5b505050506040513d601f19601f8201168201806040525081019061077a9190612633565b6040517fa9059cbb0000000000000000000000000000000000000000000000000000000081526001600160a01b03848116600483015260248201879052919091169063a9059cbb906044016020604051808303816000875af11580156107e4573d6000803e3d6000fd5b505050506040513d601f19601f820116820180604052508101906108089190612650565b508484836001600160a01b03167ffec605188cf64597b9aa9cf424a9bba4a84ffb09f9f66c932d6efa1b96fcc7e4866001600160a01b03166365eb204d6040518163ffffffff1660e01b8152600401602060405180830381865afa158015610874573d6000803e3d6000fd5b505050506040513d601f19601f820116820180604052508101906108989190612633565b6040516001600160a01b03909116815260200160405180910390a45050505050565b6001600160a01b037f00000000000000000000000000000000000000000000000000000000000000001630036109475760405162461bcd60e51b815260206004820152602c60248201527f46756e6374696f6e206d7573742062652063616c6c6564207468726f7567682060448201526b19195b1959d85d1958d85b1b60a21b6064820152608401610655565b7f00000000000000000000000000000000000000000000000000000000000000006001600160a01b03166109a27f360894a13ba1a3210667c828492db98dca3e2076cc3735a920a3ca505d382bbc546001600160a01b031690565b6001600160a01b031614610a0d5760405162461bcd60e51b815260206004820152602c60248201527f46756e6374696f6e206d7573742062652063616c6c6564207468726f7567682060448201526b6163746976652070726f787960a01b6064820152608401610655565b610a1681611c54565b60408051600080825260208201909252610a3291839190611c5c565b50565b6001600160a01b037f0000000000000000000000000000000000000000000000000000000000000000163003610ac25760405162461bcd60e51b815260206004820152602c60248201527f46756e6374696f6e206d7573742062652063616c6c6564207468726f7567682060448201526b19195b1959d85d1958d85b1b60a21b6064820152608401610655565b7f00000000000000000000000000000000000000000000000000000000000000006001600160a01b0316610b1d7f360894a13ba1a3210667c828492db98dca3e2076cc3735a920a3ca505d382bbc546001600160a01b031690565b6001600160a01b031614610b885760405162461bcd60e51b815260206004820152602c60248201527f46756e6374696f6e206d7573742062652063616c6c6564207468726f7567682060448201526b6163746976652070726f787960a01b6064820152608401610655565b610b9182611c54565b610b9d82826001611c5c565b5050565b6000306001600160a01b037f00000000000000000000000000000000000000000000000000000000000000001614610c415760405162461bcd60e51b815260206004820152603860248201527f555550535570677261646561626c653a206d757374206e6f742062652063616c60448201527f6c6564207468726f7567682064656c656761746563616c6c00000000000000006064820152608401610655565b507f360894a13ba1a3210667c828492db98dca3e2076cc3735a920a3ca505d382bbc90565b6001600160a01b038116600090815260d060209081526040808320805482518185028101850190935280835290928492918491830182828015610cc857602002820191906000526020600020905b815481526020019060010190808311610cb4575b505083519394506000925050505b81811015610d4257600060d16000858481518110610cf657610cf6612672565b6020908102919091018101518252810191909152604001600020805490915060ff1615610d2f576001810154610d2c9087612620565b95505b5080610d3a81612688565b915050610cd6565b50505050919050565b6001600160a01b038116600090815260d060209081526040808320805482518185028101850190935280835290928492918491830182828015610dad57602002820191906000526020600020905b815481526020019060010190808311610d99575b505083519394506000925050505b81811015610e1a5760d16000848381518110610dd957610dd9612672565b60209081029190910181015182528101919091526040016000205460ff1615610e085750600195945050505050565b80610e1281612688565b915050610dbb565b50600095945050505050565b6001600160a01b038116600090815260d060209081526040808320805482518185028101850190935280835290928492918491830182828015610e8857602002820191906000526020600020905b815481526020019060010190808311610e74575b505083519394506000925050505b81811015610d4257600060d16000858481518110610eb657610eb6612672565b602002602001015181526020019081526020016000209050806005015486610ede9190612620565b9550508080610eec90612688565b915050610e96565b610efc611b8d565b610f0981620151806126a1565b60cf5550565b6001600160a01b038116600090815260d06020908152604091829020805483518184028101840190945280845260609392830182828015610f6f57602002820191906000526020600020905b815481526020019060010190808311610f5b575b50505050509050919050565b60ca5460609060008167ffffffffffffffff811115610f9c57610f9c612409565b604051908082528060200260200182016040528015610fc5578160200160208202803683370190505b50905060005b8281101561102857600081815260d160205260409020805460ff161515600103611015578115611015578183838151811061100857611008612672565b6020026020010181815250505b508061102081612688565b915050610fcb565b5092915050565b611037611b8d565b6110416000611dfc565b565b600054610100900460ff16158080156110635750600054600160ff909116105b8061107d5750303b15801561107d575060005460ff166001145b6110ef5760405162461bcd60e51b815260206004820152602e60248201527f496e697469616c697a61626c653a20636f6e747261637420697320616c72656160448201527f647920696e697469616c697a65640000000000000000000000000000000000006064820152608401610655565b6000805460ff191660011790558015611112576000805461ff0019166101001790555b60c980546001600160a01b0319167377daafc7411c911b869c71bf70fe36cce507845d179055606460ce556302d5190060cf5561114d611e4e565b611155611ec1565b8015610a32576000805461ff0019169055604051600181527f7f26b83ff96e1f2b6a682f133852f6798a09c465da95921460cefb38474024989060200160405180910390a150565b6001600160a01b038116600090815260d060209081526040808320805482518185028101850190935280835284938301828280156111fa57602002820191906000526020600020905b8154815260200190600101908083116111e6575b505083519394506000925050505b818160ff16101561125657611238838260ff168151811061122b5761122b612672565b6020026020010151611be7565b6112429085612620565b93508061124e816126b8565b915050611208565b505050919050565b6112a96040518060e0016040528060001515815260200160006001600160a01b0316815260200160008152602001600081526020016000815260200160008152602001600081525090565b50600090815260d16020908152604091829020825160e081018452815460ff81161515825261010090046001600160a01b0316928101929092526001810154928201929092526002820154606082015260038201546080820152600482015460a082015260059091015460c082015290565b600061132682611be7565b92915050565b60c960009054906101000a90046001600160a01b03166001600160a01b03166323442c606040518163ffffffff1660e01b8152600401602060405180830381865afa15801561137f573d6000803e3d6000fd5b505050506040513d601f19601f820116820180604052508101906113a39190612633565b6001600160a01b0316336001600160a01b0316146113c057600080fd5b6113cd828260cf54611f2c565b505050565b6113da611b8d565b60ce55565b6040805160208082018352606082526001600160a01b038416600090815260d082528390208351815480840282018601865292810183815293949093919284929184919084018282801561145257602002820191906000526020600020905b81548152602001906001019080831161143e575b5050505050815250509050919050565b6060600060ca8054806020026020016040519081016040528092919081815260200182805480156114bc57602002820191906000526020600020905b81546001600160a01b0316815260019091019060200180831161149e575b5050505050905060008151905060008167ffffffffffffffff8111156114e4576114e4612409565b60405190808252806020026020018201604052801561150d578160200160208202803683370190505b5090506000805b838110156115ac5761153f8386838151811061153257611532612672565b602002602001015161205d565b151560011461159a5784818151811061155a5761155a612672565b602002602001015183838151811061157457611574612672565b6001600160a01b03909216602092830291909101909101528161159681612688565b9250505b806115a481612688565b915050611514565b5090949350505050565b63ffffffff8116600090815260d160205260409020805460ff1661161c5760405162461bcd60e51b815260206004820152601c60248201527f596f752068617665206e6f207374616b696e67206f7220656e646564000000006044820152606401610655565b600061162d8363ffffffff16611be7565b60c95483549192506001600160a01b039081169133916101009091041681146116a85760405162461bcd60e51b815260206004820152602760248201527f536f727279207374616b696e6720696420646f656e27742062656c6f6e6773206044820152663a37903cb7ba9760c91b6064820152608401610655565b4260cf5485600301546116bb9190612620565b116117085760405162461bcd60e51b815260206004820152601d60248201527f596f75207374616b696e67206973206e6f7420656e646564207965742e0000006044820152606401610655565b8284600501600082825461171c9190612620565b925050819055508260cd60008282546117359190612620565b925050819055508463ffffffff1683826001600160a01b03167ffec605188cf64597b9aa9cf424a9bba4a84ffb09f9f66c932d6efa1b96fcc7e4856001600160a01b03166365eb204d6040518163ffffffff1660e01b8152600401602060405180830381865afa1580156117ad573d6000803e3d6000fd5b505050506040513d601f19601f820116820180604052508101906117d19190612633565b6040516001600160a01b03909116815260200160405180910390a4835460ff19168455600184015460405163ffffffff871691906001600160a01b038416907ff960dbf9e5d0682f7a298ed974e33a28b4464914b7a2bfac12ae419a9afeb28090600090a4816001600160a01b03166365eb204d6040518163ffffffff1660e01b8152600401602060405180830381865afa158015611874573d6000803e3d6000fd5b505050506040513d601f19601f820116820180604052508101906118989190612633565b6001600160a01b031663a9059cbb828587600101546118b79190612620565b6040517fffffffff0000000000000000000000000000000000000000000000000000000060e085901b1681526001600160a01b03909216600483015260248201526044016020604051808303816000875af115801561191a573d6000803e3d6000fd5b505050506040513d601f19601f8201168201806040525081019061193e9190612650565b505050505050565b600081815260d16020526040812060cf54600382015442929190849061196d908390612620565b905080841015610e1a57838284600301546119889190612620565b61199291906126d7565b9695505050505050565b6060600060ca8054806020026020016040519081016040528092919081815260200182805480156119f657602002820191906000526020600020905b81546001600160a01b031681526001909101906020018083116119d8575b5050505050905060008151905060008167ffffffffffffffff811115611a1e57611a1e612409565b604051908082528060200260200182016040528015611a47578160200160208202803683370190505b5090506000805b838110156115ac57611a6c8386838151811061153257611532612672565b1515600114611aee57611a97858281518110611a8a57611a8a612672565b6020026020010151610d4b565b15611aee57848181518110611aae57611aae612672565b6020026020010151838381518110611ac857611ac8612672565b6001600160a01b039092166020928302919091019091015281611aea81612688565b9250505b80611af881612688565b915050611a4e565b611b08611b8d565b6001600160a01b038116611b845760405162461bcd60e51b815260206004820152602660248201527f4f776e61626c653a206e6577206f776e657220697320746865207a65726f206160448201527f64647265737300000000000000000000000000000000000000000000000000006064820152608401610655565b610a3281611dfc565b6033546001600160a01b031633146110415760405162461bcd60e51b815260206004820181905260248201527f4f776e61626c653a2063616c6c6572206973206e6f7420746865206f776e65726044820152606401610655565b60cf54600082815260d1602052604081206003810154919242929091908490611c1090856126d7565b90506000838360010154611c2491906126ea565b90508260050154611c3583866120c2565b611c3f91906126d7565b611c4990826126a1565b979650505050505050565b610a32611b8d565b7f4910fdfa16fed3260ed0e7147f7cc6da11a60208b5b9406d12a635614ffd91435460ff1615611c8f576113cd836120d8565b826001600160a01b03166352d1902d6040518163ffffffff1660e01b8152600401602060405180830381865afa925050508015611ce9575060408051601f3d908101601f19168201909252611ce69181019061270c565b60015b611d5b5760405162461bcd60e51b815260206004820152602e60248201527f45524331393637557067726164653a206e657720696d706c656d656e7461746960448201527f6f6e206973206e6f7420555550530000000000000000000000000000000000006064820152608401610655565b7f360894a13ba1a3210667c828492db98dca3e2076cc3735a920a3ca505d382bbc8114611df05760405162461bcd60e51b815260206004820152602960248201527f45524331393637557067726164653a20756e737570706f727465642070726f7860448201527f6961626c655555494400000000000000000000000000000000000000000000006064820152608401610655565b506113cd838383612196565b603380546001600160a01b038381166001600160a01b0319831681179093556040519116919082907f8be0079c531659141344cd1fd0a4f28419497f9722a3daafe3b4186f6b6457e090600090a35050565b600054610100900460ff16611eb95760405162461bcd60e51b815260206004820152602b60248201527f496e697469616c697a61626c653a20636f6e7472616374206973206e6f74206960448201526a6e697469616c697a696e6760a81b6064820152608401610655565b6110416121c1565b600054610100900460ff166110415760405162461bcd60e51b815260206004820152602b60248201527f496e697469616c697a61626c653a20636f6e7472616374206973206e6f74206960448201526a6e697469616c697a696e6760a81b6064820152608401610655565b60ca8054600180820183557f42d72674974f694b5f5159593243114d38a5c39c89d6b62fee061ff523240ee190910180546001600160a01b0319166001600160a01b0387169081179091559154600083815260d06020908152604080832084845260d183529083208154808701835582855292842090920184905581547fffffffffffffffffffffff000000000000000000000000000000000000000000166101009096029590951784178155426003820181905593810187905560cb80549295939493928891908790612001908490612620565b925050819055508587896001600160a01b03167ff556991011e831bcfac4f406d547e5e32cdd98267efab83935230d5f8d02c4468760405161204591815260200190565b60405180910390a460019450505050505b9392505050565b6000805b83518110156120b857826001600160a01b031684828151811061208657612086612672565b60200260200101516001600160a01b0316036120a6576001915050611326565b806120b081612688565b915050612061565b5060009392505050565b60008183106120d15781612056565b5090919050565b6001600160a01b0381163b6121555760405162461bcd60e51b815260206004820152602d60248201527f455243313936373a206e657720696d706c656d656e746174696f6e206973206e60448201527f6f74206120636f6e7472616374000000000000000000000000000000000000006064820152608401610655565b7f360894a13ba1a3210667c828492db98dca3e2076cc3735a920a3ca505d382bbc80546001600160a01b0319166001600160a01b0392909216919091179055565b61219f83612235565b6000825111806121ac5750805b156113cd576121bb8383612275565b50505050565b600054610100900460ff1661222c5760405162461bcd60e51b815260206004820152602b60248201527f496e697469616c697a61626c653a20636f6e7472616374206973206e6f74206960448201526a6e697469616c697a696e6760a81b6064820152608401610655565b61104133611dfc565b61223e816120d8565b6040516001600160a01b038216907fbc7cd75a20ee27fd9adebab32041f755214dbc6bffa90cc0225b39da2e5c2d3b90600090a250565b60606001600160a01b0383163b6122f45760405162461bcd60e51b815260206004820152602660248201527f416464726573733a2064656c65676174652063616c6c20746f206e6f6e2d636f60448201527f6e747261637400000000000000000000000000000000000000000000000000006064820152608401610655565b600080846001600160a01b03168460405161230f9190612749565b600060405180830381855af49150503d806000811461234a576040519150601f19603f3d011682016040523d82523d6000602084013e61234f565b606091505b5091509150612377828260405180606001604052806027815260200161279960279139612380565b95945050505050565b6060831561238f575081612056565b61205683838151156123a45781518083602001fd5b8060405162461bcd60e51b81526004016106559190612765565b6001600160a01b0381168114610a3257600080fd5b6000602082840312156123e557600080fd5b8135612056816123be565b60006020828403121561240257600080fd5b5035919050565b634e487b7160e01b600052604160045260246000fd5b6000806040838503121561243257600080fd5b823561243d816123be565b9150602083013567ffffffffffffffff8082111561245a57600080fd5b818501915085601f83011261246e57600080fd5b81358181111561248057612480612409565b604051601f8201601f19908116603f011681019083821181831017156124a8576124a8612409565b816040528281528860208487010111156124c157600080fd5b8260208601602083013760006020848301015280955050505050509250929050565b6020808252825182820181905260009190848201906040850190845b8181101561251b578351835292840192918401916001016124ff565b50909695505050505050565b6000806040838503121561253a57600080fd5b8235612545816123be565b946020939093013593505050565b6020808252825182820182905280516040840181905260009291820190839060608601905b808310156125985783518252928401926001929092019190840190612578565b509695505050505050565b6020808252825182820181905260009190848201906040850190845b8181101561251b5783516001600160a01b0316835292840192918401916001016125bf565b6000602082840312156125f657600080fd5b813563ffffffff8116811461205657600080fd5b634e487b7160e01b600052601160045260246000fd5b808201808211156113265761132661260a565b60006020828403121561264557600080fd5b8151612056816123be565b60006020828403121561266257600080fd5b8151801515811461205657600080fd5b634e487b7160e01b600052603260045260246000fd5b60006001820161269a5761269a61260a565b5060010190565b80820281158282048414176113265761132661260a565b600060ff821660ff81036126ce576126ce61260a565b60010192915050565b818103818111156113265761132661260a565b60008261270757634e487b7160e01b600052601260045260246000fd5b500490565b60006020828403121561271e57600080fd5b5051919050565b60005b83811015612740578181015183820152602001612728565b50506000910152565b6000825161275b818460208701612725565b9190910192915050565b6020815260008251806020840152612784816040850160208701612725565b601f01601f1916919091016040019291505056fe416464726573733a206c6f772d6c6576656c2064656c65676174652063616c6c206661696c6564a2646970667358221220bdfb38128312a1cb0dfcda98adf576fa1baa96dd2a51fa8f0eed4bb05f91210064736f6c63430008120033",
  "linkReferences": {},
  "deployedLinkReferences": {}
}