{
  "_format": "hh-sol-artifact-1",
  "contractName": "StakingUpgradeable",
  "sourceName": "contracts/StakingUpgradeable.sol",
  "abi": [
    {
      "anonymous": false,
      "inputs": [
        {
          "indexed": false,
          "internalType": "address",
          "name": "previousAdmin",
          "type": "address"
        },
        {
          "indexed": false,
          "internalType": "address",
          "name": "newAdmin",
          "type": "address"
        }
      ],
      "name": "AdminChanged",
      "type": "event"
    },
    {
      "anonymous": false,
      "inputs": [
        {
          "indexed": true,
          "internalType": "address",
          "name": "beacon",
          "type": "address"
        }
      ],
      "name": "BeaconUpgraded",
      "type": "event"
    },
    {
      "anonymous": false,
      "inputs": [
        {
          "indexed": false,
          "internalType": "uint8",
          "name": "version",
          "type": "uint8"
        }
      ],
      "name": "Initialized",
      "type": "event"
    },
    {
      "anonymous": false,
      "inputs": [
        {
          "indexed": true,
          "internalType": "address",
          "name": "previousOwner",
          "type": "address"
        },
        {
          "indexed": true,
          "internalType": "address",
          "name": "newOwner",
          "type": "address"
        }
      ],
      "name": "OwnershipTransferred",
      "type": "event"
    },
    {
      "anonymous": false,
      "inputs": [
        {
          "indexed": true,
          "internalType": "address",
          "name": "userAddress",
          "type": "address"
        },
        {
          "indexed": false,
          "internalType": "uint256",
          "name": "amount",
          "type": "uint256"
        }
      ],
      "name": "PrincipalClaimed",
      "type": "event"
    },
    {
      "anonymous": false,
      "inputs": [
        {
          "indexed": true,
          "internalType": "address",
          "name": "userAddress",
          "type": "address"
        },
        {
          "indexed": true,
          "internalType": "uint256",
          "name": "valueStaked",
          "type": "uint256"
        },
        {
          "indexed": true,
          "internalType": "uint256",
          "name": "duration",
          "type": "uint256"
        },
        {
          "indexed": false,
          "internalType": "uint256",
          "name": "stakingID",
          "type": "uint256"
        }
      ],
      "name": "Stake",
      "type": "event"
    },
    {
      "anonymous": false,
      "inputs": [
        {
          "indexed": true,
          "internalType": "address",
          "name": "userAddress",
          "type": "address"
        },
        {
          "indexed": true,
          "internalType": "uint256",
          "name": "reward",
          "type": "uint256"
        },
        {
          "indexed": true,
          "internalType": "uint256",
          "name": "stakingID",
          "type": "uint256"
        },
        {
          "indexed": false,
          "internalType": "address",
          "name": "tokenAddress",
          "type": "address"
        }
      ],
      "name": "StakingRewardClaimed",
      "type": "event"
    },
    {
      "anonymous": false,
      "inputs": [
        {
          "indexed": true,
          "internalType": "address",
          "name": "userAddress",
          "type": "address"
        },
        {
          "indexed": true,
          "internalType": "uint256",
          "name": "valueStaked",
          "type": "uint256"
        },
        {
          "indexed": true,
          "internalType": "uint256",
          "name": "stakingID",
          "type": "uint256"
        }
      ],
      "name": "Unstake",
      "type": "event"
    },
    {
      "anonymous": false,
      "inputs": [
        {
          "indexed": true,
          "internalType": "address",
          "name": "implementation",
          "type": "address"
        }
      ],
      "name": "Upgraded",
      "type": "event"
    },
    {
      "inputs": [],
      "name": "activeStakersList",
      "outputs": [
        {
          "internalType": "address[]",
          "name": "",
          "type": "address[]"
        }
      ],
      "stateMutability": "view",
      "type": "function"
    },
    {
      "inputs": [],
      "name": "allStakersList",
      "outputs": [
        {
          "internalType": "address[]",
          "name": "",
          "type": "address[]"
        }
      ],
      "stateMutability": "view",
      "type": "function"
    },
    {
      "inputs": [
        {
          "internalType": "uint256",
          "name": "_stakingID",
          "type": "uint256"
        }
      ],
      "name": "claimStakingReward",
      "outputs": [],
      "stateMutability": "nonpayable",
      "type": "function"
    },
    {
      "inputs": [],
      "name": "getActiveStakingIDs",
      "outputs": [
        {
          "internalType": "uint256[]",
          "name": "",
          "type": "uint256[]"
        }
      ],
      "stateMutability": "view",
      "type": "function"
    },
    {
      "inputs": [],
      "name": "getStakingCappings",
      "outputs": [
        {
          "internalType": "uint256",
          "name": "stakingRewardRate",
          "type": "uint256"
        },
        {
          "internalType": "uint256",
          "name": "stakingDuration",
          "type": "uint256"
        }
      ],
      "stateMutability": "view",
      "type": "function"
    },
    {
      "inputs": [
        {
          "internalType": "uint256",
          "name": "_stakingID",
          "type": "uint256"
        }
      ],
      "name": "getStakingReward",
      "outputs": [
        {
          "internalType": "uint256",
          "name": "",
          "type": "uint256"
        }
      ],
      "stateMutability": "view",
      "type": "function"
    },
    {
      "inputs": [
        {
          "internalType": "uint256",
          "name": "_stakingID",
          "type": "uint256"
        }
      ],
      "name": "getStakingTimeRemaining",
      "outputs": [
        {
          "internalType": "uint256",
          "name": "",
          "type": "uint256"
        }
      ],
      "stateMutability": "view",
      "type": "function"
    },
    {
      "inputs": [],
      "name": "getTotalStakingRewardDistributed",
      "outputs": [
        {
          "internalType": "uint256",
          "name": "_tokenRewards",
          "type": "uint256"
        }
      ],
      "stateMutability": "view",
      "type": "function"
    },
    {
      "inputs": [],
      "name": "getTotalValueStaked",
      "outputs": [
        {
          "internalType": "uint256",
          "name": "token",
          "type": "uint256"
        }
      ],
      "stateMutability": "view",
      "type": "function"
    },
    {
      "inputs": [
        {
          "internalType": "address",
          "name": "_userAddress",
          "type": "address"
        }
      ],
      "name": "getUserAllStakingsRewards",
      "outputs": [
        {
          "internalType": "uint256",
          "name": "allStakingRewards",
          "type": "uint256"
        }
      ],
      "stateMutability": "view",
      "type": "function"
    },
    {
      "inputs": [
        {
          "internalType": "address",
          "name": "_userAddress",
          "type": "address"
        }
      ],
      "name": "getUserStakingIDs",
      "outputs": [
        {
          "internalType": "uint256[]",
          "name": "",
          "type": "uint256[]"
        }
      ],
      "stateMutability": "view",
      "type": "function"
    },
    {
      "inputs": [
        {
          "internalType": "address",
          "name": "_userAddress",
          "type": "address"
        }
      ],
      "name": "getUserTotalRewardClaimedToken",
      "outputs": [
        {
          "internalType": "uint256",
          "name": "totalRewardClaim",
          "type": "uint256"
        }
      ],
      "stateMutability": "view",
      "type": "function"
    },
    {
      "inputs": [
        {
          "internalType": "address",
          "name": "_userAddress",
          "type": "address"
        }
      ],
      "name": "getUserTotalValueStaked",
      "outputs": [
        {
          "internalType": "uint256",
          "name": "token",
          "type": "uint256"
        }
      ],
      "stateMutability": "view",
      "type": "function"
    },
    {
      "inputs": [],
      "name": "getVariablesContract",
      "outputs": [
        {
          "internalType": "address",
          "name": "",
          "type": "address"
        }
      ],
      "stateMutability": "view",
      "type": "function"
    },
    {
      "inputs": [],
      "name": "initialize",
      "outputs": [],
      "stateMutability": "nonpayable",
      "type": "function"
    },
    {
      "inputs": [
        {
          "internalType": "address",
          "name": "_userAddress",
          "type": "address"
        }
      ],
      "name": "isStaked",
      "outputs": [
        {
          "internalType": "bool",
          "name": "",
          "type": "bool"
        }
      ],
      "stateMutability": "view",
      "type": "function"
    },
    {
      "inputs": [],
      "name": "owner",
      "outputs": [
        {
          "internalType": "address",
          "name": "",
          "type": "address"
        }
      ],
      "stateMutability": "view",
      "type": "function"
    },
    {
      "inputs": [],
      "name": "proxiableUUID",
      "outputs": [
        {
          "internalType": "bytes32",
          "name": "",
          "type": "bytes32"
        }
      ],
      "stateMutability": "view",
      "type": "function"
    },
    {
      "inputs": [],
      "name": "renounceOwnership",
      "outputs": [],
      "stateMutability": "nonpayable",
      "type": "function"
    },
    {
      "inputs": [
        {
          "internalType": "uint256",
          "name": "_valueInDays",
          "type": "uint256"
        }
      ],
      "name": "setStakingDuration",
      "outputs": [],
      "stateMutability": "nonpayable",
      "type": "function"
    },
    {
      "inputs": [
        {
          "internalType": "uint256",
          "name": "_valueInPer",
          "type": "uint256"
        }
      ],
      "name": "setStakingRewardRate",
      "outputs": [],
      "stateMutability": "nonpayable",
      "type": "function"
    },
    {
      "inputs": [
        {
          "internalType": "address",
          "name": "_contractAddress",
          "type": "address"
        }
      ],
      "name": "setVariablesContract",
      "outputs": [],
      "stateMutability": "nonpayable",
      "type": "function"
    },
    {
      "inputs": [
        {
          "internalType": "address",
          "name": "_userAddress",
          "type": "address"
        },
        {
          "internalType": "uint256",
          "name": "_value",
          "type": "uint256"
        }
      ],
      "name": "stake",
      "outputs": [],
      "stateMutability": "nonpayable",
      "type": "function"
    },
    {
      "inputs": [
        {
          "internalType": "uint256",
          "name": "_stakingID",
          "type": "uint256"
        }
      ],
      "name": "stakeInfoMap",
      "outputs": [
        {
          "components": [
            {
              "internalType": "bool",
              "name": "isActive",
              "type": "bool"
            },
            {
              "internalType": "address",
              "name": "owner",
              "type": "address"
            },
            {
              "internalType": "uint256",
              "name": "value",
              "type": "uint256"
            },
            {
              "internalType": "uint256",
              "name": "rewardRate",
              "type": "uint256"
            },
            {
              "internalType": "uint256",
              "name": "startTime",
              "type": "uint256"
            },
            {
              "internalType": "uint256",
              "name": "duration",
              "type": "uint256"
            },
            {
              "internalType": "uint256",
              "name": "rewardClaimed",
              "type": "uint256"
            }
          ],
          "internalType": "struct StakingUpgradeable.StakeInfo",
          "name": "",
          "type": "tuple"
        }
      ],
      "stateMutability": "view",
      "type": "function"
    },
    {
      "inputs": [
        {
          "internalType": "address",
          "name": "newOwner",
          "type": "address"
        }
      ],
      "name": "transferOwnership",
      "outputs": [],
      "stateMutability": "nonpayable",
      "type": "function"
    },
    {
      "inputs": [
        {
          "internalType": "uint32",
          "name": "_stakingID",
          "type": "uint32"
        }
      ],
      "name": "unStake",
      "outputs": [],
      "stateMutability": "nonpayable",
      "type": "function"
    },
    {
      "inputs": [
        {
          "internalType": "address",
          "name": "newImplementation",
          "type": "address"
        }
      ],
      "name": "upgradeTo",
      "outputs": [],
      "stateMutability": "nonpayable",
      "type": "function"
    },
    {
      "inputs": [
        {
          "internalType": "address",
          "name": "newImplementation",
          "type": "address"
        },
        {
          "internalType": "bytes",
          "name": "data",
          "type": "bytes"
        }
      ],
      "name": "upgradeToAndCall",
      "outputs": [],
      "stateMutability": "payable",
      "type": "function"
    },
    {
      "inputs": [
        {
          "internalType": "address",
          "name": "_userAddress",
          "type": "address"
        }
      ],
      "name": "userAccountMap",
      "outputs": [
        {
          "components": [
            {
              "internalType": "uint256[]",
              "name": "stakingID",
              "type": "uint256[]"
            }
          ],
          "internalType": "struct StakingUpgradeable.Account",
          "name": "",
          "type": "tuple"
        }
      ],
      "stateMutability": "view",
      "type": "function"
    },
    {
      "stateMutability": "payable",
      "type": "receive"
    }
  ],
  "bytecode": "0x60a06040523060805234801561001457600080fd5b506080516125c761004c60003960008181610866015281816108a601528181610945015281816109850152610a1801526125c76000f3fe6080604052600436106101c65760003560e01c80638da5cb5b116100f7578063c06a538811610095578063deede65411610064578063deede65414610552578063e3a51f5814610567578063f13a143f1461058f578063f2fde38b146105ad57600080fd5b8063c06a5388146104db578063cf8a379d146104fd578063d8ba90b71461051d578063dba4358c1461053d57600080fd5b8063abfe35ad116100d1578063abfe35ad1461044e578063adc9772e1461046e578063b7d685191461048e578063ba4f678e146104ae57600080fd5b80638da5cb5b146103805780639c3fe28a146103b2578063a7566b75146103d257600080fd5b806366e5e570116101645780636f72693b1161013e5780636f72693b1461032c578063715018a6146103415780637ce574bf146103565780638129fc1c1461036b57600080fd5b806366e5e570146102bf5780636a8ca691146102df5780636f51b20b146102ff57600080fd5b80634f1ef286116101a05780634f1ef2861461023457806352d1902d146102475780635f8697141461026f5780636177fd181461028f57600080fd5b80630ba0dba3146101d2578063239cd4a4146101f45780633659cfe61461021457600080fd5b366101cd57005b600080fd5b3480156101de57600080fd5b506101f26101ed36600461205b565b6105cd565b005b34801561020057600080fd5b506101f261020f366004612078565b6105f7565b34801561022057600080fd5b506101f261022f36600461205b565b61085c565b6101f26102423660046120a7565b61093b565b34801561025357600080fd5b5061025c610a0b565b6040519081526020015b60405180910390f35b34801561027b57600080fd5b5061025c61028a36600461205b565b610abe565b34801561029b57600080fd5b506102af6102aa36600461205b565b610ba3565b6040519015158152602001610266565b3480156102cb57600080fd5b5061025c6102da36600461205b565b610c7e565b3480156102eb57600080fd5b506101f26102fa366004612078565b610d4c565b34801561030b57600080fd5b5061031f61031a36600461205b565b610d67565b604051610266919061216b565b34801561033857600080fd5b5061031f610dd3565b34801561034d57600080fd5b506101f2610e87565b34801561036257600080fd5b5060cd5461025c565b34801561037757600080fd5b506101f2610e9b565b34801561038c57600080fd5b506033546001600160a01b03165b6040516001600160a01b039091168152602001610266565b3480156103be57600080fd5b5061025c6103cd36600461205b565b610fe6565b3480156103de57600080fd5b506103f26103ed366004612078565b6110a7565b60405161026691908151151581526020808301516001600160a01b03169082015260408083015190820152606080830151908201526080808301519082015260a0808301519082015260c0918201519181019190915260e00190565b34801561045a57600080fd5b5061025c610469366004612078565b611164565b34801561047a57600080fd5b506101f26104893660046121af565b611175565b34801561049a57600080fd5b506101f26104a9366004612078565b61121b565b3480156104ba57600080fd5b506104ce6104c936600461205b565b611228565b60405161026691906121db565b3480156104e757600080fd5b506104f06112ab565b604051610266919061222b565b34801561050957600080fd5b506101f261051836600461226c565b6113ff565b34801561052957600080fd5b5061025c610538366004612078565b611737565b34801561054957600080fd5b506104f061178d565b34801561055e57600080fd5b5060cb5461025c565b34801561057357600080fd5b5060ce5460cf5460408051928352602083019190915201610266565b34801561059b57600080fd5b5060c9546001600160a01b031661039a565b3480156105b957600080fd5b506101f26105c836600461205b565b6118f1565b6105d5611967565b60c980546001600160a01b0319166001600160a01b0392909216919091179055565b6000610602826119c1565b9050600081116106595760405162461bcd60e51b815260206004820152601c60248201527f596f752068617665206e6f207374616b696e67206f7220656e6465640000000060448201526064015b60405180910390fd5b60c954600083815260d16020526040902080546001600160a01b0392831692339291610100900416821461069f5760405162461bcd60e51b815260040161065090612292565b838160050160008282546106b391906122ef565b925050819055508360cd60008282546106cc91906122ef565b92505081905550826001600160a01b03166365eb204d6040518163ffffffff1660e01b8152600401602060405180830381865afa158015610711573d6000803e3d6000fd5b505050506040513d601f19601f820116820180604052508101906107359190612302565b60405163a9059cbb60e01b81526001600160a01b03848116600483015260248201879052919091169063a9059cbb906044016020604051808303816000875af1158015610786573d6000803e3d6000fd5b505050506040513d601f19601f820116820180604052508101906107aa919061231f565b508484836001600160a01b03167ffec605188cf64597b9aa9cf424a9bba4a84ffb09f9f66c932d6efa1b96fcc7e4866001600160a01b03166365eb204d6040518163ffffffff1660e01b8152600401602060405180830381865afa158015610816573d6000803e3d6000fd5b505050506040513d601f19601f8201168201806040525081019061083a9190612302565b6040516001600160a01b03909116815260200160405180910390a45050505050565b6001600160a01b037f00000000000000000000000000000000000000000000000000000000000000001630036108a45760405162461bcd60e51b815260040161065090612341565b7f00000000000000000000000000000000000000000000000000000000000000006001600160a01b03166108ed60008051602061254b833981519152546001600160a01b031690565b6001600160a01b0316146109135760405162461bcd60e51b81526004016106509061238d565b61091c81611a2e565b6040805160008082526020820190925261093891839190611a36565b50565b6001600160a01b037f00000000000000000000000000000000000000000000000000000000000000001630036109835760405162461bcd60e51b815260040161065090612341565b7f00000000000000000000000000000000000000000000000000000000000000006001600160a01b03166109cc60008051602061254b833981519152546001600160a01b031690565b6001600160a01b0316146109f25760405162461bcd60e51b81526004016106509061238d565b6109fb82611a2e565b610a0782826001611a36565b5050565b6000306001600160a01b037f00000000000000000000000000000000000000000000000000000000000000001614610aab5760405162461bcd60e51b815260206004820152603860248201527f555550535570677261646561626c653a206d757374206e6f742062652063616c60448201527f6c6564207468726f7567682064656c656761746563616c6c00000000000000006064820152608401610650565b5060008051602061254b83398151915290565b6001600160a01b038116600090815260d060209081526040808320805482518185028101850190935280835290928492918491830182828015610b2057602002820191906000526020600020905b815481526020019060010190808311610b0c575b505083519394506000925050505b81811015610b9a57600060d16000858481518110610b4e57610b4e6123d9565b6020908102919091018101518252810191909152604001600020805490915060ff1615610b87576001810154610b8490876122ef565b95505b5080610b92816123ef565b915050610b2e565b50505050919050565b6001600160a01b038116600090815260d060209081526040808320805482518185028101850190935280835290928492918491830182828015610c0557602002820191906000526020600020905b815481526020019060010190808311610bf1575b505083519394506000925050505b81811015610c725760d16000848381518110610c3157610c316123d9565b60209081029190910181015182528101919091526040016000205460ff1615610c605750600195945050505050565b80610c6a816123ef565b915050610c13565b50600095945050505050565b6001600160a01b038116600090815260d060209081526040808320805482518185028101850190935280835290928492918491830182828015610ce057602002820191906000526020600020905b815481526020019060010190808311610ccc575b505083519394506000925050505b81811015610b9a57600060d16000858481518110610d0e57610d0e6123d9565b602002602001015181526020019081526020016000209050806005015486610d3691906122ef565b9550508080610d44906123ef565b915050610cee565b610d54611967565b610d618162015180612408565b60cf5550565b6001600160a01b038116600090815260d06020908152604091829020805483518184028101840190945280845260609392830182828015610dc757602002820191906000526020600020905b815481526020019060010190808311610db3575b50505050509050919050565b60ca5460609060008167ffffffffffffffff811115610df457610df4612091565b604051908082528060200260200182016040528015610e1d578160200160208202803683370190505b50905060005b82811015610e8057600081815260d160205260409020805460ff161515600103610e6d578115610e6d5781838381518110610e6057610e606123d9565b6020026020010181815250505b5080610e78816123ef565b915050610e23565b5092915050565b610e8f611967565b610e996000611ba1565b565b600054610100900460ff1615808015610ebb5750600054600160ff909116105b80610ed55750303b158015610ed5575060005460ff166001145b610f385760405162461bcd60e51b815260206004820152602e60248201527f496e697469616c697a61626c653a20636f6e747261637420697320616c72656160448201526d191e481a5b9a5d1a585b1a5e995960921b6064820152608401610650565b6000805460ff191660011790558015610f5b576000805461ff0019166101001790555b60c980546001600160a01b0319167377daafc7411c911b869c71bf70fe36cce507845d179055606460ce556302d5190060cf55610f96611bf3565b610f9e611c22565b8015610938576000805461ff0019169055604051600181527f7f26b83ff96e1f2b6a682f133852f6798a09c465da95921460cefb38474024989060200160405180910390a150565b6001600160a01b038116600090815260d0602090815260408083208054825181850281018501909352808352849383018282801561104357602002820191906000526020600020905b81548152602001906001019080831161102f575b505083519394506000925050505b818160ff16101561109f57611081838260ff1681518110611074576110746123d9565b60200260200101516119c1565b61108b90856122ef565b9350806110978161241f565b915050611051565b505050919050565b6110f26040518060e0016040528060001515815260200160006001600160a01b0316815260200160008152602001600081526020016000815260200160008152602001600081525090565b50600090815260d16020908152604091829020825160e081018452815460ff81161515825261010090046001600160a01b0316928101929092526001810154928201929092526002820154606082015260038201546080820152600482015460a082015260059091015460c082015290565b600061116f826119c1565b92915050565b60c960009054906101000a90046001600160a01b03166001600160a01b03166323442c606040518163ffffffff1660e01b8152600401602060405180830381865afa1580156111c8573d6000803e3d6000fd5b505050506040513d601f19601f820116820180604052508101906111ec9190612302565b6001600160a01b0316336001600160a01b03161461120957600080fd5b611216828260cf54611c49565b505050565b611223611967565b60ce55565b6040805160208082018352606082526001600160a01b038416600090815260d082528390208351815480840282018601865292810183815293949093919284929184919084018282801561129b57602002820191906000526020600020905b815481526020019060010190808311611287575b5050505050815250509050919050565b6060600060ca80548060200260200160405190810160405280929190818152602001828054801561130557602002820191906000526020600020905b81546001600160a01b031681526001909101906020018083116112e7575b5050505050905060008151905060008167ffffffffffffffff81111561132d5761132d612091565b604051908082528060200260200182016040528015611356578160200160208202803683370190505b5090506000805b838110156113f5576113888386838151811061137b5761137b6123d9565b6020026020010151611d62565b15156001146113e3578481815181106113a3576113a36123d9565b60200260200101518383815181106113bd576113bd6123d9565b6001600160a01b0390921660209283029190910190910152816113df816123ef565b9250505b806113ed816123ef565b91505061135d565b5090949350505050565b63ffffffff8116600090815260d160205260409020805460ff166114655760405162461bcd60e51b815260206004820152601c60248201527f596f752068617665206e6f207374616b696e67206f7220656e646564000000006044820152606401610650565b60006114768363ffffffff166119c1565b60c95483549192506001600160a01b039081169133916101009091041681146114b15760405162461bcd60e51b815260040161065090612292565b4260cf5485600301546114c491906122ef565b116115115760405162461bcd60e51b815260206004820152601d60248201527f596f75207374616b696e67206973206e6f7420656e646564207965742e0000006044820152606401610650565b8284600501600082825461152591906122ef565b925050819055508260cd600082825461153e91906122ef565b925050819055508463ffffffff1683826001600160a01b03167ffec605188cf64597b9aa9cf424a9bba4a84ffb09f9f66c932d6efa1b96fcc7e4856001600160a01b03166365eb204d6040518163ffffffff1660e01b8152600401602060405180830381865afa1580156115b6573d6000803e3d6000fd5b505050506040513d601f19601f820116820180604052508101906115da9190612302565b6040516001600160a01b03909116815260200160405180910390a4835460ff19168455600184015460405163ffffffff871691906001600160a01b038416907ff960dbf9e5d0682f7a298ed974e33a28b4464914b7a2bfac12ae419a9afeb28090600090a4816001600160a01b03166365eb204d6040518163ffffffff1660e01b8152600401602060405180830381865afa15801561167d573d6000803e3d6000fd5b505050506040513d601f19601f820116820180604052508101906116a19190612302565b6001600160a01b031663a9059cbb828587600101546116c091906122ef565b6040516001600160e01b031960e085901b1681526001600160a01b03909216600483015260248201526044016020604051808303816000875af115801561170b573d6000803e3d6000fd5b505050506040513d601f19601f8201168201806040525081019061172f919061231f565b505050505050565b600081815260d16020526040812060cf54600382015442929190849061175e9083906122ef565b905080841015610c72578382846003015461177991906122ef565b611783919061243e565b9695505050505050565b6060600060ca8054806020026020016040519081016040528092919081815260200182805480156117e757602002820191906000526020600020905b81546001600160a01b031681526001909101906020018083116117c9575b5050505050905060008151905060008167ffffffffffffffff81111561180f5761180f612091565b604051908082528060200260200182016040528015611838578160200160208202803683370190505b5090506000805b838110156113f55761185d8386838151811061137b5761137b6123d9565b15156001146118df5761188885828151811061187b5761187b6123d9565b6020026020010151610ba3565b156118df5784818151811061189f5761189f6123d9565b60200260200101518383815181106118b9576118b96123d9565b6001600160a01b0390921660209283029190910190910152816118db816123ef565b9250505b806118e9816123ef565b91505061183f565b6118f9611967565b6001600160a01b03811661195e5760405162461bcd60e51b815260206004820152602660248201527f4f776e61626c653a206e6577206f776e657220697320746865207a65726f206160448201526564647265737360d01b6064820152608401610650565b61093881611ba1565b6033546001600160a01b03163314610e995760405162461bcd60e51b815260206004820181905260248201527f4f776e61626c653a2063616c6c6572206973206e6f7420746865206f776e65726044820152606401610650565b60cf54600082815260d16020526040812060038101549192429290919084906119ea908561243e565b905060008383600101546119fe9190612451565b90508260050154611a0f8386611dc7565b611a19919061243e565b611a239082612408565b979650505050505050565b610938611967565b7f4910fdfa16fed3260ed0e7147f7cc6da11a60208b5b9406d12a635614ffd91435460ff1615611a695761121683611ddd565b826001600160a01b03166352d1902d6040518163ffffffff1660e01b8152600401602060405180830381865afa925050508015611ac3575060408051601f3d908101601f19168201909252611ac091810190612473565b60015b611b265760405162461bcd60e51b815260206004820152602e60248201527f45524331393637557067726164653a206e657720696d706c656d656e7461746960448201526d6f6e206973206e6f74205555505360901b6064820152608401610650565b60008051602061254b8339815191528114611b955760405162461bcd60e51b815260206004820152602960248201527f45524331393637557067726164653a20756e737570706f727465642070726f786044820152681a58589b195555525160ba1b6064820152608401610650565b50611216838383611e79565b603380546001600160a01b038381166001600160a01b0319831681179093556040519116919082907f8be0079c531659141344cd1fd0a4f28419497f9722a3daafe3b4186f6b6457e090600090a35050565b600054610100900460ff16611c1a5760405162461bcd60e51b81526004016106509061248c565b610e99611ea4565b600054610100900460ff16610e995760405162461bcd60e51b81526004016106509061248c565b60ca8054600180820183557f42d72674974f694b5f5159593243114d38a5c39c89d6b62fee061ff523240ee190910180546001600160a01b0319166001600160a01b0387169081179091559154600083815260d06020908152604080832084845260d183529083208154808701835582855292842090920184905581546001600160a81b0319166101009096029590951784178155426003820181905593810187905560cb80549295939493928891908790611d069084906122ef565b925050819055508587896001600160a01b03167ff556991011e831bcfac4f406d547e5e32cdd98267efab83935230d5f8d02c44687604051611d4a91815260200190565b60405180910390a460019450505050505b9392505050565b6000805b8351811015611dbd57826001600160a01b0316848281518110611d8b57611d8b6123d9565b60200260200101516001600160a01b031603611dab57600191505061116f565b80611db5816123ef565b915050611d66565b5060009392505050565b6000818310611dd65781611d5b565b5090919050565b6001600160a01b0381163b611e4a5760405162461bcd60e51b815260206004820152602d60248201527f455243313936373a206e657720696d706c656d656e746174696f6e206973206e60448201526c1bdd08184818dbdb9d1c9858dd609a1b6064820152608401610650565b60008051602061254b83398151915280546001600160a01b0319166001600160a01b0392909216919091179055565b611e8283611ed4565b600082511180611e8f5750805b1561121657611e9e8383611f14565b50505050565b600054610100900460ff16611ecb5760405162461bcd60e51b81526004016106509061248c565b610e9933611ba1565b611edd81611ddd565b6040516001600160a01b038216907fbc7cd75a20ee27fd9adebab32041f755214dbc6bffa90cc0225b39da2e5c2d3b90600090a250565b60606001600160a01b0383163b611f7c5760405162461bcd60e51b815260206004820152602660248201527f416464726573733a2064656c65676174652063616c6c20746f206e6f6e2d636f6044820152651b9d1c9858dd60d21b6064820152608401610650565b600080846001600160a01b031684604051611f9791906124fb565b600060405180830381855af49150503d8060008114611fd2576040519150601f19603f3d011682016040523d82523d6000602084013e611fd7565b606091505b5091509150611fff828260405180606001604052806027815260200161256b60279139612008565b95945050505050565b60608315612017575081611d5b565b611d5b838381511561202c5781518083602001fd5b8060405162461bcd60e51b81526004016106509190612517565b6001600160a01b038116811461093857600080fd5b60006020828403121561206d57600080fd5b8135611d5b81612046565b60006020828403121561208a57600080fd5b5035919050565b634e487b7160e01b600052604160045260246000fd5b600080604083850312156120ba57600080fd5b82356120c581612046565b9150602083013567ffffffffffffffff808211156120e257600080fd5b818501915085601f8301126120f657600080fd5b81358181111561210857612108612091565b604051601f8201601f19908116603f0116810190838211818310171561213057612130612091565b8160405282815288602084870101111561214957600080fd5b8260208601602083013760006020848301015280955050505050509250929050565b6020808252825182820181905260009190848201906040850190845b818110156121a357835183529284019291840191600101612187565b50909695505050505050565b600080604083850312156121c257600080fd5b82356121cd81612046565b946020939093013593505050565b6020808252825182820182905280516040840181905260009291820190839060608601905b808310156122205783518252928401926001929092019190840190612200565b509695505050505050565b6020808252825182820181905260009190848201906040850190845b818110156121a35783516001600160a01b031683529284019291840191600101612247565b60006020828403121561227e57600080fd5b813563ffffffff81168114611d5b57600080fd5b60208082526027908201527f536f727279207374616b696e6720696420646f656e27742062656c6f6e6773206040820152663a37903cb7ba9760c91b606082015260800190565b634e487b7160e01b600052601160045260246000fd5b8082018082111561116f5761116f6122d9565b60006020828403121561231457600080fd5b8151611d5b81612046565b60006020828403121561233157600080fd5b81518015158114611d5b57600080fd5b6020808252602c908201527f46756e6374696f6e206d7573742062652063616c6c6564207468726f7567682060408201526b19195b1959d85d1958d85b1b60a21b606082015260800190565b6020808252602c908201527f46756e6374696f6e206d7573742062652063616c6c6564207468726f7567682060408201526b6163746976652070726f787960a01b606082015260800190565b634e487b7160e01b600052603260045260246000fd5b600060018201612401576124016122d9565b5060010190565b808202811582820484141761116f5761116f6122d9565b600060ff821660ff8103612435576124356122d9565b60010192915050565b8181038181111561116f5761116f6122d9565b60008261246e57634e487b7160e01b600052601260045260246000fd5b500490565b60006020828403121561248557600080fd5b5051919050565b6020808252602b908201527f496e697469616c697a61626c653a20636f6e7472616374206973206e6f74206960408201526a6e697469616c697a696e6760a81b606082015260800190565b60005b838110156124f25781810151838201526020016124da565b50506000910152565b6000825161250d8184602087016124d7565b9190910192915050565b60208152600082518060208401526125368160408501602087016124d7565b601f01601f1916919091016040019291505056fe360894a13ba1a3210667c828492db98dca3e2076cc3735a920a3ca505d382bbc416464726573733a206c6f772d6c6576656c2064656c65676174652063616c6c206661696c6564a2646970667358221220159743f56be7e8760591f5326fc4aaded745e821d39c88ad012f429bf01bb67e64736f6c63430008120033",
  "linkReferences": {},
  "deployedLinkReferences": {}
}